800500300310012 00280 1117031ECHA RD 29          0170042SEINE/MAR           0280611BOUTTENCOURT        0270355011554011554          00000000000796      011612         008400   008450   009733   011871   011629   013062   014894   016658   012983   010214   009671                        110116041         100113391         090097131         080107251         070108301 2657    008410   009353   009629   012151   012609   013493   014724   016576   012205   011068   009531   009314                                      
800500200310012 00280 1117031ECHA RD928          0100360ECHA RD 29          0170042BEHEN               0100641006690006690          00000000000796      011877         009066   009155   010337   012467   012393   014011   015454   015752   013094   010889   010313   009486               110123451         100117771         090115641         080113891         070114931    0    009239   010158   010410   013142   012090   014071   016280   017221   013507   011804   010164   009891                                      
800500101310012 00280 1817031ECHA RD925          0040245ECHA RD928          0100360MONT CAUBERT        0070006006095006095800500200300000000000202      012049                                                                                                                                 110125238         100119528         090117328         080115538         070119288    0                                                                                                                                                   
800500100310012 00280 1117031ECHA  RD 40         0010695ECHA  RD925         0040245ABBEVILLE           0020650002543002543800500200100000000001291      014117 2448    011112   011361   012760   014540   014144   015933   017890   019336   016213   013382   011471   011147               110146511 2707    100148301 2308    090147041 2198    080145111 2278    070138941         010802   011557   011828   015831   015303   017611   019937   019487   014928   014021   012253   012021                                      
800500000310012 00280 1817031RN1                 0000000ECHA RD 40          0010695GR-LAVIERS          0010000001932001932800500100300000000000796      014037                                                                                                                                 110146058         100147738         090146448         080144538         070138438                                                                                                                                                        
760510010310012 03380 4140201petit quevilly      0050000petit quevilly      0070940le petit quevilly   0060500002940002940800500100176000000010600      075532         068303   075763   079660   075815   076990   081813   069527   064538   074811   080059   081389   078114               110000001    0    100383511    7    090000001    0    080000001    0    070530081    0                                                                                                                                                   
760501700310012 00280 1110241ECH RD919           0830650ECH FIN A28         0970387Quincampoix         0900000013737013737800500100100000000000193      025959 1297    024276   023816   025590   027594   026149   028068   029714   030183   028597   026412   020997   020017               110272211 1397    100268331 1767    090246991    8    080265411    8    070261941    8    023982   024717   025958   028221   027895   029161   029346   029499   028337   027724   026215   025454                                      
760501601310012 00280 1810241                    0800000ECH RD 919          0830650Rocquemont          0800000003650003650760501500300000000000193      000000                                                                                                                                 110000008         100000008    0    090219218    0    080221568    0    070209508    0                                                                                                                                                   
760501600310012 00280 1810241ECH PUCHEUIL        0750000                    0800000Bosc-Bérenger       0800000005000005000760501500300000000000193      000000                                                                                                                                 110000008         100000008    0    090219218    0    080221568    0    070209508    0                                                                                                                                                   
760501500310012 00280 1110241ECH LES HAYONS      0650450ECH PUCHEUIL        0750000Maucomble           0670000009550009550760501500100000000000193      000000                                                                                                                                 110000001         100000001         090262731 1458    080265071 2537    070250041 1848                                                                                                                                                   
760501400310012 00280 1810241ESCLAVELLES         0600000ECHANGEUR HAYONS    0650450Esclavelles         0630000005450005450760501500300000000000193      000000                                                                                                                                 110000008         100000008    0    090261228    0    080263568    0    070248628    0                                                                                                                                                   
760501300310012 00280 1810241NEUFCHATEL CD 928   0550000NEUFCHATEL          0600000NEUFCHATEL          0590700005000005000760501500300000000000288      000000                                                                                                                                 110000008         100241548         090223278         080225458         070212918                                                                                                                                                        
760501200310012 00280 1110241CALLENGEVILLE       0430900NEUFCHATEL NORD     0550000Callengeville       0450000011100011100760501500100000000000193      012171 2707    009208   009345   010504   012714   012478   013903   015749   017285   013624   011130   010429   009567               110124391 2727    100121921 2657    090117991 2557    080116891 2567    070118171 2477    009256   010271   010609   013385   012309   014160   016246   017278   013218   011976   010374   010033                                      
760501100310012 00280 1810241DPT SOMME           0290000CALLENGEVILLE       0430900Fallencourt         0350000014900014900760501200300000000000193      013087                                                                                                                                 110133778         100131128    0    090126908    0    080125728    0    070127118    0                                                                                                                                                   
760500500310012 01310 1110241                    0300600                    0330393GONFREVILLE         0320850002793002793760501200100000000000409      042445 0888    041327   040358   043003   043060   041266   045088   044838   040490   043857   044779   042561   038732               110426641 1127    100416811 1048    090407171    0    080404811 1200    070000001    0    040318   042607   043407   043388   044502   044283   042632   038608   044779   044121   042927   040547                                      
760500401310012 01310 1810241                    0210936                    0300600Sandouville         0280600008664008664760500500300000000000409      019986                                                                                                                                 110200928         100185268         090187518         080176508 1400    070000008    0                                                                                                                                                   
760500400310012 0131001810241                    0160000                    0210936Tancarville         0160000005936005936760500500300000000000409      018553                                                                                                                                 110186408         100181948    0    090177748    0    080176508 1408    070000008    0                                                                                                                                                   
760500300310012 01500 1810241ROUMARE             0080880BARENTIN            0121143Roumare             0100700004263004263760500200300000000000288      033216                                                                                                                                 110329838         100339298         090326738         080300808 113     070303348                                                                                                                                                        
760500201310012 01500 1810241Ech la vaupaliere   0060320ech A 151           0080880La Vaupaliere nord  0080000002560002560760500200300000000000102      056502                                                                                                                                 110561048         100539998         090520088         080478558         070482748                                                                                                                                                        
760500200310012 01500 1110241Canteleu            0040230ech la vaupaliere   0060320La Vaupaliere       0040775002090002090760500200100000000000102      051040 0877    049230   047544   051189   051581   051007   054146   050660   046573   053128   053749   053669   050048               110506821    7    100487781    7    090469691    7    080432451    7    070436061    7    047968   049293   050762   051875   052088   052033   049104   045540   052454   053229   052968   050947                                      
760500100310012 01500 1810241ROUEN               0000000CANTELEU            0040230CANTELEU            0020520004230004230760500200300000000000288      059867                                                                                                                                 110594498         100572168         090563038         080501448         070505498                                                                                                                                                        
760500025310012 00280 4840201ROUEN               0000000                    0011016Viaduc de Lyons     0010000002016002016760500001300000000000693      038430                                                                                                                                 110418028    0    100411368    0    090412818    0    080416468 1110    070397478    0                                                                                                                                                   
760500024310012 00280 4810201ech 2828            0060500fin d928 a28        0070848isneauville         0070200001348001348760500001300000000000102      031981                                                                                                                                 110347878    0    100341708    0    090342888    0    080343138 1370    070323818    0                                                                                                                                                   
760500023310012 00280 4810201ech 443             0050437ech 2828            0060500bois guillaume      0050900001063001063760500001300000000000102      041951                                                                                                                                 110456198    0    100448788    0    090450368    0    080452838    0    070432198    0                                                                                                                                                   
760500021310012 00280 4840201                    0011016ech d443bg          0020000Darnetal            0011200000184000184760500001300000000000693      038430                                                                                                                                 110418028    0    100411368    0    090412818    0    080416468 1110    070000008    0                                                                                                                                                   
760500001310012 00280 4140201ROUEN DARNETAL      0020000                    0050437Tunnel              0030900003437003437760500001100000000000693      038430 0937    039216   038941   040823   042025   040702   044060   041235   039482   042745   039663   025945   026397               110418021 1047    100000001    0    090412811    0    080416461 1110    070397471    0    038475   040586   041965   042577   043210   043832   042852   040239   043419   042689   041697   040099                                      
760500000310012 01510 1810241PISSY POVILLE       0000000PISSY POVILLE       0060400PISSY POVILLE       0010520006400006400760500200300000000000288      019956                                                                                                                                 110198178         100190748         090183698         080169098         070170548                                                                                                                                                        
760111100310012 01380 4110201                    0210000                    0220703Pont Guillaume      0210500001703001703760500200100000000000288      000000                                                                                                                                 110444421    0    100443891    0    090477361    0    080632451    0    070677421    0                                                                                                                                                   
760008600310012 03380 4810101gd quevilly         0030500gd quevilly         0050000gd quevilly         0040000001500001500760510010300000000000301      072242                                                                                                                                 110000008    0    100366818    0    090000008    0    080523928    0    070507008    0                                                                                                                                                   
760008500310012 03380 4110201PETIT COURONNE      0000000GRAND QUEVILLY      0030500Pt Couronne         0010800003500003500760510010100000000000388      067029 0618    065280   062042   067726   067634   065391   070849   066093   060174   069559   071953   068834   068777               110670011    7    100640271         090612961    7    080523921    0    070482931    0    064133   066887   067646   067722   068504   068696   064378   060787   069212   069749   069528   066992                                      
760008400310012 02820 4815001a131                0000000RN 15               0020942gonfreville         0000400002942002942760500500300000000000102      018634                                                                                                                                 110187278         100182898         090198708         080194398         070218858                                                                                                                                                        
760008103310012 01820 4843001                    0180000                    0180596Harfleur            0180300000596000596          00000000000388      000000                                                                                                                                 110000008         100000008    0    090000008    0    080130058    0    070143158    0                                                                                                                                                   
760007800310012 01380 4810201PETIT COURONNE      0140800ST ETIENNE ROUVRAY  0150048ST ETIENNE ROUVRAY  0150000000248000248760007600300000000000288      029314                                                                                                                                 110317978         100308988         090000008         080283778         070000008                                                                                                                                                        
760007700310012 01380 4810601PETIT COURONNE      0120900PETIT COURONNE      0140800PETIT COURONNE      0130500001900001900760007600300000000000288      076774                                                                                                                                 110832768         100809208         090000008         080743158         070000008                                                                                                                                                        
760007600310012 01380 4110201GRAND COURONNE      0100064PETIT COURONNE      0120900Les Essarts         0100800002836002836760007600100000000000288      037462 0807    037433   036234   039810   040568   039446   042718   039707   037310   039963   030821   028974   036552               110406341    7    100394841    7    090000001         080362611         070000001    0    038105   039700   041296   042548   042731   042278   039804   036951   042635   042204   041346   038117                                      
760007500310012 01380 4810201GD COURONNE         0090000GD COURONNE         0100064GD COURONNE         0090800001064001064760007600300000000000288      027323                                                                                                                                 110296598         100288278         090286758         080265358         070000008                                                                                                                                                        
760007100310012 00310 4843001GOURNAY EN BRAY     0490075FERRIERES EN BRAY   0510852FERRIERES EN BRAY   0500000002777000000760006700300000000000288      011529                                                                                                                                 110120878         100117368         090146218         080151088 113     070154528                                                                                                                                                        
760007000310012 00310 4843001GOURNAY EN BRAY     0480500GOURNAY EN BRAY     0490075GOURNAY Est         0480800000575000000760006700300000000000288      009992                                                                                                                                 110104768         100101728    0    090099858    0    080103218    0    070105608    0                                                                                                                                                   
760006900310012 00310 4843001GOURNAY EN BRAY     0470600GOURNAY EN BRAY     0480500GOURNAY Ouest       0480000000900000000760006700300000000000288      010259                                                                                                                                 110107568         100104448    0    090102528    0    080105978    0    070108438    0                                                                                                                                                   
760006800310012 00310 4843001GOURNAY EN BRAY     0460714GOURNAY EN BRAY     0470600St Aubin            0470000000986000000760006700300000000000288      012645                                                                                                                                 110132568         100128718    0    090126348    0    080130618    0    070133658    0                                                                                                                                                   
760006700310012 00310 4113001CD 921              0320100GOURNAY EN BRAY     0460714Avesnes Gournay     0430200014614014614760006700100000000000288      005475 0468    005040   004990   005409   005754   005715   005917   005984   005733   005841   005624   005077   004604               110057391 1627    100055721    8    090054691         080056531 1718    070057841 1628    005077   005446   005683   006128   005910   006172   006154   005796   005957   005829   005467   005241                                      
760006601310012 00310 4813001CD13 /CD 85         0220000CD 921              0320100LA HAYE             0270400017500017500760006700300000000000288      004814                                                                                                                                 110050478         100049018         090050458         080056588         070057908                                                                                                                                                        
760006600310012 00310 4813001                    0140600                    0181293Martainville        0150000004693004693760006700300000000000288      005475                                                                                                                                 110057418         100055758    0    090054738    0    080056588    0    070057908    0                                                                                                                                                   
760006500310012 00310 4813001CD 7                0090938CD 13/ CD 85        0140600BOIS L EVEQUE       0110000004662004662760006700300000000000288      008142                                                                                                                                 110085358         100082878         090081358         080084108         070086068                                                                                                                                                        
760006400310012 00310 4813001RD 43 St Jacques    0060520RD 7                0090938ST JACQUES         A0080750003418003418760006700300000000000288      012280                                                                                                                                 110128728         100124988         090118908         080133898         070137008                                                                                                                                                        
760006300310012 00310 4843001DARNETAL            0020300RD43 St Jacques     0060520DARNETAL EST        0020900004220004220760006700300000000000288      013028                                                                                                                                 110136588         100136438    0    090133928    0    080135158 1000    070138308    0                                                                                                                                                   
760006200310012 00310 4840201DARNETAL            0020050DARNETAL            0020300Darnetal centre     0020100000250000250760006700300000000000227      032266                                                                                                                                 110338238         100328408         090322348         080333208         070340938    0                                                                                                                                                   
760006101310012 00310 4840201DARNETAL            0010780DARNETAL            0020050DARNETAL OUEST      0010800000270000270760006700300000000000288      032266                                                                                                                                 110338238         100328408    0    090322348    0    080333208    0    070340938    0                                                                                                                                                   
760006100310012 00310 4840201DARNETAL            0000000DARNETAL            0010780Rouen Route DARNETAL0010400001780001780760006700300000000000288      032316                                                                                                                                 110338768         100328928    0    090322858    0    080333208    0    070340938    0                                                                                                                                                   
760003900310012 00270 4840201CD 915              0470479DIEPPE              0490200ST AUBIN SUR SCIE   0470800001721000000760003700300000000000288      029102                                                                                                                                 110298468         100292118         090284758         080269158         070272938                                                                                                                                                        
760003803310012 00270 4815001rd 54 st aubin      0440570RD 915              0470479st aubin s scie nord0460000002909002000760003700300000000000102      011811                                                                                                                                 110121128         100118568         090115588         080109258         070130708                                                                                                                                                        
760003802310012 00270 4815001ech d108            0390343d54 st aubin s scie 0440570st aubin s scie sud 0410000005227004000760003700300000000000102      012967                                                                                                                                 110132998         100130168         090126898         080119948         070121638                                                                                                                                                        
760003801310012 00270 4810201ech d149 belmesnil  0340200ech d108 auppegard  0390343manehouville        0380600005143005143760003700300000000000102      014108                                                                                                                                 110144698         100141628         090138058         080130498         070138738                                                                                                                                                        
760003800310012 00270 4810201ech d353            0270300ech d149 belmesnil  0340200belmesnil           0330200006900006900760003700300000000000102      013041                                                                                                                                 110133758         100130918         090127628         080120638         070122338                                                                                                                                                        
760003700310012 00270 4110201TOTES               0240254ech rd353           0270300TOTES               0250500003046003046760003700100000000000288      015803 0597    014532   013900   015619   015795   016426   016901   016646   016341   017424   015894   015799   014323               110162061    7    100158611    7    090154611    7    080146131    7    070148311    7    014541   015166   015842   017317   016822   017044   016692   015999   016925   017040   016167   014896                                      
760003601310012 00270 4810201rd2                 0190042totes nord          0240254totes sud           0210000005196005196760003700300000000000192      014797                                                                                                                                 110151748         100148538         090144798         080122518         070124378                                                                                                                                                        
760003600310012 00270 4810201                    0190000                    0190042Varneville-Brettevil0190000000042000042760003700300000000000192      015042                                                                                                                                 110154258         100132968    0    090129618    0    080122518    0    070124378    0                                                                                                                                                   
610000600310012 00120 4113001FIN DEVIATION       0720070LIMITE MAYENNE      0840911ST DENIS S/SARTH.   0790440012668009551760003700100000000000188      008686 2207    007546   007753   008421   009435   009144   009080   009880   009461   009063   008447   008133   007830               110090981 2147    100089281 2107    090000001         080089531 2097    070093171 2057    007575   008464   008505   009889   009151   009883   010128   010071   009385   009194   008518   008399                                      
610000502310012 00120 4813001RN 138              0630300FIN DEVIAT.ALENCON  0720070DEVIATION ALENCON   0680020007836007836610000600300000000000188      008718                                                                                                                                 110091328         100089638         090000008         080089898         070093558                                                                                                                                                        
610000501310012 00120 4113001ENTREE DEVIATION    0610620R.N. 138            0630300VALFRAMBERT         0620100001680001680610000600100000000000294      010269 0007    009104   009346   010248   010365   010587   010866   011093   011279   010579   010538   010109   009080               110099731 1837    100101781         090000001         080109611 2337    070117901 2477    008529   009490   009547   010553   009987   010521   010595   010111   010743   010350   009773   009487                                      
610000400310012 00120 4113001R.D. 4 A            0430019R.D. 112            0610620Ventes de Bourse    0480300018601018025610000600100000000000192      009825 2147    008779   008671   009658   010618   010353   010413   010698   010284   009819   009851   009410   009299               110100391 2067    100000001    0    090000001    0    080099431 1128    070105451 1508    008353   009596   009519   010862   010130   010835   010732   010455   010371   010323   009579   009723                                      
610000300310012 00120 4113001RD 912              0270548RD 4A               0430019N12_LECHATEL        0270800013572012518610000600100000000000100      007501         006480   006671   008063   009296   008168   007629   008229   007355   006868   006842   007147   007241               110000001         100000001         090000001         080000001         070074861 2058                                                                                                                                                   
610000200310012 00120 4813001DEVIATION MORTAGNE  0230262R.D. 912            0270548ST HILAIRE          0250430004286004286610000100300000000000194      008071                                                                                                                                 110083628         100079248         090000008         080080398         070080518                                                                                                                                                        
610000100310012 00120 4113001EURE                0000000R.D. 912            0230262LA VENTROUZE        0090927023262022080610000100100000000001290      007911 2487    006693   006659   007493   008805   008368   008332   009178   008751   008301   007744   007297   007267               110081951 2387    100077651 2237    090000001         080078771 1897    070078881 2277    006461   007467   007511   009105   008153   008954   009409   009028   008352   008441   007699   007727                                      
600004102310012 00310 4813001                    0110000                    0161003Ons-en-Bray         0120000006003006003760006700300000000000895      007513                                                                                                                                 110078768         100076488    0    090075078    0    080077608    0    070079408    0                                                                                                                                                   
600004101310012 00310 4813001SEINE MARITIME      0000000Les landerons       0110000SAINT GERMER DE FLY 0020000011054011054760006700300000000000895      007513                                                                                                                                 110078768         100076488         090075078         080077608    0    070079408    0                                                                                                                                                   
500100891310012 00840 1810241                    2170280                    2210759Guiberville         2190000004479004479500100890300000000001103      026506                                                                                                                                 110269858         100256358    0    090258478    0    080250848 1358    070252298 1677                                                                                                                                                   
500100890310012 00840 1110241ECH.39              2120238ECH.40              2170280PONT-FARCY-CU       2120000005042005042500100890100000000001103      026506 1378    019558   020654   022565   029163   028948   027732   034121   035908   028042   024125   024650   022345               110269851 1318    100256351 1078    090258471 1238    080250841 1358    070252291 1677    019143   022062   022596   029740   025990   030780   035974   036961   027784   026450   023023   022947                                      
500100700310012 00840 1110241ECH.38              1930650ECH.39              2070650BESLON              1970400016645016645500100890100000000001103      024616 1567    017972   018979   020789   027285   027126   025851   032065   033874   026024   022288   022357   020516               110251211 1577    100243851 1567    090240891 1557    080234831 1797    070238291 1437    017629   020422   020952   027733   024066   028736   033986   034600   025791   024610   021331   021248                                      
500100600310012 00840 1110241ECH.37              1890802ECH.38              1930650FLEURY              1910200003850003850500100890100000000001100      025272 1667    018661   019667   021506   027939   027325   026628   032660   034424   026743   023058   023121   021274               110257551 1677    100250421 1657    090247591 1647    080239591 1887    070243531 1707    018349   021138   021672   027203   025428   029318   034521   035155   026519   025329   022085   021971                                      
500100500310012 00840 1110241RN 175              1720000ECH.37              1890802STE PIENCE          1810840017802017802500100890100000000001103      024207 1108    017805   018744   020529   026651   026068   025661   031157   033286   025754   022070   022134   020381               110248551 1188    100238861 1358    090252351 1068    080242671 1378    070236601 1358    017754   020161   020645   027357   023954   028129   033655   034066   025726   024257   021146   021046                                      
500100300310012 00840 1110241PI RN 176           1620225ECH RN 175          1630435POILLEY             1630200001212001212500100890100000000001100      023006 1198    019003   019487   021462   024051   024091   024249   027364   028245   024327   021528   021662   020442               110234161 1208    100227621 1188    090206211 1268    080205711 1358    070222501 1597    018689   020349   020848   024889   023794   025925   028047   028505   024370   023014   021216   021134                                      
500100200310012 00840 1110241PS 30 ST JAME       1510495PI RN 176           1620225ST AUBIN DE TERREGAT1580800010762010762500100890100000000001100      019031 1378    015139   015628   016876   020158   020024   020058   023195   024290   020630   017813   017790   016628               110194241 1338    100187561 1348    090193711 1298    080189251 1428    070189931         014923   016395   017026   020735   019663   021781   024105   024534   020347   019044   017202   017127                                      
500100100310012 00840 1110241ILLE ET VILAINE     1470000ECH.32              1510495St JAMES            1480990004495004495500100890100000000001103      018711 1627    014666   015270   016733   020093   019781   019585   022976   023977   020336   017462   017369   016140               110189211 1647    100181511 1627    090179921 1617    080173411 1747    070178541 1737    014370   015839   016547   020225   019280   020739   023733   024273   019856   018571   016639   016737                                      
500004450310012 01760 4814001RN 175              0460000ILLE ET  VILAINE    0481257PONTORSON-Temp      0460237003420003420500002800300000000000998      010749                                                                                                                                 110110148         100109048         090109638         080108148    0    070109008    0                                                                                                                                                   
500002800310012 01750 4110201                    0540000RN 176              0620500PONTORSON           0570990008500008500500002800100000000001187      014260 1407    010158   010712   011991   015699   015958   014549   018818   020479   015241   012741   012829   011751               110146111 1417    100144661 1417    090145431 1397    080143461 1447    070144571 1387    010197   011805   012309   016489   013197   016336   019832   020954   015154   014384   012341   012127                                      
500002402310012 01750 4810201                    0530360                    0540000Précey              0530990000400000400500002800300000000001187      014260                                                                                                                                 110146118         100144668    0    090145438    0    080143468 1447    070144578 1387                                                                                                                                                   
500002401310012 01750 4810201A 84                0490130                    0530360Pontaubault         0500990004230004230500002800300000000001187      014260                                                                                                                                 110146118         100144668    0    090145438    0    080143468 1447    070144578 1387                                                                                                                                                   
500002400310012 01750 4110201ECH. CROMEL         0470235A 84                0490130ST-QUENTIN          0480330001940001940500002800100000000001187      037827 1267    029518   030625   033232   040504   040860   039810   047127   049996   040232   034739   034603   032349               110384391 1297    100377541 1387    090379931 1407    080377561 1637    070377711 1527    028977   031924   033269   041862   037654   042946   048943   050902   039844   037655   033324   033463                                      
500002300310012 01750 4810201RD 973              0410885ECH.CROMEL          0470235LE VAL ST PERE      0450174005585005585500002400300000000000201      035053                                                                                                                                 110356158         100349898         090352068         080349488         070349858                                                                                                                                                        
500002200310012 01750 4810201A 84                0390000RD 973              0410885PONTS-SOUS-AVRANCHES0410000003125003125500002400300000000000103      028297                                                                                                                                 110287478         100282478         090284188         080281798         070282278                                                                                                                                                        
500001520310012 01740 4110201Dev ST LO           0280695RN 13               0460870Pont Hebert         0320000015870015870500002400100000000000288      007423 1087    006669   006648   007196   007493   007479   008018   008011   007975   007809   007391   007340   007034               110074181 1077    100070821 1127    090076431 1718    080078351 2708    070084221    8    006644   006437   007097   007777   007627   008145   007931   008045   007904   007582   006910   006860                                      
500001452310012 01740 4810201RD 446              0280395                    0280695La Picardière       0280500000300000300500001520300000000000288      007423                                                                                                                                 110074188    0    100070828    0    090076438    0    080078358 2708    070084228    8                                                                                                                                                   
500001451310012 01740 4810201St-LO               0230130RD 446              0280395Hébécrevon          0260896005326005326500001520300000000000202      007423                                                                                                                                 110074188    0    100070828    0    090058948    0    080060428    0    070064948    0                                                                                                                                                   
500001450310012 01740 4110201                    0210827                    0230130Saint Lô            0220500001303001303500001520100000000001205      024961 0727    024111   022963   024296   025021   025234   026736   025726   024619   025920   026043   025173   023652               110249861    7    100242151    7    090240701    7    080150141         070161401         022155   024610   024209   026187   025250   026464   025386   024262   026513   025486   024738   024662                                      
500001401310012 01740 4810201                    0180000                    0210827Cantepie            0190000003827003827500001400300000000001205      020116                                                                                                                                 110204028         100198718    0    090194298    0    080150148    0    070161408    0                                                                                                                                                   
500001400310012 01740 4110201A 84                0000000RD 974              0180000CONDE SUR VIRE      0150345018000018000500001400100000000001205      020116 0807    018976   018585   020114   019244   019954   021727   020857   019827   021486   020908   020357   019336               110204021    7    100198711    7    090194291    7    080150141         070161401         018794   020293   019704   021138   020722   021503   020479   019873   021601   020828   020051   019910                                      
500001071310012 00130 4813001                    0570399                    0580000RP de Penesme       0570400000601000601500001070300000000000392      016643                                                                                                                                 110164088         100158728    0    090155528    0    080156278    7    070167448    7                                                                                                                                                   
500001070310012 00130 4113001ROND POINT AUCHAN   0520390RN 132              0570399LA GLACERIE         0540250004554004554500001070100000000000392      016643 0507    016101   015385   016342   016243   016067   017153   015925   016284   019240   016875   017079   017046               110164081    7    100158721    7    090155521    7    080156271    7    070167441    7    015393   015955   015846   016744   016283   016849   016140   016226   017008   016887   016618   016961                                      
500001000310012 00130 4110201RD 902 DEV. VALOG   0380644ROND POINT AUCHAN   0520390SAINT-JOSEPH        0430352014209014209500001070100000000001187      022061 1098    020561   020354   021839   022129   021971   023241   022888   022094   023610   022648   022302   021086               110224471    8    100221111    7    090217661    8    080215001    8    070219271    8    021369   022341   021599   023320   022813   023634   022414   021916   023447   022655   022095   021846                                      
500000600310012 00130 4810201RD15                0201060RD 902 DEV. VALOGNES0380644FREVILLE            0260046018000018000500000500300000000000202      015842                                                                                                                                 110161708         100156258         090156228         080151798         070154698                                                                                                                                                        
500000500310012 00130 4110201RD 913              0110000RD 15               0201060ST COME DU MONT     0120100009442009442500000500100000000001187      017882 0658    015495   015575   016966   018653   018555   019553   019924   020309   018930   017501   017133   015926               110182511    8    100176351    8    090176301    8    080171291    8    070174551    8    015531   016764   016878   019406   018539   020234   019861   020347   019029   018353   017395   016638                                      
500000200310012 00130 4110201CALVADOS            0000000RD 913              0110000ST HILAIRE          0060000010299010299500000500114000000000296      017502 1317    014446   014596   016067   018299   018500   019154   020442   021397   019137   016621   016255   015012               110155161    7    100171671 1387    090171071 1367    080165781 1417    070166671 1367    014388   015681   016009   019077   017918   020085   021345   011584   009437   012291   014113   014296                                      
410000500310012 00100 4113001                    0400035Dpt 37              0451074LA FAUCHERIE        0420850006039006039500000500100000000000295      008618 2857    007680   007764   008504   009062   008856   009067   009351   008912   009093   008647   008600   007867               110087041 2807    100083571         090082551 2497    080079881 2407    070079501 2387    007397   008086   008339   009307   009038   009338   009650   009016   009141   008780   008223   008110                                      
410000402310012 00100 4813001                    0370000                    0400035L'Etincelle         0380850003035003035410000500300000000000295      008618                                                                                                                                 110087048         100083578    0    090082558    0    080079888 2407    070079508 2387                                                                                                                                                   
410000401310012 00100 4813001RD 957              0260298                    0370000Le Petit Plessis    0350000010702010702410000500300000000000295      008618                                                                                                                                 110087048         100083578    0    090082558    0    080079888 2407    070079508 2387                                                                                                                                                   
410000400310012 00100 4813001VENDOME (lim.Agglo) 0240670Echangeur957957     0260298LA CHAPPE           0250000001989001989410000300300000000000889      012760                                                                                                                                 110135058         100000008         090127498         080125008 143     070126778                                                                                                                                                        
410000399310012 00100 4853001Agglo de VENDOME    0230535Agglo de VEN957     0240670VENDOME             0230500001159000000410000300300000000000188      012760                                                                                                                                 110135058         100000008         090127498         080125008 143     070126778 143                                                                                                                                                    
410000300310012 00100 4113001RN 157              0100266Agglo de VENDOME    0230535NIOCHE              0200000013452009671410000300100000000000295      012760 2037    012009   012656   012155   012818   012777   013669   012991   012770   013273   012909   012831   012301               110135051 1648    100000001         090127491 1438    080125001 1438    070126771 1438                      012856   014399   013678   014073   014074   012870   013752   013431   013363   012606                                      
410000100310012 00100 4113001Dpt 28              0000000RN 157              0100266ST HILAIRE          0050000010367010367410000300100000000000394      008373 3427    007384   007410   008230   008883   008601   008864   008890   008778   008861   008375   008578   007622               110085001 3367    100081731         090081001 2987    080078451 2857    070077571 2817    007136   007945   008060   009152   008734   009165   009479   008949   008948   008548   007973   007899                                      
370106350310012 00100 4113001                    0030000                    0111245AUTRECHE            0050170002295002295410000300100000000000402      005936 3447    005499   005711   005968   006202   005983   006352   006357   005668   006208   006118   005826   005353               110060231 3417    100056451         090056471 2108    080083081    0    070081291 2280    005163   005620   005861   006160   006342   006299   006315   005771   006337   006473   006237   005685                                      
370000100310012 00100 4113001DEPT L. ET CHER     0000000CARREF. N10/D766    0030000NEUVILLE            0020290012174012174410000300141000050030398      008965 2647    008021   007955   008872   009440   009166   009447   009744   009256   009475   009017   008944   008226               110090831 2348    100087201 2228    090086001         080083081 2018    070081291 2288    007761   008443   008715   009717   009418   009700   010017   009371   009558   009185   008617   008467                                      
280450500310012 02540 4113001A 10                0000000RN 154              0010590ALLAINES            0010550001590001590410000300100000000000100      008657 2197    007257   007398   008114   008942   008597   009341   010252   009943   009330   008758   008372   007541               110087211 1948    100000001    0    090080571 1708    080079261    0    070066001    0    006966   007850   008091   009062   008878   009188   010295   010154   009430   008898   008054   007735                                      
280010000310012 11540 4113001                    0030485                    0070775Mainvilliers        0050950004290004290410000300100000000000188      019130 2227    017609   017443   019037   019754   019490   020808   020522   019202   020225   019516   018617   017316               110195001 222     100169501    0    090167151    0    080165601 2057    070167371 2047                                                                                                                                                   
280004600310012 11540 4113001PR 56.000 de RN154  0000000Giratoire RD 905    0030485DEVIATION DE LEVESB 0010200003457003457410000300100000000000188      016848 2137    015495   015431   016689   017365   017207   018524   018304   016792   017633   017185   016309   015233               110171091 2127    100169501         090167151 2017    080165601 2057    070167371 2047    015170   016238   017038   017843   017838   018138   018321   016845   018111   017367   016456   015929                                      
280004503310012 00100 4113001CHATEAUDUN nord     0650100CHATEAUDUN sud      0700237Jallans             0680370006000006000410000300100000000000188      007546 3207    006698   006781   007372   007869   007895   008122   008274   007965   008048   007701   007034   006770               110076351    3    100110211    0    090111031    0    080118221 1600    070120381    0                                                                                                                                                   
280004500310012 01540 4812001Echangeur Sud       0810600Echangeur Est       0860298ROCADE DE DREUX   BA0830400004931003215280004600300000000000188      023674                                                                                                                                 110240178         100237878         090192168         080190378         070192418                                                                                                                                                        
280004400310012 01540 4813001RD 26 P.S.          0660359Echangeur Sud       0810600BOULLAY-MIVOIE      0790000015817015375280004300300000000000188      016429                                                                                                                                 110166938         100164228         090160428         080134918         070135968                                                                                                                                                        
280004300310012 01540 4110101RN1154              0560000RD 26 - P.S         0660359Le Péage            0660350010330009799280004300100000000000202      016511 1837    015024   014689   016060   016951   016563   017930   018201   017066   017638   016948   016050   014971               110167601 1738    100165011 1478    090161211 1428    080159781 1308    070161021 1338    014704   015794   016028   016627   016897   017052   017432   017235   017212   019003   017648   015450                                      
280003900310012 01540 4113001RD17                0300095RN123               0470452FRAINVILLE    BA    0350500017497016333280004300100000000000188      009670 2567    007935   008112   009007   009822   009732   010430   011572   011470   010651   009790   009095   008362               110095761 2348    100092881 2278    090093091 2188    080094211 2288    070102001         007765   008637   008837   009769   009678   010325   010846   011327   010333   009683   008936   008718                                      
280003800310012 01540 4813001VC Ex. RD 927       0140000                    0300095Ymonville           0200000016095016095280003900300000000000188      009667                                                                                                                                 110095748         100092878    0    090093088    0    080094218    0    070102008    0                                                                                                                                                   
280003600310012 01230 4113001RN10                0070840RN23                0110690LUISANT             0080950003853003853280003900100000000000188      034190 1637    031980   032215   034374   034989   034159   036742   035970   032607   035960   035286   033677   032336               110345831 1488    100343211 1498    090343151 1478    080348291 1508    070345001         031907   033218   034572   035768   035583   036121   035575   033973   036128   035121   033424   033573                                      
280003500310012 01230 4113001RN154               0030000RN10                0070840MORANCEZ          B 0060400004840004840280003900100000000000188      036941 1277    034865   035073   037257   037898   036641   039579   038369   034058   038638   039028   036599   035325               110369451 1277    100362001         090361601 1187    080362051 1197    070364001         034409   036305   037265   037830   037647   038086   037706   034640   038665   037996   036386   036441                                      
280001901310012 00120 4810251                    0280000Limite DEPT 27      0310400DAMPIERRE SUR AVRE  0290000003400003400280001800327000020030188      013524                                                                                                                                 110136298         100136978         090137078         080136708         070135878                                                                                                                                                        
280001800310012 00120 4110201RD 912 "Les Fenots" 0190637Limite DEPT 27      0271017Saint Rémy          0230700008300006221280001800127000010030188      027495 1947    024826   024518   026747   028653   028118   029379   029969   028686   028599   027804   026795   025771               110277041 1927    100278421    0    090278591 1857    080277821 1857    070279911    0    024748   027197   027528   030333   027032   027859   028648   028133   028737   028690   026764   026818                                      
280001700310012 00120 4810251Ech. Est Dreux      0140816RD 912 "Les Fenots" 0190637DEVIATION DREUX   B 01705000044360040012800016003          0188      028782                                                                                                                                 110304208         100289748         090292518         080283338         070281608                                                                                                                                                        
280001600310012 00120 4110201Limite DEPT 78      0000000Ech. Est Dreux      0140816LA MESANGERE        0090860014661014661280001600178000040030188      029516 1187    028718   028119   028597   028310   028191   029341   029292   028176   032405   032381   031231   029443               110311851 1157    100297041         090299871 1157    080290411 1047    070288631 1047    028154   030249   030594   033088   032514   033482   031591   027697   032612   032658   031084   030583                                      
280001400310012 00100 4113001Chateaudun sud      0700237lim 41              0820270Chateaudun sud      0700880012000012000280001600141000010030213      000000    0                                                                                                                            110000001    0    100000001    0    090000001    0    080000001    0    070000001    0                                                                                                                                                   
280000900310012 00100 4813001RD110               0590937CHATEAUDUN(lim.aggl)0651000MARBOUE           BA0650000006000006000280000800300000000000188      014847    0                                                                                                                            110151568    0    100149628    0    090150738    0    080150078    0    070152818    0                                                                                                                                                   
280000800310012 00100 4114001RD28/1              0530602RD110               0590937BOIS-GUIBERT       A0560900006239005937280000800100000000000188      011911 1757    010901   010645   011789   012325   012461   012914   012627   011674   012570   012163   011748   011098               110121581 1528    100120011 1518    090120891 1438    080120911 1358    070123111 1368    010760   011548   011833   012786   012714   013182   012762   011803   012812   012427   011720   011550                                      
280000700310012 00100 4817001RD12                0410767RD28/1              0530602MONTBOISSIER      BA0510700011865009997280000600300000000000188      012105                                                                                                                                 110123958         100121098         090121488         080119528         070121858                                                                                                                                                        
280000600310012 00100 4117001Bretelle A11        0340855RD12                0410767LA BOURDINIERE    BA0390000006958005499280000600100000000000188      012957 1787    011885   011547   012687   013342   013496   014143   013675   012400   013788   013365   012935   012202               110132671 1798    100129601 1738    090130001 1688    080127901 1667    070130391 1577    011817   012621   012922   013996   013849   014311   013791   012567   014000   013747   012896   012696                                      
280000500310012 00100 4817001                    0340000Bretelle A11        0340855Mignières           0340083000855000855280000600300000000000188      011028                                                                                                                                 110112938         100110328    0    090110688    0    080000008    0    070111008    0                                                                                                                                                   
270110002310012 10130 4810201N154                0210130D6154               0240100Evreux              0220000002890002890270110000300000000000212      000000                                                                                                                                 110000008    0    100000008    0    090000008    0    080000008    0    070000008    0                                                                                                                                                   
270110001310012 10130 4810201N13                 0200000N154                0210130vielle evreux       0210000001130001130270110000300000000000212      000000                                                                                                                                 110000008    0    100000008    0    090000008    0    080000008    0    070000008    0                                                                                                                                                   
270110000310012 10130 4110201Av Foch             0300000RD 613              0320268Parville            0310260002065002065270110000100000000000212      016665 0727    016072   015813   016686   017068   016881   017741   016978   015994   017531   017063   016542   015625               110175271    7    100000001    0    090000001    0    080000001    0    070000001    0    016356   017084   017593   018521   018583   018874   017126   016262   018174   017961   017228   016599                                      
270006000310012 00310 4814001limite 76/27        0000000limite 27/76        0020843Vascoeuil           0010000002843002843760006700376000660030109      005475                                                                                                                                 110057418         100055758    0    090000008    0    080000008    0    070000008    0                                                                                                                                                   
270005100310012 01540 4110201ECHANG. GRAVIGNY    0330000RN 155              0460430HEUDREVILLE/EURE    0410300016903016481760006700100000000000195      000000                                                                                                                                 110000001         100000001         090000001         080000001         070223011                                                                                                                                                        
270005000310012 01540 4810201N 13                0270769APRES ECHAN GRAVIGNY0330000FAUVILLE            0300380005440005440270005100300000000000188      000000                                                                                                                                 110000008         100000008         090000008         080000008         070286158                                                                                                                                                        
270004800310012 01540 4110201D833                0130247Evreux              0270769PREY                0210900014522014522270005100100000000000101      015369         014196   014078   013941   015875   017235   016267   017207   016257   015992   015155   014402   013772               110000001         100153941 1638    090000001    0    080156341 2307    070150811 2008                                                                                                                                                   
270004701310012 01540 4110201Nonancourt          0000000D833                0130247Petite vallée       0100750013247013247270005100100000000000101      013168 1568    011482   011549   012639   013525   013259   014169   015316   014617   014067   013171   012474   011695               110000001         100000001    0    090000001    0    080156341 2307    070150811 2008                                                                                                                                                   
270001000310012 00130 4810201ENTREE BA 105       0180780RN 154              0200413FAUVILLE            0200700002215002215270000900300000000000188      023728                                                                                                                                 110241998         100238398         090000008         080245358         070248498                                                                                                                                                        
270000900310012 00130 4115001BRETELLE ST ANDRE   0090100ENTREE BA 105       0180780MISEREY             0170580009396009396270000900100000000000188      020025 0778    019210   018985   020206   020669   020371   021872   020335   017673   020837   020640   020491   019071               110204211    8    100201141    8    090000001         080207021    7    070209651    8    019206   020209   020600   021213   021435   021808   020229   017843   021287   021009   020326   019953                                      
270000700310012 00130 4810201DEVIATION PACY/EURE 0060600BRETELLE ST ANDRE   0090100ST AQUILIN DE PACY  0070000002500002500270000900300000000000188      015757                                                                                                                                 110180648         100177938         090000008         080183148         070185488                                                                                                                                                        
270000600310012 00130 4810201DEVIATION PACY/EURE 0050000                    0060600DEVIATION PACY/EURE 0060000001600001600270000900300000000000188      015954                                                                                                                                 110162718         100160278         090000008         080164978         070167078                                                                                                                                                        
270000500310012 00130 4815001YVELINES            0000000DEVIATION PACY/EURE 0050000AIGLEVILLE          0040400004998004998270000900300000000000188      012990                                                                                                                                 110144788         100142618         090000008         080146808         070148678                                                                                                                                                        
270000400310012 00120 4813001INTERSECTION RN 26  0250650ORNE                0370190VERNEUIL SUR AVRE BA0280000010748010536270000200300000000000188      000000                                                                                                                                 110000008    0    100000008    0    090000008    0    080000008    0    070000008    0                                                                                                                                                   
270000300310012 00120 4813001ENTREE VERNEUIL     0230040SECTIONNEMENT RN 26 0250650VERNEUIL S/AVRE   BA0240000003400002605270000200300000000000188      013155                                                                                                                                 110000008         100000008         090000008         080000008         070135878                                                                                                                                                        
270000200310012 00120 4110201INTERSECTION N 154  0090000ENTREE VERNEUIL     0230040COURTEILLE BASLINE  0090200014040014040270000200100000000001299      013155         011490   011531   012735   014133   013879   013826   014450   013659   013746   013275   012778   012317               110000001         100000001         090000001         080000001         070135871 1637                                                                                                                                                   
270000102310012 00120 4813001                    0030640                    0060458st Lubin Joncherets 0050680002818002818270000200300000000000188      021044                                                                                                                                 110000008         100000008    0    090000008    0    080000008    0    070217338    0                                                                                                                                                   
270000101310012 00120 4813001                    0030600                    0030640giratoire anglais   0030600000640000640270000200300000000000188      021044                                                                                                                                 110000008         100000008    0    090000008    0    080000008    0    070217338    0                                                                                                                                                   
270000100310012 00120 4813001EURE ET LOIRE       0000000INTERSECTION N 154  0030600NONANCOURT        B 0000680003606003606270000200300000000000188      021044                                                                                                                                 110000008         100000008         090000008         080000008         070217338                                                                                                                                                        
140108405310012 00840 1110241Ech 44              2590655Echangeur BP Ouest  2620822BRETTEVILLE SUR ODON2610930003167003167270000200100000000001097      046499 1167    040913   040764   044464   048582   048139   049604   052139   050542   048951   046040   045438   042250               110473181 1187    100461451 1157    090453771 1147    080440111 1297    070447581 1197    040312   044178   043810   050645   047447   050123   053275   051612   049435   047798   044919   044152                                      
140108404310012 00840 1110241Echang. Villers Boca2450000Echang Mondrainville2550310VILLY-BOCAGE        2460473010310010310270000200100000000000794      036285 1357    030288   030440   033662   038617   038376   038120   042591   042189   038495   035054   035007   032368               110368961 1367    100359731 1347    090355781 1307    080348211 1457    070349921 1377    029748   033082   033000   040130   036634   039227   044066   043321   038419   037055   034217   033625                                      
140108403310012 00840 1117041ECHANGEUR RD 6      2420236Echang. Villers Boca2450000VILLERS BOCAGE      2430200002764002764270000200100000000000196      032380 1537    026438   026662   029448   034879   034462   033959   038684   038711   034417   031074   031035   028582               110329561 1537    100321051 1527    090317231 1507    080309291 1577    070309991 1557    025984   029049   029199   035747   032609   035442   040257   039779   034183   033061   030227   029680                                      
140108402310012 00840 1117041Rond point Coulvain 2370923Echangeur RD 6      2420236MAISONCELLE-PELVEY  2400623004313004313270000200100000000000196      032459 1378    026099   026497   029217   033994   036048   033981   039188   039799   034439   030762   030821   028395               110330461 1118    100324531         090311241    8    080308671 1388    070308861 1358    025770   028864   028927   036053   032501   036365   040850   040552   033986   032933   029985   029494                                      
140108401310012 00840 1117041Dép. de la Manche   2220000Rond point Coulvain 2370923CAHAGNES            2320557015923015923270000200100000000000198      026883 1377    020764   021496   023584   029470   028945   027970   033633   034616   028547   024957   025177   023211               110275451 1497    100269471 1567    090264361 1557    080255251 1777    070257741 1627    020484   023292   023655   030651   026940   029333   036981   035156   028425   027127   024187   023971                                      
140108400310012 00840 1110241Ech Mondrainville   2550310Ech 44              2590655Mondrainville       2560500004345004345270000200100000000000711      040090 1167    034430   034335   037738   042322   041879   042210   045790   045171   042360   039271   039050   036331               110407301 1167    100397141 1147    090000001    0    080000001    0    070000001    0    033803   037241   036969   043961   040635   043040   047165   046118   042464   041209   038272   037699                                      
140108399310012 00840 1810241limite 14/50        2080000limite 50/14        2111470Pont Farçy          2100000004470004470500100890350010089030109      026506                                                                                                                                 110269858         100256358 1100    090000008    0    080000008    0    070000008    0                                                                                                                                                   
140004599310012 08140 4110201Ech.du PAYS d'Auge  0260788ECHANGEUR MONTALIVET0270380Ech. Porte de Paris 0270230000592000592500100890100000000000997      087573 0927    082660   081509   087873   088953   087909   092532   093834   086772   089095   088954   087506   083134               110888471    7    100857101    7    090716991    0    080759461    7    070774581 1027    082182   088092   087711   093670   089729   093142   091263   087783   088681   088831   088507   086784                                      
140004400310012 08140 4110201Ech. de CORMELLES   0240719Ech.du PAYS d'Auge  0260788Vallée sèche        0260246002080000000500100890100000000000997      077150 0997    071730   071474   077179   078729   078407   081679   078685   079765   079619   078708   076458   073253               110760611    7    100738681    7    090716991    7    080759461    7    070774581 1027    061990   065656   071460   080429   081235   082483   082053   077044   079420   077451   077369   075635                                      
140004300310012 08140 4110201Echengeur IFS bourg 0220491Ech. de CORMELLES   0240719Ech. Porte d'Espagn 0230590002227000000500100890100000000000997      058718 1197    054027   053700   058007   060024   060547   061975   063971   061247   060406   058494   057444   054610               110595891 1227    100585891 1127    090578761 1037    080584311 1207    070586521 1157    052494   056593   057441   062828   060297   062732   064340   061671   061396   058748   058598   057865                                      
140004100310012 08140 4110201Ech.Suisse Normande 0200000Ech. IFS bourg      0220491IFS Bourg           0210916002506000000500100890100000000000193      058972 1087    053191   053225   057405   060896   060365   062081   064267   061505   061603   059289   058528   055172               110588211 1147    100572561 1137    090567541 1367    080563081 1347    070562841 1207    050649   055583   055265   062282   059530   062285   063260   059778   060337   058733   059606   058520                                      
140004000310012 08140 4110201ECHAN.D'ETERVILLE   0160252Ech.Suisse Normande 0200000FLEURY SUR ORNE     0190368003668000000500100890100000000000997      055147 1147    049431   049137   053734   057172   056625   058457   060104   057468   057864   055550   054840   051250               110547711 1177    100538751 1157    090531051 1167    080518891 1287    070518941 1177    047332   051693   051647   057270   055568   057848   059452   056649   056253   054940   054651   053868                                      
140003900310012 08140 4110201ECHA. BRETAGNE      0140530ECHAN. D'ETERVILLE  0160252ETERVILLE           0150300001678000000500100890100000000000997      054763 1157    049390   048664   053288   056356   056270   057958   059942   057215   057604   055241   054514   050559               110548051 1167    100533341 1147    090528081 1167    080514541 1277    070516411 1157    047149   051628   051397   057710   055454   058034   059069   056893   057380   055531   054196   053166                                      
140003803310012 08140 4110201Passage inf. RD 14  0130370Ech. de Bretagne    0140530Ech. de Bretagne    0140325001168000000500100890100000000000997      033594 0937    030085   030268   032895   035088   033991   035799   037383   034364   034704   034267   033058   031144               110339031    7    100330161    7    090327901    7    080320561    7    070323671    7    029187   032199   032058   035929   034328   035963   037508   034255   035194   034550   032884   032761                                      
140003801310012 08140 4110201Echangeur du Bessin 0110520Passage inf. RD 14  0130370CARPIQUET           0110730001916000000500100890100000000000194      041804 0847    039508   038594   042430   042205   042471   045075   043555   040302   043402   043168   042265   038644               110418481    7    100409531    7    090405411    7    080402101    7    070404981         037755   040597   040639   043669   042917   043959   042292   040169   044253   042934   042163   040927                                      
140003700310012 08140 4110201Ech.chemin vert     0080857Echangeur du Bessin 0110520Chemin vert         0090402002212000000500100890100000000000700      058526 0687    055574   054101   059781   059158   059237   063249   060272   055651   060648   060920   059247   054461               110593111    7    100578451    7    090579951    7    080572451    7    070584971         054500   058249   057797   062053   060786   062655   059486   056847   062806   060731   059299   056726                                      
140003600310012 08140 4110201Ech.vallée des jardi0070255Ech.chemin vert     0080857Mémorial            0080242001594000000500100890100000000000700      061154 0657    057960   057220   062995   062151   062289   066405   063458   058911   063670   063038   062672   053152               110603621    7    100611191    7    090613831    7    080611011    7    070623581    7    057828   061536   061169   064554   064161   065968   062733   060144   065517   058734   052329   050017                                      
140003500310012 08140 4110201Ech.Pierre Heuzé    0040763Ech.vallée des jardi0070255Hôpital             0070095002421000000500100890100000000000193      057552 0727    055260   053666   058799   058356   058267   061704   059771   055615   058979   059224   057701   053243               110582171    7    100570481    7    090570031    0    080573171    7    070592731    7    053934   057399   057319   061167   059911   061067   058832   056564   060156   059005   057838   055566                                      
140003300310012 08140 4110201Ech.porte/Angleterre0030757Ech.Pierre Heuzé    0040763Pierre-Heuzè        0040300000999000000500100890100000000000188      081073 0727    078460   076318   083288   081036   081454   086334   082213   078347   083468   084211   081738   075969               110820311    7    100797901 1207    090000001         080784421    7    070826511    7    077667   081976   081239   085368   084441   085726   082974   077807   085454   082535   081202   078294                                      
140003200310012 08140 4110201Enchageur Montalivet0020000Ech.porte/Angleterre0030757VIADUC -> PARIS     0030340001750000000500100890100000000000190      080098 0657    077161   074997   081701   080071   080138   084704   083479   078768   082090   082183   080398   075373               110808891    7    100799611    7    090821191    7    080798241    7    070807861    7    075398   080513   079535   084043   082970   084736   083553   075609   083854   081908   080763   078060                                      
140003100310012 08140 4110201ECHANG.AUTOROUTE A130000000ECHANGEUR MONTALIVET0020000MONDEVILLE          0010000002027000000500100890100000000000193      074753 0647    070238   069940   076296   075322   074942   079367   077936   072697   076835   076812   075354   071248               110762621    7    100751991    7    090757381    7    080749731    7    070757121    7    071113   075729   075145   079320   078036   079796   077790   073920   078539   076666   075530   073770                                      
140001600310012 01580 4110201ROCQUANCOURT        0290766IFS                 0380416TILLY LA CAMPAGNE   0340500008650008650500100890100000000000196      029481 0858    027940   026781   029811   029004   029451   031625   030740   028408   031099   030726   030051   028094               110297711    8    100285351    8    090000001         080000001         070266001         027371   029216   029189   030703   030794   031131   029450   028155   031641   030657   029965   029067                                      
140001500310012 01580 4110201LIMITE DE L'ORNE    0080000ST AIGNAN-CRAMESNIL 0290766POTIGNY             0170000030879030879500100890100000000000194      018068 1207    016506   015927   017751   017914   018200   019365   019384   018767   019151   018543   018266   016986               110180861 1207    100173231 1237    090159541    7    080165481    7    070164481 1277    016185   017294   017256   018641   018759   019299   018879   018319   018865   018058   018064   017423                                      
140001002310012 00130 4110101BAYEUX              0980183LIMITE DE LA MANCHE 1280706LONGUEVILLE         1130785031535031535500100890100000000000196      013511 0948    010879   011085   012319   014147   014352   014499   016099   017040   014574   012842   012613   011587               110137831    8    100136021 1087    090135411    8    080127711    8    070133441    8    011024   012096   012145   014844   013909   015472   016257   016882   014463   013698   012764   011751                                      
140000800310012 00130 4110201BAYEUX              0870887CUSSY               0980183GUERON              0920593010439010439500100890100000000000206      018492 0937    015464   015328   017871   019643   019487   019309   020152   021161   019924   018564   018140   016755               110190131 1027    100185981 1027    090185021 1007    080179111 1060    070181101 1027    014571   017581   017600   020363   019344   020907   021155   021191   020090   019318   018408   017617                                      
140000700310012 00130 4110201BROUAY              0790212BAYEUX              0870887CARCAGNY            0850196008722008722500100890100000000000293      026730 0887    024130   023684   026251   027717   027765   028619   029374   027939   027652   027036   026342   024167               110274631    7    100268251         090267961    7    080261061    0    070262511    0    023817   025881   025734   029274   027809   029123   029518   029455   028906   027720   026751   025553                                      
140000601310012 00130 4110201CARPIQUET           0690000BROUAY              0790212CARPIQUET           0700500009582009582500100890100000000000193      054424 0887    051769   050463   055060   055386   055176   058173   056294   052856   055921   055780   054697   051465               110553111    7    100534541    7    090536561    7    080531561    7    070543401    7    049857   053313   053922   057985   056795   058092   055630   054143   058165   056180   055498   054226                                      