340001500310012 01090 4113001SUD GIGNAC          0200000NORD GIGNAC         0320000GIGNAC 34           0300700012000012000340000500300000000000490      010889  667    009792   009794   010832   011720   011896                                       011804   011621   010783               110114081  657    100102791  677    09      1         08      1         07      1         008956   009998   009982   011568   011339   012115   013626   014125   012177   011754   010320   010750                                      
630501800310012 00750 1110241Carf. RD76          0450600LIMITE Hte LOIRE    0490000NORD DE LEMPDES     0470000003400003400          43000000011299      010602  977    008166   008298   009033   004545   009388   012036   012419   020757   013474            009482   009207               110111241  827    100116061  877    09      1         08      1         07      1         008316   008524   009678   011047   011579   012091   011866   017891   012950   011232   009487   008605                                      
120500400310012 00750 1110231ECH.ENGAYRESQUE     2000000ECH ST GERMAIN      2150050LA GAMASSE          2100400015050015050          00000000000194      016690 1577    005935   006919   010195   016867   017748   017146   029699   036226   019526   013288   010941   011373               110156981 1267    100158821 1707    09      1         08      1         07      1         009243   010490   011316   017221   015567   017868   025417   029411   016563   014970   011435   008383                                      
120500600310012 00750 1110231VIADUC DE MILLAU SUD2220953DEP HERAULT         2520695A 75 LA CAVALERIE   2380210030012030012          00000000000998      019167 1267    010341   011106   012612   018890   020040   019898   031980   039403   023332   015996   012594   012853               110192561 1287    100187151 1267    09      1         08      1         07      1         010337   011759   012707   019242   017604   022162   034725   038226   020879   016793   012565   013272                                      
340000500310012 00750 1113041NORD RN 109         2800000RN 109              2900450LODEVE_SUD          2800200010450010450          00000000000490      019282 1147    015663   015548   018128   023859   024525                              025104   021142   018647   018003               110243341 1037    100222511 1037    09      1         08      1         07      1         015502   017175   017957   024617   023097   027430   039131   041697   026208   022253   017837   018378                                      
340001404310012 01090 4810101EB 20 MONTPELLIER   0040000A 750               0100000JUVIGNAC OUEST      0050000006000006000          00000000000190      028516  757    025990   024671   027135   032825   033059                                                         030054               110310528  567    100222388  487    09      8         08      8         07      8         027451   028941   029107   032271   028711   029424   036221   037028   034065   030044   028849   030321                                      
480500100310012 00750 1110241LIMITE CANTAL       1140527LA GARDE SUD        1160943ALBARET_MARI_M      1160700002416002416480500100300000000000592      014841 1337    007601   008210   009221   014119   014669   014681   025233   032978   017846   011062   008616   009752               110147111 1317    100142601 1307    09      1         08      1         07      1         007547   008556   009322   014474   012745   015959   027574   032079   015410   012572   009460   010124                                      
480500101310012 00750 2110201LA GARDE            1160700LA GARDE            1160700ALBARET_MARI_M      1160700000000000000480500100300000000000794      001728 1757    001135   000483            001019                              003350                                                   110023191 1497    100023031 1517    09      1         08      1         07      1         001141   001207   001464   002125   002127   002495   004574   005361   002406   001940   001478   001364                                      
480500400310012 00750 1110241ST CHELY-SUD        1270799AUMONT-NORD         1330830AUMONT-NORD         1330830006053006053480500400348000010030393      013919 1397    006973   007312   008553   013378   013696   013523   024414   030591   016516   010499   008084   008936               110110621 1267    100104341         09      1         08      1         07      1                                                               000518                                       010017                                      
480500600310012 00750 1110241ECH.37 LE BUISSON   1460000ECH.39 LE MONASTIER 1610000CHIRAC              15800000151000151006305019003          0199      013454 1197    006459   006904   007982   012894   013381   013338   024035   030538   016147   009961   007591   008414               110161491 1077    100127731 1187    09      1         08      1         07      1                                                               028593   029647   014381   011162   008139   008669                                      
480500800310012 00750 1110241ECH.40 BANASSAC     1720047LIMITE AVEYRON      1790296BANASSAC            1720100007249007249630501900300000000000199      014876 1677    007462   007821   009236   014413   014976   014740   025569   031904   017525            007852   008280               110175361 1567    100143391 1657    09      1         08      1         07      1                                                               030243   031157   015987   012613   009440   009562                                      
480500801310012 00750 2111001ECH.40              0000000ECH.40              0010000BANASSAC            0000005001000001000630501900300000000000199      002992                                                                                                            002807               110011751         100010641         09      1         08      1         07      1                                                               001379   001384   001136   001127   001017   000952                                      
480500701310012 00750 2111001ECH.40              0000000ECH.40              0010000BANASSAC            0000005001000001000630501900300000000000199      000125                                                                                                            000004               110009481         100008581         09      1         08      1         07      1                                                               001233   001218   000875   000832   000763   000704                                      
480500700310012 00750 1110241ECH.39 LE MONASTIER 1610724ECH.40 BANASSAC     1720047ST GERMAIN DU TEIL  1670000010323010323630501900300000000000199      016527 1217    008793   009425   010976   015949   016707   016694   027752   034318   019617   012745   009336   010915               110123101 1437    10      1         09      1         08      1         07      1                                                                                 015853   014299   010843   010121                                      
480002300310012 01060 4113001INTER.D98-JALCRESTE 0221020INTER.D907-FLORAC   0440660FLORAC_SUD          0380500020631020631480002500300000000000995      002704 1387                                                                                              002747   002691               11      1         10      1         09      1         08      1         07      1                                                                                                                                                        
480002400310012 01060 4112001INTER.D907-FLORAC   0440660INTER.D907B-R.PERCEE0510305FLORAC              0490000006245005698480002500300000000001287      003752  697    002612   002572   003040   003443   003740   003978   005385   006350   004266   003559   002924   002631               110037671  707    100036801  687    09      1         08      1         07      1         002564   002835   002946   003679   003610   004100   005562   006353   004210   003602   002937   002717                                      
480000900310012 00880 4113001N102-ARDECHE        0000000INTERS.D906         0020000LANGOGNE            0010460002298000790480000900300000000000592      006876  837    003377                                                006857   008403   005685   004410                                 110049441 1027    100048011 1007    09      1         08      1         07      1         003139   003493   003834   004860   004907   005671   007165   008332   005427   004868   003933   003564                                      
480001900310012 00880 4113001CARR.RN106 BALSIEGES0580619CARR.RN108 BARJAC   0650751BALSIEGES           0590200006756006640480001900300000000001192      006042         004869   004998   005548   006175   006597   005869   008221   007941   006008   006613   004543   003920               110065071         100063721         09      1         08      1         07      1         004836   005128   005523   006747   006876   007178   008511   009085   006911   006514   005448   005201                                      
480002100310012 00880 4113001INTER.D31-CHANAC    0710883INTER.N9-AJUSTONS   0840280CHANAC              0740500011181011181480002500300000000001192      004271 1307    003056   003107   003595   004324   004737   004564            007094   005005   004425   003414   003274               110044211 1337    100042311 1347    09      1         08      1         07      1         002993   003328   003653   004340   004385   004941   006301   007001   004874   004253   003557   003320                                      
480001800310012 00880 4113001EB20 MENDE          0530185CARR.RN106 BALSIEGES0580619MENDE-SUD           0550300005284005015480001900300000000000793      009250  897    007821   007832   008628   008936   009449   009768   011361   011688   009892   009133   008399   007933               110094271  907    100093721  927    09      1         08      1         07      1         007752   008281   008328   009736   009964   010136   011111   011606   009975   009601   008448   008095                                      
480002500310012 01060 4112001CARR.D907B          0510305ST BAUZILE D41      0730660FLORAC_NORD         0530900021847021847480002500300000000000995      001080 1967    000681   000725   000859   001093   001251   001285            002359   001524   001032   000818   000748               110013181 1767    100013141 1757    09      1         08      1         07      1         000662   000730   000909   001191   001192   001554   002336   002793   001574   001159   000883   000777                                      
340001501310012 07500 4110201NORD GIGNAC         0320000A 75                0380625ST FELIX DE LODEZ   0370600006625006625340000500300000000000402      023850  747    021267   021234   023714   026141   027301                                       026691   024237   023583               110246971  737    10      1         09      1         08      1         07      1                                                                                 027596   025613   022279   023316                                      
150500200310012 00750 1110241MASSIAC NORD        0630988MASSIAC SUD         0680500MASSIAC             0670600004512004512          00000000001200      010248 1717    012848                                                                  014377   011204   008569   009501               110147551 1677    100145161 1807    09      1         08      1         07      1         007808   008687   009297   014639   013132   016038   028479   030758   015214   012562   009865   009887                                      
150500300310012 00750 1110241MASSIAC SUD         0680500VIELLESPESSE        0840600SALBAS              0760300016100016100          000      01200      011064 1697    013628                                                                  015019   011968   009477   010346               110127601 1707    10      1         09      1         08      1         07      1                                                                                 016033   013633   010653   010761                                      
150500400310012 00750 111 241VIELLESPESSE        0840600ST FLOUR NORD       0920550ST FLOUR NORD       0910400007950007950                    1200      011245 1647                                                                            015245   012365   009634   010528               11      1         10      1         09      1         08      1         07      1                                                                                                                                                        
150500500310012 00750 111 241ST FLOUR NORD       0920550ST FLOUR SUD        0960300ST FLOUR            0930300003750003750                    1200      008899 1897                                                                            012860   009771   007469   008407               11      1         100066871 2087    09      1         08      1         07      1                                                      000389                                                                                            
150500600310012 00750 1110241ST FLOUR SUD        0960300LIMITE LOZERE       1140610LOUBARESSE          1120800018310018310          000      00300      009951 1787    011075                                                                  013772   010763   008422   009451               110158311 1647    100076521 1897    09      1         08      1         07      1                           008665   014246   013104   016020   028235   031061   015022   012160   009242   009177                                      
150001900310012 01220 4113001NEUSSARGUES-MOISSAC 1100900MASSIAC CARF.RN 9   1360144LA ROCHE            1330000025244025244          00000000031294      003534 1367    002855   003212   003331   003329   003457   003679   004352   004447   003715   003544   003188   003040               110036361 1447    100036571 1567    09      1         08      1         07      1         003081   003362   003272   003540   003409   003959   004423   004598   003752   003760   003310   003145                                      
150001700310012 01220 4113 51TUNNEL DU LIORAN    0880000MURAT               1010850LA GRANGE DE GANILH 09708500138500138500000000000          1200      005844 1067    004948   006200   005711   005151   005733   005787   006503   007591   005927   005607   004951   004155               110060141 1067    100059571 1037    09      1         08      1         07      1         005190   006308   005968   005568   005583   006234   006928   007771   006072   005827   005274   005452                                      
150001500310012 01220 4113001BANCOU              0530380VIC SUR CERE        0680800MEYMAC              06202000154200154200000000000000      01287      007703  897    006996   007668   007589   007244   007658   007957   008313   009023   007975   007774   006997   006793               110078851  927    100078611  867    09      1         08      1         07      1         006995   007750   007644   007824   007793   008147   008618   009221   008113   007840   007387   007269                                      
150001200310012 01220 4113001MAURS               0050100LE ROUGET CARF.CD 200270800LE MARTINET         01507000227000227001500015003000      01294      003613 1127    003075   003170   003450   003505   003622   003532   004172   004545   003685   003809   002548   003306               110036891 1107    100037751         09      1         08      1         07      1                  002881   003278   003797   003657   003796   004155   004210                     003383   003332                                      
070003300310012 01020 4113001CAR CD536           0530729MAYRES              0680187THUEYTS           B 0600000014317014317070003300300000000000188      005452 1167    003099   003136   003790   005081   005914   005985   008166   009875   006543   013025   003797   003314               110054081 1157    100052861 1117    09      1         08      1         07      1         003015   003474   003811   005385   005367   006456   008506   009888   006094   005280   003967   003474                                      
070003500310012 01020 4113001CAR CD108           0840161LIMITE DEPT43       0941069PEYRABEILLE       B 0890400011024011024          00000000000188      003746 1417    001998   001948   002518   003406   004084   004003   006056   007757   004537   003128   002313   002183               110031941 1507    10      1         09      1         08      1         07      1                                                                                 004193   003528   002672   002398                                      
070003200310012 01020 4113001CARD578             0440616CARD536             0530729LALEVADE            0470000009115009115070003300300000000000105      012615  627    009764   009685   011020   011965   012892   013501   016068   017607   013908   012829   010588   010117               110125711  637    100113301  657    09      1         08      1         07      1         009449   010119   010745   012641   012635   013673   016085   017588   013573   012555   010854   010207                                      
430000600310012 00880 4113001ECHANGEURD47        0160000ECHANGEUR.RD103     0350835BAL DES NEIGES      0230700019835019835          000      00500      014683  967    012220   012360   013928   014814   015037   017189   016623   016148   016118   015084   013855   012791               110141871  957    100142101  927    09      1         08      1         07      1         011927   012472   013205   014376   014807   015269   015906   015776   015333   014798   013611   012659                                      
430002000310012 01020 4113001CARREF.RD513        0560300VIEILLE-BRIOUDE     0740550LA LOCANDA          0640050018450018450430002000300000000001193      008946 1347    007032   006916   008104   008893   009376   009266   011905   012023   008465   009211   007552   007147               110094361 1347    10      1         09      1         08      1         07      1                                    009347   009023   008939   011743   011833   009323   009045   008141   007441                                      
630501000310012 00750 1110241Carf.RD978          0140634ECHANGEUR COUDES Nø80180582AUTHEZAT            0170000004115004115630501000100000000001299      037113 1037    029205   028725   032933   031745   037590   039152   050203   055980   041127   008239   032658   031705               110379181 1047    100309391 1227    09      1         08      1         07      1         029180   031730   032182   038271   036837   040699   052942   053246   039775   035964   031113   032427                                      
630501900310012 07110 1110241Carf.RN 89          0000000Carf. A 72          0060410SORTIE EST          0040000005056005056          00000000001299      043278  507    043393   041900   045461   042754   042693   046258   043000   037315   044727   048401   046609   042991               110451781  507    10      1         09      1         08      1         07      1                                                                                 045652   045566   045021   044484                                      
630500600310012 00750 1150241Ech 1               0020000Carf.RD137          0040810AUBIERE             0020350002810002810630501000100000000001299      063411  877    056091   056057   061902   062109   062026   066970   073739   072934   067793   062833   060285   056687               110627931  887    100607121  857    09      1         08      1         07      1         051643   058091   058983   063107   062360   065537   074069   071111   067424   062940   059096   058838                                      
630500800310012 00750 1110241Carf.RD978          0060210Carf.RD213          0090956NOVIALE             0060500003888003888630501000100000000001299      046179  737    010243                                                                  008390   015353   046422   045221               110490421  797    100495061  797    09      1         08      1         07      1         042533   045742   045799   051441   049657   052977   024565   020149   015010   014836   012572   013302                                      
630501300310012 00750 1110241Carf RD 9           0300000Carf. RD 996        0310000ORBEIL              0310000001120001120630501300100000000001299      023651 1157                      000483   002210   003426   003472   004693            000913   002276   023256   023058               110276991 1127    100263091 1147    09      1         08      1         07      1         018765   020784   021552   027598   025906   029217   039511   038566   025782                                                                 
630500501310012 0A750 1150241A 71                0000000Voie ferrée         0010000LA POUDRIERE        0000845001000001000630501000100000000000408      063393  847    056335                                                                  045093   066611   064740   060968               110648611  887    100631531  847    09      1         08      1         07      1         055787   057716   060807   062291   063634   066911   075524   073084   067995   066944   063574   063417                                      
630500502310012 0A750 1150241Voie ferrée         0010000Ech 1               0020000LA PARDIEU          0010547001000001000630501000100000000000408      048656  947    045304                                                                  038272   052357   048769   045573               110518481  957    100493021  927    09      1         08      1         07      1         044165   047664   048408   052910   050705   052559   063745   060634   054386   051423   047925   047258                                      