030000100310012 00070 4812001Dpt. 58             0000000RD133               0030110Villeneuve S/Allier 0020000003112003112030000200358000120031197      018185                                                                                                                                 110181668         100176278         090176698         080177628         070176548                                                                                                                                                        
030000200310012 00070 4110201RD133               0030110RD707               0110880AVRILLY             0070250008768008768030000400300000000000589      015739 2867    012905   013780   014702   015619   016143   016154   019743   019678   016278   015704   014770   013248               110157221 2837    100152551 2977    090152911         080153711         070152771 2798    012413   014436   014676   016188   015311   016710   019539   019767   015901   015433   014100   014065                                      
030000202310012 00070 4110201RD707               0110880RN79                0240300MILLEPERTUIT        0200000017179017179030000400300000000001197      013211 3337    010758   011356   012385   013785   013219   013551   016584   016857   013764   012731   012033   011393               110134711 3267    100130071 3247    090128471         080131321 3268    070130661 330     010867   012093   012450   013784   013531   014276   016844   016784   013772   013135   012035   011944                                      
030000400310012 00070 4113001RN79                0240300RD46/RD268          0430421BESSAY              0310488019100019100030000400300000000000189      008782 3487    007892   007921   008389   009231   008862   008950   009363   009393   009381   009514   008676   007790               110092871 3337    100090411 3277    090090511 3088    080090911 3108    070000001         008082   008873   009054   009644   009314   009817   010421   010357   009463   009282   008756   008360                                      
030000499310012 00070 4812001RD46/RD268          0430421RN209/RD23          0470707Varennes S/Allier   0470300004320004320030000400300000000000504      000000                                                                                                                                 110000008         100000008         090000008         080000008         070086928                                                                                                                                                        
030000900310012 00070 4113001RN209               0470707RD907               0640441ST_GERAND_PUY       0550211016784016784000000000000000000001202      005759 3417    004929   004972   005466   005696   005902   005934   006776   007046   006096   005787   005490   004970               110057771 3507    100055691 3507    090055451         080055701         070056311 3317    004648   005254   005607   006028   005765   006064   006979   006786   005937   005709   005302   005208                                      
030001000310012 00070 4813001RD907               0640441RD990               0700992St-Prix             0670000006205006205000000000000000000001202      000000                                                                                                                                 110000008         100000008         090000008         080000008         070000008                                                                                                                                                        
030001100310012 00070 4113001RD990               0700992Dpt. 42             0810328ROSSIGNOL           0720320010382010382030005900300000000000309      006300 3407    005080   005292   005709   006455   006499   006516   007532   007605   006582   006520   006217   005544               110062641 3367    100060691 3367    090059841         080060191         070060061 3307    005016   005588   005987   006440   006337   006514   007593   007559   006424   006227   005739   005679                                      
030004100310012 00790 4813001RD46                0000000RD945               0100765Montmarault         0000150010673010673030005900300000000000200      013069                                                                                                                                 110126208         100128198         090115378         080117098         070117198                                                                                                                                                        
030005900310012 00790 4113001RD945               0100765RD2009              0321061CRESSANGES          0230855023377023377030005900300000000000200      000000                                                                                                                                 110089871 3957    100091281 3927    090082151 3728    080083371 4398    070083441 4098    006998   007988   008432   009042   008733   009468   011663   011769   009953   008508   007514   007672                                      
030006000310012 00790 4813001RD2009              0330000RN7                 0351664Toulon S/Allier     0350000004297004297030005900300000000000200      000000                                                                                                                                 110162818         100165378         090148838         080151058         070151188                                                                                                                                                        
030006200310012 00790 4113001RN7                 0351664RD779               0640675LES_POCHONS         0590858028762028762000000000000000000000200      012094 4187    009436   010399   011119   012130   012298   012407   016559   016764   013290   010964   010051   009583               110119741 4327    100116801 4337    090105041         080105861         070107231 424     009376   010795   011331   011619   011388   011549   016126   016808   012487   011321   010138   010575                                      
030006400310012 00790 4113001RD779               0640675Dpt. 71             0881330MOLINET             0830178024531024531000000000071000000010504      014246 3987    011322   012196   012871   013571   014130   014859   019697   020356   014840   013413   012242   011280               110000001         100144381         090140661         080139291 4127    070136721 4247                                                                                                                                                   
030005300310012 02090 4113001RD907               0260000RN7                 0400909CRECHY              0340821013964013964030005900300000000000394      000000                                                                                                                                 110066991    7    100063101 1067    090065791         080065941 1227    070068011 1227    005887   006284   006304   006616   006451   006739   006743   006823   007087   007264   007967   006240                                      
070002500310012 01020 4143001Dpt. 26             0000000SORTIE AGGLO LE TEIL0040462AGGLO LE TEIL       0000500002522000000000000000000000000000188      013607  597    011780   011568   012816   013074   013495   014866   015751   015106   014225   013964   013342   013199               110053181    7    100000001         090000001         080159451         070164401                                                                                                                                                        
070002600310012 01020 4813001SORTIE AGGLO LE TEIL0040462Carf. CD107         0121024LE TEIL             0050200008397008397000000000000000000000188      008809                                                                                                                                 110000008         100081358         090082518         080080198         070082698                                                                                                                                                        
100002500310012 00770 4813001YONNE limite        0000000RD374 Auxon         0080830Auxon               0000152008854008854000000000000000000000205      000000                                                                                                                                 110000008         100000008         090000008         080000008         070000008                                                                                                                                                        
100001800310012 00770 4113001RD374 AUXON         0080830RD34 LE CHEMINOT    0170255CRESANTIGNES        0170200008459008459000000000000000000001208      000000                                                                                                                                 110068561 1527    100067721 1477    090066221         080000001         070000001         006199   006335   006555   007064   007034   007222   007784   007334   007407   006969   006294   006044                                      
100002610310012 00770 4813001RD34 Le Cheminot    0170255RD610 Rocade        0320866Laisnes aux Bois    0280000015388015388000000000000000000000311      011901                                                                                                                                 110000008         100000008         090000008         080000008         070000008                                                                                                                                                        
210600100310012 00380 1112041POUILLY_EN_AUXOIS   0000000PONT_DE_PANY        0200996CIVRY               0050400020981020981260000300300000000000107      009529  957    008817   008937   009699   009727   009644   010143   010040   009346   009964   009875   009456   008701               110097541    7    100097391    7    090000001         080097381    7    070101181    7    008573   009167   009440   009992   010051   010380   009997   009554   010335   010169   009766   009613                                      
210600300310012 00380 1112041PONT_DE_PANY        0210000PLOMBIERES_LES_DIJON0360384PONT_DE_PANY        0210450015415015415260000300300000000000307      016396  797    014975   015039   016430   016796   016824   017715   016799   015839   017494   017309   016518   015025               110168441    7    100169021    7    090172751    8    080171911    8    070175071         015253   016017   016612   017545   017653   018129   016886   016079   017875   017528   016803   015773                                      
210100100310012 02740 4150301LONGVIC             0000000ECHANGEUR A39       0040000MONT_BLANC          0030880004000000000260000300300000000000613      048556  807    048039   048516   050027   049074   047038   052048   047117   041676   050112   052277   050614   046378               110000001         100000001         090000001         080000001         070000001         000000   000000   000000   000000   000000   000000   000000   000000   000000   000000   000000   000000                                      
210100200310012 02740 4150301ECHANGEUR A39       0040000ECHANGEUR D700      0060800MIRANDE             0040800002800000000260000300300000000000613      000000                                                                                                                                 110000001         100000001         090621981         080585451         070608351                                                                                                                                                        
210100500310012 02740 4150301ECHANGEUR D700      0060800TOISON D'OR         0111015TOISON_D_OR         0100620005265000000260000300300000000000613      030148         029860   030111   030354   030017   029246   031984   029381   025537   030804   032621   032453   029557               110000001         100000001         090000001         080000001         070000001         000000   000000   000000   000000   000000   000000   000000   000000   000000   000000   000000   000000                                      
260000100310012 00070 4113001Dpt. 38             0000000ANDANCETTE          0070350ST_RAMBERT          0040000006939006939260000300300000000001098      012946 1297    012025   011640   012760   012902   013172   013939   014411   013251   013482   013452   012524   011745               110127081 1347    100122201 1367    090000001         080130491         070000001         010958   011659   012167   012917   013020   013725   014303   012941   013336   012872   012431   012122                                      
260000201310012 00070 4813001ANDANCETTE          0070350ST VALLIER SUD RD51 0160200Croix des Mailles   0110000008857008857260000300300000000000311      010538                                                                                                                                 110103378         100102868         090000008         080101598         070102548                                                                                                                                                        
260000300310012 00070 4113001ST_VALLIER SUD RD51 0160200TAIN NORD RN95      0280260TAIN                0250200012221012221260000300300000000000188      012544 1117    013480   012860   015125   012206   012090   012893   013434   012394   012350   011940   011257   010474               110123041 1027    100122431 1157    090000001         080120911 1108    070122031 1038    010766   011500   011784   012544   012629   013112   014129   012720   012850   012300   011592   011675                                      
260000400310012 00070 4843001TAIN NORD RN95      0280260LA TEPPE            0300020Tain agglo          0290700001734000000260000300300000000000188      013789                                                                                                                                 110135268         100134598         090000008         080132928         070134158                                                                                                                                                        
260000500310012 00070 4114001LA TEPPE            0300020ARMAILLER BLV NoRD  0410485SC062 BLV NORD      0410340011200011200260001100300000000001098      016531 1047    015427   015361   016515   016261   016370   017636   018113   016794   016988   016893   016290   015680               110167621    7    100000001         090000001         080184441         070186151         015374   016135   016282   016669   017366   017957   017715   016509   017584   017057   016390   016090                                      
260004000310012 00070 4150201ARMAILLER BLV Nord  0410485LAUTAGNE Giratoire R0430460SC061 B-L-V         0421166004460000000420000100300000000000205      020857  877    020216   019872   021641   020779   020839   022507   021674   018981   020922   021637   020815   020389               110208561    7    100000001         090000001         080192071         070193851         019446   020374   020683   021324   021465   021714   021536   018947   021691   021137   020856   021118                                      
260003900310012 00070 4156001LAUTAGNE Giratoire R0430460CARREFOUR ALIXAN VAL0461289SC020 CHABEUIL      0450585006829000000420000100300000000001098      042462 1097    038410   038939   040876   043209   042986   044504   048954   047324   043573   041335   039223   040015               110426881 1027    100000001         090329051         080322461         070328541         038311   039577   041035   043192   042276   045683   049971   047150   044073   041719   038187   040787                                      
260003801310012 00070 4156001CARREFOUR ALIXAN VAL0461289LAUTAGNE            0470979SC010 LAUTAGNE      0470330001690000000420000100300000000001098      054163  857    050288   050928   053905   054793   053091   057456   059647   057186   055556   054336   051617   051035               110546591    7    100000001         090460821         080451601         070460111         050361   052566   054082   055992   055030   056865   060884   056532   056902   054053   050612   051884                                      
260003802310012 00070 4150101LAUTAGNE            0470979CHANTECOURIOL Girato0480595SC053 POMPIER       0480500001781000000420000100300000000000205      024228 1127    023546   023351   024711   023991   023925   025427   025751   022975   024750   025063   024379   022869               110242231 1117    100000001         090173161         080173461         070175211         021728   023941   024520   024897   024761   025079   025504   023202   025092   024525   023820   023639                                      
260000800310012 00070 4115001CHANTECOURIOL Girato0480595ETOILE              0550600SC051 CHAFFIT       0480750008454008454260001100300000000001098      017569 1477    016402   016647   017827   017498   017630   018680   019344   017838   017991   017809   017144   015997               110175761 1417    100000001         090189091         080189421         070191341         016270   017107   017330   017964   017983   017941   019232   018146   018195   017372   016840   016508                                      
260000900310012 00070 4815001ETOILE              0550600ST BLAISE RD247     0630320Fiancey             0590000007707007707260001100300000000000188      010782                                                                                                                                 110108738         100107108         090108698         080108888         070109988                                                                                                                                                        
260001000310012 00070 4835001ST BLAISE RD247     0630320LIVRON SUD          0640700Livron agglo        0630500001378000000260001100300000000001098      012929                                                                                                                                 110130388         100128428         090130338         080130568         070131888                                                                                                                                                        
260001100310012 00070 4115001LIVRON SUD          0640700LORIOL NORD RD107   0660330LORIOL              0650100001614001614260001100300000000001098      017566  857    016254   016261   017793   017508   017983   018783   019289   018413   017886   017620   016827   016119               110177131    7    100174461    7    090177051         080177351    7    070179141    7    016039   017014   017299   018458   017982   018659   019381   018761   018175   017480   016636   016635                                      
260001200310012 00070 4845001LORIOL NORD RD107   0660330LORIOL CENTRE RD86F 0670160Loriol dév. Nord    0660500001004000000260001100300000000001098      014548                                                                                                                                 110146708         100144498         090146648         080146898         070148388                                                                                                                                                        
260001300310012 00070 4813001LORIOL CENTRE RD86F 0670160LORIOL BLACHES RD7  0690300Loriol déviation    0670500002605002605260001100300000000001098      018889                                                                                                                                 110190488         100187618         090190408         080190738         070192668                                                                                                                                                        
260001400310012 00070 4114001LORIOL BLACHES RD7  0690300LES TOURETTES       0760700SC100 TOURETTES NORD0760600007463007463260001900300000000001098      010397 1507    008859   009146   010169   010522   010903   011224   012416   012354   010878   010235   009493   008507               110105841 1437    100000001         090115721         080115921         070117101         008540   009306   009999   011143   010891   011576   012895   012849   010964   010234   009468   009039                                      
260001500310012 00070 4115001LES TOURETTES       0760700MONTELIMAR NORD RD540861030COUCOURDE           0810000010341010341260001900300000000001098      014955 1537    013015   013283   014622   015286   015288   016190   017471   016857   015617   014739   013969   013061               110149391 1507    100148341 1517    090148191         080143451         070145621         012806   013670   014110   015394   015109   015770   017820   017141   015559   014620   013740   013433                                      
260001600310012 00070 4815001MONTELIMAR NORD RD540870000PRACOMPTAL RN102    0891030Montélimar dév. Nord0870500003479003479260001900300000000000311      011472                                                                                                                                 110110268         100110388         090111338         080107788         070109428                                                                                                                                                        
260001800310012 00070 4854001PRACOMPTAL RN102    0891030MONTELIMAR SUD      0921050Montélimar dév. Sud 0900000003780000000260001900300000000001098      022066                                                                                                                                 110212078         100212298         090214128         080207288         070210438                                                                                                                                                        
260001900310012 00070 4115001MONTELIMAR SUD      0921050MALATAVERNEEch. A7  0980920MONTELIMAR          0960050006460006460260001900300000000001098      020126 1137    017582   017726   019207   019686   019729   021537   023352   023233   020831   020652   019434   018421               110193421 1117    100193621 1027    090195281         080189041 1167    070191911 1087    017229   018269   018528   019300   019026   020190   021705   020854   019910   019915   018447   018635                                      
260002000310012 00070 4114001MALATAVERNE Ech. A7 0980920PIERRELATTE SUD     1140250PIERRELATTE         1100000015482015482260001900300000000001098      016984 1557    014991   014855   016527   017612   017431   017958   019383   018818   017968   017430   016134   014627               110170371 1467    100167461 1387    090172751         080160281         070162711         014788   015808   016181   017452   017214   018344   020336   017955   017992   016832   016156   015322                                      
260002100310012 00070 4814001PIERRELATTE SUD     1140250VAUCLUSE            1180807Les Blaches         1150000004513004513260001900300000000001098      011319                                                                                                                                 110108798         100108918         090109858         080106348         070107968                                                                                                                                                        
260002700310012 01020 4843001MONTELIMAR          0000000PRACOMPTAL          0010480Montélimar          0010480001382000000260001900300000000001098      008726                                                                                                                                 110083878         100083968         090084688         080081988         070083228                                                                                                                                                        
260002800310012 01020 4813001PRACOMPTAL          0010480Dpt. 07             0030841Montélimar          0010500002350002350260001900300000000000311      008417                                                                                                                                 110080908         100080998         090081698         080079088         070080288                                                                                                                                                        
260003200310012 05320 4110201BAYANNES            0050000BOURG_DE_PEAGE      0150170ALIXAN              0120950010593010593420000100300000000000192      045520  767    042322   042373   044462   045843   044982   047512   051650   049166   046736   045191   042549   043260               110459071    7    100449971    7    090430881    8    080422251         070434601         042067   043699   044744   046856   045474   048942   052232   048763   047612   045070   041390   043853                                      
380500600310012 00480 1150231ST_EGREVE NORD      0910000Bif. A48/A480       0930520ST_EGREVE           0920800002520000000420000100300000000000600      093288  827    089994   092924   097183   092858   090821   098609   098639   089241   095015   095115   091726   087471               110000001         100000001         090000001         080993061    7    070000001                                                                                                                                                        
380500900310012 04800 1110241Bif. A48/A480       0000000LES_MARTYRS         0010275LES_MARTYRS         0010050001275001275420000100300000000000403      075575  787    072986   075689   079083   075087   073284   078852   079570   074040   076733   076258   074065   071338               110752351    7    100742001    7    090745441         080000001         070000001         073231   077052   077355   076773   074713   075660   078073   071616   076528   075361   073419   073260                                      
380500905310012 04800 1150231LES_MARTYRS         0010275FONTAINE VERCORS    0030650CENG                0020850002375000000420000100300000000000600      083345  757    081156   083527   087207   083014   080244   087190   087189   079173   084877   085065   082633   079016               110825771    7    100807391    7    090809421         080909021         070856181         080700   085182   084935   083712   081853   082934   084585   077216   084187   083219   081853   080871                                      
380500910310012 04800 1150231FONTAINE VERCORS    0030650CATANE              0041000CATANE              0040250001350000000420000100300000000000103      096135  657    091620   096381   102429   095652   093102   101210   100023   091915   098489   098204   094323   090455               110939961    7    100940801    7    090950341         081044701         070983971         093407   097703   098808   098088   096132   094973   088907   089235   095508   093819   091814   090054                                      
380500920310012 04800 1150231CATANE              0050000LOUISE_MICHEL       0060350MISTRAL             0050800001350000000420000100300000000001104      099794  667    097887   100576   104832   099226   097432   102890   097656   098657   101861   102073   099207   095407               111008621    7    101000051    7    090979901         081020681         070000001         099309   103508   103462   103010   101471   102778   102761   094536   103480   100320   098494   097605                                      
380501000310012 04800 1150231LOUISE_MICHEL       0060350RONDEAU             0070400LOUISE_MICHEL       0060500001050000000420000100300000000000600      084149  777    082918   085712   087893   084004   081545   087193   084234   081008   085574   085684   083791   080458               110833421    7    100823931    7    090779621         080822881         070775041         083609   088214   087082   085034   083336   082085   080865   077083   083067   084436   083127   082641                                      
380501010310012 04800 1114031RONDEAU             0070400ZI COMBOIRE         0081000COMBOIRE            0070900001600001600420000100300000000000204      089786  407    086165   088403   091913   088065   088686   095290   093681   088558   090821   091529   088479   085865               110913811    7    100898761    7    090907941         080900391         070000001         086472   092030   092459   094074   092429   093877   093214   088645   094328   091728   088933   088625                                      
380501020310012 04800 1150231ZI COMBOIRE         0090000PONT_DE_CLAIX       0100100LE_PARC             0090500001100000000420000100300000000000600      063382  517    059702   062850   067305   063321   062740   066884   067114   062348   063400   064506   061622   058812               110643821    7    100637241    7    090642741         080000001         070633861         062274   065976   065518   066258   064815   067901   068718   063805   064989   062825   059683   060015                                      
380501100310012 04800 1150231PONT_DE_CLAIX       0100100CLAIX               0110950DRAC                0110200001850000000420000100300000000001104      042104  347    038859   039779   043710   042060   042946   045880   041835   040840   044289   044163   042068   038861               110420941         100405811    7    090402641         080000001         070302841         038681   040984   040804   043114   042741   044634   043324   040190   044461   043011   041138                                               
380501200310012 04800 1150231CLAIX               0110950VARCES RN75         0120430CLAIX               0120700000480000000420000100300000000000600      000000                                                                                                                                 110358171    7    100331921    7    090331831         080326601         070335311         030946   034738   035766   037997   036001   035200   035848   036205   039037   037819   036146   034163                                      
380001000310012 00070 4113001RHONE               0000000PEAGE DE ROUSSILLON 0270900AUBERIVES           0210700027874027874420000100300000000000194      012413  697    011259   011680   012765   012578   012719   013291   013335   011995   012852   012746   012238   011490               110127601    7    100000001         090000001         080131621         070127491    7                      012407   013078   012887   013193   013411   012279   013180   012681   012436   012070                                      
380001300310012 00070 4123001PEAGE DE ROUSSILLON 0270900Dpt. 26             0330605ROUSSILLON          0310400005854000000420000100300000000000600      000000                                                                                                                                 110185241         100000001         090000001         080179691 1237    070181141 1187    017203   018153   018731            019251   019616   019711   018124   018958   018286   017739   017775                                      
380003500310012 00850 4113001CLAIX               0490000JARRIE              0500450PONT_ROUGE          0500400001950001950420000100300000000000407      024843  737    023673   025552   026488   023914   023232   025899   028084   027264   024753   023763   022771   022708               110252951    7    100249031    7    090000001         080243311         070243931         024219   025902   026396   025294   024348   025870   028351   027009   025043   024081   023061   023962                                      
380003600310012 00850 4113001JARRIE              0500450CHAMP/DRAC          0560310CHAMPAGNIER         0530000007556007556420000100300000000000407      030596  667    029590   031220   032711   029108   028975   031720   033841   032682   030299   030279   028567   028111               110312171    7    100307011    7    090308311         080304461         070308591         029924   031518   032093   031123   030592   032201   034077   032393   031527   030424   029189   029544                                      
380004010310012 00870 4150201Bif. A480/RN87      0000000RONDEAU             0010500RONDEAU             0000300002480000000420000100300000000000407      095094  507    093081   094617   100022   095430   094359   099642   096305   086104   097307   098493   095791   090192               110959001    7    100000001         090000001         080736731         070000001                           097947   097795   098289   098539   093186   086106   099348   097679   096922   093476                                      
380004020310012 00870 4150201RONDEAU             0010500ECHIROLLES          0020500ETATS_GENERAUX      0010300000997000000420000100300000000000407      091380  507    089391   090818   096238   091569   089685   095230   091345   085088   093992   094814   092140   086453               110915801    7    100897461    7    090890351         080887031         070898451         088150   093735   092855   092317   092638   092746   088441   086908   095134   093979   092900   089584                                      
380004025310012 00870 4150201ECHIROLLES          0020500ALPEXPO             0030500ECHIROLLES          0020180000997000000420000100300000000000407      089706  527    087759   089080   094911   089773   088004   093791   090056   080729   091910   093197   090703   086755               110904361    7    100000001         090863101         080846181         070819921         089280   093544   092987   092412   092379   092206   087882   080621   093698   091998   091107   087674                                      
380004030310012 00870 4113001ALPEXPO             0030500EYBENS              0040250EYBENS              0030600000750000750420000100300000000000407      090467  477    089074   090110   095607   090524   088662   095205   092025   080838   092995   094467   091141   085198               110911771    7    100900261    7    090893591         080879861         070890051         089501   094404   093809   092982   093159   093399   088819   081275   094411   092671   091735   088532                                      
380004035310012 00870 4110101EYBENS              0040250ST_MARTIN_D'HERES   0051021POISAT              0050100001762001762420000100300000000000403      089101  567                      094436   089641   086924   093217   089856   079207   091391   092788   089890   083913               110000001         100000001         090000001         080901261         070911691                                                                                                                                                        
380004040310012 00870 4113001SMH                 0060000ST_MARTIN_D'HERES P 0071000ST_MARTIN_D_HERES   0070300001997001997420000100300000000000407      000000                                                                                                                                 110000001         100803961    7    090802281         080805341         070816881                                                                                                                                                        
380004050310012 00870 4113001ST_MARTIN_D'HERES P 0080000A41                 0111050MEYLAN              0090200004050004050420000100300000000000407      076974  497    076067   076271   081806   076315   074934   081546   077369   068796   079446   080813   077967   072556               110774241    7    100000001         090758111         080755751         070765961         076773   080687   080473   079485   078578   080358   074332   068070   080833   078302   077620   074162                                      
380500610310012 04810 4110241Bif. A48/A480       0930520PICQUE_PIERRE       0960300BELLECROIX          0950100002780002780420000100300000000000403      038147  367    037917   038769   040371   037812   038598   040991   037420   032359   038638   040084   038438   036514               110405071    7    100417981    7    090421501         080422311         070427201         040907   043135   042611   042134   042052   043885   038591   033827   042718   040116   038684   037852                                      
380500800310012 04810 4150241PICQUE_PIERRE       0960300PORTE DE FRANCE     0980148PICQUE-PIERRE       0970000001848000000420000100300000000000600      000000                                                                                                                                 110293501    7    100000001         090342581         080346021         070350031                  030119   030249   030036   030417   031385   028235   025970   029859   027745   028581   030398                                      
420500500310012 00470 1110231Ech. LA MADELEINE   0140000Ech.COUZON          0220989GRAND_CROIX         0220000008925008925000000000000000000000180      077703 1087    074111   074983   080564   078279   076749   081948   077632   075777   080218   080321   077650   074275               110792991 1097    100778821 1107    090768211 1097    080761231 1137    070755521 103     072739   077937   079300   080160   080536   081637   083411   076257   082748   081419   077689   077781                                      
420500700310012 00470 1110231Ech. COUZON         0230000Ech. LA VARIZELLE   0291316PARADIS             0280730007340007340000000000000000000000191      067185 1187    061521   064495   068724   066703   065517   071393   072767   066440   068593   068794   066858   064396               110689681 1177    100676261 1187    090667961 1197    080665071 1237    070657671 121     063280   067726   069254   069963   069714   070977   073614   067289   071421   070307   066892   067162                                      
420500800310012 00720 1150231Ech. ST JEAN BONNEFO0000000Ech. RATARIEUX      0090210MEONS               0020750009146000000000000000000000000000190      084572  927    082253   081663   088379   084140   082500   088984   087110   078960   086853   087528   085077   081457               110861241    7    100854291    7    090000001         080000001         070859021         082239   087021   088207   088563   088494   088022   086491   079696   089752   087129   084463   083705                                      
420501300310012 00720 1110431Ech. RATARIEUX      0090210Ech. RN82 RD498     0170182LA_FOUILLOUSE       0120100007912007912000000000000000000000180      084693  977    080864   080267   086404   084328   082813   089860   089843   080533   086685   087904   085093   081673               110849331    7    100823751    7    090000001         080797661         070000001         078759   083375   085021   086347   086004   087485   088192   079773   088624   086830   084663   084210                                      
420000100310012 00070 4112001Dpt. 03             0000000RD8                 0130500CHANGY              0130420013190013190420000100300000000000307      000000                                                                                                                                 110000001         100000001         090088341 2397    080088811 2427    070089161 2287                                                                                                                                                   
420000200310012 00070 4813001CHANGY              0130500Contour. ROANNE     0300515St-Romain-la-Motte  0220500017189017189420000100342000010030180      008986                                                                                                                                 110000008         100000008         090055288         080000008         070000008                                                                                                                                                        
420000400310012 00070 4110101Contour. ROANNE     0300515Carf. RN82          0410735ST_VINCENT          0360650011216011216420007200100000000000309      020886 1617    019556   019592   021161   021125   021322   021687   021857   019758   021899   022018   021176   019473               110208421 1527    100203121 1547    090204081         080000001         070192811         018766   020112   020538   021229   021351   021567   021177   019707   022221   021878   021179   020394                                      
420000500310012 00070 4113001Carf. RN82          0410735Dpt. 69             0591003NEAUX               0410800018218018218420007200100000000000206      008292 1137    007671   007613   008368   008384   008454   008884   008914   007911   008586   008493   008473   007757               110084461 1247    100083691 1257    090084651 1087    080092491 107     070086871 1057    007593   008065   008353   008845   008527   008784   008999   007927   008711   008760   008484   008291                                      
420001000310012 00820 4112001RN7                 0000000A89                 0160926BALBIGNY            0150950016321016321420007200100000000000408      011682 1847    012170   012053   013345   013475   013627   014113   010316   012334   013885   010091   007786   007095               110132621 1937    100126931 1907    090126311         080000001         070108721 162     012073   013003   013281   014001   013843   013993   012485   012656   014107   013928   013348   012472                                      
420007200310012 00880 4110201Fin contour. ST_CHAM0300000Bif. RN488          0340840N88 VARIZELLE       0300600005367005367420007200100000000000311      076686 1027    073054   073192   078456   076528   074936   080258   081005   074086   078981   079585   076337   073765               110782161 1017    100776491 1047    090000001         080769911    7    070762981 100     073179   077834   078628   079523   078638   080901   081504   074412   081082   079668   076760   076600                                      
420007400310012 00880 4110201Bif. RN488          0340840Demi-éch. A72       0350500N88 TERRENOIRE      0340900000659000659420007200100000000000184      029521  567    028362   027414   030488   029625   029345   031844   030658   026198   031224   031393   029903   027807               110299541    7    100295081    7    090000001         080317061         070000001         028356   029593   029821   030673   030858   031305   030108   026378   031907   031372   030363   028825                                      
420007500310012 00880 4110201Demi-éch. A72       0350500Ech. MONTPLAISIR    0360782JANON               0350700001277001277420007200100000000000184      069252  477    068992   066498   073173   069074   068405   072990   068692   058370   072810   073631   071348   067168               110703681    7    100688051    7    090000001         080809341         070802081         068800   071575   071763   072478   072774   072284   067203   058813   074921   073164   071855   069222                                      
420007600310012 00880 4150201Ech. MONTPLAISIR    0360782Ech. ROND POINT     0380463CONVENTION          0380000001672000000420007200100000000000180      073178  487    072930   070102   076853   072853   072355   078706   073332   061997   076556   076910   074860   070825               110744361    7    100740751    7    090000001         080786081         070790351         072406   075173   075583   076510   076735   076321   071607   062603   078853   077720   076257   073867                                      
420007700310012 00880 4810201Ech. ROND POINT     0380463Ech. LA RIVIERE     0390365Tunnel              0380950000899000899420007200300000000000184      101715                                                                                                                                 111037638         101029398         090000008         081021198         070000008                                                                                                                                                        
420007800310012 00880 4850201Ech. LA RIVIERE     0390365Ech. DE LA DIGONNIER0390811Planfoy             0390370000446000000420007200300000000000184      070665                                                                                                                                 110720878         100715158         090000008         080709458         070000008                                                                                                                                                        
420007900310012 00880 4150201Ech. DE LA DIGONNIER0390811Ech. CROIX DE L'ORM 0400998REPUBLIQUE          0390700001183000000420008000100000000000184      000000                                                                                                                                 110659481         100653511         090000001         080648831         070000001                                             056197   055986   052803   046630   058101   057644   056344   054345                                      
420008000310012 00880 4110201Ech. CROIX DE L'ORM 0410000Ech. CHAMBON FEUGERO0450224SILARDIERE          0440600004225004225420008000100000000000184      059848  477    059061   054504   062145   060495   060535   065377   062336   053393   063769   056805   061645   058145               110619721    7    100000001         090616271         080614491    7    070628451                  060811   061394   063134   063572   063506   061173   053730   065773   064651   063179   060909                                      
420008100310012 00880 4850201Ech. CHAMBON FEUGERO0450224Ech. FIRMINY EST    0470720Chambon-Feugerolles 0460000002487000000420008000300000000000184      040550                                                                                                                                 110419868         100000008         090417808         080416648         070000008                                                                                                                                                        
420008200310012 00880 4850201Ech. FIRMINY EST    0470720Ech. FIRMINY CENTRE 0490350Firminy Ouest       0480200001624000000420008000300000000000184      030913                                                                                                                                 110320118         100000008         090318418         080317518         070000008                                                                                                                                                        
420008300310012 00880 4150201Ech. FIRMINY CENTRE 0490350Ech. CHAZEAU        0510300LA_TARDIVE          0500200001970000000000000000000000000000184      029401         027471   026221   029664   029266   029902   032132   031997   028278   031363   030053   029202   027194               110298681         100292771    7    090290281    7    080285261    7    070000001         026945   028335   029149   030743   030689   031250   031350   028116   032107   031062   029803   028861                                      
420008400310012 00880 4150201Ech. CHAZEAU        0510300Dpt. 43             0520380CHAZEAU             0520200001080000000000000000000000000000184      027331  637    025402   024065   027254   027378   027796   029201   029182   026727   029442   028509   027409   025527               110280861    7    100000001         090000001         080246001    7    070000001                  025522   026525   028779   028499   029160   029630   026799   030104   028945   028028   026837                                      
420006000310012 04880 4110201Carf. RN88          0000000Bretelle A72        0010050N488 TERRENOIRE     0000100001326001326420007200100000000000180      050527 1157    048136   048914   051906   050803   048962   052245   053684   050889   050861   051030   049674   049166               110516151 1187    100509461 1227    090000001         080513401         070000001         047446   051444   050776   052678   052264   053196   054956   051281   052604   051587   049765   051421                                      
420006100310012 04880 4850201A72                 0010050Agglo. ST_ETIENNE   0011442Compteur temporaire 0010500001392000000420007200100000000000180      018652                                                                                                                                 110190718         100187338         090000008         080187178    7    070181138                                                                                                                                                        
580000200310012 00770 1810241Maltaverne          1000500Dev. Cosne          1130900Cosne S/Loire       1050000013339013339000000000000000000000309      000000                                                                                                                                 110000008         100000008         090000008         080141128         070143548                                                                                                                                                        
580000400310012 00770 1110241Dev. Cosne          1130900SUD LA MARCHE       1390600LA_CHARITE          1270640026006026006580001200300000000000307      013961 2017    011214   012097   013076   014849   014748   014422   016816   016733   014394   013757   013021   012307               110140641 1997    100136671 1967    090136871 1948    080134081 132     070136381 196     011126   012823   012913   015367   013957   014797   017209   016571   014250   014067   012719   012870                                      
580000600310012 00770 1110241SUD LA MARCHE       1390600NEVERS              1471010PRIEZ               1440415008298008298580001200300000000000309      000000                                                                                                                                 110000001         100172181 1517    090169891 1288    080170421 1328    070173871 1288                                                                                                                                                   
580001101310012 00770 1110241NEVERS              1480000ST_PIERRE           1641118PLAGNY              1640200017110017110580002500300000000000507      013573 2027             011654   012660   013494   014223   013910   016720   016529   013915   013493   012134   011379               110000001         100000001         090133101         080137151         070140541                                                                                                                                                        
580001007310012 00070 4812001Chaume des pendus   0770000St Pierre le Mtier  0920100Magny-Cours         0820000014690014690580001200300000000000309      012601                                                                                                                                 110126768         100123598         090000008         080123308         070123278                                                                                                                                                        
580001200310012 00070 4112001ST_PIERRE           0920100Dpt. 03             1070760LE_MOUTIER          0950700015565015565580002500300000000000307      013918 3387    010928   011870   012742   014309   014361   014286   017870   018448   014492   013231   012313   012014               110140001 3367    100136491 3357    090000001         080136161 3297    070136131 3187    010784   012724   012996   014920   013742   014743   018110   017786   014274   013492   011796   012505                                      
580002300310012 01510 4812001Dpt. 18             0000000CHATEAUNEUF V.BARGIS0200512La Charité          0010500021657021657580002500300000000000311      002073                                                                                                                                 110021798         100021608         090021508         080021818         070022068                                                                                                                                                        
580002500310012 01510 4112001CHATEAUNEUF V.BARGIS0200512VARZY               0350958LES_PONTOTS         0260000015462015462580002500300000000000309      002142 1977    001827   001861   001920   002161   002170   002278   002687   002721   002339   002079   001947   001698               110022511 2157    100022311 1478    090022201 1448    080022511 1368    070022771 1328    001743   001887   001950   002302   002236   002459   002977   002915   002437   002285   001930   001866                                      
580002600310012 01510 4813001VARZY               0350958CLAMECY-NORD        0510878St-Pierre-du-Mont   0400000016798016798580002500300000000000311      002161                                                                                                                                 110022728         100022528         090022418         080000008         070022998                                                                                                                                                        
580002701310012 01510 4112001Sud Dev.            0510878Dpt. 89             0580730CLAMECY             0530532006720006720690001600300000000000311      003124 2447    002503   002613   002891   003177   003236   003338   003596   003797   003547   003362   002852   002553               110000001         100032481         090032781         080032361         070000001                                                                                                                                                        
690500103310012 00060 1110741Ech. LIMONEST       4450323DARDILLY LE TRONCHON4470520DARDILLY            4460690002190002190710002100300000000000188      083801  707    078031   077115   082157   085928   084030   089307   092161   087648   086919   082127   080070   079914               110868841    7    100872971    7    090860941    7    080835251         070867771         079618   083399   083462   090201   087114   090490   094967   086981   090479   087435   082960   085374                                      
690500105310012 00060 1150441DARDILLY LE TRONCHON4470520Ech. ECULLY SUD     4490200CHAMPAGNE           4480590001668000000710002100300000000000200      102551  627    097574   097338   102377   103263   103368   108729   108801   101607   106440   103485   099735   097809               111059051    7    101081811    7    091058421    7    081029431         070991661         100484   105213   106218   112515   095508   105679   114337   105695   111067   107022   102626   104701                                      
690500200310012 00060 1150741Ech. ECULLY SUD     4490200TUNNEL FOURVIERE    4530981ECULLY              4500720004762000000710002100300000000000200      115332  577    111305   111795   116524   115619   112827   121882   121082   111649   119826   117250   112949   111327               111180291    7    101147521    7    091172421    7    081148781         071184231         111603   115052   117051   119323   116989   121497   123999   115112   123543   119351   115783   117020                                      
690500400310012 00060 1150241TUNNEL FOURVIERE    4540000TREMIE PERRACHE SUD 4550616FOURVIERE_SUD       4540800001627000000710002100300000000000206      105553  787    089528   089320   095033   090933   088445   095313   094827   089344   094565   093461   091728   092437               111039821    7    101014971    7    091024411         081009781         071069011         102588   101743   103139   108075   101356   105470   105189   095278   107946   105572   105993   105589                                      
690500501310012 00070 1150441RUE M.A. PETIT      0000000PONT LA MULATIERE NO0010527QUAI_PERRACHE       0010220001589000000710002100300000000001294      106551  787    106400   106011   111873   108625   105421   110249   108802   098308   106235   108986   105356   102445               111096751    7    101087611    7    091076441    7    081055361         071075731         107270   111184   111170   111566   110608   110715   111046   101248   111449   111867   109241   109016                                      
690500600310012 00070 1150441PONT LA MULATIERE NO0010527SORTIE QUAI SEMARD  0040200MULATIERE           0020500002692000000710002100300000000000206      095421  677    091459   091091   098351   098164   094547   101121   102026   091439   096396   095853   093104   091441               110942481    7    100000001         090000001         080936571    7    070936171    7    090080   094173   091861   094021   096435   094233   094915   087918   099540   097847   094624   095496                                      
690500702310012 00070 1150441SORTIE QUAI SEMARD  0040200Ech. P.B.S. A74     0060440PIERRE_BENITE       0040750002235000000710002100300000000001294      105379  637    101436   100608   107394   107491   104131   111788   112941   100470   106833   105438   104273   101715               111060381    7    100000001         091039661    7    081048651         071071801         099705   104636   103982   108279   107359   111019   112129   101727   108171   106021   103819   105703                                      
690500900310012 00070 1150441Ech. P.B.S. A74     0060440Ech. RD36 SOLAIZE   0130350ST_FONS             0070918006874000000710002100300000000000206      139295  917    132121   131834   140652   143617   140436   148804   150266   139075   140818   138402   135219   130177               111434571    7    101401761    7    091374141    7    081384421         071395641         130049   135500   139777   146441   146467   151929   154409   141830   151471   146023   138912   138388                                      
690501101310012 00070 1110441Ech. RD36 SOLAIZE   0130350Ech. A47 GIVORS     0200330COMMUNAY            0160830006985006985710002100300000000000206      094925  947    084310   084256   091361   095238   095394   101141   112726   105265   100945   088989   091192   087875               110967001    7    100956701 1087    090931531 1067    080928261 106     070949261         084420   089140   089693   098153   096502   103797   111907   105622   101909   097490   089716   091537                                      
690501203310012 00420 1110241PONT CROIX_LUIZET   0000000Ech. MIRIBEL        0040329GRAPPINIERE         0020000004342004342710002100300000000000206      094767  627    090430   091485   097249   094024   094157   103024   099845   083833   099560   099338   095787   088688               110938511    7    100911131    7    090908531    7    080906771         070904681         086858   091700   094951   098536   097288   098714   091642   083924   099807   096425   094361   092323                                      
690501501310012 00430 1150441MERMOZ              0010000SORTIE BD DU 8 MAI  0030401ECH_8_MAI           0020500002297000000710002100300000000000206      130423  447    131282   132329   138835   128390   124994   136439   128989   108384   133595   139509   135335   127509               111277841    7    101273081    7    091372141    7    081371541         071381381         122953   128974   131867   126829   128068   126863   122399   108377   136014   135155   132973   133433                                      
690502000310012 00470 1110231A7                  0000000Ech.ENTREE 11       0130990GIVORS_COMMERC      0040450013129013129710002100300000000000205      059642 1357    054998   057202   060668   060506   057434   060970   065428   062192   061510   059935   058558   056239               110604151         100602831         090000001         080604501         070599971 141     055655   059407   060646   060882   060925   062492   064814   061399   061048   061124   057490   059011                                      
690501702310012 04500 1110441PIERRE_BENITE       0000000BRIGNAIS            0070969IRIGNY              0020800007701007701710002100300000000000206      053545  737    054222   053831   057120   050848   052786   057608   052720   041622   054566   058354   056330   052718               110531181    7    100522631    7    090512271         080503941         070501901         052386   055020   054956   054531   054991   054434   049153   041890   054853   054913   055657   055032                                      
690000601310012 00060 4140201Ech. RD73D          0400000Ech. A6 DARDILLY    0420150DARDILLY_LES_BROSSES0410000002031000000690001600300000000000206      000000                                                                                                                                 110000001         100000001         090000001         080493161         070516041         000000   000000   000000   000000   000000   000000   000000   000000   000000   000000   000000   000000                                      
690001300310012 00070 4115001COL DU PIN BOUCHAIN 0000000Entrée TARARE OUEST 0100250TARARE_OUEST        0090150010050010050690001600300000000000200      000000                                                                                                                                 110000001         100070771         090000001         080000001         070072491                                                                                                                                                        
690001400310012 00070 4843001Entrée Tarare Ouest 0100250Dev. Pontcharra W   0140977Tarare Temporaire   0120000004760000000690001600300000000000206      008106                                                                                                                                 110082258         100081328         090000008         080000008         070000008                                                                                                                                                        
690001500310012 00070 4813001Dev. Pontcharra W   0150000Dev. Pontcharra E   0171049Pontcharra déviation0170000003313003313690001600300000000000206      014619                                                                                                                                 110148338         100146648         090000008         080000008         070000008                                                                                                                                                        
690001600310012 00070 4113001Dev. PONTCHARRA EST 0180000Carf. RD38          0180360PONTCHARRA          0180150000360000360690001600300000000000206      017546  957    016533   016429   018040   017720   017604   018853   018306   017210   018141   018241   017462   016012               110178021    7    100175991         090000001         080000001         070000001         016597   017504   018037   018488   018472   018361   018319   016012   018757   018317   017788   017023                                      
690001700310012 00070 4813001Carf. RD38          0180360Carf. RD73Arb       0280189Bully               0240100009761009761690001600300000000000206      014615                                                                                                                                 110148298         100146608         090000008         080000008         070000008                                                                                                                                                        
690001801310012 00070 4113001Carf. RD73 Arb.     0280189Entrée TASSIN       0400890FLEURIEUX           0310600011490011490000000000000000000000206      000000                                                                                                                                 110000001         100000001         090177281         080192931         070194481                                                                                                                                                        
690002500310012 00070 4813001Ech. A46 Sud        0730000Dpt. 38             0760349Communay Les Pins   0750000002857002857000000000000000000000206      000000                                                                                                                                 110000008         100000008         090000008         080000008         070000008                                                                                                                                                        
690006200310012 03460 4110201Ech. RIZE SUD RD55  0250000Ech. GD LARGE N RD510310806LAMARTINE           0310495006165006165710002100300000000001094      073782 1897    069889   070837   076489   072218   071434   080471   081752   070593   074561   077283   073068   066766               110749601 1867    100771491 1867    090777531 2047    080787571 206     070790211         073752   077396   075278   078777   076347   077117   079021   070271   075709   073816   071413   070962                                      
690006800310012 03460 4110201Ech. GD LARGE N RD510320000Ech. MI_PLAINE N RN60400883ST_PRIEST           0390485009104009104710002100300000000001094      078113 1817    076558   077040   083340   077000   076526   078790   077596   074941   077070   082504   080607   075349               110794731 1877    100816201 1837    090000001         080833411 1867    070844171 1817    079137   082746   081230   082369   080697   079960   080388   073987   080611   078930   077103   076907                                      
690020800310012 04890 4110201Ech. RN7            0000000Ech. RN6            0020624DARDILLY_DEV        0010500002624002624710002100300000000000206      023229  697    022728   022871   024827   023502   023382   025158   021484   020794   023910   024458   023370   022349               110233561    7    100229871         090228241    7    080224731         070223501         022424   023439   023822   024316   024369   023739   021634   020051   024797   024311   023985   023509                                      
710000700310012 00700 4812001Paray le Monial     0050000Genelard            0190750Palinges            0110250015060015060710002100300000000000309      012296                                                                                                                                 110118158         100115418         090109998         080103648         070105248                                                                                                                                                        
710000800310012 00700 4112001GENELARD            0190750ST_VALLIER          0290250ROZELAY             0270800009482009482710000800300000000000309      018388 2257    016171   016636   017754   018236   018403   019026   020674   021238   019067   018872   018271   016229               110181001 2267    100180211         090000001         080178521         070181271 2158    015947   016519   017598   018973   018551   018347   020433   019947   018508   017975   016753   017504                                      
710001000310012 00700 4812001SAINT VALLIER       0290250RN80 Rond Point J Ba0471018Montchanin          0460000018871018871710000800300000000000311      019608                                                                                                                                 110184738         100183938         090000008         080182218         070185028                                                                                                                                                        
710001900310012 00790 4112001Dpt. 03             0000000PARAY OUEST         0080135CHIZEUIL            0040800006265006265710001900300000000000309      016978 3447    013513   014890   015680   017254   017392   017562   021762   023120   017604   015428   014620   014756               110166821 3507    100164321 3517    090152091         080143301         070152751 3598    013420   015145   015669   016935   016364   016922   021538   022898   017070   014963   013816   015227                                      
710002100310012 00790 4112001PARAY OUEST         0080135LES CADOLLES        0180250VOLESVRES           0160200007878007878710001900300000000000309      010652 2857    009283   010287   010271   010869   010760   010578   012863   013006   010759   010086   009500   009514               110102571 2937    100100191 2957    090095481         080097521 3167    070095031 3207    008814   009960   010396   010447   010289   010395   012073   012886   010438   009091   008423   009808                                      
710002200310012 00790 4812001Les Cadolles        0180250Charolles           0260700La Redoute          0190550008860008860710001900300000000000309      016249                                                                                                                                 110159668         100157278         090145578         080137168         070146218                                                                                                                                                        
710002300310012 00790 4812001Charolles           0260700BRANDON             0540250Vendenesse-lès-Charo0300500027821027821710002600300000000000311      010243                                                                                                                                 110000008         100000008         090122158         080122708         070130348                                                                                                                                                        
710002500310012 00790 4112001BRANDON             0540250STE_CECILE          0610440STE_CECILE          0590400006928006928890001000300000000000309      012352 2537    010745   011894   012258   013108   012657   012896   015055   015263   012504   010813   009917   011055               110125551 2607    100125941 2597    090120121         080118971         070121121 2617    010708   011844   012483   012834   012504   012929   014936   014967   012264   012106   010971   011999                                      
710002600310012 00790 4112001STE_CECILE          0610440LA ROCHE VINEUSE    0700850LE_BOISCLAIR        0640200009154009154890001000300000000000309      019284 1897    016774   017866   018806   019718   019404   020525   022546   022205   019627   018558   017552   017742               110000001         100000001         090180381         080181181         070185631 1668                                                                                                                                                   
710003600310012 00790 4112001LA ROCHE VINEUSE    0700850CHARNAY_LES_MACON   0780800PRISSE              0730800007789007789890001000300000000000309      015274 2277    012903   014020   014837   015676   015275   016225   018635   018097   015639   014271   013640   013994               110150941 2357    100145881 2397    090138281         080140191         070139041 2607    012276   013635   014590   015436   015222   015211   017682   017707   015657   015240   013914   014411                                      
710003700310012 00790 4112001CHARNAY_LES_MACON   0780800MACON               0800108VARENNES            0790800001102001102890001000300000000000309      012682 2427    010687   011902   012349   012689   012107   013255   015190   014786   013170   012434   011912   011661               110109421 2417    100088891 2287    090094551         080096901 2187    070098021 2177    007386   007497   010439   011772   011862   011403   013243   013786   011807   010290   009908   011608                                      
710002800310012 00800 4112001Saint Rémy          0110000Saint Désert        0200700GIVRY               0190000009342009342890001000300000000000309      000000                                                                                                                                 110000001         100209491         090000001         080000001         070000001                                                                                                                                                        
710002900310012 00800 4112001SAINT_DESERT        0200700ECUISSES            0390385LES_BAUDOTS         0320720018741018741890001000300000000000309      018970 2227    016843   016944   018061   018263   018253   019577                     021108   020972   020345   017558               110000001         100186191 2227    090178241         080178771 2268    070181931 197                                                                                                                                                    
730001800310012 00900 4110201BORNERY CAR. RD990  0190000PIERRE_DU_ROY RN212 0230980GILLY/ISERE         0200020004678004678890001000300000000001200      000000                                                                                                                                 110314531    7    100309151    7    090298261    7    080291801    7    070293731         034461   036798   038087   032661   027278   028247   031156   031621   028818   028230   028182   032156                                      
730001900310012 00900 4110101PIERRE_DU_ROY       0230980FEISSONS/ISERE      0400500CEVINS              0340000016546016546890001000300000000001291      024413  587    027988   031538   033560   025258   019153   020838   023454   023746   020401   020926   020574   025647               110240101    7    100231601    7    090233201    7    080232561    7    070233391         028132   030245   031641   025851   019030   018663   022669   022925   020459   020693   021239   026867                                      
730002000310012 00900 4110101FEISSONS/ISERE      0400500MOUTIERS            0491039LA_LECHERE          0410800009538009538890001000300000000000200      019696  557    024255   027248   028528   021248   014715   014663   018913   019205   015319   015164   015305   021882               110201621    7    100196631    7    090200461    7    080000001         070199941         026059   026634   025628   022442   015107   015556   018983   018892   016476   016307   017186   023011                                      
730002100310012 00900 4113001MOUTIERS            0500000ST_MARCEL           0550250MOUTIERS_EST        0500865005110005110890001000300000000000200      013537  737    014744   016650   017678   013979   010684   012181   013881   014271   011380   011680   011597   013765               110138201    7    100137611    7    090138401    7    080137301    7    070139131         015388   016526   017347   015004   011156   011316   014723   014300   012070   011570   012007   014533                                      
730002101310012 00900 4113001ST_MARCEL           0550250MONTGIROD           0580585TUNNEL_SIAIX        0560770003346003346890001000300000000000200      011285  577    012649   014452   015308   011756   008437   009711   011570   011970   009184   009387   009401   011626               110113751    7    100111971         090112961    7    080000001         070112861         012926   014262   014763   011956   008926   009248   011798   012151   009502   009319   009779   011984                                      
730002102310012 00900 4113001MONGIROD            0580585AIME                0640690PT_DE_LA_TOUR       0610522006076006076890001000300000000000200      012031 1127    013315   015196   016083   012231   009297   010670   012453   012515   009910   010179   010231   012333               110122201 1147    100121481 1207    090122871 1217    080120361 1167    070121701 114     013502   015102   016010   013469   009536   010196   012351   013094   010335   010064   010473   012648                                      
730002200310012 00900 4113001AIME                0640690BOURG_ST_MAURICE    0750550BONCONSEIL          0720400010596010596890001000300000000000200      009656  637    010453   011442   012182   009944   007324   008680   010533   011179   007950   008147   008354   009692               110097391    7    100096471    7    090097711    7    080097061         070099111         010726   011412   012115   010756   007722   008220   010420   011157   008210   007907   008447   009830                                      
730002600310012 02010 4110401A43 SUD             0000000LA BOISSE           0040600MONTS               0030380004600004600890001000300000000000200      088470  747    088923   092502   098258   088406   083245   089986   086397   085409   088411   089443   086449   084457               110887911    7    100869531    7    090847691    7    080828981    7    070000001         089148   096045   095617   091364   085851   087238   087545   082653   089005   086725   086415   088557                                      
730002700310012 02010 4110401LA BOISSE           0040600VILLARCHER RN504    0080720CHAMBERY_VRU        0050400004120004120890001000300000000000200      099271  697    099945   103786   109977   097232   095141   102816   102709   095401   095712   097364   097012   094315               111000161         100996651    7    090978921    7    080969161    7    070000001         099029   106200   106251   103390   097214   098958   098073   096687   101341   099064   094615   099906                                      
890001000310012 00060 4112001APPOIGNY            0780000PERIGNY             0820282CHESNEZ             0810785003493003493890001000300000000000309      023764  967    022939   023297   024293   024212   023721   025246   023522   021245   023995   024986   024544   023243               110237211    7    100237401    7    090234931         080242531    7    070233061    7    022609   023807   024262   024060   024724   024157   022060   021839   025019   024188   023605   024390                                      
890001001310012 00060 4812001Périgny             0820282RN65                0880140Auxerre RN6         0870500006368006368890001000300000000000309      010628                                                                                                                                 110120388         100120488         090119238         080123098         070118288                                                                                                                                                        
890002200310012 00650 4112001A6                  0000000AUXERRE             0041653VENOY               0030200005644005644890002300300000000000309      008033  957    007499   007718   007867   008096   008003   008498   008031   007581   008600   008780   008148   007590               110083431    7    100081871    7    090083471         080083821         070000001         007561   008123   008359   008390   008585   008747   008005   008050   009474   008997   008058   007798                                      
890002299310012 00770 4853001AUXERRE             0000000RD203               0050053Archies             0050300005074000000890002300300000000000195      008478                                                                                                                                 110047558         100044248         090042018         080044968         070047598                                                                                                                                                        
890002300310012 00770 4113001RD203               0050053ST_FLORENTIN        0280840PONTIGNY            0190600023511023511890002300300000000000379      004051 1887    003561   003512   003853   004308   004321   004449   004245   004783   004377   004085   003788   003329               110046731 1727    100043471 1827    090041271         080044161 1707    070046741 1697    003664   003842   004266   004788   004913   005067   005966   005832   005126   004810   004096   003628                                      
890002700310012 00770 4813001ST FLORENTIN        0290000AUBE                0400602Les Buissons        0340000010664010664890002300300000000000195      005905                                                                                                                                 110068128         100063378         090060178         080064398         070065988                                                                                                                                                        
890002900310012 01510 4812001Dpt. 58             0000000Courson             0110990Festigny            0050000011935011935890003000300000000000309      004557                                                                                                                                 110047778         100047438         090049088         080048778         070050848                                                                                                                                                        
890003000310012 01510 4112001COURSON             0120000AUXERRE             0330650VALLAN              0310485021399021399890003000300000000000309      006173 1067    005484   005450   005743   006446   006490   006837   006915   006641   006375   006186   005973   005521               110064711 1157    100064241 1117    090066471         080066051 1107    070068861    7    005567   005800   005980   006608   006599   007085   007373   006850   006804   007100   006055   005787                                      
890003099310012 01510 4812001Auxerre             0330650Auxerre             0341289Auxerre RN151       0330800001633001633890003000300000000000309      006113                                                                                                                                 110064098         100063638         090065848         080065438         070068228                                                                                                                                                        