090000300310012 00200 4113 51RD 624              0150000PAMIERS A 66        0180000LE VERNET D'AR.     01500000022020022020900004023000       0187      000000         000000   000000   000000   000000   000000   000000   000000   000000   000000   000000   000000   000000               110000001         100000001         090117651         080000001         070117721                                                                                                                                                        
090000402310012 00200 411 251PAMIERS A 66        0180000RD 119              0210444PAMIERS             01902900034440034440900004023000       0187      021892  627    019797   020319   022398   021377   021317   022519   023302   023178   022635   022557   021568   021656               110219211    7    100213651    7    090208981    7    080186511         070195721    7    019641            021805   022343   021473   021993   023293   022989   022091   022596   021237   021669                                      
090000501310012 00200 481 251RD 119              0210444RD 12               0241071ENTRE D12 ET D119   02309000036290036290900004023000       0187      000000         000000   000000   000000   000000   000000   000000   000000   000000   000000   000000   000000   000000               110000008         100000008         090212748         080189888         070199278                                                                                                                                                        
090000601310012 00200 481 251RD 12               0241071RD 13               0290000VARILHES DEV NORD   02602000044630044630900004023000       0187      000000         000000   000000   000000   000000   000000   000000   000000   000000   000000   000000   000000   000000               110000008         100000008         090219878         080196248         070205948                                                                                                                                                        
090000604310012 00200 481 251RD 13               0290000FOIX NORD           0350000GARRIGOU            02908000057790057790900004023000       0190      000000         000000   000000   000000   000000   000000   000000   000000   000000   000000   000000   000000   000000               110000008         100000008         090231528         080206648         070216858                                                                                                                                                        
090000801310012 00200 4113251FOIX NORD           0350000FOIX SUD            0400000FOIX                03903400047820047820900010013000       0102      015487  597    013632   013741   015532   014362   015027   015797   017569   018430   016184   015712   014636   015077               110157751    7    100150941    7    090151031    7    080145221         070145551    7    013228            015402   015691   015139   015097   017799   018593   016408   016544   014564   015009                                      
090000901310012 00200 411 251FOIX SUD            0400000RD 117              0430500MONTGAILLARD        04106240035000035000900010013000       0102      019237  568    016648   017407   018960   018226   018666   019649   021978   023963   020210   019063   017790   018122               110193801    8    100189851    8    090190331    7    080185851         070182531    8    016210   018111   018921   019311   018703   019500   022410   023888   019758   020006   017557   018007                                      
090001001310012 00200 411 251RD 117              0430500RD 8                0540498ARIGNAC             05107460110900110900900010013000       0187      014584  568    012141   012919   013985   013369   013785   014774   017549   019402   015453   014409   013290   013783               110147121    8    100143811    8    090145281    7    080000001         070148271         011901            014100   014576   014008   015007   017154   019258   014860   014947   012791   013182                                      
090001100310012 00200 4113 51RD 8                0540498RD 102              0710104LES CABANNES        06204200169360169360900010013000       0187      009125  607    007176   008407   008796   008173   008696   008725   011165   013320   009819   008724   007951   008434               110092781    7    100090961    7    090092831    7    080089191         070100001         007086   008546   009188   009090   008490   009183   011337   013379   009352   009596   007745   008209                                      
090001200310012 00200 4113 51RD 102              0710104RD 613              0790614PERLES CASTELET     07309000086580086580900010013000       0187      009423  477    007611   008624   009147   008385   008851   008997   011542   013816   010067   008792   008190   008939               110095441    7    100093071    7    090095811    7    080090491         070092161    7    007388   008935   009558   009182   008671   009415   011858   013893   009653   009599   007838   008410                                      
090001300310012 00200 4813 51RD 613              0790614RD 322              0880240MERENS NORD         08609400085320085320900010013000       0187      000000         000000   000000   000000   000000   000000   000000   000000   000000   000000   000000   000000   000000               110000008         100000008         090079248         080000008         070080898                                                                                                                                                        
090001400310012 00200 4113 51RD 322              0880240RN 22               0970737MERENS              08904330094920094920900014003000       0187      007090  528    004914   006021   006415   006372   007004   006840   009119   011625   007993   006693   006092   005897               110072141    8    100067631    8    090069341    7    080069061         070068971    8    005191   005655   006175   007219   006903   007330   009813   011124   007468   007648   005889   005965                                      
090001800310012 00200 4113 01RN 22               0970737RN 320              0980688LHOSPITALET EST     0980100000951000951120001300300000000000187      000000                                                                                                                                 110000001         100000001         090000001         080000001         070039701                                                                                                                                                        
090001500310012 00220 4813 51RN 20               0000000RN 320              0040015N 22 VERS ANDORRE   00305000040150040150900014003000       0187      000000                                                                                                                                 110000008         100000008         090078858         080078548         070078448                                                                                                                                                        
090001600310012 03200 4813 51RN 20               0000000DEPARTEMENT 66      0020135R.N 320 AUX P.O     0010800002135002135090001400366000100030187      000000                                                                                                                                 110000008         100000008         090070838         080070558         070070468                                                                                                                                                        
120000600310012 00880 4113 51RN 9                0020800RD 28               0240290VARES               01201000221070221071200013003000       0187      006604         004875   005108   005575   006702   007026   006893   008545   009809   007029   006307   005785   005495               110067531 1807    100064971 1887    090067001         080066151 1667    070065841 1617    004950   005449   005782   006798   006748   007407   008848   009869   007154   006671   005675   005569                                      
120000700310012 00880 4113 51RD 28               0240290RD 224              0420390GAGES               03604000181510181511200013003000       0187      000000         008519   008808   009385   010066   010354   000000   000000   000000   010838   010346   010129   008710               110102301 1317    100100641 1258    090100141 1257    080098831 1278    070099671         008526   009024   009332   010417   010346   010867   012166   012336   010905   010249   009411   009095                                      
120000801310012 00880 4113 51RD 224              0420390RD 988              0470000LA ROQUETTE OUEST   04305000047800047801200013003000       0187      000000         012612   012436   013738   014042   000000   000000   000000   000000   000000   014080   013937   012686               110142541         100140291         090145721         080143431         070151541         012684   013397   013910   014767   016362   014627   014426   014638   014966   014646   013273   013288                                      
120001001310012 00880 4113 51RD 988              0470000RD 901              0480095LES MOUTIERS        04800950011750011751200013003000       0187      000000         027431   027973   030086   029530   000000   000000   000000   000000   000000   031157   029852   028868               110000001         100000001         090257001         080252921         070258891         000000   000000   000000   000000   000000   000000   000002   000000   000000   000000   000000   000000                                      
120001003310012 00880 4113 51RN 140              0480660RD 84 RD 67         0500000SAINT-CLOUD         05000000015620015621200013003000       0187      000000         000000   000000   000000   000000   000000   000000   000000   000000   000000   000000   000000   000000               110000001         100000001         090215931    7    080000001         070222981                                                                                                                                                        
120001002310012 00880 4113 51RD 901              0480095RN 140              0480660CANAC vers ST-FELIX 04802000005650005651200013003000       0187      015313         013892   014328   015358   015084   015347   016237   016245   015744   015799   015978   015244   014469               110152871         100332371         090330661         080307431         070321081         013963   014715   015281   015867   015520   015825   015402   015302   015992   015748   015157   014674                                      
120001004310012 00880 4113 51RD 84 RD 67         0500000PONT V.C. OLEMPS    0520200SAINT-CLOUD         05000000022930022931200013003000       0187      000000         000000   000000   000000   000000   000000   000000   000000   000000   000000   000000   000000   000000               110000001         100000001         090207921         080000001         070232211                                                                                                                                                        
120001005310012 00880 4113 51PONT V.C.OLEMPS     0520170RD 66 RD 212        0530386LE LACHETversST-CLOU05303000012930012931200013003000       0187      000000         000000   000000   000000   000000   000000   000000   000000   000000   000000   000000   000000   000000               110000001         100000001         090200001         080000001         070220291                                                                                                                                                        
120001006310012 00880 4113 51RD66 RD212          0530386RD 911              0560800LA PRIMAUBE         05407100034140034141200013003000       0187      000000         000000   000000   000000   000000   000000   000000   000000   000000   000000   000000   000000   000000               110000001         100000001         090162261    7    080161701    7    070165371    7                                                                                                                                                   
120001100310012 00880 4113 51LA PRIMAUBE RD 911  0560800BARAQUEVILLE RD 911 0680015LE LAC              06207300090910090911200013003000       0187      015482         013665   013592   015274   015354   015864   016577   017030   016607   016235   016152   015202   014164               110155801    7    100153431    8    090152411    8    080148901    8    070147891         013794   014628   015059   016059   016250   016354   016570   016568   016402   015806   015039   014389                                      
120001200310012 00880 4813 51RD 911              0680015RD 997              0810695BARAQUEVILLE        06902340136870136871200013003000       0187      000000         000000   000000   000000   000000   000000   000000   000000   000000   000000   000000   000000   000000               110000008         100000008         090000008         080000008         070094648                                                                                                                                                        
120001300310012 00880 4113 51RD 997              0810695DEPARTEMENT 81      0910192NAUCELLE            0840550009447009447310003300381000010030187      008142         006855   006810   007786   008152   008451   008604   009367   009210   008647   008465   007965   007342               110080131         100071471         090079001         080000001         070073781 1297    006825   007159   007402   008206   007588   008506   009165   009049   008535   008564   007815   007296                                      
310506100310012 00640 111 241ECH 22 ASF          2340270ECH 23              2390200                    2340000004930004930320000500300000000000199      000000         000000   000000   000000   000000   000000   000000   000000   000000   000000   000000   000000   000000               110000001         100000001         090000001         080000001         070000001                                                                                                                                                        
310506200310012 00640 111 241ECH 23              2390200ECH 24              2430000LAVELANET de COMMIN.2420000003800003800320000500300000000000199      000000         030388   030138   031956   033075   032627   034866   000000   000000   000000   000000   000000   000000               110345751 105     100344951         090342961         080000001         070000001                                                                                                                                                        
310506300310012 00640 111 241ECH 24              2430000ECH 25              2460000                    2440000003000003000320000500300000000000199      000000         000000   000000   000000   000000   000000   000000   000000   000000   000000   000000   000000   000000               110000001         100373951         090000001         080000001         070000001                                                                                                                                                        
310506400310012 00640 111 241ECH 25              2460000ECH 26              2510000LACRA               2530800005000005000320000500300000000000199      000000         032834   032305   034499   035907   036702   040011   044968   000000   035364   000000   000000   000000               110386821 101     100373951         090363691    7    080362261         070366901 1087                                                                                                                                                   
310506500310012 00640 111 241ECH 26              2510000ECH 27              2540000LACRA               2530800003000003000320000500300000000000199      000000         035853   035397   038404   039230   039791   044709   049163   000000   038637   000000   000000   000000               110446831 101     100443051         090000001         080000001         070000001                                                                                                                                                        
310506600310012 00640 111 241ECH 27              2540000ECH 28              2580000                    2550000004000004000320000500300000000000199      000000         000000   000000   000000   000000   000000   000000   000000   000000   000000   000000   000000   000000               110000001         100443051         090000001         080000001         070000001                                                                                                                                                        
310506700310012 00640 111 241ECH 28              2580000ECH 29              2590500                    2590000001500001500320000500300000000000199      000000         000000   000000   000000   000000   000000   000000   000000   000000   000000   000000   000000   000000               110000001         100443051         090000001         080000001         070000001                                                                                                                                                        
310506800310012 00640 111 241ECH 29              2590500ECH 30              2610200                    2600000001700001700320000500300000000000199      000000         000000   000000   000000   000000   000000   000000   000000   000000   000000   000000   000000   000000               110000001         100000001         090000001         080000001         070000001                                                                                                                                                        
310506900310012 00640 111 241ECH 30              2610200ECH 31              2630000                    2620000001800001800320000500300000000000199      000000         000000   000000   000000   000000   000000   000000   000000   000000   000000   000000   000000   000000               110000001         100000001         090000001         080000001         070000001                                                                                                                                                        
310507000310012 00640 111 241ECH 31              2630000ECH 32              2640800                    2640000001800001800320000500300000000000199      000000         000000   000000   000000   000000   000000   000000   000000   000000   000000   000000   000000   000000               110000001         100000001         090000001         080000001         070000001                                                                                                                                                        
310507100310012 00640 111 241ECH 32              2640800ECH 33              2690000MURET SUD           2670800004200004200320000500300000000000199      000000         042347   046663   051352   051240   050759   054668   057086   000000   053508   000000   000000   000000               110495261         100000001         090518851         080000001         070000001                                                                                                                                                        
310507200310012 00640 111 241ECH 33              2690000ECH 34              2720000                    2700000003000003000320000500300000000000199      049879  847    000000   043397   046015   046433   045118   048239   038452   051005   047851   000000   000000   057292               110371461 1067    100385161    7    090000001         080000001         070000001         029064   030825   032260   035262   034694   025342   043441   035040   048265   045050   043966   042068                                      
310507201310012 00640 111 241ECH 34              2720000ECH 35 ASF          2740089MURET               2720800002032002032320000500300000000000199      000000         043397   046015   046433   045118   048239   038452   051005   047851   000000   000000   057292   000000               110000001         100000001         090470001         080000001         070000001                                                                                                                                                        
310505200310012 00680 111 241GEMIL FIN CONCEDEE  0170105DPT81               0220110A68 ETAT GESTION 81 0180000005005005005320000500381050010030187      000000         000000   000000   000000   000000   000000   000000   000000   000000   000000   000000   000000   000000               110000001         100000001         090000001         080000001         070000001                                                                                                                                                        
310003202310012 01240 481 251DEBUT 2X2 VOIES     0060000Fin 2x2 voies       0090317COLOMIERS           00900000029200029203100033003000       0187      000000         000000   000000   000000   000000   000000   000000   000000   000000   000000   000000   000000   000000               110000008         100000008         090000008         080000008         070000008                                                                                                                                                        
310003300310012 01240 411 251FIN 2X2 VOIES       0090317RD 24               0130192COLOMIERS siredo    01107000039190039193100033003000       0187      000000         000000   000000   000000   000000   000000   000000   000000   000000   000000   000000   000000   000000               110000001         100000001         090000001         080000001         070000001                                                                                                                                                        
310003400310012 01240 481 251RD 24               0130192DEPARTEMENT 32      0191064LEGUEVIN            0150800007216007216310003300332000090030187      000000         000000   000000   000000   000000   000000   000000   000000   000000   000000   000000   000000   000000               110000008         100000008         090000008         080000008         070000008                                                                                                                                                        
310003600310012 01250 4113 51A 645               0030000RD 33 LABROQUERE    0050196LABROQUERE          00408000018860018863200005003000       0187      000000         000000   000000   000000   000000   000000   000000   000000   000000   000000   000000   000000   000000               110144291    7    100134071    7    090137001         080000001         070160731         011471   012858   012954   012665   012521   012663   014217   014547   012671   016836   025353                                               
310338500310012 01250 4113 51LABROQUERE          0050196RD 33 CHAUM         0181637GALIE               01403000143010143013200005003000       0211      000000         007810   008331   008404   007668   000000   000000   000000   000000   000000   000000   000000   000000               110000001    7    100000001         090000001         080000001         070000001         000000   000000   008864   008290   008118   008364   010154   010911   013968   012005   007342   011586                                      
310003800310012 01250 4112 51RD 33 CHAUM         0181637RD 44               0230442CHAUM               01907000062860062863200005003000       0187      003944  587    003914   004031   004233   004158   003809   003751   004646   000000   004211   003535   003308   003780               110043891    7    100047561    7    090050451         080000001         070044501         004003   004418   005649   004289   003984   003024   004926   005489   004045   004158   003573   004089                                      
310003900310012 01250 4112001RD 44               0230442ESPAGNE             0340112FOS                 03100000107090107093200005003000       0187      000000         000000   000000   000000   000000   000000   000000   000000   000000   000000   000000   000000   000000               110000001         100000001         090052421    7    080000001         070059501                                                                                                                                                        
310000100310012 02240 4113001DPT 32              0060000RD 17 MONTAIGUT     0200000section indice RD1  0150000000000000000000000000000000000000000      000000         000000   000000   000000   000000   000000   000000   000000   000000   000000   000000   000000   000000               11000000          00000000          00000000          00000000          00000000          000000   000000   000000   000000   000000   000000   000000   000000   000000   000000   000000   000000                                      
310000200310012 02240 4113001RD 17 MONTAIGUT     0200300CORNEBARRIEU        0310876MONDONVILLE         0250850012013012013310003300300000000000187      010168  377    010089   009531   010273   000000   010013   010969   010120   008970   010407   010843   010494   010152               110103451         100041331         090000001         080000001         070000001         010144   010725   010287   010188   010146   010191            009667   010591   010657   010510   010723                                      
310508003310012 06200 1110231SESQUIERES          0000724LES MINIMES 31      0030626GINESTOUS           0020130002857002857320000500300000000000187      125786  57     122920   120351   129735   126114   123316   135450   129022   114034   128816   132168   127582   120058               111253631         101245281         091222271         081216401         071220581                                                                                                                                                        
310508106310012 06200 1110231ES MINIMES 31       0030626PONT JUMEAUX 30     0050106PONT JUMEAUX        0040432001464001464320000500300000000000187      100316  58     100626   095111   102230   099916   097848   106372   103449   092996   103504   105469   101449   094805               111017501         101015421         091007461         080997291         070963611                                                                                                                                                        
310508200310012 06200 1110231PONT JUMEAUX 30     0050106PURPAN 29           0060074PONT GARONNE        0050354000966000966320000500300000000000187      122791  54     120973   117555   127417   122548   120289   130210   124878   113909   125902   128327   123843   117672               111224401         101223951         091231011         081225761         071217161                                                                                                                                                        
310508300310012 06200 1110231PURPAN 29           0060074CEPIERE 27          0080497STATION A620        0070789002433002433320000500300000000000187      135351  56     133194   130016   138447   135361   132157   143048   138648   127288   138772   140788   136918   129637               111356011         101343801         091338601         081339761         071351201                                                                                                                                                        
310508400310012 06200 1110231CEPIERE 27          0080497LA FAOURETTE        0090406FAOURETTE           0090100001056001056320000500300000000000187      134732  55     131782   129361   138718   135063   131528   142495   137932   125747   137905   140182   136669   129485               111334561         101309511         091310301         081285151         071284911                                                                                                                                                        
310508500310012 06200 1110231LA FAOURETTE        0090542BORDELONGUE         0110801PT DE SEYSSES       0100604002247002247320000500300000000000187      130717  55     127832   125319   134788   130384   127340   138208   134526   123127   134051   136181   132044   124836               111303761         101287231         091284741         081275441         071270691                                                                                                                                                        
310508700310012 06200 1110231LANGLADE 25         0110801EMPALOT 24          0130601EMPALOT             0120660001836001836320000500300000000000187      122079  357    114651   113131   120582   117342   113455   123264   113256   000000   130649   143052   133562   125616               111331041    7    101236771    7    091282971         081284821         071261621         117739   123748   121768   122695   124699   124593   117072   108042   120795   118658   117924   113277                                      
310508800310012 06200 1110231EMPALOT 24          0130601RANGUEIL 23         0140000RANGUEIL            0130888001537001537320000500300000000000187      088116  437    085220   083980   089826   088344   084621   092191   092326   084328   090097   092640   089609   084189               111164581    7    100865361    7    091134711         081107371         071079731         083808   088251   087284   088213   089228   089846   089381   083775   090270   088623   088094   085097                                      
310509000310012 06200 1110231DEMOISELLES 21      0150880LESPINET 20         0160048DEMOISELLES         0160000000172000172320000500300000000000187      104032  507    101266   099452   106745   104198   100713   109365   107557   097839   106561   109046   106059   099610               111033591    7    101094161    7    090000001         080000001         070000001         100080   106846   099809   104933   106899   105510   104166   096840   106809   104950   104761   099325                                      
310508900310012 06200 1110231RANGUEIL 23         0140000DEMOISELLES 21      0150880RANGUEIL-DEMOIS     0140536000699000699320000500300000000000187      099247  49     096187   094419   101693   099217   096067   104357   103233   093931   101792   104403   100910   094750               110987201         100973401         090962871         080946351         070900391                                                                                                                                                        
310509100310012 06200 1110231LESPINET 20         0160048PALAYS A61          0170777LESPINET            0160285001730001730320000500300000000000187      095050  557    094889   092165   098159   096580   093462   100181   098418   083556   093501   100087   097478   092182               110955801    7    100957821    7    090952471         080000001         070000001         092644   097298   096347   097698   096276   097788   095806   089029   095137   097121   096771   094511                                      
310509600310012 06210 1110231ST MICHEL DU TOUCH  0000000LE RITOURET         0030992RITOURET            0020485003990003990320000500300000000000998      091227  377    098437   096193   100005   099502   094744   105435   092004   079508   091431   095227   077001   065834               110980821         100972381    7    090972781         080943491         070861481         096283   098932   100051   098120   099493   096626   090470   082271   098505   100269   101585   097112                                      
310509200310012 06230 1114031PALAYS              0000000CNES                0000415A623                0000250001450001450320000500300000000000187      000000         000000   000000   000000   000000   000000   000000   000000   000000   000000   000000   000000   000000               110407261         100410201         090404691         080000001         070000001                                                                                                                                                        
310502100310012 06240 111 231BAYLAC 1            0000520ST MARTIN DU TOUCH  0010500BAYLAC              0001184001163001163320000500300000000000194      099613  54     000000   101454   103440   098067   096190   103939   099516   090737   103093   103370   101229   093700               111066661         101060351         091069061         081054341         071017761                                                                                                                                                        
310502000310012 06240 111 231PURPAN              0000000BAYLAC 1            0000520PURPAN A624         0000351000520000520320000500300000000000194      105391  43     103784   102080   108863   105677   102938   111787   107267   097806   107726   109450   106821   100617               111066331         101061381         091061011         081035301         071031131                                                                                                                                                        
310502200310012 06240 111 231ST MARTIN DU TOUCH  0010500LA CRABE            0030900CRABE EST           0020252002400002400320000500300000000000194      125037  55     123658   122073   130924   123931   120535   134110   126255   110888   127700   132466   128964   119224               111239341         101221671         091170111         081150651         071150431                                                                                                                                                        
320000200310012 00210 4113 51LECTOURE NORD       0100760FLEURANCE EB 10     0220960SAINT GENY          01708500114240114243200005003000       0187      006824  958    005764   005567   006265   000000   006278   006758   007051   010252   008766   006698   005980   005637               110064321 1248    100064601    8    090064481    8    080064531         070066731    8    005728   006144   006111   006417   006514   006586   007017   007519   006712   006389   006146   005879                                      
320000300310012 00210 4843 51FLEURANCE EB 10     0220960FLEURANCE EB 20     0260856FLEURANCE AGGLO     02500000043200043203200005003000       0187      007509  98     000000   000000   000000   000000   000000   000000   000000   000000   000000   000000   000000   000000               110000008         100000008         090072638         080073298         070073808    0                                                                                                                                                   
320000400310012 00210 4813 51FLEURANCE EB 20     0260856RD 172              0360397FLEURANCE AN SUD    02608700096010096013200005003000       0187      000000         000000   000000   000000   000000   000000   000000   000000   000000   000000   000000   000000   000000               110000008         100000008         090082828         080083588         070084168    0                                                                                                                                                   
320000500310012 00210 4113 51RD 172              0360397AUCH EB 10          0460900ROUTE D'AGEN        04504500105290105293200016013000       0187      009824         009780   009506   010627   000000   009595   010061   009738   009410   009902   010096   009725   009603               110103221         100103791         090103691         080104631         070105401                                                                                                                                                        
320000599310012 00210 4853 51AUCH EB 10          0460900AUCH EB 20          0520026AUCH                05200000054200054203200016013000       0187      000000         000000   000000   000000   000000   000000   000000   000000   000000   000000   000000   000000   000000               110209018         100000008         090195228         080189588         070190838    0                                                                                                                                                   
320000601310012 00210 4113 51AUCH EB 20          0520026DEBUT 3 VOIES       0630209DEPOT FERRE         05309000111850111853200006013000       0187      007772         007285   006905   007870   000000   007605   008126   008269   008110   008192   008110   007686   007303               110079591         100080411         090080801         080080451         070081731    0    007425   007827   007873   008041   008035   008114   008285   008305   008219   008072   007780   007522                                      
320000602310012 00210 4815 51DEBUT 3 VOIES       0630209FIN 3 VOIES         0650264COMPTAGE 0006 01    06500000019810019813200006013000       0187      000000         000000   000000   000000   000000   000000   000000   000000   000000   000000   000000   000000   000000               110000008         100000008         090084928         080084568         070085928    0                                                                                                                                                   
320000603310012 00210 4813 51FIN 3 VOIES         0650264DEBUT 3 VOIES       0690175COMPTAGE 0006 02    06600000037400037403200006011000       0187      000000         000000   000000   000000   000000   000000   000000   000000   000000   000000   000000   000000   000000               110000008         100000008         090063908         080063588         070064588    0                                                                                                                                                   
320000604310012 00210 4815 51DEBUT 3 VOIES       0690175FIN 3 VOIES         0700499COMPTAGE 0006 03    07000000013300013303200006012000       0187      000000         000000   000000   000000   000000   000000   000000   000000   000000   000000   000000   000000   000000               110000008         100000008         090083008         080082718         070084078    0                                                                                                                                                   
320000605310012 00210 4813 51FIN 3 VOIES         0700499RD 104              0720812COMPTAGE 0006 04    07100000022820022823200006013000       0187      000000         000000   000000   000000   000000   000000   000000   000000   000000   000000   000000   000000   000000               110000008         100000008         090077318         080076988         070078228    0                                                                                                                                                   
320000700310012 00210 4813 51RD 104              0720812RD 3                0890612MIRANDE             07505000167480167483200008003000       0187      000000         000000   000000   000000   000000   000000   000000   000000   000000   000000   000000   000000   000000               110000008         100000008         090058418         080058728         070059978                                                                                                                                                        
320000800310012 00210 4113 51RD 3                0890612DEPARTEMENT 65      1000408LAGUIAN             08909000102290102293200010003000       0187      004675 1137    004189   003891   004548   000000   004662   004914   005234   005134   005075   004901   004545   004293               110047361 1117    100047571 1157    090048061 1247    080048311         070049211 1027    004202   004499   004576   004776   004799   004952   005118   005124   005015   004967   004468   004320                                      
320000901310012 01240 4813 51DEPARTEMENT 31      0000000DEBUT DEV PUJAUDRAN 0020700COMPTAGES 0009.03   0010000002690002690320001000331000340030191      000000         000000   000000   000000   000000   000000   000000   000000   000000   000000   000000   000000   000000               110000008         100000008         090145338         080141968         070145948                                                                                                                                                        
320000902310012 01240 481 251DEBUT DEV.PUJAUDRAN 0020700FIN DEV.            0050800DEV.PUJAUDRAN       0040000003002003002320001000300000000000191      000000         000000   000000   000000   000000   000000   000000   000000   000000   000000   000000   000000   000000               110000008         100000008         090144098         080140808         070144798                                                                                                                                                        
320000903310012 01240 411 251FIN DEV .PUJAUDRAN  0050800RD 654              0130143PUJAUDRAN           0060165006290006290320001000300000000000191      022267  698    021583   020256   022591   000000   021290   023066   023106   021482   022557   022923   023189   022838               110220551    8    100213601    8    090188661    8    080171701         070170111    8    021040   022636   022143   021682   021154   022203   021708   020871   022119   022495   022799   023882                                      
320001000310012 01240 4113 51RD 654              0130143DEBUT 3 VOIES       0320587ISLE JOURDAIN       0170800018957018957320001000300000000000187      000000         000000   000000   000000   000000   000000   000000   000000   000000   000000   000000   000000   000000               110116461 1038    100113721    8    090107991    8    080105481         070107031    8    010380   010888   011122   011766   011647   012442   012479   012061   012248   012025   011563   011099                                      
320001100310012 01240 4815 51DEBUT 3 VOIES       0320587GIR. AUBIET EST     0350180CAHUZAC             0330500002674002674320001000300000000000187      000000         000000   000000   000000   000000   000000   000000   000000   000000   000000   000000   000000   000000               110000008         100000008         090108458         080105938         070108908                                                                                                                                                        
320001200310012 01240 481 251GIR. AUBIET EST     0350180RD 928              0380970DEV AUBIET EST      0360000003877003877320001000300000000000187      000000         000000   000000   000000   000000   000000   000000   000000   000000   000000   000000   000000   000000               110000008         100000008         090098918         080096628         070099338                                                                                                                                                        
320001300310012 01240 481 251RD 928              0380970GIR. AUBIET OUEST   0421029DEV AUBIET OUEST    0390300004175004175320001000300000000000187      000000         000000   000000   000000   000000   000000   000000   000000   000000   000000   000000   000000   000000               110000008         100000008         090127018         080124068         070127538                                                                                                                                                        
320001400310012 01240 4815 51GIR. AUBIET OUEST   0421029FIN 3 VOIES         0490332MARSAN              0470000006334006334320001000300000000000187      000000         000000   000000   000000   000000   000000   000000   000000   000000   000000   000000   000000   000000               110000008         100000008         090116338         080113638         070116818                                                                                                                                                        
320001501310012 01240 4113 51FIN 3 VOIES         0490332GIR ST.CRICQ        0510490ST.CRICQ            0510300002107002107320001601300000000000189      000000         000000   000000   000000   000000   000000   000000   000000   000000   000000   000000   000000   000000               110000001         100143531         090141891         080138671         070140731                                                                                                                                                        
320001502310012 01240 4113 01GIR ST.CRICQ        0510490GIR . ENDOUMINGUE   0560100ENGACHIES           0530020003784003784320001601300000000000187      008509 1418    007262   007165   008493   000000   008569   009004   009128   009263   009086   008972   008478   008124               110088371 1238    100082821 1267    090080371    8    080080501         070076181    8    007274   007703   008276   010534   010136   009269   009156   009183   010008   008570   008067   007839                                      
320001601310012 01240 4113 01GIR . ENDOUMINGUE   0560100GIR. RD 930         0620500DURAN               0610450005388005388320001601300000000000287      010402 1027    009379   009281   010360   000000   010470   010904   011551   011221   010711   010553   010121   009821               110107461 1007    100107791    7    090100371    7    080097471         070098171    7    009263   009814   010177   010777   010646   011950   011893   011805   011526   011022   010195   009832                                      
320001701310012 01240 4813 51GIR. RD 930         0620500DEBUT 3 VOIES       0730700NAHES               0650000011046011046320001601300000000000187      000000         000000   000000   000000   000000   000000   000000   000000   000000   000000   000000   000000   000000               110000008         100000008         090080558         080078238         070078758                                                                                                                                                        
320001702310012 01240 4815 51DEBUT 3 VOIES       0730700FIN 3 VOIES         0760330ST JEAN POUTGE      0750000002653002653320001601300000000000187      000000         000000   000000   000000   000000   000000   000000   000000   000000   000000   000000   000000   000000               110000008         100000008         090080708         080078378         070078898                                                                                                                                                        
320001703310012 01240 4813 51FIN 3 VOIES         0760330RD 626              0850735ST JEAN POUTGE      0780000009453009453320001601300000000000187      006609  31     000000   000000   000000   000000   000000   000000   000000   000000   000000   000000   000000   000000               110000008         100000008         090066648         080064728         070065158                                                                                                                                                        
320001800310012 01240 4813 51RD 626              0850735RN 524              1030378CARGET              0870000017578017578320001601300000000000187      000000         000000   000000   000000   000000   000000   000000   000000   000000   000000   000000   000000   000000               110000008         100000008         090048418         080047028         070047338                                                                                                                                                        
320004000310012 02240 4812 51R N 124             0000000RD 654              0030000L'ISLE JOURDAIN     0010500003058003058320001000300000000001290      000000         000000   000000   000000   000000   000000   000000   000000   000000   000000   000000   000000   000000               110000008         100021848         090021808         080021308         070021908                                                                                                                                                        
320004001310012 02240 4812 51RD 654              0030000HAUTE GARONNE       0060654L'ISLE JOURDAIN     0040000003695003695320001000300000000000106      000000         000000   000000   000000   000000   000000   000000   000000   000000   000000   000000   000000   000000               110000008         100010628         090009238         080009028         070009288                                                                                                                                                        
320003000310012 05240 4812 51DPT LANDES          0780311RD 626 CAZAUBON     0840000BARBOTAN            0840000005823005823320001601300000000000189      000000         000000   000000   000000   000000   000000   000000   000000   000000   000000   000000   000000   000000               110000008         100000008         090000008         080000008         070015448                                                                                                                                                        
320003100310012 05240 4812 51RD 626 CAZAUBON     0840000RD 931 EAUZE        1030000MANCIET             1020000019207019207320001601300000000000189      000000         000000   000000   000000   000000   000000   000000   000000   000000   000000   000000   000000   000000               110000008         100000008         090000008         080000008         070044928                                                                                                                                                        
320003300310012 05240 4812 51RD 931 EAUZE        1030000R.N 124             1070373LA JALOUSIE         10500000044970044973200016013          0189      000000         000000   000000   000000   000000   000000   000000   000000   000000   000000   000000   000000   000000               110000008         100000008         090014308         080013898         070013998                                                                                                                                                        
330093200310012 05240 4843 51PORT LANGON         0000000RD 3  BAZAS         0120790MAZERES             00707640135340135340000000000000       0397      000000                                                                                                                                 110000008         100167768         090000008         080000008         070000008                                                                                                                                                        
330093201310012 05240 4843 51RD 3  BAZAS         0120790RD 932 CAPTIEUX     0320000CAPTIEUX NORD       03002000188180188180000000000000       0397      000000                                                                                                                                 110000008         100067488 184     090070508         080000008         070000008                                                                                                                                                        
330093202310012 05240 4843 51RD 932 CAPTIEUX     0320000DPT 40              0360403CAPTIEUX  vers DPT4003600000043890043890000000000400       0397      000000         000000   000000   000000   000000   000000   000000   000000   000000   000000   000000   000000   000000               110000008         100000008         090000008         080000008         070000008                                                                                                                                                        
400052401310012 05240 4813 51DPT 33              0370000RD 933              0650000PLAISANCE           04900000282630282630000000000000000000 0104      000498 139     000000   000000   000000   000000   000000   000000   000000   000000   000000   000000   000000   000000               110000008         100000008         090000008         080000008         070005108                           000000                                                                                                                       
400052402310012 05240 4113 51RD 933              0650000GABARRET            0750000LAPEYRADE           06506000101810101810000000000000000000 0104      000969 139     000849   000818   000916   000000   000956   001006   001056   001100   001054   001055   000967   000866               110010171         100010511 144     090011501         080000001         070009401                                                                                                                                                        
400052403310012 05240 4813 51GABARRET            0750000DPT 32              0780311GABARRET SUD        07800000033610033610000000000000000000 0104      000000                                                                                                                                 110000008         100000008         090000008         080000008         070015448                                                                                                                                                        
650000100310012 00210 4813001Dpart. 32          0000000RD 934              0020352RABASTENS           0000325002344002344650000201332000080030187      005803  90                                                                                                                             110000008         100000008         090060008         080000008         070060658                                                                                                                                                        
650000201310012 00210 4113001RD 934              0020352RD 2                0140940ESCONDEAUX          0100150012603012603650000201300000000000187      006329  958    005885   005855   006254            006203   006689   006576   006575   006509   006691   006248   006127               110065471    8    100057221    8    090070001         080000001         070068231    8    006177   006398   006489   006674   006578   006749   006795   006840   006700   006688   006294   006183                                      
650000202310012 00210 4813001RD 2                0140940AUREILHAN EB 10     0170815AUREILHAN-NORD      0150470002880002880650000201300000000000187      000000                                                                                                                                 110000008         100000008         090108508         080000008         070107388                                                                                                                                                        
650000390310012 00210 4843001AUREILHAN EB 10     0170815GIRATOIRE SEMEAC    0200160AUREILHAN VILLE     0180100002494002494650000392300000000000187      011375  86                                                                                                                             110000008         100000008         090107008         080104748         070107098                                                                                                                                                        
650000391310012 00210 4850201GIRATOIRE SEMEAC    0200160GIRATOIRE ST FRAI   0210000PONT SAINT FRAI     0200650000778000778650000392300000000000190      000000                                                                                                                                 110000008         100000008         090183508         080179418         070183428                                                                                                                                                        
650000393310012 00210 4850201GIRATOIRE ALSTHOM   0210671GIRATOIRE ORMEAU    0220515ALSTHOM             0211240001572001572650000392300000000000195      000000                                                                                                                                 110000008         100000008         090221008         080220468         070225398                                                                                                                                                        
650000392310012 00210 4150201GIRATOIRE ST FRAI   0210000GIRATOIRE ALSTHOM   0210671CITE MOUYSSET       0210610000671000671650000392300000000000195      017048  527    016669   017215   017941            016595   017809   016148   015948   017500   018309   017173   016271               110174221    7    100173511    1    090168171         080164511         070168181    7    016877   017514   017817   017656   017858   017755   016199   016691   017900   017928   017659   017255                                      
650000395310012 00210 4150201GIRATOIRE BAGNERES  0221105GITATOIRE HOSPITAL  0230635DEBUSSY             0221500001104001104650000395300000000000195      025488  437    026184   025965   026967            024659   026376   024459   023351   025599   026417   025633   024828               110259381    7    100259101         090271571         080276781         070287881    7    025570   026561   026932   026049   025951   025753   024270   023888   027175   026534   026154   026529                                      
650000394310012 00210 4850201GIRATOIRE ORMEAU    0220515GIRATOIRE BAGNERES  0221105STADE TRELUT        0220850000590000590650000395300000000000195      000000                                                                                                                                 110000008         100000008         090235008         080235628         070245088                                                                                                                                                        
650000396310012 00210 4853001GIRATOIRE HOPITAL   0230635TARBES EB 20        0240570ROCADE SUD          0231310001437001437650000395300000000000189      000000                                                                                                                                 110000008         100000008         090188008         080188208         070195768                                                                                                                                                        
650000401310012 00210 4813001TARBES EB20         0240570GIRATOIRE A64       0250338ACCES A64           0250000001341001341650000395300000000000298      000000                                                                                                                                 110000008         100000008         090000008         080139378         070144968                                                                                                                                                        
650000402310012 00210 4813001GIRATOIRE A64       0250338RD 921 A            0290340DEVIATION DE JUILLAN0261475005448005448650000395300000000000189      013024  74                                                                                                                             110145918         100137598         090000008         080124638         070129648                                                                                                                                                        
650000501310012 00210 4113001RD 921 A            0290340RD 93               0330100ADE                 0320825003719003719650000395300000000000187      000000                                                                                                                                 110112191         100000001         090000001         080000001         070177501                                                                                                                                                        
650000502310012 00210 4813001RD 93               0330100LOURDES             0390080TOULICOU            0330260005919005919650000395300000000000195      015869  57                                                                                                                             110173178         100000008         090000008         080179508         070186718                                                                                                                                                        
660001101310012 00200 4113001RN 320 TUNNEL PUYMOR0140000UR RD 618           0290670PORTA               0170550015606015606660002800300000000001093      003510  838    003346   003755   003487   003050   002763   002990   004480   006274   003409   002781   002244   003474               110034511    8    100034351         090037811    7    080000001         070004181         003238            003762   002941   002559   003161   004583   006295   003352   002776   002204   003021                                      
660001300310012 00200 4113001RD618 UR            0290670RN116 BOURG MADAME  0320908BOURG-MADAME-NORD   0320400003255003255660002800300000000001291      005080  477    004804   004842   004688   004629   004580   004907   006224   007734   005139   004559   004095   004691               110051361    7    100052301         090053821    7    080000001         070059001         004596            004899   004766   004608   004977   006125   007673   005170   004736   004142   004756                                      
660090042310012 00200 4122001N116                0320908ESPAGNE             0321190BOURG-MADAME-FR.    0321150000282000282810000502300000000001287      008154  218    008199   007974   007509   008176   006907   007305   009082   012701   007515   006829   006862   008693               110080821    8    100082141         090080001         080000001         070079001         007699            008002   007754   006929   007521   008858   012308   007489   007223   006509   008517                                      
660090261310012 00220 4112001CROISADE            0000000GIRATOIRE / ENVALIRA0050050PAS_MERE            0040800005011005011810000502300000000000205      007467  167    005434   005373   007036   006852   007216   007183   009633   012287   008625   007003   006201   006589               110076151    7    100070501         090072591    7    080071891    7    070074341    7    005367   006492   006988   007704   006671   007476   009846   012437   007939   007730   006072   006511                                      
660090362310012 00220 4112001GIRATOIRE/ENVALIRA  0050050PAS DE LA CASE      0050734PAS_MERE            0050200000684000684810000502300000000000205      007552  287    005847   006343   007224   006635   007250   007160   009377   011942   008525   007042   006318   006834               110000001    7    100071271         090073041    7    080070671    7    070072371         002876   003384   003488   003915   003386   003727   004855   006069   003959   003899   003102   003441                                      
660002400310012 01160 4110201GIRATOIRE ST CHARLES0000000Echangeur du Soler  0060400PERPIGNAN RN116     0040360003407003407660002800300000000000390      025727  387    023987   024408   025696   025408   024796   027436   029234   028698   023432   025515   025207   024779               110262431    7    100261401         090259321         080260241    7    070264871    7    024413   026133   025372   025811   026022   027290   028824   029971   026859   025492   024036   024660                                      
660002401310012 01160 4810201Echangeur du Soler  0060400Echangeur RD 16     0110650LE SOLER            0100900005251005251660002800300000000000390      019655                                                                                                                                 110196948         100000008         090000008         080000008         070216708                                                                                                                                                        
660002500310012 01160 4110101Echangeur RD 16     0110650Echangeur Millas    0141200SAINT FELIU         0130540003451003451660002800300000000000101      019514  417    017726   018280   018908   018615   018813   020409   022344   023208   020100   019093   018330   018244               110196321    7    100192981         090192331    7    080186811    7    070184831    7    017320   018764   018506   019086   019224   021164   022635   023321   020259   019165   017921   018128                                      
660002601310012 01160 4110101Echangeur Millas    0141200Echangeur Ille/Tt  0220000MILLAS              0170250007575007575660002800300000000001287      014471  427    012768   013367   013732   013703   013807   014968   017319   017780   015164   013978   013421   013551               110143361    7    100148641         090150631         080000001         070144841         012935            012272   012410   013684   015245   017416   018873   015404   014322   012367   012706                                      
660002700310012 01160 4113001Echangeur Ille/Tt  0220000D35 PRADES          0420441BOULETERNERE        0270500019996019996660002800300000000001287      014657  358    013007   013372   013550   013728   014141   015453   017840   018934   015502   013971   013090   013188               110147971    8    100148251         090149591    7    080146711    7    070151871    7    012627   013731   013800   014207   014397   015291   017744   019417   015762   014422   012812   013213                                      
660002800310012 01160 4113001D 35(N9116)         0420441D116 VILLEFRANCHE   0480311RIA                 0450250006469006469660002800300000000000390      009868         008348   008592   008559   008832   009179   010176   012922   015363   010437   009200   008064   008594               110098871         100099941         090101961         080108801         070108781         007884   008633   008960   009163   009060   009914   012795   015089   010826   009662   007946   008529                                      
660002900310012 01160 4813001D 116               0480311D 4 OLETTE          0580178SERDINYA            0530000009960009960660002800300000000000188      009000                                                                                                                                 110090188         100000008         090093008         080092628         070092618                                                                                                                                                        
660003000310012 01160 4113001D 4 OLETTE          0580178D 118 MONT LOUIS    0780535OLETTE              0580200019712019712810000502300000000001291      005225  518    004700   005426   004473   004190   004506   005052   006932   008410   005633   004500   003987   004836               110052631    8    100052571         090053571    8    080052041    7    070059411         004353            004927   004521   004400   005108   006867   008505   005597   004859   003896   004798                                      
660003100310012 01160 4113001D 118               0780535D10                 0810060MONT-LOUIS / N116   0790000002471002471810000502300000000001287      004260  717    003753   004135   003540   003395   003482   004044   005806   007636   004502   003583   003106   004069               110042961    7    100043431         090042471         080000001         070046671         003475   003928   003929   003508   003503   004205   005896   007828   004428   003881   003082   003792                                      
660003200310012 01160 4113001D 10                0810060N20 BOURG-MADAME    0990150HIX                 0980180017909017909810000502300000000001287      004181  328    004077   004113   003581   003744   003378   003781   005348   007002   004242   003517   003157   004161               110044301    8    100043021         090043421    8    080040921         070045881         003833   004064   004126   003727   003253   003963   005190   007817   004297   005256   003269   004249                                      
660001000310012 03200 4113001DPT 09              0000000RN 22               0030124PORTE PUYMORENS     0030080002940002940660002800300000000001191      006217  277    004393   004534   005543   005857   006177   005947   007917   010263   007052   005975   005668   005161               110064021    7    100058851         090061351         080000001         070070461         004166            005532   006387   005698   006280   008090   009911   006471   007062   005564   005230                                      
660001100310012 03200 4113001RN 22               0030124RN 20 TUNNEL PUYM-660131066PORTE PUYMORENS     0030160013705013705660002800300000000001193      001972  377    001717   001824   001882   001677   001638   001672   002445   003622   002135   001525   001549   001936               110019351    7    100017321         090018131         080000001         070020361         001598            001995   001694   001482   001682   002441   003310   001824   001932   001515   001781                                      
810500100310012 00680 181 231DPT31               0220110ECH. ST SULPICE     0270190                    0250000005080005080810500200300000000000193      000000                                                                                                                                 110212508         100000008         090000008         080000008         070187008                                                                                                                                                        
810500200310012 00680 111 231ECH. ST SULPICE     0270190ECH. COUFOULEUX     0330000RIEU D'EN COSTE     0290200005810005810810500300300000000000193      000000         022185   022390   023753   024173   000000   000000   000000   000000   000000   025346   024601   023265               110238941    7    100234391         090240001         080000001         070212401         022301   023094   023414   024519   024525   024876   023065   023413   025658   024807   023986   023103                                      
810500300310012 00680 111 231ECH. COUFOULEUX     0330000ECH. LISLE MONTANS  0410740LISLE SUR TARN      03703650087400087408105003003          0193      021433         019542   019291   021086   021432   021688   023153   022967   021069   022252   022288   021755   020639               110211811    7    100204941         090205001         080194541         070194001         019197   020165   020646   021609   021067   022508   021884   020779   022666   022296   021226   020138                                      
810500400310012 00680 181 231ECH. LISLE          0410740ECH.GAILLAC         0480500                    0430000006750006750810500300300000000000193      021540                                                                                                                                 110212888         100000008         090000008         080195548         070195008                                                                                                                                                        
810500500310012 00680 111 231ECH.GAILLAC         0480500RN 88 PR 43         0610997FLORENTIN           0590750013487013487          00000000000898      000000         020555   020335   022192   022454   000000   000000   000000   000000   000000   023629   022973   021780               110225771    7    100000001         090220001         080000001         070195801                  021584   021849   022821   022790   023415   023315   021979   023496   023341   022352   021368                                      
810000100310012 00880 4813 51DEPARTEMENT 12      0000000DEV CARMAUX         0110000GRAUMMOND           0080300009253009253810000502312000130030187      000000                                                                                                                                 110061208         100000008         090000008         080000008         070063308                                                                                                                                                        
810000200310012 00880 411 251DEV CARMAUX         0110000FIN DEV CARMAUX     0260000DEV CARMAUX         01303920108320108328100005023          0187      000000                                                                                                                                 110000001         100073651 135     090070001         080000001         070062801                                                                                                                                                        
810000400310012 00880 411 251FIN DEV CARMAUX     0260000RD 903              0290513LA TETE             0260184003505003505810000502300000000000187      019288         017806   017391   019225   019063   019331   020588   020371   019255   019941   020298   019500   018623               110194451    7    100192541         090190001         080000001         070177811         017897   018819   019147   020118   020238   020122   020180   019127   020136   019908   019119   018526                                      
810000500310012 00880 481 251RD 903              0290513LARQUIPEYRE         0320000LARQUIPEYRE         03104000027790027798100005023          0187      000000                                                                                                                                 110246898         100000008         090000008         080000008         070255348                                                                                                                                                        
810000502310012 00880 411 251CARREFOUR CANTEPAU  0320979RD 100              0330914ROCADE D'ALBI       03301500014190014198100005023          0187      000000         033835   033774   035970   035566   000000   000000   000000   000000   000000   037278   036078   034554               110345461    7    100357011         090360001         080000001         070357271    7    033320   034735   035904   036441   036235   033484   032991   030948   035237   035769   034797   034759                                      
810000501310012 00880 481 251LARQUIPEYRE         0320000CARREFOUR CANTEPAU  0320979ROCADE D'ALBI       03207500009790009798100005023          0187      000000                                                                                                                                 110279158         100000008         090000008         080000008         070288708                                                                                                                                                        
810000503310012 00880 4813 51RD 100              0330914RD 999              0340175ROCADE D'ALBI       03400000008490008498100005023          0187      000000                                                                                                                                 110268448         100000008         090000008         080000008         070277628                                                                                                                                                        
810000504310012 00880 4813 51RD 999              0340175RN 112              0360910ROCADE D'ALBI       03510340035720035728100005023          0192      000000                                                                                                                                 110344668         100000008         090000008         080000008         070356458                                                                                                                                                        
810000505310012 00880 481 251RN 112              0360910FIN ROCADE          0380080ROCADE D'ALBI       03710750018890018898100005023          0192      000000                                             000000   000000   000000   000000   000000                                          110294688         100000008         090000008         080000008         070304768                                                                                                                                                        
810000600310012 00880 411 251FIN ROCADE          0380080A 68                0430354LE SEQUESTRE        0410800005521005521810001600300000000000187      000000         030496   030998   033577   032856   000000   000000   000000   000000   000000   035784   034680   033049               110330771    7    100321101         090320001         080000001         070313871    7    030879   032026   032600   033666   033022   034226   033375   031489   034867   034578   033301                                               
810001600310012 01120 4113 51MAZAMET             0250000RD 621              0330300ST PIERRE           02903400090270090278100016003          0105      000000         011897   010909   012924   012773   000000   000000   000000   000000   000000   013685   012851   012094               110132431    7    100000001         090000001         080000001         070116101         012012   012627   012927   013593   013614   013750   013911   013360   013910   013926   012894   012368                                      
810001800310012 01120 4813 51RD 621              0330300RN 126 PR 53 CASTRES0411239LACAZE              04100000105660105668100016003          0187      000000                                             000000   000000   000000   000000   000000                                          110109848         100000008         090000008         080000008         070096308                                                                                                                                                        
810002300310012 01260 4813 51RD 42               0050000RD 84               0330385RIVIERE DE LEN      0080500026698026698810002400331000410030187      005769 130                                         000000   000000   000000   000000   000000                                          110000008         100000008         090000008         080047958         070073118                                                                                                                                                        
810002400310012 01260 4113 51RD 84               0330385RD 621              0430090DEV PUYLAURENS      03500100092970092098100024003          0187      000000         006949   006709   007561   007576   000000   000000   000000   000000   000000   008311   007764   007398               110000001         100000001         090000001         080062481         070095261    7                                                                                                                                                   
810002500310012 01260 4813 51RD 621              0430090RD 50               0490608SAIX OUEST          04904000060810060818100024003          0187      000000                                             000000   000000   000000   000000   000000                                          110000008         100000008         090000008         080107128         070163338                                                                                                                                                        
810002600310012 01260 481 251RD 50               0490608CASTRES EB 10       0510945PONT DE SAIX        05006000023450023458100024003          0187      000000                                             000000   000000   000000   000000   000000                                          110000008         100000008         090000008         080153308         070233758                                                                                                                                                        
810002699310012 01260 4853 51CASTRES EB 10       0510945CASTRES RN 112 PR 410530069CASTRES             05300000011280011288100024003          0187      000000                                                                                                                                 110000008         100000008         090000008         080163538         070249348                                                                                                                                                        
810002088310012 20880 4855 51RN 88               0090350RN 88               0401005CARMAUX             01900000171930171938100005023          0187      000000                                                                                                                                 110067688         100000008         090000008         080000008         070070008                                                                                                                                                        