930500100310013 00010 1150641A1                  0000000RN410               0020400DEPT75-RN410        0000200002380002380          00000000001276      195100         000000   000000   000000   000000   000000   000000   000000   000000   000000   000000   000000   000000               121951001         111951001         101951001    0    091950731    0    081911871    0                                                                                                                                                   
930500200310013 00010 1150441RN410               0020400RN1                 0040100RN410-RN1           0030000001707001707          00000000001276      134000         000000   000000   000000   000000   000000   000000   000000   000000   000000   000000   000000   000000               121340001         111340001         101340001    0    091340001    0    081340001    0                                                                                                                                                   
930500300310013 00010 1150441RN1                 0040100RN301               0040900RN1-RN301           0040200000800000800          00000000001276      134000         000000   000000   000000   000000   000000   000000   000000   000000   000000   000000   000000   000000               121340001         111340001         101340001 1330    091340001 1890    081340001    0                                                                                                                                                   
930500401310013 00010 1150441RN301               0040900A86                 0060900RN301-A86           0060400002018002018          00000000001276      123200         000000   000000   000000   000000   000000   000000   000000   000000   000000   000000   000000   000000               121232001         111232001         101232001    0    091232341    0    081199311    0                                                                                                                                                   
930500402310013 00010 1150441A86                 0060900RN2                 0080700A86-RN2             0070500001802001802          00000000000599      170300         000000   000000   000000   000000   000000   000000   000000   000000   000000   000000   000000   000000               121703051         111685721         101810341    0    091705841    0    081652831    0                                                                                                                                                   
930500500310013 00010 1150441RN2                 0080700A3                  0110300RN2-A3              0100000002605002605          00000000001276      177500         000000   000000   000000   000000   000000   000000   000000   000000   000000   000000   000000   000000               121775211         111768101         101789541 1630    091777041    0    081732021    0                                                                                                                                                   
930500601310013 00010 1150441A3                  0110300A104                0120600A3-A104             0120000001291001291          00000000001276      122500         000000   000000   000000   000000   000000   000000   000000   000000   000000   000000   000000   000000               121225371         111213211         101340001    0    091340001    0    081340001    0                                                                                                                                                   
930500602310013 00010 1150441A104                0120600DEPT95              0130401A104-DEPT95         0130100000802000802          00000000000599      092700         000000   000000   000000   000000   000000   000000   000000   000000   000000   000000   000000   000000               120927301         110946001         100946211    0    090988001    0    080987641    0                                                                                                                                                   
950502500310013 00010 1150441A3 DEPT 93          0140000A 104 DEPT 95       0180930A1:A104-AEROP ROISSY0140000004940004940000000000000000000000607      090600         000000   000000   000000   000000   000000   000000   000000   000000   000000   000000   000000   000000               120906001         110905721         100898881    0    090951001    0    080851001    0    000000   000000   000000   000000   000000   000000   000000   000000   000000   000000   000000   000000                                      
930500900310013 00030 1150531DEPT75              0000000A186                0020200DEPT75-A186         0000500002257002257          00000000001276      163300         000000   000000   000000   000000   000000   000000   000000   000000   000000   000000   000000   000000               121633301         111678521         101636231    0    091737451    0    081722701    0                                                                                                                                                   
930501000310013 00030 1150531A186                0020200A86                 0050200A186-A86            0040000002626002626          00000000001276      163800         000000   000000   000000   000000   000000   000000   000000   000000   000000   000000   000000   000000               121638421         111687041         101641211    0    091649001    0    081649001    0                                                                                                                                                   
930501100310013 00030 1150531A86                 0050200RN3                 0080100A86-RN3             0060500002850002850          00000000001276      118500         000000   000000   000000   000000   000000   000000   000000   000000   000000   000000   000000   000000               121184941         110992001         100992001    0    090992001    0    080992001    0                                                                                                                                                   
930501200310013 00030 1150531RN3                 0080100RD115               0100900RN3-RD115           0090000002800002800          00000000001276      159900         000000   000000   000000   000000   000000   000000   000000   000000   000000   000000   000000   000000               121598661         111490001         101490001    0    091490001    0    081490001    0                                                                                                                                                   
930501300310013 00030 1150431RD115               0110000RN2                 0121000RD115-RN2           0120600002240002240          00000000001276      146400         000000   000000   000000   000000   000000   000000   000000   000000   000000   000000   000000   000000               121464001         111464001         101464001    0    091464001    0    081464001    0                                                                                                                                                   
930501400310013 00030 1150531RN2                 0130000A1                  0150225RN2-A1              0140000002277002277          00000000001276      154900         000000   000000   000000   000000   000000   000000   000000   000000   000000   000000   000000   000000               121549061         111176001         101176001    0    091176001    0    081176001    0                                                                                                                                                   
950504200310013 00030 1150431DPT93 - ROISSY      0160000DPT93 - Bretelles A10161000DPT93 - ROISSY      0160500001000001000000000000000000000000607      136100         000000   000000   000000   000000   000000   000000   000000   000000   000000   000000   000000   000000               121361001         111360971         101128001    0    091128001    0    081128001    0    000000   000000   000000   000000   000000   000000   000000   000000   000000   000000   000000   000000                                      
940500100310013 00040 1150641A.4 / C.D.50        0000000A.4 / PARIS         0000700ENTRE C.D.50 / R.N6 0000250000700000701          00000000001287      205500         000000   000000   000000   000000   000000   000000   000000   000000   000000   000000   000000   000000               122055001         112055031         101974731    0    092073771    0    082048121    0                                                                                                                                                   
940500200310013 00040 1150641A.4 / C.D.50        0000700A.4 / R.N.6         0020250ENTRE C.D.50 / R.N 60010100001568001568          00000000001287      225300         000000   000000   000000   000000   000000   000000   000000   000000   000000   000000   000000   000000               122253001         112253501         102120471    0    092369381    0    082534401    0                                                                                                                                                   
940500309310013 00040 1150641A.4 / R.N.6         0020250A.4 / A.86          0030660ENTRE R.N.6 / A.86  0020700001414001414          00000000001287      228200         000000   000000   000000   000000   000000   000000   000000   000000   000000   000000   000000   000000               122282001         112282421         101399821    0    092369001    0    082369001    0                                                                                                                                                   
940500400310013 00040 1150641A.4 / A.86          0030660A.4 / R.N.186       0060100ENTRE A.86 / R.N.1860040600002466002466          00000000001287      220207         212171   217857   218019   225033   220876   225098   223249   207368   224630   228328   219938   220132               122199541         112246361  817    102586001    0    091421001    0    081421001    0    213523   207451   200407   222256   222656   227377   222573   213868   224471   226104   224196   214358                                      
940500501310013 00040 1150641A.4 / R.N.186       0060100A.4 / C.D.45        0080250ENTRE A.86 / C.D.45 0070350002153002153          00000000001287      145702         135809   143947   141531   151115   144324   155748   148268   130641   150401   153029   147257   146892               121441541         111443601         102410001    0    092410001    0    082410001    0                                                                                                                                                   
940500600310013 00040 1150641A.4 / C.D.45        0080250A.4 / R.N.303       0090450ENTRE CD.45 / RN.3030080800001199001199          00000000001287      178800         000000   000000   000000   000000   000000   000000   000000   000000   000000   000000   000000   000000               121788001         111788001         101788001    0    091788001    0    081788001    0                                                                                                                                                   
940500709310013 00040 1150641A4 / RN303          0090450A4 / Limite 93      0120700Champigny           0100450003700003700          00000000000200      152200         000000   000000   000000   000000   000000   000000   000000   000000   000000   000000   000000   000000               121522001         111521641         100000001    0    090770611 1480    080744551 1290                                                                                                                                                   
910500100310013 00060 1150441A6/LD94             0000000A6/RD32             0090950ENTRE DEP94/RD32   A0000500001540000000          00000000001276      074900         000000   000000   000000   000000   000000   000000   000000   000000   000000   000000   000000   000000               120749051         110767991         100743941    0    090756001    0    080756291    0                                                                                                                                                   
910500201310013 00060 1150441A6/RD32             0090950A6/A126             0120686WISSOUS             0090950002731002731          00000000000599      130005 107     121478   129721   131782   130589   131725   137414   132559   125846   130717   131818   126367   130176               121292341  717    111334501  737    101331751  717    091343631  697    081336891  757    128630   131845   135372   134627   132060   134141   125071   110483   126590   131649   132009   128841                                      
910500202310013 00060 1150441A6/A126             0130000A6/RD118            0131001ENTRE A126/RD 118   0130241001001001001          00000000000599      146400         000000   000000   000000   000000   000000   000000   000000   000000   000000   000000   000000   000000               121464001         111463991         101551561    0    091769001    0    081774001    0                                                                                                                                                   
910500300310013 00060 1150441A6/RD118            0130990A6/RD25             0170207ENTRE RD118/RD25   A0160000003218000000          00000000001276      163494         152815   163684   164805   165780   162335   173880   168478   153559   166809   168582   158388   163176               121661221         111694411         101662381    0    091696161    0    081664461    0                                                                                                                                                   
910500400310013 00060 1150441A6/RD25             0170207A6/RN445            0200505A6_VIRY             0190670003288000000          00000000001276      165376         150135   159440   162076   168941   167087   177029   172934   159545   169432   175812   161033   160949               121625431  927    111643631  957    101616901 1397    091633011 1247    081616261  787    158799   160542   167026   164315   163007   171110   164996   151834   165389   164474   162121   157185                                      
910500500310013 00060 1150441A6/RN445            0200505A6/RD310            0210772ENTRE RN445/RD310 A 0200610001267000000          00000000001276      130000         000000   000000   000000   000000   000000   000000   000000   000000   000000   000000   000000   000000               121300311         111345481         101366271    0    091353551    0    081290851    0                                                                                                                                                   
910500600310013 00060 1150441A6/RD310            0210772A6/RN104            0240000ENTRE D310/RN104    0220800002233000000          00000000001276      116760         103928   114581   114069   115680   114013   000000   122035   000000   000000   125362   000000   000000               121123001         111122871         101100661    0    091122691    0    081122741    0                                                                                                                                                   
910500700310013 00060 1150441A6/RN104            0240000A6/RD93             0250740ENTRE RN104/RD93   A0240450001741000000          00000000001276      093271 102     086441   091041   092372   091990   095473   106227   097260   095266   092409   090057   086323   094297               121050481  957    111069151         101085641  847    091129521  817    081121181  867    097555   101685   109855   110126   109011   113365   112201   108071   105005   099362   097848   096477                                      
910500800310013 00060 1150441A6/RD93             0250740A6/RN104            0270686ENTRE RD93/RN104   A0260625001933000000910500700300000000001276      091582         083213   090108   094616   092633   091317   097177   098014   091412   093735   090790   085444   090462               120950941         111206651         101294001    0    091294001    0    081265381    0    000000   000000   000000   000000   000000   000000   000000   000000   000000   000000   000000   000000                                      
910500901310013 00060 1150441A6/RN104            0270686A6/RD26             0280761ENTRE RN104/RD26  A 0270943001072000000          00000000000198      095242         086342   092952   097808   095062   092902   000000   099018   095426   098884   097386   000000   096743               121241001         111240531         101025001    0    091276801    0    081276801    0                                                                                                                                                   
910500902310013 00060 1150441A6/D26              0280761A6/N191             0320666ENTRE D26/N191      0300180004911000000          00000000000198      122900         000000   000000   000000   000000   000000   000000   000000   000000   000000   000000   000000   000000               121229001         111229001         101229001    0    091229001    0    081220001    0                                                                                                                                                   
910501000310013 00060 1150441A6/RN191            0320666A6/RD948            0340156ENTRE RN191/RD948  A0330458001486000000          00000000001276      115100         000000   000000   000000   000000   000000   000000   000000   000000   000000   000000   000000   000000               121151001         111151001         101151001    0    091151001    0    081151001    0    000000   000000   000000   000000   000000   000000   000000   000000   000000   000000   000000   000000                                      
910501100310013 00060 1150441A6/RD948            0340156A6/RD337            0340903ENTRE RD948/RD337  A0340158000747000000          00000000000795      081607  98     073848   081160   087019   000000   000000   000000   000000   000000   083445   083876   078642   083261               120865071 1017    110895221         100883391 1017    090890731  677    080902951  647    080000   083466   088406   089857   087161   090591   092006   087563   087700   084689   083063   083550                                      
910501200310013 00060 1110441A6/RN337            0340903A6/LD77             0380385ENTRE RN337/DEP77   0380385002472002472          77050010031276      074200         000000   000000   000000   000000   000000   000000   000000   000000   000000   000000   000000   000000               120742001         110742001         100742001    0    090742001    0    080742001    0                                                                                                                                                   
910500109310013 00060 1110441LIMITE ESSONNE      0380385RN37 / DEBUT A6     0440440A6_NAINVILLE        0400500006076006076000000000000000000000607      072200         000000   000000   000000   000000   000000   000000   000000   000000   000000   000000   000000   000000               120722001         110722261         100730341 1090    090736591    0    080737001    0    000000   000000   000000   000000   000000   000000   000000   000000   000000   000000   000000   000000                                      
940501309310013 00060A1150441A6A / PTE ORLEANS   0000000A6A / VOIE LENTE    0020150ARCUEIL A6a         0020000002179002179          00000000000200      120965         113390   116279   116967   120631   124823   131034   123629   000000   000000   000000   000000   000000               121244361         111301841         101474701  440    091175081  370    081190251  290    118647   120510   124585   120651   123768   135027   126946   121616   130146   129619   125892   116028                                      
940501400310013 00060A1150441A.6A / A.6B         0020150A.6A / A.106        0051000ENTRE A.6B / A.106  0050000003865003865          00000000000193      121343         109393   115436   117288   000000   122017   000000   133240   118490   123700   124773   119326   120769               121232241         111225081         101381851    0    091226721    0    081215921    0                                                                                                                                                   
940501500310013 00060A1150441A.6A / A106         0060000A.6A / DEPT 91      0080414ENTRE RN186 / DEP 910070500002424002424          00000000000193      120500         000000   000000   000000   000000   000000   000000   000000   000000   000000   000000   000000   000000               121204511         111222531         101210181    0    091220131    0    081218141    0                                                                                                                                                   
940501701310013 00060B1150241A.6B / LIMITE PARIS 0000000A.6B / A.6A         0021007ARCUEIL A6b         0010240003007003007          00000000000193      112900         000000   000000   000000   000000   000000   000000   000000   000000   000000   000000   000000   000000               121129001         111128801  377    100673061  990    091144921  970    081137681 1080                                                                                                                                                   
940501800310013 00060B1150241A.6B / A.6A         0030000A.6B / A.106        0041000ENTRE A.6A / A.106  0040000002005002005          00000000001287      140253         130547   139873   137629   000000   139982   146499   145324   134509   146304   144815   137783   139552               121165261         111128131         100819021    0    091406101    0    081373901    0                                                                                                                                                   
940502100310013 00060B1150441A.6B / A.106        0050000A.6B / RN 186       0070250ENTRE A.106 / RN.1860050025002248002248          00000000001287      053729         049474   052732   053005   056530   053234   059087   056793   051450   054880   054608   051684   051411               120533731         110835241         100740661    0    090853851    0    080821861    0                                                                                                                                                   
940502200310013 00060B1150441A.6B / RN.186       0070250A.6B / LIMITE 91    0080414ENTRE RN.186 / DEP910080000001170001170          00000000001287      157800         000000   000000   000000   000000   000000   000000   000000   000000   000000   000000   000000   000000               121578001         111578481         101463001    0    091463001    0    081463001    0                                                                                                                                                   
910510100310013 00060B1150441A6/LD94             0000000A6/RD167            0010701ENTREDPT94/RD167  A 0010000001283000000          94050200030190      113327         000000   000000   111699   113884   111958   117484   116623   113629   116560   115463   109789   111786               121116001         111116201         101080091    0    091238001    0    081222001    0                                                                                                                                                   
910502000310013 00100 1150341A10/A6              0000000A10/RN20            0020746ENTRE A6/RN20  A    0010600002693000000          00000000001276      142200         000000   000000   000000   000000   000000   000000   000000   000000   000000   000000   000000   000000               121422001         111421831         101371851    0    091424001    0    081431201    0                                                                                                                                                   
910502100310013 00100 1150341A10/RN20            0020746A10/A126            0040700ENTRE RN20/A126     0030500001951000000          00000000001276      121900         000000   000000   000000   000000   000000   000000   000000   000000   000000   000000   000000   000000               121219001         111219501         101133981    0    091192001    0    081063001    0                                                                                                                                                   
910501800310013 00100 1150441A10/A126            0040700A10/RN188           0050740ENTRE A126/RN188  A 0040708001046000000          00000000001276      104600         000000   000000   000000   000000   000000   000000   000000   000000   000000   000000   000000   000000               121046001         111045771         101088001    0    091087901 1140    081071791 1240                                                                                                                                                   
910501700310013 00100 1150241A10/RN188           0050740A10/A126            0060457ENTRE RN188/A126    0050580000715000000          00000000001276      077645         065696   070041   073065   079619   079320   081132   090131   088557   079147   077042   072782   074545               121100001         111127001         101127001    0    091127001    0    081127001    0                                                                                                                                                   
910501300310013 00100 1150241A10/A126            0060457A10/RN188           0090567ENTRE A126/RN188   A0070720003361000000          00000000001276      073319         061283   065445   069163   075073   074595   076548   085540   084693   074422   073198   068982   070175               120703771         110736941         100814821    0    090831001 1530    080831001 1570                                                                                                                                                   
910501400310013 00100 1140241A10/RN188           0090567A10/RD118           0110862ENTRE RN188/RD118  A0090013003298000000          00000000001276      069012         059698   064036   067606   073319   072813   073503   084913   081716   071757   064355   056475   057446               120714621 1477    110735061 1527    100736241 1487    090740761 1457    080742761 1687    062246   063738   067430   074347   070397   074003   085902   081449   073721   069171   068593   066209                                      
910501500310013 00100 1110241A10/RD118           0110862A10/RN446           0131025ENTRE RD118/RN446   0131004001163001163          00000000000505      051800         000000   000000   000000   000000   000000   000000   000000   000000   000000   000000   000000   000000               120518351         110518141         100507671    0    090504001    0    080522001    0                                                                                                                                                   
780550799310013 00120 1110531A 12 X A 13         0000000A 12 X RD 129       0060325SUD A13 ROCQUENCOURT0010550006717006717          00000000000200      122081  65     119189   127845   125766   113827   109238   122603   128092   111240   133760   127799   120313   125926               121268521  647    111293021  817    101290771  707    091236841  757    081239491  707    127073   127258   133956   130725   128855   137749   133545   110605   134053   115667   119471   123758                                      
780550800310013 00120 1110231A 12 X RD 129       0060325A 12 X RN 286 EX G120071301SUD RD 129 B.D'ARCY 0060500001976001976          00000000001276      055681         051886   055469   054516   058191   054932   059809   057946   046492   057584   059534   056402   055690               120509831         110577401         100562051    0    090558361    0    080555591    0                                                                                                                                                   
920551000310013 00130 1150201ECH BP PTE MAILLOT  0000000SAINT CLOUD         0091403BRET STIE BD CIRC LA0040300004576004576000000000000000000000009      142359  44     135763   142237   139556   149803   145107   150393   140633   126586   146585   147440   144004   140870               121458971         111486331         101509391  430    091454271    0    080000001    0    144997   143741   149836   145991   000000   000000   000000   000000   000000   149488   146764   140460                                      
780551000310013 00130 1110441LIMITE DEPT. 92     0090000A 13 X A 12         0120600OUEST RD 182 VAUCRES0090000003793003793          92050220011276      132100         000000   000000   000000   000000   000000   000000   000000   000000   000000   000000   000000   000000               121321131         111203001         101203001    0    091203001    0    081203001    0                                                                                                                                                   
780551100310013 00130 1110241A 13 X A 12         0120600A 13 X RD 153       0250515OUEST TRI ROCQUENCOU0220590013427013427          00000000001276      085219         075845   082797   082120   087870   085821   090788   090515   086318   087379   087881   082710   082609               120865751  967    110886621 1007    100877541  957    090885161  927    080877421  727    082939   082911   088696   087952   087952   092811   090430   080803   089098   087898   085497   081971                                      
920999900310013 00140 1110201INTER N1014         0000000NANTERRE            0040550LIMITE CONCESSION   0040200003190003190000000000000000000000010      000000         000000   000000   000000   000000   000000   000000   000000   000000   000000   000000   000000   000000               120000001         110000001         100000001    0    090000001    0    080000001    0    000000   000000   000000   000000   000000   000000   000000   000000   000000   000000   000000   000000                                      
920514200310013 00140 1150641N314                0020050A86                 0040000A14                 0030000001950000000          00000000000699      099000         000000   000000   000000   000000   000000   000000   000000   000000   000000   000000   000000   000000               120990001         110990001         100990001    0    090990001    0    080990001    0                                                                                                                                                   
920514300310013 00140 1150641A86                 0040000LIMITE CONCESSION   0040550A14                 0040500001128000000          00000000000699      034700         000000   000000   000000   000000   000000   000000   000000   000000   000000   000000   000000   000000               120347001         110347001         100347001    0    090347001    0    080347001    0                                                                                                                                                   
920511000310013 00150 1150641a86                 0000000dept78              0050900A15                 0000450002915000000          00000000000202      155600         000000   000000   000000   000000   000000   000000   000000   000000   000000   000000   000000   000000               121556001         111556001         101556001    0    091556001    0    081556001    0                                                                                                                                                   
950500100310013 00150 1110641PONT GENNEVILLIERS  0060000RN311               0060060A15:PT GENNEV-RN311 0060000000060000061          00000000000195      151800         000000   000000   000000   000000   000000   000000   000000   000000   000000   000000   000000   000000               121518001         111518001         101518001    0    091518001    0    081517691    0                                                                                                                                                   
950500200310013 00150 1110641RN 311              0070000limite 92           0080140A15:RN311-RN309     0070500002101002101          00000000000195      149100         000000   000000   000000   000000   000000   000000   000000   000000   000000   000000   000000   000000               121491001         111491481         101430611    0    091478241    0    081458171    0                                                                                                                                                   
950500300310013 00150 1110641D 909               0080140A 115               0090470A15 SANNOIS         0090420001327001327          00000000000392      189200         000000   000000   000000   000000   000000   000000   000000   000000   000000   000000   000000   000000               121892001         111891751         101972241    0    091885811    0    081801611    0                                                                                                                                                   
950500400310013 00150 1110641A 115               0090470RN14 BRET MONTIGNY  0120000A15:A115-RN14       0110000002535002535          00000000000195      121351         113703   119952   116067   125118   118905   128346   122302   101947   129453   129554   000000   000000               121301551         111272681         101333981    0    091275711    0    081264701    0                                                                                                                                                   
950500500310013 00150 1110441RN 14 BRET MONTIGNY 0120000RN 192              0150006A15:ARN14 MONTI-RN190140000003008003008          00000000000195      117200         000000   000000   000000   000000   000000   000000   000000   000000   000000   000000   000000   000000               121172231         111179841         101166831    0    091169091    0    081159511    0                                                                                                                                                   
950500600310013 00159 1140441D 392               0150006N 184 SORTIE N°8    0210000A15 PIERRELAYE      0180040006004006004          00000000001092      108410         107551   114217   116254   000000   000000   000000   000000   095616   000000   000000   000000   000000               121133891         111091221         101082911    0    091115761    0    081120671    0                                                                                                                                                   
950500700310013 00150 1150241RN 14 BRET PIERRELAY0210000RN184               0210420A15:RN14 PIERR-RN1840210400000420000421          00000000000195      096798         091701   097507   092519   100627   093612   103465   098889   000000   096949   099884   095427   094563               121011331         111010001         101010231    0    090993651    0    080985831    0                                                                                                                                                   
950500800310013 00150 1150241RN184               0210420RD984               0220350A115:RN184-RD984    0220000000932000932          00000000000195      098700         000000   000000   000000   000000   000000   000000   000000   000000   000000   000000   000000   000000               120987001         110987011         100774221    0    090875451    0    080869441    0                                                                                                                                                   
950500900310013 00150 1140241N 184 SORTIE N°8    0220350D 14                0241001A15 ERAGNY/OISE     0220550002651002651          00000000001193      140767  49     000000   000000   000000   000000   138384   147718   140717   116461   147828   150442   145377   139207               121404361  487    111394351         101339941    0    091362001    0    081362001    0    139208   138015   144405   138951   141907   146950   139026   117300   148204   149473   144185   137980                                      
920500300310013 00860 1150241LIMITE DEP 93       0000000RD 986              0010450A 86               A0000250001450000000          00000000001276      150800         000000   000000   000000   000000   000000   000000   000000   000000   000000   000000   000000   000000               121508001         111508001         101508001    0    091508001    0    081508001    0                                                                                                                                                   
920500500310013 00860 1150241ECHANGEUR A 15-A 86 0030300RD 19               0040620Sous A 15          A0030850001320000000          00000000001276      091045         082436   092556   090654   094848   091199   098105   096594   079864   094108   093371   089751   089607               121180001         111180001         101180001    0    091180001    0    081180001    0                                                                                                                                                   
920500800310013 00860 1150241RD 106              0070370RN 192              0090500A86          A      0080600002130000000          00000000001276      103924 111     098698   104430   102680   107834   103536   106326   107334   095563   106771   105736   104595   103953               121035341 1067    111039091         101027851 1050    091043411 1040    081080001    0    101302   101604   105004   104674   103964   108435   106161   091987   106378   106515   105235   101369                                      
920500900310013 00860 1150241RN 192              0090500PONT DE ROUEN       0100940A86            A    0100000001440000000          00000000001276      156547         146037   157729   157501   163366   156200   168514   166290   139524   160092   158601   150738   154624               121457161         111181001         101181001    0    091181001    0    081181001    0                                                                                                                                                   
930501601310013 00860 1150231A3                  0120000TC A3/A86           0140300A3 / TC A3/A86      0140000001425001425          00000000001276      118700         000000   000000   000000   000000   000000   000000   000000   000000   000000   000000   000000   000000               121187001         111187001         101187001    0    091187001    0    081187001    0                                                                                                                                                   
930501602310013 00860 1150231TC A3/A86           0140300RN302               0140752TC A3/A86 / RN302   0140752000452000452          00000000001276      136600         000000   000000   000000   000000   000000   000000   000000   000000   000000   000000   000000   000000               121366001         111366001         101366001    0    091366001    0    081366001    0                                                                                                                                                   
930501700310013 00860 1150231RN302               0150000RD37                0150500RN302-RD37          0150400000500000500          00000000000903      134500         000000   000000   000000   000000   000000   000000   000000   000000   000000   000000   000000   000000               121344661         111247001         101247001    0    091247001    0    081247001    0                                                                                                                                                   
930501801310013 00860 1150441RD37                0150500RD43                0161000RD37-RD43           0150900001270001270          00000000000903      160600         000000   000000   000000   000000   000000   000000   000000   000000   000000   000000   000000   000000               121606301         111612241         100930971 1510    090944551 1870    080961151 1210                                                                                                                                                   
930501802310013 00860 1150441RD43                0170000DEPT94              0171153RD43-DEPT94         0170500001153001153          00000000000903      139600         000000   000000   000000   000000   000000   000000   000000   000000   000000   000000   000000   000000               121396001         111396001         101396001    0    091396001    0    081396001    0                                                                                                                                                   
940502300310013 00860 1150441A86 / RN6           0280000A86 / RN305         0310400ENTRE RN305 ET RN6  0290000003396000000          00000000001287      139300         000000   000000   000000   000000   000000   000000   000000   000000   000000   000000   000000   000000               121393001         111393001         101393471    0    091393471 1820    081399001  960                                                                                                                                                   
940502400310013 00860 1140441A86 / RN305         0310400A86 / RN186         0340991ENTRE RD124 / RN186 0340500003632000000          00000000000990      126595         125063   125346   125862   127341   125164   129465   127924   000000   000000   000000   000000   000000               121283441 1107    111271651 1137    101288361 1017    091251981 1047    081276341 1087    123676   129798   132354   131926   131892   135108   131606   123172   124119   124091   126209                                               
940502500310013 00860 1150241A86 / RN186         0350000A86 / RN7           0350999ENTRE RN186 ET RD65 0350100000999000000          00000000000194      090089 112     087671   088664   090646   093161   091074   092851   091063   088769   091095   091258   087153   087654               120911321 1107    110924651         100915811 1170    090828691 1150    081190001    0    087533   089689   094241   093746   091539   094166   091130   088255   093130   091760   092173   086411                                      
940502600310013 00860 1150241A86 / RN7           0360000A86/RD65            0361002RN7 - RD65          0360100001002000000          00000000000194      091000         000000   000000   000000   000000   000000   000000   000000   000000   000000   000000   000000   000000               120910001         110910001         100910001    0    090910001    0    080910001    0                                                                                                                                                   
940502700310013 00860 1150241A86/RD65            0370000A86/A6b             0380400RD65 - A6b          0370100001400000000          00000000000194      166081         155353   163457   164245   170692   165462   172933   171127   157797   000000   170530   165765   168233               121754001         111754001         101753691    0    091803301    0    081804131    0                                                                                                                                                   
940502800310013 00860 1150241A86/A6b             0380400A86/dpt92           0391009A6b - DEPT92        0390000001617000000          00000000000194      095973  68     093825   096522   096839   099102   097339   100020   094346   084297   099261   100030   095181   095276               120964441  657    110966831         100941841  640    090857241    0    080951001    0    094054   090678   099614   099450   098155   102153   092837   087146   100024   100126   098904   094292                                      
930501500310013 01030 1150231A3                  0000000RN302               0011246A3-RN302            0000400002025002025          00000000001276      047600         000000   000000   000000   000000   000000   000000   000000   000000   000000   000000   000000   000000               120476001         110461001         100461001    0    090461001    0    080461001    0                                                                                                                                                   
930500700310013 01040 1150331A1                  0000000RD40                0010400A1-RD40             0000800001400001400          00000000001276      119800         000000   000000   000000   000000   000000   000000   000000   000000   000000   000000   000000   000000               121198001         111198001         101198001    0    091198001    0    081198001    0                                                                                                                                                   
930500801310013 01040 1150331RD40                0010400PARC EXPO           0020500RD40-PARC EXPO      0010900001250001250          00000000000794      103200         000000   000000   000000   000000   000000   000000   000000   000000   000000   000000   000000   000000               121032001         111032001         101032001    0    091032001    0    081032001    0                                                                                                                                                   
930500802310013 01040 1150331PARC EXPO           0020500RN2                 0030790PARC EXPO-RN2       0030700001290001290          00000000000599      108900         000000   000000   000000   000000   000000   000000   000000   000000   000000   000000   000000   000000               121089001         111089001         101089001    0    091089001    0    081089001    0                                                                                                                                                   
930504800310013 01040 1150131RN2                 0040000RD40                0050600RN2-RD40            0040600001600001600          00000000000794      111200         000000   000000   000000   000000   000000   000000   000000   000000   000000   000000   000000   000000               121112001         111112001         101111551    0    091276001    0    081260001    0                                                                                                                                                   
930504900310013 01040 1150231RD40                0050600DEPT77              0070108RD40-DEPT77         0060000001677001677          00000000031276      106700         000000   000000   000000   000000   000000   000000   000000   000000   000000   000000   000000   000000               121067001         111067001         101066881    0    091031001    0    081019501    0                                                                                                                                                   
770500800310013 01040 1110231DPT93               0080000A104-N2             0080500DPT93-RN2           0080300000500000501          00000000001276      076900         000000   000000   000000   000000   000000   000000   000000   000000   000000   000000   000000   000000               120769001         110769001         100769001    0    090769001    0    080769001    0                                                                                                                                                   
770500900310013 01040 1110231A104-N2             0080500A104-D84NORD        0110100RN2-RD84NORD        0100770002290002290          00000000000197      091800         000000   000000   000000   000000   000000   000000   000000   000000   000000   000000   000000   000000               120918001         110918001         100918251    0    090798791    0    080837001    0                                                                                                                                                   
770500901310013 01040 1110231A104-D84NORD        0110100A104-D84SUD         0110700RD84NORD-RD84SUD    0110500000600000600          00000000000197      079700         000000   000000   000000   000000   000000   000000   000000   000000   000000   000000   000000   000000               120797251  697    110848001         100847651    0    090606001 1457    080606001 1457                      080316   078338   078738   085135   083309   075512                                                                          
770501000310013 01040 1110231A104-D84SUD         0110700A104-N3             0140950RD84SUD-RN3         0120100003223003223          00000000001276      096200         000000   000000   000000   000000   000000   000000   000000   000000   000000   000000   000000   000000               120962001         110962021         100931171    0    090934851    0    080934851    0                                                                                                                                                   
770501101310013 01040 1110231A104-N3             0140950A104-D34            0180500RN3-RD34            0170000003516003516          00000000000197      069648         061600   066641   065159   071046   067452   075861   076384   000000   000000   074192   000000   000000               120883061         110810111         100792121    0    090747001    0    080747001    0                                                                                                                                                   
770501102310013 01040 1110231A104-D34            0180500A104-D404           0200900RD34-RD404          0190850002377002377          00000000000197      054600         000000   000000   000000   000000   000000   000000   000000   000000   000000   000000   000000   000000               120546001         110546001         100545511    0    090699001    0    080699001    0                                                                                                                                                   
770501200310013 01040 1110431A104-D404           0200900A104-N34            0230100RD404-RN34          0210200002148002148          00000000001276      065900         000000   000000   000000   000000   000000   000000   000000   000000   000000   000000   000000   000000               120659001         110659001         100659401    0    090753001    0    080753001    0                                                                                                                                                   
770501300310013 01040 1110631A104-N34N           0230100A104-N34S           0240500RN34N-RN34S         0240250001388001388          00000000001276      098000         000000   000000   000000   000000   000000   000000   000000   000000   000000   000000   000000   000000               120980001         110979741         100967191    0    091059001    0    081059001    0                                                                                                                                                   
770501401310013 01040 1110331A104-N34S           0240500A104-D10P           0250150RN34S-RD10P         0240950000634000634          00000000000197      103400         000000   000000   000000   000000   000000   000000   000000   000000   000000   000000   000000   000000               121034201         111010451         100956621    0    091083001    0    081083001    0                                                                                                                                                   
770501402310013 01040 1110431A104-D10P           0250150A104-X 18           0270400RD10P-X18           0260060002253002253          00000000000197      103745         094629   101192   098935   108517   101364   113373   111943   089519   108537   110783   000000   000000               121117921         111114091         101105651    0    091079001    0    081079001    0                                                                                                                                                   
770501403310013 01040 1110431A104-X18            0270400A104-A4             0280500X18-A4              0280000001108001108          00000000000197      107800         000000   000000   000000   000000   000000   000000   000000   000000   000000   000000   000000   000000               121078081         111033001         101033461    0    091061001    0    081061001    0                                                                                                                                                   
950501500310013 01150 1150241A 15                0000000D 139               0040122A115 SANNOIS        0000750004124004124          00000000000594      072000         000000   000000   000000   000000   000000   000000   000000   000000   000000   000000   000000   000000               120720001         110720021         100734471    0    090794001    0    080794001    0                                                                                                                                                   
950501800310013 01150 1140141D 139               0040122D 409               0070850A115 SAINT LEU LA F.0040550003721003721          00000000000992      062236         062753   062146   061019   065754   061398   064828   061786   052707   065853   066994   060072   061758               120618061  477    110629261  457    100616001  477    090525001  277    080525001  277    060406   062242   062938   061372   061631   064729   060888   051049   064016   065959   063639   063039                                      
950501900310013 01150 1140141A115 SAINT LEU LA F.0070850INTER N184 MERY/OISE0110572INTER N184 MERY/OISE0110572003721003721000000000000000000000194      056252         050965   055227   052134   057511   054982   060649   058620   046649   059396   060652   058404   060090               120593291         110593001         100593001    0    090593001    0    080593001    0    000000   000000   000000   000000   000000   000000   000000   000000   000000   000000   000000   000000                                      
770504800310013 01400 1110241LIMITE A140         0050850A140-N36            0070572RD228E-RN36         0070000001722001722          00000000000197      012900         000000   000000   000000   000000   000000   000000   000000   000000   000000   000000   000000   000000               120129221  477    110197801         100199361  467    090183451  447    080200431  507    019830   015401   013001   012312   011940   013049   011073   009042   012280   012892   012400   011947                                      
770500400310013 00020 4110201N2-D404             0100858N2-D401             0130232RD404-RD401         0110700002358002358          00000000001276      045611         000000   000000   000000   000000   000000   000000   000000   000000   000000   000000   000000   000000               120455071 1317    110464001         100464241 1377    090418311 1267    080441161 1267             040677   045632   046035   045388   048628   045971   041103   047439   048443   046962   044216                                      
770000300310013 00030 4110201N3-D212             0040725N3-D404SUD          0090120RD212-RD404SUD      0080800004496004496000000000000000000001276      032597  66     030335   032484   031842   034550   032499   033549   031434   028437   034238   034874   033847   033253               120322981  727    110318901         100313741  770    090349001    0    080349001    0    031632   032192   032713   031926   032242   034305   031598   027072   033696   034607   033503   032222                                      
770001000310013 00040 4110101ECHANGEUR N104      0010000N4-D351             0050235RN104-RD351         0030700003931003931          00000000001276      049200         000000   000000   000000   000000   000000   000000   000000   000000   000000   000000   000000   000000               120491741  957    110482631 1017    100463321 1117    090461961  227    080450001    0                      049523   048825                                                                                                              
770001300310013 00040 4110201N4-D350             0140490N4-N36              0210216RD350-RN36          0200550006910006910          00000000001276      030865 100     027915   030264   029943   032554   031385   033106   030760   026838   032585   032872   031575   030723               120309271 1227    110310811         100302321 1220    090301261    0    080299331    0    029652   029400   031543   031166   031714   033616   030866   026275   032567   032936   031609   029846                                      
770001400310013 00040 4113001N4-N36              0210216N4-D231             0410500RN36-RD231          0340000020175020175          00000000001276      017357         015372   016564   017183   018307   017668   018196   017807   016273   018067   018403   017350   017108               120176361 2337    110177561 2367    100172721 2357    090150241    0    080142741 2637    017173   017423   018010   017678   017685   018609   018126   015963   017945   018106   017933   017018                                      
770001500310013 00040 4113001N4-D231             0410500N4-DPT51            0680927RD231-DPT51         0430200027336027336          51000090031276      011014 292     009398   010038   010612   011416   011358   011692   011616   010901   011500   011821   010992   010776               120111468 3357    110115088         100111171 3227    090110861    0    080110641 3447    010212   010333   011045   011543   011360   011793   011811   010761   011497   011451   011411   010543                                      
940002500310013 00060 4150201RN 6 / RN186        0130195RN 6 / CD 94        0150385ENTRE RN 186 / CD 940140285002190002190          00000000001287      050700         000000   000000   000000   000000   000000   000000   000000   000000   000000   000000   000000   000000               120507381  717    110524611  747    100536791  700    090537411  880    080544741  580    051051   049375   051366   049750   050207   052680                                                                                            
940002600310013 00060 4156001RN 6 / CD 94        0150385RN 6 / CD 38        0170610ENTRE CD 94 ET CD 380160200002225002225          00000000001287      053300         000000   000000   000000   000000   000000   000000   000000   000000   000000   000000   000000   000000               120533008         110533008         100533008    0    090533008    0    080533008    0                                                                                                                                                   
940002800310013 00060 4156001RN 6 / CD 32        0180530ESSONE              0190379ENTRE CD 32 / ESSONE0190000000849000849          91000100031287      034479         034142   034978   034182   035723   034684   036693   036648   032685   036169   033354   028850   035673               120349271         110360531         100415421  517    090425771  537    080434021  557    035413   034976   034712   034840   034683   036126   034771   031164   035393   035912   035429   035769                                      
910000100310013 00060 4110201RN6/LD94            0000000RN6/RD50            0060288N6_BRUNOY           0040772006276003000          94000280031276      035200  61     033233   035050   034365   036395   035231   036912   036021   030528   036789   037015   035924   035098               120343881  567    110348591         100346141 1987    090356471  597    080369001  757    034185   033604   034812   033190   034192   036990   034159   029362   036008   036399   034914   034906                                      
910000400310013 00070 4150201RN7/LD94            0020000ORLY                0040410N7_ORLY             0040410002339000000          94000580031276      058400         000000   000000   000000   000000   000000   000000   000000   000000   000000   000000   000000   000000               120583671  457    110612201  477    100572231  497    090560491  507    080672651  457    062574   061792   062760   061733   056251   060213   054886   045742   059352                                                                 
780100500310013 00100 4110401RN 10 X A 12        0120000RN 10 X RD 912      0130730OUEST A 12 MONTIGNY 0130200001864001864          00000000001276      065148         060519   064420   063694   067917   065416   069813   067154   056636   067118   068965   065505   064861               120665361  767    110675971  807    100670731  787    090674231  757    080655541  787    065327   063855   068175   066915   067270   071736   067456   058553   068652   069459   067351   063786                                      
780100600310013 00100 4110201RN 10 X Panneau Aggl0150120RN 10 X RD 13       0190362NORD EST RD 58      0160900004195004195          00000000000188      053027  77     049102   052212   052240   054712   054020   056186   053876   047691   054492   055835   053065   000000               120545261  797    110552231         100552521  607    090554451  757    080552151  647    052916   053151   055492   056546   056795   057504   055603   048446   055163   056256   054593   051947                                      
780100700310013 00100 4110201RN 10 X RD 13       0190362RN 10 X RD 33       0220725SUD RD 13 COIGNIERES0190800003367003367          00000000001276      049267  78     045029   047968   048618   051533   050069   051797   050661   044587   050889   052205   049393   048543               120495861  777    110512941         100511861  817    090516161    0    080499711 1217    048386   048396   050750   050779   049982   052746   050430   043631   050397   051352   050339   047964                                      
780100800310013 00100 4110201RN 10 X RD 33       0220725RN 10 X RD 191      0260692SUD RD 33           0250170003980003980          00000000000188      041384  76     036776   039175   040228   042707   042377   044460   043347   038511   043263   044011   040963   040768               120419031  787    110430131  797    100429081  727    090429911  697    080426211  747    039902   038893   041871   042609   043447   046749   042588   039077   042307   043310   042088   040004                                      
780100900310013 00100 4110201RN 10 X RD 191      0260692RN 10 X RD 910 SUD  0300644NORD RD 910 SUD PERR0300230004320004320          00000000000188      038199  68     033634   036053   037058   039699   039322   040451   040137   035480   039768   040839   037957   037944               120383981  777    110392201  767    100389171  787    090385881  757    080380871  777    036474   035453   038358   039690   039305   041453   040089   034911   039362   039738   038850   037089                                      
780101000310013 00100 4110201RN 10 X RD 910 SUD  0300644RN 10 X RD 937      0320425NORD RD 937         0310500001783001783          00000000000188      042700         000000   000000   000000   000000   000000   000000   000000   000000   000000   000000   000000   000000               120427001         110427001         100427001  767    090427001  767    080427001  767                                                                                                                                                   
780101200310013 00100 4115001RN 10 X RD 936 EST  0370620BRETELLE A 11       0470555SUD VO DES GREFFIERS0380877009954009954          00000000000188      025900         000000   000000   000000   000000   000000   000000   000000   000000   000000   000000   000000   000000               120259001         110258601         100258531    0    090258531    0    080258531    0                                                                                                                                                   
780106010310013 00120 4110201INTER A86 PONT COLBE0190000PONT COLBERT        0630640LIM EURE-ET-LOIR S.O0200717043850043850000000000000000000000076      040900         000000   000000   000000   000000   000000   000000   000000   000000   000000   000000   000000   000000               120409101         110424391         100432901    0    090420931    0    080457251    0    000000   000000   000000   000000   000000   000000   000000   000000   000000   000000   000000   000000                                      
920004000310013 00130 4150401LIMITE DEP.75       0000000RD 1 NEUILLY        008040030 AV.CH DE GAULLE A0000100004750000000          00000000001276      112172         000000   118352   111092   115086   096471   113006   113246   095568   117375   120226   117647   115061               120746981         111126001         101126091  400    090741491    0    080953001    0                      047399   018277   019450   106851   120276   093228   117403                                                                 
920004200310013 00130 4150201BD CIRCULAIRE       0090000RD 05.PUTEAUX       0100450av PDT WILSON      A0100000001180000000          00000000001276      028600         000000   000000   000000   000000   000000   000000   000000   000000   000000   000000   000000   000000               120286001         110286001         100286001    0    090286001    0    080286001    0                                                                                                                                                   
780102010310013 00130 4130301RN 13 x RN 186      0200000RN 13 X RD 284      0210476Ouest RD 186 Sud    0200600001224001224          00000000000599      068000         000000   000000   000000   000000   000000   000000   000000   000000   000000   000000   000000   000000               120680001         110680001         100680001    0    090680001    0    080680008    0                                                                                                                                                   
780102100310013 00130 4140201RN 13 X RD 284      0210476RN 13 X RN 184      0240180SOUS RD 99          0220600002588002588          00000000001276      043006         040909   044255   041307   045938   042707   046489   041602   034754   045206   045477   045011   042877               120428961  407    110429391  417    100421321  407    090418101  387    080432141  397    043705   041728   044731   042145   043888   047690   041476   032859   044647   045925   044024   042086                                      
780102200310013 00130 4155001RN 13 X RN 184      0240180FIN AGG ST-GERMAIN  0250514EST RD 160          0240306000854000854          00000000001276      021200         020257   021605   020344   023495   020811   022496   020253   017100   022218   022259   022160   021619               120205161  387    110195461  407    100179661  367    090160431  517    080179171  437    020010   019908   020706   019795   020857   022155   020212   016035   021893   021925   021463   021305                                      
950002400310013 00140 4140101A15                 0200000INTER D14/D915      0240800N14 OSNY            0200550005600005600000000000000000000001098      074305         069904   072132   071824   076661   076206   078624   076047   066196   078387   078973   074304   072539               120750311  617    110750931  607    100860001  627    090860001  627    080860001  627    072386   070444   074399   075333   077519   081491   074868   069533   079022   078290   075621   071540                                      
940004200310013 00190 4150201RN 19 / CD 136      0180000RN 19 / CD 94E      0190620ENTRE CD 136 /CD 94E0190600001620001620          00000000001287      035007         033711   036091   035787   038083   034382   034263   033392   027915   036637   037561   036738   035823               120328101  647    110362001         100362001    0    090362001    0    080362401  510                                                          028550   024119   033535   037954   037182   035518                                      
910502200310013 00200 4140201LIAISON A10         0030000LIAISONRN20         0031289LIAISON A10/RN20    0031228001289001289910501800300000000001276      109000         000000   000000   000000   000000   000000   000000   000000   000000   000000   000000   000000   000000               121090001         111090281         101067001    0    091066691    0    081064961    0    000000   000000   000000   000000   000000   000000   000000   000000   000000   000000   000000   000000                                      
770530100310013 00370 4150101N37-A6              0000000VOIRIE DEPARTEMENTAL0020700A6-RD64             0020650003039003039000000000000000000000106      019700         000000   000000   000000   000000   000000   000000   000000   000000   000000   000000   000000   000000               120197001         110197001         100197001    0    090197001    0    080197001    0    000000   000000   000000   000000   000000   000000   000000   000000   000000   000000   000000   000000                                      
950311500310013 01040 4140101INTER N184 PR14     0000000INTER D3            0050997BAILLET EN France   0050700006279006279          00000000000106      042530 109     040866   042775   041274   044406   042808   045064   039069   034205   045984   046746   044986   042530               120446071         110420121         100411021 1120    090393701 1650    080399461 1330                                                                            045416   046187   045428   041397                                      
950311600310013 01040 4140101INTER D3            0060000INTER D47           0100997ATTAINVILLE         0090630004168004168          00000000000106      047684 108     043395   046605   045411   050257   048485   051069   045882   040489   051376   052478   049464   047562               120479191         110484321         100472711 1220    090444411 1720    080445821 1460    046284   046222   049078   048243   048422   052759   047965   039835   050821   051336   049070   045187                                      
950311700310013 01040 4140101INTER D47           0110000INTER N7            0200999LOUVRES             0200000010025010025          00000000000106      048629 119     050116   050308   048098   052578   050016   052995   048075   042786   054008   054084   035674   000000               120506961 1147    110510471         100486921 1260    090455471 2450    080446291 1160    049530   048619   051366   050472   050130   055522   051068   041979   053001   054425   052385   049993                                      
950311800310013 01040 4140101INTER N7            0210000ECHANGEUR A1 PR21   0240800ROISSY EN France    0230700003803003803          00000000000106      037300         000000   000000   000000   000000   000000   000000   000000   000000   000000   000000   000000   000000               120372911 1217    110385591 1147    100405221 1230    090383001    0    080383001    0             038627   037219   036026                                                                                                              
770010505310013 01040 4110201N104-A4             0000000N104-D406           0000800A4-RD406            0000700000800000800          00000000000197      100400         000000   000000   000000   000000   000000   000000   000000   000000   000000   000000   000000   000000               121004001         111004001         101004001    0    091004001    0    081004001    0                                                                                                                                                   
770010504310013 01040 4110201N104-D406           0000800N104-D361           0030570RD406-RD361         0020150002746002746          00000000000197      101600         000000   000000   000000   000000   000000   000000   000000   000000   000000   000000   000000   000000               121015581 1017    111032361         100980771 1237    091039001 1137    081039001 1137    100058   101094   103791   103506   103987   109190   108883   081971   108166   095425                                                        
770010503310013 01040 4110201N104-D361           0030570N104-BERC.          0040500RD361-BERCHERES     0040170001064001064          00000000000197      098300         000000   000000   000000   000000   000000   000000   000000   000000   000000   000000   000000   000000               120983001         110982551         100986081    0    090990701    0    080986911    0                                                                                                                                                   
770010502310013 01040 4110201N104-BERC.          0040500N104-D21            0060240BERCHERES-RD21      0050410001649001649          00000000000197      115500         000000   000000   000000   000000   000000   000000   000000   000000   000000   000000   000000   000000               121155001         111155001         101155001    0    091154841    0    081268361    0                                                                                                                                                   
770010501310013 01040 4110201N104-D21            0060240N104-N4             0060978RD21-RN4            0060560000738000738          00000000000197      091700         000000   000000   000000   000000   000000   000000   000000   000000   000000   000000   000000   000000               120917001         110917001         100917001    0    090917001    0    080917121    0                                                                                                                                                   
770010400310013 01040 4110201N104-N4             0060978N104-D51E1          0090930RN4-RD51E1          0080000002852002852          00000000001276      076777 121     069745   074181   075548   080597   076924   079628   079187   071665   079091   081115   076679   077004               12076492111208    11076514111507    100753711 1527    090742001 1537    080742071 1537    073443   074324   076720   076428   077791   081582   075979   069042   080846   079775   077426   074748                                      
770010303310013 01040 4110201N104-D51E1          0100000N104-D51            0120670RD51E1-RD51         0100900002660002660          00000000000197      072000         000000   000000   000000   000000   000000   000000   000000   000000   000000   000000   000000   000000               120720001         110720041         100721001    0    090721001    0    080721001    0                                                                                                                                                   
770010302310013 01040 4110201N104-D51            0120670N104-FEROLLES       0131095RD51-FEROLLES       0131000001407001407          00000000000197      071600         000000   000000   000000   000000   000000   000000   000000   000000   000000   000000   000000   000000               120716001         110716421         100712351    0    090710001    0    080710001    0                                                                                                                                                   
770010301310013 01040 4110201N104-FEROLLES       0131095N104-N19            0160001FEROLLES-RN19       0140650001613001613          00000000000197      069000         000000   000000   000000   000000   000000   000000   000000   000000   000000   000000   000000   000000               120690001         110682221         100732001    0    090732001    0    080732001    0                                                                                                                                                   
770010202310013 01040 4110201N104-N19            0160001N104-BRTE.BRIE      0171488RN19-BRET.BRIE      0170400003165003165          00000000000197      075200         000000   000000   000000   000000   000000   000000   000000   000000   000000   000000   000000   000000               120752001         110752311         100787091    0    090711001    0    080711001    0                                                                                                                                                   
770010201310013 01040 4110401N104-BRET.BRIE      0171488N104-A5b            0190250BRET.BRIE-A5b       0190130001348001348          00000000000197      083000         000000   000000   000000   000000   000000   000000   000000   000000   000000   000000   000000   000000               120830001         110830001         100359001    0    090359001    0    080359001    0                                                                                                                                                   
770010102310013 01040 4110201N104-A5b            0190250N104-M4             0240955A5b-M4              0220400005253005253          00000000000197      054368         000000   000000   051970   055865   053348   059371   058956   046111   056131   057891   000000   054184               120526681         110525521         100525701    0    090484001    0    080484001    0                                                                                                                                                   
770010101310013 01040 4110201N104-M4             0240955N104-D50            0260228M4-RD50             0250820001272001272          00000000000197      055300         000000   000000   000000   000000   000000   000000   000000   000000   000000   000000   000000   000000               120552571         110551321         100555731    0    090532001    0    080532001    0                                                                                                                                                   
770010002310013 01040 4110201N104-D50            0260228N104-N6             0270345RD50-RN6            0260900001113001113          00000000000197      061200         000000   000000   000000   000000   000000   000000   000000   000000   000000   000000   000000   000000               120611741         110609581         100611311    0    090490001    0    080490001    0                                                                                                                                                   
770010001310013 01040 4110601N104-N6             0270345N104-A5a            0281074RN6-A5a             0280100001770002276          00000000000197      095800         000000   000000   000000   000000   000000   000000   000000   000000   000000   000000   000000   000000               120958001         110958051         100924001    0    090743001    0    080743001    0                                                                                                                                                   
910100200310013 01040 4110201RN104/PR29          0290000RN104/VILLEPECLE    0300459ENTREPR29/VILLEPECLE0290502001500001500          00000000000194      083900         000000   000000   000000   000000   000000   000000   000000   000000   000000   000000   000000   000000               120838631         110850001         100849791    0    090751751    0    080734061    0    000000   000000   000000   000000   000000   000000   000000   000000   000000   000000   000000   000000                                      
910100300310013 01040 4110201RN104/VILLEPECLE    0300459RN104/RD33          0310274N104_TIGERY         0300931000825000825          00000000000194      088193         079135   083659   084120   090098   089111   092679   092123   080669   090507   094550   092311   089334               120917321 1427    111021861 1347    100905331 1517    090777181 1627    080744761 1827    099698   098494   101403   101076   096702   092814   088155   075269   086866   089238   088283   083284                                      
910100400310013 01040 4140201RN104/RD33          0310274RN104/N448          0330150ENTRE RD33/RN448    0320500001779001779          00000000000194      109400         000000   000000   000000   000000   000000   000000   000000   000000   000000   000000   000000   000000               121094141         110988461         101070081    0    090980001    0    080950461    0    000000   000000   000000   000000   000000   000000   000000   000000   000000   000000   000000   000000                                      
910100500310013 01040 4150201RN104/N448          0330150RN104/RN7           0340908ENTRE RN448/RN7    A0330995001759000000          00000000000194      118924 115     110272   117155   115436   123534   118791   124271   122659   104233   124028   127616   121546   117948               121128891 1167    111071591         101066171 1180    091069051 1130    080934001    0    102076   103936                                                                  123322   120767   114344                                      
910100600310013 01040 4150201RN104/RN7           0340908RN104/A6            0360948ENTRE RN7/A6    A   0360000002033000000          00000000000194      097950         090371   096288   095793   100267   095944   104449   103363   087899   102333   103055   000000   000000               120954031         110972771         100776001    0    090776001    0    080776001    0    000000   000000   000000   000000   000000   000000   000000   000000   000000   000000   000000   000000                                      
910100700310013 01040 4150201N104/A6             0360948N104/RD93           0380829ENTRE A6/RD93       0380305001967000000          00000000000106      075290         070099   074514   074170   000000   073320   079934   078399   067322   076760   000000   000000   000000               120727071         110686781         100675581    0    090764001    0    080764001    0    000000   000000   000000   000000   000000   000000   000000   000000   000000   000000   000000   000000                                      
910100800310013 01040 4150201N104/RD93           0380829N104/N449           0400388N104_EVRY           0391097001726000000          00000000000106      042585         037948   039081   041360   042839   042962   046023   046940   047468   044548   039841   038102   043611               120427221 1527    110472911         100486251 1010    090493861 1640    080493931 1740    044379   045996   044455                                                042551   041897   041060   038719                                      
910100900310013 01040 4140201RN104/N449          0400388RN104/RD31          0410700ENTRE RN449/RD31 A  0410535001917000000          00000000000194      086000         000000   000000   000000   000000   000000   000000   000000   000000   000000   000000   000000   000000               120860251         110844451         100781561    0    090840001    0    080836001    0    000000   000000   000000   000000   000000   000000   000000   000000   000000   000000   000000   000000                                      
910101000310013 01040 4140201RN104/RD31          0410700RN104/N445          0440471N104_FLEURY         0430860002656000000          00000000000194      083642 140     075832   081177   082243   086941   082251   088466   089051   076783   086634   089603   083072   081754               120833131 1347    110828471         100777681 1357    090821011 1227    080823771 1417    079827   081382   084302   084275   082318   089272   086225   074990   087095   086318   083876   080117                                      
910101100310013 01040 4150201RN104/N445          0440471RN104/D117          0450435ENTRE RN445/RD117  A0450000000948000000910101000300000000000194      072199         065411   070229   072054   073768   070201   077770   078146   065250   074577   076413   071263   071392               120777861         110755961         100611601    0    090613371    0    080632101    0    000000   000000   000000   000000   000000   000000   000000   000000   000000   000000   000000   000000                                      
910101200310013 01040 4150201RN104/D117          0450435RN104/D133          0480710ENTRE RD117/RD133  A0470000003261000000910101300300000000000194      073500         000000   000000   000000   000000   000000   000000   000000   000000   000000   000000   000000   000000               120735331         110743801         100733111    0    090742501    0    080764831    0    000000   000000   000000   000000   000000   000000   000000   000000   000000   000000   000000   000000                                      
910101300310013 01040 4110201RN104/D133          0480710RN104/N20           0500881N104_LINAS          0500047002739000000          00000000000194      070075 126     066902   067444   068577   072837   072240   075247   070653   066452   072870   072956   068011   066745               120696481 1297    110705701         100524071 1267    090477251 1957    080727771 1957    067020   069844   072338                                                073232   071211   068225   065669                                      
910101400310013 01040 4110201RN104/N20           0500881RN104/A10           0590610N104_MARCOUSSIS     0560466008802008802          00000000000194      050575         045385   049248   050242   052993   050613   052568   054214   048714   051822   053357   048781   048954               120511231 1577    110513851         100517361 1587    090554481 1447    080567011 1517    048872   050487   051753   051702   049512   053962   054274   048567   053066   052292   050988   048136                                      
770550100310013 01050 4110201N105-A5b            0140000N105-N6             0150665A5b-RN6             0150000001872001872000000000000000000000106      038600         000000   000000   000000   000000   000000   000000   000000   000000   000000   000000   000000   000000               120386001         110386001         100386001    0    090386001    0    080385961    0    000000   000000   000000   000000   000000   000000   000000   000000   000000   000000   000000   000000                                      
920501800310013 01180 4150501RN 10 Pont de Sévres0000000RD 181/LES BRUYERES 0020155RN10/RD 181         0020116002155000000          00000000001276      097670         090649   098051   094809   101262   094320   107380   104652   077830   101810   104378   099393   098164               120955661         110982441         100979981    0    090988001    0    080980021    0                                                                                                                                                   
920501900310013 01180 4150501RD 181 LES BRUYERES 0020155LIMITE DEP 78       0041124LIMITE YVELINES MEUD0040123003008000000          00000000001276      101500         000000   000000   000000   000000   000000   000000   000000   000000   000000   000000   000000   000000               121015331         111034961         101047621    0    091057521    0    081053201    0                                                                                                                                                   
780102800310013 01180 4110301LIMI HAUTS DE SEINE 0050000LIMI ESSONNE        0070057NORD A 86           0050575001891001891          00000000000188      049300         000000   000000   000000   000000   000000   000000   000000   000000   000000   000000   000000   000000               120492791         110494991         100475771    0    090478031    0    080478191    0                                                                                                                                                   
910001400310013 01180 4150201RN118/LD78          0000000N118/N444           0020898N118_BIEVRES        0000527002844000000          78011216031276      088390  64     079697   085954   084323   091773   087440   095090   095173   079768   092114   093416   088480   087665               120889191  597    110888581         100857281  950    090794251  900    080882571  530                      089116   088879   087336   095646   092320   078449   092106   092416   088860   084386                                      
910001500310013 01180 4110201N118/N444           0020898N118/PR 5.100       0050100ENTRE RN444/PR 5.1000030429002188000000          00000000001276      064043         056563   061268   061026   066735   060706   071813   070962   057673   066700   068267   063596   063352               120648631         110637201         100639031    0    090628991    0    080629481    0                                                                                                                                                   
910001600310013 01180 4110201N118/PR5.100        0050100N118/N446           0070153N118_SACLAY         0070179001998001998          00000000001276      063716         059842   060160   060522   064172   063956   068129   070099   060045   066545   000000   000000   000000               120637161  577    110648051  597    100633371  587    090645651  547    080654471  597    059832   059318   063590   064627   063512   069670   068188   059483   066550   066700   063486   059656                                      
910001700310013 01180 4110201N118/RN446          0070153N118/RD128          0090473ENTRE RN446/RD128   0090315002265002265          00000000001276      068400         000000   000000   000000   000000   000000   000000   000000   000000   000000   000000   000000   000000               120684001         110683961         100684681    0    090682701    0    080689571    0                                                                                                                                                   
910001800310013 01180 4140201N118/D128           0090473N118/PR11           0110000ENTRE RD128/PR11  A 0100097001608000000          00000000000194      074000         000000   000000   000000   000000   000000   000000   000000   000000   000000   000000   000000   000000               120739531         110739901         100718291    0    090709131    0    080673001    0                                                                                                                                                   
910002000310013 01180 4150201N118/PR11           0110000N118/N188           0120521ENTRE PR11/RN188  A 0120000001502000000910001800300000000001276      074918         000000   000000   070198   077923   073764   081482   079866   000000   077980   079419   073203   072984               120677741         110687751         100688211    0    090677861    0    080682711    0    000000   000000   000000   000000   000000   000000   000000   000000   000000   000000   000000   000000                                      
910002100310013 01180 4150201RN118/RN188         0120521RN118/RD218         0130512ENTRE RN188/RD218  A0130000001067000000          00000000001276      057400         000000   000000   000000   000000   000000   000000   000000   000000   000000   000000   000000   000000               120574331         110580181         100562441    0    090660801    0    080660801    0    000000   000000   000000   000000   000000   000000   000000   000000   000000   000000   000000   000000                                      
910002200310013 01180 4150201RN118/D218          0130512RN118/D118          0140516ENTRE D218/D118 A   0140200000999000000910001800300000000001276      057700         000000   000000   000000   000000   000000   000000   000000   000000   000000   000000   000000   000000               120577101         110535981         100580791    0    090677001    0    080683001    0    000000   000000   000000   000000   000000   000000   000000   000000   000000   000000   000000   000000                                      
910002300310013 01180 4110201RN118/D118          0140516RN118/A10           0150370N118_ULIS           0140895000851000851          00000000001276      052343  50     046154   050503   052499   056527   055818   059321   062015   054367   056768   051795   041495   040833               120566511  567    110561531  628    100557771  747    090555791  737    080560241  807                               057175   055468   060593   061513   053679   057682   057548   054514   051685                                      
780103390310013 01840 4115001RN 184 x RD 190     0120700RN 184 x RD 308     0160585sud RD 308 St-Germai0160500003862003862          00000000000198      024900         000000   000000   000000   000000   000000   000000   000000   000000   000000   000000   000000   000000               120249101  697    110258921  637    100256731  597    090258221  567    080113741  337    024585   023806   025809   024958   025391                                                                                                     
780103400310013 01840 4115001RN 184 X RD 308     0160585RN 184 X RD 30      0210640SUD RD 31 ST-GERMAIN0210500005042005042          00000000000789      032784  66     031116   032773   031313   035364   033352   000000   000000   000000   000000   000000   000000   000000               120332381  647    110335331  657    100329731  637    090243811  637    080277541  637    032657   031558   034329   032868   033755   036591   033742   027657   035059   035567   033723   031409                                      
950005100310013 01840 4140101DEPT.78             0000000A 15                0020800N184 ERAGNY/OISE    0010000002787002787          00000000000796      045000         000000   000000   000000   000000   000000   000000   000000   000000   000000   000000   000000   000000               120450001         110450001         100450001  630    090450001  630    080450001  630    000000   000000   000000   000000   000000   000000   000000   000000   000000   000000   000000   000000                                      
950005200310013 01840 4140101A 15                0020800FOND DE VAUX        0030800N184 ST.OUEN L'AUM. 0030500000988000988          00000000000797      070780         068365   071178   069501   074225   071083   074217   066423   058581   077231   078120   072192   068763               120698701  857    110673871  897    100652331 1037    090663361 1277    080673711 1067    000000   000000   000000   070892   071897   076105   063980   056850   075283   077033   069317   067471                                      
950005300310013 01840 4140201RN14 ST.O.L'AUMONE  0030800CARF.GROS CHEVAUX   0060100RN184 DOUBLE=PR4+0000040000002364002364          00000000000392      058300         000000   000000   000000   000000   000000   000000   000000   000000   000000   000000   000000   000000               120582961         110638091         100599501    0    090614371    0    080627911    0    000000   000000   000000   000000   000000   000000   000000   000000   000000   000000   000000   000000                                      
950005400310013 01840 4140201FOND DE VAUX        0060100D 104               0100120N184 MERY/OISE      0080080004044004044950005600300000000000993      053900         000000   000000   000000   000000   000000   000000   000000   000000   000000   000000   000000   000000               120539001         110539001         100539361    0    090523631    0    080531061    0    000000   000000   000000   000000   000000   000000   000000   000000   000000   000000   000000   000000                                      
950005600310013 01840 4120101D 104               0110130A 16                0170910N184 NERVILLE LA F..0160850006829006829950005600300000000000198      045616         041339   044477   043829   048236   046769   047777   046877   040854   048285   048363   046437   044307               120450961         110451981         100431891  677    090403431  857    080404111  887    000000   000000   000000   000000   000000   000000   000000   040051   048096   047927   046156   043249                                      
780104000310013 01860 4110101RN 186 X RD 386     0230140RN 186 X RD 386     0250585NORD RD 386 SUD     0250500002390002390          00000000000188      023139  84     022127   024373   022310   024803   023526   025094   023566   019585   023670   024026   022807   022022               120241901         110239601  766    100242671  797    090199801  597    080219511  577    023273   022525   023730   022900   023505   026253   023744   025964   025958            023871   024335                                      
910002500310013 01880 4113001RN188/A10           0040000VILLEBON / YVETTE   0050270N188_VILLEBON / Y   0050270001125004186          00000000000194      010700         000000   000000   000000   000000   000000   000000   000000   000000   000000   000000   000000   000000               120107001         110107001  187    100106731  187    090123701    0    080126971  187                                                                                                                                                   
780105000310013 01910 4113001ECHANGEUR A10       0550000RN 191 X RD 116     0610027OUEST RD 4 ALLAINVIL0560300005500005500          00000000000188      009775         007085   007595   009063   009547   010750   010396   011911   012433   010195   010076   008838   009196               120097681 1627    110097801         100097681 1617    090096651  167    080093311 1677    007704   007782   008522   010246   010836   010238   012118   011914   010265   009428   009155   008914                                      
920005400310013 01920 4157001bd CIRCULAIRE       0000000RD908               0100980MISSION MARCHAND   A0090700001380000000          00000000001276      020500         000000   000000   000000   000000   000000   000000   000000   000000   000000   000000   000000   000000               120205001         110205001         100205001    0    090205001    0    080205001    0                                                                                                                                                   
