240000100210015 00210 4113 51DEPARTEMENT 87      0000000RD 81               0220099LA COQUILLE         0020500022178018301240000301387000100030190      000000                                                                                                                                 140000001         130000001         120000001         110000001         100021601 1137                                                                                                                                                   
240000100110015 00210 4113 51DEPARTEMENT 87      0000000RD 81               0220099LA COQUILLE         0020500022178018301240000301387000100030190      000000                                                                                                                                 140000001         130000001         120000001         110000001         100018671    7                                                                                                                                                   
320000100310015 00210 4112 51DEPARTEMENT 47      0000000RD 36               0100760SEMPESSERRE         0000900010767010767360000280347000080030790      000000                                                                                                                                 140000001         130000001         120000001         110000001         100000001                                                                                                                                                        
320000100210015 00210 4112 51DEPARTEMENT 47      0000000RD 36               0100760SEMPESSERRE         0000900010767010767360000280347000080030790      000000                                                                                                                                 140000001         130000001         120000001         110000001         100000001                                                                                                                                                        
320000100110015 00210 4112 51DEPARTEMENT 47      0000000RD 36               0100760SEMPESSERRE         0000900010767010767360000280347000080030790      000000                                                                                                                                 140000001         130000001         120000001         110000001         100000001                                                                                                                                                        
470000100310015 00210 4813001DEPARTEMENT 24      0000000RD 124              0170755CASTILLONES         0090300017709014709470000202324000080030187      007889                                                                                                                                 140000008         130000008         120000008         110000008         100000008                                                                                                                                                        
180000200310015 00200 1110241A71                 0000000Ech. 6              0020675VIERZON             0010250002674002674180002100300000000000195      023676 2027    016833   019356   018957   024101   025073   022922   031350   034014   022619   023869   021841   022651               140000001         130000001         120206821 1987    110209871 1927    100237371                                                                                                                                                        
180000200110015 00200 1110241A71                 0000000Ech. 6              0020675VIERZON             0010250002674002674180002100300000000000195      011964 2017    008240   009932   009671   012810   012233   011751   017546   015461   010900   011799   011138   011851               140000001         130000001         120092181 2207    110095691 2097    100125771                                                                                                                                                        
180000200210015 00200 1110241A71                 0000000Ech. 6              0020675VIERZON             0010250002674002674180002100300000000000195      011712 2027    008593   009424   009286   011291   012840   011171   013804   018553   011719   012070   010703   010800               140000001         130000001         120114641 1897    110114181 1857    100111601                                                                                                                                                        
360000200310015 00200 1810241DPT 18              0230000Ech. 10 Sud         0320000Vatan               0270000009000009000360000280300000000000101      020130                                                                                                                                 140000008         130000008         120209228         110202388         100000008                                                                                                                                                        
240000201310015 00210 4813 51RD 81               0220099RD 8                0350080NEGRONDES           0310800013014011748240000301300000000000187      014356                                                                                                                                 140000008         130000008         120052478         110000008         100000008                                                                                                                                                        
470000201310015 00210 4813001RD 124              0170755RD 2021NORD         0330105CANCON              0190000015552013619470000202300000000000193      008803                                                                                                                                 140000008         130000008         120000008         110000008         100000008                                                                                                                                                        
240000202310015 00210 4813 51RD 8                0350080RD 705              0450555BUJADELLES          0400000010077008359240000301300000000000187      015908                                                                                                                                 140000008         130000008         120058148         110000008         100000008                                                                                                                                                        
470000202310015 00210 4113 51RD 2021NORD         0330105RN 2021SUD          0400418VILLENEUVE SUR LOT  03809000082670082674700003003          0187      013421  887    012045   012279   013128   014193   013139   014036   013698   013453   014540   013770   013243   013498               140000001         130000001         120000001         110000001         100000001                                                                                                                                                        
470000202110015 00210 4113 51RD 2021NORD         0330105RN 2021SUD          0400418VILLENEUVE SUR LOT  03809000082670082674700003003          0187      006764  857    006063   006158   006621   007348   006646   007040   006858   006692   007326   006919   006691   006793               140000001         130000001         120000001         110000001         100040831    7                                                                                                                                                   
470000202210015 00210 4113 51RD 2021NORD         0330105RN 2021SUD          0400418VILLENEUVE SUR LOT  03809000082670082674700003003          0187      006657  907    005982   006121   006507   006845   006493   006996   006840   006761   007214   006851   006552   006705               140000001         130000001         120000001         110000001         100000001                                                                                                                                                        
470000203310015 00210 4813001RN 2021 SUD         0400418RD 110              0490450ST ANTOINE de FICA. 0460230009485008609470000300300000000000187      011486                                                                                                                                 140114798         130000008         120000008         110000008         100000008                                                                                                                                                        
470000203210015 00210 4813 51RN 2021 SUD         0400418RD 110              0490450ST ANTOINE de FICA. 04602300094850086094700003003          0187      000000                                                                                                                                 140000008         130000008         120000008         110000008         100000008                                                                                                                                                        
470000203110015 00210 4813001RN 2021 SUD         0400418RD 110              0490450ST ANTOINE de FICA. 0460230009485008609470000300300000000000187      000000                                                                                                                                 140000008         130000008         120000008         110000008         100000008                                                                                                                                                        
360000210210015 00200 1110241ECH_09              0230000ECH_10N             0270575SRDT_A20_09_10N     0270000004575004575360000280300000000000213      010704 2077    007687   008390   008228   010220   012075   010180   012982   018094   010816   010615   008943   009906               140105901 2077    130105191 1757    120076101 1637    110000001         100000001         007726   007743   008566   010559   010395   011344   012600   018140   010721   010112   009279   009602                                      
360000210310015 00200 1110241ECH_09              0230000ECH_10N             0270575SRDT_A20_09_10N     0270000004575004575360000280300000000000213      021523 1737    015089   017406   016654   021892   023477   020989   029513   032924   020604   021271   017215   020672               140212671 1957    130211031 1757    120151851 1657    110000001         100000001         014924   016023   016911   021875   021134   022572   028433   033453   020524   020696   017973   020107                                      
360000210110015 00200 1110241ECH_09              0230000ECH_10N             0270575SRDT_A20_09_10N     0270000004575004575360000280300000000000213      010819 1047    007402   009016   008426   011672   011402   010809   016531   014830   009788   010656   008272   010766               140106771 1707    130105841 1767    120075751 1687    110000001         100000001         007198   008280   008345   011316   010739   011228   015833   015313   009803   010584   008694   010505                                      
360000220110015 00200 1110241ECH_10N             0270575ECH_10S             0320645SRDT_A20_10N_10S    0310800009070009070360000280300000000000213      006984 1887    006701   008252   007646   010833   010660   009974   015851   013739   000013   000012   000009   000010               140099821 1817    130099981 1747    120043341 1927    110000001         100000001         006703   007722   007810   010691   009790   010621   015129   014532   009021   009780   007939   009776                                      
360000220310015 00200 1110241ECH_10N             0270575ECH_10S             0320645SRDT_A20_10N_10S    0310800009070009070360000280300000000000213      017074 1907    013918   016124   015333   020426   022118   019524   028251   031129   010125   009933   008316   009273               140199461 1897    130199901 1647    120087221 1857    110000001         100000001         013701   014957   015851   020659   019311   021337   027084   031998   019098   019301   016660   018849                                      
360000220210015 00200 1110241ECH_10N             0270575ECH_10S             0320645SRDT_A20_10N_10S    0310800009070009070360000280300000000000213      010090 1917    007217   007872   007687   009593   011458   009550   012400   017390   010112   009921   008307   009263               140099641 1947    130099921 1597    120043881 1817    110000001         100000001         006998   007235   008041   009968   009521   010716   011955   017466   010077   009521   008721   009073                                      
360000250110015 00200 1110241ECH_15              0770000ECH_16              0820700SRDT_A20_15_16      0800600005700005700360000280300000000000213      012272 1717    008598   010157   009636   013039   012820   012250   017811   016962   011460   012144   009811   012293               140122231 1927    130122511 1947    120120821 1947    110000001         100000001         008860   009858   010075   012851   011937   012887   017582   017302   011345   011885   009997   011805                                      
360000250310015 00200 1110241Ech. 15             0770000Ech. 17 Nord        0870000Tendu               08400000101000101003600002803          0101      024557 1887    017689   019932   019338   024873   026363   024073   032451   037132   023891   024312   020220   023795               140243701 1937    130000001         120000001         110000001         100000001         018223   019195   020371   024841   023626   025750   031832   037430   023519   023508   020632   022915                                      
360000250210015 00200 1110241ECH_15              0770000ECH_16              0820700SRDT_A20_15_16      0800600005700005700360000280300000000000213      012285 1967    009091   009775   009702   011834   013543   011823   014640   020170   012431   012168   010409   011502               140121471 1947    130122301 1837    120119451 1857    110000001         100000001         009363   009337   010296   011990   011689   012863   014250   020128   012174   011623   010635   011110                                      
360000255210015 00200 1110241ECH_16              0820700ECH_17N             0860800SRDT_A20_16_17N     0850100004100004100360000280300000000000213      012190 1767    009048   009709   009645   011872   012679   011777   014697   020202   012428   012139   010348   011427               140121481 1927    130120921 1847    120120491 1847    110000001         100000001         009241   009268   010241   012072   011676   012872   014308   020245   012178   011662   010676   011032                                      
360000255310015 00200 1110241ECH_16              0820700ECH_17N             0860800SRDT_A20_16_17N     0850100004100004100360000280300000000000213      024399 1777    017560   019691   019188   024779   025409   023927   032923   036979   023802   024202   020082   023636               140242991 1897    130243421 1867    120241131 1877    110000001         100000001         018093   019091   020268   024909   023557   025679   031818   037462   023259   023458   020579   022825                                      
360000255110015 00200 1110241ECH_16              0820700ECH_17N             0860800SRDT_A20_16_17N     0850100004100004100360000280300000000000213      012209 1797    008512   009982   009543   012907   012730   012150   018226   016777   011374   012063   009734   012209               140121511 1847    130122501 1907    120120641 1927    110000001         100000001         008852   009823   010027   012837   011881   012807   017510   017217   011081   011796   009903   011793                                      
360000260310015 00200 1810241Ech. 17 Nord        0870100Ech. 17 Sud         0890500St Marcel           0880000002400002400360000280300000000000101      022343                                                                                                                                 140000008         130000008         120232238         110224648         100000008                                                                                                                                                        
360000270310015 00200 1110241ECH_18              0940000ECH_19              1010600SRDT_A20_18_19      0940700007600007600000000000000000000000213      020161 2097    014796   016887   014336   021620   022957   015328   024242   031520   020879   021166   017080   020620               140000001         130211571 2107    120213701 2107    110000001         100000001                                                                                                                                                        
360000270110015 00200 1110241ECH_18              0940000ECH_19              1010600SRDT_A20_18_19      0940700007600007600000000000000000000000213      010876 2207    007160   008614   008129   011485   011474   010716   017121   015904   009958   010634   008279   010722               140000001         130106101 2187    120106921 2167    110000001         100000001                                                                                                                                                        
360000270210015 00200 1110241ECH_18              0940000ECH_19              1010600SRDT_A20_18_19      0940700007600007600000000000000000000000213      009285 2037    007636   008273   006207   010135   011483   004612   007121   015616   010921   010532   008801   009898               140000001         130105471 2067    120106781 2077    110000001         100000001                                                                                                                                                        
360000280310015 00200 1110241ECH_19              1010600ECH_20              1090500VIGOUX              1050280007900007900000000000000000000000100      020918 2147    014162   016321   015703   021018   022757   020128   029498   033998   020083   020498   016374   019834               140000001         130000001         120217411 1497    110210301 1637    100204411 1687                                                                                                                                                   
360000280110015 00200 1110241ECH_19              1010600ECH_20              1090500VIGOUX              10502800079000079000000000000000      00100      010507 2197    006867   008367   007850   011097   011058   010306   016593   015448   009614   010279   007962   010337               140000001         130000001         120107561    7    110108391 1607    100101811 1737                                                                                                                                                   
360000280210015 00200 1110241ECH_19              1010600ECH_20              1090500VIGOUX              10502800079000079000000000000000      00100      010411 2117    007295   007954   007853   009921   011699   009822   012905   018550   010469   010219   008412   009497               140000001         130000001         120109851 2027    110101911 1657    100102601 1667                                                                                                                                                   
360000290110015 00200 1110241ECH_20              1090500ECH_21              1200000SRDT_A20_20_21      1180250010500010500000000000000000000000213      010190 2257    006538   008004   007461   010702   010735   009911   016192   014862   009192   009757   008666   009973               140102801 2147    130102261 1967    120000001         110000001         100000001         006593   007519   007731   010378   010432   010659   015555   018094   009047   009617   007772   009592                                      
360000290310015 00200 1110241ECH_20              1090500ECH_21              1200000SRDT_A20_20_21      1180250010500010500000000000000000000000213      020384 2247    013483   015587   014916   020219   022106   019294   030703   032834   019270   019291   017168   019091               140198451 2247    130202981 1927    120000001         110000001         100000001         013572   014441   015620   019908   020121   021263   027750   032176   019055   019038   016160   018417                                      
360000290210015 00200 1110241ECH_20              1090500ECH_21              1200000SRDT_A20_20_21      1180250010500010500000000000000000000000213      010194 2237    006945   007583   007455   009517   011371   009383   014511   017972   010078   009534   008502   009118               140095651 2307    130100721 1907    120000001         110000001         100000001         006979   006922   007889   009530   009689   010604   012195   014082   010008   009421   008388   008825                                      
180000300310015 00200 1110241ECH_08N             0080400ECH_08S             0140600MASSAY              0120310006200006200180002100300000000000195      008923 2077    014154   008562   007970   009961   011695   009831   012586   017621   010448   004043   000000   000000               140000001         130000001         120000001         110000001         100206571    8                                                                                                                                                   
180000300210015 00200 1110241ECH_08N             0080400ECH_08S             0140600MASSAY.sens2        0120310006200006200180002100300000000000195      008325 2057    007471   008162   007970   009961   011695   009831   012586   017621   010448   004043   000000   000000               140000001         130000001         120000001         110000001         100103971    8                                                                                                                                                   
180000300110015 00200 1110241ECH_08N             0080400ECH_08S             0140600MASSAY.sens1        0120310006200006200180002100300000000000195      000598 2687    006683   000400   000000   000000   000000   000000   000000   000000   000000   000000   000000   000000               140000001         130000001         120000001         110000001         100102601    8                                                                                                                                                   
230000300310015 01450 4110201DEPARTEMENT 87      0000000RD 951              0110723ST MAURICE LA SOU   0030090010835010835240000301387000160030190      000000                                                                                                                                 140000001         130000001         120000001         110000001         100000001                                                                                                                                                        
230000300210015 01450 4110201DEPARTEMENT 87      0000000RD 951              0110723ST MAURICE LA SOU   0030090010835010835240000301387000160030190      000000                                                                                                                                 140000001         130000001         120000001         110000001         100000001                                                                                                                                                        
230000300110015 01450 4110201DEPARTEMENT 87      0000000RD 951              0110723ST MAURICE LA SOU   0030090010835010835240000301387000160030190      000000                                                                                                                                 140000001         130000001         120000001         110000001         100000001                                                                                                                                                        
470000300110015 00210 4115 51RD 110              0490450RN 1021 Foulayronnes0610240LA CROIX BLANCHE    05505000116790102224700003003          0187      005575         005243   005180   005462   005521   005534   005970   005728   005509   005812   005704   005575   005643               140055751  628    130000001         120000001         110000001         100000001    8    005196   005271   005548   005633   005525   005815   005723   005474   005876   005845   005525   005455                                      
470000300310015 00210 4115 51RD 110              0490450RN 1021 Foulayronnes0610240LA CROIX BLANCHE    05505000116790102224700003003          0187      011184         010499   010375   010933   011036   011111   011963   011477   011083   011689   011519   011180   011303               140111771  668    130000001         120000001         110000001         100000001    8    010398   010546   011109   011294   011058   011673   011464   011010   011814   011741   011070   010921                                      
470000300210015 00210 4115 51RD 110              0490450RN 1021 Foulayronnes0610240LA CROIX BLANCHE    05505000116790102224700003003          0187      005609         005256   005195   005471   005515   005577   005993   005749   005574   005877   005815   005605   005660               140056021  688    130000001         120000001         110000001         100000001    8    005202   005275   005561   005661   005533   005858   005741   005536   005938   005896   005545   005466                                      
240000301310015 00210 4113 51RD 705              0450555RD 6                0490864SARLIAC             0460200004233003931240000301300000000000187      025715  327    008909   007426   011788   015662   025957   012478   026645   035030   032234   018983   012940   097805               140000001         130000001         120093981 1227    110000001         100087221 1227                                                                                                                                                   
240000301110015 00210 4113 51RD 705              0450555RD 6                0490864SARLIAC             0460200004233003931240000301300000000000187      017520  207    003855   003896   003885   005014   005583   003228   018432   026618   025613   014271   008950   088696               140000001         130000001         120045091 1077    110000001         100046761    7                                                                                                                                                   
240000301210015 00210 4113 51RD 705              0450555RD 6                0490864SARLIAC             0460200004233003931240000301300000000000187      008195  457    005054   003530   007903   010648   020374   009250   008213   008412   006621   004712   003990   009109               140000001         130000001         120048891 1297    110000001         100040461    8                                                                                                                                                   
240000302310015 00210 4813 51RD 6                0490864PERIGUEUX           0560190TRELISSAC           0530000006324004754240000301300000000000187      042903                                                                                                                                 140000008         130000008         120156808         110000008         100000008                                                                                                                                                        
180000310110015 00200 1110241ECH_06              0020700ECH_07              0050700SRDT_A20_06_07      0040455003000003000180002100300000000000213      011901 1727    008527   010236   009618   013018   012630   012116   017872   015844   011224   010916   011095   009555               140119051 1827    130000001         120083851 1897    110000001    0    100000001    0    008445   009551   009701   012677   011683   012664   017025   016257   010997   011915   009882   011787                                      
180000310310015 00200 1110241ECH_06              0020700ECH_07              0050700SRDT_A20_06_07      0040455003000003000180002100300000000000213      023781 1887    017466   019948   019074   024416   025608   023349   031716   034331   023102   022767   022455   020718               140237841 1857    130000001         120170861 1927    110000001    0    100000001    0    017421   018593   019535   024403   023031   025133   033317   034405   022730   023205   020426   022622                                      
180000310210015 00200 1110241ECH_06              0020700ECH_07              0050700SRDT_A20_06_07      0040455003000003000180002100300000000000213      011880 1967    008939   009712   009456   011398   012978   011233   013844   018487   011878   011851   011360   011163               140118791 1877    130000001         120087011 1947    110000001         100000001         008976   009042   009834   011726   011348   012469   016292   018148   011733   011290   010544   010835                                      
180000320210015 00200 1110241ECH_07              0050700ECH_08N             0090900SRDT_A20_07_08N     0080400002700002700180002100300000000000213      011613         008224   009300   009127   011190   012903   011104   013792   018752   011675   011433   010813   010759               140115371 1997    130000001         120000001         110000001         100000001         008615   008662   009480   011474   010943   012287   013588   018733   011625   011038   010163                                               
180000320310015 00200 1110241ECH_07              0050700ECH_08N             0090900SRDT_A20_07_08N     0080400002700002700180002100300000000000213      023073         016026   018758   017960   023342   024781   022391   030889   033843   022094   022693   021370   022210               140227551 2017    130000001         120000001         110000001         100000001         016453   017611   018476   023432   021929   024212   030016   034371   021855   022109   019275                                               
180000320110015 00200 1110241ECH_07              0050700ECH_08N             0090900SRDT_A20_07_08N     0080400002700002700180002100300000000000213      011460         007802   009458   008833   012152   011878   011287   017097   015091   010419   011260   010557   011451               140112181 2057    130000001         120000001         110000001         100000001         007838   008949   008996   011958   010986   011925   016428   015638   010230   011071   009112                                               
180000330210015 00200 1110241ECH_08S             0140600ECH_09              0230000SRDT_A20_08S_09     0190790008400008400180002100300000000000213      010576 2077    007634   008316   008125   010130   011931   010037   012783   017898   010640   010478   008856   009777               140104561 2077    130102951 2027    120088061 2057    110000001         100000001         007693   007704   008472   010448   009967   011228   012435   017943   010587   010009   009183   009520                                      
180000330310015 00200 1110241ECH_08S             0140600ECH_09              0230000SRDT_A20_08S_09     0190790008400008400180002100300000000000213      021176 2027    014740   017023   016219   021488   023057   020529   029215   032406   020318   021045   017063   020435               140209231 2067    130205991 2027    120178701 1997    110000001         100000001         014869   015936   016697   021668   020236   022394   028120   032947   020055   020284   017569   019755                                      
180000330110015 00200 1110241ECH_08S             0140600ECH_09              0230000SRDT_A20_08S_09     0190790008400008400180002100300000000000213      010600 1927    007106   008707   008094   011358   011126   010492   016432   014508   009678   010567   008207   010658               140104671 2037    130103041 2047    120090641 1877    110000001         100000001         007176   008232   008225   011220   010269   011166   015685   015004   009468   010275   008386   010235                                      
230000400110015 01450 4110201RD 951              0110723RD 912              0270099TROIS ET DEMI       0260300014913014913240000301300000000000190      006781 2677    005473   006214   006215   007115   006967   006994   007739   008652   007006   006946   006177   005820               140067411 2797    130000001         120065621 2837    110000001         100000001         005508   005821   006349   006577   006717   007109   007885   009105   007006   006605   005962   006152                                      
230000400310015 01450 4110201RD 951              0110723RD 912              0270099TROIS ET DEMI       0260300014913014913240000301300000000000187      013816 1787    011005   012406   012653   014356   014008   014210   016571   018301   014232   013910   012352   011641               140135661         130000001         120131471 2837    110000001         100000001         011067   011607   012913   013328   013465   014283   016163   018166   013935   013330   012010   012317                                      
230000400210015 01450 4110201RD 951              0110723RD 912              0270099TROIS ET DEMI       0260300014913014913240000301300000000000190      007035 1357    005532   006192   006438   007241   007041   007216   008832   009649   007226   006964   006175   005821               140068251         130000001         120065851 2837    110000001         100000001         005559   005786   006564   006751   006748   007174   008278   009061   006929   006725   006048   006165                                      
230000410110015 01450 4110201RD 912              0270099RD 33               0440000ST VAURY            0360000016272016272240000301300000000000189      008670 1918    007150   007900   007951   008943   008544   008956   009811   010732   009094   008700   007956   008233               140084131 1878    130000001         120081171 2187    110081691 2007    100079431 2077    007154   007500   008071   008280   008373   008748   009461   010594   008719   008334   007727   007899                                      
230000410310015 01450 4110201RD 912              0270099RD 33               0440000ST VAURY            0360000016272016272240000301300000000000189      017308 2147    014269   015677   016007   017886   017039   017874   019876   021173   018011   017384   015875   016476               140000001         130000001         120161651 2047    110162831         100158751 2027                                                                                                                                                   
230000410210015 01450 4110201RD 912              0270099RD 33               0440000ST VAURY            0360000016272016272240000301300000000000189      008638 2127    007119   007777   008056   008943   008495   008918   010065   010441   008917   008684   007919   008243               140000001         130000001         120080481 1967    110081141         100079321 1997                                                                                                                                                   
230000500310015 01450 4110201RD 33               0440000RD 990              0600662LA RIBIERE          0470165016090016090240000301300000000000187      000000                                                                                                                                 140000001         130000001         120000001         110000001         100000001    7                                                                                                                                                   
230000500210015 01450 4110201RD 33               0440000RD 990              0600662LA RIBIERE          0470165016090016090240000301300000000000187      000000                                                                                                                                 140000001         130000001         120000001         110000001         100000001    7                                                                                                                                                   
230000500110015 01450 4110201RD 33               0440000RD 990              0600662LA RIBIERE          0470165016090016090240000301300000000000187      000000                                                                                                                                 140000001         130000001         120000001         110000001         100000001    7                                                                                                                                                   
240000500210015 00210 4112 51PERIGUEUX           0650000RD 21 E             1000851ST MAMET            0840400034948032158240000500300000000000187      003070 1457    002577   002738   002920   002933   002944   003199   003293   003752   003394   003197   003019   002853               140030571 1397    130000001         120000001         110000001         100029091         002565   002684   002879   003106   003049   003268   003315   003724   003339   003128   002861   002742                                      
240000500310015 00210 4112 51PERIGUEUX           0650000RD 21 E             1000851ST MAMET            0840400034948032158240000500300000000000187      006057 1427    005060   005429   005737   005982   005913   006368   006649   007064   006593   006254   005921   005673               140059811 1387    130000001         120000001         110000001         100056811         005049   005317   005651   006123   005989   006398   006597   006981   006457   006129   005593   005439                                      
240000500110015 00210 4112 51PERIGUEUX           0650000RD 21 E             1000851ST MAMET            0840400034948032158240000500300000000000187      002987 1377    002483   002691   002817   003049   002969   003169   003356   003312   003199   003057   002902   002820               140029241 1367    130000001         120000001         110000001         100027721 1187    002484   002633   002772   003017   002940   003130   003282   003257   003118   003001   002732   002697                                      
470000500310015 00210 4813001RN 1113 AGEN        0690000GIR BEAUREGARD ex27 0710915BEAUREGARD          0710600002828000000470000300300000000000187      025346                                                                                                                                 140253318         130000008         120000008         110000008         100000008                                                                                                                                                        
470000500210015 00210 4813 51RN 1113 AGEN        0690000GIR BEAUREGARD ex27 0710915BEAUREGARD          07106000028280000004700003003          0187      000000                                                                                                                                 140000008         130000008         120000008         110000008         100000008                                                                                                                                                        
470000500110015 00210 4813 51RN 1113 AGEN        0690000GIR BEAUREGARD ex27 0710915BEAUREGARD          07106000028280000004700003003          0187      000000                                                                                                                                 140000008         130000008         120000008         110000008         100000008                                                                                                                                                        
230000550310015 01450 4113001RD 990              0600662RD 997              0740000GOUZON              0700300013384013384240000301300000000000898      000000                                                                                                                                 140000001         130000001         120000001         110000001         100000001                                                                                                                                                        
230000550210015 01450 4113001RD 990              0600662RD 997              0740000GOUZON              0700300013384013384240000301300000000000898      000000                                                                                                                                 140000001         130000001         120000001         110000001         100000001                                                                                                                                                        
230000550110015 01450 4113001RD 990              0600662RD 997              0740000GOUZON              0700300013384013384240000301300000000000898      000000                                                                                                                                 140000001         130000001         120000001         110000001         100000001                                                                                                                                                        
230000600310015 01450 4113001RD 997              0740000DEPARTEMENT 03      0910693NOUHANT             0890750017423017423240000301303000370030187      011186 3067    008644   009804   009835   011256   011442   011258   014148   015243   011303   011101   009602   010417               140000001         130000001         120000001         110000001         100000001    7                                                                                                                                                   
230000600210015 01450 4113001RD 997              0740000DEPARTEMENT 03      0910693NOUHANT             0890750017423017423240000301303000370030187      005602 3117    004318   004884   005003   005679   005740   005660   007203   007445   005565   005584   004800   005251               140000001         130000001         120000001         110000001         100000001    7                                                                                                                                                   
230000600110015 01450 4113001RD 997              0740000DEPARTEMENT 03      0910693NOUHANT             0890750017423017423240000301303000370030187      005584 2957    004326   004920   004832   005577   005702   005598   006945   007798   005738   005517   004802   005166               140000001         130000001         120000001         110000001         100000001    7                                                                                                                                                   
470000600310015 00210 4813 51GIR BEAUREGARD      0710915RD 17               0780250MOIRAX              07306000063550043604700003003          0187      008951                                                                                                                                 140089468         130000008         120000008         110000008         100000008                                                                                                                                                        
240000601310015 00210 4813 51RD 21 E             1000851RD 107              1040760POMBONNE            1040000003898003355240000500300000000000187      009651                                                                                                                                 140095308         130000008         120000008         110000008         100000008                                                                                                                                                        
240000602310015 00210 4813 51RD 107              1040760BERGERAC EB10       1060260BERGERAC            1050500001467001444240000500300000000000187      014301                                                                                                                                 140141228         130000008         120000008         110000008         100000008                                                                                                                                                        
240000699310015 00210 4852 51BERGERAC EB 10      1060260BERGERAC EB 20      1090210BERGERAC            1080000002734000000240000500300000000000187      014519                                                                                                                                 140143378         130000008         120000008         110000008         100000008                                                                                                                                                        
240000700310015 00210 4113 51BERGERAC EB 20      1090210RD 14               1180030COLOMBIER           1160500008925008258240000700300000000000187      007470 1067    006125   006456   007003   007508   007565   007645   008664   009226            007841   006835   007024               140000001         130000001         120000001         110000001         100068091    8                                                                                                                                                   
240000700110015 00210 4113 51BERGERAC EB 20      1090210RD 14               1180030COLOMBIER           1160500008925008258240000700300000000000187      003738 1077    003058   003234   003499   003764   003770   003817   004384   004550   003918   003890   003401   003522               140000001         130000001         120000001         110000001         100034001    8                                                                                                                                                   
240000700210015 00210 4113 51BERGERAC EB 20      1090210RD 14               1180030COLOMBIER           1160500008925008258240000700300000000000187      003732 1067    003067   003222   003504   003744   003795   003828   004280   004676            003951   003434   003502               140000001         130000001         120000001         110000001         100034091    8                                                                                                                                                   
470000700310015 00210 4813001RD 17               0780250RD 15               0860315GOULENS             0830000008139006749470000300300000000000187      008628                                                                                                                                 140086238         130000008         120000008         110000008         100000008                                                                                                                                                        
240000800310015 00210 4812 51RD 14               1180030DEPARTEMENT 47      1290551MANDACOU            1260600011506010780240000700347000010030187      005606                                                                                                                                 140000008         130000008         120000008         110000008         100000008                                                                                                                                                        
470000800310015 00210 4813 51RD 15               0860315DEPARTEMENT 32      0910293ASTAFFORT           0870500005011004719470000300332000010030187      006147                                                                                                                                 140061448         130000008         120000008         110000008         100000008                                                                                                                                                        
870000899310015 00210 4853001RN 1020             0020000LIMOGES EB 20       0030742LIMOGES             00300000015490000008700009003          0192      009454                                                                                                                                 140000008         130000008         120000008         110089578         100000008                                                                                                                                                        
870000900310015 00210 4113 51LIMOGES EB 20       0030742RD 10               0140398VAL D'ENRAUD        00609470106880076348700009003          0187      010099  517    009682   009968   010127   010487   009680   010955   010093   009172   010659   010669   010170   009575               140000001         130000001         120000001         110095681    7    100079591    7                                                                                                                                                   
870000900210015 00210 4113 51LIMOGES EB 20       0030742RD 10               0140398VAL D'ENRAUD        00609470106880076348700009003          0187      005233  497    005040   005174   005247   005426   005013   005668   005191   004755   005514   005550   005301   004941               140000001         130000001         120000001         110048571    7    100040541    7                                                                                                                                                   
870000900110015 00210 4113 51LIMOGES EB 20       0030742RD 10               0140398VAL D'ENRAUD        00609470106880076348700009003          0187      004866  537    004642   004794   004880   005061   004667   005287   004902   004417   005145   005119   004869   004634               140000001         130000001         120000001         110047111    7    100039051    7                                                                                                                                                   
870001000310015 00210 4813 51RD 10               0140398RD 64a1             0360000PAGEAS            BA03202000214760183428700009003          0187      005213                                                                                                                                 140000008         130000008         120000008         110049398         100000008                                                                                                                                                        
790001001310015 01490 4113 51DEPARTEMENT 86      0000000PARTHENAY DEBUT 2X2V0140227LA CROIX CHAMBERT   0080900014238012948790001401386000240030187      000000                                                                                                                                 140077851         130000001         120078631 1407    110074051 1787    100079681         006964   007235   007779   008022   008111   008343   009408   009848   008482   008260            003597                                      
790001001210015 01490 4113 51DEPARTEMENT 86      0000000PARTHENAY DEBUT 2X2V0140227LA CROIX CHAMBERT   0080900014238012948790001401386000240030187      000000                                                                                                                                 140038411         130000001         120038661 1097    110034951 1667    100000001         003539   003713   004019   004182   004157   004241   004942   005019   004328   004135            000000                                      
790001001110015 01490 4113 51DEPARTEMENT 86      0000000PARTHENAY DEBUT 2X2V0140227LA CROIX CHAMBERT   0080900014238012948790001401386000240030187      000000                                                                                                                                 140039441         130000001         120039971 1997    110039101 1987    100040761 1537    003425   003522   003760   003840   003954   004102   004466   004829   004154   004125   003508   003597                                      
160001100310015 01410 4813 51DEPARTEMENT 87      0000000RD 948              0030260ETAGNAC             0010000002185001799000000000087000340030187      000000                                                                                                                                 140000008         130000008         120000008         110000008         100000008                                                                                                                                                        
160001100210015 01410 4813 51DEPARTEMENT 87      0000000RD 948              0030260ETAGNAC             0010000002185001799000000000087000340030187      000000                                                                                                                                 140000008         130000008         120000008         110000008         100000008                                                                                                                                                        
160001100110015 01410 4813 51DEPARTEMENT 87      0000000RD 948              0030260ETAGNAC             0010000002185001799000000000087000340030187      000000                                                                                                                                 140000008         130000008         120000008         110000008         100000008                                                                                                                                                        
790001100310015 01490 484 251PARTHENAY DEBUT 2X2V0140227RD 134              0170299PONT PONPAIRAIN     01509000029620000047900014013          0187      016307                                                                                                                                 140152128         130000008         120144478         110147638         100000008                                                                                                                                                        
850001100310015 01490 4113001Dpartement 79      0000000RN 160 Mortagne/Sv.0030323La Trique           0010910003277003277000000000079000210030187      000000                                                                                                                                 140000001         130000001         120000001         110000001         100000001                                                                                                                                                        
850001100210015 01490 4113001Dpartement 79      0000000RN 160 Mortagne/Sv.0030323La Trique           0010910003277003277000000000079000210030187      000000                                                                                                                                 140000001         130000001         120000001         110000001         100000001                                                                                                                                                        
850001100110015 01490 4113001Dpartement 79      0000000RN 160 Mortagne/Sv.0030323La Trique           0010910003277003277000000000079000210030187      000000                                                                                                                                 140000001         130000001         120000001         110000001         100000001                                                                                                                                                        
870001100310015 00210 4813051RD 64a1             0360000DEPARTEMNENT 24     0401040CHALUS              0360687005044004353870000900324000010031101      004854                                                                                                                                 140000008         130000008         120000008         110045998         100000008                                                                                                                                                        
850001102310015 01490 4113001Dpartement 79      0750605Dpartement 79      0820222Enclave             0750700002680002680000000000079000210030187      000000                                                                                                                                 140000001         130000001         120000001         110000001         100000001                                                                                                                                                        
860001200110015 01470 4113 51DEPARTEMENT 87      0000000RD 11               0181000MOULISMES           0100915019039017819000000000087000210030187      003369 2387    002233   002761   002774   003382   003446   003306   004529   006066   003380   003144   002479   002834               140033611 2407    130000001         120035341 2417    110000001         100033661         002270   002404   003146   003095   003344   003342   004470   006191   003370   002710   002503                                               
860001200310015 01470 4113 51DEPARTEMENT 87      0000000RD 11               0181000MOULISMES           0100915019039017819000000000087000210030187      006711 2427    004504   005555   005408   006713   006921   006631   009330   011814   006666   006193   004902   005714               140066481 2267    130000001         120071241 2277    110000001         100066921         004483   004850   006165   006198   006669   006654   009152   012064   006654   005036   004960                                               
860001200210015 01470 4113 51DEPARTEMENT 87      0000000RD 11               0181000MOULISMES           0100915019039017819000000000087000210030187      003342 2447    002271   002794   002634   003331   003475   003325   004801   005748   003286   003049   002423   002880               140032871 2197    130000001         120035901 2217    110000001         100033261         002213   002446   003019   003103   003325   003312   004682   005873   003284   002326   002457                                               
160001201310015 01410 4813 51RD 948              0030260RD 951 CHASSENEUIL  0310304LA PERUSE           0180850028174020906000000000000000000000187      000000                                                                                                                                 140000008         130000008         120000008         110000008         100000008                                                                                                                                                        
160001201210015 01410 4813 51RD 948              0030260RD 951 CHASSENEUIL  0310304LA PERUSE           0180850028174020906000000000000000000000187      000000                                                                                                                                 140000008         130000008         120000008         110000008         100000008                                                                                                                                                        
160001201110015 01410 4813 51RD 948              0030260RD 951 CHASSENEUIL  0310304LA PERUSE           0180850028174020906000000000000000000000187      000000                                                                                                                                 140000008         130000008         120000008         110000008         100000008                                                                                                                                                        
860001300310015 01470 4113 51RD 11               0181000RD 2                0370770FLEURE              03606200187410167350000000000          0187      000000                                                                                                                                 140000001         130000001         120099191    7    110098651 1117    100100461 1498                                                                                                                                                   
860001300210015 01470 4113 51RD 11               0181000RD 2                0370770FLEURE              03606200187410167350000000000          0187      000000                                                                                                                                 140000001         130000001         120049501    7    110048851 1137    100049901 1498                                                                                                                                                   
860001300110015 01470 4113 51RD 11               0181000RD 2                0370770FLEURE              03606200187410167350000000000          0187      000000                                                                                                                                 140000001         130000001         120049691    7    110049801 1067    100050561 1488                                                                                                                                                   
790001401210015 01490 4113 51PARTHENAY FIN ROCADE0170299RD 725              0420758ST VINCENT          02605500258500233517900014013          0187      003805 1957    003159   003462   003464   004009   003810   003871   004349   004381   004108   003941   003443   003635               140036011         130000001         120035381 2097    110035611 1817    100028171    8    003033   003211   003476   003523   003583   003743   004139   004405   003776   003585   003261   003432                                      
790001401310015 01490 4113 51PARTHENAY FIN ROCADE0170299RD 725              0420758ST VINCENT          02605500258500233517900014013          0187      007862 1997    006276   007014   006923   008032   008334   008728   009101   008885   008500   008338   006952   007203               140073341         130000001         120069651 2147    110071171 1837    100046671 1008    006046   006320   006920   007397   007189   007678   008327   008851   007645   007754   007047   006741                                      
790001401110015 01490 4113 51PARTHENAY FIN ROCADE0170299RD 725              0420758ST VINCENT          02605500258500233517900014013          0187      004057 2077    003117   003552   003459   004023   004524   004857   004752   004504   004392   004397   003509   003568               140037331         130000001         120034271 2267    110035561 1877    100018501 1118    003013   003109   003444   003874   003606   003935   004188   004446   003869   004169   003786   003309                                      
860001401210015 01470 4113 51RD 2                0370770DEBUT DEVIATION     0500500MIGNALOUX           04908950127280116440000000000          0187      003180 1187    007532   008242   008097   009075   005526   000010   000015   000003   000016   000009   000003   000002               140082721 1197    130000001         120083371 1227    110082931 1187    100082811 1037    007460   007733   008135   008264   008348   008538   009013   009088   008642   008071   007808   008121                                      
860001401310015 01470 4113 51RD 2                0370770DEBUT DEVIATION     0500500MIGNALOUX           04908950127280116440000000000          0187      012528 1157    015679   017086   016913   018647   014551   009867   009855   010313   009968   009533   008978   009293               140172861 1177    130000001         120174771 1207    110173841 1177    100172951 1027    015547   016069   017103   017277   017337   017926   018825   019302   018167   016576   016439   016769                                      
860001401110015 01470 4113 51RD 2                0370770DEBUT DEVIATION     0500500MIGNALOUX           04908950127280116440000000000          0187      009348 1147    008147   008844   008816   009572   009025   009857   009840   010310   009952   009524   008975   009291               140090141 1147    130000001         120091401 1167    110090911 1147    100090141    7    008087   008336   008968   009013   008989   009388   009812   010214   009525   008505   008631   008648                                      
860001402310015 01470 4813 51DEBUT DEVIATION     0500500RN 151              0520040LA SABLIERE         05200000013600013600000000000          0188      000000                                                                                                                                 140000008         130000008         120000008         110000008         100000008                                                                                                                                                        
860001403310015 01470 4813 51RN151               0520040PENETRANTE POITIERS 0520900                    05205000008600008600000000000          0190      000000                                                                                                                                 140000008         130000008         120000008         110000008         100000008                                                                                                                                                        
860001404110015 01470 4113 51PENETRANTE POITIERS 0520900RD 6                0540200GENIEC              05209700013000013000000000000          0190      011737 1077    011903   012952   012877   013906   012578   007702   003357   013601   013006   013634   012849   012615               140132961 1007    130000001         120129631 1027    110129701    7    100124551         012107   012502   012855   013122   012568   013318   013537   013698   014378   016420   012810   012178                                      
860001404310015 01470 4113 51PENETRANTE POITIERS 0520900RD 6                0540200GENIEC              05209700013000013000000000000          0190      023704 1067    024093   026193   025979   028025   025342   015521   006871   027129   026669   027453   025985   025480               140258221 1037    130000001         120234781 1147    110248931    7    100251531         024135   025001   025656   026225   024726   026296   027172   027122   026876   026948   025011   024659                                      
860001404210015 01470 4113 51PENETRANTE POITIERS 0520900RD 6                0540200GENIEC              05209700013000013000000000000          0190      011967 1057    012190   013241   013102   014119   012764   007819   003514   013528   013663   013819   013136   012865               140125261 1057    130000001         120105151 1217    110119231 1017    100126981         012028   012499   012801   013103   012158   012978   013635   013424   012498   010528   012201   012481                                      
860001405110015 01470 4113 51RD 6                0540200RN 10               0600050BUXEROLLES          05910600064000064000000000000          0190      018204  907    017200   018526   018203   019685   017860   019655   018418   017811   015270   019003   018467   018386               140179291  937    130000001         120186861    7    110186371    7    100181711    7    017199   017424   017638   018284   017592   018130   018270   017863   018397   018736   017849   017745                                      
860001405310015 01470 4113 51RD 6                0540200RN 10               0600050BUXEROLLES          05910600064000064000000000000          0190      037490  917    035264   037817   037136   040265   036403   040037   037818   036508   034050   039034   037982   037667               140365491  937    130000001         120378901    7    110375791    7    100367511    7    035112   035720   036276   037297   035701   036403   037135   035985   038017   038287   036388   036248                                      
860001405210015 01470 4113 51RD 6                0540200RN 10               0600050BUXEROLLES          05910600064000064000000000000          0190      019286  927    018064   019291   018933   020580   018543   020382   019400   018697   018780   020031   019515   019281               140186201  937    130000001         120192041    7    110189421    7    100185801    7    017913   018296   018638   019013   018109   018273   018865   018122   019620   019551   018539   018503                                      
790001500310015 01490 481 251RD 725              0420758BRESSUIRE EB 10     0450415MONPLAISIR          04300000023870023877900014013          0187      005701                                                                                                                                 140053198         130000008         120050528         110051638         100000008                                                                                                                                                        
870001500310015 01450 4813 51BELLAC              0000000RD 942              0170937LA BROUSSE          00900500181050160728700016003          0187      000000                                                                                                                                 140000008         130000008         120064978         110000008         100000008                                                                                                                                                        
860001501310015 01470 4813 51RN 10               0600050EX RN 147           0630000LE BARREAU          06200000034750034750000000000          0193      000000                                                                                                                                 140000008         130000008         120000008         110000008         100000008                                                                                                                                                        
860001502110015 01470 4113 51EX RN 147           0630000RN 149              0651003MIGNEAUXANCES       06310150033660033668700009003          0193      012796 1427    011767   011695   012628   013742   012072   013909   013580   013770                     012721   012036               140129411 1357    130000001         120124391         110123401         100116441    7    011541   012049   012739   013154   012856   013688   013868   014085   013483   013228   012289   012248                                      
860001502310015 01470 4113 51EX RN 147           0630000RN 149              0651003MIGNEAUXANCES       06310150033660033668700009003          0193      025715 1427    023686   023691   025436   027578   024334   027933   027604   027490                     025610   023724               140252921 1397    130000001         120249641         110246731         100234491    7    023465   024399   024915   025765   024606   026306   026195   026639   025478   026223   024702   024753                                      
860001502210015 01470 4113 51EX RN 147           0630000RN 149              0651003MIGNEAUXANCES       06310150033660033668700009003          0193      012919 1437    011919   011996   012808   013836   012262   014024   014024   013720                     012889   011688               140123511 1427    130000001         120125251         110123331         100118051    7    011924   012350   012176   012611   011750   012618   012327   012554   011995   012995   012413   012505                                      
790001600310015 01490 484 251BRESSUIRE EB 10     0450415BRESSUIRE EB 20     0480216DEV BRESSUIRE       04600000035710000007900014013          0187      006307                                                                                                                                 140058848         130000008         120055888         110057108         100000008                                                                                                                                                        
870001600310015 01450 4113 51RD 942              0170937DEPARTEMENT CREUSE  0290835BELLEVUE            0270250011726010687870001800323000030030187      000000                                                                                                                                 140000001         130000001         120060741         110000001         100000001                                                                                                                                                        
870001600210015 01450 4113 51RD 942              0170937DEPARTEMENT CREUSE  0290835BELLEVUE            0270300011726010687870001800323000030030187      000000                                                                                                                                 140000001         130000001         120025811         110000001         100000001                                                                                                                                                        
870001600110015 01450 4113 51RD 942              0170937DEPARTEMENT CREUSE  0290835BELLEVUE            0270300011726010687870001800323000030030187      000000                                                                                                                                 140000001         130000001         120034931         110000001         100037781 1248                                                                                                                                                   
870001800110015 01470 4113 51RD 520              0080000BELLAC EB 10        0380409MAISONNEUVE         01708700292380290008700018003          0187      003601 1227    003363   003655   003783   004163   004093   004224   004563   005355   004259   004226   001524   000000               140041041 1177    130000001         120041371 1217    110042471 1227    100041751 1067    003436   003469   003926   004110   004128   004292   004545   005448   004339   004099   003707   003684                                      
870001800310015 01470 4113 51RD 520              0080000BELLAC EB 10        0380409MAISONNEUVE         01708700292380290008700018003          0187      007259 1377    006762   007362   007588   008393   008269   008476   009494   010515   008547   008508   003188   000000               140082481 1297    130000001         120083121 1377    110085171 1407    100083251 1207    006906   007018   007883   008300   008307   008659   009418   010680   008670   008159   007422   007431                                      
870001800210015 01470 4113 51RD 520              0080000BELLAC EB 10        0380409MAISONNEUVE         01708700292380290008700018003          0187      003658 1447    003399   003707   003805   004230   004176   004252   004931   005160   004288   004282   001664   000000               140041441 1357    130000001         120041751 1457    110042701 1497    100041501 1277    003470   003549   003957   004190   004179   004367   004873   005232   004331   004060   003715   003747                                      
870001810110015 01470 4113001Bellac              0000000Bellac              0000000LA_BAZINE           0000000000000000000870001800300000000000110      002544 1798    001902   002144   002203   002545   002590   002625   003009   003983   002647   002519   002105   002204               140025051 1727    130000001         120025141 1737    110023281         100000001    0    001914   001948   002281   002374   002537   002681   002992   003999   002667   002349   002124   002138                                      
870001810310015 01470 4113001Bellac              0000000Bellac              0000000LA_BAZINE           0000000000000000000870001800300000000000311      005244 1888    003925   004423   004506   005236   005370   005430   006486   007901   005416   005246   004318   004571               140051441 1847    130000001         120051611 1877    110047551         100000001    0    003942   004047   004663   004926   005222   005522   006422   007948   005399   004764   004343   004415                                      
870001810210015 01470 4113001Bellac              0000000Bellac              0000000LA_BAZINE           0000000000000000000870001800300000000000110      002700 1938    002023   002279   002303   002691   002780   002805   003477   003918   002769   002727   002213   002367               140026391 1897    130000001         120026471 1937    110024271         100000001    0    002028   002099   002382   002552   002685   002841   003430   003949   002732   002415   002219   002277                                      
790001900310015 01490 4812 01BRESSUIRE EB 20     0480216RD 960 BIS          0500264BELLEVUE            0490000003028001953790001401300000000000187      008657                                                                                                                                 140080768         130000008         120076708         110078388         100000008                                                                                                                                                        
870001900310015 01470 4843 51BELLAC EB 10        0380409BELLAC EB 20        0400085BELLAC              03907500016970000008700018003          0187      009085                                                                                                                                 140103238         130000008         120104048         110106618         100000008                                                                                                                                                        
870001910210015 01470 4113001Bellac              0000000Bellac              0000000EPANOURS            0000000000000000000870002000300000000000311      005045 3828    003798   004381   004419   005110   005245   005212   006424   007474   005213   004773   004157   004259               140049601 3947    130000001         120048281 3957    110048371 3887    100000001    0    003801   004036   004483   004839   004929   005292   006515   007531   005122   004554   004143   004171                                      
870001910310015 01470 4113001Bellac              0000000Bellac              0000000EPANOURS            0000000000000000000870002000300000000000311      009224 3538    006731   007773   007945   009316   009569   009432   011997   014296   009478   008705   007429   007840               140090361 3617    130000001         120087451 3627    110087221 3567    100081151    0    006734   007103   008064   008760   008912   009602   012009   014359   009299   008300   007441   007624                                      
870001910110015 01470 4113001Bellac              0000000Bellac              0000000EPANOURS            0000000000000000000870002000300000000000311      004179 2828    002933   003392   003526   004206   004324   004220   005573   006822   004265   003932   003272   003581               140040761 2797    130000001         120039171 2837    110038851 2767    100000001    0    002933   003067   003581   003921   003983   004310   005494   006828   004177   003746   003298   003453                                      
870002000310015 01470 4113 51BELLAC EB 20        0400085RD 951              0440245CHATAIGNERS         04102680040870040878700020003          0101      000000                                                                                                                                 140000001         130000001         120000001         110000001         100000001                                                                                                                                                        
870002000210015 01470 4113051BELLAC EB 20        0400085RD 951              0440245CHATAIGNIERS        0410268004087004087870002000300000000000601      000000                                                                                                                                 140000001         130000001         120000001         110000001         100000001                                                                                                                                                        
870002000110015 01470 4113051BELLAC EB 20        0400085RD 951              0440245CHATAIGNIERS        0410268004087004087870002000300000000000601      000000                                                                                                                                 140000001         130000001         120000001         110000001         100000001                                                                                                                                                        
790002001210015 01490 4113 51RD 960 BIS          0500264RD 759              0680396LA VIOLETTE         05500000181700160187900020013          0187      001206  827    001212   001249   001258   001282   001127   001318   001222   000964   001281   001237   001196   001143               140042531 1907    130000001         120048471 2017    110047541 1937    100044941 1927    004359   004568   004914   005057   005041   005446   005995   006031   005389   001742   001296   001240                                      
790002001310015 01490 4113 51RD 960 BIS          0500264RD 759              0680396LA VIOLETTE         05500000181700160187900020013          0187      002395  827    002403   002477   002501   002526   002223   002624   002407   001878   002548   002477   002400   002299               140083631 1907    130000001         120096191 1767    110094611 1297    100089501 1667    008637   009036   009555   010010   009936   010754   011669   011870   010549   003424   002554   002451                                      
790002001110015 01490 4113 51RD 960 BIS          0500264RD 759              0680396LA VIOLETTE         05500000181700160187900020013          0187      001189  817    001191   001228   001243   001244   001096   001306   001185   000914   001267   001240   001204   001156               140041101 1917    130000001         120047721 1277    110047071    7    100044561 1127    004278   004468   004641   004953   004895   005308   005674   005839   005160   001682   001258   001211                                      
790002002310015 01490 4843 51EB10 MAULEON        0680396EB20 MAULEON        0700514MAULEON             06900000021230000007900020013          0193      005975                                                                                                                                 140208668         130000008         120240008         110236068         100000008                                                                                                                                                        
870002010110015 01470 4110201Bellac              0000000Bellac              0000000LE_VINCOU           0000000000000000000870002000300000000000311      003677         002642   003106   003203   003790   003659   003455   004779   005617   003946   003606   002971   003277               140039041 3137    130000001         120034901 1757    110035891 2957    100000001    0    003424   003563   003285   003601   003682   003995   005268   006555   003848   003405   003002   003149                                      
870002010310015 01470 4110101Bellac              0000000Bellac              0000000LE_VINCOU           0000000000000000000870002000300000000000311      008112         006070   007108   007206   008390   008118   007641   010221   011868   008744   007958   006738   007149               140083451 3687    130000001         120077051 2287    110080201 3677    100000001    0    006071   006424   007383   008033   008211   008857   011390   013728   008569   007530   006779   006938                                      
870002010210015 01470 4110101Bellac              0000000Bellac              0000000LE_VINCOU           0000000000000000000870002000300000000000311      004435         003428   004002   004003   004600   004459   004186   005442   006251   004798   004352   003767   003872               140044411 3927    130000001         120042151 2497    110044311 3967    100000001    0    002647   002861   004098   004432   004529   004862   006122   007173   004721   004125   003777   003789                                      
180002100310015 01510 4113001DEP 36              0000000St Florent (lim agg)0100520CIVRAY              0060405010526008391180002100336000000030695      000000                                                                                                                                 140000001         130000001         120043541 1647    110043591         100046771 1807                                                                                                                                                   
180002100210015 01510 4113001DEP 36              0000000St Florent (lim agg)0100520CIVRAY              0060405010526008391180002100336000000020792      000000                                                                                                                                 140000001         130000001         120022511 1677    110022241         100023701 1827                                                                                                                                                   
180002100110015 01510 4113001DEP 36              0000000St Florent (lim agg)0100520CIVRAY              0060405010526008391180002100336000000010792      000000                                                                                                                                 140000001         130000001         120021031 1587    110021351         100023071 1777                                                                                                                                                   
790002100310015 01490 4813051RD 759              0700514DEPARTEMENT 85      0820676PIED ROTI           0750500009591009591790002001385000110030187      003124                                                                                                                                 140109098         130000008         120125488         110123428         100000008                                                                                                                                                        
870002100310015 01470 4813 51RD 951              0440245DEPARTEMENT 86      0611216ST BONNET BELLAC    0500400018006017045870002000386000120030187      000000                                                                                                                                 140000008         130000008         120000008         110000008         100000008                                                                                                                                                        
180002200310015 01510 4843001St Florent O(lim agg0100520RD 27               0110910RN 151 -St FLORENT O0110800001391000000180002100300000000001287      000000                                                                                                                                 140000008         130000008         120065888         110065968         100000008                                                                                                                                                        
240002200310015 02210 4813 51RN 21               0000000RD 5                0000607RN 221              00002500006070005372400024003000       0187      012128                                                                                                                                 140000008         130000008         120000008         110000008         100000008                                                                                                                                                        
360002250310015 01510 4810201Ech.12              0550000Ech. N 151          0562134Dols               0550500003098003098000000000000000000000196      000000                                                                                                                                 140000008         130000008         120000008         110000008         100000008                                                                                                                                                        
180002300310015 01510 4843001RD 27               0110910RD 35 / 28          0120510RN 151 -St FLORENT C0120065000598000000180002500300000000001287      000000                                                                                                                                 140000008         130000008         120136078         110139258         100000008                                                                                                                                                        
240002300310015 02210 4813001RD 5                0000607                    0010035BOULAZAC            0000980000506000000240002400300000000000187      016454                                                                                                                                 140000008         130000008         120000008         110000008         100000008                                                                                                                                                        
360002300310015 01510 4112001Rocade              0570000Entre Issoudun     0800000POUDAULT            0670547023093022500360002300300000000000100      000000                                                                                                                                 140000001         130000001         120000001         111983831         100067311 1038                                                                                                                                                   
360002300210015 01510 4112001Rocade              0570000Entre Issoudun     0800000POUDAULT            06705470230930225003600023003000      00100      000000                                                                                                                                 140000001         130000001         120000001         110977311         100034071 1048                                                                                                                                                   
360002300110015 01510 4112001Rocade              0570000Entre Issoudun     0800000POUDAULT            06705470230930225003600023003000      00100      000000                                                                                                                                 140000001         130000001         120000001         111006521         100033241 1028                                                                                                                                                   
860002300210015 01490 4113 51POITIERS            0000000RD 62               0130618MOULINET            00708600098020092948700009003          0187      006216 1387    005515   005965   005894   006478   006116   006291   006738   006792   006461   006281   005958   006090               140062291 1407    130000001         120000001         110000001         100056701    7    005619   005753   006029   006267   006171   006592   006870   006922   006561   006160   005854   005914                                      
860002300310015 01490 4113 51POITIERS            0000000RD 62               0130618MOULINET            00708600098020092948700009003          0187      012396 1377    011054   011962   011788   013018   012130   012438   013295   013414   012978   012612   011889   012154               140123981 1407    130000001         120000001         110000001         100111411    7    011157   011429   011977   012544   012279   013090   013557   013674   013053   012427   011717   011809                                      
860002300110015 01490 4113 51POITIERS            0000000RD 62               0130618MOULINET            00708600098020092948700009003          0187      006180 1357    005539   005997   005894   006540   006014   006147   006557   006622   006517   006331   005931   006064               140061691 1387    130000001         120000001         110000001         100054711    7    005538   005676   005948   006277   006108   006498   006687   006752   006492   006267   005863   005895                                      
180002400310015 01510 4843001RD 35 / 28          0120510St Florent E(lim agg0140500RN 151 -St FLORENT E0130790001987000000180002500300000000001287      000000                                                                                                                                 140000008         130000008         120114308         110116978         100000008                                                                                                                                                        
240002400310015 02210 4113 51EX RN 89            0010035RN 89               0070527SAINT LAURENT 0014 00050034005488005355240000700300000000000197      012990 1977    010885   011244   012952   013604   013656   012927   012712   012023   012852   014604   014200   014098               140000001         130000001         120000001         110000001         100000001                                                                                                                                                        
360002400310015 01510 4843001Entre              0800000Carrefour D918      0800440ISSOUDUN            0800300000440000000360002300300000000000193      000000                                                                                                                                 140000008         130000008         120000008         112378078         100000008                                                                                                                                                        
860002400210015 01490 4113 51RD 62               0130618DEPARTEMENT 79      0290223AYRON               0220460015656012608870000900379000100030187      003818 2077    003114   003499   003422   003859   003827   003953   004554   004847   003968   003714   003449   003575               140037821 2137    130000001         120037511 2067    110037331 2007    100036121    7    003112   003264   003558   003719   003729   003999   004507   004932   003928   003677   003435   003473                                      
860002400310015 01490 4113 51RD 62               0130618DEPARTEMENT 79      0290223AYRON               0220460015656012608870000900379000100030187      007539 2077    006151   006952   006756   007703   007492   007808   008851   009555   007901   007404   006785   007057               140074581 2147    130000001         120073791 2077    110073541 2017    100071181    7    006150   006470   007002   007369   007345   007862   008803   009672   007738   007341   006797   006852                                      
860002400110015 01490 4113 51RD 62               0130618DEPARTEMENT 79      0290223AYRON               0220460015656012608870000900379000100030187      003721 2077    003037   003453   003334   003844   003665   003855   004297   004708   003933   003690   003336   003482               140036761 2157    130000001         120036281 2087    110036211 2047    100035061    7    003038   003206   003444   003650   003616   003863   004296   004740   003810   003664   003362   003379                                      
180002500310015 01510 4110201St Florent E(lim agg0140500RN 142 (Roc sud Bges0210708LE SUBDRAY          0170230007213007213          00000000000695      000000                                                                                                                                 140000001         130000001         120109731 1067    110112291         100112651 1077                                                                                                                                                   
180002500210015 01510 4110201St Florent E(lim agg0140500RN 142 (Roc sud Bges0210708LE SUBDRAY          0170230007213007213          00000000000292      000000                                                                                                                                 140000001         130000001         120055661 1077    110056771         100056771 1087                                                                                                                                                   
180002500110015 01510 4110201St Florent E(lim agg0140500RN 142 (Roc sud Bges0210708LE SUBDRAY          0170230007213007213          00000000000292      000000                                                                                                                                 140000001         130000001         120054071 1047    110055521         100055881 1047                                                                                                                                                   
360002500310015 01510 4846001Carrefour D918      0800440Carrefour D9        0810747ISSOUDUN            0810000001496000000360002300300000000000193      000000                                                                                                                                 140000008         130000008         120000008         112341698         100000008                                                                                                                                                        
