140108399210015 00840 1810241limite 14/50        2080000limite 50/14        2111470Pont Farçy T        2100000004470004470500100890250010089020109      000000                                                                                                                                 140134098         130134288    0    120132468    0    110134698    0    100128578 1000                                                                                                                                                   
140108399310015 00840 1810241limite 14/50        2080000limite 50/14        2111470Pont Farçy T        2100000004470004470500100890350010089030109      000000                                                                                                                                 140270928         130267888    0    120265068    0    110269858    0    100256358 1100                                                                                                                                                   
140108403110015 00840 1117041Echangeur RD 6      2420236Echang. Villers boca2450000VILLERS BOCAGE      2430896002764002764270000200100000000000196      000000                                                                                                                                 140170841 1467    130166671 1467    120164851 1497    110167831 1497    100163881 1477    013946   014315   015425   017878   017525   018659   019408   020858   018328   017264   015914   015294                                      
140108403210015 00840 1117041Echangeur RD 6      2420236Echang. Villers Boca2450000VILLERS BOCAGE      2430896002764002764270000200100000000000196      000000                                                                                                                                 140165431 1527    130160401 1527    120158951 1557    110161731 1567    100157171 1557    012872   014077   014543   018017   016983   017455   020354   020224   016802   017115   014533   015325                                      
140108403310015 00840 1117041ECHANGEUR RD 6      2420236Echang. Villers Boca2450000VILLERS BOCAGE      2430896002764002764270000200100000000000196      000000                                                                                                                                 140336271 1507    130327071 1507    120323801 1537    110329561 1537    100321051 1527    026818   028392   029968   035895   034508   036114   039762   041082   035130   034379   030447   030619                                      
500100890210015 00840 1110241ECH.39              2120238ECH.40              2170280PONT-FARCY          2120000005042005042500100890100000000001100      000000                                                                                                                                 140134091 1147    130134281 1148    120132461 1208    110134691 1188    100128571 1068    009879   011133   011740   015243   014483   013894   016823   018441   012839   013649   011134   011413                                      
500100890310015 00840 1110241ECH.39              2120238ECH.40              2170280PONT-FARCY          2120000005042005042500100890100000000001103      000000                                                                                                                                 140270921 1287    130267881 1168    120265061 1378    110269851 1318    100256351 1078    020220   021724   023621   028876   029122   028314   033671   037508   027574   027326   023468   023158                                      
500100891210015 00840 1810241                    2170280                    2210759Guiberville         2190000004479004479500100890200000000001100      000000                                                                                                                                 140134098         130134288         120132468         110134698         100128578    0                                                                                                                                                   
500100891310015 00840 1810241                    2170280                    2210759Guiberville         2190000004479004479500100890300000000001103      000000                                                                                                                                 140270928         130267888         120265068         110269858         100256358    0                                                                                                                                                   
610000502110015 00120 4813001RN 138              0630300FIN DEVIAT.ALENCON  0720070DEVIATION ALENCON   0680020007836007836610000600100000000000188      000000                                                                                                                                 140043178         130043168         120043188         110045328         100044448                                                                                                                                                        
610000502210015 00120 4813001RN 138              0630300FIN DEVIAT.ALENCON  0720070DEVIATION ALENCON   0680020007836007836610000600200000000000188      000000                                                                                                                                 140043618         130044058         120044008         110046008         100045198                                                                                                                                                        
610000502310015 00120 4813001RN 138              0630300FIN DEVIAT.ALENCON  0720070DEVIATION ALENCON   0680020007836007836610000600300000000000188      000000                                                                                                                                 140086788         130087218         120087188         110091328         100089638                                                                                                                                                        
610000600110015 00120 4113001FIN DEVIATION       0720070LIMITE MAYENNE      0840911Alençon             0790440012668009551760003700100000000000188      000000                                                                                                                                 140043731 2247    130043711    0    120043731 2347    110045891 2317    100044991 2277    003661   003931   004034   004700   004447   004679   005012   004873   004683            003946   004116                                      
610000600210015 00120 4113001FIN DEVIATION       0720070LIMITE MAYENNE      0840911Alençon             0790440012668009551760003700100000000000188      000000                                                                                                                                 140042751 2057    130043181    0    120043131 2127    110045091 2067    100044291 2017    003664   003834   003989   004445   004289   004643   004616   004898   004653            003994   003974                                      
610000600310015 00120 4113001FIN DEVIATION       0720070LIMITE MAYENNE      0840911Alençon             0790440012668009551760003700100000000000188      000000                                                                                                                                 140086481 2127    130086891    0    120086861 2207    110090981 2147    100089281 2107    007325   007765   008023   009145   008736   009322   009628   009771   009336            007940   008090                                      
760501100110015 00280 1810241DPT SOMME           0290000CALLENGEVILLE       0430900Fallencourt         0350000014900014900760501200100000000000193      000000                                                                                                                                 140066448         130064428         120065378         110067048         100065618    0                                                                                                                                                   
760501100210015 00280 1810241DPT SOMME           0290000CALLENGEVILLE       0430900Fallencourt         0350000014900014900760501200200000000000193      000000                                                                                                                                 140066298         130064438         120065508         110066738         100065518    0                                                                                                                                                   
760501100310015 00280 1810241DPT SOMME           0290000CALLENGEVILLE       0430900Fallencourt         0350000014900014900760501200300000000000193      000000                                                                                                                                 140132738         130128858         120130878         110133778         100131128    0                                                                                                                                                   
760501200110015 00280 1110241CALLENGEVILLE       0430900NEUFCHATEL NORD     0550000Callengeville       0450000011100011100760501500100000000000193      000000                                                                                                                                 140061171 2677    130059311         120060181 2647    110061711 2687    100060391 2607    004427   004781   005131   006201   006197   007050   008304   008661   006301   005914   005126   005187                                      
760501200210015 00280 1110241CALLENGEVILLE       0430900NEUFCHATEL NORD     0550000Callengeville       0450000011100011100760501500100000000000193      000000                                                                                                                                 140062281 2807    130060531         120061531 2737    110062681 2737    100061531 2677    004638   004896   005245   006226   006129   007032   007389   009486   006786   006186   005404   005207                                      
760501200310015 00280 1110241CALLENGEVILLE       0430900NEUFCHATEL NORD     0550000Callengeville       0450000011100011100760501500100000000000193      000000                                                                                                                                 140123451 2767    130119841         120121711 2707    110124391 2727    100121921 2657    009065   009677   010376   012427   012326   014082   015693   018147   013087   012100   010530   010394                                      
760500401110015 01310 1810241                    0210936                    0300600Sandouville         0280600008664008664760500500100000000000409      000000                                                                                                                                 140095868         130093608         120095078         110095098         100087238                                                                                                                                                        
760500401210015 01310 1810241                    0210936                    0300600Sandouville         0280600008664008664760500500200000000000409      000000                                                                                                                                 140108518         130103918         120104798         110105838         100098038                                                                                                                                                        
760500401310015 01310 1810241                    0210936                    0300600Sandouville         0280600008664008664760500500300000000000409      000000                                                                                                                                 140204378         130197518         120199868         110200928         100185268                                                                                                                                                        
760500500110015 01310 1110241                    0300600                    0330393GONFREVILLE         0320850002793002793760501200100000000000409      000000                                                                                                                                 140208701    7    130203761    7    120206961    8    110207001 1067    100200201    8    019880   020220   020472   021066   020077   022125   020928   018977   022650   022777   020946   020365                                      
760500500210015 01310 1110241                    0300600                    0330393GONFREVILLE         0320850002793002793760501200100000000000409      000000                                                                                                                                 140225221         130215671         120217491 1298    110219641 1157    100216611 1168    021336   021651   022027   022956   021694   023769   023065   020289   024359   024526   022472   022153                                      
760500500310015 01310 1110241                    0300600                    0330393GONFREVILLE         0320850002793002793760501200100000000000409      000000                                                                                                                                 140433921         130419431         120424451    8    110426641 1127    100416811 1048    041216   041871   042499   044022   041771   045894   043993   039266   047009   047303   043418   042518                                      
760500400110015 0131001810241                    0160000                    0210936Tancarville         0160000005936005936760500500100000000000409      000000                                                                                                                                 140100388         130098018         120099558         110099578         100096308    0                                                                                                                                                   
760500400210015 0131001810241                    0160000                    0210936Tancarville         0160000005936005936760500500200000000000409      000000                                                                                                                                 140089038         130085268         120085988         110086838         100085648    0                                                                                                                                                   
760500400310015 0131001810241                    0160000                    0210936Tancarville         0160000005936005936760500500300000000000409      000000                                                                                                                                 140189418         130183278         120185538         110186408         100181948    0                                                                                                                                                   
760008400110015 02820 4815001a131                0000000RN 15               0020942gonfreville         0000400002942002942760500500100000000000102      000000                                                                                                                                 140095718         130093458         120094928         110094948         100091838                                                                                                                                                        
760008400210015 02820 4815001a131                0000000RN 15               0020942gonfreville         0000400002942002942760500500200000000000102      000000                                                                                                                                 140094668         130090658         120091428         110092338         100091068                                                                                                                                                        
760008400310015 02820 4815001a131                0000000RN 15               0020942gonfreville         0000400002942002942760500500300000000000102      000000                                                                                                                                 140190378         130184108         120186348         110187278         100182898                                                                                                                                                        
760500000110015 01510 1110241PISSY POVILLE       0000000PISSY POVILLE       0060400PISSY POVILLE       0010300006400006400760500500100000000000288      009917 1097    009291   009658   009928   010529   009743   011034   009567   009262   010374   010188   009820   009653               140114191 1507    130117261 1357    120100861    0    110100361    0    100096451    0    010955   011250   011772   012184   011736   012820   012669   011197   011401   011175   010266   009617                                      
760500000310015 01510 1110241PISSY POVILLE       0000000PISSY POVILLE       0060400PISSY POVILLE       0010300006400006400760500500100000000000288      019296  917    018176   018852   019349   020492   019020   021406   018768   017989   020097   019657   019069   018758               140220641 1357    130215671 1047    120199561    0    110198171    0    100190741    0    021045   021713   022701   023323   022457   024707   024600   021466   022170   021720   020066   018833                                      
760500000210015 01510 1110241PISSY POVILLE       0000000PISSY POVILLE       0060400PISSY POVILLE       0010300006400006400760500500100000000000288      009379  817    008885   009194   009421   009963   009277   010372   009201   008727   009723   009469   009249   009105               140106451 1287    130098411    7    120098701    0    110097811    0    100094291    0    010090   010463   010929   011139   010721   011887   011931   010269   010769   010545   009800   009216                                      
500000200210015 00130 4110201CALVADOS            0000000RD 913              0110000ST HILAIRE          0060000010299010299500000500114000000000296      008500 133     007569   008187   008851   010018   010542   010945   008455            009966   009800   008994   008856               140095301 1317    130089111 1337    120087841 1287    110088331    7    100086141 1367    007528   007925   008508   009818   009653   012174   011025   011088   010187   009519   008568   008293                                      
140001002110015 00130 4110101BAYEUX              0980183LIMITE DE LA MANCHE 1280706LONGUEVILLE         1130785031535031535500100890100000000000196      006467 118                                                                                                                             140071891 1087    130067621    8    120068191    8    110069451    8    100068501 1057    005482   005954   006303   007523   007336   008652   008360   008440   007470   007242   006234                                               
760008701110015 13380 1140131Rive Gauche         0080000Rive Droite         0090960Pt Flaubert         0080500001960001960760500500100000000000814      024786 1027    023414   024298   025242   026148   023852   026381   024753   022465   025600   025409   024823   025125               140271211 1767    130000001    0    120000001    0    110000001    0    100000001    0    026684   022091   028581   030355   028252   031172   030544   025545   026092   026270   025266   024252                                      
140001002310015 00130 4110101BAYEUX              0980183LIMITE DE LA MANCHE 1280706LONGUEVILLE         1130785031535031535500100890100000000000196      012742 120                                                                                                                             140138541 1097    130133801    8    120135111    8    110137831    8    100136021 1087    010991   011737   012524   014517   014430   017403   016438   016667   014886   014196   012301                                               
500000200310015 00130 4110201CALVADOS            0000000RD 913              0110000ST HILAIRE          0060000010299010299500000500114000000000296      017646 137     014963   016387   017480   020136   020824   021476   019743   011111   018551   018258   016450   016449               140189841 1347    130177771 1367    120175021 1317    110155161    7    100171671 1387    014875   015820   016861   019648   019354   023890   022180   022209   020181   019070   016959   016610                                      
760008701310015 13380 1140131Rive Gauche         0080000Rive Droite         0090960Pt Flaubert         0080500001960001960760500500100000000000814      049233  977    046508   048279   049875   051940   047472   052864   048866   044553   050865   050507   049555   049696               140529001 1387    130000001    0    120000001    0    110000001    0    100000001    0    053227   047992   055485   057857   054250   058525   056557   048842   051603   051988   050078   048129                                      
140001002210015 00130 4110101BAYEUX              0980183LIMITE DE LA MANCHE 1280706LONGUEVILLE         1130785031535031535500100890100000000000196      006278 122                                                                                                                             140066651 1097    130066181    8    120066921    8    110068381    8    100067521 1097    005509   005783   006221   006994   007094   008751   008078   008227   007416   006954   006067   002891                                      
760008701210015 13380 1140131Rive Gauche         0080000Rive Droite         0090960Pt Flaubert         0080500001960001960760500500100000000000814      024447  957    023094   023981   024633   025792   023620   026483   024113   022088   025265   025098   024732   024571               140257791 1197    130000001         120000001         110000001         100000001         026543   025901   026904   027502   025998   027353   026013   023297   025511   025718   024812   023877                                      
760008500210015 03380 4110201PETIT COURONNE      0000000GRAND QUEVILLY      0030500CETE                0010800003500003500760500500100000000000388      035361  88                                                                                                                             140372091 1027    130375661 1117    120345411    8    110341161    7    100317811    0    036735   036969   037778   039254   037370   039950   039592   033955   036666   037420   035875   035011                                      
760008500310015 03380 4110201PETIT COURONNE      0000000GRAND QUEVILLY      0030500CETE                0010800003500003500760500500100000000000388      069661  87                                                                                                                             140729921 1007    130723171    7    120670291    8    110670011    7    100640271    0    072037   072128   074072   076704   072325   077812   075995   067642   072986   074086   070948   069289                                      
760007500210015 01380 4810201GD COURONNE         0090000GD COURONNE         0100064GD COURONNE         0090800001064001064760007600200000000000288      015017                                                                                                                                 140156908         130154308         120132158         110152518         100150998                                                                                                                                                        
760007800210015 01380 4810201PETIT COURONNE      0140800ST ETIENNE ROUVRAY  0150048ST ETIENNE ROUVRAY  0150000000248000248760007600200000000000288      015910                                                                                                                                 140166238         130163478         120140018         110161588         100159978                                                                                                                                                        
760007700210015 01380 4810601PETIT COURONNE      0120900PETIT COURONNE      0140800PETIT COURONNE      0130500001900001900760007600200000000000288      041669                                                                                                                                 140435368         130428138         120366678         110423168         100418948                                                                                                                                                        
760007600210015 01380 4110201GRAND COURONNE      0100064PETIT COURONNE      0120900Les Essarts         0110200002836002836760007600100000000000288      020333  907    018903   019900   020252   021604   019634   022112   020859   018353   021423   020981   020245   019816               140212441 1047    130208911    7    120178921    7    110206481    7    100204421    7    020181   020658            022095   021973   023138   022678   019866   021470   021519   020458   019668                                      
760008600210015 03380 4110101gd quevilly         0030500gd quevilly         0050850Bois Cany           0050600001500001500760500500100000000000301      031937  697    030143   031282   031784   033567   030655   033647   032464   029039   033642   032884   032102   032144               140333551    7    130337411    7    120000001    0    110000001    0    100000001    0    032681   033416   034176   035424   033663   035980   035259   030713   033044   033374   032205   030441                                      
760007500310015 01380 4810201GD COURONNE         0090000GD COURONNE         0100064GD COURONNE         0090800001064001064760007600300000000000288      029731                                                                                                                                 140310358         130346528         120273238         110296598         100288278                                                                                                                                                        
760007800310015 01380 4810201PETIT COURONNE      0140800ST ETIENNE ROUVRAY  0150048ST ETIENNE ROUVRAY  0150000000248000248760007600300000000000288      031880                                                                                                                                 140332788         130372108         120293148         110317978         100308988                                                                                                                                                        
760007700310015 01380 4810601PETIT COURONNE      0120900PETIT COURONNE      0140800PETIT COURONNE      0130500001900001900760007600300000000000288      083500                                                                                                                                 140871618         130974588         120767748         110832768         100809208                                                                                                                                                        
760007600310015 01380 4110201GRAND COURONNE      0100064PETIT COURONNE      0120900Les Essarts         0110200002836002836760007600100000000000288      040745  917    037880   039815   040572   043163   039551   043651   041243   037446   043235   042167   040715   039663               140425311 1057    130475551    7    120374621    7    110406341    7    100394841    7    040206   040813            047056   044965   045290   043705   039363   043190   043033   040951   039317                                      
760008500110015 03380 4110201PETIT COURONNE      0000000GRAND QUEVILLY      0030500CETE                0010800003500003500760500500100000000000388      034300  86                                                                                                                             140357831    7    130347511    7    120324881    8    110328851    7    100322461    7    035302   035159   036294   037450   034955   037862   036403   033687   036320   036666   035073   034278                                      
760007800110015 01380 4810201PETIT COURONNE      0140800ST ETIENNE ROUVRAY  0150048ST ETIENNE ROUVRAY  0150000000248000248760007600100000000000288      015970                                                                                                                                 140166558         130208638         120153138         110156398         100149018                                                                                                                                                        
760007700110015 01380 4810601PETIT COURONNE      0120900PETIT COURONNE      0140800PETIT COURONNE      0130500001900001900760007600100000000000288      041831                                                                                                                                 140436258         130546458         120401078         110409608         100390268                                                                                                                                                        
760007500110015 01380 4810201GD COURONNE         0090000GD COURONNE         0100064GD COURONNE         0090800001064001064760007600100000000000288      014714                                                                                                                                 140153458         130192228         120141088         110144088         100137288                                                                                                                                                        
760007600110015 01380 4110201GRAND COURONNE      0100064PETIT COURONNE      0120900Les Essarts         0110200002836002836760007600100000000000288      020412  937    018977   019915   020320   021559   019917   021539   020384   019093   021812   021186   020470   019847               140212871 1087    130266641    7    120195701    7    110199861    7    100190421    7    020025   020155            024961   022992   022152   021027   019497   021720   021514   020493   019649                                      
760500200110015 01500 1110241Canteleu            0040000ech la vaupaliere   0060320La Vaupaliere       0040850002090002090760500500100000000000102      026349  887    024633   025764   026592   027895   025739   028794   024025   023100   027771   027720   026893   027395               140273071 1127    130272841 1227    120260261    7    110258951    7    100248841    7    026638   026766   027649   028168   027072   029106   027903   027052   027276   027690   026551   025818                                      
140004599110015 08140 4110201Ech. du Pays D'auge 0260788ECHANGEUR MONTALIVET0270380Porte de Paris      0270228000592000592500100890100000000000997      042321  977    038932   042140   043621   043669   041016   047478   041954   040784   046081   046034   043131   033349               140437541    7    130437031    7    120435591    7    110440211    7    100414741    7    041494   042490   043067   046392   043851   043408   042865   043880   045906   045940   043006   042743                                      
500000200110015 00130 4110201CALVADOS            0000000RD 913              0110000ST HILAIRE          0060000010299010299500000500114000000000296      009146 141     007394   008200   008629   010118   010282   010531   011288   011135   008585   008458   007456   007593               140094541 1407    130088661 1427    120087181 1377    110066831 1077    100085531 1427    007347   007895   008353   009830   009701   011716   011155   011121   009994   009551   008391   008317                                      
760500201210015 01500 1110241Ech la vaupaliere   0060320ech A 151           0080880St Jean de Cardonay 0060500002560002560760500500100000000000102      025668 5367    024227   025344   026004   027317   025344   028383   023818   023177   025972   026638   025657   026255               140265001 1017    130265491    7    120283821    0    110281251    0    100271121    0    025820   026238   027156   027465   026685   028768   027257   023513   026833   026954   026085   025297                                      
760500200310015 01500 1110241Canteleu            0040000ech la vaupaliere   0060320La Vaupaliere       0040850002090002090760500500100000000000102      051782  857    048344   050491   051873   054649   050556   056075   049463   046261   054063   054129   052255   053422               140534101 1117    130530611 1217    120510401    7    110506821    7    100487781    7    051916   052209   053961   054953   053023   056898   054954   052470   053724   054151   052064   050606                                      
760008600310015 03380 4110101gd quevilly         0030500gd quevilly         0050850Bois Cany           0050600001500001500760500500100000000000301      065155  707    061453   063772   065061   068276   062970   068449   065898   059768   068604   066898   065229   065671               140670861    7    130669611    7    120722421    0    110000001    0    100366811    0    065350   066780   068400   070380   066766   070927   069701   063247   067837   068158   065424   062239                                      
140004400110015 08140 4110201Ech. de Cormelles   0240719Ech. du Pays D'auge 0260788Vallée sèche        0260243002080000000500100890100000000000997      037525  647    033530   035788   036766   038541   038260   040344   036971   038029   038840   039012   036627   037562               140385591    7    130392141 1087    120389061 1107    110373701 1077    100356091    7    036874   037767   038589   041381   039185   039083   039267   038589   039316   038741   037570   036366                                      
760500200210015 01500 1110241Canteleu            0040000ech la vaupaliere   0060320La Vaupaliere       0040850002090002090760500500100000000000102      025433  837    023711   024727   025281   026754   024817   027281   025438   023161   026292   026409   025362   026027               140261031 1117    130257771 1217    120250141    7    110247871    7    100238941    7    025278   025443   026312   026785   025951   027792   027051   025418   026448   026461   025513   024788                                      
760500201310015 01500 1110241Ech la vaupaliere   0060320ech A 151           0080880St Jean de Cardonay 0060500002560002560760500500100000000000102      052497 5257    049193   051604   053212   055609   051514   057663   048425   046863   054626   054620   052775   054117               140538071    7    130542301    7    120565021    0    110561041    0    100539991    0    052777   053635   055339   056240   054509   058391   055296   046808   053734   054612   052886   051631                                      
140003700210015 08140 4110201Ech.chemin vert     0080857Echangeur du Bessin 0110520Chemin vert         0090398002212000000500100890100000000000700      028589  667    027668   028239   029981   030837   030055   027879   030319   023313   026340   030390   029283   028730               140292891    7    130286641    7    120286991    7    110290161    7    100282901    7    027491   028514   028203   030623   028505   031190   029893   027749   031341   030991   028985   028067                                      
140004400310015 08140 4110201Ech. de CORMELLES   0240719Ech.du PAYS d'Auge  0260788Vallée sèche        0260243002080000000500100890100000000000997      074660  617    068349   071283   073168   076872   075213   080069   074914   074411   077022   077444   072344   074751               140764421    7    130766601    7    120771501    7    110760611    7    100738681    7    072829   075284   076426   082561   077649   077007   078860   076777   077406   077168   072789   072564                                      
140003100210015 08140 4110201ECHANG.AUTOROUTE A130000000ECHANGEUR MONTALIVET0020000MONDEVILLE          0010000002027000000500100890100000000000193      036150  367    033797   034548   036254   036578   036060   038584   035650   034225   038495   037580   036053   035984               140369751    7    130375601    7    120374641    7    110382781    7    100377431    7    036414   037279   037093   039695   036894   037165   036945   035640   037704   037960   036194   034842                                      
140003100310015 08140 4110201ECHANG.AUTOROUTE A130000000ECHANGEUR MONTALIVET0020000MONDEVILLE          0010000002027000000500100890100000000000193      072248  377    066760   069313   071501   073956   071673   077604   072318   068528   076431   075298   071535   072108               140738551    7    130749731    7    120747531    7    110762621    7    100751991    7    072170   074450   073991   079568   074101   073994   074765   071738   075077   075960   071210   069434                                      
140003100110015 08140 4110201ECHANG.AUTOROUTE A130000000ECHANGEUR MONTALIVET0020000MONDEVILLE          0010000002027000000500100890100000000000193      036098  417    032963   034765   035247   037378   035613   039020   036668   034303   037936   037718   035482   036124               140368801    7    130374131    7    120372891    7    110379841    7    100374561    7    035756   037171   036898   039873   037207   036829   037820   036098   037373   038000   035016   034592                                      
760510010210015 03380 4140201petit quevilly      0050850petit quevilly      0070940petit quevilly      0061000002940002940800500100176000000010600      041009  60     038850   040601   040848   042583   038952   043764                     041572   041814   040326   040875               140418601    7    130396361    7    120402251    0    110000001    0    100213561    7    041482   042605   043085   044436   042327   043705   039794   037194   044314   042502   041196   039947                                      
140004400210015 08140 4110201Ech.de CORMELLEZS   0240719Ech. du Pays D'Auge 0260788Vallée sèche        0260243002080000000500100890100000000000997      037135  607    034819   035495   036402   038331   036953   039725   037943   036382   038182   038432   035717   037189               140378831    7    130374461    7    120382441    7    110386911    7    100382591    7    035955   037517   037837   041180   038464   037924   039593   038188   038090   038427   035219   036198                                      
140004599310015 08140 4110201Ech.du PAYS d'Auge  0260788ECHANGEUR MONTALIVET0270380Porte de Paris      0270228000592000592500100890100000000000997      086745  937    078088   084804   087569   089730   085418   095544   086943   084442   092247   091909   086259   078341               140884221    7    130876651    7    120875731    7    110888471    7    100857101    7    083081   085765   086122   093173   087085   089301   090513   088891   092066   092299   086121   086615                                      
760500201110015 01500 1110241Ech la vaupaliere   0060320ech A 151           0080880St Jean de Cardonay 0060500002560002560760500500100000000000102      026829 5037    024966   026260   027208   028292   026170   029280   024607   023686   028654   027982   027118   027862               140273071    7    130276811    7    120281201    0    110279791    0    100268871    0    026957   027397   028183   028775   027824   029623   028039   023295   026901   027658   026801   026334                                      
280001700210015 00120 4810201Ech. Est Dreux      0140816RD 912 "Les Fenots" 0190637DEVIATION DREUX     0170500004436004001280001600200000000000188      015305                                                                                                                                 140155448         130151828    0    120151648    0    110153198    0    100147358    0                                                                                                                                                   
280001600210015 00120 4110201Limite DEPT 78      0000000Ech. Est Dreux      0140816LA MESANGERE        0100200014661014661280001600178000040030188      015795 110     014596   015552   015961   017034   015961   017316   016402   014270   016225   015991   015435   014869               140160411 1147    130156671 1167    120156481 1167    110158071 1147    100152041    0    014819   015261   015954   016622   015973   017701   016213   014468   016865   016922   016152   015568                                      
760500100210015 01500 1110241ROUEN               0000000CANTELEU            0040000CANTELEU            0020600004230004230760500500100000000000288      029889  717    028310   029324   029969   031462   028949   032169   029322   026559   031168   030842   030292   030429               140303531    7    130299711    7    120291401    0    110288761    0    100278361    0    029605   029895   030930   031332   030275   032411   031215   027073   030972   031274   030249   029072                                      
760008600110015 03380 4110101gd quevilly         0030500gd quevilly         0050850Bois Cany           0050600001500001500760500500100000000000301      033218  737    031310   032490   033277   034709   032315   034802   033434   030729   034962   034014   033127   033527               140337311    7    130332201    7    120000001    0    110000001    0    100000001    0    032669   033364   034224   034956   033103   034947   034442   032534   034793   034784   033219   031798                                      
140004100210015 08140 4110201Ech.Suisse Normande 0200000Ech. IFS bour       0220491IFS Bourg           0210909002506000000500100890100000000000193      028537 1097    024019   026551   027415   029808   029072   030255   031558   028738   029598   029371   027310   028652               140289771 1087    130297911 1067    120299351 1067    110294261 1117    100284981 1097    027405   028806   027718   029924   028326   029618   030956   030153   029036   029230   028742   027837                                      
270000100210015 00120 4813001EURE ET LOIRE       0000000INTERSECTION N 154  0030600NONANCOURT          0000680003606003606270000200200000000000188      010117                                                                                                                                 140102658         130106158    0    120106078    0    110000008    0    100000008    0                                                                                                                                                   
270000101210015 00120 4813001                    0030600                    0030640giratoire anglais   0030600000640000640270000200200000000000188      010117                                                                                                                                 140102658         130106158         120106078         110000008         100000008    0                                                                                                                                                   
270000102210015 00120 4813001                    0030640                    0060458st Lubin Joncherets 0050680002818002818270000200200000000000188      010117                                                                                                                                 140102658         130106158         120106078         110000008         100000008    0                                                                                                                                                   
270000200210015 00120 4110201INTERSECTION N 154  0090000ENTREE VERNEUIL     0230040COURTEILLE BASLINE  0190200014040014040270000200100000000001299      006193    7    004641   005247   005151   006143   006982   006733   006913   006892   006547   006708   006146   006144               140062831    7    130064971    0    120064921    0    110000001    0    100000001    0    005590   005928   006249   006702   006311   006848   006712   006980   006612   006086   005999   005377                                      
270000300210015 00120 4813001ENTREE VERNEUIL     0230040SECTIONNEMENT RN 26 0250650VERNEUIL S/AVRE     0240000003400002605270000200200000000000188      006193                                                                                                                                 140062838         130064978    0    120064928    0    110000008    0    100000008    0                                                                                                                                                   
760500100310015 01500 1110241ROUEN               0000000CANTELEU            0040000CANTELEU            0020600004230004230760500500100000000000288      061570  697    058007   060398   061817   064611   059471   066186   059936   054724   064398   064224   062653   062677               140624591    7    130620451    7    120598671    0    110594491    0    100572161    0    061066   061817   063822   064739   062252   066650   063795   056082   063527   064351   061928   059639                                      
280003600110015 01230 4113001RN10                0070840RN23                0110690LUISANT             0080950003853003853280003900100000000000188      016603 167     015368   015846   016272   017352   016686   017926   017123   015709   017397   016960   016110   016493               140168391 1677    130169511 1647    120171351 1647    110173521 1538    100170871 1538    015847   016302   016856   017264   016741   017912   017209   015941   017577   017645   016376   016406                                      
760500100110015 01500 1110241ROUEN               0000000CANTELEU            0040000CANTELEU            0020600004230004230760500500100000000000288      031681  657    029697   031074   031848   033149   030522   034017   030614   028165   033230   033382   032361   032248               140321061    7    130320741    7    120307271    0    110305731    0    100293801    0    031461   031922   032892   033407   031977   034239   032580   029009   032555   033077   031679   030567                                      
140108405210015 00840 1110241Ech 44              2590655Echangeur BP Ouest  2620822BRETTEVILLE SUR ODON2610928003167003167270000200100000000001097      023332  907    019285   021296   021881   025002   024322   024828   024879   024750   024149   024362   021925   023188               140236011 1057    130235201 1177    120234241 1197    110238391 1187    100232191 1157    020598   022080   022179   025929   024330   024811   026340   025592   023736   024107   021334   022074                                      
280003600310015 01230 4113001RN10                0070840RN23                0110690LUISANT             0080950003853003853280003900100000000000188      032829 164     029931   031245   031950   034313   032921   035266   034438   031097   034318   033624   031927   032908               140332071 1667    130338561 1627    120341901 1637    110345831 1488    100343211 1498    031457   032531   033426   034614   032803   035197   034270   031411   034209   034388   032026   032199                                      
140108405310015 00840 1110241Ech 44              2590655Echangeur BP Ouest  2620822BRETTEVILLE SUR ODON2610928003167003167270000200100000000001097      046286  917    038674   041815   043320   048677   048958   048931   048109   050952   048455   048237   043793   045226               140467881 1087    130464511 1187    120464991 1167    110473181 1187    100461451 1157    041231   043419   044402   050776   048264   049817   050828   050891   047792   047793   042867   043180                                      
280001700310015 00120 4810201Ech. Est Dreux      0140816RD 912 "Les Fenots" 0190637DEVIATION DREUX     0170500004436004001280001600300000000000188      030402                                                                                                                                 140307288         130300178    0    120287828    0    110304208    0    100289748    0                                                                                                                                                   
280001600310015 00120 4110201Limite DEPT 78      0000000Ech. Est Dreux      0140816LA MESANGERE        0100200014661014661280001600178000040030188      031171 109     028519   030722   031214   034045   031046   033971   032790   028324   031689   031728   030223   029910               140315051 1137    130307751 1157    120295161 1187    110311851 1157    100297041    0    028872   030128   031227   032977   031851   033731   031965   028387   032849   033660   031448   030987                                      
140108405110015 00840 1110241Ech 44              2590655Echangeur BP Ouest  2620822BRETTEVILLE SUR ODON2610928003167003167270000200100000000001097      022954  927    019389   020519   021439   023675   024636   024103   023230   026202   024306   023875   021868   022038               140231871 1137    130229311 1197    120230751 1097    110234791 1167    100229261 1147    020633   021339   022223   024847   023934   025006   024488   025299   024056   023686   021533   021106                                      
280003600210015 01230 4113001RN10                0070840RN23                0110690LUISANT             0080950003853003853280003900100000000000188      016226 161     014563   015399   015678   016961   016235   017340   017315   015388   016921   016664   015817   016415               140163681 1657    130169051 1607    120170551 1627    110172311 1458    100172341 1468    015610   016229   016570   017350   016062   017285   017061   015470   016632   016743   015650   015793                                      
280001400110015 00100 4113001Chateaudun sud      0700237lim 41              0820270Chateaudun sud      0700880012000012000280001600141000010010213      005459 200     004831   005134   005193   005826   005610   005769   005831   005458   005679   005663   005215   005293               140054911 1977    130000001         120000001    0    110000001    0    100000001    0    005065   005223   005354   005793   005601   005686   005927   005460   005677   005670   005235   005195                                      
280001700110015 00120 4810201Ech. Est Dreux      0140816RD 912 "Les Fenots" 0190637DEVIATION DREUX     0170500004436004001280001600100000000000188      015097                                                                                                                                 140151848         130148358    0    120136188    0    110151018    0    100142398    0                                                                                                                                                   
140004000210015 08140 4110201ECHAN.D'ETERVILLE   0160252Ech. Suisse Normande0200000FLEURY SUR ORNE     0190366003668000000500100890100000000000997      027726  737    023471   025696   026537   028937   028279   029450   030412   027924   028995   028877   026731   027307               140278851    7    130275201 1147    120275271 1157    110274301 1187    100269131 1147    025073   026599   026623   030069   028650   029727   029684   028669   028419   028602   026108   026366                                      
280001600110015 00120 4110201Limite DEPT 78      0000000Ech.Est Dreux       0140816LA MESANGERE        0100200014661014661280001600128000040030188      015376 107     013923   015170   015253   017011   015085   016655   016388   014054   015464   015737   014788   015041               140154641 1127    130151081 1157    120138681 1237    110153781 1177    100145001    0    014053   014867   015273   016355   015878   016030   015752   013919   015984   016738   015296   015419                                      
140004599210015 08140 4110201Ech. du Pays D'Auge 0260788ECHANGEUR MONTALIVET0270380Porte de Paris      0270228000592000592500100890100000000000997      044424  917    039156   042664   043948   046061   044402   048066   044989   043658   046166   045875   043128   044992               140446681    7    130439621    7    120440141    7    110448261    7    100442361    7    041587   043275   043055   046781   043234   045893   047648   045011   046160   046359   043115   043872                                      
140003700310015 08140 4110201Ech.chemin vert     0080857Echangeur du Bessin 0110520Chemin vert         0090398002212000000500100890100000000000700      059983  677    056767   058055   061038   063742   061477   061640   062437   053353   059257   062736   059800   059455               140602991    7    130587811    7    120585261    7    110593111    7    100578451    7    055841   058582   057748   063402   058785   063470   062268   057332   063857   063996   060026   058425                                      
140108404110015 00840 1110241Echang. Villers Boca2450000Echang Mondrainville2550310VILLY-BOCAGE        2460502010310010310270000200100000000000794      018293 1067    014858   015775   016765   018924   020366   018988   019767   021866   019324   018796   016973   016900               140183381 1197    130183341 1327    120181571 1347    110185051 1347    100180691 1327    015574   016010   017096   019680   019246   019843   020074   021639   019144   018722   016856   016023                                      
270110001110015 10130 4810201N13                 0200000N154                0210130vielle evreux       0210000001130001130270110000100000000000212      016990                                                                                                                                 140170308         130168298         120166658         110000008    0    100000008    0                                                                                                                                                   
270110000110015 10130 4110201Av Foch             0300000RD 613              0320268Parville            0310260002065002065270110000100000000000212      008582  697    007894   008316   008484   009172   008445   009409   008645   007838   008889   008923   008477   008521               140086021    7    130085001         120084171    7    110088441    7    100000001    0    008032   008377   008519   009037   008723   009194   008648   007802   009080   009050   008418   008363                                      
140108404310015 00840 1110241Echang. Villers Boca2450000Echang Mondrainville2550310VILLY-BOCAGE        2460502010310010310270000200100000000000794      036592 1067    029143   031850   033298   038851   039879   038203   040972   043272   037888   037652   033397   034296               140366711 1217    130365761 1347    120362851 1357    110368961 1367    100359731 1347    030656   032367   033896   040008   038745   039232   041714   043124   037417   037352   032884   032337                                      
140000601210015 00130 4110201CARPIQUET           0690000BROUAY              0790212CARPIQUET           0700478009582009582500100890100000000000193      027912  677    025728   026571   028272   029330   028858   030659   024725   027809   029791   029362   027932   025974               140279701    7    130272331    7    120275541    7    110279091    7    100269451    7    025916   026856   026612   029033   027498   029912   028913   027165   029591   029235   027643   027296                                      
760510010310015 03380 4140201petit quevilly      0050850petit quevilly      0070940petit quevilly      0061000002940002940800500100176000000010600      079337  65     074665   078145   079031   082376   076402   083654                     081486   080988   078206   079798               140794961    7    130779621    7    120755321    0    110000001    0    100383511    7    075805   079160   080793   082172   080467   083081   079215   074386   081207   081837   079054   076981                                      
140108404210015 00840 1110241Echang.villers Bocag2450000Echang Mondrainville2550310VILLY-BOCAGE        2460502010310010310270000200100000000000794      018299 1067    014285   016075   016533   019927   019513   019215   021205   021406   018564   018856   016424   017396               140183331 1227    130182421 1357    120181281 1367    110183911 1377    100179041 1357    015082   016357   016800   020328   019499   019389   021640   021485   018273   018630   016028   016314                                      
280001400310015 00100 4113001Chateaudun sud      0700237lim 41              0820270Chateaudun sud      0700880012000012000280001600141000010030213      010798 196     009609   010144   010355   011436   011288   011382   011340   010905   011339   010932   010419   010412               140108181 1977    130000001         120000001    0    110000001    0    100000001    0    010033   010303   010636   011397   011022   010939   011405   010734   011365   011230   010472   010264                                      
270110001310015 10130 4810201N13                 0200000N154                0210130vielle evreux       0210000001130001130270110000300000000000212      019740                                                                                                                                 140197768         130195268         120166658         110000008    0    100000008    0                                                                                                                                                   
500002200110015 01750 4110201A 84                0390000RD 973              0410885PONTS-SOUS-AVRANCHES0390900003125003125500002400100000000000103      014471 1497    010493   012301   012671   016338   016499   015699   018972   018873   010797   014737   012305   013672               140144791 1517    130151611    0    120152601    0    110154421    0    100152451    0    010513   011572   012258   015688   015028   015826   019008   019391   014497   014590   012189   012915                                      
270110000310015 10130 4110201Av Foch             0300000RD 613              0320268Parville            0310260002065002065270110000100000000000212      017132  687    015819   016608   016957   018199   017020   018743   017102   015864   017791   017762   016949   016826               140171371    7    130168801         120000001    7    110175271    7    100000001    0    015951   016630   016977   017846   017253   018487   017160   015762   018217   017959   016872   016566                                      
140003500210015 08140 4110201Ech.pierre Heuzé    0040763Ech.vallée des jardi0070255Caen                0070093002421000000500100890100000000000193      030812  677    029084   029560   031130   031754   031160   033122   029696   030155   032087   031870   030333   029803               140307951    7    130304251    7    120304571    7    110307821    7    100301591    7    029321   030456   030344   032320   030401   032434   031293   029394   032547   031975   030039   029118                                      
500002300110015 01750 4810201RD 973              0410885ECH.CROMEL          0470235LE VAL ST PERE      0450174005585005585500002400100000000000201      018469                                                                                                                                 140184518         130181168         120182348         110184518         100182168                                                                                                                                                        
500002400110015 01750 4110201ECH. CROMEL         0470235A 84                0490130ST-QUENTIN          0480330001940001940500002800100000000001187      019193 1067    014380   016408   017149   021102   021254   020750   024532   025090   019967   019311   012559   017466               140191741 1167    130188251 1037    120189471 1307    110191721 1217    100189271 1417    015189   015502   017215   019511   020010   020646   024424   025379   019739   019071   016330   016700                                      
140001600210015 01580 4110201ROCQUANCOURT        0290766IFS                 0380416TILLY LA CAMPAGNE   0340573008650008650500100890100000000000196      014184  808    012815   013366   014056   014389   014075   015485   014124   013548   014927   014872   014226   014322               140141661    7    130142121    8    120141551    8    110144901    8    100140121    8    013126   013636   013744   014851   014042   014938   014427   013799   015012   014802   013844   013784                                      
270110001210015 10130 4810201N13                 0200000N154                0210130vielle evreux       0210000001130001130270110000200000000000212      002750                                                                                                                                 140027468         130026978         120026558         110000008    0    100000008    0                                                                                                                                                   
140003500310015 08140 4110201Ech.Pierre Heuzé    0040763Ech.vallée des jardi0070255Caen                0070093002421000000500100890100000000000193      058585  687    054291   055825   058658   061338   059470   063237   058575   057542   060452   060314   056819   056474               140584991    7    130575531    7    120575521    7    110582171    7    100570481    7    054662   057277   056921   061888   058363   061499   060616   056821   061040   060954   056456   055599                                      
270110002210015 10130 4810201N154                0210130D6154               0240100Evreux              0220000002890002890270110000200000000000212      017274                                                                                                                                 140172448         130169318         120166658         110000008    0    100000008    0                                                                                                                                                   
270110000210015 10130 4110201Av Foch             0300000RD 613              0320268Parville            0310260002065002065270110000100000000000212      008550  687    007925   008292   008473   009027   008575   009334   008457   008026   008902   008839   008472   008305               140085351    7    130083801         120082481    7    110086831    7    100000001         007919   008253   008458   008809   008530   009293   008512   007960   009137   008909   008454   008203                                      
270000100310015 00120 4813001EURE ET LOIRE       0000000INTERSECTION N 154  0030600NONANCOURT          0000680003606003606270000200300000000000188      020330                                                                                                                                 140202948         130208958    0    120210448    0    110000008    0    100000008    0                                                                                                                                                   
270000101310015 00120 4813001                    0030600                    0030640giratoire anglais   0030600000640000640270000200300000000000188      020330                                                                                                                                 140202948         130208958         120210448         110000008         100000008    0                                                                                                                                                   
270000102310015 00120 4813001                    0030640                    0060458st Lubin Joncherets 0050680002818002818270000200300000000000188      020330                                                                                                                                 140202948         130208958         120210448         110000008         100000008    0                                                                                                                                                   
270000200310015 00120 4110201INTERSECTION N 154  0090000ENTREE VERNEUIL     0230040COURTEILLE BASLINE  0190200014040014040270000200100000000001299      012714    7    009917   011332   011053   013199   013628   013606   014319   013679   013146   013847   012195   012557               140126861    7    130130601    0    120131551    0    110000001    0    100000001    0    010992   011822   012249   013419   012780   013818   013666   013650   013045   012993   012063   011708                                      
270000300310015 00120 4813001ENTREE VERNEUIL     0230040SECTIONNEMENT RN 26 0250650VERNEUIL S/AVRE     0240000003400002605270000200300000000000188      012714                                                                                                                                 140126868         130130608    0    120131558    0    110000008    0    100000008    0                                                                                                                                                   
280001400210015 00100 4113001Chateaudun sud      0700237lim 41              0820270Chateaudun sud      0700880012000012000280001600141000010020213      005339 192     004778   005010   005162   005610   005678   005613   005509   005447   005660   005269   005204   005119               140053271 1977    130000001         120000001         110000001         100000001         004968   005080   005282   005604   005421   005253   005478   005274   005688   005560   005237   005069                                      
140001600310015 01580 4110201ROCQUANCOURT        0290766IFS                 0380416TILLY LA CAMPAGNE   0340573008650008650500100890100000000000196      029937  868    027002   028157   029726   030557   029687   032711   029382   028724   031553   031369   030180   030193               140298651    7    130296851    8    120294811    8    110297711    8    100285351    8    027837   028934   029044   031202   029559   031453   030343   029036   031746   031143   029173   028957                                      
140004000310015 08140 4110201ECHAN.D'ETERVILLE   0160252Ech. Suisse Normande0200000FLEURY SUR ORNE     0190366003668000000500100890100000000000997      056068  757    047376   051295   053480   057810   058006   059310   060798   058241   059050   058302   054162   054719               140559311    7    130550641 1137    120551471 1147    110547711 1177    100538751 1157    050173   052593   053109   059556   057044   059781   059209   058233   058101   057580   053022   052670                                      
140003500110015 08140 4110201Ech. Pierre Heuzé   0040763Ech.vallée des jardi0070255Caen                0070093002421000000500100890100000000000193      027773  727    025207   026265   027528   029584   028310   030115   028879   027387   028365   028444   026486   026671               140277041    7    130271281    7    120270951    7    110274351    7    100268891    7    025341   026821   026577   029568   027962   029065   029323   027427   028493   028979   026417   026481                                      
500002300310015 01750 4810201RD 973              0410885ECH.CROMEL          0470235LE VAL ST PERE      0450174005585005585500002400300000000000201      035507                                                                                                                                 140354048         130348988         120350538         110356158         100349898                                                                                                                                                        
500002400310015 01750 4110201ECH. CROMEL         0470235A 84                0490130ST-QUENTIN          0480330001940001940500002800100000000001187      038321 1097    029165   032625   034416   041405   042977   041061   047095   051567   040537   036212   028757   033434               140382061 1187    130376641 1007    120378271 1267    110384391 1297    100377541 1387    030363   030934   034231   039102   039968   041271   047125   050673   040003   037793   033192   033138                                      
610000501210015 00120 4113001ENTREE DEVIATION    0610620R.N. 138            0630300VALFRAMBERT         0620100001680001680610000600100000000000294      005457 230     004655   005044   005325   005718   005596   005849   005846   005538   005881                     005114               140054401 2187    130053791         120053751    7    110053101 1817    100053811         004720   005058   005132   005182   005493   005955   005918   005629   006170   005746   005222   005044                                      
410000100110015 00100 4113001Dpt 28              0000000RN 157              0100266ST HILAIRE          0050000010367010367410000300100000000000394      004153 323     003502   003744   003946   004454   004356   004465   004870   004342   004291   004149   003797   003898               140041401 3167    130041671 3297    120041921 3377    110042621 3297    100040941         003614   003853   003964   004453   004180   004241   004656   004422   004271   004268   003859   003880                                      
140004100310015 08140 4110201Ech.Suisse Normande 0200000Ech. IFS bourg      0220491IFS Bourg           0210909002506000000500100890100000000000193      057915 1087    048726   053434   055332   059694   059688   061121   063059   060015   060434   059702   055676   057838               140577191 1067    130585331 1077    120589721 1087    110588211 1147    100572561 1137    053754   055812   054848   059701   056944   060020   061216   060382   059199   058667   056270   055768                                      
140001600110015 01580 4110201ROCQUANCOURT        0290766IFS                 0380416TILLY LA CAMPAGNE   0340573008650008650500100890100000000000196      015753  968    014187   014791   015670   016168   015612   017226   015258   015176   016626   016497   015954   015871               140156991    7    130154731    8    120153261    8    110152811    8    100145231    8    014711   015298   015300   016351   015517   016515   015916   015237   016734   016341   015329   015173                                      
610000501310015 00120 4113001ENTREE DEVIATION    0610620R.N. 138            0630300VALFRAMBERT         0620100001680001680610000600100000000000294      010153 250     008544   009380   009817   010752   010424   010750   011142   010425   010719                     009559               140101181 2297    130102751         120102691    7    110099731 1837    100101781         008744   009352   009523   010094   010669   010795   010419   010433   011732   010698   009527   009416                                      
610000501110015 00120 4113001ENTREE DEVIATION    0610620R.N. 138            0630300VALFRAMBERT         0620100001680001680610000600100000000000294      004696 260     003889   004336   004492   005034   004828   004901   005296   004887   004838                     004445               140046781 2557    130048961         120048941    7    110046631 1877    100047971         004024   004294   004391   004912   005176   004840   004501   004804   005562   004952   004305   004372                                      
280001901110015 00120 4810251                    0280000Limite DEPT 27      0310400DAMPIERRE SUR AVRE  0290000003400003400280001800127000020030188      006910                                                                                                                                 140068808         130067298         120067568         110067588         100068568                                                                                                                                                        
280001800110015 00120 4110201RD 912 "Les Fenots" 0190637Limite DEPT 27      0271017Saint Rémy          0230700008300006221280001800127000010030188      014157 194     012244   013379   013577   015060   014468   014978   015234   014423   014388   014801   013427   013863               140140941 1917    130137841 1947    120138391 1957    110138421 1937    100140411    0    012234   012912   013478   014501   014195   015028   015049   014796   014751   014955   013497   013667                                      
140000601310015 00130 4110201CARPIQUET           0690000BROUAY              0790212CARPIQUET           0700478009582009582500100890100000000000193      055656  707    050558   052420   055658   058495   056952   060321   054294   055159   058865   058354   054960   051852               140553951    7    130537381    7    120544241    7    110553111    7    100534541    7    050861   053076   052575   057538   054775   058932   057872   054140   058267   057997   054399   054320                                      
500100300210015 00840 1110241PI RN 176           1620225ECH. RN 175         1630435POILLEY             1630200001212001212500100890100000000001100      011834 1068    009452   010473   010799   012792   012703   012873   014424   014681   012394   011831   008211   011204               140117761 1517    130114171 1148    120113381 1168    110115231 1188    100112521 1168    009337   009945   010556   012232   011871   012953   014410   014578   012244   011711   010570   010761                                      
500002300210015 01750 4810201RD 973              0410885ECH.CROMEL          0470235LE VAL ST PERE      0450174005585005585500002400200000000000201      017038                                                                                                                                 140169538         130167828         120168198         110171648         100167738                                                                                                                                                        
500002400210015 01750 4110201ECH. CROMEL         0470235A 84                0490130ST-QUENTIN          0480330001940001940500002800100000000001187      019128 1117    014785   016217   017267   020303   021723   020311   022563   026477   020570   016901   016198   015968               140190321 1197    130188391    7    120188801 1247    110192671 1337    100188271 1377    015174   015432   017016   019591   019958   020625   022701   025294   020264   018722   016862   016438                                      
280001901310015 00120 4810251                    0280000Limite DEPT 27      0310400DAMPIERRE SUR AVRE  0290000003400003400280001800327000020030188      013810                                                                                                                                 140137388         130134578         120135248         110136298         100136978                                                                                                                                                        
500001000110015 00130 4110201RD 902 DEV. VAL     0380644ROND POINT AUCHAN   0520390SAINT-JOSEPH        0430352014209014209500001070100000000001187      011281  787    011576   011011   011154   011651   011441   012034   011317   011346   012034   008985   011226   011635               140112221    7    130107501 2308    120110131 1858    110112211    8    100110591    7    010402   010713   010633   011600   011029   011994   011422   010973   011771   011665   011095   011369                                      
280001800310015 00120 4110201RD 912 "Les Fenots" 0190637Limite DEPT 27      0271017Saint Rémy          0230700008300006221280001800127000010030188      028083 193     024495   026687   027058   029635   028781   029766   030419   028400   028606   028977   026786   027323               140279351 1907    130273611 1937    120274951 1947    110277041 1927    100278421    0    024446   025741   026772   028721   027870   030049   029975   029131   029124   029330   026906   027040                                      
140003300110015 08140 4110201Ech.porte/angleterre0030757Ech.Pierre Heuzé    0040763PIierre-Heuzé       0040293000999000000500100890100000000000188      041558  637    037986   039645   041612   043405   041115   045210   042549   039416   043634   042841   040485   040818               140413351    7    130409391    7    120408621    7    110415001    7    100399361    7    039000   040904   040252   042502   041260   043006   043758   040616   043183   042675   039021   039884                                      
140003200110015 08140 4110201Echangeur Montalivet0020000Ech.porte/Angleterre0030757Calix               0030332001750000000500100890100000000000190      041434  567    037436   039485   041320   042933   040722   044752   042406   038896   044636   042869   040519   041275               140411841    7    130403551    7    120402731    7    110406991    7    100402401    7    038612   040281   039721   043015   040759   042234   043738   040866   042703   042924   039626   039738                                      
280001901210015 00120 4810251                    0280000Limite DEPT 27      0310400DAMPIERRE SUR AVRE  0290000003400003400280001800227000020030188      006900                                                                                                                                 140068588         130067288         120067688         110068718         100068418                                                                                                                                                        
280003500110015 01230 4113001RN154               0030000RN10                0070840MORANCEZ            0060400004840004840280003900100000000000188      018693 120     017542   017994   018521   019140   018178   019685   018325   017914   019745   019721   018196   019347               140185791 1337    130186261 1247    120188571 1257    110189191 1297    100185861    0    017797   018181   018585   019048   018315   019412   018595   018001   019731   019649   017900   017757                                      
280001800210015 00120 4110201RD 912 "Les Fenots" 0190637Limite DEPT 27      0271017Saint Rémy          0230700008300006221280001800127000010030188      013926 192     012251   013308   013481   014575   014313   014788   015185   013977   014218   014176   013359   013460               140138411 1897    130135771 1927    120136561 1937    110138621 1917    100138011    0    012212   012829   013294   014220   013675   015021   014926   014335   014373   014375   013409   013373                                      
410000401210015 00100 4813001RD 957              0260298                    0370000Le Petit Plessis    0350000010702010702410000500200000000000295      004290                                                                                                                                 140042638         130043108         120042818         110043238         100041558    0                                                                                                                                                   
410000402210015 00100 4813001                    0370000                    0400035L'Etincelle         0380850003035003035410000500200000000000295      004290                                                                                                                                 140042638         130043108         120042818         110043238         100041558    0                                                                                                                                                   
410000500210015 00100 4113001                    0400035Dpt 37              0451074FAUCHERIE           0420850006039006039500000500100000000000295      004290 270     003680   003769   004051   004333   004621   004553   004566   004754   004485   004411   004141   004069               140042631 2677    130043101 2787    120042811 2867    110043231 2817    100041551    0    003768   003975   004159   004520   004306   004472   004415   004672   004445   004355   004072   003980                                      
280003500310015 01230 4113001RN154               0030000RN10                0070840MORANCEZ            0060400004840004840280003900100000000000188      036248 120     033130   034900   035719   037261   035298   038077   036114   033905   038272   038433   036042   037843               140360161 1537    130365721 1247    120369411 1277    110369451 1277    100362001    0    034749   035601   036225   037274   034712   036987   036174   035420   038444   037589   034625   034461                                      
280003500210015 01230 4113001RN154               0030000RN10                0070840MORANCEZ            0060400004840004840280003900100000000000188      017555 120     015588   016906   017198   018121   017120   018392   017789   015991   018527   018712   017846   018496               140174371 1647    130179461 1247    120180841 1277    110180261 1267    100176141    0    016952   017420   017640   018226   016397   017575   017579   017419   018713   017940   016725   016704                                      
280000700210015 00100 4817001RD12                0410767RD28/1              0530602MONTBOISSIER        0510700011865009997280000600200000000000188      006225                                                                                                                                 140061838         130060698    0    120060588    0    110061998    0    100060658    0                                                                                                                                                   
280000500210015 00100 4817001                    0340000Bretelle A11        0340855Mignières           0340083000855000855280000600200000000000396      005586                                                                                                                                 140055488         130054468         120054378         110055648         100054448    0                                                                                                                                                   
280000600210015 00100 4117001Bretelle A11        0340855RD12                0410767LA BOURDINIERE      0390000006958005499280000600100000000000188      006716 195     005912   006304   006532   007028   007069   007300   006798   006575   007019   006855   006591   006607               140066701 1927    130065471 1407    120065351 1817    110066871 2198    100065421 2198    006010   006287   006595   006976   006669   007080   006793   006502   007105   006989   006649   006379                                      
140003200310015 08140 4110201Enchageur Montalivet0020000Ech.porte/Angleterre0030757Calix               0030332001750000000500100890100000000000190      082390  637    075128   078320   082470   084551   081587   088694   083356   077107   089273   085013   080983   082254               140818151    7    130801581    7    120800981    7    110808891    7    100799611    7    077206   079961   079138   085297   080606   084341   085995   080867   085454   085147   078781   079023                                      
280004400110015 01540 4813001RD 26 P.S.          0660359Echangeur Sud       0810600BOULLAY-MIVOIE      0790000015817015375280004300100000000000188      008042                                                                                                                                 140079858         130078668         120078368         110077468         100078008                                                                                                                                                        
280004300110015 01540 4110101RN1154              0560000RD26-P.S.           0660359Le Péage            0660350010330009799280004300100000000000202      008400 192     007418   007800   008215   008355   008547   009013   008493   008918   009008   008701   008243   008066               140083401 1917    130082151 1927    120081831 1917    110080891 2418    100081451 1758    007458   007667   008165   008537   008303   009125   008647   008740   008991   008721   007934   007769                                      
280000700310015 00100 4817001RD12                0410767RD28/1              0530602MONTBOISSIER        0510700011865009997280000600300000000000188      012450                                                                                                                                 140123608         130121018    0    120121058    0    110123958    0    100121098    0                                                                                                                                                   
280000500310015 00100 4817001                    0340000Bretelle A11        0340855Mignières           0340083000855000855280000600300000000000188      011341                                                                                                                                 140112598         130110238         120110288         110112938         100110328    0                                                                                                                                                   
280000600310015 00100 4117001Bretelle A11        0340855RD12                0410767LA BOURDINIERE      0390000006958005499280000600100000000000188      013329 192     011698   012539   012887   014091   013909   014533   013875   012733   013816   013709   012950   013207               140132321 1897    130129541 1447    120129571 1787    110132671 1798    100129601 1738    011933   012485   012997   013895   013313   014093   013775   012635   013981   013897   013053   012716                                      
410000401310015 00100 4813001RD 957              0260298                    0370000Le Petit Plessis    0350000010702010702410000500300000000000295      008612                                                                                                                                 140085498         130086508         120086188         110087048         100083578    0                                                                                                                                                   
410000402310015 00100 4813001                    0370000                    0400035L'Etincelle         0380850003035003035410000500300000000000295      008612                                                                                                                                 140085498         130086508         120086188         110087048         100083578    0                                                                                                                                                   
410000500310015 00100 4113001                    0400035Dpt 37              0451074FAUCHERIE           0420850006039006039500000500100000000000295      008612 258     007353   007605   008163   008805   009125   009164   009547   009204   008916   008873   008262   008248               140085491 2647    130086501 2767    120086181 2857    110087041 2807    100083571    0    007529   007996   008325   009155   008665   008931   009181   009159   008827   008696   008085   008010                                      
280000500110015 00100 4817001                    0340000Bretelle A11        0340855Mignières           0340083000855000855280000600100000000000396      005755                                                                                                                                 140057118         130055778         120055918         110057298         100055888    0                                                                                                                                                   
280004400310015 01540 4813001RD 26 P.S.          0660359Echangeur Sud       0810600BOULLAY-MIVOIE      0790000015817015375280004300300000000000188      016901                                                                                                                                 140167718         130165038         120164298         110166938         100164228                                                                                                                                                        
280000700110015 00100 4817001RD12                0410767RD28/1              0530602MONTBOISSIER        0510700011865009997280000600100000000000188      006225                                                                                                                                 140061778         130060328    0    120060478    0    110061968    0    100060448    0                                                                                                                                                   
280004300310015 01540 4110101RN1154              0560000RD 26 - P.S         0660359Le Péage            0660350010330009799280004300100000000000202      016987 188     014924   015915   016536   017392   017152   018400   017913   017208   017934   017481   016514   016443               140168561 1857    130165861 1857    120165111 1837    110167601 1738    100165011 1478    015008   015613   016358   017445   016761   018463   018177   017243   017886   017559   015949   015770                                      
280000600110015 00100 4117001Bretelle A11        0340855RD12                0410767LA BOURDINIERE      0390000006958005499280000600100000000000188      006613 189     005786   006235   006355   007063   006840   007233   007077   006158   006797   006854   006359   006600               140065621 1847    130064071 1527    120064221 1727    110065801    8    100064181    8    005923   006198   006402   006919   006644   007013   006982   006133   006876   006908   006404   006337                                      
140003200210015 08140 4110201Echangeur Montalivet0020000Ech.porte/Angleterre0030757Calix               0030332001750000000500100890100000000000190      040956  677    037692   038835   041150   041618   040865   043942   040950   038211   044637   042144   040464   040979               140406311    7    130398031    7    120398251    7    110401901    7    100397211    7    038594   039680   039417   042282   039847   042107   042257   040001   042751   042223   039155   039285                                      
280004400210015 01540 4813001RD 26 P.S.          0660359Echangeur Sud       0810600BOULLAY-MIVOIE      0790000015817015375280004300200000000000188      008859                                                                                                                                 140087868         130086378         120085938         110089478         100086228                                                                                                                                                        
280004300210015 01540 4110101RN1154              0560000RD26-P.S.           0660359Le Péage            0660350010330009799280004300100000000000202      008587 184     007506   008115   008321   009037   008605   009387   009420   008290   008926   008780   008271   008377               140085161 1817    130083711 1827    120083281 1797    110086711 1428    100083561 1348    007550   007946   008193   008908   008458   009338   009530   008503   008895   008838   008015   008001                                      
410000401110015 00100 4813001RD 957              0260298                    0370000Le Petit Plessis    0350000010702010702410000500100000000000295      004322                                                                                                                                 140042868         130043408         120043378         110043818         100042028    0                                                                                                                                                   
410000402110015 00100 4813001                    0370000                    0400035L'Etincelle         0380850003035003035410000500100000000000295      004322                                                                                                                                 140042868         130043408         120043378         110043818         100042028    0                                                                                                                                                   
410000500110015 00100 4113001                    0400035Dpt 37              0451074FAUCHERIE           0420850006039006039500000500100000000000295      004322 245     003673   003836   004112   004472   004504   004611   004981   004450   004431   004462   004121   004179               140042861 2607    130043401 2727    120043371 2827    110043811 2777    100042021    0    003761   004021   004166   004635   004359   004459   004766   004487   004382   004341   004013   004030                                      
270000600110015 00130 4810201DEVIATION PACY/EURE 0050000                    0060600DEVIATION PACY/EURE 0060000001600001600270000900100000000000188      008111                                                                                                                                 140080408         130079778         120079988         110081498         100079988                                                                                                                                                        
270001000110015 00130 4810201ENTREE BA 105       0180780RN 154              0200413FAUVILLE            0200700002215002215270000900100000000000188      011505                                                                                                                                 140114048         130113148         120113438         110115568         100113418                                                                                                                                                        
270000700110015 00130 4810201DEVIATION PACY/EURE 0060600BRETELLE ST ANDRE   0090100ST AQUILIN DE PACY  0070000002500002500270000900100000000000188      008881                                                                                                                                 140088038         130087348         120087578         110089228         100087568                                                                                                                                                        
270000500110015 00130 4815001YVELINES            0000000DEVIATION PACY/EURE 0050000AIGLEVILLE          0040400004998004998270000900100000000000188      005995                                                                                                                                 140059428         130058958         120059108         110072508         100071168                                                                                                                                                        
270000900110015 00130 4115001BRETELLE ST ANDRE   0090100ENTREE BA 105       0180780MISEREY             0170580009396009396270000900100000000000188      010059  787    009292   009896   009975   010703   009946   010937   010053   008712   010474   010622   009980   010168               140099701    7    130098911         120099161    8    110101021    8    100099141    8    009460   009775   009914   010377   010107            010054   008741   010637   010717   010002   009908                                      
140004000110015 08140 4110201ECHAN.D'ETERVILLE   0160252Ech. Suisse Normande0200000FLEURY SUR ORNE     0190366003668000000500100890100000000000997      028342  787    023905   025599   026943   028873   029727   029860   030386   030317   030055   029425   027431   027412               140280461    7    130275441 1117    120276201 1137    110273411 1177    100269621 1167    025100   025994   026486   029487   028394   030054   029525   029564   029682   028978   026914   026304                                      
140003600210015 08140 4110201Ech.vallée des jardi0070255Ech.chemin vert     0080857Mémorial            0080247001594000000500100890100000000000700      030748  637    028718   029281   031057   031738   031135   033139   029296   029984   032438   031819   030498   029885               140304211    7    130299271    7    120298841    7    110302301    7    100296061    7    028707   029732   029541   031877   029793   032357   031044   028546   032589   031938   029994   029038                                      
500001070210015 00130 4113001ROND POINT AUCHAN   0520390RN 132              0570399LA GLACERIE         0540250004554004554500001070100000000000392      008831  557    008238   008335   008683   008971   008786   009248   009030   008836   009176   009136   008935   008583               140087361    7    130085351    7    120088251    7    110086161    7    100083151    7    008249   008288   008375   008801   008554   009092   008954   008422   008878   009065   008764   009370                                      
500001071210015 00130 4813001                    0570399                    0580000RP de Penesme       0570400000601000601500001070200000000000392      008831                                                                                                                                 140087368         130085358         120088258         110086168         100083158    0                                                                                                                                                   
