890003099310014 01510 4812001Auxerre             0330650Auxerre             0341289Auxerre RN151       0330800002775000000890003000300000000000309      006111                                                                                                                                 130060488         120000008         110064098         100063638         090065848                                                                                                                                                        
890003000310014 01510 4112001COURSON             0120000AUXERRE             0330650VALLAN              0310485021650000000890003000300000000000309      006171 1077    005449   005503   005699   006337   006273   006563   006819   006776   006432   006429   005955   005772               130061071 1077    120000001         110064711 1157    100064241 1117    090066471         005163   005223   005885   006136   006346   006577   006931   006684   006458   006300   005818   005700                                      
890003000210014 01510 4112001COURSON             0120000AUXERRE             0330650VALLAN              0310485021650000000890003000300000000000309      003060 1097    002695   002738   002813   003167   003135   003237   003449   003317   003156   003173   002942   002877               130030291 1097    120000001         110032221 1187    100031971 1137    090033181         002550   002600   002951   003029   003153   003266   003518   003274   003151   003116   002863   002843                                      
890003000110014 01510 4112001COURSON             0120000AUXERRE             0330650VALLAN              0310485021650000000890003000300000000000309      003111 1047    002754   002765   002886   003170   003138   003326   003370   003459   003276   003256   003013   002895               130030781 1047    120000001         110032491 1087    100032271 1087    090033291         002613   002623   002934   003107   003193   003311   003413   003410   003307   003184   002955   002857                                      
890002900310014 01510 4812001Dpt. 58             0000000Courson             0120000Fretoy              0070000012000000000890003000300000000000309      004555                                                                                                                                 130045088         120000008         110047778         100047438         090049088                                                                                                                                                        
890002700310014 00770 4813001ST FLORENTIN        0290000AUBE                0400602Les Buissons        0340000010664000000890002300300000000000195      005798                                                                                                                                 130058908         120000008         110068128         100063378         090060178                                                                                                                                                        
890002300310014 00770 4113001RD203               0050053ST_FLORENTIN        0290000PONTIGNY            0190600023504000000890002300300000000000379      003978 1977    003372   003365   003647   004092   004044   004292   004641   004662   004393   004095   003633   003461               130040411 1837    120000001         110046731 1727    100043471 1827    090041271         003300   003333   003625   004192   004406   004837   004369   004942   004356   004217   003517   003363                                      
890002300210014 00770 4113001RD203               0050053ST_FLORENTIN        0290000PONTIGNY            0190600023504000000890002300300000000000379      001967 1947    001681   001686   001793   002028   002002   002120   002372   002270   002140   001991   001765   001734               130020301 1797    120000001         110023571 1687    100021511 1797    090020621         001663   001680   001807   002129   002210   002610   002165   002355   002139   002157   001736   001695                                      
890002300110014 00770 4113001RD203               0050053ST_FLORENTIN        0290000PONTIGNY            0190600023504000000890002300300000000000379      002011 2027    001691   001679   001854   002064   002042   002172   002269   002392   002253   002104   001868   001727               130020111 1907    120000001         110023161 1807    100021961 1857    090020651         001637   001653   001818   002063   002196   002227   002204   002587   002217   002060   001781   001668                                      
890002299310014 00770 4853001AUXERRE             0000000RD203               0050053Auxerre RN77        0010000005067005067890002300300000000000195      004046                                                                                                                                 130041118         120000008         110047558         100044248         090042018                                                                                                                                                        
890002200310014 00650 4112001A6                  0000000AUXERRE             0041653VENOY               0030200005653000000890002300300000000000309      008124 1007    007364   007792   007823   008150   008024   008576   008496   008084   008574   008798   007967   007833               130079101 1007    120000001         110083431    7    100081871    7    090083471         007332   007526   007947   008134   008099   008306   008165   007462   008334   008233   007772   007601                                      
890002200210014 00650 4112001A6                  0000000AUXERRE             0041653VENOY               0030200005653000000890002300300000000000309      003988 1007    003645   003869   003866   004037   003974   004258   004116   003726   004229   004317   003939   003883               130039051 1007    120000001         110041531    7    100040681    7    090041791         003505   003644   004028   003954   003973   004149   004059   003673   004145   004082   003864   003778                                      
890002200110014 00650 4112001A6                  0000000AUXERRE             0041653VENOY               0030200005653000000890002300300000000000309      004136 1007    003719   003923   003957   004113   004050   004318   004380   004358   004345   004481   004028   003950               130040051 1007    120000001         110041901 1007    100041191    7    090041681         003827   003882   003919   004180   004126   004157   004106   003789   004189   004151   003908   003823                                      
890001001310014 00060 4812001Périgny             0820282RN65                0880140Auxerre RN6         0860000005858000000890001000300000000000309      012060                                                                                                                                 130119488         120000008         110120388         100120488         090119238                                                                                                                                                        
890001000310014 00060 4112001APPOIGNY            0780000PERIGNY             0820282CHESNEZ             0810785005000000000890001000300000000000309      023765 0927    022828   023837   023767   024251   023623   024838   023524   020934   024777   025028   023761   024101               130235441 0947    120000001         110237211    7    100237401    7    090234931         021741   022521   024221   023151   023655   025038   023867   021052   024050   025179   024221   023804                                      
890001000210014 00060 4112001APPOIGNY            0780000PERIGNY             0820282CHESNEZ             0810785005000000000890001000300000000000309      012052 0937    011594   012052   012130   012279   011912   012682   011849   010684   012577   012646   012079   012188               130119381 0947    120000001         110119951    7    100119981    7    090118911         011029   011373   012158   011767   011960   012541   012053   010743   012296   012864   012356   012102                                      
890001000110014 00060 4112001APPOIGNY            0780000PERIGNY             0820282CHESNEZ             0810785005000000000890001000300000000000309      011713 0917    011234   011785   011637   011972   011711   012156   011675   010250   012200   012382   011682   011913               130116061 0927    120000001         110117261    7    100117421    7    090116021         010712   011148   012063   011384   011695   012497   011814   010309   011754   012315   011865   011702                                      
730002700310014 02010 4110401LA BOISSE           0040600VILLARCHER RN504    0080720CHAMBERY_VRU        0050400004414000000890001000300000000000200      099891 2327    098593   104610   106647   102242   092263   100873   102471   094414   101026   100832   095337   099836               130995931 0797    120000001         111000161         100996651    7    090978921    7    097073   102027   108243   101927   094811   100942   102537   098895   099823   100662   093383   094954                                      
730002700210014 02010 4110401LA BOISSE           0040600VILLARCHER RN504    0080720CHAMBERY_VRU        0050400004414000000890001000300000000000200      050078 3037    048731   053013   052818   050915   046152   050673   052212   046781   050669   050548   047769   050926               130491171 0827    120000001         110496101         100493551    7    090484671    7    047231   050807   053192   049812   046659   049904   050282   048589   048749   050282   046904   047123                                      
730002700110014 02010 4110401LA BOISSE           0040600VILLARCHER RN504    0080720CHAMBERY_VRU        0050400004414000000890001000300000000000200      049813 0887    049862   051597   053829   051327   046111   050200   050259   047633   050357   050284   047568   048910               130504761 0737    120000001         110504061         100503101    7    090494251    7    049842   051220   055051   052115   048152   051038   052255   050306   051074   050380   046479   047831                                      
730002600310014 02010 4110401A43 SUD             0000000LA BOISSE           0040600MONTS               0030380004680000000890001000300000000000200      000000                                                                                                                                 130000001         120000001         110887911    7    100869531    7    090847691    7                                                                                                                                                   
730002600210014 02010 4110401A43 SUD             0000000LA BOISSE           0040600MONTS_Y             0030380004680000000890001000300000000000200      000000                                                                                                                                 130000001         120000001         110443521    7    100434841    7    090424421    7                                                                                                                                                   
730002600110014 02010 4110401A43 SUD             0000000LA BOISSE           0040600MONTS_W             0030380004680000000890001000300000000000200      000000                                                                                                                                 130000001         120000001         110444391    7    100434691    7    090423271    7                                                                                                                                                   
730002200310014 00900 4113001AIME                0640690BOURG_ST_MAURICE    0750550BONCONSEIL          0720400011434000000890001000300000000000200      009633 0647    010168   010776   012146   010365   007414   008529   010319   010969   008034   008159   008400   010322               130096541 0667    120000001         110097391    7    100096471    7    090097711    7    010180   011392   012266   010254   007393   008412   010570   010728   008038   007917   008184   010560                                      
730002200210014 00900 4113001AIME                0640690BOURG_ST_MAURICE    0750550BONCONSEIL          0720400011434000000890001000300000000000200      004759 0647    005065   005327   006110   005200   003763   004190   005016   005424   004001   004045   004136   004834               130047861 0657    120000001         110048361    7    100047941    7    090048541    7    005267   005520   006141   005232   003722   004149   005154   005373   003996   003953   004008   004931                                      
730002200110014 00900 4113001AIME                0640690BOURG_ST_MAURICE    0750550BONCONSEIL          0720400011434000000890001000300000000000200      004874 0657    005103   005449   006036   005165   003651   004339   005303   005545   004033   004114   004264   005488               130048681 0677    120000001         110049031    7    100048531    7    090049171    7    004913   005872   006125   005022   003671   004263   005416   005355   004042   003964   004176   005629                                      
730002102310014 00900 4113001MONGIROD            0580585AIME                0640690PT_DE_LA_TOUR       0610522006105000000890001000300000000000200      012157 0877    013080   014339   016394   012900   009060   010538   012102   013231   010444   010421   010297   013150               130121851 0977    120000001         110122201 1147    100121481 1207    090122871 1217    013294   014974   016731   012329   009085   010290   012455   013092   010197   010267   010335   013261                                      
730002102210014 00900 4113001MONGIROD            0580585AIME                0640690PT_DE_LA_TOUR       0610522006105000000890001000300000000000200      006061 0907    006437   007176   008382   006581   004627   005241   005928   006792   005255   005213   005116   006028               130060921 1007    120000001         110061011    7    100061181    7    090061341    7    006927   007300   008462   006439   004633   005125   006113   006691   005136   005127   005077   006110                                      
730002102110014 00900 4113001MONGIROD            0580585AIME                0640690PT_DE_LA_TOUR       0610522006105000000890001000300000000000200      006096 0797    006643   007163   008012   006319   004433   005297   006174   006439   005189   005208   005181   007122               130060931 0927    120000001         110061191 1467    100060301 1427    090061531 1447    006367   007674   008269   005890   004452   005165   006342   006401   005061   005140   005258   007151                                      
730002101310014 00900 4113001ST_MARCEL           0550250MONTGIROD           0580585TUNNEL_SIAIX        0560770003335000000890001000300000000000200      000000                                                                                                                                 130113621 0567    120000001         110113751    7    100111971         090112961    7    012351   014455   015654   011556   008480   008918   011838   012369   009414   009529   009264   012620                                      
730002101210014 00900 4113001ST_MARCEL           0550250MONTGIROD           0580585TUNNEL_SIAIX        0560770003335000000890001000300000000000200      000000                                                                                                                                 130056861 0547    120000001         110056611    7    100055941         090056181    7    006495   006945   007936   006069   004344   004280   005998   006337   004732   004753   004588   005781                                      
730002101110014 00900 4113001ST_MARCEL           0550250MONTGIROD           0580585TUNNEL_SIAIX        0560770003335000000890001000300000000000200      000000                                                                                                                                 130056761 0607    120000001         110057141    7    100056031         090056781    7    005856   007510   007718   005487   004136   004638   005840   006032   004682   004776   004676   006839                                      
730002100310014 00900 4113001MOUTIERS            0500000ST_MARCEL           0550250MOUTIERS_EST        0500865005250000000890001000300000000000200      013675 0777    014785   016098   017891   014438   010421   011980   013800   014654   011860   011928   011669   014650               130136671 0777    120000001         110138201    7    100137611    7    090138401    7    014497   016644   017925   013972   010508   011728   013916   014590   011798   011982   011557   014994                                      
730002100210014 00900 4113001MOUTIERS            0500000ST_MARCEL           0550250MOUTIERS_EST        0500865005250000000890001000300000000000200      006828 0767    007709   007921   009163   007334   005294   005942   006730   007374   005935   005977   005801   006783               130068411 0767    120000001         110069771    7    100068721    7    090069081    7    007577   008063   009117   007280   005330   005836   006822   007544   005928   005961   005717   006954                                      
730002100110014 00900 4113001MOUTIERS            0500000ST_MARCEL           0550250MOUTIERS_EST        0500865005250000000890001000300000000000200      006847 0777    007076   008177   008728   007104   005127   006038   007070   007280   005925   005951   005868   007867               130068261 0787    120000001         110068431    7    100068891    7    090069321    7    006920   008581   008808   006692   005178   005892   007094   007046   005870   006021   005840   008040                                      
730002000310014 00900 4110101FEISSONS/ISERE      0400500MOUTIERS            0500000LA_LECHERE          0410800009538000000890001000300000000000200      000000                                                                                                                                 130197681 0557    120000001         110201621    7    100196631    7    090200461    7    023021   026212   028835   020789   014071   014924   018607   020225   015678   015497   015757   023848                                      
730002000210014 00900 4110101FEISSONS/ISERE      0400500MOUTIERS            0500000LA_LECHERE          0410800009538000000890001000300000000000200      000000                                                                                                                                 130100691 0557    120000001         110100391    7    100098501    7    090100181    7    012028   012770   014668   010949   007439   007931   009233   010365   008146   008344   008147   010908                                      
730002000110014 00900 4110101FEISSONS/ISERE      0400500MOUTIERS            0500000LA_LECHERE          0410800009538000000890001000300000000000200      000000                                                                                                                                 130096991 0567    120000001         110101231    7    100098131    7    090100281    7    010993   013442   014167   009840   006632   006993   009374   009860   007532   007153   007610   012940                                      
730001900310014 00900 4110101PIERRE_DU_ROY       0230980FEISSONS/ISERE      0400500CEVINS              0340000016546000000890001000300000000001291      024964 0577    027807   030430   033791   026586   019179   021228   024164   024827   021736   021802   021523   026729               130244771 0587    120000001         110240101    7    100231601    7    090233201    7    027126   030955   033013   025078   018922   020482   023660   024482   020778   021116   020570   027820                                      
730001900210014 00900 4110101PIERRE_DU_ROY       0230980FEISSONS/ISERE      0400500CEVINS              0340000016546000000890001000300000000001200      012520 0557    014477   014985   017431   013549   009713   010529   011826   012597   010902   010946   010649   012725               130122371 0577    120000001         110119991    7    100116641    7    090115531    7    014164   015028   016815   013119   009577   010159   011571   012523   010425   010584   010141   012848                                      
730001900110014 00900 4110101PIERRE_DU_ROY       0230980FEISSONS/ISERE      0400500CEVINS              0340000016546000000890001000300000000001200      012444 0607    013330   015445   016360   013037   009466   010699   012338   012230   010834   010856   010874   014004               130122401 0617    120000001         110120111    7    100114961    7    090117671    7    012962   015927   016198   011959   009345   010323   012089   011959   010353   010532   010429   014972                                      
730001800310014 00900 4110201BORNERY CAR. RD990  0190000PIERRE_DU_ROY RN212 0230980GILLY/ISERE         0200020004538000000890001000300000000001200      032030 0707    033081   036228   039309   032288   026519   029843   032600   032771   029659   029299   029876   033083               130314701 0717    120000001         110314531    7    100309151    7    090298261    7    033240   037265   039331   031546   026359   027314   032191   032581   028702   028803   027346   033175                                      
730001800210014 00900 4110201BORNERY CAR. RD990  0190000PIERRE_DU_ROY RN212 0230980GILLY/ISERE         0200020004538000000890001000300000000001200      016106 0647    017248   017926   020324   016523   013559   015009   016255   016726   014973   014965   014173   015642               130158791 0647    120000001         110158041    7    100156151    7    090150301    7    017472   018222   020134   016475   013409   014184   015891   016663   014504   014473   013672   015530                                      
730001800110014 00900 4110201BORNERY CAR. RD990  0190000PIERRE_DU_ROY RN212 0230980GILLY/ISERE         0200020004538000000890001000300000000001200      015924 0847    015833   018302   018985   015765   012960   014834   016345   016045   014686   014334   015703   017441               130155911 0857    120000001         110156491    7    100153001    7    090147961    7    015768   019043   019197   015071   012950   013130   016300   015918   014198   014330   013674   017645                                      
710003700310014 00790 4112001CHARNAY_LES_MACON   0780800MACON               0800108VARENNES            0790800002900000000890001000300000000000309      013713 2447    011570   012358   013652   013740   013253   014254   015898   015461   014478   014288   012406   013064               130135861 2427    120000001         110109421 2417    100088891 2287    090094551         010883   012248   012752   012976   012688   013561   016846   018262   014500   013619   012165   012369                                      
710003700210014 00790 4112001CHARNAY_LES_MACON   0780800MACON               0800108VARENNES            0790800002900000000890001000300000000000309      007459 2417    006297   006679   007486   007545   007202   007875   008652   008307   007844   007770   006733   007045               130073701 2407    120000001         110059951 2367    100051541 2047    090052471         005956   006523   007134   007072   006904   007423   009120   009713   007795   007409   006610   006679                                      
710003700110014 00790 4112001CHARNAY_LES_MACON   0780800MACON               0800108VARENNES            0790800002900000000890001000300000000000309      006254 2507    005273   005679   006166   006195   006051   006379   007246   007154   006634   006518   005673   006019               130062161 2487    120000001         110049471 2537    100037351 2617    090042081         004927   005725   005618   005904   005784   006138   007726   008549   006705   006210   005555   005690                                      
710003600310014 00790 4112001LA ROCHE VINEUSE    0700850CHARNAY_LES_MACON   0780800PRISSE              0730800007800000000890001000300000000000309      015285 2267    012916   013771   015376   015470   015240   015493   016536   018277   016081   015822   013729   014553               130152251 2327    120000001         110150941 2357    100145881 2397    090138281         012653   014979   014863   015126   014950   015523   018085   018033   015196   015185   013879   014166                                      
710003600210014 00790 4112001LA ROCHE VINEUSE    0700850CHARNAY_LES_MACON   0780800PRISSE              0730800007800000000890001000300000000000309      007717 2267    006502   006874   007866   007897   007677   008107   008472   009180   007964   007841   006893   007246               130076851 2337    120000001         110076071 2357    100073381 2377    090069441         006347   007056   007733   007643   007567   007893   009153   009109   007810   007793   006979   007058                                      
710003600110014 00790 4112001LA ROCHE VINEUSE    0700850CHARNAY_LES_MACON   0780800PRISSE              0730800007800000000890001000300000000000309      007568 2267    006414   006897   007510   007573   007563   007386   008064   009097   008117   007981   006836   007307               130075401 2327    120000001         110074871 2377    100072501 2407    090068841         006306   007923   007130   007483   007383   007630   008932   008924   007386   007392   006900   007108                                      
710002900310014 00800 4112001SAINT_DESERT        0200700ECUISSES            0390385LES_BAUDOTS         0320720018685000000890001000300000000000309      017750 1768    016786   017148   018120   019154   018509   020472   021077   020990   021004   020988   018973   000000               130188081 2018    120000001         110000001         100186191 2227    090178241         016272   015673   017517   018417   018835   020051   021082   020723   020565   020854   018194   017267                                      
710002900210014 00800 4112001SAINT_DESERT        0200700ECUISSES            0390385LES_BAUDOTS         0320720018685000000890001000300000000000309      009445 2018    009076   009350   009799   010414   010004   011063   011125   011084   010917   010840   009804   000000               130100261 1998    120000001         110100601 2177    100098001 2187    090092711 2078    008783   007948   009647   010323   010092   010752   011042   011168   010885   010460   009612   009444                                      
710002900110014 00800 4112001SAINT_DESERT        0200700ECUISSES            0390385LES_BAUDOTS         0320720018685000000890001000300000000000309      008305 1178    007710   007798   008321   008740   008505   009409   009952   009906   010087   010148   009169   000000               130087821 2068    120000001         110000001         100088191 2267    090085531         007489   007725   007870   008094   008743   009299   010040   009555   009680   010394   008582   007823                                      
710002800310014 00800 4112001Saint Rémy          0110000Saint Désert        0200700GIVRY               0190000009700000000890001000300000000000309      020706 2207    018546   019228   020029   021298   020542   022248   022672   022399   021093   020836   019675   019813               130204641         120000001         110000001         100209491         090000001         018366   017385   019971   021024   020832   021744   023026   022311   021069   020917   019326   019344                                      
710002800210014 00800 4112001Saint Rémy          0110000Saint Désert        0200700GIVRY               0190000009700000000890001000300000000000309      010279 2227    009240   009543   010000   010580   010256   011228   010932   011364   010328   010134   009878   009829               130102241         120000001         110000001         100104741         090000001         009267   008320   009915   010587   010472   010992   011236   011387   010781   010395   009632   009557                                      
710002800110014 00800 4112001ST_REMY             0110000ST_DESERT           0200700GIVRY               0190000009700000000890001000300000000000309      010427 2177    009306   009685   010029   010718   010286   011020   011740   011035   010765   010702   009797   009984               130102401         120000001         110000001         100104751         090000001         009099   009065   010056   010437   010360   010752   011790   010924   010288   010522   009694   009787                                      
710002600310014 00790 4112001STE_CECILE          0610440LA ROCHE VINEUSE    0700850LE_BOISCLAIR        0640200009500000000890001000300000000000309      000000                                                                                                                                 130000001         120000001         110000001         100000001         090180381                                                                                                                                                        
710002600210014 00790 4112001STE_CECILE          0610440LA ROCHE VINEUSE    0700850LE_BOISCLAIR        0640200009500000000890001000300000000000309      000000                                                                                                                                 130000001         120000001         110000001         100000001         090092011                                                                                                                                                        
710002600110014 00790 4112001STE_CECILE          0610440LA ROCHE VINEUSE    0700850LE_BOISCLAIR        0640200009500000000890001000300000000000309      000000                                                                                                                                 130000001         120000001         110000001         100000001         090088371                                                                                                                                                        
710002500310014 00790 4112001BRANDON             0540250STE_CECILE          0610440STE_CECILE          0590400007250000000890001000300000000000309      012187 2677    010386   011075   011880   012258   011817   012319   013915   014875   012703   012580   010759   011547               130122511 2647    120000001         110125551 2607    100125941 2597    090120121         010167   012316   011803   011924   011933   012400   014913   015287   012029   011924   011046   011220                                      
710002500210014 00790 4112001BRANDON             0540250STE_CECILE          0610440STE_CECILE          0590400007250000000890001000300000000000309      005564 2797    004727   004961   005255   005811   005369   005831   006313   006938   005819   005628   004888   005177               130056911 2747    120000001         110060321 2647    100060421 2667    090057761         004617   005114   005553   005570   005555   005934   007178   007296   005787   005560   005007   005048                                      
710002500110014 00790 4112001BRANDON             0540250STE_CECILE          0610440STE_CECILE          0590400007250000000890001000300000000000309      006623 2477    005659   006114   006625   006447   006448   006488   007602   007937   006884   006952   005871   006370               130065601 2477    120000001         110065231 2527    100065521 2537    090062361         005550   007202   006250   006354   006378   006466   007735   007991   006242   006364   006039   006172                                      
710002300310014 00790 4812001Charolles           0260700BRANDON             0540250La Fourche          0330000027550000000710002600300000000000311      000000                                                                                                                                 130000008         120000008         110000008         100000008         090122158                                                                                                                                                        
710002200310014 00790 4812001Les Cadolles        0180250Charolles           0260700La Redoute          0190550008450000000710001900300000000000309      015289                                                                                                                                 130158148         120000008         110159668         100157278         090145578                                                                                                                                                        
710002100310014 00790 4112001PARAY OUEST         0080135LES CADOLLES        0180250VOLESVRES           0160200010115000000710001900300000000000309      010470 2877    008822   009402   010625   010249   009979   010514   012066   013126   011063   010763   009042   009852               130104521 2937    120000001         110102571 2937    100100191 2957    090095481         008672   011223   010107   010278   010137   010218   012280   013181   010280   010039   009269   009753                                      
710002100210014 00790 4112001PARAY OUEST         0080135LES CADOLLES        0180250VOLESVRES           0160200010115000000710001900300000000000309      005212 2867    004397   004632   005440   005214   005044   005343   006096   006596   005233   005124   004505   004844               130052071 2937    120000001         110051251 2937    100050341 2967    090048291         004333   004789   005206   005162   005105   005130   006225   006694   005215   005123   004641   004797                                      
710002100110014 00790 4112001PARAY OUEST         0080135LES CADOLLES        0180250VOLESVRES           0160200010115000000710001900300000000000309      005258 2907    004425   004770   005185   005035   004935   005171   005970   006530   005830   005639   004537   005008               130052451 2937    120000001         110051321 2937    100049851 2957    090047191         004339   006434   004901   005116   005032   005088   006055   006487   005065   004916   004628   004956                                      
710001900310014 00790 4112001Dpt. 03             0000000PARAY OUEST         0080135CHIZEUIL            0040800008135000000710001900300000000000309      015976 2368    013239   014066   015797   016352   016231   017368   020583   020985   015589   014540   012878   013841               130165241 1218    120000001         110166821 3507    100164321 3517    090152091         013021   013886   015547   016157   015934   016804   020957   023595   017020   015925   014269   014856                                      
710001900210014 00790 4112001Dpt. 03             0000000PARAY OUEST         0080135CHIZEUIL            0040800008135000000710001900300000000000309      007863 1868    006642   007041   008052   008344   008211   008776   010725   010291   007090   006744   005969   006351               130083161 0188    120000001         110083451 3477    100082621 3457    090076751         006496   006835   008124   008090   008233   008300   010884   011624   008402   008040   007135   007446                                      
710001900110014 00790 4112001Dpt. 03             0000000PARAY OUEST         0080135CHIZEUIL            0040800008135000000710001900300000000000309      008113 3338    006597   007025   007745   008008   008020   008592   009858   010694   008499   007796   006909   007490               130082081 3308    120000001         110083371 3537    100081701 3577    090075341         006525   007051   007423   008067   007701   008504   010073   011971   008618   007885   007134   007410                                      
710001000310014 00700 4812001SAINT VALLIER       0290250RN80 Rond Point J Ba0471018Pont des Morands    0470000019277000000710000800300000000000311      018834                                                                                                                                 130000008         120000008         110184738         100183938         090000008                                                                                                                                                        
710000800310014 00700 4112001GENELARD            0190750ST_VALLIER          0290250ROZELAY             0270800009500000000710000800300000000000309      018454 2317                      016999   018407   018051   019876   020248   020635   019729   018267   016849   017356               130000001         120000001         110181001 2267    100180211         090000001                                                                                                                                                        
710000800210014 00700 4112001GENELARD            0190750ST_VALLIER          0290250ROZELAY             0270800009500000000710000800300000000000309      009198 2188    008182   008274   008615   009286   009128   009703   010586   010157   009856   009172   008505   008836               130034121 0008    120000001         110091291 2287    100090851         090000001         008193   008443   008924   009008                     000000   000000   000000   000000   000000   000000                                      
710000800110014 00700 4112001GENELARD            0190750ST_VALLIER          0290250ROZELAY             0270800009500000000710000800300000000000309      009256 2237                      008384   009121   008923   010173   009662   010478   009873   009095   008344   008520               130000001         120000001         110089711 2257    100089361 2217    090000001                                                                                                                                                        
710000700310014 00700 4812001Paray le Monial     0050000Genelard            0190750St-Vincent-de-Bragny0110750014450000000710002100300000000000309      012059                                                                                                                                 130120398         120000008         110118158         100115418         090109998                                                                                                                                                        
690502000310014 00470 1110231A7                  0000000Ech.ENTREE 11       0130990GIVORS_COMMERC      0040450014500000000710002100300000000000205      055586 1297    051818   054221   057090   056908   053365   058808   059586   056177   057415   053202   053457   054989               130562311 1347    120000001         110604151         100602831         090000001         053042   053763   056490   057689   055417   058174   061316   056457   058144   058376   051790   053897                                      
690502000210014 00470 1110231A7                  0000000Ech.ENTREE 11       0130990GIVORS_COMMERC      0040450014500000000710002100300000000000205      027099 1337    025302   026368   027819   027807   026593   028190   029223   027582   027721   025623   025898   027035               130273511 1347    120000001         110295651 1357    100295671 1327    090000001         025892   026254   027288   028185   026900   028241   029874   027402   028166   028327   025263   026322                                      
690502000110014 00470 1110231A7                  0000000Ech.ENTREE 11       0130990GIVORS_COMMERC      0040450014500000000710002100300000000000205      028487 1227    026516   027853   029271   029101   026772   030618   030363   028595   029694   027579   027559   027954               130288801 1337    120000001         110308501         100307161         090000001         027150   027509   029202   029504   028517   029933   031442   029055   029978   030049   026527   027575                                      
690501702310014 04500 1110441PIERRE_BENITE       0000000BRIGNAIS            0070969IRIGNY              0020800007969000000710002100300000000000206      054280 0707    054286   056408   054926   057326   052595   056529   054110   040364   056866   058373   054769   055287               130539601 0727    120000001         110531181    7    100522631    7    090512271         053511   054523   055242   056213   052913   056986   055085   041303   055358   058007   054703   053972                                      
690501702210014 04500 1110441PIERRE_BENITE       0000000BRIGNAIS            0070969IRIGNY              0020800007969000000710002100300000000000206      026329 0737    026195   027357   026766   027862   025540   027562   026324   019516   027484   028319   026420   026835               130261341 0757    120000001         110257401    7    100253301    7    090248111         025863   026401   026714   027286   025755   027553   026666   019989   026693   028138   026473   026214                                      
690501702110014 04500 1110441PIERRE_BENITE       0000000BRIGNAIS            0070969IRIGNY              0020800007969000000710002100300000000000206      027951 0637    028091   029051   028160   029464   027055   028967   027786   020848   029382   030054   028349   028452               130278261 0657    120000001         110273781    7    100269331    7    090264151         027648   028122   028528   028927   027158   029433   028419   021314   028665   029869   028230   027758                                      
690501501310014 00430 1150441MERMOZ              0000000SORTIE BD DU 8 MAI  0030401ECH_8_MAI           0020500003400003400710002100300000000000206      134066 0417    132917   137275   137463   135611   131860   137399   132954   112163   139807   142088   134163   135743               131319361 0417    120000001         111277841    7    101273081    7    091372141    7    129380   132921   135679   134164   126793   136379   136395   112256   136487   140138   131449   131643                                      
690501501210014 00430 1150441MERMOZ              0000000SORTIE BD DU 8 MAI  0030401ECH_8_MAI           0020500003400003400710002100300000000000206      063447 0377    058415   061021   059937   060466   065172   067426   064925   055149   068421   069273   065636   065548               130597651 0347    120000001         110624891    7    100628921    7    090677921    7    063394   064584   066480   065814   054844   060563   059302   045609   060242   061783   057688   057518                                      
690501501110014 00430 1150441MERMOZ              0000000SORTIE BD DU 8 MAI  0030401ECH_8_MAI           0020500003400003400710002100300000000000206      070619 0477    074502   076254   077526   075145   066688   069973   068029   057014   071386   072815   068527   070195               130721711 0537    120000001         110652951    7    100644161    7    090694221    7    065986   068337   069199   068350   071949   075816   077093   066647   076245   078355   073761   074125                                      
690501203310014 00420 1110241PONT CROIX_LUIZET   0000000Ech. MIRIBEL        0040329GRAPPINIERE         0020000004329000000710002100300000000000206      000000                                                                                                                                 130000001         120000001         110938511    7    100911131    7    090908531    7                                                                                                                                                   
690501203210014 00420 1110241PONT CROIX_LUIZET   0000000Ech. MIRIBEL        0040329GRAPPINIERE         0020000004329000000710002100300000000000206      000000                                                                                                                                 130000001         120000001         110464321    7    100458361    7    090452041    7                                                                                                                                                   
690501203110014 00420 1110241PONT CROIX_LUIZET   0000000Ech. MIRIBEL        0040329GRAPPINIERE         0020000004329000000710002100300000000000206      046553         045110   045796   047266   047943   047838   048979   043199   042923   048333   048248                                 130462661         120000001         110474191    7    100452771    7    090456481    7    044627   046460   047090   047757   047895   049207   043634   043052   047786   047956   045641   044276                                      
690501101310014 00070 1110441Ech. RD36 SOLAIZE   0130350Ech. A47 GIVORS     0200330COMMUNAY            0160830006980000000710002100300000000000206      095745 0887    082874   085665   088779   097834   096800   105223   108995   107526   099824   096135   087790   090761               130941791 0897    120000001         110967001    7    100956701 1087    090931531 1067    081759   083352   087280   094468   095208   102641   108616   103884   099127   097221   087028   088733                                      
690501101210014 00070 1110441Ech. RD36 SOLAIZE   0130350Ech. A47 GIVORS     0200330COMMUNAY            0160830006980000000710002100300000000000206      048185 0877    042049   042779   044521   047988   048162   052753   053216   056674   051220   048781   044614   045059               130471611 0877    120000001         110483911    7    100481381 1107    090461201    7    041441   041074   042481   046860   047671   050169   053016   054204   051264   048975   044283   044035                                      
690501101110014 00070 1110441Ech. RD36 SOLAIZE   0130350Ech. A47 GIVORS     0200330COMMUNAY            0160830006980000000710002100300000000000206      047560 0927    040825   042886   044258   049846   048638   052470   055779   050852   048604   047354   043176   045702               130470181 0937    120000001         110483091    7    100475321 1077    090470331 1147    040318   042278   044799   047608   047537   052472   055600   049680   047863   048246   042745   044698                                      
690500900310014 00070 1150441Ech. P.B.S. A74     0060440Ech. RD36 SOLAIZE   0130350ST_FONS             0070918006910006910710002100300000000000206      141964 0837    130178   134793   136122   146433   141682   151351   153351   142418   148252   146565   134377   137765               131402901 0857    120000001         111434571    7    101401761    7    091374141    7    128637   130960   137479   141782   139899   150417   155325   138980   145504   146219   133559   134138                                      
690500900210014 00070 1150441Ech. P.B.S. A74     0060440Ech. RD36 SOLAIZE   0130350ST_FONS             0070918006910006910710002100300000000000206      072272 0837    066811   068697   069553   073764   071577   076943   075882   074172   076491   074749   068845   069665               130714461 0847    120000001         110729241    7    100711301    7    090696231    7    066306   066748   069858   071305   071054   075064   077179   072403   075576   074810   068801   067949                                      
690500900110014 00070 1150441Ech. P.B.S. A74     0060440Ech. RD36 SOLAIZE   0130350ST_FONS             0070918006910006910710002100300000000000206      069692 0847    063367   066096   066569   072669   070105   074408   077469   068246   071761   071816   065532   068100               130688441 0867    120000001         110705331    7    100690461    7    090677901 1007    062331   064212   067621   070477   068845   075353   078146   066577   069928   071409   064758   066189                                      
690500702310014 00070 1150441SORTIE QUAI SEMARD  0040200Ech. P.B.S. A74     0060440PIERRE_BENITE       0040750002240002240710002100300000000001294      104868 0637    100142   103902   103002   109092   106409   112239   111603   100743   106364   101713   097811   105503               131050901 0657    120000001         111060381    7    100000001         091039661    7    098964   100810   104602   107558   103690   109698   113311   100395   106584   109631   102436   103178                                      
690500702210014 00070 1150441SORTIE QUAI SEMARD  0040200Ech. P.B.S. A74     0060440PIERRE_BENITE       0040750002240002240710002100300000000001294      049756 0627    047378   048850   048596   050521   049891   052119   050620   049216   051271   050660   048644   049336               130489511 0667    120000001         110498861    7    100000001         090489381    7    046717   047216   048651   049838   048745   049215   050492   047702   050653   051670   048334   048078                                      
690500702110014 00070 1150441SORTIE QUAI SEMARD  0040200Ech. P.B.S. A74     0060440PIERRE_BENITE       0040750002240002240710002100300000000001294      055112 0647    052764   055052   054406   058571   056518   060120   060983   051527   055093   051053   049167   056167               130561391 0657    120000001         110561521    7    100000001         090550271    7    052247   053594   055951   057720   054945   060483   062819   052693   055931   057961   054102   055100                                      
690500600310014 00070 1150441PONT LA MULATIERE NO0010527SORTIE QUAI SEMARD  0040200MULATIERE           0020500002673002673710002100300000000000206      113099 0597    106495   109470   110883   112320   114066   119837   122740   111789   117204   112926   108543   110741               130980701 0707    120000001         110942481    7    100000001         090000001         089106   090513   094075   097010   093666   098442   102246   091695   096516   104412   108908   109796                                      
690500600210014 00070 1150441PONT LA MULATIERE NO0010527SORTIE QUAI SEMARD  0040200MULATIERE           0020500002673002673710002100300000000000206      042896 0677    041100   042271   042798   039595   043822   044760   044317   043057   044398   043758   042162   042637               130425701 0747    120000001         110415171    7    100409281         090000001         040859   041040   042265   043273   042576   042103   043374   041946   044208   045458   041890   041738                                      
690500600110014 00070 1150441PONT LA MULATIERE NO0010527SORTIE QUAI SEMARD  0040200MULATIERE           0020500002673002673710002100300000000000206      070203 0497    065395   067199   068085   072725   070244   075077   078423   068732   072806   069168   066381   068104               130555001 0647    120000001         110527311    7    100000001         090517281    7    048247   049473   051810   053737   051090   056339   058872   049749   052308   058954   067018   068058                                      
690500501310014 00070 1150441RUE M.A. PETIT      0000000PONT LA MULATIERE NO0010527QUAI_PERRACHE       0010220001527001527710002100300000000001294      108268 0877    104793   107356   106782   110259   110168   111918   112570   102077   111591   107776   106378   107689               131057241 0857    120000001         111096751    7    101087611    7    091076441    7    102079   103141   106093   105919   101398   106130   107648   098907   110162   111505   108875   106838                                      
690500501210014 00070 1150441RUE M.A. PETIT      0000000PONT LA MULATIERE NO0010527QUAI_PERRACHE       0010220001527001527710002100300000000001294      048659 0917    048755   049082   048568   048183   050069   048254   046489   045578   048977   049182   050501   050354               130477561 0887    120000001         110508901    7    100506201    7    090506951    7    048272   048038   048431   046917   046148   044819   044354   044615   051027   050088   051399   049089                                      
690500501110014 00070 1150441RUE M.A. PETIT      0000000PONT LA MULATIERE NO0010527QUAI_PERRACHE       0010220001527001527710002100300000000001294      059609 0807    056038   058274   058214   062076   060099   063664   066081   056499   062614   058594   055877   057335               130579681 0797    120000001         110587851    7    100581411    7    090569481    7    053807   055103   057662   059002   055250   061311   063294   054292   059135   061417   057476   057749                                      
690500400310014 00060 1150241TUNNEL FOURVIERE    4540000TREMIE PERRACHE SUD 4550616FOURVIERE_SUD       4540800001616001616710002100300000000000206      093918 0757    091423   093341   095379   097128   095573   098015   100290   094008   097138   088217   087100   089470               130962361 0757    120000001         111039821    7    101014971    7    091024411         092548   094535   098529   099662   095027   099343   100438   095909   095780   098807   092415   091745                                      
690500400210014 00060 1150241TUNNEL FOURVIERE    4540000TREMIE PERRACHE SUD 4550616FOURVIERE_SUD       4540800001616001616710002100300000000000206      042554 0817    042086   042770   043761   043590   043498   043374   043484   043694   043167   040254   040154   040842               130437271 0787    120000001         110500341    7    100491461    7    090412531         043090   043568   044894   044850   043772   043432   042896   044467   043687   045370   042819   041856                                      
690500400110014 00060 1150241TUNNEL FOURVIERE    4540000TREMIE PERRACHE SUD 4550616FOURVIERE_SUD       4540800001616001616710002100300000000000206      051364 0657    049337   050571   051618   053538   052075   054641   056806   050314   053971   047963   046946   048628               130525091 0707    120000001         110539481    7    100523511    7    090492061         049458   050967   053635   054812   051255   055911   057542   051442   052093   053437   049596   049889                                      
690500200310014 00060 1150741Ech. ECULLY SUD     4490200TUNNEL FOURVIERE    4540000ECULLY              4500720004800004800710002100300000000000200      118902 0587    114210   117621   117820   123672   119079   125021   126730   120711   125914   121815   110471   103934               131185441 0587    120000001         111180291    7    101147521    7    091172421    7    110532   113069   116685   121321   116610   122263   125965   117335   122905   123309   114447   117785                                      
690500200210014 00060 1150741Ech. ECULLY SUD     4490200TUNNEL FOURVIERE    4540000ECULLY              4500720004800004800710002100300000000000200      060423 0547    058633   060190   060226   063403   060991   065203   065339   062434   065054   063322   055134   045350               130614691 0547    120000001         110612061    7    100585331    7    090606451    7    057538   058486   059999   063119   060634   064208   065265   060437   064040   064070   059499   060210                                      
690500200110014 00060 1150741Ech. ECULLY SUD     4490200TUNNEL FOURVIERE    4540000ECULLY              4500720004800004800710002100300000000000200      058479 0657    055577   057431   057594   060269   058088   059818   061391   058277   060860   058493   055337   058584               130570751 0677    120000001         110568231    7    100562191    7    090565961    7    052994   054583   056686   058202   055976   058055   060700   056898   058865   059239   054948   057575                                      
690500105310014 00060 1150441DARDILLY LE TRONCHON4470520Ech. ECULLY SUD     4490200CHAMPAGNE           4480590001680001680710002100300000000000200      000000                                                                                                                                 131055401 0647    120000001         111059051    7    101081811    7    091058421    7    095142   097556   103267   106646   105335   109661   114986   108628   110225   109223   101237   103984                                      
690500105210014 00060 1150441DARDILLY LE TRONCHON4470520Ech. ECULLY SUD     4490200CHAMPAGNE           4480590001680001680710002100300000000000200      000000                                                                                                                                 130540941 0607    120000001         110547961    7    100564051    7    090550221    7    049060   049508   052481   053812   054094   055992   058570   056393   057554   056325   052239   052758                                      
690500105110014 00060 1150441DARDILLY LE TRONCHON4470520Ech. ECULLY SUD     4490200CHAMPAGNE           4480590001680001680710002100300000000000200      000000                                                                                                                                 130514461 0737    120000001         110511091    7    100517761    7    090508201    7    046082   048048   050786   052834   051241   053669   056416   052235   052671   052898   048998   051226                                      
690500103310014 00060 1110741Ech. LIMONEST       4450323DARDILLY LE TRONCHON4470520DARDILLY            4460690002520000000710002100300000000000188      085169 0697    079104   080779   082594   085726   087688   086901   091504   094817   087684   084303   080510   079997               130861841 0717    120000001         110868841    7    100872971    7    090860941    7    075913   079608   083745   088043   086668   091431   097244   094576   090000   085121   081079   080329                                      
690500103210014 00060 1110741Ech. LIMONEST       4450323DARDILLY LE TRONCHON4470520DARDILLY            4460690002520000000710002100300000000000188      043124 0647    038900   040159   041311   043784   043003   045579   046438   048940   045049   042791   040192   041128               130422231 0667    120000001         110432141    7    100432521    7    090424401    7    037019   038758   040078   042219   042015   044101   046496   047071   044506   042809   040421   040926                                      
690500103110014 00060 1110741Ech. LIMONEST       4450323DARDILLY LE TRONCHON4470520DARDILLY            4460690002520000000710002100300000000000188      042045 0817    040204   040620   041283   041942   044685   041322   045066   045877   042635   041512   040318   038869               130439611 0797    120000001         110436701    7    100440451    7    090436531    7    038894   040850   043667   045824   044653   047330   050748   047505   045494   042312   040658   039403                                      
690020800310014 04890 4110201Ech. RN7            0000000Ech. RN6            0020624DARDILLY_DEV        0010500002624000000710002100300000000000206      000000                                                                                                                                 130281071 0737    120000001         110233561    7    100229871         090228241    7    023067   026086   028102   029225   027972   029917   030917   027132   026845   030385   028286   029204                                      
690020800210014 04890 4110201Ech. RN7            0000000Ech. RN6            0020624DARDILLY_DEV        0010500002624000000710002100300000000000206      000000                                                                                                                                 130138101 0727    120000001         110122251    7    100119801         090119181    7    011798   013011   014083   014482   013829   014940   015718   012242   012583   014902   013832   014237                                      
690020800110014 04890 4110201Ech. RN7            0000000Ech. RN6            0020624DARDILLY_DEV        0010500002624000000710002100300000000000206      000000                                                                                                                                 130142971 0737    120000001         110111311    7    100110071         090109051    7    011269   013075   014019   014743   014143   014977   015199   014890   014262   015483   014454   014967                                      
690006800310014 03460 4110201Ech. GD LARGE N RD510320000Ech. MI_PLAINE N RN60400883ST_PRIEST           0390485008883000000710002100300000000001094      078260 1877    075553   080425   079060   082564   071977   081784   083358   071572   082164   079890   074988   076261               130788221 1837    120000001         110794731 1877    100816201 1837    090000001         075201   078465   080336   081086   076772   078268   087747   074076   082099   082104   075836   073906                                      
690006800210014 03460 4110201Ech. GD LARGE N RD510320000Ech. MI_PLAINE N RN60400883ST_PRIEST           0390485008883000000710002100300000000001094      038145 1907    036973   038927   038876   039984   035981   039585   039759   035818   040240   038697   036303   036783               130386051 1847    120000001         110390991 1917    100397951 1907    090000001         037156   038517   039508   039732   037211   039616   041742   037286   040060   039747   037162   035586                                      
690006800110014 03460 4110201Ech. GD LARGE N RD510320000Ech. MI_PLAINE N RN60400883ST_PRIEST           0390485008883000000710002100300000000001094      040115 1807    038580   041498   040184   042580   035996   042199   043599   035754   041924   041193   038685   039478               130402171 1817    120000001         110403741 1777    100418251 1787    090407721 1777    038045   039948   040828   041354   039561   038652   046005   036790   042039   042357   038674   038320                                      
690006200310014 03460 4110201Ech. RIZE SUD RD55  0250000Ech. GD LARGE N RD510320000LAMARTINE           0310495007000000000710002100300000000001094      072438 1937    068267   074078   073596   076153   068999   075128   075936   069866   074894   073685   068963   070024               130729001 1927    120000001         110749601 1867    100771491 1867    090777531 2047    067753   071155   071533   074150   073848   076874   083742   070235   073371   073415   069440   069181                                      
690006200210014 03460 4110201Ech. RIZE SUD RD55  0250000Ech. GD LARGE N RD510320000LAMARTINE           0310495007000000000710002100300000000001094      037741 1917    034749   037355   038485   038808   038226   039008   038620   037905   039247   038903   035746   035856               130365901 1937    120000001         110378751 1887    100387831 1877    090391221 2087    034638   035752   034862   037319   036702   038639   041074   036612   036318   036139   035616   035376                                      
690006200110014 03460 4110201Ech. RIZE SUD RD55  0250000Ech. GD LARGE N RD510320000LAMARTINE           0310495007000000000710002100300000000001094      034697 1977    033518   036723   035111   037345   030773   036120   037316   031961   035647   034782   033217   034168               130363101 1887    120000001         110370851 1827    100383661 1857    090386311 1997    033115   035403   036671   036831   037146   038235   042668   033623   037053   037276   033824   033805                                      
690002500310014 00070 4813001Ech. A46 Sud        0730000Dpt. 38             0760349Communay Les Pins Te0750000002348000000000000000000000000000206      000000                                                                                                                                 130000008         120000008         110000008         100000008         090000008                                                                                                                                                        
690002500210014 00070 4813001Ech. A46 Sud        0730000Dpt. 38             0760349Communay Les Pins Te0750000002348000000000000000000000000000206      000000                                                                                                                                 130000008         120000008         110000008         100000008         090000008                                                                                                                                                        
690002500110014 00070 4813001Ech. A46 Sud        0730000Dpt. 38             0760349Communay Les Pins Te0750000002348000000000000000000000000000206      000000                                                                                                                                 130000008         120000008         110000008         100000008         090000008                                                                                                                                                        
690001801310014 00070 4113001Carf. RD73 Arb.     0280189Entrée TASSIN       0400890FLEURIEUX           0310600012291000000000000000000000000000206      000000                                                                                                                                 130146811 0787    120000001         110000001         100000001         090177281         015742   014063   014414   014931   014358   015390   014832   012315   015049   015371   014548   015130                                      
690001801210014 00070 4113001Carf. RD73 Arb.     0280189Entrée TASSIN       0400890FLEURIEUX           0310600012291000000000000000000000000000206      000000                                                                                                                                 130073401 0727    120000001         110000001         100000001         090081091         007939   007041   007223   007419   007179   007651   007360   006113   007454   007680   007296   007706                                      
690001801110014 00070 4113001Carf. RD73 Arb.     0280189Entrée TASSIN       0400890FLEURIEUX           0310600012291000000000000000000000000000206      000000                                                                                                                                 130073411 0907    120000001         110000001         100000001         090096191         007803   007022   007191   007512   007179   007739   007472   006202   007595   007691   007252   007424                                      
690001700310014 00070 4813001Carf. RD38          0180360Carf. RD73Arb       0280189Bully Temporaire    0240100009829000000690001600300000000000206      012140                                                                                                                                 130120238         120000008         110148298         100146608         090000008                                                                                                                                                        
690001700210014 00070 4813001Carf. RD38          0180360Carf. RD73Arb       0280189Bully Temporaire    0240100009829000000690001600300000000000206      000000                                                                                                                                 130000008         120000008         110000008         100000008         090000008                                                                                                                                                        
690001700110014 00070 4813001Carf. RD38          0180360Carf. RD73Arb       0280189Bully Temporaire    0240100009829000000690001600300000000000206      000000                                                                                                                                 130000008         120000008         110000008         100000008         090000008                                                                                                                                                        
690001600310014 00070 4113001Dev. PONTCHARRA EST 0180000Carf. RD38          0180360PONTCHARRA          0180150000360000000690001600300000000000206      014575 0797    014115   014337   014430   015207   014460   015467   014761   012334   015287   015556   014747   014254               130144341 0867    120000001         110178021    7    100175991         090000001         014781   013403   014162   014991   015069   015364   015283   012259   015028   015169   013978   013670                                      
690001600210014 00070 4113001Dev. PONTCHARRA EST 0180000Carf. RD38          0180360PONTCHARRA          0180150000360000000690001600300000000000206      007143 0797    006934   007016   007069   007456   007094   007558   007240   006080   007493   007632   007196   006978               130070441 0867    120000001         110087321    7    100086471         090000001         007173   006477   006876   007317   007398   007482   007484   006022   007323   007426   006829   006686                                      
690001600110014 00070 4113001Dev. PONTCHARRA EST 0180000Carf. RD38          0180360PONTCHARRA          0180150000360000000690001600300000000000206      007432 0787    007181   007321   007361   007751   007366   007909   007521   006254   007794   007924   007551   007276               130073901 0867    120000001         110090701    7    100089521         090000001         007608   006926   007286   007674   007671   007882   007799   006237   007705   007743   007149   006984                                      
690001500310014 00070 4813001Dev. Pontcharra W   0150000Dev. Pontcharra E   0180000Pontcharra dév. Temp0170000003000000000690001600300000000000206      012143                                                                                                                                 130120268         120000008         110148338         100146648         090000008                                                                                                                                                        
690001500210014 00070 4813001Dev. Pontcharra W   0150000Dev. Pontcharra E   0180000Pontcharra dév. Temp0170000003000000000690001600300000000000206      000000                                                                                                                                 130000008         120000008         110000008         100000008         090000008                                                                                                                                                        
690001500110014 00070 4813001Dev. Pontcharra W   0150000Dev. Pontcharra E   0180000Pontcharra dév. Temp0170000003000000000690001600300000000000206      000000                                                                                                                                 130000008         120000008         110000008         100000008         090000008                                                                                                                                                        
690001400310014 00070 4843001Entrée Tarare Ouest 0100250Dev. Pontcharra W   0150000Tarare Temporaire   0120000004750004750690001600300000000000206      006733                                                                                                                                 130066688         120000008         110082258         100081328         090000008                                                                                                                                                        
690001400210014 00070 4843001Entrée Tarare Ouest 0100250Dev. Pontcharra W   0150000Tarare Temporaire   0120000004750004750690001600300000000000206      000000                                                                                                                                 130000008         120000008         110000008         100000008         090000008                                                                                                                                                        
690001400110014 00070 4843001Entrée Tarare Ouest 0100250Dev. Pontcharra W   0150000Tarare Temporaire   0120000004750004750690001600300000000000206      000000                                                                                                                                 130000008         120000008         110000008         100000008         090000008                                                                                                                                                        
690001300310014 00070 4115001COL DU PIN BOUCHAIN 0000000Entrée TARARE OUEST 0100250TARARE_OUEST        0090150010250000000690001600300000000000200      005924 0857    005417   005638   005827   006139   005974   006488   006202   005653   006248   006226   005784   005491               130060921         120000001         110000001         100070771         090000001         005964   005420   005977   006548   006251   006443   006577   005912   006424   006273            005558                                      
690001300210014 00070 4115001COL DU PIN BOUCHAIN 0000000Entrée TARARE OUEST 0100250TARARE_OUEST        0090150010250000000690001600300000000000200      002960 0807    002692   002806   002887   003074   002984   003214   003109   002854   003127   003135   002878   002757               130030431         120000001         110000001         100035491         090000001         002972   002658   002952   003255   003110   003184   003290   002945   003188   003132            002768                                      
690001300110014 00070 4115001COL DU PIN BOUCHAIN 0000000Entrée TARARE OUEST 0100250TARARE_OUEST        0090150010250000000690001600300000000000200      002964 0947    002725   002832   002940   003065   002990   003274   003093   002799   003121   003091   002906   002734               130030491         120000001         110000001         100035281         090000001         002992   002762   003025   003293   003141   003259   003287   002967   003236   003141   002683   002790                                      
690000601310014 00060 4140201Ech. RD73D          0400000Ech. A6 DARDILLY    0420150DARDILLY_LES_BROSSES0410000002030002030690001600300000000000206      000000                                                                                                                                 130000001         120000001         110000001         100000001         090000001                                                                                                                                                        
690000601210014 00060 4140201Ech. RD73D          0400000Ech. A6 DARDILLY    0420150DARDILLY_LES_BROSSES0410000002030002030690001600300000000000206      000000                                                                                                                                 130000001         120000001         110000001         100000001         090000001                                                                                                                                                        
690000601110014 00060 4140201Ech. RD73D          0400000Ech. A6 DARDILLY    0420150DARDILLY_LES_BROSSES0410000002030002030690001600300000000000206      000000                                                                                                                                 130000001         120000001         110253051    7    100251451         090252671    7                                                                                                                                                   
580002701310014 01510 4112001Sud Dev.            0510878Dpt. 89             0580730CLAMECY             0530532006852000000690001600300000000000311      003158 2477    002492   002581   002711   003173   003195   003532   003776   004243   003441   003208   002767   002734               130031041 2487    120000001         110000001         100032481         090032781         002341   002454   002785   003082   003225   003396   003974   003987   003383   003163   002767   002633                                      
580002701210014 01510 4112001Sud Dev.            0510878Dpt. 89             0580730CLAMECY             0530532006852000000690001600300000000000311      001579 2517    001258   001308   001352   001612   001620   001746   001951   002044   001688   001591   001377   001382               130015501 2537    120000001         110000001         100016211         090016321         001182   001244   001401   001538   001626   001696   002018   001928   001638   001585   001385   001334                                      
580002701110014 01510 4112001Sud Dev.            0510878Dpt. 89             0580730CLAMECY             0530532006852000000690001600300000000000311      001579 2387    001234   001273   001359   001561   001575   001786   001825   002199   001753   001617   001390   001352               130015541 2397    120000001         110000001         100016271         090016461         001159   001210   001384   001544   001599   001700   001956   002059   001745   001578   001382   001299                                      
580002600310014 01510 4813001VARZY               0350958CLAMECY-NORD        0510878St-Pierre-du-Mont   0400000019090000000580002500300000000000311      002213                                                                                                                                 130021298         120000008         110022728         100022528         090022418                                                                                                                                                        
580002500310014 01510 4112001CHATEAUNEUF V.BARGIS0200512VARZY               0350958LES_PONTOTS         0260000015446000000580002500300000000000309      002194 1488    001682   001776   001907   002178   002148   002435   002961   002790   002372   002229   001958   001861               130021101 1448    120000001         110022511 2157    100022311 1478    090022201 1448    001518   001655   001900   002110   002206   002305   002614   002751   002306   002170   001933   001810                                      
580002500210014 01510 4112001CHATEAUNEUF V.BARGIS0200512VARZY               0350958LES_PONTOTS         0260000015446000000580002500300000000000309      001104 1448    000843   000890   000949   001107   001087   001216   001571   001387   001174   001104   000974   000931               130010581 1418    120000001         110011271 2107    100011121 1448    090011081 1388    000766   000826   000955   001049   001116   001165   001351   001368   001127   001083   000959   000906                                      
580002500110014 01510 4112001CHATEAUNEUF V.BARGIS0200512VARZY               0350958LES_PONTOTS         0260000015446000000580002500300000000000309      001090 1578    000839   000886   000958   001071   001061   001219   001390   001403   001198   001125   000984   000930               130010521 1498    120000001         110011241 2217    100011191 1538    090011121 1498    000752   000829   000945   001061   001090   001140   001263   001383   001179   001087   000974   000904                                      
580002300310014 01510 4812001Dpt. 18             0000000CHATEAUNEUF V.BARGIS0200512La Charité          0010500020331000000580002500300000000000311      002123                                                                                                                                 130020428         120000008         110021798         100021608         090021508                                                                                                                                                        
580001200310014 00070 4112001ST_PIERRE           0920100Dpt. 03             1070760LE_MOUTIER          0950700015660000000580002500300000000000307      013866 3317    010834   011894   012909   014288   013899   014607   016630   018537   014222   013894   012020   012469               130137121 3357    120000001         110140001 3367    100136491 3357    090000001         010276   011429   013040   013718   014036   014110   017077   018766   014322   013547   011830   012137                                      
580001200210014 00070 4112001ST_PIERRE           0920100Dpt. 03             1070760LE_MOUTIER          0950700015660000000580002500300000000000307      006868 3357    005444   005789   006533   006986   006851   007244   007827   009371   007249   006911   006072   006043               130067821 3397    120000001         110069921 3407    100068021 3417    090000001         005174   005573   006477   006788   006916   006908   008000   009488   007332   006739   005983   005881                                      
580001200110014 00070 4112001ST_PIERRE           0920100Dpt. 03             1070760LE_MOUTIER          0950700015660000000580002500300000000000307      006998 3227    005390   006105   006376   007302   007048   007363   008803   009166   006973   006983   005948   006426               130069301 3287    120000001         110070081 3307    100068471 3297    090000001         005102   005856   006563   006930   007120   007202   009077   009278   006990   006808   005847   006256                                      
580001101310014 00770 1110241NEVERS              1480000ST_PIERRE           1641118PLAGNY              1640200017200000000580002500300000000000507      013345 2067    010436   011320   012325   013981   013662   014593   015351   016750   013880   014012   011701   011966               130131911 2027    120000001         110000001         100000001         090133101         010010   010645   012429   013755   014016   013982   015935   016866   014012   013142   011640   011630                                      
580001101210014 00770 1110241NEVERS              1480000ST_PIERRE           1641118PLAGNY              1640200017200000000580002500300000000000507      006624 2097    005261   005516   006223   006785   006734   007300   007170   008480   007122   006949   006037   005830               130064891 2047    120000001         110000001         100000001         090060731         005034   005232   006127   006723   006929   006773   007403   008474   007162   006319   005912   005676                                      
580001101110014 00770 1110241NEVERS              1480000ST_PIERRE           1641118PLAGNY              1640200017200000000580002500300000000000507      006721 2017    005175   005804   006102   007196   006928   007293   008181   008270   006758   007063   005664   006136               130067021 1987    120000001         110069641 1947    100072251 1717    090072371         004976   005413   006302   007032   007087   007209   008532   008392   006850   006823   005728   005954                                      
580001007310014 00070 4812001Chaume des pendus   0770000St Pierre le Mtier  0920100Magny-Cours         0820000015100000000580001200300000000000309      012554                                                                                                                                 130124158         120000008         110126768         100123598         090000008                                                                                                                                                        
580000600310014 00770 1110241SUD LA MARCHE       1390600NEVERS              1480000PRIEZ               1440415008400000000580001200300000000000309      000000                                                                                                                                 130000001         120000001         110000001         100172181 1517    090169891 1288                                                                                                                                                   
580000600210014 00770 1110241SUD LA MARCHE       1390600NEVERS              1480000PRIEZ               1440415008400000000580001200300000000000309      000000                                                                                                                                 130000001         120000001         110000001         100085181 1517    090084401 1278                                                                                                                                                   
580000600110014 00770 1110241SUD LA MARCHE       1390600NEVERS              1480000PRIEZ               1440415008400000000580001200300000000000309      000000                                                                                                                                 130000001         120000001         110000001         100087001 1517    090085491 1298                                                                                                                                                   
580000400310014 00770 1110241Dev. Cosne          1130900SUD LA MARCHE       1390600LA_CHARITE          1270640025700000000580001200300000000000307      013999 2007    011241   012074   012854   014471   013948   015228   016345   017031   014185   014394   012953   013106               130137111 2007    120000001         110140641 1997    100136671 1967    090136871 1948    010557   011313   013352   013904   014095   014183   016461   017166   014322   014005   012372   012572                                      
580000400210014 00770 1110241Dev. Cosne          1130900SUD LA MARCHE       1390600LA_CHARITE          1270640025700000000580001200300000000000307      006931 1977    005700   005887   006497   006988   006739   007616   007736   008579   007210   007140   006579   006419               130067521 1987    120000001         110069241 1997    100067921 1967    090067671 1968    005364   005600   006516   006909   006780   006911   007679   008602   007323   006875   006192   006171                                      
580000400110014 00770 1110241Dev. Cosne          1130900SUD LA MARCHE       1390600LA_CHARITE          1270640025700000000580001200300000000000307      007068 2057    005541   006187   006357   007483   007209   007612   008609   008452   006975   007254   006374   006687               130069591 2057    120000001         110071401 1997    100068751 1977    090069201 1938    005193   005713   006836   006995   007315   007272   008782   008564   006999   007130   006180   006401                                      
580000200310014 00770 1810241Maltaverne          1000500Dev. Cosne          1130900Cosne S/Loire       1050000013400000000000000000000000000000309      000000                                                                                                                                 130000008         120000008         110000008         100000008         090000008                                                                                                                                                        
420501300310014 00720 1110431Ech. RATARIEUX      0090210Ech. RN82 RD498     0170182LA_FOUILLOUSE       0120100007910000000000000000000000000000180      076911 0917    070132   077475   069544   069460   069058   075284   082362   074364   085360   086533   081653   081890               130793971 0977    120000001         110849331    7    100823751    7    090000001         078838   077765   082086   083759   080403   086210   076750   067102   084220   086752   073716   075336                                      
420501300210014 00720 1110431Ech. RATARIEUX      0090210Ech. RN82 RD498     0170182LA_FOUILLOUSE       0120100007910000000000000000000000000000180      040608 0877    039310   040708   040636   041188   038781   040829   041462   036887   042549   043171   040899   040978               130401361 0987    120000001         110434131    7    100421671    7    090000001         039986   039319   040900   042317   040468   043608   037412   032316   042519   044212   038307   040391                                      
420501300110014 00720 1110431Ech. RATARIEUX      0090210Ech. RN82 RD498     0170182LA_FOUILLOUSE       0120100007910000000000000000000000000000180      036303 1017    030822   036767   028908   028272   030277   034455   040900   037477   042811   043362   040754   040912               130392611 0967    120000001         110415201    7    100402081    7    090000001         038852   038446   041186   041442   039935   042602   039338   034786   041701   042540   035409   034945                                      
420500800310014 00720 1150231Ech. ST JEAN BONNEFO0000000Ech. RATARIEUX      0090210MEONS               0020750009140009140000000000000000000000190      081304 0917    079345   082764   082821   084097   078035   084098   081883   071816   085437   085043   080231   080505               130810761 0917    120000001         110861241    7    100854291    7    090000001         080191   078638   083218   083295   079559   084970   084605   072760   084328   085401   076066   079793                                      
420500800210014 00720 1150231Ech. ST JEAN BONNEFO0000000Ech. RATARIEUX      0090210MEONS               0020750009140009140000000000000000000000190      040256 0907    039612   041274   041080   041387   038430   041405   040183   035433   042407   042037   039960   040097               130400781 0917    120000001         110427421    7    100423251    7    090000001         039913   039012   040876   041053   039459   042107   041526   035603   041804   042134   037683   039744                                      
420500800110014 00720 1150231Ech. ST JEAN BONNEFO0000000Ech. RATARIEUX      0090210MEONS               0020750009140009140000000000000000000000180      041048 0947    039733   041490   041741   042710   039605   042693   041700   036383   043030   043006   040271   040408               130409981 0917    120000001         110433821    7    100431041    7    090000001         040278   039626   042342   042242   040100   042863   043079   037157   042524   043267   038383   040049                                      
420500700310014 00470 1110231Ech. COUZON         0230000Ech. LA VARIZELLE   0291316PARADIS             0280730007340000000000000000000000000000191      000000                                                                                                                                 130643631 1187    120000001         110689681 1177    100676261 1187    090667961 1197    060506   060829   065256   063967   063618   068002   069739   062199   067163   068875   060076   061844                                      
420500700210014 00470 1110231Ech. COUZON         0230000Ech. LA VARIZELLE   0291316PARADIS             0280730007340000000000000000000000000000191      000000                                                                                                                                 130320411 1157    120000001         110348701 1137    100341721 1127    090337591 1127    030365   030608   032098   032058   031690   033944   034405   030366   033432   034354   030161   030923                                      
420500700110014 00470 1110231Ech. COUZON         0230000Ech. LA VARIZELLE   0291316PARADIS             0280730007340000000000000000000000000000191      000000                                                                                                                                 130323221 1247    120000001         110340981 1267    100334541 1247    090330371 1257    030141   030221   033158   031909   031928   034058   035334   031833   033731   034521   029915   030921                                      
420500500310014 00470 1110231Ech. LA MADELEINE   0140000Ech.COUZON          0230000GRAND_CROIX         0220000008478000000000000000000000000000180      074778 1017    070070   073249   075271   076865   072673   079669   077373   070290   077404   078165   073367   073055               130746821 1037    120000001         110792991 1097    100778821 1107    090768211 1097    070847   071577   076030   076301   073860   078944   079789   070302   077860   078235   070115   072165                                      
420500500210014 00470 1110231Ech. LA MADELEINE   0140000Ech.COUZON          0230000GRAND_CROIX         0220000008478000000000000000000000000000180      037238 0987    034941   036603   037385   038303   036187   039790   038340   034601   038524   038938   036681   036642               130371261 1007    120000001         110399281 1077    100390751 1067    090385401 1067    035483   035854   037332   038097   036753   039306   039340   034339   038906   038815   035107   036148                                      
420500500110014 00470 1110231Ech. LA MADELEINE   0140000Ech.COUZON          0230000GRAND_CROIX         0220000008478000000000000000000000000000180      037540 1087    035129   036646   037886   038562   036486   039879   039033   035689   038880   039227   036686   036413               130375561 1107    120000001         110393711 1147    100388071 1137    090382811 1127    035364   035723   038698   038204   037107   039638   040449   035963   038954   039420   035008   036017                                      
420008400310014 00880 4150201Ech. CHAZEAU        0510300Dpt. 43             0520400CHAZEAU             0520200001100001100000000000000000000000184      027880 0677    026206   026670   027384   028589   027615   030217   028959   024888   030057   029695   027763   026567               130270051 0647    120000001         110280861    7    100000001         090000001         024506   023898   026535   027029   027343   028923   029740   026680   029026   028906   025109   026129                                      
420008400210014 00880 4150201Ech. CHAZEAU        0510300Dpt. 43             0520400CHAZEAU             0520200001100001100000000000000000000000396      014127 0657    013133   013432   013837   014445   013833   015493   014701   013086   015226   014894   014093   013373               130136161 0627    120000001         110142261    7    100000001         090000001         012455   012091   013299   013728   013776   014571   014743   013383   014793   014537   012736   013178                                      
420008400110014 00880 4150201Ech. CHAZEAU        0510300Dpt. 43             0520400CHAZEAU             0520200001100001100000000000000000000000396      013753 0707    013073   013238   013547   014144   013782   014724   014258   011802   014831   014801   013670   013194               130133891 0697    120000001         110138601    7    100000001         090000001         012051   011807   013236   013301   013567   014352   014997   013297   014233   014369   012373   012951                                      
420008300310014 00880 4150201Ech. FIRMINY CENTRE 0490350Ech. CHAZEAU        0510300LA_TARDIVE          0500200001950001950000000000000000000000184      029709         027967   028483   029325   030765   029234   032134   031070   027309   031443   031371   029222   028222               130288411         120000001         110298681         100292771    7    090290281    7    026328   025687   028376   028596   028883   030957   031892   027972   031201   031171   026827   027971                                      
420008300210014 00880 4150201Ech. FIRMINY CENTRE 0490350Ech. CHAZEAU        0510300LA_TARDIVE          0500200001950001950000000000000000000000184      015606 0707    014640   014951   015390   016071   015249   017086   016056   014308   016663   016460   015524   014905               130151791 0747    120000001         110156381    7    100153611    7    090151331    7    013946   013512   014840   015129   015208   016306   016611   014665   016645   016279   014180   014717                                      
420008300110014 00880 4150201Ech. FIRMINY CENTRE 0490350Ech. CHAZEAU        0510300LA_TARDIVE          0500200001950001950000000000000000000000184      014103         013327   013532   013935   014694   013985   015048   015014   013001   014780   014911   013698   013317               130136621         120000001         110142301         100139161    7    090138951    7    012382   012175   013536   013467   013675   014651   015281   013307   014556   014892   012647   013254                                      
420008200310014 00880 4850201Ech. FIRMINY EST    0470720Ech. FIRMINY CENTRE 0490350Firminy Ouest       0480200001980001980420008000300000000000184      031731                                                                                                                                 130305868         120000008         110320118         100000008         090318418                                                                                                                                                        
420008200210014 00880 4850201Ech. FIRMINY EST    0470720Ech. FIRMINY CENTRE 0490350Firminy Ouest       0480200001980001980420008000200000000000184      016026                                                                                                                                 130155298         120000008         110162228         100000008         090160128                                                                                                                                                        
420008200110014 00880 4850201Ech. FIRMINY EST    0470720Ech. FIRMINY CENTRE 0490350Firminy Ouest       0480200001980001980420008000100000000000184      015705                                                                                                                                 130150578         120000008         110157898         100000008         090158298                                                                                                                                                        
420008100310014 00880 4850201Ech. CHAMBON FEUGERO0450224Ech. FIRMINY EST    0470720Chambon-Feugerolles 0460000002496002496420008000300000000000184      041625                                                                                                                                 130401138         120000008         110419868         100000008         090417808                                                                                                                                                        
