890003000310014 01510 4112001COURSON             0120000AUXERRE             0330650VALLAN              0310485021650000000890003000300000000000309      006171 1077    005449   005503   005699   006337   006273   006563   006819   006776   006432   006429   005955   005772               130061071 1077    120000001         110064711 1157    100064241 1117    090066471         005163   005223   005885   006136   006346   006577   006931   006684   006458   006300   005818   005700                                      
890002900310014 01510 4812001Dpt. 58             0000000Courson             0120000Fretoy              0070000012000000000890003000300000000000309      004555                                                                                                                                 130045088         120000008         110047778         100047438         090049088                                                                                                                                                        
890002700310014 00770 4813001ST FLORENTIN        0290000AUBE                0400602Les Buissons        0340000010664000000890002300300000000000195      005798                                                                                                                                 130058908         120000008         110068128         100063378         090060178                                                                                                                                                        
890002300310014 00770 4113001RD203               0050053ST_FLORENTIN        0290000PONTIGNY            0190600023504000000890002300300000000000379      003978 1977    003372   003365   003647   004092   004044   004292   004641   004662   004393   004095   003633   003461               130040411 1837    120000001         110046731 1727    100043471 1827    090041271         003300   003333   003625   004192   004406   004837   004369   004942   004356   004217   003517   003363                                      
890002299310014 00770 4853001AUXERRE             0000000RD203               0050053Auxerre RN77        0010000005067005067890002300300000000000195      004046                                                                                                                                 130041118         120000008         110047558         100044248         090042018                                                                                                                                                        
890002200310014 00650 4112001A6                  0000000AUXERRE             0041653VENOY               0030200005653000000890002300300000000000309      008124 1007    007364   007792   007823   008150   008024   008576   008496   008084   008574   008798   007967   007833               130079101 1007    120000001         110083431    7    100081871    7    090083471         007332   007526   007947   008134   008099   008306   008165   007462   008334   008233   007772   007601                                      
890001001310014 00060 4812001Périgny             0820282RN65                0880140Auxerre RN6         0860000005858000000890001000300000000000309      012060                                                                                                                                 130119488         120000008         110120388         100120488         090119238                                                                                                                                                        
890001000310014 00060 4112001APPOIGNY            0780000PERIGNY             0820282CHESNEZ             0810785005000000000890001000300000000000309      023765 0927    022828   023837   023767   024251   023623   024838   023524   020934   024777   025028   023761   024101               130235441 0947    120000001         110237211    7    100237401    7    090234931         021741   022521   024221   023151   023655   025038   023867   021052   024050   025179   024221   023804                                      
730002700310014 02010 4110401LA BOISSE           0040600VILLARCHER RN504    0080720CHAMBERY_VRU        0050400004414000000890001000300000000000200      099891 2327    098593   104610   106647   102242   092263   100873   102471   094414   101026   100832   095337   099836               130995931 0797    120000001         111000161         100996651    7    090978921    7    097073   102027   108243   101927   094811   100942   102537   098895   099823   100662   093383   094954                                      
730002600310014 02010 4110401A43 SUD             0000000LA BOISSE           0040600MONTS               0030380004680000000890001000300000000000200      000000                                                                                                                                 130000001         120000001         110887911    7    100869531    7    090847691    7                                                                                                                                                   
730002200310014 00900 4113001AIME                0640690BOURG_ST_MAURICE    0750550BONCONSEIL          0720400011434000000890001000300000000000200      009633 0647    010168   010776   012146   010365   007414   008529   010319   010969   008034   008159   008400   010322               130096541 0667    120000001         110097391    7    100096471    7    090097711    7    010180   011392   012266   010254   007393   008412   010570   010728   008038   007917   008184   010560                                      
730002102310014 00900 4113001MONGIROD            0580585AIME                0640690PT_DE_LA_TOUR       0610522006105000000890001000300000000000200      012157 0877    013080   014339   016394   012900   009060   010538   012102   013231   010444   010421   010297   013150               130121851 0977    120000001         110122201 1147    100121481 1207    090122871 1217    013294   014974   016731   012329   009085   010290   012455   013092   010197   010267   010335   013261                                      
730002101310014 00900 4113001ST_MARCEL           0550250MONTGIROD           0580585TUNNEL_SIAIX        0560770003335000000890001000300000000000200      000000                                                                                                                                 130113621 0567    120000001         110113751    7    100111971         090112961    7    012351   014455   015654   011556   008480   008918   011838   012369   009414   009529   009264   012620                                      
730002100310014 00900 4113001MOUTIERS            0500000ST_MARCEL           0550250MOUTIERS_EST        0500865005250000000890001000300000000000200      013675 0777    014785   016098   017891   014438   010421   011980   013800   014654   011860   011928   011669   014650               130136671 0777    120000001         110138201    7    100137611    7    090138401    7    014497   016644   017925   013972   010508   011728   013916   014590   011798   011982   011557   014994                                      
730002000310014 00900 4110101FEISSONS/ISERE      0400500MOUTIERS            0500000LA_LECHERE          0410800009538000000890001000300000000000200      000000                                                                                                                                 130197681 0557    120000001         110201621    7    100196631    7    090200461    7    023021   026212   028835   020789   014071   014924   018607   020225   015678   015497   015757   023848                                      
730001900310014 00900 4110101PIERRE_DU_ROY       0230980FEISSONS/ISERE      0400500CEVINS              0340000016546000000890001000300000000001291      024964 0577    027807   030430   033791   026586   019179   021228   024164   024827   021736   021802   021523   026729               130244771 0587    120000001         110240101    7    100231601    7    090233201    7    027126   030955   033013   025078   018922   020482   023660   024482   020778   021116   020570   027820                                      
730001800310014 00900 4110201BORNERY CAR. RD990  0190000PIERRE_DU_ROY RN212 0230980GILLY/ISERE         0200020004538000000890001000300000000001200      032030 0707    033081   036228   039309   032288   026519   029843   032600   032771   029659   029299   029876   033083               130314701 0717    120000001         110314531    7    100309151    7    090298261    7    033240   037265   039331   031546   026359   027314   032191   032581   028702   028803   027346   033175                                      
710003700310014 00790 4112001CHARNAY_LES_MACON   0780800MACON               0800108VARENNES            0790800002900000000890001000300000000000309      013713 2447    011570   012358   013652   013740   013253   014254   015898   015461   014478   014288   012406   013064               130135861 2427    120000001         110109421 2417    100088891 2287    090094551         010883   012248   012752   012976   012688   013561   016846   018262   014500   013619   012165   012369                                      
710003600310014 00790 4112001LA ROCHE VINEUSE    0700850CHARNAY_LES_MACON   0780800PRISSE              0730800007800000000890001000300000000000309      015285 2267    012916   013771   015376   015470   015240   015493   016536   018277   016081   015822   013729   014553               130152251 2327    120000001         110150941 2357    100145881 2397    090138281         012653   014979   014863   015126   014950   015523   018085   018033   015196   015185   013879   014166                                      
710002900310014 00800 4112001SAINT_DESERT        0200700ECUISSES            0390385LES_BAUDOTS         0320720018685000000890001000300000000000309      017750 1768    016786   017148   018120   019154   018509   020472   021077   020990   021004   020988   018973   000000               130188081 2018    120000001         110000001         100186191 2227    090178241         016272   015673   017517   018417   018835   020051   021082   020723   020565   020854   018194   017267                                      
710002800310014 00800 4112001Saint Rémy          0110000Saint Désert        0200700GIVRY               0190000009700000000890001000300000000000309      020706 2207    018546   019228   020029   021298   020542   022248   022672   022399   021093   020836   019675   019813               130204641         120000001         110000001         100209491         090000001         018366   017385   019971   021024   020832   021744   023026   022311   021069   020917   019326   019344                                      
710002600310014 00790 4112001STE_CECILE          0610440LA ROCHE VINEUSE    0700850LE_BOISCLAIR        0640200009500000000890001000300000000000309      000000                                                                                                                                 130000001         120000001         110000001         100000001         090180381                                                                                                                                                        
710002500310014 00790 4112001BRANDON             0540250STE_CECILE          0610440STE_CECILE          0590400007250000000890001000300000000000309      012187 2677    010386   011075   011880   012258   011817   012319   013915   014875   012703   012580   010759   011547               130122511 2647    120000001         110125551 2607    100125941 2597    090120121         010167   012316   011803   011924   011933   012400   014913   015287   012029   011924   011046   011220                                      
710002300310014 00790 4812001Charolles           0260700BRANDON             0540250La Fourche          0330000027550000000710002600300000000000311      000000                                                                                                                                 130000008         120000008         110000008         100000008         090122158                                                                                                                                                        
710002200310014 00790 4812001Les Cadolles        0180250Charolles           0260700La Redoute          0190550008450000000710001900300000000000309      015289                                                                                                                                 130158148         120000008         110159668         100157278         090145578                                                                                                                                                        
710002100310014 00790 4112001PARAY OUEST         0080135LES CADOLLES        0180250VOLESVRES           0160200010115000000710001900300000000000309      010470 2877    008822   009402   010625   010249   009979   010514   012066   013126   011063   010763   009042   009852               130104521 2937    120000001         110102571 2937    100100191 2957    090095481         008672   011223   010107   010278   010137   010218   012280   013181   010280   010039   009269   009753                                      
710001900310014 00790 4112001Dpt. 03             0000000PARAY OUEST         0080135CHIZEUIL            0040800008135000000710001900300000000000309      015976 2368    013239   014066   015797   016352   016231   017368   020583   020985   015589   014540   012878   013841               130165241 1218    120000001         110166821 3507    100164321 3517    090152091         013021   013886   015547   016157   015934   016804   020957   023595   017020   015925   014269   014856                                      
710001000310014 00700 4812001SAINT VALLIER       0290250RN80 Rond Point J Ba0471018Pont des Morands    0470000019277000000710000800300000000000311      018834                                                                                                                                 130000008         120000008         110184738         100183938         090000008                                                                                                                                                        
710000800310014 00700 4112001GENELARD            0190750ST_VALLIER          0290250ROZELAY             0270800009500000000710000800300000000000309      018454 2317                      016999   018407   018051   019876   020248   020635   019729   018267   016849   017356               130000001         120000001         110181001 2267    100180211         090000001                                                                                                                                                        
710000700310014 00700 4812001Paray le Monial     0050000Genelard            0190750St-Vincent-de-Bragny0110750014450000000710002100300000000000309      012059                                                                                                                                 130120398         120000008         110118158         100115418         090109998                                                                                                                                                        
690502000310014 00470 1110231A7                  0000000Ech.ENTREE 11       0130990GIVORS_COMMERC      0040450014500000000710002100300000000000205      055586 1297    051818   054221   057090   056908   053365   058808   059586   056177   057415   053202   053457   054989               130562311 1347    120000001         110604151         100602831         090000001         053042   053763   056490   057689   055417   058174   061316   056457   058144   058376   051790   053897                                      
690501702310014 04500 1110441PIERRE_BENITE       0000000BRIGNAIS            0070969IRIGNY              0020800007969000000710002100300000000000206      054280 0707    054286   056408   054926   057326   052595   056529   054110   040364   056866   058373   054769   055287               130539601 0727    120000001         110531181    7    100522631    7    090512271         053511   054523   055242   056213   052913   056986   055085   041303   055358   058007   054703   053972                                      
690501501310014 00430 1150441MERMOZ              0000000SORTIE BD DU 8 MAI  0030401ECH_8_MAI           0020500003400003400710002100300000000000206      134066 0417    132917   137275   137463   135611   131860   137399   132954   112163   139807   142088   134163   135743               131319361 0417    120000001         111277841    7    101273081    7    091372141    7    129380   132921   135679   134164   126793   136379   136395   112256   136487   140138   131449   131643                                      
690501203310014 00420 1110241PONT CROIX_LUIZET   0000000Ech. MIRIBEL        0040329GRAPPINIERE         0020000004329000000710002100300000000000206      000000                                                                                                                                 130000001         120000001         110938511    7    100911131    7    090908531    7                                                                                                                                                   
690501101310014 00070 1110441Ech. RD36 SOLAIZE   0130350Ech. A47 GIVORS     0200330COMMUNAY            0160830006980000000710002100300000000000206      095745 0887    082874   085665   088779   097834   096800   105223   108995   107526   099824   096135   087790   090761               130941791 0897    120000001         110967001    7    100956701 1087    090931531 1067    081759   083352   087280   094468   095208   102641   108616   103884   099127   097221   087028   088733                                      
690500900310014 00070 1150441Ech. P.B.S. A74     0060440Ech. RD36 SOLAIZE   0130350ST_FONS             0070918006910006910710002100300000000000206      141964 0837    130178   134793   136122   146433   141682   151351   153351   142418   148252   146565   134377   137765               131402901 0857    120000001         111434571    7    101401761    7    091374141    7    128637   130960   137479   141782   139899   150417   155325   138980   145504   146219   133559   134138                                      
690500702310014 00070 1150441SORTIE QUAI SEMARD  0040200Ech. P.B.S. A74     0060440PIERRE_BENITE       0040750002240002240710002100300000000001294      104868 0637    100142   103902   103002   109092   106409   112239   111603   100743   106364   101713   097811   105503               131050901 0657    120000001         111060381    7    100000001         091039661    7    098964   100810   104602   107558   103690   109698   113311   100395   106584   109631   102436   103178                                      
690500600310014 00070 1150441PONT LA MULATIERE NO0010527SORTIE QUAI SEMARD  0040200MULATIERE           0020500002673002673710002100300000000000206      113099 0597    106495   109470   110883   112320   114066   119837   122740   111789   117204   112926   108543   110741               130980701 0707    120000001         110942481    7    100000001         090000001         089106   090513   094075   097010   093666   098442   102246   091695   096516   104412   108908   109796                                      
690500501310014 00070 1150441RUE M.A. PETIT      0000000PONT LA MULATIERE NO0010527QUAI_PERRACHE       0010220001527001527710002100300000000001294      108268 0877    104793   107356   106782   110259   110168   111918   112570   102077   111591   107776   106378   107689               131057241 0857    120000001         111096751    7    101087611    7    091076441    7    102079   103141   106093   105919   101398   106130   107648   098907   110162   111505   108875   106838                                      
690500400310014 00060 1150241TUNNEL FOURVIERE    4540000TREMIE PERRACHE SUD 4550616FOURVIERE_SUD       4540800001616001616710002100300000000000206      093918 0757    091423   093341   095379   097128   095573   098015   100290   094008   097138   088217   087100   089470               130962361 0757    120000001         111039821    7    101014971    7    091024411         092548   094535   098529   099662   095027   099343   100438   095909   095780   098807   092415   091745                                      
690500200310014 00060 1150741Ech. ECULLY SUD     4490200TUNNEL FOURVIERE    4540000ECULLY              4500720004800004800710002100300000000000200      118902 0587    114210   117621   117820   123672   119079   125021   126730   120711   125914   121815   110471   103934               131185441 0587    120000001         111180291    7    101147521    7    091172421    7    110532   113069   116685   121321   116610   122263   125965   117335   122905   123309   114447   117785                                      
690500105310014 00060 1150441DARDILLY LE TRONCHON4470520Ech. ECULLY SUD     4490200CHAMPAGNE           4480590001680001680710002100300000000000200      000000                                                                                                                                 131055401 0647    120000001         111059051    7    101081811    7    091058421    7    095142   097556   103267   106646   105335   109661   114986   108628   110225   109223   101237   103984                                      
690500103310014 00060 1110741Ech. LIMONEST       4450323DARDILLY LE TRONCHON4470520DARDILLY            4460690002520000000710002100300000000000188      085169 0697    079104   080779   082594   085726   087688   086901   091504   094817   087684   084303   080510   079997               130861841 0717    120000001         110868841    7    100872971    7    090860941    7    075913   079608   083745   088043   086668   091431   097244   094576   090000   085121   081079   080329                                      
690020800310014 04890 4110201Ech. RN7            0000000Ech. RN6            0020624DARDILLY_DEV        0010500002624000000710002100300000000000206      000000                                                                                                                                 130281071 0737    120000001         110233561    7    100229871         090228241    7    023067   026086   028102   029225   027972   029917   030917   027132   026845   030385   028286   029204                                      
690006800310014 03460 4110201Ech. GD LARGE N RD510320000Ech. MI_PLAINE N RN60400883ST_PRIEST           0390485008883000000710002100300000000001094      078260 1877    075553   080425   079060   082564   071977   081784   083358   071572   082164   079890   074988   076261               130788221 1837    120000001         110794731 1877    100816201 1837    090000001         075201   078465   080336   081086   076772   078268   087747   074076   082099   082104   075836   073906                                      
690006200310014 03460 4110201Ech. RIZE SUD RD55  0250000Ech. GD LARGE N RD510320000LAMARTINE           0310495007000000000710002100300000000001094      072438 1937    068267   074078   073596   076153   068999   075128   075936   069866   074894   073685   068963   070024               130729001 1927    120000001         110749601 1867    100771491 1867    090777531 2047    067753   071155   071533   074150   073848   076874   083742   070235   073371   073415   069440   069181                                      
690002500310014 00070 4813001Ech. A46 Sud        0730000Dpt. 38             0760349Communay Les Pins Te0750000002348000000000000000000000000000206      000000                                                                                                                                 130000008         120000008         110000008         100000008         090000008                                                                                                                                                        
690001801310014 00070 4113001Carf. RD73 Arb.     0280189Entrée TASSIN       0400890FLEURIEUX           0310600012291000000000000000000000000000206      000000                                                                                                                                 130146811 0787    120000001         110000001         100000001         090177281         015742   014063   014414   014931   014358   015390   014832   012315   015049   015371   014548   015130                                      
690001700310014 00070 4813001Carf. RD38          0180360Carf. RD73Arb       0280189Bully Temporaire    0240100009829000000690001600300000000000206      012140                                                                                                                                 130120238         120000008         110148298         100146608         090000008                                                                                                                                                        
690001600310014 00070 4113001Dev. PONTCHARRA EST 0180000Carf. RD38          0180360PONTCHARRA          0180150000360000000690001600300000000000206      014575 0797    014115   014337   014430   015207   014460   015467   014761   012334   015287   015556   014747   014254               130144341 0867    120000001         110178021    7    100175991         090000001         014781   013403   014162   014991   015069   015364   015283   012259   015028   015169   013978   013670                                      
690001500310014 00070 4813001Dev. Pontcharra W   0150000Dev. Pontcharra E   0180000Pontcharra dév. Temp0170000003000000000690001600300000000000206      012143                                                                                                                                 130120268         120000008         110148338         100146648         090000008                                                                                                                                                        
690001400310014 00070 4843001Entrée Tarare Ouest 0100250Dev. Pontcharra W   0150000Tarare Temporaire   0120000004750004750690001600300000000000206      006733                                                                                                                                 130066688         120000008         110082258         100081328         090000008                                                                                                                                                        
690001300310014 00070 4115001COL DU PIN BOUCHAIN 0000000Entrée TARARE OUEST 0100250TARARE_OUEST        0090150010250000000690001600300000000000200      005924 0857    005417   005638   005827   006139   005974   006488   006202   005653   006248   006226   005784   005491               130060921         120000001         110000001         100070771         090000001         005964   005420   005977   006548   006251   006443   006577   005912   006424   006273            005558                                      
690000601310014 00060 4140201Ech. RD73D          0400000Ech. A6 DARDILLY    0420150DARDILLY_LES_BROSSES0410000002030002030690001600300000000000206      000000                                                                                                                                 130000001         120000001         110000001         100000001         090000001                                                                                                                                                        
580002701310014 01510 4112001Sud Dev.            0510878Dpt. 89             0580730CLAMECY             0530532006852000000690001600300000000000311      003158 2477    002492   002581   002711   003173   003195   003532   003776   004243   003441   003208   002767   002734               130031041 2487    120000001         110000001         100032481         090032781         002341   002454   002785   003082   003225   003396   003974   003987   003383   003163   002767   002633                                      
580002600310014 01510 4813001VARZY               0350958CLAMECY-NORD        0510878St-Pierre-du-Mont   0400000019090000000580002500300000000000311      002213                                                                                                                                 130021298         120000008         110022728         100022528         090022418                                                                                                                                                        
580002500310014 01510 4112001CHATEAUNEUF V.BARGIS0200512VARZY               0350958LES_PONTOTS         0260000015446000000580002500300000000000309      002194 1488    001682   001776   001907   002178   002148   002435   002961   002790   002372   002229   001958   001861               130021101 1448    120000001         110022511 2157    100022311 1478    090022201 1448    001518   001655   001900   002110   002206   002305   002614   002751   002306   002170   001933   001810                                      
580002300310014 01510 4812001Dpt. 18             0000000CHATEAUNEUF V.BARGIS0200512La Charité          0010500020331000000580002500300000000000311      002123                                                                                                                                 130020428         120000008         110021798         100021608         090021508                                                                                                                                                        
580001200310014 00070 4112001ST_PIERRE           0920100Dpt. 03             1070760LE_MOUTIER          0950700015660000000580002500300000000000307      013866 3317    010834   011894   012909   014288   013899   014607   016630   018537   014222   013894   012020   012469               130137121 3357    120000001         110140001 3367    100136491 3357    090000001         010276   011429   013040   013718   014036   014110   017077   018766   014322   013547   011830   012137                                      
580001101310014 00770 1110241NEVERS              1480000ST_PIERRE           1641118PLAGNY              1640200017200000000580002500300000000000507      013345 2067    010436   011320   012325   013981   013662   014593   015351   016750   013880   014012   011701   011966               130131911 2027    120000001         110000001         100000001         090133101         010010   010645   012429   013755   014016   013982   015935   016866   014012   013142   011640   011630                                      
580001007310014 00070 4812001Chaume des pendus   0770000St Pierre le Mtier  0920100Magny-Cours         0820000015100000000580001200300000000000309      012554                                                                                                                                 130124158         120000008         110126768         100123598         090000008                                                                                                                                                        
580000600310014 00770 1110241SUD LA MARCHE       1390600NEVERS              1480000PRIEZ               1440415008400000000580001200300000000000309      000000                                                                                                                                 130000001         120000001         110000001         100172181 1517    090169891 1288                                                                                                                                                   
580000400310014 00770 1110241Dev. Cosne          1130900SUD LA MARCHE       1390600LA_CHARITE          1270640025700000000580001200300000000000307      013999 2007    011241   012074   012854   014471   013948   015228   016345   017031   014185   014394   012953   013106               130137111 2007    120000001         110140641 1997    100136671 1967    090136871 1948    010557   011313   013352   013904   014095   014183   016461   017166   014322   014005   012372   012572                                      
580000200310014 00770 1810241Maltaverne          1000500Dev. Cosne          1130900Cosne S/Loire       1050000013400000000000000000000000000000309      000000                                                                                                                                 130000008         120000008         110000008         100000008         090000008                                                                                                                                                        
420501300310014 00720 1110431Ech. RATARIEUX      0090210Ech. RN82 RD498     0170182LA_FOUILLOUSE       0120100007910000000000000000000000000000180      076911 0917    070132   077475   069544   069460   069058   075284   082362   074364   085360   086533   081653   081890               130793971 0977    120000001         110849331    7    100823751    7    090000001         078838   077765   082086   083759   080403   086210   076750   067102   084220   086752   073716   075336                                      
420500800310014 00720 1150231Ech. ST JEAN BONNEFO0000000Ech. RATARIEUX      0090210MEONS               0020750009140009140000000000000000000000190      081304 0917    079345   082764   082821   084097   078035   084098   081883   071816   085437   085043   080231   080505               130810761 0917    120000001         110861241    7    100854291    7    090000001         080191   078638   083218   083295   079559   084970   084605   072760   084328   085401   076066   079793                                      
420500700310014 00470 1110231Ech. COUZON         0230000Ech. LA VARIZELLE   0291316PARADIS             0280730007340000000000000000000000000000191      000000                                                                                                                                 130643631 1187    120000001         110689681 1177    100676261 1187    090667961 1197    060506   060829   065256   063967   063618   068002   069739   062199   067163   068875   060076   061844                                      
420500500310014 00470 1110231Ech. LA MADELEINE   0140000Ech.COUZON          0230000GRAND_CROIX         0220000008478000000000000000000000000000180      074778 1017    070070   073249   075271   076865   072673   079669   077373   070290   077404   078165   073367   073055               130746821 1037    120000001         110792991 1097    100778821 1107    090768211 1097    070847   071577   076030   076301   073860   078944   079789   070302   077860   078235   070115   072165                                      
420008400310014 00880 4150201Ech. CHAZEAU        0510300Dpt. 43             0520400CHAZEAU             0520200001100001100000000000000000000000184      027880 0677    026206   026670   027384   028589   027615   030217   028959   024888   030057   029695   027763   026567               130270051 0647    120000001         110280861    7    100000001         090000001         024506   023898   026535   027029   027343   028923   029740   026680   029026   028906   025109   026129                                      
420008300310014 00880 4150201Ech. FIRMINY CENTRE 0490350Ech. CHAZEAU        0510300LA_TARDIVE          0500200001950001950000000000000000000000184      029709         027967   028483   029325   030765   029234   032134   031070   027309   031443   031371   029222   028222               130288411         120000001         110298681         100292771    7    090290281    7    026328   025687   028376   028596   028883   030957   031892   027972   031201   031171   026827   027971                                      
420008200310014 00880 4850201Ech. FIRMINY EST    0470720Ech. FIRMINY CENTRE 0490350Firminy Ouest       0480200001980001980420008000300000000000184      031731                                                                                                                                 130305868         120000008         110320118         100000008         090318418                                                                                                                                                        
420008100310014 00880 4850201Ech. CHAMBON FEUGERO0450224Ech. FIRMINY EST    0470720Chambon-Feugerolles 0460000002496002496420008000300000000000184      041625                                                                                                                                 130401138         120000008         110419868         100000008         090417808                                                                                                                                                        
420008000310014 00880 4110201Ech. CROIX DE L'ORM 0410000Ech. CHAMBON FEUGERO0450224SILARDIERE          0440600004224000000420008000100000000000184      061427 0527    058212   060935   060969   063901   059713   064721   062536   052741   065275   066314   061963   060124               130592181 0487    120000001         110619721    7    100000001         090616271         057325   055520   060442   054489   059104   063800   063085   052739   062687   065093   056936   059069                                      
420007900310014 00880 4850201Ech. DE LA DIGONNIER0390811Ech. CROIX DE L'ORM 0410000République          0390880001189001189420007200300000000000184      061289                                                                                                                                 130609298         120000008         110659488         100653518         090000008                                                                                                                                                        
420007800310014 00880 4850201Ech. LA RIVIERE     0390365Ech. DE LA DIGONNIER0390811Planfoy             0390370000446000446420007200300000000000184      066986                                                                                                                                 130666328         120000008         110720878         100715158         090000008                                                                                                                                                        
420007700310014 00880 4810201Ech. ROND POINT     0380463Ech. LA RIVIERE     0390365Tunnel              0380950000902000000420007200300000000000184      096421                                                                                                                                 130959118         120000008         111037638         101029398         090000008                                                                                                                                                        
420007600310014 00880 4150201Ech. MONTPLAISIR    0360782Ech. ROND POINT     0380463CONVENTION          0380000001681001681420007200100000000000180      073803 0507    072317   075216   073715   076425   071654   078133   074050   060842   077956   078628   074402   072822               130722221 0497    120000001         110744361    7    100740751    7    090000001         070597   069276   073915   073407   071204   076625   074634   060556   076186   078608   069619   071976                                      
420007500310014 00880 4110201Demi-éch. A72       0350500Ech. MONTPLAISIR    0360782JANON               0350700001282000000420007200100000000000184      070720 0467    069271   072009   070589   073218   067744   077564   072502   058242   074517   075004   070058   068448               130684251 0477    120000001         110703681    7    100688051    7    090000001         067570   066381   070828   070596   067717   073148   065805   057350   072892   074124   066191   068594                                      
420007400310014 00880 4110201Bif. RN488          0340840Demi-éch. A72       0350500TERRENOIRE_2        0340900000660000000420007200100000000000184      015225 0727    014436   015156   015191   015820   014915   016253   015510   013254   016007   016358   015212   014653               130292081 0567    120000001         110299541    7    100295081    7    090000001         027389   027268   029540   029958   028941   031411   030906   025865   031136   031732   027933   028338                                      
420007200310014 00880 4110201Fin contour. ST_CHAM0300000Bif. RN488          0340840ST-CHAMOND_M 1      0300600006093000000420007200100000000000311      072677 1017    068274   070910   071890   074959   070751   077026   075098   067626   075762   076383   071862   071696               130723191 1037    120000001         110782161 1017    100776491 1047    090000001         070128   070215   074527   074917   072323   077072   075666   066045   074500   075326   067110   069930                                      
420006100310014 04880 4850201A72                 0010050Agglo. ST_ETIENNE   0011442Compteur temporaire 0010500001392001392420007200100000000000180      017741                                                                                                                                 130175558         120000008         110190718         100187338         090000008                                                                                                                                                        
420006000310014 04880 4110201Carf. RN88          0000000Bretelle A72        0010050TERRENOIRE_1        0000100001050000000420007200100000000000180      045255 1137    043593   045500   046502   046951   044440   044517   043609   042922   046901   047749   044766   045706               130468421 1167    120000001         110516151 1187    100509461 1227    090000001         045948   045560   048070   047950   045992   048531   049915   045184   048077   048145   042830   045773                                      
420001000310014 00820 4112001RN7                 0000000A89                 0160926BALBIGNY            0150950016926000000420007200100000000000408      000000                                                                                                                                 130074971 1367    120000001         110132621 1937    100126931 1907    090126311         006806   006797   007609   007714   007507   008036   008024   007318   007837   007760   007137   007377                                      
420000500310014 00070 4113001Carf. RN82          0410735Dpt. 69             0591003NEAUX               0410800018267000000420007200100000000000206      000000                                                                                                                                 130069261 1117    120000001         110084461 1247    100083691 1257    090084651 1087    006671   005989   006378   007143   006646   006943   007189   006617   007079   006999   007715   007689                                      
420000400310014 00070 4110101Contour. ROANNE     0300515Carf. RN82          0410735ST_VINCENT          0360650017015000000420007200100000000000309      000000                                                                                                                                 130209331 1418    120000001         110208421 1527    100203121 1547    090204081         018951   019114   020782   021789   020980   022349   021582   021383   021953   022037   021024   019177                                      
420000200310014 00070 4813001CHANGY              0130500Contour. ROANNE     0300515St-Romain-la-Motte  0220500017015000000420000100342000010030180      000000                                                                                                                                 130000008         120000008         110000008         100000008         090055288                                                                                                                                                        
420000100310014 00070 4112001Dpt. 03             0000000RD8                 0130500CHANGY              0130420013500000000420000100300000000000307      000000                                                                                                                                 130000001         120000001         110000001         100000001         090088341 2397                                                                                                                                                   
380501200310014 04800 1150231CLAIX               0110950VARCES RN75         0120430CLAIX               0120700000750000750420000100300000000000600      038404 0417    035766   037075   037042   039721   037786   041021   039872   037102   040782   040555   037307   036860               130000001         120000001         110358171    7    100331921    7    090331831                                                                                                                                                        
380501100310014 04800 1150231PONT_DE_CLAIX       0100100CLAIX               0110950DRAC                0110200001850001850420000100300000000001104      043753 0327    040924   042532   042435   045482   042986   046628   045060   041372   046472   046287   042788   042159               130428711 0337    120000001         110420941         100405811    7    090402641         039498   039860   041757   043042   043431   045901   046177   041189   045137   044924   042087   041308                                      
380501020310014 04800 1150231ZI COMBOIRE         0090000PONT_DE_CLAIX       0100100LE_PARC             0090500001675001675420000100300000000000600      065387 0537    061897   064924   065935   067370   062145   068533   068580   064474   068068   067624   062175   063028               130645201 0517    120000001         110643821    7    100637241    7    090642741         060629   061873   064847   064285   063997   067839   071653   064467   066901   065585   060623   061330                                      
380501010310014 04800 1114031RONDEAU             0070400ZI COMBOIRE         0090000COMBOIRE            0070900002300000000420000100300000000000204      091207 0497    087925   090411   092128   094175   088018   094190   094112   086783   093024   094260   088435   091111               130898221 0467    120000001         110913811    7    100898761    7    090907941         085828   086324   089509   090621   088149   092074   096738   087617   091867   092749   087445   088687                                      
380501000310014 04800 1150231LOUISE_MICHEL       0060350RONDEAU             0070400LOUISE_MICHEL       0060500001050001050420000100300000000000600      086158 0697    084222   087799   089385   088884   082468   087017   088724   082461   086962   087756   083388   085050               130855091 0777    120000001         110833421    7    100823931    7    090779621         083483   085188   087666   085791   085507   087839   089382   084245   085440   086327   082938   082273                                      
380500920310014 04800 1150231CATANE              0050000LOUISE_MICHEL       0060350MISTRAL             0050800001350001350420000100300000000001104      096234 0577    089901   090874   091502   090330   092191   104074   102000   094654   102161   104423   096651   095799               131005731 0627    120000001         111008621    7    101000051    7    090979901         098443   100185   101705   101192   099248   102432   104313   097276   103287   103609   098095   097139                                      
380500910310014 04800 1150231FONTAINE VERCORS    0030650CATANE              0050000CATANE              0040250001350001350420000100300000000000103      095472 0427    094254   098064   098813   099076   090915   098023   097609   088254   097248   097321   092727   093775               130965371 0647    120000001         110939961    7    100940801    7    090950341         093580   095470   098634   097709   093908   100543   102451   091597   098468   099142   093564   093404                                      
380500905310014 04800 1150231LES_MARTYRS         0010275FONTAINE VERCORS    0030650CENG                0020850002375002375420000100300000000000600      083651 0777    081889   085345   086948   086293   081509   085581   083998   079085   084975   085779   080783   081898               130837211 0757    120000001         110825771    7    100807391    7    090809421         081420   082985   086147   085071   082303   087652   086728   078571   085166   086195   081063   081419                                      
380500900310014 04800 1110241Bif. A48/A480       0000000LES_MARTYRS         0010275LES_MARTYRS         0010050002000000000420000100300000000000403      075876 0817    073692   077277   078997   078163   072358   078024   077273   073418   077233   077549   072698   074050               130759701 0807    120000001         110752351    7    100742001    7    090745441         073047   074750   078384   077140   075447   079307   080295   072905   077256   077012   072402   073647                                      
380500800310014 04810 4150241PICQUE_PIERRE       0960300PORTE DE FRANCE     0971000PICQUE-PIERRE       0970000004779004779420000100300000000000600      000000                                                                                                                                 130000001         120000001         110293501    7    100000001         090342581                                                                                                                                                        
380500610310014 04810 4110241Bif. A48/A480       0930369PICQUE_PIERRE       0960300BELLECROIX          0950100002000000000420000100300000000000403      037180 0357    035928   038336   036578   038125   034837   039301   037911   031179   039045   039721   037467   038016               130369071 0387    120000001         110405071    7    100417981    7    090421501         036520   038580   040488   039955   035043   036797   037328   031946   036969   038061   035374   036032                                      
380500600310014 00480 1150231ST_EGREVE NORD      0910000Bif. A48/A480       0930369ST_EGREVE           0920800002369002369420000100300000000000600      092822 0757    089060   094486   095644   095391   087830   096918   095637   088274   094790   095356   089278   091524               130929691 0797    120000001         110000001         100000001         090000001         089541   092537   096624   094157   092389   096359   098521   088511   094270   094432   087837   090424                                      
380004050310014 00870 4113001ST_MARTIN_D'HERES P 0080000A41                 0111050MEYLAN              0090200003390000000420000100300000000000407      076931 0537    078746   077783   076771   080427   072649   079138   076238   066244   080192   080473   076423   078434               130000001         120000001         110774241    7    100000001         090758111                                                                                                                                                        
380004040310014 00870 4113001SMH                 0060000ST_MARTIN_D'HERES P 0080000ST_MARTIN_D_HERES   0070300002000000000420000100300000000000407      081144 0557    081630   083784   082562   084824   077316   082575   080879   070771   083676   085077   080756   080372               130820281 0547    120000001         110000001         100803961    7    090802281         080548   080779   082127   083392   081941   085549   084328   072829   085821   085780   081587   079791                                      
380004035310014 00870 4110101EYBENS              0040250ST_MARTIN_D'HERES   0060000POISAT              0050100001750000000420000100300000000000403      086953 0547    088382   090752   089627   091739   084091   088707   087595   076475   085866   085376   088089   087316               130891431 0557    120000001         110000001         100000001         090000001         087326   087599   089172   090839   089408   092815   091734   079606   092827   093142   088638   086741                                      
380004030310014 00870 4113001ALPEXPO             0030500EYBENS              0040250EYBENS              0030600001250000000420000100300000000000407      087707 0517    088730   091656   091248   093333   086107   089805   089318   078674   090936   075350   089437   088679               130904731 0497    120000001         110911771    7    100900261    7    090893591         088367   088860   090367   092132   089168   094696   093814   081767   094261   094511   090259   087623                                      
380004025310014 00870 4150201ECHIROLLES          0020500ALPEXPO             0030500ECHIROLLES          0020180001000001000420000100300000000000407      075639 0527    089935   090353   083948   048258   044874   018825   090977   079623   091354   092441   088609   088106               130900001 0527    120000001         110904361    7    100000001         090863101         088354   089405   090742   091387   088987   093075   090142   083122   093368   093723   089987   087908                                      
380004020310014 00870 4150201RONDEAU             0010500ECHIROLLES          0020500ETATS_GENERAUX      0010300001000001000420000100300000000000407      090780 0507    089934   092459   092692   094624   091972   090738   092260   081641   091868   093139   089113   089189               130908151 0507    120000001         110915801    7    100897461    7    090890351         089327   089099   090822   092324   090075   094838   094223   079272   094636   095609   091080   088613                                      
380004010310014 00870 4150201Bif. A480/RN87      0000000RONDEAU             0010500RONDEAU             0000300001500001500420000100300000000000407      093877 0567    093606   096094   096161   098998   093026   095283   090600   079484   097122   098538   093965   094177               130952151 0507    120000001         110959001    7    100000001         090000001         092992   092987   094638   096012   095892   099588   099075   086395   098680   099317   094424   092624                                      
380003600310014 00850 4113001JARRIE              0500450CHAMP/DRAC          0560310CHAMPAGNIER         0530000003200000000420000100300000000000407      030536 0657    030818   030575   031947   030986   028047   031649   032134   031388   030892   030456   027984   029543               130303541 0667    120000001         110312171    7    100307011    7    090308311         029268   029960   031102   029958   028446   031677   034308   031746   030146   030495   027711   029333                                      
380003500310014 00850 4113001CLAIX               0490000JARRIE              0500450PONT_ROUGE          0500400001050000000420000100300000000000407      024586 0777    023150   024648   025946   024715   022255   025211   025572   024685   024702   024875   024561   024744               130244981 0787    120000001         110252951    7    100249031    7    090000001         024034   024059   025351   024010   023806   024897   028069   026665   024097   023761   021754   023328                                      
380001300310014 00070 4123001PEAGE DE ROUSSILLON 0270900Dpt. 26             0330605ROUSSILLON          0310400006100006100420000100300000000000600      019172         017926   018452   019001   019672   018717   019484   020040   019605   019740   019749   018490   019151               130190311 1037    120000001         110185241         100000001         090000001         016798   017942   018284   018816   018615   019781   020034   019781   019780   020149   019606   018742                                      
380001000310014 00070 4113001RHONE               0000000PEAGE DE ROUSSILLON 0270900AUBERIVES           0210700027900000000420000100300000000000194      012413 0597    011588   012056   012113   012894   012504   013125   012822   011844   012960   012881   012142   012050               130124131 0687    120000001         110127601    7    100000001         090000001         011240   011518   012158   012628   012598   013396   013310   012485   012833   012889   012114   011750                                      
260004000310014 00070 4150201ARMAILLER BLV Nord  0410485LAUTAGNE Giratoire R0430460SC061 B-L-V         0421166004460004460420000100300000000000205      021227 0827    020085   020751   020632   021799   020640   022497   022093   019613   022115   022406   020789   021336               130210211 0877    120000001         110208561    7    100000001         090000001         019621   020029   020802   021454   020669   022197   022556   019609   021728   021945   020714   020885                                      
260003900310014 00070 4156001LAUTAGNE Giratoire R0430460CARREFOUR ALIXAN VAL0461289SC020 CHABEUIL      0450585003829003829420000100300000000001098      044179 0797    039310   040155   042601   044160   043565   047108   049856   050629   045325   044974   039824   042245               130432831 0837    120000001         110426881 1027    100000001         090329051         038224   039863   041883   043173   043547   045114   049812   049218   044705   043242   039158   041095                                      
260003802310014 00070 4150101LAUTAGNE            0470979CHANTECOURIOL Girato0480595SC053 POMPIER       0480500001186001186420000100300000000000205      025035 1107    023468   024347   024431   025606   024388   026193   026321   024221   025989   026224   024199                        130246231 1117    120000001         110242231 1117    100000001         090173161         023132   023627   024015   025024   024459   025643   026617   023785   025417   025984   024260   023475                                      
260003801310014 00070 4156001CARREFOUR ALIXAN VAL0461289LAUTAGNE            0470979SC010 LAUTAGNE      0470330000690000690420000100300000000001098      055753 0857    051430   052915   055010   055991   054581   059238   060817   058623   058191   057078   051153   053787               130550891 0877    120000001         110546591    7    100000001         090460821         050125   052189   053822   055429   055202   057976   061248   058019   057411   056002   051231   052187                                      
260003200310014 05320 4110201BAYANNES            0050000BOURG_DE_PEAGE      0150171ALIXAN              0120950010170000000420000100300000000000192      046937 0688    042953   043737   046129   047268   046268   049910   052253   052003   048233   047332   041993   044845               130464891 0767    120000001         110459071    7    100449971    7    090430881    8    042056   043665   045688   046264   046482   048381   052628   050863   047933   046492   042784   044340                                      
260002800310014 01020 4813001PRACOMPTAL          0010480Dpt. 07             0030841Montélimar          0010500002361000000260001900300000000000311      008359                                                                                                                                 130082118         120000008         110080908         100080998         090081698                                                                                                                                                        
260002700310014 01020 4843001MONTELIMAR          0000000PRACOMPTAL          0010480Montélimar          0010480001480001480260001900300000000001098      008666                                                                                                                                 130085138         120000008         110083878         100083968         090084688                                                                                                                                                        
260002100310014 00070 4814001PIERRELATTE SUD     1140250VAUCLUSE            1180808Les Blaches         1150000004557000000260001900300000000001098      011241                                                                                                                                 130110428         120000008         110108798         100108918         090109858                                                                                                                                                        
260002000310014 00070 4114001MALATAVERNE Ech. A7 0980920PIERRELATTE SUD     1140250PIERRELATTE         1100000015330000000260001900300000000001098      015960 1397    012113   012524   013653   017039   016852   018063   018464   019667   016383   016683   015044   014786               130167321 1537    120000001         110170371 1467    100167461 1387    090172751         014384   014812   015619   016834   017331   017876   019212   019045   017470   017601   015643   014803                                      
260001900310014 00070 4115001MONTELIMAR SUD      0921050MALATAVERNEEch. A7  0980920MONTELIMAR          0960050005870000000260001900300000000001098      019987 1397    017718   018449   018961   020034   020049   020876   021740   022555   020966   020528   018671   019166               130196331 1167    120000001         110193421 1117    100193621 1027    090195281         017429   017958   018683   019658   020064   020656   022075   021981   020106   019986   018475   018370                                      
260001800310014 00070 4854001PRACOMPTAL RN102    0891030MONTELIMAR SUD      0921050Montélimar dév. Sud 0900000003020003020260001900300000000001098      021914                                                                                                                                 130215268         120000008         110212078         100212298         090214128                                                                                                                                                        
260001600310014 00070 4815001MONTELIMAR NORD RD540870000PRACOMPTAL RN102    0891030Montélimar dév. Nord0870500003030000000260001900300000000000311      011392                                                                                                                                 130111918         120000008         110110268         100110388         090111338                                                                                                                                                        
260001500310014 00070 4115001LES TOURETTES       0760700MONTELIMAR NORD RD540870000COUCOURDE           0810000010300000000260001900300000000001098      014861 1487    012777   013454   013914   015121   015138   016342   016641   017880   015388   014780   013310   013472               130147611 1477    120000001         110149391 1507    100148341 1517    090148191         012678   013297   013928   014958   015400   015822   016854   017359   015415   014798   013536   012968                                      
260001400310014 00070 4114001LORIOL BLACHES RD7  0690300LES TOURETTES       0760700SC100 ToureteN      0760600007400000000260001900300000000001098      000000                                                                                                                                 130000001         120000001         110105841 1437    100000001         090115721                                                                                                                                                        
260001300310014 00070 4813001LORIOL CENTRE RD86F 0670160LORIOL BLACHES RD7  0690300Loriol déviation    0670500002140000000260001100300000000001098      018947                                                                                                                                 130186878         120000008         110190488         100187618         090190408                                                                                                                                                        
260001200310014 00070 4845001LORIOL NORD RD107   0660330LORIOL CENTRE RD86F 0670160Loriol dév. Nord    0660500000830000830260001100300000000001098      014592                                                                                                                                 130143928         120000008         110146708         100144498         090146648                                                                                                                                                        
260001100310014 00070 4115001LIVRON SUD          0640700LORIOL NORD RD107   0660330LORIOL              0650100001630000000260001100300000000001098      017620 0068    015753   016547   016930   018086   017796   018806   018859   019572   018098   017764   016501   016658               130173781 0068    120000001         110177131    7    100174461    7    090177051         015692   016184   017004   017584   017815   018216   019248   019053   017805   017302   016383   016149                                      
260001000310014 00070 4835001ST BLAISE RD247     0630320LIVRON SUD          0640700Livron agglo        0630500001378001378260001100300000000001098      012969                                                                                                                                 130127918         120000008         110130388         100128428         090130338                                                                                                                                                        
260000900310014 00070 4815001ETOILE              0550600ST BLAISE RD247     0630320Fiancey             0590000007720000000260001100300000000000188      010815                                                                                                                                 130106678         120000008         110108738         100107108         090108698                                                                                                                                                        
260000800310014 00070 4115001CHANTECOURIOL Girato0480595ETOILE              0550600SC051 CHAFFIT       0480750009056000000260001100300000000001098      000000                                                                                                                                 130000001         120000001         110175761 1417    100000001         090189091                                                                                                                                                        
260000500310014 00070 4114001LA TEPPE            0300020ARMAILLER BLV NoRD  0410485SC062 BLV NORD      0410340011465000000260001100300000000001098      016422 0987    015067   015533   015853   016739   016307   017242   017587   017291   016954   016776   015605   016055               130165711 1107    120000001         110167621    7    100000001         090000001         015044   015298   016084   016649   016499   017413   018382   017080   017520   017111   016292   015407                                      
260000400310014 00070 4843001TAIN NORD RN95      0280260LA TEPPE            0300020Tain agglo          0290700001760001760260000300300000000000188      012891                                                                                                                                 130128088         120000008         110135268         100134598         090000008                                                                                                                                                        
260000300310014 00070 4113001ST_VALLIER SUD RD51 0160200TAIN NORD RN95      0280260TAIN                0250200012060000000260000300300000000000188      011727 0838    010343   010865   011095   011908   011854   012319   012590   012770   011943   012166                                 130116511 0938    120000001         110123041 1027    100122431 1157    090000001         010377   010746   011281   011857   012093   012628   013244   012569   011734   011262   011187   010779                                      
260000201310014 00070 4813001ANDANCETTE          0070350ST VALLIER SUD RD51 0160200Croix des Mailles   0110000008850000000260000300300000000000311      009851                                                                                                                                 130097888         120000008         110103378         100102868         090000008                                                                                                                                                        
260000100310014 00070 4113001Dpt. 38             0000000ANDANCETTE          0070350ST_RAMBERT          0040000007350000000260000300300000000001098      000000                                                                                                                                 130129591 1267    120000001         110127081 1347    100122201 1367    090000001         011450   011937   012441   013331   013029   013894   014253   013448   013205   013515   012770   012178                                      
210600300310014 00380 1112041PONT_DE_PANY        0210000PLOMBIERES_LES_DIJON0360384PONT_DE_PANY        0210450015393000000260000300300000000000307      017409 0748    014921   015927   016857   017854   017667   019337   017960   016843   018563   018605   017467   016880               130163261 0658    120000001         110168441    7    100169021    7    090172751    8    013932   014346   016179   016504   016540   017922   017568   015920   017614   017336   016202   015742                                      
210600100310014 00380 1112041POUILLY_EN_AUXOIS   0000000PONT_DE_PANY        0210000CIVRY               0050400021000000000260000300300000000000107      009900 0967    008373   008928   009457   010127   009977   010944   010415   009848   010402   010760   009912   009616               130093591 0977    120000001         110097541    7    100097391    7    090000001         007829   008297   009303   009450   009477   010114   010046   009324   010064   009957   009288   009105                                      
210100200310014 02740 4150301LONGVIC             0000000TOISON D'OR         0111015MIRANDE             0040800012015012015260000300300000000000307      069476 0907    067293   069356   067924   073118   069795   070614   070311   059734   074877   072752   068983   069260               130675471 0857    120000001         110000001         100000001         090621981         064709   065178   069418   068770   066791   071216   067879   056387   070235   073333   070461   066299                                      
100002610310014 00770 4813001RD34 Le Cheminot    0170255RD610 Rocade        0320866Villery             0200000015401000000000000000000000000000311      000000                                                                                                                                 130000008         120000008         110000008         100000008         090000008                                                                                                                                                        
100002500310014 00770 4813001YONNE limite        0000000RD374 Auxon         0080830Auxon               0000152008854000000000000000000000000000205      000000                                                                                                                                 130000008         120000008         110000008         100000008         090000008                                                                                                                                                        
100001800310014 00770 4113001RD374 AUXON         0080830RD34 LE CHEMINOT    0170255CRESANTIGNES        0170200008459000000000000000000000000001208      000000                                                                                                                                 130000001         120000001         110068561 1527    100067721 1477    090066221                                                                                                                                                        
070002600310014 01020 4813001SORTIE AGGLO LE TEIL0040462Carf. CD107         0120889LE TEIL             0040462009688000000000000000000000000000188      000000                                                                                                                                 130000008         120000008         110000008         100081358         090082518                                                                                                                                                        
070002500310014 01020 4143001Dpt. 26             0000000SORTIE AGGLO LE TEIL0040462AGGLO LE TEIL       0000500004462004462000000000000000000000188      013888 0557    012733   013070   013171   014113   013947   014716   015095   014989   014333   013855   013190   013400               130137651 0567    120000001         110053181    7    100000001         090000001         012291   012501   012973   013880   014170   014875   015522   015221   013746   013560   013088   013253                                      
030006400310014 00790 4113001RD779               0640675Dpt. 71             0881330MOLINET             0830178024655000000000000000071000000010504      014784 3907    011486   012286   013995   014481   014202   015332   018574   021545   016242   013892   011981   013118               130143311 3997    120000001         110000001         100144381         090140661         011222   011867   013120   013060   013012   014589   018909   021527   015087   013940   012396   012938                                      
030006200310014 00790 4113001RN7                 0351664RD779               0640675LES_POCHONS         0590858028011000000000000000000000000000200      011717 4277    009382   010042   011185   011526   011325   012147   014948   017271   011910   010938   009397   010318               130118901 4347    120000001         110119741 4327    100116801 4337    090105041         009144   009544   010698   011569   011431   011797   015372   017875   013284   011495   009815   010391                                      
030006000310014 00790 4813001RD2009              0330000RN7                 0351664Toulon S/Allier     0350000003664000000030005900300000000000200      000000                                                                                                                                 130000008         120000008         110162818         100165378         090148838                                                                                                                                                        
030005900310014 00790 4113001RD945               0100765RD2009              0330000CRESSANGES          0230855022235000000030005900300000000000200      000000                                                                                                                                 130000001         120000001         110089871 3957    100091281 3927    090082151 3728                                                                                                                                                   
030005300310014 02090 4113001RD907               0260000RN7                 0400909CRECHY              0340821013670000000030005900300000000000394      006348 0907    005972   006246   006286   006718   006227   006680   006504   006100   006543   006714   006214   005983               130075631 0867    120000001         110066991    7    100063101 1067    090065791         008043   007987   008807   009263   009158   007895   007317   006336   006665   006845   006293   006180                                      
030004100310014 00790 4813001RD46                0000000RD945               0100765Montmarault         0000500010765000000030005900300000000000200      000000                                                                                                                                 130000008         120000008         110126208         100128198         090115378                                                                                                                                                        
030001100310014 00070 4113001RD990               0700992Dpt. 42             0810328ROSSIGNOL           0720320010376000000030005900300000000000309      000000                                                                                                                                 130062071 3437    120000001         110062641 3367    100060691 3367    090059841         004921   005217   005950   006360   006348   006501   007348   007939   006473   006291   005453   005588                                      
030001000310014 00070 4813001RD907               0640441RD990               0700992St-Prix             0670000006551000000000000000000000000001202      000000                                                                                                                                 130000008         120000008         110000008         100000008         090000008                                                                                                                                                        
030000900310014 00070 4113001RN209               0470707RD907               0640441ST_GERAND_PUY       0550211016734000000000000000000000000001202      005893 3607    004788   005100   005485   005941   005637   006382   006724   007031   006375   006280   005419   005489               130057111         120000001         110057771 3507    100055691 3507    090055451         004587   004875   005340   005788   005818   005972   006732   006573   006851   005844   004986   005112                                      
030000499310014 00070 4812001RD46/RD268          0430421RN209/RD23          0470707Varennes S/Allier   0470300004286000000030000400300000000000504      000000                                                                                                                                 130000008         120000008         110000008         100000008         090000008                                                                                                                                                        
030000400310014 00070 4113001RN79                0240300RD46/RD268          0430421BESSAY              0310488019121000000030000400300000000000189      008819 3278    007640   008169   008488   009235   008587   009519   009539   009504   009308   009200   008345   008270               130086201 3318    120000001         110092871 3337    100090411 3277    090090511 3088    007283   007908   008470   008846   008815   009030   009635   009286   008985   009007   008032   008088                                      
030000202310014 00070 4110201RD707               0110880RN79                0240300MILLEPERTUIT        0200000012420000000030000400300000000001197      013769 2938    011021   012001   013168   014639   013477   014427   016282   017460   014060   013989   012192   012351               130131871 3088    120000001         110134711 3267    100130071 3247    090128471         010185   011303   012437   013085   013032   013382   016390   017277   013815   013332   011765   012032                                      
030000200310014 00070 4110201RD133               0030110RD707               0110880AVRILLY             0070250008770000000030000400300000000000589      015680 2608    012527   013639   014384   016030   015425   016236   018358   019818   016665   016009   014151   014728               130153761 2688    120000001         110157221 2837    100152551 2977    090152911         011954   013119   014682   015344   015670   015805   018711   020235   016051   015396   013480   013827                                      
030000100310014 00070 4812001Dpt. 58             0000000RD133               0030110Villeneuve S/Allier 0020000003310000000030000200358000120031197      018117                                                                                                                                 130177668         120000008         110181668         100176278         090176698                                                                                                                                                        