800500200310014 00280 1117031ECHA RD928          0100360ECHA RD 29          0170042BEHEN               0100671006690006690          00000000000796      000000                                                                                                                                 130000001    0    120118771    0    110123451    0    100117771    0    090115641    0                                                                                                                                                   
800500101310014 00280 1817031ECHA RD925          0040245ECHA RD928          0100360MONT CAUBERT        0070006006095006095800500200300000000000202      000000                                                                                                                                 130000008         120120498         110125238         100119528         090117328                                                                                                                                                        
800500100310014 00280 1117031ECHA  RD 40         0010695ECHA  RD925         0040245ABBEVILLE           0020650002543002543800500200100000000001291      000000                                                                                                                                 130000001         120141171 2448    110146511 2707    100148301 2308    090147041 2198                                                                                                                                                   
800500000310014 00280 1817031RN1                 0000000ECHA RD 40          0010695GR-LAVIERS          0010000001932001932800500100300000000000796      000000                                                                                                                                 130000008         120140378         110146058         100147738         090146448                                                                                                                                                        
760510010310014 03380 4140201petit quevilly      0050850petit quevilly      0070940petit quevilly      0061000002940002940800500100176000000010600      079496  767    075805   079160   080793   082172   080467   083081   079215   074386   081207   081837   079054   076981               130779621  867    120755321    0    110000001    0    100383511    7    090000001    0    076794   082592   081881   084877   079844   083018   072856   053680   081641   082884   079049   077415                                      
760501700310014 00280 1110241ECH RD919           0830650ECH FIN A28         0970387Quincampoix         0900000013737013737800500100100000000000193      023512 1147    019563   020518   021282   022869   022442   023777   022839   024069   027165   026971   025400   025121               130213171  557    120259591 1297    110272211 1397    100268331 1767    090246991    8    018321   019712   020117   022279   022470   023619            020135   023317   022616   021352                                               
760501601310014 00280 1810241                    0800000ECH RD 919          0830650Rocquemont          0800000003650003650760501500300000000000193      000000                                                                                                                                 130000008         120000008         110000008         100000008    0    090219218    0                                                                                                                                                   
760501600310014 00280 1810241ECH PUCHEUIL        0750000                    0800000Bosc-Bérenger       0800000005000005000760501500300000000000193      000000                                                                                                                                 130000008         120000008         110000008         100000008    0    090219218    0                                                                                                                                                   
760501500310014 00280 1110241ECH LES HAYONS      0650450ECH PUCHEUIL        0750000Maucomble           0670000009550009550760501500100000000000193      000000                                                                                                                                 130000001         120000001         110000001         100000001         090262731 1458                                                                                                                                                   
760501400310014 00280 1810241ESCLAVELLES         0600000ECHANGEUR HAYONS    0650450Esclavelles         0630000005450005450760501500300000000000193      000000                                                                                                                                 130000008         120000008         110000008         100000008    0    090261228    0                                                                                                                                                   
760501300310014 00280 1810241NEUFCHATEL CD 928   0550000NEUFCHATEL          0600000NEUFCHATEL          0590700005000005000760501500300000000000288      000000                                                                                                                                 130000008         120000008         110000008         100241548         090223278                                                                                                                                                        
760501200310014 00280 1110241CALLENGEVILLE       0430900NEUFCHATEL NORD     0550000Callengeville       0450000011100011100760501500100000000000193      012345 2767    009065   009677   010376   012427   012326   014082   015693   018147   013087   012100   010530   010394               130119841         120121711 2707    110124391 2727    100121921 2657    090117991 2557    008276   009458   009790   012202   012479   013734   015464   017942   012692   011463   010247   009846                                      
760501100310014 00280 1810241DPT SOMME           0290000CALLENGEVILLE       0430900Fallencourt         0350000014900014900760501200300000000000193      013273                                                                                                                                 130128858         120130878         110133778         100131128    0    090126908    0                                                                                                                                                   
760500500310014 01310 1110241                    0300600                    0330393GONFREVILLE         0320850002793002793760501200100000000000409      043392         041216   041871   042499   044022   041771   045894   043993   039266   047009   047303   043418   042518               130419431         120424451    8    110426641 1127    100416811 1048    090407171    0    038951   040767   040284   043287   041769   044797   044917   039047   044085   044213   041519   039761                                      
760500401310014 01310 1810241                    0210936                    0300600Sandouville         0280600008664008664760500500300000000000409      020437                                                                                                                                 130197518         120199868         110200928         100185268         090187518                                                                                                                                                        
760500400310014 0131001810241                    0160000                    0210936Tancarville         0160000005936005936760500500300000000000409      018941                                                                                                                                 130183278         120185538         110186408         100181948    0    090177748    0                                                                                                                                                   
760500300310014 01500 1110241ROUMARE             0080880BARENTIN            0121143Roumare             0100700004263004263760500500100000000000288      000000                                                                                                                                 130345281    0    120332161    0    110329831    0    100339291    0    090326731    0                                                                                                                                                   
760500201310014 01500 1110241Ech la vaupaliere   0060320ech A 151           0080880St Jean de Cardonay 0060500002560002560760500500100000000000102      053807  977    052777   053635   055339   056240   054509   058391   055296   046808   053734   054612   052886   051631               130542301  957    120565021    0    110561041    0    100539991    0    090520081    0    049446   051917   051217   055093   054220   056877   056250   051746   057121   057450   055199   054234                                      
760500200310014 01500 1110241Canteleu            0040000ech la vaupaliere   0060320La Vaupaliere       0040850002090002090760500500100000000000102      053410 1117    051916   052209   053961   054953   053023   056898   054954   052470   053724   054151   052064   050606               130530611 1217    120510401    7    110506821    7    100487781    7    090469691    7    048061   051231   050263   054392   053379   055170   055795   050444   055271   055891   053804                                               
760500100310014 01500 1110241ROUEN               0000000CANTELEU            0040000CANTELEU            0020600004230004230760500500100000000000288      062459  887    061066   061817   063822   064739   062252   066650   063795   056082   063527   064351   061928   059639               130620451  887    120598671    0    110594491    0    100572161    0    090563031    0    056953   060011   058923   063145   062019   064879   064295   058142   064839   065966   063574   061855                                      
760500039310014 00280 4140201ROUEN               0000000                    0011016Rouen St Hilaire    0010350002016002016760500500100000000000693      060117  537    056151   056098   056138   054084   055716   056522   049180   050426   072065   074190   071531   069357               130496051    0    120384301    0    110418021    0    100411361    0    090412811    0    045848   035635   039667   049510   053564   053536   053783   052270                     055800                                               
760500024310014 00280 4110201ech 2828            0060500fin d928 a28        0070848Bois Guillaume      0060680001348001348760500500100000000000102      029081  907    025972   026417   026856   028220   027938   028539   024211   027945   034051   034289   032620   031883               130270421  627    120319811    0    110347871    0    100341701    0    090342881    0    023289   024749   025373   027359   027694   029740   028750   027083   028260   028144   026926                                               
760500023310014 00280 4110201ech 443             0040950ech 2828            0060500Le Chapitre         0050000001063001063760500500100000000000102      038037  767             033244   033557   034600   034160   036204                     044285   044883   042465   041872               130315391    0    120419511    0    110456191    0    100448781    0    090450361    0                                                                                                                                                   
760500021310014 00280 4140201                    0011016ech d443bg          0020000TCAR                0010950000184000184760500500100000000000693      035725  667    031833   032447   032743   029535   032894   032454   026542   031196   044889   046283   044355   043483               130319831  487    120384301    0    110418021    0    100411361    0    090412811    0    028385   030123   030712   032656   032561   034154   033193   031619   034259            032164                                               
760500001310014 00280 4140201ROUEN DARNETAL      0020000                    0040950Tunnel              0030900003437003437760500500100000000000693      032623  657    028532   029332   029463   029826   029731   031626   027659   028565   039578   040532   038611   037999               130288801  497    120384301    7    110418021 1047    100000001    0    090412811    0    025898   027395   028041   029308   029006   031348   030381   026315   030468   030513   029160   028735                                      
760500000310014 01510 1110241PISSY POVILLE       0000000PISSY POVILLE       0060400PISSY POVILLE       0010300006400006400760500500100000000000288      022064 1357    021045   021713   022701   023323   022457   024707   024600   021466   022170   021720   020066   018833               130215671 1047    120199561    0    110198171    0    100190741    0    090183691    0    017860   019438   019297   021361   020872   022161   024484   023208   023160   023410   021846                                               
760111110310014 01380 4110201                    0210000                    0220703Pont Guillaume      0220243001703001703760500500100000000000288      000000                                                                                                                                 130610391    0    120471571    0    110444421    0    100443891    0    090477361    0                                                                                                                                                   
760008701310014 13380 1140131Rive Gauche         0080000Rive Droite         0090960Pt Flaubert         0080500001960001960760500500100000000000814      052900 1387    053227   047992   055485   057857   054250   058525   056557   048842   051603   051988   050078   048129               130000001    0    120000001    0    110000001    0    100000001    0    090000001    0                                                                                                                                                   
760008600310014 03380 4110101gd quevilly         0030500gd quevilly         0050850Bois Cany           0050600001500001500760500500100000000000301      067086  887    065350   066780   068400   070380   066766   070927   069701   063247   067837   068158   065424   062239               130669611  887    120722421    0    110000001    0    100366811    0    090000001    0    061488   065162   064590   068224   066956   070795   070628   064345   070145   070469   067159   063671                                      
760008500310014 03380 4110201PETIT COURONNE      0000000GRAND QUEVILLY      0030500CETE                0010800003500003500760500500100000000000388      072992 1007    072037   072128   074072   076704   072325   077812   075995   067642   072986   074086   070948   069289               130723171  977    120670291    8    110670011    7    100640271    0    090612961    7    066959   071208   070897   074960   073125   077220   076233   061996   072773   076654   073660                                               
760008400310014 02820 4815001a131                0000000RN 15               0020942gonfreville         0000400002942002942760500500300000000000102      019037                                                                                                                                 130184108         120186348         110187278         100182898         090198708                                                                                                                                                        
760008103310014 01820 4843001                    0180000                    0180596Harfleur            0180300000596000596          00000000000388      000000                                                                                                                                 130000008         120040118         110000008         100000008    0    090000008    0                                                                                                                                                   
760007800310014 01380 4810201PETIT COURONNE      0140800ST ETIENNE ROUVRAY  0150048ST ETIENNE ROUVRAY  0150000000248000248760007600300000000000288      033278                                                                                                                                 130372108         120293148         110317978         100308988         090000008                                                                                                                                                        
760007700310014 01380 4810601PETIT COURONNE      0120900PETIT COURONNE      0140800PETIT COURONNE      0130500001900001900760007600300000000000288      087161                                                                                                                                 130974588         120767748         110832768         100809208         090000008                                                                                                                                                        
760007600310014 01380 4110201GRAND COURONNE      0100064PETIT COURONNE      0120900Les Essarts         0110200002836002836760007600100000000000288      042531 1057    040206   040813            047056   044965   045290   043705   039363   043190   043033   040951   039317               130475551  917    120374621    7    110406341    7    100394841    7    090000001    0    037753   039852   040280   042974   069645   087841   044915   040492   045304   044355   038277   039013                                      
760007500310014 01380 4810201GD COURONNE         0090000GD COURONNE         0100064GD COURONNE         0090800001064001064760007600300000000000288      031035                                                                                                                                 130346528         120273238         110296598         100288278         090286758                                                                                                                                                        
760007100310014 00310 4843001GOURNAY EN BRAY     0490075FERRIERES EN BRAY   0510852FERRIERES EN BRAY   0500000002777000000760006700300000000000288      011097                                                                                                                                 130109328         120115298         110120878         100117368         090146218                                                                                                                                                        
760007000310014 00310 4843001GOURNAY EN BRAY     0480500GOURNAY EN BRAY     0490075GOURNAY Est         0480800000575000000760006700300000000000288      009621                                                                                                                                 130094778         120099928         110104768         100101728    0    090099858    0                                                                                                                                                   
760006900310014 00310 4843001GOURNAY EN BRAY     0470600GOURNAY EN BRAY     0480500GOURNAY Ouest       0480000000900000000760006700300000000000288      009876                                                                                                                                 130097288         120102598         110107568         100104448    0    090102528    0                                                                                                                                                   
760006800310014 00310 4843001GOURNAY EN BRAY     0460714GOURNAY EN BRAY     0470600St Aubin            0470000000986000000760006700300000000000288      012170                                                                                                                                 130119888         120126458         110132568         100128718    0    090126348    0                                                                                                                                                   
760006700310014 00310 4113001CD 921              0320100GOURNAY EN BRAY     0460714Gournay             0450500014614014614760006700100000000000288      005270 1317    004710   004937   005151   005467   005352   005514   005582                     005497   005353   005129               130051911 1327    120054751    8    110057391 1627    100055721    8    090054691    0    004318   004778   004842   005482   005194   005746   005655   005405   005495   005417   005108   004852                                      
760006601310014 00310 4813001CD13 /CD 85         0220000CD 921              0320100LA HAYE             0270400017500017500760006700300000000000288      004631                                                                                                                                 130045628         120048148         110050478         100049018         090050458                                                                                                                                                        
760006600310014 00310 4813001                    0140600                    0181293Martainville        0150000004693004693760006700300000000000288      005269                                                                                                                                 130051918         120054758         110057418         100055758    0    090054738    0                                                                                                                                                   
760006500310014 00310 4113001CD 7                0090938CD 13/ CD 85        0140600Préaux              0110000004662004662760006700100000000000288      000000                                                                                                                                 130077191    0    120081421    0    110085351    0    100082871    0    090081351    0                                                                                                                                                   
760006400310014 00310 4813001RD 43 St Jacques    0060520RD 7                0090938ST JACQUES          0080750003418003418760006700300000000000288      011817                                                                                                                                 130116418    0    120122808    0    110128728    0    100124988    0    090118908    0                                                                                                                                                   
760006300310014 00310 4143001DARNETAL            0020300RD43 St Jacques     0060520Darnétal            0030050004220004220760006700100000000000288      012688  767    011972   012093   012313   012675   012440   013262   012377   010980   013994   013937   013364   012865               130119391 8727    120130281    0    110136581    0    100136431    0    090133921    0    010981   011398   011568   012228   012136   012761   011993   010897   012639   012607   012136                                               
760006200310014 00310 4840201DARNETAL            0020050DARNETAL            0020300Darnetal centre     0020100000250000250760006700300000000000227      031056                                                                                                                                 130305928         120322668         110338238         100328408         090322348                                                                                                                                                        
760006101310014 00310 4840201DARNETAL            0010780DARNETAL            0020050DARNETAL OUEST      0010800000270000270760006700300000000000288      031056                                                                                                                                 130305928         120322668         110338238         100328408    0    090322348    0                                                                                                                                                   
760006100310014 00310 4140201DARNETAL            0000000DARNETAL            0010780Route de Lyons      0010000001780001780760006700100000000000288      030410  557    029976   030033   030128   030638   029777   030949   028388   024854   032911   033482   032498   031423               130306401    0    120323161    0    110338761    0    100328921    0    090322851    0                                                                                                                                                   
760003900310014 00270 4840201CD 915              0470479DIEPPE              0490200ST AUBIN SUR SCIE   0470800001721000000760003700300000000000288      030224                                                                                                                                 130291838         120291028         110298468         100292118         090284758                                                                                                                                                        
760003803310014 00270 4815001rd 54 st aubin      0440570RD 915              0470479st aubin s scie nord0460000002909002000760003700300000000000102      012266                                                                                                                                 130118428         120118118         110121128         100118568         090115588                                                                                                                                                        
760003802310014 00270 4815001ech d108            0390343d54 st aubin s scie 0440570st aubin s scie sud 0410000005227004000760003700300000000000102      013466                                                                                                                                 130130038         120129678         110132998         100130168         090126898                                                                                                                                                        
760003801310014 00270 4810201ech d149 belmesnil  0340200ech d108 auppegard  0390343manehouville        0380600005143005143760003700300000000000102      014651                                                                                                                                 130141468         120141088         110144698         100141628         090138058                                                                                                                                                        
760003800310014 00270 4810201ech d353            0270300ech d149 belmesnil  0340200belmesnil           0330200006900006900760003700300000000000102      013543                                                                                                                                 130130778         120130418         110133758         100130918         090127628                                                                                                                                                        
760003700310014 00270 4110201TOTES               0240254ech rd353           0270300TOTES               0250500003046003046760003700100000000000288      016413  757    014774   015407   016330   016524   016459   017751   017232   016191   017650   016721   016552   015365               130158471  887    120158031    7    110162061    7    100158611    7    090154611    7    013392   014699   014621   016430   016129   017188   017726   016572   016492   016301   015748   014832                                      
760003601310014 00270 4810201rd2                 0190042totes nord          0240254totes sud           0210000005196005196760003700300000000000192      015368                                                                                                                                 130148368         120147978         110151748         100148538         090144798                                                                                                                                                        
760003600310014 00270 4810201                    0190000                    0190042Varneville-Brettevil0190000000042000042760003700300000000000192      015622                                                                                                                                 130150818         120150428         110154258         100132968    0    090129618    0                                                                                                                                                   
610000600310014 00120 4113001FIN DEVIATION       0720070LIMITE MAYENNE      0840911Alençon             0790440012668009551760003700100000000000188      008648 2127    007325   007765   008023   009145   008736   009322   009628   009771   009336            007940   008090               130086891    0    120086861 2207    110090981 2147    100089281 2107    090000001    0    007440   008020   008453   008695   009025   009029   009434   009681   009131   008872   008324   008114                                      
610000502310014 00120 4813001RN 138              0630300FIN DEVIAT.ALENCON  0720070DEVIATION ALENCON   0680020007836007836610000600300000000000188      008678                                                                                                                                 130087218         120087188         110091328         100089638         090000008                                                                                                                                                        
610000501310014 00120 4113001ENTREE DEVIATION    0610620R.N. 138            0630300VALFRAMBERT         0620100001680001680610000600100000000000294      010118 2297    008744   009352   009523   010094   010669   010795   010419   010433   011732   010698   009527   009416               130102751         120102691    7    110099731 1837    100101781         090000001         009107   009319   010153   010465   010735   010732   011254   011259   010685   010523   009855   009139                                      
610000400310014 00120 4113001R.D. 4 A            0430019R.D. 112            0610620Ventes de Bourse    0480300018601018025610000600100000000000192      000000                                                                                                                                 130000001         120098251 2147    110100391 2067    100000001    0    090000001    0                                                                                                                                                   
610000300310014 00120 4113001RD 912              0270548RD 4A               0430019LECHATEL            0270800013572012518610000600100000000000100      000000                                                                                                                                 130000001    0    120075011    0    110000001    0    100000001    0    090000001    0                                                                                                                                                   
610000200310014 00120 4813001DEVIATION MORTAGNE  0230262R.D. 912            0270548ST HILAIRE T        0250430004286004286610000100300000000000194      000000                                                                                                                                 130081028    0    120080718    0    110083628    0    100079248    0    090000008    0                                                                                                                                                   
610000100310014 00120 4113001EURE                0000000R.D. 912            0230262VENTROUZE           0090927023262022080610000100100000000001290      000000                                                                                                                                 130079421    0    120079111 2487    110081951 2387    100077651 2237    090000001    0    006401   006912   007566   008086   008565   008245   008945   008963   008205   008131   007479                                               
600004102310014 00310 4813001                    0110000                    0161003Ons-en-Bray         0120000006003006003760006700300000000000895      007231                                                                                                                                 130071238         120075138         110078768         100076488    0    090075078    0                                                                                                                                                   
600004101310014 00310 4813001SEINE MARITIME      0000000Les landerons       0110000SAINT GERMER DE FLY 0020000011054011054760006700300000000000895      007231                                                                                                                                 130071238         120075138         110078768         100076488         090075078                                                                                                                                                        
500100891310014 00840 1810241                    2170280                    2210759Guiberville         2190000004479004479500100890300000000001103      027092                                                                                                                                 130267888         120265068         110269858         100256358    0    090258478    0                                                                                                                                                   
500100890310014 00840 1110241ECH.39              2120238ECH.40              2170280PONT-FARCY          2120000005042005042500100890100000000001103      027092 1287    020220   021724   023621   028876   029122   028314   033671   037508   027574   027326   023468   023158               130267881 1168    120265061 1378    110269851 1318    100256351 1078    090258471 1238    018152   020767   021905   027592   029678   028058   034521   038364   028013   026613   023605   023611                                      
500100700310014 00840 1110241ECH.38              1930650ECH.39              2070650BESLON              1970400016645016645500100890100000000001103      025508 1517    018052   019487   021469   027327   026801   028246   033059   035845   026473   025157   021693   021966               130247741 1527    120246161 1567    110251211 1577    100243851 1567    090240891 1557    016640   019051   020171   025584   027574   026227   032361   036220   025951   024072   021627   021259                                      
500100600310014 00840 1110241ECH.37              1890802ECH.38              1930650FLEURY              1910200003850003850500100890100000000001100      025616 1627    018877   020223   022261   027907   027531   027853   033828   036164   027197   019892   022476   022765               130254491 1637    120252721 1667    110257551 1677    100250421 1657    090247591 1647    017388   019832   020348   025918   028165   027000   033110   036816   026747   024932   022499   022096                                      
500100500310014 00840 1110241RN 175              1720000ECH.37              1890802STE PIENCE          1810840017802017802500100890100000000001103      025170 1567    017955   019181   021113   026725   026410   027976   032911   035264   025911   024947   021369   021737               130243921 1258    120242071 1108    110248551 1188    100238861 1358    090252351 1068    016621   018844   019883   025152   026963   025547   031934   035588   025637   023671   021220   021118                                      
500100300310014 00840 1110241PI RN 176           1620225ECH RN 175          1630435POILLEY             1630200001212001212500100890100000000001100      023780 1517    018962   020114   021355   024441   024210   026102   028379   029343   025222   023713   021461   021771               130231371 1168    120230061 1198    110234161 1208    100227621 1188    090206211 1268    017941   019745   020015   023864   024305   024273   028258   029641   024392   022791   021126   020994                                      
500100200310014 00840 1110241PS 30 ST JAME       1510495PI RN 176           1620225ST AUBIN            1580800010762010762500100890100000000001100      019485 1687    015168   016109   017433   020196   020246   020329   023062   025272   020874   019573   017540   017720               130191141 1348    120190311 1378    110194241 1338    100187561 1348    090193711 1298    014231   015862   016326   019732   020228   019999   023832   025430   020319   018791   017162   017169                                      
500100100310014 00840 1110241ILLE ET VILAINE     1470000ECH.32              1510495St JAMES            1480900004495004495500100890100000000001103      019113 1607    014755   015757   017042   019728   019953   020356   023444   024345   019845   019360   017080   017385               130187691 1587    120187111 1627    110189211 1647    100181511 1627    090179921 1617    013798   015425   016033   019417   019906   019623   023560   024902   020122   018536   016920   016698                                      
500004450310014 01760 4814001RN 175              0460000ILLE ET  VILAINE    0481257PONTORSON-Temp      0460237003420003420500002800300000000000998      010854                                                                                                                                 130107908         120107498         110110148         100109048         090109638                                                                                                                                                        
500002800310014 01750 4110201                    0540000RN 176              0620500PONTORSON           0570990008500008500500002800100000000001187      014400 1247    010322   011026   012540   015916   016088   014975   018440   020519   014801   013395   012601   011870               130143171 1397    120142601 1407    110146111 1417    100144661 1417    090145431 1397    009564   010703   011815   014510   016274   014705   019224   021695   014975   013684   012280   011996                                      
500002402310014 01750 4810201                    0530360                    0540000Précey              0530990000400000400500002800300000000001187      014400                                                                                                                                 130143178         120142608         110146118         100144668    0    090145438    0                                                                                                                                                   
500002401310014 01750 4810201A 84                0490130                    0530360Pontaubault         0500990004230004230500002800300000000001187      014400                                                                                                                                 130143178         120142608         110146118         100144668    0    090145438    0                                                                                                                                                   
500002400310014 01750 4110201ECH. CROMEL         0470235A 84                0490130ST-QUENTIN          0480330001940001940500002800100000000001187      038206 1187    030363   030934   034231   039102   039968   041271   047125   050673   040003   037793   033192   033138               130376641 1007    120378271 1267    110384391 1297    100377541 1387    090379931 1407    027682   030720   032139   038791   041210   039652   048115   052415   040059   036076   033795   030701                                      
500002300310014 01750 4810201RD 973              0410885ECH.CROMEL          0470235LE VAL ST PERE      0450174005585005585500002400300000000000201      035404                                                                                                                                 130348988         120350538         110356158         100349898         090352068                                                                                                                                                        
500002200310014 01750 4110201A 84                0390000RD 973              0410885PONTS-SOUS-AVRANCHES0390900003125003125500002400100000000000103      026110 1657    018892   020296   022100   027861   027390   028801   033288   035956   026969   026022   022404   022831               130281691    0    120282971    0    110287471    0    100282471    0    090284181    0                                                                                                                                                   
500001520310014 01740 4110201Dev ST LO           0280695RN 13               0460870St Jean             0400700015870015870500002400100000000000288      008297 1147    007151   007644   007715   008669   008271   009671   008962   008544   009018   008680   007691   007553               130079431 1117    120074231 1087    110074181 1077    100070821 1127    090076431 1718    006794   007155   006967   008083   008280   008662   008710   008732   008525   008293   007683   007395                                      
500001452310014 01740 4810201RD 446              0280395                    0280695La Picardière       0280500000300000300500001520300000000000288      008297                                                                                                                                 130079438         120074238         110074188    0    100070828    0    090076438    0                                                                                                                                                   
500001451310014 01740 4810201St-LO               0230130RD 446              0280395Hébécrevon          0260896005326005326500001520300000000000202      008297                                                                                                                                 130079438         120074238         110074188    0    100070828    0    090058948    0                                                                                                                                                   
500001450310014 01740 4110201                    0210827                    0230130Saint Lô            0220500001303001303500001520100000000001205      025496  727    023968   024749   024478   026751   025024   026129   025968   025140   027192   026621   024897   025059               130252121  727    120249611    7    110249861    7    100242151    7    090240701    7    022794   023625   022799   025661   025624   026460   026825   025207   026556   026441   025131   025365                                      
500001401310014 01740 4810201                    0180000                    0210827Cantepie            0190000003827003827500001400300000000001205      021133                                                                                                                                 130206358         120201168         110204028         100198718    0    090194298    0                                                                                                                                                   
500001400310014 01740 4110201A 84                0000000RD 974              0180000CONDE SUR VIRE      0150345018000018000500001400100000000001205      021133  797    019095   020520   020114   022072   020433   022971   021824   020514   022751   022249   020492   020623               130206351  817    120201161    7    110204021    7    100198711    7    090194291    7    018121   019520   018795   021095   020827   021885   021585   020416   022174   022074   020798   020336                                      
500001071310014 00130 4813001                    0570399                    0580000RP de Penesme       0570400000601000601500001070300000000000392      016641                                                                                                                                 130161968         120166438         110164088         100158728    0    090155528    0                                                                                                                                                   
500001070310014 00130 4113001ROND POINT AUCHAN   0520390RN 132              0570399LA GLACERIE         0540250004554004554500001070100000000000392      016641  547    015672   015716   015737   016700   016267   017288   016845   015887   016990   017413   016993   018141               130161961  567    120166431    7    110164081    7    100158721    7    090155521    7    015233   015755   014518   015867   016100   016962   016747   015887   016546   017031   016595   017098                                      
500001000310014 00130 4110201RD 902 DEV. VALOG   0380644ROND POINT AUCHAN   0520390SAINT-JOSEPH        0430352014209014209500001070100000000001187      020178  357    013592   012892   012682   013984   013210   027163   027142   024655   025832   025351   022594   022616               130221581 1018    120220611 1098    110224471    8    100221111    7    090217661    8    019454   020879   019122   021400   022276   025735   025486   022929   023686   023056   021547   020323                                      
500000600310014 00130 4810201RD15                0201060RD 902 DEV. VALOGNES0380644FREVILLE            0260046018000018000500000500300000000000202      016666                                                                                                                                 130158328         120158428         110161708         100156258         090156228                                                                                                                                                        
500000500310014 00130 4110201RD 913              0110000RD 15               0201060ST COME DU MONT     0120100009442009442500000500100000000001187      018814  947    015600   016564   017139   019602   018958   022361   020838   020829   019823   019274   017504   017186               130178721  668    120178821    8    110182511    8    100176351    8    090176301    8    014435   015993   015781   017713   018875   020019   020057   020611   019128   018353   016636   016739                                      
500000200310014 00130 4110201CALVADOS            0000000RD 913              0110000ST HILAIRE          0060000010299010299500000500114000000000296      018984 1347    014875   015820   016861   019648   019354   023890   022180   022209   020181   019070   016959   016610               130177771 1367    120175021 1317    110155161    7    100171671 1387    090171071 1367    013649   015210   015285   017289   018728   019970   021113   022197   019234   017832   016608   016024                                      
410000500310014 00100 4113001                    0400035Dpt 37              0451074FAUCHERIE           0420850006039006039500000500100000000000295      008549 2647    007529   007996   008325   009155   008665   008931   009181   009159   008827   008696   008085   008010               130086501 2767    120086181 2857    110087041 2807    100083571    0    090082551 2497    007258   007931   008410   008916   009099   009181   009589   009289   009113   008732   008264   007977                                      
410000402310014 00100 4813001                    0370000                    0400035L'Etincelle         0380850003035003035410000500300000000000295      008549                                                                                                                                 130086508         120086188         110087048         100083578    0    090082558    0                                                                                                                                                   
410000401310014 00100 4813001RD 957              0260298                    0370000Le Petit Plessis    0350000010702010702410000500300000000000295      008549                                                                                                                                 130086508         120086188         110087048         100083578    0    090082558    0                                                                                                                                                   
410000400310014 00100 4813001VENDOME (lim.Agglo) 0240670Echangeur957957     0260298LA CHAPPE           0250000001989001989410000300300000000000889      012326                                                                                                                                 130126598         120127608         110135058         100000008         090127498                                                                                                                                                        
410000399310014 00100 4853001Agglo de VENDOME    0230535Agglo de VEN957     0240670VENDOME             0230500001159000000410000300300000000000188      012326                                                                                                                                 130126598         120127608         110135058         100000008         090127498                                                                                                                                                        
410000300310014 00100 4113001RN 157              0100266Agglo de VENDOME    0230535NIOCHE              0200000013452009671410000300100000000000295      012326 1917    011871   012404   011961   012566   012352   012239   012757   012195   012631   012496   012195   012259               130126591 2017    120127601 2037    110135051 1648    100000001         090127491 1438    011523   011891   012540   012975   012890   013370   013204   012551   013478   012744   012302   012412                                      
410000100310014 00100 4113001Dpt 28              0000000RN 157              0100266ST HILAIRE          0050000010367010367410000300100000000000394      008224 3217    007272   007684   007956   008807   008290   008118   008944   009010   008617   008491   007770   007693               130083151 3367    120083731 3427    110085001 3367    100081731         090081001 2987    006977   007586   008065   008644   008728   008875   009282   009009   008756   008418   007836   007564                                      
370106350310014 00100 4113001                    0030000                    0111245AUTRECHE            0090770002295002295410000300100000000000402      005711 3087    005232   005573   005757   006091   005692   005801   006099   005503   006015   005972   005448   005358               130058211 3347    120059361 3447    110060231 3417    100056451    0    090056471 2108    005231   005578   005802   006201   006004   006205   006433   005665   006093   005908   005526   005199                                      
370000100310014 00100 4113001DEPT L. ET CHER     0000000CARREF. N10/D766    0030000NEUVILLE            0020290012174012174410000300141000050030398      008849 2447    007753   007994   008645   009503   008972   009225   009546   009494   009193   009060   008412   008344               130090051 2587    120089651 2647    110090831 2348    100087201 2228    090086001         007596   008292   008784   009280   009444   009533   009948   009611   009563   009086   008572   008314                                      
280450500310014 02540 4113001A 10                0000000RN 154              0010590ALLAINES            0010550001590001590410000300100000000000100      008542 1707    006888   007360   008066   008692   008473   009315   009893   010213   009003   008858   007790   007860               130087061 2167    120086571 2197    110087211 1948    100000001    0    090080571 1708    006884   007655   008050   008824   008871   009381   010226   010272   009579   009087   007947   007623                                      
280010000310014 11540 4113001                    0030485                    0070775Mainvilliers        0050950004290004290410000300100000000000188      019287 2177    017105   017963   018961   020345   019449   020944   020481   019461   019940   020090   018551   018113               130190931 2227    120191301 2227    110195001 222     100169501    0    090167151    0    016278   017525   018209   019732   020606   020828   021002   019224   020037   019577   018395   017630                                      
280004600310014 11540 4113001PR 56.000 de RN154  0000000Giratoire RD 905    0030485LEVES               0010200003457003457410000300100000000000188      017096 2167    015207   015920   016751   017833   017059   018696   018285   017026   018183   017829   016299   016034               130168241 2117    120168481 2137    110171091 2127    100169501    0    090167151 2017    014471   015507   016155   017529   017326   018264   018488   016874   017843   017390   016222   015772                                      
280004503310014 00100 4113001CHATEAUDUN nord     0651000CHATEAUDUN sud      0700237Jallans             0680350006000006000410000300100000000000188      007728 3127    006563   006999   007465   008051   007702   008126   008247   008086   008170   008562   007466   007266               130075831 3117    120075461 3207    110076351    3    100110211    0    090111031    0    006308   006795   007257   007869   007938   008220   008465   008276   008022   007653   007252   006893                                      
280004500310014 01540 4812001Echangeur Sud       0810600Echangeur Est       0860298ROCADE DE DREUX     0830400004931003215280004600300000000000188      023992                                                                                                                                 130236148    0    120236748    0    110240178    0    100237878    0    090192168    0                                                                                                                                                   
280004400310014 01540 4813001RD 26 P.S.          0660359Echangeur Sud       0810600BOULLAY-MIVOIE      0790000015817015375280004300300000000000188      016771                                                                                                                                 130165038         120164298         110166938         100164228         090160428                                                                                                                                                        
280004300310014 01540 4110101RN1154              0560000RD 26 - P.S         0660359Le Péage            0660350010330009799280004300100000000000202      016856 1857    015008   015613   016358   017445   016761   018463   018177   017243   017886   017559   015949   015770               130165861 1857    120165111 1837    110167601 1738    100165011 1478    090161211 1428    014202   015297   015700   017073   016865   017872   018431   017257   017658   017179   016019   015429                                      
280003900310014 01540 4113001RD17                0300095RN123               0470452FRAINVILLE          0350500017497016333280004300100000000000188      000000                                                                                                                                 130000001    0    120096701 2567    110095761 2348    100092881 2278    090093091 2188                                                                                                                                                   
280003800310014 01540 4813001VC Ex. RD 927       0140000                    0300095Ymonville           0200000016095016095280003900300000000000188      000000                                                                                                                                 130000008         120096678         110095748         100092878    0    090093088    0                                                                                                                                                   
280003600310014 01230 4113001RN10                0070840RN23                0110690LUISANT             0080950003853003853280003900100000000000188      033207 1667    031457   032531   033426   034614   032803   035197   034270   031411   034209   034388   032026   032199               130338561 1627    120341901 1637    110345831 1488    100343211 1498    090343151 1478    030109   032143   033271   035006   034213   036146   036411   032641   035323   035401   033026   032557                                      
280003500310014 01230 4113001RN154               0030000RN10                0070840MORANCEZ            0060400004840004840280003900100000000000188      036016 1537    034749   035601   036225   037274   034712   036987   036174   035420   038444   037589   034625   034461               130365721 1247    120369411 1277    110369451 1277    100362001    0    090361601 1187    033129   034862   036230   037564   036888   038603   038763   033851   037945   038664   036404   035925                                      
280001901310014 00120 4810251                    0280000Limite DEPT 27      0310400DAMPIERRE SUR AVRE  0290000003400003400280001800327000020030188      013738                                                                                                                                 130134578         120135248         110136298         100136978         090137078                                                                                                                                                        
280001800310014 00120 4110201RD 912 "Les Fenots" 0190637Limite DEPT 27      0271017Saint Rémy          0230700008300006221280001800127000010030188      027935 1907    024446   025741   026772   028721   027870   030049   029975   029131   029124   029330   026906   027040               130273611 1937    120274951 1947    110277041 1927    100278421    0    090278591 1857    023043   025022   025838   028129   028401   029457   030427   028784   028491   028235   026144   026218                                      
280001700310014 00120 4810201Ech. Est Dreux      0140816RD 912 "Les Fenots" 0190637DEVIATION DREUX     0170500004436004001280001600300000000000188      030728                                                                                                                                 130300178    0    120287828    0    110304208    0    100289748    0    090292518    0                                                                                                                                                   
280001600310014 00120 4110201Limite DEPT 78      0000000Ech. Est Dreux      0140816LA MESANGERE        0100200014661014661280001600178000040030188      031505 1137    028872   030128   031227   032977   031851   033731   031965   028387   032849   033660   031448   030987               130307751 1157    120295161 1187    110311851 1157    100297041    0    090299871 1157    026624   028829   029813   031784   031936   033612   033210   028275   032289   032300   030379   030220                                      
280001400310014 00100 4113001Chateaudun sud      0700237lim 41              0820270Chateaudun sud      0700880012000012000280001600141000010030213      010818 1977    010033   010303   010636   011397   011022   010939   011405   010734   011365   011230   010472   010264               130000001         120000001    0    110000001    0    100000001    0    090000001    0                                                                                                                                                   
280000900310014 00100 4813001RD110               0590937CHATEAUDUN(lim.aggl)0651000MARBOUE             0650000006000006000280000800300000000000188      000000                                                                                                                                 130147458    0    120148478    0    110151568    0    100149628    0    090150738    0                                                                                                                                                   
280000800310014 00100 4114001RD28/1              0530602RD110               0590937BOIS-GUIBERT        0560900006239005937280000800100000000000188      000000                                                                                                                                 130118301 1737    120119111 1757    110121581 1528    100120011 1518    090120891 1438    010021   010700   011509   012104   012413   012965   012754   011748   012535   012300   011582   011282                                      
280000700310014 00100 4817001RD12                0410767RD28/1              0530602MONTBOISSIER        0510700011865009997280000600300000000000188      012360                                                                                                                                 130121018    0    120121058    0    110123958    0    100121098    0    090121488    0                                                                                                                                                   
280000600310014 00100 4117001Bretelle A11        0340855RD12                0410767LA BOURDINIERE      0390000006958005499280000600100000000000188      013232 1897    011933   012485   012997   013895   013313   014093   013775   012635   013981   013897   013053   012716               130129541 1447    120129571 1787    110132671 1798    100129601 1738    090130001 1688    011090   011829   012595   013408   013583   014332   014107   012611   013804   013558   012611   011885                                      
280000500310014 00100 4817001                    0340000Bretelle A11        0340855Mignières           0340083000855000855280000600300000000000188      011259                                                                                                                                 130110238         120110288         110112938         100110328    0    090110688    0                                                                                                                                                   
270110002310014 10130 4810201N154                0210130D6154               0240100Evreux              0220000002890002890270110000300000000000212      000000                                                                                                                                 130000008         120000008         110000008    0    100000008    0    090000008    0                                                                                                                                                   
270110001310014 10130 4810201N13                 0200000N154                0210130vielle evreux       0210000001130001130270110000300000000000212      019776                                                                                                                                 130195268         120166658         110000008    0    100000008    0    090000008    0                                                                                                                                                   
270110000310014 10130 4110201Av Foch             0300000RD 613              0320268Parville            0310260002065002065270110000100000000000212      017137  687    015951   016630   016977   017846   017253   018487   017160   015762   018217   017959   016872   016566               130168801         120000001    7    110175271    7    100000001    0    090000001    0    015420   016402   016747   017026   017256   017981   017733   015959   017556   017589   016688   016214                                      
270006000310014 00310 4814001limite 76/27        0000000limite 27/76        0020843Vascoeuil           0010000002843002843760006700376000660030109      005269                                                                                                                                 130051918         120054758         110057418         100055758    0    090000008    0                                                                                                                                                   
270005100310014 01540 4110201ECHANG. GRAVIGNY    0330000RN 155              0460430HEUDREVILLE/EURE    0410300016903016481760006700100000000000195      000000                                                                                                                                 130000001         120000001         110000001         100000001         090000001                                                                                                                                                        
270005000310014 01540 4810201N 13                0270769APRES ECHAN GRAVIGNY0330000FAUVILLE            0300380005440005440270005100300000000000188      000000                                                                                                                                 130000008         120000008         110000008         100000008         090000008                                                                                                                                                        
270004800310014 01540 4110201D833                0130247Evreux              0270769PREY                0210900014522014522270005100100000000000101      000000                                                                                                                                 130000001         120153691         110000001         100153941 1638    090000001    0                                                                                                                                                   
270004701310014 01540 4110201Nonancourt          0000000D833                0130247Petite vallée       0100750013247013247270005100100000000000101      013607 2627    011699   012355   012757   014119   013242   015030   015433   015295   014236   013982   012621   012447               130000001         120131681 1568    110000001         100000001    0    090000001    0                                                                                                                                                   
270001000310014 00130 4810201ENTREE BA 105       0180780RN 154              0200413FAUVILLE            0200700002215002215270000900300000000000188      023815                                                                                                                                 130236758         120237288         110241998         100238398         090000008                                                                                                                                                        
270000900310014 00130 4115001BRETELLE ST ANDRE   0090100ENTREE BA 105       0180780MISEREY             0170580009396009396270000900100000000000188      020101  837    019086   019697   020025   020845   020368            020138   017704   021518   021548   020281   019943               130199811         120200251    8    110204211    8    100201141    8    090000001         018482   019697   020197   020452   020544   021604   019712   017619   020797   021194   020075   019464                                      
270000700310014 00130 4810201DEVIATION PACY/EURE 0060600BRETELLE ST ANDRE   0090100ST AQUILIN DE PACY  0070000002500002500270000900300000000000188      015817                                                                                                                                 130157208         120157578         110180648         100177938         090000008                                                                                                                                                        
270000600310014 00130 4810201DEVIATION PACY/EURE 0050000                    0060600DEVIATION PACY/EURE 0060000001600001600270000900300000000000188      016013                                                                                                                                 130159188         120159548         110162718         100160278         090000008                                                                                                                                                        
270000500310014 00130 4815001YVELINES            0000000DEVIATION PACY/EURE 0050000AIGLEVILLE          0040400004998004998270000900300000000000188      013036                                                                                                                                 130129618         120129908         110144788         100142618         090000008                                                                                                                                                        
270000400310014 00120 4813001INTERSECTION RN 26  0250650ORNE                0370190VERNEUIL SUR AVRE   0280000010748010536610000100300000000000188      000000                                                                                                                                 130079428    0    120079118    0    110000008    0    100000008    0    090000008    0                                                                                                                                                   
270000300310014 00120 4813001ENTREE VERNEUIL     0230040SECTIONNEMENT RN 26 0250650VERNEUIL S/AVRE     0240000003400002605270000200300000000000188      012686                                                                                                                                 130130608    0    120131558    0    110000008    0    100000008    0    090000008    0                                                                                                                                                   
270000200310014 00120 4110201INTERSECTION N 154  0090000ENTREE VERNEUIL     0230040COURTEILLE BASLINE  0190200014040014040270000200100000000001299      012686  647    010992   011822   012249   013419   012780   013818   013666   013650   013045   012993   012063   011708               130130601    0    120131551    0    110000001    0    100000001    0    090000001    0    010960   012136   013283   013471   013960   013755   014330   013721   013114   013275   012360   012282                                      
270000102310014 00120 4813001                    0030640                    0060458st Lubin Joncherets 0050680002818002818270000200300000000000188      020294                                                                                                                                 130208958         120210448         110000008         100000008    0    090000008    0                                                                                                                                                   
270000101310014 00120 4813001                    0030600                    0030640giratoire anglais   0030600000640000640270000200300000000000188      020294                                                                                                                                 130208958         120210448         110000008         100000008    0    090000008    0                                                                                                                                                   
270000100310014 00120 4813001EURE ET LOIRE       0000000INTERSECTION N 154  0030600NONANCOURT          0000680003606003606270000200300000000000188      020294                                                                                                                                 130208958    0    120210448    0    110000008    0    100000008    0    090000008    0                                                                                                                                                   
140108405310014 00840 1110241Ech 44              2590655Echangeur BP Ouest  2620822BRETTEVILLE SUR ODON2610928003167003167270000200100000000001097      046788 1087    041231   043419   044402   050776   048264   049817   050828   050891   047792   047793   042867   043180               130464511 1187    120464991 1167    110473181 1187    100461451 1157    090453771 1147    038294   041301   040726   045816   048780   048899   052411   052782   049676   048694   045367   044296                                      
140108404310014 00840 1110241Echang. Villers Boca2450000Echang Mondrainville2550310VILLY-BOCAGE        2460502010310010310270000200100000000000794      036671 1217    030656   032367   033896   040008   038745   039232   041714   043124   037417   037352   032884   032337               130365761 1347    120362851 1357    110368961 1367    100359731 1347    090355781 1307    028178   031191   031292   037939   039441   038416   042404   044890   038871   037452   034814   033621                                      
140108403310014 00840 1117041ECHANGEUR RD 6      2420236Echang. Villers Boca2450000VILLERS BOCAGE      2430896002764002764270000200100000000000196      033627 1507    026818   028392   029968   035895   034508   036114   039762   041082   035130   034379   030447   030619               130327071 1507    120323801 1537    110329561 1537    100321051 1527    090317231 1507    024498   027204   027710   033884   035227   034164   039172   041336   034718   033246   030834   030054                                      
140108402310014 00840 1117041Rond point Coulvain 2370923Echangeur RD 6      2420236MAISONCELLE         2400628004313004313270000200100000000000196      033507 1487    026354   028032   029851   035854   034697   034661   040208   041981   035170   034236   030193   030374               130326491 1358    120324591 1378    110330461 1118    100324531    0    090311241    8    024242   026971   027704   033905   035339   033719   039589   041840   034710   032988   030527   029768                                      
140108401310014 00840 1117041Dép. de la Manche   2220000Rond point Coulvain 2370923CAHAGNES            2320557015923015923270000200100000000000198      027925 1477    021038   022505   024248   029894   028949   030359   034525   036742   029024   028157   024442   024762               130271631 1327    120268831 1377    110275451 1497    100269471 1567    090264361 1557    019391   021726   022730   028206   029528   028145   033868   036844   028659   027150   024872   024350                                      
140108400310014 00840 1110241Ech Mondrainville   2550310Ech 44              2590655Mondrainville       2560500004345004345270000200100000000000711      041423 1147    034711   036533   037718   044009   041890   044020   047041   047411   043311   042843   038525   038734               130404221 1147    120400901 1167    110407301 1167    100397141 1147    090000001    0    032222   035073   034929   041812   042833   042497   046616   047502   042803   041618   038878   037898                                      
140108399310014 00840 1810241limite 14/50        2080000limite 50/14        2111470Pont Farçy T        2100000004470004470500100890350010089030109      027092                                                                                                                                 130267888    0    120265068    0    110269858    0    100256358 1100    090000008    0                                                                                                                                                   
140004599310014 08140 4110201Ech.du PAYS d'Auge  0260788ECHANGEUR MONTALIVET0270380Porte de Paris      0270228000592000592500100890100000000000997      088422  937    083081   085765   086122   093173   087085   089301   090513   088891   092066   092299   086121   086615               130876651  817    120875731    7    110888471    7    100857101    7    090716991    0    079153   083569   080696   091270   089143   091422   095718   088235   090551   090440   085753   085900                                      
140004400310014 08140 4110201Ech. de CORMELLES   0240719Ech.du PAYS d'Auge  0260788Vallée sèche        0260243002080000000500100890100000000000997      076442  797    072829   075284   076426   082561   077649   077007   078860   076777   077406   077168   072789   072564               130766601  987    120771501    7    110760611    7    100738681    7    090716991    7    069511   073866   071700   081209   079554   082494   085517   079883   081168   065477   074485   075190                                      
140004300310014 08140 4110201Echengeur IFS bourg 0220491Ech. de CORMELLES   0240719Porte d'Espagn      0230589002227000000500100890100000000000997      000000                                                                                                                                 130580021 1197    120587181 1197    110595891 1227    100585891 1127    090578761 1037    050884   054150   053182   059424   060072   061203   064645   061823   059708   059152   056014   055525                                      
140004100310014 08140 4110201Ech.Suisse Normande 0200000Ech. IFS bourg      0220491IFS Bourg           0210909002506000000500100890100000000000193      057719 1067    053754   055812   054848   059701   056944   060020   061216   060382   059199   058667   056270   055768               130585331 1077    120589721 1087    110588211 1147    100572561 1137    090567541 1367    050345   053604   052618   060575   060465   061654   064763   062413   061090   060708   057042   056844                                      
140004000310014 08140 4110201ECHAN.D'ETERVILLE   0160252Ech. Suisse Normande0200000FLEURY SUR ORNE     0190366003668000000500100890100000000000997      055931  997    050173   052593   053109   059556   057044   059781   059209   058233   058101   057580   053022   052670               130550641 1137    120551471 1147    110547711 1177    100538751 1157    090531051 1167    047073   050288   049087   057116   056885   058003   060946   058963   057915   057353   053735   053159                                      
140003900310014 08140 4110201ECHA. BRETAGNE      0140530ECHAN. D'ETERVILLE  0160252ETERVILLE           0150298001678000000500100890100000000000997      055905 1097    049499   051981   052261   058464   056082   059353   060299   058553   058847   058152   053523   053683               130546511 1127    120547631 1157    110548051 1167    100533341 1147    090528081 1167    046791   049986   048674   056794   056615   058070   060499   058706   057815   056621   052816   052200                                      
140003803310014 08140 4110201Passage inf. RD 14  0130370Ech. de Bretagne    0140530Porte de Bretagne   0140200001168000000500100890100000000000997      000000                                                                                                                                 130336791  917    120335941    7    110339031    7    100330161    7    090327901    7    028347   030784   031019   034936   034977   035798   037749   035187   034911   035540   032381   032349                                      
140003801310014 08140 4110201Echangeur du Bessin 0110520Passage inf. RD 14  0130370Bessin 2            0120000001916000000500100890100000000000194      000000                                                                                                                                 130418511  827    120418041    7    110418481    7    100409531    7    090405411    7    037503   040078   038102   043267   042454   044422   043184   041205   044254   044282   041633                                               
140003700310014 08140 4110201Ech.chemin vert     0080857Echangeur du Bessin 0110520Chemin vert         0090398002212000000500100890100000000000700      060299  687    055841   058582   057748   063402   058785   063470   062268   057332   063857   063996   060026   058425               130587811  677    120585261    7    110593111    7    100578451    7    090579951    7    053419   056402   053509   060952   060215   062432   062609   057094   062170   062402   058378   055843                                      
140003600310014 08140 4110201Ech.vallée des jardi0070255Ech.chemin vert     0080857Mémorial            0080247001594000000500100890100000000000700      062502  667    058575   061253   060388   065764   061727   066248   065187   057830   066532   065739   060956   060016               130595671  657    120611541    7    110603621    7    100611191    7    090613831    7    056241   059488   056410   063762   063124   065384   055311   051103   060712   064295   060708   058645                                      
140003500310014 08140 4110201Ech.Pierre Heuzé    0040763Ech.vallée des jardi0070255Caen                0070093002421000000500100890100000000000193      058499  707    054662   057277   056921   061888   058363   061499   060616   056821   061040   060954   056456   055599               130575531  717    120575521    7    110582171    7    100570481    7    090570031    0    052289   055669   052930   059425   059107   061340   062343   057626   059268   059726   056335   054588                                      
140003300310014 08140 4110201Ech.porte/Angleterre0030757Ech.Pierre Heuzé    0040763Pierre-Heuzé        0040293000999000000500100890100000000000188      082924  597    078154   081517   080550   085513   081857   085984   085977   079833   086833   085431   084168   079486               130814271  607    120810731    7    110820311    7    100797901 1207    090000001    0    075378   079363   075708   084135   082819   085589   087180   081290   084157   084543   079408   077595                                      
140003200310014 08140 4110201Enchageur Montalivet0020000Ech.porte/Angleterre0030757Calix               0030332001750000000500100890100000000000190      081815  647    077206   079961   079138   085297   080606   084341   085995   080867   085454   085147   078781   079023               130801581  647    120800981    7    110808891    7    100799611    7    090821191    7    073720   077507   074098   082304   081522   084496   087396   077769   082690   083080   079642   077697                                      
140003100310014 08140 4110201ECHANG.AUTOROUTE A130000000ECHANGEUR MONTALIVET0020000MONDEVILLE          0010000002027000000500100890100000000000193      073855  497    072170   074450   073991   079568   074101   073994   074765   071738   075077   075960   071210   069434               130749731  637    120747531    7    110762621    7    100751991    7    090757381    7    068681   072345   069281   076918   076096   079040   080463   074167   076493   077908   074544   073712                                      
140001600310014 01580 4110201ROCQUANCOURT        0290766IFS                 0380416TILLY LA CAMPAGNE   0340573008650008650500100890100000000000196      029865  957    027837   028934   029044   031202   029559   031453   030343   029036   031746   031143   029173   028957               130296851  888    120294811    8    110297711    8    100285351    8    090000001    0    026541   028306   027073   030544   030096   031756   031541   028728   031503   031363   029636   029156                                      
140001500310014 01580 4110201LIMITE DE L'ORNE    0080000ST AIGNAN-CRAMESNIL 0290766POTIGNY             0170181030879030879500100890100000000000194      018759 1197    016692   017524   017798   019332   018681   020212   020040   019116   020373   019792   018288   017242               130181931 1197    120180681 1207    110180861 1207    100173231 1237    090159541    7    015653   016636   016365   018444   018938   019620   019768   019114   019380   018977   017881   017472                                      
140001002310014 00130 4110101BAYEUX              0980183LIMITE DE LA MANCHE 1280706LONGUEVILLE         1130785031535031535500100890100000000000196      013854 1097    010991   011737   012524   014517   014430   017403   016438   016667   014886   014196   012301                        130133801  938    120135111    8    110137831    8    100136021 1087    090135411    8    010212   011318   011547   013116   014350   014621   016180   017246   014441   013075   012355   011929                                      
140000800310014 00130 4110201BAYEUX              0870887CUSSY               0980183GUERON              0920593010439010439500100890100000000000206      019292  967    016034   017017   017491   020020   019595   021871   021913   021417   020407   019931   017952   017743               130183021  997    120184921    7    110190131 1027    100185981 1027    090185021 1007    015067   016450   016354   018601   019463   020050   021095   021405   019275   018063   016941   016739                                      
140000700310014 00130 4110201BROUAY              0790212BAYEUX              0870887CARCAGNY            0850196008722008722500100890100000000000293      027151  847    023337   023797   024984   028382   027750   030650   030339   029298   028142   027146   026254   025568               130258491  887    120267301    7    110274631    7    100268251         090267961    7    022355   023920   023526   027046   027714   027800   029460   028829   026665   025283   023822   023644                                      
140000601310014 00130 4110201CARPIQUET           0690000BROUAY              0790212CARPIQUET           0700478009582009582500100890100000000000193      055395  877    050861   053076   052575   057538   054775   058932   057872   054140   058267   057997   054399   054320               130537381  887    120544241    7    110553111    7    100534541    7    090536561    7    049053   051790   048931   055175   055293   057547   057988   053479   055961   055542   052315   051791                                      