800004000310014 00250 4813001RD 49 Doullens      0330965limite Pas de Calais0401009Doullens            0350847006991006991800003400362000190030187      000000                                                                                                                                 130065528         120067928    0    110068938    0    100072828    0    090000008    0                                                                                                                                                   
800003400310014 00250 4113001RN 1 Amiens         0090745RD 49 Doullens      0330965RAMPONNEAU          0120796025003025003800003400300000000000187      012186 1128    011517   011733   011858   012241   011947   012569   012469   011284   012736   013439   012440   011999               130120171 1178    120124571 1138    110126411 1108    100133541 1028    090000001    0    010994   011440   011320   012171   012394   012695   012561   010867   012580   013227   012025   011926                                      
800003400210014 00250 4113001RD 49 Doullens      0090745RN 1 Amiens         0330965RAMPONNEAU          0120796025003025003800003400300000000000187      005943 1138    005636   005720   005788   005965   005821   006164   005964   005395   006158   006636   006220   005850               130058571 1148    120061291 1118    110061891 1088    100068461    8    090000001    0    005418   005606   005541   005963   006108   006104   006316   005137   006240   006227   005821   005803                                      
800003400110014 00250 4113001RN 1 Amiens         0090745RD 49 Doullens      0330965RAMPONNEAU          0120796025003025003800003400300000000000187      006243 1128    005881   006013   006070   006276   006126   006405   006505   005889   006578   006803   006220   006149               130061601 1208    120063281 1168    110064521 1158    100065081 1128    090000001    0    005576   005834   005779   006208   006286   006591   006245   005730   006340   007000   006204   006123                                      
800003301310014 00250 4110201RN 29 Longueau      0000300RN 1 Amiens         0090745J VERNE             0020700015395015395800003400300000000000188      038147  888    036293   036825   037678   039746   037827   039795   038009   034501   040669   040299   037955   038215               130364811    8    120378681    0    110000001    0    100375371    8    090000001    0    033779   035722   034558   038274   037439   039252   036456   034802   035452   037593   036996   037443                                      
800003301210014 00250 4110201RN 1 Amiens         0000000RN 29 Longueau      0090745J VERNE             0020700015395015395800003400300000000000188      019323  868    018448   018619   019038   020132   019131   020254   019226   017557   020577   020366   019220   019332               130184871    8    120189931    8    110000001    0    100190051    8    090000001    0    017047   018069   017244   019325   019092   019842   018381   017584   018369   019045   018763   019085                                      
800003301110014 00250 4110201RN 29 Longueau      0000000RN 1 Amiens         0090745J VERNE             0020700015395015395800003400300000000000188      018824  928    017845   018206   018640   019614   018696   019541   018783   016944   020092   019933   018735   018883               130179931    8    120188751    0    110000001    0    100185321    8    090000001    0    016732   017653   017314   018949   018347   019410   018075   017218   017083   018548   018233   018358                                      
800000600310014 00010 4810201RN 25               0280000RD 97               0320780Longpre Amiens      0300039004967004967800003301300000000000187      000000                                                                                                                                 130000008         120000008    0    110000008    0    100000008    0    090000008    0                                                                                                                                                   
620521200310014 00160 1110241A 26                0870150Limite Nord         1030900CALAIS-MARCK        0880080016750016750800003301300000000000192      045843 2287    041276   041978   043813   048028   046706   048388   050627   047514   045451   046972   044717   044373               130447421 2207    120432651 2247    110413031 2177    100404811 2107    090000001    0    037873   040722   041234   045822   046432   046964   050132   049525   046148   045664   043344   043048                                      
620521200210014 00160 1110241Limite Nord         0870150A 26                1030900CALAIS-MARCK        0880080016750016750800003301300000000000192      022868 2297    020863   021044   021833   023987   023178   023905   025101   024033   022865   023421   022257   021798               130222951 2207    120210791 2277    110218401 2117    100215871 2047    090000001    0    019135   020335   020544   022867   023079   023438   025184   024601   023141   022537   021470   021212                                      
620521200110014 00160 1110241A 26                0870150Limite Nord         1030900CALAIS-MARCK        0880080016750016750800003301300000000000192      022975 2277    020413   020934   021980   024041   023528   024483   025526   023481   022586   023551   022460   022575               130224471 2197    120221861 2187    110194631 2327    100188941 2237    090000001    0    018738   020387   020690   022955   023353   023526   024948   024924   023007   023127   021874   021836                                      
620521100310014 00160 1810241Riviere Neuve       0820100A 26                0870150Les Fontinettes     0840400005050005050620520800300000000000192      000000                                                                                                                                 130000008         120000008    0    110000008    0    100000008    0    090000008    0                                                                                                                                                   
620520800310014 00160 1110241Coquelles           0780455Riviere neuve       0820100CALAIS-LPA          0810950003645003645620520800300000000000194      000000                                                                                                                                 130413751 1578    120420841 1620    110000001    0    100000001    0    090000001    0                                                                                                                                                   
620520800210014 00160 1110341Riviere neuve       0780455Coquelles           0820100CALAIS-LPA          0810950003645003645620520800300000000000194      000000                                                                                                                                 130200011 1588    120204261 1640    110000001    0    100000001    0    090000001    0                                                                                                                                                   
620520800110014 00160 1110341Coquelles           0780455Riviere neuve       0820100CALAIS-LPA          0810950003645003645620520800300000000000194      000000                                                                                                                                 130213741 1568    120216581 1590    110000001    0    100190711 1737    090000001    0                                                                                                                                                   
620520300310014 00160 1110241Echang 35           0620000Coquelles           0780455LEUBRINGHEN         0680500016555016555620520800300000000000194      027056 1218    023603   024173   024974   027733   027175   029204   030589   031745   027578   027114   025362   025193               130264141 1248    120266141 1298    110266941 1208    100257911 1228    090000001         022141   023183   023778   026778   026840   028491   030759   031811   027306   026234   024985   024658                                      
620520300210014 00160 1110241Coquelles           0620000Echang 35           0780455LEUBRINGHEN         0680500016555016555620520800300000000000194      013426 1158    011682   012052   012331   013726   013672   014487   015679   015379   013455   013469   012476   012585               130131551 1168    120131821 1238    110133051 1168    100128481 1168    090000001    0    011423   011532   011859   013125   013489   014165   015778   015516   013281   012998   012320   012374                                      
620520300110014 00160 1110241Echang 35           0620000Coquelles           0780455LEUBRINGHEN         0680500016555016555620520800300000000000194      013630 1338    011921   012121   012643   014007   013503   014717   014910   016366   014123   013645   012886   012608               130132591 1328    120134321 1398    110133891 1288    100129431 1328    090000001    0    010718   011651   011919   013653   013351   014326   014981   016295   014025   013236   012665   012284                                      
620510000310014 02160 1110141A 16                0000000RN 216              0010900DORET               0010800001900001900620520800300000000000792      024903 3077    021917   022721   023148   025518   024330   026532   027883   028287   026442   025467   023707   022761               130243801 3008    120233181 2807    110245371 2857    100249631 2787    090000001    0    021729   022284   022270   024127   021826   014749   021460   027922   025532   024371   024059   022121                                      
620510000210014 02160 1110131RN 216              0000000A 16                0010900DORET               0010800001900001900620520800300000000000792      012945 2997    011210   011760   012132   013204   012763   013886   014814   014278   013470   013249   012320   012176               130126571 2888    120121191 2727    110126131 2777    100129641 2687    090000001    0    011307   011591   011753   012380   011589   007711   011483   014284   012938   012389   012477   011718                                      
620510000110014 02160 1110131A A16               0000000RN 216              0010900DORET               0010800001900001900620520800300000000000792      011958 3247    010707   010961   011016   012314   011567   012646   013069   014009   012972   012218   011387   010585               130117241 3148    120111991 2987    110119241 3027    100119991 3017    090000001    0    010422   010693   010517   011747   010237   007038   009977   013638   012594   011982   011582   010403                                      
620502000310014 00210 1110231A 211               0120300Noyelles            0130700NOYELLES            0130100001409001409620520800300000000000187      081924  677    080414   081481   083426   084851   082207   085090   079331   070484   086184   086992   082851   080102               130798761    7    120788601    7    110635701    0    100660691    0    090000001    0    073404   077674   079724   082506   080456   084134   079424   070318   083778   086408   081246   079437                                      
620502000210014 00210 1110231Noyelles            0120300A 211               0130700NOYELLES            0130100001409001409620520800300000000000187      040116  687    039436   040048   040803   041585   040333   041606   038741   034402   042098   042575   040589   039350               130390901    7    120385401    7    110331231    0    100343311    0    090000001    0    035828   038157   039043   040422   039351   041058   038854   034440   040893   042368   039737   038930                                      
620502000110014 00210 1110231A 211               0120300Noyelles            0130700NOYELLES            0130100001409001409620520800300000000000187      041808  657    040978   041433   042623   043266   041874   043484   040590   036082   044086   044417   042262   040752               130407861    7    120403201    7    110304471    0    100317381    0    090000001    0    037576   039517   040681   042084   041105   043076   040570   035878   042885   044040   041509   040507                                      
620501900310014 00210 1110231Dourges A 1         0210999Limite Nord         0260207COURCELLES LES LENS 0250800008337008337620520800300000000000187      064310  94     060479   062255   064098   064187   061099   063680                     066084   054030   075094   072989               130592911 1037    120564341 1027    110599841 1047    100533181    7    090000001    0    051675   053222   056952   062366   060927   064714   059412   052588   063327   064714   061963   059637                                      
620501900210014 00210 1110231Limite Nord         0210999Dourges A 1         0260207COURCELLES LES LENS 0250800005536005536620520800300000000000187      030524  87     029680   030319   030735   031111   029837   031142                     032313   019455   030391   029889               130284501    7    120264201 1007    110296571 1017    100243251    7    090000001    0    023220   023587   026533   030372   029820   031876   028925   026179   030456   031160   030185   029087                                      
620501900110014 00210 1110231Dourges A 1         0210999Limite Nord         0260207COURCELLES LES LENS 0250800005536005536620520800300000000000187      033786 100     030799   031936   033363   033076   031262   032538   028660   027643   033771   034575   044703   043100               130308411 1087    120300141 1077    110303271 1087    100289931 1017    090000001    0    028455   029635   030419   031994   031107   032838   030487   026409   032871   033554   031778   030550                                      
620501500310014 00210 1110231Noyelles/Lens       0130700Dourges A 1         0210999DOURGES             0200700008337008337620520800300000000000187      071256  937    068479   069743   071069   059423   056031   081031   074957   069047   082228   081853   078422   063159               130728371 1007    120742961    7    110732271 1007    100635211    7    090000001    0    069980   068894   071668   074624   074768   077750   071168   046190   055903   049740   053876   053409                                      
620501500210014 00210 1110231Dourges A 1         0130700Noyelles/Lens       0210999DOURGES             0200700008337008337620520800300000000000187      039337  867    037961   038843   039721   040605   039353   040814   038267   034452   041381   041861   039831   039078               130380531    7    120374041    7    110373811    7    100327861    7    090000001    0    034912   037128   037605   039523   037956   040124   038116   034144   039797   040864   038333   038228                                      
620501500110014 00210 1110231Noyelles/Lens       0130700Dourges A 1         0210999DOURGES             0200700008337008337620520800300000000000187      031919 1097    030518   030900   031348   018818   016678   040217   036690   034595   040847   039992   038591   024081               130347841 1137    120368921 1167    110358461 1217    100307351    7    090000001    0    035068   031766   034063   035101   036812   037626   033052   012046   016106   008876   015543   015181                                      
620501100310014 00210 1810231RN 17               0101004A 211               0120300Lens                0110500001315001315620500700300000000000187      000000                                                                                                                                 130589018         120576548    0    110898228    0    100933928    0    090000008    0                                                                                                                                                   
620501000310014 00210 1810231RN 47               0090800RN 17               0101004Lens                0100500001207001207620500700300000000000187      000000                                                                                                                                 130556888         120545098    0    110849218    0    100882738    0    090000008    0                                                                                                                                                   
620500900310014 00210 1810231RN 43 Loos en Gohell0060900RN 47               0090800Lens                0090300002904002904620500700300000000000187      000000                                                                                                                                 130470918         120460948    0    110718128    0    100746418    0    090000008    0                                                                                                                                                   
620500700310014 00210 1110231Echang Lievin       0030500RN 43 Loos en Gohell0060900LOOS EN GOHELLE     0060000003406003406620500700300000000000187      053163  777    050750   051793   053301   054870   053336   055514                     055465   054802   051458   050353               130520691    7    120509681    7    110506451    7    100526441    7    090000001    0    048568   049678   051894   053990   055206   054547   049717   048881   053781   055386   052640   050540                                      
620500700210014 00210 1110231RN 43 Loos en Gohell0030500Echang Lievin       0060900LOOS EN GOHELLE     0060000003406003406620500700300000000000187      026344  787    025054   025637   026296   027216   026410   027304                     027414   027247   025443   025410               130256041    7    120254841    7    110249551    7    100258651    7    090000001    0    023917   024473   025640   026312   026367   026801   024460   024181   026636   027454   026008   024993                                      
620500700110014 00210 1110231Echang Lievin       0030500RN 43 Loos en Gohell0060900LOOS EN GOHELLE     0060000003406003406620500700300000000000187      026819  757    025696   026156   027005   027654   026926   028210                     028051   027555   026015   024943               130264661    7    120254841    7    110256901    7    100267791    7    090000001    0    024651   025205   026254   027678   028839   027746   025257   024700   027145   027932   026632   025547                                      
620500500310014 00210 1810231RD 937              0000000Echang Lievin       0030500Bully les Mines     0030000003498003498620500700100000000000187      000000                                                                                                                                 130200138         120192708    0    110194268    0    100202508    0    090000008    0                                                                                                                                                   
620500400310014 00160 1110241Inter RN 42         0500000Echang 35           0620000WIMILLE             0540540011036011036620500700100000000000194      032719 1067    029139   029810   030744   033749   032178   034519   035799   036355   034318   033666   031291   030871               130319531 1027    120322541 1047    110000001         100000001         090000001         026495   028760   028693   032437   032777   034267   036858   036852   033533   032430   030809   029529                                      
620500400210014 00160 1110241Echang 35           0500000Inter RN 42         0620000WIMILLE             0540540011036011036620500700100000000000194      016161 1087    014524   014723   015148   016581   015817   017029   017247   018401   017073   016539   015508   015250               130158311 1057    120159551 1067    110000001         100000001         090000001         013209   014265   014063   016238   015972   016973   017790   018575   016876   016140   015337   014528                                      
620500400110014 00160 1110241Inter RN 42         0500000Echang 35           0620000WIMILLE             0540540011036011036620500700100000000000194      016558 1027    014615   015087   015596   017168   016361   017490   018552   017954   017245   017127   015783   015621               130161231    7    120162991 1007    110131201    0    100126831    0    090000001    0    013286   014495   014630   016199   016805   017294   019068   018277   016657   016290   015472   015001                                      
620500300310014 00010 1110441Dourges A 21        1870000Limite Nord         1930393SEADOURGES          1870500006438006438620500700100000000000187      111418 1727    104313   103791   104128   108690   111387   118641   117600   111761   117816   118348   111400   108746               131015791 1767    121078121 1727    111091901 1787    101098731 1787    090000001    0    096881   104808   103047   000000   000000   000000            000000   000000                     000000                                      
620500300210014 00010 1110441Limite Nord         1870000Dourges A 21        1930393SEADOURGES          1870500006438006438620500700100000000000187      056713 1737    053152   052849   053068   055731   057095   060804   060471   054823   059944   060453   056539   055447               130516091 1757    120549661 1717    110562641 1787    100564171 1817    090000001    0    049153   053459   052215   000000   000000   000000            000000   000000                     000000                                      
620500300110014 00010 1110441Dourges A 21        1870000Limite Nord         1930383SEADOURGES          1870500006438006438620500700100000000000187      054705 1727    051161   050942   051060   052959   054292   057837   057129   056938   057872   057895   054861   053299               130499701 1777    120528461 1747    110529261 1787    100534561 1727    090000001    0    047728   051349   050832   000000   000000   000000            000000   000000                     000000                                      
620500000310014 02110 1110231Avion               0000000A 21                0020810LENS-GARE           0010550002813002813620500700100000000000187      039008  537    037906   038981   039703   040649   039035   040379   036966   032868   041202   041755   039871   038970               130380021    7    120379001    7    110373041    0    100363371    7    090000001    0    035326   037011   036899   039258   038405   040150   037676   033168   039981   040925   039162   038066                                      
620500000210014 02110 1110231A 21                0000000Avion               0020810LENS-GARE           0010550002813002813620500700100000000000187      019390  557    018741   019462   019713   020258   019343   020019   018365   016282   020534   020709   019871   019491               130187271    7    120185411    7    110188101    7    100181421    7    090000001    0    017435   018329   017867   019373   018928   019821   018589   016357   019714   020114   019302   018893                                      
620500000110014 02110 1110231Avion               0000000A 21                0020810LENS-GARE           0010550002813002813620500700100000000000187      019618  487    019165   019519   019990   020391   019692   020360   018601   016586   020668   021046   020000   019479               130192751    7    120193591    7    110184941    0    100181951    7    090000001    0    017891   018682   019032   019885   019477   020329   019087   016811   020267   020811   019860   019173                                      
620406000310014 02160 4813001A 216               0020000Zone Portuaire Calai0030744Calais              0030000001900001900620510000300000000000793      000000                                                                                                                                 130226398         120232428    0    110244588    0    100248838    0    090000008    0                                                                                                                                                   
620006100310014 04250 4813001RN 25               0000000RD 264              0001233St Catherine Les Arr0000500001233001233620001400300000000000104      000000                                                                                                                                 130000008         120000008    0    110000008    0    100000008    0    090000008    0                                                                                                                                                   
620005700310014 00470 4813001Echang 3            0070200Limite Nord         0081278Douvrin             0080000002098002098          00000000000613      000000                                                                                                                                 130000008         120000008    0    110000008    0    100000008    0    090000008    0                                                                                                                                                   
620005400310014 00470 4110101Inter A21           0000000Echang3             0070200VENDIN              0010140006935006935          00000000000901      044930  627    044957   045805   045390   044980   044198   045579   043583   037630   046803   049791   046410   044250               130461691    7    120468741    7    110474021    7    100000001    0    090000001    0    043329   046205   045412   044727   047095   047130   045832   041425   048755   051310   047716   045098                                      
620005400210014 00470 4110101Echang 3            0000000Inter A 21          0070200VENDIN              0010140006935006935          00000000000901      021077  627    022784   023072   021071   019294   019397   019589   020735   016731   020618   023875   022773   023113               130218211    7    120235671    7    110236981    7    100233401    7    090000001    0    021110   022711   021122   019153   022150   021180   020925   020248   022677   024510   023478   022592                                      
620005400110014 00470 4110101Inter A21           0000000Echang 3            0070200VENDIN              0010140006935006935          00000000000901      023853  627    022173   022733   024319   025686   024801   025990   022848   020899   026185   025916   023637   021137               130243481    7    120233071    7    110237041    7    100000001    0    090000001    0    022219   023494   024290   025574   024945   025950   024907   021177   026078   026800   024238   022506                                      
620004301310014 00420 4110101RN 43               0140000Inter A 16          0541121ALINCTHUN           0430850039904039904          00000000000187      012894 1238    011360   011766   012399   013000   012962   013778   013783   014386   013924   013125   012077   012097               130123391 1218    120121091 1428    110124191 1538    100126291 1558    090000001    0    010090   011250   011293   012667   012510   012901   014069   013426   013074   012960   012120   011711                                      
620004301210014 00420 4110101Inter A 16          0140000RN 43               0541121ALINCTHUN_1         0430850039904039904          00000000000187      006467 1478    005706   005898   006202   006454   006466   006896   006818   007241   007007   006665   006121   006090               130061581 1668    120062361 1728    110064211 1878    100065851 1888    090000001    0    005066   005624   005619   006376   006254   006472   007018   006497   006548   006455   006102   005867                                      
620004301110014 00420 4110101RN 43               0140000Inter A 16          0541121ALINCTHUN_2         0430850039904039904          00000000000187      006427  758    005654   005868   006197   006546   006496   006882   006965   007145   006917   006460   005956   006007               130061811    8    120058731    8    110059981    8    100060441    8    090000001    0    005024   005626   005674   006291   006256   006429   007051   006929   006526   006505   006018   005844                                      
620002001310014 00250 4113001Inter RN 17         0271283Inter RN 39         0321093ANZIN               0281000006963006963          00000000000901      018192 1537    015874   017175   017950   019300   018389   019608   019112   017582   019414   019181   017813   016922               130179261 1557    120180681 1657    110186851 1857    100180731 1827    090000001    0    015468   016490   016391   018953   018286   018962   019906   018121   018931   018903   017729   016971                                      
620002001210014 00250 4113001Inter RN 17         0271283Inite RN 39         0321093ANZIN               0281000006963006963          00000000000901      009025 1557    008176   008499   008850   009438   009080   009767   009350   008698   009678   009503   008848   008416               130088611 1587    120089071 1677    110092461 1857    100089721 1837    090000001    0    007652   008166   008087   009389   009003   009354   009715   008956   009410   009366   008829   008410                                      
620002001110014 00250 4113001Inter RN 39         0271283Inter RN 17         0321093ANZIN               0281000006963006963          00000000000901      009167 1487    007698   008676   009100   009862   009309   009841   009762   008884   009736   009678   008965   008506               130090671 1517    120091611 1617    110094391 1837    100091011 1817    090000001    0    007816   008324   008304   009564   009283   009608   010191   009165   009521   009537   008900   008561                                      
620002000310014 00250 4114001Inter RD 265        0240280Inter RN 39         0271283WAGNONLIEU          0260545004813004813          00000000000901      009993 1817    009459   009685   009779   010205   009940   010575   010250   009428   010424   010325   009922   009940               130093211 1837    120092651 1777    110000001    0    100094131 1817    090000001    0                                                                                                                                                   
620002000210014 00250 4114001Inter RN 39         0240280Inter RD 265        0271283WAGNONLIEU          0260545004813004813          00000000000901      004985 1897    004733   004861   004876   005080   004921   005223   005095   004666   005224   005180   004982   004989               130049221 1947    120046431 1777    110000001    0    100045651 1817    090000001    0                                                                                                                                                   
620002000110014 00250 4114001Inter RD 265        0240280Inter RN 39         0271283WAGNONLIEU          0260545004813004813          00000000000901      005008 1657    004726   004824   004903   005125   005019   005352   005155   004762   005200   005145   004940   004951               130048161 1717    120046221 1777    110000001    0    100048481 1827    090000001    0    004344   004365   004641   004956   005048   004989   005071   004532   005053   005164   004832   004770                                      
620001900310014 00250 4113001Limite Dep 80       0000000RD 265              0240280GOUY                0150400024315019380          00000000000187      006877 1967    006478   006460   006676   006815   006832   007138   006908   006674   007292   007366   007019   006850               130069711 1967    120080901 1930    110000001    0    100069031 1937    090000001    0    006313   007464   006474   006981   006924   007169   007388   006803   007261   007349   006838   006749                                      
620001900210014 00250 4113001RD 265              0000000Limite dep 80       0240280GOUY                0150400024315019380          00000000000187      003473 1907    003325   003319   003404   003405   003446   003560   003515   003358   003650   003710   003523   003453               130035141 1897    120039171 1900    110000001    0    100034631 1867    090000001    0    003186   003800   003260   003498   003484   003702   003741   003405   003641   003689   003425   003366                                      
620001900110014 00250 4113001Limite Dep 80       0000000RD 265              0240280GOUY                0150400024315019380          00000000000187      003404 2097    003153   003141   003272   003410   003386   003578   003393   003316   003642   003656   003496   003397               130034571 2037    120041731 1960    110000001    0    100034401 2067    090000001    0    003127   003664   003214   003483   003440   003467   003647   003398   003620   003660   003413   003383                                      
620001400310014 00170 4113001Acces A 26          0360100A 211               0441082VIMY                0360500009635009635          00000000000187      017281  947    016712   017214   017455   017844   016792   018150   016459   014124   018637   018586   017750   017748               130163581    7    120159191    7    110160331    7    100000001    0    090000001    0    015440   016007   016341   017046   015337   016100   015563   014264   017765   018320   017309   016803                                      
620001400210014 00170 4113001A 211               0360100Acces A 26          0441082VIMY                0360500009635009635          00000000000187      008612  917    008316   008580   008705   008905   008307   009045   008259   007037   009256   009174   008817   008995               130081561    7    120079241    7    110080371    7    100000001    0    090000001    0    007699   007981   008144   008503   007606   008013   007835   007129   008868   009117   008595   008376                                      
620001400110014 00170 4113001Acces A 26          0360100A 211               0441082VIMY                0390400009635009635          00000000000187      008669  997    008396   008634   008750   008939   008485   009105   008200   007087   009381   009412   008933   008753               130082021 1017    120079951 1057    110079961 1047    100000001    0    090000001    0    007741   008026   008197   008543   007731   008087   007728   007135   008897   009203   008714   008427                                      
620001302310014 00170 4810101Int RN 50           0330000Int A 26            0360100Roclincourt         0350900002960002960620001400300000000000698      000000                                                                                                                                 130208338         120202818    0    110204278    0    100000008    0    090000008    0                                                                                                                                                   
620000100310014 00010 4810101inter CD 940 st Leon0460000limite A 16         0500800St Leonard          0480833004048004048          00000000000613      000000                                                                                                                                 130000008         120000008    0    110000008    0    100000008    0    090000008    0                                                                                                                                                   
600010000310014 00310 4113001début dev Beauvais  0170000Fin dev Beauvais    0290465BEAUVAIS            0180742012465012465          00000000000513      005333 1888    004667   004791   004924   005454   005264   005777   005668   005549   005752   005778   005381   004974               130051621 1928    120000001         110000001         100000001         090000001                                                                                                                                                        
600010000210014 00310 4113001fin dev Beauvais    0170000début dev Beauvai   0290465BEAUVAIS            0180742012465012465          00000000000513      002568 1858    002243   002304   002364   002639   002518   002785   002747   002672   002752   002788   002590   002401               130024961 1868    120000001         110000001         100000001         090000001                                                                                                                                                        
600010000110014 00310 4113001début dev Beauvais  0170000Fin dev Beauvais    0290465BEAUVAIS            0180742012465012465          00000000000513      002765 1958    002424   002487   002560   002815   002746   002992   002921   002877   003000   002990   002791   002573               130026661 1988    120000001    0    110000001    0    100000001    0    090000001    0                                                                                                                                                   
600009000310014 00310 4113001Clermont RD 916 A   0530839déb dév Clermont    0550000CLERMONT            0540594001839001839          00000000000513      016518  948    015915   016290   016680   017139   016842   017955   016177   013877   017578   016990   016752   016101               130160621    8    120000001         110000001         100000001         090000001         015899   015456   015781   016853   016396   017363   015799   013433   016790   016929   016466   015581                                      
600009000210014 00310 4113001déb dév Clermont    0530839Clermont RD 916A    0550000CLERMONT            0540594001839001839          00000000000513      007994  918    007643   007839   008042   008258   008149   008694   007849   006718   008562   008331   008092   007785               130078001    8    120000001         110000001         100000001         090000001         007643   007389   007560   008085   007883   008492   007901   006691   008302   008264   007893   007498                                      
600009000110014 00310 4113001Clermont RD 916 A   0530839déb dév Clermont    0550000CLERMONT            0540594001839001839          00000000000513      008524  998    008272   008451   008638   008881   008693   009261   008328   007159   009016   008659   008660   008316               130082621 1018    120000001    0    110000001    0    100000001    0    090000001    0    008256   008067   008221   008768   008513   008871   007898   006742   008488   008665   008573   008083                                      
600008301310014 03240 4815001Senlis RN 17        0010000Senlis RN 330       0020284Chamant             0020000001194001194600000800300000000001287      000000                                                                                                                                 130165428         120172548    0    110000008    0    100197898    0    090000008    0                                                                                                                                                   
600008200310014 03300 4813001fin dev Ermenonville0100000Senlis RN 324       0191107Fontaine Chaalis    0110000010184010184600008100300000000001287      000000                                                                                                                                 130098878         120101438    0    110108598    0    100100198    0    090000008    0                                                                                                                                                   
600008100310014 03300 4113001Belleville RN 2     0040239fin dév Ermenonville0100001ERMENONVILLE        0050800007149007149600008100300000000001287      008303 2027    007210   007455   007866   008625   008350   009286   008955   007954   009049   008999   008216   007660               130079561 2067    120081621 2097    110087381 2267    100080621 2137    090000001    0    006797   007386   007788   008386   008348   008929   008854   007989   008186   007762   007473   007567                                      
600008100210014 03300 4113001fin dév Ermenonville0040239Belleville RN 2     0100000ERMENONVILLE        0050800007149007149600008100300000000000188      004107 1987    003549   003698   003865   004292   004116   004594   004529   003898   004415   004460   004069   003796               130038951 2007    120040631 2067    110043621 2297    100040151 2157    090000001    0    003382   003669   003854   004145   004139   004449   004436   003901   003899   003571   003546   003746                                      
600008100110014 03300 4113001Belleville RN 2     0040239fin dév Ermenonville0100000ERMENONVILLE        0050800007149007149600008100300000000000188      004196 2097    003661   003757   004001   004333   004234   004692   004426   004056   004634   004539   004147   003864               130040611 2137    120040991 2147    110043761 2207    100040471 2097    090000001    0    003415   003717   003934   004241   004209   004480   004418   004088   004287   004191   003927   003821                                      
600007000310014 00310 4113001Compiegne RN 1031   0790420Aisne               1040134COMPIEGNE           0850406025714025714600008100302000250031287      008661 1558    007546   008298   008636   009061   008495   009317   008715   007595   009551   009412   008850   008480               130079841 1618    120000001    0    110000001    0    100000001    0    090000001    0    007013   007479   007578   008339   008175   008758   008588   008243   008815            007496   007338                                      
600007000210014 00310 4113001Aisne               0790420Compiegne RN 1031   1040134COMPIEGNE           0850406025714025714600008100302000250031287      004372 1518    003831   004183   004356   004561   004297   004695   004396   003839   004806   004733   004463   004312               130040541 1578    120000001         110000001         100000001         090000001         003556   003792   003838   004243   004160   004433   004356   004180   004459            003839   003733                                      
600007000110014 00310 4113001Compiegne RN 1031   0790420Aisne               1040134COMPIEGNE           0850406025714025714600008100302000250031287      004289 1638    003715   004115   004280   004500   004198   004622   004319   003756   004745   004679   004387   004168               130039301 1668    120000001    0    110143161    0    100000001    0    090000001    0    003457   003687   003740   004096   004015   004325   004232   004063   004356            003657   003605                                      
600006001310014 10310 4110101RN 31               0000000RN 32 Clairoix      0070279VENETTE             0010500006840006840600008100300000000000194      035185  897    034755   035373   036015   037221   035763   037914   034832   031277   036508   035068   033667   033992               130343491    8    120324801    7    110332801    7    100000001    0    090000001    0                                                                                                                                                   
600006001210014 10310 4110101RN 32 Clairoix      0000000RN 31               0070279VENETTE             0010500006840006840600008100300000000000194      017725  877    017528   017825   018119   018712   017939   019029   017574   015767   018361   017635   017092   017199               130172681    8    120163121    7    110167041    7    100000001    0    090000001    0                                                                                                                                                   
600006001110014 10310 4110101RN 31               0000000RN 32 Clairoix      0070279VENETTE             0010500006840006840600008100300000000000194      017460  947    017227   017548   017896   018509   017824   018885   017258   015510   018147   017433   016575   016793               130170811    8    120161681    7    110165761    7    100000001    0    090000001    0                                                                                                                                                   
600005300310014 00310 4814001A 1                 0731041Compiegne RN 131    0790420Arsy                0750000005404005404600005100300000000001287      000000                                                                                                                                 130034108         120229318    0    110232128    0    100226548    0    090000008    0                                                                                                                                                   
600005100310014 00310 4113001début dev Clermont  0550000A 1                 0731041CATENOY             0580600018036018036600005100300000000001287      000000                                                                                                                                 130018251    8    120122711 1278    110124211 1298    100121221 1288    090000001    0    002352   002336   002347   001048   002413   002565   002361   002030   002504   001411   000568   000000                                      
600005100210014 00310 4113001A 1                 0550000début dév Clermont  0731041CATENOY             0580600018036018036600005100300000000001287      000000                                                                                                                                 130010041    8    120060251 1208    110060811 1228    100059621 1208    090000001    0    001333   001278   001278   000573   001313   001398   001281   001106   001341   000857   000306   000000                                      
600005100110014 00310 4113001Début dév Clermont  0550000A 1                 0731041CATENOY             0580600018036018036600005100300000000001287      000000                                                                                                                                 130008211    8    120062461 1428    110063401 1448    100061601 1438    090000001    0    001019   001058   001069   000475   001100   001167   001080   000924   001163   000554   000262   000000                                      
600004500310014 00310 4110201Beauvais sortie     0300000Clermont RD 916A    0530839LA RUE St PIERRE    0420000024386024386600005100300000000001287      021144 1207    019821   020505   021044   021517   021395   022831   021546   018191   022773   022611   021327   020227               130203171 1197    120204921 1227    110213001 1257    100000001    0    090000001    0    018018   019195   019546   021149   020752   022350   020780   017982   021594   021999   020830   019658                                      
600004500210014 00310 4110201Clermont RD 916A    0300000Beauvais Sortie     0530839LA RUE St PIERRE    0420000024386024386600005100300000000000188      010609 1197    009929   010271   010541   010807   010756   011424   010833   009113   011406   011362   010702   010194               130101931 1197    120102751 1217    110106791 1247    100000001    0    090000001    0    009010   009630   009839   010600   010436   011237   010398   009036   010785   011032   010438   009900                                      
600004500110014 00310 4110201Beauvais sortie     0300000Clermont RD 916A    0530839LA RUE St PIERRE    0420000024386024386600005100300000000000188      010535 1227    009892   010234   010503   010710   010639   011407   010713   009078   011367   011249   010625   010033               130101241 1207    120102171 1257    110106211 1287    100000001    0    090000001    0    009008   009565   009707   010549   010316   011113   010382   008946   010809   010967   010392   009758                                      
600000900310014 00020 4113001RN 330              0020700Dév Nanteuil        0110200NANTEUIL            0080650008884008884600005100300000000001287      026000 1438             024996   025355   026317   025635   027519   026043   023631   026912   027726   026071   025796               130000001         120000001         110000001         100000001         090000001                                                                                                                                                        
600000900210014 00020 4113001Dév Nanteuil        0020700RN 330              0110200NANTEUIL            0080650008884008884600005100300000000001287      014247 1418             013764   013944   014428   014004   015153   014321   012804   014758   015105   014304   014142               130000001         120000001         110000001         100000001         090000001                                                                                                                                                        
600000900110014 00020 4113001RN 330              0020700Dév Nanteuil        0110200NANTEUIL            0080650008884008884600005100300000000001287      011753 1468             011232   011411   011889   011631   012366   011722   010827   012154   012621   011767   011654               130000001         120000001    0    110000001    0    100218311    0    090000001    0                                                                                                                                                   
600000800310014 00020 4113001Dév Nanteuil        0110200Limite Aisne        0291114GONDREVILLE         0250300018911018911600005100300000000001287      014706 1807    013476   014058   014720   015159   015986   015746   014314   014091   015334   015056   014487   014039               130144901 1767    120151151 1677    110000001    0    100173351 1357    090000001    0    012089   013358   013830   015525   017009   015646   014077   014028   014982   014970   014250   014114                                      
600000800210014 00020 4113001Limite Aisne        0110200Dév Nanteuil        0291114GONDREVILLE         0250300018911018911600005100300000000000192      007016 1797    006576   006840   006976   006918   007203   007394   006835   006776   007466   007291   007045   006879               130068721 1767    120069161 1667    110000001    0    100064701 1327    090000001    0    005911   006489   006495   007015   007390   007468   006808   006743   007319   007246   006796   006785                                      
600000800110014 00020 4113001Dev Nanteuil        0110200Limite Aisne        0291114GONDREVILLE         0250300018911018911600005100300000000000192      007690 1817    006900   007218   007744   008241   008783   008352   007479   007315   007868   007765   007442   007160               130076181 1767    120081991 1707    110000001    0    100108651 1387    090000001    0    006178   006869   007335   008510   009619   008178   007269   007285   007663   007724   007454   007329                                      
590506000310014 00230 1110231Orchies             0160417Petite Foret        0370278BEUVRY              0210900021018021018600005100300000000000187      040687  907    039931   040890   041388   042492   040396   043264   039576   033548   043230   043157   040847   039779               130400251    7    120406701    7    110409831    7    100412291    7    090000001    0    036840   038665   039215   041488   040693   043557   039879   034075   042694   043576   040616   038997                                      
590506000210014 00230 1110231Petite Foret        0160417Orchies             0370278BEUVRY              0210900021018021018600005100300000000000187      020219  907    019879   020413   020620   021132   020089   021619   019615   016708   021461   021612   019895   019711               130198961    7    120202231    7    110204221    7    100205371    7    090000001    0    018341   019289   019477   020582   020210   021637   019752   016983   021212   021640   020181   019447                                      
590506000110014 00230 1110231Orchies             0160417Petite Foret        0370278BEUVRY              0210900021018021018600005100300000000000187      020468  907    020052   020477   020768   021360   020307   021645   019961   016840   021769   021545   020952   020068               130201291    7    120204471    7    110205611    7    100206921    7    090000001    0    018499   019376   019738   020906   020483   021920   020127   017092   021482   021936   020435   019550                                      
590505300310014 00160 1110241Coudekerque (RN 335)1251000Ghyvelde (RD 947)   1370656GHYVELDE OUEST      1330500011656011656600005100300000000000693      029048 2598    023371   024518   026641   030152   029365   030836   035101   036536   030034   028462   026471   026690               130276881 2548    120271421 2468    110272281 2488    100267681 2428    090000001    0    021747   023449   024781   028018   029184   028600   034673   036105   028310   026729   025403   025251                                      
590505300210014 00160 1110241Ghyvelde (RD 947)   1251000Coudekerque (RN 335)1370656GHYVELDE OUEST      1330500011656011656600005100300000000000693      014001 2638    011700   011849   012907   014559   014190   014844   016730   017784   014609   013580   012737   012337               130133591 2608    120130751 2508    110131061 2518    100129141 2458    090000001    0    010900   011306   011822   013583   013939   013739   016654   017541   014006   012812   012224   011785                                      
590505300110014 00160 1110241Coudekerque (RN335) 1251000Ghyvelde (RD 947)   1370656GHYVELDE OUEST      1330500011656011656600005100300000000000693      015047 2528    011671   012669   013734   015593   015175   015992   018371   018752   015425   014882   013734   014353               130143281 2498    120140671 2398    110141221 2428    100138541 2378    090000001    0    010847   012143   012959   014435   015245   014861   018019   018564   014304   013917   013179   013466                                      
590505200310014 00160 1150441Grande Synthe (RN2551190625Coudekerque (RN335) 1251000COUDEKERQUE         1240400006375006375600005100300000000000693      062299 1557    056781   058129   060304   063667   063655   065622   068164   065624   065320   062719   059711   057653               130616511 1387    120610311 1467    110607811    7    100591391    7    090000001    0    053393   056888   058913   063303   063960   065746   068568   067941   061978   062031   059303   057791                                      
590505200210014 00160 1150441Coudekerque (RN335) 1190625Grande Synthe (RN2551251000COUDEKERQUE         1240400006375006375600005100300000000000693      032079 1547    029493   029683   030520   032036   032615   033181   034840   034398   034001   032671   031284   030058               130317171 1467    120312361 1447    110311361    7    100302101    7    090000001    0    027824   029209   030122   032614   032773   033915   035097   034897   031968   032568   030485   029130                                      
590505200110014 00160 1150441Grande Synthe(RN225)1110625Coudekerque (RN335) 1251000COUDEKERQUE         1240400006375006375600005100300000000000693      030220 1567    027288   028446   029784   031631   031040   032441   033324   031226   031319   030048   028427   027595               130299341 1307    120297951 1507    110296451 1527    100289291 1517    090000001    0    025569   027679   028791   030689   031187   031831   033471   033044   030010   029463   028818   028661                                      
590505000310014 00160 1110241Grande Synthe(RD131)1170000Grande Synthe(RN225)1190625ZAC DU MOULIN       1170820002625002625600005100300000000000693      061627 2127    056362   058149   060173   064227   063323   066677   068383   065673   062450   058963   058524   056459               130604731 2047    120603331 1987    110000001    0    100000001    0    090000001    0    051742   056120   057121   062935   063045   064806   067884   066695   056566   060648   059359   058754                                      
590505000210014 00160 1110241Grande Synthe(RN225)1170000Grande Synthe(RD131)1190625ZAC DU MOULIN       1170820002625002625600005100300000000000693      031091 2127    028553   029456   030437   032483   032165   033662   034152   032975   031515   029686   029397   028538               130305071 2047    120304591 1987    110000001    0    100000001    0    090000001    0    026479   028344   028767   031863   031859   032871   034026   033671   028292   030683   029987   029244                                      
590505000110014 00160 1110241Grande Synthe(RD131)1170000Grande Synthe(RN225)1190625ZAC DU MOULIN       1170820002625002625600005100300000000000693      030536 2127    027809   028693   029736   031744   031158   033015   034231   032698   030935   029277   029127   027921               130299661 2047    120298741 1987    110000001    0    100000001    0    090000001    0    025263   027776   028354   031072   031186   031935   033858   033024   028274   029965   029372   029510                                      
590504900310014 00160 1110241Craywick (RN 316)   1100800Grande Synthe(RD131)1170000CRAYWICK            1130000006200006200600005100300000000000693      053170 2307    047863   049609   051862   056732   054457   057627   058959   058733   053580   049774   049347   049292               130522591 2277    120515791 2147    110520331 2047    100489091 2097    090000001    0    045805   048194   049266   054650   054597   056416   059990   058911   047590   051954   050422   049311                                      
590504900210014 00160 1110241Grande Synthe(RD131)1100800Craywick (RN 316)   1170000CRAYWICK            1130000006200006200600005100300000000000693      026607 2297    024372   024930   025985   028733   027221   028874   029545   029307   026653   024539   024759   024282               130260731 2267    120256831 2097    110258591 1957    100242131 2017    090000001    0    023002   024130   024608   027441   027327   028253   029914   029430   023249   025893   025306   024323                                      
590504900110014 00160 1110241Craywick (RN 316)   1100800Grande Synthe(RD131)1170000CRAYWICK            1130000006200006200600005100300000000000693      026563 2337    023491   024679   025877   027999   027236   028753   029414   029426   026927   025235   024588   025010               130261861 2297    120258961 2247    110261741 2217    100246961 2247    090000001    0    022803   024064   024658   027209   027270   028163   030076   029481   024341   026061   025116   024988                                      
590504800310014 00160 1110241Limite Pas de Calais1030900Craywick (RN 316)   1100800ST GEORGES SUR L'AA 1050800006900006900600005100300000000000693      037638 2288    033107   034137   035896   039743   038637   040708   042804   039941   037206   037890   036175   035174               130363961 2298    120365481 2278    110361601 2238    100319871 2398    090000001    0    030231   033018   033542   037854   038432   039170   043072   042185   036744   037031   034318   031157                                      
590504800210014 00160 1110241Craywick (RN 316)   1030900Limite Pas de Calais1100800ST GEORGES SUR L'AA 1050800006900006900600005100300000000000693      018710 2248    016596   017022   017759   019790   019251   020173   021122   020071   018344   018846   017923   017501               130181041 2238    120180911 2238    110179501 2198    100171301 2318    090000001    0    015153   016331   016622   018805   019016   019476   021326   020859   018539   018482   016943   015704                                      
590504800110014 00160 1110241Limite Pas de Calais1030900Craywick (RN 316)   1100800ST GEORGES SUR L'AA 1050800006900006900600005100300000000000693      018928 2348    016511   017115   018137   019953   019386   020535   021682   019870   018862   019044   018252   017673               130182921 2358    120184571 2358    110182101 2308    100148571 2568    090000001    0    015078   016687   016920   019049   019416   019694   021746   021326   018205   018549   017375   015453                                      
590504700310014 00230 1810231Valenciennes Nord   0391001A 2                 0420539La Sentinelle       0410500002562002562590503902100000000000187      000000                                                                                                                                 130207868         120210418    0    110213838    0    100212508    0    090000008    0                                                                                                                                                   
590504500310014 00230 1810231Petite Foret        0370278Valenciennes Nord   0391004Petite-Foret        0390073002739002739590503902300000000000187      000000                                                                                                                                 130611198         120615478    0    110625758    0    100622968    0    090000008    0                                                                                                                                                   
590503902310014 00230 1110231Centre d'activites  0020000Orchies             0160417GENECH              0080700014440014440590503902300000000000187      050919  558    050475   051481   051770   052815   050288   053609   048688   042006   053632   054092   052101   050407               130502021    8    120505441    8    110513881    8    100511531    8    090000001    0    047965   048192   049191   051452   049938   054093   050357   042130   052940   054450   051690   050029                                      
590503902210014 00230 1110231Orchies             0020000Centre d'activites  0160417GENECH              0080700014440014440590503902300000000000187      024342  568    024183   024652   024747   025304   024007   025583   023335   020205   025554   025683   024914   024097               130241231    8    120241501    8    110245651    8    100244981    8    090000001    0    023680   023417   023515   024655   023857   025782   024139   020377   025267   025975   024746   024068                                      
590503902110014 00230 1110231Centre d'activites  0011001Orchies             0160417GENECH              0080700014440014440590503902300000000000187      026577  548    026292   026829   027023   027511   026281   028026   025353   021801   028078   028409   027187   026310               130260791    8    120263941    8    110268231    8    100266551    8    090000001    0    024285   024775   025676   026797   026081   028311   026218   021753   027673   028475   026944   025961                                      
590503901310014 00230 11102314 Cantons           0000000Centre D'activités  0020000CRT-LESQUIN         0000800001885001885590503902300000000000187      000000                                                                                                                                 130603031         120000001    0    110000001    0    100000001    0    090000001    0                                                                                                                                                   
590503901210014 00230 1110231Centre D'activites  00000004 Cantons           0011001CRT-LESQUIN         0000800001885001885590503902300000000000187      000000                                                                                                                                 130298911         120000001    0    110000001    0    100000001    0    090000001    0                                                                                                                                                   
590503901110014 00230 11102314 Cantons           0000000Centre D'activites  0011001CRT-LESQUIN         0000800001885001885590503902300000000000187      000000                                                                                                                                 130304121         120000001    0    110000001    0    100000001    0    090000001    0                                                                                                                                                   
590503700310014 00270 11102414 Cantons           0000000Frontière Belge     0121287ANSTAING            0070974010965010965590503902300000000000187      038322 1728    035779   037204   038142   038620   037996   039286   038804   035993   040893   041751   038784   036645               130366851 1608    120361851 1538    110000001    0    100000001    0    090000001    0    032713   034918   035845   036918   036845   038161   037188   035220   039376   039451   037364   036218                                      
590503700210014 00270 1110241Frontiere Belge     00000004 Cantons           0121287ANSTAING            0070974010965010965590503902300000000000187      018671 1588    017355   018077   018696   019590   019170   019824   019213   016811   019529   019643   018723   017462               130178881 1538    120176321 1538    110000001    0    100000001    0    090000001    0    015712   017414   017422   018350   018227   018994   018339   016577   019010   019076   018065   017467                                      
590503700110014 00270 11102414 Cantons           0000000Frontière Belge     0121287ANSTAING            0070974010965010965590503902300000000000187      019651 1988    018424   019127   019446   019030   018826   019462   019591   019182   021364   022108   020061   019183               130187971 1688    120185531 1538    110000001    0    100000001    0    090000001    0    017001   017504   018423   018568   018618   019167   018849   018643   020366   020375   019299   018751                                      
590503600310014 00220 1110641Ronchin             00000004 Cantons           0020811LESQUIN             0020340002402002402590503902300000000000996      000000                                                                                                                                 131259311         121270401    0    110000001    0    100000001    0    090000001    0                                                                                                                                                   
590503600210014 00220 11106414 Cantons           0000000Ronchin             0020811LESQUIN             0020340002402002402590503902300000000000996      000000                                                                                                                                 130630001         120640771    0    110000001    0    100000001    0    090000001    0                                                                                                                                                   
590503600110014 00220 1110641Ronchin             00000004 Cantons           0020811LESQUIN             0020340002402002402590503902300000000000996      000000                                                                                                                                 130629311         120629631    0    110000001    0    100000001    0    090000001    0                                                                                                                                                   
590503502310014 00250 1110241Hazebrouck          0320216Bergues             0621068QUAEDYPRE           0590110030892030892590503902300000000000187      031292    7    027108   030665   030546   031750   032249   034956                     020650   021522   019700   018494               130303401    8    120290061    8    110000001    0    100000001    0    090000001    0    023598   026419   028096   031118   030920   033755   035693   033526   032369   031477   029162   027949                                      
590503502210014 00250 1110241Bergues             0320216Hazebrouck          0621068QUAEDYPRE           0590110030892030892590503902300000000000187      015786    7    013226   015962   015076   015752   016520   018177                     004785   005177   004661   004139               130150941    8    120141001    8    110000001    0    100000001    0    090000001    0    011364   012510   013443   015303   015460   017037   018205   017369   016617   015604   014484   013729                                      
590503502110014 00250 1110241Hazebrouck          0210316Bergues             0621068QUAEDYPRE           0590110030892030892590503902300000000000187      015506    7    013882   014703   015470   015998   015729   016779   016375   015502   015865   016345   015039   014355               130152461    8    120149061    8    110000001    0    100000001    0    090000001    0    012234   013909   014653   015815   015460   016718   017488   016157   015752   015873   014678   014220                                      
590503000310014 00250 1110241Armentières Ouest   0200394Hazebrouck          0320216STEENWERCK          0240190011831011831590503902300000000000187      054650 1347    049932   051711   052858   055491   055813   058193   056376   053537   057381   057517   054312   052610               130522271 1267    120524081 1237    110000001    0    100000001    0    090000001    0    044451   048823   049869   054229   054935   055657   053899   053880   055342   055193   051938   048506                                      
590503000210014 00250 1110241Hazebrouck          0200394Armentieres Ouest   0320216STEENWERCK          0240190011831011831590503902300000000000187      027134 1357    024750   025662   026336   027607   027605   028952   028143   026731   028321   028328   027023   026114               130260651 1297    120263251 1297    110000001    0    100000001    0    090000001    0    022280   024138   024889   026617   027572   027701   027194   027059   027680   027416   025895   024339                                      
590503000110014 00250 1110241Armentieres Ouest   0200394Hazebrouck          0320216STEENWERCK          0240190011831011831590503902300000000000187      027516 1327    025182   026049   026522   027884   028208   029241   028233   026806   029060   029189   027289   026496               130261621 1247    120260831 1127    110000001    0    100000001    0    090000001    0    022171   024685   024980   027612   027363   027956   026705   026821   027662   027777   026043   024167                                      
590502900310014 00250 1110231La Chapelle         0150680Armentieres Ouest   0200394LA_CHAPELLE         0160700004719004719590503902300000000000187      066945 1127    061720   064431   066697   068566   067346   070461   068786   064740   069669   070227   066165   064523               130651541 1137    120652021 1167    110659371 1127    100610611    7    090000001    0    055955   061503   061344   067746   066196   070491   071670   064607   067073   068304   064285   062669                                      
590502900210014 00250 1110231Armentières Ouest   0150680La Chapelle         0200394LA_CHAPELLE         0160700004719004719590503902300000000000187      033178 1137    030612   031879   032957   033957   033270   034896   034380   032469   034341   034542   032827   031993               130322531 1147    120323671 1167    110327491 1137    100303581    7    090000001    0    027895   030596   030221   033709   032744   034791   035529   032211   032868   033587   031723   031156                                      
590502900110014 00250 1110231La Capelle          0150680Armantieres Ouest   0200394LA_CHAPELLE         0160700004719004719590503902300000000000187      033767 1117    031108   032552   033740   034609   034076   035565   034406   032271   035328   035685   033338   032530               130329011 1137    120328351 1147    110331881 1117    100307031 1097    090000001    0    028060   030907   031123   034037   033452   035700   036141   032396   034205   034717   032562   031513                                      
590502800310014 00250 1110231Sequedin            0090098La Chapelle         0150680ENNETIERES          0110420006589006589590503902300000000000187      083931 1197    078992   082030   084593   086772   084834   087773   085605   078669   087073   087299   082478   081137               130821381 1187    120824921 1217    110838501 1197    100789681 1027    090000001    0    072226   078751   077737   084840   083132   088132   088903   080357   084094   086030   081509   079938                                      
590502800210014 00250 1110231La Chapelle         0090098Sequedin            0150680ENNETIERES          0110420006589006589590503902300000000000187      041273 1227    038907   040397   041584   042697   041667   043052   042626   039109   042504   042584   040334   039843               130404161 1217    120407031 1247    110412611 1227    100393971 1187    090000001    0    035772   038978   037829   041940   040928   043223   043988   039944   040711   042087   039962   039627                                      
590502800110014 00250 1110231Sequedin            0090098La Capelle          0150680ENNETIERES          0110420006589006589590503902300000000000187      042658 1147    040085   041633   043009   044075   043167   044721   042979   039560   044569   044715   042144   041294               130417221 1147    120417891 1167    110425891 1137    100395711    7    090000001    0    036454   039773   039908   042900   042204   044909   044915   040413   043383   043943   041547   040311                                      
590502600310014 00250 1110431Porte Ouest         0040488Sequedin            0090098LOOS                0050450004602004602590503902300000000000996      104493                                                                                                                                 131050141         121039901    0    110000001    0    100000001    0    090000001    0                                                                                                                                                   
590502600210014 00250 1110431Sequedin            0040488Porte Ouest         0090098LOOS                0050450004602004602590503902300000000000996      052074                                                                                                                                 130522131         120512891    0    110000001    0    100000001    0    090000001    0                                                                                                                                                   
590502600110014 00250 1110431Porte Ouest         0040488Sequedin            0090098LOOS                0050450004602004602590503902300000000000187      052419                                                                                                                                 130528011         120527011    0    110000001    0    100000001    0    090000001    0                                                                                                                                                   
590502500310014 00250 1810431Porte de Bethune    0030890Porte Ouest         0040488Pt.Bethune/Ouest    0040150000595000595590502400300000000000187      000000                                                                                                                                 130000008         120000008    0    110000008    0    100000008    0    090000008    0                                                                                                                                                   
590502400310014 00250 1110631Porte Des Postes    0020835Porte De Bethune    0030890PORTE DES POSTES    0030000001056001056590502400300000000000187      000000                                                                                                                                 130949641         120000001    0    110000001    0    100000001    0    090000001    0                                                                                                                                                   
590502400210014 00250 1110631Porte De Bethune    0020835Porte Des Postes    0030890PORTE DES POSTES    0030000001056001056590502400300000000000187      000000                                                                                                                                 130473341         120000001    0    110000001    0    100000001    0    090000001    0                                                                                                                                                   
590502400110014 00250 1110631Porte Des Postes    0020835Porte De Bethune    0030890PORTE DES POSTES    0030000001056001056590502400300000000000187      000000                                                                                                                                 130476301         120000001    0    110000001    0    100000001    0    090000001    0                                                                                                                                                   
590502300310014 00250 1110431Porte D'Arras       0010792Porte Des Postes    0020835Pte ARRAS/POSTES    0020320001044001044590502400300000000000187      000000                                                                                                                                 131142701         121147871    0    110000001    0    100000001    0    090000001    0                                                                                                                                                   
590502300210014 00250 1110431Porte Des Postes    0010792Porte D'Arras       0020835Pte ARRAS/POSTES    0020320001044001044590502400300000000000187      000000                                                                                                                                 130574011         120573931    0    110000001    0    100000001    0    090000001    0                                                                                                                                                   
590502300110014 00250 1110431Porte D'Arras       0010792Porte Des Postes    0020835Pte ARRAS/POSTES    0020320001044001044590502400300000000000187      000000                                                                                                                                 130568691         120573941    0    110000001    0    100000001    0    090000001    0                                                                                                                                                   
590502200310014 00250 1110631Porte Sud           0000000Porte D'Arras       0010792PORTE SUD           0010000001512001512590502400300000000000187      208402                                                                                                                                 132071171         122062061    0    110000001    0    100000001    0    090000001    0                                                                                                                                                   
590502200210014 00250 1110631Porte d'Arras       0000000Porte Sud           0010792PORTE SUD           0010000001512001512590502400300000000000187      094719                                                                                                                                 130947701         120943061    0    110000001    0    100000001    0    090000001    0                                                                                                                                                   
590502200110014 00250 1110631Porte Sud           0000000Porte D'Arras       0010792PORTE SUD           0010000001512001512590502400300000000000187      113683                                                                                                                                 131123471         121119001    0    110000001    0    100000001    0    090000001    0                                                                                                                                                   
590502000310014 00020 1110241Marly               0640030Frontière Belge     0780456ONNAING             0720210014451014451590502400300000000000293      000000                                                                                                                                 130000001         120371321    8    110375361 1008    100363601 1018    090000001    0                                                                                                                                                   
590502000210014 00020 1110241Frontière Belge     0640030Marly               0780456ONNAING             0720210014451014451590502400300000000000293      000000                                                                                                                                 130000001         120185821    8    110187661    8    100182871    8    090000001    0                                                                                                                                                   
590502000110014 00020 1110241Marly               0640030Frontière Belge     0780456ONNAING             0720210014451014451590502400300000000000293      000000                                                                                                                                 130000001         120185501 1558    110187701 1588    100180731 1588    090000001    0                                                                                                                                                   
590501901310014 00210 1813001Limite Nord         0260207Echang 19           0270557Courcelles          0270000001347001347          00000000000613      000000                                                                                                                                 130000008         120000008    0    110000008    0    100000008    0    090000008    0                                                                                                                                                   
590501800310014 00020 1810241Valenciennes Sud    0600973Marly               0640030Aulnoy              0620210003061003061590502000300000000000187      000000                                                                                                                                 130000008         120903218    0    110913048    0    100884368    0    090000008    0                                                                                                                                                   
590501700310014 00020 1110441Rocade Ouest        0590025Valenciennes Sud    0600973TRITH-SAINT-LEGER   0590400001948001948590502000300000000000187      101221 102                                                                                                                             130000001         120000001    0    110000001    0    100000001    0    090000001    0                                                                                                                                                   
590501700210014 00020 1110441Valenciennes Sud    0590025Rocade Ouest        0600973TRITH-SAINT-LEGER   0590400001948001948590502000300000000000187      050745  95                                                                                                                             130000001         120000001    0    110000001    0    100000001    0    090000001    0                                                                                                                                                   
590501700110014 00020 1110441Rocade Ouest        0590025Valenciennes Sud    0600973TRITH-SAINT-LEGER   0590400001948001948590502000300000000000187      050476 108                                                                                                                             130000001         120000001    0    110000001    0    100000001    0    090000001    0                                                                                                                                                   
590501600310014 00020 1810241Denain              0520775Rocade Ouest        0590025La Sentinelle       0580585006258006258590501300300000000000187      000000                                                                                                                                 130585898         120584818    0    110601218    0    100585248    0    090000008    0                                                                                                                                                   
590501400310014 00020 1810241Neuville/Escaut     0471001Denain              0520775Neuville/Escaut     0500600004777004777590501300100000000000187      000000                                                                                                                                 130291948         120293318    0    110301438    0    100292688    0    090000008    0                                                                                                                                                   
590501300310014 00020 1110241Hordain             0430000Neuville/Escaut     0471001LIEU SAINT AMAND    0450510005006005006590501300100000000000187      044871 1877    039486   041318   042794   046977   043974   048296   049886   046686   046118   046934   043300   042518               130435431 1907    120434781 1887    110446971 1907    100435111 1887    090000001    0    036881   039508   040251   044617   043971   046558   050070   045395   046419   045167   042626   041050                                      
590501300210014 00020 1110241Neuville/Escaut     0430000Hordain             0471001LIEU SAINT AMAND  B 0450510005006005006590501300100000000000187      022485 1807    019755   020834   021397   023677   022150   024367   025536   022504   022877   023498   021590   021563               130219031 1797    120217311 1807    110223481 1827    100218111 1817    090000001    0    018426   019826   020543   022162   022232   023809   025990   022277   022952   022629   021219   020773                                      
590501300110014 00020 1110241Hordain             0430000Neuville/Escaut     0471001LIEU SAINT AMAND    0450510005006005006590501300100000000000187      022386 2017    019731   020484   021397   023300   021824   023929   024350   024182   023241   023436   021710   020955               130216401 2017    120217471 2037    110223491 2067    100217001 2037    090000001    0    018455   019682   019708   022455   021739   022749   024080   023118   023467   022538   021407   020277                                      
590501210310014 00220 1110241Tourcoing Nord      0220440Belgique            0240983NEUVILLE/FERRAIN    0240564002543002543590501300100000000000187      000000                                                                                                                                 130000001         120000001    0    110000001    0    100341221 2548    090361021 2200                                                                                                                                                   
590501210210014 00220 1110241Belgique            0220440Tourcoing Nord      0240983NEUVILLE/FERRAIN    0240564002543002543590501300100000000000187      000000                                                                                                                                 130000001         120000001    0    110000001    0    100171721 2848    090186381 2470                                                                                                                                                   
590501210110014 00220 1110241Tourcoing Nord      0220440Belgique            0240983NEUVILLE/FERRAIN    0240564002543002543590501300100000000000187      000000                                                                                                                                 130269521 1238    120252691 1338    110174171 1928    100169501 1948    090174641 1920    023423   026230   025593   027525   027805   027225   029793   030395   027419   027239   025872   024839                                      
590501200310014 00220 1110241Tourcoing Nord      0220440Belgique            0240983NEUVILLE/FERRAIN    0240564002543002543590501300100000000000187      000000                                                                                                                                 130000001         120000001    0    110000001    0    100000001    0    090000001    0                                                                                                                                                   
590501200210014 00220 1110241Belgique            0220440Tourcoing Nord      0240983NEUVILLE/FERRAIN    0240564002543002543590501300100000000000187      000000                                                                                                                                 130000001         120000001    0    110000001    0    100000001    0    090000001    0                                                                                                                                                   
590501200110014 00220 1110241Tourcoing Nord      0220440Belgique            0240983NEUVILLE/FERRAIN    0240564002543002543590501300100000000000187      000000                                                                                                                                 130000001         120000001    0    110000001    0    100000001    0    090000001    0                                                                                                                                                   
590500800310014 00220 1110441Echang RN 350       0140055Tourcoing Nord      0220440MOUVAUX             0160050008382008382590501300100000000000187      000000                                                                                                                                 130000001         120926821 1427    110941841 1447    100938571 1447    090000001    0                                                                                                                                                   
590500800210014 00220 1110441Tourcoing Nord      0140055Echang. RN 350      0220440MOUVAUX             0160050008382008382590501300100000000000187      000000                                                                                                                                 130000001         120470871 1497    110477951 1527    100476941 1527    090000001    0                                                                                                                                                   
590500800110014 00220 1110441Echang. RN 350      0140055Tourcoing Nord      0220440MOUVAUX             0160050008382008382590501300100000000000187      000000                                                                                                                                 130000001         120455951 1267    110463891 1277    100461631 1277    090000001    0                                                                                                                                                   
590500600310014 00220 1110431Wasquehal           0100054Echang RN 350       0140055PETIT WASQUEHAL     0100655003427003427590501300100000000000187      000000                                                                                                                                 130924751         121012091    0    110000001    0    100000001    0    090000001    0                                                                                                                                                   
590500600210014 00220 1110431Echang RN 350       0100054Wasquehal           0140055PETIT WASQUEHAL     0100655003427003427590501300100000000000187      000000                                                                                                                                 130405331         120499611    0    110000001    0    100000001    0    090000001    0                                                                                                                                                   
590500600110014 00220 1110431Wasquehal           0100054Echang RN 350       0140055PETIT WASQUEHAL     0100655003427003427590501300100000000000187      000000                                                                                                                                 130519421         120512481    0    110000001    0    100000001    0    090000001    0                                                                                                                                                   
590500500310014 00220 1810431Babylone            0090000Wasquehal           0100054Echang.Babylone     0090215001046001046590500600100000000000187      000000                                                                                                                                 130000008         120000008    0    110000008    0    100000008    0    090000008    0                                                                                                                                                   
590500400310014 00010 1110731Ronchin             2080350Lille               2101325RONCHIN             2090300002989002989590500600100000000000297      168657                                                                                                                                 131808391         121760791    0    110000001    0    100000001    0    090000001    0                                                                                                                                                   
590500400210014 00010 1110731Lille               2080350Ronchin             2101325RONCHIN             2090300002989002989590500600100000000000297      087904                                                                                                                                 130884891         120864391    0    110000001    0    100000001    0    090000001    0                                                                                                                                                   
590500400110014 00010 1110731Ronchin             2080350Lille               2101325RONCHIN             2090300002989002989590500600100000000000297      080753                                                                                                                                 130923501         120896401    0    110000001    0    100000001    0    090000001    0                                                                                                                                                   
590500301310014 00010A1810231A 1                 0000000A 22                0001179Petit Ronchin       0000500001179001179          00000000001203      000000                                                                                                                                 130000008         120000008    0    110000008    0    100000008    0    090000008    0                                                                                                                                                   
590500300310014 00010 1110631Seclin              2010315Ronchin             2080350FACHES              2070050007043007043          00000000000187      000000                                                                                                                                 131470431         121396361    0    110000001    0    100000001    0    090000001    0                                                                                                                                                   
590500300210014 00010 1110631Ronchin             2010315Seclin              2080350FACHES              2070050007043007043          00000000000187      000000                                                                                                                                 130739831         120695611    0    110000001    0    100000001    0    090000001    0                                                                                                                                                   
590500300110014 00010 1110631Seclin              2010315Ronchin             2080350FACHES              2070050007043007043          00000000000187      000000                                                                                                                                 130730601         120700751    0    110000001    0    100000001    0    090000001    0                                                                                                                                                   
590500100310014 00010 1110431Carvin (limite 62)  0000000Seclin              2010315MARTINSART          2000400007890007890          62050040030187      110186                                                                                                                                 131096541 154     120997061    0    110000001    0    100000001    0    090000001    0                                                                                                                                                   
590500100210014 00010 1110431Seclin              0000000Carvin (limite 62)  2010315MARTINSART          2000400007890007890          62050040020187      055447                                                                                                                                 130553661 160     120452891    0    110000001    0    100000001    0    090000001    0                                                                                                                                                   
