560003000310014 01660 4110101ECH.DU CREVY        0330350ECH.RN 166          0410125N166_56 PLOERMESOL  0390370005742000000          00000000000698      020984 0847    017034   018372   018684   021831   021474   022964   024653   025268   022097   021105   019020   019120               130000001    0    120000001    0    110000001    0    100000001    0    090000001    0                                                                                                                                                   
560003000210014 01660 4110101ECH.DU CREVY        0330350ECH.RN 166          0410125N166_56 PLOERMESOL  0390370005742000000          00000000000698      010525 0837    008445   009273   009322   011167   010844   011431   012783   012254   010881   010681   009399   009729               130000001         120000001         110000001         100000001         090000001                                                                                                                                                        
560003000110014 01660 4110101ECH.DU CREVY        0330350ECH.RN 166          0410125N166_56 PLOERMESOL  0390370005742000000          00000000000698      010459 0867    008589   009099   009362   010664   010630   011533   011870   013014   011216   010424   009621   009391               130198171    0    120192251    0    110203661    0    100198671    0    090198481    0                                                                                                                                                   
560002902310014 01660 4810101ECH.DU COUDRAY      0290655ECH.DU CREVY        0330350SAINT ABRAHAM       0320000005728005728560002900300000000000698      016444    0                                                                                                                            130161288    0    120156478    0    110165768    0    100161708 0706    090176498    0                                                                                                                                                   
560002901310014 01660 4817001ECH.DU ROFO         0240745ECH.DU COUDRAY      0290655SAINT MARCEL        0280000004920004920560002900300000000000698      016262    0                                                                                                                            130159508    0    120154748    0    110163938    0    100159918    0    090159758    0                                                                                                                                                   
560002900310014 01660 4117001ECH.KERCHOUX        0160640ECH.DU ROFO         0240745N166_56 HOTEL       0230500007591000000560002900300000000000698      017268 0708    013538   014091   014666   017389   017100   019320   021566   021966   019017                     015005               130169361 0777    120164301 0797    110174051 0688    100169781 0678    090169611 0688    013331   014326   015012   016991   016696   018381   021381   022070   018198   016861   015790   013992                                      
560002900210014 01660 4117001ECH.KERCHOUX        0160640ECH.DU ROFO         0240745N166_56 HOTEL       0230500007591000000560002900300000000000698      008913 0638    007177   007543   007747   009479   009196   009615   011207   010710   009612   008866   007769   007932               130084751 0757    120083511 0777    110086711 0668    100083861 0668    090083981 0688    006550   007194   007580   008449   008581   009217   011046   010657   008758   008548   007791   007209                                      
560002900110014 01660 4117001ECH.KERCHOUX        0160640ECH.DU ROFO         0240745N166_56 HOTEL       0230500007591000000560002900300000000000698      008355 0868    006361   006548   006919   007910   007904   009705   010359   011256   009405                     007073               130084611 0807    120080791 0837    110087341 0728    100085921 0678    090085631 0688    006781   007132   007432   008542   008115   009164   010335   011413   009440   008313   007999   006783                                      
560002700310014 01660 4117001ECH.DU LIZIEC       0000000ECH.DE KERBOULARD   0160640N166_56 LESTENO     0040500017683000000560002900300000000000698      030247 0727    026565   027440   028144   029328   030173   031889   034214   034182   032111   030821   028663   029188               130296151 0707    120289921 0727    110289971 0737    100292241 1288    090290881 0598    025264   026427   026832   030083   030813   030190   033854   033973   031061   030070   028605   027945                                      
560002700210014 01660 4117001ECH.DU LIZIEC       0000000ECH.DE KERBOULARD   0160640N166_56 LESTENO     0040500017683000000560002900300000000000698      015135 2538    013153   013817   014106   014839   015139   016176   017492   016573   015863   015491   014186   014669               130148091 1658    120145651 1708    110144901 0608    100146591 0838    090146701 0548    012419   013201   013370   015218   015322   014886   017362   016682   015430   015361   014337   013987                                      
560002700110014 01660 4117001ECH.DU LIZIEC       0000000ECH.DE KERBOULARD   0160640N166_56 LESTENO     0040500017683000000560002900300000000000698      015112 0687    013412   013623   014038   014489   015034   015713   016722   017609   016248   015330   014477   014519               130148061 0737    120144271 0757    110145071 0767    100145651 2188    090144181 0698    012845   013226   013462   014865   015491   015304   016492   017291   015631   014709   014268   013958                                      
560002604310014 01650 4110101ECH. DU MOURILLON   1010640LIM FINISTERE       1090326N165_56 GESTEL      1030000007640000000560002900300000000000806      041604 0817    035958   037486   038532   042665   041386   043616   046580   049146   043315   042093   038687   039446               130414161 0837    120413201 0857    110419311 0867    100411781 0877    090412231 0867    035618   037523   038935   041686   043355   042371   046501   048947   042896   041387   038855   038542                                      
560002604210014 01650 4110101ECH. DU MOURILLON   1010640LIM FINISTERE       1090326N165_56 GESTEL      1030000007640000000560002900300000000000806      020721 0797    018080   018636   019255   021100   020542   021754   022798   024637   021707   020928   019457   019589               130206061 0827    120205771 0837    110208641 0847    100204411 0857    090204981 0867    017906   018726   019248   020731   021568   021003   022786   024446   021552   020431   019582   019124                                      
560002604110014 01650 4110101ECH. DU MOURILLON   1010640LIM FINISTERE       1090326N165_56 GESTEL      1030000007640000000560002900300000000000806      020883 0847    017878   018850   019277   021565   020844   021862   023782   024509   021608   021165   019230   019857               130208101 0877    120207431 0887    110210671 0897    100207371 0907    090207251 0877    017712   018797   019687   020955   021787   021368   023715   024501   021344   020956   019273   019418                                      
560002603310014 01650 4117001ECH.DE KERDUAL      0950025ECH.DU MOURILLON    0980390N165_56 RAD1 LORIENT0980990005814000000560002900329000000000698      000000    0                                                                                                                            130456891 0867    120466941 0837    110484431 0937    100507301    0    090507401    0    045626   048020   049626   050330   045387   051148   051083   044094   027961   041407   046406   047184                                      
560002603210014 01650 4117001ECH.DE KERDUAL      0950025ECH.DU MOURILLON    0980390N165_56 RAD1 LORIENT0980990005814000000560002900329000000000698      000000    0                                                                                                                            130222231 0877    120216871 0827    110241831 0937    100253721    0    090316971    0    023002   024066   024663   023915   018742   025046   025652   024992   008290   018457   025567   024265                                      
560002603110014 01650 4117001ECH.DE KERDUAL      0950025ECH.DU MOURILLON    0980390N165_56 RAD1 LORIENT0980990005814000000560002900329000000000698      000000    0                                                                                                                            130234661 0837    120250071 0837    110242601 0927    100253581 0847    090231311    0    022624   023954   024963   026415   026645   026102   025431   019102   019671   022950   020839   022919                                      
560002502310014 01650 4117001LE TOULDOUAR        0920950ECH.DE KERDUAL      0950025N165_56 RAD4 KERPONT0940890002075000000560002900300000000000698      065790 0877    059681   062437   061865   068120   066048   068158   072313   072814   065225   067410   061778   063319               130427841 0687    120589411 0687    110801501 0827    100726361 0747    090782591    0    040440   042260   043266   044954   040404   045705   048156   047404   030387   039434   046920   043916                                      
560002502210014 01650 4117001LE TOULDOUAR        0920950ECH.DE KERDUAL      0950025N165_56 RAD4 KERPONT0940890002075000000560002900300000000000698      031544 0837    028638   029950   029427   032421   031647   032708   034325   036438   031287   031912   029669   029954               130290771 0757    120323051 0707    110400391 0837    100360211 0747    090465361    0    028815   030131   030864   030928   025963   031933   033154   032463   015656   025449   032685   030815                                      
560002502110014 01650 4117001LE TOULDOUAR        0920950ECH.DE KERDUAL      0950025N165_56 RAD4 KERPONT0940890002075000000560002900300000000000698      034246 0937    031043   032487   032438   035699   034401   035450   037988   036376   033938   035498   032109   033365               130137071 0367    120266361 0627    110401111 0807    100366151 0747    090342771    0    011625   012129   012402   014026   014441   013772   015002   014941   014731   013985   014235   013101                                      
560002500310014 01650 4117001ECH.PRE AUX ETANGS  0870490LE TOULDOUAR        0920950N165_56 LOCOYSOL    0890000005124000000560002900300000000000698      051803 0987    045290   046591   047112   051962   053031   053486   058490   061323   053929   053767   047669   048475               130510381 1037    120501541 1037    110503731 1037    100497961 1027    090486411    0    042759   045609   047370   051064   052659   052562   057639   060589   052958   051436   048596   048731                                      
560002500210014 01650 4117001ECH.PRE AUX ETANGS  0870490LE TOULDOUAR        0920950N165_56 LOCOYSOL    0890000005124000000560002900300000000000104      026356 0987    023033   023687   023760   026174   027159   027162   029252   031665   027637   027370   024548   024569               130259591 1037    120255021 1037    110255711 1047    100252771 1027    090246831    0    021939   023234   023849   025983   026863   026669   028823   031151   027153   025916   024897   024799                                      
560002500110014 01650 4117001ECH.PRE AUX ETANGS  0870490LE TOULDOUAR        0920950N165_56 LOCOYSOL    0890000005124000000560002900300000000000104      025447 0977    022257   022904   023352   025788   025872   026324   029238   029658   026292   026397   023121   023906               130250791 1027    120246521 1027    110248021 1037    100245191 1027    090239581    0    020820   022375   023521   025081   025796   025893   028816   029438   025805   025520   023699   023932                                      
560002400310014 01650 4117001ECH.OUEST AURAY     0670310ECH.PRE AUX ETANGS  0870490N165_56 CRANICSOL   0720370021242000000560002900300000000000698      032095 0967    027838   029409   030589   032338   031927   032211   035965   038788   031968   031926   030873   031006               130321611 0967    120316661 0957    110316841 0947    100323731 0917    090311461    0    027015   029166   029877   032970   032356   030984   035216   039996   034523   033256   030481   029819                                      
560002400210014 01650 4117001ECH.OUEST AURAY     0670310ECH.PRE AUX ETANGS  0870490N165_56 CRANICSOL   0720370021242000000560002900300000000000698      015462 0957    013984   014694   015282   016108   015491   014427   016870   018737   013936   014920   015477   015477               130157611 0937    120152721 0947    110153561 0927    100162021 0897    090157161    0    013400   014625   014830   016546   015377   013841   016364   020158   017342   016456   015195   014886                                      
560002400110014 01650 4117001ECH.OUEST AURAY     0670310ECH.PRE AUX ETANGS  0870490N165_56 CRANICSOL   0720370021242000000560002900300000000000698      016633 0987    013854   014715   015307   016230   016436   017784   019095   020051   018032   017006   015396   015529               130164001 1027    120163941 0997    110163281 0987    100161711 0977    090154301    0    013615   014541   015047   016424   016979   017143   018852   019838   017181   016800   015286   014933                                      
560002300310014 01650 4117001ECH.KERBOIS         0650400ECH.OUEST AURAY     0670310N165_56 TOULCHISOL  0660750002387000000560002900300000000000698      037145 0857    031094   032518   034226   037672   037258   039568   042734   044341   040104   037367   034152   034362               130000001    0    120000001    0    110000001    0    100000001    0    090000001    0                                                                                                                                                   
560002300210014 01650 4117001ECH.KERBOIS         0650400ECH.OUEST AURAY     0670310N165_56 TOULCHISOL  0660750002387000000560002900300000000000698      018348 0867    015354   016011   016855   018618   018405   019597   021196   022112   019877   018316   016837   016827               130000001    0    120000001    0    110000001    0    100000001    0    090000001    0                                                                                                                                                   
560002300110014 01650 4117001ECH.KERBOIS         0650400ECH.OUEST AURAY     0670310N165_56 TOULCHISOL  0660750002387000000560002900300000000000698      018797 0837    015740   016507   017371   019054   018853   019971   021538   022229   020227   019051   017315   017535               130366601 0877    120358651 0897    110359331 0887    100337901    0    090342941    0    030313   032441   033956   036794   037698   038230   042389   044291   039561   036890   033871   033141                                      
560002200310014 01650 4117001ECH.POULBEN         0630350ECH.KERBOIS         0650400N165_56 KERBOISOL   0640200002033000000560002900300000000000698      047441 0777    038246   040391   042543   048150   048241   051529   057487   060797   050302   046759   041962   042281               130000001    0    120000001    0    110000001    0    100000001    0    090000001    0                                                                                                                                                   
560002200210014 01650 4117001ECH.POULBEN         0630350ECH.KERBOIS         0650400N165_56 KERBOISOL   0640200002033000000560002900300000000000698      023749 0767    019328   020130   021292   023947   024069   025898   028500   030748   025296   023235   021146   021096               130000001         120000001         110000001         100000001         090000001                                                                                                                                                        
560002200110014 01650 4117001ECH.POULBEN         0630350ECH.KERBOIS         0650400N165_56 KERBOISOL   0640200002033000000560002900300000000000698      023692 0797    018918   020261   021251   024203   024172   025631   028987   030049   025006   023524   020816   021185               130464841 0807    120453651 0797    110452621 0807    100439351 1006    090449161    0    036991   039608   041833   046700   048795   048908   057149   060719   048950   045404   041411   040672                                      
560002100310014 01650 4117001ECH.EST AURAY       0600750ECH.POULBEN         0630350N165_56 KERPLOUZ    0610500002714000000560002900300000000000698      049578 0777    038939   041209   043967   050095   050147   053779   060306   064244   052513   049388   046343   043341               130489141 0807    120466961 0787    110475671 0757    100491891    0    090485181    0    037862   040556   043229   048446   050920   050837   060185   064285   050906   050176   046816   041979                                      
560002100210014 01650 4117001ECH.EST AURAY       0600750ECH.POULBEN         0630350N165_56 KERPLOUZ    0610500002714000000560002900300000000000698      024943 0777    019705   020772   022094   024983   025198   027153   029992   032633   026557   024691   023474   021741               130246171 0807    120230771 0797    110239791 0747    100257661    0    090253921    0    019289   020467   021548   024401   025687   025644   029854   032508   025884   025168   023531   021052                                      
560002100110014 01650 4117001ECH.EST AURAY       0600750ECH.POULBEN         0630350N165_56 KERPLOUZ    0610500002714000000560002900300000000000698      024635 0797    019234   020437   021873   025112   024949   026626   030314   031611   025956   024697   022869   021600               130242971 0807    120236191 0777    110235881 0797    100234231    0    090231261    0    018573   020089   021681   024045   025233   025193   030331   031777   025022   025008   023285   020927                                      
560002001310014 01650 4117001non renseigné       0480400non renseigné       0600750N165_56 LUSCANEN    0490100012358000000560002900300000000000415      053780 0707    044661   047130   048920   055207   054818   057970   062925   065493   056899   053500   048466   048826               130000001    0    120000001    0    110000001    0    100000001    0    090000001    0                                                                                                                                                   
560002001210014 01650 4117001non renseigné       0480400non renseigné       0600750N165_56 LUSCANEN    0490100012358000000560002900300000000000415      027307 0707    022951   023885   024886   027804   027695   029451   031512   033524   029020   027017   024845   024819               130000001         120000001         110000001         100000001         090000001                                                                                                                                                        
560002001110014 01650 4117001non renseigné       0480400non renseigné       0600750N165_56 LUSCANEN    0490100012358000000560002900300000000000415      026473 0707    021710   023245   024034   027403   027123   028519   031413   031969   027879   026483   023621   024007               130000001    0    120000001    0    110000001    0    100000001    0    090000001    0                                                                                                                                                   
560002000310014 01650 4117001ECH.DU FOURCHENE    0480400ECH.EST AURAY       0600750N165_56 PLOEREN     0510000012358000000560002900300000000000698      055971 0687    046713   049209   050921   057378   056887   059930   065170   067753   059278   055732   050789   051355               130547091 0657    120540041 0768    110541581 0658    100545921 0848    090538491 0908    045556   048207   051040   055479   057317   057645   059414   067586   057695   055532   050621   049868                                      
560002000210014 01650 4117001ECH.DU FOURCHENE    0480400ECH.EST AURAY       0600750N165_56 PLOEREN     0510000012358000000560002900300000000000698      027860 0717    023444   024405   025327   028326   028210   029976   032115   034218   029595   027555   025459   025416               130274801 0647    120271371 0568    110268471 0578    100272081 0568    090268131 0568    023138   024245   025393   027864   028904   028833   029692   033940   029105   027931   025473   024972                                      
560002000110014 01650 4117001ECH.DU FOURCHENE    0480400ECH.EST AURAY       0600750N165_56 PLOEREN     0510000012358000000560002900300000000000698      028111 1438    023269   024804   025594   029052   028677   029954   033055   033535   029683   028177   025330   025939               130272291 1628    120268671 1178    110273111 0828    100273841 1388    090270361 1598    022418   023962   025647   027615   028413   028812   029722   033646   028590   027601   025148   024896                                      
560001900310014 01650 4117001ECH.DE MENIMUR      0460290ECH.DU FOURCHENE    0480400N165_56 KERLANN     0470575002085000000560002900300000000000698      065319 0747    055672   058212   060317   067021   066398   069364   074758   076389   068288   065693   059883   061258               130642641 0757    120635991 0767    110634331 0767    100624721 0847    090623761 0608    054184   057071   059763   064843   067023   066977   074696   076284   066787   063897   059708   059275                                      
560001900210014 01650 4117001ECH.DE MENIMUR      0460290ECH.DU FOURCHENE    0480400N165_56 KERLANN     0470575002085000000560002900300000000000698      031609 0737    026844   027909   029034   032128   032000   033699   036202   038179   033263   031488   028935   029325               130310471 0747    120306641 0767    110309121 0757    100299591 0887    090301151 0598    026153   027463   028408   031245   032536   032303   036013   037891   032655   030439   028842   028292                                      
560001900110014 01650 4117001ECH.DE MENIMUR      0460290ECH.DU FOURCHENE    0480400N165_56 KERLANN     0470575002085000000560002900300000000000698      033710 0757    028828   030303   031283   034893   034398   035665   038556   038210   035025   034205   030948   031933               130332171 0777    120329351 0787    110325211 0767    100325131 0767    090322611 0628    028031   029608   031355   033598   034487   034674   038683   038393   034132   033458   030866   030983                                      
560001801310014 01650 4117001non renseigné       0420900non renseigné       0460290N165_56 VERDUNSOL   0430969003392000000560002900300000000000415      064086 0797    058844   057311   056352   065093   064631   067727   072922   074879   066326   063967   058801   061578               130000001    0    120000001    0    110000001    0    100000001    0    090000001    0                                                                                                                                                   
560001801210014 01650 4117001non renseigné       0420900non renseigné       0460290N165_56 VERDUNSOL   0430969003392000000560002900300000000000415      031929 0797    029078   028342   027903   032268   032104   033847   036294   038314   033196   031614   029382   030492               130000001         120000001         110000001         100000001         090000001                                                                                                                                                        
560001801110014 01650 4117001non renseigné       0420900non renseigné       0460290N165_56 VERDUNSOL   0430969003392000000560002900300000000000415      032157 0807    029766   028969   028449   032825   032527   033880   036628   036565   033130   032353   029419   031086               130000001    0    120000001    0    110000001    0    100000001    0    090000001    0                                                                                                                                                   
560001800310014 01650 4117001ECH.DU LIZIEC       0420900ECH.DE MENIMUR      0460290N165_56 VANNES      0450300003392000000560002900300000000000698      063333 0777    053758   056015   058410   065024   064495   067572   072808   074698   066168   063700   057588   059143               130622091 0797    120608891 0817    110607931 0797    100595891 0807    090604771 0778    052042   054798   057454   062780   064787   064527   072990   074726   064848   062045   057689   057136                                      
560001800210014 01650 4117001ECH.DU LIZIEC       0420900ECH.DE MENIMUR      0460290N165_56 VANNES      0450300003392000000560002900300000000000698      031545 0747    026793   027686   029036   032192   031979   033712   036182   038187   033075   031438   028703   029231               130309661 0767    120305831 0787    110307041 0787    100297601 0797    090304301 0778    025982   027223   028244   031245   032405   032007   036120   037932   032555   030496   028803   028241                                      
560001800110014 01650 4117001ECH.DU LIZIEC       0420900ECH.DE MENIMUR      0460290N165_56 VANNES      0450300003392000000560002900300000000000698      031788 0827    026965   028329   029374   032832   032516   033860   036626   036511   033093   032262   028885   029912               130312431 0847    120303061 0877    110300891 0817    100298291 0817    090300471 0768    026060   027575   029210   031535   032382   032520   036870   036794   032293   031549   028886   028895                                      
560001701310014 01650 4117001non renseigné       0380140non renseigné       0420900N165_56 LEONARDSOL  0400777002987000000560002900300000000000415      047719 0887    038054   040089   042780   047980   048265   050988   057155   060076   055947            041711   041318               130000001    0    120000001    0    110000001    0    100000001    0    090000001    0                                                                                                                                                   
560001701210014 01650 4117001non renseigné       0380140non renseigné       0420900N165_56 LEONARDSOL  0400777002987000000560002900300000000000415      024205 0887    019359   020333   021663   024193   024336   025881   029009   030549   028391            021177   021084               130000001         120000001         110000001         100000001         090000001                                                                                                                                                        
560001701110014 01650 4117001non renseigné       0380140non renseigné       0420900N165_56 LEONARDSOL  0400777002987000000560002900300000000000415      023514 0887    018695   019756   021117   023787   023929   025107   028146   029527   027556            020534   020234               130000001    0    120000001    0    110000001    0    100000001    0    090000001    0                                                                                                                                                   
560001700310014 01650 4117001ECH.ST LEONARD      0380140ECH.DU LIZIEC       0420900N165_56 ROHICSOL    0420280002987000000560002900300000000000698      047558 0857    038027   040062   042736   047924   048225   050917   057101   060131   049713   047120   043081   044988               130462881 0867    120450251 0857    110457501 0867    100427971    0    090434101    0    036913   039270   041789   046360   048415   048182   056890   060165   048290   045514   041875   041105                                      
560001700210014 01650 4117001ECH.ST LEONARD      0380140ECH.DU LIZIEC       0420900N165_56 ROHICSOL    0420280002987000000560002900300000000000698      024121 0867    019357   020335   021654   024175   024330   025866   029023   030671   025283   023773   021888   022759               130234161 0867    120227961 0867    110231451 0867    100196661    0    090201091    0    018712   019903   020948   023542   024455   024302   028818   030469   024541   022938   021250   020778                                      
560001700110014 01650 4117001ECH.ST LEONARD      0380140ECH.DU LIZIEC       0420900N165_56 ROHICSOL    0420280002987000000560002900300000000000698      023437 0857    018670   019727   021082   023749   023895   025051   028078   029460   024430   023347   021193   022229               130228721 0857    120222291 0847    110226051 0867    100231311    0    090233011    0    018201   019367   020841   022818   023960   023880   028072   029696   023749   022576   020625   020327                                      
560001600310014 01650 4117001ECH.RD 780          0380140ECH.ST LEONARD      0390920N165_56 POTEAU      0390000001780000000560002900300000000000698      054561 0787    044286   046672   049321   055590   055452   058755   065345   068948   057567   054093   048632   049389               130536601 0797    120507071 0807    110000001    0    100000001    0    090531701 0498    043229   045851   048659   053706   056115   056133   065331   069531   056117   052487   048273   047718                                      
560001600210014 01650 4117001ECH.RD 780          0380140ECH.ST LEONARD      0390920N165_56 POTEAU      0390000001780000000560002900300000000000698      027228 0807    022123   023239   024579   027692   027621   029413   032629   034539   028860   026876   024267   024556               130267471 0817    120264711 0827    110000001    0    100000001    0    090267501 0578    021623   022916   024079   026886   027944   027957   032637   034715   028018   026027   024063   023727                                      
560001600110014 01650 4117001ECH.RD 780          0380140ECH.ST LEONARD      0390920N165_56 POTEAU      0390000001780000000560002900300000000000698      027333 0757    022163   023433   024742   027898   027831   029342   032716   034409   028707   027217   024365   024833               130269131 0767    120242361 0777    110000001    0    100000001    0    090264201 0338    021606   022935   024580   026820   028171   028176   032694   034816   028099   026460   024210   023991                                      
560001500310014 01650 4817001LA CROIX DE LA LANDE0310880ECH.RD 780          0380140THEIX               0380000006375006375560001800300000000000698      041189                                                                                                                                 130404588         120396178         110395668         100387648         090393568                                                                                                                                                        
560001500210014 01650 4817001LA CROIX DE LA LANDE0310880ECH.RD 780          0380140THEIX               0380000006375006375560001800200000000000698      021449                                                                                                                                 130210568         120207968         110208798         100202388         090206948                                                                                                                                                        
560001500110014 01650 4817001LA CROIX DE LA LANDE0310880ECH.RD 780          0380140THEIX               0380000006375006375560001800100000000000698      019740                                                                                                                                 130194028         120188218         110186878         100185268         090186628                                                                                                                                                        
560001400310014 01650 4117001ECH.BEL AIR         0060470CROIX DE LA LANDE   0310880N165_56 ARZAL       0130000024218000000560001800100000000000698      028334 0898    020728   022304   024621   027917   029780   031173   035488   041830   030141   026874   023788   024769               130278681 1097    120272011 1127    110273951 0958    100269021 0958    090265341 0958    020141   021840   024270   027488   029813   029150   035272   041498   029409   027992   023301   023596                                      
560001400210014 01650 4117001ECH.BEL AIR         0060470CROIX DE LA LANDE   0310880N165_56 ARZAL       0130000024218000000560001800100000000000698      013078 0948    009633   010072   011367   012714   013664   014576   016138   019714   014153   012178   011133   011308               130129011 1127    120125971 1157    110127281 0998    100125041 1008    090122711 1008    009427   010122   010935   012779   013824   013381   016130   019486   013748   012808   010939   010945                                      
560001400110014 01650 4117001ECH.BEL AIR         0060470CROIX DE LA LANDE   0310880N165_56 ARZAL       0130000024218000000560001800100000000000698      015256 0818    011095   012232   013254   015203   016116   016597   019350   022116   015988   014696   012655   013461               130149671 1047    120146041 1077    110146671 0888    100143981 0878    090142631 0868    010714   011718   013335   014709   015989   015769   019142   022012   015661   015184   012362   012651                                      
560001300310014 01650 4117001RD 34               0020300ECH.BEL AIR         0060470N165_56 PONT-56     0040500002150000000560001800100000000000698      025668 0988    019001   020113   022557   024990   026850   028205   032231   037331   026846   025019   021614   022693               130245971 1197    120246361 1267    110247311 1118    100237291 1128    090228561 1128    017003   016237   018306   024806   026775   026023   030994   036850   027424   026853   021278   021840                                      
560001300210014 01650 4117001RD 34               0020300ECH.BEL AIR         0060470N165_56 PONT-56     0040500002150000000560001800100000000000698      012749 0948    009592   009924   011217   012160   013253   014195   015751   018808   013484   012230   010936   011157               130124271 1197    120122581 1257    110122181 1118    100119461 1118    090115541 1118    008573   008255   008988   012458   013358   012970   015290   018482   014397   014523   010711   010737                                      
560001300110014 01650 4117001RD 34               0020300ECH.BEL AIR         0060470N165_56 PONT-56     0040500002150000000560001800100000000000698      012919 1058    009409   010189   011340   012830   013597   014010   016480   018523   013362   012789   010678   011536               130121701 1197    120123781 1287    110125131 1118    100117831 1148    090113021 1148    008430   007982   009318   012348   013417   013053   015704   018368   013027   012330   010567   011103                                      
560001200310014 01650 4817001LOIRE ATLANTIQUE    0000000RD 34               0020000LE RODOIR           0010000001000001000440002600300000000000698      025781                                                                                                                                 130252048         120247158         110249078         100244278         090239098                                                                                                                                                        
560001000310014 00240 4817001ECH.KERBLAYO        0900240ECH.PRE AUX ETANGS  0930938ST GILLES           0930000003724003724560000900300000000000698      022016                                                                                                                                 130228818         120225118         110226578         100222298         090217488                                                                                                                                                        
560000900310014 00240 4117001ECH.LANGUIDIC       0840940ECH.KERBLAYO        0900240N24_56 PONPACH      0880500005182000000560000900300000000000698      022891 1038    021177   022403   021754   022765   023179   025593   026536   024777   022408   022362   020564   021123               130237901 1257    120234051 1047    110235561 1148    100231101 1148    090226091 1148    020279   021489   022420   023846   024660   024370   026437   027275   024515   024283   022886   022821                                      
560000900210014 00240 4117001ECH.LANGUIDIC       0840940ECH.KERBLAYO        0900240N24_56 PONPACH      0880500005182000000560000900300000000000698      010774 1018    010662   011114   010698   009968   011097   012868   012744   011674   010126   009857   009248   009237               130118391 1287    120116811 1237    110117421 1168    100114861 1148    090112281 1158    010253   010665   011035   011804   012368   012055   012756   013861   012405   011968   011542   011262                                      
560000900110014 00240 4117001ECH.LANGUIDIC       0840940ECH.KERBLAYO        0900240N24_56 PONPACH      0880500005182000000560000900300000000000698      012117 1078    010515   011289   011056   012797   012082   012725   013792   013103   012282   012505   011316   011886               130119511 1197    120117241 0677    110118141 1088    100116241 1138    090113811 1128    010026   010824   011385   012042   012292   012315   013681   013414   012110   012315   011344   011559                                      
560000700310014 00240 4817001ECH.RD 768          0710064ECH.LANGUIDIC       0840935BAUD / OUEST        0800000013519013519560000900300000000000698      018649                                                                                                                                 130193828         120190698         110191938         100188308 1200    090186478    0                                                                                                                                                   
560000601310014 00240 4817001ECH.RD 767          0560126ECH.RD 768          0710064BAUD / EST          0680000013435013435560000400300000000000299      014505                                                                                                                                 130142488         120141268         110143868         100144508 1200    090138708    0                                                                                                                                                   
560000600310014 00240 4117001LA POINTE           0390410ECH.RD 767          0560130N24_56 MOREAC       0550000017082000000560000400300000000000698      015669    0    012910   013526   014138   016628   015690   016639   017984   019385   016105   015920   014203   014722               130153491 1487    120151441 1497    110153021 1517    100000001    0    090147141 1507    012188   013129   014157   014610   016139   015322   017898   019369   016395   015800   014494   014447                                      
560000600210014 00240 4117001LA POINTE           0390410ECH.RD 767          0560130N24_56 MOREAC       0550000017082000000560000400300000000000698      007924 1417    006646   006809   007183   008206   007859   008516   008622   010092   008336   007948   007296   007493               130076711 1467    120075691 1477    110076861 1487    100000001    0    090073211 1477    006262   006562   006959   007017   008317   007485   008478   009955   008414   007812   007483   007190                                      
560000600110014 00240 4117001LA POINTE           0390410ECH.RD 767          0560130N24_56 MOREAC       0550000017082000000560000400300000000000698      007745    0    006264   006717   006955   008422   007831   008123   009362   009293   007769   007972   006907   007229               130076781 1537    120075751 1557    110076161 1587    100000001    0    090073931 1567    005926   006567   007198   007593   007822   007837   009420   009414   007981   007988   007011   007257                                      
560000500310014 00240 4817001ECH RD 764          0340445LA POINTE           0390150JOSSELIN OUEST      0350000004831004831560000400300000000000698      017148                                                                                                                                 130168458         120167018         110170088         100170838         090166008                                                                                                                                                        
560000400310014 00240 4117001ECH.OUEST PLOERMEL  0240542ECH RD 764          0340450N24_56 PLOERMEL     0260100012486000000560000400300000000000498      019012 1297    016032   016753   017298   020052   019193   020196   021331   022622   019610   019458   017737   017694               130186751 1297    120185151 1317    110188551 1327    100189381 1337    090184021 1317    015263   016384   017469   018682   019734   019130   021207   022343   019361   018856   017648   017804                                      
560000400210014 00240 4117001ECH.OUEST PLOERMEL  0240542ECH RD 764          0340450N24_56 PLOERMEL     0260100012486000000560000400300000000000498      009483 1287    008082   008303   008637   009779   009466   010141   010126   011568   009915   009541   009114   009048               130092591 1277    120091671 1297    110093301 1297    100093391 1317    090090981 1307    007721   008112   008516   009202   009890   009404   010097   011400   009829   009170   008925   008741                                      
560000400110014 00240 4117001ECH.OUEST PLOERMEL  0240542ECH RD 764          0340450N24_56 PLOERMEL     0260100012486000000560000400300000000000498      009529 1337    007950   008450   008661   010273   009727   010055   011205   011054   009695   009917   008623   008646               130094161 1337    120093481 1357    110095251 1367    100095991 1377    090093041 1327    007542   008272   008953   009480   009844   009726   011110   010943   009532   009686   008723   009063                                      
560000300310014 00240 4817001ECH.RN 166          0200640ECH.OUEST PLOERMEL  0220600ROCADE PLOERMEL     0200800001960001960560000400300000000000498      013751                                                                                                                                 130135088         120133938         110136398         100137008         090133138                                                                                                                                                        
560000200310014 00240 4117001RD 766 E            0191300ECH. RN 166         0200680N24_56 STANTOINESOL 0200300001253000000560000400300000000000498      030592 1207    023985   025799   026957   032209   031178   033487   036649   038824   031883   030766   027287   027699               130000001    0    120000001    0    110000001    0    100000001    0    090000001    0                                                                                                                                                   
560000200210014 00240 4117001RD 766 E            0191300ECH. RN 166         0200680N24_56 STANTOINESOL 0200300001253000000560000400300000000000498      015449 1207    012376   013016   013716   015857   015582   017118   017576   020325   016491   015348   014077   013729               130000001    0    120000001    0    110000001    0    100000001    0    090000001    0                                                                                                                                                   
560000200110014 00240 4117001RD 766 E            0191300ECH. RN 166         0200680N24_56 STANTOINESOL 0200300001253000000560000400300000000000498      015143 1207    011609   012783   013241   016352   015596   016369   019073   018499   015392   015418   013210   013970               130296111    0    120292311    0    110300791    0    100295261    0    090291641    0                                                                                                                                                   
560000100310014 00240 4117001ILE ET VILAINE      0020635RD 766 E            0191300N24_56 PORCARO      0080000017082000000560000400335000140010498      023273 1077    018795   018590   019868   024551   023794   025532   028376   031014   023937   022926   020441   021044               130226501 1087    120223591 1127    110230071 1137    100225841 1107    090223071 1077    018073   018012   020151   022753   025298   023045   027939   030387   023666   021744   020126   020126                                      
560000100210014 00240 4117001ILE ET VILAINE      0020635RD 766 E            0191300N24_56 PORCARO      0080000017082000000560000400335000140010498      011676 1087    009810   009538   010033   011889   011758   013005   013269   016271   012367   011252   010527   010225               130113231 1097    120111971 1127    110114601 1147    100112861 1107    090111501 1077    009152   008959   009737   011248   012896   011413   013158   015801   012388   010518   010439   009941                                      
560000100110014 00240 4117001ILE ET VILAINE      0020635RD 766 E            0191300N24_56 PORCARO      0080000017082000000560000400335000140010498      011597 1047    008985   009052   009835   012662   012036   012527   015107   014743   011570   011674   009914   010819               130113271 1057    120111621 1127    110115471 1107    100112981 1107    090111571 1067    008921   009053   010414   011505   012402   011632   014781   014586   011278   011226   009687   010185                                      
530016266310014 01620 4843001Ent.Mayenne         0650240N12 x D35 Malécot   0670898Agglo Mayenne       0660000002659000000530016258300000000000190      017351    0                                                                                                                            130175318    0    120180948    0    110181688 1006    100211768    0    090206638    0                                                                                                                                                   
530016265310014 01620 4813001D 24 Moulay         0630540Entrée de Mayenne   0650240Moulay              0650000001700000000530016258300000000000190      021626    0                                                                                                                            130218338    0    120188578    0    110189348    0    100186228    0    090181718    0                                                                                                                                                   
530016265210014 01620 4813001D 24 Moulay         0630540Entrée de Mayenne   0650240Moulay              0650000001700000000530016258200000000000190      012553    0                                                                                                                            130126118    0    120000008    0    110000008    0    100000008    0    090000008    0                                                                                                                                                   
530016265110014 01620 4813001D 24 Moulay         0630540Entrée de Mayenne   0650240Moulay              0650000001700000000530016258100000000000190      009073    0                                                                                                                            130092228    0    120000008    0    110000008    0    100000008    0    090000008    0                                                                                                                                                   
530016258310014 01620 4110101D 131 Louverné      0430754D  24 Moulay        0630540N162_53 BERRY       0570812019866000000530016258100000000000494      012689 1408    012494   012707   012179   012913   012439   013134   012760   011330   013621   013409   012674   012666               130128201 1428    120132311 1418    110132851 1328    100130661 1248    090127491 1268    012131   012974   012942   013289   012438   012300   012232   011244   014061   013857   013446   013001                                      
530016258210014 01620 4110101D 131 Louverné      0430754D  24 Moulay        0630540N162_53 BERRY       0570812019866000000530016258100000000000494      006498 1348    006233   006488   006429   006893   006538   006772   006412   005595   006814   006826   006482   006529               130065281 1368    120065931 1378    110066071 1258    100065081 1148    090061941 1218    006064   006456   006453   006644   006522   006727   006562   005682   007004   007067   006700   006479                                      
530016258110014 01620 4110101D 131 Louverné      0430754D  24 Moulay        0630540N162_53 BERRY       0570812019866000000530016258100000000000494      006191 1528    006261   006219   005750   006020   005901   006362   006348   005735   006807   006583   006192   006137               130062921 1558    120066381 1508    110066781 1458    100065581 1468    090065551 1368    006067   006518   006489   006645   005916   005573   005670   005562   007057   006790   006746   006522                                      
530016242310014 01620 4813001N 162 Gir.Besnier   0410030D 131 Gir.Louverné  0430754Niafles             0410500002724000000530016258300000000000190      025442    0                                                                                                                            130257118    0    120221948    0    110222858    0    100219188    0    090213878    0                                                                                                                                                   
530016242210014 01620 4813001N 162 Gir.Besnier   0410030D 131 Gir.Louverné  0430754Niafles             0410500002724000000530016258200000000000190      012553    0                                                                                                                            130126118    0    120000008    0    110000008    0    100000008    0    090000008    0                                                                                                                                                   
530016242110014 01620 4813001N 162 Gir.Besnier   0410030D 131 Gir.Louverné  0430754Niafles             0410500002724000000530016258100000000000190      012889    0                                                                                                                            130131008    0    120000008    0    110000008    0    100000008    0    090000008    0                                                                                                                                                   
530016239310014 01620 4110201N 157 Ménard        0380873N 162 Gir.Besnier   0410030N162_53 LAVAL ROC   0390500002157000000530016258100000000000191      019455 1477    018974   019708   019459   020567   018855   020669   020053   016412   020586   020565   018670   019042               130194631 1467    120186401 1517    110185391 1517    100180151 1517    090176881 1457    017617   018727   018542   020235   019501   020869   020569   016963   020755   021136   019663   019026                                      
530016239210014 01620 4110201N 157 Ménard        0380873N 162 Gir.Besnier   0410030N162_53 LAVAL ROC   0390500002157000000530016258100000000000191      009577 1457    009346   009702   009593   010097   009275   010139   009864   008102   010168   010113   009219   009355               130095891 1457    120092141 1497    110091441 1497    100087441 1507    090085441 1477    008710   009232   009152   010008   009629   010272   010113   008298   010199   010440   009664   009378                                      
530016239110014 01620 4110201N 157 Ménard        0380873N 162 Gir.Besnier   0410030N162_53 LAVAL ROC   0390500002157000000530016258100000000000190      009878 1497    009628   010006   009866   010470   009580   010530   010189   008310   010418   010452   009451   009687               130098741 1487    120094261 1567    110093951 1557    100092711 1517    090091441 1427    008907   009495   009390   010227   009872   010597   010456   008665   010556   010696   009999   009648                                      
530016238310014 01620 4813001Car.des Bozées      0370438N 157 X D 32        0380873Laval Roc. Bozées 2 0380000001435000000530016239300000000000195      016019    0                                                                                                                            130160268    0    120161558    0    110160688    0    100156148    0    090153318 0800                                                                                                                                                   
530016238210014 01620 4813001Car.des Bozées      0370438N 157 X D 32        0380873Laval Roc. Bozées 2 0380000001435000000530016239200000000000195      007918    0                                                                                                                            130079288    0    120000008    0    110000008    0    100000008    0    090000008    0                                                                                                                                                   
530016238110014 01620 4813001Car.des Bozées      0370438N 157 X D 32        0380873Laval Roc. Bozées 2 0380000001435000000530016239100000000000195      008101    0                                                                                                                            130080988    0    120000008    0    110000008    0    100000008    0    090000008    0                                                                                                                                                   
530016237310014 01620 4813001D 21 Gir.La Rouzine 0360640Car. des Bozées     0370438Laval Roc Bozées 1  0370000000798000000530016228300000000000185      009675    0                                                                                                                            130094498    0    120086638    0    110088278    0    100087778    0    090085608    0                                                                                                                                                   
530016237210014 01620 4813001D 21 Gir.La Rouzine 0360640Car. des Bozées     0370438Laval Roc Bozées 1  0370000000798000000530016228200000000000185      004826    0                                                                                                                            130047068    0    120000008    0    110000008    0    100000008    0    090000008    0                                                                                                                                                   
530016237110014 01620 4813001D 21 Gir.La Rouzine 0360640Car. des Bozées     0370438Laval Roc Bozées 1  0370000000798000000530016228100000000000185      004849    0                                                                                                                            130047438    0    120000008    0    110000008    0    100000008    0    090000008    0                                                                                                                                                   
530016236310014 01620 4813001Gir.Thévalles       0350146D21G.La Rouzine     0360640Laval Roc Est 1s    0350500001494000000530016228300000000000189      008265    0                                                                                                                            130080728    0    120078958    0    110078538    0    100076328    0    090074948 1300                                                                                                                                                   
530016236210014 01620 4813001Gir.Thévalles       0350146D21G.La Rouzine     0360640Laval Roc Est 1s    0350500001494000000530016228200000000000189      004165    0                                                                                                                            130040618    0    120000008    0    110000008    0    100000008    0    090000008    0                                                                                                                                                   
530016236110014 01620 4813001Gir.Thévalles       0350146D21G.La Rouzine     0360640Laval Roc Est 1s    0350500001494000000530016228100000000000189      004100    0                                                                                                                            130040118    0    120000008    0    110000008    0    100000008    0    090000008    0                                                                                                                                                   
530016235310014 01620 4813001D103 Entrammes      0300067Gir.Thévalles       0350146La Croix Bataille   0340000005079000000530016228300000000000190      011718    0                                                                                                                            130114448    0    120111128    0    110113238    0    100112598    0    090109818 0800                                                                                                                                                   
530016235210014 01620 4813001D103 Entrammes      0300067Gir.Thévalles       0350146La Croix Bataille   0340000005079000000530016228200000000000190      005906    0                                                                                                                            130057598    0    120000008    0    110000008    0    100000008    0    090000008    0                                                                                                                                                   
530016235110014 01620 4813001D103 Entrammes      0300067Gir.Thévalles       0350146La Croix Bataille   0340000005079000000530016228100000000000190      005812    0                                                                                                                            130056858    0    120000008    0    110000008    0    100000008    0    090000008    0                                                                                                                                                   
530016228310014 01620 4113001Gir.de Laval        0200265D 103 Entrammes     0300067N162_53 ENTRAMMES   0270979009802000000530016228100000000000190      008481 1257    007866   008319   008242   008929   008320   009018   008588   007488   009123   008957   008507   008454               130082821 1237    120082551 1217    110084111 1237    100083631 1217    090081561 1197    007428   008068   008155   008660   008417   008872   008363   007345   008837   008744   008341   008179                                      
530016228210014 01620 4113001Gir.de Laval        0200265D 103 Entrammes     0300067N162_53 ENTRAMMES   0270979009802000000530016228100000000000190      004239 1247    003920   004141   004116   004453   004138   004520   004360   003715   004567   004468   004265   004224               130041331 1227    120041291 1207    110041951 1217    100041741 1207    090040631 1197    003720   004035   004062   004347   004206   004425   004193   003629   004408   004348   004156   004079                                      
530016228110014 01620 4113001Gir.de Laval        0200265D 103 Entrammes     0300067N162_53 ENTRAMMES   0270979009802000000530016228100000000000190      004242 1277    003946   004178   004126   004476   004182   004498   004228   003773   004556   004489   004242   004230               130041491 1257    120041261 1237    110042161 1257    100041891 1237    090040931 1197    003708   004033   004093   004313   004211   004447   004170   003716   004429   004396   004185   004100                                      
530016216310014 01620 4813001Gir. de Laval       0110111Pot. de Villiers    0200265L' Aire de la Roche 0160000009907000000530016228300000000000198      009867    0                                                                                                                            130096368    0    120081648    0    110083198    0    100082728    0    090080688    0                                                                                                                                                   
530016216210014 01620 4813001Gir. de Laval       0110111Pot. de Villiers    0200265L' Aire de la Roche 0160000009907000000530016228200000000000198      004882    0                                                                                                                            130047608    0    120000008    0    110000008    0    100000008    0    090000008    0                                                                                                                                                   
530016216110014 01620 4813001Gir. de Laval       0110111Pot. de Villiers    0200265L' Aire de la Roche 0160000009907000000530016228100000000000198      004985    0                                                                                                                            130048768    0    120000008    0    110000008    0    100000008    0    090000008    0                                                                                                                                                   
530016208310014 01620 4813001Ent.Chat.Gon.       0070800Gir. de Laval       0110111Ag Château Gontier  0080000003924000000530016228300000000000190      010449    0                                                                                                                            130102048    0    120101718    0    110103648 0706    100088098    0    090085918    0                                                                                                                                                   
530016207310014 01620 4813001Dept.49             0000000Ent.Chat.Gon.       0070800Le Préssoir         0070000007800000000530016228300000000000190      006714    0                                                                                                                            130065588    0    120060798    0    110061948    0    100061598    0    090060078    0                                                                                                                                                   
530016207210014 01620 4813001Dept.49             0000000Ent.Chat.Gon.       0070800Le Préssoir         0070000007800000000530016228200000000000190      003353    0                                                                                                                            130032708    0    120000008    0    110000008    0    100000008    0    090000008    0                                                                                                                                                   
530016207110014 01620 4813001Dept.49             0000000Ent.Chat.Gon.       0070800Le Préssoir         0070000007800000000530016228100000000000190      003361    0                                                                                                                            130032888    0    120000008    0    110000008    0    100000008    0    090000008    0                                                                                                                                                   
530001274310014 00120 4813001Sortie d'Ernée      0660600Dpt. 35             0740973La Pellerine        0740000008373000000530001260335000000030194      007096    0                                                                                                                            130069178    0    120069298    0    110069758    0    100068348 1400    090068588    0                                                                                                                                                   
530001274210014 00120 4813001Sortie d'Ernée      0660600Dpt. 35             0740973La Pellerine        0740000008373000000530001260235000000020194      003444    0                                                                                                                            130033588    0    120033568    0    110033788    0    100033108    0    090033228    0                                                                                                                                                   
530001274110014 00120 4813001Sortie d'Ernée      0660600Dpt. 35             0740973La Pellerine        0740000008373000000530001260135000000010194      003652    0                                                                                                                            130035598    0    120035738    0    110035978    0    100035248    0    090035368    0                                                                                                                                                   
530001266310014 00120 4843001D31 Landivy         0650430Sort.Ernée          0660600Agglo Ernée         0660000001170000000530001260300000000000190      009743    0                                                                                                                            130094978    0    120095138    0    110095768 1006    100082058    0    090082338    0                                                                                                                                                   
530001265310014 00120 4843001D 31 Laval          0640990D31 Landivy         0650430Agglo Ernée         0650000000440000000530001260300000000000190      013897    0                                                                                                                            130135458    0    120135678    0    110136568 0906    100129348    0    090129798    0                                                                                                                                                   
530001264310014 00120 4843001Ent.Ernée           0630690D 31 Laval          0640990Agglo Ernée         0640500001034000000530001260300000000000190      007419    0                                                                                                                            130072318    0    120072438    0    110072918 1406    100113468    0    090113858    0                                                                                                                                                   
530001260310014 00120 4113001D 304 Mayenne       0420910Ent.Ernée           0630690N12_53 ERNEESOL     0590800020780000000530001260300000000000190      005090 1647    004524   004640   004860   005366   005166   005398   005489   005321   005319   005275   004879   004818               130049611 1667    120050191 1677    110051501 1667    100050051 1627    090050481 1617    004139   004474   004531   005045   005251   005255   005574   005319   005346   005062   004811   004706                                      
530001260210014 00120 4113001D 304 Mayenne       0420910Ent.Ernée           0630690N12_53 ERNEESOL     0590800020780000000530001260300000000000190      002514 1647    002250   002294   002407   002645   002526   002691   002669   002607   002633   002600   002454   002378               130024511 1667    120024801 1677    110025491 1677    100024741 1627    090025031 1637    002058   002214   002240   002479   002638   002589   002690   002637   002678   002462   002396   002322                                      
530001260110014 00120 4113001D 304 Mayenne       0420910Ent.Ernée           0630690N12_53 ERNEESOL     0590800020780000000530001260300000000000190      002576 1637    002274   002346   002453   002721   002640   002707   002820   002714   002686   002675   002425   002440               130025101 1667    120025391 1687    110026011 1657    100025311 1627    090025451 1597    002081   002260   002291   002566   002613   002666   002884   002682   002668   002600   002415   002384                                      
530001243310014 00120 4843001N12 x D23           0420170N12 x D304          0420910Agglo Mayenne       0420500000740000000530000300300000000000190      008583    0                                                                                                                            130084488    0    120085668    0    110088168 1106    100087228    0    090088178    0                                                                                                                                                   
530001242310014 00120 4843001N12 x N162 x D35    0410500N12 x D23           0420170Agglo Mayenne       0420000001120000000530000300300000000000190      012102    0                                                                                                                            130119128    0    120120798    0    110124328 0606    100122388    0    090123718    0                                                                                                                                                   
530001241310014 00120 4843001Entrée Nord Mayenne 0400208N162xD35            0410500Agglo Mayenne       0400600000842000000530000300300000000000190      012454    0                                                                                                                            130122588    0    120124308    0    110127938 0606    100119408    0    090120698    0                                                                                                                                                   
530001237310014 00120 4813001D 34 X D 7 Coulonge 0360853Ent.Nord Mayenne    0400208Coulonge            0370600003373000000530000300300000000000190      008259    0                                                                                                                            130081308    0    120082378    0    110084788    0    100082538    0    090083438 0906                                                                                                                                                   
530001237210014 00120 4813001D 34 X D 7 Coulonge 0360853Ent.Nord Mayenne    0400208Coulonge            0370600003373000000530000300200000000000190      004084    0                                                                                                                            130040278    0    120000008    0    110000008    0    100000008    0    090000008    0                                                                                                                                                   
530001237110014 00120 4813001D 34 X D 7 Coulonge 0360853Ent.Nord Mayenne    0400208Coulonge            0370600003373000000530000300100000000000190      004175    0                                                                                                                            130041038    0    120000008    0    110000008    0    100000008    0    090000008    0                                                                                                                                                   
530001212310014 00120 4813001N176 Pré - Pail     0040550D 33 Javron         0160829Javron              0120000012279000000530000300300000000000190      005060    0                                                                                                                            130049818    0    120055078    0    110056688    0    100055188    0    090055788    0                                                                                                                                                   
530001212210014 00120 4813001N176 Pré - Pail     0040550D 33 Javron         0160829Javron              0120000012279000000530000300200000000000190      002489    0                                                                                                                            130024548    0    120000008    0    110000008    0    100000008    0    090000008    0                                                                                                                                                   
530001212110014 00120 4813001N176 Pré - Pail     0040550D 33 Javron         0160829Javron              0120000012279000000530000300100000000000190      002571    0                                                                                                                            130025278    0    120000008    0    110000008    0    100000008    0    090000008    0                                                                                                                                                   
530001203310014 00120 4813001Dépt.61             0000000N176 Pré - Pail     0040550Margalais           0030000004550000000530000300361000060030190      007660    0                                                                                                                            130075408    0    120085928    0    110088438    0    100086098    0    090087038 1806                                                                                                                                                   
530001203210014 00120 4813001Dépt.61             0000000N176 Pré - Pail     0040550Margalais           0030000004550000000530000300261000060030190      003736    0                                                                                                                            130036848    0    120000008    0    110000008    0    100000008    0    090000008    0                                                                                                                                                   
530001203110014 00120 4813001Dépt.61             0000000N176 Pré - Pail     0040550Margalais           0030000004550000000530000300161000060030190      003924    0                                                                                                                            130038568    0    120000008    0    110000008    0    100000008    0    090000008    0                                                                                                                                                   
530000300310014 00120 4113001D 33 Javron         0160829D 34 X D 7          0360853N12_53 LE RIBAY     0270810020024000000530000300100000000000190      005462 2268    004752   005039   005162   005850   006444   007378   007313   005919   005696   005650   000826   005400               130053761 2757    120054511 1578    110056101 1768    100054611 2248    090055201 2208    004454   004846   004935   005568   005661   005670   005913   005819   005691   005538   005232   005147                                      
530000300210014 00120 4113001D 33 Javron         0160829D 34 X D 7          0360853N12_53 LE RIBAY     0270810020024000000530000300100000000000190      002698 2348    002355   002477   002550   002871   003178   003677   003557   002976   002858   002770   000404   002648               130026601 2677    120026871 1628    110027691 1818    100026911 2308    090027231 2268    002213   002395   002390   002750   002850   002816   002864   002912   002872   002693   002620   002526                                      
530000300110014 00120 4113001D 33 Javron         0160829D 34 X D 7          0360853N12_53 LE RIBAY     0270810020024000000530000300100000000000190      002764 2128    002397   002562   002612   002979   003266   003701   003756   002943   002838   002880   000422   002752               130027161 2917    120027641 1488    110028411 1648    100027701 2138    090027971 2088    002241   002451   002545   002818   002811   002854   003049   002907   002819   002845   002612   002621                                      
490003200310014 02490 4813001rd753               0260530autre               0290780N249_32             0280000002550000000490003100300000000000309      000000    0                                                                                                                            130168658    0    120168948    0    110166548    0    100161548    0    090155428    0                                                                                                                                                   
490003100310014 02490 4113001Département Loire/A 0000000RD 753              0260530N249_49 BATARDIE    0200380026565000000490003100344000460030187      000000    0                                                                                                                            130233761 1427    120234161 1407    110230831 1138    100223891 1208    090215401 1198    021525   022290   023024   024141   023251   023855   025397   024464   024765   024651   021569   021504                                      
490003100210014 02490 4113001Département Loire/A 0000000RD 753              0260530N249_49 BATARDIE    0200380026565000000490003100344000460030187      009387    0    010953   011413   011527   012309   012021   012108   012865   011914   011868                     005863               130117711 1397    120116681 1387    110114821 1078    100111781 1198    090107571 1178    010681   011029   011486   012010   011651   012289   012598   012228   012296   012375   011260   011302                                      
490003100110014 02490 4113001Département Loire/A 0000000RD 753              0260530N249_49 BATARDIE    0200380026565000000490003100344000460030187      000000    0                                                                                                                            130116051 1298    120117481 1308    110116011 1248    100112111 1218    090107831 1228    010844   011261   011538   012131   011600   011566   012799   012236   012469   012276   010309   010202                                      
490002600310014 01620 4113001RD 770 Lion d'Anger 0220620Département Mayenne 0330947N162_49 SOLEIL      0250455011327000000490003100300000000000187      007079 1137    006365   006637   006684   007277   007059   007432   007661   006802   007556   007444   007060   006966               130067851 1157    120065711 1167    110066041 1237    100065051 0008    090063911 0008    005935   006429   006541   006890   006892   007171   007045   006538   007199   007106   006932   006731                                      
490002600210014 01620 4113001RD 770 Lion d'Anger 0220620Département Mayenne 0330947N162_49 SOLEIL      0250455011327000000490003100300000000000187      003534 1157    003187   003314   003345   003633   003517   003724   003812   003375   003775   003711   003539   003475               130033901 1147    120032851 1157    110033071 1227    100032501 0008    090031951 0008    002979   003227   003258   003466   003430   003586   003552   003235   003600   003532   003443   003369                                      
490002600110014 01620 4113001RD 770 Lion d'Anger 0220620Département Mayenne 0330947N162_49 SOLEIL      0250455011327000000490003100300000000000187      003545 1107    003178   003323   003339   003644   003542   003708   003849   003427   003781   003733   003521   003491               130033951 1177    120032861 1197    110032971 1257    100032551 0008    090031961 0008    002956   003202   003283   003424   003462   003585   003493   003303   003599   003574   003489   003362                                      
440537600310014 08440 4150201non renseigné       0270180non renseigné       0270750N844_30_1(2)ESTUAIRE0270300000570000000490003100300000000000608      094342 0737    087399   091307   091592   097430   094538   100413   100786   094245                     091559   094399               130000001    0    120000001    0    110000001    0    100000001    0    090000001    0                                                                                                                                                   
440537600210014 08440 4150201non renseigné       0270300non renseigné       0270750N844_30_2 ESTUAIRE  0270500000450000000490003100300000000000608      047192 0687    043717   045759   045821   048723   047427   049806   050622   046570                     046287   047155               130000001    0    120000001    0    110000001    0    100000001    0    090000001    0                                                                                                                                                   
440537600110014 08440 4150201non renseigné       0270180non renseigné       0270700N844_30_1 ESTUAIRE  0270300000520000000490003100300000000000608      047150 0847    043682   045548   045771   048707   047111   050607   050164   047675   045352   048554   045272   047244               130932101 0777    120917381 0817    110920681 0807    100904901 0787    090886521 0757    084954   089682   090637   096780   093649   098049   102089                     095188   089130   087907                                      
440537510310014 08440 4150201non renseigné       0270700non renseigné       0280100N844_31-30_2        0270850000400000000490003100300000000000315      084204 0927    084718   083349   086220   090710   086852   084932   081314   075176   084104   086596   080702   085817               130000001    0    120000001    0    110000001    0    100000001    0    090000001    0                                                                                                                                                   
440537510210014 08440 4150201non renseigné       0270750non renseigné       0280100N844_31-30_2        0270850000350000000490003100300000000000315      042286 0927    042284   041654   043345   045574   043720   042604   040913   037531   043090   043702   040253   042783               130000001    0    120000001    0    110000001    0    100000001    0    090000001    0                                                                                                                                                   
440537510110014 08440 4150201non renseigné       0270700non renseigné       0280100N844_31-30_2        0270850000400000000490003100300000000000315      041918 0907    042434   041695   042875   045136   043132   042328   040401   037645   041014   042894   040449   043034               130000001    0    120000001    0    110000001    0    100000001    0    090000001    0                                                                                                                                                   
440537500310014 08440 4150201non renseigné       0280100non renseigné       0280390N844_31-30_1        0280255000290000000490003100300000000000608      090751 0857    084682   088054   088456   093764   091279   097020   096788   092015                     086613   088741               130916571 0900    120939711 0800    110000001    0    100000001    0    090000001    0                                                                                                                                                   
440537500210014 08440 4150201non renseigné       0280100non renseigné       0280390N844_31-30_1        0280255000290000000490003100300000000000608      045677 0907    042478   044230   044718   047340   046140   048892   048904   046102                     043425   044482               130462681 1000    120497201 0800    110000001    0    100000001    0    090000001    0                                                                                                                                                   
440537500110014 08440 4150201non renseigné       0280100non renseigné       0280280N844_31-30_1        0280255000180000000490003100300000000000608      045074 0757    042204   043824   043738   046424   045139   048128   047884   045913                     043188   044259               130453891 0800    120442511 0907    110000001    0    100000001    0    090000001    0                                                                                                                                                   
440537400310014 08440 4150201non renseigné       0280280non renseigné       0290060N844_31 PTE HERBLAIN0280900000780000000490003100300000000000608      090928 0837    085172   088325   089573   094437   093077   097144   097046   092333   087225   091281   086892   088442               130000001    0    120000001    0    110000001    0    100000001    0    090000001    0                                                                                                                                                   
440537400210014 08440 4150201non renseigné       0280390non renseigné       0290030N844_31 PTE HERBLAIN0280900000640000000490003100300000000000608      045112 0867    042112   043533   044642   046850   045980   048124   049078   046071   041931   045694   043089   044073               130000001         120000001         110000001         100000001         090000001                                                                                                                                                        
440537400110014 08440 4150201non renseigné       0280280non renseigné       0290060N844_31 PTE HERBLAIN0280900000780000000490003100300000000000608      045816 0787    043060   044792   044931   047587   047097   049020   047968   046262   045294   045587   043803   044369               130903811 0837    120897821 0817    110907071 0827    100900121 0797    090000001    0    083500   087355   088310   094359   091526   094614   096861   093608   091798   089829   086531   086166                                      
440537320310014 08440 4150201non renseigné       0290060non renseigné       0290940N844_32 PTE ATLANTIS0290600000880000000490003100300000000000608      091216 0837    085252   088597   089815   094545   092121   096460   097660   092658   087610   093440   086755   089446               130000001         120000001         110000001         100000001         090000001                                                                                                                                                        
440537320210014 08440 4150201non renseigné       0290850non renseigné       0290410N844_32 PTE ATLANTIS0290600000440000000490003100300000000000608      044988 0897    041951   043535   044557   046766   045865   047532   048921   045992   041831   045592   043065   044086               130000001    0    120000001    0    110000001    0    100000001    0    090000001    0                                                                                                                                                   
440537320110014 08440 4150201non renseigné       0290060non renseigné       0290940N844_32 PTE ATLANTIS0290600000880000000490003100300000000000608      046228 0707    043301   045062   045258   047779   046256   048928   048739   046666   045779   047848   043690   045360               130000001    0    120000001    0    110000001    0    100000001    0    090000001    0                                                                                                                                                   
440537210310014 08440 4150201non renseigné       0300700non renseigné       0310200N844_34-33          0310045000500000000490003100300000000000315      061528 0797    058899   060868   061740   064300   062050   064704   063321   059768   059867   061474   059931   061435               130000001    0    120000001    0    110000001    0    100000001    0    090000001    0                                                                                                                                                   
440537210210014 08440 4150201non renseigné       0300700non renseigné       0310120N844_34-33          0310045000420000000490003100300000000000315      029527 0827    028093   029155   029772   030891   030010   031008   030789   028936   027902   029618   028765   029369               130000001    0    120000001    0    110000001    0    100000001    0    090000001    0                                                                                                                                                   
440537210110014 08440 4150201non renseigné       0300740non renseigné       0310200N844_34-33          0310045000460000000490003100300000000000315      032001 0747    030806   031713   031968   033409   032040   033696   032532   030832   031965   031856   031166   032066               130000001    0    120000001    0    110000001    0    100000001    0    090000001    0                                                                                                                                                   
440537200310014 08440 4150201non renseigné       0300400non renseigné       0300740N844_33_1 PTE ARMOR 0300596000340000000490003100300000000000608      061278 0737    058309   060524   061737   064107   061764   063269   063462   058974   060535   062328   059576   060756               130000001    0    120000001    0    110000001    0    100000001    0    090000001    0                                                                                                                                                   
440537200210014 08440 4150201non renseigné       0300400non renseigné       0300700N844_33_1 PTE ARMOR 0300596000300000000490003100300000000000608      028912 0757    027342   028614   029386   030253   029449   029639   030420   028387   027732   029384   027961   028348               130000001    0    120000001    0    110000001    0    100000001    0    090000001    0                                                                                                                                                   
440537200110014 08440 4150201non renseigné       0300400non renseigné       0300740N844_33_1 PTE ARMOR 0300596000340000000490003100300000000000608      032366 0697    030967   031910   032351   033854   032315   033630   033042   030587   032803   032944   031615   032408               130612271 0737    120616771 0737    110624171 0747    100615691 0737    090000001    0    057987            059358   064278   061840   064310   064977   060049   060602   062773   059606   058573                                      
440537110310014 08440 4150201non renseigné       0310910non renseigné       0320400N844_35-34_2        0320184000490000000490003100300000000000315      063387 0797    060619   062585   063159   066214   063162   066456   065340   059801   062492   064920   062010   063926               130000001    0    120000001    0    110000001    0    100000001    0    090000001    0                                                                                                                                                   
440537110210014 08440 4150201non renseigné       0310935non renseigné       0320400N844_35-34_2        0320184000465000000490003100300000000000315      031178 0817    029579   030652   031122   032714   031212   032787   032591   029444   030000   032177   030403   031440               130000001    0    120000001    0    110000001    0    100000001    0    090000001    0                                                                                                                                                   
440537110110014 08440 4150201non renseigné       0310910non renseigné       0320400N844_35-34_2        0320184000490000000490003100300000000000315      032209 0757    031040   031933   032037   033500   031950   033669   032749   030357   032492   032743   031607   032486               130000001    0    120000001    0    110000001    0    100000001    0    090000001    0                                                                                                                                                   
440537101310014 08440 4150201VC 203              0310120VC 109              0310935N844_34 PTE CHEZINE 0310600000815000000490003100300000000000695      059743 0767    056639   058557   059543   062319   060036   062731   061963   057494   058849   061290   058066   059412               130598461 0767    120578211 0787    110563991 0827    100563091 0797    090555711 0787    056068   058382   059005   062686   059938   062366   063192   058426   060964   061808   058028   057292                                      
440537101210014 08440 4150201VC 203              0310120VC 109              0310935N844_34 PTE CHEZINE 0310600000815000200490003100300000000000695      027185 0827    025425   026420   027168   028479   027718   028692   028840   026827   025900   027729   026201   026768               130273911 0827    120272591 0837    110273691 0877    100271741 0837    090265631 0807    025474   026567   026970   028768   027546   028518   029599   027320   027799   027922   026187   025996                                      
440537101110014 08440 4150201VC 203              0310200VC 109              0310910N844_34 PTE CHEZINE 0310600000710000000490003100300000000000695      032558 0677    031214   032137   032375   033840   032318   034039   033123   030667   032949   033561   031865   032644               130324551 0677    120305621 0697    110290301 0717    100291351 0717    090290081 0737    030594   031815   032035   033918   032392   033848   033593   031106   033165   033886   031841   031296                                      
440537100310014 08440 4150201Prte de Chézine     0320400Porte de Sautron    0330300N844_35-34_1 VC 109 0320750000900000000490003100300000000000495      064462 0717    061428   063359   064305   067376   064414   067880   066505   060831   063785   066027   062915   064751               130645141 0737    120644041 0757    110648801 0757    100640921 0737    090629661 0727    061015   063061   063421   067760   064290   067461   067628   061327   065688   067219   063636   061741                                      
440537100210014 08440 4150201Porte De Chézine    0320400Porte de Sautron    0320900N844_35-34_1 VC 109 0320750000500000000490003100300000000000495      031738 0727    030002   031042   031702   033319   031915   033535   033172   029973   030641   032754   030882   031900               130317161 0737    120317241 0767    110321071 0767    100316661 0737    090310011 0727    029079   031081   031344   033636   031683   033364   033792   030192   032330   033088   030810   030242                                      
440537100110014 08440 4150201Porte de Chezine    0320400Porte de Sautron    0330300N844_35-34_1 VC 109 0320750000690000000490003100300000000000495      032724 0707    031426   032317   032603   034057   032499   034345   033333   030858   033144   033273   032033   032851               130327981 0717    120326801 0737    110327731 0737    100324261 0727    090319651 0717    031936   031980   032077   034124   032607   034097   033836   031135   033358   034131   032826   031499                                      
440537000310014 08440 4150201Porte de Sautron    0330400Prte d'Orvault      0330800N844_35_1 SAUTRON   0330700000400000000490003100300000000000495      059366 0937    056289   057961   058886   061707   059330   061967   061472   056700   059267   061141   058134   059517               130595971 0747    120593901 0757    110597521 0777    100589571 0757    090578811 0757    056154   058402   058890   062433   059121   061989   062331   056880   060373   061586   059960   057128                                      
440537000210014 08440 4150201Prte de Sautron     0330400Porte d'orvault     0330800N844_35_1 SAUTRON   0330700000400000000490003100300000000000495      030916 1007    029145   029991   030799   032362   030958   032413   032429   029381   030197   032169   030124   030979               130310031 0737    120308741 0747    110311331 0777    100305951 0747    090299411 0747    029177   030307   030763   032568   030692   032454   032796   029333   031450   032067   030639   029818                                      
440537000110014 08440 4150201Porte de Sautron    0330400Porte d'orvault     0330800N844_35_1 SAUTRON   0330700000400000000490003100300000000000495      028450 0787    027144   027970   028087   029345   028372   029554   029043   027319   029070   028972   028010   028538               130285941 0767    120285161 0777    110286191 0787    100283621 0777    090279401 0767    026977   028095   028127   029865   028429   029535   029535   027547   028923   029519   029321   027310                                      
440536901310014 08440 4150201non renseigné       0340100non renseigné       0340960N844_36-PTE ORVAULT 0340400000860000000490003100300000000000315      087083 0937    087531   090459   092651   098367   082213   099551   098475   094273   084290   056726   069968   090944               130000001    0    120000001    0    110000001    0    100000001    0    090000001    0                                                                                                                                                   
440536901210014 08440 4150201non renseigné       0340170non renseigné       0340700N844_36-PTE ORVAULT 0340400000530000000490003100300000000000315      044010 0957    043598   045299   046727   050035   042045   050170   050671   047008   041804   029596   035451   045886               130000001    0    120000001    0    110000001    0    100000001    0    090000001    0                                                                                                                                                   
440536901110014 08440 4150201non renseigné       0340100non renseigné       0340960N844_36-PTE ORVAULT 0340400000860000000490003100300000000000315      043073 0897    043933   045160   045924   048332   040168   049381   047804   047265   042486   027130   034517   045058               130000001    0    120000001    0    110000001    0    100000001    0    090000001    0                                                                                                                                                   
