560002902310014 01660 4810101ECH.DU COUDRAY      0290655ECH.DU CREVY        0330350SAINT ABRAHAM       0320000005728005728560002900300000000000698      016444    0                                                                                                                            130161288    0    120156478    0    110165768    0    100161708 0706    090176498    0                                                                                                                                                   
560002901310014 01660 4817001ECH.DU ROFO         0240745ECH.DU COUDRAY      0290655SAINT MARCEL        0280000004920004920560002900300000000000698      016262    0                                                                                                                            130159508    0    120154748    0    110163938    0    100159918    0    090159758    0                                                                                                                                                   
560002900310014 01660 4117001ECH.KERCHOUX        0160640ECH.DU ROFO         0240745N166_56 HOTEL       0230500007591000000560002900300000000000698      017268 0708    013538   014091   014666   017389   017100   019320   021566   021966   019017                     015005               130169361 0777    120164301 0797    110174051 0688    100169781 0678    090169611 0688    013331   014326   015012   016991   016696   018381   021381   022070   018198   016861   015790   013992                                      
560002700310014 01660 4117001ECH.DU LIZIEC       0000000ECH.DE KERBOULARD   0160640N166_56 LESTENO     0040500017683000000560002900300000000000698      030247 0727    026565   027440   028144   029328   030173   031889   034214   034182   032111   030821   028663   029188               130296151 0707    120289921 0727    110289971 0737    100292241 1288    090290881 0598    025264   026427   026832   030083   030813   030190   033854   033973   031061   030070   028605   027945                                      
560002604310014 01650 4110101ECH. DU MOURILLON   1010640LIM FINISTERE       1090326N165_56 GESTEL      1030000007640000000560002900300000000000806      041604 0817    035958   037486   038532   042665   041386   043616   046580   049146   043315   042093   038687   039446               130414161 0837    120413201 0857    110419311 0867    100411781 0877    090412231 0867    035618   037523   038935   041686   043355   042371   046501   048947   042896   041387   038855   038542                                      
560002603310014 01650 4117001ECH.DE KERDUAL      0950025ECH.DU MOURILLON    0980390N165_56 RAD1 LORIENT0980990005814000000560002900329000000000698      000000    0                                                                                                                            130456891 0867    120466941 0837    110484431 0937    100507301    0    090507401    0    045626   048020   049626   050330   045387   051148   051083   044094   027961   041407   046406   047184                                      
560002502310014 01650 4117001LE TOULDOUAR        0920950ECH.DE KERDUAL      0950025N165_56 RAD4 KERPONT0940890002075000000560002900300000000000698      065790 0877    059681   062437   061865   068120   066048   068158   072313   072814   065225   067410   061778   063319               130427841 0687    120589411 0687    110801501 0827    100726361 0747    090782591    0    040440   042260   043266   044954   040404   045705   048156   047404   030387   039434   046920   043916                                      
560002500310014 01650 4117001ECH.PRE AUX ETANGS  0870490LE TOULDOUAR        0920950N165_56 LOCOYSOL    0890000005124000000560002900300000000000698      051803 0987    045290   046591   047112   051962   053031   053486   058490   061323   053929   053767   047669   048475               130510381 1037    120501541 1037    110503731 1037    100497961 1027    090486411    0    042759   045609   047370   051064   052659   052562   057639   060589   052958   051436   048596   048731                                      
560002400310014 01650 4117001ECH.OUEST AURAY     0670310ECH.PRE AUX ETANGS  0870490N165_56 CRANICSOL   0720370021242000000560002900300000000000698      032095 0967    027838   029409   030589   032338   031927   032211   035965   038788   031968   031926   030873   031006               130321611 0967    120316661 0957    110316841 0947    100323731 0917    090311461    0    027015   029166   029877   032970   032356   030984   035216   039996   034523   033256   030481   029819                                      
560002300310014 01650 4117001ECH.KERBOIS         0650400ECH.OUEST AURAY     0670310N165_56 TOULCHISOL  0660750002387000000560002900300000000000698      037145 0857    031094   032518   034226   037672   037258   039568   042734   044341   040104   037367   034152   034362               130000001    0    120000001    0    110000001    0    100000001    0    090000001    0                                                                                                                                                   
560002200310014 01650 4117001ECH.POULBEN         0630350ECH.KERBOIS         0650400N165_56 KERBOISOL   0640200002033000000560002900300000000000698      047441 0777    038246   040391   042543   048150   048241   051529   057487   060797   050302   046759   041962   042281               130000001    0    120000001    0    110000001    0    100000001    0    090000001    0                                                                                                                                                   
560002100310014 01650 4117001ECH.EST AURAY       0600750ECH.POULBEN         0630350N165_56 KERPLOUZ    0610500002714000000560002900300000000000698      049578 0777    038939   041209   043967   050095   050147   053779   060306   064244   052513   049388   046343   043341               130489141 0807    120466961 0787    110475671 0757    100491891    0    090485181    0    037862   040556   043229   048446   050920   050837   060185   064285   050906   050176   046816   041979                                      
560002001310014 01650 4117001non renseigné       0480400non renseigné       0600750N165_56 LUSCANEN    0490100012358000000560002900300000000000415      053780 0707    044661   047130   048920   055207   054818   057970   062925   065493   056899   053500   048466   048826               130000001    0    120000001    0    110000001    0    100000001    0    090000001    0                                                                                                                                                   
560002000310014 01650 4117001ECH.DU FOURCHENE    0480400ECH.EST AURAY       0600750N165_56 PLOEREN     0510000012358000000560002900300000000000698      055971 0687    046713   049209   050921   057378   056887   059930   065170   067753   059278   055732   050789   051355               130547091 0657    120540041 0768    110541581 0658    100545921 0848    090538491 0908    045556   048207   051040   055479   057317   057645   059414   067586   057695   055532   050621   049868                                      
560001900310014 01650 4117001ECH.DE MENIMUR      0460290ECH.DU FOURCHENE    0480400N165_56 KERLANN     0470575002085000000560002900300000000000698      065319 0747    055672   058212   060317   067021   066398   069364   074758   076389   068288   065693   059883   061258               130642641 0757    120635991 0767    110634331 0767    100624721 0847    090623761 0608    054184   057071   059763   064843   067023   066977   074696   076284   066787   063897   059708   059275                                      
560001801310014 01650 4117001non renseigné       0420900non renseigné       0460290N165_56 VERDUNSOL   0430969003392000000560002900300000000000415      064086 0797    058844   057311   056352   065093   064631   067727   072922   074879   066326   063967   058801   061578               130000001    0    120000001    0    110000001    0    100000001    0    090000001    0                                                                                                                                                   
560001800310014 01650 4117001ECH.DU LIZIEC       0420900ECH.DE MENIMUR      0460290N165_56 VANNES      0450300003392000000560002900300000000000698      063333 0777    053758   056015   058410   065024   064495   067572   072808   074698   066168   063700   057588   059143               130622091 0797    120608891 0817    110607931 0797    100595891 0807    090604771 0778    052042   054798   057454   062780   064787   064527   072990   074726   064848   062045   057689   057136                                      
560001701310014 01650 4117001non renseigné       0380140non renseigné       0420900N165_56 LEONARDSOL  0400777002987000000560002900300000000000415      047719 0887    038054   040089   042780   047980   048265   050988   057155   060076   055947            041711   041318               130000001    0    120000001    0    110000001    0    100000001    0    090000001    0                                                                                                                                                   
560001700310014 01650 4117001ECH.ST LEONARD      0380140ECH.DU LIZIEC       0420900N165_56 ROHICSOL    0420280002987000000560002900300000000000698      047558 0857    038027   040062   042736   047924   048225   050917   057101   060131   049713   047120   043081   044988               130462881 0867    120450251 0857    110457501 0867    100427971    0    090434101    0    036913   039270   041789   046360   048415   048182   056890   060165   048290   045514   041875   041105                                      
560001600310014 01650 4117001ECH.RD 780          0380140ECH.ST LEONARD      0390920N165_56 POTEAU      0390000001780000000560002900300000000000698      054561 0787    044286   046672   049321   055590   055452   058755   065345   068948   057567   054093   048632   049389               130536601 0797    120507071 0807    110000001    0    100000001    0    090531701 0498    043229   045851   048659   053706   056115   056133   065331   069531   056117   052487   048273   047718                                      
560001500310014 01650 4817001LA CROIX DE LA LANDE0310880ECH.RD 780          0380140THEIX               0380000006375006375560001800300000000000698      041189                                                                                                                                 130404588         120396178         110395668         100387648         090393568                                                                                                                                                        
560001400310014 01650 4117001ECH.BEL AIR         0060470CROIX DE LA LANDE   0310880N165_56 ARZAL       0130000024218000000560001800100000000000698      028334 0898    020728   022304   024621   027917   029780   031173   035488   041830   030141   026874   023788   024769               130278681 1097    120272011 1127    110273951 0958    100269021 0958    090265341 0958    020141   021840   024270   027488   029813   029150   035272   041498   029409   027992   023301   023596                                      
560001300310014 01650 4117001RD 34               0020300ECH.BEL AIR         0060470N165_56 PONT-56     0040500002150000000560001800100000000000698      025668 0988    019001   020113   022557   024990   026850   028205   032231   037331   026846   025019   021614   022693               130245971 1197    120246361 1267    110247311 1118    100237291 1128    090228561 1128    017003   016237   018306   024806   026775   026023   030994   036850   027424   026853   021278   021840                                      
560001200310014 01650 4817001LOIRE ATLANTIQUE    0000000RD 34               0020000LE RODOIR           0010000001000001000440002600300000000000698      025781                                                                                                                                 130252048         120247158         110249078         100244278         090239098                                                                                                                                                        
560001000310014 00240 4817001ECH.KERBLAYO        0900240ECH.PRE AUX ETANGS  0930938ST GILLES           0930000003724003724560000900300000000000698      022016                                                                                                                                 130228818         120225118         110226578         100222298         090217488                                                                                                                                                        
560000900310014 00240 4117001ECH.LANGUIDIC       0840940ECH.KERBLAYO        0900240N24_56 PONPACH      0880500005182000000560000900300000000000698      022891 1038    021177   022403   021754   022765   023179   025593   026536   024777   022408   022362   020564   021123               130237901 1257    120234051 1047    110235561 1148    100231101 1148    090226091 1148    020279   021489   022420   023846   024660   024370   026437   027275   024515   024283   022886   022821                                      
560000700310014 00240 4817001ECH.RD 768          0710064ECH.LANGUIDIC       0840935BAUD / OUEST        0800000013519013519560000900300000000000698      018649                                                                                                                                 130193828         120190698         110191938         100188308 1200    090186478    0                                                                                                                                                   
560000601310014 00240 4817001ECH.RD 767          0560126ECH.RD 768          0710064BAUD / EST          0680000013435013435560000400300000000000299      014505                                                                                                                                 130142488         120141268         110143868         100144508 1200    090138708    0                                                                                                                                                   
560000600310014 00240 4117001LA POINTE           0390410ECH.RD 767          0560130N24_56 MOREAC       0550000017082000000560000400300000000000698      015669    0    012910   013526   014138   016628   015690   016639   017984   019385   016105   015920   014203   014722               130153491 1487    120151441 1497    110153021 1517    100000001    0    090147141 1507    012188   013129   014157   014610   016139   015322   017898   019369   016395   015800   014494   014447                                      
560000500310014 00240 4817001ECH RD 764          0340445LA POINTE           0390150JOSSELIN OUEST      0350000004831004831560000400300000000000698      017148                                                                                                                                 130168458         120167018         110170088         100170838         090166008                                                                                                                                                        
560000400310014 00240 4117001ECH.OUEST PLOERMEL  0240542ECH RD 764          0340450N24_56 PLOERMEL     0260100012486000000560000400300000000000498      019012 1297    016032   016753   017298   020052   019193   020196   021331   022622   019610   019458   017737   017694               130186751 1297    120185151 1317    110188551 1327    100189381 1337    090184021 1317    015263   016384   017469   018682   019734   019130   021207   022343   019361   018856   017648   017804                                      
560000300310014 00240 4817001ECH.RN 166          0200640ECH.OUEST PLOERMEL  0220600ROCADE PLOERMEL     0200800001960001960560000400300000000000498      013751                                                                                                                                 130135088         120133938         110136398         100137008         090133138                                                                                                                                                        
560000200310014 00240 4117001RD 766 E            0191300ECH. RN 166         0200680N24_56 STANTOINESOL 0200300001253000000560000400300000000000498      030592 1207    023985   025799   026957   032209   031178   033487   036649   038824   031883   030766   027287   027699               130000001    0    120000001    0    110000001    0    100000001    0    090000001    0                                                                                                                                                   
560000100310014 00240 4117001ILE ET VILAINE      0020635RD 766 E            0191300N24_56 PORCARO      0080000017082000000560000400335000140010498      023273 1077    018795   018590   019868   024551   023794   025532   028376   031014   023937   022926   020441   021044               130226501 1087    120223591 1127    110230071 1137    100225841 1107    090223071 1077    018073   018012   020151   022753   025298   023045   027939   030387   023666   021744   020126   020126                                      
530016266310014 01620 4843001Ent.Mayenne         0650240N12 x D35 Malécot   0670898Agglo Mayenne       0660000002659000000530016258300000000000190      017351    0                                                                                                                            130175318    0    120180948    0    110181688 1006    100211768    0    090206638    0                                                                                                                                                   
530016265310014 01620 4813001D 24 Moulay         0630540Entrée de Mayenne   0650240Moulay              0650000001700000000530016258300000000000190      021626    0                                                                                                                            130218338    0    120188578    0    110189348    0    100186228    0    090181718    0                                                                                                                                                   
530016258310014 01620 4110101D 131 Louverné      0430754D  24 Moulay        0630540N162_53 BERRY       0570812019866000000530016258100000000000494      012689 1408    012494   012707   012179   012913   012439   013134   012760   011330   013621   013409   012674   012666               130128201 1428    120132311 1418    110132851 1328    100130661 1248    090127491 1268    012131   012974   012942   013289   012438   012300   012232   011244   014061   013857   013446   013001                                      
530016242310014 01620 4813001N 162 Gir.Besnier   0410030D 131 Gir.Louverné  0430754Niafles             0410500002724000000530016258300000000000190      025442    0                                                                                                                            130257118    0    120221948    0    110222858    0    100219188    0    090213878    0                                                                                                                                                   
530016239310014 01620 4110201N 157 Ménard        0380873N 162 Gir.Besnier   0410030N162_53 LAVAL ROC   0390500002157000000530016258100000000000191      019455 1477    018974   019708   019459   020567   018855   020669   020053   016412   020586   020565   018670   019042               130194631 1467    120186401 1517    110185391 1517    100180151 1517    090176881 1457    017617   018727   018542   020235   019501   020869   020569   016963   020755   021136   019663   019026                                      
530016238310014 01620 4813001Car.des Bozées      0370438N 157 X D 32        0380873Laval Roc. Bozées 2 0380000001435000000530016239300000000000195      016019    0                                                                                                                            130160268    0    120161558    0    110160688    0    100156148    0    090153318 0800                                                                                                                                                   
530016237310014 01620 4813001D 21 Gir.La Rouzine 0360640Car. des Bozées     0370438Laval Roc Bozées 1  0370000000798000000530016228300000000000185      009675    0                                                                                                                            130094498    0    120086638    0    110088278    0    100087778    0    090085608    0                                                                                                                                                   
530016236310014 01620 4813001Gir.Thévalles       0350146D21G.La Rouzine     0360640Laval Roc Est 1s    0350500001494000000530016228300000000000189      008265    0                                                                                                                            130080728    0    120078958    0    110078538    0    100076328    0    090074948 1300                                                                                                                                                   
530016235310014 01620 4813001D103 Entrammes      0300067Gir.Thévalles       0350146La Croix Bataille   0340000005079000000530016228300000000000190      011718    0                                                                                                                            130114448    0    120111128    0    110113238    0    100112598    0    090109818 0800                                                                                                                                                   
530016228310014 01620 4113001Gir.de Laval        0200265D 103 Entrammes     0300067N162_53 ENTRAMMES   0270979009802000000530016228100000000000190      008481 1257    007866   008319   008242   008929   008320   009018   008588   007488   009123   008957   008507   008454               130082821 1237    120082551 1217    110084111 1237    100083631 1217    090081561 1197    007428   008068   008155   008660   008417   008872   008363   007345   008837   008744   008341   008179                                      
530016216310014 01620 4813001Gir. de Laval       0110111Pot. de Villiers    0200265L' Aire de la Roche 0160000009907000000530016228300000000000198      009867    0                                                                                                                            130096368    0    120081648    0    110083198    0    100082728    0    090080688    0                                                                                                                                                   
530016208310014 01620 4813001Ent.Chat.Gon.       0070800Gir. de Laval       0110111Ag Château Gontier  0080000003924000000530016228300000000000190      010449    0                                                                                                                            130102048    0    120101718    0    110103648 0706    100088098    0    090085918    0                                                                                                                                                   
530016207310014 01620 4813001Dept.49             0000000Ent.Chat.Gon.       0070800Le Préssoir         0070000007800000000530016228300000000000190      006714    0                                                                                                                            130065588    0    120060798    0    110061948    0    100061598    0    090060078    0                                                                                                                                                   
530001274310014 00120 4813001Sortie d'Ernée      0660600Dpt. 35             0740973La Pellerine        0740000008373000000530001260335000000030194      007096    0                                                                                                                            130069178    0    120069298    0    110069758    0    100068348 1400    090068588    0                                                                                                                                                   
530001266310014 00120 4843001D31 Landivy         0650430Sort.Ernée          0660600Agglo Ernée         0660000001170000000530001260300000000000190      009743    0                                                                                                                            130094978    0    120095138    0    110095768 1006    100082058    0    090082338    0                                                                                                                                                   
530001265310014 00120 4843001D 31 Laval          0640990D31 Landivy         0650430Agglo Ernée         0650000000440000000530001260300000000000190      013897    0                                                                                                                            130135458    0    120135678    0    110136568 0906    100129348    0    090129798    0                                                                                                                                                   
530001264310014 00120 4843001Ent.Ernée           0630690D 31 Laval          0640990Agglo Ernée         0640500001034000000530001260300000000000190      007419    0                                                                                                                            130072318    0    120072438    0    110072918 1406    100113468    0    090113858    0                                                                                                                                                   
530001260310014 00120 4113001D 304 Mayenne       0420910Ent.Ernée           0630690N12_53 ERNEESOL     0590800020780000000530001260300000000000190      005090 1647    004524   004640   004860   005366   005166   005398   005489   005321   005319   005275   004879   004818               130049611 1667    120050191 1677    110051501 1667    100050051 1627    090050481 1617    004139   004474   004531   005045   005251   005255   005574   005319   005346   005062   004811   004706                                      
530001243310014 00120 4843001N12 x D23           0420170N12 x D304          0420910Agglo Mayenne       0420500000740000000530000300300000000000190      008583    0                                                                                                                            130084488    0    120085668    0    110088168 1106    100087228    0    090088178    0                                                                                                                                                   
530001242310014 00120 4843001N12 x N162 x D35    0410500N12 x D23           0420170Agglo Mayenne       0420000001120000000530000300300000000000190      012102    0                                                                                                                            130119128    0    120120798    0    110124328 0606    100122388    0    090123718    0                                                                                                                                                   
530001241310014 00120 4843001Entrée Nord Mayenne 0400208N162xD35            0410500Agglo Mayenne       0400600000842000000530000300300000000000190      012454    0                                                                                                                            130122588    0    120124308    0    110127938 0606    100119408    0    090120698    0                                                                                                                                                   
530001237310014 00120 4813001D 34 X D 7 Coulonge 0360853Ent.Nord Mayenne    0400208Coulonge            0370600003373000000530000300300000000000190      008259    0                                                                                                                            130081308    0    120082378    0    110084788    0    100082538    0    090083438 0906                                                                                                                                                   
530001212310014 00120 4813001N176 Pré - Pail     0040550D 33 Javron         0160829Javron              0120000012279000000530000300300000000000190      005060    0                                                                                                                            130049818    0    120055078    0    110056688    0    100055188    0    090055788    0                                                                                                                                                   
530001203310014 00120 4813001Dépt.61             0000000N176 Pré - Pail     0040550Margalais           0030000004550000000530000300361000060030190      007660    0                                                                                                                            130075408    0    120085928    0    110088438    0    100086098    0    090087038 1806                                                                                                                                                   
530000300310014 00120 4113001D 33 Javron         0160829D 34 X D 7          0360853N12_53 LE RIBAY     0270810020024000000530000300100000000000190      005462 2268    004752   005039   005162   005850   006444   007378   007313   005919   005696   005650   000826   005400               130053761 2757    120054511 1578    110056101 1768    100054611 2248    090055201 2208    004454   004846   004935   005568   005661   005670   005913   005819   005691   005538   005232   005147                                      
490003200310014 02490 4813001rd753               0260530autre               0290780N249_32             0280000002550000000490003100300000000000309      000000    0                                                                                                                            130168658    0    120168948    0    110166548    0    100161548    0    090155428    0                                                                                                                                                   
490003100310014 02490 4113001Département Loire/A 0000000RD 753              0260530N249_49 BATARDIE    0200380026565000000490003100344000460030187      000000    0                                                                                                                            130233761 1427    120234161 1407    110230831 1138    100223891 1208    090215401 1198    021525   022290   023024   024141   023251   023855   025397   024464   024765   024651   021569   021504                                      
490002600310014 01620 4113001RD 770 Lion d'Anger 0220620Département Mayenne 0330947N162_49 SOLEIL      0250455011327000000490003100300000000000187      007079 1137    006365   006637   006684   007277   007059   007432   007661   006802   007556   007444   007060   006966               130067851 1157    120065711 1167    110066041 1237    100065051 0008    090063911 0008    005935   006429   006541   006890   006892   007171   007045   006538   007199   007106   006932   006731                                      
440537600310014 08440 4150201non renseigné       0270180non renseigné       0270750N844_30_1(2)ESTUAIRE0270300000570000000490003100300000000000608      094342 0737    087399   091307   091592   097430   094538   100413   100786   094245                     091559   094399               130000001    0    120000001    0    110000001    0    100000001    0    090000001    0                                                                                                                                                   
440537510310014 08440 4150201non renseigné       0270700non renseigné       0280100N844_31-30_2        0270850000400000000490003100300000000000315      084204 0927    084718   083349   086220   090710   086852   084932   081314   075176   084104   086596   080702   085817               130000001    0    120000001    0    110000001    0    100000001    0    090000001    0                                                                                                                                                   
440537500310014 08440 4150201non renseigné       0280100non renseigné       0280390N844_31-30_1        0280255000290000000490003100300000000000608      090751 0857    084682   088054   088456   093764   091279   097020   096788   092015                     086613   088741               130916571 0900    120939711 0800    110000001    0    100000001    0    090000001    0                                                                                                                                                   
440537400310014 08440 4150201non renseigné       0280280non renseigné       0290060N844_31 PTE HERBLAIN0280900000780000000490003100300000000000608      090928 0837    085172   088325   089573   094437   093077   097144   097046   092333   087225   091281   086892   088442               130000001    0    120000001    0    110000001    0    100000001    0    090000001    0                                                                                                                                                   
440537320310014 08440 4150201non renseigné       0290060non renseigné       0290940N844_32 PTE ATLANTIS0290600000880000000490003100300000000000608      091216 0837    085252   088597   089815   094545   092121   096460   097660   092658   087610   093440   086755   089446               130000001         120000001         110000001         100000001         090000001                                                                                                                                                        
440537210310014 08440 4150201non renseigné       0300700non renseigné       0310200N844_34-33          0310045000500000000490003100300000000000315      061528 0797    058899   060868   061740   064300   062050   064704   063321   059768   059867   061474   059931   061435               130000001    0    120000001    0    110000001    0    100000001    0    090000001    0                                                                                                                                                   
440537200310014 08440 4150201non renseigné       0300400non renseigné       0300740N844_33_1 PTE ARMOR 0300596000340000000490003100300000000000608      061278 0737    058309   060524   061737   064107   061764   063269   063462   058974   060535   062328   059576   060756               130000001    0    120000001    0    110000001    0    100000001    0    090000001    0                                                                                                                                                   
440537110310014 08440 4150201non renseigné       0310910non renseigné       0320400N844_35-34_2        0320184000490000000490003100300000000000315      063387 0797    060619   062585   063159   066214   063162   066456   065340   059801   062492   064920   062010   063926               130000001    0    120000001    0    110000001    0    100000001    0    090000001    0                                                                                                                                                   
440537101310014 08440 4150201VC 203              0310120VC 109              0310935N844_34 PTE CHEZINE 0310600000815000000490003100300000000000695      059743 0767    056639   058557   059543   062319   060036   062731   061963   057494   058849   061290   058066   059412               130598461 0767    120578211 0787    110563991 0827    100563091 0797    090555711 0787    056068   058382   059005   062686   059938   062366   063192   058426   060964   061808   058028   057292                                      
440537100310014 08440 4150201Prte de Chézine     0320400Porte de Sautron    0330300N844_35-34_1 VC 109 0320750000900000000490003100300000000000495      064462 0717    061428   063359   064305   067376   064414   067880   066505   060831   063785   066027   062915   064751               130645141 0737    120644041 0757    110648801 0757    100640921 0737    090629661 0727    061015   063061   063421   067760   064290   067461   067628   061327   065688   067219   063636   061741                                      
440537000310014 08440 4150201Porte de Sautron    0330400Prte d'Orvault      0330800N844_35_1 SAUTRON   0330700000400000000490003100300000000000495      059366 0937    056289   057961   058886   061707   059330   061967   061472   056700   059267   061141   058134   059517               130595971 0747    120593901 0757    110597521 0777    100589571 0757    090578811 0757    056154   058402   058890   062433   059121   061989   062331   056880   060373   061586   059960   057128                                      
440536901310014 08440 4150201non renseigné       0340100non renseigné       0340960N844_36-PTE ORVAULT 0340400000860000000490003100300000000000315      087083 0937    087531   090459   092651   098367   082213   099551   098475   094273   084290   056726   069968   090944               130000001    0    120000001    0    110000001    0    100000001    0    090000001    0                                                                                                                                                   
440536900310014 08440 4150201Porte D'orvault     0330800A844                0340700N844_36-PTE ORVAULT 0340400000900000000490003100300000000000595      058918 0817    056068   057671   058636   061207   058670   061404   060917   056060   058594   060670   057725   059378               130550521    0    120545631    0    110549271    0    100543991    0    090498731    0                                                                                                                                                   
440536805310014 08440 1150241BOIS CESBRON N844   0360300LA CLARTE A11       0370200A844_37 PTE RENNES  0360500000900000000490003100300000000000193      095104 0937    087546   090366   093326   098797   094908   100375   100341   094585   098352   098022   091339   093111               130946251 0947    120937791 0967    110944131 0977    100935081 0957    090853941 0957    086778   090458   092278   098580   094935   098870   102152   095701   097252   097711   091132   089484                                      
440500701310014 00830 1810241D178                0040384Péage A83           0050475La Cour Neuve       0050000001091000000440500700300000000001002      036988                                                                                                                                 130362178         120358718         110357418         100353028         090345798                                                                                                                                                        
440500700310014 00830 1110241RD844 L'EBAUPIN     0020600RD178 LA COUR NEUVE 0050460A83_48-EX-2         0030600002860000000440500700100000000000187      064770 1017    056902   059375   061065   066259   064167   069146   072564   071665   067713   065948   060528   061533               130634191 1037    120628111 1037    110625791 1047    100618091 1047    090605421 1027    054988   058373   060545   064667   064480   066841   071187   069958   065857   064463   059709   059581                                      
440500300310014 08110 1150241RD 68 Le Linot      0040455C844 Bellevue       0050100A811_24-43 LE LINOT 0050000000645000000440500700100000000000187      037849 0947    036288   038857   036969   039537   037078   039158            033424   040542   040072   037410   037268               130374061 0957    120369311 0987    110369001 1037    100364121 1037    090338831 1037    034956   036720   036970   038793   037514   040242   039483   033305   038881   038857   037105   036162                                      
440500201310014 08110 1815041A11/ RD37 CARQUEFOU 0000000N23 LA MADELEINE    0020948Carquefou           0010000002900000000440500300300000000000298      027583                                                                                                                                 130272618         120269158         110268938         100265388         090246958                                                                                                                                                        
440500200310014 08110 1110241RN23 LA MADELEINE   0030450RD68 LE LINOT       0040700A811_24-43 MADELEINE0040000001250000000440500300300000000000298      034667 1127    032915   035521   033331   036324   033007   037368   035243   030240   037162   037326   034055   033788               130337111 1147    120329281 1157    110345251 1207    100332031 1087    090307251 1037    030986   033014   033236   034736   033595   036256   035352   029599   035518   036158   033578   032613                                      
440500102310014 00820 1850241A844                0000000N165                0011145La Bugalliere       0010500001685000000440002101300000000000298      027083                                                                                                                                 130248768         120253298         110254518         100261118         090259128                                                                                                                                                        
440263600310014 A8440 4150201non renseigné       0350810non renseigné       0360450A844_37-36_1        0360010000640000000440002101100000000000315      094962 0977    087566   090489   092938   098711   094439   099993   100690   094416   098043   097610   091298   093174               130000001    0    120000001    0    110000001    0    100000001    0    090000001    0                                                                                                                                                   
440263500310014 08440 4150201non renseigné       0350200non renseigné       0350810A844_37-36_2        0350310000610000000440002101100000000000315      094983 1007    087683   090637   093067   098708   094644   100021   100240   094603   098037   097471   091314   093210               130000001    0    120000001    0    110000001    0    100000001    0    090000001    0                                                                                                                                                   
440263400310014 08440 4150201non renseigné       0340700non renseigné       0350310A844_37-36_3        0340960000610000000440002101100000000000315      095708 0977    088339   091285   093644   099375   095333   100683   100987   095241   098821   098500   092157   093963               130000001    0    120000001    0    110000001    0    100000001    0    090000001    0                                                                                                                                                   
440263300310014 08440 4150201non renseigné       0320900non renseigné       0330400N844_35_2           0330250000500000000440002101100000000000315      063412 0687    060659   062588   063190   066230   063208   066490   065328   059812   062570   065010   061952   063943               130000001    0    120000001    0    110000001    0    100000001    0    090000001    0                                                                                                                                                   
440261901310014 08440 4150201non renseigné       0240180non renseigné       0250090N844_52_2           0240350000910000000440002101100000000000315      000000    0                                                                                                                            130000001    0    120000001    0    110000001    0    100000001    0    090000001    0                                                                                                                                                   
440261900310014 08440 4150201non renseigné       0240180non renseigné       0250090N844_52_2           0240350000910000000440002101100000000000315      000000    0                                                                                                                            130000001    0    120000001    0    110000001    0    100000001    0    090000001    0                                                                                                                                                   
440261801310014 08440 4150201non renseigné       0230860non renseigné       0240650N844_52_1           0240060000790000000440002101100000000000315      085705 0987    079725   083108   083417   088901   086011   092001   092050   086921   082275   087389   082149   084343               130000001    0    120000001    0    110000001    0    100000001    0    090000001    0                                                                                                                                                   
440261800310014 08440 4150201non renseigné       0230860non renseigné       0240650N844_52_1           0240060000790000000440002101100000000000315      081343 1027    075069   078395   078629   084002   081075   087644   087163   081370   082340   083921   077062   079344               130000001    0    120000001    0    110000001    0    100000001    0    090000001    0                                                                                                                                                   
440261700310014 08440 4150201non renseigné       0220900non renseigné       0230900N844_52-51 LA BOUVRE0230257001000000000440002101100000000000608      081114 0927    074943   078210   078776   084073   081263   087945   087382   081484   079144   083802   076980   079203               130000001    0    120000001    0    110000001    0    100000001    0    090000001    0                                                                                                                                                   
440261601310014 08440 4150201non renseigné       0220300non renseigné       0230000N844_51-PTE GD LIEU 0220670000700000000440002101100000000000315      081634 0867    075203   078531   078822   084198   081266   087833   087396   081571   078558   082854                                 130000001    0    120000001    0    110000001    0    100000001    0    090000001    0                                                                                                                                                   
440261600310014 08440 4150201non renseigné       0220300non renseigné       0230000N844_51-PTE GD LIEU 0220670000700000000440002101100000000000315      074042 0947    068342   071483   071956   076529   073754   079155   078837   073607   072054   074636                                 130000001    0    120000001    0    110000001    0    100000001    0    090000001    0                                                                                                                                                   
440261511310014 08440 4150201non renseigné       0210100non renseigné       0210800N844_50-PTE RETZ    0210380000700000000440002101100000000000315      073850    0    068322   071467   071967   076602   073744   079191   078894   073617   072079   076196   071327   072690               130000001    0    120000001    0    110000001    0    100000001    0    090000001    0                                                                                                                                                   
440261510310014 08440 4150201non renseigné       0210100non renseigné       0210800N844_50-PTE RETZ    0210380000700000000440002101100000000000315      072506    0    067009   069996   070700   075230   072488   077665   077880   072518   071958   074454   068943   071102               130000001    0    120000001    0    110000001    0    100000001    0    090000001    0                                                                                                                                                   
440261500310014 08440 4150201non renseigné       0190000non renseigné       0210100N844_49-50          0200220002100000000440002101100000000000608      072498 1067    066970   069956   070503   074341   072501   077602   077777   072387   071644   074459   068816   072852               130000001    0    120000001    0    110000001    0    100000001    0    090000001    0                                                                                                                                                   
440261422310014 08440 4150201non renseigné       0180000non renseigné       0190000N844_49-PTE REZE    0180550001000000000440002101100000000000315      072490    0    067097   070072   070204   072526   073898   077756   077845   072443   071630   074527   068878   072801               130000001    0    120000001    0    110000001    0    100000001    0    090000001    0                                                                                                                                                   
440261402310014 08440 4150201non renseigné       0180000non renseigné       0190000N844_49-PTE REZE    0180500001000000000440002101100000000000315      069670    0    064604   067398   067271   069657   070679   074441   074145   068860   069792   071971   066567   070499               130000001    0    120000001    0    110000001    0    100000001    0    090000001    0                                                                                                                                                   
440261400310014 08440 4150201non renseigné       0160185non renseigné       0180000N844_48-49_2 REZE   0170900001815000000440002101100000000000608      069387 1197    064352   067169   067647   072032   069127   074458   074291   068747   069851   071823   066452   066646               130000001    0    120000001    0    110000001    0    100000001    0    090000001    0                                                                                                                                                   
440261300310014 08440 4150201non renseigné       0140080non renseigné       0140800N844_47 PTE VERTOU  0140740000720000000440002101100000000000608      072755 0857    069058   071986   070962   076007   070988   076860   073914   064669   078037   077025   071777   072076               130000001    0    120000001    0    110000001    0    100000001    0    090000001    0                                                                                                                                                   
440261201310014 08440 4150201non renseigné       0130000non renseigné       0140080N844_46-PTE SEBASTIE0130000001080000000440002101100000000000315      000000    0                                                                                                                            130000001    0    120000001    0    110000001    0    100000001    0    090000001    0                                                                                                                                                   
440261200310014 08440 4150201non renseigné       0130000non renseigné       0140080N844_46-PTE SEBASTIE0130000001080000000440002101100000000000315      000000    0                                                                                                                            130000001    0    120000001    0    110000001    0    100000001    0    090000001    0                                                                                                                                                   
440261101310014 08440 4150201non renseigné       0100000non renseigné       0110000N844_45-PTE GOULAINE0100550001000000000440002101100000000000315      058848 1027    055397   058058   057356   061126   056735   061355   059959   053414   063465   062074   058035   059398               130000001    0    120000001    0    110000001    0    100000001    0    090000001    0                                                                                                                                                   
440261100310014 08440 4150201non renseigné       0100000non renseigné       0110000N844_45-PTE GOULAINE0100550001000000000440002101100000000000608      066130 0917    061874   064674   063965   068891   063877   069540   067319   059642   072465   069981   065147   066418               130000001    0    120000001    0    110000001    0    100000001    0    090000001    0                                                                                                                                                   
440261003310014 08440 4150201non renseigné       0090400non renseigné       0100000N844_45-44_2 ROUCHES0090750000600000000440002101100000000000608      064954 0917    060626   063347   062812   067579   062817   068411   066365   058752   071162   068934   063825   065031               130000001    0    120000001    0    110000001    0    100000001    0    090000001    0                                                                                                                                                   
440260900310014 08440 4150201non renseigné       0080700non renseigné       0090400N844_44-45_1        0090200000700000000440002101100000000000315      065353 0987    061173   063955   063108   068103   063110   068767   066681   058905   071656   069161   064267   065581               130000001    0    120000001    0    110000001    0    100000001    0    090000001    0                                                                                                                                                   
440260701310014 08440 4150201non renseigné       0070700non renseigné       0080775N844_44-PTE VIGNOBLE0080370001075000000440002101100000000000315      066073 0727    061795   064573   063863   068845   063793   069541   067428   059569   072409   069876   065065   066346               130000001    0    120000001    0    110000001    0    100000001    0    090000001    0                                                                                                                                                   
440260700310014 08440 4150201non renseigné       0070700non renseigné       0080775N844_44-PTE VIGNOBLE0080370001075000000440002101100000000000315      084484 0577    079232   081922   081800   088155   081461   089192   084829   075711   092908   089888   083737   085245               130000001    0    120000001    0    110000001    0    100000001    0    090000001    0                                                                                                                                                   
440213700310014 04440 4150201non renseigné       0020585non renseigné       0060719N444_3-2 COUERON    0040088004134000000440002101100000000000608      000000    0                                                                                                                            130000001    0    120000001    0    110000001    0    100000001    0    090000001    0                                                                                                                                                   
440213500310014 04440 4150201non renseigné       0000000non renseigné       0020100N444_33-1 ATLANTIS  0000155002100000000440002101100000000000608      000000    0                                                                                                                            130000001    0    120000001    0    110000001    0    100000001    0    090000001    0                                                                                                                                                   
440101101310014 08440 4150201non renseigné       0060700non renseigné       0070385N844_42-43_2        0070000000685000000440002101100000000000315      066536 0877    064587   066040   066892   070863   059865   069699   068835   056861   068328   069364   067950   069452               130000001    0    120000001    0    110000001    0    100000001    0    090000001    0                                                                                                                                                   
440101000310014 08440 4150201non renseigné       0050900non renseigné       0070100N844_42-43_1        0060535001200000000440002101100000000000315      054626 0837    051441   051772   053480   056821   052651   056900   054471   049145   060821   058026   054674   055382               130000001    0    120000001    0    110000001    0    100000001    0    090000001    0                                                                                                                                                   
440100700310014 08440 4150201non renseigné       0040600non renseigné       0050300N844_42_1           0050130000700000000440002101100000000000315      053701 0827    052548   051483   054273   057220   052002   053195   051581   047400   056271   057380   055298   055774               130000001    0    120000001    0    110000001    0    100000001    0    090000001    0                                                                                                                                                   
440100500310014 08440 4150201non renseigné       0030300non renseigné       0030950N844_40-41_2        0030700000650000000440002101100000000000315      061134 0947    058863   058788   060469   063945   058210   063592   060780   054284   067385   064378   061154   061904               130000001    0    120000001    0    110000001    0    100000001    0    090000001    0                                                                                                                                                   
440100401310014 08440 4150201non renseigné       0020740non renseigné       0030300N844_40-41_1        0030210000560000000440002101100000000000315      060165 0887    056913   059104   059367   062819   057403   062535   059718   053490   066110   063559   060272   060946               130000001    0    120000001    0    110000001    0    100000001    0    090000001    0                                                                                                                                                   
440100400310014 08440 4150201non renseigné       0020740non renseigné       0030300N844_40-41_1        0030210000560000000440002101100000000000315      067707 0837    064962   067040   066780   070511   064465   070101   067237   059829   073813   071334   067980   068738               130000001    0    120000001    0    110000001    0    100000001    0    090000001    0                                                                                                                                                   
440100300310014 08440 4150201non renseigné       0020000Porte d'Anjou       0020800N844_39-40_2        0020567000800000000440002101100000000000309      067952 0867    064910   067235   067152   070874   064610   070507   067618   060016   074333   071567   068045   068879               130000001    0    120000001    0    110000001    0    100000001    0    090000001    0                                                                                                                                                   
440100200310014 08440 4150201non renseigné       0000900non renseigné       0020000N844_40-39_1        0010623001100000000440002101100000000000608      000000    0                                                                                                                            130000001    0    120000001    0    110000001    0    100000001    0    090000001    0                                                                                                                                                   
440100100310014 08440 4150201non renseigné       0000250non renseigné       0000900N844_38-39          0000360000900000000440002101100000000000309      000000    0                                                                                                                            130000001    0    120000001    0    110000001    0    100000001    0    090000001    0                                                                                                                                                   
440026150310014 08440 4850201non renseigné       0180402non renseigné       0220590N844_2615           0200000004172000000440261400300000000000608      069616                                                                                                                                 130690048         120676808         110680308         100665908         090642788                                                                                                                                                        
440004600310014 02490 4813001RD 763 Vallet       0190667Département 49      0250666Le Clairay          0200000005999000000490003100349000310030187      000000    0                                                                                                                            130199288    0    120199628    0    110196788 1206    100198328    0    090190818    0                                                                                                                                                   
440004500310014 02490 4110201RN 149 Tournebride  0080512RD 763 Vallet       0190667N249_44 VALLET      0140400011195000000490003100100000000000187      029910 1367    027681   028838   029127   031038   029586   030979                     031706   031519   029244   029385               130293331 1397    120287421 1437    110284601 1417    100275761 1387    090266231 1357    026559   027701   028403   030091   029022   031652   031007   028669   030945   030969   028639   028308                                      
440004403310014 02490 4140201RD 844 Bellevue Sud 0000000RD 115 Basse Goulain0040929N249_EX-44 VIGNOBLE 0010560004929000000490003100100000000000187      047275 1057    044267   046011   046653   049362   046166   050436   048032   042716   049827   049676   046558   047709               130463601 1087    120454791 1117    110451561 1107    100438451 1037    090000001    0    042932   044880   045800   048317   045836   049629   048326   042456   048129   049009   045835   045228                                      
440004401310014 02490 4810201RD 115 Basse Goulain0040929RN 149 Tournebride  0080512Haute Goulaine      0070000003583000000440004500300000000000187      036734    0                                                                                                                            130360268    0    120353018    0    110349558    0    100338708    0    090327008    0                                                                                                                                                   
440004300310014 08440 4150101Porte d'Anjou       0070250Porte du Vignoble   0080050N844_43-44 PONT BEL 0070600000800000000440004500300000000000187      084425 0867    079077   081772   081319   087825   083415   088585   084571   075447   092570   090021   083633   085087               130821971 0877    120796171 0897    110791431 0887    100767241 0897    090769511    0    076847   080109   081451   085739   081115   087038   084859   074181   086122   087797   082021   079281                                      
440003802310014 01710 4810201ECHAN TRIGNAC       0860794N 171 CERTE         0880425Certe               0870600001631000000440003700300000000001299      057214    0                                                                                                                            130562148    0    120565438    0    110564698    0    100556018    0    090550888 0500                                                                                                                                                   
440003801310014 01710 4810201D50 MONTOIR         0840765ECHAN TRIGNAC VC    0860794Trignac E           0860100002029000000440003700300000000001299      052403    0                                                                                                                            130514878    0    120517898    0    110517218    0    100509268    0    090504568 0700                                                                                                                                                   
440003700310014 01710 4110201RD 4 Les Six Croix  0790118RD 50-RD 971 Montoir0840765N171_44 MONTOIR     0830530005656000000440003700300000000000187      051334 0538    044509   047638   048427   052816   051449   056318   057747   055734   055187   051673   047101   047257               130504361 0697    120507311 0707    110506641 0568    100498851 0558    090494241 1258    042564   046102   047951   052304   051280   053241   059509   057368   052040   050397   046560   045571                                      
440003600310014 01710 4810201RD 100 Prinquiau    0710820RD 4 Les Six Croix  0790118Prinquiau           0750400007298000000440003500300000000000187      036982    0                                                                                                                            130359588    0    120350788    0    110361718    0    100357308    0    090351978 0706                                                                                                                                                   
440003500310014 01710 4110201RD 217-RD 93 Sablièr0680080RD 100 Prinquiau    0710820N171_44 D100        0710600003752000000440003500300000000000187      039193 1027    033365   035653   036812   040447   039496   043453   044897   043189   042375   039352   035524   035563               130381071 1057    120371741 1017    110383321 1007    100378641 1007    090372991 0967    031653   034262   035911   034996            040696   046463   044846   040328   038242   035124   035787                                      
440003400310014 01710 4810201RN 165 La Moëre     0640900RD 217-RD 93 Sablièr0680080Savenay             0680000003180000000440003500300000000000187      035303    0                                                                                                                            130343258    0    120334858    0    110345298    0    100341088    0    090336008    0                                                                                                                                                   
440003300310014 01710 4113001RD 164 Blain        0490302RN 165 La Moëre     0640900N171_44 BLAIN       0500000016363000000440003500300000000000187      007779 1248    006719   007126   007492   008103   008139   008832   008983   009088   007996   007272   006589   006956               130077331 1288    120079381 1248    110078581 1248    100076151 1238    090076871 1178    006649   007101   007416   007542   007484   007807   009224   009364   008294   007801   007145   006911                                      
440003200310014 01710 4843001ROUTE DE NOZAY D164 0480035LE GRAVIER D15      0490302Blain Agglomeration 0480500001461000000440003300300000000000298      012400    0                                                                                                                            130123278    0    120126548    0    110125278    0    100121408 0706    090119128    0                                                                                                                                                   
440003100310014 01710 4812001RN137 NOZAY         0360004RD164 BLAIN         0480035La Grigonnais       0430000012031000000440003300300000000000298      006068    0                                                                                                                            130060338    0    120061948    0    110061338    0    100059458    0    090060018    0                                                                                                                                                   
440002600310014 01650 4110201RD16 Nord           0520137DEPARTEMENT 56      0650989N165_44 HERBIGNAC   0610800012712000000440003300100000000000193      026275 1277    019061   020244   022945   025837   027537   028962   033251   038740   027560   025504   021929   023111               130256861 1317    120251871 1357    110253821 1347    100248921 1347    090243641 1367    018509   020097   022479   025447   027502   026601   032776   038353   026925   024577   021545   022818                                      
440002500310014 01650 4810201RD 16 La Sapinière  0450535RD16 Nord           0520137Pontchateau         0490000006602000000440002600300000000000187      030107    0                                                                                                                            130294338    0    120288628    0    110290868    0    100285258    0    090279208 1006                                                                                                                                                   
440002400310014 01650 4110201RN 171 La Moëre     0330442RD 16 La Sapinière  0450535N165_44 PRINQUIAU   0400400012052000000440002600300000000000187      029652 1047    023107   024502   027541   029830   030486   032047   034973   038973   030374   029154   027287   027083               130287621 1067    120281331 1097    110280641 1117    100277141 1107    090269391 1097    022217   023856   025989   028860   030339   029780   034766   038658   030122   028399   025440   026219                                      
440002301310014 01650 4110201RD 93               0150020MALVILLE D965       0230044N165_EX-44 LE TEMPLE0220530008050000000440002600300000000000696      051045 0668    045809   048263   050570   055108   053837   056822                     045713   051941   046023   051560               130534231 0848    120542601 0968    110540251 0988    100534091 0998    090497311 0888    046181   049407   052067   056824   056969   056198   059607   060803   052956   052450   048294   048951                                      
440002300310014 01650 4110201RD49                0230044RN 171 La Moëre     0330442N165_44 MALVILLE    0300500010435000000440002600300000000000187      056475 0967    047237   048881   051828   057126   056718   059319   065715   067640   059422   056811   053970   052426               130546331 0987    120542341 1007    110550261 0967    100550401 0967    090555241    0    045296   046609   051506   055150   056453   057270   064516   066788   056975   054583   049380   050300                                      
440002201310014 01650 4810201D201                0110000D93                 0150020Deviation Sautron   0120000004020000000440002301300000000001002      065326    0                                                                                                                            130683708    0    120694428    0    110691428    0    100683548    0    090636478    0                                                                                                                                                   
440002101310014 01650 4110201L 'ESPERANCE (A821) 0070000GUILLOCHERIE (D201) 0110000N165_EX-36 SAUTRON  0080560004000000000440002301300000000000187      032130 1017    026920   028140   029975   033458   032675   034155   036595   037076   035391   032598   028970   029341               130295321 1107    120300531 1087    110301811 1067    100309791 1047    090307471 1087    022748   024650   026305   028599   029362   030543   035667   034536   032921   031651   028675   028338                                      
440002001310014 01650 4843001D75                 0070126A82                 0070460L'esperence         0070500000334000000440002101300000000001002      026828    0                                                                                                                            130246298    0    120250878    0    110252198    0    100258648    0    090256648    0                                                                                                                                                   
440001302310014 01370 4110201RD 537 Les Pavillons0730646Département 35      0810736N137_DERVAL         0730900008102000000440002101100000000000190      025238 1367    019862   021658   022567   025442   026156   028111   029510   031831   026335   025344   022402   023333               130246491 1367    120244661 1407    110243701 1447    100240151 1487    090241121 1447    019427   021135   022662   024971   025608   025977   029080   031248   026457   024483   022256   022176                                      
440001301310014 01370 4810201RN171 NORD GRANDJOUA0650105RD537 LES PAVILLONS 0730646Tournebride-Gd Jouan0690000008541000000440001302300000000000298      027596    0                                                                                                                            130269528    0    120267528    0    110266488    0    100262608 1206    090249748    0                                                                                                                                                   
440001201310014 N1370 4110201RN 171 Sud Créviac  0610120RN 171 Nord Grandjou0650105N137_44 NOZAY       0620000003997000000440001302300000000000187      034815 1387    029279   030991   032256   035624   035790   038853   039486   040670   036861   033939   031661   032115               130343941 1397    120342001 1407    110340191 1417    100333611 1407    090327971 1387    028566   030702   032330   034627   034791   035943   039236   040344   037040   035056   032109   031694                                      
440001100310014 01370 4810201RD237 BOSSE LANDES  0450174RN171 SUD CREVIAC   0610120Saffre              0540000015941015941440001000300000000000298      000000                                                                                                                                 130295808         120292398         110289328         100284268         090272558 1206                                                                                                                                                   
440001000310014 01370 4110201D75                 0310170D237                0330370N137_44-ORVAULT     0330260002200000000440001000100000000000187      000000    0                                                                                                                            130387831 1008    120383351 1028    110379331 1167    100372661 1038    090357631 1068    033888   035970   036901   039644   039011   041130   042146   040917   041163   040428   037292   036758                                      
440000900310014 01370 4150201A844                0280500D75                 0290450N137_EX-37          0280620000950000000440001000100000000000499      000000    0                                                                                                                            130000001    0    120000001    0    110000001    0    100000001    0    090000001    0                                                                                                                                                   
350711700310014 01760 4810201RN 137              0290618limite 22           0330575La ville es Nonais  0300500003764003764220003900322000390030309      000000                                                                                                                                 130191438         120188568         110173288         100186368         090183528 1200                                                                                                                                                   
350071000310014 00840 1110241RD 92               1000750Echangeur RD 92     1080400A84_LIFFRE          1070180007320000000220003900300000000000309      035547 1297    031205   032381   032989   036960   035150   037959   038598   038122   037862   037135   033941   034096               130346371 1297    120340471 1307    110344821 1327    100331641 1297    090325751 1297    029266   031525   032007   035692   035174   036173   038116   036807   036985   036042   034810   032906                                      
350070000310014 00840 1110241Echangeur RD 92     1080400Echangeur RD 794    1160596A84_27-28 GOSNE     1110200008362000000220003900300000000000101      031170 1117    027941   027436   028657   032633   031227   032829   034075   034206   033174   032473   029452   029692               130302511 1367    120298161 1387    110303961 1377    100292141 1347    090287241 1287    025279   027318   027809   031176   030942   031722   033625   033195   032298   030736   029741   029017                                      
350069500310014 00840 1110241Echangeur RD 155    1350525Limite Dép Manche   1460400A84_30-31 LA JUTAIS 1420200010899000000220003900350000000000199      019831 1497    015241   016249   017499   020228   020328   021761   024018   026226   020972   019786   017506   017843               130191301 1597    120188521 1647    110193461 1687    100184021 1687    090182161 1697    015043   015939   016454   019635   020110   019879   023574   024286   020611   019040   017530   017190                                      
350069000310014 00840 1110241Echangeur RD 18     1290390Echangeur RD 155    1350525A84_30-29 ESSART    1340935006153000000220003900300000000000199      019929 1597    015395   016329   017502   020347   020446   021927   023929   026078   021081   019966   017820   018025               130192261 1617    120191871 1647    110195001 1657    100187661 1637    090185071 1647    014404   015975   016492   019756   020265   020217   022957   024588   020674   019415   018318   017404                                      
350068500310014 00840 1110241Echangeur RD 794    1160596Echangeur RD 18     1290390A84_28-29 MEULE     1180332012841000000220003900300000000000199      028418 2078    024043   025302   025890   029489   028567   030486   031730   032627   030229   029202   026549   026698               130275501 1918    120272431 0948    110276721 1148    100264721 1138    090260381 1138    022404   024389   024902   028338   028481   028981   031365   031525   029624   028217   026434   025728                                      
350067500310014 00840 1110241Echangeur RN 136    0960000RD 92               1000750A84_EX-16 THORIGNE  0980705004175000000220003900300000000000100      036843 1087    033940   035714   035396   039373   037281   038308   038757   037278   038344   037777   034819   035137               130369411 1057    120364081 1127    110368331 1147    100354551 1137    090346961 1137    032020   034276   034874   038166   037402   038990   039949   038147   039383   038854   035778   035343                                      
350067000310014 01360 4110301RD 97               0230680A 84                0260450N136_16-15_2        0240335002960000000220003900300000000000199      057400 0977    051227   053873   053795   060935   056690   061213   061297   057100   060570   060454   055136   056443               130557131 0987    120541591 0987    110535761 0957    100523751 0977    090504401 0937    048697   051433   053371   057340   056914   058242   060289   056303   058688   058274   054781   054011                                      
350066000310014 01360 4110301Echangeur A 84      0260450Echangeur RD86/RD 290270910N136_16-17          0260981001540000000220003900300000000000199      044896 1157    038980   040994   041249   047892   044982   048842   048782   046220   046811   047047   042576   044210               130433031 1177    120411151 1187    110423681 1147    100420941 1157    090400091 1177    036725   039084   040883   044046   044262   045166   048431   045341   045351   045376   042489   042203                                      
350065000310014 01360 4110201Echangeur RD 86/RD 20270910Echangeur RN 157    0300260N136_17-01          0290840002252000000220003900300000000000199      048287 1137    042661   044833   044706   051150   047847   052149   052157   048844   050336   050874   045985   047771               130467681 1167    120455111 1167    110446761 1147    100434421 1157    090429001 1147    040545   042888   044450   047650   047478   048677   051761   047786   048965   049154   045900   045717                                      
350061000310014 01360 4110201Echangeur RD 175    0210410RD 97               0230680N136_14-15          0220569002080000000220003900300000000000195      063468 0997    059005   062027   061567   066473   061084   066561   066912   061104   066851   066789   061113   062217               130622761 1017    120602201 1037    110594591 1017    100582231 0987    090569271 0897    054401   057597   059128   063361   062458   064418   067027   060828   065406   066431   064450   061633                                      
350060000310014 01360 4110201Echangeur RN 137    0180527Echangeur RD 175    0210410N136_13-14          0190390002883000000220003900300000000000195      068993 0987    063660   066824   066188   072275   067166   073005   072536   065683   073079   073094   066965   067539               130681951 0977    120666761 0977    110658401 0967    100643421 0947    090631481 0927    060859   064331   065795   070206   068751   071193   073124   065605   071621   072382   068805   065584                                      
350022210310014 01360 4110301Echangeur RN 24     0140152Echangeur RN 12     0150571N136_11-10          0140779001396000000220003900300000000000197      102812 0777    098441   101639   100924   107200   101014   108108   105626   092400   108326   108550   101169   100672               131007871 0777    120986831 0707    111008341 0817    100997561 0827    090995561 0817    093747   098349   099404   103890   099918   106155   105494   091446   105604   107372   100335   097901                                      
350005400310014 01760 4110201RD 155 Ouest de Dol 0170555RN 137              0290618N176_35 ROZ LAND    0230000011992000000220003900300000000000187      018732 1377    013735   014848   016055   019923   019675   018917   023550   026378   019587   019056   016299   016379               130173421 1377    120172051 1387    110176171 1397    100178621 1387    090177091 1327    012385   013645   014772   016636   019078   017906   022468   025033   018028   017021   015394   015330                                      
350005300310014 01760 481 251RD 80               0140747RD 155              0170555                    01602000027860000003500050003          0187      016834                                                                                                                                 130161478         120158998         110161628         100158458         090158398                                                                                                                                                        
350005000310014 01760 4110201Département Manche  0000000RD 80 Est de Dol    0140747N176_35 BAGUER      0120538014630000000350005000350000450030187      013957 1178    008930   009689   011076   014645   015000   015612   018835   022391   014299   014021   011257   011311               130133871 1357    120131811 1407    110133991 1168    100131361 1178    090131311 1168    008200   009298   010585   013154   015354   013771   018444   021710   014004   013743   011215   010724                                      
350004300310014 01640 4813001RN 12               0000000RD 166              0110458Montauban           0030000010749000000350000900300000000000187      016155 3200                                                                                                                            130000008    0    120000008    0    110000008    0    100000008    0    090000008    0                                                                                                                                                   
350004101310014 01640 4113001RD 166              0000000Limite Dép 22       0131020N164_35 STMEENSOL   0070078013102000000350000900122000000030187      009679 1827    008983   009705   009184   010123   009411   010218   010296   009422   010041   010102   009526   009175               130000001    0    120000001    0    110000001    0    100000001    0    090000001    0                                                                                                                                                   
350004100310014 01570 4110201RD 292 Noyal/Vilaine0380420RN 136              0410815N157_EX-01 NOYAL    0390100002803000000350000900100000000000187      062801 3157    059420   059789   059784   065277   062625   066589   066854   061834   064092   065496   059538   062161               130617461 1337    120607441 1327    110611631 1327    100600611 1307    090590531 1297    053591   057109   060225   063007   063777   063832   067097   062007   063775   064281   060365   061557                                      
350004001310014 01570 4110201Echangeur RD 101    0330225RD 286              0380420N157_EX_2 BRECE     0330847005190000000350000900100000000000187      050915 1327    044306   047582   047974   053581   050604   054636   055628   053555   052412   053397   047069   050052               130000001    0    120000001    0    110000001    0    100000001    0    090000001    0                                                                                                                                                   
350004000310014 01570 4110201Echangeur RD 857    0280853RD 292 Noyal/Vilaine0330225N157_35 SERVON      0320100003426000000350000900100000000000187      000000    0                                                                                                                            130461841 1377    120456431 1308    110463511 1318    100457531 1417    090451271 1308    038893   041765   045014   047149   048849   047406   051675   049656   047105   047375   044105   044824                                      
350003900310014 01570 4810201Echangeur RD 777    0170198Echangeur RD 857    0280853St-Didier           0200000011661000000350003700300000000000187      033471                                                                                                                                 130000008         120326988         110330408         100322508 1506    090321478    0                                                                                                                                                   
350003800310014 01570 4810201Echangeur RD 178    0120000Echangeur RD 777    0170198Torcé               0150188005190000000350003700300000000000187      029548                                                                                                                                 130000008         120288658         110291678         100284708 1606    090280798    0                                                                                                                                                   
350003700310014 01570 4110201Département Mayenne 0000000Echangeur RD 178    0120000N157_35 VITRE       0050800012009000000350003700353000170130187      029151 1847    022796   024284   026013   031330   029691   031807   034366   036699   028784   030141   025636   027826               130000001    0    120284771 1937    110287741 1917    100280861 1907    090284431 1837                                                                                                                                                   
350003000310014 01370 4110201RD 34 Chartres      0380750Entrée Rennes Alma  0430408N137_OC-06          0410060004658000000350003700300000000000187      050522 0927    045746   048116   048098   052144   050026   053902   053208   050204   053301   053061   049007   049425               130000001    0    120000001    0    110000001    0    100000001    0    090000001    0                                                                                                                                                   
350002900310014 01370 4110201RD 41               0310355RD 34 Chartres      0380750N137_EX-OC TREMBLAIS0370200007394000000350003700300000000000187      049485 1057    045008   047455   047258   051330   049126   050552   053172   049275   052479   052189   047813   048107               130471881 1077    120478891 1097    110480841 1107    100000001    0    090000001    0    042972   045677   046681   049637   047499   044279   043955   048129   051803   051455   047437   046729                                      
350002700310014 01370 4110201Echangeur RD 777    0160636RD 41               0310355N137_35-BGCOMPTESOL 0250000014378000000350003700300000000000187      034886 1157    029963   031896   032327   035728   035085   037836   038310   038264   036448   036146   032930   033527               130000001    0    120000001    0    110000001    0    100000001    0    090000001    0                                                                                                                                                   
350002500310014 01370 4110201DEP 44              0040147Echangeur RD 777    0160636N137_35 BAIN        0120520012236000000350003700344000000000187      000000    0                                                                                                                            130273941 1437    120277011 1417    110277481 0868    100267271 0818    090259481 0828    021558   022283   024260   027340   028419   028394   032442   033731   029946   028223   026079   025636                                      
350002300310014 01360 4110201Echangeur RN 12     0150571Echangeur RN 137    0180527N136_12-13          0170900002956000000350003700300000000000195      082390    0    077682   079953   080286   086034   080787   086345   085462   077327   086396   086502   080348   081626               130810031    0    120738811 0807    110755971 0857    100745051 0847    090715091 0817    073696   077387   079118   083348   081176   085043   086684   076963   084787   085305   079972   078502                                      
350002200310014 01360 4110301Echangeur RD 177    0120063Echangeur RN 24     0140152N136_09-08_1        0130146002108000000350003700300000000000187      102255 0887    098928   101940   100999   106745   097238   107532   104232   091512   106793   108376   101539   101632               131011131 0947    120996541 0907    111015191 0867    101012941 0847    091007611 0837    094898   098598   100193   102722   100298   105080   104847   091075   104673   108504   102690   099884                                      
350002100310014 01360 4110201Echangeur RD 837    0100536Echangeur RD 177    0120063N136_08-07          0110495001478000000350003700300000000000196      088076 0867    084107   086510   086287   092034   086854   092605   091458   084399   091214   092509   086719   082401               130000001    0    120862391 0907    110870171 0937    100852531 0927    090842151 0907                                                                                                                                                   
350002000310014 01360 4110201Echangeur RN137 Alma0090084Echangeur RD 837    0100536N136_06-07          0090700001448000000350003700300000000000187      000000    0                                                                                                                            130878631 0857    120875221 0877    110891171 0917    100885591 0897    090895521 0877    082763   085713   086912   090092   088012   090438   092449   080448   090746   093306   087532   085983                                      
350001901310014 01360 4110201Echangeur RD 463    0050160Echangeur RD 163    0060630N136_05-04          0050976001470000000350003700300000000000309      069949 1107    066370   068696   067329   073680   067950   073800   072542   064054   073311   074088   068434   069310               130695621 1117    120691221 1147    110704171 1177    100693001 1177    090687461 1167    064907   067414   068271   071552   069425   072100   073400   063302   072488   073568   070600   067781                                      
350001900310014 01360 4110201Echangeur RD 163    0060630Echangeur RN137 Alma0090084N136_05-06_2        0080000002434000000350003700300000000000187      083071 1017    078766   081185   080263   086838   081634   087385   085704   076226   086789   087894   081656   082660               130000001    0    120000001    0    110000001    0    100000001    0    090000001    0                                                                                                                                                   
350001722310014 01360 4110201autre               0010483D386 Bd Urbain      0030483N136_03-02 BELLANGER0020172002000000000350003700300000000000309      058717 1177    054821   056519   055629   062133   057989   062607   061290   055632   061148   060994   057014   058873               130583991 1187    120580451 1217    110591221 1267    100580051 1257    090571191 1257    053271   055215   056819   060016   058797   060633   062643   055444   060969   061500   058041   057329                                      
350001720310014 01360 4110201D386 Bd Urbain      0030483Echangeur RD 463    0050160N136_03 PTE BEAULIEU0030738001834000000350003700300000000000187      056370 1117    058718   061370   058070   064460   057598   065944   051151   043311   056117   054039   053035   053563               130616391 1097    120618151 1117    110629501 1207    100618051 1157    090611601 1137    057490   059918   060910   063724   060161   062030   066857   056230   062009   065122   063935   061285                                      
350001711310014 01360 4110201Intersection N157   0000000autre               0010483N136_01-02          0010084001483000000350003700300000000000309      050722 1227    046328   048147   047613   053820   050222   054582   053558   049083   053051   053313   048795   050145               130498321 1267    120495891 1297    110506091 1367    100492791 1367    090483401 1357    044836   046909   048339   051217   050525   051926   053361   048079   052265   052476   049414   048530                                      
350001600310014 00240 4810201RD 61 Plélan        0320520Département 56      0390565Plélan le Grand     0360409007045000000560000100356000010030187      033845 1800                                                                                                                            130000008    0    120000008    0    110000008    0    100000008    0    090000008    0                                                                                                                                                   
350001500310014 00240 4110201RD 69 St Thurial    0190377RD 61 Plélan        0300753N24_35 TREFFEND     0240350011181000000560000100100000000000187      000000    0                                                                                                                            130000001    0    120264631 1037    110271761 0358    100267611 0358    090264021 0348                                                                                                                                                   
350001401310014 00240 4110201RD 288 2ème ceinture0080587RD 34               0110142N24_OG-OH           0090623002555000000560000100100000000000187      031109 0917    026257   027764   028218   033028   031281   033431   035186   035741   032114   031439   028886   029733               130306551 0927    120306751 0947    110310381 0947    100304711 0937    090300541 0917    025422   026749   028522   030824   032920   032161   035206   035377   031888   030802   028812   028839                                      
350001400310014 00240 4810201RD 34               0110142RD 69               0190377Bréal/Montfort      0150488008484000000350001500300000000000187      031115 1700                                                                                                                            130000008    0    120000008    0    110000008    0    100000008    0    090000008    0                                                                                                                                                   
350001300310014 00240 4110201RD 224 Est D'Apigné 0050061RD 288 2ème ceinture0080587N24_OH-10_1         0060750002948000000350001500100000000000187      028509 1037    024256   024315   026434   030520   029536   030565   031987   032437   029426   028835   026348   027125               130281341 0987    120281941 1157    110289881 1187    100286741 1167    090266381 1107    023374   024638   026397   028538   029979   029569   032287   032360   028981   028118   026735   026334                                      
350001200310014 00240 4110201Sortie Rennes Lim Co0000000RD 224 Est D'Apigné 0050061N24_OH-10_2         0030900002948000000350001500100000000000187      033974 0487    030190   030907   031714   035867   034213   036225   037102   035980   035406   034942   032049   032914               130000001    0    120000001    0    110000001    0    100000001    0    090000001    0                                                                                                                                                   
