040000900310014 00850 4843001INTER. D404         0190090INTER. N96          0200840GENDARMERIE         0200000001743000065040001100300000000000190      012620                                                                                                                                 130000008         120125748         110132598         100127838         090123248                                                                                                                                                        
040001000310014 00850 4843001INTER. N96          0200840LIMITE AGGLO.       0210291SUBDI.CHATEAU-ARNOUX0210000000440000000040001100300000000000188      010788                                                                                                                                 130000008         120105078         110110798         100110488         090110178                                                                                                                                                        
040001100310014 00850 4113001LIMITE AGGLO.       0210291INTER. D4           0260400L'ESCALE            0220500005153004888040001200300000000000188      008644                                                                                                                                 130000001         120086371         110091071         100088931         090086821                                                                                                                                                        
040001101310014 00850 4813001INTER.D4            0260400INTER.DEV.MALIJAI   0270885MALIJAI             0270300001499000740040001200300000000000190      007492                                                                                                                                 130000008         120074038         110075318         100074978         090075948                                                                                                                                                        
040001200310014 00850 4113001INTER.DEV.MALIJAI   0270885INTER. D17          0360220MALLEMOISSON        0330700008162007132040001200300000000000190      013254                                                                                                                                 130000001         120131111  527    110133361    8    100132751         090134461    8                                                                                                                                                   
040001201310014 00850 4813001INTER. D17          0360220INTER. N1085        0390945LE ROCHER COUPE     0390850003715003715040001200300000000000202      016810                                                                                                                                 130000008         120166058         110168908         100168148         090170328                                                                                                                                                        
040001202310014 00850 4813001INTER. N1085        0390945Espace Commercial   0410630NOUVELLE SUBDI      0400000001640001640040001203300000000000202      012572                                                                                                                                 130125478         120000008         110128948         100130108         090129958                                                                                                                                                        
040001203310014 00850 4113001Espace Commercial   0410630BD POMPIDOU         0440140DIGNE_W_N85         04200000025000025000400012033          1295      017898  327    016492   016769   017634   018646   017675   018851   018936   018711   018989   018216   016935   016873               130178691  337    120000001         110183561    7    100185201         090184891    7    016747   016642   017900   017921   018192   018796   018809   018690   018604   018236   017258   016551                                      
040001205310014 00850 4843001BD POMPIDOU         0440140LA PALE             0440685PONT DAVID NEEL     0440545000545000000040001203300000000000107      007729                                                                                                                                 130077138         120000008         110079288         100079998         090079928                                                                                                                                                        
040001700310014 00850 4113001RD 12               0470290INTER. D907         0570250DIGNE_EST_N85       0500180008487008487050001100300000000000188      004737                                                                                                                                 130047111  877    120047671  867    110048711    7    100048501         090049791    8    003695   003616   004035   004366   005101   005301   006260   006955   005100   004456   003894   003644                                      
040001800310014 00850 4112001INTER. D907         0570250INTER. N202         0750128BARRÊME             0740800017685017285050001100300000000000188      004094  787    002877   002848   003649   003702   004196   004605   005660   006920   004494   003892   003139   003012               130041711  737    120041731  727    110042231    7    100042181         090043541    7    002928   003052   003408   003738   004470   004658   006540   006637   004536   003768   003160   003021                                      
040003200310014 02020 4112001INTER. N85          0000000INTER. D955         0130590GEVAUDAN            0060450013354011302050001100300000000000188      002654  987    002177   002079   002619   002508   002644                     003993   002895   002984   002275   002296               130027641         120025171         110027201         100027141         090027741         002192   002315   002439   002446   002761   002873   003738   004303   002922   002611   002269   002234                                      
040003300310014 02020 4112001INTER. D955         0130590INTER. D955         0210343SAINT JULIEN        0200050007683006489050001100300000000000188      002095         001819   001876   002227   002206   002278   002538            001979   002185   002443   001743   001732               130024381         120000001         110024791         100024721         090025471         001773   001895   002171   002149   002375   002478   003552   004284   002453   002305   001876   001862                                      
040003400310014 02020 4112001INTER. D955         0210343INTER. D908         0380410ROUAINE             0330620016825015738050001100300000000000188      001573                                                                                                                                 130015721  747    120015521  747    110016241         100016331         090017241    7    000999   001106   001188   001386   001655   001762   002353   002833   001687   001535   001211   001105                                      
040003500310014 02020 4112001INTER.D908          0380410INTER. D2202        0450150PONT DE GUEYDAN     0440850006608006460050001100300000000000188      002526  637    001774   001825   002128   002232   002576   002852   003395   004058   002740   002540   002208   001921               130025611  617    120025631  567    110026241    8    100025511         090029231    0    001854   001948   002054   002219   002635   002899   003732   004082   002677   002494   002138   001930                                      
050000900310014 00850 4113001LIMITE ISERE        0000000CARREF.CD945 LA FARE0220651ST FIRMIN           0050050022581020386050001100338000400031287      003209  647    002273   002757   003125   002762   003026   003341   004502   005852   003137   002924   002271   002454               130033121  667    120032911  717    110034641    8    100034791         090034991    8    002536   002633   003210   002697   003227   003347   004986   006074   003151   002896   002355   002506                                      
050001100310014 00850 4113001CARREF.CD945 LA FARE0220651CARREF.CD944        0330328BAYARD PUYMO        0330290010689009884050001100300000000000989      006080  497    005042   005984   005955   005436   005877   006272   007317   008414   006090   006134   005201   005179               130063671  487    120063661  477    110064001    7    100065081         090065601    7    005479   005953   005714   005380   005815   006212   008384   008570   006826   006593   005840   005555                                      
050001200310014 00850 4813001CARREF.CD944        0330328SORTIE GAP NORD AGGL0351330VARSIE              0350950003015003015050001100300000000001287      008162                                                                                                                                 130085488         120085478         110085938         100087398         090088098                                                                                                                                                        
050001299310014 00850 4853001SORTIE GAP NORD AGGL0351330CARREFOUR EUROPE    0380360AV CDT DUMONT       0360900002781000000050001100300000000001287      008152                                                                                                                                 130085378         120085368         110085828         100087278         090087978                                                                                                                                                        
050001399310014 00850 4853001CARREFOUR EUROPE    0380360SORTIE GAP SUD AGGLO0400726AV.JEAN JAURES      0390100002477000000050001100300000000000394      020859                                                                                                                                 130218448         120218418         110219588         100223298         090225088                                                                                                                                                        
050001395310014 00850 4813001SORTIE AGGLO SUD    0400726ACCES  CAR RD 47    0400964BEL AUREILLE        0400560000238000238050001300305000130030100      016500                                                                                                                                 130163858         120163308         110166488         100164498         090165098                                                                                                                                                        
050001300310014 00850 4113001SORTIE GAP CAR RD 470400964CARREF.CD942 TALLARD0510523GAP SUD N85         0490550010422010422050001300300000000001287      011966  518    011014   011733   012379   011718   011817   012327   012704   013277   012246   012079   011003   011248               130118821  518    120118421 1057    110120721         100119271         090119701    7    010941   011900   011712   011649   011875   012225   012913   013298   011985   011906   011011   011151                                      
050001400310014 00850 4113001CARREF RD 942 TALLAR0510523CARREF A51          0520421LA SAULCE           0520150000687000687050002100300000000000202      015810  697    018224   019050   016571   012757   013506   014110   015461   016726   014537   017278                                 130178541  577    120165321  727    110165641    7    100162171         090161621    7    016039   018284   016985   016085   017374   018189   020034   021975   018264   017349   015822   017792                                      
050002199310014 00940 4853001CARREF.MUSEE        0700000SORTIE GAP EST AGGLO0720245AVENUE EMBRUN       0710000002042000000050002100300000000001287      019744                                                                                                                                 130195768         120193728         110196168         100193688         090192368                                                                                                                                                        
050002100310014 00940 4113001SORTIE GAP EST AGGLO0720245CARREF.RD 942       0820090GAP EST N94         0750800009851009489050002100300000000001287      012551  467    011519   012030   012587   012096   011852   012616   014289   014401   012541   012352   011823   012415               130124441  467    120123141  467    110124691    7    100123111         090122271    7    011531   011881   012410   011924   012161   012789   014649   014526   012239   012095   011387   011640                                      
050002200310014 00940 4113001CARREF.CD942 MONTGAR0820090CARREF.CD954 BARCELO0980880CAR MONGARDIN       0820150016673015996050002500300000000001287      014464                                                                                                                                 130142431  837    120139561  827    110142951    7    100139341         090139321    7    012874   014850   014349   012950   012857   014099   018206   019720   013322   012735   011717   013145                                      
050002400310014 00940 4113001CARREF.CD954 BARCELO0980880AGGLO SUD EMBRUM    1080800SAVINES-CROTS       1070546008803008015050002500300000000001287      013813  607    012056   013302   014221   012004   012017   013457   019231   021670   012899   011949   010573   012125               130138431  607    120136641  607    110139261    7    100135551         090136941    7    012025   013821   013095   011886   011740   013285   020809   022111   012566   011696   010640   012206                                      
050002501310014 00940 4813001EMBRUN-SUD          1080800EMBRUN-NORD         1140440DEV_EMBRUN          1140000005640005640050002502300000000000409      000000                                                                                                                                 130000008         120000008         110000008         100000008         090000008                                                                                                                                                        
050002502310014 00940 4113001RD 263              1140440RD 902 A            1280350GUILLESTRE N94      1270234009874009291050002700300000000000199      008981  647    008142   009103   009890   007855   007533   008623   011671   013401   008313   007912   006924   008286               130089901  637    120088491  637    110091141    8    100089471         090091151    7    008465   009594   009050   007803   007544   008567   012195   013485   008149   007690   007084   008177                                      
050002600310014 00940 4113001CARREF.CD902A GUIL. 1280350CARREF.CD994E       1440520ARGENTIERE          1430800015594013008050002700300000000001287      006578  877    005455   005899   006660   005855   005770            009034   010121   006478   005955   005200   005802               130063311  927    120064351  917    110063361    7    100062851         090062461    7    005536   006252   006118   005621   005889   006026   009300   009193   006085   005428   004958   005466                                      
050002700310014 00940 4113001CARREF.CD994E       1440520CARREF.CD2 BRIAN.SUD1590079PRELLES             1520700014248012943050002700300000000000189      008028                                                                                                                                 130079491         120079491 1047    110079491 1067    100079191         090000001 1037                                                                                                                                                   
050002899310014 00940 4843001CARREF.CD2 BRIAN.   1590079CARREF.CD994F AGGLO 1600586BRIANCON AV PROVENCE1590600001550000000050002700300000000001287      003808                                                                                                                                 130037718         120037718         110038728         100076448         090077978                                                                                                                                                        
050003099310014 00940 4843001CARREF.CD994F AGGLO 1600586CARREF.RN91 CH.MARS 1610905BRIANCON AV FORGUES 1610000001339000000050002700300000000001287      001689                                                                                                                                 130016738         120016738         110017188         100033938         090034618                                                                                                                                                        
050003199310014 00940 4813001CARREF.RN91 CH.MARS 1610905AGGLO BRI NORD      1620412LA VACHETTE         1620050000511000000050003200300000000001287      008539                                                                                                                                 130084948         120082588         110084178         100082868         090084268                                                                                                                                                        
050003200310014 00940 4113001AGGLO BRI NORD      1620412SORTIE MONTGENEVRE  1720580COL MTG             1640150010980009660130004300300000000001287      006054  647    005423   005508   006511   005304   004786   005742   008476   010821   005579   004789   004206   005346               130060221  597    120058541  577    110059661    8    100058731         090059721    8    005628   006076   005888   004999   004354   005760   009696   009839   005519   004704   004212   005482                                      
050003220310014 00940 4113001AGGLO BRI NORD      1720580SORTIE MONTGENEVRE  1730390MTG TREMIE          1730120010980009660130004300300000000001287      003164  638    003384   003334   003803   002997   002071   002472   004239   006215   002403   001938   001900   003142               130031971  628    120030841  677    110031791    8    100026181         090025981    8    003267   003627   003667   002854   001949   002244   004875   006531   002222   001825   001947   003280                                      
050003300310014 00940 4113001SORTIE MONTGENEVRE  1730390LIMITE FRONTIERE    1740834POSTE P.A.F         1740600001451001451130004300300000000001287      002980  907    003266   003074   003651   002765   002123   002059   004263   005817   002172   001803   001747   002933               130030151  837    120027781  777    110029091    7    100028611         090029631    7    003587   003325   003447   002701   001861   002202   004189   006204   002031   001714   001832   003007                                      
050002499310014 20940 4843001AGGLO SUD EMBRUN    1100195AGGLO NORD EMBRUN   1120659AGGLO EMBRUN        1100200002359000000050002500300000000000191      008230                                                                                                                                 130076968         120067748         110040478         100039418         090041148                                                                                                                                                        
050002500310014 20940 4113001FIN AGLO NORD EMBRUN1120659CARREF.CD263        1170420EMBRUN NORD         1130900004776004776050002502300000000001287      006889  937    006489   007252   007362   005968   005469   006515   009368   010989   006249   005582   004998   006327               130064421  947    120056701  877    110033871    7    100032981         090034421    7    003973   007759   005534   006094   004766   006808   008076   011325   006463   005682   004817   006084                                      
130601300310014 00070 1810241BERRE               0000000VITROLLES           2590570ROGNAC              2550450005750005750130601690300000000000589      063845                                                                                                                                 130632138         120632138         110632138         100622308         090000008                                                                                                                                                        
130601400310014 00070 1810241VITROLLES           2590570VITROLLES Z.I.      2610270VITROLLES NORD SUD  2600500001705001705130601690300000000000589      057851                                                                                                                                 130572798         120572798         110572798         100567898         090000008                                                                                                                                                        
130601500310014 00070 1810241VITROLLES Z.I.      2610270MARIGNANE           2620120CARREFOUR VITROLLES 2610800000849000849130601690300000000000589      052305                                                                                                                                 130517888         120517888         110517888         100510838         090000008                                                                                                                                                        
130601690310014 00070 1110231RN 113              2640300SORTIE L'AGAVON     2650000L AGAVON PMV        2640650000593000593130620500300000000000589      109511                                                                                                                                 131084271         121084271         111084271         101071831         090000001                                                                                                                                                        
130601600310014 00070 1810231MARIGNANE           2620120RN 113              2640000MARIGNANE           2640000002187002187130601690300000000000589      080733                                                                                                                                 130799348         120799348         110799348         100788978         090000008                                                                                                                                                        
130601700310014 00070 1110441SORTIE L'AGAVON     2650000A 55 NORD           2651040L'ANJOLY            2650500001040001040130620500300000000000589      113463                                                                                                                                 131123401         121123401         111123401         101094211         091098451                                                                                                                                                        
130601800310014 00070 1110241A 55 NORD           2651040A 55 SUD            2670280LES PENNES CRICR    2660500001363001363130620500300000000000589      066010                                                                                                                                 130653571         120653571         110653571         100697871         090000001                                                                                                                                                        
130601900310014 00070 1110341A55 SUD             2670280LES PENNES MIRABEAU 2690000A55 LES PENNES      2680000002450002450130620500300000000000989      100173                                                                                                                                 130991821         120991821         110991821         101000741         091014441                                                                                                                                                        
130602000310014 00070 1110231A 51 NORD           2700585A 51 SUD            2710620SEPTEMES A 7        2700833001025001025130620500300000000000589      050941                                                                                                                                 130504371         120504371         110504371         100586911         090596381                                                                                                                                                        
130601901310014 00070 1110431PENNES MIRABEAU     2690000A 51 NORD           2700585PENNES MIRABEAU     2700000000860000860130620500300000000000589      088297                                                                                                                                 130874231         120874231         110874231         100882771         090877621                                                                                                                                                        
130602100310014 00070 1110431A 51 SUD            2710620ST ANTOINE          2730510SEPTEMES TRON COMMUN2720000001894001894130620500300000000000589      143770                                                                                                                                 131423471         121423471         111423471         101354421         091402921                                                                                                                                                        
130602200310014 00070 1110431ST ANTOINE          2730510LES AYGALADES       2750080SAINT ANTOINE       2740000001570001570130620500300000000000589      140926                                                                                                                                 131395311         121395311         111395311         101423401         091452061                                                                                                                                                        
130602300310014 00070 1110431LES AYGALADES       2750080M.I.N.ARNAVAUX      2780915LES  AYGALADES      2760000003402003402130620500300000000000589      325136                                                                                                                                 133219171         123219171         113219171         101342731         091363901                                                                                                                                                        
130602500310014 00070 1110431LA ROSE             2780915PLOMBIERES          2800130LA ROSE             2800000001210001210130620500300000000000589      088288                                                                                                                                 130874141         120874141         110874141         101071411         090000001                                                                                                                                                        
130602600310014 00070 1110431PLOMBIERES          2800130ST CHARLES          2820100PLOMBIERES ST CHARLE2810000001975001975130620500300000000000589      074824                                                                                                                                 130740841         120740841         110740841         100782681         090831251                                                                                                                                                        
130615200310014 00500 1110431MENPENTI            0000000LA POMME            0020000MENPENTI            0010000002260002260130620500300000000000589      090086                                                                                                                                 130891951         120891951         110891951         100901871         090909101                                                                                                                                                        
130615300310014 00500 1110431LA POMME            0020000LA VALENTINE        0070507LA VALENTINE        0050000004635004635130620500300000000000589      126196                                                                                                                                 131249471         121249471         111249471         101248461         091247451                                                                                                                                                        
130615490310014 00500 1110431LA VALENTINE        0070507LA PENNE            0100495LA PENNE            0090316002990002990130620500300000000000589      111746                                                                                                                                 131106401         121106401         111106401         101021991         090948691                                                                                                                                                        
130615500310014 00500 1110431LA PENNE            0100495AUBAGNE (A 501)     0120880AUBAGNE OUEST       0110820002392002392130620500300000000000589      111824                                                                                                                                 131107171         121107171         111107171         101078061         091050061                                                                                                                                                        
130615600310014 00500 1150231AUBAGNE (A 501)     0120880AUBAGNE (A 502)     0150303AUBAGNE OUEST       0140000002413002413130620500300000000000589      072077                                                                                                                                 130713641         120713641         110713641         100708181         090700331                                                                                                                                                        
130620100310014 00510 1110441SEPTEMES (A 7)      0000000BRETELLE A7         0010080SEPTEMES            0000300000967000967130620500300000000001192      083216                                                                                                                                 130823931         120823931         110823931         100814381         090805171                                                                                                                                                        
130620200310014 00510 1110431BRETELLE A 7        0010080PLAN DE CAMPAGNE    0020925BRETELLE A7-PLAN DE 0020000001848001848130620500300000000000589      126660                                                                                                                                 131254061         121254061         111254061         101198411         091204711                                                                                                                                                        
130620300310014 00510 1110241PLAN DE CAMPAGNE    0020925LES CHABAUDS        0050035BOUC BEL AIR        0050000002111002111130620500300000000000589      106840                                                                                                                                 131057831         121057831         111057831         101108031         091118101                                                                                                                                                        
130620400310014 00510 1110241LES CHABAUDS        0050035LES 3 PIGEONS       0100135CABRIES MARIUS      0060100005116005116130620500300000000000589      072509                                                                                                                                 130717921         120717921         110717921         100698851         090683161                                                                                                                                                        
130620500310014 00510 1110241LES 3 PIGEONS       0100135LUYNES              01303253 PIGEONS-LUYNES    0100300003191003191130620500300000000000589      057908                                                                                                                                 130573351         120573351         110573351         100560811         090548591                                                                                                                                                        
130620690310014 00510 1810241LUYNES              0130325LES MILLES          0140720LUYNES PMV          0140000001393001393130620500300000000000189      067522                                                                                                                                 130668548         120668548         110668548         100642358         090617188                                                                                                                                                        
130620700310014 00510 1810441LES MILLES          0140720AIX-CENTRE          0150770LES MILLES          0150000001358001358130620500300000000000589      110587                                                                                                                                 131094938         121094938         111094938         101052278         091011258                                                                                                                                                        
130620800310014 00510 1850231AIX-CENTRE          0150770RACCORDEMENT A.8    0160515AIX-CENTRE          0160200000751000751130620500300000000000589      079489                                                                                                                                 130787028         120787028         110787028         100767948         090749348                                                                                                                                                        
130620900310014 00510 1850231RACCORDEMENT A.8.   0160515AIX-OUEST(Z.A.C.)   0170826RAC.A8-AIX-OUEST ZAC0170000001319001319130620500300000000000589      090158                                                                                                                                 130892668         120892668         110892668         100857758         090824268                                                                                                                                                        
130635100510014 00550 1111031PORT                0010000JOLIETTE            0020060JOLIETTE            0010442000160000160         500000000000589      046217                                                                                                                                 130457601         120457601         110457601         100417171         090380311                                                                                                                                                        
130635300310014 00550 1150231ARENC               0020060CAP PINEDE          0030460ARENC               0020800001406001406         300000000000589      069603                                                                                                                                 130689141         120689141         110689141         100657751         090627851                                                                                                                                                        
130635200410014 00550 1150231ARENC               0010349JOLIETTE            0020060JOLIETTE.           0020000000462000462         400000000000589      040832                                                                                                                                 130404281         120404281         110404281         100394811         090385561                                                                                                                                                        
130635400310014 00550 1110431CAP PINEDE          0030460CAP JANET           0040660CAP PINEDE          0040305001200001200         300000000000589      051018                                                                                                                                 130505131         120505131         110505131         100625701         090803401                                                                                                                                                        
130635600310014 00550 1110231CAP JANET           0040660MIRABEAU            0050620CAP JANET           0050000000960000960         300000000000589      063989                                                                                                                                 130633561         120633561         110633561         100659101         090687361                                                                                                                                                        
130635900310014 00550 1110231GD LITTORAL         0070150JONCTION A7 SUD     0120880GD LITTORAL         0070279007244007244         300000000000191      067345                                                                                                                                 130666791         120666791         110666791         100611271         090636181                                                                                                                                                        
130635800310014 00550 1110231MIRABEAU            0050620GD LITTORAL         0070150VERDURON            0070279007244007244         300000000000191      058044                                                                                                                                 130574701         120574701         110574701         100617951         090673341                                                                                                                                                        
130635901310014 00550 1110231JONCTION A7 SUD     0120880JONCTION A7 NORD    0140000JONCTION A7 SUD NORD0140000001115001115         300000000000589      019369                                                                                                                                 130191781         120191781         110191781         100181191         090000001                                                                                                                                                        
130636000310014 00550 1810241JONCTION A7 NORD    0140000LES PIELETTES       0200495GIGNAC              0150500006078006078130635800300000000000589      069287                                                                                                                                 130686018         120686018         110686018         100739188         090802298                                                                                                                                                        
130636001310014 00550 1810241JONCTION A7 NORD    0140000LES PIELETTES       0200495REBUTY PMV          0160474006078006078130635800300000000000589      071773                                                                                                                                 130710638         120710638         110710638         100760288         090802298                                                                                                                                                        
130636100310014 00550 1810241LES PIELETTES       0200495CARRY               0240130LES PIELETTES       0220000003421003421000000000300000000000589      058900                                                                                                                                 130583178         120583178         110583178         100588148         090000008                                                                                                                                                        
130636200310014 00550 1810241CARRY               0240130LA MEDE EST         0290400CARRY               0250000005274005274000000000300000000000589      050808                                                                                                                                 130503058         120503058         110503058         100507448         090000008                                                                                                                                                        
130636300310014 00550 1810241LA MEDE EST         0290400LA MEDE OUEST       0310650LA MEDE EST         0300000002251002251000000000300000000000589      063651                                                                                                                                 130630218         120630218         110630218         100635748         090000008                                                                                                                                                        
130636400310014 00550 1810241LA MEDE OUEST       0310650MARTIGUES CENTRE    0330190LA MEDE OUEST       0320000001471001471000000000300000000000589      069492                                                                                                                                 130688048         120688048         110688048         100694038         090000008                                                                                                                                                        
130636500310014 00550 1810241MARTIGUES CENTRE    0330190MARTIGUES SUD       0360400MARTIGUES CENTRE    0350100003280003280000000000300000000000589      056043                                                                                                                                 130554898         120554898         110554898         100559658         090000008                                                                                                                                                        
130636600310014 00550 1810241MARTIGUES SUD       0360400MARTIGUES NORD      0370980MARTIGUES SUD       0370500001584001584130007000300000000000589      078658                                                                                                                                 130778808         120778808         110778808         100781668         090000008                                                                                                                                                        
130636700310014 00550 1810241MARTIGUES NORD      0370980RN 568.             0381061MARTIGUES NORD      0380500001080001080130007000300000000000589      075002                                                                                                                                 130742608         120742608         110742608         100745378         090000008                                                                                                                                                        
130004201310014 01130 4810201RN 1453             0600000RD 24               0620440RD 24 EST           0600000002823002823130004300300000000000394      000000                                                                                                                                 130000008         120000008         110000008         100000008         090000008                                                                                                                                                        
130004202310014 01130 4810201RD 24               0620440RN 1453             0640800DEV ST MARTIN       0620500002346002346130004300300000000000394      033354                                                                                                                                 130330248         120330248         110330248         100333708         090000008                                                                                                                                                        
130004300310014 01130 4113001RN 1453             0640800RN 568              0670630ARLES HIPPOLYTE     0660600003037003037130004300300000000000589      034384                                                                                                                                 130340441         120340441         110340441         100345661         090000001                                                                                                                                                        
130004400310014 01130 4810201RN 568              0670630ARLES EST RN 570    0760100LES CANTARELLES     0690600008462008462130004300300000000000589      050916                                                                                                                                 130504128         120504128         110504128         100511838         090000008                                                                                                                                                        
130004500310014 01130 4810201ARLES EST RN 570    0760100RD 570              0781239PONT D'ARLES        0781000003376003376130004300300000000000589      062325                                                                                                                                 130617088         120617088         110617088         100626548         090000008                                                                                                                                                        
130004900310014 02960 4810201AX OUEST (A 51)     0000000RN 7                0020000ROCADE OUEST AIX    0000500002267001573130005000300000000000589      069826                                                                                                                                 130691358         120691358         110691358         100669538         090678498                                                                                                                                                        
130005000310014 02960 4110201RN 7                0020000RN 96               0051040AIX ROCADE NORD     0040000003186003117130007000300000000000294      062102                                                                                                                                 130614881         120614881         110614881         100599821         090601621    8                                                                                                                                                   
130617100310014 05010 1150231AUBAGNE (A 50)      0000000AUBAGNE OUEST       0000840AUBAGNE OUEST       0000800000840000840130620500300000000000589      043243                                                                                                                                 130428151         120428151         110428151         100425701         090415841                                                                                                                                                        
130617200310014 05010 1150231AUBAGNE OUEST       0000840AUBAGNE NORD        0020589AUBAGNE NORD        0020000001780001780130620500300000000000589      031417                                                                                                                                 130311061         120311061         110311061         100308241         090306991                                                                                                                                                        
130618100310014 05020 1110231AUBAGNE SUD (A 50)  0000000AUBAGNE EST (D 559A)0010619AUBAGNE GEMENOS     0000500001601001601130620500300000000000589      027802                                                                                                                                 130275271         120275271         110275271         100278291         090268491                                                                                                                                                        
130643000310014 05150 1110231A 51                0000000D6                  0010242LIAISON A51 D6      0000000001197001197300000700300000000000589      048572                                                                                                                                 130480921         120480921         110480921         100457221         090434971                                                                                                                                                        
130644000310014 05160 1110231A 51                0000000A8                  0000915LIAISON A51 A8      0000000000915000915300000700300000000000589      000000                                                                                                                                 130000001         120000001         110000001         100000001         090000001                                                                                                                                                        
130645000310014 05170 1110231A 51                0000000A7                  0001160LIAISON A51 A7BN    0000000001160001160300000700300000000000589      041956                                                                                                                                 130415411         120415411         110415411         100405001         090395131                                                                                                                                                        
130006399310014 05470 4152001MARSEILLE           0050000N1547               0050957MARSEILLE 547       0050500000957000957130007000300000000000600      030536                                                                                                                                 130302341         120302341         110302341         100298841         090295481                                                                                                                                                        
130641000310014 05510 1110231A 55                0000000A7                  0001177LIAISON A7N A55L    0000000001177001177300000700300000000000589      000000                                                                                                                                 130000001         120000001         110000001         100000001         090000001                                                                                                                                                        
130642000310014 05520 1110231A 55                0000000A7                  0001620LIAISON A7BN A55    0000000001620001620300000700300000000000589      035623                                                                                                                                 130352711         120352711         110352711         100337301         090323421                                                                                                                                                        
130640000510014 05570 1153031A 55                0000000ARENC               0010500LIAISON A7 A55      0000000001500001500300000700500000000000589      015946                                                                                                                                 130157891         120157891         110157891         100147731         090138221                                                                                                                                                        
130006600310014 05680 4110201RN 113              0000000RN 268              0200950ARLES THIBERT       0040500020558020558130007000300000000000589      017454                                                                                                                                 130172821         120172821         110172821         100179531         090000001                                                                                                                                                        
130006700310014 05680 4810201RN 268              0200950RN 569              0240865LA FEUILLANE        0220900004119004119130007000300000000000589      028127                                                                                                                                 130278498         120278498         110278498         100267008         090000008                                                                                                                                                        
130006800310014 05680 4810201RN 569              0240865RN 569              0260673VALIN ARLES         0260000001780001780130007000300000000000589      027289                                                                                                                                 130270198         120270198         110270198         100268208         090000008                                                                                                                                                        
130006900310014 05680 4817001RN 569              0260673RN 545              0280867GENDARMERIE DE FOS  0270000002158002158130007000300000000000589      032900                                                                                                                                 130325758         120325758         110325758         100323398         090000008                                                                                                                                                        
130007000310014 05680 4110201RN 545              0280867RD 50B PORT DE BOUC 0320026FOS EST             0300500003258003050130007000300000000000595      045417                                                                                                                                 130449681         120449681         110449681         100436671         090424731 137                                                                                                                                                    
130007100310014 05680 4810201RD 50B PORT DE BOUC 0320026EB10  MARTIGUES     0340700CROIX SAINTE        0330500002647000000130007000300000000000589      051794                                                                                                                                 130512828         120512828         110512828         100511838         090000008                                                                                                                                                        
130007101310014 05680 4852001EB10  MARTIGUES     0340700A55 FIN BDR RN      0351263MARTIGUES           0340000001628001628130007000300000000000589      076578                                                                                                                                 130758208         120758208         110758208         100751448         090000008                                                                                                                                                        
130007600310014 05690 4812001RN 113              0000000EB10  MIRAMAS       0040000LE MERLE SUD        0010000004104004104130007000300000000000589      009676                                                                                                                                 130095818         120095818         110095818         100097878         090000008                                                                                                                                                        
130007700310014 05690 4852001EB10  MIRAMAS       0040000EB20  MIRAMAS       0050750MIRAMAS             0040500001206000000000000000300000000000589      000000                                                                                                                                 130000008         120000008         110000008         100000008         090000008                                                                                                                                                        
130008600310014 05690 4812001EB20  ISTRES        0190000RN 568              0230939ECOLE DE POLICE     0200000004805004805130007000300000000001295      010800                                                                                                                                 130106948         120106948         110106948         100104798         090000008                                                                                                                                                        
130009600310014 05720 4115001A 54  VC 114        0090000LE VITTIER          0121380ARLES OUEST 572     0100000005108005108         300000000000589      038341                                                                                                                                 130379621         120379621         110379621         100381771         090000001                                                                                                                                                        
130010200310014 15470 4853001RN547               0060000FIN RESEAU ETAT     0080920MARSEILLE 1547      0060000002847000000         300000000000600      000000                                                                                                                                 130000008         120000008         110000008         100000008         090000008                                                                                                                                                        
130016000310014 15690 4813001RN 569              0000000GIRATOIRE DU TUBE   0030868TUBE SUD            0020100003569003569130007000300000000000193      019732                                                                                                                                 130195378         120195378         110195378         100191428         090000008                                                                                                                                                        
130016100310014 15690 4813001GIRATOIRE DU TUBE   0030868RD 5                0080600TRANSHUMANCE        0050200004733004733130007000300000000000193      016561                                                                                                                                 130163988         120163988         110163988         100160678         090000008                                                                                                                                                        
130016200310014 15690 4813001RD 5                0080600MIRAMAS             0120994DEV MIRAMAS         0110400004393004393130007000300000000000193      011631                                                                                                                                 130115168         120115168         110115168         100112848         090000008                                                                                                                                                        
300000300310014 00860 4842001EB 10 PT ST ESPRIT  0020063EB 20 PT ST ESPRIT  0040991AGGLO PT ST ESPRIT  0020100002961000000300000700300000000000589      008386                                                                                                                                 130000008         120000008         110000008         100000008         090000008                                                                                                                                                        
300000700310014 00860 4142001EB 20 PONT ST ESPRIT0040991RD 980              0120860BAGNOLS NORD        0120857007907006709300000700300000000000589      017751         015745   016615   017152   018564   018137   019092   018978   019859   018359   017521   016315   016607               130000001         120000001         110000001         100000001         090000001                                                                                                                                                        
300002500310014 01000 4112001A 9 RD 192          0020590RD 976              0070653ESTEZARGUES         0060800005056005056300001300300000000000589      000000                                                                                                                                 130000001         120000001         110000001         100000001         090000001                                                                                                                                                        
300002600310014 01000 4112001RD 976              0070653RN 580              0150900ROCHEFORT           0140500008238008238300001300300000000000589      020258         017173   018022   018699   020342   020317   022107   024202   023225   021223   020298   018460   018845               130000001         120000001         110000001         100000001         090000001                                                                                                                                                        
300003000310014 01060 4112001RD 907              0050322RD 22 LA CALMETTE   0130500NIMES NORD          0050370008022008022300001300300000000000589      028060         025654   026945   027113   029113   028245   029523   029784   028302   028711   029599   026820   026870               130000001         120000001         110000001         100000001         090000001                                                                                                                                                        
300003200310014 01060 4112001RD 982 MOUSSAC      0190430RD 8 BRIGNON        0200770MOUSSAC             0190800001338000477300003400300000000000589      017466         015597   016505   016788   018188   017974   017821   018824   020108   017553   016741   017033   016394               130000001         120000001         110000001         100000001         090000001                                                                                                                                                        
300003201310014 01060 4110101RD 8 BRIGNON        0200770RD 982 PONT DE NERS 0270300BOUCOIRAN           0270000006332004632300003400300000000000301      000000                                                                                                                                 130000001         120000001         110000001         100000001         090000001                                                                                                                                                        
300003300310014 01060 4112001RD 982 PONT DE NERS 0270300EB10 ALES           0390707SAINT HILAIRE       0380700012257010167300003400300000000000589      000000                                                                                                                                 130000001         120000001         110000001         100000001         090000001                                                                                                                                                        
300003400310014 01060 4112001EB20 ALES           0470000LA GRAND COMBE      0570400ST_MARTIN_VALG      0490800010324008844300004100300000000000290      010440  348    009390   009918   009935   010662   010553   010879   011094   011281   010719   010798   009881   010125               130000001         120000001         110000001         100000001         090000001                                                                                                                                                        
300003500310014 01060 4112001LA GRAND COMBE      0570400LIMITE LOZERE       0660871SAINTE CECILE       0650200009457006617300004100300000220030290      003039         002082   002150   002496   002846   003125   003257   004376   004686   003224   003221   002501   002405               130000001         120000001         110000001         100000001         090000001                                                                                                                                                        
300004597310014 01130 4852001EB 10 NIMES         0240280RN 86 BD SUD        0260640NIMES ENTREE SUD    0250000002405000000300004601300000000000301      033636                                                                                                                                 130000008         120000008         110000008         100000008         090000008                                                                                                                                                        
300004598310014 01130 4857001RN 86 BD SUD        0260640A9 RN 106           0290820NIMES  PERIPHERIQUE 0280760003143000000300004601300000000000589      033892                                                                                                                                 130000008         120000008         110000008         100000008         090000008                                                                                                                                                        
300004599310014 01130 4857001A9 N106             0290820EB 20 NIMES         0320195NIMES PERIPH SUD OUE0310000002408000000300004601300000000000301      033636                                                                                                                                 130000008         120000008         110000008         100000008         090000008                                                                                                                                                        
300004600310014 01130 4812001EB20 NIMES          0320195RD 14 BERNIS        0360391DEVIATION DE MILHAUD0330000005034005034300004601300000000000589      021786                                                                                                                                 130000008         120000008         110000008         100000008         090000008                                                                                                                                                        
300004601310014 01130 4113001RD 14 BERNIS        0360391RD 139 VERGEZE      0420395BERNIS              0360480006662006662300004700300000000000589      017232         015439   016457   016601   017429   017373   018392   018674   019106   017937   017131   016044   016159               130000001         120000001         110000001         100000001         090000001                                                                                                                                                        
300004700310014 01130 4112001RD 139 VERGEZE      0420395A.9 RN 313          0470480CODOGNAN            0430540005085004465300004700300000000000589      011056         009522   010381   010670   011365   011330   012128   012211   013459   011572   010369   009798   009828               130000001         120000001         110000001         100000001         090000001                                                                                                                                                        
300004801310014 01130 4812001RN 572              0490420LIMITE HERAULT      0490798PONT / VIDOURLE     0490798000378000378300004700300000000000189      015178                                                                                                                                 130000008         120000008         110000008         100000008         090000008                                                                                                                                                        
300004800310014 01130 4812001A9 RN 313           0470480RN 572              0490420GALLARGUES          0490000001931001931300004700300000010030589      016306                                                                                                                                 130000008         120000008         110000008         100000008         090000008                                                                                                                                                        
340003300310014 01130 4113001LIMITE GARD         0000000EB10 LUNEL          0010670LUNEL               0010200001754001754340003300330000480030490      024568         020845   023042   023683   025951   025812   026662   026463   029383   025530   023675   021363   022301               130242031         120241441         110238651    8    100236571         090248731         020996   021825   022772   024465   025281   026358   028166   028254   024565   023348   022411   021793                                      
340003600310014 01130 4113001EB 20 LUNEL         0040630BAILLARGUES         0140750VALERGUES           0090000010811008088340003600300000000000490      014233                                                                                                                                 130140931  527    120143681         110155541    7    100159041         090141421         013304   013587   013646   014325   014299   014827   014906   014449   014244   014737   013477   013285                                      
340003702310014 01130 4813001VENDARGUES D65      0160150VENDARGUES LIMITE   0160912VENDARGUES LIMITE   0160700002797002197340003600300000000000180      023703                                                                                                                                 130234698         120239278         110259038         100264868         090235528    0                                                                                                                                                   
340003701310014 01130 4813001VENDARGUES A9       0150450VENDARGUES D65      0160150VENDARGUES A9 D65   0160000002797002197340003600300000000000180      044407                                                                                                                                 130439688         120448268         110485278         100496198         090441228    0                                                                                                                                                   
380003800310014 00850 4113001VIZILLE             0560310LIMITE HAUTES-ALPES 1030997LAMURE              0730600050574050574050000900305000090010907      009780                                                                                                                                 130096841         120096841         110096841         100097561         090098281    7                                                                                                                                                   
380003900310014 00850 4813001LA_MURE             0790000LIMITE HAUTES-ALPES 1030994SUD_ISERE           1000000025000024000050000900300000000000409      003209                                                                                                                                 130033128         120032918         110034648         100034798         090034998                                                                                                                                                        
480002200310014 01060 4812001LIMITE GARD         0000000INTER.D984-JALCRESTE0221003LE COLLET DE DEZE   0100800022038020321300003500300000000001287      002530                                                                                                                                 130025058         120025168         110025168         100024938         090025458    0                                                                                                                                                   
830616500310014 00500 1110421LA BEAUCAIRE        0660067PONT DES GAUX       0670634LA BEAUCAIRE        0660750001567001567840000202300000000001287      097321                                                                                                                                 130963581         120963581         110963581         100851131         090752051                                                                                                                                                        
830616502310014 00500 1110441PONT DES GAUX       0000000BON RENCONTRE       0680700TOULON OUEST        0670776001085001085840000202300000000000290      103829                                                                                                                                 131028011         121028011         111028011         100974511         090925231                                                                                                                                                        
830616600310014 00500 1150441BON RENCONTRE       0680700VILLEVIEILLE TOULON 0690449BON RENCONTRE       0680765000639000639840000202300061660031287      062874                                                                                                                                 130622521         120622521         110622521         100759341         091042221                                                                                                                                                        
830645100310014 00570 1110431TOULON              0000000TOMBADOU            0020565LA PALASSE          0000793002569002569840000202300000000001287      105304                                                                                                                                 131042621         121042621         111042621         101033721         091024931                                                                                                                                                        
830645200310014 00570 1110431TOMBADOU            0020565LES FOURCHES        0030785LA COUPIANE         0030125001217001217840000202300064530031287      116202                                                                                                                                 131150521         121150521         111150521         101062741         090984321                                                                                                                                                        
830645400310014 00570 1110431LES FOURCHES        0030785LA BIGUE            0040865LES FOURCHES        0040140001079001079840000202300000000001287      094089                                                                                                                                 130931581         120931581         110931581         100911781         090892391                                                                                                                                                        
830645490310014 00570 1110441LA BIGUE            0040865PIERRE RONDE        0060655LA GARDE            0050966001773001773840000202300000000000189      086747                                                                                                                                 130858891         120858891         110858891         100850901         090846241                                                                                                                                                        
830645500310014 00570 1110421PIERRE RONDE        0060655LA FARLEDE          0080700LA FARLEDE          0070875002170002170840000202300000000001287      071482                                                                                                                                 130707751         120707751         110707751         100708301         090708831                                                                                                                                                        
830002799310014 00980 4856001A 570 HYERES        0000000EB10 HYERES         0100701HYERES OUEST        0100000001100001100830650200300000000000295      036354                                                                                                                                 130359958         120359958         110359958         100443918         090547458                                                                                                                                                        
830650100310014 05700 111 131LA GARDE            0000000LA CRAU             0030000LA BASTIDE          00009400030000030008400002023          0290      058060                                                                                                                                 130574861         120574861         110574861         100573581         090572301                                                                                                                                                        
830650200310014 05700 111 431LA CRAU             0030000HYERES              0070160LA CRAU             00604550041600041608400002023          0193      059236                                                                                                                                 130586501         120586501         110586501         100566531         090547451                                                                                                                                                        
840000100310014 00070 4115001LIMITE DROME        0000000D 994               0050740LAPALUD             0010500005786005786840000202326000250030390      009853                                                                                                                                 130097561         120091841         110098461 1937    100094991         090095971 195     008155   008364   008925   009609   010294   010505   011742   012670   010104   009806   008579   008171                                      
840000201310014 00070 4112001D 994               0050740A7 PIOLENC          0190200MONDRAGON SUD       0110088013449010468840000202300000000001191      011917         010117   010581   010997   011717   012019   012581   013196   014664   012402   012672   011264   010672               130117581  687    120116851  558    110119341    8    100116431         090122931    8    010021   010205   010969   011407   012272   012568   013672   014249   012105   012494   010667   010314                                      
840000202310014 00070 4112001A7 PIOLENC          0190200D 976               0220000ORANGE NORD         0190800002793002793840000202300000000001291      012275         010987   011421   011649   012239   012849   012999   013364   014338   012561   012097   011463   011263               130122141         120123141         110134911         100131681         090128511         010842   011023   011882   012033   012784   012830   013298   014365   012605   012140   011412   011237                                      
840000300310014 00070 4813001D 976               0220000EB 10 ORANGE        0240000ENTREE NORD ORANGE  0220000002005002005840000202300000000000490      017544                                                                                                                                 130174578         120176008         110192838         100193178         090193518    0                                                                                                                                                   
840000399310014 00070 4855001EB 10 ORANGE        0240000EB 20 ORANGE        0270485TRAVERSEE ORANGE    0250000003219000000840000202300000000000401      017992                                                                                                                                 130179038         120180508         110197768         100207588         090217888    0                                                                                                                                                   
840000400310014 00070 4815001EB 20 ORANGE        0270485D 977               0290060COURTHEZON NORD     0290000006372006372840000202300000000000490      015683                                                                                                                                 130156068         120157348         110172388         100177138         090182018    0                                                                                                                                                   
840001400310014 00070 4117001Charles de Gaulle   0540000D 973               0611156CAUMONT_N7          0600176006996006996840001400300000000000493      040193         038543   038495   039918   041769   040505   041053   043432   038035   040907   041165   038399   039983               130394431  597    120382901         110404441         100408711         090413041         034181   033787   037779   040782   040754   042790   044634   039364   040940   039339   038972   039620                                      
840149800310014 00860 4812001N 7 LA CROISIERE    0000000D63 A MOTTE DU RHONE0010929LA CROISIERE        0010132001977001977300107050300000000001090      010119                                                                                                                                 130100198         120096838         110100118         100097558         090096118    0                                                                                                                                                   
840149700310014 00860 4813001D63 A MOTTE DU RHONE0010929D994                0030200LA MOTTE DU RHONE   0020213001578001578300107050300000000000898      019840                                                                                                                                 130196448         120189858         110196278         100191248         090188428    0                                                                                                                                                   
840107050310014 00860 4813001RD 994              0030200LIM DEP             0040000PT_ST_ESPRIT_DEV    0040000001008001008300107050300000000000197      010172                                                                                                                                 130100728         120097348         110100638         100098058         090096608                                                                                                                                                        
840003800310014 01290 4813001N 7                 0000000N 7                 0000775AUTOROUTE AVI SUD   0000690000775000775840001400300000000000500      019914                                                                                                                                 130192848         120189338         110196558         100200148         090203798    0                                                                                                                                                   