040000800310014 00850 4113001ECH.AUBIGNOSC       0160000INTER. D404         0190090CHATEAU-ARNOUX      0190000002777002510040001100300000000000193      010337  477    008699   008902   009754   010360   010667   011067   011656   012559   010984   010420   009504   009347               130104361  467    120000001         110099301         100102571         090105931    7    008746   008889   009727   010345   010971   011392   012131   012683   011163   010431   009514   009114                                      
040000800210014 00850 4113001ECH.AUBIGNOSC       0160000INTER. D404         0190090CHATEAU-ARNOUX      0190000002777002510040001100200000000000193      005194  447    004409   004483   004931   005228   005379   005514   005915   006241   005479   005213   004776   004698               130052311  437    120000001         110049961         100051551         090053181    7    004444   004487   004893   005217   005459   005690   006137   006282   005556   005195   004774   004582                                      
040000800110014 00850 4113001ECH.AUBIGNOSC       0160000INTER. D404         0190090CHATEAU-ARNOUX      0190000002777002510040001100100000000000193      005143  547    004290   004419   004823   005132   005288   005553   005741   006318   005505   005207   004728   004649               130052051  547    120051951  547    110049341         100051021         090052751    7    004302   004402   004834   005128   005512   005702   005994   006401   005607   005236   004740   004532                                      
040000900310014 00850 4843001INTER. D404         0190090INTER. N96          0200840GENDARMERIE         0200000001743000065040001100300000000000190      012620                                                                                                                                 130000008         120125748         110132598         100127838         090123248                                                                                                                                                        
040001000310014 00850 4843001INTER. N96          0200840LIMITE AGGLO.       0210291SUBDI.CHATEAU-ARNOUX0210000000440000000040001100300000000000188      010788                                                                                                                                 130000008         120105078         110110798         100110488         090110178                                                                                                                                                        
040001100310014 00850 4113001LIMITE AGGLO.       0210291INTER. D4           0260400L'ESCALE            0220500005153004888040001200300000000000188      008644                                                                                                                                 130000001         120086371         110091071         100088931         090086821                                                                                                                                                        
040001100210014 00850 4113001LIMITE AGGLO.       0210291INTER. D4           0260400L'ESCALE            0220500005153004888040001200200000000000188      004347                                                                                                                                 130000001         120000001         110045681         100045171         090044661                                                                                                                                                        
040001100110014 00850 4113001LIMITE AGGLO.       0210291INTER. D4           0260400L'ESCALE            0220500005153004888040001200100000000000188      004297                                                                                                                                 130000001         120000001         110045391         100043751         090042161                                                                                                                                                        
040001101310014 00850 4813001INTER.D4            0260400INTER.DEV.MALIJAI   0270885MALIJAI             0270300001499000740040001200300000000000190      007492                                                                                                                                 130000008         120074038         110075318         100074978         090075948                                                                                                                                                        
040001200310014 00850 4113001INTER.DEV.MALIJAI   0270885INTER. D17          0360220MALLEMOISSON        0330700008162007132040001200300000000000190      013254                                                                                                                                 130000001         120131111  527    110133361    8    100132751         090134461    8                                                                                                                                                   
040001200210014 00850 4113001INTER.DEV.MALIJAI   0270885INTER. D17          0360220MALLEMOISSON        0330700008162007132040001200200000000000190      006596                                                                                                                                 130000001         120065321  547    110066681 1248    100066291         090067091    8                                                                                                                                                   
040001200110014 00850 4113001INTER.DEV.MALIJAI   0270885INTER. D17          0360220MALLEMOISSON        0330700008162007132040001200100000000000190      006658                                                                                                                                 130000001         120000001         110066681    8    100066461         090067371    8                                                                                                                                                   
040001201310014 00850 4813001INTER. D17          0360220INTER. N1085        0390945LE ROCHER COUPE     0390850003715003715040001200300000000000202      016810                                                                                                                                 130000008         120166058         110168908         100168148         090170328                                                                                                                                                        
040001201210014 00850 4813001INTER. D17          0360220INTER. N1085        0390945LE ROCHER COUPE     0390850003715003715040001200200000000000202      008424                                                                                                                                 130000008         120082478         110084198         100083708         090084728                                                                                                                                                        
040001201110014 00850 4813001INTER. D17          0360220INTER. N1085        0390945LE ROCHER COUPE     0390850003715003715040001200100000000000202      008386                                                                                                                                 130000008         120000008         110084718         100084448         090085608                                                                                                                                                        
040001202310014 00850 4813001INTER. N1085        0390945Espace Commercial   0410630NOUVELLE SUBDI      0400000001640001640040001203300000000000202      012572                                                                                                                                 130125478         120000008         110128948         100130108         090129958                                                                                                                                                        
040001202210014 00850 4813001INTER. N1085        0390945Espace Commercial   0410630NOUVELLE SUBDI      0400000001640001640040001203200000000000202      005927                                                                                                                                 130059488         120000008         110060918         100061538         090061058                                                                                                                                                        
040001202110014 00850 4813001INTER. N1085        0390945Espace Commercial   0410630NOUVELLE SUBDI      0400000001640001640040001203100000000000202      006645                                                                                                                                 130065998         120065548         110068038         100068578         090068908                                                                                                                                                        
040001203310014 00850 4113001Espace Commercial   0410630BD POMPIDOU         0440140DIGNE_W_N85         04200000025000025000400012033          1295      017898  327    016492   016769   017634   018646   017675   018851   018936   018711   018989   018216   016935   016873               130178691  337    120000001         110183561    7    100185201         090184891    7    016747   016642   017900   017921   018192   018796   018809   018690   018604   018236   017258   016551                                      
040001203210014 00850 4113001Espace Commercial   0410630BD POMPIDOU         0440140DIGNE_W_N85         0420000002500002500040001203200000000001295      009132  337    008441   008531   009025   009467   008998   009613   009618   009551   009728   009308   008652   008625               130091641  347    120000001         110093831    7    100094771         090094031    7    008600   008709   009212   009342   009226   009569   009510   009586   009517   009320   008884   008471                                      
040001203110014 00850 4113001Espace Commercial   0410630BD POMPIDOU         0440140DIGNE_W_N85         0420000002500002500040001203100000000001295      008766  297    008051   008238   008609   009179   008677   009238   009318   009160   009261   008908   008283   008248               130087051  307    120086451  317    110089731    7    100090431         090090861    7    008147   007933   008688   008579   008966   009227   009299   009104   009087   008916   008374   008080                                      
040001205310014 00850 4843001BD POMPIDOU         0440140LA PALE             0440685PONT DAVID NEEL     0440545000545000000040001203300000000000107      007729                                                                                                                                 130077138         120000008         110079288         100079998         090079928                                                                                                                                                        
040001205210014 00850 4843001BD POMPIDOU         0440140LA PALE             0440685PONT DAVID NEEL     0440545000545000000040001203200000000000107      003469                                                                                                                                 130034828         120000008         110035668         100036028         090035748                                                                                                                                                        
040001205110014 00850 4843001BD POMPIDOU         0440140LA PALE             0440685PONT DAVID NEEL     0440545000545000000040001203100000000000107      004260                                                                                                                                 130042318         120042028         110043628         100043978         090044188                                                                                                                                                        
040001700310014 00850 4113001RD 12               0470290INTER. D907         0570250DIGNE_EST_N85       0500180008487008487050001100300000000000188      004737                                                                                                                                 130047111  877    120047671  867    110048711    7    100048501         090049791    8    003695   003616   004035   004366   005101   005301   006260   006955   005100   004456   003894   003644                                      
040001700210014 00850 4113001RD 12               0470290INTER. D907         0570250DIGNE_EST_N85       0500180008487008487050001100200000000000188      002350                                                                                                                                 130023821  847    120024011  837    110024591    7    100024471         090025111    8    001857   001807   002030   002193   002579   002684   003115   003591   002608   002267   001974   001825                                      
040001700110014 00850 4113001RD 12               0470290INTER. D907         0570250DIGNE_EST_N85       0500180008487008487050001100100000000000188      002387                                                                                                                                 130023291  927    120023661  917    110024121    7    100024031         090024681    8    001838   001809   002005   002173   002522   002617   003145   003364   002492   002189   001920   001819                                      
040001800310014 00850 4112001INTER. D907         0570250INTER. N202         0750128BARRÊME             0740800017685017285050001100300000000000188      004094  787    002877   002848   003649   003702   004196   004605   005660   006920   004494   003892   003139   003012               130041711  737    120041731  727    110042231    7    100042181         090043541    7    002928   003052   003408   003738   004470   004658   006540   006637   004536   003768   003160   003021                                      
040001800210014 00850 4112001INTER. D907         0570250INTER. N202         0750128BARRÊME             0740800017685017285050001100200000000000188      002022  827    001417   001372   001810   001796   002048   002300   002719   003508   002264   001932   001568   001464               130020631  767    120020621  747    110020861    7    100020841         090021501    7    001463   001481   001693   001849   002216   002302   003213   003293   002290   001869   001569   001449                                      
040001800110014 00850 4112001INTER. D907         0570250INTER. N202         0750128BARRÊME             0740800017685017285050001100100000000000188      002072  717    001460   001476   001839   001906   002148   002305   002941   003412   002230   001960   001571   001548               130021081  667    120021111  687    110021371    7    100021341         090022041    7    001465   001571   001715   001889   002254   002356   003327   003344   002246   001899   001591   001572                                      
040003200310014 02020 4112001INTER. N85          0000000INTER. D955         0130590GEVAUDAN            0060450013354011302050001100300000000000188      002654  987    002177   002079   002619   002508   002644                     003993   002895   002984   002275   002296               130027641         120025171         110027201         100027141         090027741         002192   002315   002439   002446   002761   002873   003738   004303   002922   002611   002269   002234                                      
040003200210014 02020 4112001INTER. N85          0000000INTER. D955         0130590GEVAUDAN            0060450013354011302050001100200000000000188      001344  977    001122   001032   001343   001269   001329                     002003   001484   001516   001173   001131               130013961         120011401         110013521         100013511         090013851         001069   001154   001240   001247   001399   001451   001860   002209   001508   001326   001156   001100                                      
040003200110014 02020 4112001INTER. N85          0000000INTER. D955         0130590GEVAUDAN            0060450013354011302050001100100000000000188      001310  997    001055   001047   001276   001239   001315                     001990   001411   001468   001102   001165               130013681  967    120013771         110013681         100013631         090013891         001123   001161   001199   001199   001362   001422   001878   002094   001414   001285   001113   001134                                      
040003300310014 02020 4112001INTER. D955         0130590INTER. D955         0210343SAINT JULIEN        0200050007683006489050001100300000000000188      002095         001819   001876   002227   002206   002278   002538            001979   002185   002443   001743   001732               130024381         120000001         110024791         100024721         090025471         001773   001895   002171   002149   002375   002478   003552   004284   002453   002305   001876   001862                                      
040003300210014 02020 4112001INTER. D955         0130590INTER. D955         0210343SAINT JULIEN        0200050007683006489050001100200000000000188      000944         000896   000930   001078   001050   001148   001292            000000   000940   001252   000885   000922               130012391         120000001         110012591         100012551         090012971         000874   000960   001107   001090   001207   001263   001784   002264   001253   001137   000949   000939                                      
040003300110014 02020 4112001INTER. D955         0130590INTER. D955         0210343SAINT JULIEN        0200050007683006489050001100100000000000188      001151         000923   000946   001149   001156   001130   001246            001979   001245   001191   000858   000810               130011991         120000001         110012201         100012171         090012501         000899   000935   001064   001059   001168   001215   001768   002020   001200   001168   000927   000923                                      
040003400310014 02020 4112001INTER. D955         0210343INTER. D908         0380410ROUAINE             0330620016825015738050001100300000000000188      001573                                                                                                                                 130015721  747    120015521  747    110016241         100016331         090017241    7    000999   001106   001188   001386   001655   001762   002353   002833   001687   001535   001211   001105                                      
040003400210014 02020 4112001INTER. D955         0210343INTER. D908         0380410ROUAINE             0330620016825015738050001100200000000000188      000784                                                                                                                                 130007911  687    120007771  697    110008101         100008161         090008551    7    000481   000550   000587   000686   000842   000888   001166   001443   000868   000788   000609   000562                                      
040003400110014 02020 4112001INTER. D955         0210343INTER. D908         0380410ROUAINE             0330620016825015738050001100100000000000188      000789                                                                                                                                 130007811  867    120007751  847    110008141         100008171         090008691    7    000518   000556   000601   000700   000813   000874   001187   001390   000819   000747   000602   000543                                      
040003500310014 02020 4112001INTER.D908          0380410INTER. D2202        0450150PONT DE GUEYDAN     0440850006608006460050001100300000000000188      002526  637    001774   001825   002128   002232   002576   002852   003395   004058   002740   002540   002208   001921               130025611  617    120025631  567    110026241    8    100025511         090029231    0    001854   001948   002054   002219   002635   002899   003732   004082   002677   002494   002138   001930                                      
040003500210014 02020 4112001INTER.D908          0380410INTER. D2202        0450150PONT DE GUEYDAN     0440850006608006460050001100200000000000188      001253  617    000840   000902   001037   001105   001270   001425   001674   002035   001368   001268   001102   000979               130012771  607    120012761  567    110013091    8    100012731         090014651    0    000889   000973   001018   001079   001322   001447   001862   002067   001336   001256   001066   000978                                      
040003500110014 02020 4112001INTER.D908          0380410INTER. D2202        0450150PONT DE GUEYDAN     0440850006608006460050001100100000000000188      001273  677    000934   000923   001091   001127   001306   001427   001721   002023   001372   001272   001106   000942               130012841  627    120012871  577    110013151    8    100012781         090014581    0    000965   000975   001036   001140   001313   001452   001870   002015   001341   001238   001072   000952                                      
050000900310014 00850 4113001LIMITE ISERE        0000000CARREF.CD945 LA FARE0220651ST FIRMIN           0050050022581020386050001100338000400031287      003209  647    002273   002757   003125   002762   003026   003341   004502   005852   003137   002924   002271   002454               130033121  667    120032911  717    110034641    8    100034791         090034991    8    002536   002633   003210   002697   003227   003347   004986   006074   003151   002896   002355   002506                                      
050000900210014 00850 4113001LIMITE ISERE        0000000CARREF.CD945 LA FARE0220651ST FIRMIN           0050050022581020386050001100238000400031287      001611  657    001148   001375   001611   001364   001496   001727   002117   003113   001609   001465   001145   001121               130016691  677    120016581  717    110017311    8    100017431         090017731    8    001315   001256   001661   001374   001649   001670   002402   003204   001619   001460   001170   001176                                      
050000900110014 00850 4113001LIMITE ISERE        0000000CARREF.CD945 LA FARE0220651ST FIRMIN           0050050022581020386050001100138000400031287      001598  637    001125   001382   001514   001398   001530   001614   002385   002739   001528   001459   001126   001333               130016431  637    120016331  707    110017331    8    100017361         090017261    8    001221   001377   001549   001323   001578   001677   002584   002870   001532   001436   001185   001330                                      
050001100310014 00850 4113001CARREF.CD945 LA FARE0220651CARREF.CD944        0330328BAYARD PUYMO        0330290010689009884050001100300000000000989      006080  497    005042   005984   005955   005436   005877   006272   007317   008414   006090   006134   005201   005179               130063671  487    120063661  477    110064001    7    100065081         090065601    7    005479   005953   005714   005380   005815   006212   008384   008570   006826   006593   005840   005555                                      
050001100210014 00850 4113001CARREF.CD945 LA FARE0220651CARREF.CD944        0330328BAYARD PUYMO        0330290010689009884050001100200000000000989      003032  487    002532   002973   002948   002703   002903   003167   003614   004355   003049   003044   002526   002537               130031671  467    120031861  457    110031721    7    100032291         090032671    7    002731   002940   002858   002674   002878   003035   004275   004422   003276   003276   002865   002719                                      
050001100110014 00850 4113001CARREF.CD945 LA FARE0220651CARREF.CD944        0330328BAYARD PUYMO        0330290010689009884050001100100000000000989      003048  527    002510   003011   003007   002733   002974   003105   003703   004059   003041   003090   002675   002642               130032001  517    120031801  517    110032281    7    100032791         090032931    7    002748   003013   002856   002706   002937   003177   004109   004148   003550   003317   002975   002836                                      
050001200310014 00850 4813001CARREF.CD944        0330328SORTIE GAP NORD AGGL0351330VARSIE              0350950003015003015050001100300000000001287      008162                                                                                                                                 130085488         120085478         110085938         100087398         090088098                                                                                                                                                        
050001299310014 00850 4853001SORTIE GAP NORD AGGL0351330CARREFOUR EUROPE    0380360AV CDT DUMONT       0360900002781000000050001100300000000001287      008152                                                                                                                                 130085378         120085368         110085828         100087278         090087978                                                                                                                                                        
050001399310014 00850 4853001CARREFOUR EUROPE    0380360SORTIE GAP SUD AGGLO0400726AV.JEAN JAURES      0390100002477000000050001100300000000000394      020859                                                                                                                                 130218448         120218418         110219588         100223298         090225088                                                                                                                                                        
050001395310014 00850 4813001SORTIE AGGLO SUD    0400726ACCES  CAR RD 47    0400964BEL AUREILLE        0400560000238000238050001300305000130030100      016500                                                                                                                                 130163858         120163308         110166488         100164498         090165098                                                                                                                                                        
050001300310014 00850 4113001SORTIE GAP CAR RD 470400964CARREF.CD942 TALLARD0510523GAP SUD N85         0490550010422010422050001300300000000001287      011966  518    011014   011733   012379   011718   011817   012327   012704   013277   012246   012079   011003   011248               130118821  518    120118421 1057    110120721         100119271         090119701    7    010941   011900   011712   011649   011875   012225   012913   013298   011985   011906   011011   011151                                      
050001300210014 00850 4113001SORTIE GAP CAR RD 470400964CARREF.CD942 TALLARD0510523GAP SUD N85         0490550010422010422050001300200000000001287      005806  528    005132   005670   005862   005650   005733   006087   006277   006547   005990   005899   005300   005503               130057831  528    120058211 1237    110060901    7    100060161         090060491    7    005217   005733   005531   005582   005858   006009   006391   006587   005834   005832   005379   005429                                      
050001300110014 00850 4113001SORTIE GAP CAR RD 470400964CARREF.CD942 TALLARD0510523GAP SUD N85         0490550010422010422050001300100000000001287      006160  498    005882   006063   006517   006068   006084   006240   006427   006730   006256   006180   005703   005745               130060991  498    120060211  717    110059821         100059111         090059211    7    005724   006167   006181   006067   006017   006216   006522   006711   006151   006074   005632   005722                                      
050001400310014 00850 4113001CARREF RD 942 TALLAR0510523CARREF A51          0520421LA SAULCE           0520150000687000687050002100300000000000202      015810  697    018224   019050   016571   012757   013506   014110   015461   016726   014537   017278                                 130178541  577    120165321  727    110165641    7    100162171         090161621    7    016039   018284   016985   016085   017374   018189   020034   021975   018264   017349   015822   017792                                      
050001400210014 00850 4113001CARREF RD 942 TALLAR0510523CARREF A51          0520421LA SAULCE           0520150000687000687050002100200000000000202      006862  757    006053   006524   007842   006179   006500   006764   007403   008521   006643   006123                                 130072161  657    120083021  747    110083421    7    100081481         090081431    7    008153   009514   008333   007951   005864   005657   008507   008097   006003   006056   006176   006406                                      
050001400110014 00850 4113001CARREF RD 942 TALLAR0510523CARREF A51          0520421LA SAULCE           0520150000687000687050002100100000000000202      008948  597    012171   012526   008729   006578   007006   007346   008058   008205   007894   011155                                 130106381  467    120082301  687    110082221    7    100080691         090080191    7    007886   008770   008652   008134   011510   012532   011527   013878   012261   011293   009646   011386                                      
050002199310014 00940 4853001CARREF.MUSEE        0700000SORTIE GAP EST AGGLO0720245AVENUE EMBRUN       0710000002042000000050002100300000000001287      019744                                                                                                                                 130195768         120193728         110196168         100193688         090192368                                                                                                                                                        
050002100310014 00940 4113001SORTIE GAP EST AGGLO0720245CARREF.RD 942       0820090GAP EST N94         0750800009851009489050002100300000000001287      012551  467    011519   012030   012587   012096   011852   012616   014289   014401   012541   012352   011823   012415               130124441  467    120123141  467    110124691    7    100123111         090122271    7    011531   011881   012410   011924   012161   012789   014649   014526   012239   012095   011387   011640                                      
050002100210014 00940 4113001SORTIE GAP EST AGGLO0720245CARREF.RD 942       0820090GAP EST N94         0750800009851009489050002100200000000001287      006232  467    005853   005953   006324   005997   005864   006254   007001   007270   006238   006126   005840   006014               130061851  467    120061421  467    110061891    7    100061161         090060601    7    005780   006003   006090   005953   006036   006322   007220   007329   006102   006013   005660   005675                                      
050002100110014 00940 4113001SORTIE GAP EST AGGLO0720245CARREF.RD 942       0820090GAP EST N94         0750800009851009489050002100100000000001287      006319  457    005666   006077   006263   006099   005988   006362   007288   007131   006303   006226   005983   006401               130062591  457    120061721  457    110062801    7    100061951         090061671    7    005751   005878   006320   005971   006125   006467   007429   007197   006137   006082   005727   005965                                      
050002200310014 00940 4113001CARREF.CD942 MONTGAR0820090CARREF.CD954 BARCELO0980880CAR MONGARDIN       0820150016673015996050002500300000000001287      014464                                                                                                                                 130142431  837    120139561  827    110142951    7    100139341         090139321    7    012874   014850   014349   012950   012857   014099   018206   019720   013322   012735   011717   013145                                      
050002200210014 00940 4113001CARREF.CD942 MONTGAR0820090CARREF.CD954 BARCELO0980880CAR MONGARDIN       0820150016673015996050002500200000000000191      007365                                                                                                                                 130070961  787    120069691  777    110071391    7    100069421         090070001    7    006460   007186   007358   006587   006389   006974   008937   010093   006722   006320   005867   006199                                      
050002200110014 00940 4113001CARREF.CD942 MONTGAR0820090CARREF.CD954 BARCELO0980880CAR MONGARDIN       0820150016673015996050002500100000000000191      007099                                                                                                                                 130071471  917    120069871  907    110071561    7    100069921         090069321    7    006414   007664   006991   006363   006468   007125   009269   009627   006600   006415   005850   006946                                      
050002400310014 00940 4113001CARREF.CD954 BARCELO0980880AGGLO SUD EMBRUM    1080800SAVINES-CROTS       1070546008803008015050002500300000000001287      013813  607    012056   013302   014221   012004   012017   013457   019231   021670   012899   011949   010573   012125               130138431  607    120136641  607    110139261    7    100135551         090136941    7    012025   013821   013095   011886   011740   013285   020809   022111   012566   011696   010640   012206                                      
050002400210014 00940 4113001CARREF.CD954 BARCELO0980880AGGLO SUD EMBRUN    1080800SAVINES-CROTS       1070546008803008015050002500200000000001287      006915  607    006280   006502   007253   006038   006031   006743   009494   011081   006511   005960   005284   005663               130069241  617    120068431  607    110069881    7    100068051         090068671    7    006208   006975   006469   005815   005893   006672   010424   011285   006323   005808   005298   005805                                      
050002400110014 00940 4113001CARREF.CD954 BARCELO0980880AGGLO SUD EMBRUN    1080800SAVINES-CROTS       1070546008803008015050002500100000000001287      006898  587    005776   006800   006968   005966   005986   006714   009737   010589   006388   005989   005289   006462               130069191  607    120068211  597    110069381    7    100067501         090068271    7    005817   006846   006626   006071   005847   006613   010385   010826   006243   005888   005342   006401                                      
050002501310014 00940 4813001EMBRUN-SUD          1080800EMBRUN-NORD         1140440DEV_EMBRUN          1140000005640005640050002502300000000000409      000000                                                                                                                                 130000008         120000008         110000008         100000008         090000008                                                                                                                                                        
050002502310014 00940 4113001RD 263              1140440RD 902 A            1280350GUILLESTRE N94      1270234009874009291050002700300000000000199      008981  647    008142   009103   009890   007855   007533   008623   011671   013401   008313   007912   006924   008286               130089901  637    120088491  637    110091141    8    100089471         090091151    7    008465   009594   009050   007803   007544   008567   012195   013485   008149   007690   007084   008177                                      
050002502210014 00940 4113001RD 263              1140440RD 902 A            1280350GUILLESTRE N94      1270234009874009291050002700200000000000199      004480  517    004275   004430   005085   003952   003767   004290   005730   006801   004167   003921   003462   003812               130044741  497    120044291  517    110045361    8    100044641         090045261    7    004254   004605   004673   004002   003757   004249   006033   006837   004102   003811   003523   003795                                      
050002502110014 00940 4113001RD 263              1140440RD 902 A            1280350GUILLESTRE N94      1270234009874009291050002700100000000000199      004501  538    003867   004673   004805   003903   003766   004333   005941   006600   004146   003991   003462   004474               130045161  548    120044201  877    110045781    8    100044831         090045891    7    004211   004989   004377   003801   003787   004318   006162   006648   004047   003879   003561   004382                                      
050002600310014 00940 4113001CARREF.CD902A GUIL. 1280350CARREF.CD994E       1440520ARGENTIERE          1430800015594013008050002700300000000001287      006578  877    005455   005899   006660   005855   005770            009034   010121   006478   005955   005200   005802               130063311  927    120064351  917    110063361    7    100062851         090062461    7    005536   006252   006118   005621   005889   006026   009300   009193   006085   005428   004958   005466                                      
050002600210014 00940 4113001CARREF.CD902A GUIL. 1280350CARREF.CD994E       1440520ARGENTIERE          1430800015594013008050002700200000000000192      003227  837    002731   002809   003246   002892   002832            004491   005042   003172   002913   002557   002740               130031271  817    120031851  787    110031371    7    100031061         090030891    7    002783   003050   003072   002762   002905   002973   004638   004599   002994   002650   002433   002610                                      
050002600110014 00940 4113001CARREF.CD902A GUIL. 1280350CARREF.CD994E       1440520ARGENTIERE          1430800015594013008050002700100000000000192      003351  957    002724   003090   003414   002963   002938            004543   005079   003306   003042   002643   003062               130032041 1127    120032501 1167    110031991 1387    100031791         090031571 1147    002753   003202   003046   002859   002984   003053   004662   004594   003091   002778   002525   002856                                      
050002700310014 00940 4113001CARREF.CD994E       1440520CARREF.CD2 BRIAN.SUD1590079PRELLES             1520700014248012943050002700300000000000189      008028                                                                                                                                 130079491         120079491 1047    110079491 1067    100079191         090000001 1037                                                                                                                                                   
050002700210014 00940 4113001CARREF.CD994E       1440520CARREF.CD2 BRIAN.SUD1590079PRELLES             1520700014248012943050002700200000000000189      003788                                                                                                                                 130037511         120037511         110037511         100038481         090039471 1000                                                                                                                                                   
050002700110014 00940 4113001CARREF.CD994E       1440520CARREF.CD2 BRIAN.SUD1590079PRELLES             1520700014248012943050002700100000000000189      004239                                                                                                                                 130041981         120041981         110041981         100040711         090039471 1000                                                                                                                                                   
050002899310014 00940 4843001CARREF.CD2 BRIAN.   1590079CARREF.CD994F AGGLO 1600586BRIANCON AV PROVENCE1590600001550000000050002700300000000001287      003808                                                                                                                                 130037718         120037718         110038728         100076448         090077978                                                                                                                                                        
050003099310014 00940 4843001CARREF.CD994F AGGLO 1600586CARREF.RN91 CH.MARS 1610905BRIANCON AV FORGUES 1610000001339000000050002700300000000001287      001689                                                                                                                                 130016738         120016738         110017188         100033938         090034618                                                                                                                                                        
050003199310014 00940 4813001CARREF.RN91 CH.MARS 1610905AGGLO BRI NORD      1620412LA VACHETTE         1620050000511000000050003200300000000001287      008539                                                                                                                                 130084948         120082588         110084178         100082868         090084268                                                                                                                                                        
050003200310014 00940 4113001AGGLO BRI NORD      1620412SORTIE MONTGENEVRE  1720580COL MTG             1640150010980009660130004300300000000001287      006054  647    005423   005508   006511   005304   004786   005742   008476   010821   005579   004789   004206   005346               130060221  597    120058541  577    110059661    8    100058731         090059721    8    005628   006076   005888   004999   004354   005760   009696   009839   005519   004704   004212   005482                                      
050003200210014 00940 4113001AGGLO BRI NORD      1620412SORTIE MONTGENEVRE  1720580COL MTG             1640150010980009660130004300200000000001287      003028  627    002675   002756   003259   002649   002388   002852   004243   005444   002783   002391   002104   002711               130030061  597    120029291  577    110029821    8    100029351         090029741    8    002723   003019   002968   002484   002178   002897   004850   004927   002752   002347   002104   002770                                      
050003200110014 00940 4113001AGGLO BRI NORD      1620412SORTIE MONTGENEVRE  1720580COL MTG             1640150010980009660130004300100000000001287      003026  687    002748   002752   003252   002655   002398   002890   004233   005377   002796   002398   002102   002635               130030161  597    120029251  567    110029841    8    100029381         090029981    8    002905   003057   002920   002515   002176   002863   004846   004912   002767   002357   002108   002712                                      
050003220310014 00940 4113001AGGLO BRI NORD      1720580SORTIE MONTGENEVRE  1730390MTG TREMIE          1730120010980009660130004300300000000001287      003164  638    003384   003334   003803   002997   002071   002472   004239   006215   002403   001938   001900   003142               130031971  628    120030841  677    110031791    8    100026181         090025981    8    003267   003627   003667   002854   001949   002244   004875   006531   002222   001825   001947   003280                                      
050003220210014 00940 4113001AGGLO BRI NORD      1720580SORTIE MONTGENEVRE  1730390MTG TREMIE          1730120010980009660130004300200000000001287      001282  638    001213   001209   001412   001169   000899   001065   001847   002710   001001   000835   000764   001218               130013091  608    120012161  647    110012481    8    100012311         090012471    8    001255   001293   001353   001074   000766   001125   002146   002852   000955   000786   000794   001266                                      
050003220110014 00940 4113001AGGLO BRI NORD      1720580SORTIE MONTGENEVRE  1730390MTG TREMIE          1730120010980009660130004300100000000001287      001882  648    002171   002125   002391   001828   001172   001407   002392   003505   001402   001103   001136   001924               130018881  658    120018681  717    110019311    8    100013871         090013511    8    002012   002334   002314   001780   001183   001119   002729   003679   001267   001039   001153   002014                                      
050003300310014 00940 4113001SORTIE MONTGENEVRE  1730390LIMITE FRONTIERE    1740834POSTE P.A.F         1740600001451001451130004300300000000001287      002980  907    003266   003074   003651   002765   002123   002059   004263   005817   002172   001803   001747   002933               130030151  837    120027781  777    110029091    7    100028611         090029631    7    003587   003325   003447   002701   001861   002202   004189   006204   002031   001714   001832   003007                                      
050003300210014 00940 4113001SORTIE MONTGENEVRE  1730390LIMITE FRONTIERE    1740834POSTE P.A.F         1740600001451001451130004300200000000001287      001470  937    001561   001533   001806   001328   000986   001101   001921   002935   001081   000906   000877   001565               130015161  847    120013901  787    110014521    7    100014311         090014821    7    001706   001670   001745   001297   000925   001127   002115   003169   001010   000865   000915   001600                                      
050003300110014 00940 4113001SORTIE MONTGENEVRE  1730390LIMITE FRONTIERE    1740834POSTE P.A.F         1740600001451001451130004300100000000001287      001510  857    001705   001541   001845   001437   001137   000958   002342   002882   001091   000897   000870   001368               130014991  817    120013881  767    110014571    7    100014301         090014811    7    001881   001655   001702   001404   000936   001075   002074   003035   001021   000849   000917   001407                                      
050002499310014 20940 4843001AGGLO SUD EMBRUN    1100195AGGLO NORD EMBRUN   1120659AGGLO EMBRUN        1100200002359000000050002500300000000000191      008230                                                                                                                                 130076968         120067748         110040478         100039418         090041148                                                                                                                                                        
050002500310014 20940 4113001FIN AGLO NORD EMBRUN1120659CARREF.CD263        1170420EMBRUN NORD         1130900004776004776050002502300000000001287      006889  937    006489   007252   007362   005968   005469   006515   009368   010989   006249   005582   004998   006327               130064421  947    120056701  877    110033871    7    100032981         090034421    7    003973   007759   005534   006094   004766   006808   008076   011325   006463   005682   004817   006084                                      
050002500210014 20940 4113001FIN AGLO NORD EMBRUN1120659CARREF.CD263        1170420EMBRUN NORD         1130900004776004776050002502200000000001287      003404  927    003420   003502   003770   002974   002704   003222   004519   005518   003091   002752   002484   002835               130031761  927    120028871  857    110017131    7    100016631         090017141    7    001870   004118   002630   003114   002363   003312   004016   005670   003212   002787   002420   002675                                      
050002500110014 20940 4113001FIN AGL NORD EMBRUN 1120659CARREF.CD263.       1170420EMBRUN NORD         1130900004776004776050002502100000000001287      003485  957    003069   003750   003592   002994   002765   003293   004849   005471   003158   002830   002514   003492               130032661  967    120027831  917    110016741    7    100016351         090017281    7    002103   003641   002904   002980   002403   003496   004060   005655   003251   002895   002397   003409                                      
130601300310014 00070 1810241BERRE               0000000VITROLLES           2590570ROGNAC              2550450005750005750130601690300000000000589      063845                                                                                                                                 130632138         120632138         110632138         100622308         090000008                                                                                                                                                        
130601300210014 00070 1810241BERRE               0000000VITROLLES           2590570ROGNAC              2550450005750005750130601690200000000000589      032082                                                                                                                                 130317658         120317658         110317658         100317408         090000008                                                                                                                                                        
130601300110014 00070 1810241BERRE               0000000VITROLLES           2590570ROGNAC              2550450005750005750130601690100000000000589      030816                                                                                                                                 130305118         120305118         110305118         100301188         090000008                                                                                                                                                        
130601400310014 00070 1810241VITROLLES           2590570VITROLLES Z.I.      2610270VITROLLES NORD SUD  2600500001705001705130601690300000000000589      057851                                                                                                                                 130572798         120572798         110572798         100567898         090000008                                                                                                                                                        
130601400210014 00070 1810241VITROLLES           2590570VITROLLES Z.I.      2610270VITROLLES NORD SUD  2600500001705001705130601690200000000000589      029567                                                                                                                                 130292758         120292758         110292758         100291118         090000008                                                                                                                                                        
130601400110014 00070 1810241VITROLLES           2590570VITROLLES Z.I.      2610270VITROLLES NORD SUD  2600500001705001705130601690100000000000589      028536                                                                                                                                 130282548         120282548         110282548         100277778         090000008                                                                                                                                                        
130601500310014 00070 1810241VITROLLES Z.I.      2610270MARIGNANE           2620120CARREFOUR VITROLLES 2610800000849000849130601690300000000000589      052305                                                                                                                                 130517888         120517888         110517888         100510838         090000008                                                                                                                                                        
130601500210014 00070 1810241VITROLLES Z.I.      2610270MARIGNANE           2620120CARREFOUR VITROLLES 2610800000849000849130601690200000000000589      023640                                                                                                                                 130234068         120234068         110234068         100232768         090000008                                                                                                                                                        
130601500110014 00070 1810241VITROLLES Z.I.      2610270MARIGNANE           2620120CARREFOUR VITROLLES 2610800000849000849130601690100000000000589      028665                                                                                                                                 130283828         120283828         110283828         100279028         090000008                                                                                                                                                        
130601690310014 00070 1110231RN 113              2640300SORTIE L'AGAVON     2650000L AGAVON PMV        2640650000593000593130620500300000000000589      109511                                                                                                                                 131084271         121084271         111084271         101071831         090000001                                                                                                                                                        
130601690210014 00070 1110241RN 113              2640300SORTIE L'AGAVON     2650000L AGAVON PMV        2640650000593000593130620500200000000000589      051316                                                                                                                                 130508081         120508081         110508081         100506281         090000001                                                                                                                                                        
130601690110014 00070 1110241RN 113              2640300SORTIE L'AGAVON     2650000L AGAVON PMV        2640650000593000593130620500100000000000589      058195                                                                                                                                 130576191         120576191         110576191         100566651         090000001                                                                                                                                                        
130601600310014 00070 1810231MARIGNANE           2620120RN 113              2640000MARIGNANE           2640000002187002187130601690300000000000589      080733                                                                                                                                 130799348         120799348         110799348         100788978         090000008                                                                                                                                                        
130601600210014 00070 1810231MARIGNANE           2620120RN 113              2640000MARIGNANE           2640000002187002187130601690200000000000401      040485                                                                                                                                 130400858         120400858         110400858         100398618         090000008                                                                                                                                                        
130601600110014 00070 1810231MARIGNANE           2620120RN 113              2640000MARIGNANE           2640000002187002187130601690100000000000401      040247                                                                                                                                 130398498         120398498         110398498         100391768         090000008                                                                                                                                                        
130601700310014 00070 1110441SORTIE L'AGAVON     2650000A 55 NORD           2651040L'ANJOLY            2650500001040001040130620500300000000000589      113463                                                                                                                                 131123401         121123401         111123401         101094211         091098451                                                                                                                                                        
130601700210014 00070 1110241SORTIE L'AGAVON     2650000A 55 NORD           2651040L'ANJOLY            2650500001040001040130620500200000000000589      055245                                                                                                                                 130546991         120546991         110546991         100541061         090543721                                                                                                                                                        
130601700110014 00070 1110441SORTIE L'AGAVON     2650000A 55 NORD           2651040L'ANJOLY            2650500001040001040130620500100000000000589      058217                                                                                                                                 130576411         120576411         110576411         100553141         090554731                                                                                                                                                        
130601800310014 00070 1110241A 55 NORD           2651040A 55 SUD            2670280LES PENNES CRICR    2660500001363001363130620500300000000000589      066010                                                                                                                                 130653571         120653571         110653571         100697871         090000001                                                                                                                                                        
130601800210014 00070 1110241A 55 NORD           2651040A 55 SUD            2670280LES PENNES CRICR    2660500001363001363130620500200000000000589      028723                                                                                                                                 130284391         120284391         110284391         100294261         090000001                                                                                                                                                        
130601800110014 00070 1110241A 55 NORD           2651040A 55 SUD            2670280LES PENNES CRICR    2660500001363001363130620500100000000000589      037287                                                                                                                                 130369181         120369181         110369181         100403611         090000001                                                                                                                                                        
130601900310014 00070 1110341A55 SUD             2670280LES PENNES MIRABEAU 2690000A55 LES PENNES      2680000002450002450130620500300000000000989      100173                                                                                                                                 130991821         120991821         110991821         101000741         091014441                                                                                                                                                        
130601900210014 00070 1110441A55 SUD             2670280LES PENNES MIRABEAU 2690000A55 LES PENNES      2680000002450002450130620500200000000000989      047738                                                                                                                                 130472661         120472661         110472661         100473061         090473461                                                                                                                                                        
130601900110014 00070 1110341A55 SUD             2670280LES PENNES MIRABEAU 2690000A55 LES PENNES      2680000002450002450130620500100000000000989      052435                                                                                                                                 130519161         120519161         110519161         100529961         090540981                                                                                                                                                        
130602000310014 00070 1110231A 51 NORD           2700585A 51 SUD            2710620SEPTEMES A 7        2700833001025001025130620500300000000000589      050941                                                                                                                                 130504371         120504371         110504371         100586911         090596381                                                                                                                                                        
130602000210014 00070 1110231A 51 NORD           2700585A 51 SUD            2710620SEPTEMES A 7        2700833001025001025130620500200000000000589      018040                                                                                                                                 130178621         120178621         110178621         100292791         090299511                                                                                                                                                        
130602000110014 00070 1110231A 51 NORD           2700585A 51 SUD            2710620SEPTEMES A 7        2700833001025001025130620500100000000000589      032900                                                                                                                                 130325751         120325751         110325751         100294121         090296871                                                                                                                                                        
130601901310014 00070 1110431PENNES MIRABEAU     2690000A 51 NORD           2700585PENNES MIRABEAU     2700000000860000860130620500300000000000589      088297                                                                                                                                 130874231         120874231         110874231         100882771         090877621                                                                                                                                                        
130601901210014 00070 1110231PENNES MIRABEAU     2690000A 51 NORD           2700585PENNES MIRABEAU     2700000000860000860130620500200000000000589      045106                                                                                                                                 130446601         120446601         110446601         100436311         090426251                                                                                                                                                        
130601901110014 00070 1110431PENNES MIRABEAU     2690000A 51 NORD           2700585PENNES MIRABEAU     2700000000860000860130620500100000000000589      043190                                                                                                                                 130427631         120427631         110427631         100439341         090451371                                                                                                                                                        
130602100310014 00070 1110431A 51 SUD            2710620ST ANTOINE          2730510SEPTEMES TRON COMMUN2720000001894001894130620500300000000000589      143770                                                                                                                                 131423471         121423471         111423471         101354421         091402921                                                                                                                                                        
130602100210014 00070 1110431A 51 SUD            2710620ST ANTOINE          2730510SEPTEMES TRON COMMUN2720000001894001894130620500200000000000589      065902                                                                                                                                 130652501         120652501         110652501         100616881         090642451                                                                                                                                                        
130602100110014 00070 1110431A 51 SUD            2710620ST ANTOINE          2730510SEPTEMES TRON COMMUN2720000001894001894130620500100000000000589      077867                                                                                                                                 130770971         120770971         110770971         100735881         090760471                                                                                                                                                        
130602200310014 00070 1110431ST ANTOINE          2730510LES AYGALADES       2750080SAINT ANTOINE       2740000001570001570130620500300000000000589      140926                                                                                                                                 131395311         121395311         111395311         101423401         091452061                                                                                                                                                        
130602200210014 00070 1110431ST ANTOINE          2730510LES AYGALADES       2750080SAINT ANTOINE       2740000001570001570130620500200000000000589      066697                                                                                                                                 130660371         120660371         110660371         100676831         090693701                                                                                                                                                        
130602200110014 00070 1110431ST ANTOINE          2730510LES AYGALADES       2750080SAINT ANTOINE       2740000001570001570130620500100000000000589      074228                                                                                                                                 130734941         120734941         110734941         100746561         090758361                                                                                                                                                        
130602300310014 00070 1110431LES AYGALADES       2750080M.I.N.ARNAVAUX      2780915LES  AYGALADES      2760000003402003402130620500300000000000589      325136                                                                                                                                 133219171         123219171         113219171         101342731         091363901                                                                                                                                                        
130602300210014 00070 1110431LES AYGALADES       2750080M.I.N.ARNAVAUX      2780915LES  AYGALADES      2760000003402003402130620500200000000000589      067551                                                                                                                                 130668831         120668831         110668831         100662371         090670561                                                                                                                                                        
130602300110014 00070 1110431LES AYGALADES       2750080M.I.N.ARNAVAUX      2780915LES  AYGALADES      2760000003402003402130620500100000000000589      066694                                                                                                                                 130660341         120660341         110660341         100676641         090693341                                                                                                                                                        
130602500310014 00070 1110431LA ROSE             2780915PLOMBIERES          2800130LA ROSE             2800000001210001210130620500300000000000589      088288                                                                                                                                 130874141         120874141         110874141         101071411         090000001                                                                                                                                                        
130602500210014 00070 1110431LA ROSE             2780915PLOMBIERES          2800130LA ROSE             2800000001210001210130620500200000000000589      050786                                                                                                                                 130502841         120502841         110502841         100515421         090000001                                                                                                                                                        
130602500110014 00070 1110431LA ROSE             2780915PLOMBIERES          2800130LA ROSE             2800000001210001210130620500100000000000589      037501                                                                                                                                 130371301         120371301         110371301         100555991         090000001                                                                                                                                                        
130602600310014 00070 1110431PLOMBIERES          2800130ST CHARLES          2820100PLOMBIERES ST CHARLE2810000001975001975130620500300000000000589      074824                                                                                                                                 130740841         120740841         110740841         100782681         090831251                                                                                                                                                        
130602600210014 00070 1110431PLOMBIERES          2800130SAINT CHARLES       2820100PLOMBIERES ST CHARLE2820000001975001975130620500200000000000401      052068                                                                                                                                 130515531         120515531         110515531         100518421         090521321                                                                                                                                                        
130602600110014 00070 1110431PLOMBIERES          2800130SAINT CHARLES       2820100PLOMBIERES ST CHARLE2820000001975001975130620500100000000000401      022756                                                                                                                                 130225311         120225311         110225311         100264261         090309931                                                                                                                                                        
130615200310014 00500 1110431MENPENTI            0000000LA POMME            0020000MENPENTI            0010000002260002260130620500300000000000589      090086                                                                                                                                 130891951         120891951         110891951         100901871         090909101                                                                                                                                                        
130615200210014 00500 1110431MENPENTI            0000000LA POMME            0020000MENPENTI            0010000002260002260130620500200000000000589      046264                                                                                                                                 130458061         120458061         110458061         100468001         090478151                                                                                                                                                        
130615200110014 00500 1110431MENPENTI            0000000LA POMME            0020000MENPENTI            0010000002260002260130620500100000000000589      043822                                                                                                                                 130433891         120433891         110433891         100432421         090430951                                                                                                                                                        
130615300310014 00500 1110431LA POMME            0020000LA VALENTINE        0070507LA VALENTINE        0050000004635004635130620500300000000000589      126196                                                                                                                                 131249471         121249471         111249471         101248461         091247451                                                                                                                                                        
130615300210014 00500 1110431LA POMME            0020000LA VALENTINE        0070507LA VALENTINE        0050000004635004635130620500200000000000589      063744                                                                                                                                 130631131         120631131         110631131         100632581         090634031                                                                                                                                                        
130615300110014 00500 1110431LA POMME            0020000LA VALENTINE        0070507LA VALENTINE        0050000004635004635130620500100000000000589      062452                                                                                                                                 130618341         120618341         110618341         100615881         090613421                                                                                                                                                        
130615490310014 00500 1110431LA VALENTINE        0070507LA PENNE            0100495LA PENNE            0090316002990002990130620500300000000000589      111746                                                                                                                                 131106401         121106401         111106401         101021991         090948691                                                                                                                                                        
130615490210014 00500 1110431LA VALENTINE        0070507LA PENNE            0100495LA PENNE            0090316002990002990130620500200000000000589      055893                                                                                                                                 130553401         120553401         110553401         100475221         090408081                                                                                                                                                        
130615490110014 00500 1110431LA VALENTINE        0070507LA PENNE            0100495LA PENNE            0090316002990002990130620500100000000000589      055853                                                                                                                                 130553001         120553001         110553001         100546771         090540611                                                                                                                                                        
130615500310014 00500 1110431LA PENNE            0100495AUBAGNE (A 501)     0120880AUBAGNE OUEST       0110820002392002392130620500300000000000589      111824                                                                                                                                 131107171         121107171         111107171         101078061         091050061                                                                                                                                                        
130615500210014 00500 1110431LA PENNE            0100495AUBAGNE (A 501)     0120880AUBAGNE OUEST       0110820002392002392130620500200000000000589      057055                                                                                                                                 130564911         120564911         110564911         100559931         090554991                                                                                                                                                        
130615500110014 00500 1110431LA PENNE            0100495AUBAGNE (A 501)     0120880AUBAGNE OUEST       0110820002392002392130620500100000000000589      054768                                                                                                                                 130542261         120542261         110542261         100518131         090495071                                                                                                                                                        
130615600310014 00500 1150231AUBAGNE (A 501)     0120880AUBAGNE (A 502)     0150303AUBAGNE OUEST       0140000002413002413130620500300000000000589      072077                                                                                                                                 130713641         120713641         110713641         100708181         090700331                                                                                                                                                        
130615600210014 00500 1150231AUBAGNE (A 501)     0120880AUBAGNE (A 502)     0150303AUBAGNE OUEST       0140000002413002413130620500200000000000589      036211                                                                                                                                 130358531         120358531         110358531         100354261         090350721                                                                                                                                                        
130615600110014 00500 1150231AUBAGNE (A 501)     0120880AUBAGNE (A 502)     0150303AUBAGNE OUEST       0140000002413002413130620500100000000000589      035866                                                                                                                                 130355111         120355111         110355111         100353921         090349611                                                                                                                                                        
130620100310014 00510 1110441SEPTEMES (A 7)      0000000BRETELLE A7         0010080SEPTEMES            0000300000967000967130620500300000000001192      083216                                                                                                                                 130823931         120823931         110823931         100814381         090805171                                                                                                                                                        
130620100210014 00510 1110441SEPTEMES (A 7)      0000000BRETELLE A7         0010080SEPTEMES            0000300000967000967130620500200000000001192      045040                                                                                                                                 130445951         120445951         110445951         100433741         090421861                                                                                                                                                        
130620100110014 00510 1110441SEPTEMES (A 7)      0000000BRETELLE A7         0010080SEPTEMES            0000300000967000967130620500100000000001192      038175                                                                                                                                 130377981         120377981         110377981         100380641         090383311                                                                                                                                                        
130620200310014 00510 1110431BRETELLE A 7        0010080PLAN DE CAMPAGNE    0020925BRETELLE A7-PLAN DE 0020000001848001848130620500300000000000589      126660                                                                                                                                 131254061         121254061         111254061         101198411         091204711                                                                                                                                                        
130620200210014 00510 1110431BRETELLE A 7        0010080PLAN DE CAMPAGNE    0020925BRETELLE A7-PLAN DE 0020000001848001848130620500200000000000589      062755                                                                                                                                 130621341         120621341         110621341         100600061         090597401                                                                                                                                                        
130620200110014 00510 1110431BRETELLE A 7        0010080PLAN DE CAMPAGNE    0020925BRETELLE A7-PLAN DE 0020000001848001848130620500100000000000589      063904                                                                                                                                 130632721         120632721         110632721         100598341         090607311                                                                                                                                                        
130620300310014 00510 1110241PLAN DE CAMPAGNE    0020925LES CHABAUDS        0050035BOUC BEL AIR        0050000002111002111130620500300000000000589      106840                                                                                                                                 131057831         121057831         111057831         101108031         091118101                                                                                                                                                        
130620300210014 00510 1110441PLAN DE CAMPAGNE    0020925LES CHABAUDS        0050035BOUC BEL AIR        0050000002111002111130620500200000000000589      058586                                                                                                                                 130580061         120580061         110580061         100579591         090579121                                                                                                                                                        
130620300110014 00510 1110441PLAN DE CAMPAGNE    0020925LES CHABAUDS        0050035BOUC BEL AIR        0050000002111002111130620500100000000000589      048254                                                                                                                                 130477771         120477771         110477771         100527631         090538981                                                                                                                                                        
130620400310014 00510 1110241LES CHABAUDS        0050035LES 3 PIGEONS       0100135CABRIES MARIUS      0060100005116005116130620500300000000000589      072509                                                                                                                                 130717921         120717921         110717921         100698851         090683161                                                                                                                                                        
130620400210014 00510 1110241LES CHABAUDS        0050035LES 3 PIGEONS       0100135CABRIES MARIUS      0060100005116005116130620500200000000000589      035611                                                                                                                                 130352591         120352591         110352591         100351951         090351311                                                                                                                                                        
130620400110014 00510 1110241LES CHABAUDS        0050035LES 3 PIGEONS       0100135CABRIES MARIUS      0060100005116005116130620500100000000000589      036292                                                                                                                                 130359331         120359331         110359331         100345321         090331851                                                                                                                                                        
130620500310014 00510 1110241LES 3 PIGEONS       0100135LUYNES              01303253 PIGEONS-LUYNES    0100300003191003191130620500300000000000589      057908                                                                                                                                 130573351         120573351         110573351         100560811         090548591                                                                                                                                                        
130620500210014 00510 1110241LES 3 PIGEONS       0100135LUYNES              01303253 PIGEONS-LUYNES    0100300003191003191130620500200000000000589      030715                                                                                                                                 130304111         120304111         110304111         100300311         090296551                                                                                                                                                        
130620500110014 00510 1110241LES 3 PIGEONS       0100135LUYNES              01303253 PIGEONS-LUYNES    0100300003191003191130620500100000000000589      027193                                                                                                                                 130269241         120269241         110269241         100260501         090252041                                                                                                                                                        
130620690310014 00510 1810241LUYNES              0130325LES MILLES          0140720LUYNES PMV          0140000001393001393130620500300000000000189      067522                                                                                                                                 130668548         120668548         110668548         100642358         090617188                                                                                                                                                        
130620690210014 00510 1810241LUYNES              0130325LES MILLES          0140720LUYNES PMV          0140000001393001393130620500200000000000589      033060                                                                                                                                 130327338         120327338         110327338         100315288         090303678                                                                                                                                                        
130620690110014 00510 1810241LUYNES              0130325LES MILLES          0140720LUYNES PMV          0140000001393001393130620500100000000000589      034462                                                                                                                                 130341218         120341218         110341218         100327078         090313518                                                                                                                                                        
130620700310014 00510 1810441LES MILLES          0140720AIX-CENTRE          0150770LES MILLES          0150000001358001358130620500300000000000589      110587                                                                                                                                 131094938         121094938         111094938         101052278         091011258                                                                                                                                                        
130620700210014 00510 1810441LES MILLES          0140720AIX-CENTRE          0150770LES MILLES          0150000001358001358130620500200000000000589      059215                                                                                                                                 130586298         120586298         110586298         100564708         090543908                                                                                                                                                        
130620700110014 00510 1810441LES MILLES          0140720AIX-CENTRE          0150770LES MILLES          0150000001358001358130620500100000000000589      051372                                                                                                                                 130508648         120508648         110508648         100487568         090467358                                                                                                                                                        
130620800310014 00510 1850231AIX-CENTRE          0150770RACCORDEMENT A.8    0160515AIX-CENTRE          0160200000751000751130620500300000000000589      079489                                                                                                                                 130787028         120787028         110787028         100767948         090749348                                                                                                                                                        
130620800210014 00510 1850231AIX-CENTRE          0150770RACCORDEMENT A.9    0160515AIX-CENTRE          0160200000751000751130620500200000000000189      043381                                                                                                                                 130429528         120429528         110429528         100421558         090413728                                                                                                                                                        
130620800110014 00510 1850231AIX-CENTRE          0150770RACCORDEMENT A.8    0160515AIX-CENTRE          0160200000751000751130620500100000000000589      036107                                                                                                                                 130357508         120357508         110357508         100346398         090335628                                                                                                                                                        
130620900310014 00510 1850231RACCORDEMENT A.8.   0160515AIX-OUEST(Z.A.C.)   0170826RAC.A8-AIX-OUEST ZAC0170000001319001319130620500300000000000589      090158                                                                                                                                 130892668         120892668         110892668         100857758         090824268                                                                                                                                                        
130620900210014 00510 1850231RACCORDEMENT A.8.   0160515AIX-OUEST(Z.A.C.)   0170826RAC.A8-AIX-OUEST ZAC0170000001319001319130620500200000000000589      050963                                                                                                                                 130504598         120504598         110504598         100488588         090473078                                                                                                                                                        
130620900110014 00510 1850231RACCORDEMENT A.8.   0160515AIX-OUEST(Z.A.C.)   0170826RAC.A8-AIX-OUEST ZAC0170000001319001319130620500100000000000589      039195                                                                                                                                 130388078         120388078         110388078         100369178         090351198                                                                                                                                                        
130635100510014 00550 1111031PORT                0010000JOLIETTE            0020060JOLIETTE            0010442000160000160         500000000000589      046217                                                                                                                                 130457601         120457601         110457601         100417171         090380311                                                                                                                                                        
130635300310014 00550 1150231ARENC               0020060CAP PINEDE          0030460ARENC               0020800001406001406         300000000000589      069603                                                                                                                                 130689141         120689141         110689141         100657751         090627851                                                                                                                                                        
130635300210014 00550 1110231ARENC               0020060CAP PINEDE          0030460ARENC               0020800001406001406         200000000000589      026749                                                                                                                                 130264851         120264851         110264851         100256051         090247541                                                                                                                                                        
130635300110014 00550 1150231ARENC               0020060CAP PINEDE          0030460ARENC               0020800001406001406         100000000000589      042853                                                                                                                                 130424291         120424291         110424291         100401701         090380311                                                                                                                                                        
130635200410014 00550 1150231ARENC               0010349JOLIETTE            0020060JOLIETTE.           0020000000462000462         400000000000589      040832                                                                                                                                 130404281         120404281         110404281         100394811         090385561                                                                                                                                                        
130635400310014 00550 1110431CAP PINEDE          0030460CAP JANET           0040660CAP PINEDE          0040305001200001200         300000000000589      051018                                                                                                                                 130505131         120505131         110505131         100625701         090803401                                                                                                                                                        
130635400210014 00550 1110431CAP PINEDE          0030460CAP JANET           0040660CAP PINEDE          0040305001200001200         200000000000589      028749                                                                                                                                 130284651         120284651         110284651         100293191         090301981                                                                                                                                                        
130635400110014 00550 1110431CAP PINEDE          0030460CAP JANET           0040660CAP PINEDE          0040305001200001200         100000000000589      022268                                                                                                                                 130220481         120220481         110220481         100332501         090501421                                                                                                                                                        
130635600310014 00550 1110231CAP JANET           0040660MIRABEAU            0050620CAP JANET           0050000000960000960         300000000000589      063989                                                                                                                                 130633561         120633561         110633561         100659101         090687361                                                                                                                                                        
130635600210014 00550 1110231CAP JANET           0040660MIRABEAU            0050620CAP JANET           0050000000960000960         200000000000589      029751                                                                                                                                 130294571         120294571         110294571         100290061         090285611                                                                                                                                                        
