800500300310014 00280 1117031ECHA RD 29          0170042SEINE/MAR           0280611BOUTTENCOURT        0270505011554011554          00000000000796      000000                                                                                                                                 130000001    0    120116121    0    110116041    0    100113391    0    090097131    0                                                                                                                                                   
800500300210014 00280 1117031ECHA RD 29          0170042SEINE/MAR           0280611BOUTTENCOURT        0270505011554011554          00000000000796      000000                                                                                                                                 130000001    0    120058231    0    110058391    0    100057391    0    090048621    0                                                                                                                                                   
800500300110014 00280 1117031ECHA RD 29          0170042SEINE/MAR           0280611BOUTTENCOURT        0270505011554011554          00000000000796      000000                                                                                                                                 130000001    0    120057891    0    110057651    0    100056001    0    090048511    0                                                                                                                                                   
800500200310014 00280 1117031ECHA RD928          0100360ECHA RD 29          0170042BEHEN               0100671006690006690          00000000000796      000000                                                                                                                                 130000001    0    120118771    0    110123451    0    100117771    0    090115641    0                                                                                                                                                   
800500200210014 00280 1117031ECHA  RD928HEN      0100360ECHA  RD 29         0170042BEHEN               0100671006690006690          00000000000796      000000                                                                                                                                 130000001    0    120059671    0    110062771    0    100057201    0    090058791    0                                                                                                                                                   
800500200110014 00280 1117031ECHA RD928HEN       0100360ECHA  RD 29         0170042BEHEN               0100671006690006690          00000000000796      000000                                                                                                                                 130000001    0    120059101    0    110060681    0    100060571    0    090056851    0                                                                                                                                                   
800500101310014 00280 1817031ECHA RD925          0040245ECHA RD928          0100360MONT CAUBERT        0070006006095006095800500200300000000000202      000000                                                                                                                                 130000008         120120498         110125238         100119528         090117328                                                                                                                                                        
800500101210014 00280 1817031ECHA RD925          0040245ECHA RD928          0100360MONT CAUBERT        0070006006095006095800500200200000000000202      000000                                                                                                                                 130000008         120060018         110063138         100057538         090059138                                                                                                                                                        
800500101110014 00280 1817031ECHA RD925          0040245ECHA RD928          0100360MONT CAUBERT        0070006006095006095800500200100000000000202      000000                                                                                                                                 130000008         120060488         110062108         100061998         090058198                                                                                                                                                        
800500100310014 00280 1117031ECHA  RD 40         0010695ECHA  RD925         0040245ABBEVILLE           0020650002543002543800500200100000000001291      000000                                                                                                                                 130000001         120141171 2448    110146511 2707    100148301 2308    090147041 2198                                                                                                                                                   
800500100210014 00280 1117031ECHA RD40           0010695ECHA  RD925         0040245ABBEVILLE           0020650002543002543800500200100000000001291      000000                                                                                                                                 130000001         120073081 2458    110070031 2767    100072641 2378    090072821 2258                                                                                                                                                   
800500100110014 00280 1117031ECHA RD 40          0010695ECHA RD925          0040245ABBEVILLE           0020650002543002543800500200100000000001291      000000                                                                                                                                 130000001         120068091 2418    110076481 2577    100075661 2168    090074221 2078                                                                                                                                                   
800500000310014 00280 1817031RN1                 0000000ECHA RD 40          0010695GR-LAVIERS          0010000001932001932800500100300000000000796      000000                                                                                                                                 130000008         120140378         110146058         100147738         090146448                                                                                                                                                        
800500000210014 00280 1817031RN1                 0000000ECHA RD 40          0010695GR-LAVIERS          0010000001932001932800500100200000000000796      000000                                                                                                                                 130000008         120070498         110067558         100070078         090070258                                                                                                                                                        
800500000110014 00280 1817031RN 1                0000000ECHA RD 40          0010695GR-LAVIERS          0010000001932001932800500100100000000000796      000000                                                                                                                                 130000008         120069888         110078508         100077668         090076198                                                                                                                                                        
760510010310014 03380 4140201petit quevilly      0050850petit quevilly      0070940petit quevilly      0061000002940002940800500100176000000010600      079496  767    075805   079160   080793   082172   080467   083081   079215   074386   081207   081837   079054   076981               130779621  867    120755321    0    110000001    0    100383511    7    090000001    0    076794   082592   081881   084877   079844   083018   072856   053680   081641   082884   079049   077415                                      
760510010210014 03380 4140201petit quevilly      0050850petit quevilly      0070940petit quevilly      0061000002940002940800500100176000000010600      041860  687    041482   042605   043085   044436   042327   043705   039794   037194   044314   042502   041196   039947               130396361  807    120402251    0    110000001    0    100213561    7    090000001    0    039753   042186   041553   043772   043061   044668   033039   016523   043270   044598   042880   041097                                      
760510010110014 03380 4140201petit quevilly      0050850petit quevilly      0070940petit quevilly      0061000002940002940800500100176000000010600      037636  947    034323   036555   037708   037736   038140   039376   039421   037192   036893   039335   037858   037034               130383261  997    120353071    0    110000001    0    100169951    7    090000001    0    037041   040406   040328   041105   036783   038350   039817   037157   038371   038286   036169   036318                                      
760501700310014 00280 1110241ECH RD919           0830650ECH FIN A28         0970387Quincampoix         0900000013737013737800500100100000000000193      023512 1147    019563   020518   021282   022869   022442   023777   022839   024069   027165   026971   025400   025121               130213171  557    120259591 1297    110272211 1397    100268331 1767    090246991    8    018321   019712   020117   022279   022470   023619            020135   023317   022616   021352                                               
760501700210014 00280 1110241ECH RD919           0830650ECH FIN A28         0970387Quincampoix         0900000013737013737800500100100000000000193      011715 1197    009688   010198   010585   011190   011061   011719   011060   012203   013771   013612   012836   012591               130104771  607    120129201 1307    110135871 1377    100134461 1797    090113251    8    009085   009770   009899   010947   010871   011555   009726   009931   011581   011251   010655                                               
760501700110014 00280 1110241ECH RD919           0830650ECH FIN A28         0970387Quincampoix         0900000013737013737800500100100000000000193      011797 1057    009875   010320   010697   011679   011381   012058   011779   011866   013394   013359   012564   012530               130108401  467    120130391 1277    110136341 1437    100133871 1707    090133741    8    009236   009942   010218   011332   011599   012064            010204   011736   011365   010697                                               
760501601310014 00280 1810241                    0800000ECH RD 919          0830650Rocquemont          0800000003650003650760501500300000000000193      000000                                                                                                                                 130000008         120000008         110000008         100000008    0    090219218    0                                                                                                                                                   
760501601210014 00280 1810241                    0800000ECH RD 919          0830650Rocquemont          0800000003650003650760501500200000000000193      000000                                                                                                                                 130000008         120000008         110000008         100000008    0    090114448    0                                                                                                                                                   
760501601110014 00280 1810241                    0800000ECH RD 919          0830650Rocquemont          0800000003650003650760501500100000000000193      000000                                                                                                                                 130000008         120000008         110000008         100000008    0    090104778    0                                                                                                                                                   
760501600310014 00280 1810241ECH PUCHEUIL        0750000                    0800000Bosc-Bérenger       0800000005000005000760501500300000000000193      000000                                                                                                                                 130000008         120000008         110000008         100000008    0    090219218    0                                                                                                                                                   
760501600210014 00280 1810241ECH PUCHEUIL        0750000                    0800000Bosc-Bérenger       0800000005000005000760501500200000000000193      000000                                                                                                                                 130000008         120000008         110000008         100000008    0    090114448    0                                                                                                                                                   
760501600110014 00280 1810241ECH PUCHEUIL        0750000                    0800000Bosc-Bérenger       0800000005000005000760501500100000000000193      000000                                                                                                                                 130000008         120000008         110000008         100000008    0    090104778    0                                                                                                                                                   
760501500310014 00280 1110241ECH LES HAYONS      0650450ECH PUCHEUIL        0750000Maucomble           0670000009550009550760501500100000000000193      000000                                                                                                                                 130000001         120000001         110000001         100000001         090262731 1458                                                                                                                                                   
760501500210014 00280 1110241ECH LES HAYONS      0650450ECH PUCHEUIL        0750000Maucomble           0670000009550009550760501500100000000000193      000000                                                                                                                                 130000001         120000001         110000001         100000001         090128291 2218                                                                                                                                                   
760501500110014 00280 1110241ECH LES HAYONS      0650450ECH PUCHEUIL        0750000Maucomble           0670000009550009550760501500100000000000193      000000                                                                                                                                 130000001         120000001         110000001         100000001         090134441    8                                                                                                                                                   
760501400310014 00280 1810241ESCLAVELLES         0600000ECHANGEUR HAYONS    0650450Esclavelles         0630000005450005450760501500300000000000193      000000                                                                                                                                 130000008         120000008         110000008         100000008    0    090261228    0                                                                                                                                                   
760501400210014 00280 1810241ESCLAVELLES         0600000ECHANGEUR HAYONS    0650450Esclavelles         0630000005450005450760501500200000000000193      000000                                                                                                                                 130000008         120000008         110000008         100000008    0    090127458    0                                                                                                                                                   
760501400110014 00280 1810241ESCLAVELLES         0600000ECHANGEUR HAYONS    0650450Esclavelles         0630000005450005450760501500100000000000193      000000                                                                                                                                 130000008         120000008         110000008         100000008    0    090133778    0                                                                                                                                                   
760501300310014 00280 1810241NEUFCHATEL CD 928   0550000NEUFCHATEL          0600000NEUFCHATEL          0590700005000005000760501500300000000000288      000000                                                                                                                                 130000008         120000008         110000008         100241548         090223278                                                                                                                                                        
760501300210014 00280 1810241NEUFCHATEL CD 928   0550000NEUFCHATEL          0600000NEUFCHATEL          0590700005000005000760501500200000000000288      000000                                                                                                                                 130000008         120000008         110000008         100116158         090112568                                                                                                                                                        
760501300110014 00280 1810241NEUFCHATEL CD 928   0550000NEUFCHATEL          0600000NEUFCHATEL          0590700005000005000760501500100000000000193      000000                                                                                                                                 130000008         120000008         110000008         100125398         090110718                                                                                                                                                        
760501200310014 00280 1110241CALLENGEVILLE       0430900NEUFCHATEL NORD     0550000Callengeville       0450000011100011100760501500100000000000193      012345 2767    009065   009677   010376   012427   012326   014082   015693   018147   013087   012100   010530   010394               130119841         120121711 2707    110124391 2727    100121921 2657    090117991 2557    008276   009458   009790   012202   012479   013734   015464   017942   012692   011463   010247   009846                                      
760501200210014 00280 1110241CALLENGEVILLE       0430900NEUFCHATEL NORD     0550000Callengeville       0450000011100011100760501500100000000000193      006228 2807    004638   004896   005245   006226   006129   007032   007389   009486   006786   006186   005404   005207               130060531         120061531 2737    110062681 2737    100061531 2677    090059611 2587    004212   004815   004866   006239   006130   006915   007312   009353   006634   005881   005252   004932                                      
760501200110014 00280 1110241CALLENGEVILLE       0430900NEUFCHATEL NORD     0550000Callengeville       0450000011100011100760501500100000000000193      006117 2677    004427   004781   005131   006201   006197   007050   008304   008661   006301   005914   005126   005187               130059311         120060181 2647    110061711 2687    100060391 2607    090058381 2497    004064   004643   004924   005963   006349   006819   008152   008589   006058   005582   004995   004914                                      
760501100310014 00280 1810241DPT SOMME           0290000CALLENGEVILLE       0430900Fallencourt         0350000014900014900760501200300000000000193      013273                                                                                                                                 130128858         120130878         110133778         100131128    0    090126908    0                                                                                                                                                   
760501100210014 00280 1810241DPT SOMME           0290000CALLENGEVILLE       0430900Fallencourt         0350000014900014900760501200200000000000193      006629                                                                                                                                 130064438         120065508         110066738         100065518    0    090063478    0                                                                                                                                                   
760501100110014 00280 1810241DPT SOMME           0290000CALLENGEVILLE       0430900Fallencourt         0350000014900014900760501200100000000000193      006644                                                                                                                                 130064428         120065378         110067048         100065618    0    090063438    0                                                                                                                                                   
760500500310014 01310 1110241                    0300600                    0330393GONFREVILLE         0320850002793002793760501200100000000000409      043392         041216   041871   042499   044022   041771   045894   043993   039266   047009   047303   043418   042518               130419431         120424451    8    110426641 1127    100416811 1048    090407171    0    038951   040767   040284   043287   041769   044797   044917   039047   044085   044213   041519   039761                                      
760500500210014 01310 1110241                    0300600                    0330393GONFREVILLE         0320850002793002793760501200100000000000409      022522         021336   021651   022027   022956   021694   023769   023065   020289   024359   024526   022472   022153               130215671         120217491 1298    110219641 1157    100216611 1168    090211631    0    020045   020886   020590   022193   021445   022935   023369   020125   022575   022792   021340   020538                                      
760500500110014 01310 1110241                    0300600                    0330393GONFREVILLE         0320850002793002793760501200100000000000409      020870  917    019880   020220   020472   021066   020077   022125   020928   018977   022650   022777   020946   020365               130203761  967    120206961    8    110207001 1067    100200201    8    090195541    0    018906   019881   019694   021094   020324   021862   021548   018922   021510   021421   020179   019223                                      
760500401310014 01310 1810241                    0210936                    0300600Sandouville         0280600008664008664760500500300000000000409      020437                                                                                                                                 130197518         120199868         110200928         100185268         090187518                                                                                                                                                        
760500401210014 01310 1810241                    0210936                    0300600Sandouville         0280600008664008664760500500200000000000409      010851                                                                                                                                 130103918         120104798         110105838         100098038         090094918                                                                                                                                                        
760500401110014 01310 1810241                    0210936                    0300600Sandouville         0280600008664008664760500500100000000000409      009586                                                                                                                                 130093608         120095078         110095098         100087238         090092608                                                                                                                                                        
760500400310014 0131001810241                    0160000                    0210936Tancarville         0160000005936005936760500500300000000000409      018941                                                                                                                                 130183278         120185538         110186408         100181948    0    090177748    0                                                                                                                                                   
760500400210014 0131001810241                    0160000                    0210936Tancarville         0160000005936005936760500500200000000000409      008903                                                                                                                                 130085268         120085988         110086838         100085648    0    090083688    0                                                                                                                                                   
760500400110014 0131001810241                    0160000                    0210936Tancarville         0160000005936005936760500500100000000000409      010038                                                                                                                                 130098018         120099558         110099578         100096308    0    090094068    8                                                                                                                                                   
760500300310014 01500 1110241ROUMARE             0080880BARENTIN            0121143Roumare             0100700004263004263760500500100000000000288      000000                                                                                                                                 130345281    0    120332161    0    110329831    0    100339291    0    090326731    0                                                                                                                                                   
760500300210014 01500 1110241ROUMARE             0080880BARENTIN            0121143Roumare             0100700004263004263760500500100000000000288      000000                                                                                                                                 130169361    0    120164351    0    110162861    0    100166901    0    090162171    0                                                                                                                                                   
760500300110014 01500 1110241ROUMARE             0080880BARENTIN            0121143Roumare             0100700004263004263760500500100000000000288      000000                                                                                                                                 130175921    0    120167811    0    110166971    0    100172391    0    090164561    0                                                                                                                                                   
760500201310014 01500 1110241Ech la vaupaliere   0060320ech A 151           0080880St Jean de Cardonay 0060500002560002560760500500100000000000102      053807  977    052777   053635   055339   056240   054509   058391   055296   046808   053734   054612   052886   051631               130542301  957    120565021    0    110561041    0    100539991    0    090520081    0    049446   051917   051217   055093   054220   056877   056250   051746   057121   057450   055199   054234                                      
760500201210014 01500 1110241Ech la vaupaliere   0060320ech A 151           0080880St Jean de Cardonay 0060500002560002560760500500100000000000102      026500 1017    025820   026238   027156   027465   026685   028768   027257   023513   026833   026954   026085   025297               130265491  997    120283821    0    110281251    0    100271121    0    090263431    0    024284   025642   025173   027192   026708   027953   027449   024798   028015   028115   026877   026415                                      
760500201110014 01500 1110241Ech la vaupaliere   0060320ech A 151           0080880St Jean de Cardonay 0060500002560002560760500500100000000000102      027307  917    026957   027397   028183   028775   027824   029623   028039   023295   026901   027658   026801   026334               130276811  897    120281201    0    110279791    0    100268871    0    090256651    0    025162   026275   026044   027901   027512   028924   028801   026948   029106   029335   028322   027819                                      
760500200310014 01500 1110241Canteleu            0040000ech la vaupaliere   0060320La Vaupaliere       0040850002090002090760500500100000000000102      053410 1117    051916   052209   053961   054953   053023   056898   054954   052470   053724   054151   052064   050606               130530611 1217    120510401    7    110506821    7    100487781    7    090469691    7    048061   051231   050263   054392   053379   055170   055795   050444   055271   055891   053804                                               
760500200210014 01500 1110241Canteleu            0040000ech la vaupaliere   0060320La Vaupaliere       0040850002090002090760500500100000000000102      026103 1117    025278   025443   026312   026785   025951   027792   027051   025418   026448   026461   025513   024788               130257771 1217    120250141    7    110247871    7    100238941    7    090232161    7    023625   025104   024412   026569   025996   026557   027105   024056   026846   027223   026086                                               
760500200110014 01500 1110241Canteleu            0040000ech la vaupaliere   0060320La Vaupaliere       0040850002090002090760500500100000000000102      027307 1127    026638   026766   027649   028168   027072   029106   027903   027052   027276   027690   026551   025818               130272841 1227    120260261    7    110258951    7    100248841    7    090237531    7    024436   026127   025851   027823   027383   028613   028690   026388   028425   028668   027718                                               
760500100310014 01500 1110241ROUEN               0000000CANTELEU            0040000CANTELEU            0020600004230004230760500500100000000000288      062459  887    061066   061817   063822   064739   062252   066650   063795   056082   063527   064351   061928   059639               130620451  887    120598671    0    110594491    0    100572161    0    090563031    0    056953   060011   058923   063145   062019   064879   064295   058142   064839   065966   063574   061855                                      
760500100210014 01500 1110241ROUEN               0000000CANTELEU            0040000CANTELEU            0020600004230004230760500500100000000000288      030353  917    029605   029895   030930   031332   030275   032411   031215   027073   030972   031274   030249   029072               130299711  927    120291401    0    110288761    0    100278361    0    090270471    0    027557   029200   028575   030757   030092   031003   030926   027468   031308   032003   030758   030054                                      
760500100110014 01500 1110241ROUEN               0000000CANTELEU            0040000CANTELEU            0020600004230004230760500500100000000000288      032106  837    031461   031922   032892   033407   031977   034239   032580   029009   032555   033077   031679   030567               130320741  807    120307271    0    110305731    0    100293801    0    090292561    0    029396   030811   030348   032388   031927   033876   033369   030674   033531   033963   032816   031801                                      
760500039310014 00280 4140201ROUEN               0000000                    0011016Rouen St Hilaire    0010350002016002016760500500100000000000693      060117  537    056151   056098   056138   054084   055716   056522   049180   050426   072065   074190   071531   069357               130496051    0    120384301    0    110418021    0    100411361    0    090412811    0    045848   035635   039667   049510   053564   053536   053783   052270                     055800                                               
760500039210014 00280 4140201ROUEN               0000000                    0011016Rouen St Hilaire    0010350002016002016760500500100000000000693      027644  487    025218   025510   025466   024097   025423   024838   020706   022923   034293   035607   034259   033399               130219081    0    120181761    0    110199221    0    100197701    0    090198631    0    018558   014268   016671   021468   023576   023106   025793   024097                     025054                                               
760500039110014 00280 4140201ROUEN               0000000                    0011016Rouen St Hilaire    0010350002016002016760500500100000000000693      032473  627    030933   030588   030672   029987   030293   031684   028474   027503   037772   038583   037272   035958               130276971    0    120202541    0    110218801    0    100213661    0    090214181    0    027290   021367   022996   028042   029988   030430   027990   028173                     030746                                               
760500024310014 00280 4110201ech 2828            0060500fin d928 a28        0070848Bois Guillaume      0060680001348001348760500500100000000000102      029081  907    025972   026417   026856   028220   027938   028539   024211   027945   034051   034289   032620   031883               130270421  627    120319811    0    110347871    0    100341701    0    090342881    0    023289   024749   025373   027359   027694   029740   028750   027083   028260   028144   026926                                               
760500024210014 00280 4110201ech 2828            0060500fin d928 a28        0070848Bois Guillaume      0060680001348001348760500500100000000000102      013511  917    011934   012328   012612   013377   013269   012988   010894   012771   015791   016094   015297   014773               130127751  607    120150121    0    110164551    0    100146911    0    090147611    0    010647   011482   011861   013008   013314   014125   014383   013040   013132   013037   012419                                               
760500024110014 00280 4110201ech 2828            0060500fin d928 a28        0070848Bois Guillaume      0060680001348001348760500500100000000000102      015570  907    014038   014089   014244   014843   014669   015551   013317   015174   018260   018195   017323   017110               130142671  657    120169691    0    110183321    0    100194791    0    090195271    0    012642   013267   013512   014351   014380   015615   014367   014043   015128   015107   014507                                               
760500023310014 00280 4110201ech 443             0040950ech 2828            0060500Le Chapitre         0050000001063001063760500500100000000000102      038037  767             033244   033557   034600   034160   036204                     044285   044883   042465   041872               130315391    0    120419511    0    110456191    0    100448781    0    090450361    0                                                                                                                                                   
760500023210014 00280 4110201ech 443             0040950ech 2828            0060500Le Chapitre         0050000001063001063760500500100000000000102      020371  727             017320   017458   018019   017756   018782                     023182   023613   022494   022100               130141031    0    120189671    0    110207891    0    100206311    0    090207291    0                                                                                                                                                   
760500023110014 00280 4110201ech 443             0040950ech 2828            0060500Le Chapitre         0050000001063001063760500500100000000000102      017666  857             015924   016099   016581   016404   017422   014234   015522   021103   021270   019971   019772               130174361    0    120229841    0    110248301    0    100242471    0    090243071    0                                                                                                                                                   
760500021310014 00280 4140201                    0011016ech d443bg          0020000TCAR                0010950000184000184760500500100000000000693      035725  667    031833   032447   032743   029535   032894   032454   026542   031196   044889   046283   044355   043483               130319831  487    120384301    0    110418021    0    100411361    0    090412811    0    028385   030123   030712   032656   032561   034154   033193   031619   034259            032164                                               
760500021210014 00280 4140201                    0011016ech d443bg          0020000TCAR                0010950000184000184760500500100000000000693      016455  637    014382   014933   015079   012256   015200   014137   010522   014170   021604   022492   021508   021151               130149201  467    120181761    0    110199221    0    100197701    0    090198631    0    012709   013699   014137   015114   015219   015901   016209   015595   015906            014655                                               
760500021110014 00280 4140201                    0011016ech d443bg          0020000TCAR                0010950000184000184760500500100000000000693      019270  737    017451   017514   017664   017279   017694   018317   016020   017026   023285   023791   022847   022332               130170631  507    120202541    0    110218801    0    100213661    0    090214181    0    015676   016424   016575   017542   017342   018253   016984   016024   018353            017509                                               
760500001310014 00280 4140201ROUEN DARNETAL      0020000                    0040950Tunnel              0030900003437003437760500500100000000000693      032623  657    028532   029332   029463   029826   029731   031626   027659   028565   039578   040532   038611   037999               130288801  497    120384301    7    110418021 1047    100000001    0    090412811    0    025898   027395   028041   029308   029006   031348   030381   026315   030468   030513   029160   028735                                      
760500001210014 00280 4140201ROUEN DARNETAL      0020000                    0040950Tunnel              0030900003437003437760500500100000000000693      015237  577    012939   013411   013538   013859   013772   014645   013526   013074   018620   019177   018237   018011               130135151  417    120181761    7    110199221 1017    100197701 1227    090198631    0    011687   012487   012897   013666   013631   014720   014999   013292   014120   014071   013288   013278                                      
760500001110014 00280 4140201ROUEN DARNETAL      0020000                    0040950Tunnel              0030900003437003437760500500100000000000693      017386  787    015593   015921   015925   015967   015959   016981   014133   015491   020958   021355   020374   019988               130153651  637    120202541    7    110218801 1097    100213661 1157    090214181 1127    014211   014908   015144   015642   015375   016628   015382   013023   016348   016442   015872   015457                                      
760500000310014 01510 1110241PISSY POVILLE       0000000PISSY POVILLE       0060400PISSY POVILLE       0010300006400006400760500500100000000000288      022064 1357    021045   021713   022701   023323   022457   024707   024600   021466   022170   021720   020066   018833               130215671 1047    120199561    0    110198171    0    100190741    0    090183691    0    017860   019438   019297   021361   020872   022161   024484   023208   023160   023410   021846                                               
760500000210014 01510 1110241PISSY POVILLE       0000000PISSY POVILLE       0060400PISSY POVILLE       0010300006400006400760500500100000000000288      010645 1287    010090   010463   010929   011139   010721   011887   011931   010269   010769   010545   009800   009216               130098411  857    120098701    0    110097811    0    100094291    0    090091621    0    008000   008653   008500   009360   009190   009631   011422   010681   010842   011225   010666                                               
760500000110014 01510 1110241PISSY POVILLE       0000000PISSY POVILLE       0060400PISSY POVILLE       0010300006400006400760500500100000000000288      011419 1507    010955   011250   011772   012184   011736   012820   012669   011197   011401   011175   010266   009617               130117261 1357    120100861    0    110100361    0    100096451    0    090092071    0    009860   010785   010797   012001   011682   012530   013062   012527   012318   012185   011180                                               
760111110310014 01380 4110201                    0210000                    0220703Pont Guillaume      0220243001703001703760500500100000000000288      000000                                                                                                                                 130610391    0    120471571    0    110444421    0    100443891    0    090477361    0                                                                                                                                                   
760111110210014 01380 4110201                    0210000                    0220703Pont Guillaume      0220243001703001703760500500100000000000288      000000                                                                                                                                 130275291    0    120215901    7    110206401    7    100205651    7    090230141    0                                                                                                                                                   
760111110110014 01380 4110201                    0210000                    0220703Pont Guillaume      0220243001703001703760500500100000000000288      000000                                                                                                                                 130335101    0    120255671    0    110238021    0    100238241    0    090247221    0    032213   033353   033692   034421   034350   035725   033772   029202   034315   035591   033810   031798                                      
760008701310014 13380 1140131Rive Gauche         0080000Rive Droite         0090960Pt Flaubert         0080500001960001960760500500100000000000814      052900 1387    053227   047992   055485   057857   054250   058525   056557   048842   051603   051988   050078   048129               130000001    0    120000001    0    110000001    0    100000001    0    090000001    0                                                                                                                                                   
760008701210014 13380 1140131Rive Gauche         0080000Rive Droite         0090960Pt Flaubert         0080500001960001960760500500100000000000814      025779 1197    026543   025901   026904   027502   025998   027353   026013   023297   025511   025718   024812   023877               130000001         120000001         110000001         100000001         090000001                                                                                                                                                        
760008701110014 13380 1140131Rive Gauche         0080000Rive Droite         0090960Pt Flaubert         0080500001960001960760500500100000000000814      027121 1767    026684   022091   028581   030355   028252   031172   030544   025545   026092   026270   025266   024252               130000001    0    120000001    0    110000001    0    100000001    0    090000001    0                                                                                                                                                   
760008600310014 03380 4110101gd quevilly         0030500gd quevilly         0050850Bois Cany           0050600001500001500760500500100000000000301      067086  887    065350   066780   068400   070380   066766   070927   069701   063247   067837   068158   065424   062239               130669611  887    120722421    0    110000001    0    100366811    0    090000001    0    061488   065162   064590   068224   066956   070795   070628   064345   070145   070469   067159   063671                                      
760008600210014 03380 4110101gd quevilly         0030500gd quevilly         0050850Bois Cany           0050600001500001500760500500100000000000301      033355  867    032681   033416   034176   035424   033663   035980   035259   030713   033044   033374   032205   030441               130337411  877    120000001    0    110000001    0    100000001    0    090000001    0    030725   032764   032636   034453   033944   036470   035646   031544   035295   035652   033928   031910                                      
760008600110014 03380 4110101gd quevilly         0030500gd quevilly         0050850Bois Cany           0050600001500001500760500500100000000000301      033731  937    032669   033364   034224   034956   033103   034947   034442   032534   034793   034784   033219   031798               130332201  917    120000001    0    110000001    0    100000001    0    090000001    0    030763   032398   031954   033771   033012   034325   034982   032801   034850   034817   033231   031761                                      
760008500310014 03380 4110201PETIT COURONNE      0000000GRAND QUEVILLY      0030500CETE                0010800003500003500760500500100000000000388      072992 1007    072037   072128   074072   076704   072325   077812   075995   067642   072986   074086   070948   069289               130723171  977    120670291    8    110670011    7    100640271    0    090612961    7    066959   071208   070897   074960   073125   077220   076233   061996   072773   076654   073660                                               
760008500210014 03380 4110201PETIT COURONNE      0000000GRAND QUEVILLY      0030500CETE                0010800003500003500760500500100000000000388      037209 1027    036735   036969   037778   039254   037370   039950   039592   033955   036666   037420   035875   035011               130375661 1117    120345411    8    110341161    7    100317811    0    090314371    7    034279   036513   036275   038284   037461   040367   039492   034574   038738   039721   037578                                               
760008500110014 03380 4110201PETIT COURONNE      0000000GRAND QUEVILLY      0030500CETE                0010800003500003500760500500100000000000388      035783  967    035302   035159   036294   037450   034955   037862   036403   033687   036320   036666   035073   034278               130347511  687    120324881    8    110328851    7    100322461    7    090298591    7    032680   034695   034622   036676   035664   036853   036741   027422   034035   036933   036082                                               
760008400310014 02820 4815001a131                0000000RN 15               0020942gonfreville         0000400002942002942760500500300000000000102      019037                                                                                                                                 130184108         120186348         110187278         100182898         090198708                                                                                                                                                        
760008400210014 02820 4815001a131                0000000RN 15               0020942gonfreville         0000400002942002942760500500200000000000102      009466                                                                                                                                 130090658         120091428         110092338         100091068         090098758                                                                                                                                                        
760008400110014 02820 4815001a131                0000000RN 15               0020942gonfreville         0000400002942002942760500500100000000000102      009571                                                                                                                                 130093458         120094928         110094948         100091838         090099958                                                                                                                                                        
760008103310014 01820 4843001                    0180000                    0180596Harfleur            0180300000596000596          00000000000388      000000                                                                                                                                 130000008         120040118         110000008         100000008    0    090000008    0                                                                                                                                                   
760008103210014 01820 4843001                    0180000                    0180596Harfleur            0180300000596000596          00000000000388      000000                                                                                                                                 130000008         120000008         110000008         100000008    0    090000008    0                                                                                                                                                   
760008103110014 01820 4843001                    0180000                    0180596Harfleur            0180300000596000596          00000000000388      000000                                                                                                                                 130000008         120000008         110000008         100000008    0    090000008    0                                                                                                                                                   
760007800310014 01380 4810201PETIT COURONNE      0140800ST ETIENNE ROUVRAY  0150048ST ETIENNE ROUVRAY  0150000000248000248760007600300000000000288      033278                                                                                                                                 130372108         120293148         110317978         100308988         090000008                                                                                                                                                        
760007800210014 01380 4810201PETIT COURONNE      0140800ST ETIENNE ROUVRAY  0150048ST ETIENNE ROUVRAY  0150000000248000248760007600200000000000288      016623                                                                                                                                 130163478         120140018         110161588         100159978         090000008                                                                                                                                                        
760007800110014 01380 4810201PETIT COURONNE      0140800ST ETIENNE ROUVRAY  0150048ST ETIENNE ROUVRAY  0150000000248000248760007600100000000000288      016655                                                                                                                                 130208638         120153138         110156398         100149018         090000008                                                                                                                                                        
760007700310014 01380 4810601PETIT COURONNE      0120900PETIT COURONNE      0140800PETIT COURONNE      0130500001900001900760007600300000000000288      087161                                                                                                                                 130974588         120767748         110832768         100809208         090000008                                                                                                                                                        
760007700210014 01380 4810601PETIT COURONNE      0120900PETIT COURONNE      0140800PETIT COURONNE      0130500001900001900760007600200000000000288      043536                                                                                                                                 130428138         120366678         110423168         100418948         090000008                                                                                                                                                        
760007700110014 01380 4810601PETIT COURONNE      0120900PETIT COURONNE      0140800PETIT COURONNE      0130500001900001900760007600100000000000288      043625                                                                                                                                 130546458         120401078         110409608         100390268         090000008                                                                                                                                                        
760007600310014 01380 4110201GRAND COURONNE      0100064PETIT COURONNE      0120900Les Essarts         0110200002836002836760007600100000000000288      042531 1057    040206   040813            047056   044965   045290   043705   039363   043190   043033   040951   039317               130475551  917    120374621    7    110406341    7    100394841    7    090000001    0    037753   039852   040280   042974   069645   087841   044915   040492   045304   044355   038277   039013                                      
760007600210014 01380 4110201GRAND COURONNE      0100064PETIT COURONNE      0120900Les Essarts         0110200002836002836760007600100000000000288      021244 1047    020181   020658            022095   021973   023138   022678   019866   021470   021519   020458   019668               130208911  997    120178921    7    110206481    7    100204421    7    090000001    0    018967   020227   020565   021812   021493   021389   023624   020728   022422   022441   017476   019470                                      
760007600110014 01380 4110201GRAND COURONNE      0100064PETIT COURONNE      0120900Les Essarts         0110200002836002836760007600100000000000288      021287 1087    020025   020155            024961   022992   022152   021027   019497   021720   021514   020493   019649               130266641  787    120195701    7    110199861    7    100190421    7    090000001    0    018786   019625   019715   021162   048152   066452   021291   019764   022882   021914   020801   019543                                      
760007500310014 01380 4810201GD COURONNE         0090000GD COURONNE         0100064GD COURONNE         0090800001064001064760007600300000000000288      031035                                                                                                                                 130346528         120273238         110296598         100288278         090286758                                                                                                                                                        
760007500210014 01380 4810201GD COURONNE         0090000GD COURONNE         0100064GD COURONNE         0090800001064001064760007600200000000000288      015690                                                                                                                                 130154308         120132158         110152518         100150998         090147868                                                                                                                                                        
760007500110014 01380 4810201GD COURONNE         0090000GD COURONNE         0100064GD COURONNE         0090800001064001064760007600100000000000288      015345                                                                                                                                 130192228         120141088         110144088         100137288         090138898                                                                                                                                                        
760007100310014 00310 4843001GOURNAY EN BRAY     0490075FERRIERES EN BRAY   0510852FERRIERES EN BRAY   0500000002777000000760006700300000000000288      011097                                                                                                                                 130109328         120115298         110120878         100117368         090146218                                                                                                                                                        
760007100210014 00310 4843001GOURNAY EN BRAY     0490075FERRIERES EN BRAY   0510852FERRIERES EN BRAY   0500000002777000000760006700200000000000288      005440                                                                                                                                 130053668         120057238         110059878         100058078         090063648                                                                                                                                                        
760007100110014 00310 4843001GOURNAY EN BRAY     0490075FERRIERES EN BRAY   0510852FERRIERES EN BRAY   0500000002777000000760006700100000000000288      005657                                                                                                                                 130055668         120058068         110061008         100059298         090082578                                                                                                                                                        
760007000310014 00310 4843001GOURNAY EN BRAY     0480500GOURNAY EN BRAY     0490075GOURNAY Est         0480800000575000000760006700300000000000288      009621                                                                                                                                 130094778         120099928         110104768         100101728    0    090099858    0                                                                                                                                                   
760007000210014 00310 4843001GOURNAY EN BRAY     0480500GOURNAY EN BRAY     0490075GOURNAY Est         0480800000575000000760006700200000000000288      004619                                                                                                                                 130045568         120048598         110050838         100049308    0    090048378    0                                                                                                                                                   
760007000110014 00310 4843001GOURNAY EN BRAY     0480500GOURNAY EN BRAY     0490075GOURNAY Est         0480800000575000000760006700100000000000288      005002                                                                                                                                 130049218         120051338         110053938         100052428    0    090051488    0                                                                                                                                                   
760006900310014 00310 4843001GOURNAY EN BRAY     0470600GOURNAY EN BRAY     0480500GOURNAY Ouest       0480000000900000000760006700300000000000288      009876                                                                                                                                 130097288         120102598         110107568         100104448    0    090102528    0                                                                                                                                                   
760006900210014 00310 4843001GOURNAY EN BRAY     0470600GOURNAY EN BRAY     0480500GOURNAY Ouest       0480000000900000000760006700200000000000288      004817                                                                                                                                 130047518         120050678         110053018         100051428    0    090050458    0                                                                                                                                                   
760006900110014 00310 4843001GOURNAY EN BRAY     0470600GOURNAY EN BRAY     0480500GOURNAY Ouest       0480000000900000000760006700100000000000288      005059                                                                                                                                 130049778         120051928         110054558         100053028    0    090052078    0                                                                                                                                                   
760006800310014 00310 4843001GOURNAY EN BRAY     0460714GOURNAY EN BRAY     0470600St Aubin            0470000000986000000760006700300000000000288      012170                                                                                                                                 130119888         120126458         110132568         100128718    0    090126348    0                                                                                                                                                   
760006800210014 00310 4843001GOURNAY EN BRAY     0460714GOURNAY EN BRAY     0470600St Aubin            0470000000986000000760006700200000000000288      006076                                                                                                                                 130059938         120063928         110066878         100064868    0    090063648    0                                                                                                                                                   
760006800110014 00310 4843001GOURNAY EN BRAY     0460714GOURNAY EN BRAY     0470600St Aubin            0470000000986000000760006700100000000000288      006094                                                                                                                                 130059958         120062538         110065698         100063858    0    090062708    0                                                                                                                                                   
760006700310014 00310 4113001CD 921              0320100GOURNAY EN BRAY     0460714Gournay             0450500014614014614760006700100000000000288      005270 1317    004710   004937   005151   005467   005352   005514   005582                     005497   005353   005129               130051911 1327    120054751    8    110057391 1627    100055721    8    090054691    0    004318   004778   004842   005482   005194   005746   005655   005405   005495   005417   005108   004852                                      
760006700210014 00310 4113001CD 921              0320100GOURNAY EN BRAY     0460714Gournay             0450500014614014614760006700100000000000288      002624 1217    002330   002443   002545   002727   002672   002738   002811                     002733   002665   002571               130025881 1227    120027601    8    110028871 1547    100028001    8    090027471    0    002137   002373   002427   002725   002564   002890   002870   002688   002716   002699   002557   002410                                      
760006700110014 00310 4113001CD 921              0320100GOURNAY EN BRAY     0460714Gournay             0450500014614014614760006700100000000000288      002646 1517    002380   002494   002606   002740   002680   002776   002771                     002764   002688   002558               130026031 1517    120027151 1378    110028521 1807    100027721 1468    090027221    0    002181   002405   002415   002757   002630   002856   002785   002717   002779   002718   002551   002442                                      
760006601310014 00310 4813001CD13 /CD 85         0220000CD 921              0320100LA HAYE             0270400017500017500760006700300000000000288      004631                                                                                                                                 130045628         120048148         110050478         100049018         090050458                                                                                                                                                        
760006601210014 00310 4813001CD13 /CD 85         0220000CD 921              0320100LA HAYE             0270400017500017500760006700200000000000288      002336                                                                                                                                 130023048         120024588         110025728         100024958         090025838                                                                                                                                                        
760006601110014 00310 4813001CD13 /CD 85         0220000CD 921              0320100LA HAYE             0270400017500017500760006700100000000000288      002295                                                                                                                                 130022588         120023568         110024758         100024068         090024628                                                                                                                                                        
760006600310014 00310 4813001                    0140600                    0181293Martainville        0150000004693004693760006700300000000000288      005269                                                                                                                                 130051918         120054758         110057418         100055758    0    090054738    0                                                                                                                                                   
760006600210014 00310 4813001                    0140600                    0181293Martainville        0150000004693004693760006700200000000000288      002604                                                                                                                                 130025698         120027408         110028678         100027818    0    090027298    0                                                                                                                                                   
760006600110014 00310 4813001                    0140600                    0181293Martainville        0150000004693004693760006700100000000000288      002665                                                                                                                                 130026228         120027358         110028748         100027948    0    090027448    0                                                                                                                                                   
760006500310014 00310 4113001CD 7                0090938CD 13/ CD 85        0140600Préaux              0110000004662004662760006700100000000000288      000000                                                                                                                                 130077191    0    120081421    0    110085351    0    100082871    0    090081351    0                                                                                                                                                   
760006500210014 00310 4113001CD 7                0090938CD 13/ CD 85        0140600Préaux              0110000004662004662760006700100000000000288      000000                                                                                                                                 130038471    0    120041031    0    110042921    0    100041631    0    090040851    0                                                                                                                                                   
760006500110014 00310 4113001CD 7                0090938CD 13/ CD 85        0140600Préaux              0110000004662004662760006700100000000000288      000000                                                                                                                                 130038721    0    120040391    0    110042431    0    100041241    0    090040501    0                                                                                                                                                   
760006400310014 00310 4813001RD 43 St Jacques    0060520RD 7                0090938ST JACQUES          0080750003418003418760006700300000000000288      011817                                                                                                                                 130116418    0    120122808    0    110128728    0    100124988    0    090118908    0                                                                                                                                                   
760006400210014 00310 4813001RD 43 St Jacques    0060520RD 7                0090938ST JACQUES          0080750003418003418760006700200000000000288      005948                                                                                                                                 130058678    0    120062578    0    110065458    0    100063488    0    090060018    0                                                                                                                                                   
760006400110014 00310 4813001RD 43 St Jacques    0060520RD 7                0090938ST JACQUES          0080750003418003418760006700100000000000288      005869                                                                                                                                 130057748    0    120060238    0    110063278    0    100061508    0    090058898    0                                                                                                                                                   
760006300310014 00310 4143001DARNETAL            0020300RD43 St Jacques     0060520Darnétal            0030050004220004220760006700100000000000288      012688  767    011972   012093   012313   012675   012440   013262   012377   010980   013994   013937   013364   012865               130119391 8727    120130281    0    110136581    0    100136431    0    090133921    0    010981   011398   011568   012228   012136   012761   011993   010897   012639   012607   012136                                               
760006300210014 00310 4143001DARNETAL            0020300RD43 St Jacques     0060520Darnétal            0030050004220004220760006700100000000000288      005992  777    005639   005665   005756   006001   005872   006236   005929   005222   006608   006611   006276   006090               130056471 9057    120062551    0    110065431    0    100065711    0    090064471    0    005237   005393   005508   005794   005740   006071   005783   005136   005886   005921   005655                                               
760006300110014 00310 4143001DARNETAL            0020300RD43 St Jacques     0060520Darnétal            0030050004220004220760006700100000000000288      006696  757    006333   006428   006557   006674   006568   007026   006448   005758   007386   007326   007088   006775               130062921 8137    120067731    0    110071151    0    100070721    0    090069451    0    005744   006005   006060   006434   006396   006690   006210   005761   006753   006686   006481                                               
760006200310014 00310 4840201DARNETAL            0020050DARNETAL            0020300Darnetal centre     0020100000250000250760006700300000000000227      031056                                                                                                                                 130305928         120322668         110338238         100328408         090322348                                                                                                                                                        
760006200210014 00310 4840201DARNETAL            0020050DARNETAL            0020300Darnetal centre     0020100000250000250760006700200000000000227      015434                                                                                                                                 130152238         120162358         110169838         100164728         090161618                                                                                                                                                        
760006200110014 00310 4840201DARNETAL            0020050DARNETAL            0020300Darnetal centre     0020100000250000250760006700100000000000227      015622                                                                                                                                 130153698         120160318         110168408         100163688         090160738                                                                                                                                                        
760006101310014 00310 4840201DARNETAL            0010780DARNETAL            0020050DARNETAL OUEST      0010800000270000270760006700300000000000288      031056                                                                                                                                 130305928         120322668         110338238         100328408    0    090322348    0                                                                                                                                                   
760006101210014 00310 4840201DARNETAL            0010780DARNETAL            0020050DARNETAL OUEST      0010800000270000270760006700200000000000288      015434                                                                                                                                 130152238         120162358         110169838         100164728    0    090161618    0                                                                                                                                                   
760006101110014 00310 4840201DARNETAL            0010780DARNETAL            0020050DARNETAL OUEST      0010800000270000270760006700100000000000288      015622                                                                                                                                 130153698         120160318         110168408         100163688    0    090160738    0                                                                                                                                                   
760006100310014 00310 4140201DARNETAL            0000000DARNETAL            0010780Route de Lyons      0010000001780001780760006700100000000000288      030410  557    029976   030033   030128   030638   029777   030949   028388   024854   032911   033482   032498   031423               130306401    0    120323161    0    110338761    0    100328921    0    090322851    0                                                                                                                                                   
760006100210014 00310 4140201DARNETAL            0000000DARNETAL            0010780Route de Lyons      0010000001780001780760006700100000000000288      015416  587    014886   014908   014999   015692   014914   015589   014620   012461   016924   017250   016683   016126               130152231    0    120162351    0    110169831    0    100164721    0    090161611    0                                                                                                                                                   
760006100110014 00310 4140201DARNETAL            0000000DARNETAL            0010780Route de Lyons      0010000001780001780760006700100000000000288      014994  497    015090   015125   015129   014946   014863   015360   013768   012393   015987   016232   015815   015297               130154171    0    120160811    0    110168931    0    100164201    0    090161241    0                                                                                                                                                   
760003900310014 00270 4840201CD 915              0470479DIEPPE              0490200ST AUBIN SUR SCIE   0470800001721000000760003700300000000000288      030224                                                                                                                                 130291838         120291028         110298468         100292118         090284758                                                                                                                                                        
760003900210014 00270 4840201CD 915              0470479DIEPPE              0490200ST AUBIN SUR SCIE   0470800001721000000760003700200000000000288      015036                                                                                                                                 130145918         120145068         110149118         100145728         090142278                                                                                                                                                        
760003900110014 00270 4840201CD 915              0470479DIEPPE              0490200ST AUBIN SUR SCIE   0470800001721000000760003700100000000000288      015188                                                                                                                                 130145928         120145968         110149358         100146398         090142488                                                                                                                                                        
760003803310014 00270 4815001rd 54 st aubin      0440570RD 915              0470479st aubin s scie nord0460000002909002000760003700300000000000102      012266                                                                                                                                 130118428         120118118         110121128         100118568         090115588                                                                                                                                                        
760003803210014 00270 4815001rd 54 st aubin      0440570RD 915              0470479st aubin s scie nord0460000002909002000760003700200000000000102      005866                                                                                                                                 130056938         120056608         110058188         100056868         090055528                                                                                                                                                        
760003803110014 00270 4815001rd 54 st aubin      0440570RD 915              0470479st aubin s scie nord0460000002909002000760003700100000000000102      006400                                                                                                                                 130061498         120061518         110062948         100061708         090060068                                                                                                                                                        
760003802310014 00270 4815001ech d108            0390343d54 st aubin s scie 0440570st aubin s scie sud 0410000005227004000760003700300000000000102      013466                                                                                                                                 130130038         120129678         110132998         100130168         090126898                                                                                                                                                        
760003802210014 00270 4815001ech d108            0390343d54 st aubin s scie 0440570st aubin s scie sud 0410000005227004000760003700200000000000102      006699                                                                                                                                 130065018         120064638         110066448         100064938         090063408                                                                                                                                                        
760003802110014 00270 4815001ech d108            0390343d54 st aubin s scie 0440570st aubin s scie sud 0410000005227004000760003700100000000000102      006767                                                                                                                                 130065028         120065048         110066558         100065238         090063498                                                                                                                                                        
760003801310014 00270 4810201ech d149 belmesnil  0340200ech d108 auppegard  0390343manehouville        0380600005143005143760003700300000000000102      014651                                                                                                                                 130141468         120141088         110144698         100141628         090138058                                                                                                                                                        
760003801210014 00270 4810201ech d149 belmesnil  0340200ech d108 auppegard  0390343manehouville        0380600005143005143760003700200000000000102      007154                                                                                                                                 130069438         120069038         110070968         100069358         090067718                                                                                                                                                        
760003801110014 00270 4810201ech d149 belmesnil  0340200ech d108 auppegard  0390343manehouville        0380600005143005143760003700100000000000102      007497                                                                                                                                 130072038         120072058         110073738         100072278         090070348                                                                                                                                                        
760003800310014 00270 4810201ech d353            0270300ech d149 belmesnil  0340200belmesnil           0330200006900006900760003700300000000000102      013543                                                                                                                                 130130778         120130418         110133758         100130918         090127628                                                                                                                                                        
760003800210014 00270 4810201ech d353            0270300ech d149 belmesnil  0340200belmesnil           0330200006900006900760003700200000000000102      006738                                                                                                                                 130065398         120065018         110066838         100065318         090063778                                                                                                                                                        
760003800110014 00270 4810201ech d353            0270300ech d149 belmesnil  0340200belmesnil           0330200006900006900760003700100000000000102      006805                                                                                                                                 130065388         120065408         110066928         100065608         090063858                                                                                                                                                        
760003700310014 00270 4110201TOTES               0240254ech rd353           0270300TOTES               0250500003046003046760003700100000000000288      016413  757    014774   015407   016330   016524   016459   017751   017232   016191   017650   016721   016552   015365               130158471  887    120158031    7    110162061    7    100158611    7    090154611    7    013392   014699   014621   016430   016129   017188   017726   016572   016492   016301   015748   014832                                      
760003700210014 00270 4110201TOTES               0240254ech rd353           0270300TOTES               0250500003046003046760003700100000000000288      008107  707    007361   007658   008098   008193   008133   008851   008587   008007   008428   008122   008215   007632               130078671  807    120078211    7    110080391    7    100078561    7    090076701    7    006742   007316   007239   008173   008001   008533   008800   008124   008179   008076   007811   007390                                      
760003700110014 00270 4110201TOTES               0240254ech rd353           0270300TOTES               0250500003046003046760003700100000000000288      008306  857    007413   007749   008232   008331   008326   008900   008645   008184   009222   008599   008337   007733               130079801 1037    120079821 1007    110081671    7    100080051    7    090077911    7    006650   007383   007382   008257   008128   008655   008926   008448   008313   008225   007937   007442                                      
760003601310014 00270 4810201rd2                 0190042totes nord          0240254totes sud           0210000005196005196760003700300000000000192      015368                                                                                                                                 130148368         120147978         110151748         100148538         090144798                                                                                                                                                        
760003601210014 00270 4810201rd2                 0190042totes nord          0240254totes sud           0210000005196005196760003700200000000000192      007270                                                                                                                                 130070558         120070148         110072108         100070468         090068808                                                                                                                                                        
760003601110014 00270 4810201rd2                 0190042totes nord          0240254totes sud           0210000005196005196760003700100000000000192      008098                                                                                                                                 130077818         120077838         110079648         100078078         090075998                                                                                                                                                        
760003600310014 00270 4810201                    0190000                    0190042Varneville-Brettevil0190000000042000042760003700300000000000192      015622                                                                                                                                 130150818         120150428         110154258         100132968    0    090129618    0                                                                                                                                                   
760003600210014 00270 4810201                    0190000                    0190042Varneville-Brettevil0190000000042000042760003700200000000000192      007399                                                                                                                                 130071808         120071398         110073388         100066338    0    090064768    0                                                                                                                                                   
760003600110014 00270 4810201                    0190000                    0190042Varneville-Brettevil0190000000042000042760003700100000000000192      008223                                                                                                                                 130079018         120079038         110080878         100066638    0    090064858    0                                                                                                                                                   
610000600310014 00120 4113001FIN DEVIATION       0720070LIMITE MAYENNE      0840911Alençon             0790440012668009551760003700100000000000188      008648 2127    007325   007765   008023   009145   008736   009322   009628   009771   009336            007940   008090               130086891    0    120086861 2207    110090981 2147    100089281 2107    090000001    0    007440   008020   008453   008695   009025   009029   009434   009681   009131   008872   008324   008114                                      
610000600210014 00120 4113001FIN DEVIATION       0720070LIMITE MAYENNE      0840911Alençon             0790440012668009551760003700100000000000188      004275 2057    003664   003834   003989   004445   004289   004643   004616   004898   004653            003994   003974               130043181    0    120043131 2127    110045091 2067    100044291 2017    090000001    0    003699   003981   004166   004350   004557   004438   004554   004810   004683   004314   004240   004005                                      
610000600110014 00120 4113001FIN DEVIATION       0720070LIMITE MAYENNE      0840911Alençon             0790440012668009551760003700100000000000188      004373 2247    003661   003931   004034   004700   004447   004679   005012   004873   004683            003946   004116               130043711    0    120043731 2347    110045891 2317    100044991 2277    090000001    0    003741   004039   004287   004345   004468   004591   004880   004871   004448   004558   004084   004109                                      
610000502310014 00120 4813001RN 138              0630300FIN DEVIAT.ALENCON  0720070DEVIATION ALENCON   0680020007836007836610000600300000000000188      008678                                                                                                                                 130087218         120087188         110091328         100089638         090000008                                                                                                                                                        
610000502210014 00120 4813001RN 138              0630300FIN DEVIAT.ALENCON  0720070DEVIATION ALENCON   0680020007836007836610000600200000000000188      004361                                                                                                                                 130044058         120044008         110046008         100045198         090000008                                                                                                                                                        
610000502110014 00120 4813001RN 138              0630300FIN DEVIAT.ALENCON  0720070DEVIATION ALENCON   0680020007836007836610000600100000000000188      004317                                                                                                                                 130043168         120043188         110045328         100044448         090000008                                                                                                                                                        
610000501310014 00120 4113001ENTREE DEVIATION    0610620R.N. 138            0630300VALFRAMBERT         0620100001680001680610000600100000000000294      010118 2297    008744   009352   009523   010094   010669   010795   010419   010433   011732   010698   009527   009416               130102751         120102691    7    110099731 1837    100101781         090000001         009107   009319   010153   010465   010735   010732   011254   011259   010685   010523   009855   009139                                      
610000501210014 00120 4113001ENTREE DEVIATION    0610620R.N. 138            0630300VALFRAMBERT         0620100001680001680610000600100000000000294      005440 2187    004720   005058   005132   005182   005493   005955   005918   005629   006170   005746   005222   005044               130053791         120053751    7    110053101 1817    100053811         090000001         004783   004886   005266   005458   005616   005619   005934   005910   005583   005430   005161   004869                                      
610000501110014 00120 4113001ENTREE DEVIATION    0610620R.N. 138            0630300VALFRAMBERT         0620100001680001680610000600100000000000294      004678 2557    004024   004294   004391   004912   005176   004840   004501   004804   005562   004952   004305   004372               130048961         120048941    7    110046631 1877    100047971         090000001         004324   004433   004887   005007   005119   005113   005320   005349   005102   005093   004694   004270                                      
610000400310014 00120 4113001R.D. 4 A            0430019R.D. 112            0610620Ventes de Bourse    0480300018601018025610000600100000000000192      000000                                                                                                                                 130000001         120098251 2147    110100391 2067    100000001    0    090000001    0                                                                                                                                                   
610000400210014 00120 4113001R.D. 4 A            0430019R.D. 112            0610620Ventes de Bourse    0480300018601018025610000600100000000000192      000000                                                                                                                                 130000001         120048831 2157    110049871 2077    100000001    0    090000001    0                                                                                                                                                   
610000400110014 00120 4113001R.D. 4 A            0430019R.D. 112            0610620Ventes de Bourse    0480300018601018025610000600100000000000192      000000                                                                                                                                 130000001         120049421 2117    110050521 2037    100000001    0    090000001    0                                                                                                                                                   
610000300310014 00120 4113001RD 912              0270548RD 4A               0430019LECHATEL            0270800013572012518610000600100000000000100      000000                                                                                                                                 130000001    0    120075011    0    110000001    0    100000001    0    090000001    0                                                                                                                                                   
610000300210014 00120 4113001RD 912              0270548RD 4A               0430019LECHATEL            0270800013572012518610000600100000000000100      000000                                                                                                                                 130000001    0    120037421    0    110000001    0    100000001    0    090000001    0                                                                                                                                                   
610000300110014 00120 4113001RD 912              0270548RD 4A               0430019LECHATEL            0270800013572012518610000600100000000000100      000000                                                                                                                                 130000001    0    120037591    0    110047951    0    100000001    0    090000001    0                                                                                                                                                   
610000200310014 00120 4813001DEVIATION MORTAGNE  0230262R.D. 912            0270548ST HILAIRE T        0250430004286004286610000100300000000000194      000000                                                                                                                                 130081028    0    120080718    0    110083628    0    100079248    0    090000008    0                                                                                                                                                   
610000200210014 00120 4813001DEVIATION MORTAGNE  0230262R.D. 912            0270548ST HILAIRE T        0250430004286004286610000100200000000000194      000000                                                                                                                                 130040698    0    120040188    0    110041838    0    100039788    0    090000008    0                                                                                                                                                   
