900001300310014 10190 4110701Ech. Morvillars     0140622Frontière           0201200SRDT FECHE_EGLISE   0180600006578006578          00000000000515      007579 0577             007380   007476   007902   007508   007919   007107   006167   008160   008384   007879   007514               130000001    0    120000001    0    110000001    0    100000001    0    090000001    0                                                                                                                                                   
900001000310014 10190 4113001Début (limite dépt 70000000Ech. Sévenans (A36) 0050454SRDT DORANS         0040900005497005497          00000000000515      000000    0                                                                                                                            130000001    0    120153361    0    110150881 1837    100140961 1877    090143041 1937                                                                                                                                                   
900000300310014 10190 4113001Ech. Sévenans (A36) 0050454Ech. Morvillars     0140622SRDT BOUROGNE       0110600009103009103          00000000000515      011544 0897    011883   012013   012482   012999   012565   013246   009085   004779   012803   012934   011547   012383               130000001    0    120000001    0    110000001    0    100000001    0    090000001    0                                                                                                                                                   
880003210310014 20660 4813001Début viaduc du Séch0370000Fin viaduc du Séchen0370688Séchenat            0370500000688000688          00000000000515      000000    0                                                                                                                            130000008    0    120000008    0    110000008    0    100000008    0    090000008    0                                                                                                                                                   
880003200310014 00660 4815001Bussang (inter D89) 0350417Limite dépt 68      0380520Bussang Est         0350700003166002815680000700368000070030187      000000    0                                                                                                                            130000008    0    120000008    0    110000008    0    100000008    0    090000008    0                                                                                                                                                   
880003100310014 00660 4813001Saint-Maurice (inter0300618Busanng (inter D89) 0350417Bussang Ouest       0320000004752002073680000700300000000000515      000000    0                                                                                                                            130000008    0    120000008    0    110000008    0    100000008    0    090000008    0                                                                                                                                                   
880003000310014 00660 4813001Fin voie expresse (S0180250Saint-Maurice (inter0300618La Hardoye          0300000012407007157680000700300000000000515      000000    0                                                                                                                            130000008    0    120000008    0    110000008    0    100000008    0    090000008    0                                                                                                                                                   
880002900310014 00660 4110701Ech. Accrues Noël   0020957Fin voie expresse (S0180250SRDT LEPANGE        0080300021720016034680000700300000000000515      007838 1137    007420   007668   007796   008190   007822   008453   007658   007841   008088   008134   007518   007486               130000001    0    120000001    0    110108611    7    100000001    0    090000001    0                                                                                                                                                   
880002800310014 00660 3810201Ech. Moulin (N57)   0000000Ech. Accrues Noël   0020957                    0010000002959002959880002900300000000000515      000000    0                                                                                                                            130000008    0    120000008    0    110000008    0    100000008    0    090000008    0                                                                                                                                                   
880002400310014 01590 4113001Début (N59)         0000000Fin (concession TML)0030775SRDT BERTRIMOUTIERS 0010130003823003823880002900300000000000515      000000    0                                                                                                                            130000001    0    120000001    0    110000001    0    100000001    0    090000001    0                                                                                                                                                   
880002200310014 00590 4815001Ech. Fin 2x2        0240753Fin (éch. N159)     0280032Remomeix            0260100003263003263          00000000000515      000000    0                                                                                                                            130000008    0    120069888    0    110069858    0    100068278    0    090067858    0                                                                                                                                                   
880002110310014 00590 3810201Ech. D415           0230110Ech. Fin 2x2        0240753Saint-Dié Sud       0240000001643001643880002100300000000000515      004902    0                                                                                                                            130044508    0    120044338    0    110000008    0    100000008    0    090044028    0                                                                                                                                                   
880002100310014 00590 3110201Ech. D85            0140876Ech. D415           0230110SRDT ST_DIE         0210300009038009038880002100300000000000515      016223 1157    014008   015049   015543   016681   016287   017379   017217   017130   016923   016770   015238   016377               130147251    0    120146681    0    110000001    0    100000001    0    090145651    0                                                                                                                                                   
880002000310014 00590 3110201Ech. D32            0120163Ech. D85            0140876SRDT LA_PECHERIE    0140100009038009038880002100300000000000515      000000    0                                                                                                                            130263591    0    120262561    0    110265531    7    100261001    7    090260711    7             024881   025736   026136   026430   027641   028058            026441   027264                                                        
880001900310014 00590 3110201Ech. D259           0040033Ech. D32            0120163SRDT ETIVAL         0070100007766007766880002100300000000000515      014587 1077    013037   013897   014094   014766   014587   015512   015046   014767   015148   015142   014164   014859               130142781 1127    120000001    0    110000001    0    100123921 1317    090125321 1357    011772   013249   013848   014483   014416   015130   015330   014852   014854   014794   013730   014820                                      
880001510310014 00590 3810201Limite Dépt 54      0000000Ech. D259           0040033N59 - dév. de Raon-l0030880003418003418880001900354000580030515      000000    0                                                                                                                            130000008    0    120000008    0    110000008    0    100000008    0    090000008    0                                                                                                                                                   
880001400310014 00570 4813001Ech. Plombières     0640788Limite Dépt 70      0720268Plombières Sud      0650000006870006870880001300370000100030515      000000    0                                                                                                                            130000008    0    120000008    0    110000008    0    100000008    0    090104128    0                                                                                                                                                   
880001300310014 00570 3113001Ech. Le Baccu       0560883Ech. Plombières     0640788SRDT OLICHAMP       0590000007903007903880001300300000000000515      011419 2107    009657   010452   010956   011754   011274   012331   012612   012604   011968   011835   010737   010796               130000001    0    120000001    0    110112001    0    100112521 2117    090000001    0                                                                                                                                                   
880001200310014 00570 3810201Ech. Moulin (N66)   0550090Ech. Le Baccu       0560883Saint Nabord Sud    0560000001802001802880001300300000000000515      000000    0                                                                                                                            130000008    0    120000008    0    110000008    0    100000008    0    090144028    0                                                                                                                                                   
880001100310014 00570 3810201Ech. Peuxy          0500717Ech. Moulin (N66)   0550090Saint Nabord        0520000004412004412880001010300000000000515      029028    0                                                                                                                            130000008    0    120000008    0    110000008    0    100000008    0    090294838    0                                                                                                                                                   
880001010310014 00570 3110201Ech. Pouxeux        0450351Ech. Peuxy          0500717SRDT POUXEUX        0480100005379005379880001010300000000000515      025625 1397    023549   025012   025320   026937   025092   027297   026800   025360   026804   026624   024515   024230               130000001    0    120000001    0    110000001    0    100000001    0    090260261    0                                                                                                                                                   
880000900310014 00570 3810201Ech. Arches         0400572Ech. Pouxeux        0450351                    0430000004777004777880001010300000000000515      000000    0                                                                                                                            130000008    0    120000008    0    110000008    0    100000008    0    090000008    0                                                                                                                                                   
880000740310014 00570 3110201Ech. Razimont       0330426Ech. Arches         0400572SRDT DEV_EPINAL     0340340007157007157880001010300000000000515      022073 1437    023922   016191   026008   027169   025237   027574   026827   024998   026051   015640   012417   012435               130000001    0    120252751    0    110255631 1567    100254341 1467    090249011 1427                                                                                                                                                   
880000730310014 00570 3810201Ech. Parc expos     0310988Ech. Razimont       0330426Failloux            0330000001439001439880000740300000000000515      022998    0                                                                                                                            130266838    0    120263358    0    110266368    0    100000008    0    090259478    0                                                                                                                                                   
880000720310014 00570 3810201Ech. Jeuxey         0300876Ech. Parc expos     0310988Les Grandes Terres  0310300001113001113880000740300000000000515      031497    0                                                                                                                            130365428    0    120360678    0    110364788    0    100000008    0    090355348    0                                                                                                                                                   
880000710310014 00570 3810201Ech. Chavelot       0260155Ech. Jeuxey         0300876Les Neuf Lieux      0280000004729004729880000740300000000000515      028827    0                                                                                                                            130334458    0    120330098    0    110333868    0    100000008    0    090325228    0                                                                                                                                                   
880000600310014 00570 3110201Ech. Igney          0200297Ech. Chavelot       0260155SRDT CHAVELOT       0240300005894005894880000740300000000000515      031372 1167    030110   032220   032235   033918   030068   034319   033343   020948   033588   033681   031446   030924               130317991 1197    120320631    0    110322101 1227    100000001    0    090309211    0    028841   031044   031674   032287   031088   033290   033126   030390   033114   033162                                                        
880000200310014 00570 3810201Ech. Châtel-sur-Mose0140844Ech. Igney          0200297Dév. Nomexy         0150350005492005492880000100300000000000515      026922    0                                                                                                                            130258758    0    120260908    0    110000008    0    100000008    0    090251618    0                                                                                                                                                   
880000100310014 00570 3110201Limite Dépt 54      0000000Ech. Châtel-sur-Mose0140844SRDT CHARMES        0060400014882014882880000100354000550030515      021467 1567    019329   021166   021530   022148   020799   023335   022549   021381   022398   022323   020703   020003               130000001    0    120000001    0    110000001    0    100216261 1507    090000001    0                                                                                                                                                   
700001700310014 00570 4813001Ech. Rioz           0690253Limite Dépt 25      0810690Rioz                0720000012517012517700001600325000010030193      011604    0                                                                                                                            130110028    0    120112818    0    110114278    0    100000008    0    090111388    0                                                                                                                                                   
700001600310014 00570 4113001Giratoire D457      0510700Ech. Rioz           0690253SRDT LA_MALACHERE   0680000017407017103700001600300000000000515      010690 1377    009685   010110   010619   010939   010696   011384   010973   010686   011402   011316   010433   010020               130101351    0    120103921    0    110105261 1497    100103031 1457    090102591 1387    009069   009514   010209   010531   010543   010818   009547   010462   010742   010866            009173                                      
700001399310014 00570 4853001Inter N19           0450000Giratoire D457      0510700                    0500000007201000000          00000000000515      000000    0                                                                                                                            130000008    0    120000008    0    110000008    0    100000008    0    090000008    0                                                                                                                                                   
700001301310014 00570 4813001Saulx (inter D14)   0320600Inter N19           0440529Comberjon           0430000011728011000700001300300000000000515      011937    0                                                                                                                            130117578    0    120118988    0    110141768    0    100000008    0    090127248    0                                                                                                                                                   
700001300310014 00570 4113001Fin dév. Luxeuil (gi0180950Saulx (inter D14)   0320600SRDT PONT_JOLY      0290600013906013498700001300300000000000515      008062 1907    007067   007381   007911   008213   008045   008571   008716   008848   008513   008460   007665   007308               130079401 2037    120080351    0    110095731 1577    100083371 1697    090085921    0    006762   007170   007611   008084   008078   008509   008973   008610   008371   008248   007945   006877                                      
700001200310014 00570 4813001Ech. Zouzette       0150610Fin dév. Luxeuil (gi0180950Saint-Sauveur       0180000003672003672          00000000000515      000000    0                                                                                                                            130000008    0    120000008    0    110000008    0    100000008    0    090000008    0                                                                                                                                                   
700001100310014 00570 4810201Ech. de la Motte    0090183Ech. Zouzette       0150610Luxeuil             0140000002112001762          00000000000515      000000    0                                                                                                                            130000008    0    120000008    0    110000008    0    100000008    0    090000008    0                                                                                                                                                   
700001000310014 00570 4813001Limite Dépt 88      0000000Ech. de la Motte    0090183Fougerolles         0080000009182009182880001300388000140030515      000000    0                                                                                                                            130000008    0    120000008    0    110000008    0    100000008    0    090000008    0                                                                                                                                                   
700000901310014 00190 4813001Frahier (inter D16) 0920900Fin (D19)           0980343Frahier             0940000005386002550700000800300000000000515      007928    0                                                                                                                            130073008    0    120000008    0    110000008    0    100000008    0    090085598    0                                                                                                                                                   
700000900310014 00190 4813001Romchamp (inter D4) 0840300Frahier (inter D16) 0920900Ronchamp            0860000008568005206700000800300000000000515      005332    0                                                                                                                            130049108    0    120000008    0    110000008    0    100000008    0    090057578    0                                                                                                                                                   
700000801310014 00190 4813001Ech. Dév. Lure      0740382Romchamp (inter D4) 0840300Roye                0750300010291004349700000800300000000000515      000000    0                                                                                                                            130000008    0    120000008    0    110000008    0    100000008    0    090000008    0                                                                                                                                                   
700000800310014 00190 4110201Giratoire Lure (D64)0690000Ech. Dév. Lure      0740382SRDT LURE           0730500005329005329700000800300000000000515      015418 1747    013543            014917   015872   015446   016502   016310   014393   016170   016441   015264   014814               130141961    0    120000001    0    110000001    0    100000001    0    090166441    0    012488   013060   012641   014704   014805   015719   012981   014315   015543   015810   015351   012974                                      
700000601310014 00190 4813001Ech. D919           0450161Giratoire Lure (D64)0681452Bouhans-lès-Lure    0670000024144021780700000800300000000000515      008248    0                                                                                                                            130075958    0    120000008    0    110000008    0    100000008    0    090089058    0                                                                                                                                                   
700000600310014 00190 4853001Ech. Frotey-lès-Veso0430138Ech. D919           0450161Frotey-lès-vesoul   0440000002050000000700000400300000000000515      000000    0                                                                                                                            130000008    0    120149678    0    110000008    0    100000008    0    090000008    0                                                                                                                                                   
700000500310014 00190 4815001VESOUL              0410600Ech. Frotey-lès-Veso0430138Vesoul              0430000001544000000700000400300000000000515      000000    0                                                                                                                            130000008    0    120294098    0    110000008    0    100000008    0    090000008    0                                                                                                                                                   
700000400310014 00190 4153001Ech. Zone de l'Oasi 0391028VESOUL              0410600SRDT LA_VAUGINE     0400200001702000000700000400300000000000515      000000    0                                                                                                                            130000001    0    120312741    0    110333161 1227    100000001    0    090000001    0                                                                                                                                                   
700000301310014 00190 4810201Ech. Charmoille     0360047Ech. Zone de l'Oasi 0391028Pusey               0380000003975003975700000400300000000000515      000000    0                                                                                                                            130000008    0    120234008    0    110000008    0    100000008    0    090000008    0                                                                                                                                                   
700000300310014 00190 4813001PORT S /SAONE       0310100Ech. Charmoille     0360047Port-sur-Saône      0330000004949004649520001300300000000000515      000000    0                                                                                                                            130175838    0    120158838    0    110000008    0    100000008    0    090000008    0                                                                                                                                                   
700000200310014 00190 4813001Combeaufontaine (int0170981PORT S/ SAONE       0310100Port-sur-Saône      0290000013036010287520001300300000000000515      000000    0                                                                                                                            130082748    0    120074748    0    110093428    0    100000008    0    090092338    0                                                                                                                                                   
700000100310014 00190 4813001Limite Dépt 52      0000000Combeaufontaine (int0170981Gourgeon            0120000017916016360520001300352000140030515      000000    0                                                                                                                            130000008    0    120000008    0    110000008    0    100000008    0    090000008    0                                                                                                                                                   
680501900310014 00350 1150231Limite N83 (Houssen)0590000Ech. Colmar Nord ZI 0630405SRDT THEINHEIMER    0610390003596003596520001300300000000000515      040025 1877    035069   037101   038516   040321   039273   043025   044038   042692   041012   041337   037629   040061               130392671 1957    120392491    0    110383721 1987    100261501 1797    090350001    0    033321   035957   037709   039521   039568   042182   044806   041511   040634   040179   036487   039065                                      
680501800310014 00350 1150231Ech. Colmar Nord ZI 0630405Ech. Colmar Sud     0660600SRDT HORBOURG       0640884003202003202520001300300000000000515      050217 1537    047523   049917   052285   053239   052036   056714   053105   051326   052230   032253            052099               130521711 1677    120515271    0    110523831 1777    100489121 1787    090464911 1707    044920   047843   050309   052418   052205   055455   058498   054389   054139   054320   049975   051266                                      
680501700310014 00350 1110241Ech. Colmar Sud     0660600Ech. Colmar centre  0690158SRDT DACHSBUHL      0670547002560002560520001300300000000000515      041791 1977    037707   040037   042033   042927   041941   042576   038572   043044   044530   044822   040925   042337               130419381 1937    120412761    0    110422211 2037    100396331 2077    090388421 2017    035627   038522   040389   042143   041785   044598   047350   044087   043560   043837   040020   041096                                      
680501600310014 00350 1110241Ech. Colmar centre  0690158Ech. Niederhergheim 0750279SRDT FRONHOLZ       0710500006092006092520001300300000000000515      000000    0                                                                                                                            130491021 1637    120483391    0    110492341 1677    100000001    0    090470001    0    042390   045252   047554   049379   048886   051846   052822   050046   051213   052845   047714   049024                                      
680501500310014 00350 1110241Ech. Niederhergheim 0750279Ech. Meyenheim      0830153SRDT OBERHERGHEIM   0810600007760007760520001300300000000000515      000000    0                                                                                                                            130444441    0    120437541    0    110000001    0    100000001    0    090000001    0                                                                                                                                                   
680501400310014 00350 1110241Ech. Meyenheim      0830153Ech. Ensisheim      0880928SRDT MEYENHEIM      0840600005691005691520001300300000000000515      000000    0                                                                                                                            130000001    0    120000001    0    110000001    0    100000001    0    090353731    0                                                                                                                                                   
680501300310014 00350 1110241Ech. Ensisheim      0880928Ech. Croix de la Har1000039SRDT BALDERSHEIM    0970300010885010885520001300300000000000515      000000    0                                                                                                                            130000001    0    120000001    0    110000001    0    100000001    0    090385831    0                                                                                                                                                   
680501100310014 00350 1810241Ech. Croix de la Har1000039Ech. Rixheim        1040629Rixheim Nord        1030000004570004570680501000300000000000515      055360    0                                                                                                                            130541788    0    120531228    0    110000008    0    100000008    0    090000008    0                                                                                                                                                   
680501000310014 00350 1110241Ech. Rixheim        1040629Ech. Bartenheim     1170923SRDT RIXHEIM        1050320013316013316680501000300000000000515      051278 0727    046774   049004   050771   051459   050376   053460   054412   052563   053563   053586   050066   049198               130501831    7    120492041    0    110491811    7    100474061    7    090472031    0    044964   047156   048614   050852   050441   052145   054297   052301   052284   052201   048891   047868                                      
680500920310014 00350 1110241Ech. Aéroport       1220760Ech. Huningue       1240398SRDT HESINGUE       1240200001638001638680501000300000000000515      000000    0                                                                                                                            130000001    0    120431191    0    110000001    0    100000001    0    090450001    0                                                                                                                                                   
680500900310014 00350 1110241Ech. Bartenheim     1170923Ech. Aéroport       1220760SRDT BLOTZHEIM      1210750004804004804680501000300000000000515      051763 0757    047679   047671   050810   051677   050507   054399   055671   054034   054898   053874   050333   049344               130000001    0    120000001    0    110000001    0    100000001    0    090490601    0                                                                                                                                                   
680500800310014 00350 1110241Ech. Huningue       1240398PFD Saint-Louis     1260000SRDT SAINT_LOUIS    1250380001602001602680501000300000000000515      031294 0588    028836   030120   030779   030360   030253   032413   035100   033828   032519   032054   029911   029247               130313101    8    120307071    8    110305521    8    100296951    8    090285001    0    028557   029734   030337   031570   030669   032379   035752   033998   032499   031934   029577   028594                                      
680500700310014 00360 1110241Douane              1180600Frontière           1200542SRDT OTTMARSHEIM    1190840001908001908680501000300000000000515      000000    0                                                                                                                            130144341 2647    120133651 2828    110142641 2378    100137681 2578    090128281 3097    010887   011467   012523   013609   015422   015564   017111   018778   016180   015188   013344   012877                                      
680500600310014 00360 1810241Ech. Peugeot        1120170Douane              1180600Ottmarsheim Ouest   1160000006430006430680500700300000000000515      000000    0                                                                                                                            130188368    0    120174418    0    110186158    0    100000008    0    090167418    0                                                                                                                                                   
680500500310014 00360 1110241Ech. Croix de la Har1100750Ech. Peugeot        1120170SRDT PEUGEOT        1110300001420001420680500700300000000000515      000000    0                                                                                                                            130000001    0    120000001    0    110000001    0    100000001    0    090248001    0                                                                                                                                                   
680500300310014 00360 1150431Ech. Mulhouse centre1050580Ech. Croix de la Har1100750SRDT ILE_NAPOL      1080000005170001247680500700300000000000515      092280 1337    085684   088838   090922   094426   092233   099600   095328   090718                     092425   089203               130913111 1317    120894451    0    110919461 1317    100894781 1327    090883311 1327    081492   084089   089055   093689   091908   096843   098362   089635   095679   097241   089763   087625                                      
680500200310014 00360 1150431Ech. Mulhouse-Dornac1020042Ech. Mulhouse centre1050580SRDT BOURTZWILLER   1040700003538000000680500700300000000000515      087241 1357    080577   083261   084982   095169   086957   094219   087838   084059   091798   092176   084201   081789               130852971 1367    120838661    0    110859101 1437    100839801 1407    090835571 1387    076437   078659   083849   090478   085909   090379   091145   083538   088762   089440   083039   081655                                      
680500100310014 00360 1850231Fin concession      1000000Ech. Mulhouse-Dornac1020042Mulhouse Ouest      1010000002042000000680500200300000000000515      084161    0                                                                                                                            130822868    0    120809068    0    110828788    0    100000008    0    090806098    0                                                                                                                                                   
680004200310014 00350 1810241Limite Dépt 67      0000000N83                 0010484Ziergel             0010000001484000000680004110367050181030515      000000    0                                                                                                                            130000008    0    120000008    0    110000008    0    100000008    0    090000008    0                                                                                                                                                   
680004110310014 00830 3110201Ech. Guémar         0650975Limite A35 (Bergheim0681006SRDT GUEMAR         0660820002875002875680004110300000000000515      000000    0                                                                                                                            130518141 1577    120549411    0    110558091 1667    100546821 1657    090543431 1457    047459   051032   053824   055537   055738   058919   060400   055277   055254   046372   040589   041391                                      
680004000310014 00830 3810201Ech. Ostheim        0620737Ech. Guémar         0650975Guémar Sud          0640500003422003422680004110300000000000515      000000    0                                                                                                                            130500468    0    120530678    0    110539068    0    100000008    0    090524908    0                                                                                                                                                   
680003900310014 00830 3110201Limite A35 (Houssen)0580000Ech. Ostheim        0620737SRDT OSTHEIM        0610050004229001000680004110300000000000515      058172 1457    051623   054438   056248   057720   057350   061690   061355   060868   060022   061043   055852   059575               130573481 1487    120579941    0    110583851 1507    100570851 1507    090553321 1457    050289   053246   055942   057922   057791   060994   063207   059413   058246   058151   053933   058709                                      
680001610310014 00660 3110201Ech. Wittelsheim Sud0330026Ech. A36            0370855SRDT LUTTERBACH     0360700004797004797680004110300000000001187      034069 0737    033422   034350   032527   034918   033129   035339   034293   032875   035176   036430   034053   032448               130333791    7    120341391    0    110319001    7    100333921    7    090329201    7    031480   031929   033804   034371   032380   035963   034508   030550   034567   034585   033296   033135                                      
680001500310014 00660 4110201Ech. Cernay Sud (D830280811Ech. Wittelsheim Sud0330026SRDT WITTELSHEIM    0320540004450004215680004110300000000001187      000000                                                                                                                                 130000001         120306871         110303411         100299471         090292071                                                                                                                                                        
680001400310014 00660 3110201Thann Est           0230469Ech. Cernay Sud (D830280811SRDT CERNAY         0270870004222004222680004110300000000000515      023407 0787    021952   022682   023418   023801   023679   024387   024286   022475   024570   024554   022975   022100               130232711    7    120235711    0    110000001    0    100000001    0    090247431    7    021083   021976   023284   023868   023504   024753   024387   022586   023944   024991   022912   021923                                      
680001200310014 00660 4843001Giratoire Thann Fbg.0210217Thann Est (inter D100230469Thann               0210400002256000000680001100300000000000515      000000    0                                                                                                                            130000008    0    120172988    0    110175898    0    100000008    0    090182108    0                                                                                                                                                   
680001100310014 00660 4133001Bitschwiller (inter 0190553Giratoire Thann Fbg.0210217SRDT BITSCHWILLER   0200400001628000000680001100300000000000515      000000    0                                                                                                                            130000001    0    120202531    8    110205931    8    100206081    8    090213191    0                                                                                                                                                   
680001000310014 00660 4833001Willer-sur-Thur (int0170985Bitschwiller (inter 0190553Willer-Bitschwiller 0180500001600000000680001100300000000000515      000000    0                                                                                                                            130000008    0    120176208    0    110179168    0    100000008    0    090185488    0                                                                                                                                                   
680000920310014 00660 4833001Moosch (inter D13bVI0150246Willer-sur-Thur (int0170985Moosch - Willer/Thur0160300002736001000680001100300000000000515      000000    0                                                                                                                            130000008    0    120154928    0    110157538    0    100000008    0    090163098    0                                                                                                                                                   
680000910310014 00660 4833001Giratoire St-Amarin 0140222Moosch (inter D13bVI0150246St-Amarin Moosch    0140300001024000000680001100300000000000515      000000    0                                                                                                                            130000008    0    120146998    0    110149468    0    100000008    0    090154738    0                                                                                                                                                   
680000905310014 00660 4833001Giratoire St-Amarin 0120127Giratoire St-Amarin 0140222Déviation St-Amarin 0130000002067002067680001100300000000000515      000000    0                                                                                                                            130000008    0    120107198    0    110108998    0    100000008    0    090112848    0                                                                                                                                                   
680000900310014 00660 4823001Giratoire Wesserling0100258Giratoire St-Amarin 0120127Ranspach            0100300001863000300680001100300000000000515      010175    0                                                                                                                            130000008    0    120109118    0    110110958    0    100000008    0    090114878    0                                                                                                                                                   
680000800310014 00660 4813001Urbès               0070076Giratoire Wesserling0100258Wesserling          0090004003151001911680000700300000000000515      004917    0                                                                                                                            130000008    0    120051128    0    110054038    0    100000008    0    090055538    0                                                                                                                                                   
680000700310014 00660 4115001Limite Dépt 88      0000000Sortie d'Urbès      0070076SRDT COL_BUSSANG    0060102006919006902680000700388000320030515      003560 1858    002961   003086   003326   003611   003654   004044   004053   004103   003801   003768   003189   003088               130000001 1608    120037011 2008    110039111 2018    100038981 1578    090040191 1907    002814   002930   003361   003588   003721   003840   004326   003591   003861                                                                 
680000600310014 00590 4813001Giratoire D459      0140730Limite Dépt 67      0180148Bois l'Abbesse      0170000003550003550680000510367000160130515      010866    0                                                                                                                            130104628    0    120102148    0    110101298    0    100000008    0    090092708    0                                                                                                                                                   
680000510310014 00590 4113001Début (Ste-Marie-aux0080000Giratoire D459      0140730SRDT LIEPVRE        0130800006705006705680000510300000000000515      006989 0857    005764   006061   006551   006782   007017   008166   007510   007463   007674   007390   006518   006919               130067291    7    120065691    0    110065141    7    100060211    7    090059611    7    005458   005879   006105   006625   006827   007833   007690   007296   007265   006992   006167   006569                                      
670507000310014 03400 1810241Début (A4)          0000000Fin (D1340)         0030564Bernolsheim         0010000003568003568000000000000000000000515      000000    0                                                                                                                            130000008    0    120000008    0    110000008    0    100000008    0    090000008    0                                                                                                                                                   
670503000310014 00350 1110241Ech. D500           4180174Ech. Goxwiller      4200992SRDT NIEDERNAI      4190000002818002818000000000000000000000515      049901 1557    043952   046668   048677   050660   049408   052601   052831   051557   051338   052527   048447   049948               130485501 1597    120477271    0    110474551 1667    100423081 1657    090402511 1507    042257   044775   046480   048626   048949   051648   052990   049182   050904   051148   046309   049073                                      
670502000310014 00350 1110241Ech. Hoerdt         2450606Ech. A4             2480580SRDT HOERDT         2470000002963002963000000000000000000000515      033146 1987    030463   031327   032555   034104   033128   035487   034584   032461   034837   034759   031555   032426               130328761 2097    120332221    0    110329271    0    100327181 2207    090315141 2107    029711   030928   032414   033673   034248   035643   034477   032268   034732   034359   031840   030171                                      
670501820310014 00350 1810241Ech. Dambach        4350307Ech. Maison Rouge   4380582Selestat Nord       4350000003275003275670501800300000000000515      000000    0                                                                                                                            130000008    0    120000008    0    110000008    0    100000008    0    090000008    0                                                                                                                                                   
670501810310014 00350 1810241Ech. N59            4420401Limite Dépt 68      4460737Châtenois           4450000004338004338670501800368000420030515      000000    0                                                                                                                            130000008    0    120000008    0    110000008    0    100000008    0    090000008    0                                                                                                                                                   
670501800310014 00350 1110241Ech. Maison Rouge   4380582Ech. N59            4420401SRDT SELESTAT       4400900003818003818670501800300000000000515      051554    0    047398   047979   051006   052057   050726   055328   055620   052023   053854            049984   050943               130507301 1707    120513551    0    110497651 1727    100492001 1677    090490091    0    044200   046859   048859   050870   051026   054147   056554   052262   052045   053024   047872                                               
670501700310014 10830 4810201Début (D1083)       0500000A35                 0520498Ebersheim           0520000002551002551          00000000000515      000000    0                                                                                                                            130000008    0    120000008    0    110000008    0    100000008    0    090000008    0                                                                                                                                                   
670501610310014 03500 1150231Ech. A35            0000000Fin A350            0010236SRDT HERRENSCHMIDT  0000800001238001238          00000000000515      042065 0317    041669   044029   043188   042345   043116   043090   040675   035605   044108   043609   043280   040400               130000001    0    120587201    0    110000001    0    100000001    0    090586811    7                                                                                                                                                   
670501510310014 03510 1150231Ech. Centre sportif 0020700Ech. Wolfisheim     0040200SRDT BUGATTI        0030398001490000000          00000000000515      042375    0    041738   043109   042894   042859   042638   044028   041341   037014   044334   044991   042312   041452               130419171    0    120418371    0    110406921    7    100404081    7    090399791    0    039170   039537   042173   042270   041385   043627   042950   037354   044267   045447   042902   041872                                      
670501500310014 03510 1150231Ech. Wolfisheim     0040200Fin (N4)            0040811SRDT WOLFISHEIM     0040200000611000611          00000000000515      020545 0617    020260   020914   020875   020887   020671   021780   020133   017934   021292   021697   020289   019906               130213271    7    120208721    0    110208431    7    100206421    7    090208941    0    019280   019858   021110   021157   020865   021913   023179   020312   023746   022524   021187   020743                                      
670501310310014 03510 1150231Ech. CHU            0010430Ech. Centre sportif 0020700SRDT CENTRALE_THERM 0010870001266000000          00000000000515      057442    0    057174   058926   058475   058182   057805   058877   055454   049842   060037   061620   057093   056113               130559411    7    120540611    0    110540281    7    100542971    7    090526161    0    051481   053860   057474   057303   055552   059106   054571   045886   058886   062285   058389   056621                                      
670501300310014 03520 1110241 Début (A35)        0020000Ech. Molsheim       0090850SRDT DUTTLENHEIM    0040500007032007032          00000000000515      027135 0847    024710   025793   026160   026683   027285   030929   027653   026384   029517   028839   026416   025284               130260991    7    120262991    0    110269731    7    100279131    7    090280201    7    023465   024302   025729   026110   025917   028290   027531   024884   027977   027769   025682   025481                                      
670501200310014 03510 1150431Ech. A35            0000000Ech. CHU            0010430SRDT CHARMILLE      0000636001429000000          00000000000515      087675 0537    087321   089742   088793   088788   086288   090109   084686   076315   091594   093859   089013   086084               130869901    7    120880781    0    110884531    7    100879871    7    090863721    7    086732   088470   091713   090680   089834   092141   082769   068592   089121   091483   088072   084802                                      
670501100310014 00040 4150401Ech. A35            0440000Fin (pl. etoile)    0450522SRDT N4CONT_SUD     0450300001523000000          00000000000515      000000    0                                                                                                                            130637591    7    120657521    0    110654901    7    100669671    7    090668891    0    064210   064840   067623   066622   065145   067826   057878   047921   066715   067519   065042   064238                                      
670501020310014 00350 1110241                    3130500                    3150000SRDT GEISPO_VILLAGE 3140180001988001988          00000000000515      071947 1187    066155   068590   071707   073184   071766   075573   075095   071322   075664   075574   070002   068630               130000001    0    120000001    0    110000001    0    100000001    0    090000001    0                                                                                                                                                   
670501010310014 00350 1110241Ech. Geispolsheim   3120200                    3130500SRDT ECH_GEISPO     3120700001294001294          00000000000515      071881 1227    065322   068589   071860   073266   071856   075614   073399   071397   075776   076040   070077   069297               130707281 1237    120698651    0    110702161 1287    100658561 1237    090641101    0    063486   066644   069635   071496   070686   074703   075458   068480   073972   074787   068559   070620                                      
670500900310014 00350 1110241Ech. Vigie          3100000Ech. Geispolsheim   3120200SRDT GENS_VOYAGE    3100200002176002176          00000000000515      080415 1177    074581   078320   079534   081695   079819   084229   083033   078440   084672   084804   078434   077460               130792421 1207    120784871    0    110751581 1127    100740981 1077    090730781 1087    070917   074940   079216   080225   078758   083747   084389   076195   083166   083618   076998   078547                                      
670500810310014 00350 1150431                    3080000Ech. Vigie          3100000SRDT AIRE_SERVICE   3080350002004000000          00000000000515      117596 0987    112216   116870   118557   119433   117581   122598   119660   112754   123717            116123   114348               130000001    0    120000001    0    110000001    0    100000001    0    090000001    0                                                                                                                                                   
670500800310014 00350 1140431Ech. Baggersee      3060780                    3080000SRDT OSTWALD        3080000001213000000          00000000000515      119136 1017    114055   118810   120525   121626   119714   125044   122168   115096                     118220   116312               131187221 1077    121200481    0    111211511 1077    101202841 1037    091198691    7    113529   115176   121128   121078   116188   125525   121538   107565   123692   124968   116639   117686                                      
670500720310014 00350 1150441                    3060000Ech. Baggersee      3060780SRDT BAGGERSEE      3060000000780000000          00000000000515      116590 0817    109824   115971   116876   116840   114927   118863   117886   113982   122464   126742   114056   110772               130000001    0    120000001    0    110000001    0    100000001    0    090000001    0                                                                                                                                                   
670500710310014 00350 1150431                    3050000                    3060000SRDT PLAINE_BOUCHERS3050100001008000000          00000000000515      130059 0967    124735   129773   131342   131985   130223   135330   132054   125447   134727   135829   127442   122094               130000001    0    120000001    0    110000001    0    100000001    0    090000001    0                                                                                                                                                   
670500700310014 00350 1150431Ech. Porte Schirmeck3030950                    3050000SRDT ELSAU          3040150001053000000          00000000000515      130802 1297    125428   130479   130975   132693   130844   135668   132511   125930   136564   136822   128127   123871               131282651 1297    121313641    0    111311081 1337    101311161 1157    091303711 1097    122932   127187   133370   133022   130467   137497   123729   104435   135102   136569   128115   127317                                      
670500600310014 00350 1150631Ech. Porte Blanche (3020200Ech. Porte Schirmeck3030950SRDT PTE_SCHIRMECK  3030200001761000000          00000000000515      154472 0897    149576   155491   156364   156721   154596   159399   155480   144271   160786   162181   151582   147664               131460631    7    121547651    0    111502211    7    101519941    7    091521551    0    147300   152677   159384   158508   144922   160578   112419   098480   158425   161432   152205   148535                                      
670500500310014 00350 1150631Ech. Cronenbourg (A33000900Ech. Porte Blanche (3020200SRDT CRONENBOURG    3010500001285000000          00000000000515      162156 0857    158013   163764   164072   163772   162079   167265   163041   149557   168938   170409   159340   156116               131592331    7    121633811    0    111637881    7    101640131    7    091632291    7    158121   159942   166892   165528   162018   164594   160444   117134   166543   171769   161034   157521                                      
670500400310014 00350 1150431Fin A4              3000000Ech. Cronenbourg (A33000900SRDT PLACE_HAGUENAU 3000324000900000000          00000000000515      097343 1207    093995   097329   098594   098131   095343   100597   100747   093660   101027   102708   092695   093384               130946081 1277    120985991    0    110987421 1247    100990441 1227    090981061 1177    093100   095614   099620   099595   088541   090712   095437   081382   099640   101800   095696   094489                                      
670500320310014 00040 1150431                    0060000Fin A4 (A35)        0061012SRDT SCHILTIGHEIM   0060650001012000000          00000000000515      121661 1017    118109   122014   123376   122199   119350   125746   124425   114588   126936   128403   116880   118116               130000001    0    120000001    0    110000001    0    100000001    0    090000001    0                                                                                                                                                   
670500310310014 00040 1150431Ech. Bischheim      0050000                    0060000SRDT BISCHHEIM      0050910001009000000          00000000000515      000000    0                                                                                                                            131110461 1087    121126611    0    111162411 1077    101175391 1017    091178271    0    105052   109025   112222   113582   111758   115507   113880   097499   115163   117575   111219   110238                                      
670500210310014 00040 1150431                    0030000Ech. Hoenheim       0040200SRDT GARE_TRIAGE    0030700001207000000          00000000000515      100207 1157    096090   099160   100181   101220   099200   103293   102795   096304   104255   105840   097129   097079               130000001    0    120000001    0    110000001    0    100000001    0    090000001    0                                                                                                                                                   
670500200310014 00040 1150431Fin concession (Reic0000000                    0030000SRDT SOUFFEL        0020550002364000000          00000000000515      105594 1197    101626   104860   104991   107184   105062   109064   108301   101000   109906   111754   102757   100766               131051511 1227    121067941    0    111073431 1247    101071961 1217    091059441 1187    098200   101862   106245   107172   105721   105995   108875   097529   109638   111038   104327   105101                                      
670500100310014 00040 1150431Ech. Hoenheim       0040200Ech. Bischheim      0050000SRDT HOENHEIM       0040500000813000000          00000000000515      096036 1177    092081   095023   095968   097054   095055   098807   098886   092912   099799   101144   092741   093009               130955861 1197    120972871    0    110977501 1267    100975901 1247    090975121    0    089658   091155   096834   097466   096139   094650   098872   091387   100108   100348   094628   095499                                      
670353400310014 03530 4113001Ech. Rocade Est     0080050Frontière           0080819SRDT PFLIMLIN       0080100000769000769          00000000000515      000000    0                                                                                                                            130126221 1557    120124591    0    110124311 1577    100119431 1567    090112601    0    010096   010790   011936   012779   013184   013415   014379   014475   013045   013598   011776   011831                                      
670353300310014 03530 4110201Ech. D468           0050800Ech. Rocade Est     0080050SRDT N353EST        0060400002254002254          00000000000515      000000    0                                                                                                                            130224521 2207    120214721    0    110214191 2007    100201671 2397    090190841    0    018396   020039   021450   022792   022784   024095   025360   023640   023743   024669   021395   020899                                      
670353200310014 03530 4110201                    0050000Ech. D468           0050800SRDT N353CENTRE     0050260000800000800          00000000000515      000000    0                                                                                                                            130000001    0    120000001    0    110000001    0    100000001    0    090000001    0                                                                                                                                                   
670353100310014 03530 4110201Début               0030000                    0050000SRDT N353OUEST      0040810002000002000          00000000000515      000000    0                                                                                                                            130000001    0    120000001    0    110000001    0    100000001    0    090000001    0                                                                                                                                                   
670350800310014 00350 1110231                    3150000Ech. Duppigheim     3160767SRDT DUPPIGHEIM_NORD3160600001754001754          00000000000515      067711    0    062213   065484   067463   068830   067515   071027   070775   066914   069765   071223   065747   065500               130000001    0    120000001    0    110000001    0    100000001    0    090000001    0                                                                                                                                                   
670350700310014 00350 1110231Ech. Duppigheim     3160767Début VRPV          3190000SRDT DUPPIGHEIM_SUD 3170180002024002024          00000000000515      067448 1177    061610   064908   066950   068383   067112   070852   070185   067016   070722   071096   065461   065013               130000001    0    120000001    0    110000001    0    100000001    0    090000001    0                                                                                                                                                   
670350500310014 00350 1110241Début VRPV (A35/A3523190000Ech. Innenheim      4110694SRDT INNENHEIM_NORD 3210630003476003476          00000000000515      041124 1427    036936   039135   040728   041347   040645   043368   043094   042125   043055   043020   039574   040361               130402821 1487    120395561    0    110000001    0    100000001    0    090326021    0    035041   037420   039383   040588   039150   042492   043929   040700   042391   042373   038526   041203                                      
670350400310014 00350 1110241Ech. Innenheim      4110694Ech. D500           4180174SRDT INNENHEIM_SUD  4120000006440006440          00000000000515      043298 1417    039040   041283   042851   043491   042668   045698   044978   043688   045466   045670   042062   042595               130422871 1457    120408591    0    110000001    0    100000001    0    090326001    0    036934   039224   041308   042472   041006   044697   045904   042254   044605   044682   040810   043368                                      
670350200310014 00350 1110241Ech. Zellwiller     4250400Ech. Dambach        4350307SRDT SAINT_PIERRE   4260800010390010390          00000000000515      041925 1527    036261   038451   040555   042140   041169   044601   045211   044638   043309   043687   039811   043005               130000001    0    120000001    0    110000001    0    100000001    0    090347571    0                                                                                                                                                   
670350100310014 00350 1110241Ech. Goxwiller      4200992Ech. Zellwiller     4250400SRDT GERTWILLER     4230200004392004392          00000000000515      000000    0                                                                                                                            130000001    0    120000001    0    110000001    0    100000001    0    090377641    0                                                                                                                                                   
670005200310014 00350 1110221Frontière           2000000Ech. Seltz          2100990SRDT LAUTERBOURG    2000500010449010449          00000000000515      009109 2397    006854   007437   007868   009241   009507   010234   011099   010676   010278   010266   008516   007235               130090411 1848    120099711 2178    110098921 2598    100091871 2668    090078781 2607    007224   007751   008641   009208   010078   010688   011417   010205   009256   008903   007773   007249                                      
670005100310014 00350 1810241Ech. Seltz          2100990Ech. Forstfeld      2160035Forstfeld           2140000005028005028670005000300000000000515      000000    0                                                                                                                            130000008    0    120000008    0    110000008    0    100000008    0    090000008    0                                                                                                                                                   
670005000310014 00350 1110241Ech. Forstfeld      2160035Ech. Rountzenheim   2210562SRDT LEUTENHEIM     2180700005502005502670005000300000000000515      023272 2237    021297   021679   022438   023720   023583   025224   025487   024665   023841   024012   022598   020636               130229121 2207    120233661    0    110222121 2477    100216901 2377    090205511 2237    020190   020962   021959   023228   022977   023192   026053   024107   024306   024372   022307   021154                                      
670004900310014 00350 1810241Ech. Rountzenheim   2210562Ech. Rohrwiller     2320167Sessenheim          2230000010568010568670005000300000000000515      016220    0                                                                                                                            130159708    0    120162878    0    110154838    0    100000008    0    090143268    0                                                                                                                                                   
670004701310014 00350 1810241Ech. Rohrwiller     2320167Ech. Offendorf      2360418Herrlisheim Ouest   2340000004237004237670005000300000000000515      000000    0                                                                                                                            130000008    0    120000008    0    110000008    0    100000008    0    090000008    0                                                                                                                                                   
670004600310014 00350 1810241Ech. Offendorf      2360418Ech. Hoerdt         2450606Kilstett            2400000009152009152670502000300000000000515      025535    0                                                                                                                            130253278    0    120255948    0    110253678    0    100000008    0    090242798    0                                                                                                                                                   
670004310310014 00830 4110401Début (D1083)       0390000Ech. D222           0400650SRDT ELISA          0400000000782000782670502000300000000000515      000000    0                                                                                                                            130000001    0    120000001    0    110000001    0    100000001    0    090000001    0                                                                                                                                                   
670004300310014 00830 4150401Ech. D222           0400650Ech. Vigie          0420387SRDT ROND_POINT     0410500001727001727670502000300000000000515      060357 0987    058365   060592   061373   062366   061082   063658   061169   056863                     060389   057914               130605301 1017    120616051    0    110618851    7    100631061    7    090637511    0    057963   058294   061678   062579   060410   063666   062158   054862   062343   064020   059739   058627                                      
670001700310014 00590 4833001Giratoire D424      0040115Giratoire D1059     0060973Châtenois           0050500002890000000680000510300000000000515      000000    0                                                                                                                            130000008    0    120000008    0    110000008    0    100000008    0    090000008    0                                                                                                                                                   
670001601310014 00590 4813001Limite dépt 68      0000000Giratoire D424      0040115La Vancelle         0000250004095004095680000510368000051030515      000000    0                                                                                                                            130000008    0    120000008    0    110000008    0    100000008    0    090000008    0                                                                                                                                                   
670001100310014 00040 4815001Intersection D228   0360551Ech. A351           0380315Wolfisheim Ouest    0370000001759001759670501500300000000000515      024688    0                                                                                                                            130256288    0    120250828    0    110250488    0    100000008    0    090251108    0                                                                                                                                                   
670001000310014 00040 4815001Début (Ittenheim)   0320000Intersection D228   0360551Ittenheim           0350000003609003049670501500300000000000515      020984    0                                                                                                                            130217838    0    120213198    0    110212908    0    100000008    0    090213438    0                                                                                                                                                   
570502800310014 00300 1110241Ech. Fontoy         0170847Limité Dépt 54      0260429SRDT AUMETZ         0220260008402008402670501500354000381030515      022344    0    020112   021691   021988   023516   022011   023840   023393   020488   023776   023409   021603                        130211501 1387    120209811 1367    110000001    0    100000001    0    090000001    0    018691   019777   020906   022039   021226   022189   022152   019522   022069   023007   021814   020388                                      
570502710310014 00300 1810241                    0120000Ech. Fontoy         0170847Tunnel              0130000005847005847570502700300000000000515      000000    0                                                                                                                            130000008    0    120000008    0    110000008    0    100000008    0    090000008    0                                                                                                                                                   
570502700310014 00300 1110241Ech. Hayange Ouest  0100580                    0120000SRDT HAYANGE        0110380001420001420570502700300000000000515      020740 1667    019106   020119   020418   021732   020390   021971   021754   018992   021789   022104   021105   019455               130197511 1597    120193011    0    110196941 1727    100000001    0    090187621 1517    017496   018635   019383   020497   019930   020900   020937   018405   020910   021074   020029   018818                                      
570502600310014 00300 1810241Ech. Hayange Est    0080234Ech. Hayange Ouest  0100580Hayange             0100000002340002340570502700300000000000515      029595    0                                                                                                                            130281848    0    120275428    0    110281038    0    100000008    0    090267748    0                                                                                                                                                   
570502500310014 00300 1810241Ech. Fameck centre  0060007Ech. Hayange Est    0080234Sérémange           0070000002233002233570502700300000000000515      043661    0                                                                                                                            130415798    0    120406328    0    110414608    0    100000008    0    090394988    0                                                                                                                                                   
570502400310014 00300 1810241Ech. VR52           0040800Ech. Fameck centre  0060007Rémélange           0050500001348001348570502300300000000000515      028786    0                                                                                                                            130273998    0    120270388    0    110291438    0    100000008    0    090317278    0                                                                                                                                                   
570502300310014 00300 1110241Ech. Uckange        0000934Ech. VR52           0040800SRDT UCKANGE        0010000003771003771570502300300000000000515      033144 1117    031371   032672   032686   034432   032619   034736   033880   029924   034814   035244   033613   031851               130315461 1277    120311301 1097    110335531 1127    100000001    0    090365271    0    028931   030395   031097   032379   031180   032350   033163   029191   032314   034390   032214   030935                                      
570502200310014 00300 1810241Bifurcation A31     0000000Ech. Uckange        0000934Richemont           0000500000934000934570502300300000000000515      000000    0                                                                                                                            130000008    0    120000008    0    110000008    0    100000008    0    090000008    0                                                                                                                                                   
570502100310014 03200 1110241Ech. Stiring-Wendel 0120100Frontière           0130635SRDT SPICHEREN      0130600001550001550570502300300000000000515      019680 1397    017770   017837   018725   020329   019358   020466   021221   021697   020686   020500   019060   018396               130189001 1387    120186881 1417    110000001    0    100000001    0    090000001    0    016471   016652   017982   018984   019515   019527   020771   020827   019545   019783   018483   018074                                      
570502000310014 03200 1810241Ech. Forbach centre 0090500Ech. Stiring-Wendel 0120100Stiring             0110000002594002594570502100300000000000515      000000    0                                                                                                                            130000008    0    120000008    0    110000008    0    100000008    0    090293878    0                                                                                                                                                   
570501900310014 03200 1110241Ech. Forbach Ouest  0060500Ech. Forbach centre 0090500SRDT FORBACH        0070000002994002994570502100300000000000515      041414    0    038849            039996   043058   041132   043742   041732   040399   043708   043455   040428   039219               130000001    0    120000001    0    110000001    0    100000001    0    090274831    0                                                                                                                                                   
570501700310014 03200 1810241Ech. Rosbruck       0030200Ech. Forbach Ouest  0060500Rosbruck            0050200003301003301570501600300000000000515      000000    0                                                                                                                            130000008    0    120000008    0    110000008    0    100000008    0    090407118    7                                                                                                                                                   
570501600310014 03200 1130241A4                  0000000Ech. Rosbruck       0030200SRDT ROSBRUCK2      0030070002909000000570501600300000000000515      000000    0                                                                                                                            130000001    0    120000001    0    110000001    0    100000001    0    090369871    0                                                                                                                                                   
570501560310014 00310 1110241Ech. Kanfen         3440525Frontière (Zoufftgen3480987SRDT ZOUFFTGEN      3480120004471004471570501600300000000000515      000000    0                                                                                                                            130528931    0    120517901    0    110000001    0    100000001    0    090503801    0                                                                                                                                                   
570501400310014 00310 1110241Ech. Elange         3360725Ech. Kanfen         3440525SRDT KANFEN         3400560007909007909570501600300000000000515      061573 1227    056071   057859   059229   063053   060488   063461   072654   069113   063898   060365   056287   056056               130621431 1307    120608461 1247    110629061 1267    100000001    0    090591891    0    053668   057961   058561   061624   061177   066206   076455   070845   064757   061690   056662   055730                                      
570501350310014 00310 1110241Ech. Bétange        3340848Ech. Elange         3360725SRDT VEYMERANGE     3350960001877001877570501600300000000000515      064250 1267    058116   060526   061962   065431   063076   066588   074925   071573   066709   063865   059331   058577               130000001    0    120000001    0    110000001    0    100000001    0    090000001    0                                                                                                                                                   
570501320310014 00310 1150231Ech. Beauregard     3310452Ech. Bétange        3340848SRDT LINKLING       3320020003396000000570501600300000000000515      070953 1057    065471   068026   068963   072428   069201   072991   079880   075680   073687   071692   066784   066417               130000001    0    120000001    0    110000001    0    100000001    0    090000001    0                                                                                                                                                   
570501300310014 00310 1150231Ech. Thionville cent3290967Ech. Beauregard     3310452SRDT BEAUREGARD     3300700001483000000570501600300000000000515      079899 1067    074337   077150   077509   082088   077742   082557   089012   083939   081416   080728   076073   076052               130676951 1067    120000001    0    110807301 1017    100000001    0    090771911 1097    000000   000000   074775   077906   077733   085290   092405   084457   083507   080726   075256   075380                                      
570501232310014 00310 1810241Ech. Yutz Est       3280618Ech. Thionville cent3290967Yutz R2             3290350001347001347570501200300000000000515      000000    0                                                                                                                            130000008    0    120000008    0    110000008    0    100000008    0    090000008    0                                                                                                                                                   
570501201310014 00310 1110241Bifurcation A30     3230000Ech. Guénange       3240800SRDT RICHEMONT 2    3240040001801001801570501200300000000000515      064131 1277    057693   060645   061627   065439   061953   066960   073767   070609   066252   064605   060072   059693               130000001    0    120000001    0    110000001    0    100000001    0    090000001    0                                                                                                                                                   
570501200310014 00310 1110241Ech. Guénange       3240800Ech. Yutz Est       3280618SRDT GUENANGE       3250770003809003809570501200300000000000515      076821 1167    069985   073437   074329   078853   074277   080029   086506   081842   080336   077831   072533   071702               130410961 1197    120375841 1237    110587691    0    100000001    0    090745551 1267    032462   035641   036199   035925   036777   041161   045543   038581   039152                     070698                                      
570501000310014 00310 1110441Ech. Mondelange     3200250Bifurcation A30     3230000SRDT RICHEMONT      3210450002741002741570501200300000000000515      097105 1217    088952   092751   094385   100039   095285   102489   107975   099207   101994   099360   092653   090022               130000001    0    120000001    0    110000001    0    100000001    0    090000001    0                                                                                                                                                   
570500920310014 00310 1110441Ech. Talange        3170895Ech. Mondelange     3200250SRDT HAGONDANGE     3190090002330002330570501200300000000000515      000000    0                                                                                                                            130944031    0    120941641    0    110000001    0    100000001    0    090943841    0                                                                                                                                                   
570500900310014 00310 1110341Ech. Maizières      3150122Ech. Talange        3170895SRDT MAIZIERES      3160350002782002782570501200300000000000515      099281 1167    091207   095202   096308   102649   096661   104363   109409   101129   103613   101887   095089   093735               130961741 1197    120959301 1227    110970491 1277    100000001    0    090961541 1337    085731   092530   092881   092881   091483   099664   111105   100772   101207   100422   093008   092119                                      
570500801310014 00310 1110441Croix Hauconcourt   3130292Ech. Maizières      3150122SRDT HAUCONCOURT    3130300001848001848570501200300000000000515      000000    0                                                                                                                            131046341    0    121043691    0    110000001    0    100000001    0    091046131    0                                                                                                                                                   
570500730310014 00310 1150431Ech. La Maxe        3070673Croix Hauconcourt   3130292SRDT ST_REMY        3110400005639000000570501200300000000000515      084295 1047    078396   081176   081941   086266   082644   088926   093612   086164   086507   085456   080664   079643               130000001    0    120000001    0    110000001    0    100000001    0    090733231 1347                                                                                                                                                   
570500600310014 00310 1150431Ech. Metz Nord      3050601Ech. La Maxe        3070673SRDT LA_MAXE        3070750002078000000570501200300000000000515      000000    0                                                                                                                            130000001    0    120000001    0    110000001    0    100000001    0    090000001    0                                                                                                                                                   
570500500310014 00310 1850431Ech. Metz centre    3030011Ech. Metz Nord      3050601Metz centre         3040280002672000000          00000000000515      000000    0                                                                                                                            130000008    0    120000008    0    110000008    0    100000008    0    090000008    0                                                                                                                                                   
570500400310014 00310 1150431Ech. Moulins        2990142Ech. Metz centre    3030011SRDT METZ_SUD       3010410003827000000          00000000000515      073848 1227    066890   069885   070700   074952   071798   078183   082581   077318   076900   075384   070888   070499               130720561 1237    120720471 1227    110753571    7    100000001    0    090000001    0    063446   068017   068161   072212   071035   078296   084498   075994   074224   073048   067812   067683                                      
570500300310014 00310 1150431Ech. Jouy           2970000Ech. Moulins        2990142SRDT JOUY           2970020002124000000          00000000000515      065396 1267    058790   061389   062448   066295   064058   068953   074124   070187   067524   066011   062387   062308               130643761 1387    120653271 1287    110676611 1297    100000001    0    090000001    0    057300   061455   062272   064128   063142   069813   075916   069007   066026   064909   059801   058531                                      
570500200310014 00310 1110241Ech. Féy            2920000Ech. Jouy           2970000SRDT AUGNY          2940440005723005723          00000000000515      051361 1667    045006   047452   048542   052123   049857   055120   060625   057386   053581   051468   047641   047250               130503091 1667    120496571 1687    110507701 1767    100000001    0    090000001    0    042724   046849   047389   050172   049385   055409   061617   056000   052198   050272   045782   045659                                      
570500100310014 00310 1110241Limite Dépt 54      2840000Ech. Féy            2920000SRDT FEY            2900770007987007987          54050100030515      055646 1797    048517   051518   052560   056911   054283   060310   065109   062033   058666   055873   051262   050457               130000001    0    120000001    0    110274331    0    100000001    0    090464761 1747                                                                                                                                                   
570220200310014 00040 3110201Ech. Sarrebourg Oues0180100Ech. Sarrebourg Est 0231050SRDT SARREBOURG     0200000006788006788          00000000000515      020226    0    019054   019696   020058   020875   019417   020684   020391   020122   021401   021758   019564   019693               130202071    0    120203061 2057    110202951 1638    100000001    0    090189701    8    017551   018442   019308   020903   020443   021311   021797   020157   021038   021709   019894   019826                                      
570010403310014 04310 3110201Ech. Magny (D913)   0080400Ech. Féy (A31)      0140700SRDT MARLY          0100000006500006500          00000000000515      023754 0967    022903   023781   023240   024609   023276   025157   022801   020643   025625   025898   024469   022798               130233731    7    120231061 1137    110214661 1137    100000001    0    090000001    0    021571   022360   022727   024263   023196   024815   023916   020425   025841   025995   023588   021843                                      
570010401310014 04310 3110201Ech. Metz FIM (D999)0020900Ech. Magny (D913)   0080400SRDT GRIGY          0030550005500005500          00000000000515      021588 1077             021117   021291   022473   021324   022586   021012   019099   022918   023131   021790   020789               130000001    0    120224141    0    110206321    7    100000001    0    090000001    0                                                                                                                                                   
570010300310014 04310 3150201début (éch. D603)   0000000Ech. Metz FIM (D999)0020900SRDT BORNY          0020200002754000000          00000000000515      041726 0867    040199   041923   041265   043059   042200   043233   040240   036531   044983   045689   041956   039659               130341171    7    120210471 1017    110368041    7    100000001    0    090333911    7    020432   021091   021462   022577   029284   043362   041895   036659   045396   046231   041478   038805                                      
570007500310014 00610 4133001Fin 2x2             0300750Frontière           0351503SRDT GROSBLIED      0350000005133002510          00000000000515      000000    0                                                                                                                            130000001    0    120000001    0    110000001    0    100000001    0    090000001    0                                                                                                                                                   
570007401310014 00610 4110201Ech. D99            0210550Fin 2x2             0300750SRDT SARREGUEMINES  0250400007249007249          00000000000515      017424 0767    015831   016664   017127   018154   017423   018400   017958   017188   018190   018207   017459   016495               130170331    7    120171021    7    110168261    7    100000001    0    090000001    0    014831   015752   016389   017535   017275   018365   018319   017260   017755   018138   016739   015993                                      
570007300310014 00610 4110201Giratoire D674      0190839Ech. D99            0210550SRDT WOUSTWILLER    0200920002083002083          00000000000515      021955 0727    020378   021272   021618   022799   021899   023328   022449   020823   022828   023131   021864   021108               130000001    0    120000001    0    110000001    0    100000001    0    090000001    0                                                                                                                                                   
570007200310014 00610 4113001Ech. A4             0160000Giratoire D674      0190839SRDT HAMBACH        0170970003681003681          00000000000515      000000    0                                                                                                                            130000001    0    120000001    0    110000001    0    100000001    0    090000001    0                                                                                                                                                   
570004300310014 00520 4810201Giratoire D9 - D10  0160000Ech. A30            0180600Fameck              0170300002600002600          00000000000515      000000    0                                                                                                                            130000008    0    120000008    0    110000008    0    100000008    0    090000008    0                                                                                                                                                   
570004200310014 00520 4840201Ech. D9             0120350Giratoire D9 - D10  0160000Clouange            0130500003649001000          00000000000515      000000    0                                                                                                                            130000008    0    120000008    0    110000008    0    100000008    0    090000008    0                                                                                                                                                   
570004100310014 00520 4840201Gir. Cité Leclerc   0110156Ech. D9             0120350Rombas centre       0120300001358000000          00000000000515      000000    0                                                                                                                            130000008    0    120000008    0    110000008    0    100000008    0    090000008    0                                                                                                                                                   
570004000310014 00520 4843001Giratoire D181      0100400Gir. Cité Leclerc   0110156Rombas Sud          0110000000783000000          00000000000515      000000    0                                                                                                                            130000008    0    120000008    0    110000008    0    100000008    0    090000008    0                                                                                                                                                   
570003900310014 00520 4813001Ech. A4             0060000Giratoire D181      0100400Pierrevillers       0090750004242004242          00000000000515      000000    0                                                                                                                            130000008    0    120000008    0    110000008    0    100000008    0    090000008    0                                                                                                                                                   
570003100310014 00330 4110201Giratoire Creutzwald0110200Frontière           0150590SRDT CREUTZWALD_CONT0110310004600004600          00000000000515      006404    0    006025   006285   006466   006718   006298   006619   006689   005988   006785   006759   006324   005902               130000001    0    120000001    0    110000001    0    100000001    0    090000001    0                                                                                                                                                   
570003010310014 00330 4813001Ech. Carling        0070090Giratoire Creutzwald0110200Carling Nord        0100000004113004113570003100300000000000515      000000    0                                                                                                                            130000008    0    120000008    0    110000008    0    100000008    0    090000008    0                                                                                                                                                   
570003000310014 00330 4850201Ech. A4             0050703Fin 2x2             0070090Carling             0070000001335000000570003100300000000000515      000000    0                                                                                                                            130000008    0    120000008    0    110000008    0    100000008    0    090000008    0                                                                                                                                                   
570002900310014 00330 4850201Début               0040000Giratoire ZI Nord   0050703Cité Huchet         0040000000900000000570003100300000000000515      000000    0                                                                                                                            130000008    0    120000008    0    110000008    0    100000008    0    090000008    0                                                                                                                                                   
570002500310014 00040 3110201Ech. Sarrebourg Est 0231050Ech. A4             0320882SRDT BROUVILLER     0270000008470008470570003100300000000000515      019594    0    018330   019049   018921   019932   019470                     019076   021037   021353   019449   019324               130000001    0    120000001    0    110000001    0    100000001    0    090000001    0                                                                                                                                                   
570002101310014 00040 3110201Ech. Héming         0100375Ech. Sarrebourg Oues0180100SRDT BEBING         0160000007064007064570003100300000000000515      013586 2637    012116   012647   013041   014089   013488   014994   014248   013585   014264   014468   013066   013000               130000001    0    120000001    0    110000001    0    100000001    0    090000001    0                                                                                                                                                   
570002000310014 00040 4113001Limite Dépt 54      0000000Ech. Héming         0100375SRDT IBIGNY         0020350010507010507570003100300000000000515      009826 3177    008703   009179   009504   010267   009771   010814   010370   009915   010198   010336   009368   009462               130000001    0    120000001    0    110000001    0    100000001    0    090000001    0                                                                                                                                                   
550002400310014 11350 4113001Giratoire D1916     0000000Giratoire N135      0050877SRDT LONGEVILLE_BAR 0050030005877002527570003100300000000000515      005914    0    005630   005875   005869   006219   005926   006312   005765   005242   006127   006200   005931   005894               130000001    0    120000001    0    110000001    0    100000001    0    090000001    0                                                                                                                                                   
550002101310014 01350 4843001Ech. Ligny          0140290Fin (N4)            0151289Ligny centre        0150000002447000000          00000000000515      000000    0                                                                                                                            130000008    0    120000008    0    110000008    0    100000008    0    090000008    0                                                                                                                                                   
