120500400110012 00750 1110231ECH.ENGAYRESQUE     2000000ECH ST GERMAIN      2150050LA GAMASSE          2100400015050015050          00000000000194      007737  877    004779   005344   006408   007921   008950   010279   012850   013112   003879   006667   005934   006393               130087841 1087    120080211 1117    110075741 1177    100080521 1357    09      1         004443   004840   006088   008376   009467   009826   015433   018519   009109   007041   005703   006110                                      
120500400210012 00750 1110231ECH.ENGAYRESQUE     2000000ECH ST GERMAIN      2150050LA GAMASSE          2100400015050015050          00000000000194      007758 1487    004618   004559   006046   007449   009076   009321   011935   010374   009348   007591   006298   005907               130084681 1537    120085591 1947    110081241 1347    100078301 1847    09      1         004304   004429   005592   007455   009477   008691   012032   020317   010017   007291   005862   005694                                      
120500400310012 00750 1110231ECH.ENGAYRESQUE     2000000ECH ST GERMAIN      2150050LA GAMASSE          2100400015050015050          00000000000194      015495 1147    009397   009903   012454   015370   018026   019600   024785   023486   013227   014258   012232   012300               130172521 1317    120165801 1577    110156981 1267    100158821 1707    09      1         008747   009269   011680   015831   018944   018517   027465   038836   019126   014332   011565   011804                                      
120500600110012 00750 1110231VIADUC DE MILLAU SUD2220953DEP HERAULT         2520695A 75 LA CAVALERIE   2380210030012030012          00000000000998      009803 1327    005255   005648   006936   009388   010410   010940   016524   020437   009609   008316   006549   007136               130095901 1327    120095881 1317    110096271 1317    100093061 1277    09      1         004876   005309   006712   009195   010370   010835   016628   019607   009868   008032   006492   006674                                      
120500600210012 00750 1110231VIADUC DE MILLAU SUD2220953DEP HERAULT         2520695A 75 LA CAVALERIE   2380210030012030012          00000000000998      009851 1277    005286   005420   006988   008498   010358   010614   013599   023107   010552   009004   007085   007186               130095491 1637    120097771 1247    110096291 1257    100094091 1257    09      1         004865   005153   006533   008562   010454   009973   013882   021958   011207   008326   006687   006503                                      
120500600310012 00750 1110231VIADUC DE MILLAU SUD2220953DEP HERAULT         2520695A 75 LA CAVALERIE   2380210030012030012          00000000000998      019654 1297    010541   011068   013924   017886   020768   021554   030123   043544   020161   017320   013634   014322               130191391 1447    120193651 1277    110192561 1287    100187151 1267    09      1         009741   010462   013245   017757   020824   020808   030510   041565   021075   016358   013179   013177                                      
340001500310012 01090 4113001SUD GIGNAC          0200000NORD GIGNAC         0320000GIGNAC 34           0300700012000012000340000500300000000000490      012550  687    010281   010870   011425   012425   012670   013228   014513   015833   012963   012947   011469   011811               130121321  697    120109701  667    110114081  657    100102791  677    09      1         009716   010301   010942   012038   012546   012694   014031   015360   012763   012547   011292   011181                                      
340001500110012 01090 4113001SUD GIGNAC          0200000NORD GIGNAC         0320000GIGNAC 34           0300700012000012000340000500300000000000490      012540  687    010273   010861   011415   012415   012660   013216   014501   015822   012953   012936   011459   011802               130121361  697    120109661  667    110113851  657    100102421  677    09      1         009708   010293   010933   012028   012536   012684   014018   015349   012753   012707   011282   011172                                      
340001500210012 01090 4113001SUD GIGNAC          0200000NORD GIGNAC         0320000GIGNAC 34           0300700012000012000340000500300000000000490      013127  747    010790   011293   011934   012945   013239   013900   015466   016511   013749   013315   012132   012075               130126021  747    120112501  727    110120391  737    100106581  737    09      1         010263   010657   011168   012640   012985   013281   014674   015658   013327   013003   011870   011533                                      
340000500110012 00750 1110241NORD RN 109         2800000RN 109              2900450LODEVE_SUD          2800200010450010450          00000000000490      012763 1047    008230   008792   009931   012539   013284   014469   018337   023017   012984   011540   009641   009957               130125631 1067    120102711 1087    110124811 1057    100117851 1027    09      1         007756   008216   009630   012298   012786   014053   019536   022146   013110   011154   010007   009620                                      
340000500210012 00750 1110241NORD RN 109         2800000RN 109              2900450LODEVE_SUD          2800200010450010450          00000000000490      008999   97    005492   005620   006689   007960   009185   009870   011576   019689   009914   008187   006620   006809               130114681  897    120096841 1037    110118531 1017    100104661 1047    09      1         007257   007627   008991   010982   012439   012368   016089   022903   013502   010692   007888   006466                                      
340000500310012 00750 1113041NORD RN 109         2800000RN 109              2900450LODEVE_SUD          2800200010450010450          00000000000490      021762  657    013722   014412   016620   020499   022469   024339   029913   042706   022898   019727   016261   016766               130240311  977    120199551 1067    110243341 1037    100222511 1037    09      1         015013   015843   018621   023280   025225   026421   035625   045049   026612   021846   017895   016086                                      
340001404110012 01090 4110101EB 20 MONTPELLIER   0040000A 750               0100000JUVIGNAC OUEST      0050000006000006000                    0190      017247  507    015739   014679   016017   017307   017419   018272   019448   020533   017293   017591   016047   016241               130170241  497    120135471  507    110153691  527    100141931  537    090043361         014007   014633   015559   017503   017931   018405   019224   020155   017728   017453   015977   015529                                      
340001404210012 01090 4110101EB 20 MONTPELLIER   0040000A 750               0100000JUVIGNAC OUEST      0050000006000006000                    0190      018339  437    016815   015933   017195   018490   018546   019448   020805   021184   018566   018521   017085   017101               130180201  537    120153101  567    110156831  597    100080451  377    090049541         015261   015615   016522   018242   018799   019449   020379   020940   018853   018341   017152   016504                                      
340001404310012 01090 4810101EB 20 MONTPELLIER   0040000A 750               0100000JUVIGNAC OUEST      0050000006000006000          00000000000190      035586  467    032554   030612   033212   035797   035965   037720   040253   041717   035859   036112   033132   033342               130350448  517    120288578  537    110310528  567    100222388  487    090092908         029268   030248   032081   035745   036730   037854   039603   041095   036581   035794   033129   032033                                      
480500100110012 00750 1110241LIMITE CANTAL       1140527LA GARDE SUD        1160943ALBARET_MARI_M      1160700002416002416480500100300000000001101      006630 1317    003309   003705   004384   006181   006543   006965   010842   013402   005908   005285   006260   006459               130062311 1277    120061951 1247    110062611 1367    100060131 1347    09      1         003266   003409   004441   005932   006577   006789   011454   012930   005994   005134   004033   004471                                      
480500101110012 00750 2110201LA GARDE            1160700LA GARDE            1160700ALBARET_MARI_M      1160700000000000000480500100300000000000794      000001                  000001   000001   000001   000001            000001            000001   000001                                 130002711 1857    120006081 1687    110011471 1607    100011371 1647    09      1         000313                              000017   000018                              000001   000001   000001                                      
480500400110012 00750 1110241ST CHELY-SUD        1270799AUMONT-NORD         1330830AUMONT-NORD         1330830006053006053480500400300000010030393      006415 1587    003492   003827   004577   006700   007095   007730   012951   009640   005898   005633   004305   004854               130067761 1587    120071251 1737    110057261 1737    100056431         09      1         003303   003522   004619   006389   007151   007618   013247   014163   006551   005497   004183   004672                                      
480500400210012 00750 1110241ST CHELY-SUD        1270799AUMONT-NORD         1330830AUMONT-NORD         1330830006053006053480500400348000010030393      006072 1397    003689   003647   004680   005883   007057   007502   009845   008117   006957   005909   004628   004737               130069081 1327    120072201 1037    110053361 1067    100047911         09      1         003507   003533   004428   005986   007685   006819   009965   017424   008326   005658   004666   004513                                      
480500400310012 00750 1110241ST CHELY-SUD        1270799AUMONT-NORD         1330830AUMONT-NORD         1330830006053006053480500400348000010030393      012487 1497    007181   007474   009257   012583   014152   015232   022796   017757   012855   011542   008933   009591               130136841 1457    120143451 1367    110110621 1357    100104341         09      1         006810   007055   009047   012375   014836   014437   023212   031587   014877   011155   008849   009185                                      
480500600110012 00750 1110241ECH.37 LE BUISSON   1460000ECH.39 LE MONASTIER 1610000CHIRAC              15800000151000151006305019003          0199      003733 1077    003472   003791   004456   004844   005445   006189   003708   004864   002431   001412   001509   002678               130063371 1327    120066231 1407    110076731 1307    100061801 1407    09      1         003096   003304   004419   006204   007013   007347   012553   009366   011102   004306   003562   003572                                      
480500600210012 00750 1110241ECH.37 LE BUISSON   1460000ECH.39 LE MONASTIER 1610000CHIRAC              15800000151000151006305019003          0199      006624  427    003988   005114   006308   005969   006993   007490   008196   009019   007274   006216   005880   006893               130061061  317    120067201  297    110084761  287    100065931  337    09      1         003207   003209   004213   005748   006978   006233   009479   008408   009564   006717   004623   004671                                      
480500600310012 00750 1110241ECH.37 LE BUISSON   1460000ECH.39 LE MONASTIER 1610000CHIRAC              15800000151000151006305019003          0199      010357  737    007460   008905   010764   010813   012438   013679   011904   013883   009705   007628   007389   009571               130124431  977    120133431 1197    110161491 1077    100127731 1187    09      1         006303   006513   008632   011952   013991   013580   022032   017774   020666   011023   008185   008243                                      
480500800110012 00750 1110241ECH.40 BANASSAC     1720047LIMITE AVEYRON      1790296BANASSAC            1720100007249007249630501900300000000000199      002494 1377    003295   004081   003123   003073   002821   002979   003226   004451   000958   000843   000496   000657               130070141 1427    120073771 1487    110084541 1377    100071201 1437    09      1         003512   003749   004988   006902   007468   007755   014113   015455   005921   004243   004844   004811                                      
480500801110012 00750 2111001                    0000000                    0010000BANASSAC            0000005001000001000630501900300000000000199      007619 1377    003444   003846   004966   006242   007661   008129   010522   018937   008229   006413   007697   004966               130003181 9687    120001071         110004871         100004551         09      1         000342                                                                           000007                                                        
480500701110012 00750 2111001A75                 0000000N9                  0010000BANASSAC            0000005001000001000630501900300000000000199                                                                                                                                             130000621 10007    120000881 3047    110004061         100003891         09      1         000062                                                                                                                                        
480500700110012 00750 1110241ECH.39 LE MONASTIER 1610724ECH.40 BANASSAC     1720047ST GERMAIN DU TEIL  1670000010323010323630501900300000000000199      008474 1267    004641   005083   006009   008257   008741   009460   014650   017445   008177   007017   005672   006130               130081581 1207    120086721 1217    110062831 1417    10      1         09      1         004348   004635   005922   007914   008137   007080   015312   016711   009044   006918   005493   005941                                      
480002300110012 01060 4113001INTER.D984-JALCRESTE0221020INTER.D907-FLORAC   0440660FLORAC_SUD          0380500020631020631480002500300000000000995      001958 1457    001275   001392   001585   001822   002045   002170   002627   003472   002090   001885   001566   001510               130019001 1387    120013721 1357    11      1         10      1         09      1         001236   001281   001530   001768   002098   001986   002654   003388   002061   001752   001505   001475                                      
480002300210012 01060 4113001INTER.D984-JALCRESTE0221020INTER.D907-FLORAC   0440660FLORAC_SUD          0380500020631020631480002500300000000000995      001784 1607    001185   001269   001461   001625   001872   002016   002450   003000   001908   001731   001451   001381               130017121 1547    120012701 1417    11      1         10      1         09      1         001154   001175   001358   001604   001952   001783   002354   002859   001885   001615   001400   001349                                      
480002300310012 01060 4113001INTER.D98-JALCRESTE 0221020INTER.D907-FLORAC   0440660FLORAC_SUD          0380500020631020631480002500300000000000995      003742 1527    002460   002661   003046   003447   003917   004186   005077   006472   003998   003616   003017   002891               130036121 1467    120026421 1387    11      1         10      1         09      1         002390   002456   002888   003372   004050   003769   005008   006247   003946   003367   002905   002824                                      
480002400110012 01060 4112001INTER.D907-FLORAC   0440660INTER.D907B         0510305FLORAC              0490000006245005698480002500300000000001287      001808  587    001564   001607   001658   001577   001724   001852   002331   003076   001922   001625   001403   001321               130017241  587    120017381  587    110017511  587    100017291  587    09      1         001146   001179   001325   001544   001732   001762   002499   003142   002024   001639   001393   001240                                      
480002400210012 01060 4112001INTER.D907-FLORAC   0440660INTER.D907B         0510305FLORAC              0490000006245005698480002500300000000001287      002056  787    001826   001871   001922   001845   001960   002123   002713   003225   002117   001889   001622   001527               130019711  817    120019951  797    110020161  807    100019511  767    09      1         001339   001403   001573   001821   001961   002061   002914   003305   002253   001903   001616   001439                                      
480002400310012 01060 4112001INTER.D907-FLORAC   0440660INTER.D907B-R.PERCEE0510305FLORAC              0490000006245005698480002500300000000001287      003864  697    003390   003478   003580   003422   003684   003975   005044   006301   004039   003514   003025   002848               130036951  707    120037331  697    110037671  707    100036801  687    09      1         002485   002582   002898   003365   003693   003823   005413   006447   004277   003542   003009   002679                                      
480000900110012 00880 4113001N102-ARDECHE        0000000INTERS.D906         0020000LANGOGNE            0010460002298000790480000900300000000000592      002666 1197    002229   002301   002468   002627   002823   002915   003271                                                            130024711 1107    120026831  947    110025101 1137    100024351 1117    09      1         001756   001470   001850   002172   002602   002624   003222   004293   002803   002247   002279   002242                                      
480000900210012 00880 4113001N102-ARDECHE        0000000INTERS.D906         0020000LANGOGNE            0010460002298000790480000900300000000000592      002528  967    002139   002213   002374   002520   002700   002740   002989                                                            130023921  877    120026371  727    110024341  917    100023661  907    09      1         001734   001450   001765   002110   002558   002525   002958   004227   002819   002142   002170   002154                                      
480000900310012 00880 4113001N102-ARDECHE        0000000INTERS.D906         0020000LANGOGNE            0010460002298000790480000900300000000000592      005194 1087    004368   004514   004842   005147   005523   005655   006260                                                            130048631  997    120053201  837    110049441 1027    100048011 1007    09      1         003490   002920   003615   004282   005160   005149   006180   008520   005622   004389   004449   004396                                      
480001900110012 00880 4113001CARR.RN106 BALSIEGES0580619CARR.RN108 BARJAC   0650751BALSIEGES           0590200006756006640480001900300000000001192      002046         002309   002411   002696   002962   003046   002814   000804   000287   000029   000928   001159   000766               130030351         120033061         110033751         100032661         09      1         002281   002420   002727   002958   002991   002825   004131   005008   003703   002292   002393   002628                                      
480001900210012 00880 4113001CARR.RN106 BALSIEGES0580619CARR.RN108 BARJAC   0650751BALSIEGES           0590200006756006640480001900300000000001192      002658         002266   002397   002377   002762   002914   003205   003078   003390   002868   002115   002034   002475               130021251         120027181         110031321         100031061         09      1         001453   001645   001155   001249   001398   003203   003763   003034   001425   002629   002456   002038                                      
480001900310012 00880 4113001CARR.RN106 BALSIEGES0580619CARR.RN108 BARJAC   0650751BALSIEGES           0590200006756006640480001900300000000001192      004704         004575   004808   005073   005724   005960   006019   003882   003677   002897   003043   003193   003241               130051601         120060241         110065071         100063721         09      1         003734   004065   003882   004207   004389   006028   007894   008042   005128   004921   004849   004666                                      
480002100110012 00880 4113001INTER.D31-CHANAC    0710883INTER.N9-AJUSTONS   0840280CHANAC              0740500011181011181480002500300000000001192      002336 1547    001548   001701   001918   002213   002441   002594   003081   003918   002523   002287   001921   001820               130022981 1417    120021871 1347    110022851 1367    100021961 1377    09      1         001464   001543   001842   002112   002470   002440   003120   003840   002452   002181   001918   002116                                      
480002100210012 00880 4113001INTER.D31-CHANAC    0710883INTER.N9-AJUSTONS   0840280CHANAC              0740500011181011181480002500300000000001192      002213 1437    001513   001636   001857   002078   002318   002478   002913   003500   002389   002202   001874   001744               130021811 1317    120020641 1257    110021361 1307    100020351 1307    09      1         001436   001497   001771   002032   002382   002306   002911   003385   002384   002101   001868   002025                                      
480002100310012 00880 4113001INTER.D31-CHANAC    0710883INTER.N9-AJUSTONS   0840280CHANAC              0740500011181011181480002500300000000001192      004549 1487    003061   003337   003775   004291   004759   005072   005994   007418   004912   004489   003795   003564               130044791 1377    120042511 1307    110044211 1337    100042311 1347    09      1         002900   003040   003613   004144   004852   004746   006031   007225   004836   004282   003786   004141                                      
480001800110012 00880 4113001EB20 MENDE          0530185CARR.RN106 BALSIEGES0580619MENDE-SUD           0550300005284005015480001900300000000000793      004484  977    003971   004226   004228   004698   004826   005174   004770   004461   004470   004563   004203   004214               130046581  967    120048051  987    110048791  997    100048691 1007    09      1         003927   003984   004250   004690   004967   005016   005635   005166   004600   004704   004319   004574                                      
480001800210012 00880 4113001EB20 MENDE          0530185CARR.RN106 BALSIEGES0580619MENDE-SUD           0550300005284005015480001900300000000000793      004185  847    003758   003978   004003   004369   004520   004757   004407   004154   004180   004195   003939   003962               130042941  827    120044421  807    110045481  817    100045031  837    09      1         003686   003747   003962   004215   004588   004694   005055   004628   004259   004348   004070   004223                                      
480001800310012 00880 4113001EB20 MENDE          0530185CARR.RN106 BALSIEGES0580619MENDE-SUD           0550300005284005015480001900300000000000793      008669  917    007729   008204   008231   009067   009346   009931   009177   008615   008650   008758   008142   008176               130089521  897    120092471  897    110094271  907    100093721  927    09      1         007613   007731   008212   008905   009555   009710   010690   009794   008859   009052   008389   008797                                      
480002300110012 01060 4113001INTER.D984-JALCRESTE0221020INTER.D907-FLORAC   0440660FLORAC_SUD          0380500020631020631480002500300000000000995      000949  917    000718   000760   000851   001007   001130   001188   001046   000964   000934   001052   000889   000847               130011391  927    120010601  887    110011351  867    100011001  917    09      1         000722   000723   000841   001031   001144   001178   001536   002060   001289   001098   000932   001067                                      
480002300210012 01060 4113001INTER.D984-JALCRESTE0221020INTER.D907-FLORAC   0440660FLORAC_SUD          0380500020631020631480002500300000000000995      000894 1117    000657   000689   000789   000957   001092   001167   001002   000909   000876   000981   000835   000767               130010741 1117    120009811 1097    110010721 1047    100010251 1037    09      1         000659   000660   000776   000984   001096   001140   001522   001887   001216   001004   000883   001019                                      
480002500110012 01060 4112001CARR.D907B          0510305ST BAUZILE D41      0730660FLORAC_NORD         0530900021847021847480002500300000000000995      000637 2017    000575   000642   000711   000702   000667   000662   000734   001108   000654   000459   000368   000354               130007241 1787    120005451 1777    110006591 1547    100006561 1587    09      1         000329   000352   000395   000501   000669   000664   001191   001672   000777   000740   000714   000635                                      
480002500210012 01060 4112001CARR.D907B          0510305ST BAUZILE D41      0730660FLORAC_NORD         0530900021847021847480002500300000000000995      000412 1957    000062   000064   000059   000393   000480   000620   000663   000813   000601   000452   000364   000352               130004851 2157    120005411 2167    110006591 1937    100006581 1937    09      1         000379   000400   000443   000540   000622   000638   000434   000862   000723   000266   000112   000393                                      
480002500310012 01060 4112001CARR.D907B          0510305ST BAUZILE D41      0730660FLORAC_NORD         0530900021847021847480002500300000000000995      001049 1997    000637   000706   000770   001095   001147   001282   001397   001921   001255   000911   000732   000706               130012091 1937    120010861 1967    110013181 1737    100013141 1757    09      1         000708   000752   000838   001041   001291   001302   001625   002534   001500   001006   000826   001028                                      
340001501110012 07500 4110201NORD GIGNAC         0320000A 75                0380625ST FELIX DE LODEZ   0370600006625006625340000500300000000000402      014049  727    011451   012213   013064   013186   012039   014334   017187   018677   014642   014903   012531   013015               130138961  747    120121351  747    110125191  727    10      1         09      1         010885   011464   012454   013778   014573   014838   016514   018227   014576   013940   012743   012531                                      
340001501310012 07500 4110201NORD GIGNAC         0320000A 75                0380625ST FELIX DE LODEZ   0370600006625006625340000500300000000000402      027176  737    022241   023506   024998   026131   025278   028234   032653   035188   028391   028218   024663   025090               130264981  747    120233851  737    110245581  727    100006591         09      1         021148   022121   023622   026418   027558   028119   031188   033885   027903   026943   024613   024064                                      
340001501210012 07500 4110201NORD GIGNAC         0320000A 75                0380625ST FELIX DE LODEZ   0370600006625006625340000500300000000000402      012759  767    011057   011617   009632   009636   009917   013223   016743   018062   014504   013712   012401   012450               130132711  747    120116761  747    110121781  737    10      1         09      1         010496   010944   011592   013250   013799   014100   015926   017190   014052   013448   012273   011977                                      
480500100210012 00750 1110241LIMITE CANTAL       1140527LA GARDE SUD        1160943ALBARET_MARI_F      1160700002416002416480500100300000000000592      007726 1497    003830   003840   004926   006169   007458   007933   009953   019170   008108   006221   007312   007371               130075521 1447    120084401 1427    110084501 1287    100082471 1277    09      1         004123   004016   005185   006979   009137   007586   010634   018519   008465   005943   004869   004756                                      
480500101310012 00750 2110201LA GARDE            1160700LA GARDE            1160700ALBARET_MARI_M      1160700000000000000480500100300000000000794      007727                  003841   004927   006170   007459            009954   009171   008109   006222                                 130078231 1447    120090481 1437    110095971 1317    100093841 1287    09      1         004436                              009154   007604   000635   008520            005944   004870   004757                                      
480500100310012 00750 1110241LIMITE CANTAL       1140527LA GARDE SUD        1160943ALBARET_MARI_M      1160700002416002416480500100300000000000592      014356 1407    007139   007545   009310   012350   014001   014898   020795   032572   014016   011506   013572   013830               130137831 1367    120146351 1347    110147111 1317    100142601 1307    09      1         007389   007425   009626   012911   015714   014375   022088   031449   014459   011077   008902   009227                                      
480500101210012 00750 2110201LA GARDE            1160700LA GARDE            1160700ALBARET_MARI_F      1160700000000000000480500100300000000000794      001193 1547    000475   000465   000630   000856   001071   001214   001667   003488   001244   000835   001097                        130011251 1547    120011731 1757    110011721 1417    100011661 1477    09      1         000461   000440   000578   000866   001198   001089   001872   003488   001361   000802   000622   000637                                      
480500800210012 00750 1110241ECH.40 BANASSAC     1720047LIMITE AVEYRON      1790296BANASSAC            1720100007249007249630501900300000000000199      005999 2107    004929   005063   005735   006396   008932                                                                              130069551 1827    120072461 1927    110090821 1817    100072191 1957    09      1         003657   003642   004756   006356   007391   006922   011203   017683   006800   004903   004880   004861                                      
480500801310012 00750 2111001ECH.40              0000000ECH.40              0010000BANASSAC            0000005001000001000630501900300000000000199      013618 1717    008373   008909   010701   012638   016593            000523   008938                                                   130072731 1867    120073531         110095691         100076741         09      1         003999                                                001204   007684            004910                                                        
480500800310012 00750 1110241ECH.40 BANASSAC     1720047LIMITE AVEYRON      1790296BANASSAC            1720100007249007249630501900300000000000199      008493 1897    008224   009144   008858   009469   011753                                                                              130139691 1627    120146231 1677    110175361 1567    100143391 1657    09      1         007169   007391   009744   013258   014859   014677   025316   033138   012721   009146   009724   009672                                      
480500801210012 00750 2111001A75                 0000000N9                  0010000BANASSAC            0000005001000001000630501900300000000000199                                                                                                                                             13      1         120001301         110006881         100006091         09      1                                                                                                                                                        
480500701210012 00750 2111001N9                  0000000A75                 0010000BANASSAC            0000005001000001000630501900300000000000199                                                                                                                                             13      1         120000991         110005421         100004691         09      1                                                                                                                                                        
480500700310012 00750 1110241ECH.39 LE MONASTIER 1610724ECH.40 BANASSAC     1720047ST GERMAIN DU TEIL  1670000010323010323630501900300000000000199                                                                           004651   007446                                                   13      1         120087711         110068251         10      1         09      1                                                               005313   006712                                                                          
480500701310012 00750 2111001ECH.40              0000000ECH.40              0010000BANASSAC            0000005001000001000630501900300000000000199                                                                                                                                             13      1         120001871         110009481         100008581         09      1                                                                                                                                                        
480500700210012 00750 1110241ECH.39 LE MONASTIER 1610724ECH.40 BANASSAC     1720047ST GERMAIN DU TEIL  1670000010323010323630501900300000000000199      008261 1347    004537   004653   005820   007113   008496   009041   011491   020030   009138   006919   005988   005497               130061641 1637    120082101 1217    110060271 1457    10      1         09      1         004291   004288   005427   007091   007966   006114   007239   007134   006375   006054   006327   005518                                      
150500200110012 00750 1110241MASSIAC NORD        0630988MASSIAC SUD         0680500MASSIAC             0670600004512004512          00000000001200      006241 1597    004979   005336   004844   007168   007568   008121   007475   007157   006012   006216   004669   005296               130073741 1497    120071861 1577    110073661 1797    100069061 1807    09      1         003478   003679   004951   006777   007637   007839   013696   015326   009246   005987   004422   005054                                      
150500200210012 00750 1110241MASSIAC NORD        0630988MASSIAC SUD         0680500MASSIAC             0670600004512004512          00000000001200      006185 1537    005159   005106   004904   006230   007464   008021   007459   007493   006022   006216   005096   004965               130073921 1447    120072011 1467    110073891 1557    100076101 1797    09      1         003689   003526   004646   006211   007999   007088   010553   018211   010608   006019   004962   004799                                      
150500200310012 00750 1110241MASSIAC NORD        0630988MASSIAC SUD         0680500MASSIAC             0670600004512004512          00000000001200      012426 1567    010138   010442   009748   013398   015032   016142   014934   014650   012034   012432   009765   010261               130147661 1467    120143871 1527    110147551 1677    100145161 1807    09      1         007167   007205   009597   012988   015636   014927   024249   033537   019854   012006   009384   009853                                      
150500300110012 00750 1110241MASSIAC SUD         0680500VIELLESPESSE        0840600SALBAS              0760300016100016100          000      01200      007484 1267    004096   004471   005232   006832   006815   007199   013776   016342   007251   006713   005025   005648               130074431 1387    120076091 1667    110062431 1757    10      1         09      1         003862   004062   005174   006710   006971   008140   013931   015937   007434   006428   004829   005427                                      
150500300210012 00750 1110241MASSIAC SUD         0680500VIELLESPESSE        0840600SALBAS              0760300016100016100          000      01200      002147 1107    000794   000702   000950   001326   001801   002145   004893   007185   002047   001476   001087   001150               130074961 1407    120076291 1467    110065171 1657    10      1         09      1         004105   003940   005097   006686   008491   007099   010722   018850   009107   005178   005108   005159                                      
150500300310012 00750 1110241MASSIAC SUD         0680500VIELLESPESSE        0840600SALBAS              0760300016100016100          000      01200      009631 1197    004890   005173   006182   008158   008616   009344   018669   023527   009298   008189   006112   006798               130149391 1397    120152381 1567    110127601 1707    10      1         09      1         007967   008002   010271   013396   015462   015239   024653   034787   016541   011606   009937   010586                                      
150500400110012 00750 1110241VIELLESPESSE        0840600ST FLOUR NORD       0920550ST FLOUR NORD ( M ) 0910400007950007950          000      01200      011129 1627    004249   004626   007273   011517   013478   010605   018530   022684   009685   011556   008964   009636               130063701 1387    120067941 1417    110062681 1707    10      1         09      1         004010   004193   005498   007362   007347   007434   009691   010517   002909   006569   005008   005602                                      
150500500110012 00750 1110241ST FLOUR NORD       0920550ST FLOUR SUD        0960300ST FLOUR ( M )      0930300003750003750          000      01200      006783 1737    003200   003534   004471   007501   006840   007436   012712   015007   006157   005465   004021   004670               130065021 1537    120065541 1577    110057271 2497    100033821 2107    09      1         003040   003200   004323   006144   006931   007263   012467   014517   006180   005265   003872   004423                                      
150500600110012 00750 1110241ST FLOUR SUD        0960300LIMITE LOZERE       1140610LOUBARESSE          1120800018310018310          000      01294      007240 1707    003656   004054   004841   006991   007432   008024   013317   015787   006766   005954   004514   005155               130067281 1457    120072611 1477    110078311 1597    100037631 1867    09      1         003515   003698   004868   006710   005882   007079   013783   012852   006863   005805   004377   004952                                      
150500600210012 00750 1110241ST FLOUR SUD        0960300LIMITE LOZERE       1140610LOUBARESSE          1120800018310018310          000      00300      007302 1867    003817   003827   004901   006139   007413   007892   010289   018926   008059   006191   004872   004893               130069551 1587    120072661 1537    110080001 1687    100038891 1937    09      1         003652   003560   004595   006157   005347   006314   013137   017184   008438   005908   004831   004736                                      
150500600310012 00750 1110241ST FLOUR SUD        0960300LIMITE LOZERE       1140610LOUBARESSE          1120800018310018310          000      00300      014542 1787    007473   007881   009742   013130   014845   015916   023606   034713   014825   012145   009386   010048               130136831 1527    120145271 1507    110158311 1647    100076521 1897    09      1         007167   007258   009463   012867   011229   013393   026920   030036   015301   011713   009208   009688                                      
150500400210012 00750 1110241VIELLESPESSE        0840600ST FLOUR NORD       0920550ST FLOUR NORD ( F ) 0910400007950007950          000      01200      008191 1537    004370   004284   007089   008514   007942   008567   010880   019618   008726   006920   005554   005402               130077491 1417    120077191 1407    11      1         100042751 1797    09      1         004133   003965   005120   006711   008521   007657   011153   018948   009074   006543   005466   005264                                      
150500400310012 00750 111 241VIELLESPESSE        0840600ST FLOUR NORD       0920550ST FLOUR NORD       0910400007950007950                    1200      019320 1587    008619   008910   014362   020031   021420   019172   029410   042302   018411   018476   014518   015038               130141191 1397    120145131 1407    11      1         10      1         09      1         008143   008158   010618   014073   015868   015091   020844   029465   011983   013112   010474   010866                                      
150500500210012 00750 1110241ST FLOUR NORD       0920550ST FLOUR SUD        0960300ST FLOUR ( F )      0930300003750003750          000      01200      005178 1717    003391   003345   005607   006616   006938   006817   006685   006535   004399   004038   003815   003807               130066001 1527    120065571 1877    11      1         100033051 2067    09      1         003218   003079   004097   005640   007383   006509   009958   017555   007321   005388   004393   004231                                      
150500500310012 00750 111 241ST FLOUR NORD       0920550ST FLOUR SUD        0960300ST FLOUR            0930300003750003750                    1200      011961 1727    006591   006879   010078   014117   013778   014253   019397   021542   010556   009503   007836   008477               130131021 1527    120131111 1697    11      1         100066871 2087    09      1         006258   006279   008420   011784   014314   013772   022425   032072   013501   010653   008265   008654                                      
150001900110012 01220 4113001NEUSSARGUES-MOISSAC 1100900MASSIAC CARF.RN 9   1360144LA ROCHE            1330000025244025244          000      31294      001696 1297    001603   001649   001789   001681   001729   001906   001720   001697   001684   001787   001580   001523               130017271 1327    120017561 1357    110018081 1507    100018221 1737    09      1         001456   001555   001725   001658   001774   001812   001903   002263   001853   001736   001493   001479                                      
150001900210012 01220 4113001NEUSSARGUES-MOISSAC 1100900MASSIAC CARF.RN 9   1360144LA ROCHE            1330000025244025244          000      31294      001739 1337    001660   001711   001772   001760   001781   001920   001770   001734   001715   001858   001570   001613               130017571 1377    120017701 1367    110018281 1387    100018351 1377    09      1         001399   001618   001749   001672   001783   001870   002044   002223   001837   001795   001523   001552                                      
150001900310012 01220 4113001NEUSSARGUES-MOISSAC 1100900MASSIAC CARF.RN 9   1360144LA ROCHE            1330000025244025244          00000000031294      003435 1317    003263   003360   003561   003441   003510   003826   003490   003431   003399   003645   003150   003136               130034841 1357    120035261 1367    110036361 1447    100036571 1567    09      1         002855   003173   003474   003330   003557   003682   003947   004486   003690   003531   003016   003031                                      
150001700110012 01220 4113 51TUNNEL DU LIORAN    0880000MURAT               1010850LA GRANGE DE GANILH 09708500138500138500000000000          1200      002955  987    002498   003025   003143   002734   002812   002963   003151   003786   002997   002945   002863   002542               130028921 1037    120029151 1057    110030061 1057    100029641 1037    09      1         002465   002922   003027   002581   002729   002893   003245   003815   002960   002856   002584   002614                                      
150001700210012 01220 4113 51TUNNEL DU LIORAN    0880000MURAT               1010850LA GRANGE DE GANILH 09708500138500138500000000000          1200      002970  957    002479   003068   003132   002767   002861   002966   003244   003753   003017   002958   002854   002538               130029081 1047    120029281 1077    110030081 1067    100029931 1037    09      1         002471   002967   003034   002606   002726   002911   003324   003794   002939   002904   002570   002637                                      
150001700310012 01220 4113 51TUNNEL DU LIORAN    0880000MURAT               1010850LA GRANGE DE GANILH 09708500138500138500000000000          1200      005925  977    004977   006093   006275   005501   005673   005929   006395   007539   006014   005903   005717   005080               130058001 1037    120058431 1067    110060141 1067    100059571 1037    09      1         004936   005889   006061   005187   005455   005804   006569   007609   005899   005760   005154   005251                                      
150001500110012 01220 4113001BANCOU              0530380VIC SUR CERE        0680800MEYMAC              06202000154200154200000000000000      01287      003877  867    003410   003829   003981   003820   003753   004058   004047   004460   004035   003970   003583   003576               130037511  857    120038471  877    110039461  907    100039361  857    09      1         003308   003610   003841   003658   003731   003968   004150   003931   003726   003859   003498   003696                                      
150001500210012 01220 4113001BANCOU              0530380VIC SUR CERE        0680800MEYMAC              06202000154200154200000000000000      01287      003869  887    003418   003837   003993   003829   003723   004026   004077   004390   004012   003976   003585   003553               130037541  897    120038451  907    110039391  937    100039251  887    09      1         003318   003590   003876   003671   003717   003955   004169   003938   003725   003871   003483   003698                                      
150001500310012 01220 4113001BANCOU              0530380VIC SUR CERE        0680800MEYMAC              06202000154200154200000000000000      01287      007746  877    006828   007666   007974   007649   007476   008084   008124   008850   008047   007946   007168   007129               130075051  877    120076921  897    110078851  927    100078611  867    09      1         006626   007200   007717   007329   007448   007923   008319   007869   007451   007730   006981   007394                                      
150001200110012 01220 4113001MAURS               0050100LE ROUGET CARF.CD 200270800LE MARTINET         01507000227000227001500015003000      01294      001914  997    001715   001768   001912   001950   001967   001944   001955   001957   001949   001962   001937   001938               130017961  977    120017981  947    110018591  967    100018991         09      1         001512   001637   001760   001764   001806   001617   002121   002285   001841   001861   001651   001665                                      
150001200210012 01220 4113001MAURS               0050100LE ROUGET CARF.CD 200270800LE MARTINET         01507000227000227001500015003000      01294      001914 1357    001694   001755   001897   001954   001972   001948   001959   001962   001953   001969   001947   001947               130018011 1347    120018071 1297    110018301 1257    100018761         09      1         001495   001625   001718   001738   001858   001872   002063   002261   001809   001858   001633   001657                                      
150001200310012 01220 4113001MAURS               0050100LE ROUGET CARF.CD 200270800LE MARTINET         01507000227000227001500015003000      01294      003828 1177    003409   003523   003809   003904   003939   003892   003914   003919   003902   003931   003884   003885               130035971 1157    120036051 1127    110036891 1107    100037751         09      1         003007   003262   003478   003502   003664   003489   004184   004546   003650   003719   003284   003322                                      
070003300110012 01020 4113001CAR CD536           0530729MAYRES              0680187THUEYTS           B 0600000014317014317070003300300000000000188      002662 1177    001522   001661   001929   002454   002866   003125   003738   005102   002999   002698   002001   001745               130029141 1257    120026881 1197    110027011 1197    100026461 1177    09      1         001486   001541   001874   002395   002863   002963   003759   005107   003262   005533   001915   002104                                      
070003300210012 01020 4113001CAR CD536           0530729MAYRES              0680187THUEYTS           B 0600000014317014317070003300300000000000188      002668 1137    001552   001682   001951   002513   002882   003130   003901   004917   002966   002661   002035   001731               130029271 1207    120026961 1127    110027071 1117    100026401 1067    09      1         001514   001556   001881   002482   002831   003051   003956   004920   003211   005456   001953   002144                                      
070003300310012 01020 4113001CAR CD536           0530729MAYRES              0680187THUEYTS           B 0600000014317014317070003300300000000000188      005330 1157    003074   003343   003880   004967   005748   006255   007639   010019   005965   005359   004036   003476               130058411 1227    120053841 1167    110054081 1157    100052861 1117    09      1         003000   003097   003755   004877   005694   006014   007715   010027   006473   010989   003868   004248                                      
070003500110012 01020 4113001CARD108             0840161LIMIT43             0941069PEREBEILLE          0940000011024011024          00000000000101      001797 1357    000949   001004   001276   001575   001938   002128   002547   003979   001999   001679   001278   001129               130015771 1447    120018531 1357    110016131 1467    10      1         09      1         000917   000924   001191   001540   001986   001964   002282   002116   001561   001624   001258   001500                                      
070003500210012 01020 4113001CARD108             0840161LIMIT43             0941069PEREBEILLE          0940000011024011024          00000000000101      001783 1497    000946   001008   001280   001634   001954   002120   002711   003715   001916   001641   001271   001116               130016231 1587    120018531 1477    110015811 1557    10      1         09      1         000921   000931   001207   001602   001936   002041   002490   002253   001590   001617   001276   001546                                      
070003500310012 01020 4113001CAR CD108           0840161LIMITE DEPT43       0941069PEYRABEILLE       B 0890400011024011024          00000000000188      003580 1427    001895   002012   002556   003209   003892   004248   005258   007694   003915   003320   002549   002245               130032001 1517    120037061 1417    110031941 1507    10      1         09      1         001838   001855   002398   003142   003922   004005   004772   004369   003151   003241   002534   003046                                      
070003200110012 01020 4113001CARD578             0440616CARD536             0530729LALEVADE            0470000009115009115070003300300000000000105      006246  597    004825   005194   005472   006246   006469   006912   007676   008649   005841   005879   005786   005899               130062091  597    120062651  627    110062721  627    100056511  657    09      1         004767   004871   005341   005902   006477   006716   007923   008941   006000   005991   005518   005909                                      
070003200210012 01020 4113001CARD578             0440616CARD536             0530729LALEVADE            0470000009115009115070003300300000000000105      006341  617    004874   005206   005505   006298   006498   006984   007855   009159   005891   005913   005834   005951               130062771  617    120062941  637    110062991  647    100056791  657    09      1         004827   004897   005339   006022   006470   006825   008122   008974   006076   006050   005571   005994                                      
070003200310012 01020 4113001CARD578             0440616CARD536             0530729LALEVADE            0470000009115009115070003300300000000000105      012587  607    009699   010400   010977   012544   012967   013896   015531   017808   011732   011792   011620   011850               130124861  607    120125591  627    110125711  637    100113301  657    09      1         009594   009768   010680   011924   012947   013541   016045   017915   012076   012041   011089   011903                                      
430000600110012 00880 4113001ECHANGEUR.RD47      0160000ECHANGEUR.RD103     0350835BAL DES NEIGES      0230700019835019835          000      01100      007328  947    006340   006813   007190   007845   007786   008159   008149   007289   007248   007320   007053   006725               130073111  917    120074111  947    110067771  287    100070191  277    09      1         006093   006117   006967   007223   007406   007856   008607   008336   007736   007631   006581   007073                                      
430002000110012 01020 4113001CARREF.RD513        0560300VIEILLE-BRIOUDE     0740550LA LOCANDA          0640050018450018450430002000300000000001193      004395 1397    003466   003699   003998   004320   004451   004677   004957   006126   004797   004514   003977   003701               130044421 1397    120044641 1397    110047361 1367    10      1         09      1         003360   003403   003882   004281   004516   004722   005869   006316   004649   004222   004000   003981                                      
430002000210012 01020 4113001CARREF.RD513        0560300VIEILLE-BRIOUDE     0740550LA LOCANDA          0640050018450018450430002000300000000001187      004375 1347    003422   003704   003957   004376   004481   004684   005133   005880   004704   004481   003918   003702               130044111 1357    120044131 1377    110046541 1317    10      1         09      1         003306   003392   003908   004312   004668   004782   005753   005851   004575   004249   004043   003997                                      
430002000310012 01020 4113001CARREF.RD513        0560300VIEILLE-BRIOUDE     0740550LA LOCANDA          0640050018450018450430002000300000000001193      008770 1367    006888   007403   007955   008696   008932   009361   010090   012006   009501   008995   007895   007403               130088531 1377    120088771 1387    110093901 1347    10      1         09      1         006666   006795   007790   008593   009184   009504   011622   012167   009224   008471   008043   007978                                      
430000600210012 00880 4113001ECHANGEUR.RD47      0160000ECHANGEUR.RD103     0350835BAL DES NEIGES      0230700019835019835          000      01187      007222 1007    006336   006722   007149   007613   007602   008322   007785   007150   007169   007183   007007   006614               130070851 1007    120072411  997    110074101 1027    100071911 1027    09      1         006166   006101   006769   007176   007360   007774   008147   007305   007127   007403   006623   006983                                      
430000600310012 00880 4113001ECHANGEURD47        0160000ECHANGEUR.RD103     0350835BAL DES NEIGES      0230700019835019835          000      00500      014550  977    012676   013535   014339   015458   015388   016481   015934   014439   014417   014503   014060   013339               130143961  957    120146521  977    110141871  957    100142101  927    09      1         012259   012218   013736   014399   014766   015630   016754   015641   014863   015034   013204   014056                                      
630501000110012 00750 1110241Carf.RD978          0140634Carf.RD 797C        0180582AUTHEZAT            0170000004115004115630501000100000000001299      039378  977    031247   036258   032604   038965   037864   041112   051584   053728   038362   028480   019526   019773               130350911  987    120376681 1007    110381851 1017    100335231 1227    09      1         028024   029048   032269   032963   031604   036385   046213   048197   036291   036952   031040   032678                                      
630501000210012 00750 1110241Carf.RD978          0140634Carf.RD797C         0180582AUTHEZAT            0170000004115004115630501000100000000001299      040598 1057    033118   037777   033727   037691   038252   041646   045317   060346   041945   035333   019754   019971               130364611 1037    120376211 1067    110378861 1077    100344671 1227    09      1         029297   029087   031817   033887   036678   035215   041001   055971   040645   037560   033241   032883                                      
630501000310012 00750 1110241Carf.RD978          0140634ECHANGEUR COUDES N80180582AUTHEZAT            0170000004115004115630501000100000000001299      079976 1017    064365   074035   066331   076656   076116   082758   096901   114074   080307   063813   039280   039744               130715521 1017    120752891 1037    110760711 1047    100679901 1227    09      1         057321   058135   064086   066850   068282   071600   087214   104168   076936   074512   064281   065561                                      
630501800310012 00750 1110241Carf. RD76          0450600LIMITE Hte LOIRE    0490000NORD DE LEMPDES     0470000003400003400          43000000011299      006858  707    003805   007287   001972   003255   003117   003735   008584   018789   010796   007004   007027   006878               130110661  997    120105471  977    110111241  827    100116061  877    09      1         007951   008410   010268   012126   013192   012445   013105   015939   013296   008459   008864   008565                                      
630501800110012 00750 1110241Carf.RD76           0450600LIMITE Hte LOIRE    0490000NORD DE LEMPDES     0470000003400003400          43000000011299      011451  827    007547   008776                                                018818   010787                                          130121731 1037    120110041  947    110127251 1117    100123951  887    09      1         007950   008409   010266   012116   013192   013362   025631   017706   013287   009013   009300   009009                                      
630501800210012 00750 1110241Carf.RD76           0450600LIMITE Hte LOIRE    0490000NORD DE LEMPDES     0470000003400003400          43000000011299      013279  477    008973   008971   009811   011811   012784   013870            024379   014076                                          130127901  487    120124961 1097    110128161 1107    100126021 1277    09      1         008863   008786   009709   011571   011193   012820   019010   023471   015272   011992   012315   012327                                      
630501900110012 07110 1110241Carf.N89            0000000INTER A72           0060410SORTIE EST          0040000005056005056          00000000001299      040479  607    024647   043028   009993   011777   014569   012628   009898   022726   019781   022059   016959   016480               130450461  537    120452671  537    110444331  537    10      1         09      1         043147   043403   044495   044540   042400   048212   045322   040781   047484   050663   045674   044462                                      
630501900210012 07110 1110241Carf.RN 89          0000000Carf.A72            0060410SORTIE EST          0040000005056005056          00000000001299      054852  887    054386   062648   058760   048678   028467   036689   021853   021376   023085   023493   022116                        130429651  517    120421791  517    110408841  537    10      1         09      1         041991   042002   043347   043588   040703   044718   043724   037152   044749   047163   042999   043480                                      
630501900310012 07110 1110241Carf.RN 89          0000000Carf. A 72          0060410SORTIE EST          0040000005056005056          00000000001299      095331  777    079033   105676   068753   060455   043036   049317   031751   044102   042866   045552   039075   006481               130880111  527    120874461  527    110853171  537    10      1         09      1         085138   085405   087842   088128   083103   092930   089046   077933   092233   097826   088673   087942                                      
630500600110012 00750 1150241Ech 1               0020000Carf RD 137         0040810AUBIERE             0020350002810002810630501000100000000001299      030715  907    028768   030602   030527   033585   029993   029724   035495   035145   026520   028903   029126   030054               130319001  887    120323361  887    110320011  887    100308101  877    09      1         027940   029022   030820   032211   031168   033992   038778   035291   033052   032582   027989   029667                                      
630500600310012 00750 1150241Ech 1               0020000Carf.RD137          0040810AUBIERE             0020350002810002810630501000100000000001299      046210 1007    038165   040505   042981   048955   048019   049324   060280   058631   039747   043161   041358   042354               130491521 1057    120489161 1137    110476991 1017    100466921 1207    09      1         036687   038291   042500   048042   050112   052509   066243   074127   052178   046914   039554   041471                                      
630500600210012 00750 1150241Ech 1               0020000Carf.RD 137         0040810AUBIERE             0020350002810002810630501000100000000001299      093532  837    086073   088358   090380   096284   091217   096785   100022   116116   093566   087937   087435   087696               130943751  827    120952731  687    110942811  817    100935191  687    09      1         083307   084353   089322   093776   094366   096934   105727   115161   101058   095583   085242   086684                                      
630500800110012 00750 1110241Carf.RD 978         0060210Carf.RD213          0090956noviale             0060500003888003888630501000100000000001299      052164  787    044353   047452   047870   053650   051077   055086   065224   064833   052414   049003   046348   048163               130517191  787    120640441  857    110571491  837    100511791  597    09      1         042432   044520   048198   051120   052583   055157   066385   064617   050010   051903   045257   047580                                      
630500800210012 00750 1110241Carf.RD978 N4      0060210ECHANGEUR D213 N5  0090956NOVIALE             0060500003888003888630501000100000000001299      051236  817    044206   045055   047484   050838   049998   054090   057248   069760   054268   048797   046360   046149               130506001  817    120479041  777    110471891  817    100505481  827    09      1         042259   042892   046432   049535   051114   052186   058355   068461   052499   050483   046502   045681                                      
630500800310012 00750 1110241Carf.RD978          0060210Carf.RD213          0090956NOVIALE             0060500003888003888630501000100000000001299      103400  807    088559   092507   095354   104488   101075   109176   122472   134593   106682   097800   092708   094312               131023191  807    121119481  827    111043381  827    101017271  737    09      1         084691   087412   094630   100655   103697   107343   124740   133078   102509   102386   091759   093261                                      
630501300110012 00750 1110241Carf RD 9           0300000Carf. RD 996        0310000ORBEIL              0310000001120001120630501300100000000001299      027991 1047    019860   022294   022935   027959   027924   029981   040146   044565   027420   026618   022337   023156               130270801 1027    120277331 1097    110347981 1217    100334061 1197    09      1         021180   020023   023414   028493   023027   025751   041589   043432   027322   026399   021182   022713                                      
630501300210012 00750 1110241Carf RD 9           0300000Carf. RD 996        0310000ORBEIL              0310000001120001120630501300100000000001299      026993  977    019344   019832   022418   025532   027302   030202   033744   044487   030262   026618   022871   021766               130336601 1037    120217931 1197    110270491 1217    100261561 1237    09      1         018429   018076   021755   031532   046696   050832   050660   059098   038455   023992   021944   021322                                      
630501300310012 00750 1110241Carf RD 9           0300000Carf. RD 996        0310000ORBEIL              0310000001120001120630501300100000000001299      054984 1027    039204   042126   045353   053491   055226   060183   073890   089052   057682   053236   045208   044922               130607401 1027    120495261 1147    110618471 1217    100595621 1217    09      1         039609   038099   045169   060025   069723   076583   092249   102530   065777   050391   043126   044035                                      
630500501110012 0A750 1150241A 71                0000000Voie ferre         0010000LA POUDRIERE        0000845001000001000630501000100000000000408      031117  937    030441   032296   032214   035001   030637   028255   034992   035768   023361   027983   030460   031872               130335641  907    120341191  877    110328751  877    100319261  867    09      1         030191   031125   032952   034427   032684   035694   039957   036129   034546   034395   028886   031518                                      
630500501210012 0A750 1150241A 71                0000000Voie ferre         0010000LA POUDRIERE        0000845001000001000630501000100000000000408      030569  977    028975   030149   030781   032563   030004   031512   031974   037850   028192   026056   029291   029418               130321321  957    120329891  957    110319861  897    100312271  837    09      1         029098   029526   031297   032679   031723   032533   035663   038283   034394   032667   028213   029231                                      
630500501310012 0A750 1150241A 71                0000000Voie ferre         0010000LA POUDRIERE        0000845001000001000630501000100000000000408      061686  957    059416   062445   062995   067564   060641   059767   066966   073618   051553   054039   059751   061290               130656961  927    120671081  917    110648611  887    100631531  847    09      1         059289   060651   064249   067106   064407   068227   075620   074412   068940   067062   057099   060749                                      
630500502110012 0A750 1150241Voie ferre         0010000Ech 1               0020000LA PARDIEU          0010547001000001000630501000100000000000408      023795 1067    022435   024127   024147   026885   023689   021751   028066   029541   017303   021375   022686   023360               130256751 1027    120260521  987    110258181 1007    100239141  977    09      1         021924   022953   024529   026003   024974   027483   032559   030025   026576   025975   021581   023219                                      
630500502310012 0A750 1150241Voie ferre         0010000Ech 1               0020000LA PARDIEU          0010547001000001000630501000100000000000408      054364 1017    051410   054276   054928   059448   053693   053263   060040   067391   045495   047431   051977   052778               130578071  987    120590411  967    110578041  947    100551411  897    09      1         051022   052479   055826   058682   056697   060016   068222   068308   060970   058642   049794   052450                                      
630500502210012 0A750 1150241Voie ferre         0010000Ech 1               0020000LA PARDIEU          0010547001000001000630501000100000000000408      024567 1037    022663   023654   024238   026113   024269   025543   026055   032760   022951   020525   023095   022832               130258011  997    120264311  907    110260301  917    100253881  887    09      1         022574   022972   024555   025797   025598   026178   029692   033187   028036   025857   022162   022700                                      
630500700110012 00750 1110241Carf.RD 137         0040810Carf.RD978          0060210LES LITTES          0050500001437001437630501000100000000001299      033202  687    030317   032073   031335   034612   032505   033907   038884   037883   031858   032439   030707   031739               130328921  647    120332111  637    110327761  637    100320831  617    09      1         028425   029451   031153   032901   032564   034963   040062   037407   032939   033517   029829   031129                                      
630500701110012 00750 2110201Carf.RD 137         0040810Carf.RD978          0060210LES LITTES          00505000014370014376305010001000      01299      007753  577    007893   008124   008449   008644   007499   007672   007232   005877   007912   007966   008082   007761               130077691  587    120078471  567    110076221  547    100072151  547    09      1         007893   007996   008149   007890   007518   008247   007327   005755   008996   008273   007642   007622                                      
