800500300310016 00280 1117031ECHA RD 29          0170042SEINE/MAR           0280611BOUTTENCOURT        0270505011554011554          00000000000796      000000                                                                                                                                 150080871 3337    140118631 3017    130087491 3247    120000001         110000001                  004284   009094   005453   011265   009695                                                                                            
800500300210016 00280 1117031ECHA RD 29          0170042SEINE/MAR           0280611BOUTTENCOURT        0270505011554011554          00000000000796      000000                                                                                                                                 150040831 3377    140059601 3097    130044191 3357    120000001         110000001                  002154   004459   002742   006048   004907                                                                                            
800500300110016 00280 1117031ECHA RD 29          0170042SEINE/MAR           0280611BOUTTENCOURT        0270505011554011554          00000000000796      000000                                                                                                                                 150040041 3307    140059031 2937    130043301 3127    120058511 2507    110057651                  002130   004635   002711   005217   004788                                                                                            
800500200310016 00280 1117031ECHA RD928          0100360ECHA RD 29          0170042BEHEN               0100671006690006690          00000000000796      000000                                                                                                                                 150000001         140107261 2317    130107421 2817    120114831 2617    110123461                                                                                                                                                        
800500200210016 00280 1117031ECHA  RD928HEN      0100360ECHA  RD 29         0170042BEHEN               0100671006690006690          00000000000796      000000                                                                                                                                 150000001         140053741 2247    130053251 3077    120057341 2637    110062771                                                                                                                                                        
800500200110016 00280 1117031ECHA RD928HEN       0100360ECHA  RD 29         0170042BEHEN               0100671006690006690          00000000000796      000000                                                                                                                                 150000001         140053521 2417    130054171 2537    120057491 2587    110060691 4627                                                                                                                                                   
800500101310016 00280 1817031ECHA RD925          0040245ECHA RD928          0100360MONT CAUBERT        0070006006095006095800500200300000000000202      000000                                                                                                                                 150000008         140000008         130000008         120120498         110125238                                                                                                                                                        
800500101210016 00280 1817031ECHA RD925          0040245ECHA RD928          0100360MONT CAUBERT        0070006006095006095800500200200000000000202      000000                                                                                                                                 150000008         140000008         130000008         120060018         110063138                                                                                                                                                        
800500101110016 00280 1817031ECHA RD925          0040245ECHA RD928          0100360MONT CAUBERT        0070006006095006095800500200100000000000202      000000                                                                                                                                 150000008         140000008         130000008         120060488         110062108                                                                                                                                                        
800500100310016 00280 1117031ECHA  RD 40         0010695ECHA  RD925         0040245ABBEVILLE           0020650002543002543800500200100000000001291      000000                                                                                                                                 150000001         140000001         130237571 2967    120141421 2637    110133731 2937                                                                                                                                                   
800500100210016 00280 1117031ECHA RD40           0010695ECHA  RD925         0040245ABBEVILLE           0020650002543002543800500200100000000001291      000000                                                                                                                                 150000001         140000001         130177791 2987    120073281 2617    110070041 2967                                                                                                                                                   
800500100110016 00280 1117031ECHA RD 40          0010695ECHA RD925          0040245ABBEVILLE           0020650002543002543800500200100000000001291      000000                                                                                                                                 150000001         140000001         130059781 2947    120068141 2667    110063691 2907                                                                                                                                                   
800500000310016 00280 1817031RN1                 0000000ECHA RD 40          0010695GR-LAVIERS          0010000001932001932800500100300000000000796      000000                                                                                                                                 150000008         140000008         130000008         120140378         110146058                                                                                                                                                        
800500000210016 00280 1817031RN1                 0000000ECHA RD 40          0010695GR-LAVIERS          0010000001932001932800500100200000000000796      000000                                                                                                                                 150000008         140000008         130000008         120070498         110067558                                                                                                                                                        
800500000110016 00280 1817031RN 1                0000000ECHA RD 40          0010695GR-LAVIERS          0010000001932001932800500100100000000000796      000000                                                                                                                                 150000008         140000008         130000008         120069888         110078508                                                                                                                                                        
760510010310016 03380 4140201petit quevilly      0050850petit quevilly      0070940petit quevilly      0061000002940002940800500100176000000010600      000000                                                                                                                                 150738131    7    140767331    7    130744221    7    120777961 1277    110000001         074869   078352   080154   081311   077346   048839   043129   069519   082034   079636   079095   078429                                      
760510010210016 03380 4140201petit quevilly      0050850petit quevilly      0070940petit quevilly      0061000002940002940800500100176000000010600      000000                                                                                                                                 150354731    7    140390171    7    130372951    7    120410971    7    110000001         038943   040708   041455   042000   039471   008980   003967   034646   042044   040832   040761   040141                                      
760510010110016 03380 4140201petit quevilly      0050850petit quevilly      0070940petit quevilly      0061000002940002940800500100176000000010600      037453 0677    037237   038693   039191   038660   037075   038462   035886   033875   038261   038521   037144   036597               150383401    7    140377161    7    130371271 1037    120366991 2017    110000001         035926   037644   038699   039311   037875   039859   039162   034873   039990   038804   038334   038288                                      
760501700310016 00280 1110241ECH RD919           0830650ECH FIN A28         0970387Quincampoix         0900000013737013737800500100100000000000193      027970 1657    024340   025626   026887   028429   027860   030341   031364   029985   029459   028093   026659   026541               150269931 1607    140226631 1157    130187461    7    120236951 1317    110272221 1647    023317   024913   025659   028163   026227   028250   029972   028729   028684   027597   026456   026008                                      
760501700210016 00280 1110241ECH RD919           0830650ECH FIN A28         0970387Quincampoix         0900000013737013737800500100100000000000193      014052 1657    012263   012825   013417   014331   013871   015233   015080   015505   015046   014195   013504   013333               150135291 1627    140114541 1227    130092821    7    120117301 1337    110135871 1647    011663   012450   012748   014067   013313   014286   014487   014798   014487   013932   013310   013027                                      
760501700110016 00280 1110241ECH RD919           0830650ECH FIN A28         0970387Quincampoix         0900000013737013737800500100100000000000193      013918 1657    012077   012801   013470   014098   013989   015108   016284   014480   014413   013898   013155   013208               150134641 1597    140112091 1087    130094641    7    120119651 1297    110136351 1647    011654   012463   012911   014096   012914   013964   015485   013931   014197   013665   013146   012981                                      
760501601310016 00280 1810241                    0800000ECH RD 919          0830650Rocquemont          0800000003650003650760501500300000000000193      000000                                                                                                                                 150000008         140000008         130000008         120000008         110000008                                                                                                                                                        
760501601210016 00280 1810241                    0800000ECH RD 919          0830650Rocquemont          0800000003650003650760501500200000000000193      000000                                                                                                                                 150000008         140000008         130000008         120000008         110000008                                                                                                                                                        
760501601110016 00280 1810241                    0800000ECH RD 919          0830650Rocquemont          0800000003650003650760501500100000000000193      000000                                                                                                                                 150000008         140000008         130000008         120000008         110000008                                                                                                                                                        
760501600310016 00280 1810241ECH PUCHEUIL        0750000                    0800000Bosc-Bérenger       0800000005000005000760501500300000000000193      000000                                                                                                                                 150000008         140000008         130000008         120000008         110000008                                                                                                                                                        
760501600210016 00280 1810241ECH PUCHEUIL        0750000                    0800000Bosc-Bérenger       0800000005000005000760501500200000000000193      000000                                                                                                                                 150000008         140000008         130000008         120000008         110000008                                                                                                                                                        
760501600110016 00280 1810241ECH PUCHEUIL        0750000                    0800000Bosc-Bérenger       0800000005000005000760501500100000000000193      000000                                                                                                                                 150000008         140000008         130000008         120000008         110000008                                                                                                                                                        
760501500310016 00280 1110241ECH LES HAYONS      0650450ECH PUCHEUIL        0750000Maucomble           0670000009550009550760501500100000000000193      000000                                                                                                                                 150291271 2527    140293851 2467    130260971 2577    120011971         110000001         022192   024733   025563   030671   031502   031520   037616   036678   030326   028270   025910   025434                                      
760501500210016 00280 1110241ECH LES HAYONS      0650450ECH PUCHEUIL        0750000Maucomble           0670000009550009550760501500100000000000193      000000                                                                                                                                 150145871 2537    140146791 2507    130137471 2517    120111961 3017    110000001         011202   012292   012790   015130   015797   015679   017694   019323   015423   013800   013044   012785                                      
760501500110016 00280 1110241ECH LES HAYONS      0650450ECH PUCHEUIL        0750000Maucomble           0670000009550009550760501500100000000000193      015287         011534   012832   013753   015385   015683   016688   020690   018776   015161   014429   013035                        150145401 2507    140147061 2397    130123501 2637    120000001         110000001         010990   012441   012773   015541   015705   015841   019922   017355   014903   014470   012866   012649                                      
760501400310016 00280 1810241ESCLAVELLES         0600000ECHANGEUR HAYONS    0650450Esclavelles         0630000005450005450760501500300000000000193      000000                                                                                                                                 150000008         140000008         130000008         120000008         110000008                                                                                                                                                        
760501400210016 00280 1810241ESCLAVELLES         0600000ECHANGEUR HAYONS    0650450Esclavelles         0630000005450005450760501500200000000000193      000000                                                                                                                                 150000008         140000008         130000008         120000008         110000008                                                                                                                                                        
760501400110016 00280 1810241ESCLAVELLES         0600000ECHANGEUR HAYONS    0650450Esclavelles         0630000005450005450760501500100000000000193      000000                                                                                                                                 150000008         140000008         130000008         120000008         110000008                                                                                                                                                        
760501300310016 00280 1810241NEUFCHATEL CD 928   0550000NEUFCHATEL          0600000NEUFCHATEL          0590700005000005000760501500300000000000288      000000                                                                                                                                 150000008         140000008         130000008         120000008         110000008                                                                                                                                                        
760501300210016 00280 1810241NEUFCHATEL CD 928   0550000NEUFCHATEL          0600000NEUFCHATEL          0590700005000005000760501500200000000000288      000000                                                                                                                                 150000008         140000008         130000008         120000008         110000008                                                                                                                                                        
760501300110016 00280 1810241NEUFCHATEL CD 928   0550000NEUFCHATEL          0600000NEUFCHATEL          0590700005000005000760501500100000000000193      016109                                                                                                                                 150000008         140000008         130000008         120000008         110000008                                                                                                                                                        
760501200310016 00280 1110241CALLENGEVILLE       0430900NEUFCHATEL NORD     0550000Callengeville       0450000011100011100760501500100000000000193      000000                                                                                                                                 150121431 2827    140123521 2757    130119961 2657    120123101 2647    110124411 2857    009252   010347   010924   013731                     017326   017509   012806   012157   010522   010718                                      
760501200210016 00280 1110241CALLENGEVILLE       0430900NEUFCHATEL NORD     0550000Callengeville       0450000011100011100760501500100000000000193      006141 2567    004913   005323   005584   006766   006405   007222   008119   009328   007804                     000000               150061571 2877    140062261 2837    130060591 2737    120062501 2697    110062691 2897    004707   005184   005499   006741                     007966   009230   006600   006249   005362   005371                                      
760501200110016 00280 1110241CALLENGEVILLE       0430900NEUFCHATEL NORD     0550000Callengeville       0450000011100011100760501500100000000000193      000000                                                                                                                                 150059861 2787    140061261 2687    130059371 2577    120060601 2597    110061721 2817    004545   005163   005425   006990                     009360   008279   006206   005908   005160   005347                                      
760501100310016 00280 1810241DPT SOMME           0290000CALLENGEVILLE       0430900Fallencourt         0350000014900014900760501200300000000000193      000000                                                                                                                                 150000008         140132738         130128858         120130878         110133778                                                                                                                                                        
760501100210016 00280 1810241DPT SOMME           0290000CALLENGEVILLE       0430900Fallencourt         0350000014900014900760501200200000000000193      006538                                                                                                                                 150000008         140066298         130064438         120065508         110066738                                                                                                                                                        
760501100110016 00280 1810241DPT SOMME           0290000CALLENGEVILLE       0430900Fallencourt         0350000014900014900760501200100000000000193      000000                                                                                                                                 150000008         140066448         130064428         120065378         110067048                                                                                                                                                        
760500500310016 01310 1110241                    0300600                    0330393GONFREVILLE         0320850002793002793760501200100000000000409      040692 0997    038455   040732   041386   040544   037148   042477   040858   039534   044392   042037   040416   040496               150402971    7    140108361         130103641         120106301         110107021         009622                                       010735   009302   008980   011740   042170   040900   038954                                      
760500500210016 01310 1110241                    0300600                    0330393GONFREVILLE         0320850002793002793760501200100000000000409      020408 1007    019150   020430   020777   020275   018486   021633   020926   019962   022264   021062   019743   020264               150201831    7    140000001         130000001         120000001         110000001                                                                                          021146   020388   019549                                      
760500500110016 01310 1110241                    0300600                    0330393GONFREVILLE         0320850002793002793760501200100000000000409      020284 0977    019305   020302   020609   020269   018662   020844   019932   019572   022128   020975   020673   020232               150201141    7    140208351    7    130203631    7    120206291    7    110207011    7    019621                                       020734   019301   018979   021739   021024   020512   019405                                      
760500401310016 01310 1810241                    0210936                    0300600Sandouville         0280600008664008664760500500300000000000409      229495                                                                                                                                 150000008         140611138    7    130665758    7    120000008         110000008                                                                                                                                                        
760500401210016 01310 1810241                    0210936                    0300600Sandouville         0280600008664008664760500500200000000000409      000000                                                                                                                                 150000008         140343098    7    130369858    7    120000008         110000008                                                                                                                                                        
760500401110016 01310 1810241                    0210936                    0300600Sandouville         0280600008664008664760500500100000000000409      026095                                                                                                                                 150000008         140268048    7    130295908    7    120000008         110000008                                                                                                                                                        
760500400310016 0131001810241                    0160000                    0210936Tancarville         0160000005936005936760500500300000000000409      071128                                                                                                                                 150000008         140189418         130183278         120185538         110186408                                                                                                                                                        
760500400210016 0131001810241                    0160000                    0210936Tancarville         0160000005936005936760500500200000000000409      000000                                                                                                                                 150000008         140089038         130085268         120085988         110086838                                                                                                                                                        
760500400110016 0131001810241                    0160000                    0210936Tancarville         0160000005936005936760500500100000000000409      009772                                                                                                                                 150000008         140100388         130098018         120099558         110099578                                                                                                                                                        
760500300310016 01500 1110241ROUMARE             0080880BARENTIN            0121143Roumare             0100700004263004263760500500100000000000288      000000                                                                                                                                 150000001         140000001         130345281    0    120332161    0    110329831    0                                                                                                                                                   
760500300210016 01500 1110241ROUMARE             0080880BARENTIN            0121143Roumare             0100700004263004263760500500100000000000288      000000                                                                                                                                 150000001         140000001         130169361    0    120164351    0    110162861    0                                                                                                                                                   
760500300110016 01500 1110241ROUMARE             0080880BARENTIN            0121143Roumare             0100700004263004263760500500100000000000288      000000                                                                                                                                 150000001         140000001         130175921    0    120167811    0    110166971    0                                                                                                                                                   
760500201310016 01500 1110241Ech la vaupaliere   0060320ech A 151           0080880St Jean de Cardonay 0060500002560002560760500500100000000000102      052822 3577    051474   052885   052359   054589   051129   057099   048698   046856   056296   055383   053959   053488               150524971 5257    140538071    7    130542301    7    120565021    0    110561041    0    049193   051604   053212   055609   051514   057663   048425   046863   054626   054620   052775   054117                                      
760500201210016 01500 1110241Ech la vaupaliere   0060320ech A 151           0080880St Jean de Cardonay 0060500002560002560760500500100000000000102      025540 3657    024967   025727   024258   026215   024095   027823   024038   022944   027429   026954   026219   026000               150256681 5367    140265001 1017    130265491    7    120283821    0    110281251    0    024227   025344   026004   027317   025344   028383   023818   023177   025972   026638   025657   026255                                      
760500201110016 01500 1110241Ech la vaupaliere   0060320ech A 151           0080880St Jean de Cardonay 0060500002560002560760500500100000000000102      027282 3437    026507   027158   028101   028374   027034   029276   024660   023912   028867   028429   027740   027488               150262061 3407    140272081    7    130276831 2407    120270261    7    110000001         024986   026363   027380   027918   026506   029377   023975   002473   025688   027754   027546   026983                                      
760500200310016 01500 1110241Canteleu            0040000ech la vaupaliere   0060320La Vaupaliere       0040850002090002090760500500100000000000102      052994         050686   052302   053559   054328   051445   055583   052451   049883   054811   054461   053601   052971               150517221    7    140539521 1137    130528831 1237    120510681    7    110506831    7    048419   050671   052633   053868   051266   056234   048877   046597   054089   053275   052529   052425                                      
760500200210016 01500 1110241Canteleu            0040000ech la vaupaliere   0060320La Vaupaliere       0040850002090002090760500500100000000000102      025808         024702   025583   025974   026396   024921   027052   025574   024446   026668   026578   026190   025690               150253921    7    140263881 1137    130256751 1237    120250201    7    110247881    7    023755   024808   025631   026353   025188   027350   025149   023323   026299   025871   025438   025611                                      
760500200110016 01500 1110241Canteleu            0040000ech la vaupaliere   0060320La Vaupaliere       0040850002090002090760500500100000000000102      027186         025984   026719   027585   027932   026524   028531   026877   025437   028143   027883   027411   027281               150263301    7    140275641 1137    130272081 1237    120260481    7    110258951    7    024664   025863   027002   027515   026078   028884   023728   023274   027790   027404   027091   026814                                      
760500100310016 01500 1110241ROUEN               0000000CANTELEU            0040000CANTELEU            0020600004230004230760500500100000000000288      062461 0657    060680   062410   063976   064238   061029   066454   059822   054917   064699   065199   063765   062636               150615551    7    140624061    7    130618041 2467    120600321    7    110000001         058105   060589   062738   063669   060329   066331   059238   055197   064520   063525   063037   061660                                      
760500100210016 01500 1110241ROUEN               0000000CANTELEU            0040000CANTELEU            0020600004230004230760500500100000000000288      030253 0697    029422   030283   030942   031050   029350   032276   029048   026587   031501   031578   030792   030354               150298921    7    140303421    7    130298541 2557    120291781    7    110000001         028371   029410   030404   030977   029405   032221   028965   026812   031228   030578   030512   029950                                      
760500100110016 01500 1110241ROUEN               0000000CANTELEU            0040000CANTELEU            0020600004230004230760500500100000000000288      032208 0597    031258   032127   033034   033188   031679   034178   030774   028330   033198   033621   032973   032282               150316631    7    140320641    7    130319501 2397    120308541    7    110000001         029734   031179   032334   032692   030924   034110   030273   028385   033292   032947   032525   031710                                      
760500039310016 00280 4140201ROUEN               0000000                    0011016Rouen St Hilaire    0010350002016002016760500500100000000000693      075493 0687    070858   073676   076945   077531   074595   079865   076223   071214   078642   077386   075098   074063               150543641    7    140458851 2877    130386961 5117    120410621 4097    110000001         049746   051602   053775   056434   054291   059250   055883   050744   057718   055310   054814   052888                                      
760500039210016 00280 4140201ROUEN               0000000                    0011016Rouen St Hilaire    0010350002016002016760500500100000000000693      036313 0657    033884   035499   037036   037374   036036   038721   037438   033950   037470   037172   035727   035524               150354581    7    140275491    7    130215971 5277    120195791 5367    110000001         032826   033850   035581   036884   035147   038784   036451   032055   037133   036085   035856   034912                                      
760500039110016 00280 4140201ROUEN               0000000                    0011016Rouen St Hilaire    0010350002016002016760500500100000000000693      039180 0737    036974   038177   039909   040157   038559   041144   038785   037264   041172   040214   039371   038539               150380901    7    140323701    7    130260871 5007    120295351 4617    110000001         035557   036430   038034   039433   037686   041490   037480   034912   040839   038905   039077   037353                                      
760500024310016 00280 4110201ech 2828            0060500fin d928 a28        0070848Bois Guillaume      0060680001348001348760500500100000000000102      035201 1307    031728   033538   036164   036286   034994   037724   037749   036021   036229   034995   033441   033536               150348361 1247    140290911 4847    130267371 5237    120250431    7    110000001         030788   032781   033796   036258   035335   037710   037797   034408   036711   035464   034097   032863                                      
760500024210016 00280 4110201ech 2828            0060500fin d928 a28        0070848Bois Guillaume      0060680001348001348760500500100000000000102      016450 1347    014506   015473   016789   016831   016576   017913   018550   016813   016680   016216   015293   015730               150162741 1287    140135151 4957    130126091 5317    120115271    7    110000001         014189   015172   015741   017001   016605   017760   018403   015832   016879   016405   015737   015535                                      
760500024110016 00280 4110201ech 2828            0060500fin d928 a28        0070848Bois Guillaume      0060680001348001348760500500100000000000102      018751 1227    017222   018065   019375   019455   018418   019811   019199   019208   019549   018779   018148   017806               150185621 1217    140155761 4737    130141281 5157    120135161    7    110000001         016599   017609   018055   019257   018730   019950   019394   018576   019832   019059   018360   017328                                      
760500023310016 00280 4110201ech 443             0040950ech 2828            0060500Le Chapitre         0050000001063001063760500500100000000000102      000000                                                                                                                                 150372461 1147    140316651 3627    130281141 4497    120015281         110000001         032984   035106   036092   038638   037243   040542   039809   036718   039341   037590   036959   035932                                      
760500023210016 00280 4110201ech 443             0040950ech 2828            0060500Le Chapitre         0050000001063001063760500500100000000000102      023397 0927    021647   022659   024095   024183   023771   025259   025041   022643   023771   023329   022398   021990               150233331    7    140208271    7    130164041    7    120000001         110000001         021226   021477   023308   024380   023229   025692   024790   021975   024306   023613   023186   022776                                      
760500023110016 00280 4110201ech 443             0040950ech 2828            0060500Le Chapitre         0050000001063001063760500500100000000000102      000000                                                                                                                                 150209721 1047    140181501    7    130155051 1107    120000001         110000001         018795   019934   020351   021637   020638   022782   021406   020886   022462   021185   021222   020397                                      
760500021310016 00280 4140201                    0011016ech d443bg          0020000TCAR                0010950000184000184760500500100000000000693      047958 0887    044759   046751   048852   049858   048130   051462   050978   047712   049791   049030   047287   041017               150402551 1057    140328531 3447    130296151 5257    120289131    7    110000001         036011   038081   039146   041765   040395   043901   041648   039327   042695   040882   040272   038977                                      
760500021210016 00280 4140201                    0011016ech d443bg          0020000TCAR                0010950000184000184760500500100000000000693      023039 0867    021644   022777   023741   024235   023655   025113   025532   022858   024027   023809   022523   016653               150229161    7    140165381    7    130146821 5407    120160051    7    110000001         020670   022010   022588   023777   022786   025019   023672   021963   023930   023256   022938   022422                                      
760500021110016 00280 4140201                    0011016ech d443bg          0020000TCAR                0010950000184000184760500500100000000000693      024919 0907    023115   023974   025111   025623   024475   026349   025446   024854   025764   025221   024764   024364               150239811    7    140193381    7    130170061 5207    120173861    7    110000001         021822   022909   023405   024764   023790   026141   023245   023495   025816   024477   024535   023442                                      
760500001310016 00280 4140201ROUEN DARNETAL      0020000                    0040950Tunnel              0030900003437003437760500500100000000000693      041067 0947    037893   039625   041273   042468   040948   043861   043153   040979   042345   041331   039847   039132               150405351    7    140317461    7    130287011    7    120381751    7    110418021    7    036423   039260   039718   041816   039984   044057   042247   039635   042647   040921   040480   039328                                      
760500001210016 00280 4140201ROUEN DARNETAL      0020000                    0040950Tunnel              0030900003437003437760500500100000000000693      019303 0907    017710   018669   019292   019939   019477   020789   021299   019287   019550   019202   018282   018146               150193021    7    140144311    7    130133921    7    120180781    7    110199221    7    017264   018875   018988   019958   019073   020994   020957   018706   019903   019375   018905   018671                                      
760500001110016 00280 4140201ROUEN DARNETAL      0020000                    0040950Tunnel              0030900003437003437760500500100000000000693      021764 1027    020183   020956   021981   022529   021471   023072   021854   021692   022795   022129   021565   020986               150212331 1037    140173151    7    130153091    7    120200971    7    110218801 1037    019159   020385   020730   021858   020911   023063   021290   020929   022744   021546   021575   020657                                      
760500000310016 01510 1110241PISSY POVILLE       0000000PISSY POVILLE       0060400PISSY POVILLE       0010300006400006400760500500100000000000288      000000                                                                                                                                 150261481 1217    140248631 4117    130237941 4907    120223151    7    110000001         023471   024880   025785   027421   026443   028707   027704   025029   027262   026515   025577   025046                                      
760500000210016 01510 1110241PISSY POVILLE       0000000PISSY POVILLE       0060400PISSY POVILLE       0010300006400006400760500500100000000000288      000000                                                                                                                                 150093231    7    140106111 1307    130096751 3927    120087751    7    110000001         008889   009233   009513   009837   009404   010228   008905   008604   009729   009449   009154   009010                                      
760500000110016 01510 1110241PISSY POVILLE       0000000PISSY POVILLE       0060400PISSY POVILLE       0010300006400006400760500500100000000000288      000000                                                                                                                                 150098741 1097    140113481 1517    130111851 4077    120107881 1337    110000001         009282   009708   010044   010420   009838   010947   009301   009197   010383   010110   009840   009511                                      
760111110310016 01380 4110201                    0210000                    0220703Pont Guillaume      0220243001703001703760500500100000000000288      000000                                                                                                                                 150000001         140000001         130610391    0    120471571    0    110444421    0                                                                                                                                                   
760111110210016 01380 4110201                    0210000                    0220703Pont Guillaume      0220243001703001703760500500100000000000288      000000                                                                                                                                 150000001         140247551    7    130275271    7    120215521    7    110206411    7                                                                                                                                                   
760111110110016 01380 4110201                    0210000                    0220703Pont Guillaume      0220243001703001703760500500100000000000288      000000                                                                                                                                 150000001         140000001         130335101    0    120255671    0    110238021    0                                                                                                                                                   
760008701310016 13380 1140131Rive Gauche         0080000Rive Droite         0090960Pt Flaubert         0080500001960001960760500500100000000000814      050319 0987    047589   049509   050881   051109   050076   053376   052817   047752   049554   051594   050799   048832               150472661 1027    140519891 1227    130530631 1487    120465741 1417    110000001         046597   048466   050578   051118   048178   052671   026425   036889   050986   049915   050119   048463                                      
760008701210016 13380 1140131Rive Gauche         0080000Rive Droite         0090960Pt Flaubert         0080500001960001960760500500100000000000814      025106 0987    023584   024500   025150   025351   024841   026408   025893   023706   025569   026130   025845   024341               150233361    7    140252641 1197    130258551 1407    120243241 1317    110000001         023133   024076   024989   025380   023974   026336   011738   018283   025335   024851   024970   023948                                      
760008701110016 13380 1140131Rive Gauche         0080000Rive Droite         0090960Pt Flaubert         0080500001960001960760500500100000000000814      025213 0997    024005   025009   025731   025758   025235   026968   026924   024046   023985   025464   024954   024491               150239301 1057    140267251 1257    130272081 1567    120222501 1527    110000001         023464   024390   025589   025738   024204   026335   014687   018606   025651   025064   025149   024515                                      
760008600310016 03380 4110101gd quevilly         0030500gd quevilly         0050850Bois Cany           0050600001500001500760500500100000000000301      065183 0587    062927   065309   067457   066880   065784   070141   063372   059995   068284   062757                                 150645191    7    140667691 2187    130657551 2197    120643721    7    110000001         060590   061701   066001   065845   063793   066817   065444   056345   068775   066228   065832   063725                                      
760008600210016 03380 4110101gd quevilly         0030500gd quevilly         0050850Bois Cany           0050600001500001500760500500100000000000301      031762 0527    030718   031871   033213   032688   032256   034659   031405   028983   033846   028181                                 150316221    7    140332311 2157    130331831 2167    120326931    7    110000001         029687   030263   032248   032352   031072   032841   032241   027177   033730   032555   032430   031177                                      
760008600110016 03380 4110101gd quevilly         0030500gd quevilly         0050850Bois Cany           0050600001500001500760500500100000000000301      033421 0697    032209   033438   034244   034192   033528   035482   031967   031012   034438   034576   033422   032669               150328971    7    140335381 2207    130325721 2227    120316791    7    110000001         030903   031438   033753   033493   032721   033976   033203   029168   035045   033673   033402   032548                                      
760008500310016 03380 4110201PETIT COURONNE      0000000GRAND QUEVILLY      0030500CETE                0010800003500003500760500500100000000000388      000000                                                                                                                                 150696611    7    140718181 1047    130709181 1047    120662761    7    110670021         066990   069286   070954   073220   063707                                                                                                     
760008500210016 03380 4110201PETIT COURONNE      0000000GRAND QUEVILLY      0030500CETE                0010800003500003500760500500100000000000388      000000                                                                                                                                 150353611    7    140371761 1037    130374911 1117    120343771    7    110341171    7    033856   035758   035971   036965   031863                                                                                                     
760008500110016 03380 4110201PETIT COURONNE      0000000GRAND QUEVILLY      0030500CETE                0010800003500003500760500500100000000000388      000000                                                                                                                                 150343001    7    140346421 1047    130334271    7    120318991    7    110328851         033134   033528   034983   036255   031844                                                                                                     
760008400310016 02820 4815001a131                0000000RN 15               0020942gonfreville         0000400002942002942760500500300000000000102      071488                                                                                                                                 150000008         140190378         130184108         120186348         110187278                                                                                                                                                        
760008400210016 02820 4815001a131                0000000RN 15               0020942gonfreville         0000400002942002942760500500200000000000102      000000                                                                                                                                 150000008         140094668         130090658         120091428         110092338                                                                                                                                                        
760008400110016 02820 4815001a131                0000000RN 15               0020942gonfreville         0000400002942002942760500500100000000000102      009317                                                                                                                                 150000008         140095718         130093458         120094928         110094948                                                                                                                                                        
760008103310016 01820 4843001                    0180000                    0180596Harfleur            0180300000596000596          00000000000388      000000                                                                                                                                 150000008         140000008         130000008         120040118         110000008                                                                                                                                                        
760008103210016 01820 4843001                    0180000                    0180596Harfleur            0180300000596000596          00000000000388      000000                                                                                                                                 150000008         140000008         130000008         120000008         110000008                                                                                                                                                        
760008103110016 01820 4843001                    0180000                    0180596Harfleur            0180300000596000596          00000000000388      000000                                                                                                                                 150000008         140000008         130000008         120000008         110000008                                                                                                                                                        
760007800310016 01380 4810201PETIT COURONNE      0140800ST ETIENNE ROUVRAY  0150048ST ETIENNE ROUVRAY  0150000000248000248760007600300000000000288      032081                                                                                                                                 150318808         140332788         130372108         120293148         110317978                                                                                                                                                        
760007800210016 01380 4810201PETIT COURONNE      0140800ST ETIENNE ROUVRAY  0150048ST ETIENNE ROUVRAY  0150000000248000248760007600200000000000288      015898                                                                                                                                 150159108         140166238         130163478         120140018         110161588                                                                                                                                                        
760007800110016 01380 4810201PETIT COURONNE      0140800ST ETIENNE ROUVRAY  0150048ST ETIENNE ROUVRAY  0150000000248000248760007600100000000000288      016183                                                                                                                                 150159708         140166558         130208638         120153138         110156398                                                                                                                                                        
760007700310016 01380 4810601PETIT COURONNE      0120900PETIT COURONNE      0140800PETIT COURONNE      0130500001900001900760007600300000000000288      084028                                                                                                                                 150835008         140871618         130974588         120767748         110832768                                                                                                                                                        
760007700210016 01380 4810601PETIT COURONNE      0120900PETIT COURONNE      0140800PETIT COURONNE      0130500001900001900760007600200000000000288      041638                                                                                                                                 150416698         140435368         130428138         120366678         110423168                                                                                                                                                        
760007700110016 01380 4810601PETIT COURONNE      0120900PETIT COURONNE      0140800PETIT COURONNE      0130500001900001900760007600100000000000288      042390                                                                                                                                 150418318         140436258         130546458         120401078         110409608                                                                                                                                                        
760007600310016 01380 4110201GRAND COURONNE      0100064PETIT COURONNE      0120900Les Essarts         0110200002836002836760007600100000000000288      040917 0877    038213   039653   041915   041807   040660   043635   040404   037525   043945   042104   041278   040015               150406601    7    140418921 1067    130455211 1127    120364141    7    110406341    7    037931   039944   041192   042619   039776   042465   040951   037625   043360   041736   041114   039222                                      
760007600210016 01380 4110201GRAND COURONNE      0100064PETIT COURONNE      0120900Les Essarts         0110200002836002836760007600100000000000288      020310 0887    018923   019771   020866   020846   020225   021699   020372   018300   021603   020798   020430   019962               150203251    7    140211801 1037    130206131 1107    120173171    7    110206481    7    018930   019974   020570   021359   019568   022073   020754   018393   021491   020745   020469   019597                                      
760007600110016 01380 4110201GRAND COURONNE      0100064PETIT COURONNE      0120900Les Essarts         0110200002836002836760007600100000000000288      020607 0867    019290   019882   021049   020961   020435   021936   020032   019225   022342   021306   020848   020053               150203351    7    140207121 1087    130249081 1147    120190971    7    110199861    7    019001   019970   020622   021260   020208   020392   020197   019232   021869   020991   020645   019625                                      
760007500310016 01380 4810201GD COURONNE         0090000GD COURONNE         0100064GD COURONNE         0090800001064001064760007600300000000000288      029915                                                                                                                                 150297318         140310358         130346528         120273238         110296598                                                                                                                                                        
760007500210016 01380 4810201GD COURONNE         0090000GD COURONNE         0100064GD COURONNE         0090800001064001064760007600200000000000288      015005                                                                                                                                 150150178         140156908         130154308         120132158         110152518                                                                                                                                                        
760007500110016 01380 4810201GD COURONNE         0090000GD COURONNE         0100064GD COURONNE         0090800001064001064760007600100000000000288      014910                                                                                                                                 150147148         140153458         130192228         120141088         110144088                                                                                                                                                        
760007100310016 00310 4843001GOURNAY EN BRAY     0490075FERRIERES EN BRAY   0510852FERRIERES EN BRAY   0500000002777000000760006700300000000000288      011863                                                                                                                                 150116928         140110978         130109328         120115298         110120878                                                                                                                                                        
760007100210016 00310 4843001GOURNAY EN BRAY     0490075FERRIERES EN BRAY   0510852FERRIERES EN BRAY   0500000002777000000760006700200000000000288      005837                                                                                                                                 150057538         140054408         130053668         120057238         110059878                                                                                                                                                        
760007100110016 00310 4843001GOURNAY EN BRAY     0490075FERRIERES EN BRAY   0510852FERRIERES EN BRAY   0500000002777000000760006700100000000000288      006026                                                                                                                                 150059398         140056578         130055668         120058068         110061008                                                                                                                                                        
760007000310016 00310 4843001GOURNAY EN BRAY     0480500GOURNAY EN BRAY     0490075GOURNAY Est         0480800000575000000760006700300000000000288      010283                                                                                                                                 150101358         140096218         130094778         120099928         110104768                                                                                                                                                        
760007000210016 00310 4843001GOURNAY EN BRAY     0480500GOURNAY EN BRAY     0490075GOURNAY Est         0480800000575000000760006700200000000000288      004955                                                                                                                                 150048848         140046198         130045568         120048598         110050838                                                                                                                                                        
760007000110016 00310 4843001GOURNAY EN BRAY     0480500GOURNAY EN BRAY     0490075GOURNAY Est         0480800000575000000760006700100000000000288      005328                                                                                                                                 150052518         140050028         130049218         120051338         110053938                                                                                                                                                        
760006900310016 00310 4843001GOURNAY EN BRAY     0470600GOURNAY EN BRAY     0480500GOURNAY Ouest       0480000000900000000760006700300000000000288      010557                                                                                                                                 150104058         140098768         130097288         120102598         110107568                                                                                                                                                        
760006900210016 00310 4843001GOURNAY EN BRAY     0470600GOURNAY EN BRAY     0480500GOURNAY Ouest       0480000000900000000760006700200000000000288      005168                                                                                                                                 150050948         140048178         130047518         120050678         110053018                                                                                                                                                        
760006900110016 00310 4843001GOURNAY EN BRAY     0470600GOURNAY EN BRAY     0480500GOURNAY Ouest       0480000000900000000760006700100000000000288      005389                                                                                                                                 150053118         140050598         130049778         120051928         110054558                                                                                                                                                        
760006800310016 00310 4843001GOURNAY EN BRAY     0460714GOURNAY EN BRAY     0470600St Aubin            0470000000986000000760006700300000000000288      013011                                                                                                                                 150128238         140121708         130119888         120126458         110132568                                                                                                                                                        
760006800210016 00310 4843001GOURNAY EN BRAY     0460714GOURNAY EN BRAY     0470600St Aubin            0470000000986000000760006700200000000000288      006519                                                                                                                                 150064258         140060768         130059938         120063928         110066878                                                                                                                                                        
760006800110016 00310 4843001GOURNAY EN BRAY     0460714GOURNAY EN BRAY     0470600St Aubin            0470000000986000000760006700100000000000288      006492                                                                                                                                 150063988         140060948         130059958         120062538         110065698                                                                                                                                                        
760006700310016 00310 4113001CD 921              0320100GOURNAY EN BRAY     0460714Gournay             0450500014614014614760006700100000000000288      005657 1487    004939   005337   005624   005958   005769   005925   006007   005645   005884   005742   005392                        150055751 1487    140052801 1377    130051881 1347    120055251 1567    110057401 1617    004853   005332   005499   005873   005862   005982   006020   005752   005784   005747   005302   005187                                      
760006700210016 00310 4113001CD 921              0320100GOURNAY EN BRAY     0460714Gournay             0450500014614014614760006700100000000000288      002829 1407    002453   002664   002810   002978   002885   002982   003057   002801   002929   002884   002675                        150027881 1377    140026341 1217    130025861 1197    120028131 1457    110028871 1487    002400   002657   002743   002969   002914   003007   003057   002856   002885   002878   002654   002598                                      
760006700110016 00310 4113001CD 921              0320100GOURNAY EN BRAY     0460714Gournay             0450500014614014614760006700100000000000288      002828 1657    002486   002673   002814   002980   002884   002943   002950   002844   002955   002858   002717                        150027871 1597    140026461 1537    130026021 1487    120027121 1677    110028531 1737    002453   002675   002756   002904   002948   002975   002963   002896   002899   002869   002648   002589                                      
760006601310016 00310 4813001CD13 /CD 85         0220000CD 921              0320100LA HAYE             0270400017500017500760006700300000000000288      004950                                                                                                                                 150048798         140046318         130045628         120048148         110050478                                                                                                                                                        
760006601210016 00310 4813001CD13 /CD 85         0220000CD 921              0320100LA HAYE             0270400017500017500760006700200000000000288      002506                                                                                                                                 150024708         140023368         130023048         120024588         110025728                                                                                                                                                        
760006601110016 00310 4813001CD13 /CD 85         0220000CD 921              0320100LA HAYE             0270400017500017500760006700100000000000288      002444                                                                                                                                 150024098         140022958         130022588         120023568         110024758                                                                                                                                                        
760006600310016 00310 4813001                    0140600                    0181293Martainville        0150000004693004693760006700300000000000288      005631                                                                                                                                 150055508         140052698         130051918         120054758         110057418                                                                                                                                                        
760006600210016 00310 4813001                    0140600                    0181293Martainville        0150000004693004693760006700200000000000288      002793                                                                                                                                 150027538         140026048         130025698         120027408         110028678                                                                                                                                                        
760006600110016 00310 4813001                    0140600                    0181293Martainville        0150000004693004693760006700100000000000288      002838                                                                                                                                 150027978         140026658         130026228         120027358         110028748                                                                                                                                                        
760006500310016 00310 4113001CD 7                0090938CD 13/ CD 85        0140600Préaux              0110000004662004662760006700100000000000288      000000                                                                                                                                 150090871    7    140087421    7    130000001         120000001         110000001         008334   008888   009142   009449   009107   009728   009140   008410   009678   009263   009140   008795                                      
760006500210016 00310 4113001CD 7                0090938CD 13/ CD 85        0140600Préaux              0110000004662004662760006700100000000000288      000000                                                                                                                                 150045981    7    140044221    7    130000001         120000001         110000001         004202   004501   004623   004806   004588   004942   004680   004235   004888   004686   004592   004446                                      
760006500110016 00310 4113001CD 7                0090938CD 13/ CD 85        0140600Préaux              0110000004662004662760006700100000000000288      000000                                                                                                                                 150044891    7    140043201    7    130000001         120000001         110000001         004132   004387   004519   004643   004519   004786   004460   004175   004790   004577   004548   004349                                      
760006400310016 00310 4813001RD 43 St Jacques    0060520RD 7                0090938ST JACQUES          0080750003418003418760006700300000000000288      012633                                                                                                                                 150124518         140118178         130116418    0    120122808    0    110128728    0                                                                                                                                                   
760006400210016 00310 4813001RD 43 St Jacques    0060520RD 7                0090938ST JACQUES          0080750003418003418760006700200000000000288      006382                                                                                                                                 150062908         140059488         130058678    0    120062578    0    110065458    0                                                                                                                                                   
760006400110016 00310 4813001RD 43 St Jacques    0060520RD 7                0090938ST JACQUES          0080750003418003418760006700100000000000288      006251                                                                                                                                 150061618         140058698         130057748    0    120060238    0    110063278    0                                                                                                                                                   
760006300310016 00310 4143001DARNETAL            0020300RD43 St Jacques     0060520Darnétal            0030050004220004220760006700100000000000288      013630 0877    012958   013333   013934   013995   013461   014581   013140   012078   014351   013987   013526   014264               150134441    7    140126881    7    130119351 4167    120118071    7    110000001         012605   013390   013641   014037   013158   014586   013108   011997   014240   013792   013843   013022                                      
760006300210016 00310 4143001DARNETAL            0020300RD43 St Jacques     0060520Darnétal            0030050004220004220760006700100000000000288      006379 0917    006025   006245   006495   006578   006303   006826   006238   005656   006649   006503   006324   006724               150063301    7    140059851    7    130056451 4277    120056931    7    110000001         005913   006228   006395   006653   006200   006923   006308   005704   006673   006482   006437   006074                                      
760006300110016 00310 4143001DARNETAL            0020300RD43 St Jacques     0060520Darnétal            0030050004220004220760006700100000000000288      007251 0807    006933   007088   007439   007417   007158   007755   006902   006422   007702   007484   007202   007540               150071141    7    140067031    7    130062901 4067    120061141    7    110000001         006692   007162   007246   007384   006958   007663   006800   006293   007567   007310   007406   006948                                      
760006200310016 00310 4840201DARNETAL            0020050DARNETAL            0020300Darnetal centre     0020100000250000250760006700300000000000227      033204                                                                                                                                 150327238         140310568         130305928         120322668         110338238                                                                                                                                                        
760006200210016 00310 4840201DARNETAL            0020050DARNETAL            0020300Darnetal centre     0020100000250000250760006700200000000000227      016562                                                                                                                                 150163228         140154348         130152238         120162358         110169838                                                                                                                                                        
760006200110016 00310 4840201DARNETAL            0020050DARNETAL            0020300Darnetal centre     0020100000250000250760006700100000000000227      016642                                                                                                                                 150164018         140156228         130153698         120160318         110168408                                                                                                                                                        
760006101310016 00310 4840201DARNETAL            0010780DARNETAL            0020050DARNETAL OUEST      0010800000270000270760006700300000000000288      033204                                                                                                                                 150327238         140310568         130305928         120322668         110338238                                                                                                                                                        
760006101210016 00310 4840201DARNETAL            0010780DARNETAL            0020050DARNETAL OUEST      0010800000270000270760006700200000000000288      016562                                                                                                                                 150163228         140154348         130152238         120162358         110169838                                                                                                                                                        
760006101110016 00310 4840201DARNETAL            0010780DARNETAL            0020050DARNETAL OUEST      0010800000270000270760006700100000000000288      016642                                                                                                                                 150164018         140156228         130153698         120160318         110168408                                                                                                                                                        
760006100310016 00310 4140201DARNETAL            0000000DARNETAL            0010780Route de Lyons      0010000001780001780760006700100000000000288      032758 0737    032187   032886   034514   034289   033302   035239   031452   028743   035184   031592   030678   033175               150320431    7    140303731    7    130293861    7    120000001         110000001         030984   032272   032947   033275   031453   034886   031122   027780   034215   033102   025082   030683                                      
760006100210016 00310 4140201DARNETAL            0000000DARNETAL            0010780Route de Lyons      0010000001780001780760006700100000000000288      015981 0547    015916   016306   017088   017039   016534   017605   015601   014077   017301   014083   013663   016629               150165351    7    140154071    7    130144291    7    120000001         110000001         015821   016386   016893   017084   016108   018076   015885   014096   017720   016962   017049   016450                                      
760006100110016 00310 4140201DARNETAL            0000000DARNETAL            0010780Route de Lyons      0010000001780001780760006700100000000000288      016777 1087    016271   016580   017426   017250   016768   017634   015851   014666   017883   017509   017015   016546               150155081    7    140149661    7    130149571    7    120000001         110000001         015163   015886   016054   016191   015345   016810   015237   013684   016495   016140   008033   014233                                      
760003900310016 00270 4840201CD 915              0470479DIEPPE              0490200ST AUBIN SUR SCIE   0470800001721000000760003700300000000000288      028450                                                                                                                                 150308338         140302248         130291838         120291028         110298468                                                                                                                                                        
760003900210016 00270 4840201CD 915              0470479DIEPPE              0490200ST AUBIN SUR SCIE   0470800001721000000760003700200000000000288      014165                                                                                                                                 150154088         140150368         130145918         120145068         110149118                                                                                                                                                        
760003900110016 00270 4840201CD 915              0470479DIEPPE              0490200ST AUBIN SUR SCIE   0470800001721000000760003700100000000000288      014285                                                                                                                                 150154258         140151888         130145928         120145968         110149358                                                                                                                                                        
760003803310016 00270 4815001rd 54 st aubin      0440570RD 915              0470479st aubin s scie nord0460000002909002000760003700300000000000102      011545                                                                                                                                 150125118         140122668         130118428         120118118         110121128                                                                                                                                                        
760003803210016 00270 4815001rd 54 st aubin      0440570RD 915              0470479st aubin s scie nord0460000002909002000760003700200000000000102      005526                                                                                                                                 150060118         140058668         130056938         120056608         110058188                                                                                                                                                        
760003803110016 00270 4815001rd 54 st aubin      0440570RD 915              0470479st aubin s scie nord0460000002909002000760003700100000000000102      006019                                                                                                                                 150065008         140064008         130061498         120061518         110062948                                                                                                                                                        
760003802310016 00270 4815001ech d108            0390343d54 st aubin s scie 0440570st aubin s scie sud 0410000005227004000760003700300000000000102      012675                                                                                                                                 150137378         140134668         130130038         120129678         110132998                                                                                                                                                        
760003802210016 00270 4815001ech d108            0390343d54 st aubin s scie 0440570st aubin s scie sud 0410000005227004000760003700200000000000102      006311                                                                                                                                 150068658         140066998         130065018         120064638         110066448                                                                                                                                                        
760003802110016 00270 4815001ech d108            0390343d54 st aubin s scie 0440570st aubin s scie sud 0410000005227004000760003700100000000000102      006364                                                                                                                                 150068728         140067678         130065028         120065048         110066558                                                                                                                                                        
760003801310016 00270 4810201ech d149 belmesnil  0340200ech d108 auppegard  0390343manehouville        0380600005143005143760003700300000000000102      013790                                                                                                                                 150149458         140146518         130141468         120141088         110144698                                                                                                                                                        
760003801210016 00270 4810201ech d149 belmesnil  0340200ech d108 auppegard  0390343manehouville        0380600005143005143760003700200000000000102      006739                                                                                                                                 150073318         140071548         130069438         120069038         110070968                                                                                                                                                        
760003801110016 00270 4810201ech d149 belmesnil  0340200ech d108 auppegard  0390343manehouville        0380600005143005143760003700100000000000102      007051                                                                                                                                 150076148         140074978         130072038         120072058         110073738                                                                                                                                                        
760003800310016 00270 4810201ech d353            0270300ech d149 belmesnil  0340200belmesnil           0330200006900006900760003700300000000000102      012748                                                                                                                                 150138168         140135438         130130778         120130418         110133758                                                                                                                                                        
760003800210016 00270 4810201ech d353            0270300ech d149 belmesnil  0340200belmesnil           0330200006900006900760003700200000000000102      006348                                                                                                                                 150069058         140067388         130065398         120065018         110066838                                                                                                                                                        
760003800110016 00270 4810201ech d353            0270300ech d149 belmesnil  0340200belmesnil           0330200006900006900760003700100000000000102      006400                                                                                                                                 150069118         140068058         130065388         120065408         110066928                                                                                                                                                        
760003700310016 00270 4110201TOTES               0240254ech rd353           0270300TOTES               0250500003046003046760003700100000000000288      015424 0607    014995   015489   016594   017098   016869   017823   018270   017769   018094   000000   016281   016058               150167151    7    140152271    7    130157951    7    120161351    7    110162071    7    014427   015578   016436   017419   016938   018722   017626   017248   017593   016335   016610   014645                                      
760003700210016 00270 4110201TOTES               0240254ech rd353           0270300TOTES               0250500003046003046760003700100000000000288      007652 0597    007488   007702   008264   008480   008421   008864   009127   008762   008768   000000   008129   007945               150083231    7    140069241    7    130078721    7    120079771    7    110080391    7    007162   007728   008141   008611   008446   009281   008783   008540   008706   008459   008254   007217                                      
760003700110016 00270 4110201TOTES               0240254ech rd353           0270300TOTES               0250500003046003046760003700100000000000288      007772 0617    007507   007787   008330   008618   008448   008959   009143   009007   009326   000000   008152   008113               150083921 1007    140083031 1017    130079231 1027    120081581    7    110081681    7    007265   007850   008295   008808   008492   009441   008843   008708   008887   007876   008356   007428                                      
760003601310016 00270 4810201rd2                 0190042totes nord          0240254totes sud           0210000005196005196760003700300000000000192      014465                                                                                                                                 150156748         140153688         130148368         120147978         110151748                                                                                                                                                        
760003601210016 00270 4810201rd2                 0190042totes nord          0240254totes sud           0210000005196005196760003700200000000000192      006849                                                                                                                                 150074508         140072708         130070558         120070148         110072108                                                                                                                                                        
760003601110016 00270 4810201rd2                 0190042totes nord          0240254totes sud           0210000005196005196760003700100000000000192      007616                                                                                                                                 150082248         140080988         130077818         120077838         110079648                                                                                                                                                        
760003600310016 00270 4810201                    0190000                    0190042Varneville-Brettevil0190000000042000042760003700300000000000192      014704                                                                                                                                 150159338         140156228         130150818         120150428         110154258                                                                                                                                                        
760003600210016 00270 4810201                    0190000                    0190042Varneville-Brettevil0190000000042000042760003700200000000000192      006970                                                                                                                                 150075828         140073998         130071808         120071398         110073388                                                                                                                                                        
760003600110016 00270 4810201                    0190000                    0190042Varneville-Brettevil0190000000042000042760003700100000000000192      007734                                                                                                                                 150083518         140082238         130079018         120079038         110080878                                                                                                                                                        
610000600310016 00120 4113001FIN DEVIATION       0720070LIMITE MAYENNE      0840911Alençon             0790440012668009551760003700100000000000188      008801         007247   007997   008252   009011   008941   008794   009501   009258   009464   009523                                 150078821 2297    140087701 2257    130085481 2267    120087161 2337    110090991 2307    007181   008025                                                                  009567   007865   008152                                      
610000600210016 00120 4113001FIN DEVIATION       0720070LIMITE MAYENNE      0840911Alençon             0790440012668009551760003700100000000000188      004323         003668   003949   004107   004453   004516   004342   004588   004505   004558   004534                                 150039151 2257    140043501 2257    130042511 2267    120043301 2317    110045091 2277    003622   003948                                                                  004827   003936   003983                                      
610000600110016 00120 4113001FIN DEVIATION       0720070LIMITE MAYENNE      0840911Alençon             0790440012668009551760003700100000000000188      004478         003579   004048   004145   004558   004425   004452   004913   004753   004906   004989                                 150039671 2337    140044201 2257    130042971 2267    120043861 2347    110045901 2347    003559   004077                                                                  004740   003929   004169                                      
610000502310016 00120 4813001RN 138              0630300FIN DEVIAT.ALENCON  0720070DEVIATION ALENCON   0680020007836007836610000600300000000000188      008706                                                                                                                                 150000008         140086788         130087218         120087188         110091328                                                                                                                                                        
610000502210016 00120 4813001RN 138              0630300FIN DEVIAT.ALENCON  0720070DEVIATION ALENCON   0680020007836007836610000600200000000000188      004333                                                                                                                                 150000008         140043618         130044058         120044008         110046008                                                                                                                                                        
610000502110016 00120 4813001RN 138              0630300FIN DEVIAT.ALENCON  0720070DEVIATION ALENCON   0680020007836007836610000600100000000000188      004373                                                                                                                                 150000008         140043178         130043168         120043188         110045328                                                                                                                                                        
610000501310016 00120 4113001ENTREE DEVIATION    0610620R.N. 138            0630300VALFRAMBERT         0620100001680001680610000600100000000000294      000000                                                                                                                                 150077291 2527    140092011 2607    130089281 2157    120095201         110099741 2667    008557   009448   010043   010625   009506   009960   009743   006727   007512   004408   002335   006314                                      
610000501210016 00120 4113001ENTREE DEVIATION    0610620R.N. 138            0630300VALFRAMBERT         0620100001680001680610000600100000000000294      000000                                                                                                                                 150041991 2447    140049811 2537    130047351 2097    120049631         110053101 2537    004667   005094   005477   005647   005225   005428   005126   003662   004203   002419   001342   003403                                      
610000501110016 00120 4113001ENTREE DEVIATION    0610620R.N. 138            0630300VALFRAMBERT         0620100001680001680610000600100000000000294      000000                                                                                                                                 150035301 2617    140042201 2677    130041931 2207    120045571         110046641 2827    003890   004354   004566   004978   004281   004532   004617   003065   003309   001989   000993   002911                                      
610000400310016 00120 4113001R.D. 4 A            0430019R.D. 112            0610620Ventes de Bourse    0480300018601018025610000600100000000000192      010049 2107    008696   008620   009613   010758   010223   010859   010622   010915   010666   009857   009666                        150000001         140000001         130073351 1757    120098121 2037    110100431 2047                                                                                                                                                   
610000400210016 00120 4113001R.D. 4 A            0430019R.D. 112            0610620Ventes de Bourse    0480300018601018025610000600100000000000192      005001 2137    004336   004233   004799   005294   005193   005374   005259   005402   005332   004837   004926                        150000001         140000001         130037431 1757    120048871 2067    110049911 2067                                                                                                                                                   
610000400110016 00120 4113001R.D. 4 A            0430019R.D. 112            0610620Ventes de Bourse    0480300018601018025610000600100000000000192      005048 2037    004360   004387   004814   005464   005030   005485   005363   005513   005334   005020   004740                        150000001         140000001         130035921 1757    120049251 2007    110050521 2037                                                                                                                                                   
610000300310016 00120 4113001RD 912              0270548RD 4A               0430019LECHATEL            0270800013572012518610000600100000000000100      000000                                                                                                                                 150000001         140000001         130094571 1967    120156811 2397    110075041 2607                                                                                                                                                   
610000300210016 00120 4113001RD 912              0270548RD 4A               0430019LECHATEL            0270800013572012518610000600100000000000100      000000                                                                                                                                 150000001         140000001         130044531 1757    120096771 2237    110028051 3287                                                                                                                                                   
610000300110016 00120 4113001RD 912              0270548RD 4A               0430019LECHATEL            0270800013572012518610000600100000000000100      000000                                                                                                                                 150000001         140000001         130050041 2287    120060041 2527    110046991 2137                                                                                                                                                   
610000200310016 00120 4813001DEVIATION MORTAGNE  0230262R.D. 912            0270548ST HILAIRE T        0250430004286004286610000100300000000000194      008253                                                                                                                                 150000008         140000008         130081028    0    120080718    0    110083628    0                                                                                                                                                   
610000200210016 00120 4813001DEVIATION MORTAGNE  0230262R.D. 912            0270548ST HILAIRE T        0250430004286004286610000100200000000000194      004127                                                                                                                                 150000008         140000008         130040698    0    120040188    0    110041838    0                                                                                                                                                   
