770500100310016 00060 1110441LIMITE Dept 91/77   0380385RN37                0440440A6 NAINVILLE        0400740006076006076000000000000000000001115      065788 111     059768   067411   066533   069159   066277   065438   072241   070805   064426   064656   060671   062076               150628401  917    140665001  917    130665051  917    120683951  948    110722261 1097    000000   000000   000000   000000   000000   000000   000000   000000   000000   000000   058486   067194                                      
770500900310016 01040 1110231N2                  0080000N3                  0140950A104_MITRY MORY     0110500006112006112          00000000000197      080002 114     079552   082638   080251   077568   000000   000000   000000   000000   000000   000000   000000   000000               150802001         140802461         130769001         120769001         110769001         000000   000000   000000   000000   000000   000000   000000   000000   000000   000000   000000   000000                                      
770000200310016 01040 1110231N3                  0140950N34 - O             0230100N3 / N34 - O        0210200008040008040          00000000000197      072406         066011   070666   068159   069943   073215   078494   076977   068111   075427   075377   073181   073312               150846211         140772731         130696481         120883061         110810111         083389   079670   084099   088755   085716   093307   090955   075785   087051   089835   077465   079428                                      
770000300310016 01040 1110631N34 - O             0230100A4                  0280500N34 - O / A4        0280000005382005382          00000000000197      111520         000000   000000   000000   000000   110922   118753   112940   099015   116011   115147   108353   111015               150961241         140551921         130980001         120980001         110979741         092164   091919   097201   096352   094676   098687   097280   098783   096175   097877   096261   000000                                      
770504900310016 01400 1110241D228                0030540Dev Meaux           0091035A140_DEV_MEAUX      0060220006330006330          00000000000111      019800  47     000000   000000   000000   000000   000000   000000   000000   000000   000000   000000   000000   000000               150198001  477    140197801  477    130199361  467    120183451  447    110200431  507    000000   000000   000000   000000   000000   000000   000000   000000   000000   000000   000000   000000                                      
770000100310016 00020 4110201A104                0000000N2                  0050232N2_MITRY-MORY       0020460005060005060          00000000001217      000000         000000   000000   000000   000000   000000   000000   000000   000000   000000   000000   000000   000000               150000001         140000001         130000001         120000001         110000001         000000   000000   000000   000000   000000   000000   000000   000000   000000   000000   000000   000000                                      
770500400310016 00020 4110201D212                0050232D401 (Dammartin)    0140250N2_DAMMARTIN_EN_GEOL0110700009000009000000000000000000000000199      045600 131     000000   000000   000000   000000   000000   000000   000000   000000   000000   000000   000000   000000               150456001 1317    140456001 1317    130000001         120000001         110000001         036636   037766   038139   040996   037912   041447   038912   034398   000000   040807   037928   039711                                      
770500600310016 00020 4110201D401 (Dammartin)    0140250Dept 60             0150960N2_LAGNY-LE-SEC     0150610001710001710000000000000000000000914      000000         000000   000000   000000   000000   000000   000000   000000   000000   000000   000000   000000   000000               150000001         140000001         130000001         120000001         110000001         000000   000000   000000   000000   000000   000000   000000   000000   000000   000000   000000   000000                                      
600000100310016 00020 4110301N2                  0000000N2 dans l'Oise      0020670N2 / N2 (Dept 60)   0000500002630002630000000000000000000000197      000000         000000   000000   000000   000000   000000   000000   000000   000000   000000   000000   000000   000000               150000001         140000001         130000001         120000001         110000001         000000   000000   000000   000000   000000   000000   000000   000000   000000   000000   000000   000000                                      
770000100310016 00030 4110201A104                0020001D212                0040725N3_BOIS FLEURY      0030360002730002730000000000000000000001217      000000         000000   000000   000000   000000   000000   000000   000000   000000   000000   000000   000000   000000               150000001         140000001         130000001         120000001         110000001         000000   000000   000000   000000   000000   000000   000000   000000   000000   000000   000000   000000                                      
770000200310016 00030 4110201D212                0040725D404                0090120D212 / D404         0060500004500004500000000000000000000000197      000000         000000   000000   000000   000000   000000   000000   000000   000000   000000   000000   000000   000000               150000001         140000001         130000001         120000001         110000001         000000   000000   000000   000000   000000   000000   000000   000000   000000   000000   000000   000000                                      
770000300310016 00030 4117001D404                0090120D27                 0140800N3_CHARNY           0120750005700005700000000000000000000001009      033800  67     000000   000000   000000   000000   000000   000000   000000   000000   000000   000000   000000   000000               150338171  677    140327351  687    130325971  667    120322981  727    110318901         033393   033745   034403   035073   034259   037458   032633   028180   033985   035200   000000   000000                                      
770000400310016 00030 4117001D27                 0140800D5                  0190534D27 / D5            0190000004940004940000000000000000000000197      000000         000000   000000   000000   000000   000000   000000   000000   000000   000000   000000   000000   000000               150000001         140000001         130000001         120000001         110000001         000000   000000   000000   000000   000000   000000   000000   000000   000000   000000   000000   000000                                      
770001000310016 00040 4110201N104                0010000D351                0050635N4_PONTAULT         0030100003620003620          00000000000192      029838  84     025446   028185   032754   033353   029452   000000   000000   000000   000000   000000   000000   000000               150272751  677    140492001  957    130492001  957    120491741  957    110482631 1017    000000   000000   000000   000000   030935   029064   024716   000000   025937   025724   000000   000000                                      
770000200310016 00040 4110201D351                0050635D350                0140490D351 / D350         0120000008860008860          00000000000197      000000         000000   000000   000000   000000   000000   000000   000000   000000   000000   000000   000000   000000               150000001         140000001         130000001         120000001         110000001         000000   000000   000000   000000   000000   000000   000000   000000   000000   000000   000000   000000                                      
770001300310016 00040 4110201D350                0140490N36                 0210216N4_CHATRES          0200550006910006910          00000000001200      032617 117     030944   032648   033241   033636   000000   000000   000000   000000   000000   000000   000000   000000               150318611 1177    140316871 1137    130308651 1007    120309271 1227    110310811         030397   030454   032358   033366   032256   034688   031290   026983   032047   033446   032424   032648                                      
770001400310016 00040 4113001N36                 0210216D231 (Prévers)      0410968N4_VOINSLES         0340000020640020640          00000000000400      011500 226     000000   000000   000000   000000   000000   000000   000000   000000   000000   000000   000000   000000               150115121 2267    140167291 2267    130173571 2337    120176361 2337    110177561 2367    010594   011424   015959   013245   009196   010029   010135   000000   000000   000000   000000   000000                                      
770001500310016 00040 4113001D231 (Prévers)      0410968Dept 51             0680927N4_CORBIER          0430200024210024210          00000000000198      011300 327     000000   000000   000000   000000   000000   000000   000000   000000   000000   000000   000000   000000               150112831 3277    140111691 3277    130110161 2927    120111661 3357    110116081         010167   010627   010871   011629   011451   012168   012012   010905   011726   000000   000000   000000                                      
770000100310016 00190 4115001D319                0000000N19 Servon          0020750D319 / N19 Servon   0000800002090002090000000000000000000000197      000000         000000   000000   000000   000000   000000   000000   000000   000000   000000   000000   000000   000000               150000001         140000001         130000001         120000001         110000001         000000   000000   000000   000000   000000   000000   000000   000000   000000   000000   000000   000000                                      
770005000310016 00360 4113001D436                0310000N4                  0470130N36_MARLES          0450170015330015330000000000000000000001009      008700 163     000000   000000   000000   000000   000000   000000   000000   000000   000000   000000   000000   000000               150086581 1637    140087271 1647    130084121 1697    120085031 1697    110085421         008105   008474   008717   009190   008714   009505   009079   007476   000000   000000   000000   000000                                      
770000200310016 00360 4113001N4                  0470130N19                 0570415N4 / N19            0520010009901009901000000000000000000000197      000000         000000   000000   000000   000000   000000   000000   000000   000000   000000   000000   000000   000000               150000001         140000001         130000001         120000001         110000001         000000   000000   000000   000000   000000   000000   000000   000000   000000   000000   000000   000000                                      
770005200310016 00360 4113001N19                 0570415A5                  0650230N36_LES BORDES      0620950007672007672000000000000000000001009      010200 145     000000   000000   000000   000000   000000   000000   000000   000000   000000   000000   000000   000000               150102001 1457    140101821 1457    130097101 1467    120097451 1417    110099281         000000   000000   000000   000000   000000   000000   000000   000000   000000   000000   000000   000000                                      
770000100310016 00370 4117001A6                  0000000D372 Perthes        0020700A6 / D372Perthes    0020700003040003040000000000000000000000197      000000         000000   000000   000000   000000   000000   000000   000000   000000   000000   000000   000000   000000               150000001         140000001         130000001         120000001         110000001         000000   000000   000000   000000   000000   000000   000000   000000   000000   000000   000000   000000                                      
770010500310016 01040 4110201A4                  0000000N4                  0060978N104_LOGNES         0020150006997006997000000000000000000000515      114695 121     000000   109864   113588   117991   115737   118167   111038   000000   116477   000000   000000   000000               151016001 1017    141016001 1017    131016001 1017    121015581 1017    111032361         000000   000000   000000   000000   000000   000000   000000   000000   000000   000000   000000   000000                                      
770010400310016 01040 4110201N4                  0060978N19                 0160001N104_NORD LESIGNY   0070700008531008531000000000000000000000197      076100 147     000000   000000   000000   000000   000000   000000   000000   000000   000000   000000   000000   000000               150760851 1477    140781491 1437    130767771 1217    120764921 1207    110765141 1217    075917   077563   079905   082155   064886   000000   000000   000000   000000   000000   000000   000000                                      
770000300310016 01040 4110401N19                 0160001A5b                 0190366N19 / A5b           0170400004628004628000000000000000000000197      078592         073536   074750   075332   080876   084353   085334   056979   074232   085610   085993   082734   083379               150799801         140816821         130793961         120777881         110786131         000000   000000   078105   082358   079510   087883   085023   071341   076985   084513   076628   077458                                      
770000400310016 01040 4110201A5b                 0190366N6                  0270345A5b / N6            0220400007521007521000000000000000000000197      083191         000000   000000   000000   000000   000000   089036   082813   073602   086362   084144   000000   000000               150792821         140706511         130728471         120712861         110715541         000000   000000   000000   000000   000000   083749   079120   073498   079743   080301   000000   000000                                      
770000500310016 01040 4110501N6                  0270345A5a                 0281074N6 / A5a            0280130001715001715000000000000000000000197      095800         000000   000000   000000   000000   000000   000000   000000   000000   000000   000000   000000   000000               150958001         140958001         130958001         120958001         110958051         000000   000000   000000   000000   000000   000000   000000   000000   000000   000000   000000   000000                                      
770000100310016 01050 4110201A5b                 0140000BDL D306            0150665A5b / BDL D306      0150000001872001872000000000000000000000101      038600         000000   000000   000000   000000   000000   000000   000000   000000   000000   000000   000000   000000               150386001         140386001         130386001         120386001         110386001         000000   000000   000000   000000   000000   000000   000000   000000   000000   000000   000000   000000                                      
770006300310016 03300 4113001N3 (Meaux-Crégy)    0000000D401 (ST Soupplets) 0100455N330_PENCHARD       0050300009271009271000000000000000000000400      011800 142     000000   000000   000000   000000   000000   000000   000000   000000   000000   000000   000000   000000               150118001 1427    140118471 1427    130117901 1397    120118881 1397    110119181 1487    000000   000000   000000   000000   000000   000000   000000   000000   000000   000000   000000   000000                                      
770000200310016 03300 4113001D401 (St Souplets)  0100455Dept 60             0140567D401 (St Souplets) /0110500004079004079000000000000000000000102      000000         000000   000000   000000   000000   000000   000000   000000   000000   000000   000000   000000   000000               150000001         140000001         130000001         120000001         110000001         000000   000000   000000   000000   000000   000000   000000   000000   000000   000000   000000   000000                                      
600000100310016 03300 4113001N330 dans l'Oise    0000000N330 dans l'Oise    0040104N330 dans l'Oise / N0040000004030004030000000000000000000000102      000000         000000   000000   000000   000000   000000   000000   000000   000000   000000   000000   000000   000000               150000001         140000001         130000001         120000001         110000001         000000   000000   000000   000000   000000   000000   000000   000000   000000   000000   000000   000000                                      
770000100310016 11040 4113001N1104               0070000N1104               0130500N1104_MESNIL-AMELOT 0070500006590006590000000000000000000001217      000000         000000   000000   000000   000000   000000   000000   000000   000000   000000   000000   000000   000000               150000001         140000001         130000001         120000001         110000001         000000   000000   000000   000000   000000   000000   000000   000000   000000   000000   000000   000000                                      
780550700310016 00120 1110531A13                 0000000D129                0060685A12_BAILLY          0010550007077007077000000000000000000000795      127000  77     000000   000000   000000   000000   000000   000000   000000   000000   000000   000000   000000   000000               151270161  777    141290751  777    131220811  657    121268521  647    111293021  817    000000   000000   000000   000000   117045   140484   131150   113150   133253   000000   000000   000000                                      
780000200310016 00120 1110231D129                0060685N286 (Bois d'Arcy)  0071301D129 / N286 (Bois d'0070500001615001615000000000000000000000889      056100         000000   000000   000000   000000   000000   000000   000000   000000   000000   000000   000000   000000               150561461         140577331         130556811         120509831         110577401         055559   056733   000000   000000   000000   000000   000000   000000   000000   000000   000000   000000                                      
780000100310016 00130 1110441D182 (Vaucresson dep0090000A13 x A12           0120340D182 (Vaucresson dep0090000003532003532000000000000000000000197      132400         000000   000000   000000   000000   000000   000000   000000   000000   000000   000000   000000   000000               151324001         141324181         131305471         121321131         110000001         000000   000000   000000   000000   000000   000000   000000   000000   000000   000000   000000   000000                                      
780551100310016 00130 1110241A13 x A12           0120340D153 (Orgeval)      0250515A13_ORGEVAL         0220590013200013200000000000000000000000494      085706  77     080158   087465   087006   090113   089947   087198   088495   084362   082628   082855   082590   085656               150857371  887    140857321  91     130852191  967    120865751  967    110886621  997    079589   083771   085751   089998   084043   093466   090322   078260   000000   089700   082474   000000                                      
780552310310016 00860 1110441N118                0590000duplex A86          0630183A86 VELIZY          0610000004030004030000000000000000000000112      114795  57     110885   116141   130261   135109   125889   132773   106177   098125   129532   095754   075563   121331               151146321  777    141143001  777    131143171  777    121059001         111059001         000000   000000   000000   000000   000000   000000   000000   097278   122890   123729   000000   000000                                      
780100500310016 00100 4110241A12                 0120000D912 (St Quentin)   0130800N10_TRAPPES         0130200001934001934000000000000000000000992      066762  78     063894   066406   066941   069106   069331   069241   062233   062988   069610   068441   066790   066388               150660191  777    140656521  767    130651481  767    120665361  767    110675971  817    063988   065352   064316   068778   066349   071926   066771   057096   000000   069879   065950   000000                                      
780100600310016 00100 4110201D912 (Trappes)      0130800D13 Coignères       0220725N10_ELANCOURT       0170100008928008928000000000000000000001295      052745  76     051668   051711   054856   000000   000000   000000   000000   000000   000000   000000   000000   000000               150536111  767    140512711  767    130530271  777    120545261  797    110552231         051756   053250   053965   055723   054172   057401   052146   048207   000000   056056   053429   000000                                      
780100800310016 00100 4110201D33                 0220725D937                0320425N10_LES ESSARTS     0250170010080010080000000000000000000001196      042685  81     039461   041277   042011   043958   043759   045145   042967   040925   044666   000000   000000   000000               150421311  817    140417401  797    130413841  767    120419031  787    110430131  797    039284   040614   041439   043798   042584   045353   043989   038049   043131   044131   041960   041269                                      
780000400310016 00100 4110201D937                0320425D936 Est (Dév. Rambo0370620D937 / D936 Est (Dév0330000005236005236000000000000000000000188      042700  76     000000   000000   000000   000000   000000   000000   000000   000000   000000   000000   000000   000000               150427001  767    140427001  767    130427001  767    120427001  767    110427001  767    000000   000000   000000   000000   000000   000000   000000   000000   000000   000000   000000   000000                                      
780101200310016 00100 4115001D936 Est            0370620Bretelle A11        0490408N10_SONCHAMPS       0440040011840011840000000000000000000000213      026600 105     000000   000000   000000   000000   000000   000000   000000   000000   000000   000000   000000   000000               150265561 1057    140227741  937    130259001         120259001         110258601         023410   024313   023755   028132   028569   027243   030468   000000   000000   000000   000000   000000                                      
780105700310016 00120 4110401A86                 0190000RD91                0290000N12_VERSAILLES      0230000001000001000000000000000000000000114      000000         000000   000000   000000   000000   000000   000000   000000   000000   000000   000000   000000   000000               150000001         140000001         130000001         120000001         110000001         000000   000000   000000   000000   000000   000000   000000   000000   000000   000000   000000   000000                                      
780101400310016 00120 4110301N286 (A12)          0290000R12                 0310050N12_BOIS D'ARCY     0300800002011002011000000000000000000001296      063649  57     041105   042911   043413   044914   088229   091552   080453   076612   000000   000000   000000   000000               150863111  577    140833031  557    130853161  577    120843951  577    110869561  557    085217   086378   089809   093185   088292   097205   083323   072772   086632   085381   084285   083684                                      
780000300310016 00120 4110201R12                 0310050D134                0350915R12 / D134          0320900004897004897000000000000000000000889      065190         000000   000000   000000   000000   000000   000000   000000   000000   000000   000000   000000   000000               150662111         140000001         130000001         120000001         110000001         000000   000000   000000   000000   000000   000000   000000   000000   000000   000000   000000   000000                                      
780101500310016 00120 4110201D134                0350915D76 (dév. Pontchartr0440875N12_JOUARS          0420000008819008819000000000000000000000302      047900  73     000000   000000   000000   000000   000000   000000   000000   000000   000000   000000   000000   000000               150479331  737    140470801  737    130459541  737    120472001  707    110472001  707    044191   045724   047318   049734   048025   052186   048356   000000   000000   000000   000000   000000                                      
780101700310016 00120 4110201D76                 0440875D179                0520850N12_LA-QUEUE-LES-YV 0460295007826007826000000000000000000000492      041000  73     000000   000000   000000   000000   000000   000000   000000   000000   000000   000000   000000   000000               150410371  737    140373091  737    130347011  937    120350211  977    110384741  827    039751   040926   040966   043724   042714   046461   036669   034132   043994   000000   000000   000000                                      
780101800310016 00120 4110201D179                0520850D983                0580750N12_BAZAINVILLE     0550080005896005896000000000000000000000993      040871  90     039811   041741   039471   043930   037365   043135   041131   035717   042408   042645   041916   041176               150379701  907    140401341  937    130393931 1497    120379281 1017    110373321  757    039141   040483   039288   041518   038446   031239   029502   029355   040625   043045   041956   041039                                      
780101900310016 00120 4110201D983 Maulette       0580750Dept 28 (dév. Houdan0630064N12_MAULETTE        0580700004313004313000000000000000000000594      034345  92     031774   031469   034353   035853   036208   037289   033401   031632   035970   035984   034324   033887               150342771  947    140335431  897    130328601 1017    120323631 1017    110314731 1017    031467   032860   033528   036075   035201   037644   034430   030099   037006   036723   033569   032720                                      
780000100310016 00130 4110201N186 (Le port Marly)0200000D284                0210476N186 (Le port Marly)0200100001183001183000000000000000000000599      029700  46     000000   000000   000000   000000   000000   000000   000000   000000   000000   000000   000000   000000               150297001  467    140297001  467    130297001  467    120297001  467    110297001  467    000000   000000   000000   000000   000000   000000   000000   000000   000000   000000   000000   000000                                      
780102100310016 00130 4110201D284                0210476N184 (St-Germain en 0240180N 13 ST GERM EN LAY 0220760002587002587000000000000000000001292      041775  43     043967   044696   043596   045383   044630   039618   035158   036160   038399   038589   045383   045718               150415821  437    140336391  897    130328601  407    120428961  407    110429391  427    043899   043447   045196   041113   043279   036226   038978   031339   000000   046784   045558   000000                                      
780102200310016 00130 4110201N184                0240180D30                 0260225N 13ST GERM         0250150004158004158000000000000000000001095      023354  41     023246   023182   023535   023726   023636   024407   021916   020577   024157   024069   023902   023899               150230791  417    140221231  407    130212001  387    120205161  387    110195461  417    022338   022140   023078   022950   022586   023995   023405   000000   000000   000000   024139   000000                                      
780000100310016 01180 4110301limite Dept 92/78   0050001Dept 91             0070057limite Dept 92/78 / 0050575001890001890000000000000000000000188      087400         000000   000000   000000   000000   000000   000000   000000   000000   000000   000000   000000   000000               150874091         140929821         130935891         120653971         110647041         068972   070763   072331   096432   089774   100330   098279   077094   083039   099235   096554   096105                                      
780000100310016 01840 4116001N13                 0110000D190 (St Germain en 0120700N13 / D190 (St Germa0120500001218001218000000000000000000000188      085300         000000   000000   000000   000000   000000   000000   000000   000000   000000   000000   000000   000000               150853001         140853001         130853001         120852911         110852291         000000   000000   000000   000000   000000   000000   000000   000000   000000   000000   000000   000000                                      
780103390310016 01840 4115001D190                0120701D308                0160585N184_ST_GERMAIN     0160500003865003865000000000000000000001095      024641  69     023664   024631   024279   025352   025379   000000   000000   000000   000000   000000   000000   000000               150250591  697    140247651  677    130249001  697    120249101  697    110258921  637    024439   024966   024602   023289   023849   029176   027528   021514   000000   026425   024804   000000                                      
780000300310016 01840 4115001D308                0160586D30                 0200000D308 / D30          0200000004420004420000000000000000000000188      000000         000000   000000   000000   000000   000000   000000   000000   000000   000000   000000   000000   000000               150000001         140000001         130000001         120000001         110000001         000000   000000   000000   000000   000000   000000   000000   000000   000000   000000   000000   000000                                      
780103400310016 01840 4110001RD31                0200000A15                 0210640N184 CONFLANS       0210500001640001640000000000000000000001197      032800  66     000000   000000   000000   000000   000000   000000   000000   000000   000000   000000   000000   000000               150328001  667    140328001  667    130327841  667    120332381  647    110335331  657    000000   000000   000000   000000   000000   000000   000000   000000   000000   000000   000000   000000                                      
780000500310016 01840 4110201A15                 0210640Fin de secteur      0241182A15 / Fin de secteur0220200003460003460000000000000000000000188      000000         000000   000000   000000   000000   000000   000000   000000   000000   000000   000000   000000   000000               150000001         140000001         130000001         120000001         110000001         000000   000000   000000   000000   000000   000000   000000   000000   000000   000000   000000   000000                                      
780000100310016 01860 4110101N13 Port Marly      0220000D386                0230140N13 Port Marly / D380220950001185001185000000000000000000000599      000000         000000   000000   000000   000000   000000   000000   000000   000000   000000   000000   000000   000000               150000001         140000001         130000001         120000001         110000001         000000   000000   000000   000000   000000   000000   000000   000000   000000   000000   000000   000000                                      
780104000310016 01860 4110101D386 (N)            0230140D386 (S) (Louvecienn0250585N186_LOUVECIENNES   0250500002391002391000000000000000000000196      021212  78     020862   021126   021335   022051   022256   023472   019902   017437   022464   000000   000000   000000               150219641  787    140217721  837    130231391  847    120241901  767    110239601  767    021255   021584   022013   022189   021267   024348   022059   018083   023359   022950   022525   021936                                      
780000300310016 01860 4110201D386                0250585A12                 0270815D386 / A12          0250900002228002228000000000000000000000599      000000         000000   000000   000000   000000   000000   000000   000000   000000   000000   000000   000000   000000               150000001         140000001         130000001         120000001         110000001         000000   000000   000000   000000   000000   000000   000000   000000   000000   000000   000000   000000                                      
780105000310016 01910 4113001D7 (Dept 28)        0550000N10 - Ablis         0650707N191_ALLAINVILLE    0560300010180010180000000000000000000000592      010258 159     008161   009030   009483   010912   011009   010244   012966   000000   000000   000000   000000   000000               150099261 1767    140099641 1627    130097751 1627    120097681 1627    110097801         007817   008688   008661   010688   010991   010039   012513   012395   009644   009950   009225   008505                                      
910500200310016 00060 1110441Dép.94              0000000A126                0120690A6_WISSOUS          0090950004275004275000000000000000000000702      000000         000000   000000   000000   000000   000000   000000   000000   000000   000000   000000   000000   000000               151292501  967    141295841  927    131300051 1077    121292341  717    111334501  737    123902   128533   125987   127785   132884   132750   132908   000000   000000   000000   000000   000000                                      
910500400310016 00060 1110441A126                0120690N445                0200515A6_VIRY             0190670007815007815000000000000000000000501      159700  91     000000   000000   000000   000000   000000   000000   000000   000000   000000   000000   000000   000000               151596741  917    141677441  817    131653761  927    121625431  927    111643631  947    156257   159941   155822   166674   000000   000000   000000   000000   000000   000000   000000   000000                                      
910000300310016 00060 1110441D445                0200515N104 Ouest          0230910D445 / N104 Ouest   0210000003395003395000000000000000000000599      114800         000000   000000   000000   000000   000000   000000   000000   000000   000000   000000   000000   000000               151147551         141169701         131320731         121167481         111335771         109784   119725   000000   000000   000000   000000   000000   000000   000000   000000   000000   000000                                      
910500700310016 00060 1110441N104 Ouest          0230910N104 Est            0270850A6_EVRY             0240450003933003933000000000000000000000102      105694  98     100301   112288   090675   097421   110303   110992   112601   107818   108848   000000   000000   000000               151030181  937    140941241  997    130932711 1027    121050481  957    111069151         095027   096755   090036   103458   110638   115372   113567   105362   099263   101372   103205   102165                                      
910501100310016 00060 1110441N104 Est            0270850N337                0340930A6_CORBEIL - SUD    0340158007084007084000000000000000000000895      082570 100     078148   081038   084203   076083   082739   083107   087197   084103   083500   085578   000000   000000               150830011  987    140833641  977    130816071  987    120865071 1017    110895221         076946   079610   082871   081866   085487   085768   089456   085964   084103   084878   080479   078262                                      
910000600310016 00060 1110441N337                0340930limite Dept 91/77   0380385N337 / limite Dept 90370000003440003440000000000000000000000599      072200         000000   000000   000000   000000   000000   000000   000000   000000   000000   000000   000000   000000               150722001         140722001         130722001         120722001         110722001         000000   000000   000000   000000   000000   000000   000000   000000   000000   000000   000000   000000                                      
910000100310016 0006b 1110441BP Porte Italie     0000000A10                 0090701BP Porte Italie / A10010000001280001280000000000000000000000190      108468         104906   105625   110268   110708   111937   112913   119397   092279   106432   106381   109670   111101               151104201         141309841         131266161         121300691         111245991         108376   114618   111155   109782   111367   106397   113261   115903   106966   109804   108172   109234                                      
910000100310016 00100 1110341D167                0000000A126 Est            0040700D137 / A126 Est     0020800004700004700000000000000000000000188      123817         112873   121474   118727   128712   123518   121722   131288   120107   124601   124212   118901   121293               151226841         141249021         131027031         121031291         111234401         116115   123184   113880   127015   119371   124989   129544   122504   123244   123829   113131   120526                                      
910501800310016 00100 1110441A126 Est            0040700A126 Ouest          0060470A10_CHAMPLAN        0040708001770001770000000000000000000001194      122597 114     112683   119477   118618   124545   121154   124412   129716   129391   123373   000000   000000   000000               151197091 1147    141046001 1147    131046001 1147    121046001 1147    111045771 1147    000000   000000   000000   000000   112565   122140   132836   000000   119649   118865   112198   000000                                      
910501400310016 00100 1110241A126 Ouest          0060470N446                0131025A10_VILLEBON        0090130007555007555000000000000000000000694      076218  95     063557   068315   051471   077648   086473   083795   094887   093485   077957   074769   073118   069141               150716391  977    140649271 1007    130690121 1477    120714621 1477    110735061 1517    059838   063715   065860   073950   073680   074040   084966   083893   000000   073093   063354   000000                                      
910501900310016 01260 1113041A6                  0000000A10                 0020625A126_CHILLY         0010174002620002620000000000000000000000598      032787  77     000000   036838   029882   031642   000000   000000   000000   000000   000000   000000   000000   000000               150353051  777    140337691  677    130328911  697    120327401  737    110327071         033552   033113   035985   036946   035116   038999   036179   030556   036266   036538   035097   000000                                      
910000200310016 01260 1113041A10 (D188)          0040000D36                 0061180A10 (D188) / D36    0040500003580003580000000000000000000000198      000000         000000   000000   000000   000000   000000   000000   000000   000000   000000   000000   000000   000000               150000001         140000001         130000001         120000001         110000001         000000   000000   000000   000000   000000   000000   000000   000000   000000   000000   000000   000000                                      
910000100310016 00060 4110201Dép. 94             0000000D50 (Brunoy)        0050880N6 _BRUNOY          0040772005869005869000000000000000000001091      034371  61     000000   000000   000000   000000   000000   000000   035353   031226   036534   000000   000000   000000               150359571  617    140355161  587    130352001  617    120343881  567    110348591         035304   035483   036368   037016   036028   039001   035793   030826   036732   036757   035738   036438                                      
910000200310016 00060 4110201D50 (Brunoy)        0050880D33                 0070300D50 (Brunoy) / D33  0070000001420001420000000000000000000001287      000000         000000   000000   000000   000000   000000   000000   000000   000000   000000   000000   000000   000000               150000001         140000001         130000001         120000001         110000001         000000   000000   000000   000000   000000   000000   000000   000000   000000   000000   000000   000000                                      
910000300310016 00060 4110301D33                 0070300D33                 0090648D33 / D33           0080000002340002340000000000000000000001287      000000         000000   000000   000000   000000   000000   000000   000000   000000   000000   000000   000000   000000               150000001         140000001         130000001         120000001         110000001         000000   000000   000000   000000   000000   000000   000000   000000   000000   000000   000000   000000                                      
910000400310016 00060 4110201D33                 0090648Dép. 77             0111478D33 / Dép. 77       0110500002833002833000000000000000000001287      027800         000000   000000   000000   000000   000000   000000   000000   000000   000000   000000   000000   000000               150278001         140278001         130277581         120000001         110000001         000000   000000   000000   000000   000000   000000   000000   000000   000000   000000   000000   000000                                      
910000100310016 00070 4110201Dép. 94             0020000Sud pistes Orly     0040410Dép. 94 / Sud pistes0040053002330002330000000000000000000000193      058400  45     000000   000000   000000   000000   000000   000000   000000   000000   000000   000000   000000   000000               150584001  457    140584001  457    130584001  457    120583671  457    110612201  477    000000   000000   000000   000000   000000   000000   000000   000000   000000   000000   000000   000000                                      
910000100310016 00200 4110201LIAISON A10         0030000LIAISON RN20        0031270LIAISON A10 / RN20  0030000001270001270000000000000000000000599      100760         089124   093428   096008   101706   097658   097718   102041   104679   000000   000000   000000   000000               151192691         141253111         130995081         120961901         110984331         000000   000000   108996   124664   118705   124315   128998   099662   000000   000000   000000   000000                                      
910100300310016 01040 4110251A5a                 0290000Villepecle D33      0310200N104_TIGERY         0300931002251002251000000000000000000001194      089300 142     000000   000000   000000   000000   000000   000000   000000   000000   000000   000000   000000   000000               150893001 1427    140893331 1427    130881931 1427    120917321 1427    111021861 1317    000000   000000   000000   000000   000000   000000   000000   000000   000000   000000   000000   000000                                      
910000200310016 01040 4110201Villepecle D33      0310200N7                  0340950Villepecle D33 / N7 0340000003654003654000000000000000000000194      104316         000000   000000   000000   000000   000000   108708   103755   092354   099838   108871   108528   108160               151039601         141189001         131189241         121128891         111071691         107464   105336   105208   101080   098952   111093   107720   099142   106040   104994   097755   102739                                      
910000300310016 01040 4110201N7                  0340950A6                  0370050N7 / A6             0360000002060002060000000000000000000000194      117100         000000   000000   000000   113560   114943   122826   118003   105146   120174   122077   119691   117483               151041691         141066871         130979501         120954031         110972771         100965   104378   084829   109134   103567   114489   112004   096564   100425   111064   103508   108982                                      
910100800310016 01040 4110201A6                  0370050N449                0400640N104_EVRY           0391097003876003876000000000000000000000102      045345 135     050497   047594   036478   042778   000000   000000   000000   000000   000000   000000   049379   000000               150402411         140530491  997    130425851 1527    120427221 1527    110472911         051640   054731   000000   000000   000000   000000   000000   000000   000000   025522   029071   000000                                      
910101000310016 01040 4110251N449                0400640D133                0480520N104_FLEURY         0430860008339008339000000000000000000001094      081509 143     079029   085607   068884   074878   086818   091628   087351   077875   000000   000000   000000   000000               150845731 1437    140838181 1417    130836421 1407    120833131 1347    110828471 1377    080307   076891   085335   088188   084017   092080   087384   076669   088229   087527   084222   084026                                      
910101300310016 01040 4110201D133                0480520N20                 0510000N104_LINAS          0500047003035003035000000000000000000000595      052034  95     047934   050946   038959   049439   052902   058252   053568   048527   059492   061513   051498   051373               150582141 1167    140668471 1207    130700751 1267    120696481 1297    110705701         046752   052064   053982   058906   067370   068930   056039   052181   072790   070136   049696   049725                                      
910101400310016 01040 4110201N20                 0510000A10                 0590610MARCOUSSIS          0560466008610008610000000000000000000001094      051294 158     050980   053685   038112   046385   053608   056641   053948   049387   053815   053637   051860   053470               150515651 1607    140506441 1637    130505751 1577    120511231 1577    110513851         048487   048954   050852   053795   050455   054807   053292   047925   053591   054556   050571   051492                                      
910001400310016 01180 4110201Dép.78              0000000N444                0020910N118_BIEVRES        0000527002856002856000000000000000000000795      090944  61     088025   092634   075050   085110   093626   097884   093561   088887   097262   093995   092496   092800               150913451  647    140898911  647    130883901  647    120889191  597    110888581         086213   089413   087903   095371   091252   099537   095071   082666   093486   094008   089874   000000                                      
910001600310016 01180 4110201N444                0020910D128/N446           0090455N118_SACLAY         0070179006421006421000000000000000000001093      064946  60     062206   064735   066031   070163   066815   068073   063325   063183   066378   062420   062228   063790               150637001  577    140637001  577    130637191  577    120637161  577    110596291  557    000000   000000   000000   000000   000000   000000   000000   000000   000000   000000   000000   000000                                      
910002300310016 01180 4110201D128 / N446         0090455A10                 0150370N118_ULIS           0140895006045006045000000000000000000001203      047494  51     043295   045864   040280   044092   045719   049658   056878   051147   048185   047928   048232   048653               150490501  527    140458671  477    130523431  507    120566511  567    110561531  787    042522   045903   045846   054573   048671   048533   057090   050870   000000   000000   047445   000000                                      
910002500310016 01880 4113001A10                 0040000D988                0050295N188_VILLEBON       0040319001150001150000000000000000000000894      000000         000000   000000   000000   000000   000000   000000   000000   000000   000000   000000   000000   000000               150107001         140107001         130107001         120107001         110107001  187    000000   000000   000000   000000   000000   000000   000000   000000   000000   000000   000000   000000                                      
910000100310016 03060 4110201D906                0000000D533                0000940D906 / D533         0000570004257004257000000000000000000000194      038875         036220   039544   035793   041958   039350   041199   040822   000000   000000   000000   037766   037223               150359641         140370001         130362241         120000001         110000001         035192   038002   037202   037978   035816   040378   000000   032359   032410   038834   034242   033190                                      
910000100310016 03370 4110101A6                  0000000N7 Le Coudray-Montce0010000A6 / N7 Le Coudray-M0010000001000001000000000000000000000000194      000000         000000   000000   000000   000000   000000   000000   000000   000000   000000   000000   000000   000000               150000001         140000001         130000001         120000001         110000001         000000   000000   000000   000000   000000   000000   000000   000000   000000   000000   000000   000000                                      
910000200310016 03370 4110101N7 Le Coudray-Montce0010000D607                0011035N7 Le Coudray-Montce0010500001030001030000000000000000000000194      000000         000000   000000   000000   000000   000000   000000   000000   000000   000000   000000   000000   000000               150000001         140000001         130000001         120000001         110000001         000000   000000   000000   000000   000000   000000   000000   000000   000000   000000   000000   000000                                      
910000100310016 04400 4110241jonction A6         0000000N104                0011020jonction A6 / N104  0010700002020002020000000000000000000000194      004200         000000   000000   000000   000000   000000   000000   000000   000000   000000   000000   000000   000000               150041691         140043681         130043441         120043901         110068041         004102   004235   000000   000000   000000   000000   000000   000000   000000   000000   000000   000000                                      
910000100310016 04410 4110241jonction A6         0000000N104                0001000jonction A6 / N104  0000615001000001000000000000000000000000194      025300         000000   000000   000000   000000   000000   000000   000000   000000   000000   000000   000000   000000               150253321         140254001         130253761         120252401         110254381         022255   024030   023712   026400   024700   000000   028400   023473   026200   027196   000000   000000                                      
910000100310016 04460 4110251bre sortie N104     0280000bre sortie N104     0280550bre sortie N104 / br0280070000550000550000000000000000000000113      009542         000000   009691   000000   000000   009490   010500   009039   007513   010335   008889   010386   010032               150082091         140087541         130087041         120000001         110000001         008855   008881   009306   009038   007595   008161   005884   005406   009458   000000   000000   009638                                      
910000100310016 04490 4110251bre sortie N104     0000000bre sortie N104     0001450bre sortie N104 / br0000400001450001450000000000000000000000113      000000         000000   000000   000000   000000   000000   000000   000000   000000   000000   000000   000000   000000               150000001         140000001         130000001         120000001         110000001         000000   000000   000000   000000   000000   000000   000000   000000   000000   000000   000000   000000                                      
750000100310016 00130 1110031A13 Paris           0000000A13 Paris           0001185A13 Paris / A13 Pari0000860001180001180000000000000000000000194      085100         000000   000000   000000   000000   000000   000000   000000   000000   000000   000000   000000   000000               150851061         140962871         131059001         121059001         111059241         087995   091992   083994   085378   084974   086104   076002   000000   000000   000000   000000   000000                                      
920000100310016 00130 1110441A13 Paris (BP Pte Ma0000000D182 (Vaucresson dep0080809A13 Paris / D182 (Va0040300008870008870000000000000000000000194      138531         000000   000000   000000   000000   000000   128601   129197   140436   141889   138531   000000   000000               151366601         141407691         131379891         121658971         111686331         137003   139697   135611   144634   145167   163347   144171   124379   140509   124298   114959   000000                                      
920000100310016 00860 1110641A14                 0000000A15                 0080700A14 / A15           0050870008660008660000000000000000000000202      080556         000000   083876   083822   084445   081639   000000   000000   000000   000000   000000   067888   081668               150830371         140850681         130843421         120853551         110865911         082878   086119   085805   086023   084274   088754   085433   075476   084569   076056   078998   000000                                      
920000200310016 00860 1110441A15                 0080700Dépt 93             0110860A15 / Dépt 93       0100000003369003369000000000000000000000102      139264         088692   138471   127534   154981   149307   152603   000000   000000   000000   130889   158929   151974               151459801         141598111         131585561         121578271         111583171         155470   161733   142632   143700   145074   155022   152353   134982   139249   145596   000000   135617                                      
920000300310016 00860 1110241A86 (Croix de Berny)0520000N385                0521745A86 (Croix de Berny)0520000001740001740000000000000000000000102      078456         000000   000000   000000   081264   080389   079900   079041   068249   081815   081595   080297   073550               150791571         140736411         130757191         120758611         110764851         072680   077418   092700   091696   092562   089478   075597   035947   091699   082390   072431   075281                                      
920000400310016 00860 1110241N13                 0750100A14                 0800380N13 / A14           0760000005230005230000000000000000000000102      000000         000000   000000   000000   000000   000000   000000   000000   000000   000000   000000   000000   000000               150000001         140000001         130000001         120000001         110000001         000000   000000   000000   000000   000000   000000   000000   000000   000000   000000   000000   000000                                      
920000100310016 00130 4110401Paris               0000000D7                  0091403Paris / D7          0080550004570004570000000000000000000000504      131168         130598   116653   118596   138147   137074   140965   133464   112650   138901   139040   133324   134592               151319491         141388461         131253661         121293001         111292861         131367   140465   137253   137513   131819   139055   136900   113004   123440   125434   131422   135714                                      
920000100310016 01180 4110501RN 10 Pont de Sévres0000000LIMITE DEP 78       0041124RN 10 Pont de Sévres0040123005160005160000000000000000000000188      086296         000000   000000   000000   000000   000000   092955   079637   000000   000000   000000   000000   000000               150956901         140968491         130976701         120955661         110982441         089633   095666   097542   093458   097568   094125   097658   096548   098456   095421   095632   096578                                      
920000100310016 01920 4117001N192                0000000bd circulaire       0010073N192 / bd circulaire0010000000820000820000000000000000000000504      000000         000000   000000   000000   000000   000000   000000   000000   000000   000000   000000   000000   000000               150205001         140205001         130205001         120205001         110205001         000000   000000   000000   000000   000000   000000   000000   000000   000000   000000   000000   000000                                      
920000100310016 03140 4110201Bd circul.          0000000bd des bouvets      0000415Bd circul. / bd des 0000400001541001541000000000000000000000188      000000         000000   000000   000000   000000   000000   000000   000000   000000   000000   000000   000000   000000               150000001         140000001         130000001         120000001         110000001         000000   000000   000000   000000   000000   000000   000000   000000   000000   000000   000000   000000                                      
920000100310016 03150 4110601D9                  0010000A15                 0030950D9 / A15            0020100002680002680000000000000000000000699      050022         050634   051487   050603   053566   053236   054486   053187   045946   053945   053565   029784   049655               150451661         140526351         130512591         120516991         110504121         049437   048137   046420   049092   049781   048260   046790   041901   032856   028459   049542   051198                                      
920000100310016 00150 1110641A15                 0000000limite gestion Dept 0050900A15 / limite gestion0050000001950001950000000000000000000000202      139533         000000   000000   000000   129911   145664   000000   000000   000000   000000   000000   138677   143879               151360461         141458281         131414601         121385371         111399211         000000   127444   000000   000000   139971   000000   000000   000000   000000   000000   136567   140200                                      
920000100310016 03850 4110201N385 (A86 Antony)   0530000N118                0581190N385 (A86 Antony) / 0570000005940005940000000000000000000000188      089500         000000   000000   000000   000000   000000   000000   000000   000000   000000   000000   000000   000000               150894601         140860501         130882021         120740751         110739901         000000   092733   086186   000000   000000   000000   000000   000000   000000   000000   000000   000000                                      
920000100310016 10130 4110201N1014               0000000Brd circul.         0000911N1014 / Brd circul. 0000300000910000910000000000000000000000504      000000         000000   000000   000000   000000   000000   000000   000000   000000   000000   000000   000000   000000               150000001         140000001         130000001         120000001         110000001         000000   000000   000000   000000   000000   000000   000000   000000   000000   000000   000000   000000                                      
920000100310016 10140 4110401N1014 (Pt Neuilly)  0000000N1013               0000642N1014 (Pt Neuilly) /0000300000642000642000000000000000000000504      000000         000000   000000   000000   000000   000000   000000   000000   000000   000000   000000   000000   000000               150000001         140000001         130000001         120000001         110000001         000000   000000   000000   000000   000000   000000   000000   000000   000000   000000   000000   000000                                      
920000200310016 10140 4110601N1014 = N1013       0000642N314                0010360N1014 = N1013 / N3140010300000757000757000000000000000000000699      000000         000000   000000   000000   000000   000000   000000   000000   000000   000000   000000   000000   000000               150000001         140000001         130000001         120000001         110000001         000000   000000   000000   000000   000000   000000   000000   000000   000000   000000   000000   000000                                      
920000100310016 00140 1110641A14 = N1014         0000000A86                 0030970A14 = N1014 / A86   0030900002610002610000000000000000000000699      098273         000000   000000   000000   098551   103018   107141   106429   085752   107849   097048   097000   081669               150966371         141019781         131032061         120958001         110957981         000000   000000   099902   100116   098314   100310   099348   093072   083024   099655   094246   098385                                      
920000200310016 00140 1110641A14 = A86           0030970limite concession   0040550A14 = A86 / limite c0040500000803000803000000000000000000000699      000000         000000   000000   000000   000000   000000   000000   000000   000000   000000   000000   000000   000000               150000001         140000001         130000001         120000001         110000001         000000   000000   000000   000000   000000   000000   000000   000000   000000   000000   000000   000000                                      
930500300310016 00010 1150441BP Pte Chapelle     0000000N301                0040900A1_SAINT DENIS      0030800004887004887000000000000000000000889      000000         000000   000000   000000   000000   000000   000000   000000   000000   000000   000000   000000   000000               151748901         141827911         131951001         121951001         111951001         173803   181464   171088   169760   182445   180925   179335   176287   176465   180995   160546   175571                                      
930000200310016 00010 1150441N301                0040900A86                 0060900N301 / A86          0060400002017002017000000000000000000000889      123200         000000   000000   000000   000000   000000   000000   000000   000000   000000   000000   000000   000000               151232001         141232001         131232001         121232001         111232001         000000   000000   000000   000000   000000   000000   000000   000000   000000   000000   000000   000000                                      
930000300310016 00010 1150441A86                 0060900N2                  0080700A86 / N2            0070500001801001801000000000000000000000889      169100         000000   000000   000000   000000   000000   000000   000000   000000   000000   000000   000000   000000               151690681         141729391         131703001         121703051         111685721         161999   169452   170371   168782   171486   174689   171936   163728   000000   000000   000000   000000                                      
930500500310016 00010 1150441N2                  0080700A3                  0110513A1_BLANCMESNIL      0100200002817002817000000000000000000000889      000000         000000   000000   000000   000000   000000   000000   000000   000000   000000   000000   000000   000000               151775001         141775001         131775001         121775211         111768101         000000   000000   000000   000000   000000   000000   000000   000000   000000   000000   000000   000000                                      
930000500310016 00010 1150441A3                  0110513A104                0130401A3 / A104           0120000001880001880000000000000000000000889      122500         000000   000000   000000   000000   000000   000000   000000   000000   000000   000000   000000   000000               151225001         141225001         131225001         121225371         111213211         000000   000000   000000   000000   000000   000000   000000   000000   000000   000000   000000   000000                                      
930000100310016 00030 1150531BP Pte Bagnolet     0000000A86                 0050850BP Pte Bagnolet / A80040000005533005533000000000000000000000889      157349         000000   000000   000000   000000   000000   000000   000000   000000   000000   000000   000000   000000               151648001         141647831         131638001         121638421         111687041         000000   000000   000000   000000   000000   000000   000000   000000   000000   000000   000000   000000                                      
930000200310016 00030 1150531TC 5+0850 (A3) - 24+0050850TC 7+0300 (A3) - 25+0070300TC A3-A86 / TC A3-A80060500001360001360000000000000000000000889      118500         000000   000000   000000   000000   000000   000000   000000   000000   000000   000000   000000   000000               151185001         141185001         131185001         121184941         110992001         000000   000000   000000   000000   000000   000000   000000   000000   000000   000000   000000   000000                                      
930501300310016 00030 1150431N3                  0070300A1 (Garonor)        0150234A3_BLANCMESNIL      0120006008167008167000000000000000000000889      000000         000000   000000   000000   000000   000000   000000   000000   000000   000000   000000   000000   000000               151664001         141664001         131664001         121664001         111664001         000000   000000   000000   000000   000000   000000   000000   000000   000000   000000   000000   000000                                      
930000100310016 00160 1150431D64                 0000000L'Isle-Adam         0011059D64 / L'Isle-Adam   0000100002080002080000000000000000000001115      000000         000000   000000   000000   000000   000000   000000   000000   000000   000000   000000   000000   000000               150000001         140000001         130000001         120000001         110000001         000000   000000   000000   000000   000000   000000   000000   000000   000000   000000   000000   000000                                      
930000100310016 00860 1150231Dépt 92             0120000D30 (St Denis)      0140200Dépt 92 / D30 (St De0160000002200002200000000000000000000000889      118700         000000   000000   000000   000000   000000   000000   000000   000000   000000   000000   000000   000000               151187001         141187001         131187001         121187001         111187001         000000   000000   000000   000000   000000   000000   000000   000000   000000   000000   000000   000000                                      
930000200310016 00860 1110041D30                 0140200D27                 0150500D30 / D27           0150200001278001278000000000000000000001115      000000         000000   000000   000000   000000   000000   000000   000000   000000   000000   000000   000000   000000               150000001         140000001         130000001         120000001         110000001         000000   000000   000000   000000   000000   000000   000000   000000   000000   000000   000000   000000                                      
930000300310016 00860 1110041D27                 0150500A3                  0240041D27 / A3            0160600008339008339000000000000000000001115      133308         000000   000000   000000   000000   000000   000000   000000   000000   000000   000000   000000   000000               150000001         140000001         130000001         120000001         110000001         000000   000000   000000   000000   000000   000000   000000   000000   000000   000000   000000   000000                                      
930000400310016 00860 1110041A3                  0250000dept94              0281153A86_ROSNY S/BOIS    0280050003210003210000000000000000000001115      000000         000000   000000   000000   000000   000000   000000   000000   000000   000000   000000   000000   000000               150000001         140000001         130000001         120000001         110000001         000000   000000   000000   000000   000000   000000   000000   000000   000000   000000   000000   000000                                      
930000100310016 01030 1150231A3                  0000000N302                0011187A3 / N302           0000400001960001960000000000000000000000889      047600         000000   000000   000000   000000   000000   000000   000000   000000   000000   000000   000000   000000               150476001         140476001         130476001         120476001         110461001         000000   000000   000000   000000   000000   000000   000000   000000   000000   000000   000000   000000                                      
930000100310016 01040 1150231A1                  0000000N2 dans Dept 77     0070078A1 / N2 dans Dept 770040600007070007070000000000000000000000794      111200         000000   000000   000000   000000   000000   000000   000000   000000   000000   000000   000000   000000               151112001         141112001         131112001         121112001         111112001         000000   000000   000000   000000   000000   000000   000000   000000   000000   000000   000000   000000                                      
930000100310016 00860 1110041BDL A1              0170100BDL A86             0180200BDL A1 / BDL A86    0170400001912001912000000000000000000001115      000000         000000   000000   000000   000000   000000   000000   000000   000000   000000   000000   000000   000000               150000001         140000001         130000001         120000001         110000001         000000   000000   000000   000000   000000   000000   000000   000000   000000   000000   000000   000000                                      
930000100310016 00020 4150201N330                0180000Dept 60             0190143N330 / Dept 60      0180000000990000990000000000000000000001115      000000         000000   000000   000000   000000   000000   000000   000000   000000   000000   000000   000000   000000               150000001         140000001         130000001         120000001         110000001         000000   000000   000000   000000   000000   000000   000000   000000   000000   000000   000000   000000                                      
930000100310016 01860 1110231A1 - N1             0040000N301                0040900N1 - A1 / N301      0040200000470000470000000000000000000001115      000000         000000   000000   000000   000000   000000   000000   000000   000000   000000   000000   000000   000000               150000001         140000001         130000001         120000001         110000001         000000   000000   000000   000000   000000   000000   000000   000000   000000   000000   000000   000000                                      
940500300310016 00040 1150641Paris               0000000A86 Sud             0040820A4_SAINT MAURICE    0030050004843004843000000000000000000001287      204186         000000   000000   000000   000000   000000   201280   000000   000000   000000   000000   205032   206246               152282001         142282001         132282001         122282001         112282421         000000   000000   000000   000000   000000   000000   000000   000000   000000   000000   000000   000000                                      
940500400310016 00040 1150641A86 Sud             0040820A86 Nord            0070720A4_JOINVILLE        0060050002924002924000000000000000000001287      237662         000000   000000   000000   000000   000000   000000   000000   000000   000000   000000   000000   000000               152170671  817    142167751  817    132202071  817    122199541  817    112246361  817    209200   218057   216747   220352   218462   220585   000000   000000   000000   000000   000000   000000                                      
940500700310016 00040 1150641A86 Nord            0070720Concession SANEF    0120700A4_CHAMPIGNY        0100246005012005012000000000000000000001287      152102         000000   000000   000000   149059   156810   000000   000000   136059   000000   161469   157111   000000               151622001         141622001         131622001         121622001         111621641         000000   000000   000000   000000   000000   000000   000000   000000   000000   000000   000000   000000                                      
940501300310016 0006a 1150441Paris               0000000A106                0050213A6a_ARCUEIL         0000850005257005257000000000000000000000193      119975         000000   000000   000000   000000   000000   000000   124703   115246   000000   000000   000000   000000               151210001    7    141210001  447    131209651  447    121244361  447    111301841  447    000000   000000   000000   000000   000000   000000   000000   000000   000000   000000   000000   000000                                      
940000200310016 0006a 1150441A106                0050214Dépt 91             0080414A106 / Dépt 91      0070500003210003210000000000000000000000193      120500         000000   000000   000000   000000   000000   000000   000000   000000   000000   000000   000000   000000               151205001         141205001         131205001         121204511         111222531         000000   000000   000000   000000   000000   000000   000000   000000   000000   000000   000000   000000                                      
940501700310016 0006b 1150241Paris               0000000A106                0050523A6b_ARCUEIL         0010861005535005535000000000000000000000193      108727         104906   000000   110268   110708   111937   112913   119397   092279   106432   106381   109670   111101               151129001  377    141129001  377    131129001  377    121129001  377    111128801  377    000000   000000   000000   000000   000000   000000   000000   000000   000000   000000   000000   000000                                      
940000200310016 0006b 1150441A106                0050524N186                0080414A106 / N186         0070200003100003100000000000000000000000193      099291         000000   000000   000000   104014   105645   109474   109852   070530   000000   089254   000000   106265               151645601         141626121         131678001         121678001         111678481         147974   160667   163342   164496   166938   163090   146347   146823   138167   147752   000000   000000                                      
940000100310016 00860 1110041limite Dept 93/94   0290000A4                  0330109limite Dept 93/94 / 0290000004639004639000000000000000000000194      127914         123706   116844   129792   128857   128101   131324   131185   130290   132037   128621   125845   128362               151274571         141248901         131111441         121138091         111352481         000000   000000   126620   126179   126625   132718   130898   126155   127918   129700   121240   126518                                      
940000200310016 00860 1110041A4                  0350000N6                  0400911A4 / N6             0370100006381006381000000000000000000000194      172637         000000   000000   000000   000000   000000   165650   177623   173285   177055   179454   162754   000000               150000001         140000001         130000001         120000001         110000001         000000   000000   000000   000000   000000   000000   000000   000000   000000   000000   000000   000000                                      
940000300310016 00860 1110041N6                  0400912N186                0470245N6 / N186           0450000006557006557000000000000000000000194      140725         140618   146620   145130   149645   135221   147780   144840   139630   126590   129110   139885   143626               151436971         141394281         131382751         121449251         111482081         000000   000000   144161   142603   145093   152296   146172   137218   145555   143900   136486   143487                                      
940000400310016 00860 1150241A6 B                0500000Dept 92             0511094A6 B / Dept 92      0500800002090002090000000000000000000000194      082962         000000   000000   000000   087489   070081   088393   083059   072638   087514   088131   084906   084444               150761271  467    140793291  687    130959731  687    120964441  657    110966831         072126   074464   075752   076666   072070   078014   071334   064094   080899   095919   000000   000000                                      
940000100310016 01060 1110031A6 A / A6 B         0050300Dept 91             0080700A6 A / A6 B / Dépt 90060600003507003507000000000000000000000193      059237         000000   000000   000000   058749   000000   061858   061149   055190   000000   000000   000000   000000               150572621         140579741         130579741         120578001         110578001         000000   000000   000000   000000   000000   000000   000000   000000   000000   000000   000000   000000                                      
940000100310016 00060 4156001A86 (D86)           0120495D110                0150393A86 (D86) / D110    0140285002898002898000000000000000000000193      000000         000000   000000   000000   000000   000000   000000   000000   000000   000000   000000   000000   000000               150507001    7    140507001  717    130507001  717    120507381  717    110524611  747    000000   000000   000000   000000   000000   000000   000000   000000   000000   000000   000000   000000                                      
940000200310016 00060 4156001D110                0150394Dept 91             0190379N6_VILLENEUVE       0190100003985003985000000000000000000000107      034711  62     030526   032922   032802   038466   041509   034871   034846   036008   035470   033240   032738   033134               150349281  587    140377391  477    130344791  517    120349271  517    110360531  517    032948   036991   034786   034176   032658   037586   040349   033702   034514   034817   033937   032890                                      
940000100310016 00190 4110001N406                0150607D253 (Villecresnes) 0200200N19_BOISSY ST LEGER 0190100005200005200000000000000000000000612      036600  57     000000   000000   000000   000000   000000   000000   000000   000000   000000   000000   000000   000000               150365541  577    140357321  647    130350071  647    120328101  647    110362001         000000   000000   000000   000000   036734   040248   034772   029555   037627   038191   037489   037819                                      
940000200310016 00190 4110001D253 (Villecresnes) 0200201D261 (Santeny)      0240403D253 (Villecresnes) 0220000004200004200000000000000000000001115      000000         000000   000000   000000   000000   000000   000000   000000   000000   000000   000000   000000   000000               150000001         140000001         130000001         120000001         110000001         000000   000000   000000   000000   000000   000000   000000   000000   000000   000000   000000   000000                                      
940000100310016 01860 411000147 + 246 de A86     0000000D7 (48 + 000 de N1860000161A86 / D7            0470500000740000740000000000000000000000193      000000         000000   000000   000000   000000   000000   000000   000000   000000   000000   000000   000000   000000               150000001         140000001         130000001         120000001         110000001         000000   000000   000000   000000   000000   000000   000000   000000   000000   000000   000000   000000                                      
940000200310016 01860 4110001D7 (48 + 000 de N1860480000D265 (49 + 995 de N10490995N186_RUNGIS         0480400002799002799000000000000000000000394      066879  54     065057   067538   065523   064626   069063   071651   060603   061802   071669   070748   067559   066703               150659391  54     140654451  53     130636261         120637871  537    110634091  537    063952   065685   000000   000000   000000   000000   000000   060632   000000   071796   066262   067306                                      
940073400310016 04060 4140301Bretelle A86        0000000N19                 0051002N406_BONNEUIL       0050500006038006038000000000000000000000796      000000         000000   000000   000000   000000   000000   000000   000000   000000   000000   000000   000000   000000               150566531         140804001         130804001         120804421         110817741         066111   066413   057744   065420   050987   055960   054683   049728   054631   059656   060962   037544                                      
940000100310016 04860 4152051D145                0000000Pt de Nogent        0000605D145 / Pt de Nogent 0000500000600000600000000000000000000001287      000000         000000   000000   000000   000000   000000   000000   000000   000000   000000   000000   000000   000000               150000001         140000001         130000001         120000001         110000001         000000   000000   000000   000000   000000   000000   000000   000000   000000   000000   000000   000000                                      
950000100310016 00010 1150441Jonction A3         0140000Concession Roissy   0180930Jonction A3 / Conces0170300005520005520000000000000000000000607      058687         000000   000000   000000   000000   000000   000000   000000   000000   000000   000000   000000   000000               150906001         140906001         130906001         120906001         110905721         000000   000000   000000   000000   000000   000000   000000   000000   000000   000000   000000   000000                                      
950000100310016 00030 1150431A3 dans le 95       0150225A3 dans le 95       0180615A3 dans le 95 / A3 d0170400003400003400000000000000000000000607      088272         000000   000000   000000   000000   000000   000000   000000   000000   000000   000000   000000   000000               151059001         141361001         131361001         121361001         111360971         000000   000000   092286   086973   103777   000000   126198   119653   109137   000000   000000   000000                                      
950500300310016 00150 1110641Dept 92             0060000A115                0100715A15_SANNOIS         0090300004838004838000000000000000000000392      198372  51     000000   000000   000000   000000   000000   000000   000000   000000   000000   000000   000000   000000               151902211         141935981         131892001         121892001         111891751         000000   000000   000000   000000   000000   000000   000000   000000   000000   000000   000000   000000                                      
950000200310016 00150 1110441A115                0100716RD192               0150000A115 / RD192        0110400001286001286000000000000000000000195      118914         000000   000000   000000   000000   000000   000000   000000   000000   000000   000000   000000   000000               151202411         141160551         131172001         121172231         111179841         121331   119160   000000   000000   000000   000000   000000   000000   000000   000000   000000   000000                                      
950500600310016 00150 1140441RD192               0150001RN184               0210950A15_PIERRELAYE      0180100006959006959000000000000000000001092      114000         000000   000000   000000   000000   000000   000000   000000   000000   000000   000000   000000   000000               151140161         141177111         131084101         121133891         111091221         112629   112712   000000   000000   000000   000000   000000   102009   116914   116597   119066   118184                                      
950500900310016 00150 1140241RN184               0210951Ech10               0241000A15_ERAGNY          0220550003051003051000000000000000000001193      146195  50     000000   000000   000000   000000   000000   000000   000000   000000   000000   000000   000000   000000               151450531  507    141622331  487    131607671  497    121604361  487    111394351         139654   143897   148165   160674   144317   168329   142910   118882   162731   160654   145181   145992                                      
950501500310016 01150 1150241A15                 0000000RD506               0030000A115_SANNOIS        0000750002997002997000000000000000000000494      072000  27     000000   000000   000000   000000   000000   000000   000000   000000   000000   000000   000000   000000               150720001  277    140720001  277    130720001  277    120720001  277    110720021  277    000000   000000   000000   000000   000000   000000   000000   000000   000000   000000   000000   000000                                      
950501800310016 01150 1140141RD506               0030001RD407               0060450A115_SAINT-LEU-LA-F 0040550003457003457000000000000000000000992      063600  47     000000   000000   000000   000000   000000   000000   000000   000000   000000   000000   000000   000000               150636001  477    140636051  477    130622361  477    120618061  477    110629261  457    000000   000000   000000   000000   000000   000000   000000   000000   000000   000000   000000   000000                                      
950000300310016 01150 1110031D407                0060450INTER N184 MERY/OISE0110572D407 / INTER N184 ME0110572005120005120000000000000000000000194      060522         000000   000000   000000   000000   000000   000000   000000   000000   000000   000000   000000   000000               150556871         140597251         130562521         120593291         110593001         055397   055977   000000   000000   000000   000000   000000   000000   000000   000000   000000   000000                                      
950000400310016 00010 4127001Croix verte         0100000RD78                0130400N1 _MAFFLIERS       0120100003400003400000000000000000000000913      026100  53     000000   000000   000000   000000   000000   000000   000000   000000   000000   000000   000000   000000               150261321  53     140313771  63     130326011         120325091  517    110320491         031045   028160   024422   024955   023420   024963   028678   023409   000000   000000   000000   000000                                      
950000200310016 00010 4110001RD78                0130401A16                 0170355RD78 / A16          0140000003963003963000000000000000000001115      000000         000000   000000   000000   000000   000000   000000   000000   000000   000000   000000   000000   000000               150000001         140000001         130000001         120000001         110000001         000000   000000   000000   000000   000000   000000   000000   000000   000000   000000   000000   000000                                      
950002400310016 00140 4140101Ech10               0200000RD28                0240840N14_OSNY            0220300005640005640000000000000000000000911      073300  61     000000   000000   000000   000000   000000   000000   000000   000000   000000   000000   000000   000000               150733001  617    140732661  617    130743051  617    120750311  617    110750931  607    000000   000000   000000   000000   000000   000000   000000   000000   000000   000000   000000   000000                                      
950311500310016 01040 4140101N184                0000000N1                  0080000N104_BAILLET EN Fran0040700010000010000000000000000000000000199      042500 109     000000   000000   000000   000000   000000   000000   000000   000000   000000   000000   000000   000000               150425001 1097    140425001 1097    130425301 1097    120446071 1127    110420121 1127    000000   000000   000000   000000   000000   000000   000000   000000   000000   000000   000000   000000                                      
950311600310016 01040 4140101N1                  0080000Mareil en France    0140000N104_ATTAINVILLE    0090630006000006000000000000000000000000199      048000 108     000000   000000   000000   000000   000000   000000   000000   000000   000000   000000   000000   000000               150480001 1087    140479721 1087    130476841 1087    120479191 1227    110484321 1227    000000   000000   000000   000000   000000   000000   000000   000000   000000   000000   000000   000000                                      
950311700310016 01040 4140101Mareil en France    0140000Louvres             0220000N104_LOUVRES        0200700008000008000000000000000000000000701      048600 119     000000   000000   000000   000000   000000   000000   000000   000000   000000   000000   000000   000000               150486001 1197    140486001 1197    130486291 1197    120506961 1167    110510471 1267    000000   000000   000000   000000   000000   000000   000000   000000   000000   000000   000000   000000                                      
950311800310016 01040 4140101Louvres             0220000Limite réseau       0240870N104_ROISSY EN Franc0230700002870002870000000000000000000000105      037300 121     000000   000000   000000   000000   000000   000000   000000   000000   000000   000000   000000   000000               150373001 1217    140373001 1217    130373001 1217    120372911 1217    110385591 1167    000000   000000   000000   000000   000000   000000   000000   000000   000000   000000   000000   000000                                      
950005100310016 01840 4140101Dept78              0000000A15                 0020700N184_ERAGNY/OISE    0010250002687002687000000000000000000000796      045000  63     000000   000000   000000   000000   000000   000000   000000   000000   000000   000000   000000   000000               150450001  637    140450001  637    130450001  637    120450001  637    110450001  637    000000   000000   000000   000000   000000   000000   000000   000000   000000   000000   000000   000000                                      
950005200310016 01840 4140101A15                 0020701GROS CHEVAUX        0060000N184_ST OUEN L'AUMON0030500003351003351000000000000000000000197      050285  96     050207   050241   050234   000000   000000   000000   000000   000000   000000   000000   000000   000000               150457831  877    140716031  877    130707801  857    120698701  857    110673871  897    000000   000000   000000   000000   000000   000000   000000   031752   000000   050602   050238   050538                                      
950005400310016 01840 4140201GROS CHEVAUX        0060001RD44                0110720N184_MERY SUR OISE  0080100005745005745000000000000000000000993      053900  97     000000   000000   000000   000000   000000   000000   000000   000000   000000   000000   000000   000000               150539001  977    140539001  977    130539001  977    120539001  977    110539001  977    000000   000000   000000   000000   000000   000000   000000   000000   000000   000000   000000   000000                                      
950005600310016 01840 4120101RD44                0110721A16                 0190085N184_NERVILLE LA FOR0160800007410007410000000000000000000000198      045600  67     000000   000000   000000   000000   000000   000000   000000   000000   000000   000000   000000   000000               150456001  677    140456001  677    130456161  677    120450961  677    110451981  677    000000   000000   000000   000000   000000   000000   000000   000000   000000   000000   000000   000000                                      
