630501900310016 07110 1110241Carf.RN 89          0000000Carf. A 72          0060410SORTIE EST          0040000005056005056          00000000001299      000000                                                                                                                                 150000001         140000001         130000001         120000001         110000001                                                                                                                                                        
630501900210016 07110 1110241Carf.RN 89          0000000Carf.A72            0060410SORTIE EST          0040000005056005056          00000000001299      000000                                                                                                                                 150000001         140000001         130000001         120000001         110216361 0517                                                                                                                                                   
630501900110016 07110 1110241Carf.N89            0000000INTER A72           0060410SORTIE EST          0040000005056005056          00000000001299      000000                                                                                                                                 150000001         140000001         130000001         120000001         110221941 0537                                                                                                                                                   
630501800310016 00750 1110241Carf. RD76          0450600LIMITE Hte LOIRE    0490000NORD DE LEMPDES     0470000003400003400          43000000011299      027610         018560   020459   021428   026670   027586   027638   041956   047890   028539   026009   021001   022901               150000001         140000001         130000001         120000001         110000001                                                                                                                                                        
630501800210016 00750 1110241Carf.RD76           0450600LIMITE Hte LOIRE    0490000NORD DE LEMPDES     0470000003400003400          43000000011299      013700 0927    009378   010004   010621   012916   013660   013311   018812   026053   014678   012900   010644   011073               150000001         140000001         130000001         120000001         110124871 1307                                                                                                                                                   
630501800110016 00750 1110241Carf.RD76           0450600LIMITE Hte LOIRE    0490000NORD DE LEMPDES     0470000003400003400          43000000011299      013910 1587    009182   010455   010807   013754   013926   014327   023144   021837   013861   013109   010357   011828               150000001         140000001         130000001         120000001         110117831 0457                                                                                                                                                   
630501300310016 00750 1110241Carf RD 9           0300000Carf. RD 996        0310000ORBEIL              0310000001120001120          00000000001299      000000                                                                                                                                 150000001         140000001         130000001         120000001         110000001                                                                                                                                                        
630501300210016 00750 1110241Carf RD 9           0300000Carf. RD 996        0310000ORBEIL              0310000001120001120          00000000001299      000000                                                                                                                                 150000001         140000001         130000001         120000001         110000001                                                                                                                                                        
630501300110016 00750 1110241Carf RD 9           0300000Carf. RD 996        0310000ORBEIL              0310000001120001120          00000000001299      000000                                                                                                                                 150000001         140000001         130000001         120000001         110134241                                                                                                                                                        
630501000310016 00750 1110241Carf.RD978          0140634ECHANGEUR COUDES Nø80180582AUTHEZAT            0170000004115004115          00000000001299      000000                                                                                                                                 150000001         140000001         130000001         120000001         110000001                                                                                                                                                        
630501000210016 00750 1110241Carf.RD978          0140634Carf.RD797C         0180582AUTHEZAT            0170000004115004115          00000000001299      000000                                                                                                                                 150000001         140000001         130000001         120000001         110188541 1067                                                                                                                                                   
630501000110016 00750 1110241Carf.RD978          0140634Carf.RD 797C        0180582AUTHEZAT            0170000004115004115          00000000001299      000000                                                                                                                                 150000001         140000001         130000001         120000001         110190381 1017                                                                                                                                                   
480500801310016 00750 2111001ECH.40              0000000ECH.40              0010000BANASSAC            0000005001000001000          00000000000199      000000                                                                                                                                 150000001         140000001         130000001         120000001         110000001                                                                                                                                                        
480500801210016 00750 2111001A75                 0000000N9                  0010000BANASSAC            0000005001000001000          00000000000199      000000                                                                                                                                 150000001         140000001         130000001         120000001         110000001                                                                                                                                                        
480500801110016 00750 2111001                    0000000                    0010000BANASSAC            0000005001000001000          00000000000199      000000                                                                                                                                 150000001         140000001         130000001         120000001         110000001                                                                                                                                                        
480500800310016 00750 1110241ECH.40 BANASSAC     1720047LIMITE AVEYRON      1790296BANASSAC            1720100007249007249          00000000000199      017358         009774   010914   011924   016477   017425   016938   031142   035779   017962   015290   011310   012730               150000001         140000001         130000001         120000001         110000001                                                                                                                                                        
480500800210016 00750 1110241ECH.40 BANASSAC     1720047LIMITE AVEYRON      1790296BANASSAC            1720100007249007249          00000000000199      008507         004713   005202   005745   007881   008491   008028   013556   019463   009333   007634   005597   006129               150000001         140000001         130000001         120000001         110000001                                                                                                                                                        
480500800110016 00750 1110241ECH.40 BANASSAC     1720047LIMITE AVEYRON      1790296BANASSAC            1720100007249007249          00000000000199      008851 1837    005061   005712   006179   008596   008934   008910   017586   016316   008629   007656   005713   006601               150000001         140000001         130000001         120000001         110000001                                                                                                                                                        
480500701310016 00750 2111001ECH.40              0000000ECH.40              0010000BANASSAC            0000005001000001000          00000000000199      000000                                                                                                                                 150000001         140000001         130000001         120000001         110000001                                                                                                                                                        
480500701210016 00750 2111001N9                  0000000A75                 0010000BANASSAC            0000005001000001000          00000000000199      000000                                                                                                                                 150000001         140000001         130000001         120000001         110000001                                                                                                                                                        
480500701110016 00750 2111001A75                 0000000N9                  0010000BANASSAC            0000005001000001000          00000000000199      000000                                                                                                                                 150000001         140000001         130000001         120000001         110000001                                                                                                                                                        
480500700310016 00750 1110241ECH.39 LE MONASTIER 1610724ECH.40 BANASSAC     1720047ST GERMAIN DU TEIL  1670000010323010323          00000000000199      017701         009872   011132   012851   016807   017753   017358   031398   035880   018399   015626   011631   013073               150000001         140000001         130000001         120000001         110000001                                                                                                                                                        
480500700210016 00750 1110241ECH.39 LE MONASTIER 1610724ECH.40 BANASSAC     1720047ST GERMAIN DU TEIL  1670000010323010323          00000000000199      008756 1727    004890   005385   006297   008139   008744   008243   013764   019773   009565   007812   005812   006327               150000001         140000001         130000001         120000001         110000001                                                                                                                                                        
480500700110016 00750 1110241ECH.39 LE MONASTIER 1610724ECH.40 BANASSAC     1720047ST GERMAIN DU TEIL  1670000010323010323          00000000000199      008945 1627    004982   005747   006554   008668   009009   009115   017634   016107   008834   007814   005819   006746               150000001         140000001         130000001         120000001         110000001                                                                                                                                                        
480500600310016 00750 1110241ECH.37 LE BUISSON   1460000ECH.39 LE MONASTIER 1610000CHIRAC              1580000015100015100                    0199      014629         007634   008606   009350   013816   013953   014200   027792   032469   015245   012670   008843   010371               150000001         140000001         130000001         120000001         110000001                                                                                                                                                        
480500600210016 00750 1110241ECH.37 LE BUISSON   1460000ECH.39 LE MONASTIER 1610000CHIRAC              1580000015100015100                    0199      007320 1837    003894   004272   004651   006753   006738   006815   012023   018176   008141   006470   004505   005104               150000001         140000001         130000001         120000001         110000001                                                                                                                                                        
480500600110016 00750 1110241ECH.37 LE BUISSON   1460000ECH.39 LE MONASTIER 1610000CHIRAC              1580000015100015100                    0199      007309 1757    003740   004334   004699   007063   007215   007385   015769   014293   007104   006200   004338   005267               150000001         140000001         130000001         120000001         110000001                                                                                                                                                        
480500402210016 00750 211 241AUMONT-NORD         0000000A75                 0000200AUMONT-N            0000150000200000200                    0793      000000                                                                                                                                 150000001         140000001         130000001         120000001         110000001                                                                                                                                                        
480500401310016 00750 211 241AUMONT-NORD         0000000N9                  0000200AUMONT-N            0000050000200000200                    0793      000000                                                                                                                                 150000001         140000001         130000001         120000001         110000001                                                                                                                                                        
480500401210016 00750 211 241AUMONT-NORD         0000000N9                  0000200AUMONT-N            0000050000200000200                    0793      000000                                                                                                                                 150000001         140000001         130000001         120000001         110000001                                                                                                                                                        
480500401110016 00750 211 241AUMONT-NORD         0000000N9                  0000200AUMONT-N            0000050000200000200                    0793      000000                                                                                                                                 150000001         140000001         130000001         120000001         110000001                                                                                                                                                        
480500400310016 00750 1110241ST CHELY-SUD        1270799AUMONT-NORD         1330830AUMONT-NORD         1330830006053006053          48000010030393      000000                                                                                                                                 150000001         140000001         130000001         120000001         110000001                                                                                                                                                        
480500400210016 00750 1110241ST CHELY-SUD        1270799AUMONT-NORD         1330830AUMONT-NORD         1330830006053006053          48000010030393      000000                                                                                                                                 150000001         140000001         130000001         120000001         110000001                                                                                                                                                        
480500400110016 00750 1110241ST CHELY-SUD        1270799AUMONT-NORD         1330830AUMONT-NORD         1330830006053006053          00000010030393      000000                                                                                                                                 150000001         140000001         130000001         120000001         110057251                                                                                                                                                        
480500101410016 00750 2110201LA GARDE            1160500LA GARDE            1160500AIRE DE LA LOZERE   1160500000000000000          00000000000794      000000                                                                                                                                 150000001         140000001         130000001         120000001         110000001                                                                                                                                                        
480500101310016 00750 2110201LA GARDE            1160700LA GARDE            1160700ALBARET_MARI_M      1160700000000000000          00000000000794      000000                                                                                                                                 150000001         140000001         130000001         120000001         110000001                                                                                                                                                        
480500101210016 00750 2110201LA GARDE            1160700LA GARDE            1160700ALBARET_MARI_F      1160700000000000000          00000000000794      000000                                                                                                                                 150000001         140000001         130000001         120000001         110011701 1427                                                                                                                                                   
480500101110016 00750 2110201LA GARDE            1160700LA GARDE            1160700ALBARET_MARI_M      1160700000000000000          00000000000794      000000                                                                                                                                 150000001         140000001         130000001         120000001         110011371 1107                                                                                                                                                   
480500100310016 00750 1110241LIMITE CANTAL       1140527LA GARDE SUD        1160943ALBARET_MARI_M      1160700002416002416          00000000000592      000000                                                                                                                                 150000001         140000001         130000001         120000001         110000001                                                                                                                                                        
480500100210016 00750 1110241LIMITE CANTAL       1140527LA GARDE SUD        1160943ALBARET_MARI_F      1160700002416002416          00000000000592      000000                                                                                                                                 150000001         140000001         130000001         120000001         110084341 1317                                                                                                                                                   
480500100110016 00750 1110241LIMITE CANTAL       1140527LA GARDE SUD        1160943ALBARET_MARI_M      1160700002416002416          00000000001101      000000                                                                                                                                 150000001         140000001         130000001         120000001         110062621 1337                                                                                                                                                   
480002500310016 01060 4112001CARR.D907B          0510305ST BAUZILE D41      0730660FLORAC_NORD         0530900021847021847          00000000000995      001626                           001021   001379   001660   001629   004014   004290   001780                     000713               150000001         140000001         130000001         120000001         110000001                                                                                                                                                        
480002500210016 01060 4112001CARR.D907B          0510305ST BAUZILE D41      0730660FLORAC_NORD         0530900021847021847          00000000000995      000695                           000590   000929   001176   000953   001899   002302   000923                     000329               150000001         140000001         130000001         120000001         110006581 1647                                                                                                                                                   
480002500110016 01060 4112001CARR.D907B          0510305ST BAUZILE D41      0730660FLORAC_NORD         0530900021847021847          00000000000995      000931                           000431   000450   000484   000676   002115   001988   000857   001180   000714   000384               150000001         140000001         130000001         120000001         110006581 1377                                                                                                                                                   
480002400310016 01060 4112001INTER.D907-FLORAC   0440660INTER.D907B-R.PERCEE0510305FLORAC              0490000006245005698          00000000001287      004176         002751   003151   003498   003853   004288   004445   006049   006898   004441   003983   003430   003244               150000001         140000001         130000001         120000001         110000001                                                                                                                                                        
480002400210016 01060 4112001INTER.D907-FLORAC   0440660INTER.D907B         0510305FLORAC              0490000006245005698          00000000001287      002095 0827    001447   001579   001777   001939   002128   002219   003096   003370   002207   001984   001731   001621               150000001         140000001         130000001         120000001         110020161 0777                                                                                                                                                   
480002400110016 01060 4112001INTER.D907-FLORAC   0440660INTER.D907B         0510305FLORAC              0490000006245005698          00000000001287      002081 0877    001304   001572   001721   001914   002160   002226   002953   003528   002234   001999   001699   001623               150000001         140000001         130000001         120000001         110017501 0567                                                                                                                                                   
480002300310016 01060 4113001INTER.D98-JALCRESTE 0221020INTER.D907-FLORAC   0440660FLORAC_SUD          0380500020631020631          00000000000995      002250         001460   001598   001780   002096   002347   002348   003326   003912   002437   002296   001698   001644               150000001         140000001         130000001         120000001         110000001                                                                                                                                                        
480002300210016 01060 4113001INTER.D984-JALCRESTE0221020INTER.D907-FLORAC   0440660FLORAC_SUD          0380500020631020631          00000000000995      001097         000700   000768   000854   001023   001150   001157   001678   001899   001179   001113   000821   000798               150000001         140000001         130000001         120000001         110011281 1037                                                                                                                                                   
480002300110016 01060 4113001INTER.D984-JALCRESTE0221020INTER.D907-FLORAC   0440660FLORAC_SUD          0380500020631020631          00000000000995      001153         000760   000830   000926   001073   001197   001191   001648   002013   001258   001183   000877   000846               150000001         140000001         130000001         120000001         110012011 0847                                                                                                                                                   
480002100310016 00880 4113001INTER.D31-CHANAC    0710883INTER.N9-AJUSTONS   0840280CHANAC              0740500011181011181          00000000001192      004686         003281   003559   003857   004535   004981   004947   006487   007272   005004   004549   003843   003837               150000001         140000001         130000001         120000001         110000001                                                                                                                                                        
480002100210016 00880 4113001INTER.D31-CHANAC    0710883INTER.N9-AJUSTONS   0840280CHANAC              0740500011181011181          00000000001192      002321 1857    001631   001772   001930   002258   002482   002470   003220   003534   002474   002250   001909   001882               150000001         140000001         130000001         120000001         110021351 1297                                                                                                                                                   
480002100110016 00880 4113001INTER.D31-CHANAC    0710883INTER.N9-AJUSTONS   0840280CHANAC              0740500011181011181          00000000001192      002365 1977    001650   001787   001927   002277   002499   002477   003267   003738   002530   002299   001934   001955               150000001         140000001         130000001         120000001         110022841 1377                                                                                                                                                   
480001900310016 00880 4113001CARR.RN106 BALSIEGES0580619CARR.RN108 BARJAC   0650751BALSIEGES           0590200006756006640          00000000001192      006306                  005073   005544   006059   006478   006504   007825   008518   006648   005936   005308   005371               150000001         140000001         130000001         120000001         110000001                                                                                                                                                        
480001900210016 00880 4113001CARR.RN106 BALSIEGES0580619CARR.RN108 BARJAC   0650751BALSIEGES           0590200006756006640          00000000001192      003069 1417             002471   002706   002954   003154   003168   003788   004099   003245   002903   002616   002609               150000001         140000001         130000001         120000001         110031311                                                                                                                                                        
480001900110016 00880 4113001CARR.RN106 BALSIEGES0580619CARR.RN108 BARJAC   0650751BALSIEGES           0590200006756006640          00000000001192      003237 1477             002602   002838   003105   003324   003336   004037   004419   003403   003033   002692   002762               150000001         140000001         130000001         120000001         110032231                                                                                                                                                        
480001800310016 00880 4113001EB20 MENDE          0530185CARR.RN106 BALSIEGES0580619MENDE-SUD           0550300005284005015          00000000000793      009184         007671   008047   008459   009075   009693   009858   010790   011398   009851   009132   008315   007857               150000001         140000001         130000001         120000001         110000001                                                                                                                                                        
480001800210016 00880 4113001EB20 MENDE          0530185CARR.RN106 BALSIEGES0580619MENDE-SUD           0550300005284005015          00000000000793      004424         003726   003881   004097   004356   004699   004722   005087   005498   004729   004421   004021   003822               150000001         140000001         130000001         120000001         110045471 0807                                                                                                                                                   
480001800110016 00880 4113001EB20 MENDE          0530185CARR.RN106 BALSIEGES0580619MENDE-SUD           0550300005284005015          00000000000793      004760         003945   004166   004362   004719   004994   005136   005703   005900   005122   004711   004294   004035               150000001         140000001         130000001         120000001         110048771 0967                                                                                                                                                   
480001200310016 00880 4113001INTERS.D901         0420253EB10 MENDE          0490885BADAROUX            0420220007174005839          00000000001287      000000                                                                                                                                 150000001         140000001         130000001         120000001         110000001                                                                                                                                                        
480001200210016 00880 4113001INTERS.D901         0420253EB10 MENDE          0490885BADAROUX            0420220007174005939          00000000001287      000000                                                                                                                                 150000001         140000001         130000001         120000001         110000001                                                                                                                                                        
480001200110016 00880 4113001INTERS.D901         0420253EB10 MENDE          0490885BADAROUX            0420220007174005839          00000000001287      000000                                                                                                                                 150000001         140000001         130000001         120000001         110000001                                                                                                                                                        
480000900310016 00880 4113001N102-ARDECHE        0000000INTERS.D906         0020000LANGOGNE            0010460002298000790          00000000000592      005732 1288    003778   004115   004496   005432   006193   006121   008058   009107   006257   005822   004762   004532               150000001         140000001         130000001         120000001         110000001                                                                                                                                                        
480000900210016 00880 4113001N102-ARDECHE        0000000INTERS.D906         0020000LANGOGNE            0010460002298000790          00000000000592      002837 0998    001893   002045   002223   002666   003083   003027   003863   004609   003124   002843   002401   002211               150000001         140000001         130000001         120000001         110024321 0028                                                                                                                                                   
480000900110016 00880 4113001N102-ARDECHE        0000000INTERS.D906         0020000LANGOGNE            0010460002298000790          00000000000592      002895 1858    001885   002070   002273   002766   003110   003094   004195   004498   003133   002979   002361   002321               150000001         140000001         130000001         120000001         110025081 1428                                                                                                                                                   
460001200310016 01220 4113001FIGEAC EB 20        0000555DEPARTEMENT 15      0151259BOURG DE VIAZAC     0050000015842014557          15000110030187      000000                                                                                                                                 150000001         140000001         130000001         120000001         110000001                                                                                                                                                        
460001200210016 01220 4113 51FIGEAC EB 20        0000555DEPARTEMENT 15      0151259BOURG DE VIAZAC     0050000015842014557          15000110010187      000000                                                                                                                                 150000001         140000001         130000001         120000001         110018341 0008                                                                                                                                                   
460001200110016 01220 4113 51FIGEAC EB 20        0000555DEPARTEMENT 15      0151259BOURG DE VIAZAC     0050000015842014557          15000110010187      000000                                                                                                                                 150000001         140000001         130000001         120000001         110018711 0008                                                                                                                                                   
460001100310016 01220 4143001RN 140 FIGEAC       0000000FIGEAC EB 20        0000555PONT DU PIN FIGEAC  0000100000555000000          00000000000187      000000                                                                                                                                 150000001         140000001         130000001         120000001         110000001                                                                                                                                                        
430500100310016 00750 1110241ESPALEM             0600750MASSIAC NORD        0630988ESPALEM             0610300003238003238          00000000000100      000000                                                                                                                                 150000001         140000001         130000001         120000001         110000001                                                                                                                                                        
430500100210016 00750 1110241ESPALEM             0600750MASSIAC NORD        0630988ESPALEM             0610300003238003238          00000000000100      000000                                                                                                                                 150000001         140000001         130000001         120000001         110000001                                                                                                                                                        
430500100110016 00750 1110241ESPALEM             0600750MASSIAC NORD        0630988ESPALEM             0610300003238003238          00000000000100      000000                                                                                                                                 150000001         140000001         130000001         120000001         110000001                                                                                                                                                        
430500000310016 00750 1110241LIM. PUY-DE-DOME    0490000ESPALEM             0600750LEMPDES SUD         0540000011750011750          63050140010100      000000                                                                                                                                 150000001         140000001         130000001         120000001         110000001                                                                                                                                                        
430500000210016 00750 1110241LIM. PUY-DE-DOME    0490000ESPALEM             0600750LEMPDES SUD         0540000011750011750          63050140010100      000000                                                                                                                                 150000001         140000001         130000001         120000001         110000001                                                                                                                                                        
430500000110016 00750 1110241LIM. PUY-DE-DOME    0490000ESPALEM             0600750LEMPDES SUD         0540000011750011750          63050140011295      000000                                                                                                                                 150000001         140000001         130000001         120000001         110000001                                                                                                                                                        
430002000310016 01020 4113001CARREF.RD513        0560300VIEILLE-BRIOUDE     0740550LA LOCANDA          0640050018450018450          00000000001193      009078 1448    007060   007737   008171   009000   009454   009457   011354   011987   009567   009230   008070   007752               150000001         140000001         130000001         120000001         110000001                                                                                                                                                        
430002000210016 01020 4113001CARREF.RD513        0560300VIEILLE-BRIOUDE     0740550LA LOCANDA          0640050018450018450          00000000001187      004536 1578    003508   003869   004076   004521   004735   004730   005845   005835   004776   004586   004009   003892               150000001         140000001         130000001         120000001         110000001                                                                                                                                                        
430002000110016 01020 4113001CARREF.RD513        0560300VIEILLE-BRIOUDE     0740550LA LOCANDA          0640050018450018450          00000000001193      004542 1188    003552   003868   004095   004479   004719   004727   005509   006152   004791   004644   004061   003860               150000001         140000001         130000001         120000001         110000001                                                                                                                                                        
430001300310016 00880 4113 51CARREF.RD906        0730700CARREF.RD88         0851000LE FANGEAS          0740600012300012300                    1193      009861 1088    006809   007348   008003   009578   010553   010537   013727   015014   010813   009708   008192   007881               150000001         140000001         130000001         120000001         110000001                                                                                                                                                        
430001300210016 00880 4113 51CARREF.RD906        0730700CARREF.RD88         0851000LE FANGEAS          0740600012300012300                    1193      004874 0888    003403   003642   003949   004710   005208   005166   006478   007628   005403   004824   004101   003894               150000001         140000001         130000001         120000001         110049671 1147                                                                                                                                                   
430001300110016 00880 4113001CARREF.RD906        0730700CARREF.RD88         0850100LE FANGEAS          0730700011400011400          000      01193      004987 1478    003406   003706   004054   004868   005345   005371   007249   007386   005410   004884   004091   003987               150000001         140000001         130000001         120000001         110050271 1177                                                                                                                                                   
430000600310016 00880 4113001ECHANGEURD47        0160000ECHANGEUR.RD103     0350835BAL DES NEIGES      0230700019835019835          000      00500      015694         013146   013986   014730   015693   016313   016678   017508   017610   016932   016210   015014   014446               150000001         140000001         130000001         120000001         110000001                                                                                                                                                        
430000600210016 00880 4113001ECHANGEUR.RD47      0160000ECHANGEUR.RD103     0350835BAL DES NEIGES      0230700019835019835          000      01187      007828 1197    006644   007027   007424   007828   008225   008311   008515   008563   008480   008094   007609   007193               150000001         140000001         130000001         120000001         110074111 0908                                                                                                                                                   
430000600110016 00880 4113001ECHANGEUR.RD47      0160000ECHANGEUR.RD103     0350835BAL DES NEIGES      0230700019835019835          000      01100      007866 1127    006502   006959   007306   007865   008088   008367   008993   009047   008452   008116   007405   007253               150000001         140000001         130000001         120000001         110064941 0028                                                                                                                                                   
340001600310016 07500 4110201N109 NORD MONTPELLIE0100000N109 SUD GIGNAC     0200476JUVIGNAC OUEST      0100870010476010476          00000000000808      000000                                                                                                                                 150000001         140000001         130000001         120000001         110000001                                                                                                                                                        
340001600210016 07500 4110201N109 NORD MONTPELLIE0100000N109 SUD GIGNAC     0200476JUVIGNAC OUEST      0100870010476010476          00000000000808      000000                                                                                                                                 150000001         140000001         130000001         120000001         110000001                                                                                                                                                        
340001600110016 07500 4110201N109 NORD MONTPELLIE0100000N109 SUD GIGNAC     0200476JUVIGNAC OUEST      0100870010476010476          00000000000808      000000                                                                                                                                 150000001         140000001         130000001         120000001         110000001                                                                                                                                                        
340001501310016 07500 4110201NORD GIGNAC         0320000A 75                0380625ST FELIX DE LODEZ   0370600006625006625          00000000000402      000000                                                                                                                                 150000001         140000001         130000001         120000001         110000001                                                                                                                                                        
340001501210016 07500 4110201NORD GIGNAC         0320000A 75                0380625ST FELIX DE LODEZ   0370600006625006625          00000000000402      000000                                                                                                                                 150000001         140000001         130000001         120000001         110127431 0727                                                                                                                                                   
340001501110016 07500 4110201NORD GIGNAC         0320000A 75                0380625ST FELIX DE LODEZ   0370600006625006625          00000000000402      000000                                                                                                                                 150000001         140000001         130000001         120000001         110123911 0697                                                                                                                                                   
340001500310016 01090 4113001SUD GIGNAC          0200000NORD GIGNAC         0320000GIGNAC 34           0300700012000012000          00000000000490      027780         023237   024643   025887   028028   027894   028945   032275   033794   028877   027711   025946   025941               150000001         140000001         130000001         120000001         110000001                                                                                                                                                        
340001500210016 01090 4113001SUD GIGNAC          0200000NORD GIGNAC         0320000GIGNAC 34           0300700012000012000          00000000000490      014207 0757    011952   012577   013259   014300   014287   014842   016667   017213   014755   014090   013333   013118               150000001         140000001         130000001         120000001         110121071 0737                                                                                                                                                   
340001500110016 01090 4113001SUD GIGNAC          0200000NORD GIGNAC         0320000GIGNAC 34           0300700012000012000          00000000000490      013573 0687    011285   012066   012628   013728   013607   014103   015608   016581   014122   013621   012613   012823               150000001         140000001         130000001         120000001         110114361 0657                                                                                                                                                   
340001404210016 01090 4110101EB 20 MONTPELLIER   0040000A 750               0100000JUVIGNAC OUEST      0050000006000006000                    0190      019584 0367    017088   017895   018578   019731   019599   020490   022105   022369   020359   019682   018522   018512               150000001         140000001         130000001         120000001         110156751 0587                                                                                                                                                   
340001404110016 01090 4110101EB 20 MONTPELLIER   0040000A 750               0100000JUVIGNAC OUEST      0050000006000006000                    0190      018312 0527    015571   016724   017396   018544   018380   019152   020339   021110   019177   018323   017325   017624               150000001         140000001         130000001         120000001         110153641 0527                                                                                                                                                   
340001200310016 00090 4113001JONCT SUD DEVIATION 0650800EB10 BEZIERS        0820222MONTBLANC           0730900016831016189          00000000000180      000000                                                                                                                                 150000001         140000001         130000001         120000001         110000001                                                                                                                                                        
340001200210016 00090 4113001JONCT SUD DEVIATION 0650800EB10 BEZIERS        0820222MONTBLANC           0730900016831016189          00000000000180      000000                                                                                                                                 150000001         140000001         130000001         120000001         110000001                                                                                                                                                        
340001200110016 00090 4113001JONCT SUD DEVIATION 0650800EB10 BEZIERS        0820222MONTBLANC           0730900016831016189          00000000000180      000000                                                                                                                                 150000001         140000001         130000001         120000001         110000001                                                                                                                                                        
340000901310016 00090 1110241JONCTION RN 113     0610000JONCTION RD 13      0650800PEZENAS DEVIATION   0650000004677004677          00000000000292      000000                                                                                                                                 150000001         140000001         130000001         120000001         110000001                                                                                                                                                        
340000901210016 00090 1110241JONCTION RN 113     0610000JONCTION RD 13      0650800PEZENAS  DEVIATION  0650000004677004677          00000000000292      000000                                                                                                                                 150000001         140000001         130000001         120000001         110131781 0817                                                                                                                                                   
340000901110016 00090 1110241JONCTION RN 113     0610000JONCTION RD 13      0650800PEZENAS DEVIATION   0650000004677004677          00000000000292      000000                                                                                                                                 150000001         140000001         130000001         120000001         110130811 0967                                                                                                                                                   
340000500310016 00750 1113041NORD RN 109         2800000RN 109              2900450LODEVE_SUD          2800200010450010450          00000000000490      026581         017748   019305   020647   025935   026448   027391   040874   045367   028410   024629   020277   021323               150000001         140000001         130000001         120000001         110000001                                                                                                                                                        
340000500210016 00750 1110241NORD RN 109         2800000RN 109              2900450LODEVE_SUD          2800200010450010450          00000000000490      013684 1657    009236   009928   010604   013275   013449   013863   019495   024794   015047   012850   010443   010909               150000001         140000001         130000001         120000001         110118681 1047                                                                                                                                                   
340000500110016 00750 1110241NORD RN 109         2800000RN 109              2900450LODEVE_SUD          2800200010450010450          00000000000490      012897 1387    008512   009377   010043   012660   012999   013528   021379   020573   013363   011779   009834   010414               150000001         140000001         130000001         120000001         110124951 1067                                                                                                                                                   
340000190310016 00750 1110241LIMITE AVEYRON      2530000Nord RN109          2800000LE CAYLAR           2620500027000027000          00000000000395      000000                                                                                                                                 150000001         140000001         130000001         120000001         110000001                                                                                                                                                        
340000190210016 00750 1110241LIMITE AVEYRON      2530000Nord RN109          2800000LE CAYLAR           2620500027000027000          00000000000395      000000                                                                                                                                 150000001         140000001         130000001         120000001         110000001                                                                                                                                                        
340000190110016 00750 1110241LIMITE AVEYRON      2530000Nord RN109          2800000LE CAYLAR           2620500027000027000          00000000000395      000000                                                                                                                                 150000001         140000001         130000001         120000001         110000001                                                                                                                                                        
150500600310016 00750 1110241ST FLOUR SUD        0960300LIMITE LOZERE       1140610LOUBARESSE          1120800018310018310          000      00300      015307         008198   009219   009872   014424   015083   014958   028446   033048   015804   013271   009575   011186               150000001         140000001         130000001         120000001         110000001                                                                                                                                                        
150500600210016 00750 1110241ST FLOUR SUD        0960300LIMITE LOZERE       1140610LOUBARESSE          1120800018310018310          000      00300      007700 1417    004181   004546   004888   007042   007543   007393   012339   018589   008424   006744   004932   005481               150000001         140000001         130000001         120000001         110000001                                                                                                                                                        
150500600110016 00750 1110241ST FLOUR SUD        0960300LIMITE LOZERE       1140610LOUBARESSE          1120800018310018310          000      01294      007607 1637    004017   004673   004984   007382   007540   007565   016107   014459   007380   006527   004643   005705               150000001         140000001         130000001         120000001         110000001                                                                                                                                                        
150500500310016 00750 111 241ST FLOUR NORD       0920550ST FLOUR SUD        0960300ST FLOUR            0930300003750003750                    1200      000000                                                                                                                                 150000001         140000001         130000001         120000001         110000001                                                                                                                                                        
150500500210016 00750 1110241ST FLOUR NORD       0920550ST FLOUR SUD        0960300ST FLOUR ( F )      0930300003750003750          000      01200      000000                                                                                                                                 150000001         140000001         130000001         120000001         110000001                                                                                                                                                        
150500500110016 00750 1110241ST FLOUR NORD       0920550ST FLOUR SUD        0960300ST FLOUR ( M )      0930300003750003750          000      01200      007078 1617    003506   004191   004561   006835   006927   007103   015561   013733   006847   006001   004197   005176               150000001         140000001         130000001         120000001         110000001                                                                                                                                                        
150500400310016 00750 111 241VIELLESPESSE        0840600ST FLOUR NORD       0920550ST FLOUR NORD       0910400007950007950                    1200      017896         012297   013624   015431   020631   017469   014837   032276   031459   016631   014589   012992   012027               150000001         140000001         130000001         120000001         110000001                                                                                                                                                        
150500400210016 00750 1110241VIELLESPESSE        0840600ST FLOUR NORD       0920550ST FLOUR NORD ( F ) 0910400007950007950          000      01200      007342 0167    004276   004567   005358   006880   007887   006192   014169   014762   007593   006152   004896   005069               150000001         140000001         130000001         120000001         110000001                                                                                                                                                        
150500400110016 00750 1110241VIELLESPESSE        0840600ST FLOUR NORD       0920550ST FLOUR NORD ( M ) 0910400007950007950          000      01200      010554         008021   009057   010073   013751   009582   008645   018107   016697   009038   008437   008096   006958               150000001         140000001         130000001         120000001         110063281 1377                                                                                                                                                   
150500300310016 00750 1110241MASSIAC SUD         0680500VIELLESPESSE        0840600SALBAS              0760300016100016100          000      01200      016514         009134   010207   010943   015591   016481   016472   029741   034555   016938   014562   010675   012259               150000001         140000001         130000001         120000001         110000001                                                                                                                                                        
150500300210016 00750 1110241MASSIAC SUD         0680500VIELLESPESSE        0840600SALBAS              0760300016100016100          000      01200      008337 1697    004745   005068   005470   007670   008305   007955   013012   019496   009013   007399   005537   006063               150000001         140000001         130000001         120000001         110078291                                                                                                                                                        
150500300110016 00750 1110241MASSIAC SUD         0680500VIELLESPESSE        0840600SALBAS              0760300016100016100          000      01200      008177 1657    004389   005139   005473   007921   008176   008517   016729   015059   007925   007163   005138   006196               150000001         140000001         130000001         120000001         110078051                                                                                                                                                        
150500200310016 00750 1110241MASSIAC NORD        0630988MASSIAC SUD         0680500MASSIAC             0670600004512004512          00000000001200      015485         008289   009403   010165   014729   014773   014995   028671   033071   016057   013630   010104   011347               150000001         140000001         130000001         120000001         110000001                                                                                                                                                        
150500200210016 00750 1110241MASSIAC NORD        0630988MASSIAC SUD         0680500MASSIAC             0670600004512004512          00000000001200      007734 1547    004277   004631   005002   007156   007147   007125   012293   018577   008557   006887   005323   005544               150000001         140000001         130000001         120000001         110073881                                                                                                                                                        
150500200110016 00750 1110241MASSIAC NORD        0630988MASSIAC SUD         0680500MASSIAC             0670600004512004512          00000000001200      007751 1637    004012   004772   005163   007573   007626   007870   016378   014494   007500   006743   004781   005803               150000001         140000001         130000001         120000001         110073661                                                                                                                                                        
150300000310016 0122009112001Coté OUEST          0000000Coté EST            0010500TUNNEL              0000750001500001500          000      01200      000000                                                                                                                                 150000001         140000001         130000001         120000001         110000001                                                                                                                                                        
150300000210016 0122009112001Coté OUEST          0000000Coté EST            0010500TUNNEL              0000750001500001500          000      01200      000000                                                                                                                                 150000001         140000001         130000001         120000001         110000001                                                                                                                                                        
150300000110016 0122009112001Coté OUEST          0000000Coté EST            0010500TUNNEL              0000750001500001500          000      01200      000000                                                                                                                                 150000001         140000001         130000001         120000001         110000001                                                                                                                                                        
150001900310016 01220 4113001NEUSSARGUES-MOISSAC 1100900MASSIAC CARF.RN 9   1360144LA ROCHE            1330000025244025244          00000000031294      003686 1058    003006   003529   003461   003415   004083   003589   004158   004560   003690   003904   003352   003462               150000001         140000001         130000001         120000001         110000001                                                                                                                                                        
150001900210016 01220 4113001NEUSSARGUES-MOISSAC 1100900MASSIAC CARF.RN 9   1360144LA ROCHE            1330000025244025244          000      31294      001861 1248    001487   001793   001731   001735   002122   001786   002155   002251   001851   002021   001582   001804               150000001         140000001         130000001         120000001         110018301 1348                                                                                                                                                   
150001900110016 01220 4113001NEUSSARGUES-MOISSAC 1100900MASSIAC CARF.RN 9   1360144LA ROCHE            1330000025244025244          000      31294      001825 0678    001519   001736   001730   001680   001961   001803   002003   002309   001839   001883   001770   001658               150000001         140000001         130000001         120000001         110018091 0908                                                                                                                                                   
150001700310016 01220 4113 51TUNNEL DU LIORAN    0880000MURAT               1010850LA GRANGE DE GANILH 0970850013850013850                    1200      006102         005201   007038   006087   005567   005726   005995   006977   007895   006179   005934   005238   005398               150000001         140000001         130000001         120000001         110000001                                                                                                                                                        
150001700210016 01220 4113 51TUNNEL DU LIORAN    0880000MURAT               1010850LA GRANGE DE GANILH 0970850013850013850                    1200      003069 1367    002570   003560   003046   002810   002868   003019   003552   003926   003085   003025   002624   002748               150000001         140000001         130000001         120000001         110030111 1067                                                                                                                                                   
150001700110016 01220 4113 51TUNNEL DU LIORAN    0880000MURAT               1010850LA GRANGE DE GANILH 0970850013850013850                    1200      003033 1317    002631   003478   003041   002757   002858   002976   003425   003969   003094   002909   002614   002650               150000001         140000001         130000001         120000001         110030121 1057                                                                                                                                                   
150001500310016 01220 4113001BANCOU              0530380VIC SUR CERE        0680800MEYMAC              0620200015420015420          000      01287      007716         007069   007771   007770   007505   007715   007752   008375   009096   008014   007616   006976   006915               150000001         140000001         130000001         120000001         110000001                                                                                                                                                        
150001500210016 01220 4113001BANCOU              0530380VIC SUR CERE        0680800MEYMAC              0620200015420015420          000      01287      003847 1207    003533   003890   003880   003755   003834   003858   004193   004500   003977   003802   003481   003450               150000001         140000001         130000001         120000001         110039381 0937                                                                                                                                                   
150001500110016 01220 4113001BANCOU              0530380VIC SUR CERE        0680800MEYMAC              0620200015420015420          000      01287      003869 1207    003536   003881   003890   003750   003881   003894   004182   004596   004037   003814   003495   003465               150000001         140000001         130000001         120000001         110039431 0907                                                                                                                                                   
150001200310016 01220 4113001MAURS               0050100LE ROUGET CARF.CD 200270800LE MARTINET         0150700022700022700          000      01294      000000                                                                                                                                 150000001         140000001         130000001         120000001         110000001                                                                                                                                                        
150001200210016 01220 4113001MAURS               0050100LE ROUGET CARF.CD 200270800LE MARTINET         0150700022700022700          000      01294      000000                                                                                                                                 150000001         140000001         130000001         120000001         110000001                                                                                                                                                        
150001200110016 01220 4113001MAURS               0050100LE ROUGET CARF.CD 200270800LE MARTINET         0150700022700022700          000      01294      000000                                                                                                                                 150000001         140000001         130000001         120000001         110000001                                                                                                                                                        
120550200310016 00750 1110241Ech N°45            2150050Début viaduc        2190180Amont viaduc Millau 2150500004130004130          00000000000808      000000                                                                                                                                 150000001         140000001         130000001         120000001         110000001                                                                                                                                                        
120550200210016 00750 1110241Ech N°45            2150050Début viaduc        2190180Amont viaduc Millau 2150500004130004130          00000000000808      000000                                                                                                                                 150000001         140000001         130000001         120000001         110000001                                                                                                                                                        
120550200110016 00750 1110241Ech N°45            2150050Début viaduc        2190180Amont viaduc Millau 2150500004130004130          00000000000808      000000                                                                                                                                 150000001         140000001         130000001         120000001         110000001                                                                                                                                                        
120550100310016 00750 1110221VIADUC DE MILLAU NOR2190180VIADUC DE MILLAU SUD2220953VIADUC DE MILLAU    2200000003773003773          00000000000194      000000                                                                                                                                 150000001         140000001         130000001         120000001         110000001                                                                                                                                                        
120550100210016 00750 1110221VIADUC DE MILLAU NOR2190180VIADUC DE MILLAU SUD2220953VIADUC DE MILLAU    2200000003773003773          00000000000194      000000                                                                                                                                 150000001         140000001         130000001         120000001         110000001                                                                                                                                                        
120550100110016 00750 1110221VIADUC DE MILLAU NOR2190180VIADUC DE MILLAU SUD2220953VIADUC DE MILLAU    2200000003773003773          00000000000194      000000                                                                                                                                 150000001         140000001         130000001         120000001         110000001                                                                                                                                                        
120500600310016 00750 1110231VIADUC DE MILLAU SUD2220953DEP HERAULT         2520695A 75 LA CAVALERIE   2380210030012030012          00000000000998      000000                                                                                                                                 150000001         140000001         130000001         120000001         110000001                                                                                                                                                        
120500600210016 00750 1110231VIADUC DE MILLAU SUD2220953DEP HERAULT         2520695A 75 LA CAVALERIE   2380210030012030012          00000000000998      000000                                                                                                                                 150000001         140000001         130000001         120000001         110096451 1058                                                                                                                                                   
120500600110016 00750 1110231VIADUC DE MILLAU SUD2220953DEP HERAULT         2520695A 75 LA CAVALERIE   2380210030012030012          00000000000998      000000                                                                                                                                 150000001         140000001         130000001         120000001         110096271 1148                                                                                                                                                   
120500400310016 00750 1110231ECH.ENGAYRESQUE     2000000ECH ST GERMAIN      2150050LA GAMASSE          2100400015050015050          00000000000194      000000                                                                                                                                 150000001         140000001         130000001         120000001         110000001                                                                                                                                                        
120500400210016 00750 1110231ECH.ENGAYRESQUE     2000000ECH ST GERMAIN      2150050LA GAMASSE          2100400015050015050          00000000000194      000000                                                                                                                                 150000001         140000001         130000001         120000001         110080941 1267                                                                                                                                                   
120500400110016 00750 1110231ECH.ENGAYRESQUE     2000000ECH ST GERMAIN      2150050LA GAMASSE          2100400015050015050          00000000000194      000000                                                                                                                                 150000001         140000001         130000001         120000001         110080251 1027                                                                                                                                                   
120500300310016 00750 1110231ECH.SEVERAC         1870000ECH.ENGAYRESQUE     2000000A75 SEVERAC SUD     1900000013743013743          00000000000194      000000                                                                                                                                 150000001         140000001         130000001         120000001         110000001                                                                                                                                                        
120500300210016 00750 1110231ECH.SEVERAC         1870000ECH.ENGAYRESQUE     2000000A75 SEVERAC SUD     1900000013743013743          00000000000194      000000                                                                                                                                 150000001         140000001         130000001         120000001         110000001                                                                                                                                                        
120500300110016 00750 1110231ECH.SEVERAC         1870000ECH.ENGAYRESQUE     2000000A75 SEVERAC SUD     1900000013743013743          00000000000194      000000                                                                                                                                 150000001         140000001         130000001         120000001         110000001                                                                                                                                                        
120500200310016 00750 1110231DEP LOZERE          1800000ECH.SEVERAC         1870000A75 CAMPAGNAC       1820500007011007011          00000000000194      000000                                                                                                                                 150000001         140000001         130000001         120000001         110000001                                                                                                                                                        
120500200210016 00750 1110231DEP LOZERE          1800000ECH.SEVERAC         1870000A75 CAMPAGNAC       1820500007011007011          00000000000194      000000                                                                                                                                 150000001         140000001         130000001         120000001         110000001                                                                                                                                                        
120500200110016 00750 1110231DEP LOZERE          1800000ECH.SEVERAC         1870000A75 CAMPAGNAC       1820500007011007011          00000000000194      000000                                                                                                                                 150000001         140000001         130000001         120000001         110000001                                                                                                                                                        
120000600310016 00880 4113001A75                 0010000Sévera              0020800Barre               0020000001800001800          00000000000187      000000                                                                                                                                 150000001         140000001         130000001         120000001         110000001                                                                                                                                                        
120000600210016 00880 4113001A 75                0010000Severa              0020800Barreau             0020000001800001800          00000000000187      000000                                                                                                                                 150000001         140000001         130000001         120000001         110000001                                                                                                                                                        
120000600110016 00880 4113001RN 9                0010000RD 28               0020800Barreau de Séverac  0020000001800001800          00000000000187      000000                                                                                                                                 150000001         140000001         130000001         120000001         110000001                                                                                                                                                        
070003500310016 01020 4113001CAR CD108           0840161LIMITE DEPT43       0941069PEYRABEILLE       B 0890400011024011024          00000000000188      003668         001978   002224   002598   003326   003902   003916   006630   006550   003978   003808   002533   002452               150000001         140000001         130000001         120000001         110000001                                                                                                                                                        
070003500210016 01020 4113001CARD108             0840161LIMIT43             0941069PEREBEILLE          0940000011024011024          00000000000101      001830         000992   001123   001301   001694   001942   001965   003331   003190   001993   001881   001269   001224               150018381 1577    140000001         130017921 1487    120000001         110019161 1168    000915   001006   001194   001679   002169   002017   003041   003683   001987   001705   001285   001277                                      
070003500110016 01020 4113001CARD108             0840161LIMIT43             0941069PEREBEILLE          0940000011024011024          00000000000101      001838         000986   001101   001297   001632   001960   001951   003299   003360   001985   001927   001264   001228               150018421 1417    140000001         130017951 1347    120000001         110019251 1138    000906   000996   001174   001641   002207   001953   002815   003931   002078   001747   001286   001277                                      
070003300310016 01020 4113001CAR CD536           0530729MAYRES              0680187THUEYTS           B 0600000014317014317          00000000000188      005582 1018    003118   003524   003986   005134   006021   006062   008294   009719   006780   006848   003729   003614               150000001         140000001         130000001         120000001         110000001                                                                                                                                                        
070003300210016 01020 4113001CAR CD536           0530729MAYRES              0680187THUEYTS           B 0600000014317014317          00000000000188      002795 0958    001571   001771   001999   002578   003013   003066   004244   004746   003386   003401   001883   001805               150000001         140000001         130000001         120000001         110027061 0888                                                                                                                                                   
070003300110016 01020 4113001CAR CD536           0530729MAYRES              0680187THUEYTS           B 0600000014317014317          00000000000188      002787 1138    001547   001753   001987   002556   003008   002996   004050   004973   003394   003447   001846   001809               150000001         140000001         130000001         120000001         110027001 0938                                                                                                                                                   
070003200310016 01020 4113001CARD578             0440616CARD536             0530729LALEVADE            0470000009115009115          00000000000105      012593                  010506   011287   012486   013399   013833   016215   017636   014015            008127   008231               150000001         140000001         130000001         120000001         110000001                                                                                                                                                        
070003200210016 01020 4113001CARD578             0440616CARD536             0530729LALEVADE            0470000009115009115          00000000000105      006300                  005273   005655   006266   006727   006960   008201   008778   007041            003978   004023               150000001         140000001         130000001         120000001         110064201 0647                                                                                                                                                   
070003200110016 01020 4113001CARD578             0440616CARD536             0530729LALEVADE            0470000009115009115          00000000000105      006293                  005233   005632   006220   006672   006873   008014   008858   006974            004149   004208               150000001         140000001         130000001         120000001         110063931 0637                                                                                                                                                   
070003100310016 01020 4113001CAR CD104           0400050CAR CD578           0440616LABEGUDE          B 0420000003658003658          00000000000494      018804         015187   016079   017141   018417   019652   020597   022914   024216   019962   019054   016977   015296               150000001         140000001         130000001         120000001         110000001                                                                                                                                                        
070003100210016 01020 4113001CAR CD104           0400050CAR CD578           0440616LABEGUDE          B 0420000003658003658          00000000000188      009469         007671   008109   008616   009263   009876   010369   011620   012167   010020   009564   008534   007740               150000001         140000001         130000001         120000001         110091971 0547                                                                                                                                                   
070003100110016 01020 4113001CAR CD104           0400050CAR CD578           0440616LABEGUDE          B 0420000003658003648          00000000000188      009335         007516   007970   008525   009154   009776   010228   011294   012049   009942   009490   008443   007556               150000001         140000001         130000001         120000001         110091311 0707                                                                                                                                                   
070002700310016 01020 4113001CAR CD107           0120934LAVILLEDIEU X D 103 0280728ST JEAN CENTENIER B 0150300011530011530          00000000000188      011693                  009044   009721   011086   011833   012442   014776   015235   012641   014563   007427   009583               150000001         140000001         130000001         120000001         110000001                                                                                                                                                        
070002700210016 01020 4113001CAR CD107           0120934LAVILLEDIEU X D 103 0280728ST JEAN CENTENIER B 0150300011530011530          00000000000188      005859                  004550   004824   005543   005961   006222   007334   007792   006385   007214   003448   005038               150000001         140000001         130000001         120000001         110068431 1097                                                                                                                                                   
070002700110016 01020 4113001CAR CD107           0120934LAVILLEDIEU  X D 1030280728ST JEAN CENTENIER B 0150300011530011530          00000000000188      005834                  004494   004897   005543   005872   006220   007442   007443   006256   007349   003979   004545               150000001         140000001         130000001         120000001         110054151 1227                                                                                                                                                   
