800004000310016 00250 4813001RD 49 Doullens      0330965limite Pas de Calais0401009Doullens            0350847006991006991800003400362000190030187      000000                                                                                                                                 150000008         140000008         130065528         120067928    0    110068938    0                                                                                                                                                   
800003400310016 00250 4113001RN 1 Amiens         0090745RD 49 Doullens      0330965RAMPONNEAU          0120796025003025003800003400300000000000187      000000                                                                                                                                 150000001         140121861 1128    130120171 1178    120124571 1138    110126411 1108                                                                                                                                                   
800003400210016 00250 4113001RD 49 Doullens      0090745RN 1 Amiens         0330965RAMPONNEAU          0120796025003025003800003400300000000000187      000000                                                                                                                                 150000001         140059431 1138    130058571 1148    120061291 1118    110061891 1088                                                                                                                                                   
800003400110016 00250 4113001RN 1 Amiens         0090745RD 49 Doullens      0330965RAMPONNEAU          0120796025003025003800003400300000000000187      000000                                                                                                                                 150000001         140062431 1128    130061601 1208    120063281 1168    110064521 1158                                                                                                                                                   
800003301310016 00250 4110201RN 29 Longueau      0000300RN 1 Amiens         0090745J VERNE             0020700015395015395800003400300000000000188      038234         036287   037612   036377   039025   038876   037123   038608   034025   041398   040994   038302   040233               150000001         140381471 0888    130364811    8    120378681    0    110000001    0                                                                                                                                                   
800003301210016 00250 4110201RN 1 Amiens         0000000RN 29 Longueau      0090745J VERNE             0020700015395015395800003400300000000000188      019477 0687    018346   018990   018436   019708   019818   018777   019537   018298   020942   020688   019449   020733               150000001         140193231 0868    130184871    8    120189931    8    110000001    0                                                                                                                                                   
800003301110016 00250 4110201RN 29 Longueau      0000000RN 1 Amiens         0090745J VERNE             0020700015395015395800003400300000000000188      018757         017941   018622   017941   019317   019058   018346   019071   015727   020456   020306   018853   019500               150000001         140188241 0928    130179931    8    120188751    0    110000001    0                                                                                                                                                   
800000600310016 00010 4810201RN 25               0280000RD 97               0320780Longpre Amiens      0300039004967004967800003301300000000000187      000000                                                                                                                                 150000008         140000008         130000008         120000008    0    110000008    0                                                                                                                                                   
620521200310016 00160 1110241A 26                0870150Limite Nord         1030900CALAIS-MARCK        0880080016750016750800003301300000000000192      040437         038595   036166   037592   039532   039182   040345   040393   037673   039392   045945   045216   045023               150000001         140458431 2287    130447421 2207    120432651 2247    110413031 2177                                                                                                                                                   
620521200210016 00160 1110241Limite Nord         0870150A 26                1030900CALAIS-MARCK        0880080016750016750800003301300000000000192      017134         018205   014737   014900   015635   015347   015833   014906   013105   015747   022885   022222   021956               150000001         140228681 2297    130222951 2207    120210791 2277    110218401 2117                                                                                                                                                   
620521200110016 00160 1110241A 26                0870150Limite Nord         1030900CALAIS-MARCK        0880080016750016750800003301300000000000192      023303 2067    020390   021429   022692   023897   023835   024512   025487   024568   023645   023060   022994   023067               150000001         140229751 2277    130224471 2197    120221861 2187    110194631 2327                                                                                                                                                   
620521100310016 00160 1810241Riviere Neuve       0820100A 26                0870150Les Fontinettes     0840400005050005050620520800300000000000192      000000                                                                                                                                 150000008         140000008         130000008         120000008    0    110000008    0                                                                                                                                                   
620520800310016 00160 1110241Coquelles           0780455Riviere neuve       0820100CALAIS-LPA          0810950003645003645620520800300000000000194      000000                                                                                                                                 150000001         140000001         130413751 1578    120420841 1620    110000001    0                                                                                                                                                   
620520800210016 00160 1110341Riviere neuve       0780455Coquelles           0820100CALAIS-LPA          0810950003645003645620520800300000000000194      000000                                                                                                                                 150000001         140000001         130200011 1588    120204261 1640    110000001    0                                                                                                                                                   
620520800110016 00160 1110341Coquelles           0780455Riviere neuve       0820100CALAIS-LPA          0810950003645003645620520800300000000000194      000000                                                                                                                                 150000001         140000001         130213741 1568    120216581 1590    110000001    0                                                                                                                                                   
620520300310016 00160 1110241Echang 35           0620000Coquelles           0780455LEUBRINGHEN         0680500016555016555620520800300000000000194      026935 0898    022893   023981   025476   027584   026805   029161   030324   030685   027595   027248   025304   026029               150000001         140270561 1218    130264141 1248    120266141 1298    110266941 1208                                                                                                                                                   
620520300210016 00160 1110241Coquelles           0620000Echang 35           0780455LEUBRINGHEN         0680500016555016555620520800300000000000194      013253 0888    011019   011698   012696   013570   013179   014322   015445   014604   013226   013481   012526   013188               150000001         140134261 1158    130131551 1168    120131821 1238    110133051 1168                                                                                                                                                   
620520300110016 00160 1110241Echang 35           0620000Coquelles           0780455LEUBRINGHEN         0680500016555016555620520800300000000000194      013682 0898    011874   012283   012780   014014   013626   014839   014879   016081   014369   013767   012778   012841               150000001         140136301 1338    130132591 1328    120134321 1398    110133891 1288                                                                                                                                                   
620510000310016 02160 1110141A 16                0000000RN 216              0010900DORET               0010800001900001900620520800300000000000792      000000                                                                                                                                 150000001         140249031 3077    130243801 3008    120233181 2807    110245371 2857                                                                                                                                                   
620510000210016 02160 1110131RN 216              0000000A 16                0010900DORET               0010800001900001900620520800300000000000792      000000                                                                                                                                 150000001         140129451 2997    130126571 2888    120121191 2727    110126131 2777                                                                                                                                                   
620510000110016 02160 1110131A A16               0000000RN 216              0010900DORET               0010800001900001900620520800300000000000792      000000                                                                                                                                 150000001         140119581 3247    130117241 3148    120111991 2987    110119241 3027                                                                                                                                                   
620502000310016 00210 1110231A 211               0120300Noyelles            0130700NOYELLES            0130100001409001409620520800300000000000187      080176         080188   082890   085139   085011   084943   089158   072357   072449   087696   061394   082288   079528               150000001         140819241 0677    130798761    7    120788601    7    110635701    0                                                                                                                                                   
620502000210016 00210 1110231Noyelles            0120300A 211               0130700NOYELLES            0130100001409001409620520800300000000000187      039630         039232   040549   041530   041633   041437   043059   035411   037547   042973   033253   040283   039011               150000001         140401161 0687    130390901    7    120385401    7    110331231    0                                                                                                                                                   
620502000110016 00210 1110231A 211               0120300Noyelles            0130700NOYELLES            0130100001409001409620520800300000000000187      040546         040956   042341   043609   043378   043506   046099   036946   034902   044723   028141   042005   040517               150000001         140418081 0657    130407861    7    120403201    7    110304471    0                                                                                                                                                   
620501900310016 00210 1110231Dourges A 1         0210999Limite Nord         0260207COURCELLES LES LENS 0250800008337008337620520800300000000000187      059654         056340   057836   060505   062481   061833   063645   059403   042891   064597   062308   060277   064022               150000001         140632321         130592911 1037    120564341 1027    110599841 1047                                                                                                                                                   
620501900210016 00210 1110231Limite Nord         0210999Dourges A 1         0260207COURCELLES LES LENS 0250800005536005536620520800300000000000187      025696         023497   024443   025504   027820   027857   027198   026643   019328   027753   025842   024647   027892               150000001         140294561         130284501    7    120264201 1007    110296571 1017                                                                                                                                                   
620501900110016 00210 1110231Dourges A 1         0210999Limite Nord         0260207COURCELLES LES LENS 0250800005536005536620520800300000000000187      033958         032843   033393   035001   034661   033976   036447   032760   023563   036844   036466   035630   036130               150000001         140337761         130308411 1087    120300141 1077    110303271 1087                                                                                                                                                   
620501500310016 00210 1110231Noyelles/Lens       0130700Dourges A 1         0210999DOURGES             0200700008337008337620520800300000000000187      000000                                                                                                                                 150000001         140712561 0937    130728371 1007    120742961    7    110732271 1007                                                                                                                                                   
620501500210016 00210 1110231Dourges A 1         0130700Noyelles/Lens       0210999DOURGES             0200700008337008337620520800300000000000187      000000                                                                                                                                 150000001         140393371 0867    130380531    7    120374041    7    110373811    7                                                                                                                                                   
620501500110016 00210 1110231Noyelles/Lens       0130700Dourges A 1         0210999DOURGES             0200700008337008337620520800300000000000187      000000                                                                                                                                 150000001         140319191 1097    130347841 1137    120368921 1167    110358461 1217                                                                                                                                                   
620501100310016 00210 1810231RN 17               0101004A 211               0120300Lens                0110500001315001315620500700300000000000187      055878                                                                                                                                 150000008         140000008         130589018         120576548    0    110898228    0                                                                                                                                                   
620501000310016 00210 1810231RN 47               0090800RN 17               0101004Lens                0100500001207001207620500700300000000000187      052830                                                                                                                                 150000008         140000008         130556888         120545098    0    110849218    0                                                                                                                                                   
620500900310016 00210 1810231RN 43 Loos en Gohell0060900RN 47               0090800Lens                0090300002904002904620500700300000000000187      044674                                                                                                                                 150000008         140000008         130470918         120460948    0    110718128    0                                                                                                                                                   
620500700310016 00210 1110231Echang Lievin       0030500RN 43 Loos en Gohell0060900LOOS EN GOHELLE     0060000003406003406620500700300000000000187      049397         050095   051607   053730   054754   054230   056858   031469   024899   056787   053898   053156   052199               150000001         140531631 0777    130520691    7    120509681    7    110506451    7                                                                                                                                                   
620500700210016 00210 1110231RN 43 Loos en Gohell0030500Echang Lievin       0060900LOOS EN GOHELLE     0060000003406003406620500700300000000000187      022610 0767    024766   025739   026603   027182   026695   027572   004216   003512   027583   026712   025684   025823               150000001         140263441 0787    130256041    7    120254841    7    110249551    7                                                                                                                                                   
620500700110016 00210 1110231Echang Lievin       0030500RN 43 Loos en Gohell0060900LOOS EN GOHELLE     0060000003406003406620500700300000000000187      026787         025329   025868   027127   027572   027535   029286   027253   021387   029204   027186   027472   026376               150000001         140268191 0757    130264661    7    120254841    7    110256901    7                                                                                                                                                   
620500500310016 00210 1810231RD 937              0000000Echang Lievin       0030500Bully les Mines     0030000003498003498620500700100000000000187      020255                                                                                                                                 150000008         140000008         130200138         120192708    0    110194268    0                                                                                                                                                   
620500400310016 00160 1110241Inter RN 42         0500000Echang 35           0620000WIMILLE             0540540011036011036620500700100000000000194      000000                                                                                                                                 150000001         140327191 1067    130319531 1027    120322541 1047    110000001                                                                                                                                                        
620500400210016 00160 1110241Echang 35           0500000Inter RN 42         0620000WIMILLE             0540540011036011036620500700100000000000194      000000                                                                                                                                 150000001         140161611 1087    130158311 1057    120159551 1067    110000001                                                                                                                                                        
620500400110016 00160 1110241Inter RN 42         0500000Echang 35           0620000WIMILLE             0540540011036011036620500700100000000000194      015363 1047    012188   015017   015693   016411   016774   006007   018929   018219   017271   016637   015776   015225               150000001         140165581 1027    130161231    7    120162991 1007    110131201    0                                                                                                                                                   
620500300310016 00010 1110441Dourges A 21        1870000Limite Nord         1930393SEADOURGES          1870500006438006438620500700100000000000187      000000                                                                                                                                 150000001         141114181 1727    131015791 1767    121078121 1727    111091901 1787                                                                                                                                                   
620500300210016 00010 1110441Limite Nord         1870000Dourges A 21        1930393SEADOURGES          1870500006438006438620500700100000000000187      000000                                                                                                                                 150000001         140567131 1737    130516091 1757    120549661 1717    110562641 1787                                                                                                                                                   
620500300110016 00010 1110441Dourges A 21        1870000Limite Nord         1930383SEADOURGES          1870500006438006438620500700100000000000187      000000                                                                                                                                 150000001         140547051 1727    130499701 1777    120528461 1747    110529261 1787                                                                                                                                                   
620500000310016 02110 1110231Avion               0000000A 21                0020810LENS-GARE           0010550002813002813620500700100000000000187      030100         026196   026919   027959   027977   027569   029361   024703   020906   031181   040189   039134   039142               150000001         140390081 0537    130380021    7    120379001    7    110373041    0                                                                                                                                                   
620500000210016 02110 1110231A 21                0000000Avion               0020810LENS-GARE           0010550002813002813620500700100000000000187      019716 0527    019308   019844   020505   020514   020515   021464   018678   016446   020558   019915   019421   019537               150000001         140193901 0557    130187271    7    120185411    7    110188101    7                                                                                                                                                   
620500000110016 02110 1110231Avion               0000000A 21                0020810LENS-GARE           0010550002813002813620500700100000000000187      010384         006888   007075   007454   007463   007054   007897   006025   004460   010623   020274   019713   019605               150000001         140196181 0487    130192751    7    120193591    7    110184941    0                                                                                                                                                   
620406000310016 02160 4813001A 216               0020000Zone Portuaire Calai0030744Calais              0030000001900001900620510000300000000000793      000000                                                                                                                                 150000008         140000008         130226398         120232428    0    110244588    0                                                                                                                                                   
620006100310016 04250 4813001RN 25               0000000RD 264              0001233St Catherine Les Arr0000500001233001233620001400300000000000104      000000                                                                                                                                 150000008         140000008         130000008         120000008    0    110000008    0                                                                                                                                                   
620005700310016 00470 4813001Echang 3            0070200Limite Nord         0081278Douvrin             0080000002098002098          00000000000613      000000                                                                                                                                 150000008         140000008         130000008         120000008    0    110000008    0                                                                                                                                                   
620005400310016 00470 4110101Inter A21           0000000Echang3             0070200VENDIN              0010140006935006935          00000000000901      044512         044664   045233   043581   045802   037573   048426   041111   042994   050520   049545   048462   036775               150000001         140449301 0267    130461691    7    120468741    7    110474021    7                                                                                                                                                   
620005400210016 00470 4110101Echang 3            0000000Inter A 21          0070200VENDIN              0010140006935006935          00000000000901      019616         021349   021870   019397   020681   012845   021794   018840   019736   022422   022315   022215   012355               150000001         140210771 0067    130218211    7    120235671    7    110236981    7                                                                                                                                                   
620005400110016 00470 4110101Inter A21           0000000Echang 3            0070200VENDIN              0010140006935006935          00000000000901      024896         023315   023363   024184   025121   024728   026632   022271   023258   028098   027230   026247   024420               150000001         140238531 0627    130243481    7    120233071    7    110237041    7                                                                                                                                                   
620004301310016 00420 4110101RN 43               0140000Inter A 16          0541121ALINCTHUN           0430850039904039904          00000000000187      000000                                                                                                                                 150000001         140128941 1238    130123391 1218    120121091 1428    110124191 1538                                                                                                                                                   
620004301210016 00420 4110101Inter A 16          0140000RN 43               0541121ALINCTHUN_1         0430850039904039904          00000000000187      000000                                                                                                                                 150000001         140064671 1478    130061581 1668    120062361 1728    110064211 1878                                                                                                                                                   
620004301110016 00420 4110101RN 43               0140000Inter A 16          0541121ALINCTHUN_2         0430850039904039904          00000000000187      006776 0378    005983   006178   006525   006737   006857   006948   007886   007119   006746   006912   006600                        150000001         140064271 0758    130061811    8    120058731    8    110059981    8                                                                                                                                                   
620002001310016 00250 4113001Inter RN 17         0271283Inter RN 39         0321093ANZIN               0281000006963006963          00000000000901      018406 1417    016085   016842   017786   018582   018741   019990   019174   018667   019387   018794                                 150000001         140181921 1537    130179261 1557    120180681 1657    110186851 1857                                                                                                                                                   
620002001210016 00250 4113001Inter RN 17         0271283Inite RN 39         0321093ANZIN               0281000006963006963          00000000000901      009073 1507    008034   008375   008769   009145   009267   009870   009249   009144   009546   009331                                 150000001         140090251 1557    130088611 1587    120089071 1677    110092461 1857                                                                                                                                                   
620002001110016 00250 4113001Inter RN 39         0271283Inter RN 17         0321093ANZIN               0281000006963006963          00000000000901      009333 1227    008051   008467   009017   009437   009474   010120   009925   009523   009841   009463                                 150000001         140091671 1487    130090671 1517    120091611 1617    110094391 1837                                                                                                                                                   
620002000310016 00250 4114001Inter RD 265        0240280Inter RN 39         0271283WAGNONLIEU          0260545004813004813          00000000000901      010367 1267    009775   009721   010325   010537   010450   010888   009725   009754   010927   010849   010576   010882               150000001         140099931 1817    130093211 1837    120092651 1777    110000001    0                                                                                                                                                   
620002000210016 00250 4114001Inter RN 39         0240280Inter RD 265        0271283WAGNONLIEU          0260545004813004813          00000000000901      005226 1267    004918   004806   005207   005268   005243   005494   005007   004953   005468   005448   005323   005571               150000001         140049851 1897    130049221 1947    120046431 1777    110000001    0                                                                                                                                                   
620002000110016 00250 4114001Inter RD 265        0240280Inter RN 39         0271283WAGNONLIEU          0260545004813004813          00000000000901      005141 1267    004857   004915   005118   005269   005207   005394   004718   004801   005459   005401   005253   005311               150000001         140050081 1657    130048161 1717    120046221 1777    110000001    0                                                                                                                                                   
620001900310016 00250 4113001Limite Dep 80       0000000RD 265              0240280GOUY                0150400024315019380          00000000000187      000000                                                                                                                                 150000001         140068771 1967    130069711 1967    120080901 1930    110000001    0                                                                                                                                                   
620001900210016 00250 4113001RD 265              0000000Limite dep 80       0240280GOUY                0150400024315019380          00000000000187      000000                                                                                                                                 150000001         140034731 1907    130035141 1897    120039171 1900    110000001    0                                                                                                                                                   
620001900110016 00250 4113001Limite Dep 80       0000000RD 265              0240280GOUY                0150400024315019380          00000000000187      000000                                                                                                                                 150000001         140034041 2097    130034571 2037    120041731 1960    110000001    0                                                                                                                                                   
620001400310016 00170 4113001Acces A 26          0360100A 211               0441082VIMY                0360500009635009635          00000000000187      018249         017683   018219   018683   018570   018643   020248   016923   015036   018869   017923   019313   018999               150000001         140172811 0947    130163581    7    120159191    7    110160331    7                                                                                                                                                   
620001400210016 00170 4113001A 211               0360100Acces A 26          0441082VIMY                0360500009635009635          00000000000187      009057         008758   009036   009165   009184   009233   010005   008465   007852   009214   008839   009466   009516               150000001         140086121 0917    130081561    7    120079241    7    110080371    7                                                                                                                                                   
620001400110016 00170 4113001Acces A 26          0360100A 211               0441082VIMY                0390400009635009635          00000000000187      009192         008925   009183   009518   009386   009410   010243   008458   007184   009655   009084   009847   009483               150000001         140086691 0997    130082021 1017    120079951 1057    110079961 1047                                                                                                                                                   
620001302310016 00170 4810101Int RN 50           0330000Int A 26            0360100Roclincourt         0350900002960002960620001400300000000000698      023241                                                                                                                                 150000008         140000008         130208338         120202818    0    110204278    0                                                                                                                                                   
620000100310016 00010 4810101inter CD 940 st Leon0460000limite A 16         0500800St Leonard          0480833004048004048          00000000000613      000000                                                                                                                                 150000008         140000008         130000008         120000008    0    110000008    0                                                                                                                                                   
600010000310016 00310 4113001début dev Beauvais  0170000Fin dev Beauvais    0290465BEAUVAIS            0180742012465012465          00000000000513      005335         004411   004989   005247   005443   005047   005974   006187   005398   006017   004537   005504   005289               150000001         140053331 1888    130051621 1928    120000001         110000001                                                                                                                                                        
600010000210016 00310 4113001fin dev Beauvais    0170000début dev Beauvai   0290465BEAUVAIS            0180742012465012465          00000000000513      002529         001811   002377   002537   002631   002012   002844   003013   002314   002843   002741   002663   002577               150000001         140025681 1858    130024961 1868    120000001         110000001                                                                                                                                                        
600010000110016 00310 4113001début dev Beauvais  0170000Fin dev Beauvais    0290465BEAUVAIS            0180742012465012465          00000000000513      002806 1947    002600   002612   002710   002812   003035   003130   003174   003084   003174   001796   002841   002712               150000001         140027651 1958    130026661 1988    120000001    0    110000001    0                                                                                                                                                   
600009000310016 00310 4113001Clermont RD 916 A   0530839déb dév Clermont    0550000CLERMONT            0540594001839001839          00000000000513      016375 1197    015653   016473   016286   017589   016995   017363   014775   013240   017470   016797   016941   017052               150000001         140165181 0948    130160621    8    120000001         110000001                                                                                                                                                        
600009000210016 00310 4113001déb dév Clermont    0530839Clermont RD 916A    0550000CLERMONT            0540594001839001839          00000000000513      008325 1207    007866   008121   007469   008722   008658   009373   008046   007346   009421   008156   007976   008810               150000001         140079941 0918    130078001    8    120000001         110000001                                                                                                                                                        
600009000110016 00310 4113001Clermont RD 916 A   0530839déb dév Clermont    0550000CLERMONT            0540594001839001839          00000000000513      008050 1187    007787   008352   008817   008867   008337   007990   006729   005894   008049   008641   008965   008242               150000001         140085241 0998    130082621 1018    120000001    0    110000001    0                                                                                                                                                   
600008301310016 03240 4815001Senlis RN 17        0010000Senlis RN 330       0020284Chamant             0020000001194001194600000800300000000001287      016220                                                                                                                                 150000008         140000008         130165428         120172548    0    110000008    0                                                                                                                                                   
600008200310016 03300 4813001fin dev Ermenonville0100000Senlis RN 324       0191107Fontaine Chaalis    0110000010184010184600008100300000000001287      010710                                                                                                                                 150000008         140000008         130098878         120101438    0    110108598    0                                                                                                                                                   
600008100310016 03300 4113001Belleville RN 2     0040239fin dév Ermenonville0100001ERMENONVILLE        0050800007149007149600008100300000000001287      008619 2077    007690   008077   008460   008930   009066   009538   009282   008578   009242   008446   007896   008227               150000001         140083031 2027    130079561 2067    120081621 2097    110087381 2267                                                                                                                                                   
600008100210016 03300 4113001fin dév Ermenonville0040239Belleville RN 2     0100000ERMENONVILLE        0050800007149007149600008100300000000000188      004245 2067    003800   003982   004200   004414   004484   004715   004710   004196   004546   004029   003806   004061               150000001         140041071 1987    130038951 2007    120040631 2067    110043621 2297                                                                                                                                                   
600008100110016 03300 4113001Belleville RN 2     0040239fin dév Ermenonville0100000ERMENONVILLE        0050800007149007149600008100300000000000188      004374 2097    003890   004095   004260   004516   004582   004823   004572   004382   004696   004417   004090   004166               150000001         140041961 2097    130040611 2137    120040991 2147    110043761 2207                                                                                                                                                   
600007000310016 00310 4113001Compiegne RN 1031   0790420Aisne               1040134COMPIEGNE           0850406025714025714600008100302000250031287      000000                                                                                                                                 150000001         140086611 1558    130079841 1618    120000001    0    110000001    0                                                                                                                                                   
600007000210016 00310 4113001Aisne               0790420Compiegne RN 1031   1040134COMPIEGNE           0850406025714025714600008100302000250031287      000000                                                                                                                                 150000001         140043721 1518    130040541 1578    120000001         110000001                                                                                                                                                        
600007000110016 00310 4113001Compiegne RN 1031   0790420Aisne               1040134COMPIEGNE           0850406025714025714600008100302000250031287      000000                                                                                                                                 150000001         140042891 1638    130039301 1668    120000001    0    110143161    0                                                                                                                                                   
600006001310016 10310 4110101RN 31               0000000RN 32 Clairoix      0070279VENETTE             0010500006840006840600008100300000000000194      000000                                                                                                                                 150000001         140351851 0897    130343491    8    120324801    7    110332801    7                                                                                                                                                   
600006001210016 10310 4110101RN 32 Clairoix      0000000RN 31               0070279VENETTE             0010500006840006840600008100300000000000194      000000                                                                                                                                 150000001         140177251 0877    130172681    8    120163121    7    110167041    7                                                                                                                                                   
600006001110016 10310 4110101RN 31               0000000RN 32 Clairoix      0070279VENETTE             0010500006840006840600008100300000000000194      000000                                                                                                                                 150000001         140174601 0947    130170811    8    120161681    7    110165761    7                                                                                                                                                   
600005300310016 00310 4814001A 1                 0731041Compiegne RN 131    0790420Arsy                0750000005404005404600005100300000000001287      000000                                                                                                                                 150000008         140000008         130034108         120229318    0    110232128    0                                                                                                                                                   
600005100310016 00310 4113001début dev Clermont  0550000A 1                 0731041CATENOY             0580600018036018036600005100300000000001287      000000                                                                                                                                 150000001         140000001         130018251    8    120122711 1278    110124211 1298                                                                                                                                                   
600005100210016 00310 4113001A 1                 0550000début dév Clermont  0731041CATENOY             0580600018036018036600005100300000000001287      000000                                                                                                                                 150000001         140000001         130010041    8    120060251 1208    110060811 1228                                                                                                                                                   
600005100110016 00310 4113001Début dév Clermont  0550000A 1                 0731041CATENOY             0580600018036018036600005100300000000001287      000000                                                                                                                                 150000001         140000001         130008211    8    120062461 1428    110063401 1448                                                                                                                                                   
600004500310016 00310 4110201Beauvais sortie     0300000Clermont RD 916A    0530839LA RUE St PIERRE    0420000024386024386600005100300000000001287      021046 1117    019124   020046   020553   021286   021649   023775   020846   020008   022643   021713   020636   020342               150000001         140211441 1207    130203171 1197    120204921 1227    110213001 1257                                                                                                                                                   
600004500210016 00310 4110201Clermont RD 916A    0300000Beauvais Sortie     0530839LA RUE St PIERRE    0420000024386024386600005100300000000000188      010578 1107    009598   010063   010330   010719   010897   011996   010548   010042   011325   010886   010340   010221               150000001         140106091 1197    130101931 1197    120102751 1217    110106791 1247                                                                                                                                                   
600004500110016 00310 4110201Beauvais sortie     0300000Clermont RD 916A    0530839LA RUE St PIERRE    0420000024386024386600005100300000000000188      010468 1147    009526   009983   010223   010567   010752   011779   010298   009966   011318   010827   010296   010121               150000001         140105351 1227    130101241 1207    120102171 1257    110106211 1287                                                                                                                                                   
600000900310016 00020 4113001RN 330              0020700Dév Nanteuil        0110200NANTEUIL            0080650008884008884600005100300000000001287      027009 1467    025245   026595   027324   027824   027633   029191   027334   021304   028787   027935   027509   027571               150000001         140260001 1438    130000001         120000001         110000001                                                                                                                                                        
600000900210016 00020 4113001Dév Nanteuil        0020700RN 330              0110200NANTEUIL            0080650008884008884600005100300000000001287      014761 1447    013941   014606   015033   015141   015191   015994   014943   011492   015702   015192   015071   014913               150000001         140142471 1418    130000001         120000001         110000001                                                                                                                                                        
600000900110016 00020 4113001RN 330              0020700Dév Nanteuil        0110200NANTEUIL            0080650008884008884600005100300000000001287      012248 1517    011304   011989   012291   012683   012442   013197   012391   009812   013085   012743   012438   012658               150000001         140117531 1468    130000001         120000001    0    110000001    0                                                                                                                                                   
600000800310016 00020 4113001Dév Nanteuil        0110200Limite Aisne        0291114GONDREVILLE         0250300018911018911600005100300000000001287      014208 1857    013415   013712   013735   014058   015038   015227   013172   011582   015540   015093   015089   014905               150000001         140147061 1807    130144901 1767    120151151 1677    110000001    0                                                                                                                                                   
600000800210016 00020 4113001Limite Aisne        0110200Dév Nanteuil        0291114GONDREVILLE         0250300018911018911600005100300000000000192      006858 1837    006471   006615   006641   006771   007303   007387   006713   004837   007625   007423   007391   007156               150000001         140070161 1797    130068721 1767    120069161 1667    110000001    0                                                                                                                                                   
600000800110016 00020 4113001Dev Nanteuil        0110200Limite Aisne        0291114GONDREVILLE         0250300018911018911600005100300000000000192      007350 1877    006944   007097   007094   007287   007735   007840   006459   006745   007915   007670   007698   007749               150000001         140076901 1817    130076181 1767    120081991 1707    110000001    0                                                                                                                                                   
590506000310016 00230 1110231Orchies             0160417Petite Foret        0370278BEUVRY              0210900021018021018600005100300000000000187      040332 0907    039658   040335   042434   041693   041646   044628   035949   037134   044564   040064   035274   040761               150000001         140406871 0907    130400251    7    120406701    7    110409831    7                                                                                                                                                   
590506000210016 00230 1110231Petite Foret        0160417Orchies             0370278BEUVRY              0210900021018021018600005100300000000000187      019274 0907    018927   019772   020385   020708   020702   021557   017848   018448   021786   017629   013752   019833               150000001         140202191 0907    130198961    7    120202231    7    110204221    7                                                                                                                                                   
590506000110016 00230 1110231Orchies             0160417Petite Foret        0370278BEUVRY              0210900021018021018600005100300000000000187      021058 0907    020731   020563   022049   020985   020944   023071   018101   018686   022778   022435   021522   020928               150000001         140204681 0907    130201291    7    120204471    7    110205611    7                                                                                                                                                   
590505300310016 00160 1110241Coudekerque (RN 335)1251000Ghyvelde (RD 947)   1370656GHYVELDE OUEST      1330500011656011656600005100300000000000693      027684 2537    023699   025204   025816   028859   030072   029412   031862   029288   028093   028533   026439   024829               150000001         140290481 2598    130276881 2548    120271421 2468    110272281 2488                                                                                                                                                   
590505300210016 00160 1110241Ghyvelde (RD 947)   1251000Coudekerque (RN 335)1370656GHYVELDE OUEST      1330500011656011656600005100300000000000693      013549 2517    012116   012194   012584   013943   014436   014214   015480   015785   013369   013807   012569   011995               150000001         140140011 2638    130133591 2608    120130751 2508    110131061 2518                                                                                                                                                   
590505300110016 00160 1110241Coudekerque (RN335) 1251000Ghyvelde (RD 947)   1370656GHYVELDE OUEST      1330500011656011656600005100300000000000693      014135 2567    011583   013010   013232   014916   015636   015198   016382   013503   014724   014726   013870   012834               150000001         140150471 2528    130143281 2498    120140671 2398    110141221 2428                                                                                                                                                   
590505200310016 00160 1150441Grande Synthe (RN2551190625Coudekerque (RN335) 1251000COUDEKERQUE         1240400006375006375600005100300000000000693      061473         052796   055219   059666   062668   064145   065198   067143   067816   064600   062744   059642   055840               150000001         140622991 1427    130616511 1387    120610311 1467    110607811    7                                                                                                                                                   
590505200210016 00160 1150441Coudekerque (RN335) 1190625Grande Synthe (RN2551251000COUDEKERQUE         1240400006375006375600005100300000000000693      032130 1597    028992   029963   031611   032467   032975   033513   034422   034793   033266   032531   030783   030152               150000001         140320791 1547    130317171 1467    120312361 1447    110311361    7                                                                                                                                                   
590505200110016 00160 1150441Grande Synthe(RN225)1110625Coudekerque (RN335) 1251000COUDEKERQUE         1240400006375006375600005100300000000000693      029343         023804   025256   028055   030201   031170   031685   032721   033023   031334   030213   028859   025688               150000001         140302201 1187    130299341 1307    120297951 1507    110296451 1527                                                                                                                                                   
590505000310016 00160 1110241Grande Synthe(RD131)1170000Grande Synthe(RN225)1190625ZAC DU MOULIN       1170820002625002625600005100300000000000693      061219         056148   058278   058750   063176   063379   065262   065188   059063   061836   063073   059699   060748               150000001         140616271 1427    130604731 2047    120603331 1987    110000001    0                                                                                                                                                   
590505000210016 00160 1110241Grande Synthe(RN225)1170000Grande Synthe(RD131)1190625ZAC DU MOULIN       1170820002625002625600005100300000000000693      041421         037682   039043   039386   042882   040916   044773   044935   039974   042357   043159   040771   041180               150000001         140310911 2127    130305071 2047    120304591 1987    110000001    0                                                                                                                                                   
590505000110016 00160 1110241Grande Synthe(RD131)1170000Grande Synthe(RN225)1190625ZAC DU MOULIN       1170820002625002625600005100300000000000693      019798         018466   019235   019364   020294   022463   020489   020253   019089   019479   019914   018928   019568               150000001         140305361 0007    130299661 2047    120298741 1987    110000001    0                                                                                                                                                   
590504900310016 00160 1110241Craywick (RN 316)   1100800Grande Synthe(RD131)1170000CRAYWICK            1130000006200006200600005100300000000000693      052801 2017    047453   049029   051109   053713   054224   055133   057577   057870   055019   053507   048951   049837               150000001         140531701 2307    130522591 2277    120515791 2147    110520331 2047                                                                                                                                                   
590504900210016 00160 1110241Grande Synthe(RD131)1100800Craywick (RN 316)   1170000CRAYWICK            1130000006200006200600005100300000000000693      026322 1907    023787   024478   025282   026679   026941   027521   028552   028841   027503   026703   024235   025240               150000001         140266071 2297    130260731 2267    120256831 2097    110258591 1957                                                                                                                                                   
590504900110016 00160 1110241Craywick (RN 316)   1100800Grande Synthe(RD131)1170000CRAYWICK            1130000006200006200600005100300000000000693      026479 2217    023666   024551   025827   027034   027283   027612   029025   029029   027516   026804   024716   024597               150000001         140265631 2337    130261861 2297    120258961 2247    110261741 2217                                                                                                                                                   
590504800310016 00160 1110241Limite Pas de Calais1030900Craywick (RN 316)   1100800ST GEORGES SUR L'AA 1050800006900006900600005100300000000000693      037057 2267    027026   035406   036633   038368   039656   041073   043671   042429   033311   037241   035398   034365               150000001         140376381 2288    130363961 2298    120365481 2278    110361601 2238                                                                                                                                                   
590504800210016 00160 1110241Craywick (RN 316)   1030900Limite Pas de Calais1100800ST GEORGES SUR L'AA 1050800006900006900600005100300000000000693      017872 2217    010258   017799   018011   018568   019979   020729   021769   021081   013470   018004   017616   017143               150000001         140187101 2248    130181041 2238    120180911 2238    110179501 2198                                                                                                                                                   
590504800110016 00160 1110241Limite Pas de Calais1030900Craywick (RN 316)   1100800ST GEORGES SUR L'AA 1050800006900006900600005100300000000000693      019185 2357    016768   017607   018622   019800   019677   020344   021902   021348   019841   019237   017782   017222               150000001         140189281 2348    130182921 2358    120184571 2358    110182101 2308                                                                                                                                                   
590504700310016 00230 1810231Valenciennes Nord   0391001A 2                 0420539La Sentinelle       0410500002562002562590503902100000000000187      021053                                                                                                                                 150000008         140000008         130207868         120210418    0    110213838    0                                                                                                                                                   
590504500310016 00230 1810231Petite Foret        0370278Valenciennes Nord   0391004Petite-Foret        0390073002739002739590503902300000000000187      061724                                                                                                                                 150000008         140000008         130611198         120615478    0    110625758    0                                                                                                                                                   
590503902310016 00230 1110231Centre d'activites  0020000Orchies             0160417GENECH              0080700014440014440590503902300000000000187      050699 0587    048861   050358   051242   051990   051546   053895   044710   046298   054534   052859   051397   050969               150000001         140509191 0558    130502021    8    120505441    8    110513881    8                                                                                                                                                   
590503902210016 00230 1110231Orchies             0020000Centre d'activites  0160417GENECH              0080700014440014440590503902300000000000187      024284 0547    023588   024222   024566   024826   024647   025690   021503   022248   025965   025185   024601   024492               150000001         140243421 0568    130241231    8    120241501    8    110245651    8                                                                                                                                                   
590503902110016 00230 1110231Centre d'activites  0011001Orchies             0160417GENECH              0080700014440014440590503902300000000000187      026415 0667    025273   026136   026676   027164   026899   028205   023207   024050   028569   027674   026796   026477               150000001         140265771 0548    130260791    8    120263941    8    110268231    8                                                                                                                                                   
590503901310016 00230 11102314 Cantons           0000000Centre D'activités  0020000CRT-LESQUIN         0000800001885001885590503902300000000000187      000000                                                                                                                                 150000001         140000001         130603031         120000001    0    110000001    0                                                                                                                                                   
590503901210016 00230 1110231Centre D'activites  00000004 Cantons           0011001CRT-LESQUIN         0000800001885001885590503902300000000000187      000000                                                                                                                                 150000001         140000001         130298911         120000001    0    110000001    0                                                                                                                                                   
590503901110016 00230 11102314 Cantons           0000000Centre D'activites  0011001CRT-LESQUIN         0000800001885001885590503902300000000000187      000000                                                                                                                                 150000001         140000001         130304121         120000001    0    110000001    0                                                                                                                                                   
590503700310016 00270 11102414 Cantons           0000000Frontière Belge     0121287ANSTAING            0070974010965010965590503902300000000000187      037193 1127    035221   036688   036638   036826   038554   039548   038111   034993   038866   037573   037218   036164               150000001         140383221 1728    130366851 1608    120361851 1538    110000001    0                                                                                                                                                   
590503700210016 00270 1110241Frontiere Belge     00000004 Cantons           0121287ANSTAING            0070974010965010965590503902300000000000187      018805 1497    017385   018114   018878   018662   019770   020159   019341   017483   019449   019093   018918   018423               150000001         140186711 1588    130178881 1538    120176321 1538    110000001    0                                                                                                                                                   
590503700110016 00270 11102414 Cantons           0000000Frontière Belge     0121287ANSTAING            0070974010965010965590503902300000000000187      018388 0387    017836   018574   017760   018164   018784   019389   018770   017510   019417   018480   018300   017741               150000001         140196511 1988    130187971 1688    120185531 1538    110000001    0                                                                                                                                                   
590503600310016 00220 1110641Ronchin             00000004 Cantons           0020811LESQUIN             0020340002402002402590503902300000000000996      000000                                                                                                                                 150000001         140000001         131259311         121270401    0    110000001    0                                                                                                                                                   
590503600210016 00220 11106414 Cantons           0000000Ronchin             0020811LESQUIN             0020340002402002402590503902300000000000996      000000                                                                                                                                 150000001         140000001         130630001         120640771    0    110000001    0                                                                                                                                                   
590503600110016 00220 1110641Ronchin             00000004 Cantons           0020811LESQUIN             0020340002402002402590503902300000000000996      000000                                                                                                                                 150000001         140000001         130629311         120629631    0    110000001    0                                                                                                                                                   
590503502310016 00250 1110241Hazebrouck          0320216Bergues             0621068QUAEDYPRE           0590110030892030892590503902300000000000187      025036         019003   022279   023912   030607   031115   018691   028877   023180   022758   029272   025136   025325               150000001         140268141 1107    130303401    8    120290061    8    110000001    0                                                                                                                                                   
590503502210016 00250 1110241Bergues             0320216Hazebrouck          0621068QUAEDYPRE           0590110030892030892590503902300000000000187      009712         005067   007509   008640   014926   015145   001924   011379   008950   007029   013940   010500   011245               150000001         140113081 0807    130150941    8    120141001    8    110000001    0                                                                                                                                                   
590503502110016 00250 1110241Hazebrouck          0210316Bergues             0621068QUAEDYPRE           0590110030892030892590503902300000000000187      015324 1017    013936   014770   015272   015681   015970   016767   017498   014230   015729   015332   014636   014080               150000001         140155061 1547    130152461    8    120149061    8    110000001    0                                                                                                                                                   
590503000310016 00250 1110241Armentières Ouest   0200394Hazebrouck          0320216STEENWERCK          0240190011831011831590503902300000000000187      000000                                                                                                                                 150000001         140546501 1347    130522271 1267    120524081 1237    110000001    0                                                                                                                                                   
590503000210016 00250 1110241Hazebrouck          0200394Armentieres Ouest   0320216STEENWERCK          0240190011831011831590503902300000000000187      000000                                                                                                                                 150000001         140271341 1357    130260651 1297    120263251 1297    110000001    0                                                                                                                                                   
590503000110016 00250 1110241Armentieres Ouest   0200394Hazebrouck          0320216STEENWERCK          0240190011831011831590503902300000000000187      000000                                                                                                                                 150000001         140275161 1327    130261621 1247    120260831 1127    110000001    0                                                                                                                                                   
590502900310016 00250 1110231La Chapelle         0150680Armentieres Ouest   0200394LA_CHAPELLE         0160700004719004719590503902300000000000187      067382 1087    060013   065838   067172   067468   068583   069944   067067   067723   071797   068860   066197   068007               150000001         140669451 1127    130651541 1137    120652021 1167    110659371 1127                                                                                                                                                   
590502900210016 00250 1110231Armentières Ouest   0150680La Chapelle         0200394LA_CHAPELLE         0160700004719004719590503902300000000000187      033310 1097    029376   032778   033035   033295   033986   034439   033480   033742   035349   033899   032812   033575               150000001         140331781 1137    130322531 1147    120323671 1167    110327491 1137                                                                                                                                                   
590502900110016 00250 1110231La Capelle          0150680Armantieres Ouest   0200394LA_CHAPELLE         0160700004719004719590503902300000000000187      034072 1067    030637   033060   034137   034173   034597   035505   033587   033981   036448   034961   033385   034432               150000001         140337671 1117    130329011 1137    120328351 1147    110331881 1117                                                                                                                                                   
590502800310016 00250 1110231Sequedin            0090098La Chapelle         0150680ENNETIERES          0110420006589006589590503902300000000000187      084897 1067    078892   082115   084542   087625   086156   089314   087684   083277   088671   086941   082684   080965               150000001         140839311 1197    130821381 1187    120824921 1217    110838501 1197                                                                                                                                                   
590502800210016 00250 1110231La Chapelle         0090098Sequedin            0150680ENNETIERES          0110420006589006589590503902300000000000187      041962 1057    038891   040340   041351   043109   042376   043827   043625   041721   043278   042995   040799   041231               150000001         140412731 1227    130404161 1217    120407031 1247    110412611 1227                                                                                                                                                   
590502800110016 00250 1110231Sequedin            0090098La Capelle          0150680ENNETIERES          0110420006589006589590503902300000000000187      042935 1087    040001   041775   043191   044516   043780   045487   044059   041556   045393   043946   041885   039734               150000001         140426581 1147    130417221 1147    120417891 1167    110425891 1137                                                                                                                                                   
590502600310016 00250 1110431Porte Ouest         0040488Sequedin            0090098LOOS                0050450004602004602590503902300000000000996      000000                                                                                                                                 150000001         140000001         131050141         121039901    0    110000001    0                                                                                                                                                   
590502600210016 00250 1110431Sequedin            0040488Porte Ouest         0090098LOOS                0050450004602004602590503902300000000000996      000000                                                                                                                                 150000001         140000001         130522131         120512891    0    110000001    0                                                                                                                                                   
590502600110016 00250 1110431Porte Ouest         0040488Sequedin            0090098LOOS                0050450004602004602590503902300000000000187      000000                                                                                                                                 150000001         140000001         130528011         120527011    0    110000001    0                                                                                                                                                   
590502500310016 00250 1810431Porte de Bethune    0030890Porte Ouest         0040488Pt.Bethune/Ouest    0040150000595000595590502400300000000000187      000000                                                                                                                                 150000008         140000008         130000008         120000008    0    110000008    0                                                                                                                                                   
590502400310016 00250 1110631Porte Des Postes    0020835Porte De Bethune    0030890PORTE DES POSTES    0030000001056001056590502400300000000000187      000000                                                                                                                                 150000001         140000001         130949641         120000001    0    110000001    0                                                                                                                                                   
590502400210016 00250 1110631Porte De Bethune    0020835Porte Des Postes    0030890PORTE DES POSTES    0030000001056001056590502400300000000000187      000000                                                                                                                                 150000001         140000001         130473341         120000001    0    110000001    0                                                                                                                                                   
590502400110016 00250 1110631Porte Des Postes    0020835Porte De Bethune    0030890PORTE DES POSTES    0030000001056001056590502400300000000000187      000000                                                                                                                                 150000001         140000001         130476301         120000001    0    110000001    0                                                                                                                                                   
590502300310016 00250 1110431Porte D'Arras       0010792Porte Des Postes    0020835Pte ARRAS/POSTES    0020320001044001044590502400300000000000187      000000                                                                                                                                 150000001         140000001         131142701         121147871    0    110000001    0                                                                                                                                                   
590502300210016 00250 1110431Porte Des Postes    0010792Porte D'Arras       0020835Pte ARRAS/POSTES    0020320001044001044590502400300000000000187      000000                                                                                                                                 150000001         140000001         130574011         120573931    0    110000001    0                                                                                                                                                   
590502300110016 00250 1110431Porte D'Arras       0010792Porte Des Postes    0020835Pte ARRAS/POSTES    0020320001044001044590502400300000000000187      000000                                                                                                                                 150000001         140000001         130568691         120573941    0    110000001    0                                                                                                                                                   
590502200310016 00250 1110631Porte Sud           0000000Porte D'Arras       0010792PORTE SUD           0010000001512001512590502400300000000000187      000000                                                                                                                                 150000001         140000001         132071171         122062061    0    110000001    0                                                                                                                                                   
590502200210016 00250 1110631Porte d'Arras       0000000Porte Sud           0010792PORTE SUD           0010000001512001512590502400300000000000187      000000                                                                                                                                 150000001         140000001         130947701         120943061    0    110000001    0                                                                                                                                                   
590502200110016 00250 1110631Porte Sud           0000000Porte D'Arras       0010792PORTE SUD           0010000001512001512590502400300000000000187      000000                                                                                                                                 150000001         140000001         131123471         121119001    0    110000001    0                                                                                                                                                   
590502000310016 00020 1110241Marly               0640030Frontière Belge     0780456ONNAING             0720210014451014451590502400300000000000293      037364         034252   036581   037686   039387   039908   029850   033158   042060   040046   040214   037772   037331               150000001         140000001         130000001         120371321    8    110375361 1008                                                                                                                                                   
590502000210016 00020 1110241Frontière Belge     0640030Marly               0780456ONNAING             0720210014451014451590502400300000000000293      017608         017057   018369   019235   019408   019813   009725   010506   020129   019554   020173   018521   018754               150000001         140000001         130000001         120185821    8    110187661    8                                                                                                                                                   
590502000110016 00020 1110241Marly               0640030Frontière Belge     0780456ONNAING             0720210014451014451590502400300000000000293      019756 1807    017195   018212   018451   019979   020095   020125   022652   021931   020492   020041   019251   018577               150000001         140000001         130000001         120185501 1558    110187701 1588                                                                                                                                                   
590501901310016 00210 1813001Limite Nord         0260207Echang 19           0270557Courcelles          0270000001347001347          00000000000613      000000                                                                                                                                 150000008         140000008         130000008         120000008    0    110000008    0                                                                                                                                                   
590501800310016 00020 1810241Valenciennes Sud    0600973Marly               0640030Aulnoy              0620210003061003061590502000300000000000187      090885                                                                                                                                 150000008         140000008         130000008         120903218    0    110913048    0                                                                                                                                                   
590501700310016 00020 1110441Rocade Ouest        0590025Valenciennes Sud    0600973TRITH-SAINT-LEGER   0590400001948001948590502000300000000000187      000000                                                                                                                                 150000001         140000001         130000001         120000001    0    110000001    0                                                                                                                                                   
590501700210016 00020 1110441Valenciennes Sud    0590025Rocade Ouest        0600973TRITH-SAINT-LEGER   0590400001948001948590502000300000000000187      000000                                                                                                                                 150000001         140000001         130000001         120000001    0    110000001    0                                                                                                                                                   
590501700110016 00020 1110441Rocade Ouest        0590025Valenciennes Sud    0600973TRITH-SAINT-LEGER   0590400001948001948590502000300000000000187      000000                                                                                                                                 150000001         140000001         130000001         120000001    0    110000001    0                                                                                                                                                   
590501600310016 00020 1810241Denain              0520775Rocade Ouest        0590025La Sentinelle       0580585006258006258590501300300000000000187      060374                                                                                                                                 150000008         140000008         130585898         120584818    0    110601218    0                                                                                                                                                   
590501400310016 00020 1810241Neuville/Escaut     0471001Denain              0520775Neuville/Escaut     0500600004777004777590501300100000000000187      030019                                                                                                                                 150000008         140000008         130291948         120293318    0    110301438    0                                                                                                                                                   
590501300310016 00020 1110241Hordain             0430000Neuville/Escaut     0471001LIEU SAINT AMAND    0450510005006005006590501300100000000000187      044870 1757    040389   042855   043769   044609   045794   046615   048519   048181   047236   045898   043040   041464               150000001         140448711 1877    130435431 1907    120434781 1887    110446971 1907                                                                                                                                                   
590501300210016 00020 1110241Neuville/Escaut     0430000Hordain             0471001LIEU SAINT AMAND  B 0450510005006005006590501300100000000000187      022618 1737    020222   021564   022127   022630   023274   023581   024459   024318   023767   022866   021644   020928               150000001         140224851 1807    130219031 1797    120217311 1807    110223481 1827                                                                                                                                                   
590501300110016 00020 1110241Hordain             0430000Neuville/Escaut     0471001LIEU SAINT AMAND    0450510005006005006590501300100000000000187      022252 1787    020167   021291   021642   021979   022520   023034   024060   023863   023469   023032   021396   020536               150000001         140223861 2017    130216401 2017    120217471 2037    110223491 2067                                                                                                                                                   
590501210310016 00220 1110241Tourcoing Nord      0220440Belgique            0240983NEUVILLE/FERRAIN    0240564002543002543590501300100000000000187      000000                                                                                                                                 150000001         140000001         130000001         120000001    0    110000001    0                                                                                                                                                   
590501210210016 00220 1110241Belgique            0220440Tourcoing Nord      0240983NEUVILLE/FERRAIN    0240564002543002543590501300100000000000187      000000                                                                                                                                 150000001         140000001         130000001         120000001    0    110000001    0                                                                                                                                                   
590501210110016 00220 1110241Tourcoing Nord      0220440Belgique            0240983NEUVILLE/FERRAIN    0240564002543002543590501300100000000000187      000000                                                                                                                                 150000001         140000001         130269521 1238    120252691 1338    110174171 1928                                                                                                                                                   
590501200310016 00220 1110241Tourcoing Nord      0220440Belgique            0240983NEUVILLE/FERRAIN    0240564002543002543590501300100000000000187      000000                                                                                                                                 150000001         140000001         130000001         120000001    0    110000001    0                                                                                                                                                   
590501200210016 00220 1110241Belgique            0220440Tourcoing Nord      0240983NEUVILLE/FERRAIN    0240564002543002543590501300100000000000187      000000                                                                                                                                 150000001         140000001         130000001         120000001    0    110000001    0                                                                                                                                                   
590501200110016 00220 1110241Tourcoing Nord      0220440Belgique            0240983NEUVILLE/FERRAIN    0240564002543002543590501300100000000000187      000000                                                                                                                                 150000001         140000001         130000001         120000001    0    110000001    0                                                                                                                                                   
590500800310016 00220 1110441Echang RN 350       0140055Tourcoing Nord      0220440MOUVAUX             0160050008382008382590501300100000000000187      000000                                                                                                                                 150000001         140000001         130000001         120926821 1427    110941841 1447                                                                                                                                                   
590500800210016 00220 1110441Tourcoing Nord      0140055Echang. RN 350      0220440MOUVAUX             0160050008382008382590501300100000000000187      000000                                                                                                                                 150000001         140000001         130000001         120470871 1497    110477951 1527                                                                                                                                                   
590500800110016 00220 1110441Echang. RN 350      0140055Tourcoing Nord      0220440MOUVAUX             0160050008382008382590501300100000000000187      000000                                                                                                                                 150000001         140000001         130000001         120455951 1267    110463891 1277                                                                                                                                                   
590500600310016 00220 1110431Wasquehal           0100054Echang RN 350       0140055PETIT WASQUEHAL     0100655003427003427590501300100000000000187      000000                                                                                                                                 150000001         140000001         130924751         121012091    0    110000001    0                                                                                                                                                   
590500600210016 00220 1110431Echang RN 350       0100054Wasquehal           0140055PETIT WASQUEHAL     0100655003427003427590501300100000000000187      000000                                                                                                                                 150000001         140000001         130405331         120499611    0    110000001    0                                                                                                                                                   
590500600110016 00220 1110431Wasquehal           0100054Echang RN 350       0140055PETIT WASQUEHAL     0100655003427003427590501300100000000000187      000000                                                                                                                                 150000001         140000001         130519421         120512481    0    110000001    0                                                                                                                                                   
590500500310016 00220 1810431Babylone            0090000Wasquehal           0100054Echang.Babylone     0090215001046001046590500600100000000000187      000000                                                                                                                                 150000008         140000008         130000008         120000008    0    110000008    0                                                                                                                                                   
590500400310016 00010 1110731Ronchin             2080350Lille               2101325RONCHIN             2090300002989002989590500600100000000000297      000000                                                                                                                                 150000001         140000001         131808391         121760791    0    110000001    0                                                                                                                                                   
590500400210016 00010 1110731Lille               2080350Ronchin             2101325RONCHIN             2090300002989002989590500600100000000000297      000000                                                                                                                                 150000001         140000001         130884891         120864391    0    110000001    0                                                                                                                                                   
590500400110016 00010 1110731Ronchin             2080350Lille               2101325RONCHIN             2090300002989002989590500600100000000000297      000000                                                                                                                                 150000001         140000001         130923501         120896401    0    110000001    0                                                                                                                                                   
590500301310016 00010A1810231A 1                 0000000A 22                0001179Petit Ronchin       0000500001179001179          00000000001203      000000                                                                                                                                 150000008         140000008         130000008         120000008    0    110000008    0                                                                                                                                                   
590500300310016 00010 1110631Seclin              2010315Ronchin             2080350FACHES              2070050007043007043          00000000000187      000000                                                                                                                                 150000001         140000001         131470431         121396361    0    110000001    0                                                                                                                                                   
590500300210016 00010 1110631Ronchin             2010315Seclin              2080350FACHES              2070050007043007043          00000000000187      000000                                                                                                                                 150000001         140000001         130739831         120695611    0    110000001    0                                                                                                                                                   
590500300110016 00010 1110631Seclin              2010315Ronchin             2080350FACHES              2070050007043007043          00000000000187      000000                                                                                                                                 150000001         140000001         130730601         120700751    0    110000001    0                                                                                                                                                   
590500100310016 00010 1110431Carvin (limite 62)  0000000Seclin              2010315MARTINSART          2000400007890007890          62050040030187      000000                                                                                                                                 150000001         140000001         131096541 154     120997061    0    110000001    0                                                                                                                                                   
590500100210016 00010 1110431Seclin              0000000Carvin (limite 62)  2010315MARTINSART          2000400007890007890          62050040020187      000000                                                                                                                                 150000001         140000001         130553661 160     120452891    0    110000001    0                                                                                                                                                   
