840149800310016 00860 4812001N 7 LA CROISIERE    0000000D63 A MOTTE DU RHONE0010929LA CROISIERE        0010132001977001977000000000000000000001090      000000                                                                                                                                 150000008         140101198         130100198         120096838         110100118                                                                                                                                                        
840149700310016 00860 4813001D63 A MOTTE DU RHONE0010929D994                0030200LA MOTTE DU RHONE   0020213001578001578000000000000000000000898      000000                                                                                                                                 150000008         140198408         130196448         120189858         110196278                                                                                                                                                        
840107050310016 00860 4813001RD 994              0030200LIM DEP             0040000PT_ST_ESPRIT_DEV    0040000001008001008000000000000000000000197      010614    0                                                                                                                            150000008    0    140101728    0    130100728    0    120097348    0    110100638    0                                                                                                                                                   
840107050210016 00860 4813001RD 994              0030200LIM DEP             0040000PT_ST_ESPRIT_DEV    0040000001008001008000000000000000000000197      005404    0                                                                                                                            150000008    0    140052148    0    130051638    0    120049658    0    110051498    0                                                                                                                                                   
840107050110016 00860 4813001RD 994              0030200LIM DEP             0040000PT_ST_ESPRIT_DEV    0040000001008001008000000000000000000001296      005210    0                                                                                                                            150000008    0    140049588    0    130049098    0    120047698    0    110049148    0                                                                                                                                                   
840100725310016 10070 4110201sortie gare TGV     0230500giratoire fin route 0260076RIVE GAUCHE         0250065001104001104000000000000000000000616      020754    0                                                                                                                            150198261    0    140000001    0    130000001    0    120000001    0    110000001    0                                                                                                                                                   
840100725210016 10070 4110201sortie gare TGV     0230500giratoire fin route 0260076RIVE GAUCHE         0250065001104001104000000000000000000000616      010431    0                                                                                                                            150100901    0    140000001    0    130000001    0    120000001    0    110000001    0                                                                                                                                                   
840100725110016 10070 4110201sortie gare TGV     0230500giratoire fin route 0260076RIVE GAUCHE         0250065001104001104000000000000000000000616      010323    0                                                                                                                            150097361    0    140000001    0    130000001    0    120000001    0    110000001    0                                                                                                                                                   
840100723310016 10070 4110201giratoire           0220000sortie gare TGV     0230500COURTINE NORD       0230235000641000641000000000000000000000616      015918         013721   014074   015562   016070   016098   017142   017420   015639   016632   015731   016890   016008               150151431    0    140000001    0    130000001    0    120000001    0    110000001    0    013333   013657   014341   015685   014869   016301   017135   015228   016168   015884   014580   014463                                      
840100723210016 10070 4110201giratoire           0220000sortie gare TGV     0230500COURTINE NORD       0230235000641000641000000000000000000000616      007780         006874   007000   007758   007890   007876   008348   008272   007397   008184   007651   008253   007852               150074351         140000001         130000001         120000001         110000001         006721   006818   007150   007736   007265   007997   008249   007204   007962   007606   007300   007199                                      
840100723110016 10070 4110201giratoire           0220000sortie gare TGV     0230500COURTINE NORD       0230235000641000641000000000000000000000616      008138         006847   007074   007804   008180   008222   008794   009148   008242   008448   008080   008637   008156               150077081    0    140000001    0    130000001    0    120000001    0    110000001    0    006612   006839   007191   007949   007604   008304   008886   008024   008206   008278   007280   007264                                      
840003800310016 01290 4813001N 7                 0000000N 7                 0000775AUTOROUTE AVI SUD   0000690000775000775840001400300000000000500      020484                                                                                                                                 150000008         140199148         130192848         120189338         110196558                                                                                                                                                        
840001400310016 00070 4117001Charles de Gaulle   0540000D 973               0611156CAUMONT_N7          0600176006996006996840001400300000000000493      041344    0                                                                                                                            150000001    0    140401931    0    130394431    7    120382901    0    110404441    0                                                                                                                                                   
840001400210016 00070 4117001Charles de Gaulle   0540000D 973               0611156CAUMONT_N7          0600176006996006996840001400300000000000493      020144    0                                                                                                                            150000001    0    140196681    0    130195681    7    120187771    0    110201871    0                                                                                                                                                   
840001400110016 00070 4117001Charles de Gaulle   0540000D 973               0611156CAUMONT_N7          0600176006996006996840001400300000000000493      021200    0                                                                                                                            150000001    0    140205251    0    130198751    7    120195131    0    110202571    0                                                                                                                                                   
840000400310016 00070 4815001EB 20 ORANGE        0270485D 977               0290060COURTHEZON NORD     0290000006372006372840000202300000000000490      014668                                                                                                                                 150000008         140156838         130156068         120157348         110172388                                                                                                                                                        
840000399310016 00070 4855001EB 10 ORANGE        0240000EB 20 ORANGE        0270485TRAVERSEE ORANGE    0250000003219000000840000202300000000000401      016828                                                                                                                                 150000008         140179928         130179038         120180508         110197768                                                                                                                                                        
840000300310016 00070 4813001D 976               0220000EB 10 ORANGE        0240000ENTREE NORD ORANGE  0220000002005002005840000202300000000000490      016409                                                                                                                                 150000008         140175448         130174578         120176008         110192838                                                                                                                                                        
840000202310016 00070 4112001A7 PIOLENC          0190200D 976               0220000ORANGE NORD         0190800002793002793840000202300000000001291      011481    0                                                                                                                            150000001    0    140122751    0    130122141    0    120123141    0    110134911    0                                                                                                                                                   
840000202210016 00070 4112001A7 PIOLENC          0190200D 976               0220000ORANGE NORD         0190800002793002793840000202300000000001291      005408    0                                                                                                                            150000001    0    140054151    0    130053191    0    120054161    0    110074041    0                                                                                                                                                   
840000202110016 00070 4112001A7 PIOLENC          0190200D 976               0220000ORANGE NORD         0190800002793002793840000202300000000001291      006073    0                                                                                                                            150000001    0    140068601    0    130068951    0    120068981    0    110060871    0                                                                                                                                                   
840000201310016 00070 4112001D 994               0050740A7 PIOLENC          0190200MONDRAGON SUD       0110088013449010468840000202300000000001191      013139         010231   010680   011524   013164   013865   014166   016042   016550   013895   012965   012416   012047               150104181         140119171         130117581    7    120116851    8    110119341    8    005602   005762   006104   011723   012160   012480   013108   014249   011962   011113   009948   010495                                      
840000201210016 00070 4112001D 994               0050740A7 PIOLENC          0190200MONDRAGON SUD       0110088013449010468840000202300000000001191      006431         004460   004607   005254   006489   006946   006934   007915   008886   006925   006475   006185   006007               150039471         140051481         130050761    7    120049661    8    110051731    8    000009   000005   000006   005064   005428   005513   005527   006789   005328   004868   003959   004612                                      
840000201110016 00070 4112001D 994               0050740A7 PIOLENC          0190200MONDRAGON SUD       0110088013449010468840000202300000000001191      006708         005771   006073   006270   006675   006919   007232   008127   007664   006970   006490   006231   006040               150064711         140067691         130066821 1337    120067191 1378    110067611 1318    005593   005757   006098   006659   006732   006967   007581   007460   006634   006245   005989   005883                                      
840000100310016 00070 4115001LIMITE DROME        0000000D 994               0050740LAPALUD             0010500005786005786840000202326000250030390      010646         008599   009392   009753   010489   010968   011308   013431   013945   011022   010233   009519   009010               150095331         140098531         130097561         120091841         110098461 1937    004250   007854   008473   009971   010531   010606   011645   012998   010466   009893   008949   008666                                      
840000100210016 00070 4115001LIMITE DROME        0000000D 994               0050740LAPALUD             0010500005786005786840000202326000250030390      005336         004382   004782   004923   005303   005422   005739   006975   006434   005535   005124   004791   004589               150046301         140046611         130046151         120042681         110046331 1877    000000   003473   003790   004846   005327   005545   006345   006461   005420   005114   004663   004533                                      
840000100110016 00070 4115001LIMITE DROME        0000000D 994               0050740LAPALUD             0010500005786005786840000202326000250030390      005310         004217   004610   004830   005186   005546   005569   006456   007511   005487   005109   004728   004421               150049031         140051921         130051411         120049161         110052131 2057    004250   004381   004683   005125   005204   005061   005300   006537   005046   004779   004286   004133                                      
830650200310016 05700 111 431LA CRAU             0030000HYERES              0070160LA CRAU             00604550041600041608400002023          0193      000000                                                                                                                                 150000001         140592361         130586501         120586501         110586501                                                                                                                                                        
830650200210016 05700 111 431LA CRAU             0030000HYERES              0070160LA CRAU             00604550041600041608400002023          0193      000000                                                                                                                                 150000001         140291341         130288461         120288461         110288461                                                                                                                                                        
830650200110016 05700 111 431LA CRAU             0030000HYERES              0070160LA CRAU             00604550041600041608400002023          0193      000000                                                                                                                                 150000001         140301021         130298041         120298041         110298041                                                                                                                                                        
830650100310016 05700 111 131LA GARDE            0000000LA CRAU             0030000LA BASTIDE          00009400030000030008400002023          0290      000000                                                                                                                                 150000001         140580601         130574861         120574861         110574861                                                                                                                                                        
830650100210016 05700 111 131LA GARDE            0000000LA CRAU             0030000LA BASTIDE          00009400030000030008400002023          0290      000000                                                                                                                                 150000001         140285851         130283021         120283021         110283021                                                                                                                                                        
830650100110016 05700 111 131LA GARDE            0000000LA CRAU             0030000LA BASTIDE          00009400030000030008400002023          0290      000000                                                                                                                                 150000001         140294751         130291841         120291841         110291841                                                                                                                                                        
830645500310016 00570 1110421PIERRE RONDE        0060655LA FARLEDE          0080700LA FARLEDE          0070875002170002170840000202300000000001287      000000                                                                                                                                 150000001         140714821         130707751         120707751         110707751                                                                                                                                                        
830645500210016 00570 1110421PIERRE RONDE        0060655LA FARLEDE          0080700LA FARLEDE          0070875002170002170840000202300000000000290      000000                                                                                                                                 150000001         140342521         130339131         120339131         110339131                                                                                                                                                        
830645500110016 00570 1110421PIERRE RONDE        0060655LA FARLEDE          0080700LA FARLEDE          0070875002170002170840000202300000000001287      000000                                                                                                                                 150000001         140372301         130368621         120368621         110368621                                                                                                                                                        
830645490310016 00570 1110441LA BIGUE            0040865PIERRE RONDE        0060655LA GARDE            0050966001773001773840000202300000000000189      000000                                                                                                                                 150000001         140867471         130858891         120858891         110858891                                                                                                                                                        
830645490210016 00570 1110441LA BIGUE            0040865PIERRE RONDE        0060655LA GARDE            0050966001773001773840000202300000000000189      000000                                                                                                                                 150000001         140382731         130378951         120378951         110378951                                                                                                                                                        
830645490110016 00570 1110441LA BIGUE            0040865PIERRE RONDE        0060655LA GARDE            0050966001773001773840000202300000000000189      000000                                                                                                                                 150000001         140484731         130479941         120479941         110479941                                                                                                                                                        
830645400310016 00570 1110431LES FOURCHES        0030785LA BIGUE            0040865LES FOURCHES        0040140001079001079840000202300000000001287      000000                                                                                                                                 150000001         140940891         130931581         120931581         110931581                                                                                                                                                        
830645400210016 00570 1110431LES FOURCHES        0030785LA BIGUE            0040865LES FOURCHES        0040140001079001079840000202300000000000290      000000                                                                                                                                 150000001         140457721         130453191         120453191         110453191                                                                                                                                                        
830645400110016 00570 1110431LES FOURCHES        0030785LA BIGUE            0040865LES FOURCHES        0040140001079001079840000202300000000001287      000000                                                                                                                                 150000001         140483171         130478391         120478391         110478391                                                                                                                                                        
830645200310016 00570 1110431TOMBADOU            0020565LES FOURCHES        0030785LA COUPIANE         0030125001217001217840000202300064530031287      000000                                                                                                                                 150000001         141162021         131150521         121150521         111150521                                                                                                                                                        
830645200210016 00570 111 431TOMBADOU            0020565LES FOURCHES        0030785LA COUPIANE         00301250012170012178400002023   64530020290      000000                                                                                                                                 150000001         140573861         130568181         120568181         110568181                                                                                                                                                        
830645200110016 00570 1110431TOMBADOU            0020565LES FOURCHES        0030785LA COUPIANE         0030125001217001217840000202300064530011287      000000                                                                                                                                 150000001         140588161         130582341         120582341         110582341                                                                                                                                                        
830645100310016 00570 1110431TOULON              0000000TOMBADOU            0020565LA PALASSE          0000793002569002569840000202300000000001287      000000                                                                                                                                 150000001         141053041         131042621         121042621         111042621                                                                                                                                                        
830645100210016 00570 1110431TOULON              0000000TOMBADOU            0020565LA PALASSE          0000793002569002569840000202300000000001287      000000                                                                                                                                 150000001         140539241         130533911         120533911         110533911                                                                                                                                                        
830645100110016 00570 1110431TOULON              0000000TOMBADOU            0020565LA PALASSE          0000793002569002569840000202300000000001287      000000                                                                                                                                 150000001         140513791         130508711         120508711         110508711                                                                                                                                                        
830645011210016 00500 1155031BONRENCONTRE        0690449ENTREE EST          0720811ACCES-EST-M         0720811003413000000840000202300000000000205      000000                                                                                                                                 150000001         140297691         130294751         120294751         110294751                                                                                                                                                        
830616600310016 00500 1150441BON RENCONTRE       0680700VILLEVIEILLE TOULON 0690449BON RENCONTRE       0680765000639000639840000202300061660031287      000000                                                                                                                                 150000001         140628741         130622521         120622521         110622521                                                                                                                                                        
830616600210016 00500 1110441BON RENCONTRE       0680700VILLEVIEILLE TOULON 0690449BON RENCONTRE       0680765000639000639840000202300061660020290      000000                                                                                                                                 150000001         140151141         130149651         120149651         110149651                                                                                                                                                        
830616600110016 00500 1110441BON RENCONTRE       0680700VILLEVIEILLE TOULON 0690449BON RENCONTRE       0680765000639000639840000202300061660011287      000000                                                                                                                                 150000001         140477591         130472871         120472871         110472871                                                                                                                                                        
830616502310016 00500 1110441PONT DES GAUX       0000000BON RENCONTRE       0680700TOULON OUEST        0670776001085001085840000202300000000000290      000000                                                                                                                                 150000001         141038291         131028011         121028011         111028011                                                                                                                                                        
830616502210016 00500 1110441PONT DES GAUX       0000000BON RENCONTRE       0680700TOULON OUEST        0670776001105001085840000202300000000000290      000000                                                                                                                                 150000001         140519541         130514401         120514401         110514401                                                                                                                                                        
830616502110016 00500 1150441PONT DES GAUX       0000000BON RENCONTRE       0680700TOULON OUEST        0670776001085001085840000202300000000000290      000000                                                                                                                                 150000001         140518741         130513611         120513611         110513611                                                                                                                                                        
830616500310016 00500 1110421LA BEAUCAIRE        0660067PONT DES GAUX       0670634LA BEAUCAIRE        0660750001567001567840000202300000000001287      000000                                                                                                                                 150000001         140973211         130963581         120963581         110963581                                                                                                                                                        
830616500210016 00500 1120421LA BEAUCAIRE        0660067PONT DES GAUX       0670634LA BEAUCAIRE        0660750001567001567840000202300000000000290      000000                                                                                                                                 150000001         140538341         130533011         120533011         110533011                                                                                                                                                        
830616500110016 00500 1110421LA BEAUCAIRE        0660067PONT DES GAUX       0670634LA BEAUCAIRE        0660750001567001567840000202300000000001287      000000                                                                                                                                 150000001         140434871         130430571         120430571         110430571                                                                                                                                                        
830004100210016 10500 4155001VILLEVIEILLE TOULON 0000000ENTREE EST          0010300ACCES-EST-F         0010300001300000000840000202300000000000105      000000                                                                                                                                 150000001         140000001         130000001         120000001         110000001                                                                                                                                                        
830004100110016 10500 4853001RN 8                0000000A 57 0+0            0010300TOULON              0000500001300000000830616600100000000000401      000000                                                                                                                                 150000008         140000008         130000008         120000008         110000008                                                                                                                                                        
830002799310016 00980 4856001A 570 HYERES        0000000EB10 HYERES         0100701HYERES OUEST        0100000001100001100830650200300000000000295      000000                                                                                                                                 150000008         140363548         130359958         120359958         110359958                                                                                                                                                        
480002200310016 01060 4812001LIMITE GARD         0000000INTER.D984-JALCRESTE0221003LE COLLET DE DEZE   0100800022038020321300003500300000000001287      002543                                                                                                                                 150025488         140025308         130025058         120025168         110025168                                                                                                                                                        
380003800310016 00850 4113001VIZILLE             0560310LIMITE HAUTES-ALPES 1030997LAFFREY             0730600050574050574300003500305000090010907      009273    0                                                                                                                            150094641    0    140097801    0    130096841    0    120096841    0    110096841    0                                                                                                                                                   
380003800210016 00850 4113001VIZILLE             0560310LIMITE HAUTES-ALPES 1030997LAFFREY             0730600050574050574300003500305000090010907      004990 0300                                                                                                                            150051151    0    140049111    0    130048631    0    120048631    0    110048631    0                                                                                                                                                   
380003800110016 00850 4113001VIZILLE             0560310LIMITE HAUTES-ALPES 1030997LAFFREY             0730600050574050574300003500305000090010907      004283    0                                                                                                                            150043491    0    140048691    0    130048211    0    120048211    0    110048211    0                                                                                                                                                   
340003702310016 01130 4813001VENDARGUES D65      0160150VENDARGUES LIMITE   0160912VENDARGUES LIMITE   0160700002797002197340003600300000000000180      022378                                                                                                                                 150240368         140237038         130234698         120239278         110259038                                                                                                                                                        
340003701310016 01130 4813001VENDARGUES A9       0150450VENDARGUES D65      0160150VENDARGUES A9 D65   0160000002797002197340003600300000000000180      041926                                                                                                                                 150450318         140444078         130439688         120448268         110485278                                                                                                                                                        
340003601110016 01130 4113001BAILLARGUES         0140750VENDARGUES A9       0150450BAILLARGUES         0140948002797002797340003600300000000000616      016320         033103   034186   029854   004710   004247   007145   013109   013002   015014   014298   013968   013566               150290671    0    140000001    0    130000001    0    120000001    0    110000001    0             041660   037758   040360   039749   026176   024629   020955   021127   021497   020265   026512                                      
340003600310016 01130 4113001EB 20 LUNEL         0040630BAILLARGUES         0140750VALERGUES           0090000010811008088340003600300000000000490      013438         012910   013423   013276   013605   013631   013824   014060   013721   013910   013213   013095   012615               150144331    0    140142331    0    130140931    7    120143681    0    110155541    7                                                                                                                                                   
340003600210016 01130 4113001EB 20 LUNEL         0040630BAILLARGUES         0140750VALERGUES           0090000010811008088340003600300000000000490      006700         006470   006675   006621   006831   006780   006878   006916   006929   007015   006562   006509   006232               150071981    0    140070731    0    130070031    7    120073411    0    110086561    7                                                                                                                                                   
340003600110016 01130 4113001EB 20 LUNEL         0040630BAILLARGUES         0140750VALERGUES           0090000010811008088340003600300000000000490      006738         006440   006748   006655   006774   006851   006946   007144   006792   006895   006651   006586   006383               150072351    0    140071601    0    130070901    7    120070271    0    110068981    7                                                                                                                                                   
340003300310016 01130 4113001LIMITE GARD         0000000EB10 LUNEL          0010670LUNEL               0010200001754001754340003600330000480030490      026623         022429   023652   024776   026475   026655   027953   029640   030264   029027   028654            023256               150257231         140245681         130242031         120241441         110238651    8    022422   022871   024473   026249   027145   028139   029461   030255   025977   024623   023697   023118                                      
340003300210016 01130 4113001LIMITE GARD         0000000EB10 LUNEL          0010670LUNEL               0010200001754001754340003600330000480030490      013395         011362   011970   012484   013350   013347   013992   014640   015306   014590   014576            011698               150129421         140123371         130121651         120120891         110120871    8    011363   011583   012367   013199   013727   014083   014581   015047   013170   012378   012043   011651                                      
340003300110016 01130 4113001LIMITE GARD         0000000EB10 LUNEL          0010670LUNEL               0010200001754001754340003600330000480030490      013228         011067   011682   012292   013125   013308   013961   015000   014958   014437   014078            011558               150127811         140122311         130120381         120120551         110117781    8    011059   011288   012106   013050   013418   014056   014880   015208   012807   012245   011654   011467                                      
300004801310016 01130 4812001RN 572              0490420LIMITE HERAULT      0490798PONT / VIDOURLE     0490798000378000378300004700300000000000189      017101                                                                                                                                 150156208         140151788         130000008         120000008         110000008                                                                                                                                                        
300004800310016 01130 4812001A9 RN 313           0470480RN 572              0490420GALLARGUES          0490000001931001931300004700300000010030589      018371                                                                                                                                 150167808         140163068         130000008         120000008         110000008                                                                                                                                                        
300004700310016 01130 4112001RD 139 VERGEZE      0420395A.9 RN 313          0470480CODOGNAN            0430540005085004465300004700300000000000589      012457         011015   011407   011262   011865   012343   022858   012544   013060   012396   010530   010292   010086               150113781         140110561         130000001         120000001         110000001         009494   009353   010258   011090   011867   012230   012532   013023   012115   011860   011197   011361                                      
300004700210016 01130 4112001A.9 RN 313          0420395RD 139 VERGEZE      0470480CODOGNAN            0430540005085004465300004700300000000000589      007381         007528   007685   007445   007881   008083   012029   008121   008164   006776   005114   004986   004846               150075001         140057891         130000001         120000001         110000001         006337   006112   006785   007400   007871   008019   008118   008099   007948   007946   007475   007787                                      
300004700110016 01130 4112001RD 139 VERGEZE      0420395A.9 RN 313          0470480CODOGNAN            0430540005085004465300004700300000000000589      005076         003487   003722   003817   003984   004260   010829   004423   004896   005620   005416   005306   005240               150038781         140052671         130000001         120000001         110000001         003157   003241   003473   003690   003996   004211   004414   004924   004167   003914   003722   003574                                      
300004601310016 01130 4113001RD 14 BERNIS        0360391RD 139 VERGEZE      0420395BERNIS              0360480006662006662300004700300000000000589      017557         015534   016623   017176   017778   017880   018686   019318   019126   018093   016800   016496   017142               150177021         140172321         130000001         120000001         110000001         015794   015938   017884   019607   019409   019654   018649   018915   017526   016832   016192   015918                                      
300004601210016 01130 4113001RD 139 VERGEZE      0360391RD 14 BERNIS        0420395BERNIS              0360480006662006662300004700300000000000589      008882         007820   008393   008680   008981   009046   009472   009716   009769   009199   008501   008333   008654               150089271         140085901         130000001         120000001         110000001         007880   007930   008868   009850   009844   009949   009443   009681   008900   008525   008175   008016                                      
300004601110016 01130 4113001RD 14 BERNIS        0360391RD 139 VERGEZE      0420395BERNIS              0360480006662006662300004700300000000000589      008675         007714   008230   008496   008797   008834   009214   009602   009357   008894   008299   008163   008488               150087751         140086421         130000001         120000001         110000001         007914   008008   009016   009757   009565   009705   009206   009234   008626   008307   008017   007902                                      
300004600310016 01130 4812001EB20 NIMES          0320195RD 14 BERNIS        0360391DEVIATION DE MILHAUD0330000005034005034300004601300000000000589      022196                                                                                                                                 150223808         140217868         130000008         120000008         110000008                                                                                                                                                        
300004599310016 01130 4857001A9 N106             0290820EB 20 NIMES         0320195NIMES PERIPH SUD OUE0310000002408000000300004601300000000000301      034269                                                                                                                                 150345538         140336368         130000008         120000008         110000008                                                                                                                                                        
300004598310016 01130 4857001RN 86 BD SUD        0260640A9 RN 106           0290820NIMES  PERIPHERIQUE 0280760003143000000300004601300000000000589      034530                                                                                                                                 150348168    0    140338928    0    130000008    0    120000008    0    110000008    0                                                                                                                                                   
300004598210016 01130 4157001RN 86 BD SUD        0260040A9 RN 106           0290820NIMES PERIPHERIQUE  0280760003143000000300004601300000000000589      000000                                                                                                                                 150000001         140000001         130000001         120000001         110000001                                                                                                                                                        
300004598110016 01130 4157001RN 86 BD SUD        0260040A9 RN 106           0290820NIMES PERIPHERIQUE  0280760003143000000300004601300000000000589      000000                                                                                                                                 150000001         140000001         130000001         120000001         110000001                                                                                                                                                        
300004597310016 01130 4852001EB 10 NIMES         0240280RN 86 BD SUD        0260640NIMES ENTREE SUD    0250000002405000000300004601300000000000301      034269                                                                                                                                 150345538         140336368         130000008         120000008         110000008                                                                                                                                                        
300003500310016 01060 4112001LA GRAND COMBE      0570400LIMITE LOZERE       0660871SAINTE CECILE       0650200009457006617300004601300000220030290      003056         002190   002323   002534   002872   003138   003218   004157   004662   003268   003191   002583   002483               150030611         140030391         130000001         120000001         110000001         002111   002169   002445   002933   003315   003266   004104   004761   003362   003203   002536   002439                                      
300003500210016 01060 4112001LIMITE LOZERE       0570400LA GRAND COMBE      0660871SAINTE CECILE       0650200009457006617300004601300000220030290      001671         001217   001281   001385   001546   001725   001751   002278   002509   001785   001744   001435   001370               150016851         140016561         130000001         120000001         110000001         001173   001201   001353   001618   001847   001806   002275   002585   001848   001733   001406   001324                                      
300003500110016 01060 4112001LA GRAND COMBE      0570400LIMITE LOZERE       0660871SAINTE CECILE       0650200009457006617300004601300000220030290      001385         000973   001042   001149   001326   001413   001467   001879   002153   001483   001447   001148   001113               150013761         140013831         130000001         120000001         110000001         000938   000968   001092   001315   001468   001460   001829   002176   001514   001470   001130   001115                                      
300003400310016 01060 4112001EB20 ALES           0470000LA GRAND COMBE      0570400ST_MARTIN_VALG      0490800010324008844300004601300000000000290      010790         009784   010005   010496   010720   010896   011380   011231   011319   011199   010989   010497   010934               150106781         140104401    8    130000001         120000001         110000001         009642   009637   010261   010711   010870   011149   011247   011219   011333   011124   010528   010338                                      
300003400210016 01060 4112001LA GRAND COMBE      0470000EB20 ALES           0570400ST_MARTIN_VALG      0490800010324008844300004601300000000000290      005422         004911   005022   005273   005392   005479   005710   005633   005703   005635   005531   005251   005506               150053561         140052421    8    130000001         120000001         110000001         004842   004836   005147   005372   005445   005599   005625   005632   005686   005593   005266   005191                                      
300003400110016 01060 4112001EB20 ALES           0470000LA GRAND COMBE      0570400ST_MARTIN_VALG      0490800010324008844300004601300000000000290      005368         004873   004983   005223   005328   005417   005670   005598   005616   005564   005458   005246   005428               150053221         140051981    8    130000001         120000001         110000001         004800   004801   005114   005339   005425   005550   005622   005587   005647   005531   005262   005147                                      
300003300310016 01060 4112001RD 982 PONT DE NERS 0270300EB10 ALES           0390707SAINT HILAIRE       0380700012257010167300004601300000000000589      000000                                                                                                                                 150000001         140000001         130000001         120000001         110000001                                                                                                                                                        
300003300210016 0106004110201RD 982 PONT DE NERS 0270300EB 10 ALES          0390707SAINT HILAIRE       0380700012257010167300004601300000000000404      000000                                                                                                                                 150000001         140000001         130000001         120000001         110000001                                                                                                                                                        
300003300110016 0106004110201RD 982 PONT DE NERS 0270300EB 10 ALES          0390707SAINT HILAIRE       0380700012257010167300004601300000000000404      000000                                                                                                                                 150000001         140000001         130000001         120000001         110000001                                                                                                                                                        
300003201310016 01060 4110101RD 8 BRIGNON        0200770RD 982 PONT DE NERS 0270300BOUCOIRAN           0270000006332004632300004601300000000000301      090352         047608   093291   059562   083536   087951   113813   129418   104700   092656   086204   082938   103101               150379411         140000001         130000001         120000001         110000001                           037440   038777   039712   039090   039657   040330   040189   040157   029361   034554                                      
300003201210016 0106004110101RD 8 BRIGNON        0200730RD 982 PONT DE NERS 0270300BOUCOIRAN           0270000006332004632300004601300000000000404      071387         030006   075810   041203   064558   069299   094692   109881   085049   072704   066946   063517   083581               150182511         140000001         130000001         120000001         110000001                           018492   018967   019771   019084   019331   020130   019906   019593   011073   016034                                      
300003201110016 0106004110101RD 8 BRIGNON        0200730RD 982 PONT DE NERS 0270300BOUCOIRAN           0270000006332004632300004601300000000000404      018965         017602   017481   018359   018978   018652   019121   019537   019651   019952   019258   019421   019520               150196901         140000001         130000001         120000001         110000001                           018948   019810   019941   020006   020326   020200   020283   020564   018288   018520                                      
300003200310016 01060 4110101GIRATOIRE           0140430RD 8 BRIGNON        0200770ST GENIES           0170748005385005385300004601300000000000589      018720         016175   017262   017964   018829   018797   019546   020671   020587   019511   019337   018196   017712               150182931    0    140174661    0    130000001    0    120000001    0    110000001    0    015687   016450   017335   018636   018876   019361   019865   019806   019205   019336   018051   016800                                      
300003200210016 01060 4110101GIRATOIRE           0140430RD 8 BRIGNON        0200770ST GENIES           0170748005385005385300004601300000000000589      009333         008068   008607   008929   009385   009383   009731   010280   010388   009734   009592   009101   008768               150090971    0    140086991    0    130000001    0    120000001    0    110000001    0    007775   008131   008597   009229   009429   009628   009860   009963   009587   009552   009029   008329                                      
300003200110016 01060 4110101GIRATOIRE           0140430RD 8 BRIGNON        0200770ST GENIES           0170748005385005385300004601300000000000589      009387         008107   008655   009035   009444   009414   009815   010391   010199   009777   009745   009095   008944               150091961    0    140087671    0    130000001    0    120000001    0    110000001    0    007912   008319   008738   009407   009447   009733   010005   009843   009618   009784   009022   008471                                      
300003000310016 01060 4112001RD 907              0050322RD 22 LA CALMETTE   0130500NIMES NORD          0050370008022008022300004601300000000000589      029379         026730   027937   028942   029876   029171   030679   031231   030594   030433   029902   028580   028441               150312351         140280601         130000001         120000001         110000001         025983   026614   027598   024903   023659   038522   041078   038801   039526   032206   027983   027692                                      
300003000210016 01060 4112001RD 907              0050322RD 22 LA CALMETTE   0130500NIMES NORD          0050370008022008022300004601300000000000304      014201         012892   013486   013912   014422   014167   014846   015180   014982   014677   014417   013758   013653               150137861         140136571         130000001         120000001         110000001         012564   012824   013188   012865   014076   014684   015115   014404   014424   014293   013527   013381                                      
300003000110016 01060 4112001RD 907              0050300RD 22 LA CALMETTE   0130322NIMES NORD          0050370008022008022300004601300000000000304      015178         013838   014451   015030   015454   015004   015833   016051   015612   015756   015485   014822   014788               150174491         140144031         130000001         120000001         110000001         013419   013790   014410   012038   009583   023838   025963   024397   025102   017913   014456   014311                                      
300002700310016 01000 4810201RN580               0150900LIMITE VAUCLUSE     0190640LES ANGLES          0160475003732003732000000000000000000000616      041007    0                                                                                                                            150393918    0    140000008    0    130000008    0    120000008    0    110000008    0                                                                                                                                                   
300002700210016 01000 4810201RN580               0150900LIMITE VAUCLUSE     0190640LES ANGLES          0160475003732003732000000000000000000000616      020533    0                                                                                                                            150195488    0    140000008    0    130000008    0    120000008    0    110000008    0                                                                                                                                                   
300002700110016 01000 4110201RN580               0150900LIMITE VAUCLUSE     0190640LES ANGLES          0160475003732003732000000000000000000000616      020474    0                                                                                                                            150198431    0    140000001    0    130000001    0    120000001    0    110000001    0                                                                                                                                                   
300002600310016 01000 4112001RD 976              0070653RN 580              0150900ROCHEFORT           0140500008238008238000000000000000000000589      020855         017955   018313   019849   020987   020858   022233   025104   023421   021685   021656   019006   019047               150203401         140202581         130000001         120000001         110000001         017784   018185   019255   020378   021456   022249   022939   023292   021201   019217   018884   019076                                      
300002600210016 01000 4112001RD 580              0070653RD 976              0150900ROCHEFORT           0140500008238008238000000000000000000000589      010490         009001   009257   010034   010567   010466   011211   012692   011646   010885   010824   009580   009651               150102361         140101901         130000001         120000001         110000001         008929   009175   009667   010296   010772   011190   011589   011612   010633   009733   009503   009650                                      
300002600110016 01000 4112001RD 976              0070653RN 580              0150900ROCHEFORT           0140500008238008238000000000000000000000589      010365         008954   009056   009815   010420   010392   011022   012412   011775   010800   010832   009426   009396               150101041         140100681         130000001         120000001         110000001         008855   009010   009588   010082   010684   011059   011350   011680   010568   009484   009381   009426                                      
300002500310016 01000 4112001A 9 RD 192          0020590RD 976              0070653ESTEZARGUES         0060800005056005056000000000000000000000589      019647         016719   016572   018446   019567   019747   021076   024204   022859   020299   019760   018996   017356               150191301         140000001         130000001         120000001         110000001         016189   016389   017751   019575   018851   020691   023167   021915   020071   019455   017241   018029                                      
300002500210016 01000 4112001RD 976              0020590A9 RD 192           0070653ESTEZARGUES         0060800005056005056000000000000000000000589      009830         008383   008333   009246   009792   009848   010560   012183   011342   010118   009850   009489   008737               150095771         140094711         130000001         120000001         110000001         008087   008242   008853   009840   009443   010362   011690   010943   009999   009700   008625   009026                                      
300002500110016 01000 4112001A 9 RD 192          0020590RD 976              0070653ESTEZARGUES         0060800005056005056000000000000000000000589      009817         008336   008239   009200   009775   009899   010516   012021   011517   010181   009910   009507   008619               150095531         140000001         130000001         120000001         110000001         008102   008147   008898   009735   009408   010329   011477   010972   010072   009755   008616   009003                                      
300000700310016 00860 4142001EB 20 PONT ST ESPRIT0040991RD 980              0120860BAGNOLS NORD        0120857007907006709000000000000000000000589      017820         016064   016775   017574   018297   018224   018664   019335   019539   019043   017128   016634   016545               150179151         140177511         130000001         120000001         110000001         015979   016393   017428   018060   018607   019246   019543   019888   018251   017847   016873   016743                                      
300000700210016 00860 4142001RD 980              0040991EB 10 PONT ST ESPRIT0120860BAGNOLS NORD        0120630007907006709000000000000000000000589      008994         008102   008450   008794   009192   009194   009349   009722   010073   009699   008648   008418   008274               150090751         140089921         130000001         120000001         110000001         008078   008253   008792   009140   009479   009777   009768   010251   009292   009067   008542   008399                                      
300000700110016 00860 4142001EB 20 PONT ST ESPRIT0040991RD 980              0120860BAGNOLS NORD        0120630007907006709000000000000000000000589      008826         007962   008325   008780   009105   009030   009315   009613   009466   009344   008480   008216   008271               150088401         140087591         130000001         120000001         110000001         007901   008140   008636   008920   009128   009469   009775   009637   008959   008780   008331   008344                                      
300000300310016 00860 4842001EB 10 PT ST ESPRIT  0020063EB 20 PT ST ESPRIT  0040991AGGLO PT ST ESPRIT  0020100002961000000300000700300000000000589      008418                                                                                                                                 150084638         140083868         130000008         120000008         110000008                                                                                                                                                        
130645000310016 05170 1110231A 51                0000000A7                  0001160LIAISON A51 A7BN    0000000001160001160300000700300000000000589      000000                                                                                                                                 150000001         140419561         130415411         120415411         110415411                                                                                                                                                        
130645000210016 05170 1110231A 51                0000000A7                  0001160LIAISON A51 A7BN    0000000001160001160300000700300000000000589      000000                                                                                                                                 150000001         140197611         130195661         120195661         110195661                                                                                                                                                        
130645000110016 05170 1110231A 51                0000000A7                  0001160LIAISON A51 A7BN    0000000001160001160300000700300000000000589      000000                                                                                                                                 150000001         140221941         130219751         120219751         110219751                                                                                                                                                        
130644000310016 05160 1110231A 51                0000000A8                  0000915LIAISON A51 A8      0000000000915000915300000700300000000000589      000000                                                                                                                                 150000001         140000001         130000001         120000001         110000001                                                                                                                                                        
130644000210016 05160 1110231A 51                0000000A8                  0000915LIAISON A51 A8      0000000000915000915300000700300000000000589      000000                                                                                                                                 150000001         140000001         130000001         120000001         110000001                                                                                                                                                        
130644000110016 05160 1110231A 51                0000000A8                  0000915LIAISON A51 A8      0000000000915000915300000700300000000000589      000000                                                                                                                                 150000001         140000001         130000001         120000001         110000001                                                                                                                                                        
130643000310016 05150 1110231A 51                0000000D6                  0010242LIAISON A51 D6      0000000001197001197300000700300000000000589      000000                                                                                                                                 150000001         140485721         130480921         120480921         110480921                                                                                                                                                        
130643000210016 05150 1110231A 51                0000000D6                  0010242LIAISON A51 D6      0000000001197001197300000700300000000000589      000000                                                                                                                                 150000001         140241781         130239391         120239391         110239391                                                                                                                                                        
130643000110016 05150 1110231A 51                0000000D6                  0010242LIAISON A51 D6      0000000001197001197300000700300000000000589      000000                                                                                                                                 150000001         140243941         130241531         120241531         110241531                                                                                                                                                        
130642000310016 05520 1110231A 55                0000000A7                  0001620LIAISON A7BN A55    0000000001620001620300000700300000000000589      000000                                                                                                                                 150000001         140356231         130352711         120352711         110352711                                                                                                                                                        
130642000210016 05520 1110231A 55                0000000A7                  0001620LIAISON A7BN A55    0000000001620001620300000700300000000000589      000000                                                                                                                                 150000001         140151701         130150201         120150201         110150201                                                                                                                                                        
130642000110016 05520 1110231A 55                0000000A7                  0001620LIAISON A7BN A55    0000000001620001620300000700300000000000589      000000                                                                                                                                 150000001         140204531         130202511         120202511         110202511                                                                                                                                                        
130641000310016 05510 1110231A 55                0000000A7                  0001177LIAISON A7N A55L    0000000001177001177300000700300000000000589      000000                                                                                                                                 150000001         140000001         130000001         120000001         110000001                                                                                                                                                        
130641000210016 05510 1110231A 55                0000000A7                  0001177LIAISON A7N A55L    0000000001177001177300000700300000000000589      000000                                                                                                                                 150000001         140000001         130000001         120000001         110000001                                                                                                                                                        
130641000110016 05510 1110231A 55                0000000A7                  0001177LIAISON A7N A55L    0000000001177001177300000700300000000000589      000000                                                                                                                                 150000001         140188341         130186481         120186481         110186481                                                                                                                                                        
130640000510016 05570 1153031A 55                0000000ARENC               0010500LIAISON A7 A55      0000000001500001500300000700300000000000589      000000                                                                                                                                 150000001         140159461         130157891         120157891         110157891                                                                                                                                                        
130636700310016 00550 1810241MARTIGUES NORD      0370980RN 568.             0381061MARTIGUES NORD      0380500001080001080130007000300000000000589      068268                                                                                                                                 150665008    0    140750028    0    130742608    0    120742608    0    110742608    0                                                                                                                                                   
130636700210016 00550 1810241MARTIGUES NORD      0370980RN 568.             0381061MARTIGUES NORD      0380500001080001080000000000000000000000589      000000                                                                                                                                 150000008         140342928         130339538         120339538         110339538                                                                                                                                                        
130636700110016 00550 1810241MARTIGUES NORD      0370980RN 568.             0381061MARTIGUES NORD      0380500001080001080000000000000000000000589      000000                                                                                                                                 150000008         140407108         130403078         120403078         110403078                                                                                                                                                        
130636600310016 00550 1810241MARTIGUES SUD       0360400MARTIGUES NORD      0370980MARTIGUES SUD       0370500001584001584130007000300000000000589      071596                                                                                                                                 150697428    0    140786588    0    130778808    0    120778808    0    110778808    0                                                                                                                                                   
130636600210016 00550 1810241MARTIGUES SUD       0360400MARTIGUES NORD      0370980MARTIGUES SUD       0370000001584001584000000000000000000000589      000000                                                                                                                                 150000008         140400778         130396818         120396818         110396818                                                                                                                                                        
130636600110016 00550 1810241MARTIGUES SUD       0360400MARTIGUES NORD      0370980MARTIGUES SUD       0370000001584001584000000000000000000000589      000000                                                                                                                                 150000008         140385808         130381998         120381998         110381998                                                                                                                                                        
130636500310016 00550 1810241MARTIGUES CENTRE    0330190MARTIGUES SUD       0360400MARTIGUES CENTRE    0350100003280003280000000000000000000000589      000000                                                                                                                                 150000008         140560438         130554898         120554898         110554898                                                                                                                                                        
130636500210016 00550 181 241MARTIGUES CENTRE    0330190MARTIGUES SUD       0360400MARTIGUES CENTRE    03501000032800032800000000000          0589      000000                                                                                                                                 150000008         140298018         130295068         120295068         110295068                                                                                                                                                        
130636500110016 00550 181 241MARTIGUES CENTRE    0330190MARTIGUES SUD       0360400MARTIGUES CENTRE    03501000032800032800000000000          0589      000000                                                                                                                                 150000008         140262428         130259838         120259838         110259838                                                                                                                                                        
130636400310016 00550 1810241LA MEDE OUEST       0310650MARTIGUES CENTRE    0330190LA MEDE OUEST       0320000001471001471000000000000000000000589      000000                                                                                                                                 150000008         140694928         130688048         120688048         110688048                                                                                                                                                        
130636400210016 00550 1810241LA MEDE OUEST       0310650MARTIGUES CENTRE    0330190LA MEDE OUEST       0320000001471001471000000000000000000000589      000000                                                                                                                                 150000008         140345588         130342168         120342168         110342168                                                                                                                                                        
130636400110016 00550 1810241LA MEDE OUEST       0310650MARTIGUES CENTRE    0330190LA MEDE OUEST       0320000001471001471000000000000000000000589      000000                                                                                                                                 150000008         140349338         130345888         120345888         110345888                                                                                                                                                        
130636300310016 00550 1810241LA MEDE EST         0290400LA MEDE OUEST       0310650LA MEDE EST         0300000002251002251000000000000000000000589      000000                                                                                                                                 150000008         140636518         130630218         120630218         110630218                                                                                                                                                        
130636300210016 00550 1810241LA MEDE EST         0290400LA MEDE OUEST       0310650LA MEDE EST         0300000002251002251000000000000000000000589      000000                                                                                                                                 150000008         140342278         130338898         120338898         110338898                                                                                                                                                        
130636300110016 00550 1810241LA MEDE EST         0290400LA MEDE OUEST       0310650LA MEDE EST         0300000002251002251000000000000000000000589      000000                                                                                                                                 150000008         140294238         130291328         120291328         110291328                                                                                                                                                        
130636200310016 00550 1810241CARRY               0240130LA MEDE EST         0290400CARRY               0250000005274005274000000000000000000000589      000000                                                                                                                                 150000008         140508088         130503058         120503058         110503058                                                                                                                                                        
130636200210016 00550 1810241CARRY               0240130LA MEDE EST         0290400CARRY               0250000005274005274000000000000000000000589      000000                                                                                                                                 150000008         140252868         130250368         120250368         110250368                                                                                                                                                        
130636200110016 00550 1810241CARRY               0240130LA MEDE EST         0290400CARRY               0250000005274005274000000000000000000000589      000000                                                                                                                                 150000008         140255218         130252698         120252698         110252698                                                                                                                                                        
130636100310016 00550 1810241LES PIELETTES       0200495CARRY               0240130LES PIELETTES       0220000003421003421000000000000000000000589      000000                                                                                                                                 150000008         140589008         130583178         120583178         110583178                                                                                                                                                        
130636100210016 00550 1810241LES PIELETTES       0200495CARRY               0240130LES PIELETTES       0220000003421003421000000000000000000000589      000000                                                                                                                                 150000008         140298188         130295238         120295238         110295238                                                                                                                                                        
130636100110016 00550 1810241LES PIELETTES       0200495CARRY               0240130LES PIELETTES       0220000003421003421000000000000000000000589      000000                                                                                                                                 150000008         140290818         130287948         120287948         110287948                                                                                                                                                        
130636001310016 00550 1810241JONCTION A7 NORD    0140000LES PIELETTES       0200495REBUTY PMV          0160474006078006078130635800300000000000589      066107    0                                                                                                                            150730248    0    140717738    0    130710638    0    120710638    0    110710638    0                                                                                                                                                   
130636001210016 00550 1810241JONCTION A7 NORD    0140000LES PIELETTES       0200495REBUTY PMV          0160474006078006078130635800200000000000589      032889    0                                                                                                                            150363798    0    140367178    0    130363548    0    120363548    0    110363548    0                                                                                                                                                   
130636001110016 00550 1810241JONCTION A7 NORD    0140000LES PIELETTES       0200495REBUTY PMV          0160474006078006078130635800100000000000589      033218    0                                                                                                                            150366458    0    140350568    0    130347098    0    120347098    0    110347098    0                                                                                                                                                   
130636000310016 00550 1810241JONCTION A7 NORD    0140000LES PIELETTES       0200495GIGNAC              0150500006078006078130635800300000000000589      000000                                                                                                                                 150000008         140692878         130686018         120686018         110686018                                                                                                                                                        
130636000210016 00550 1810241JONCTION A7 NORD    0140000LES PIELETTES       0200495GIGNAC              0150500006078006078          00000000000589      000000                                                                                                                                 150000008         140339778         130336418         120336418         110336418                                                                                                                                                        
130636000110016 00550 1810241JONCTION A7 NORD    0140000LES PIELETTES       0200495GIGNAC              0150500006078006078          00000000000589      000000                                                                                                                                 150000008         140353098         130349608         120349608         110349608                                                                                                                                                        
130635901310016 00550 1110231JONCTION A7 SUD     0120880JONCTION A7 NORD    0140000JONCTION A7 SUD NORD0140000001115001115          00000000000589      000000                                                                                                                                 150000001         140193691         130191781         120191781         110191781                                                                                                                                                        
130635901210016 00550 1110231JONCTION A7 SUD     0120880JONCTION A7 NORD    0140000JONCTION A7 SUD NORD0140000001115001115          00000000000589      000000                                                                                                                                 150000001         140117021         130115871         120115871         110115871                                                                                                                                                        
130635901110016 00550 1110231JONCTION A7 SUD     0120880JONCTION A7 NORD    0140000JONCTION A7 SUD NORD0140000001115001115          00000000000589      000000                                                                                                                                 150000001         140076661         130075911         120075911         110075911                                                                                                                                                        
130635900310016 00550 1110231GD LITTORAL         0070150JONCTION A7 SUD     0120880GD LITTORAL         0070279007244007244          00000000000191      000000                                                                                                                                 150000001         140673451         130666791         120666791         110666791                                                                                                                                                        
130635900210016 00550 1110211GD LITTORAL         0070150JONCTION A7 SUD     0120880GD LITTORAL         0070279007244007244          00000000000191      000000                                                                                                                                 150000001         140320921         130317751         120317751         110317751                                                                                                                                                        
130635900110016 00550 1110231GD LITTORAL         0070150JONCTION A7 SUD     0120880GD LITTORAL         0070279007244007244          00000000000191      000000                                                                                                                                 150000001         140352531         130349041         120349041         110349041                                                                                                                                                        
130635800310016 00550 1110231MIRABEAU            0050620GD LITTORAL         0070150VERDURON            0070279007244007244          00000000000191      000000                                                                                                                                 150000001         140580441         130574701         120574701         110574701                                                                                                                                                        
130635800210016 00550 1110211MIRABEAU            0050620GD LITTORAL         0070150VERDURON            0070279007244007244          00000000000191      000000                                                                                                                                 150000001         140318111         130314971         120314971         110314971                                                                                                                                                        
130635800110016 00550 1110231MIRABEAU            0050620GD LITTORAL         0070150VERDURON            0070279007244007244          00000000000191      000000                                                                                                                                 150000001         140262321         130259731         120259731         110259731                                                                                                                                                        
130635600310016 00550 1110231CAP JANET           0040660MIRABEAU            0050620CAP JANET           0050000000960000960          00000000000589      000000                                                                                                                                 150000001         140639891         130633561         120633561         110633561                                                                                                                                                        
130635600210016 00550 1110231CAP JANET           0040660MIRABEAU            0050620CAP JANET           0050000000960000960          00000000000589      000000                                                                                                                                 150000001         140297511         130294571         120294571         110294571                                                                                                                                                        
130635600110016 00550 1110231CAP JANET           0040660MIRABEAU            0050620CAP JANET           0050000000960000960          00000000000589      000000                                                                                                                                 150000001    0    140342371    0    130338991    0    120338991    0    110338991    0                                                                                                                                                   
130635400310016 00550 1110431CAP PINEDE          0030460CAP JANET           0040660CAP PINEDE          0040305001200001200          00000000000589      000000                                                                                                                                 150000001         140510181         130505131         120505131         110505131                                                                                                                                                        
130635400210016 00550 1110431CAP PINEDE          0030460CAP JANET           0040660CAP PINEDE          0040305001200001200          00000000000589      000000                                                                                                                                 150000001    0    140287491    0    130284651    0    120284651    0    110284651    0                                                                                                                                                   
130635400110016 00550 1110431CAP PINEDE          0030460CAP JANET           0040660CAP PINEDE          0040305001200001200          00000000000589      000000                                                                                                                                 150000001         140222681         130220481         120220481         110220481                                                                                                                                                        
130635300310016 00550 1150231ARENC               0020060CAP PINEDE          0030460ARENC               0020800001406001406          00000000000589      000000                                                                                                                                 150000001         140696031         130689141         120689141         110689141                                                                                                                                                        
130635300210016 00550 1110231ARENC               0020060CAP PINEDE          0030460ARENC               0020800001406001406          00000000000589      000000                                                                                                                                 150000001         140267491         130264851         120264851         110264851                                                                                                                                                        
130635300110016 00550 1150231ARENC               0020060CAP PINEDE          0030460ARENC               0020800001406001406          00000000000589      000000                                                                                                                                 150000001    0    140428531    0    130424291    0    120424291    0    110424291    0                                                                                                                                                   
130635200410016 00550 1150231ARENC               0010349JOLIETTE            0020060JOLIETTE.           0020000000462000462          00000000000589      000000                                                                                                                                 150000001         140408321         130404281         120404281         110404281                                                                                                                                                        
130635100510016 00550 1111031PORT                0010000JOLIETTE            0020060JOLIETTE            0010442000160000160          00000000000589      000000                                                                                                                                 150387311    0    140462171    0    130457601    0    120457601    0    110457601    0                                                                                                                                                   
130620900310016 00510 1850231RACCORDEMENT A.8.   0160515AIX-OUEST(Z.A.C.)   0170826RAC.A8-AIX-OUEST ZAC0170000001319001319130620500300000000000589      000000                                                                                                                                 150000008         140901588         130892668         120892668         110892668                                                                                                                                                        
130620900210016 00510 1850231RACCORDEMENT A.8.   0160515AIX-OUEST(Z.A.C.)   0170826RAC.A8-AIX-OUEST ZAC0170000001319001319130620500200000000000589      000000                                                                                                                                 150000008         140509638         130504598         120504598         110504598                                                                                                                                                        
130620900110016 00510 1850231RACCORDEMENT A.8.   0160515AIX-OUEST(Z.A.C.)   0170826RAC.A8-AIX-OUEST ZAC0170000001319001319130620500100000000000589      000000                                                                                                                                 150000008         140391958         130388078         120388078         110388078                                                                                                                                                        
130620800310016 00510 1850231AIX-CENTRE          0150770RACCORDEMENT A.8    0160515AIX-CENTRE          0160200000751000751130620500300000000000589      000000                                                                                                                                 150000008         140794898         130787028         120787028         110787028                                                                                                                                                        
130620800210016 00510 1850231AIX-CENTRE          0150770RACCORDEMENT A.9    0160515AIX-CENTRE          0160200000751000751130620500200000000000189      000000                                                                                                                                 150000008         140433818         130429528         120429528         110429528                                                                                                                                                        
130620800110016 00510 1850231AIX-CENTRE          0150770RACCORDEMENT A.8    0160515AIX-CENTRE          0160200000751000751130620500100000000000589      000000                                                                                                                                 150000008         140361078         130357508         120357508         110357508                                                                                                                                                        
130620700310016 00510 1810441LES MILLES          0140720AIX-CENTRE          0150770LES MILLES          0150000001358001358130620500300000000000589      000000                                                                                                                                 150000008         141105878         131094938         121094938         111094938                                                                                                                                                        
130620700210016 00510 1810441LES MILLES          0140720AIX-CENTRE          0150770LES MILLES          0150000001358001358130620500200000000000589      000000                                                                                                                                 150000008         140592158         130586298         120586298         110586298                                                                                                                                                        
130620700110016 00510 1810441LES MILLES          0140720AIX-CENTRE          0150770LES MILLES          0150000001358001358130620500100000000000589      000000                                                                                                                                 150000008         140513728         130508648         120508648         110508648                                                                                                                                                        
