890003099310016 01510 4812001Auxerre             0330650Auxerre             0341289Auxerre RN151       0330800002775000000890003000300000000000309      005741                                                                                                                                 150059458         140061118         130060488         120000008         110064098                                                                                                                                                        
890003000310016 01510 4112001COURSON             0120000AUXERRE             0330650VALLAN              0310485021650000000890003000300000000000309      005798 1107    005189   005361   005597   006002   005982   006387   006371   006157   006083   005661   005378   005403               150060041 1087    140061711 1077    130061071 1077    120000001         110064711 1157    005312   005539   005663   006349   006264   006630   006641   006298   006167   006022   005525   005618                                      
890003000210016 01510 4112001COURSON             0120000AUXERRE             0330650VALLAN              0310485021650000000890003000300000000000309      002880 1147    002567   002667   002782   002989   002965   003167   003249   002994   003004   002810   002666   002699               150029871 1107    140030601 1097    130030291 1097    120000001         110032221 1187    002635   002760   002799   003189   003105   003282   003387   003071   003038   002997   002755   002817                                      
890003000110016 01510 4112001COURSON             0120000AUXERRE             0330650VALLAN              0310485021650000000890003000300000000000309      002918 1017    002622   002694   002815   003013   003017   003220   003122   003163   003079   002851   002712   002704               150030171 1027    140031111 1047    130030781 1047    120000001         110032491 1087    002677   002779   002864   003160   003159   003348   003254   003227   003129   003025   002770   002801                                      
890002900310016 01510 4812001Dpt. 58             0000000Courson             0120000Fretoy              0070000012000000000890003000300000000000309      004278                                                                                                                                 150044318         140045558         130045088         120000008         110047778                                                                                                                                                        
890002700310016 00770 4813001ST FLORENTIN        0290000AUBE                0400602Les Buissons        0340000010664000000890002300300000000000195      005925                                                                                                                                 150080778         140057988         130058908         120000008         110068128                                                                                                                                                        
890002300310016 00770 4113001RD203               0050053ST_FLORENTIN        0290000PONTIGNY            0190600023504000000890002300300000000000379      004066 2037    003369   003521   003970   004675   004335   004395   004613   004399   004357   004147   003525   003476               150055421 1357    140039781 1977    130040411 1837    120000001         110046731 1727    003304   003456   003555   004011   004176   004603   018926   008005   004480   004202   003823   003586                                      
890002300210016 00770 4113001RD203               0050053ST_FLORENTIN        0290000PONTIGNY            0190600023504000000890002300300000000000379      002021 2017    001699   001780   001960   002358   002149   002184   002369   002132   002109   002002   001740   001765               150033671 1197    140019671 1947    130020301 1797    120000001         110023571 1687    001655   001729   001756   002007   002052   002467   014700   005474   002382   002138   001919   001812                                      
890002300110016 00770 4113001RD203               0050053ST_FLORENTIN        0290000PONTIGNY            0190600023504000000890002300300000000000379      002045 2067    001670   001741   002010   002317   002186   002211   002244   002267   002248   002145   001785   001711               150021751 1887    140020111 2027    130020111 1907    120000001         110023161 1807    001649   001727   001799   002004   002124   002136   004226   002531   002098   002064   001904   001774                                      
890002299310016 00770 4853001AUXERRE             0000000RD203               0050053Auxerre RN77        0010000005067005067890002300300000000000195      004134                                                                                                                                 150056368         140040468         130041118         120000008         110047558                                                                                                                                                        
890002200310016 00650 4112001A6                  0000000AUXERRE             0041653VENOY               0030200005653000000890002300300000000000309      008109 0907    007627   007755   008385   008088   008206            007693   007662   008598   008628   008311   008242               150081621 0967    140081241 1007    130079101 1007    120000001         110083431    7    007391   007975   008026   008464   008043   008734   008292   007575   008817   008403   008070   008174                                      
890002200210016 00650 4112001A6                  0000000AUXERRE             0041653VENOY               0030200005653000000890002300300000000000309      003960 0887    003784   003894   004154   003838   003892            003603   003701   004223   004248   004124   004104               150040631 0967    140039881 1007    130039051 1007    120000001         110041531    7    003649   004001   003949   004251   003977   004453   004104   003761   004375   004173   004008   004071                                      
890002200110016 00650 4112001A6                  0000000AUXERRE             0041653VENOY               0030200005653000000890002300300000000000309      004149 0937    003843   003861   004231   004250   004314            004090   003961   004375   004380   004187   004138               150040991 0967    140041361 1007    130040051 1007    120000001         110041901 1007    003742   003974   004077   004213   004066   004281   004188   003814   004442   004230   004062   004103                                      
890001001310016 00060 4812001Périgny             0820282RN65                0880140Auxerre RN6         0860000005858000000890001000300000000000309      012368                                                                                                                                 150121368         140120608         130119488         120000008         110120388                                                                                                                                                        
890001000310016 00060 4112001APPOIGNY            0780000PERIGNY             0820282CHESNEZ             0810785005000000000890001000300000000000309      024374 0937    023268   024361   024813   025232   024619   025702   023279   021366   025128   024796   024765   025267               150239151 0937    140237651 0927    130235441 0947    120000001         110237211    7    022289   023734   023344   024885   023216   025145   025454   020964   024652   024787   023869   024721                                      
890001000210016 00060 4112001APPOIGNY            0780000PERIGNY             0820282CHESNEZ             0810785005000000000890001000300000000000309      012318 0947    011835   012255   012580   012771   012483   013093   011840   010822   012570   012258   012577   012784               150121381 0947    140120521 0937    130119381 0947    120000001         110119951    7    011345   011899   011851   012558   011772   012673   013198   010685   012542   012538   012136   012480                                      
890001000110016 00060 4112001APPOIGNY            0780000PERIGNY             0820282CHESNEZ             0810785005000000000890001000300000000000309      012056 0907    011433   012106   012233   012461   012136   012609   011439   010544   012558   012538   012188   012483               150117771 0917    140117131 0917    130116061 0927    120000001         110117261    7    010944   011835   011493   012327   011444   012472   012256   010279   012110   012249   011733   012241                                      
730002700310016 02010 4110401LA BOISSE           0040600VILLARCHER RN504    0080720CHAMBERY_VRU        0050400004414000000890001000300000000000200      100482 0957    100255   106111   108520   105281   095684   096032   086448   098932   103981   101598   099212   104177               151007781 2057    140998911 2327    130995931 0797    120000001         111000161         097926   103450   106291   102906   093866   103406   104852   096447   103109   100606   093872   102868                                      
730002700210016 02010 4110401LA BOISSE           0040600VILLARCHER RN504    0080720CHAMBERY_VRU        0050400004414000000890001000300000000000200      051793 1127    050152   053483   054694   052689   049258   052756   052182   049468   052536   051142   049993   053294               150507271 2757    140500781 3037    130491171 0827    120000001         110496101         048615   052603   053182   051388   047273   052246   053506   047927   051718   050268   047112   053049                                      
730002700110016 02010 4110401LA BOISSE           0040600VILLARCHER RN504    0080720CHAMBERY_VRU        0050400004414000000890001000300000000000200      048689 0597    050103   052628   053826   052592   046426   043276   034266   049464   051445   050456   049219   050883               150500511 0657    140498131 0887    130504761 0737    120000001         110504061         049311   050847   053109   051518   046593   051160   051346   048520   051391   050338   046760   049819                                      
730002600310016 02010 4110401A43 SUD             0000000LA BOISSE           0040600MONTS               0030380004680000000890001000300000000000200      000000                                                                                                                                 150000001         140000001         130000001         120000001         110887911    7                                                                                                                                                   
730002600210016 02010 4110401A43 SUD             0000000LA BOISSE           0040600MONTS_Y             0030380004680000000890001000300000000000200      000000                                                                                                                                 150000001         140000001         130000001         120000001         110443521    7                                                                                                                                                   
730002600110016 02010 4110401A43 SUD             0000000LA BOISSE           0040600MONTS_W             0030380004680000000890001000300000000000200      000000                                                                                                                                 150000001         140000001         130000001         120000001         110444391    7                                                                                                                                                   
730002200310016 00900 4113001AIME                0640690BOURG_ST_MAURICE    0750550BONCONSEIL          0720400011434000000890001000300000000000200      000000                                                                                                                                 150071151         140096331 0647    130096541 0667    120000001         110097391    7    010403   010991   011606   010401   004106   004216   005176   005564   003994   004974                                                        
730002200210016 00900 4113001AIME                0640690BOURG_ST_MAURICE    0750550BONCONSEIL          0720400011434000000890001000300000000000200      000000                                                                                                                                 150048451 0597    140047591 0647    130047861 0657    120000001         110048361    7    005343   005487   005844   005228   003728   004216   005176   005564   003994   003893                                                        
730002200110016 00900 4113001AIME                0640690BOURG_ST_MAURICE    0750550BONCONSEIL          0720400011434000000890001000300000000000200      000000                                                                                                                                 150022701         140048741 0657    130048681 0677    120000001         110049031    7    005060   005504   005762   005173   000378   000000   000000   000000   000000   001081                                                        
730002102310016 00900 4113001MONGIROD            0580585AIME                0640690PT_DE_LA_TOUR       0610522006105000000890001000300000000000200      012292 0677    013990   015948   015909   013405   009530   010053   012595   013628   010653   008733   010019   013109               150123561 0837    140121571 0877    130121851 0977    120000001         110122201 1147    013506   015466   015357   013057   009288   010777   012834   013447   010459   010409   010491   013325                                      
730002102210016 00900 4113001MONGIROD            0580585AIME                0640690PT_DE_LA_TOUR       0610522006105000000890001000300000000000200      006245 0677    007242   007890   008004   006970   004825   005001   006102   006991   005423   005138   004977   006393               150061801 0877    140060611 0907    130060921 1007    120000001         110061011    7    007042   007659   007835   006669   004747   005361   006287   006891   005263   005206   005208   006059                                      
730002102110016 00900 4113001MONGIROD            0580585AIME                0640690PT_DE_LA_TOUR       0610522006105000000890001000300000000000200      006047 0677    006748   008058   007905   006435   004705   005052   006493   006637   005230   003595   005042   006716               150061761 0767    140060961 0797    130060931 0927    120000001         110061191 1467    006464   007807   007522   006388   004541   005416   006547   006556   005196   005203   005283   007266                                      
730002101310016 00900 4113001ST_MARCEL           0550250MONTGIROD           0580585TUNNEL_SIAIX        0560770003335000000890001000300000000000200      000000                                                                                                                                 150000001         140000001         130113621 0567    120000001         110113751    7                                                                                                                                                   
730002101210016 00900 4113001ST_MARCEL           0550250MONTGIROD           0580585TUNNEL_SIAIX        0560770003335000000890001000300000000000200      000000                                                                                                                                 150000001         140000001         130056861 0547    120000001         110056611    7                                                                                                                                                   
730002101110016 00900 4113001ST_MARCEL           0550250MONTGIROD           0580585TUNNEL_SIAIX        0560770003335000000890001000300000000000200      000000                                                                                                                                 150000001         140000001         130056761 0607    120000001         110057141    7                                                                                                                                                   
730002100310016 00900 4113001MOUTIERS            0500000ST_MARCEL           0550250MOUTIERS_EST        0500865005250000000890001000300000000000200      013685 0827    015009   017027   017100   014473   010598   011377   013664   014625   011934   011635   011876   014950               150135011 0817    140136751 0777    130136671 0777    120000001         110138201    7    014843   016882   016850   013982   010196   011765   013845   014411   011596   011605   011571   014619                                      
730002100210016 00900 4113001MOUTIERS            0500000ST_MARCEL           0550250MOUTIERS_EST        0500865005250000000890001000300000000000200      006805 0877    007740   008435   008600   007506   005349   005431   006578   007386   005957   005776   005839   007082               150067141 0857    140068281 0767    130068411 0767    120000001         110069771    7    007683   008350   008605   007136   005111   005704   006725   007307   005777   005778   005727   006735                                      
730002100110016 00900 4113001MOUTIERS            0500000ST_MARCEL           0550250MOUTIERS_EST        0500865005250000000890001000300000000000200      006880 0737    007269   008592   008500   006967   005249   005946   007086   007239   005977   005859   006037   007868               150067871 0737    140068471 0777    130068261 0787    120000001         110068431    7    007160   008532   008245   006846   005085   006061   007120   007104   005819   005827   005844   007884                                      
730002000310016 00900 4110101FEISSONS/ISERE      0400500MOUTIERS            0500000LA_LECHERE          0410800009538000000890001000300000000000200      000000                                                                                                                                 150000001         140000001         130197681 0557    120000001         110201621    7                                                                                                                                                   
730002000210016 00900 4110101FEISSONS/ISERE      0400500MOUTIERS            0500000LA_LECHERE          0410800009538000000890001000300000000000200      000000                                                                                                                                 150000001         140000001         130100691 0557    120000001         110100391    7                                                                                                                                                   
730002000110016 00900 4110101FEISSONS/ISERE      0400500MOUTIERS            0500000LA_LECHERE          0410800009538000000890001000300000000000200      000000                                                                                                                                 150000001         140000001         130096991 0567    120000001         110101231    7                                                                                                                                                   
730001900310016 00900 4110101PIERRE_DU_ROY       0230980FEISSONS/ISERE      0400500CEVINS              0340000016546000000890001000300000000001291      026160 0577    030035   033319   033620   027752   020407   021872   024703   025766   022657   022767   022426   028737               150240691 0577    140249641 0577    130244771 0587    120000001         110240101    7    028220   029627   032252   026884   019615   021973   024720   025309   021829   018007   011741   028744                                      
730001900210016 00900 4110101PIERRE_DU_ROY       0230980FEISSONS/ISERE      0400500CEVINS              0340000016546000000890001000300000000001200      013054 0567    015468   016656   016961   014395   010293   010875   012035   013102   011287   010989   011055   013612               150120531 0567    140125201 0557    130122371 0577    120000001         110119991    7    014629   015020   016491   013735   009948   010904   012117   012902   010959   008975   005797   013230                                      
730001900110016 00900 4110101PIERRE_DU_ROY       0230980FEISSONS/ISERE      0400500CEVINS              0340000016546000000890001000300000000001200      013106 0597    014567   016663   016659   013357   010114   010997   012668   012664   011370   011778   011371   015125               150120161 0607    140124441 0607    130122401 0617    120000001         110120111    7    013591   014607   015761   013149   009667   011069   012603   012407   010870   009032   005944   015514                                      
730001800310016 00900 4110201BORNERY CAR. RD990  0190000PIERRE_DU_ROY RN212 0230980GILLY/ISERE         0200020004538000000890001000300000000001200      032586 0687    034708   038012   039183   033539   027906   028797   032570   033296   030180   029675   029086   034149               150301281 0697    140320301 0707    130314701 0717    120000001         110314531    7    033764   035133   037746   033099   026705   029490   032172   031946   029224   023590   014850   033859                                      
730001800210016 00900 4110201BORNERY CAR. RD990  0190000PIERRE_DU_ROY RN212 0230980GILLY/ISERE         0200020004538000000890001000300000000001200      016580 0667    018065   019531   020037   017532   014226   014919   016154   017069   015315   015021   014655   016501               150152581 0647    140161061 0647    130158791 0647    120000001         110158041    7    017542   017859   019411   017047   013657   014842   016141   016378   014813   011953   007480   016005                                      
730001800110016 00900 4110201BORNERY CAR. RD990  0190000PIERRE_DU_ROY RN212 0230980GILLY/ISERE         0200020004538000000890001000300000000001200      016006 0727    016643   018481   019146   016007   013680   013878   016416   016227   014865   014654   014431   017648               150148701 0777    140159241 0847    130155911 0857    120000001         110156491    7    016222   017274   018335   016052   013048   014648   016031   015568   014411   011637   007370   017854                                      
710003700310016 00790 4112001CHARNAY_LES_MACON   0780800MACON               0800108VARENNES            0790800002900000000890001000300000000000309      000000                                                                                                                                 150141431 2407    140137131 2447    130135861 2427    120000001         110109421 2417    011786   013396   013402   014632   013850   014280   016742   016167   014515   014434   012840   013593                                      
710003700210016 00790 4112001CHARNAY_LES_MACON   0780800MACON               0800108VARENNES            0790800002900000000890001000300000000000309      000000                                                                                                                                 150077041 2377    140074591 2417    130073701 2407    120000001         110059951 2367    006430   007204   007395   007983   007520   008148   009152   008637   007757   007818   006988   007367                                      
710003700110016 00790 4112001CHARNAY_LES_MACON   0780800MACON               0800108VARENNES            0790800002900000000890001000300000000000309      000000                                                                                                                                 150064391 2467    140062541 2507    130062161 2487    120000001         110049471 2537    005356   006192   006007   006649   006330   006132   007590   007530   006758   006616   005852   006226                                      
710003600310016 00790 4112001LA ROCHE VINEUSE    0700850CHARNAY_LES_MACON   0780800PRISSE              0730800007800000000890001000300000000000309      015867 2227    013251   015450   015019   015802   014766   016487   019068   018568   016271   015900   014517   015258               150155071 2247    140152851 2267    130152251 2327    120000001         110150941 2357    012851   014753   014529   016058   015504   014509   018466   018333   016084   015814   014117   014948                                      
710003600210016 00790 4112001LA ROCHE VINEUSE    0700850CHARNAY_LES_MACON   0780800PRISSE              0730800007800000000890001000300000000000309      008028 2237    006647   007829   007635   008065   007688   008274   009612   009365   008239   008033   007272   007653               150078551 2257    140077171 2267    130076851 2337    120000001         110076071 2357    006484   007382   007458   008157   007826   007984   009377   009197   007887   007975   006978   007496                                      
710003600110016 00790 4112001LA ROCHE VINEUSE    0700850CHARNAY_LES_MACON   0780800PRISSE              0730800007800000000890001000300000000000309      007839 2207    006604   007621   007384   007737   007078   008213   009456   009203   008032   007867   007245   007605               150076521 2237    140075681 2267    130075401 2327    120000001         110074871 2377    006367   007371   007071   007901   007678   006525   009089   009136   008197   007839   007139   007452                                      
710002900310016 00800 4112001SAINT_DESERT        0200700ECUISSES            0390385LES_BAUDOTS         0320720018685000000890001000300000000000309      020120 2227    018062   019009   019260   020350   020668   020886   021209   021032   021394   020638   019588   019328               150174501 2047    140177501 1768    130188081 2018    120000001         110000001         000000   010848   019434   021070   020423   022510   018592   020270   016494   019726   019930   019798                                      
710002900210016 00800 4112001SAINT_DESERT        0200700ECUISSES            0390385LES_BAUDOTS         0320720018685000000890001000300000000000309      010266 2197    009177   009666   009980   010452   010667   010712   010584   010992   010909   010414   009925   009709               150092391 2067    140094451 2018    130100261 1998    120000001         110100601 2177    000000   005416   009717   010540   010243   011525   011089   011352   010400   010464   010029   009907                                      
710002900110016 00800 4112001SAINT_DESERT        0200700ECUISSES            0390385LES_BAUDOTS         0320720018685000000890001000300000000000309      009854 2277    008885   009343   009280   009898   010001   010174   010625   010040   010485   010224   009663   009619               150082111 2017    140083051 1178    130087821 2068    120000001         110000001         000000   005432   009717   010530   010180   010985   007503   008918   006094   009262   009901   009891                                      
710002800310016 00800 4112001Saint Rémy          0110000Saint Désert        0200700GIVRY               0190000009700000000890001000300000000000309      022092 2307    019305   020581   021271   022395   022619   022748   023978   023267   023380   022667   021530   021309               150214941 2237    140207061 2207    130204641         120000001         110000001         018361   019718   020124   021993   021353   023364   023555   023146   022030   022140   020919   021130                                      
710002800210016 00800 4112001Saint Rémy          0110000Saint Désert        0200700GIVRY               0190000009700000000890001000300000000000309      011104 2327    009709   010260   010627   011233   011590   011394   011744   011961   011865   011390   010814   010630               150107951 2247    140102791 2227    130102241         120000001         110000001         009231   009842   010090   011001   010716   012047   011607   011899   010967   011052   010515   010520                                      
710002800110016 00800 4112001ST_REMY             0110000ST_DESERT           0200700GIVRY               0190000009700000000890001000300000000000309      010988 2277    009596   010321   010644   011162   011029   011354   012234   011306   011515   011277   010716   010679               150106991 2217    140104271 2177    130102401         120000001         110000001         009130   009876   010034   010992   010637   011317   011948   011247   011063   011088   010404   010610                                      
710002600310016 00790 4112001STE_CECILE          0610440LA ROCHE VINEUSE    0700850LE_BOISCLAIR        0640200009500000000890001000300000000000309      019639 1717                      018952   018530   018643   020504   020755   021909   020194   019688   018346   018837               150000001         140000001         130000001         120000001         110000001                                                                                                                                                        
710002600210016 00790 4112001STE_CECILE          0610440LA ROCHE VINEUSE    0700850LE_BOISCLAIR        0640200009500000000890001000300000000000309      009938 1737                      009544   009853   009622   010244   010540   011007   010145   009887   009125   009398               150000001         140000001         130000001         120000001         110000001                                                                                                                                                        
710002600110016 00790 4112001STE_CECILE          0610440LA ROCHE VINEUSE    0700850LE_BOISCLAIR        0640200009500000000890001000300000000000309      009701 1687                      009408   008677   009021   010260   010215   010902   010049   009801   009221   009439               150000001         140000001         130000001         120000001         110000001                                                                                                                                                        
710002500310016 00790 4112001BRANDON             0540250STE_CECILE          0610440STE_CECILE          0590400007250000000890001000300000000000309      012409 2597    010658   012353   012019   011944   011522   011519   014899   014748   012698   012275   011688   012532               150123391 2627    140121871 2677    130122511 2647    120000001         110125551 2607    010297   011920   011589   012565   012144   011693   014846   014944   012779   012325   011173   011727                                      
710002500210016 00790 4112001BRANDON             0540250STE_CECILE          0610440STE_CECILE          0590400007250000000890001000300000000000309      005804 2727    004875   005675   005506   005761   005579   005761   006982   006772   005712   005570   005415   006017               150056551 2747    140055641 2797    130056911 2747    120000001         110060321 2647    004710   005401   005408   005784   005570   005794   006967   006847   005552   005555   004947   005290                                      
710002500110016 00790 4112001BRANDON             0540250STE_CECILE          0610440STE_CECILE          0590400007250000000890001000300000000000309      006605 2387    005783   006678   006513   006183   005943   005758   007917   007976   006986   006705   006273   006515               150066841 2427    140066231 2477    130065601 2477    120000001         110065231 2527    005587   006519   006181   006781   006574   005899   007879   008097   007227   006770   006226   006437                                      
710002300310016 00790 4812001Charolles           0260700BRANDON             0540250La Fourche          0330000027550000000710002600300000000000311      000000                                                                                                                                 150000008         140000008         130000008         120000008         110000008                                                                                                                                                        
710002200310016 00790 4812001Les Cadolles        0180250Charolles           0260700La Redoute          0190550008450000000710001900300000000000309      016548                                                                                                                                 150147868         140152898         130158148         120000008         110159668                                                                                                                                                        
710002100310016 00790 4112001PARAY OUEST         0080135LES CADOLLES        0180250VOLESVRES           0160200010115000000710001900300000000000309      009963 2947    008472   010225   009632   010106   008026   010084   012111   012238   010476   009706   008892   009602               150103161 2907    140104701 2877    130104521 2937    120000001         110102571 2937    008707   010270   009673   010560   010105   010049   012446   013023   010412   010110   008836   009555                                      
710002100210016 00790 4112001PARAY OUEST         0080135LES CADOLLES        0180250VOLESVRES           0160200010115000000710001900300000000000309      005358 2887    004433   005438   005111   005385   005017   005350   006484   006574   005590   005208   004680   005021               150052441 2887    140052121 2867    130052071 2937    120000001         110051251 2937    004351   005088   005011   005356   005114   005088   006325   006581   005214   005263   004516   004985                                      
710002100110016 00790 4112001PARAY OUEST         0080135LES CADOLLES        0180250VOLESVRES           0160200010115000000710001900300000000000309      004605 3077    004039   004787   004521   004721   003009   004734   005627   005664   004886   004498   004212   004581               150050721 2957    140052581 2907    130052451 2937    120000001         110051321 2937    004356   005182   004662   005204   004991   004961   006121   006442   005198   004847   004320   004570                                      
710001900310016 00790 4112001Dpt. 03             0000000PARAY OUEST         0080135CHIZEUIL            0040800008135000000710001900300000000000309      017293 3607             015826   015283   016899   016876   017523   021854   022960   017619   016620   014670   015491               150154511 3897    140159761 2368    130165241 1218    120000001         110166821 3507    012215   014002   013626   015197   015684   015178   019137   021425   015603   015069   013796   014276                                      
710001900210016 00790 4112001Dpt. 03             0000000PARAY OUEST         0080135CHIZEUIL            0040800008135000000710001900300000000000309      008775 3617             008004   007742   008499   008560   008824   011176   011325   008750   008352   007368   007825               150071271 4057    140078631 1868    130083161 0188    120000001         110083451 3477    005667   006453   006454   007105   007265   007152   008997   009430   007074   006879   006374   006579                                      
710001900110016 00790 4112001Dpt. 03             0000000PARAY OUEST         0080135CHIZEUIL            0040800008135000000710001900300000000000309      008518 3607    006950   007822   007541   008400   008316   008699   010678   011635   008869   008268   007302   007666               150083241 3627    140081131 3338    130082081 3308    120000001         110083371 3537    006548   007549   007172   008092   008419   008026   010140   011995   008529   008190   007422   007697                                      
710001000310016 00700 4812001SAINT VALLIER       0290250RN80 Rond Point J Ba0471018Pont des Morands    0470000019277000000710000800300000000000311      018714                                                                                                                                 150187208         140188348         130000008         120000008         110184738                                                                                                                                                        
710000800310016 00700 4112001GENELARD            0190750ST_VALLIER          0290250ROZELAY             0270800009500000000710000800300000000000309      018338 2497    015886   016894   017551   018768   019439   019298   020035   020428   019542   017126   017392                        150183431 2387    140184541 2317    130000001         120000001         110181001 2267    016056   016632   016986   018755   018598   020104   020773   020545   018448   018509   016998   017567                                      
710000800210016 00700 4112001GENELARD            0190750ST_VALLIER          0290250ROZELAY             0270800009500000000710000800300000000000309      009274 2557    007972   008548   008872   009448   009484   009726   010217   009971   009685   009213   008849                        150092781 2427    140091981 2188    130034121 0008    120000001         110091291 2287    007837   008476   008603   009546   009406   009854   010884   010138   009472   009458   008655   008939                                      
710000800110016 00700 4112001GENELARD            0190750ST_VALLIER          0290250ROZELAY             0270800009500000000710000800300000000000309      009064 2387    007914   008346   008679   009320   009955   009572   009818   010457   009857   007913   008543   008381               150090651 2297    140092561 2237    130000001         120000001         110089711 2257    008219   008156   008383   009209   009192   010250   009889   010407   008976   009051   008343   008628                                      
710000700310016 00700 4812001Paray le Monial     0050000Genelard            0190750St-Vincent-de-Bragny0110750014450000000710002100300000000000309      011474                                                                                                                                 150118818         140120598         130120398         120000008         110118158                                                                                                                                                        
690502000310016 00470 1110231A7                  0000000Ech.ENTREE 11       0130990GIVORS_COMMERC      0040450014500000000710002100300000000000205      057367 1317    052406   056382   056348   059087   057498   060707   060407   057474   058818   058352   054920   056071               150558061 1317    140555861 1297    130562311 1347    120000001         110604151         051223   053376   055449   058111   055772   058909   059348   055915   058004   053381   054452   055701                                      
690502000210016 00470 1110231A7                  0000000Ech.ENTREE 11       0130990GIVORS_COMMERC      0040450014500000000710002100300000000000205      028015 1337    025619   027730   027323   028923   028098   029552   029852   028369   028354   028351   026554   027481               150272771 1337    140270991 1337    130273511 1347    120000001         110295651 1357    025018   026133   026792   028080   027251   028751   029570   027626   028333   025878   026498   027366                                      
690502000110016 00470 1110231A7                  0000000Ech.ENTREE 11       0130990GIVORS_COMMERC      0040450014500000000710002100300000000000205      029352 1277    026787   028652   029025   030164   029400   031155   030555   029105   030464   030001   028366   028590               150285291 1287    140284871 1227    130288801 1337    120000001         110308501         026205   027243   028657   030031   028521   030158   029778   028289   029671   027503   027954   028335                                      
690501702310016 04500 1110441PIERRE_BENITE       0000000BRIGNAIS            0070969IRIGNY              0020800007969000000710002100300000000000206      053235 0747    055036   051674   055539   057694   052944   060196   053183   044320   058611   053216   048455   048237               150553751 0707    140542801 0707    130539601 0727    120000001         110531181    7    053990   055567   057706   057236   052885   059973   053423   042482   058231   059148   057343   056893                                      
690501702210016 04500 1110441PIERRE_BENITE       0000000BRIGNAIS            0070969IRIGNY              0020800007969000000710002100300000000000206      024166 0817    026563   022374   025462   027788   024309   028826   025189   021124   028177   023076   018458   018745               150268611 0737    140263291 0737    130261341 0757    120000001         110257401    7    026052   027012   028039   028097   025830   029096   025461   020567   028097   028746   027828   027703                                      
690501702110016 04500 1110441PIERRE_BENITE       0000000BRIGNAIS            0070969IRIGNY              0020800007969000000710002100300000000000206      029069 0627    028473   029300   030077   029906   028635   031370   027994   023196   030434   030140   029997   029492               150285141 0637    140279511 0637    130278261 0657    120000001         110273781    7    027938   028555   029667   029139   027055   030877   027962   021915   030134   030402   029515   029190                                      
690501501310016 00430 1150441MERMOZ              0000000SORTIE BD DU 8 MAI  0030401ECH_8_MAI           0020500003400003400710002100300000000000206      133513 0427    132764   138104   140854   127320   132711   142387   120642   114901   139986   138115   138785   136355               151346101 0427    141340661 0417    131319361 0417    120000001         111277841    7    132035   136754   141107   137256   127201   141852   135099   114657   136635   140930   135918   136506                                      
690501501210016 00430 1150441MERMOZ              0000000SORTIE BD DU 8 MAI  0030401ECH_8_MAI           0020500003400003400710002100300000000000206      064882 0407    064877   067352   068719   065671   064927   068855   054201   055879   068362   067006   067547   065702               150656851 0407    140634471 0377    130597651 0347    120000001         110624891    7    064785   066687   069461   067396   062349   069624   066369   056672   064882   068511   065967   065776                                      
690501501110016 00430 1150441MERMOZ              0000000SORTIE BD DU 8 MAI  0030401ECH_8_MAI           0020500003400003400710002100300000000000206      068631 0477    067887   070752   072135   061649   067784   073532   066441   059022   071624   071109   071238   070653               150689251 0457    140706191 0477    130721711 0537    120000001         110652951    7    067250   070067   071646   069860   064852   072228   068730   057985   071753   072419   069951   070730                                      
690501203310016 00420 1110241PONT CROIX_LUIZET   0000000Ech. MIRIBEL        0040329GRAPPINIERE         0020000004329000000710002100300000000000206      099335 0597    093913   097071   100226   101290   101049   106670   101944   088978   102794   102489   099236   096619               150979831         140000001         130000001         120000001         110938511    7    096145   095341   098045   096361   096075   108315   097743   088645   102595   102017   097442   097233                                      
690501203210016 00420 1110241PONT CROIX_LUIZET   0000000Ech. MIRIBEL        0040329GRAPPINIERE         0020000004329000000710002100300000000000206      049060 0557    046524   048023   049198   049745   049613   052644   050673   043414   050925   050853   049069   048172               150481551         140000001         130000001         120000001         110464321    7    047193   045944   047338   047700   047331   053254   048720   042971   050643   050228   048209   048350                                      
690501203110016 00420 1110241PONT CROIX_LUIZET   0000000Ech. MIRIBEL        0040329GRAPPINIERE         0020000004329000000710002100300000000000206      050275 0657    047389   049048   051028   051545   051436   054026   051271   045564   051869   051636   050167   048447               150498281 0637    140465531         130462661         120000001         110474191    7    048952   049397   050707   048661   048744   055061   049023   045674   051952   051789   049233   048883                                      
690501101310016 00070 1110441Ech. RD36 SOLAIZE   0130350Ech. A47 GIVORS     0200330COMMUNAY            0160830006980000000710002100300000000000206      097705 0887    084909   089099   092323   100210   098474   106100   111300   106998   100071   097420   091991   093253               150960181 0907    140957451 0887    130941791 0897    120000001         110967001    7    081876   085493   089920   100407   098475   102579   107894   106871   098793   096489   090055   092605                                      
690501101210016 00070 1110441Ech. RD36 SOLAIZE   0130350Ech. A47 GIVORS     0200330COMMUNAY            0160830006980000000710002100300000000000206      049505 0867    043169   044631   046345   049837   050240   053207   055093   057278   051304   049522   046820   046404               150483361 0897    140481851 0877    130471611 0877    120000001         110483911    7    041460   042629   045102   049562   049597   051166   052763   056283   050586   048768   045558   046123                                      
690501101110016 00070 1110441Ech. RD36 SOLAIZE   0130350Ech. A47 GIVORS     0200330COMMUNAY            0160830006980000000710002100300000000000206      048200 0907    041740   044468   045978   050373   048234   052893   056207   049720   048767   047898   045171   046849               150476821 0907    140475601 0927    130470181 0937    120000001         110483091    7    040416   042864   044818   050845   048878   051413   055131   050588   048207   047721   044497   046482                                      
690500900310016 00070 1150441Ech. P.B.S. A74     0060440Ech. RD36 SOLAIZE   0130350ST_FONS             0070918006910006910710002100300000000000206      145257 0847    128041   134456   143107   150430   147629   157713   157360   145189   148813   146805   141361   142037               151430611 0837    141419641 0837    131402901 0857    120000001         111434571    7    128899   133911   140331   149035   142932   153126   154170   143209   147919   145577   138898   138388                                      
690500900210016 00070 1150441Ech. P.B.S. A74     0060440Ech. RD36 SOLAIZE   0130350ST_FONS             0070918006910006910710002100300000000000206      074574 0837    068295   070896   073068   076220   075335   079985   078212   076614   076291   075280   072604   072068               150729841 0837    140722721 0837    130714461 0847    120000001         110729241    7    066094   068141   071524   075037   072743   077412   076478   074969   076467   074403   071083   071253                                      
690500900110016 00070 1150441Ech. P.B.S. A74     0060440Ech. RD36 SOLAIZE   0130350ST_FONS             0070918006910006910710002100300000000000206      070683 0857    059746   063560   070039   074210   072294   077728   079148   068575   072522   071525   068757   069969               150700771 0837    140696921 0847    130688441 0867    120000001         110705331    7    062805   065770   068807   073998   070189   075714   077692   068240   071452   071174   067815   067135                                      
690500702310016 00070 1150441SORTIE QUAI SEMARD  0040200Ech. P.B.S. A74     0060440PIERRE_BENITE       0040750002240002240710002100300000000001294      108320 0617    097009   107390   108154   112445   105363   115260   114621   103932   106538   108133   110137   111157               151038461 0617    141048681 0637    131050901 0657    120000001         111060381    7    098584   096624   104322   107699   102728   107948   107007   097345   102995   107253   105224   108006                                      
690500702210016 00070 1150441SORTIE QUAI SEMARD  0040200Ech. P.B.S. A74     0060440PIERRE_BENITE       0040750002240002240710002100300000000001294      051551 0607    048555   050768   051848   052098   051713   054861   051294   050626   050719   052055   052084   052052               150499131 0607    140497561 0627    130489511 0667    120000001         110498861    7    046819   048114   050539   052034   049296   051590   050398   049089   049653   050439   050101   050831                                      
690500702110016 00070 1150441SORTIE QUAI SEMARD  0040200Ech. P.B.S. A74     0060440PIERRE_BENITE       0040750002240002240710002100300000000001294      056769 0627    048454   056622   056306   060347   053650   060399   063327   053306   055819   056078   058053   059105               150539331 0627    140551121 0647    130561391 0657    120000001         110561521    7    051765   048510   053783   055665   053432   056358   056609   048256   053342   056814   055123   057175                                      
690500600310016 00070 1150441PONT LA MULATIERE NO0010527SORTIE QUAI SEMARD  0040200MULATIERE           0020500002673002673710002100300000000000206      098860         090398   095325   097579   100692   098363   103411   104448   096646   100608   100697   098439   099746               150985741 0647    141130991 0597    130980701 0707    120000001         110942481    7    104158   106525   105278   101017   094067   099243   100395   092335   094395   095508   095493   095108                                      
690500600210016 00070 1150441PONT LA MULATIERE NO0010527SORTIE QUAI SEMARD  0040200MULATIERE           0020500002673002673710002100300000000000206      043822         041262   042436   043301   043805   043081   044143   042613   043754   045071   045652   045376   045385               150426761 0687    140428961 0677    130425701 0747    120000001         110415171    7    040372   041498   043446   045419   042355   043540   042666   042424   042488   042891   043315   041710                                      
690500600110016 00070 1150441PONT LA MULATIERE NO0010527SORTIE QUAI SEMARD  0040200MULATIERE           0020500002673002673710002100300000000000206      055038 0597    049136   052889   054278   056887   055282   059268   061835   052892   055537   055045   053063   054361               150558981 0587    140702031 0497    130555001 0647    120000001         110527311    7    063786   065027   061832   055598   051712   055703   057729   049911   051907   052617   052178   053398                                      
690500501310016 00070 1150441RUE M.A. PETIT      0000000PONT LA MULATIERE NO0010527QUAI_PERRACHE       0010220001527001527710002100300000000001294      112923 0777    105553   112012   114709   114149   115331   117192   115096   105131   113544   115506   113802   113220               151073111 0837    141082681 0877    131057241 0857    120000001         111096751    7    103356   106109   111682   115039   105992   105721   109076   100016   104824   106947   109681   109370                                      
690500501210016 00070 1150441RUE M.A. PETIT      0000000PONT LA MULATIERE NO0010527QUAI_PERRACHE       0010220001527001527710002100300000000001294      050671 0787    049586   052100   052840   050243   052618   050971   045812   044080   050802   053066   053748   052374               150483571 0867    140486591 0917    130477561 0887    120000001         110508901    7    049451   050114   052763   052418   047923   042994   044929   044028   045953   048511   051476   049879                                      
690500501110016 00070 1150441RUE M.A. PETIT      0000000PONT LA MULATIERE NO0010527QUAI_PERRACHE       0010220001527001527710002100300000000001294      062252 0757    055967   059912   061869   063906   062713   066221   069284   061051   062742   062440   060054   060846               150589541 0787    140596091 0807    130579681 0797    120000001         110587851    7    053905   055995   058919   062621   058069   062727   064147   055988   058871   058436   058205   059491                                      
690500400310016 00060 1150241TUNNEL FOURVIERE    4540000TREMIE PERRACHE SUD 4550616FOURVIERE_SUD       4540800001616001616710002100300000000000206      095366 0767    085695   094863   095899   096163   095292   097809   101248   098210   094700   096218   093857   094435               150855661 0777    140939181 0757    130962361 0757    120000001         111039821    7    082998   085134   091678   096696   085061   060158   091339   087314   082277   082930   090905   089862                                      
690500400210016 00060 1150241TUNNEL FOURVIERE    4540000TREMIE PERRACHE SUD 4550616FOURVIERE_SUD       4540800001616001616710002100300000000000206      043050 0847    039375   043576   043606   042452   043257   043191   043419   044093   042925   043889   043530   043313               150393461 0837    140425541 0817    130437271 0787    120000001         110500341    7    038174   038825   042521   043890   038344   035135   039313   039839   036539   037233   041787   040498                                      
690500400110016 00060 1150241TUNNEL FOURVIERE    4540000TREMIE PERRACHE SUD 4550616FOURVIERE_SUD       4540800001616001616710002100300000000000206      052316 0647    046320   051287   052293   053711   052035   054618   057829   054117   051775   052329   050327   051122               150462201 0667    140513641 0657    130525091 0707    120000001         110539481    7    044824   046309   049157   052806   046717   025023   052026   047475   045738   045697   049118   049364                                      
690500200310016 00060 1150741Ech. ECULLY SUD     4490200TUNNEL FOURVIERE    4540000ECULLY              4500720004800004800710002100300000000000200      117470 0547    112823   116939   119452   123554   119981   127701   111917   102560   120818   120170   116000   118281               151152921 0537    141189021 0587    131185441 0587    120000001         111180291    7    101878   112255   112164   122678   109198   119263   109676   116163   123701   119489   116210   121194                                      
690500200210016 00060 1150741Ech. ECULLY SUD     4490200TUNNEL FOURVIERE    4540000ECULLY              4500720004800004800710002100300000000000200      060720 0507    057414   059394   061020   063002   061825   066447   058845   054243   063143   062438   060043   061053               150572701 0497    140604231 0547    130614691 0547    120000001         110612061    7    046784   054769   055308   063148   052341   059278   049501   057687   065450   061599   060023   061715                                      
690500200110016 00060 1150741Ech. ECULLY SUD     4490200TUNNEL FOURVIERE    4540000ECULLY              4500720004800004800710002100300000000000200      056750 0637    055409   057545   058432   060552   058156   061254   053072   048317   057675   057732   055957   057228               150580221 0627    140584791 0657    130570751 0677    120000001         110568231    7    055094   057486   056856   059530   056857   059985   060175   058476   058251   057890   056187   059479                                      
690500105310016 00060 1150441DARDILLY LE TRONCHON4470520Ech. ECULLY SUD     4490200CHAMPAGNE           4480590001680001680710002100300000000000200      105528 0617    099282   103605   106250   110702   107606   114905   105168   096617   107649   107307   102727   104839               151053131 0637    140000001         131055401 0647    120000001         111059051    7    095641   098699   096759   102059   105267   112245   113984   111217   108958   107436   103572   107459                                      
690500105210016 00060 1150441DARDILLY LE TRONCHON4470520Ech. ECULLY SUD     4490200CHAMPAGNE           4480590001680001680710002100300000000000200      054297 0577    050358   052415   053980   056234   055003   059254   054586   051080   056168   055583   052969   054046               150528281 0617    140000001         130540941 0607    120000001         110547961    7    047658   048398   045597   047652   053096   057308   058192   057135   056034   054982   053057   054488                                      
690500105110016 00060 1150441DARDILLY LE TRONCHON4470520Ech. ECULLY SUD     4490200CHAMPAGNE           4480590001680001680710002100300000000000200      051231 0687    048924   051190   052270   054468   052603   055651   050582   045537   051481   051724   049758   050793               150524851 0657    140000001         130514461 0737    120000001         110511091    7    047983   050301   051162   054407   052171   054937   055792   054082   052924   052454   050515   052971                                      
690500103310016 00060 1110741Ech. LIMONEST       4450323DARDILLY LE TRONCHON4470520DARDILLY            4460690002520000000710002100300000000000188      086816 0677    080601   083845   086335   091060   088942   095363   090910   084292   089269   088312   083098   079947               150872271 0657    140851691 0697    130861841 0717    120000001         110868841    7    077269   075095   079482   091563   089149   092437   095734   097124   088942   087123   084083   087806                                      
690500103210016 00060 1110741Ech. LIMONEST       4450323DARDILLY LE TRONCHON4470520DARDILLY            4460690002520000000710002100300000000000188      042280 0647    038669   040016   041382   043736   042957   046366   044125   042651   044668   043320   040283   039237               150424711 0637    140431241 0647    130422231 0667    120000001         110432141    7    037862   038842   041021   043886   043028   044147   045250   047807   043262   041822   040712   041728                                      
690500103110016 00060 1110741Ech. LIMONEST       4450323DARDILLY LE TRONCHON4470520DARDILLY            4460690002520000000710002100300000000000188      044536 0747    041932   043829   044953   047324   045985   048997   046785   041641   044601   044992   042815   040710               150447561 0717    140420451 0817    130439611 0797    120000001         110436701    7    039407   036253   038461   047677   046121   048290   050484   049317   045680   045301   043371   046078                                      
690020800310016 04890 4110201Ech. RN7            0000000Ech. RN6            0020624DARDILLY_DEV        0010500002624000000710002100300000000000206      000000                                                                                                                                 150000001         140000001         130281071 0737    120000001         110233561    7                                                                                                                                                   
690020800210016 04890 4110201Ech. RN7            0000000Ech. RN6            0020624DARDILLY_DEV        0010500002624000000710002100300000000000206      000000                                                                                                                                 150000001         140000001         130138101 0727    120000001         110122251    7                                                                                                                                                   
690020800110016 04890 4110201Ech. RN7            0000000Ech. RN6            0020624DARDILLY_DEV        0010500002624000000710002100300000000000206      000000                                                                                                                                 150000001         140000001         130142971 0737    120000001         110111311    7                                                                                                                                                   
690006800310016 03460 4110201Ech. GD LARGE N RD510320000Ech. MI_PLAINE N RN60400883ST_PRIEST           0390485008883000000710002100300000000001094      084499 1787    077905   083546   085567   086696   082663   090560   088721   080253   089761   084661   082564   081415               150810931 1847    140782601 1877    130788221 1837    120000001         110794731 1877    075121   079601   082436   082075   076173   086788   085650   075167   085525   085231   079722   079802                                      
690006800210016 03460 4110201Ech. GD LARGE N RD510320000Ech. MI_PLAINE N RN60400883ST_PRIEST           0390485008883000000710002100300000000001094      040998 1827    037724   040417   041927   042230   039928   043864   041877   040128   043655   041049   040078   039255               150393311 1877    140381451 1907    130386051 1847    120000001         110390991 1917    036844   038571   040185   039536   036028   041586   040159   037771   042213   041578   039025   038565                                      
690006800110016 03460 4110201Ech. GD LARGE N RD510320000Ech. MI_PLAINE N RN60400883ST_PRIEST           0390485008883000000710002100300000000001094      043501 1717    040181   043129   043640   044466   042735   046696   046844   040125   046106   043612   042486   042160               150417621 1777    140401151 1807    130402171 1817    120000001         110403741 1777    038277   041030   042251   042539   040145   045202   045491   037396   043312   043653   040697   041237                                      
690006200310016 03460 4110201Ech. RIZE SUD RD55  0250000Ech. GD LARGE N RD510320000LAMARTINE           0310495007000000000710002100300000000001094      076880 1797    070735   075018   077290   078770   076119   083631   082386   072242   081651   076909   074888   073160               150666801 2127    140724381 1937    130729001 1927    120000001         110749601 1867    068947   067043   058906   059242   056841   063394   066587   059456   078009   076647   072527   072805                                      
690006200210016 03460 4110201Ech. RIZE SUD RD55  0250000Ech. GD LARGE N RD510320000LAMARTINE           0310495007000000000710002100300000000001094      039009 1757    036041   037848   039394   040039   038301   042296   040769   037736   041530   039237   038066   036962               150299691 2247    140377411 1917    130365901 1937    120000001         110378751 1887    036042   031377   022188   021558   020621   023134   026154   025916   040290   038909   037025   036618                                      
690006200110016 03460 4110201Ech. RIZE SUD RD55  0250000Ech. GD LARGE N RD510320000LAMARTINE           0310495007000000000710002100300000000001094      037871 1867    034694   037170   037896   038731   037818   041335   041617   034506   040121   037672   036822   036198               150367111 1927    140346971 1977    130363101 1887    120000001         110370851 1827    032905   035666   036718   037684   036220   040260   040433   033540   037719   037738   035502   036187                                      
690002500310016 00070 4813001Ech. A46 Sud        0730000Dpt. 38             0760349Communay Les Pins Te0750000002348000000000000000000000000000206      000000                                                                                                                                 150000008         140000008         130000008         120000008         110000008                                                                                                                                                        
690002500210016 00070 4813001Ech. A46 Sud        0730000Dpt. 38             0760349Communay Les Pins Te0750000002348000000000000000000000000000206      000000                                                                                                                                 150000008         140000008         130000008         120000008         110000008                                                                                                                                                        
690002500110016 00070 4813001Ech. A46 Sud        0730000Dpt. 38             0760349Communay Les Pins Te0750000002348000000000000000000000000000206      000000                                                                                                                                 150000008         140000008         130000008         120000008         110000008                                                                                                                                                        
690001801310016 00070 4113001Carf. RD73 Arb.     0280189Entrée TASSIN       0400890FLEURIEUX           0310600012291000000000000000000000000000206      016655 0737    015769   016040   016123   015955   016051   017796   018021   018332   019646   015944   015378   014830               150151801 0697    140000001         130146811 0787    120000001         110000001         014547   014759   015643   015228   014886   016559   014759   012539   015992   016081   015754   015465                                      
690001801210016 00070 4113001Carf. RD73 Arb.     0280189Entrée TASSIN       0400890FLEURIEUX           0310600012291000000000000000000000000000206      008464 0667    008131   008160   008132   008111   008201   009602   009042   009188   009802   007980   007744   007496               150076081 0637    140000001         130073401 0727    120000001         110000001         007344   007438   007853   007631   007422   008325   007298   006234   007992   008093   007929   007767                                      
690001801110016 00070 4113001Carf. RD73 Arb.     0280189Entrée TASSIN       0400890FLEURIEUX           0310600012291000000000000000000000000000206      008191 0877    007638   007880   007991   007844   007850   008194   008979   009144   009844   007964   007634   007334               150075721 0807    140000001         130073411 0907    120000001         110000001         007203   007321   007790   007597   007464   008234   007461   006305   008000   007988   007825   007698                                      
690001700310016 00070 4813001Carf. RD38          0180360Carf. RD73Arb       0280189Bully Temporaire    0240100009829000000690001600300000000000206      012727                                                                                                                                 150124938         140121408         130120238         120000008         110148298                                                                                                                                                        
690001700210016 00070 4813001Carf. RD38          0180360Carf. RD73Arb       0280189Bully Temporaire    0240100009829000000690001600300000000000206      000000                                                                                                                                 150000008         140000008         130000008         120000008         110000008                                                                                                                                                        
690001700110016 00070 4813001Carf. RD38          0180360Carf. RD73Arb       0280189Bully Temporaire    0240100009829000000690001600300000000000206      000000                                                                                                                                 150000008         140000008         130000008         120000008         110000008                                                                                                                                                        
690001600310016 00070 4113001Dev. PONTCHARRA EST 0180000Carf. RD38          0180360PONTCHARRA          0180150000360000000690001600300000000000206      015282 0747    014549   015077   015566   015483   015811   016336   015152   012910   016308   015788   015525   014945               150150001 0707    140145751 0797    130144341 0867    120000001         110178021    7    013929   014438   015518   015946   014901   016207   015121   012657   015708   015508   015254   014864                                      
690001600210016 00070 4113001Dev. PONTCHARRA EST 0180000Carf. RD38          0180360PONTCHARRA          0180150000360000000690001600300000000000206      007533 0737    007324   007554   007621   007651   007698   008001   007413   006368   008102   007755   007616   007335               150073451 0717    140071431 0797    130070441 0867    120000001         110087321    7    006807   007074   007585   007834   007295   007937   007404   006200   007683   007603   007458   007285                                      
690001600110016 00070 4113001Dev. PONTCHARRA EST 0180000Carf. RD38          0180360PONTCHARRA          0180150000360000000690001600300000000000206      007749 0767    007225   007523   007945   007832   008113   008335   007739   006542   008206   008033   007909   007610               150076551 0707    140074321 0787    130073901 0867    120000001         110090701    7    007122   007364   007933   008112   007606   008270   007717   006457   008025   007905   007796   007579                                      
690001500310016 00070 4813001Dev. Pontcharra W   0150000Dev. Pontcharra E   0180000Pontcharra dév. Temp0170000003000000000690001600300000000000206      012731                                                                                                                                 150124978         140121438         130120268         120000008         110148338                                                                                                                                                        
690001500210016 00070 4813001Dev. Pontcharra W   0150000Dev. Pontcharra E   0180000Pontcharra dév. Temp0170000003000000000690001600300000000000206      000000                                                                                                                                 150000008         140000008         130000008         120000008         110000008                                                                                                                                                        
690001500110016 00070 4813001Dev. Pontcharra W   0150000Dev. Pontcharra E   0180000Pontcharra dév. Temp0170000003000000000690001600300000000000206      000000                                                                                                                                 150000008         140000008         130000008         120000008         110000008                                                                                                                                                        
690001400310016 00070 4843001Entrée Tarare Ouest 0100250Dev. Pontcharra W   0150000Tarare Temporaire   0120000004750004750690001600300000000000206      007059                                                                                                                                 150069298         140067338         130066688         120000008         110082258                                                                                                                                                        
690001400210016 00070 4843001Entrée Tarare Ouest 0100250Dev. Pontcharra W   0150000Tarare Temporaire   0120000004750004750690001600300000000000206      000000                                                                                                                                 150000008         140000008         130000008         120000008         110000008                                                                                                                                                        
690001400110016 00070 4843001Entrée Tarare Ouest 0100250Dev. Pontcharra W   0150000Tarare Temporaire   0120000004750004750690001600300000000000206      000000                                                                                                                                 150000008         140000008         130000008         120000008         110000008                                                                                                                                                        
690001300310016 00070 4115001COL DU PIN BOUCHAIN 0000000Entrée TARARE OUEST 0100250TARARE_OUEST        0090150010250000000690001600300000000000200      005416 0667    005192   005429   005787   005878   005802   004625   004489   005591   006062   005579   005289   005277               150055981 0657    140059241 0857    130060921         120000001         110000001         005064   005232   005618   005655   004659   006003   006263   005621   006014   005904   005608   005528                                      
690001300210016 00070 4115001COL DU PIN BOUCHAIN 0000000Entrée TARARE OUEST 0100250TARARE_OUEST        0090150010250000000690001600300000000000200      002700 0637    002584   002739   002893   002976   002870   002301   002249   002798   002969   002771   002611   002644               150028181 0617    140029601 0807    130030431         120000001         110000001         002582   002693   002844   002882   002374   002994   003147   002801   002996   002954   002782   002766                                      
690001300110016 00070 4115001COL DU PIN BOUCHAIN 0000000Entrée TARARE OUEST 0100250TARARE_OUEST        0090150010250000000690001600300000000000200      002716 0737    002608   002690   002894   002902   002932   002324   002240   002793   003093   002808   002678   002633               150027801 0747    140029641 0947    130030491         120000001         110000001         002482   002539   002774   002773   002285   003009   003116   002820   003018   002950   002826   002762                                      
690000601310016 00060 4140201Ech. RD73D          0400000Ech. A6 DARDILLY    0420150DARDILLY_LES_BROSSES0410000002030002030690001600300000000000206      000000                                                                                                                                 150000001         140000001         130000001         120000001         110000001                                                                                                                                                        
690000601210016 00060 4140201Ech. RD73D          0400000Ech. A6 DARDILLY    0420150DARDILLY_LES_BROSSES0410000002030002030690001600300000000000206      000000                                                                                                                                 150000001         140000001         130000001         120000001         110000001                                                                                                                                                        
690000601110016 00060 4140201Ech. RD73D          0400000Ech. A6 DARDILLY    0420150DARDILLY_LES_BROSSES0410000002030002030690001600300000000000206      000000                                                                                                                                 150000001         140000001         130000001         120000001         110253051    7                                                                                                                                                   
580002701310016 01510 4112001Sud Dev.            0510878Dpt. 89             0580730CLAMECY             0530532006852000000690001600300000000000311      002968 2577    002419   002578   002734   002986   003124   003403   003757   003632   003210   002640   002526   002586               150030191 2507    140031581 2477    130031041 2487    120000001         110000001         002462   002665   002762   003154   003273   003416   003694   003796   003288   003062   002107   002510                                      
580002701210016 01510 4112001Sud Dev.            0510878Dpt. 89             0580730CLAMECY             0530532006852000000690001600300000000000311      001491 2627    001194   001295   001376   001511   001576   001713   001974   001761   001606   001271   001284   001322               150015071 2557    140015791 2517    130015501 2537    120000001         110000001         001236   001346   001385   001607   001648   001705   001904   001840   001633   001521   000973   001261                                      
580002701110016 01510 4112001Sud Dev.            0510878Dpt. 89             0580730CLAMECY             0530532006852000000690001600300000000000311      001477 2487    001225   001283   001358   001475   001548   001690   001783   001871   001604   001369   001242   001264               150015121 2407    140015791 2387    130015541 2397    120000001         110000001         001226   001319   001377   001547   001625   001711   001790   001956   001655   001541   001134   001249                                      
580002600310016 01510 4813001VARZY               0350958CLAMECY-NORD        0510878St-Pierre-du-Mont   0400000019090000000580002500300000000000311      002105                                                                                                                                 150021598         140022138         130021298         120000008         110022728                                                                                                                                                        
580002500310016 01510 4112001CHATEAUNEUF V.BARGIS0200512VARZY               0350958LES_PONTOTS         0260000015446000000580002500300000000000309      002088 1907    001661   001810   001968   002054   002209   002454   002626   002661   002287   001926   001676   001705               150021411 1967    140021941 1488    130021101 1448    120000001         110022511 2157    001671   001842   001938   002196   002242   002368   002568   002698   002257   002115   001913   001855                                      
580002500210016 01510 4112001CHATEAUNEUF V.BARGIS0200512VARZY               0350958LES_PONTOTS         0260000015446000000580002500300000000000309      001049 1867    000830   000904   000980   001037   001110   001223   001358   001319   001137   000952   000866   000864               150010761 1927    140011041 1448    130010581 1418    120000001         110011271 2107    000830   000917   000963   001119   001138   001197   001352   001342   001123   001050   000940   000925                                      
580002500110016 01510 4112001CHATEAUNEUF V.BARGIS0200512VARZY               0350958LES_PONTOTS         0260000015446000000580002500300000000000309      001039 1987    000831   000906   000988   001017   001099   001231   001268   001342   001150   000974   000810   000841               150010651 2047    140010901 1578    130010521 1498    120000001         110011241 2217    000841   000925   000975   001077   001104   001171   001216   001356   001134   001065   000973   000930                                      
580002300310016 01510 4812001Dpt. 18             0000000CHATEAUNEUF V.BARGIS0200512La Charité          0010500020331000000580002500300000000000311      002019                                                                                                                                 150020718         140021238         130020428         120000008         110021798                                                                                                                                                        
580001200310016 00070 4112001ST_PIERRE           0920100Dpt. 03             1070760LE_MOUTIER          0950700015660000000580002500300000000000307      014034 3407    010851   012674   012558   013869   013934   014698   017450   018503   014330   014139   012389   012890               150140411 3337    140138661 3317    130137121 3357    120000001         110140001 3367    010917   012661   012422   014371   014686   014463   017447   018861   014233   013985   011806   012467                                      
580001200210016 00070 4112001ST_PIERRE           0920100Dpt. 03             1070760LE_MOUTIER          0950700015660000000580002500300000000000307      006928 3457    005460   006249   006266   006826   006921   007152   008116   009275   007276   006974   006278   006291               150069461 3387    140068681 3357    130067821 3397    120000001         110069921 3407    005477   006168   006291   006935   007340   007087   008109   009630   007235   006981   005953   006056                                      
580001200110016 00070 4112001ST_PIERRE           0920100Dpt. 03             1070760LE_MOUTIER          0950700015660000000580002500300000000000307      007106 3307    005391   006425   006292   007043   007013   007546   009334   009228   007054   007165   006111   006599               150070951 3247    140069981 3227    130069301 3287    120000001         110070081 3307    005440   006493   006131   007436   007346   007376   009338   009231   006998   007004   005853   006411                                      
580001101310016 00770 1110241NEVERS              1480000ST_PIERRE           1641118PLAGNY              1640200017200000000580002500300000000000507      013335 2087    010271   011571   012074   013140   013318   014127   016049   016377   014318   013998   012234   012434               150071191 2067    140133451 2067    130131911 2027    120000001         110000001         005285   006260   006174   007458   007454   007450   009268   009028   006993   007612   005944   006408                                      
580001101210016 00770 1110241NEVERS              1480000ST_PIERRE           1641118PLAGNY              1640200017200000000580002500300000000000507      006468 2087    005111   005589   005933   006304   006447   006693   007213   008238   007073   006822   006150   005992               150002621 2637    140066241 2097    130064891 2047    120000001         110000001         000160   000228   000244   000301   000337   000324   000371   000541   000349   000288   000000   000000                                      
580001101110016 00770 1110241NEVERS              1480000ST_PIERRE           1641118PLAGNY              1640200017200000000580002500300000000000507      006867 2087    005160   005982   006141   006836   006871   007434   008836   008139   007245   007176   006084   006442               150068571 2027    140067211 2017    130067021 1987    120000001         110069641 1947    005125   006032   005930   007157   007117   007126   008897   008487   006644   007324   005944   006408                                      
580001007310016 00070 4812001Chaume des pendus   0770000St Pierre le Mtier  0920100Magny-Cours         0820000015100000000580001200300000000000309      012705                                                                                                                                 150127128         140125548         130124158         120000008         110126768                                                                                                                                                        
580000600310016 00770 1110241SUD LA MARCHE       1390600NEVERS              1480000PRIEZ               1440415008400000000580001200300000000000309      000000                                                                                                                                 150000001         140000001         130000001         120000001         110000001                                                                                                                                                        
580000600210016 00770 1110241SUD LA MARCHE       1390600NEVERS              1480000PRIEZ               1440415008400000000580001200300000000000309      000000                                                                                                                                 150000001         140000001         130000001         120000001         110000001                                                                                                                                                        
580000600110016 00770 1110241SUD LA MARCHE       1390600NEVERS              1480000PRIEZ               1440415008400000000580001200300000000000309      000000                                                                                                                                 150000001         140000001         130000001         120000001         110000001                                                                                                                                                        
580000400310016 00770 1110241Dev. Cosne          1130900SUD LA MARCHE       1390600LA_CHARITE          1270640025700000000580001200300000000000307      014351 2057    011411   012871   013206   014461   014562   015314   017135   016955   014799   015018   012860   013519               150140961 2007    140139991 2007    130137111 2007    120000001         110140641 1997    011059   012562   012611   014657   014889   014513   016661   017198   014146   014754   012631   013307                                      
580000400210016 00770 1110241Dev. Cosne          1130900SUD LA MARCHE       1390600LA_CHARITE          1270640025700000000580001200300000000000307      007128 2047    005810   006326   006621   007063   007307   007467   007938   008740   007514   007580   006363   006751               150070011 1977    140069311 1977    130067521 1987    120000001         110069241 1997    005616   006187   006382   007119   007507   007162   007713   008788   007168   007366   006426   006491                                      
580000400110016 00770 1110241Dev. Cosne          1130900SUD LA MARCHE       1390600LA_CHARITE          1270640025700000000580001200300000000000307      007223 2087    005601   006545   006585   007398   007255   007847   009197   008215   007285   007438   006497   006768               150070951 2067    140070681 2057    130069591 2057    120000001         110071401 1997    005443   006375   006229   007538   007382   007351   008948   008410   006978   007388   006205   006816                                      
580000200310016 00770 1810241Maltaverne          1000500Dev. Cosne          1130900Cosne S/Loire       1050000013400000000000000000000000000000309      000000                                                                                                                                 150000008         140000008         130000008         120000008         110000008                                                                                                                                                        
420501300310016 00720 1110431Ech. RATARIEUX      0090210Ech. RN82 RD498     0170182LA_FOUILLOUSE       0120100007910000000000000000000000000000180      084642 0877    079143   082501   084502   086837   082192   088339   086353   077960   089131   087797   085501   085666               150826621 0877    140769111 0917    130793971 0977    120000001         110849331    7    077143   079575   083304   085262   080079   085809   084916   075002   086992   086902   082927   084069                                      
420501300210016 00720 1110431Ech. RATARIEUX      0090210Ech. RN82 RD498     0170182LA_FOUILLOUSE       0120100007910000000000000000000000000000180      042588 0867    039730   041365   042235   043447   042232   045021   043456   038947   044656   044011   042994   043066               150412401 0867    140406081 0877    130401361 0987    120000001         110434131    7    038626   039805   041557   042562   040036   041875   042276   037423   043522   043414   041592   042198                                      
420501300110016 00720 1110431Ech. RATARIEUX      0090210Ech. RN82 RD498     0170182LA_FOUILLOUSE       0120100007910000000000000000000000000000180      042054 0907    039413   041136   042267   043390   039960   043318   042897   039013   044475   043786   042507   042600               150414221 0907    140363031 1017    130392611 0967    120000001         110415201    7    038517   039770   041747   042700   040043   043934   042640   037579   043470   043488   041335   041871                                      
420500800310016 00720 1150231Ech. ST JEAN BONNEFO0000000Ech. RATARIEUX      0090210MEONS               0020750009140009140000000000000000000000190      082989 0917    078668   081663   084061   085434   082149   087771   082911   075169   086334   086348   083303   082321               150819501 0917    140813041 0917    130810761 0917    120000001         110861241    7    076719   080064   084348   084715   079497   087355   083256   071589   086407   085002   082092   082595                                      
420500800210016 00720 1150231Ech. ST JEAN BONNEFO0000000Ech. RATARIEUX      0090210MEONS               0020750009140009140000000000000000000000190      041199 0907    039255   040472   041846   042524   041008   043813   041216   037145   041605   043113   041413   041079               150407541 0907    140402561 0907    130400781 0917    120000001         110427421    7    038210   039836   041922   041941   039600   043179   041634   035815   042776   042095   040988   041159                                      
420500800110016 00720 1150231Ech. ST JEAN BONNEFO0000000Ech. RATARIEUX      0090210MEONS               0020750009140009140000000000000000000000180      041790 0947    039413   041191   042215   042910   041141   043958   041695   038024   044729   043235   041890   041242               150411961 0947    140410481 0947    130409981 0917    120000001         110433821    7    038509   040228   042426   042774   039897   044176   041622   035774   043631   042907   041104   041436                                      
420500700310016 00470 1110231Ech. COUZON         0230000Ech. LA VARIZELLE   0291316PARADIS             0280730007340000000000000000000000000000191      000000                                                                                                                                 150000001         140000001         130643631 1187    120000001         110689681 1177                                                                                                                                                   
420500700210016 00470 1110231Ech. COUZON         0230000Ech. LA VARIZELLE   0291316PARADIS             0280730007340000000000000000000000000000191      000000                                                                                                                                 150000001         140000001         130320411 1157    120000001         110348701 1137                                                                                                                                                   
420500700110016 00470 1110231Ech. COUZON         0230000Ech. LA VARIZELLE   0291316PARADIS             0280730007340000000000000000000000000000191      000000                                                                                                                                 150000001         140000001         130323221 1247    120000001         110340981 1267                                                                                                                                                   
420500500310016 00470 1110231Ech. LA MADELEINE   0140000Ech.COUZON          0230000GRAND_CROIX         0220000008478000000000000000000000000000180      000000                                                                                                                                 150000001         140747781 1017    130746821 1037    120000001         110792991 1097                                                                                                                                                   
420500500210016 00470 1110231Ech. LA MADELEINE   0140000Ech.COUZON          0230000GRAND_CROIX         0220000008478000000000000000000000000000180      000000                                                                                                                                 150000001         140372381 0987    130371261 1007    120000001         110399281 1077                                                                                                                                                   
420500500110016 00470 1110231Ech. LA MADELEINE   0140000Ech.COUZON          0230000GRAND_CROIX         0220000008478000000000000000000000000000180      000000                                                                                                                                 150000001         140375401 1087    130375561 1107    120000001         110393711 1147                                                                                                                                                   
420008400310016 00880 4150201Ech. CHAZEAU        0510300Dpt. 43             0520400CHAZEAU             0520200001100001100000000000000000000000184      028675 0677    025824   026717   027836   028887   028476   030469   030931   027514   030774   030052   028594   028034               150279621 0667    140278801 0677    130270051 0647    120000001         110280861    7    024631   025141   027381   028803   028127   029900   030043   025553   029880   029789   028103   028078                                      
420008400210016 00880 4150201Ech. CHAZEAU        0510300Dpt. 43             0520400CHAZEAU             0520200001100001100000000000000000000000396      014511 0687    013116   013481   014007   014510   014689   015344   015602   013972   015572   015193   014541   014104               150141301 0657    140141271 0657    130136161 0627    120000001         110142261    7    012489   012680   013848   014471   014190   015101   014832   013435   015103   014992   014250   014105                                      
420008400110016 00880 4150201Ech. CHAZEAU        0510300Dpt. 43             0520400CHAZEAU             0520200001100001100000000000000000000000396      014164 0667    012708   013236   013829   014377   013787   015125   015329   013542   015202   014859   014053   013930               150138321 0687    140137531 0707    130133891 0697    120000001         110138601    7    012142   012461   013533   014332   013937   014799   015211   012118   014777   014797   013853   013973                                      
420008300310016 00880 4150201Ech. FIRMINY CENTRE 0490350Ech. CHAZEAU        0510300LA_TARDIVE          0500200001950001950000000000000000000000184      030398 0647    027591   028488   029579   030602   030429   032243   032501   028392   032620   032017   030395   029932               150296841 0637    140297091         130288411         120000001         110298681         026158   026698   029149   030408   029563   031490   031549   027985   031601   031700   029864   029906                                      
420008300210016 00880 4150201Ech. FIRMINY CENTRE 0490350Ech. CHAZEAU        0510300LA_TARDIVE          0500200001950001950000000000000000000000184      016100 0627    014713   015088   015657   016123   016162   017016   017121   015021   017254   016931   016264   015855               150156751 0637    140156061 0707    130151791 0747    120000001         110156381    7    013940   014150   015452   015997   015644   016733   016355   014732   016706   016669   015861   015799                                      
420008300110016 00880 4150201Ech. FIRMINY CENTRE 0490350Ech. CHAZEAU        0510300LA_TARDIVE          0500200001950001950000000000000000000000184      014298 0687    012878   013400   013922   014479   014267   015227   015380   013371   015366   015086   014131   014077               150140091 0647    140141031         130136621         120000001         110142301         012218   012548   013697   014411   013919   014757   015194   013253   014895   015031   014003   014107                                      
420008200310016 00880 4850201Ech. FIRMINY EST    0470720Ech. FIRMINY CENTRE 0490350Firminy Ouest       0480200001980001980420008000300000000000184      032520                                                                                                                                 150303218         140317318         130305868         120000008         110320118                                                                                                                                                        
420008200210016 00880 4850201Ech. FIRMINY EST    0470720Ech. FIRMINY CENTRE 0490350Firminy Ouest       0480200001980001980420008000200000000000184      016451                                                                                                                                 150145528         140160268         130155298         120000008         110162228                                                                                                                                                        
420008200110016 00880 4850201Ech. FIRMINY EST    0470720Ech. FIRMINY CENTRE 0490350Firminy Ouest       0480200001980001980420008000100000000000184      016069                                                                                                                                 150157698         140157058         130150578         120000008         110157898                                                                                                                                                        
420008100310016 00880 4850201Ech. CHAMBON FEUGERO0450224Ech. FIRMINY EST    0470720Chambon-Feugerolles 0460000002496002496420008000300000000000184      042655                                                                                                                                 150398748         140416258         130401138         120000008         110419868                                                                                                                                                        
