860000900310016 00100 411 251CHAUNAY EX RN 10    1000110DEPARTEMENT 79      1070118CHAUNAY             1060430006881006881          79000010030187      014984 3407    012921   013637   014268   015662   015184   015432   016964   018036   013024   015329   014363   014863               150149191 3427    140146081         130144641 3467    120140021 3497    110143951 3687    012772   013657   013672            015370   014960   015937   018577   015515   014865   014012   014643                                      
860000900210016 00100 411 251CHAUNAY EX RN 10    1000110DEPARTEMENT 79      1070118CHAUNAY             1060430006881006881          79000010030187      007264 3307    006477   006703   007057   007724   007640   007572   007162   009188   005401   007632   007301   007243               150072881 3307    140073881         130071441 3367    120068221 3387    110070981 3567    006252   006649   006757            007644   007207   006721   009691   007753   007305   007032   007099                                      
860000900110016 00100 411 251CHAUNAY EX RN 10    1000110DEPARTEMENT 79      1070118CHAUNAY             1060430006881006881          79000010030187      007720 3587    006444   006934   007211   007938   007544   007860   009802   008848   007623   007697   007062   007620               150076311 3647    140072201         130073201 3677    120071801 3727    110072971 3927    006520   007008   006915            007726   007753   009216   008886   007762   007560   006980   007544                                      
860000701310016 00100 411 251RD 742              0740535COUHE EX RN 10      0870550LES MINIERES        0770180013021013021                    0187      019215 3057    016602   017407   018213   019550   019058   019556   021799   022498   019433   019300   018320   018721               150187001 3097    140184181 3037    130181631 3097    120158711 3067    110171541 3307    016394   017348   017406   019257   018916   019041   020711   021830   018867   018828   017457   018215                                      
860000701210016 00100 411 251RD 742              0740535COUHE EX RN 10      0870550LES MINIERES        0770180013021013021                    0187      009730 3047    008450   008695   009172   009799   009694   009809   010395   012199   010003   009774   009394   009304               150094171 3087    140093061 3037    130092191 3087    120069671 3007    110081131 3287    008258   008671   008804   009540   009605   009564   009935   011589   009648   009450   008879   008990                                      
860000701110016 00100 411 251RD 742              0740535COUHE EX RN 10      0870550LES MINIERES        0770180013021013021                    0187      009485 3057    008152   008712   009041   009751   009364   009747   011404   010299   009430   009526   008926   009417               150092831 3127    140091121 3047    130089441 3127    120089041 3167    110090411 3337    008136   008677   008602   009717   009311   009477   010776   010241   009219   009378   008578   009225                                      
860000600310016 00100 411 251RN 11               0620334RD 742              0740535RUFFIGNY            0660350012140012140                    0187      024215 2477    021448   022178            024542   023894   024711   026392   026608   024702   024425   023468   023886               150235081 2537    140231931 2477    130227931 2527    120000001         110224881 2597    020865   022174   022245   024120   023326            025226   025633   024023   023956   022922   023586                                      
860000600210016 00100 411 251RN 11               0620334RD 742              0740535RUFFIGNY            0660350012140012140                    0187      012203 2517    010856   011045            012276   012080   012376   012619   014220   012624   012298   011942   011835               150117831 2567    140116251 2507    130113951 2567    120000001         110112701 2607    010488   011050   011198   011812   011774   012190   012079   013225   012220   011998   011633   011677                                      
860000600110016 00100 411 251RN 11               0620334RD 742              0740535RUFFIGNY            0660350012140012140                    0187      012012 2397    010592   011133            012266   011814   012335   013773   012388   012078   012127   011526   012051               150117251 2467    140115681 2417    130113981 2457    120000001         110112181 2587    010377   011124   011047   012308   011552            013147   012408   011803   011958   011289   011909                                      
860000501310016 00100 411 251EX RN 10            0580890RN 11               0620334CROUTELLE           0600785003454002649                    0187      033820 1977    030448   031382   033008   034516   033668   034685   036339   036147   034954   034254   033015   033337               150332531 1987    140332461 1967    130329381 1987    120315561 2057    110316511 2157    029897   031763   031818   035277   033876   035112   034998   035528   034047   033008   032118   031569                                      
860000501210016 00100 411 251EX RN 10            0580890RN 11               0620334CROUTELLE           0600785003454002649                    0187      017088 1957    015449   015727   016614   017321   017084   017367   017549   019165   017853   017311   016834   016733               150167071 1957    140167661 1947    130166081 1967    120155371 2027    110160301 2117    015092   015895   016037   017477   017050   017574   016974   018593   017369   016317   016345   015749                                      
860000501110016 00100 411 251EX RN 10            0580890RN 11               0620334CROUTELLE           0600785003454002649                    0187      016732 1997    014999   015655   016394   017195   016584   017318   018790   016982   017101   016943   016181   016604               150165461 2037    140164801 2017    130163301 2037    120160191 2117    110156211 2227    014805   015868   015781   017800   016826   017538   018024   016935   016678   016691   015773   015820                                      
790002301310016 02480 4113 51A 10                0000000RN 11               0080758LES GRELLES         0040950008967008967                    0187      008128 1207    005998   006618   007132   008677   008962   008498   010515   010420   008595   008047   006958   007033               150078941 1177    140076521 1197    130000001         120000001         110052681         005631   006397   006606   008437   009002   008448   010017   010347   008200   007760   006769   006972                                      
790002301210016 02480 4113 51A 10                0000000RN 11               0080758LES GRELLES         0040950008967008967                    0187      004075 1237    003149   003310   003591   004264   004528   004178   004968   005504   004367   003957   003610   003430               150039701 1217    140038291 1217    130000001         120000001         110026611         002914   003204   003367   003968   004655   004196   004773   005445   004214   003902   003493   003429                                      
790002301110016 02480 4113 51A 10                0000000RN 11               0080758LES GRELLES         0040950008967008967                    0187      004053 1137    002849   003308   003541   004413   004434   004320   005547   004916   004228   004090   003348   003603               150039241 1117    140038231 1157    130000001         120000001         110026071         002717   003193   003239   004469   004347   004252   005244   004902   003986   003858   003276   003543                                      
790000806310016 00110 411 251RN 248              0540000DEPARTEMENT 17      0650681EPANNES             0560700012045012045          17000030030187      019260 1117    016194   017500   018903   021235   022239   020368                                                                     150198261 1087    140194051 1077    130190541 1137    120189641 1087    110190541 1077    015555   017054   018007   021231   021367   021248   023563   024255   020457   019452   017799   017694                                      
790000806210016 00110 411 251RN 248              0540000DEPARTEMENT 17      0650681EPANNES             0560700012045012045          17000030030187      009653 1187    008259   008731   009445   010514   011220   010065                                                                     150099541 1147    140097241 1137    130095511 1187    120094831 1107    110095301 1087    007884   008525   009045   010406   010926   010588   011438   012509   010419   009788   009031   008767                                      
790000806110016 00110 411 251RN 248              0540000DEPARTEMENT 17      0650681EPANNES             0560700012045012045          17000030030187      009607 1037    007935   008769   009458   010721   011019   010303                                                                     150098721    7    140096811    7    130095031 1037    120094811 1067    110095241 1037    007671   008529   008962   010825   010441   010660   012125   011746   010038   009664   008768   008927                                      
640003200310016 01340 4113001OGEU                0580450OGEU                0580450OGEU                0580450000000000000          00000000000316      007947 0727    007427   007674   007877   007980   007831   008259   008014   007967   008364   008273   007868   007830               150079541    7    140000001    0    130000001    0    120000001    0    110000001    0    007191   007128   007935   007988   007694   008447   008391   008009   008347   008200   008008   007788                                      
640003200210016 01340 4113001OGEU                0580450OGEU                0580450OGEU                0580450000000000000          00000000000316      003968 0707    003727   003828   003941   003977   003917   004125   003941   004014   004166   004118   003965   003896               150039681    7    140000001         130000001         120000001         110000001         003601   003709   003978   003963   003851   004219   004147   004006   004167   004090   004014   003858                                      
640003200110016 01340 4113001OGEU                0580450OGEU                0580450OGEU                0580450000000000000          00000000000316      003979 0767    003700   003846   003936   004003   003914   004134   004073   003953   004198   004155   003903   003934               150039861    7    140000001    0    130000001    0    120000001    0    110000001    0    003590   003719   003957   004025   003843   004228   004244   004003   004180   004110   003994   003930                                      
640003100310016 11340 4113 51RN 134 PR 115       1160000ESPAGNE             1190000FORGES D'ABEL-TUNNE 1160200003798003798                    0106      001246 2217    000822   000936   001066   001119   001194   001228   001878   002409   001324   001166   000837   000932               150009481 2587    140008821 1847    130010921 2427    120010721 2507    110011021 2397    000733   000783   000936   001161   001204   001081                                       000776   000903                                      
640003100210016 11340 4113 51RN 134 PR 115       1160000ESPAGNE             1190000FORGES D'ABEL-TUNNE 1160200003798003798                    0106      000608 2257    000419   000462   000525   000550   000583   000609   000848   001216   000630   000570   000427   000441               150004631 2707    140003831 1937    130005261 2457    120005261 2557    110005401 2467    000370   000387   000467   000544   000594   000527                                       000392   000420                                      
640003100110016 11340 4113 51RN 134 PR 115       1160000ESPAGNE             1190000FORGES D'ABEL-TUNNE 1160200003798003798                    0106      000638 2127    000403   000474   000541   000569   000611   000619   001030   001193   000694   000596   000410   000491               150004851 2477    140004991 1707    130005661 2357    120005461 2407    110005621 2267    000363   000396   000469   000617   000610   000554                                       000384   000483                                      
640003003310016 01340 4113 51URDOS EB 20         1090270ESPAGNE SOMPORT     1230278COL DU SOMPORT      1230000013891013891                    0194      000359 0677    000434   000486   000700   000232   000150   000195   000411   000652   000254   000260   000128                        150003901    7    140005051    7    130004291         120003661    7    110003411    7    000684   000416   000601   000377   000160   000149            000630                                                                          
640003003210016 01340 4113 51URDOS EB 20         1090270ESPAGNE SOMPORT     1230278COL DU SOMPORT      1230000013891013891                    0194      000192 0677    000221   000248   000365   000121   000085   000111   000225   000357   000140   000142   000069                        150002031    7    140002471    7    130002221    7    120001871    7    110001841    7    000352   000189   000309   000200   000092   000084            000342                                                                          
640003003110016 01340 4113 51URDOS EB 20         1090270ESPAGNE SOMPORT     1230278COL DU SOMPORT      1230000013891013891                    0194      000167 0687    000213   000238   000335   000111   000065   000084   000186   000295   000114   000118   000059                        150001871    7    140002581    7    130002071         120001791    7    110001571    7    000332   000227   000292   000177   000068   000065            000288                                                                          
640002900310016 01340 4113 51RD 918              0780376RD 237              0920475SARRANCE            0860700013922013297                    0187      003426 1357    002704   002948   003109   003395   003492   003598   004373   005074   003611   003334   002664   002765               150033921 1427    140000001         130031561 1257    120000001         110032311    7    002501   002406   002955   003301   003318   003551   004305   005079   003686   003413   003116   002991                                      
640002900210016 01340 4113001918                 0780376937                 0920475SARRANCE            0860700013922013297          00000000000212      001712 1377    001382   001478   001567   001693   001742   001805   002101   002592   001789   001663   001353   001354               150016911 1497    140000001         130015821 1287    120000001         110016241    7    001273   001195   001486   001622   001671   001778   002074   002569   001837   001708   001575   001462                                      
640002900110016 01340 4113001918                 0780376937                 0920475SARRANCE            0860700013922013297          00000000000212      001714 1307    001322   001470   001542   001702   001750   001793   002272   002482   001822   001671   001311   001411               150017011 1287    140000001         130015741 1187    120000001         110016071 1147    001228   001211   001469   001679   001647   001773   002231   002510   001849   001705   001541   001529                                      
640002801310016 01340 4112 51RD 918              0760615RD 918              0780376ASASP               0780186001751001200                    0187      003895 1137    003424   003630   003762   004004   004077            004865   004894   004185   003768   002878   003313               150040541 1237    140036801    7    130038171 121     120000001         110039241 1177    003169   003038   003614   004044   004085   004342   004712   005314            004579   003795   003816                                      
640002801210016 01340 4112 51RD 918              0760615RD 918              0780376ASASP               0780186001751001200                    1292      001937 1117    001736   001811   001886   001988   002027            002338   002473   002070   001879   001456   001621               150020251 1217    140018281    7    130019091 1207    120000001         110019521 1167    001614   001510   001827   002002   002054   002175   002325   002654            002299   001905   001866                                      
640002801110016 01340 4112 51RD 918              0760615RD 918              0780376ASASP               0780186001751001200                    1292      001958 1167    001688   001819   001876   002016   002050            002527   002421   002115   001889   001422   001692               150020291 1267    140018521    7    130019081 1227    120000001         110019721 1207    001555   001528   001787   002042   002031   002167   002387   002660            002280   001890   001950                                      
640002500310016 01340 4113001ESTANGUET           0980270ESTANGUET           0980270ESTANGUET           0980270000000000000          00000000000316      002441 1467    001684   001876   001943   002131   002266   002509   003632   004425   002709   002413   001764   001886               150020271 1527    140000001    0    130000001    0    120000001    0    110000001    0    001575   001503   001796   002195   002316   002262                     002521   002240   001934   001902                                      
640002500210016 01340 4113001ESTANGUET           0980270ESTANGUET           0980270ESTANGUET           0980270000000000000          00000000000316      001220 1447    000866   000945   000982   001063   001132   001264   001739   002262   001339   001206   000900   000920               150010161 1537    140000001         130000001         120000001         110000001         000811   000750   000918   001077   001173   001133                     001255   001124   000982   000924                                      
640002500110016 01340 4113001ESTANGUET           0980270ESTANGUET           0980270ESTANGUET           0980270000000000000          00000000000316      001221 1497    000818   000931   000961   001068   001134   001245   001893   002163   001370   001207   000864   000966               150010111 1517    140000001    0    130000001    0    120000001    0    110000001    0    000764   000753   000878   001118   001143   001129                     001266   001116   000952   000978                                      
640002400310016 01340 4112 51RD 920              0610579OLORON EB 10        0660852OLORON              0650800005297005046                    0187      011309 0557    010524   010892   011244   011247   011099   011771   011408   011488   011987   011673   011252   011134               150112871    7    140110651    7    130108911    7    120108871    7    110100891    7    010343   010575   011318   011081   010840   011968   011844   011499   011914   011699   011244   011074                                      
640002400210016 01340 4112 51RD 920              0610579OLORON EB 10        0660852OLORON              0650800005297005046                    0187      005645 0537    005281   005436   005618   005605   005544   005873   005629   005747   005971   005818   005664   005562               150056251    7    140055171    7    130054291    7    120054241    7    110050391    7    005165   005267   005659   005484   005414   005980   005868   005731   005942   005834   005627   005505                                      
640002400110016 01340 4112 51RD 920              0610579OLORON EB 10        0660852OLORON              0650800005297005046                    0187      005664 0577    005243   005456   005626   005642   005555   005898   005779   005741   006016   005855   005588   005572               150056621    7    140055481    7    130054621    7    120054631    7    110050501    7    005178   005308   005659   005597   005426   005988   005976   005768   005972   005865   005617   005569                                      
640002200310016 01340 4113 51PAU                 0370418RD 934              0440600JURANCON            0400100007301005646                    0187      018392 0577    017182   018212   018582   018403   017931   018853   018552   018595   019072   019079   017885   018360               150182931    7    140179121    7    130174741    7    120175361    7    110178681         017435   017461   018331   018301   017469   018784   018882   018468   019053   018898   017936   018451                                      
640002200210016 01340 4113 51PAU                 0370418RD 934              0440600JURANCON            0400100007301005646                    0187      009210 0577    008633   009105   009283   009228   009000   009443   009214   009406   009512   009551   008983   009162               150091641    7    140089501    7    130087141    7    120087401    7    110089001    7    008767   008747   009180   009141   008773   009424   009425   009314   009550   009475   008973   009178                                      
640002200110016 01340 4113 51PAU                 0370418RD 934              0440600JURANCON            0400100007301005646                    0187      009182 0577    008549   009107   009299   009175   008931   009410   009338   009189   009560   009528   008902   009198               150091291    7    140089621    7    130087601    7    120087961    7    110089681         008668   008714   009151   009160   008696   009360   009457   009154   009503   009423   008963   009273                                      
330564200210016 02300 411 401ECH.23              0360643ECH.24              0390541S42 ROCADE-INT      0370309002897002897          000       0194      055989 1597    050241   054329   054504   058612   056294   059569   066039   061390   057618   045096   053373   054870               150565971 1557    140554061 1537    130545461 1537    120532441 1567    110491241         049740   053298   053783   058129   055397   059866   065723   060332   058121   056438   052199   055881                                      
330554200110016 02300 411 401ECH.23              0360643ECH.24              0390541S42 ROCADE-EXT      0370309002897002897          000       0194      058398 1417    052297   054783   055480   059108   057818   060194   062502   068421   060413   058209   056011   055376               150569131 1407    140554261 1397    130545241 1417    120525371 1487    110528941         050707   052823   054737   057505   056654   060031   060372   065760   059358   057032   053100   054555                                      
330550601310016 00630 1110241ECHANGEUR CESTAS    0060000RD 211              0110830CESTAS(S64)         0070600005808005808          00000000000187      064239 1847    054355   059593   063392   067757   056138   062403   074433   077017   064236   065591   062271   063371               150641551 1837    140000001    0    130000001    0    120000001    0    110000001    0    052967   055408   058568   065409   064341   066324   078394   081509   064456   062939   059000   060623                                      
330550601210016 00630 1110241ECHANGEUR CESTAS    0060000RD 211              0110830CESTAS(S64)         0070600005808005808          00000000000187      029682 2047    026401   028973   031263   032210   022821   025378   029021   036449   030644   031573   031045   030377               150302501 1977    140000001    0    130000001    0    120000001    0    110000001    0    026345   026204   028092   030613   030269   029813   034307   040062   030192   029848   028884   028447                                      
330550601110016 00630 1110241ECHANGEUR CESTAS    0060000RD 211              0110830CESTAS(S64)         0070600005808005808          00000000000187      034557 1677    027954   030620   032129   035547   033317   037025   045412   040568   033592   034018   031226   032994               150339051 1707    140000001    0    130000001    0    120000001    0    110000001    0    026622   029204   030476   034796   034072   036511   044087   041447   034264   033091   030116   032176                                      
330524300110016 02300 411 441ECH.24              0390541ECH.25              0400703ECENON (ROC-EXT)(S450400258001207001207          000       0290      060952 1487    054892   057744   058113   061896   060527   062884   065174   070736   062169   061210   058236   057682               150593581 1477    140580051 1467    130570731 1487    120564691 1487    110571151 1517    052911   055483   057527   060099   059214   062275   062744   067904   061026   059918   055696   057174                                      
330524200310016 02300 411 451ECH.22              0350247ECH.23              0360643S38 SENS 1+SENS 2   0360000001396001396          000       0194      112716 1537    100617   107430   108016   115671   112099   117887   126697   128303   116305   103221   107863   108361               151111991 1487    141089051 1487    131070851 1497    121056671 1497    111054961 1577    098183   104192   106552   113568   109825   117463   123910   123890   113564   111284   103324   108052                                      
330524200210016 02300 411 451ECH.22              0350247ECH.23              0360643ROCADE-INT(S38)     0360000001396001396          000       0194      055305 1557    049411   053602   053614   057622   055354   058695   065085   060462   056709   046197   052866   054089               150554851 1517    140544501 1507    130534001 1507    120525351 1497    110519851 1577    048709   052380   052892   057201   054446   058813   064484   059268   055999   055297   051358   054720                                      
330524200110016 02300 411 451ECH.22              0350247ECH.23              0360643ROCADE-EXT(S38)     0360000001396001396          000       0194      057411 1497    051206   053828   054402   058049   056745   059192   061612   067841   059596   057024   054997   054272               150557141 1437    140544551 1457    130536851 1467    120531321 1477    110535111 1577    049474   051812   053660   056367   055379   058650   059426   064622   057565   055987   051966   053332                                      
330523402310016 06300 1110241ECH.19              0310000ECH.21              0331224LA HOURCADE(S32)    0310345003924003924          00000000000187      140744 1307    127407   134541   136982   143246   137639   147497   153437   150865   143642   140207   136080   137227               151386191 1317    140000001    0    130000001    0    120000001    0    110000001    0    125227   130996   135843   142419   136633   146949   151337   146052   141388   139283   130680   136629                                      
330523402210016 06300 1110241ECH.19              0310000ECH.21              0331224ROCADE INTER(S32)   0310345003924003924          00000000000187      071141 1317    063545   067902   069228   072589   069603   075393   080299   073541   071933   070897   068311   070361               150697621 1337    140000001    0    130000001    0    120000001    0    110000001    0    062444   066076   067820   072286   068328   074626   078722   070956   070350   070003   065758   069779                                      
330523402110016 06300 1110241ECH.19              0310000ECH.21              0331224ROCADE EXTER(S32)   0310345003924003924          00000000000187      069603 1297    063862   066639   067754   070657   068036   072104   073138   077324   071709   069310   067769   066866               150688571 1297    140000001    0    130000001    0    120000001    0    110000001    0    062783   064920   068023   070133   068305   072323   072615   075096   071038   069280   064922   066850                                      
330522100310016 06300 1110241A 10                0000000ECHANGEUR LA BARDE  0050000ECHANGEUR LABARDE   0020000004954004954          00000000000188      108709 0577    101012   105675   106867   111577   110234   113671   111392   105512   113644   111480   107897   105729               151075721    7    140000001    0    130000001    0    120000001    0    110000001    0                               106865   104600   113524   112250   104106   111959   110413   105411   106025                                      
330522100210016 06300 1110241A 10                0000000ECHANGEUR LA BARDE  0050000ROCADE INTER(Ech4)  0020000004954004954          00000000000188      054704 0607    051148   053091   053898   056378   055767   057683   054337   053918   057362   055988   054388   052607               150538191    7    140000001    0    130000001    0    120000001    0    110000001    0    049448   051179   053830   053924   052723   057343   055196   052754   056729   056083   053346   053277                                      
330522100110016 06300 1110241A 10                0000000ECHANGEUR LA BARDE  0050000ROCADE EXTER(Ech4)  0020000004954004954          00000000000188      054005 0557    049864   052584   052969   055199   054467   055988   057055   051594   056282   055492   053509   053122               150537531    7    140000001    0    130000001    0    120000001    0    110000001    0                               052941   051877   056181   057054   051352   055230   054330   052065   052748                                      
330514300210016 02300 411 441ECH.24              0390541ECH.25              0400703ICENON (ROC-INT)(S440400258001207001207          000       0290      060979 1537    053971   058236   058653   062752   060558   064183   069610   064781   061825   060252   057765   059066               150599501 1527    140585971 1537    130578981 1527    120574291 1507    110582051 1547    052748   056635   057434   061528   059048   063167   068936   063126   060859   060347   055773   059523                                      
330513400310016 06310 111 241A630                0000000BEGLES              0021290BEGLES-A631(S50)    0010000002725002725                    0187      072715 0387    070292   070978   073528   073690   073121   077140   070831   063338   075629   075551   074583   074116               150729101    7    140000001         130000001         120000001         110703311    7    069794   071661   074194   074349   071222   078511   073058   063249   077525   075659   072022   073677                                      
330513400210016 06310 111 241A630                0000000BEGLES              0021290INTERIEUR(S50)      0010000002725002725                    0187      038263 0407    036434   037070   038527   038740   038636   040380   037604   033286   039697   040511   039137   039219               150383781    7    140000001         130000001         120000001         110365271    7    036462   037582   038794   039190   037477   041574   038953   033915   041429   039466   037408   038291                                      
330513400110016 06310 111 241A630                0000000BEGLES              0021290EXTERIEUR(S50)      0010000002725002725                    0187      034452 0367    033858   033908   035001   034950   034485   036760   033227   030052   035932   035040   035446   034897               150345321    7    140000001         130000001         120000001         110338041    7    033332   034079   035400   035159   033745   036937   034105   029334   036096   036193   034614   035386                                      
330505100310016 06600 1113041FIN 2X2 VOIES       0060664RD 3                0100400Facture             0090000003758003758          00000000000187      000000                                                                                                                                 150000001         140000001         130000001         120000001         110096561    0                                                                                                                                                   
330505100210016 06600 1113041FIN2x2 VOIES        0060664RD 3                0100400FACTURE             0090000003758003758          00000000000212      000000                                                                                                                                 150000001         140000001         130000001         120000001         110047761                           000000   000000   000000   000000   000000   000000                                                                          
330505100110016 06600 1113041FIN2x2 VOIES        0060664RD 3                0100400FACTURE             0090000003758003758          00000000000212      000000                                                                                                                                 150000001         140000001         130000001         120000001         110048801    0                      000000   000000   000000   000000   000000   000000                                                                          
330505000310016 06600 1110241A 63                0000000FIN 2X2 VOIES       0060664MIOS SIREDO         0030000006007006007          000       0187      026864 0627             023542   024969   027770   026091   027163   032032   032866   028449   026863   023901   024335               150265601    7    140252601    7    130245761         120227291    7    110197661         020515   022434   023745   027663   027628   029733   032088   031430   026959   024896                                                        
330505000210016 06600 1110241A 63                0000000FIN 2X2 VOIES       0060664MIOS                0030000006007006007          000       0187      013193 0617             011601   012178   013505   012129   012273   016026   016724   014072   013135   011517   011817               150134511    7    140125861    7    130122771         120114631    7    110099151         010220   011095   011764   013644   013731   014716   016133   016195   013821   013019                                                        
330505000110016 06600 1110241A 63                0000000FIN 2X2 VOIES       0060664MIOS                0030000006007006007          000       0187      013671 0647    010972   011941   012791   014265   013962   014890   016006   016142   014377   013728   012384   012518               150131091    7    140126741    7    130122991    7    120112661    7    110098511         010295   011339   011981   014019   013897   015017   015955   015235   013138   011877   012311   012140                                      
330504601310016 02300 411 601ECH.25              0400703A 10                0440507S47 EXTER ET INTER  0440013003800003800          000       0290      123778 1367    110451   118376   120065   126832   123281   129208   135454   134654   126302   123802   117918   118688               151204371 1377    140000001         130000001         120000001         111176641 1467    107041   114022   117450   122209   119746   126405   132030   129703   123342   121985   113779   117885                                      
330504601210016 02300 411 601ECH.25              0400703A 10                0440507S47 INTER           0440013003800003800          000       0290      061039 1267    054433   058678   059519   062707   060844   064137   068000   063814   062182   060772   058095   059181               150595641 1277    140000001         130000001         120000001         110583681 1437    052760   056658   057821   060695   058878   062666   067042   061627   060809   060571   056513   059084                                      
330504601110016 02300 411 601ECH.25              0400703A 10                0440507S47 EXTER           0440013003800003800          000       0290      062739 1477    056018   059698   060546   064125   062437   065071   067454   070840   064120   063030   059823   059507               150608731 1477    140000001         130000001         120000001         110592961 1537    054281   057364   059629   061514   060868   063739   064988   068076   062533   061414   057266   058801                                      
330504300310016 02300 4110401ECH.24              0390541ECH.25              0400703S46                 0400258001207001207          33000000000290      122820 1477    110068   117032   118879   124570   121611   127548   135884   135240   124946   122564   116914   118173               151186801 1477    140000001         130000001         120000001         110000001    0    106639   113097   115117   120428   115989   123478   129321   128100   121223   120895   112135   117739                                      
330504300210016 02300 4110401ECH.24              0390541ECH.25              0400703S46                 0400258001207001207          33000000000212      062348 1487    055278   059534   060635   064113   061742   065517   071413   065811   063138   061622   058808   060398               150611531 1477    140000001         130000001         120000001         110000001         053919   057888   058715   062727   060296   064429   070269   064180   062115   061673   056927   060698                                      
330504300110016 02300 4110401ECH.24              0390541ECH.25              0400703S46                 0400258001207001207          33000000000212      060472 1467    054790   057498   058244   060457   059869   062031   064471   069429   061808   060942   058106   057775               150575271 1487    140000001         130000001         120000001         110000001    0    052720   055209   056402   057701   055693   059049   059052   063920   059108   059222   055208   057041                                      
330504000310016 02300 411 451ECH.21              0340000ECH.22              0350247PT F.MITTERAND      0350000001242001242          000       0194      115579 1337    107966   114645   115586   122791   118715   125202   129240   128243   117894   085804   105183   115909               151180071 1307    141146591 1307    131137291 1327    121113351         111100171         105498   111227   113833   121169   115526   123617   130483   128346   121089   118476   110606   115699                                      
330504000210016 02300 411 451ECH.21              0340000ECH.22              0350247ROCADE-INT          0350000001242001242          000       0194      058232 1357    055480   059610   059987   063705   061237   065240   070056   064914   061534   027884   049056   060385               150614001 1337    140600291 1317    130590801 1327    120578051         110565221         054414   058145   058804   063291   059994   065061   070457   064137   062214   061531   057504   061008                                      
330504000110016 02300 411 451ECH.21              0340000ECH.22              0350247ROCADE-EXT          0350000001242001242          000       0194      057347 1287    052486   055035   055599   059086   057478   059962   059184   063329   056360   057920   056127   055524               150566071 1267    140546301 1267    130546491 1307    120535301 1317    110534951 1367    051084   053082   055029   057878   055532   058556   060026   064209   058875   056945   053102   054691                                      
330503401310016 06300 4140401S31                 0310968S31                 0310968S31                 0310968000000000000          00000000000316      140390 1347    127138   134267   136657   142932   138181   146928   152508   150236   142832   139880   135890   137059               151379931 1327    140000001    0    130000001    0    120000001    0    110000001    0    124967   130635   134062   141876   135899   145903   150605   145442   140627   138802   130268   136330                                      
330503401210016 06300 4140401S31                 0310968S31                 0310968S31                 0310968000000000000          00000000000316      070880 1387    063418   067770   069077   072414   069812   074962   079544   072988   071285   070691   068243   070268               150693301 1417    140000001         130000001         120000001         110000001         062317   065916   066879   071954   067789   073668   078164   070395   069756   069775   065525   069608                                      
330503401110016 06300 4140401S31                 0310968S31                 0310968S31                 0310968000000000000          00000000000316      069510 1277    063720   066497   067580   070518   068369   071966   072964   077248   071547   069189   067647   066791               150686631 1237    140000001    0    130000001    0    120000001    0    110000001    0    062650   064719   067183   069922   068110   072235   072441   075047   070871   069027   064743   066722                                      
330503100310016 06300 1110241ECH.16              0260600ECH.19              0310000CHANTELOISEAU(S28)  0270200003917003917          00000000000187      130312 1157    120114   125361   129896   133591   128402   137956   138009   134159   131120   130740   127859   126513               151285471 1047    140000001    0    130000001    0    120000001    0    110000001    0    117042   121264   127577   132197   127028   137662   137808   129322   133310   129818   124096   125431                                      
330503100210016 06300 1110241ECH.16              0260600ECH.19              0310000ROCADE INTER(S28)   0270200003917003917          00000000000187      066518 1137    060442   064005   066280   068690   065439   071203   072609   066068   066057   067044   064767   065596               150654301 1157    140000001    0    130000001    0    120000001    0    110000001    0    058837   061682   064216   067879   064335   070684   072269   063788   067449   066354   063124   064539                                      
330503100110016 06300 1110241ECH.16              0260600ECH.19              0310000ROCADE EXTER(S28)   0270200003917003917          00000000000187      063794 1177    059672   061356   063616   064901   062963   066753   065400   068091   065063   063696   063092   060917               150631171    7    140000001    0    130000001    0    120000001    0    110000001    0    058205   059582   063361   064318   062693   066978   065539   065534   065861   063464   060972   060892                                      
330502500310016 06300 111 231ECH.15              0250000ECH.16              0260000TALENCE(S26)        0260000001439001439                    0193      129209 1067    119578   125541   129988   130984   125246   134665   135782   134656   132419   129623   126506   125538               151277671 1177    141244081 1177    131239671 1157    120000001         111189481 1057    114638   119619   123488   130061   127148   136872   138499   131464   133075   129680   123619   124652                                      
330502500210016 06300 111 231ECH.15              0250000ECH.16              0260000TALENCE(S26)        0260000001439001439                    0193      064946 1167    059339   063170   065565   067110   063193   069341   070664   064661   064681   065078   062526   064038               150641271 1177    140620081 1187    130614201 1167    120000001         110601351 1057    056612   060089   060750   066402   064001   069516   071420   063116   066247   065544   062071   063610                                      
330502500110016 06300 111 231ECH.15              0250000ECH.16              0260000TALENCE(S26)        0260000001439001439                    0193      064263 0877    060239   062371   064423   063874   062053   065324   065118   069995   067738   064545   063980   061500               150636401 1177    140624001 1157    130625471 1127    120000001         110588131 1067    058026   059530   062738   063659   063147   067356   067079   068348   066828   064136   061548   061042                                      
330502300310016 06300 1110241ECH. 11             0170330ECH. 15             0250000PESSAC(S19)         0170330007424007424          00000000000187      000000    0                                                                                                                            150000001    0    140000001    0    130000001    0    120000001    0    110000001    0                                                                                                                                                   
330502300210016 06300 1110241ECH. 11             0170330ECH. 15             0250000ROCADE INTER(S19)   0170330007424007424          00000000000187      000000    0                                                                                                                            150000001    0    140000001    0    130000001    0    120000001    0    110000001    0                                        000000   000000   000000   000000   000000   000000                                                        
330502300110016 06300 1110241ECH.11              0170330ECH.15              0250000ROCADE EXTER(S19)   0170330007424007424          00000000000187      000000    0                                                                                                                            150000001    0    140000001    0    130000001    0    120000001    0    110000001    0                                        000000   000000   000000   000000   000000   000000                                                        
330502202310016 06300 111 241ROCADE SORTIE 9     0140000ROCADE SORTIE 11 B  0170330LE CHUT(S16)        0150000003097003097          000       0187      000000                                                                                                                                 150890591    7    140858491    7    130874791    7    120889111    7    110900661    7    082744   086216   089404   090876   086983   093776   093325                                                                                   
330502202210016 06300 111 241ROCADE SORTIE 9     0140000ROCADE SORTIE 11 B  0170330ROCADE INTER(S16)   0150000003097003097          000       0187      000000                                                                                                                                 150440871    7    140429781    7    130440681    7    120445921    7    110451741    7    041670   043161   044465   045360   042873   045786   045206                                                                                   
330502202110016 06300 111 241ROCADE SORTIE 9     0140000ROCADE SORTIE 11 B  0170330ROCADE EXTER(S16)   0150000003097003097          000       0187      000000                                                                                                                                 150449721    7    140428711    7    130434111    7    120443191    7    110448921    7    041074   043055   044939   045516   044110   047990   048119                                                                                   
330502201310016 06300 1110241RD 1                0100600ROCADE SORTIE 9     0140000EYSINES(S11)        0110300003666003666          00000000000187      084613 0727    078424   081851   082901   087287   084960   088135   089039   086349   087549   085451   081561   081855               150846361    7    140000001    0    130000001    0    120000001    0    110000001    0    077846   081820   083412   086995   084243   089218   091044   085796   087443   085105   081294   081414                                      
330502201210016 06300 1110241RD 1                0100600ROCADE SORTIE 9     0140000ROCADE INTER(S11)   0110300003666003666          00000000000187      041469 0717    039045   040356   041046   042849   041884   043098   042959   043196   042657   041555   039249   039719               150415191    7    140000001    0    130000001    0    120000001    0    110000001    0    038685   040504   040840   042705   041253   043065   043312   041886   043209   042156   040423   040184                                      
330502201110016 06300 1110241RD 1                0100600ROCADE SORTIE 9     0140000ROCADE EXTER(S11)   0110300003666003666          00000000000187      043144 0737    039379   041495   041855   044438   043076   045037   046080   043153   044892   043896   042312   042136               150431171    7    140000001    0    130000001    0    120000001    0    110000001    0    039161   041316   042572   044290   042990   046153   047732   043910   044234   042949   040871   041230                                      
330502102310016 06300 111 241ECHANGEUR LA BARDE  0050000RD 1                0100600CANTINOLLE(S08déport0080800005932005932          000       0187      082622 0787    074354   078754   078310   085039   082995   087239   087908   084783   086700   084495   080365   080560               150820181    7    140000001         130783111    7    120780161    7    110785561    7    073439   076652   081359   083401   081340   087088   088564   083933   085540   083471   079644   079516                                      
330502102210016 06300 111 241ECHANGEUR LA BARDE  0050000RD 1                0100600ROCADE INTER(S08dépo0080800005932005932          000       0187      044844 0797    041478   043574   043828   045984   045208   046896   046262   046022   046356   045268   043542   043742               150442621    7    140000001         130420681    7    120419701    7    110425531    7    040880   042543   043722   044962   043871   046478   045663   044412   046167   045386   043678   043356                                      
330502102110016 06300 111 241ECHANGEUR LA BARDE  0050000RD 1                0100600ROCADE EXTER(S08dépo0080800005932005932          000       0187      037778 0777    032876   035180   034482   039055   037787   040343   041646   038761   040344   039227   036823   036818               150377561    7    140000001         130362431    7    120360461    7    110360031    7    032559   034109   037637   038439   037469   040610   042901   039521   039373   038085   035966   036160                                      
330501001310016 00630 4130201S66                 0210739S66                 0210739S66 ECH23           0210739000000000000          00000000000316      064005 1837    050602   053928   056904   063868   062590   065334   084225   088799   066012   062108   055894   056981               150619121 1827    140000001    0    130000001    0    120000001    0    110000001    0    047832   051110   053352   062341   062802   066055   080212   087548   064381   058577   053014   054619                                      
330501001210016 00630 4130201S66                 0210739S66                 0210739S66 ECH23           0210739000000000000          00000000000316      031874 1817    026091   026749   028194   031507   031460   032003   038386   047918   033530   030789   028268   027187               150305711 1797    140000001         130000001         120000001         110000001         024600   025244   026645   030500   031516   032540   036507   044424   032629   029188   026593   025954                                      
330501001110016 00630 4130201S66                 0210739S66                 0210739S66 ECH23           0210739000000000000          00000000000316      032131 1877    024511   027179   028710   032361   031130   033331   045839   040881   032482   031319   027626   029794               150313411 1847    140000001    0    130000001    0    120000001    0    110000001    0    023232   025866   026707   031841   031286   033515   043705   043124   031752   029389   026421   028665                                      
330500900310016 00630 111 241A 66                0240670RN 10               0460850LUGOS(S67)          0400000022237022237          000       0187      034177 2897    027308   028916   030224   033866   032623   034465   040171   052740   035103   033454   029677   031125               150336161 3017    140000001         130000001         120000001         110000001         026060   027385   028305   032735   033236   033354   045315   053738   034158   031823   027722   029566                                      
330500900210016 00630 111 241A 66                0240670RN 10               0460850LUGOS(S67)          0400000022237022237          000       0187      018040 2827    015003   014960   015598   017445   017110   017621   021070   030142   018859   017344   015876   015181               150173001 2947    140000001         130000001         120000001         110000001         014261   014065   014784   016611   017386   017171   019916   029906   018294   016379   014576   014254                                      
330500900110016 00630 111 241A 66                0240670RN 10               0460850LUGOS(S67)          0400000022237022237          000       0187      016137 2957    012305   013956   014626   016421   015513   016844   019101   022598   016244   016110   013801   015944               150163161 3087    140000001         130000001         120000001         110000001         011799   013320   013521   016124   015850   016183   025399   023832   015864   015444   013146   015312                                      
330500801310016 00630 1110241RD 211              0110830A 66                0240670PIERROTON(A63ech24) 0210300012859012859          00000000000187      061335 1857    050044   053119   055718   061943   059219   064351   078296   081753   060493   059738   055299   055407               150596401 1857    140000001         130000001         120000001         110000001    0    047504   050270   052624   057501   060627   064048   076056   081798   061731   057979   052147   053755                                      
330500801210016 00630 1110241RD 211              0110830A 66                0240670PIERROTON(A63ech24) 0210300012859012859          00000000000187      030567 1857    025569   026247   027489   030469   029723   031522   036331   044484   030798   029594   027860   026387               150295641 1867    140000001         130000001         120000001         110000001    0    024257   024882   026202   028034   030167   031473   034968   043504   031412   028466   025888   025512                                      
330500801110016 00630 1110241RD 211              0110830A 66                0240670PIERROTON(A63ech24) 0210300012859012859          00000000000187      030768 1857    024475   026872   028229   031474   029496   032829   041965   037269   029695   030144   027439   029020               150300761 1857    140000001         130000001         120000001         110000001    0    023247   025388   026422   029467   030460   032575   041088   038294   030319   029513   026259   028243                                      
330500600310016 00630 1110241A 630               0000000ECHANGEUR CESTAS    0060000CESTAS(S62)         0060000006177006177          00000000000187      070966 1807    060331   063027   065906   071794   067720   074474   085896   089442   070505   069901   065250   066377               150693431 1657    140000001    0    130000001    0    120000001    0    110000001    0    057143   060378   062792   069954   069598   073810   084350   088455   071473   067695   062150   064316                                      
330500600210016 00630 1110241A 630               0000000ECHANGEUR CESTAS    0060000CESTAS(S62)         0060000006177006177          00000000000187      038461 1547    033824   034478   035923   038472   037213   039733   043001   051004   038875   037817   035806   035102               150375551 1527    140000001    0    130000001    0    120000001    0    110000001    0    032302   033027   034660   037751   037541   039589   042088   049230   039568   036744   034065   034093                                      
330500600110016 00630 1110241A 630               0000000ECHANGEUR CESTAS    0060000CESTAS(S62)         0060000006177006177          00000000000187      032505 2107    026507   028549   029983   033322   030507   034741   042895   038438   031630   032084   029444   031275               150317881 1787    140000001    0    130000001    0    120000001    0    110000001    0    024841   027351   028132   032203   032057   034221   042262   039225   031905   030951   028085   030223                                      
330500501310016 00620 111 241A 630               0000000ECHANGEUR LA PRADE  0090992CADAUJAC(S73)       0030000011083011083          00000000000194      071448 1057    064164   069694   069510   072203   070378   075067   077169   074828   073548   072068   068359   070384               150701681 1057    140639141 1087    130670241 1087    120664821 1087    110665921 1107    063325   068048   068642   071903   069407   073885   075862   072628   069915   071543   066670   070030                                      
330500501210016 00620 111 241A 630               0000000ECHANGEUR LA PRADE  0090992CADAUJAC(S73)       0030000011083011083          00000000000187      035538 1037    031943   034621   034270   036026   035044   037281   038135   038015   036529   035929   033820   034833               150351121 1027    140318831 1067    130332431 1077    120329671 1087    110330081 1097    031789   033926   034323   035895   034821   036756   037520   036891   035705   035914   033108   034611                                      
330500501110016 00620 111 241A 630               0000000ECHANGEUR LA PRADE  0090992CADAUJAC(S73)       0030000011083011083          00000000000187      035910 1097    032221   035073   035240   036177   035334   037786   039034   036813   037019   036139   034539   035551               150350561 1107    140320311 1137    130337811 1097    120335151 1097    110335841 1117    031536   034122   034319   036008   034586   037129   038342   035737   034210   035629   033562   035419                                      
330001700310016 00890 4110201RD 115              0470300RN 230              0500260LE POTEAU D YVRAC   0470500002983002983          00000000000187      064445 0997                               063415   063495   066440   067580   065620   066193   064592   061128   061718               150000001    0    140000001    0    130000001    0    120000001    0    110000001    0                                                                                                                                                   
330001700210016 00890 4110201RD 115              0470300RN 230              0500260LE POTEAU D YVRAC   0470500002983002983          00000000000187      032172 0977                               031623   031828   033177   032513   032914   033458   032416   031069   030771               150000001    0    140000001    0    130000001    0    120000001    0    110000001    0                                        000000   000000   000000   000000   000000   000000                                                        
330001700110016 00890 4110201RD 115              0470300RN 230              0500260LE POTEAU D YVRAC   0470500002983002983          00000000000187      032273 1017                               031792   031667   033263   035067   032706   032735   032176   030059   030947               150000001    0    140000001    0    130000001    0    120000001    0    110000001    0                                        000000   000000   000000   000000   000000   000000                                                        
330001600310016 00890 411 251RD 13 BEYCHAC       0420223RD 115 POTEAU YVRAC 0470300MONTUSSAN           0430100005057005057          000       0187      059397  907    054575   054567   057336   059653   059428   062682   063307   061327   061809                                          150572131    7    140552921    7    130540041    7    120534541    7    110533781    7    051617   053449   055886   056968   052833            061102   059371   060252   059158                                                        
330001600210016 00890 411 251RD 13 BEYCHAC       0420223RD 115 POTEAU YVRAC 0470300MONTUSSAN (BX-LIB)  0430100005057005057          000       0187      029322  887    027123   026997   028312   029480   029365   030797   030378   030855   030774                                          150283251    7    140272881    7    130269371    7    120264341    7    110262461    7    025701   026432   027576   028752   027698            029502   029728   030012   029359                                                        
330001600110016 00890 411 251RD 13 BEYCHAC       0420223RD 115 POTEAU YVRAC 0470300MONTUSSAN (LIB-BX)  0430100005057005057          000       0187      030075  917    027452   027570   029024   030173   030063   031885   032929   030472   031035                                          150288881    7    140280041    7    130270671    7    120270201    7    110271321    7    025916   027017   028310   028216   025135            031600   029643   030240   029799                                                        
330001202310016 00890 4113 51RD 121 GENISSAC     0310790RN 2089 Ech 8       0341380SENAU               0340500005397005397          000       0994      000000                                                                                                                                 150000001         140000001         130357041    7    120353961    7    110192531                                                                                                                                                        
330001202210016 00890 4113 51RD 121 GENISSAC     0310790RN 2089 Ech 8       0341380SENAU (BX-LIBOURNE) 0340500005397005397          000       0994      000000                                                                                                                                 150000001         140000001         130179591    7    120178821    7    110096781                                                                                                                                                        
330001202110016 00890 4113 51RD 121 GENISSAC     0310790RN 2089 Ech 8       0341380SENAU (LIBOURNE-BX) 0340500005397005397          000       0994      000000                                                                                                                                 150000001         140000001         130177451 1027    120175141    7    110095751                                                                                                                                                        
330000102310016 00100 411 251RD 18               0100137RN 137              0200120PEUJARD             0170077009398009398          000       0187      042352 2447    037999   040276   040888   043117   042217   044109   044884   044055   043455   043240   042023   041934               150406951 2477    140393211 2477    130382821 2487    120369921 2547    110351651 2787    036363   038564   039170   041056   040649   042535   043317   042269   042193   041897   039725   040487                                      
330000102210016 00100 411 251RD 18               0100137RN 137              0200120PEUJARD             0170077009398009398          000       0187      021301 2487    019141   020194   020548   021655   021278   022098   021876   023024   021947   021767   021180   020887               150204021 2517    140197311 2517    130192411 2537    120184871 2597    110176021 2837    018334   019215   019743   020456   020448   021334   021103   021764   021315   021045   019927   020074                                      
330000102110016 00100 411 251RD 18               0100137RN 137              0200120PEUJARD             0170077009398009398          000       0187      021051 2357    018858   020082   020340   021462   020939   022011   023008   021031   021508   021473   020843   021047               150202931 2397    140195901 2387    130190411 2387    120185051 2457    110175631 2677    018029   019349   019427   020600   020201   021201   022214   020505   020878   020852   019798   020413                                      
330000000310016 02300 411 401ECH.23              0360643ECH.24              0390541S42 SENS 1+SENS 2   0370309002897002897          000       0194      114387 1507    102538   109112   109984   117720   114112   119763   128541   129811   118031   103305   109384   110246               151135101 1487    140000001         130000001         120000001         110000001         100447   106121   108520   115634   112051   119897   126095   126092   117479   113470   105299   110436                                      
170003101310016 02370 4110201MIREUIL             0050945MIREUIL             0050945MIREUIL             0050945000000000000          00000000000316      021568 0937    016150   017781   019645   021546   022296   023949   027209   027349   024243                     017356               150220501    7    140000001    0    130000001    0    120000001    0    110000001    0             017471   018556   022424   022794   023989   027441   027567   023552            018768   017505                                      
170003101210016 02370 4110201MIREUIL             0050945MIREUIL             0050945MIREUIL             0050945000000000000          00000000000316      010637 0917    007981   008689   009678   011358   011171   011720   013257   013930   012037   010228   009057   008458               150108701    7    140000001         130000001         120000001         110000001                  008680   009237   010695   011467   011826   013339   013887   011651            009215   008484                                      
170003101110016 02370 4110201MIREUIL             0050945MIREUIL             0050945MIREUIL             0050945000000000000          00000000000316      010931 0977    008169   009092   009967   010188   011125   012229   013952   013419   012206                     008898               150111801    7    140000001    0    130000001    0    120000001    0    110000001    0             008791   009319   011729   011327   012163   014102   013680   011901            009553   009021                                      
170003001310016 02370 411 251RN 137              0000000FIN RN 137          0090230LA DESCENDERIE      0020000009267009267          00000000000187      066748 0687    058572   062887   066390   067889   066932   072184   070943   068393   071899   067095   064793   063069               150660901    7    140643941    7    130638331    7    120641021    7    110596951    7    058686   061209   062530   068546   064416   069791   071507   067543   070327   067060   065211                                               
170003001210016 02370 411 251RN 137              0000000FIN RN 137          0090230LA DESCENDERIE      0020000009267009267          00000000000187      033525 0707    029476   031518   033388   034764   033862   036234   035286   034315   036102   033513   032497   031396               150336671    7    140331381    7    130329141    7    120330351    7    110309941    7    030367   031593   032250   035039   033166   035780   036246   034039   035386   033612   032797                                               
170003001110016 02370 411 251RN 137              0000000FIN RN 137          0090230LA DESCENDERIE      0020000009267009267          00000000000187      033223 0647    029096   031369   033002   033125   033070   035950   035657   034078   035797   033582   032296   031673               150324231    7    140312561    7    130309191    7    120310671    7    110287011    7    028319   029616   030280   033507   031250   034011   035261   033504   034941   033448   032414                                               
170002900310016 01500 4113 51RD 117              0710058ROYAN EB 10         0770470MEDIS               0760000006412004816          00000000000187      016502 0467    013323   013895   015102   016773   016835   017548   021139   021829   017279   015735   014321   014076               150165211    7    140164561    7    130161481    7    120161201    7    110148531    7    013235   014129   014783   017155   016938   017742   021220   021900   016880   015476   014179   014382                                      
170002900210016 01500 4113 51RD 117              0710058ROYAN EB 10         0770470MEDIS               0760000006412004816          00000000000190      008237 0467    006665   006896   007498   008294   008434   008662   010294   011297   008742   007818   007200   006961               150082321    7    140082041    7    130080621    7    120080361    7    110073421    7    006643   007030   007348   008389   008492   008781   010343   011238   008543   007708   007055   007093                                      
170002900110016 01500 4113 51RD 117              0710058ROYAN EB 10         0770470MEDIS               0760000006412004816          00000000000190      008265 0487    006658   006999   007604   008479   008401   008886   010845   010532   008537   007917   007121   007115               150082891    7    140082521    7    130080861    7    120080841    7    110075111    7    006592   007099   007435   008766   008446   008961   010877   010662   008337   007768   007124   007289                                      
170002800310016 01500 4110201ST ROMAIN           0620700ST ROMAIN           0620700ST ROMAIN DE BENET  0620700000000000000          00000000000316      015466 0537    011197   011509   013000   014677                     023912   024122   016397            011915   012464               150157661    7    140000001    0    130000001    0    120000001    0    110000001    0    011234   012147   012780   015462   016191   016392   021679   023321   015991   014762   013462                                               
170002800210016 01500 4110201ST ROMAIN           0620700ST ROMAIN           0620700ST ROMAIN DE BENET  0620700000000000000          00000000000316      007721 0577    005591   005673   006436   007086                     012211   012597   007796            005936   006157               150078611    7    140000001         130000001         120000001         110000001         005588   006024   006365   007494   008228   008088   010402   011902   008166   007406   006804                                               
170002800110016 01500 4110201ST ROMAIN           0620700ST ROMAIN           0620700ST ROMAIN DE BENET  0620700000000000000          00000000000316      007745 0507    005606   005836   006564   007591                     011701   011525   008601            005979   006307               150079051    7    140000001    0    130000001    0    120000001    0    110000001    0    005646   006123   006415   007968   007963   008304   011277   011419   007825   007356   006658                                               
170002700310016 01500 4113001N 137 SAINTES       0470000RD 728              0500000GATERAT             0490670002959002959          00000000000187      012359 0467    010462   010910   011412   012612   012079   012679   014438   014927   013223   012309   011598   011592               150121861    7    140120081    7    130118731    7    120118101    7    110113191    7    010160   010715   011094   012409   012205   012841   014262   014835   012767   012049   011293   011472                                      
170002700210016 01500 4113001N 137 SAINTES       0470000RD 728              0500000GATERAT             0490670002959002959          00000000000187      005933 0467    005106   005260   005500   006040   005859   006075   006745   007270   006288   005856   005607   005559               150058701    7    140057891    7    130057011    7    120056731    7    110054471    7    004958   005177   005354   005893   005924   006145   006665   007215   006227   005815   005491   005518                                      
170002700110016 01500 4113001N 137 SAINTES       0470000RD 728              0500000GATERAT             0490670002959002959          00000000000187      006426 0477    005356   005650   005912   006572   006220   006604   007693   007657   006935   006453   005991   006033               150063161    7    140062191    7    130061721    7    120061371    7    110058721    7    005202   005538   005740   006516   006281   006696   007597   007620   006540   006234   005802   005954                                      
170002101310016 01410 4113001RN 150 SAINTES      0160700SAINTES RN 137      0210225SAINTES ROCADE S-E  0180200004470004470          000       0187      021063  957    018066   018120   020399   021843   022559   022547   024912   024398   022465   021198   019749   019184               150207421    7    140204981    7    130200121    7    120196051    7    110196391    7    017211   018326   019475   021227   021086   022141   024119   024524   021677   020391   019495   019045                                      
170002101210016 01410 4113001RN 150 SAINTES      0160700SAINTES RN 137      0210225SAINTES ROCADE S-E  0180200004470004470          000       0187      010623  947    009138   009111   010275   010986   011551   011343   012337   012157   011465   010720   009982   009641               150104991    7    140103431    7    130101061    7    120099611    7    110099541    7    008728   009239   009837   010664   010721   011184   012026   012705   011051   010306   009849   009578                                      
170002101110016 01410 4113001RN 150 SAINTES      0160700SAINTES RN 137      0210225SAINTES ROCADE S-E  0180200004470004470          000       0187      010440  957    008928   009009   010124   010857   011008   011204   012575   012241   011000   010478   009767   009543               150102431    7    140101551    7    130099061    7    120096441    7    110096851    7    008483   009087   009638   010563   010365   010957   012093   011819   010626   010085   009646   009467                                      
170002100310016 01410 4113001DEPARTEMENT 16      0000000RN 150 SAINTES      0160700CHERAC              0130900016846016846          16000200030187      010314 0857    008084   008598   009209   010371   010669   010893   013281   013501   011205   010045   009049   008762               150100661    7    140000001    0    130094091    7    120000001    0    110000001    0    007574   008212   008548   009609   010638   010413   014190   013551   010589   009590   009188   008699                                      
170002100210016 01410 4113001DEPARTEMENT 16      0000000RN 150 SAINTES      0160700CHERAC              0130900016846016846          16000200030190      005140 0857    004066   004268   004575   005100   005359   005379   006505   006883   005627   004991   004547   004324               150049131    7    140000001    0    130045131    7    120000001    0    110000001    0    003713   003975   003933   004329   005244   005063   006810   006900   005322   004777   004596   004299                                      
170002100110016 01410 4113001DEPARTEMENT 16      0000000RN 150 SAINTES      0160700CHERAC              0130900016846016846          16000200030190      005174 0847    004018   004330   004634   005271   005310   005514   006776   006618   005578   005054   004502   004438               150051531    7    140000001    0    130048961    7    120000001    0    110000001    0    003861   004237   004615   005280   005394   005350   007380   006651   005267   004813   004592   004400                                      
170001701310016 01370 411 251RD 937              1120000RN 11               1170000PERIGNY             1170000005031005031                    0187      069152 0687    059401   064486   067630   070595   068734   074114   074946   074036   073943   069387   067334   065226               150661271    7    140652961    7    130642611    7    120641351    7    110634051    7    059064   061955   063148   068432   065051   070975   073924                     068072   065699   064764                                      
170001701210016 01370 411 251RD 937              1120000RN 11               1170000PERIGNY             1170000005031005031                    0187      034404 0687    029644   032166   033752   035328   034187   036907   037449   036357   036684   034379   033508   032502               150332511    7    140330911    7    130326901    7    120326071    7    110322801    7    030018   031471   032033   034262   032850   035919   037014                     033756   032729   032387                                      
170001701110016 01370 411 251RD 937              1120000RN 11               1170000PERIGNY             1170000005031005031                    0187      034748 0697    029757   032320   033878   035267   034547   037207   037497   037679   037259   035008   033826   032724               150328761    7    140322051    7    130315711    7    120315281    7    110311251    7    029046   030484   031115   034170   032201   035056   036910                     034316   032970   032377                                      
170000601310016 00110 411 251RN 137              0270000RN 137 RN 237       0350150DOMPIERRE SUR MER   0280850008146008146          000       0187      038182 0747    031775   034380   036267   038964   039219   040899   043127   042505   040746   038127   036323   035749               150367591    7    140362521    7    130356631    7    120352241    7    110316291         031576   033503   034385   038789   037592   037661   041508   041356   038607   036194   034873   034837                                      
170000601210016 00110 411 251RN 137              0270000RN 137 RN 237       0350150DOMPIERRE SUR MER   0280850008146008146          000       0187      018963 0707    015984   017060   018017   019281   019490   020153   021010   021436   020291   018931   018165   017683               150181471    7    140179561    7    130176751    7    120174591    7    110174391    7    015772   016619   017095   019050   018714   018015   020139   020696   019114   017916   017334   017180                                      
170000601110016 00110 411 251RN 137              0270000RN 137 RN 237       0350150DOMPIERRE SUR MER   0280850008146008146          000       0187      019219 0817    015791   017320   018250   019683   019729   020746   022117   021069   020455   019196   018158   018066               150186121    7    140182961    7    130179881    7    120177651    7    110141901         015804   016884   017290   019739   018878   019646   021369   020660   019493   018278   017539   017657                                      
170000300310016 00110 411 251DEPARTEMENT 79      0000000RD 116              0090272BENON               0080000009375009375          79000080230187      014272 1057    011283   012191   013052   014741   015400   015241   017305   017125   015134   014154   012872   012665               150137291 1077    140133551 1067    130130251 1137    120126761 1107    110121821 1137    010706   011843   012531   014760   014875   014652   016446   016684            013582   012464   012313                                      
170000300210016 00110 411 251DEPARTEMENT 79      0000000RD 116              0090272BENON               0080000009375009375          79000080230187      007167 1057    005754   006085   006528   007328   007774   007575   008444   008867   007678   007074   006563   006285               150068881 1077    140066981 1067    130065421 1137    120063481 1107    110061141 1127    005428   005930   006290   007240   007607   007295   008029   008605            006850   006313   006095                                      
170000300110016 00110 411 251DEPARTEMENT 79      0000000RD 116              0090272BENON               0080000009375009375          79000080230187      007105 1047    005529   006106   006524   007413   007626   007666   008861   008258   007456   007080   006309   006380               150068411 1067    140066571 1067    130064831 1147    120063281 1107    110060681 1137    005278   005913   006241   007520   007268   007357   008417   008079            006732   006151   006218                                      
170000200310016 00100 411 251RD 730              0090915DEPARTEMENT 33      0190783MONTLIEU LA GARDE   0110300009672009672          00000000030187      023891 3947    020316   022126   022014   024378   023670   024220   027676   028307   024069   023976   022808   023010               150229241 4017    140212541         130214641 4057    120000001         110000001         019128   021013   021228   023016   023493   023649   026169   027438   023236   023136   021385   021998                                      
170000200210016 00100 411 251RD 730              0090915DEPARTEMENT 33      0190783MONTLIEU LA GARDE   0110300009672009672          00000000030187      012064 3957    010307   011120   011112   012258   011992   012154   013196   015103   012343   012124   011593   011405               150115161 4037    140103331         130108171 4067    120000001         110000001         009699   010433   010781   011441   011852   011907   012472   014323   011857   011676   010807   010835                                      
170000200110016 00100 411 251RD 730              0090915DEPARTEMENT 33      0190783MONTLIEU LA GARDE   0110300009672009672          00000000030187      011827 3927    010009   011006   010902   012120   011678   012066   014480   013204   011726   011852   011215   011605               150114081 3997    140109211 3967    130106471 4027    120000001         110000001         009429   010580   010447   011575   011641   011742   013697   013115   011379   011460   010578   011163                                      
170000100310016 00100 4110201DEPARTEMENT 16      0000000RD 730              0090915CHEVANCEAUX         0010000009935008904          16000090130187      022296 4097    018719   020594   020788   022780   022061   022549   025851   026471   022519   022492   021216   021346               150213571 4207    140197811    0    130199771 4417    120000001    0    110000001    0    017795   019554   019818   021321   022005   021853   024503   025769   021809   021698   019825   020331                                      
170000100210016 00100 4110201DEPARTEMENT 16      0000000RD 730              0090915CHEVANCEAUX         0010000009935008904          16000090130187      011305 4137    009551   010391   010534   011494   011246   011370   012338   014200   011552   011428   010851   010618               150107711 4237    140100081    0    130101071 4317    120000001    0    110000001    0    009070   009741   010117   010549   011167   011041   011694   013556   011199   011001   010076   010037                                      
170000100110016 00100 4110201DEPARTEMENT 16      0000000RD 730              0090915CHEVANCEAUX         0010000009935008904          16000090130187      010991 4057    009168   010203   010254   011286   010815   011179   013513   012271   010967   011064   010365   010728               150105861 4177    140097731    0    130098701 4537    120000001    0    110000001    0    008725   009813   009701   010772   010838   010812   012809   012213   010610   010697   009749   010294                                      
160002000310016 01410 4113 51GIR. CROIN          1100000DEPARTEMENT 17      1160367MOULIN ST LAURENT   1130660006657006657          17000210030187      013403 0857    010824   011274   012185   013619   013796   014209   016669   016624   014342   013233   012128   011817               150130741    7    140132981         130000001         120000001         110000001         010297   011117   011799   013018   013545   013543   015823   016914   014068   012808   012039   011740                                      
160002000210016 01410 4113 51GIR. CROIN          1100000DEPARTEMENT 17      1160367MOULIN ST LAURENT   1130660006657006657          17000210030187      006685 0887    005412   005554   006054   006762   006929   007046   008203   008480   007198   006586   006086   005854               150065381    7    140066171         130000001         120000001         110000001         005146   005517   005864   006418   006795   006749   007843   008660   007148   006392   006018   005811                                      
160002000110016 01410 4113 51GIR. CROIN          1100000DEPARTEMENT 17      1160367MOULIN ST LAURENT   1130660006657006657          17000210030187      006718 0807    005412   005720   006131   006857   006867   007163   008466   008144   007144   006647   006042   005963               150065361    7    140066811    7    130000001         120000001         110000001         005151   005600   005935   006600   006750   006794   007980   008254   006920   006416   006021   005929                                      
160001901310016 01410 4153 51GIR. CHA. BERNARD   1050130GIR. CROIN          1100000COGNAC              1080960005137005137          00000000000187      019442 0797    017078   017781   018794   019847   019854   020660   021287   021038   020397   019231   018671   018625               150191571    7    140186311    7    130183711    7    120000001         110176341    7    016352   017236   017936   019309   019041   020120   021522   021076   020315   019624   018451   018773                                      
160001901210016 01410 4153 51GIR. CHA. BERNARD   1050130GIR. CROIN          1100000COGNAC              1080960005137005137          00000000000187      009626 0787    008468   008772   009283   009745   009921   010219   010253   010614   010167   009520   009311   009220               150094921    7    140092351    7    130091711    7    120000001         110086851    7    008066   008473   008885   009420   009531   009933   010586   010660   010099   009713   009196   009271                                      
160001901110016 01410 4153 51GIR. CHA. BERNARD   1050130GIR. CROIN          1100000COGNAC              1080960005137005137          00000000000187      009816 0827    008610   009009   009511   010102   009933   010441   011034   010424   010230   009711   009360   009405               150096651    7    140093961    7    130092001    7    120000001         110089491    7    008286   008763   009051   009889   009510   010187   010936   010416   010216   009911   009255   009502                                      
160001802310016 01410 411 201RD 736 MONTAGAN     0960400GIR. CHA BERNARD    1050130GENSAC              1030059008587008560          00000000000187      019295 0837    016575   017133   018355   019247   019294   020760   021923   020739   020775   019388   019013   018274               150191101    7    140192561    7    130185501    7    120182821 1377    110179671         017440   018275   018718   020109   019302   020952   021462   019838   019618   018527   017776   017286                                      
160001802210016 01410 411 201RD 736 MONTAGAN     0960400GIR. CHA BERNARD    1050130GENSAC              1030059008587008560          00000000000187      010035 0787    008779   009107   009605   010195   010188   010650   011187   010804   011010   009978   009659   009237               150098561    7    140096541    7    130093171    7    120091961 1597    110090431         008782   009173   009406   010040   009732   010495   010991   010638   010400   009854   009545   009184                                      
160001802110016 01410 411 201RD 736 MONTAGAN     0960400GIR. CHA BERNARD    1050130GENSAC              1030059008587008560          00000000000187      009260 0957    007796   008026   008750   009052   009106   010110   010736   009935   009765   009410   009354   009037               150092541    7    140096021    7    130092331    7    120090861    7    110089241    7    008658   009102   009312   010069   009570   010457   010471   009200   009218   008673   008231   008102                                      
160001700310016 01410 4113001RD 736 JARNAC       0940160RD 736 MONTAGAN     0960400JARNAC              0950023002255002255          00000000000193      013168 0967    010798   011372   012153   013315   013315   013754   015571   015027   014745   013278   012749   011879               150124331    7    140124141    7    130120841    7    120000001         110000001    0    010316   011248   011674   013044   012857   013392            014697   013559   012481   012323   011143                                      
160001700210016 01410 4113001RD 736 JARNAC       0940160RD 736 MONTAGAN     0960400JARNAC              0950023002255002255          00000000000193      006652 0947    005474   005696   006097   006684   006746   006897   007777   007778   007509   006702   006472   005957               150062731    7    140062361    7    130060931    7    120000001         110000001    0    005166   005656   005807   006505   006529   006727            007577   006899   006289   006242   005592                                      
160001700110016 01410 4113001RD 736 JARNAC       0940160RD 736 MONTAGAN     0960400JARNAC              0950023002255002255          00000000000193      006516 1007    005324   005676   006056   006631   006569   006857   007794   007249   007236   006576   006277   005922               150061601    7    140061781    7    130059911    7    120000001         110000001    0    005150   005592   005867   006539   006328   006665            007120   006660   006192   006081   005551                                      
160001601310016 01410 4113 51RN 10 RTE COGNAC    0680000RD 736 JARNAC       0940160BOURRAS             0860170025948025113          00000000000187      014571 0917    012527   013032   013858   014961   014892   014940   016901   016211   015908   014608   013856   013111               150144341    7    140139781    7    130137931    7    120136981    7    110135551    7    012205   013093   013677   014947   014552   015668   016721   016161   015282   014332   013532   012965                                      
160001601210016 01410 4113 51RN 10 RTE COGNAC    0680000RD 736 JARNAC       0940160BOURRAS             0860170025948025113          00000000000187      007357 0907    006352   006554   006974   007517   007542   007493   008434   008364   008092   007351   007013   006573               150072801    7    140070451    7    130069581    7    120069091    7    110067851    7    006152   006582   006881   007462   007380   007881   008329   008305   007769   007234   006834   006508                                      
160001601110016 01410 4113 51RN 10 RTE COGNAC    0680000RD 736 JARNAC       0940160BOURRAS             0860170025948025113          00000000000187      007214 0917    006175   006478   006884   007444   007350   007447   008467   007847   007816   007257   006843   006538               150071541    7    140069331    7    130068351    7    120067891    7    110067701    7    006053   006511   006796   007485   007172   007787   008392   007856   007513   007098   006698   006457                                      
160001502310016 01410 4110201RD 13 LA ROCHEFOU.  0430000RN 10 ANGOULEME NORD0700000RUELLE              0580500019284018513          00000000000187      024405 2077    020640   022112   022929   024890   024427   025553   027275   027083   025856   025284   023577   023157               150233701 2047    140227471 2077    130217791 2097    120211471 2007    110188541 2177    020010   021268   021814   023769   023386   024600   026174   026296   024465   023962   022256   022277                                      
160001502210016 01410 4110201RD 13 LA ROCHEFOU.  0430000RN 10 ANGOULEME NORD0700000RUELLE              0580500019284018513          00000000000187      012272 2057    010430   011099   011522   012488   012317   012797   013325   013893   013068   012775   011919   011588               150117461 2027    140114421 2057    130111211 2077    120106881 1987    110094771 2157    010089   010698   010975   011899   011770   012363   012814   013462   012411   012089   011197   011106                                      
160001502110016 01410 4110201RD 13 LA ROCHEFOU.  0430000RN 10 ANGOULEME NORD0700000RUELLE              0580500019284018513          00000000000187      012133 2127    010210   011013   011407   012402   012110   012756   013950   013190   012788   012509   011658   011569               150116241 2087    140113051 2117    130106581 2127    120104591 2037    110093771 2227    009921   010570   010839   011870   011616   012237   013360   012834   012054   011873   011059   011171                                      
160000902310016 00100 411 201BARBEZIEUX SUD      0880750DEPARTEMENT 17      1011148REIGNAC             0900000013161013161          17000010030187      022950 4007    019395   021282   021241   023560   022751   023358   026496   027198   023233   023110   021757   021925               150221011 4047    140211271 4017    130206291 4137    120205791 4307    110202361 4447    018550   020354   020552   022224   022613   022596   025191   026423   022494   022423   020545   021060                                      
160000902210016 00100 411 201BARBEZIEUX SUD      0880750DEPARTEMENT 17      1011148REIGNAC             0900000013161013161          17000010030187      011574 4057    009832   010666   010686   011798   011522   011739   012635   014587   011828   011665   011044   010837               150110901 4087    140106161 4067    130103541 4187    120103121 4337    110104621 4297    009400   010087   010430   011024   011390   011351   011968   013849   011464   011295   010377   010344                                      
160000902110016 00100 411 201BARBEZIEUX SUD      0880750DEPARTEMENT 17      1011148REIGNAC             0900000013161013161          17000010030187      011376 3897    009563   010616   010555   011762   011229   011619   013861   012611   011405   011445   010713   011088               150110111 3957    140105111 3917    130102751 4017    120102671 4267    110097741 4757    009150   010267   010122   011200   011223   011245   013223   012574   011030   011128   010168   010716                                      
160000800310016 00100 411 201BARBEZIEUX NORD     0800000BARBEZIEUX SUD      0880750BARBEZIEUX          0820500008823008823          00000000000599      022019 4137    018531   020388   020245   022683   021868   022399   025646   026124   022231   022155   020879   020970               150211971 4157    140203041 4157    130198671 4257    120195791 4357    110202491 4387    017660   019349   019565   021275   021633   021744   024211   025404   021782   021438   020023   020100                                      
160000800210016 00100 411 201BARBEZIEUX NORD     0800000BARBEZIEUX SUD      0880750BARBEZIEUX          0820500008823008823          00000000000599      011206 4117    009468   010284   010352   011449   011182   011287   012245   014159   011608   011253   010680   010446               150107211 4147    140102691 4137    130100651 4257    120102731 4247    110108431 4227    009009   009645   009997   010628   010996   011009   011622   013446   011203   010866   010217   009918                                      
160000800110016 00100 411 201BARBEZIEUX NORD     0800000BARBEZIEUX SUD      0880750BARBEZIEUX          0820500008823008823          00000000000599      010813 4167    009063   010104   009893   011234   010686   011112   013401   011965   010623   010902   010199   010524               150104761 4187    140100351 4207    130098021 4257    120093061 4607    110094061 4767    008651   009704   009568   010647   010637   010735   012589   011958   010579   010572   009806   010182                                      
160000402310016 00100 411 251RN 141 LES PLANES   0500950RD 699 ST. MICHEL   0530900GIRAC               0530650002969002969          00000000000187      033428 2857    029539   031343   032239   034424   032670   034736   036268   035570   034029   034155   032965   033149               150324341 2857    140315221 2877    130295891 3017    120299611 2937    110298211 3077    028645   030392   030672   033087   032135   033920   035721   034824   033205   032994   031217   032248                                      
160000402210016 00100 411 251RN 141 LES PLANES   0500950RD 699 ST. MICHEL   0530900GIRAC               0530650002969002969          00000000000187      016807 2867    014983   015689   016237   017251   016762   017463   017199   018393   017140   017350   016684   016508               150162761 2867    140158931 2887    130150401 3067    120150931 2937    110150041 3067    014521   015165   015488   016535   016217   017086   017199   017945   016786   016573   015744   015977                                      
160000402110016 00100 411 251RN 141 LES PLANES   0500950RD 699 ST. MICHEL   0530900GIRAC               0530650002969002969          00000000000187      016621 2827    014556   015654   016002   017173   015908   017273   019069   017177   016889   016805   016281   016641               150161581 2847    140156291 2867    130145491 2957    120148681 2927    110148171 3077    014124   015227   015184   016552   015918   016834   018522   016879   016419   016421   015473   016271                                      
160000401310016 00100 415 251ECH NORD ANGOULEME  0450000RN 141 LES PLANES   0500950L EPINEUIL          0470300006347006347          00000000000187      048689 2307    042149   044653   046533   050099   048384   050643   053471   052865   050750   049571   047647   047380               150467721 2317    140454411 2347    130444761 2357    120435991 2377    110425761 2447    040904   043694   044155   048025   046432   049285   051594   051120   048637   047087   044882   045268                                      
160000401210016 00100 415 251ECH NORD ANGOULEME  0450000RN 141 LES PLANES   0500950L EPINEUIL          0470300006347006347          00000000000187      024466 2327    021274   022275   023346   025095   024430   025338   025909   027549   025677   024956   024049   023621               150234451 2327    140228701 2357    130223601 2377    120218961 2387    110216081 2457    020609   021852   022178   023927   023459   024758   024999   026446   024703   023316   022552   022457                                      
160000401110016 00100 415 251ECH NORD ANGOULEME  0450000RN 141 LES PLANES   0500950L EPINEUIL          0470300006347006347          00000000000187      024223 2267    020875   022378   023187   025004   023954   025305   027562   025316   025073   024615   023598   023759               150233271 2297    140225711 2327    130221161 2327    120217031 2347    110209681 2427    020295   021842   021977   024098   022973   024527   026595   024674   023934   023771   022330   022811                                      
