090000300310016 00200 4813 51RD 624              0150000PAMIERS A 66        0180000LE VERNET D'AR.     01500000022890022890900004023000       0187      000000                                                                                                                                 150000008         140000008         130000008         120000008         110000008                                                                                                                                                        
090000402310016 00200 411 251PAMIERS A 66        0180000RD 119              0210444PAMIERS             01902900034440034440900004023000       0187      023709  547    022037   024191   023891   023473   023192   023345   024471   024529   024074   024734   022750   023812               150232251    7    140225171    7    130219121    7    120218921    7    110219211    7    021010   022548   022634   023109   022630   023736   024520   024412   023815   024204   022247   023768                                      
090000402210016 00200 411 251PAMIERS A 66        0180000RD 119              0210444PAMIERS             01902900034440034440900004023000       0187      011647  567    011001   011765   011767   011488   011403   011466   011990   012258   011796   012099   011223   011498               150114001    7    140110791    7    130107481    7    120107421    7    110107581    7    010429   010985   011173   011281   011159   011632   011934   012186   011728   011841   010961   011451                                      
090000402110016 00200 411 251PAMIERS A 66        0180000RD 119              0210444PAMIERS             01902900034440034440900004023000       0187      012062  517    011036   012426   012124   011985   011789   011879   012481   012271   012278   012635   011527   012314               150118251    7    140114381    7    130111641    7    120111501    7    110111631    7    010581   011563   011461   011828   011471   012104   012586   012226   012087   012363   011286   012317                                      
090000501310016 00200 481 251RD 119              0210444RD 12               0241071ENTRE D12 ET D119   02309000036290036290900004023000       0187      000000                                                                                                                                 150000008         140000008         130223058         120000008         110000008                                                                                                                                                        
090000501210016 00200 481 251RD 119              0210444RD 12               0241071ENTRE D12 ET D119   02309000036290036290900004023000       0187      000000                                                                                                                                 150000008         140000008         130109758         120000008         110000008                                                                                                                                                        
090000501110016 00200 481 251RD 119              0210444RD 12               0241071ENTRE D12 ET D119   02309000036290036290900004023000       0187      000000                                                                                                                                 150000008         140000008         130113308         120000008         110000008                                                                                                                                                        
090000601310016 00200 481 251RD 12               0241071RD 13               0290000VARILHES DEV NORD   02602000044630044630900004023000       0187      000000                                                                                                                                 150000008         140000008         130230538         120000008         110000008                                                                                                                                                        
090000601210016 00200 481 251RD 12               0241071RD 13               0290000VARILHES DEV NORD   02602000044630044630900004023000       0187      000000                                                                                                                                 150000008         140000008         130115988         120000008         110000008                                                                                                                                                        
090000601110016 00200 481 251RD 12               0241071RD 13               0290000VARILHES DEV NORD   02602000044630044630900004023000       0187      000000                                                                                                                                 150000008         140000008         130114558         120000008         110000008                                                                                                                                                        
090000604310016 00200 481 251RD 13               0290000FOIX NORD           0350000GARRIGOU            02908000057790057790900004023000       0190      000000                                                                                                                                 150000008         140000008         130242758         120000008         110000008                                                                                                                                                        
090000604210016 00200 481 251RD 13               0290000FOIX NORD           0350000GARRIGOU            02908000057790057790900004023000       0190      000000                                                                                                                                 150000008         140000008         130121478         120000008         110000008                                                                                                                                                        
090000604110016 00200 481 251RD 13               0290000FOIX NORD           0350000GARRIGOU            02908000057790057790900004023000       0190      000000                                                                                                                                 150000008         140000008         130121288         120000008         110000008                                                                                                                                                        
090000801310016 00200 4113251FOIX NORD           0350000FOIX SUD            0400000FOIX TUNNEL         03903400047820047820900010013000       0102      016203  588    014687   016473   016062   015539   015490   015856   018163   019029   016189   016736   014578   015562               150160881    7    140159571    7    130152151    7    120154871    7    110157751    7    014039   015626   015220   015710   015819   016123   018021   019306   016199   016194   014545   016155                                      
090000801210016 00200 4113251FOIX NORD           0350000FOIX SUD            0400000FOIX TUNNEL         03903400047820047820900010013000       0102      008101  568    007496   008094   008077   007785   007820   007977   008877   009656   008071   008307   007357   007652               150080211    7    140079491    7    130075761    7    120077121    7    110078861    7    007148   007818   007611   007796   007913   008019   008866   009755   008105   008039   007328   007804                                      
090000801110016 00200 4113251FOIX NORD           0350000FOIX SUD            0400000FOIX TUNNEL         03903400047820047820900010013000       0102      008102  618    007191   008379   007985   007754   007670   007879   009286   009373   008118   008429   007221   007910               150080671    7    140080081    7    130076391    7    120077751    7    110078891    7    006891   007808   007609   007914   007906   008104   009155   009551   008094   008155   007217   008351                                      
090000901310016 00200 411 251FOIX SUD            0400000RD 117              0430500MONTGAILLARD        04106240035000035000900010013000       0102      020155  578    017771   019808   019826   019329   019558   019977   022854   024357   020412   020378   018178   019304               150199111    8    140195181    8    130188741    8    120192371    8    110193801    8    017251   018774   018478   019591   019525   020153   022573   024422   020479   020247   017839   019429                                      
090000901210016 00200 411 251FOIX SUD            0400000RD 117              0430500MONTGAILLARD        04106240035000035000900010013000       0102      010132  628    009084   009852   009997   009742   009849   010016   011331   012357   010266   010288   009283   009465               150100001    8    140097941    8    130094571    8    120096271    8    110096911    8    008738   009315   009318   009799   009916   010119   011252   012445   010329   010154   008997   009522                                      
090000901110016 00200 411 251FOIX SUD            0400000RD 117              0430500MONTGAILLARD        04106240035000035000900010013000       0102      010023  528    008687   009956   009829   009587   009709   009961   011523   012000   010146   010090   008895   009839               150099111    8    140097241    8    130094171    8    120096101    8    110096891    8    008513   009459   009160   009792   009609   010034   011321   011977   010150   010093   008842   009907                                      
090001001310016 00200 411 251RD 117              0430500RD 8                0540498ARIGNAC             05107460110780110780900010013000       0187      014371  578    012206   013552   013799   013581   013891   014431   016786   018178   014751   014864   012612   013676               150144651    8    140146851    8    130141651    8    120145841    8    110147121    8    012359   013721   013413   014492   014565   015062   016912   017864   014683   014568   012388   013436                                      
090001001210016 00200 411 251RD 117              0430500RD 8                0540498ARIGNAC             05107460110780110780900010013000       0187      007182  538    006261   006910   007031   006811   006981   007075   008102   009229   007258   007371   006356   006738               150072461    8    140073381    8    130070641    8    120072801    8    110073891    8    006316   006979   006851   007225   007427   007512   008299   008932   007306   007261   006208   006583                                      
090001001110016 00200 411 251RD 117              0430500RD 8                0540498ARIGNAC             05107460110780110780900010013000       0187      007189  608    005945   006642   006768   006770   006910   007356   008684   008949   007493   007493   006256   006938               150072191    8    140073471    8    130071011    8    120073041    8    110073231    8    006043   006742   006562   007267   007138   007550   008613   008932   007377   007307   006180   006853                                      
090001100310016 00200 4113 51RD 8                0540498RD 102              0710104LES CABANNES        06204200169260169260900010013000       0187      009445  567    007638   009283   009039   008477   008926   008852   011752   013396   009666   009856   007499   008829               150092361    7    140091981    7    130089241    7    120091251    7    110092781    7    007378   008815   008253   008771   009274   008879   011339   013555   009611   008410   007495   008951                                      
090001100210016 00200 4113 51RD 8                0540498RD 102              0710104LES CABANNES        06204200169260169260900010013000       0187      004714  557    003882   004548   004591   004250   004464   004409   005741   006813   004832   004935   003780   004256               150046491    7    140046371    7    130044511    7    120045451    7    110046231    7    003773   004321   004153   004359   004645   004402   005548   006844   004823   004805   003778   004272                                      
090001100110016 00200 4113 51RD 8                0540498RD 102              0710104LES CABANNES        06204200169260169260900010013000       0187      004731  577    003756   004735   004448   004227   004462   004443   006011   006583   004834   004921   003719   004573               150045871    7    140045611    7    130044731    7    120045801    7    110046551    7    003605   004494   004100   004412   004629   004477   005791   006711   004788   003605   003717   004679                                      
090001200310016 00200 4113 51RD 102              0710104RD 613              0790614PERLES CASTELET     07309000086570086570900010013000       0187      009748  427    008209   010098   009752   008756   009009   009293   012044   013711   009637   009919   007803   008658               150097681    7    140096761    7    130092781    7    120094231    7    110095441    7    007906   009438   008838   009083   009431   009206   011715   014383   009986   009832   007732   009533                                      
090001200210016 00200 4113 51RD 102              0710104RD 613              0790614PERLES CASTELET     07309000086570086570900010013000       0187      004862  427    004225   005006   004957   004390   004498   004624   005895   006935   004774   004924   003907   004167               150048791    7    140048381    7    130046311    7    120047071    7    110047561    7    004058   004743   004470   004530   004714   004577   005748   007314   005001   004890   003870   004571                                      
090001200110016 00200 4113 51RD 102              0710104RD 613              0790614PERLES CASTELET     07309000086570086570900010013000       0187      004886  417    003984   005092   004795   004366   004511   004669   006149   006776   004863   004995   003896   004491               150048891    7    140048381    7    130046471    7    120047161    7    110047881    7    003848   004695   004368   004553   004717   004629   005967   007069   004985   004942   003862   004962                                      
090001300310016 00200 4813 51RD 613              0790614RD 322              0880240MERENS NORD         08609400085320085320900010013000       0187      000000                                                                                                                                 150000008         140000008         130077258         120000008         110000008                                                                                                                                                        
090001300210016 00200 4813 51RD 613              0790614RD 322              0880240MERENS NORD         08609400085320085320900010013000       0187      000000                                                                                                                                 150000008         140000008         130038418         120000008         110000008                                                                                                                                                        
090001300110016 00200 4813 51RD 613              0790614RD 322              0880240MERENS NORD         08609400085320085320900010013000       0187      000000                                                                                                                                 150000008         140000008         130038848         120000008         110000008                                                                                                                                                        
090001400310016 00200 4113 51RD 322              0880240RN 22               0970737MERENS              08904330094920094920900014003000       0187      006930  488    004963   006104   006004   006251   006612   006613   009086   010779   007207   007290   005360   006757               150068051    8    140069251    8    130065601    8    120070901    8    110072141    8    004589   005239   005501   006731   006904   006475   008725   011131   007218   007164   005269   006523                                      
090001400210016 00200 4113 51RD 322              0880240RN 22               0970737MERENS              08904330094920094920900014003000       0187      003487  498    002582   003024   003065   003168   003347   003320   004468   005512   003630   003667   002694   003296               150034171    8    140034771    8    130032851    8    120035501    8    110036011    8    002358   002555   002789   003374   003484   003242   004333   005647   003648   003629   002687   003157                                      
090001400110016 00200 4113 51RD 322              0880240RN 22               0970737MERENS              08904330094920094920900014003000       0187      003443  488    002381   003080   002939   003083   003265   003293   004618   005267   003577   003623   002666   003461               150033881    8    140034481    8    130032751    8    120035401    8    110036131    8    002231   002684   002712   003357   003420   003233   004392   005484   003570   003535   002582   003366                                      
090001800310016 00200 4813 01RN 22               0970737RN 320              0980831LHOSPITALET EST     0980100000951000951120001300300000000000187      000000                                                                                                                                 150000008         140000008         130000008         120000008         110000008                                                                                                                                                        
090001500310016 00220 4113 51RN 20               0000000RN 320              0040015CARREFOUR SUD       00309140040150040150900014003000       0187      000000                                                                                                                                 150000008         140000008         130074598         120000008         110000008                                                                                                                                                        
090001600310016 03200 4813 51RN 20               0000000DEPARTEMENT 66      0020132R.N 320 AUX P.O     0010800002136002136090001400366000100030187      000000                                                                                                                                 150000008         140000008         130067008         120000008         110000008                                                                                                                                                        
120000600310016 00880 4113 51RN 9                0020800RD 28               0240290VARES               01201000221070221071200013003000       0187      006928 1977    005111   005636   005933   007027   007701   007288   008886   010079   007189   006584   005742   005869               150069211 1967    140000001         130000001         120066041         110067531 1807    004953   005630   005611   007059   007527   007281   008789   010447   007132   006620   005761   006113                                      
120000600210016 00880 4113 51RN 9                0020800RD 28               0240290VARES               01201000221070221071200013003000       0187      003458 1957    002543   002816   002933   003478   003859   003644   004414   005122   003597   003264   002868   002913               150034641 1957    140000001         130000001         120033131         110033761 1787    002488   002802   002797   003525   003770   003661   004375   005329   003562   003292   002876   003025                                      
120000600110016 00880 4113 51RN 9                0020800RD 28               0240290VARES               01201000221070221071200013003000       0187      003470 2017    002568   002820   003000   003549   003842   003644   004472   004957   003592   003320   002874   002956               150034571 1977    140000001         130000001         120032911         110033771 1857    002465   002828   002814   003534   003757   003620   004414   005118   003570   003328   002885   003088                                      
120000700310016 00880 4113 51RD 28               0240290RD 224              0420390GAGES               03604000181510181511200013003000       0187      010786 1028    008705   009433   009629   010760   012407   011862   013495   012556   010781   010394   009572   009748               150104051    8    140090261 1228    130100171 1178    120000001         110102301 1317    008650   009233   009611   010841   010795   010736   012218   011864   010698   010729   009499   009880                                      
120000700210016 00880 4113 51RD 28               0240290RD 224              0420390GAGES               03604000181510181511200013003000       0187      005091  908    004205   004576   004667   005157   005325   005203   005644   006257   005348   005130   004729   004823               150049851    8    140051581 1218    130050291 1168    120051711         110050811 1307    004141   004259   004469   005058   005148   005123   005672   006033   005199   005211   004636   004802                                      
120000700110016 00880 4113 51RD 28               0240290RD 224              0420390GAGES               03604000181510181511200013003000       0187      005695 1138    004500   004857   004962   005603   007082   006659   007851   006299   005433   005264   004843   004925               150054201 1088    140038681 1238    130049881 1188    120000001         110051491 1327    004509   004974   005142   005783   005647   005613   006546   005831   005499   005518   004863   005078                                      
120000801310016 00880 4813 51RD 224              0420390RD 988              0430500LA ROQUETTE OUEST   04304500011220011221200013003000       0187      000000                                                                                                                                 150000001         140146351         130138181         120000001         110142541         003478   001307   000156   010667   002562   008504   009130   003277   003301   000384   001719   003030                                      
120000801210016 00880 4813 51RD 224              0420390RD 988              0430500LA ROQUETTE OUEST   04304500011220011221200013003000       0187      000000                                                                                                                                 150000001    7    140074281    7    130072511 1157    120000001         110073481 1167    001502   000645   000154   005421   001310   007091   008460   002074   001693   000212   000888   001517                                      
120000801110016 00880 4813 51RD 224              0420390RD 988              0430500LA ROQUETTE OUEST   04304500011220011221200013003000       0187      000000                                                                                                                                 150000001         140072061         130065671         120000001         110069061         001976   000662   000002   005246   001252   001413   000670   001203   001608   000172   000831   001513                                      
120000901310016 00880 4113 51RD 217              0430500RD 988              0460500SAINT MARC EST      04604500030480030481200013003000       0187      005250         005396   007070   008945   008519   006928   006488   000682   001063   009692   001164   007534   000000               150000001         140000001         130000001         120000001         110000001         000000   000000   000000   000000   000000   000000   000000   000000   000000   000000   000000   000000                                      
120000901210016 00880 4113 51RD 217              0430500RD 988              0460500SAINT MARC EST      04604500030480030481200013003000       0187      002312  937    002460   002932   004297   003633   002094   002570   000325   000512   004901   000568   003669   000000               150000001         140000001         130000001         120000001         110000001         000000   000000   000000   000000   000000   000000   000000   000000   000000   000000   000000   000000                                      
120000901110016 00880 4113 51RD 217              0430500RD 988              0460500SAINT MARC EST      04604500030480030481200013003000       0187      002938         002936   004138   004648   004886   004834   003918   000357   000551   004791   000596   003865   000000               150000001         140000001         130000001         120000001         110000001         000000   000000   000000   000000   000000   000000   000000   000000   000000   000000   000000   000000                                      
120000902310016 00880 4113 51RD 988              0460500AV DES 4 SAISONS    0470000SAINT MARC OUEST    04605500006100006101200013003000       0187      026041         025278   023765   023034   026390   028835   026247   027299   030883   029065   026446   023041   022080               150000001         140000001         130000001         120000001         110000001         000000   000000   000000   000000   000000   000000   000000   000000   000000   000000   000000   000000                                      
120000902210016 00880 4113 51RD 988              0460500AV DES 4 SAISONS    0470000SAINT MARC OUEST    04605500006100006101200013003000       0187      011701         012258   009932   009015   011560   014486   011418   012323   015974   014272   011958   009073   008014               150000001         140000001         130000001         120000001         110000001         000000   000000   000000   000000   000000   000000   000000   000000   000000   000000   000000   000000                                      
120000902110016 00880 4113 51RD 988              0460500AV DES 4 SAISONS    0470000SAINT MARC OUEST    04605500006100006101200013003000       0187      014340         013020   013833   014019   014830   014349   014829   014976   014909   014793   014488   013968   014066               150000001         140000001         130000001         120000001         110000001         000000   000000   000000   000000   000000   000000   000000   000000   000000   000000   000000   000000                                      
120001001310016 00880 4113 51RD 988              0470000RD 901              0480100LES MOUTIERS EST    04800500011800011801200013003000       0187      028414         029148   031129   030212   033518   031319   033310   025074   028102   025259   025137   021771   027168               150318761         140263461         130260651         120000001         110000001         027672   030374   031206   032565   031365   033381   033263   032659   033207   032254   031389   033134                                      
120001001210016 00880 4113 51AV DES 4 SAISONS    0470000RD 901              0480100LES MOUTIERS EST    04800500011800011801200013003000       0187      014830         014805   015856   015371   017100   015983   016973   015074   015063   013257   013178   011460   013886               150000001         140000001         130000001         120000001         110000001         000000   000000   000000   000000   000000   000000   000000   000000   000000   000000   000000   000000                                      
120001001110016 00880 4113 51AV DES 4 SAISONS    0470000RD 901              0480100LES MOUTIERS EST    04800500011800011801200013003000       0187      013584         014343   015273   014841   016418   015336   016337   010000   013039   012002   011959   010311   013282               150000001         140000001         130000001         120000001         110000001         000000   000000   000000   000000   000000   000000   000000   000000   000000   000000   000000   000000                                      
120001003310016 00880 4113 51RN 140              0480660RD 84 RD 67         0500000SAINT-CLOUD EST     04909500015620015621200013003000000000 0187      023548  747    021498   022635   023251   024281   023495   024431   024417   023404   024369   024097   023350   023370               150229461    7    140225911         130221281    7    120000001         110000001         021055   021366   022632   023358   022611   023966   023940   022712   023899   023756   022801   023180                                      
120001003210016 00880 4113 51RN 140              0480660RD 84 RD 67         0500000SAINT-CLOUD EST     04909500015620015621200013003000       0187      012257  797    011164   011808   012139   012633   012266   012773   012581   012199   012711   012529   012152   012146               150119491    7    140117951         130115421    7    120000001         110000001         010994   011099   011737   012135   011829   012520   012310   011798   012493   012437   011897   012096                                      
120001003110016 00880 4113 51RN 140              0480660RD 84 RD 67         0500000SAINT-CLOUD EST     04909500015620015621200013003000       0187      011291  697    010334   010827   011112   011648   011229   011658   011836   011205   011658   011568   011198   011224               150109971    7    140107961         130105861    7    120000001         110000001         010061   010267   010895   011223   010782   011446   011630   010914   011406   011319   010904   011084                                      
120001002310016 00880 4113 51RD 901              0480100RN 140              0480660LES MOUTIERS OUEST  04801500005600005601200013003000       0187      030172         014293   014583   015437   016297   015615   016110   015278   007452   013771   005526   011320   006774               150345031         140341821         130347691         120000001         110000001         014178   014546   015275   015853   015242   016367   016128   015667   016298   016091   015197   015615                                      
120001002210016 00880 4113 51RD 901              0480100RN 140              0480660LES MOUTIERS OUEST  04801500005600005601200013003000       0187      017496                                                                                                                                 150000001         140000001         130000001         120000001         110000001         000000   000000   000000   000000   000000   000000   000000   000000   000000   000000   000000   000000                                      
120001002110016 00880 4113 51RD 901              0480100RN 140              0480660LES MOUTIERS OUEST  04801500005600005601200013003000       0187      012676                                                                                                                                 150000001         140000001         130000001         120000001         110000001         000000   000000   000000   000000   000000   000000   000000   000000   000000   000000   000000   000000                                      
120001004310016 00880 4113 51RD 84 RD 67         0500000PONT V.C. OLEMPS    0520200SAINT-CLOUD OUEST   05000500023230023231200013003000       0187      026870  657    024240   026092   026544   027837   026933   027758   027895   026637   027902   027420   026696   026519               150241331         140253231         130240311    7    120000001         110000001         023794   024255   025584   026550   025483   020816   017676   018803   027272   027250   026080   026185                                      
120001004210016 00880 4113 51RD 84 RD 67         0500000PONT V.C. OLEMPS    0520200SAINT-CLOUD OUEST   05000500023230023231200013003000       0187      013465  727    012114   013036   013318   013935   013509   013940   013902   013460   013993   013776   013339   013270               150111001         140127571         130120051    7    120000001         110000001         011906   012144   012797   013305   012736   007191   003881   005965   013652   013736   013033   013048                                      
120001004110016 00880 4113 51RD 84 RD 67         0500000PONT V.C. OLEMPS    0520200SAINT-CLOUD OUEST   05000500023230023231200013003000       0187      013405  587    012126   013056   013226   013902   013424   013818   013993   013177   013909   013644   013357   013249               150130331    7    140125661         130120261    7    120000001         110000001         011888   012111   012787   013245   012747   013625   013795   012838   013620   013514   013047   013137                                      
120001005310016 00880 4813 51PONT V.C.OLEMPS     0520200RD 66 RD 212        0530000LE LACHETversST-CLOU05208000012630012631200013003000       0187      000000                                                                                                                                 150000008         140000008         130000008         120000008         110000008                                                                                                                                                        
120001006310016 00880 4813 51RD66 RD212          0530000RD 911              0560800LA PRIMAUBE         05407100038000038001200013003000       0187      000000                                                                                                                                 150000008         140000008         130000008         120000008         110000008                                                                                                                                                        
120001006210016 00880 4813 51RD66 RD212          0530000RD 911              0560800LA PRIMAUBE         05407100038000038001200013003000       0187      000000                                                                                                                                 150000008         140000008         130000008         120000008         110000008                                                                                                                                                        
120001006110016 00880 4813 51RD66 RD212          0530000RD 911              0560800LA PRIMAUBE         05407100038000038001200013003000       0187      000000                                                                                                                                 150000008         140000008         130000008         120000008         110000008                                                                                                                                                        
120001100310016 00880 4113 51LA PRIMAUBE RD 911  0560800BARAQUEVILLE RD 911 0680015LE LAC              06207300090910090911200013003000       0187      016886  967    014660   015689   016136   017110   017314   017698   018407   018171   018062   017258   015669   016406               150163611    8    140156141    8    130154741    8    120154821         110155801    7    014028   014464   015531   016452   016398   017099   017758   017406   017432   017368   016151   016114                                      
120001100210016 00880 4113 51LA PRIMAUBE RD 911  0560800BARAQUEVILLE RD 911 0680015LE LAC              06207300090910090911200013003000       0187      008448  947    007315   007843   008055   008551   008664   008868   009165   009155   009060   008637   007854   008187               150081701    8    140078851    8    130077201    8    120077271         110077751    7    006994   007216   007746   008202   008189   008539   008876   008722   008715   008701   008039   008034                                      
120001100110016 00880 4113 51LA PRIMAUBE RD 911  0560800BARAQUEVILLE RD 911 0680015LE LAC              06207300090910090911200013003000       0187      008438  987    007345   007846   008081   008559   008650   008830   009242   009016   009002   008621   007815   008219               150081911    8    140077291    8    130077541    8    120077551         110078051 1007    007034   007248   007785   008250   008209   008560   008882   008684   008717   008667   008112   008080                                      
120001200310016 00880 4813 51RD 911              0680015RD 997              0810695BARAQUEVILLE        06902340134290134291200013003000       0187      000000                                                                                                                                 150000008         140000008         130103508         120000008         110000008                                                                                                                                                        
120001301310016 00880 4113 51RD 997              0810695DEPARTEMENT 81      0910192DEV NAUCELLE        0830350009251009251000000000081000010030187      008491 1437    007044   007618   007945   008450   008591   008536   009630   009302   009078   009170   008106   008362               150000001         140000001         130080691 1427    120081421         110080131                                                                                                                                                        
120001301210016 00880 4113 51RD 997              0810695DEPARTEMENT 81      0910192DEV NAUCELLE        0830350009251009251000000000081000010030187      004268 1407    003517   003823   003971   004246   004315   004309   004790   004695   004571   004631   004101   004218               150000001         140000001         130040361 1417    120040701         110040061                                                                                                                                                        
120001301110016 00880 4113 51RD 997              0810695DEPARTEMENT 81      0910192DEV NAUCELLE        0830350009251009251000000000081000010030187      004223 1487    003527   003795   003974   004204   004276   004227   004840   004607   004507   004539   004005   004144               150000001         140000001         130040331 1437    120040721         110040071                                                                                                                                                        
310506100310016 00640 181 241ECH 22 ASF          2340270ECH 23              2390200                    2340000004930004930320000500300000000000199      000000                                                                                                                                 150000008         140000008         130000008         120000008         110000008                                                                                                                                                        
310506200310016 00640 111 241ECH 23              2390200ECH 24              2430000LAVELANET de COMMIN.2420000003800003800320000500300000000000199      035465 111                                                                                                                             150341581 109     140334331 113     130000001         120000001         110345751 105                                                                                                                                                    
310506300310016 00640 181 241ECH 24              2430000ECH 25              2460000                    2440000003000003000320000500300000000000199      000000                                                                                                                                 150000008         140000008         130000008         120000008         110000008                                                                                                                                                        
310506500310016 00640 111 241ECH 26              2460000ECH 27              2540000CARBONNE            2530750008000008000320000500300000000000199      037657 120                                                                                                                             150371591 116     140000001         130000001         120000001         110446831 101                                                                                                                                                    
310506600310016 00640 111 241ECH 27              2540000ECH 28              2580000                    2550000004000004000320000500300000000000199      000000                                                                                                                                 150000001         140000001         130000001         120000001         110000001                                                                                                                                                        
310506700310016 00640 181 241ECH 28              2580000ECH 29              2590500                    2590000001500001500320000500300000000000199      000000                                                                                                                                 150000008         140000008         130000008         120000008         110000008                                                                                                                                                        
310506800310016 00640 181 241ECH 29              2590500ECH 30              2610200                    2600000001700001700320000500300000000000199      000000                                                                                                                                 150000008         140000008         130000008         120000008         110000008                                                                                                                                                        
310506900310016 00640 181 241ECH 30              2610200ECH 31              2630000                    2620000001800001800320000500300000000000199      000000                                                                                                                                 150000008         140000008         130000008         120000008         110000008                                                                                                                                                        
310507000310016 00640 181 241ECH 31              2630000ECH 32              2640800                    2640000001800001800320000500300000000000199      000000                                                                                                                                 150000008         140000008         130000008         120000008         110000008                                                                                                                                                        
310507201310016 00640 111 241ECH 32              2640800ECH 33              2690000MURET SUD           2670800004200004200320000500300000000000199      055413  93                                                                                                                             150544911         140528811         130000001         120000001         110495261                                                                                                                                                        
310507204310016 00640 111 241ECH 33              2690000ECH 34              2720000PODIO               2690673003000003000320000500300000000000199      054202  967    055263   059949   060656   061891   059960   060160   064449   062949   023671   063202   058658   056421               150527811    7    140496821    7    130585971 1057    120498791    7    110371461 1067    054394   053889   052106   057650   057132   054314   043668   054638   053769   061150   058461   055728                                      
310507200310016 00640 111 241ECH 34              2720000ECH 35 ASF          2740089MURET NORD ND       2720800002032002032320000500300000000000199      057321  967    050551   053845   054220   055115   054531   057695   059972   058816   056553   055257   053502   054834               150547341    7    140574721    7    130265181    7    120000001         110000001         049497   051279   052643   054507   053200   056424   058925   057878   056506   056210   052381   054188                                      
310505200310016 00680 181 241GEMIL FIN CONCEDEE  0170105DPT81               0220110A68 ETAT GESTION 81 0180000005005005005320000500381050010030187      000000                                                                                                                                 150000008         140000008         130000008         120000008         110000008                                                                                                                                                        
310003202310016 01240 311 251FIN A624            0060000Fin 2x2 voies       0090317COLLEGE             00705250029200029200000000000000       0187      000000                                                                                                                                 150000008         140000008         130000008         120000008         110000008                                                                                                                                                        
310003300310016 01240 311 251FIN 2X2 VOIES       0090317RD 24               0130192LA TUILERIE         01102850039190039190000000000000       0187      057304  41                                                                                                                             150000008         140000008         130000008         120000008         110000008                                                                                                                                                        
310003400310016 01240 311 251RD 24               0130192DEPARTEMENT 32      0191064LA SALVETAT         0140020007216007216000000000032000090030187      000000                                                                                                                                 150000008         140000008         130000008         120000008         110000008                                                                                                                                                        
310003600310016 01250 4113 51A 645               0030000RD 33 LABROQUERE    0050196LABROQUERE          00408000019010019013200005003000       0187      011685  957    010908   012275   012353   011545   011513   011904   013421   012058   010289   011796   010649   011472               150119161    7    140000001         130000001         120000001         110144291    7    011016   012382   011905   011832   011427   011809   013146   013299   012002   011972   010482   011723                                      
310003600210016 01250 4113 51A 645               0030000RD 33 LABROQUERE    0050196LABROQUERE          00408000019010019013200005003000       0187      005798  937    005537   006013   006159   005696   005716   005896   006616   006053   005136   005865   005319   005544               150058761    7    140000001         130000001         120000001         110058581    7    005563   006106   005930   005831   005641   005868   006438   006685   005952   005644   005216   005642                                      
310003600110016 01250 4113 51A 645               0030000RD 33 LABROQUERE    0050196LABROQUERE          00408000019010019013200005003000       0187      005887  997    005371   006262   006194   005849   005797   006008   006805   006005   005153   005931   005330   005928               150060401    7    140000001         130000001         120000001         110085711    7    005453   006276   005975   006001   005786   005941   006708   006614   006050   006328   005266   006081                                      
310338500310016 01250 4813 51LABROQUERE          0050196RD 33 CHAUM         0181637GALIE               01403000137270137273200005003000       0211      000000                                                                                                                                 150000008         140000008         130000008         120000008         110000008    7                                                                                                                                                   
310338500210016 01250 4813 51LABROQUERE          0050196RD 33 CHAUM         0181637GALIE               01403000137270137273200005003000       0211      000000                                                                                                                                 150000008         140000008         130000008         120000008         110000008    7                                                                                                                                                   
310338500110016 01250 4813 51LABROQUERE          0050196RD 33 CHAUM         0181637GALIE               01403000137270137273200005003000       0211      000000                                                                                                                                 150000008         140000008         130000008         120000008         110000008    7                                                                                                                                                   
310003800310016 01250 4112 51RD 33 CHAUM         0181637RD 44               0230442CHAUM               01907000048780048783200005003000       0187      003677  677    003398   003971   003822   003526   003594   003606   004517   004900   002602   003398   003138   003620               150037641    7    140036661    7    130036061    7    120039441    7    110043891    7             004052   003864   003768   003709   003438   004185   004741   003538   003477   003083   003665                                      
310003900310016 01250 4112001RD 44               0230442ESPAGNE             0340110FOS                 03108000106990106993200005003000       0187      003121 1037    002630   003327   003369   002995   003143   003082   003909   004432   002756   002906   002459   002420               150032181 1007    140037681 100     130000001         120000001         110000001         002445   003222   003294   003291   003326   003049   003850   004801   003084   002970   002363   002886                                      
310000101310016 02240 4113001LIMITE GERS         0070000MONTAIGUT           0200527LEVIGNAC            0130640014319014319000000000000000000000116      000000                                                                                                                                 150000001         140000001         130000001         120000001         110000001         000000   000000   000000   000000   000000   000000   000000   000000   000000   000000   000000   000000                                      
310000200310016 02240 4113001RD 17 MONTAIGUT     0200527CORNEBARRIEU        0310876MONDONVILLE         0250850011786011786000000000000000000000187      010526  367    010187   010788   010786   011057   010585   010893   010490   009109   010994   009945   010931   010624               150103561    7    140000001         130102341    7    120101681    7    110103451         010057   009999   010098   010850   010232   011296   010592   009331   010837   010933   010081   009986                                      
310508003310016 06200 1110231SESQUIERES          0000724LES MINIMES 31      0030626GINESTOUS           0020130002857002857320000500300000000000187      000000                                                                                                                                 151254471         141263071         130000001         121257861         111253631                                                                                                                                                        
310508003210016 06200 1110231SESQUIERES          0000580LES MINIMES 31      0030626GINESTOUS           0020130002857002857320000500300000000000187      000000                                                                                                                                 150629671         140630831         130000001         120628801         110627771                                                                                                                                                        
310508003110016 06200 1110231SESQUIERES          0000724LES MINIMES 31      0030626GINESTOUS           0020130002857002857320000500300000000000187      000000                                                                                                                                 150624801         140632241         130000001         120629061         110625861                                                                                                                                                        
310508106310016 06200 1110231ES MINIMES 31       0030626PONT JUMEAUX 30     0050106PONT JUMEAUX        0040432001464001464320000500300000000000187      102833  59                                                                                                                             151011371         141004181         130000001         121003161         111017501                                                                                                                                                        
310508106210016 06200 1110231ES MINIMES 31       0030626PONT JUMEAUX 30     0050106PONT JUMEAUX        0040432001464001464320000500300000000000187      052293  60                                                                                                                             150514551         140508831         130000001         120505321         110509311                                                                                                                                                        
310508106110016 06200 1110231ES MINIMES 31       0030626PONT JUMEAUX 30     0050106PONT JUMEAUX        0040432001464001464320000500300000000000187      050540  587    047159   049706   051045   050754   049609   052684   050653   046931   053952   052542   051724   049894               150496821    7    140495351    7    130489081    7    120497841         110508191         049277   048401   049878   050388   047526   052503   049885   046038   052228   052030   049475   048619                                      
310508204110016 06200 1110231PONT JUMEAUX 30     0050106PURPAN 29           0060074PONT GARONNE        0050354000966000966320000500300000000000187      058784  95                                                                                                                             150000001         140607821         130000001         120601661         110628021                                                                                                                                                        
310508200310016 06200 1110231PONT JUMEAUX 30     0050106PURPAN 29           0060074PONT GARONNE        0050354000966000966320000500300000000000187      119301  79                                                                                                                             150627721         141235221         130000001         121227911         111224401                                                                                                                                                        
310508200210016 06200 1110231PONT JUMEAUX 30     0050106PURPAN 29           0060074PONT GARONNE        0050354000966000966320000500300000000000187      060517  637    057626   061285   062306   062159   058730   064311   059561   057422   063244   062660   059523   057663               150622451    7    140627401    7    130625321    7    120626251    7    110596381    7    060785   061638   064718   058174   061173   064225   060813   058083   066471   065801   062787   062301                                      
310508304110016 06200 1110231PURPAN 29           0060074CEPIERE 27          0080497STATION A620        0070789002433002433320000500300000000000187      067939  61                                                                                                                             150669471         140665961         130657031         120653801         110656701                                                                                                                                                        
310508303210016 06200 1110231PURPAN 29           0060074CEPIERE 27          0080497STATION A620        0070789002433002433320000500300000000000187      072321  51                                                                                                                             150710191         140698521         130700031         120699711         110699311                                                                                                                                                        
310508300310016 06200 1110231PURPAN 29           0060074CEPIERE 27          0080497STATION A620        0070789002433002433320000500300000000000187      000000  56                                                                                                                             151379661         141364481         131357061         121353511         111356011                                                                                                                                                        
310508402210016 06200 1110231CEPIERE 27          0080497LA FAOURETTE        0090542FAOURETTE           0090100001056001056320000500300000000000187      073842  53                                                                                                                             150723971         140710141         130000001         120705751         110696911                                                                                                                                                        
310508402110016 06200 1110231CEPIERE 27          0080497LA FAOURETTE        0090542FAOURETTE           0090100001056001056320000500300000000000187      064312  57                                                                                                                             150643621         140629061         130000001         120641571         110637651                                                                                                                                                        
310508400310016 06200 1110231CEPIERE 27          0080497LA FAOURETTE        0090542FAOURETTE           0090100001056001056320000500300000000000187      138154  55                                                                                                                             151367591         141339201         130000001         121347321         111334561                                                                                                                                                        
310508502110016 06200 1110231LA FAOURETTE        0090542BORDELONGUE         0110801PT DE SEYSSES       0100604002247002247320000500300000000000187      064051  60                                                                                                                             150633581         140631451         130000001         120631121         110630221                                                                                                                                                        
310508500310016 06200 1110231LA FAOURETTE        0090542BORDELONGUE         0110801PT DE SEYSSES       0100604002247002247320000500300000000000187      134964  55                                                                                                                             151324871         141311771         130000001         121307171         111303761                                                                                                                                                        
310508500210016 06200 1110231LA FAOURETTE        0090542BORDELONGUE         0110801PT DE SEYSSES       0100604002247002247320000500300000000000187      070913  517    068624   071380   070802   072473   068667   075515   069771   065349   074973   073223   071201   069352               150691291    7    140680321    7    130678061    7    120676051    7    110673541    7    066488   067470   070254   069740   067109   073361   068134   063334   072941   073163   069053   068622                                      
310508700310016 06200 1110231LANGLADE 25         0110801EMPALOT 24          0130601EMPALOT             0120660001836001836320000500300000000000187      131573  347    134406   140832   140876   141954   134401   139707   124254   116671   130336   128696   126125   121600               151373761    7    141357081    7    130000001         121220791    7    111331041    7    132988   133718   141313   140393   132721   145034   135555   125336   142961   144006   138863   135841                                      
310508700210016 06200 1110231LANGLADE 25         0110801EMPALOT 24          0130601EMPALOT             0120660001836001836320000500300000000000187      063541  317    065635   068609   068897   069434   067112   069697   059244   054546   062407   060966   059350   057136               150667691    7    140658571    7    130000001         120566361    7    110666061    7    064278   064961   068618   068306   064429   070594   066207   060444   069884   070086   067481   066066                                      
310508700110016 06200 1110231LANGLADE 25         0110801EMPALOT 24          0130601EMPALOT             0120660001836001836320000500300000000000187      068032  397    068771   072223   071979   072520   067289   070010   065010   062125   067929   067730   066775   064464               150706071    7    140698511    7    130000001         120654431    7    110664981    7    068710   068757   072695   072087   068292   074440   069348   064892   073077   073920   071382   069775                                      
310508800310016 06200 1110231EMPALOT 24          0130601RANGUEIL 23         0140000RANGUEIL            0130888000363000363320000500300000000000187      093850  477    088740   093187   094176   095430   092292   099879   095654   090018   097145   095317   093408   091248               150912981    7    140890961    7    130894501    7    120881161    7    111164581    7    086231   087407   091344   092406   088039   096748   094364   087312   094497   095747   091168   090244                                      
310508800210016 06200 1110231EMPALOT 24          0130601RANGUEIL 23         0140000RANGUEIL            0130888000363000363320000500300000000000187      046273  457    044130   045844   046701   047338   045397   049128   047265   043789   048343   047037   045721   044728               150448441    7    140436061    7    130438421    7    120432941    7    110584301    7    042120   042860   044918   045415   043217   047299   046495   042634   046569   047027   044929   044607                                      
310508800110016 06200 1110231EMPALOT 24          0130601RANGUEIL 23         0140000RANGUEIL            0130888000363000363320000500300000000000187      047577  497    044610   047343   047475   048092   046895   050751   048389   046229   048802   048280   047687   046520               150464541    7    140454901    7    130456081    7    120448221    7    110580281    7    044111   044547   046426   046991   044822   049449   047869   044678   047928   048720   046239   045637                                      
310508900310016 06200 1110231RANGUEIL 23         0140000DEMOISELLES 21      0150880RANGUEIL-DEMOIS     0140536001873001873320000500300000000000187      105071  50                                                                                                                             151022051         141001711         130000001         120992471         110987201                                                                                                                                                        
310508900210016 06200 1110231RANGUEIL 23         0140000DEMOISELLES 21      0150880RANGUEIL-DEMOIS     0140536001873001873320000500300000000000187      051014  50                                                                                                                             150495331         140481991         130000001         120481871         110481091                                                                                                                                                        
310508900110016 06200 1110231RANGUEIL 23         0140000DEMOISELLES 21      0150880RANGUEIL-DEMOIS     0140536001873001873320000500300000000000187      054057  50                                                                                                                             150526721         140519721         130000001         120510601         110506111                                                                                                                                                        
310509000310016 06200 1110231DEMOISELLES 21      0150880LESPINET 20         0160048DEMOISELLES         0160000000172000172320000500300000000000187      110111  517    104467   110247   110537   111689   109276   117654   111642   104002   114576   111528   110147   106015               151073401    7    141048671    7    131054531    7    121040321    7    111033591    7    101916   103441   108633   109632   104465   110968   110124   101168   111979   113071   108175   104501                                      
310509000210016 06200 1110231DEMOISELLES 21      0150880LESPINET 20         0160048DEMOISELLES         0160000000172000172320000500300000000000187      056186  497    053811   056153   056560   057316   055726   059781   057064   052427   058920   057000   055704   053992               150546801    7    140530011    7    130535441    7    120531141    7    110527951    7    051649   052587   055438   055894   053274   056246   056149   051365   057123   057572   055241   053612                                      
310509000110016 06200 1110231DEMOISELLES 21      0150880LESPINET 20         0160048DEMOISELLES         0160000000172000172320000500300000000000187      053925  567    050656   054094   053977   054373   053550   057873   054578   051575   055656   054528   054443   052023               150526601    7    140518661    7    130519091    7    120509181    7    110505641    7    050267   050854   053195   053738   051191   054722   053975   049803   054856   055499   052934   050889                                      
310509100310016 06200 1110231LESPINET 20         0160048PALAYS A61          0170777LESPINET            0160285001730001730320000500300000000000187      092959  557    088566   097060   097844   094478   093512   093854   090377   092476   102145   072034   094773   099086               150973101    7    140796831         130932291    7    120950501    7    110955801    7    095994   096592   101746   102947   098504   102970   104446   092565   095191   093814   091043   091935                                      
310509100210016 06200 1110231LESPINET 20         0160048PALAYS A61          0170777LESPINET            0160285001730001730320000500300000000000187      046014  557    039944   044940   046903   045264   044815   044554   043034   044699   052648   047413   048129   049968               150468951    7    140299511    7    130443521    7    120458321    7    110466961    7    046987   047461   050177   050946   048689   050002   051795   045687   046472   043441   039817   041316                                      
310509100110016 06200 1110231LESPINET 20         0160048PALAYS A61          0170777LESPINET            0160285001730001730320000500300000000000187      046945  547    048622   052120   050941   049214   048697   049300   047343   047777   049497   024621   046644   049118               150504151    7    140497321         130488771    7    120492181    7    110488841    7    049007   049131   051569   052001   049815   052968   052651   046878   048719   050373   051226   050619                                      
310509600310016 06210 1110231ST MICHEL DU TOUCH  0000000LE RITOURET         0030992RITOURET EST        0020825003990003990320000500300000000000998      098870  32                                                                                                                             150000001         140000001    7    130000001    7    120912271    7    110980821                                                                                                                                                        
310509612210016 06210 1110231ST MICHEL DU TOUCH  0000000LE RITOURET         0030992RITOURET EST        0020825003990003990320000500300000000000998      050096  33                                                                                                                             150000001         140000001    7    130000001    7    120409651    7    110495911                                                                                                                                                        
310509611110016 06210 1110231ST MICHEL DU TOUCH  0000000LE RITOURET         0030992RITOURET EST        0020825003990003990320000500300000000000998      048774  307    049743   053156   051741   052533   050420   051158   047098   045061   053241   052402   039875   048265               150421081         140504371    7    130503661    7    120502621    7    110484911    7    038925   050669   052326   042433   035756   039202   038007   031413   040325   039048   046689   051336                                      
310509200310016 06230 1114031PALAYS              0000000CNES                0000415GIRAT PALAYS        0000250000415000415320000500300000000000187      025267  397    023913   001468   025504   029054   026691   028980   023923   023883   029285   028457   031381   029697               150278961    7    140279061    7    130000001         120000001         110407261         029654   028973   030153   028175   026209   028645   025273   020902   028698   029886   029404   028996                                      
310502103210016 06240 111 231BAYLAC 1            0000520ST MARTIN DU TOUCH  0010500BAYLAC              0001184001163001163320000500300000000000194      111981  50                                                                                                                             150555771         140550361         130000001         120545811         110548551                                                                                                                                                        
310502103110016 06240 111 231BAYLAC 1            0000520ST MARTIN DU TOUCH  0010500BAYLAC              0001184001163001163320000500300000000000194      055550  50                                                                                                                             150543841         140499451         130000001         120450321         110518111                                                                                                                                                        
310502100310016 06240 111 231BAYLAC 1            0000520ST MARTIN DU TOUCH  0010500BAYLAC              0001184001163001163320000500300000000000194      056431  50                                                                                                                             151099611         141049811         130000001         120996131         111066661                                                                                                                                                        
310502002210016 06240 111 231PURPAN              0000000BAYLAC 1            0000520PURPAN A624         0000351000520000520320000500300000000000194      058840  35                                                                                                                             150582281         140573821         130000001         120568871    7    110568071    7                                                                                                                                                   
310502002110016 06240 111 231PURPAN              0000000BAYLAC 1            0000520PURPAN A624         0000351000520000520320000500300000000000194      050389  47                                                                                                                             150496421         140490311         130000001         120485041         110498261                                                                                                                                                        
310502000310016 06240 111 231PURPAN              0000000BAYLAC 1            0000520PURPAN A624         0000351000520000520320000500300000000000194      109229  41                                                                                                                             151078701         141064131         130000001         121053911         111066331                                                                                                                                                        
310502203210016 06240 111 231ST MARTIN DU TOUCH  0010500LA CRABE            0030900CRABE EST           0020252002400002400320000500300000000000194      065257  55                                                                                                                             150640121         140631701         130000001         120615641         110611641                                                                                                                                                        
310502203110016 06240 111 231ST MARTIN DU TOUCH  0010500LA CRABE            0030900CRABE EST           0020252002400002400320000500300000000000194      066937  55                                                                                                                             150656771         140646721         130000001         120634731         110627701                                                                                                                                                        
310502200310016 06240 111 231ST MARTIN DU TOUCH  0010500LA CRABE            0030900CRABE EST           0020252002400002400320000500300000000000194      132194  55                                                                                                                             151296891         141278421         130000001         121250371         111239341                                                                                                                                                        
320000200310016 00210 4113 51LECTOURE NORD       0100760FLEURANCE EB 10     0220960SAINT GENY          01708500114290114293200005003000       0187      006214   98    005532   005860   006106   006186   006178   006507   006588   006772   006611   006297   006051   005873               150061461    8    140062751 1188    130062461    8    120068241    8    110064321 1248    005513   005599   006053   006244   005982   006565   006564   006596   006507   006247   005973   005884                                      
320000200210016 00210 4113 51LECTOURE NORD       0100760FLEURANCE EB 10     0220960SAINT GENY          01708500114290114293200005003000       0187      003089  888    002758   002903   003030   003076   003065   003228   003274   003390   003296   003132   003006   002904               150030561    8    140031251 1398    130031141    8    120031541    8    110031981    8    002748   002770   003009   003101   002978   003271   003254   003305   003244   003107   002963   002906                                      
320000200110016 00210 4113 51LECTOURE NORD       0100760FLEURANCE EB 10     0220960SAINT GENY          01708500114290114293200005003000       0187      003125  928    002774   002957   003076   003110   003113   003279   003314   003382   003315   003165   003045   002969               150030901    8    140031501    8    130031321    8    120036701 1118    110032341    8    002765   002829   003044   003143   003004   003294   003310   003291   003263   003140   003010   002978                                      
320000300310016 00210 4843 51FLEURANCE EB 10     0220960FLEURANCE EB 20     0260856FLEURANCE AGGLO     02500000043080043083200005003000       0187      009072  88                                                                                                                             150000008         140000008         130074778         120075098         110000008                                                                                                                                                        
320000400310016 00210 4813 51FLEURANCE EB 20     0260856RD 172              0360397FLEURANCE AN SUD    02608700096010096013200005003000       0187      000000                                                                                                                                 150000008         140000008         130078138         120000008         110000008                                                                                                                                                        
320000500310016 00210 4113 51RD 172              0360397AUCH EB 10          0460900ROUTE D'AGEN        04504500105290105293200016013000       0187      009984         009451   010062   010275   010358   010026   010491   010046   009715   010377   009966   009478   009597               150100381         140100861         130097831         120098241         110103221         009457   009589   010174   010236   009713   010496   010025   009694   010628   010510   009910   010016                                      
320000500210016 00210 4113 51RD 172              0360397AUCH EB 10          0460900ROUTE D'AGEN        04504500105290105293200016013000       0187      004973         004727   005009   005126   005163   004989   005230   004994   004863   005193   004972   004661   004763               150049981         140050141         130048681         120048291         110051531         004732   004770   005063   005089   004835   005228   004976   004844   005299   005240   004937   004956                                      
320000500110016 00210 4113 51RD 172              0360397AUCH EB 10          0460900ROUTE D'AGEN        04504500105290105293200016013000       0187      005011         004724   005053   005149   005195   005037   005261   005052   004852   005184   004994   004817   004834               150050401         140050721         130049151         120049951         110051691         004725   004819   005111   005147   004878   005268   005049   004850   005329   005270   004973   005060                                      
320000599310016 00210 4853 51AUCH EB 10          0460900AUCH EB 20          0520026AUCH                05200000054200054203200016013000       0187      000000                                                                                                                                 150000008         140000008         130207688         120000008         110209018                                                                                                                                                        
320000601310016 00210 4113 51AUCH EB 20          0520026DEBUT 3 VOIES       0630209DEPOT FERRE         05309000111850111853200006013000       0187      007904  947    007327   007692   007944   007983   007714   008186   008020   008127   008298   008106   007752   007705               150079261    7    140000001         130078471         120077721         110079591         007290   007293   007843   007931   007731   008238   008230   008177   008426   008284   007816   007820                                      
320000601210016 00210 4113 51AUCH EB 20          0520026DEBUT 3 VOIES       0630209DEPOT FERRE         05309000111850111853200006013000       0187      003943  947    003672   003825   003956   003970   003846   004078   003954   004082   004141   004049   003911   003837               150039471    7    140000001         130038951         120038371         110039311         003647   003638   003913   003943   003844   004101   004052   004098   004203   004131   003897   003882                                      
320000601110016 00210 4113 51AUCH EB 20          0520026DEBUT 3 VOIES       0630209DEPOT FERRE         05309000111850111853200006013000       0187      003961  967    003655   003867   003988   004013   003868   004108   004066   004045   004157   004057   003841   003868               150039791    7    140000001         130039521         120039351         110040281         003643   003655   003930   003988   003887   004137   004178   004079   004223   004153   003919   003938                                      
320000602310016 00210 4815 51DEBUT 3 VOIES       0630209FIN 3 VOIES         0650264COMPTAGE 0006 01    06500000019810019813200006013000       0187      000000                                                                                                                                 150000008         140000008         130082478         120000008         110000008                                                                                                                                                        
320000603310016 00210 4813 51FIN 3 VOIES         0650264DEBUT 3 VOIES       0690175COMPTAGE 0006 02    06600000037400037403200006011000       0187      000000                                                                                                                                 150000008         140059028 100     130061578         120000008         110000008                                                                                                                                                        
320000604310016 00210 4815 51DEBUT 3 VOIES       0690175FIN 3 VOIES         0700499COMPTAGE 0006 03    07000000013300013303200006012000       0187      000000                                                                                                                                 150000008         140000008         130081248         120000008         110000008                                                                                                                                                        
320000605310016 00210 4813 51FIN 3 VOIES         0700499RD 104              0720812COMPTAGE 0006 04    07100000022820022823200006013000       0187      000000                                                                                                                                 150000008         140000008         130075088         120000008         110000008                                                                                                                                                        
320000700310016 00210 4813 51RD 104              0720812RD 3                0890612MIRANDE             07505000167280167283200008003000       0187      000000                                                                                                                                 150000008         140049348 131     130056428         120000008         110000008                                                                                                                                                        
320000800310016 00210 4113 51RD 3                0890612DEPARTEMENT 65      1000408LAGUIAN             08909000102290102293200010003000       0187      004507 1147    004026   004257   004377   004491   004547   004642   004782   004908   004760   004702   004351   004228               150045941 1127    140046191 1137    130046431 1127    120046751 1137    110047361 1117    004067   004041   004424   004583   004609   004846   005067   005164   004851   004729   004415   004293                                      
320000800210016 00210 4113 51RD 3                0890612DEPARTEMENT 65      1000408LAGUIAN             08909000102290102293200010003000       0187      002255 1147    002023   002120   002188   002242   002270   002335   002380   002463   002388   002359   002180   002103               150022751 1127    140022861 1157    130022961 1147    120023051 1137    110023561 1107    002024   002003   002206   002287   002298   002366   002442   002506   002425   002377   002215   002134                                      
320000800110016 00210 4113 51RD 3                0890612DEPARTEMENT 65      1000408LAGUIAN             08909000102290102293200010003000       0187      002252 1157    002003   002137   002189   002249   002277   002307   002402   002445   002372   002343   002171   002125               150023191 1107    140023331 1107    130023471 1107    120023701 1127    110023801 1147    002043   002038   002218   002296   002311   002480   002625   002658   002426   002352   002200   002159                                      
320000901310016 01240 4813 51DEPARTEMENT 31      0000000DEBUT DEV PUJAUDRAN 0020700COMPTAGES 0009.03   0010000002690002690320001000331000340030191      000000                                                                                                                                 150000008         140000008         130000008         120000008         110000008                                                                                                                                                        
320000902310016 01240 481 251DEBUT DEV.PUJAUDRAN 0020700FIN DEV.            0050800DEV.PUJAUDRAN       0040000002982002982320001000300000000000191      000000                                                                                                                                 150000008         140000008         130000008         120000008         110000008                                                                                                                                                        
320000902210016 01240 481 251DEBUT DEV.PUJAUDRAN 0020700FIN DEV.            0050800DEV.PUJAUDRAN       0040000002982002982320001000200000000000191      000000                                                                                                                                 150000008         140000008         130000008         120000008         110000008                                                                                                                                                        
320000902110016 01240 481 251DEBUT DEV.PUJAUDRAN 0020700FIN DEV.            0050800DEV.PUJAUDRAN       0040000002982002982320001000100000000000191      000000                                                                                                                                 150000008         140000008         130000008         120000008         110000008                                                                                                                                                        
320000903310016 01240 411 251FIN DEV .PUJAUDRAN  0050800RD 654              0130143PUJAUDRAN           0060165006290006290320001000300000000000191      023034  568    020882   021866   022380   023113   023161   024544   024114   022843   024239   023724   022953   022605               150231321    8    140227501    8    130229831    8    120222671    8    110220551    8    021864   022045   022788   023243   022825   024617   024430   022619   024130   024405   022392   022189                                      
320000903210016 01240 411 251FIN DEV .PUJAUDRAN  0050800RD 654              0130143PUJAUDRAN           0060165006290006290320001000300000000000191      011588  478    010592   011033   011253   011591   011685   012340   012018   011659   012202   011884   011518   011285               150116401    8    140115371    8    130118801    8    120114641    8    110114931    8    011403   011386   011431   011542   011324   012261   012095   011386   012071   012196   011411   011176                                      
320000903110016 01240 411 251FIN DEV .PUJAUDRAN  0050800RD 654              0130143PUJAUDRAN           0060165006290006290320001000300000000000191      011446  648    010290   010833   011127   011522   011476   012204   012096   011184   012037   011840   011435   011320               150114921    8    140112131    8    130111031    8    120108031    8    110105621    8    010461   010659   011357   011701   011501   012356   012335   011233   012059   012209   010981   011013                                      
320001000310016 01240 4113 51RD 654              0130143DEBUT 3 VOIES       0320587ISLE JOURDAIN       0170800019015019015320001000300000000000187      012892  968    011649   012260   012540   012883   012890   013661   013561   013136   013320   013451   012756   012593               150126851    8    140000001         130000001         120000001         110116461 1038    011176   011505   012230   013441   012845   013232   013462   012943   013157   013297   012446   012422                                      
320001000210016 01240 4113 51RD 654              0130143DEBUT 3 VOIES       0320587ISLE JOURDAIN       0170800019015019015320001000300000000000187      006443  958    005847   006120   006253   006402   006429   006802   006758   006660   006668   006723   006408   006243               150063271    8    140000001         130000001         120000001         110058191    8    005587   005729   006116   006722   006408   006597   006595   006535   006613   006581   006249   006160                                      
320001000110016 01240 4113 51RD 654              0130143DEBUT 3 VOIES       0320587ISLE JOURDAIN       0170800019015019015320001000300000000000187      006449  978    005802   006140   006287   006481   006461   006859   006803   006476   006652   006728   006348   006350               150063581    8    140000001         130000001         120000001         110058271    8    005589   005776   006114   006719   006437   006635   006867   006408   006544   006716   006197   006262                                      
320001100310016 01240 4815 51DEBUT 3 VOIES       0320587GIR. AUBIET EST     0350180CAHUZAC             0330500002610002610320001000300000000000187      012832  11                                                                                                                             150000008         140000008         130000008         120000008         110000008                                                                                                                                                        
320001200310016 01240 481 251GIR. AUBIET EST     0350180RD 928              0380970DEV AUBIET EST      0360000003877003877320001000300000000000187      000000                                                                                                                                 150000008         140000008         130000008         120000008         110000008                                                                                                                                                        
320001300310016 01240 411 251RD 928              0380970GIR. AUBIET OUEST   0430000AUBIET              0420900004171004171320001000300000000000187      013051  70                                                                                                                             150128981         140000001         130000001         120000001         110000001                                                                                                                                                        
320001400310016 01240 4815 51GIR. AUBIET OUEST   0430000FIN 3 VOIES         0490332MARSAN              0470000006299006299320001000300000000000187      000000                                                                                                                                 150000008         140000008         130000008         120000008         110000008                                                                                                                                                        
320001501310016 01240 4813 51FIN 3 VOIES         0490332GIR ST.CRICQ        0510490ST.CRICQ            0510300002010002010320001601300000000000189      000000  697    011566   012358   012617   013038   013327   013540   014043   013856   012974   013552   012915   012797               150000001         140126261  697    130124681  697    120000001         110000001                                                                                                                                                        
320001501210016 01240 4813 51FIN 3 VOIES         0490332GIR ST.CRICQ        0510490ST.CRICQ            0510300002010002010320001601300000000000189      000000  657    005781   006125   006285   006444   006695   006706   006918   006956   006046   006599   006453   006312               150000001         140062741  657    130061871  657    120000001         110000001                                                                                                                                                        
320001501110016 01240 4813 51FIN 3 VOIES         0490332GIR ST.CRICQ        0510490ST.CRICQ            0510300002010002010320001601300000000000189      000000  767    005785   006233   006332   006594   006632   006834   007125   006900   006928   006953   006462   006485               150000001         140063521  787    130062811  797    120000001         110000001                                                                                                                                                        
320001502310016 01240 4113 01GIR ST.CRICQ        0510490GIR . ENDOUMINGUE   0560100ENGACHIES           0530020003766003766320001601300000000000187      009801 1108    008544   009188   009309   009974   010123   010365   010374   010567   010264   009995   009402   009499               150095201 1228    140091391 1278    130090441 1028    120085091 1418    110088371 1238    008116   008377   008903   009631   009807   010043   010578   010393   009937   009933   008979   009448                                      
320001502210016 01240 4113 01GIR ST.CRICQ        0510490GIR . ENDOUMINGUE   0560100ENGACHIES           0530020003766003766320001601300000000000289      005004 1098    004404   004699   004750   005106   005217   005295   005287   005411   005180   005070   004830   004796               150048161 1198    140046191 1238    130045591    8    120042551 1378    110046951    8    004112   004213   004479   004840   004973   005073   005285   005331   005052   004991   004572   004820                                      
320001502110016 01240 4113 01GIR ST.CRICQ        0510490GIR . ENDOUMINGUE   0560100ENGACHIES           0530020003766003766320001601300000000000289      004797 1128    004140   004489   004559   004868   004906   005070   005087   005156   005084   004925   004572   004703               150047041 1258    140045201 1318    130044851 1098    120042541 1508    110041421    8    004004   004164   004424   004791   004834   004970   005293   005062   004885   004942   004407   004628                                      
320001601310016 01240 4113 01GIR . ENDOUMINGUE   0560100GIR. RD 930         0620500DURAN               0610450005388005388320001601300000000000287      011300  967    010048   010562   010657   011372   011651   011681   012222   012189   011805   011624   010885   010874               150112281    7    140109121    7    130106781 1007    120104021 1027    110107461 1007    009754   009895   010547   011301   011680   011779   012491   012243   011689   011608   010733   010902                                      
320001601210016 01240 4113 01GIR . ENDOUMINGUE   0560100GIR. RD 930         0620500DURAN               0610450005388005388320001601300000000000287      005669  967    005073   005288   005342   005689   005848   005881   006037   006230   005945   005824   005460   005398               150056481    7    140054981    7    130053671    7    120052811    7    110054351    7    004911   004967   005297   005664   005909   005905   006206   006261   005919   005821   005420   005438                                      
320001601110016 01240 4113 01GIR . ENDOUMINGUE   0560100GIR. RD 930         0620500DURAN               0610450005388005388320001601300000000000287      005631  967    004975   005274   005315   005683   005803   005800   006185   005959   005860   005800   005425   005476               150055801    7    140054141    7    130053111 1117    120051211 1137    110053111 1137    004843   004928   005250   005637   005771   005874   006285   005982   005770   005787   005313   005464                                      
320001701310016 01240 4813 51GIR. RD 930         0620500DEBUT 3 VOIES       0730700NAHES               0650000011046011046320001601300000000000187      007621 134                                                                                                                             150000008         140000008         130085698         120000008         110000008                                                                                                                                                        
