900001300310016 10190 4110701Ech. Morvillars     0140622Frontière           0201200SRDT FECHE_EGLISE   0180600006578006578          00000000000515      008400 0600                                                                                                                            150080481    7    140075791    7    130000001    0    120000001    0    110000001    0    007501   007801   008154   008496   007847   008654   007633   006834   008600   008707   008317   008065                                      
900001000310016 10190 4113001Début (limite dépt 70000000Ech. Sévenans (A36) 0050454SRDT DORANS         0040900005497005497          00000000000515      000000                                                                                                                                 150000001         140000001    0    130000001    0    120153361    0    110150881 1837                                                                                                                                                   
900000300310016 10190 4113001Ech. Sévenans (A36) 0050454Ech. Morvillars     0140622SRDT BOUROGNE       0110600009103009103          00000000000515      013496 0897    012566   013178   014088   014085   013666   014160   012615   011648   014187   014094   014196   013529               150000001         140115441    7    130000001    0    120000001    0    110000001    0                                                                                                                                                   
880003210310016 20660 4813001Début viaduc du Séch0370000Fin viaduc du Séchen0370688Séchenat            0370500000688000688          00000000000515      000000                                                                                                                                 150000008         140000008    0    130000008    0    120000008    0    110000008    0                                                                                                                                                   
880003200310016 00660 4815001Bussang (inter D89) 0350417Limite dépt 68      0380520Bussang Est         0350700003166002815680000700368000070030187      000000                                                                                                                                 150000008         140000008    0    130000008    0    120000008    0    110000008    0                                                                                                                                                   
880003100310016 00660 4813001Saint-Maurice (inter0300618Busanng (inter D89) 0350417Bussang Ouest       0320000004752002073680000700300000000000515      000000                                                                                                                                 150000008         140000008    0    130000008    0    120000008    0    110000008    0                                                                                                                                                   
880003000310016 00660 4813001Fin voie expresse (S0180250Saint-Maurice (inter0300618La Hardoye          0300000012407007157680000700300000000000515      000000                                                                                                                                 150000008         140000008    0    130000008    0    120000008    0    110000008    0                                                                                                                                                   
880002900310016 00660 4110701Ech. Accrues Noël   0020957Fin voie expresse (S0180250SRDT LEPANGE        0080300021720016034680000700300000000000515      007993 1107    007171   007637   007911   008046   008171   008411   008481   008324   008434   007662   007782   007889               150079291 1107    140078381 1137    130000001    0    120000001    0    110108611    7    006986   007601   007906   008103   008004   008088   008484   007978   008268   008196   007668   007847                                      
880002800310016 00660 3810201Ech. Moulin (N57)   0000000Ech. Accrues Noël   0020957                    0010000002959002959880002900300000000000515      000000                                                                                                                                 150000008         140000008    0    130000008    0    120000008    0    110000008    0                                                                                                                                                   
880002400310016 01590 4113001Début (N59)         0000000Fin (concession TML)0030775SRDT BERTRIMOUTIERS 0010130003823003823880002900300000000000515      008162 1297    006866   007610   008010   008122                     009043   008996   008818   008615   007970                        150078391 1147    140000001    0    130000001    0    120000001    0    110000001    0    006685   007291   007353   007892   007948   008251   008381   008284   008127   008114   007515   008186                                      
880002200310016 00590 4815001Ech. Fin 2x2        0240753Fin (éch. N159)     0280032Remomeix            0260100003263003263          00000000000515      000000                                                                                                                                 150000008         140000008    0    130000008    0    120069888    0    110069858    0                                                                                                                                                   
880002110310016 00590 3810201Ech. D415           0230110Ech. Fin 2x2        0240753Saint-Dié Sud       0240000001643001643880002100300000000000515      005122                                                                                                                                 150049278         140049028    0    130044508    0    120044338    0    110000008    0                                                                                                                                                   
880002100310016 00590 3110201Ech. D85            0140876Ech. D415           0230110SRDT ST_DIE         0210300009038009038880002100300000000000515      016954 1267    014239   015820   016116   016691   017179   017667   018411   018323   017949   017386   016108   017510               150163071         140162231 1157    130147251    0    120146681    0    110000001    0    013802   015665   015495   016628   016721   017062   017661   017521   016754   016583   014656   017072                                      
880002000310016 00590 3110201Ech. D32            0120163Ech. D85            0140876SRDT LA_PECHERIE    0140100009038009038880002100300000000000515      027284 0857    024166   026089   026799   027291   027811   028194   027996   027656   028985   028054   026573   027771               150000001         140000001    0    130263591    0    120262561    0    110265531    7                                                                                                                                                   
880001900310016 00590 3110201Ech. D259           0040033Ech. D32            0120163SRDT ETIVAL         0070100007766007766880002100300000000000515      015166         013234   014480   014671   014984   015505   015994   015748   015824   015743   015472   014598   015715               150148861 1237    140145871 1077    130142781 1127    120000001    0    110000001    0    013046   014427   014332   014904   014697   015365   015363   015056   015343   016208   014426   015444                                      
880001510310016 00590 3810201Limite Dépt 54      0000000Ech. D259           0040033N59 - dév. de Raon-l0030880003418003418880001900354000580030515      000000                                                                                                                                 150000008         140000008    0    130000008    0    120000008    0    110000008    0                                                                                                                                                   
880001400310016 00570 4813001Ech. Plombières     0640788Limite Dépt 70      0720268Plombières Sud      0650000006870006870880001300370000100030515      000000                                                                                                                                 150000008         140000008    0    130000008    0    120000008    0    110000008    0                                                                                                                                                   
880001300310016 00570 3113001Ech. Le Baccu       0560883Ech. Plombières     0640788SRDT OLICHAMP       0590000007903007903880001300300000000000515      011995 2067    009894   011307   011456   011906   012267   012489   013463   013245   012559   012239   011336   011739               150116651 2107    140114191 2107    130000001    0    120000001    0    110112001    0    009527   010973   010940   011997   011791   012376   013001   012889   012131   012019   010823   011472                                      
880001200310016 00570 3810201Ech. Moulin (N66)   0550090Ech. Le Baccu       0560883Saint Nabord Sud    0560000001802001802880001300300000000000515      000000                                                                                                                                 150000008         140000008    0    130000008    0    120000008    0    110000008    0                                                                                                                                                   
880001100310016 00570 3810201Ech. Peuxy          0500717Ech. Moulin (N66)   0550090Saint Nabord        0520000004412004412880001010300000000000515      030236                                                                                                                                 150294598         140290288    0    130000008    0    120000008    0    110000008    0                                                                                                                                                   
880001010310016 00570 3110201Ech. Pouxeux        0450351Ech. Peuxy          0500717SRDT POUXEUX        0480100005379005379880001010300000000000515      026692 1377    023827   026474   026784   026556   026817   027676   027388   026640   028092   027669   026170   026253               150260061 1397    140256251 1397    130000001    0    120000001    0    110000001    0    023106   026042   025810   026387   025711   027275   026950   025802   027052   027186   025215   025612                                      
880000900310016 00570 3810201Ech. Arches         0400572Ech. Pouxeux        0450351                    0430000004777004777880001010300000000000515      000000                                                                                                                                 150000008         140000008    0    130000008    0    120000008    0    110000008    0                                                                                                                                                   
880000740310016 00570 3110201Ech. Razimont       0330426Ech. Arches         0400572SRDT DEV_EPINAL     0340340007157007157880001010300000000000515      026879         023636   026842   027148   026529   026961   027895   027406   026548   028367   028133   026459   026679               150000001         140220731 1437    130000001    0    120252751    0    110255631 1567                                                                                                                                                   
880000730310016 00570 3810201Ech. Parc expos     0310988Ech. Razimont       0330426Failloux            0330000001439001439880000740300000000000515      028005                                                                                                                                 150000008         140229988    0    130266838    0    120263358    0    110266368    0                                                                                                                                                   
880000720310016 00570 3810201Ech. Jeuxey         0300876Ech. Parc expos     0310988Les Grandes Terres  0310300001113001113880000740300000000000515      038354                                                                                                                                 150000008         140314978    0    130365428    0    120360678    0    110364788    0                                                                                                                                                   
880000710310016 00570 3810201Ech. Chavelot       0260155Ech. Jeuxey         0300876Les Neuf Lieux      0280000004729004729880000740300000000000515      035103                                                                                                                                 150000008         140288278    0    130334458    0    120330098    0    110333868    0                                                                                                                                                   
880000600310016 00570 3110201Ech. Igney          0200297Ech. Chavelot       0260155SRDT CHAVELOT       0240300005894005894880000740300000000000515      033133 1197    029989   033354   033677   032704   033442   034945   033972   032045   034929   033927   032470   032226               150325641 1197    140313721 1167    130317991 1197    120320631    0    110322101 1227    029702   033159   033048   033448   032532   034857   032461   031118   033492   033440   031749   031921                                      
880000200310016 00570 3810201Ech. Châtel-sur-Mose0140844Ech. Igney          0200297Dév. Nomexy         0150350005492005492880000100300000000000515      028123                                                                                                                                 150274908         140269228    0    130258758    0    120260908    0    110000008    0                                                                                                                                                   
880000100310016 00570 3110201Limite Dépt 54      0000000Ech. Châtel-sur-Mose0140844SRDT CHARMES        0060400014882014882880000100354000550030515      022425 1547    019916   022544   021900   022019   022963   023491   023615   023027   023470   023131   021678   021389               150219201 1567    140214671 1567    130000001    0    120000001    0    110000001    0    019067   022290   021690   022418   022025   023273   023027   022087   022643   022646   020928   021035                                      
700001700310016 00570 4813001Ech. Rioz           0690253Limite Dépt 25      0810690Rioz                0720000012517012517700001600325000010030193      011588                                                                                                                                 150117398         140116048    0    130110028    0    120112818    0    110114278    0                                                                                                                                                   
700001600310016 00570 4113001Giratoire D457      0510700Ech. Rioz           0690253SRDT LA_MALACHERE   0680000017407017103700001600300000000000515      010676 1337    009582   010292   010606   010829   010903   011365   011088   010679   011309   011021   010223   010223               150108151 1357    140106901 1377    130101351    0    120103921    0    110105261 1497    009519   010462   010585   011463   010701   011682   011337   010769   011419   011166   010440   010261                                      
700001399310016 00570 4853001Inter N19           0450000Giratoire D457      0510700                    0500000007201000000          00000000000515      000000                                                                                                                                 150000008         140000008    0    130000008    0    120000008    0    110000008    0                                                                                                                                                   
700001301310016 00570 4813001Saulx (inter D14)   0320600Inter N19           0440529Comberjon           0430000011728011000700001300300000000000515      011874                                                                                                                                 150115658         140119378    0    130117578    0    120118988    0    110141768    0                                                                                                                                                   
700001300310016 00570 4113001Fin dév. Luxeuil (gi0180950Saulx (inter D14)   0320600SRDT PONT_JOLY      0290600013906013498700001300300000000000515      008020 2007    006873   007640                     008141   008544   008819   008582   008516   008160   007604   007318               150078111 1827    140080621 1907    130079401 2037    120080351    0    110095731 1577    006874   007686   007747            008204   008456   008958   008669   008507   007469   006537   006810                                      
700001200310016 00570 4813001Ech. Zouzette       0150610Fin dév. Luxeuil (gi0180950Saint-Sauveur       0180000003672003672          00000000000515      000000                                                                                                                                 150000008         140000008    0    130000008    0    120000008    0    110000008    0                                                                                                                                                   
700001100310016 00570 4810201Ech. de la Motte    0090183Ech. Zouzette       0150610Luxeuil             0140000002112001762          00000000000515      000000                                                                                                                                 150000008         140000008    0    130000008    0    120000008    0    110000008    0                                                                                                                                                   
700001000310016 00570 4813001Limite Dépt 88      0000000Ech. de la Motte    0090183Fougerolles         0080000009182009182880001300388000140030515      000000                                                                                                                                 150000008         140000008    0    130000008    0    120000008    0    110000008    0                                                                                                                                                   
700000901310016 00190 4813001Frahier (inter D16) 0920900Fin (D19)           0980343Frahier             0940000005386002550700000800300000000000515      000000                                                                                                                                 150082338         140079288    0    130073008    0    120000008    0    110000008    0                                                                                                                                                   
700000900310016 00190 4813001Romchamp (inter D4) 0840300Frahier (inter D16) 0920900Ronchamp            0860000008568005206700000800300000000000515      000000                                                                                                                                 150055378         140053328    0    130049108    0    120000008    0    110000008    0                                                                                                                                                   
700000801310016 00190 4813001Ech. Dév. Lure      0740382Romchamp (inter D4) 0840300Roye                0750300010291004349700000800300000000000515      000000                                                                                                                                 150000008         140000008    0    130000008    0    120000008    0    110000008    0                                                                                                                                                   
700000800310016 00190 4110201Giratoire Lure (D64)0690000Ech. Dév. Lure      0740382SRDT LURE           0730500005329005329700000800300000000000515      000000                                                                                                                                 150160131 1787    140154181 1747    130141961    0    120000001    0    110000001    0    013551   014839   015514   016770   016333   017332   016726   015575   016809   017029   015826   015820                                      
700000601310016 00190 4813001Ech. D919           0450161Giratoire Lure (D64)0681452Bouhans-lès-Lure    0670000024144021780700000800300000000000515      000000                                                                                                                                 150085668         140082488    0    130075958    0    120000008    0    110000008    0                                                                                                                                                   
700000600310016 00190 4853001Ech. Frotey-lès-Veso0430138Ech. D919           0450161Frotey-lès-vesoul   0440000002050000000700000400300000000000515      013175                                                                                                                                 150124368         140000008    0    130000008    0    120149678    0    110000008    0                                                                                                                                                   
700000500310016 00190 4815001VESOUL              0410600Ech. Frotey-lès-Veso0430138Vesoul              0430000001544000000700000400300000000000515      025889                                                                                                                                 150244378         140000008    0    130000008    0    120294098    0    110000008    0                                                                                                                                                   
700000400310016 00190 4153001Ech. Zone de l'Oasi 0391028VESOUL              0410600SRDT LA_VAUGINE     0400200001702000000700000400300000000000515      027532 1247    024518   026356   027624   028247   028089   029694   028144   026901   028935   027961   026976   026978               150259871 1167    140000001    0    130000001    0    120312741    0    110333161 1227    023415   024706   025164   026803   025381   027264   026066   024463   026617   028157   026614   027175                                      
700000301310016 00190 4810201Ech. Charmoille     0360047Ech. Zone de l'Oasi 0391028Pusey               0380000003975003975700000400300000000000515      020600                                                                                                                                 150194448         140000008    0    130000008    0    120234008    0    110000008    0                                                                                                                                                   
700000300310016 00190 4813001PORT S /SAONE       0310100Ech. Charmoille     0360047Port-sur-Saône      0330000004949004649520001300300000000000515      018388                                                                                                                                 150188898         140000008    0    130175838    0    120158838    0    110000008    0                                                                                                                                                   
700000200310016 00190 4813001Combeaufontaine (int0170981PORT S/ SAONE       0310100Port-sur-Saône      0290000013036010287520001300300000000000515      008652                                                                                                                                 150088888         140000008    0    130082748    0    120074748    0    110093428    0                                                                                                                                                   
700000100310016 00190 4113001Limite Dépt 52      0000000Combeaufontaine (int0170981SRDT COMBEAU        0160800017916016360520001300352000140030515      000000    0                                                                                                                            150000001    0    140000001    0    130000001    0    120000001    0    110000001    0                                                                                                                                                   
680501900310016 00350 1150231Limite N83 (Houssen)0590000Ech. Colmar Nord ZI 0630405SRDT THEINHEIMER    0610390003596003596520001300300000000000515      000000                                                                                                                                 150406731 1867    140400251 1877    130392671 1957    120392491    0    110383721 1987    034738   038134   038492   039787   039736   042183   044842   043807   043459   043034   039007                                               
680501800310016 00350 1150231Ech. Colmar Nord ZI 0630405Ech. Colmar Sud     0660600SRDT HORBOURG       0640884003202003202520001300300000000000515      055659 1597    048757   053222   056820   056574   056376   058847   059292   053837   058825   057531   050819   056938               150548111 1607    140502171 1537    130521711 1677    120515271    0    110523831 1777    047471   051478   052560   055865   053248   056688   058825   057777   057765   057738   054120   054049                                      
680501700310016 00350 1110241Ech. Colmar Sud     0660600Ech. Colmar centre  0690158SRDT DACHSBUHL      0670547002560002560520001300300000000000515      045264 1787    038889   043170   045856   045882   046474   048048   048472   042809   047236   046784   043890   045653               150439861 1817    140417911 1977    130419381 1937    120412761    0    110422211 2037    037664   041452   042263   044989   043577   044755   047873   046231   046684   046656   042715   042825                                      
680501600310016 00350 1110241Ech. Colmar centre  0690158Ech. Niederhergheim 0750279SRDT FRONHOLZ       0710500006092006092520001300300000000000515      000000                                                                                                                                 150000001         140000001    0    130491021 1637    120483391    0    110492341 1677                                                                                                                                                   
680501500310016 00350 1110241Ech. Niederhergheim 0750279Ech. Meyenheim      0830153SRDT OBERHERGHEIM   0810600007760007760520001300300000000000515      047720 1637    040673   045089   048344   048051   048381   049855   050297   047641   050054   049403   045924   048858               150460541 1677    140000001    0    130444441    0    120437541    0    110000001    0    037467   042465   043820   047495   045897   047968   049526   048867   048914   048859   045272   045919                                      
680501400310016 00350 1110241Ech. Meyenheim      0830153Ech. Ensisheim      0880928SRDT MEYENHEIM      0840600005691005691520001300300000000000515      044540 1667    038250   042123   044863   044563   045585   046553   047402   044998   046119   045537   042902   045493               150426551 1707    140000001    0    130000001    0    120000001    0    110000001    0    037571   040384   040896   043296   042452   043599   045861   045277   045213   045389   039450   042282                                      
680501300310016 00350 1110241Ech. Ensisheim      0880928Ech. Croix de la Har1000039SRDT BALDERSHEIM    0970300010885010885520001300300000000000515      000000                                                                                                                                 150000001         140000001    0    130000001    0    120000001    0    110000001    0                                                                                                                                                   
680501100310016 00350 1810241Ech. Croix de la Har1000039Ech. Rixheim        1040629Rixheim Nord        1030000004570004570680501000300000000000515      000000                                                                                                                                 150000008         140553608    0    130541788    0    120531228    0    110000008    0                                                                                                                                                   
680501000310016 00350 1110241Ech. Rixheim        1040629Ech. Bartenheim     1170923SRDT RIXHEIM        1050320013316013316680501000300000000000515      000000                                                                                                                                 150000001         140512781    7    130501831    7    120492041    0    110491811    7                                                                                                                                                   
680500920310016 00350 1110241Ech. Aéroport       1220760Ech. Huningue       1240398SRDT HESINGUE       1240200001638001638680501000300000000000515      000000                                                                                                                                 150000001         140000001    0    130000001    0    120431191    0    110000001    0                                                                                                                                                   
680500900310016 00350 1110241Ech. Bartenheim     1170923Ech. Aéroport       1220760SRDT BLOTZHEIM      1210750004804004804680501000300000000000515      053109 0667    047748   051822            054873   053858            053896   055372   055509   053795   052230   052002               150521081    7    140517631    7    130000001    0    120000001    0    110000001    0    047657   051162   052162   053564   051435   055056   054685                     053997   050498   050859                                      
680500800310016 00350 1110241Ech. Huningue       1240398PFD Saint-Louis     1260000SRDT SAINT_LOUIS    1250380001602001602680501000300000000000515      000000                                                                                                                                 150314741    8    140312941    8    130313101    8    120307071    8    110305521    8    028465   030450   031320   031565   029558   032698   034150   033373   032750   032293   029924   031078                                      
680500700310016 00360 1110241Douane              1180600Frontière           1200542SRDT OTTMARSHEIM    1190840001908001908680501000300000000000515      016680 3200                                                                                                                            150157321 3087    140000001    0    130144341 2647    120133651 2828    110142641 2378    012073   013035   014152   015373   016183   016767   018571   020777   017803   016892   013984   012954                                      
680500600310016 00360 1810241Ech. Peugeot        1120170Douane              1180600Ottmarsheim Ouest   1160000006430006430680500700300000000000515      021766                                                                                                                                 150205298         140000008    0    130188368    0    120174418    0    110186158    0                                                                                                                                                   
680500500310016 00360 1110241Ech. Croix de la Har1100750Ech. Peugeot        1120170SRDT PEUGEOT        1110300001420001420680500700300000000000515      000000                                                                                                                                 150000001         140000001    0    130000001    0    120000001    0    110000001    0                                                                                                                                                   
680500300310016 00360 1150431Ech. Mulhouse centre1050580Ech. Croix de la Har1100750SRDT ILE_NAPOL      1080000005170001247680500700300000000000515      096039 1357    087386   093590   098335   100595   100166   101764   094223   088119   100214   099645   094561   094135               150959691 1337    140922801 1337    130913111 1317    120894451    0    110919461 1317    085814   091094   093557   097096   094418   101751   099174   095052   100838   101264   093752   097656                                      
680500200310016 00360 1150431Ech. Mulhouse-Dornac1020042Ech. Mulhouse centre1050580SRDT BOURTZWILLER   1040700003538000000680500700300000000000515      087708 1367    081342   086531   091851   099681   091935   090726   077999   072492   091942   092470   088071   088023               150889281 1367    140872411 1357    130852971 1367    120838661    0    110859101 1437    079389   083949   087470   094198   087050   093868   091863   088476   093323   092945   086617   087897                                      
680500100310016 00360 1850231Fin concession      1000000Ech. Mulhouse-Dornac1020042Mulhouse Ouest      1010000002042000000680500200300000000000515      084611                                                                                                                                 150857888         140841618    0    130822868    0    120809068    0    110828788    0                                                                                                                                                   
680004200310016 00350 1810241Limite Dépt 67      0000000N83                 0010484Ziergel             0010000001484000000680004110367050181030515      000000                                                                                                                                 150000008         140000008    0    130000008    0    120000008    0    110000008    0                                                                                                                                                   
680004110310016 00830 3110201Ech. Guémar         0650975Limite A35 (Bergheim0681006SRDT GUEMAR         0660820002875002875680004110300000000000515      058605 1507    055416   057202   057634   059143   060948   061708   061680   060859   061937   049652                                 150000001         140000001    0    130518141 1577    120549411    0    110558091 1667                                                                                                                                                   
680004000310016 00830 3810201Ech. Ostheim        0620737Ech. Guémar         0650975Guémar Sud          0640500003422003422680004110300000000000515      056605                                                                                                                                 150000008         140000008    0    130500468    0    120530678    0    110539068    0                                                                                                                                                   
680003900310016 00830 3110201Limite A35 (Houssen)0580000Ech. Ostheim        0620737SRDT OSTHEIM        0610050004229001000680004110300000000000515      000000                                                                                                                                 150000001         140581721 1457    130573481 1487    120579941    0    110583851 1507                                                                                                                                                   
680001610310016 00660 3110201Ech. Wittelsheim Sud0330026Ech. A36            0370855SRDT LUTTERBACH     0360700004797004797680004110300000000001187      033000 0600                                                                                                                            150321201    7    140340691    7    130333791    7    120341391    0    110319001    7    031618   033109   033646   033712   029729   037180   024096   020382   036635   036487   034666   034719                                      
680001500310016 00660 4110201Ech. Cernay Sud (D830280811Ech. Wittelsheim Sud0330026SRDT WITTELSHEIM    0320540004450004215680004110300000000001187      000000                                                                                                                                 150000001         140000001         130000001         120306871         110303411                                                                                                                                                        
680001400310016 00660 3110201Thann Est           0230469Ech. Cernay Sud (D830280811SRDT CERNAY         0270870004222004222680004110300000000000515      024041 0787                      024394   024185   024581   024277   023858   023403   025013   024565   023154   022995               150238271    7    140234071    7    130232711    7    120235711    0    110000001    0    021503   022634   023527   024389   023414   025722   024595   022809   024934   024745                                                        
680001200310016 00660 4843001Giratoire Thann Fbg.0210217Thann Est (inter D100230469Thann               0210400002256000000680001100300000000000515      000000                                                                                                                                 150000008         140000008    0    130000008    0    120172988    0    110175898    0                                                                                                                                                   
680001100310016 00660 4133001Bitschwiller (inter 0190553Giratoire Thann Fbg.0210217SRDT BITSCHWILLER   0200400001628000000680001100300000000000515      000000                                                                                                                                 150000001         140000001    0    130000001    0    120202531    8    110205931    8                                                                                                                                                   
680001000310016 00660 4833001Willer-sur-Thur (int0170985Bitschwiller (inter 0190553Willer-Bitschwiller 0180500001600000000680001100300000000000515      000000                                                                                                                                 150000008         140000008    0    130000008    0    120176208    0    110179168    0                                                                                                                                                   
680000920310016 00660 4833001Moosch (inter D13bVI0150246Willer-sur-Thur (int0170985Moosch - Willer/Thur0160300002736001000680001100300000000000515      000000                                                                                                                                 150000008         140000008    0    130000008    0    120154928    0    110157538    0                                                                                                                                                   
680000910310016 00660 4833001Giratoire St-Amarin 0140222Moosch (inter D13bVI0150246St-Amarin Moosch    0140300001024000000680001100300000000000515      000000                                                                                                                                 150000008         140000008    0    130000008    0    120146998    0    110149468    0                                                                                                                                                   
680000905310016 00660 4833001Giratoire St-Amarin 0120127Giratoire St-Amarin 0140222Déviation St-Amarin 0130000002067002067680001100300000000000515      000000                                                                                                                                 150000008         140000008    0    130000008    0    120107198    0    110108998    0                                                                                                                                                   
680000900310016 00660 4823001Giratoire Wesserling0100258Giratoire St-Amarin 0120127Ranspach            0100300001863000300680001100300000000000515      000000                                                                                                                                 150000008         140101758    0    130000008    0    120109118    0    110110958    0                                                                                                                                                   
680000800310016 00660 4813001Urbès               0070076Giratoire Wesserling0100258Wesserling          0090004003151001911680000700300000000000515      004973                                                                                                                                 150049768         140049178    0    130000008    0    120051128    0    110054038    0                                                                                                                                                   
680000700310016 00660 4115001Limite Dépt 88      0000000Sortie d'Urbès      0070076SRDT COL_BUSSANG    0060102006919006902680000700388000320030515      003601 1868    002862   003179   003320   003585   003906   003728   004282   004446   003891   003677   003156   003161               150036031 1888    140035601 1858    130000001 1608    120037011 2008    110039111 2018    002774   003078   003278   003636   003815   003921   004276   004394   003783   003678   003235   003322                                      
680000600310016 00590 4813001Giratoire D459      0140730Limite Dépt 67      0180148Bois l'Abbesse      0170000003550003550680000510367000160130515      011765                                                                                                                                 150112038         140108668    0    130104628    0    120102148    0    110101298    0                                                                                                                                                   
680000510310016 00590 4113001Début (Ste-Marie-aux0080000Giratoire D459      0140730SRDT LIEPVRE        0130800006705006705680000510300000000000515      007568 0997    006096   006644   007414   007466   007930            008269   008327   008291   007837   007182   007746               150072061    7    140069891    7    130067291    7    120065691    0    110065141    7    005806   006494   006662   007173   007189   007651   007871   007945   007915   007564   006801   007360                                      
670507000310016 03400 1810241Début (A4)          0000000Fin (D1340)         0030564Bernolsheim         0010000003568003568000000000000000000000515      000000                                                                                                                                 150000008         140000008    0    130000008    0    120000008    0    110000008    0                                                                                                                                                   
670503000310016 00350 1110241Ech. D500           4180174Ech. Goxwiller      4200992SRDT NIEDERNAI      4190000002818002818000000000000000000000515      053086 1547    046459   050280   052256   052428   054786   055633   057058   054454   055547   053751   050691   053572               150512391 1557    140499011 1557    130485501 1597    120477271    0    110474551 1667    043957   048317   049274   052277   050903   051898   054257   053677   054474   053750   050413   051528                                      
670502000310016 00350 1110241Ech. Hoerdt         2450606Ech. A4             2480580SRDT HOERDT         2470000002963002963000000000000000000000515      000000                                                                                                                                 150331591         140331461 1987    130328761 2097    120332221    0    110329271    0    030002   031573   032390   034330   033493            034190   033082   035476   034998   032866   031234                                      
670501820310016 00350 1810241Ech. Dambach        4350307Ech. Maison Rouge   4380582Selestat Nord       4350000003275003275670501800300000000000515      000000                                                                                                                                 150000008         140000008    0    130000008    0    120000008    0    110000008    0                                                                                                                                                   
670501810310016 00350 1810241Ech. N59            4420401Limite Dépt 68      4460737Châtenois           4450000004338004338670501800368000420030515      000000                                                                                                                                 150000008         140000008    0    130000008    0    120000008    0    110000008    0                                                                                                                                                   
670501800310016 00350 1110241Ech. Maison Rouge   4380582Ech. N59            4420401SRDT SELESTAT       4400900003818003818670501800300000000000515      000000                                                                                                                                 150521791 1567    140515541    0    130507301 1707    120513551    0    110497651 1727    044261   048437   049818   052164   052600   055327   057283   055698            054888   050588   052590                                      
670501700310016 10830 4810201Début (D1083)       0500000A35                 0520498Ebersheim           0520000002551002551          00000000000515      000000                                                                                                                                 150000008         140000008    0    130000008    0    120000008    0    110000008    0                                                                                                                                                   
670501610310016 23500 3150231Ech. A35            0000000Fin A350            0010236SRDT HERRENSCHMIDT  0000800001238001238          00000000000515      040997         039570   041691   042228   042819   042607   042540   036970   034238   043173   042998   042808   040600               150414761    7    140420651    7    130000001    0    120587201    0    110000001    0    040827   042945   042642   043014   040154   043745   040256   037926   041915   042474   041522   040568                                      
670501510310016 03510 1150231Ech. Centre sportif 0020700Ech. Wolfisheim     0040200SRDT BUGATTI        0030398001490000000          00000000000515      042394         040776   042416   042744   044049   043383   045257   040020   036096   044282   044287   043304   042351               150426071         140423751    0    130419171    0    120418371    0    110406921    7    040558   042351   043104   043445   041409   045796   041345   036953   044418   044889   043019   044174                                      
670501500310016 03510 1150231Ech. Wolfisheim     0040200Fin (N4)            0040811SRDT WOLFISHEIM     0040200000611000611          00000000000515      020732 0627    019399   020418   020868   021288   021256   021773   019557   018633   021998   021944   021203   020537               150205621    7    140205451    7    130213271    7    120208721    0    110208431    7    019119   020133   020618   020859   020266   021899   020053   018482   021864   021952   020759   020800                                      
670501310310016 03510 1150231Ech. CHU            0010430Ech. Centre sportif 0020700SRDT CENTRALE_THERM 0010870001266000000          00000000000515      056464         055278   057258   057388   059134   057802   060256   052962   046404   058644   058820   057490   056491               150572461         140574421    0    130559411    7    120540611    0    110540281    7    054643   057376   058087   058442   055538   060877   055285   050437   058788   060831   057546   059322                                      
670501300310016 03520 1110241                    0020000Ech. Molsheim       0090850SRDT DUTTLENHEIM    0040500007032007032          00000000000515      026637         024761   026532   027883   028316   028352   028705   026117                     027405   027142                        150267971    7    140271351    7    130260991    7    120262991    0    110269731    7    024342   025929   026416   026106   025840   029559   027118   024678   029415   028758   027216   026275                                      
670501200310016 03510 1150431Ech. A35            0000000Ech. CHU            0010430SRDT CHARMILLE      0000636001429000000          00000000000515      090571 0537    087576   091899   092225   094302   091406   094931   083416                     090391   089111   090755               150889481    7    140876751    7    130869901    7    120880781    0    110884531    7    087049   090479   089713   089889   087005   094632   083625   079341   092006   093261   089046   091794                                      
670501100310016 00040 4150401Ech. A35            0440000Fin (pl. etoile)    0450522SRDT N4CONT_SUD     0450300001523000000          00000000000515      000000                                                                                                                                 150000001         140000001    0    130637591    7    120657521    0    110654901    7                                                                                                                                                   
670501020310016 00350 1110241                    3130500                    3150000SRDT GEISPO_VILLAGE 3140180001988001988          00000000000515      074876 1207    067201   072589   074033   075783   076792   078679   077220   072853   078167   077325   073283   074642               150731781 1187    140719471 1187    130000001    0    120000001    0    110000001    0    065471   070805   071649   074238   071830   075445   075468   070628   077240   077692   072201   075447                                      
670501010310016 00350 1110241Ech. Geispolsheim   3120200                    3130500SRDT ECH_GEISPO     3120700001294001294          00000000000515      074969 1237    066868   072668   074205   076083   076739   078772   077341   072993   078257   077315   073319   075136               150733161         140718811 1227    130707281 1237    120698651    0    110702161 1287    065547   070885   071751   074315   071939   075556   075572   072196   077364   077790   072278   074570                                      
670500900310016 00350 1110241Ech. Vigie          3100000Ech. Geispolsheim   3120200SRDT GENS_VOYAGE    3100200002176002176          00000000000515      083071 1187    075432   081276   082731   084995   085149   087832   084347   078932   086874   085234   081409   082815               150817181 1167    140804151 1177    130792421 1207    120784871    0    110751581 1127    073896   079325   080382   082772   079609   084983   084797   077375   086399   086589   080761   083752                                      
670500810310016 00350 1150431                    3080000Ech. Vigie          3100000SRDT AIRE_SERVICE   3080350002004000000          00000000000515      119355 0957    112947   119229   123036   124467   122723   125981   115894   103607   123985   123082   118795   119013               151194271    7    141175961    7    130000001    0    120000001    0    110000001    0    110469   116972   118222   120321   114569   124706   121543   113167   124191   125797   118296   124950                                      
670500800310016 00350 1140431Ech. Baggersee      3060780                    3080000SRDT OSTWALD        3080000001213000000          00000000000515      122026 1027    115016   121229   122540   126519   125020   128350   118402   113422   126353   125438   121050   121378               151209911 1017    141191361 1017    131187221 1077    121200481    0    111211511 1077    112313   119017   119374   122495   116816   127090   124013   115214   126478   127928   120376                                               
670500720310016 00350 1150441                    3060000Ech. Baggersee      3060780SRDT BAGGERSEE      3060000000780000000          00000000000515      122979 0687    114812   119102   120036   121559   119769   123632   112593   118463   134516   133956   129267   128345               151183071    7    141165901    7    130000001    0    120000001    0    110000001    0    109756   116205   115360   120027   113527   124405   121997   115892   123306   123261   116489   119618                                      
670500710310016 00350 1150431                    3050000                    3060000SRDT PLAINE_BOUCHERS3050100001008000000          00000000000515      131468 0947    123652   131469   132909   136552   135107   138652   126909   120238   136491   135572   130947   129661               151311821    7    141300591    7    130000001    0    120000001    0    110000001    0    122575   129569   130779   132850   126247   137403   134083   123781   136454   137982   130069   132615                                      
670500700310016 00350 1150431Ech. Porte Schirmeck3030950                    3050000SRDT ELSAU          3040150001053000000          00000000000515      129106 1387    124350   132172   134295   137410   135825   139304   126781                     136286   131884   130589               151316111 1287    141308021 1297    131282651 1297    121313641    0    111311081 1337    123273   130314   130384   134218   126888   138074   134302   122568   137115   138474   130766   133270                                      
670500600310016 00350 1150631Ech. Porte Blanche (3020200Ech. Porte Schirmeck3030950SRDT PTE_SCHIRMECK  3030200001761000000          00000000000515      156510 0897    148043   157273   158029   162114   159992   164301   149838   143060   161489   161834   157666   155165               151555471    7    141544721    7    131460631    7    121547651    0    111502211    7    147120   155361   157148   158612   150636   163590   157044   143396   160822   163282   154498   155534                                      
670500500310016 00350 1150631Ech. Cronenbourg (A33000900Ech. Porte Blanche (3020200SRDT CRONENBOURG    3010500001285000000          00000000000515      165025 0857    155724   164441   165116   169758   167490   172325   158425                     169118   165326   162890               151628471    7    141621561    7    131592331    7    121633811    0    111637881    7    155391   163576   164277   166241   158808   172349   163316   146461   168265   170861   161770   163471                                      
670500400310016 00350 1150431Fin A4              3000000Ech. Cronenbourg (A33000900SRDT PLACE_HAGUENAU 3000324000900000000          00000000000515      099209 1207    093146   099344   099487   103079   101380   104140   098495   089069   102410   102767   098739   098832               151000111 1187    140973431 1207    130946081 1277    120985991    0    110987421 1247    092364   097704   098353   100154   102209   109146   100694   097232   102193   103481   097050   099598                                      
670500320310016 00040 1150431                    0060000Fin A4 (A35)        0061012SRDT SCHILTIGHEIM   0060650001012000000          00000000000515      124065 1007    116764   123812   124518   128472   126713   130404   122236   111608   128798   128144   123995   123802               151230471    7    141216611 1017    130000001    0    120000001    0    110000001    0    115870   122270   122840   125151   114425   127509   124615   119745   128292   129465   121810   124843                                      
670500310310016 00040 1150431Ech. Bischheim      0050000                    0060000SRDT BISCHHEIM      0050910001009000000          00000000000515      114241 1077    107091   112924   116129   116490   115752   119658   113698   102937   119090   117908   114705   114847               150000001         140000001    0    131110461 1087    121126611    0    111162411 1077                                                                                                                                                   
670500210310016 00040 1150431                    0030000Ech. Hoenheim       0040200SRDT GARE_TRIAGE    0030700001207000000          00000000000515      102196 1167    095072   100993   101642   105423   104681   106299   102265   094703   105733   105421   101297   103056               151013701 1157    141002071 1157    130000001    0    120000001    0    110000001    0    094359   099626   099847   102548   096503   105692   103401   098001   106347   107042   099788   103393                                      
670500200310016 00040 1150431Fin concession (Reic0000000                    0030000SRDT SOUFFEL        0020550002364000000          00000000000515      107922 1197    100788   106903   108433   111512   110387   112333   106483   099674   111624   111243   107166   108811               151070771 1177    141055941 1197    131051511 1227    121067941    0    111073431 1247    099800   105214   104606   108233   102619   111945   109208   103278   112382   112803   105578   109392                                      
670500100310016 00040 1150431Ech. Hoenheim       0040200Ech. Bischheim      0050000SRDT HOENHEIM       0040500000813000000          00000000000515      098080 1167    090934   096581   097186   100819   100070   103589   099924   090784   101183   100627   096955   098540               150970241 1157    140960361 1177    130955861 1197    120972871    0    110977501 1267    090364   095274   095513   098146   091773   100696   099225   095198   101537   102232   095408   099004                                      
670353400310016 03530 4113001Ech. Rocade Est     0080050Frontière           0080819SRDT PFLIMLIN       0080100000769000769          00000000000515      013732         012470   013532   013457   014481   014710   014041   015650                     013459   012069   013415               150000001         140000001    0    130126221 1557    120124591    0    110124311 1577                                                                                                                                                   
670353300310016 03530 4110201Ech. D468           0050800Ech. Rocade Est     0080050SRDT N353EST        0060400002254002254          00000000000515      022746 2087    019841   021926   022783   023956   024001   024897   024850                     023831   021662   019738               150228751 2077    140000001    0    130224521 2207    120214721    0    110214191 2007    019866   021468   022503   023561   021739   024626   024442   023479   023878   024245   022028   022605                                      
670353200310016 03530 4110201                    0050000Ech. D468           0050800SRDT N353CENTRE     0050260000800000800          00000000000515      024180 2000                                                                                                                            150236751 1977    140000001    0    130000001    0    120000001    0    110000001    0    020805   022283   023273   024336   022776   025708   025265   023458   024830   025103   023181   023059                                      
670353100310016 03530 4110201Début               0030000                    0050000SRDT N353OUEST      0040810002000002000          00000000000515      000000                                                                                                                                 150000001         140000001    0    130000001    0    120000001    0    110000001    0                                                                                                                                                   
670350800310016 00350 1110231                    3150000Ech. Duppigheim     3160767SRDT DUPPIGHEIM_NORD3160600001754001754          00000000000515      070492         063155   068280   069754   071538   071937   073472   072462   069152   073309   072949   068914   071018               150685461         140677111    0    130000001    0    120000001    0    110000001    0    061437   066510   066073   069535   067477   070113   070805   066407   072272   072876   067784   071252                                      
670350700310016 00350 1110231Ech. Duppigheim     3160767Début VRPV          3190000SRDT DUPPIGHEIM_SUD 3170180002024002024          00000000000515      070257 1187    062650   067727   069346   070888   071981   073723   072840   068692   073296   072635   068575   070751               150684591 1177    140674481 1177    130000001    0    120000001    0    110000001    0    060936   066109   066871   069107   067604   070339   070692   066664   072324   072639   067431   070738                                      
670350500310016 00350 1110241Début VRPV (A35/A3523190000Ech. Innenheim      4110694SRDT INNENHEIM_NORD 3210630003476003476          00000000000515      043637 1447    038086   041467   042819   043306   045121   045369   046963   044421   045416   044509   041670   044397               150422351 1437    140411241 1427    130402821 1487    120395561    0    110000001    0    036636   040334   040627   043190   042296   042170   043985   042867   044983   044362   040924   044336                                      
670350400310016 00350 1110241Ech. Innenheim      4110694Ech. D500           4180174SRDT INNENHEIM_SUD  4120000006440006440          00000000000515      046416 1407    040588   043929   045486   045843   047811   048405   049476   046570   048450   047631   044912   047790               150446651 1407    140432981 1417    130422871 1457    120408591    0    110000001    0    038953   042728   043039   045754   044517   044734   046007   044759   047690   047003   043685   047018                                      
670350200310016 00350 1110241Ech. Zellwiller     4250400Ech. Dambach        4350307SRDT SAINT_PIERRE   4260800010390010390          00000000000515      041700 1500                                                                                                                            150429921 1497    140419251 1527    130000001    0    120000001    0    110000001    0    036380   040376   040803   043528   043057   042885   044695   045256   045503   045060   042386   045795                                      
670350100310016 00350 1110241Ech. Goxwiller      4200992Ech. Zellwiller     4250400SRDT GERTWILLER     4230200004392004392          00000000000515      049746 1417    043833   047532   049569   049643   050598   051340   051761   051186   051136   050320   048135   051804               150481251 1417    140000001    0    130000001    0    120000001    0    110000001    0    041547   045682   046306   048989   047830            050710   050428   050458   051289   047863   051483                                      
670005100310016 00350 1810241Début A35           2020000Ech. Forstfeld      2160035Forstfeld           2140000005028005028670005000300000000000515      000000                                                                                                                                 150000008         140000008    0    130000008    0    120000008    0    110000008    0                                                                                                                                                   
670005000310016 00350 1110241Ech. Forstfeld      2160035Ech. Rountzenheim   2210562SRDT LEUTENHEIM     2180700005502005502670005000300000000000515      024500 2200                                                                                                                            150241951 2207    140232721 2237    130229121 2207    120233661    0    110222121 2477    020785   021688   022220   023686   023440   025622   027179   025479   026610   026571   023074   023814                                      
670004900310016 00350 1810241Ech. Rountzenheim   2210562Ech. Rohrwiller     2320167Sessenheim          2230000010568010568670005000300000000000515      017075                                                                                                                                 150168638         140162208    0    130159708    0    120162878    0    110154838    0                                                                                                                                                   
670004701310016 00350 1810241Ech. Rohrwiller     2320167Ech. Offendorf      2360418Herrlisheim Ouest   2340000004237004237670005000300000000000515      000000                                                                                                                                 150000008         140000008    0    130000008    0    120000008    0    110000008    0                                                                                                                                                   
670004600310016 00350 1810241Ech. Offendorf      2360418Ech. Hoerdt         2450606Kilstett            2400000009152009152670502000300000000000515      000000                                                                                                                                 150255458         140255358    0    130253278    0    120255948    0    110253678    0                                                                                                                                                   
670004310310016 00830 4110401Début (D1083)       0390000Ech. D222           0400650SRDT ELISA          0400000000782000782670502000300000000000515      049003         044872   047716   049026   051139   049718   051747   047689                     050370   049541   048310               150485181 1207    140000001    0    130000001    0    120000001    0    110000001    0    044769   046716   048250   049359   046895   052867   049734   045786   050214   050865   048040   048755                                      
670004300310016 00830 4150401Ech. D222           0400650Ech. Vigie          0420387SRDT ROND_POINT     0410500001727001727670502000300000000000515      061761 0977    057411   061147   061741   064941   062895   066109   060306   055432   064668   063994   061771   061015               150614601    7    140603571    7    130605301 1017    120616051    0    110618851    7    057253   060166   061531   062491   059081   066731   063460   055404   063674   064626   061318   061936                                      
670001700310016 00590 4833001Giratoire D424      0040115Giratoire D1059     0060973Châtenois           0050500002890000000680000510300000000000515      000000                                                                                                                                 150000008         140000008    0    130000008    0    120000008    0    110000008    0                                                                                                                                                   
670001601310016 00590 4813001Limite dépt 68      0000000Giratoire D424      0040115La Vancelle         0000250004095004095680000510368000051030515      000000                                                                                                                                 150000008         140000008    0    130000008    0    120000008    0    110000008    0                                                                                                                                                   
670001100310016 00040 4815001Intersection D228   0360551Ech. A351           0380315Wolfisheim Ouest    0370000001759001759670501500300000000000515      024912                                                                                                                                 150247088         140246888    0    130256288    0    120250828    0    110250488    0                                                                                                                                                   
670001000310016 00040 4815001Début (Ittenheim)   0330000Intersection D228   0360551Ittenheim           0350000003609003049670501500300000000000515      021174                                                                                                                                 150210018         140209848    0    130217838    0    120213198    0    110212908    0                                                                                                                                                   
570502800310016 00300 1110241Ech. Fontoy         0170847Limité Dépt 54      0260429SRDT AUMETZ         0220260008402008402670501500354000381030515      024364 1467    021516   023458   024228   025121   024570   026391   023901   022465   025793   025520   025342   024170               150231041         140223441    0    130211501 1387    120209811 1367    110000001    0    020284   021147   021961   023430   022798   025142   024037   020777   023742   024625   024991   024276                                      
570502710310016 00300 1810241                    0120000Ech. Fontoy         0170847Tunnel              0130000005847005847570502700300000000000515      000000                                                                                                                                 150000008         140000008    0    130000008    0    120000008    0    110000008    0                                                                                                                                                   
570502700310016 00300 1110241Ech. Hayange Ouest  0100580                    0120000SRDT HAYANGE        0110380001420001420570502700300000000000515      022200 1537    019897   021710   022285   023174   023406   024385   022128   020578   022621   022569   022498   021235               150000001         140207401 1667    130197511 1597    120193011    0    110196941 1727                                                                                                                                                   
570502600310016 00300 1810241Ech. Hayange Est    0080234Ech. Hayange Ouest  0100580Hayange             0100000002340002340570502700300000000000515      031678                                                                                                                                 150000008         140295958    0    130281848    0    120275428    0    110281038    0                                                                                                                                                   
570502500310016 00300 1810241Ech. Fameck centre  0060007Ech. Hayange Est    0080234Sérémange           0070000002233002233570502700300000000000515      046734                                                                                                                                 150000008         140436618    0    130415798    0    120406328    0    110414608    0                                                                                                                                                   
570502400310016 00300 1810241Ech. VR52           0040800Ech. Fameck centre  0060007Rémélange           0050500001348001348570502300300000000000515      030450                                                                                                                                 150297798         140287868    0    130273998    0    120270388    0    110291438    0                                                                                                                                                   
570502300310016 00300 1110241Ech. Uckange        0000934Ech. VR52           0040800SRDT UCKANGE        0010000003771003771570502300300000000000515      035061 1137    032434   034418   034928   036373   036365   037764   034617   032398   036026   035403   035821   034334               150342881 1097    140331441 1117    130315461 1277    120311301 1097    110335531 1127    031064   032993   034528   035151   034070   036831   034604   030629   035344   035912   035467   034920                                      
570502200310016 00300 1810241Bifurcation A31     0000000Ech. Uckange        0000934Richemont           0000500000934000934570502300300000000000515      000000                                                                                                                                 150000008         140000008    0    130000008    0    120000008    0    110000008    0                                                                                                                                                   
570502100310016 03200 1110241Ech. Stiring-Wendel 0120100Frontière           0130635SRDT SPICHEREN      0130600001550001550570502300300000000000515      017997 1337    015014   016453   016671   016792   017535   018294   021111   020361   018552   018272   018163   018633               150198671 1457    140196801 1397    130189001 1387    120186881 1417    110000001    0    017337   018029   019016   020672   021099   021078   022241   024225   020796   020833   017396   015521                                      
570502000310016 03200 1810241Ech. Forbach centre 0090500Ech. Stiring-Wendel 0120100Stiring             0110000002594002594570502100300000000000515      000000                                                                                                                                 150000008         140000008    0    130000008    0    120000008    0    110000008    0                                                                                                                                                   
570501900310016 03200 1110241Ech. Forbach Ouest  0060500Ech. Forbach centre 0090500SRDT FORBACH        0070000002994002994570502100300000000000515      043700 0700                                                                                                                            150417271    7    140414141    0    130000001    0    120000001    0    110000001    0    037490   039095   041291   042986   042597            041980   042463   043938   043415   040783   042783                                      
570501700310016 03200 1810241Ech. Rosbruck       0030200Ech. Forbach Ouest  0060500Rosbruck            0050200003301003301570501600300000000000515      035118                                                                                                                                 150365988         140000008    0    130000008    0    120000008    0    110000008    0                                                                                                                                                   
570501600310016 03200 1130241A4                  0000000Ech. Rosbruck       0030200SRDT ROSBRUCK2      0030070002909000000570501600300000000000515      031907 0977    029456   030906   031647   032649   032706            032101   031629   033133   032623   031495   031392               150332511 1027    140000001    0    130000001    0    120000001    0    110000001    0             029909   032011   033917   033061   035194   033525   033893   035037   035226   032051   031713                                      
570501560310016 00310 1110241Ech. Kanfen         3440525Frontière (Zoufftgen3480987SRDT ZOUFFTGEN      3480120004471004471570501600300000000000515      060616 0957    053168   058431   059615   061440   059701   063499   071680   070965   061840   056769   054389   055720               150584031 1167    140000001    0    130528931    0    120517901    0    110000001    0    051209   055579   055952   058056   057708   061703   068251   069031   063654   060088   048838   050450                                      
570501400310016 00310 1110241Ech. Elange         3360725Ech. Kanfen         3440525SRDT KANFEN         3400560007909007909570501600300000000000515      059749 1247    055085   060160   061700   063786   063241   047898   045200   072851   066402   062139   058718   059765               150609571 1267    140615731 1227    130621431 1307    120608461 1247    110629061 1267    054521   058737   059398   061901   061996   063899   075697   071247   065917   062634   046737   048418                                      
570501350310016 00310 1110241Ech. Bétange        3340848Ech. Elange         3360725SRDT VEYMERANGE     3350960001877001877570501600300000000000515      065456 1197    057688   063152   064664   066655   066560   055132   076324   075180   070115   065467   061747   062373               150644061 1267    140642501 1267    130000001    0    120000001    0    110000001    0    056468   061511   062164   064831   065003   067876   078183   073670   068933   065692   053125   055040                                      
570501320310016 00310 1150231Ech. Beauregard     3310452Ech. Bétange        3340848SRDT LINKLING       3320020003396000000570501600300000000000515      071888 0997    064445   069004   070197   072470   072578   075786   077989   076583   075053   071108   068149   069230               150711561 1057    140709531 1057    130000001    0    120000001    0    110000001    0    063506   067662   068504   070696   071163   075384   081887   077339   074417   072132   064987   065878                                      
570501300310016 00310 1150231Ech. Thionville cent3290967Ech. Beauregard     3310452SRDT BEAUREGARD     3300700001483000000570501600300000000000515      083008 0997    074682   079494   081995   084063   080877   088348   087424   087158   088007   083390   079535   081147               150795211         140798991 1067    130676951 1067    120000001    0    110807301 1017    069774   074167   076608   078375   079075   082875   088409   084283   085634   083610   074334   076691                                      
570501232310016 00310 1810241Ech. Yutz Est       3280618Ech. Thionville cent3290967Yutz R2             3290350001347001347570501200300000000000515      000000                                                                                                                                 150000008         140000008    0    130000008    0    120000008    0    110000008    0                                                                                                                                                   
570501201310016 00310 1110241Bifurcation A30     3230000Ech. Guénange       3240800SRDT RICHEMONT 2    3240040001801001801570501200300000000000515      067695 1187    059271   064123   065528   067834   068265   071559   077232   073423   070335   067559   063300   063748               150653571 1217    140641311 1277    130000001    0    120000001    0    110000001    0    057259   062458   063126   065585   061707   068555   076597   071054   069315   066886   060044   061480                                      
570501200310016 00310 1110241Ech. Guénange       3240800Ech. Yutz Est       3280618SRDT GUENANGE       3250770003809003809570501200300000000000515      081101 1087    071402   076724   078586   081254   082099   085789   090937   086769   085324   081268   076642   076291               150751561 1157    140768211 1167    130410961 1197    120375841 1237    110587691    0    069199   074811   076237   078533   077957   083350   090350   066479   059347   080366   072679   072316                                      
570501000310016 00310 1110441Ech. Mondelange     3200250Bifurcation A30     3230000SRDT RICHEMONT      3210450002741002741570501200300000000000515      100473 1187    089926   096073   097533   101723   102808   107966   109942   104655   104108   099950   096124   094845               150986601 1207    140971051 1217    130000001    0    120000001    0    110000001    0    086934   093809   096037   099758   096620   105457   111068   102146   103259   100603   094060   093963                                      
570500920310016 00310 1110441Ech. Talange        3170895Ech. Mondelange     3200250SRDT HAGONDANGE     3190090002330002330570501200300000000000515      103285 1227    091881   098424   100518   104195   105390   110434   113081   106175   106646   104138   099637   098840               151010991 1267    140000001    0    130944031    0    120941641    0    110000001    0             095182   097280   101038   098931   102859   111155   103469   105854   103054   095602   097131                                      
570500900310016 00310 1110341Ech. Maizières      3150122Ech. Talange        3170895SRDT MAIZIERES      3160350002782002782570501200300000000000515      104043 1127    092702   099424   101379   104829   105903   110749   113203   107163   108117   104946   100550   099517               151013861 1147    140992811 1167    130961741 1197    120959301 1227    110970491 1277    090494   096049   098471   101967   099867   107412   112251   103936   106657   104105   096859   098283                                      
570500801310016 00310 1110441Croix Hauconcourt   3130292Ech. Maizières      3150122SRDT HAUCONCOURT    3130300001848001848570501200300000000000515      066343 1137    059442   063224   064187   066374   067227   071083   073970   069616   069098   065683   063191   062960               150000001         140000001    0    131046341    0    121043691    0    110000001    0                                                                                                                                                   
570500730310016 00310 1150431Ech. La Maxe        3070673Croix Hauconcourt   3130292SRDT ST_REMY        3110400005639000000570501200300000000000515      086602 1087    078583   083349   084041   087231   087441   092246   094093   088769   090108   086296   083555   083519               150853551 1107    140842951 1047    130000001    0    120000001    0    110000001    0    076872   081344   082487   085515   084488   090163   095444   087084   088671   086712   081443   083792                                      
570500600310016 00310 1150431Ech. Metz Nord      3050601Ech. La Maxe        3070673SRDT LA_MAXE        3070750002078000000570501200300000000000515      000000                                                                                                                                 150743911 1197    140000001    0    130000001    0    120000001    0    110000001    0    069726   074329   075954   079457   078853   079970   079405   074368   073432   071470   066860   068928                                      
570500500310016 00310 1850431Ech. Metz centre    3030011Ech. Metz Nord      3050601Metz centre         3040280002672000000          00000000000515      000000                                                                                                                                 150000008         140000008    0    130000008    0    120000008    0    110000008    0                                                                                                                                                   
570500400310016 00310 1150431Ech. Moulins        2990142Ech. Metz centre    3030011SRDT METZ_SUD       3010410003827000000          00000000000515      077285 1187    069096   073273   073920   076823   077408   082641   086188   081432   080927   077385   073497   074723               150759021 1197    140738481 1227    130720561 1237    120720471 1227    110753571    7    067078   071696   071931   075494   075095   080722   086332   079489   079448   077045   071390   074809                                      
570500300310016 00310 1150431Ech. Jouy           2970000Ech. Moulins        2990142SRDT JOUY           2970020002124000000          00000000000515      069091 1237    061007   064903   065475   068635   069394   073782   078028   073978   072192   069542   065322   066679               150672971 1297    140653961 1267    130643761 1387    120653271 1287    110676611 1297    058642   063151   063381   067273   066034   071293   077540   072096   069648   068536   063111   066527                                      
570500200310016 00310 1110241Ech. Féy            2920000Ech. Jouy           2970000SRDT AUGNY          2940440005723005723          00000000000515      054040 1627    046760   050666   051377   053451   054182   057912   063431   059799   056394   053767   049796   050783               150528251 1637    140513611 1667    130503091 1667    120496571 1687    110507701 1767    045381   049462   049103   053022   052060   056174   062851   058384   055098   053200   048416   050462                                      
570500100310016 00310 1110241Limite Dépt 54      2840000Ech. Féy            2920000SRDT FEY            2900770007987007987          54050100030515      058118 1747    050029   054736   055849   057595   058431   062539   067576   063920   061140   057815   053741   053917               150568701 1777    140556461 1797    130000001    0    120000001    0    110274331    0    048963   052974   053261   057432   056294   060760   066823   062387   059867   057450   052251   053692                                      
570220200310016 00040 3110201Ech. Sarrebourg Oues0180100Ech. Sarrebourg Est 0231050SRDT SARREBOURG     0200000006788006788          00000000000515      000000                                                                                                                                 150000001         140202261    0    130202071    0    120203061 2057    110202951 1638                                                                                                                                                   
570010403310016 04310 3110201Ech. Magny (D913)   0080400Ech. Féy (A31)      0140700SRDT MARLY          0100000006500006500          00000000000515      025308 0927    023763   024653   025253   025985   026164   027584   023786   022683   026747   026843   025737   024616               150246221    7    140237541    7    130233731    7    120231061 1137    110214661 1137    022380   023413   024814   024418   024375   026939   024211   021883   026917   026831   025158   024168                                      
570010401310016 04310 3110201Ech. Metz FIM (D999)0020900Ech. Magny (D913)   0080400SRDT GRIGY          0030550005500005500          00000000000515      022608 1017    021273   022101   022674   023358   023292   024391   021723   020598   023558   023489   022903   022027               150220581 1097    140215881 1077    130000001    0    120224141    0    110206321    7    020138   021200   022301   022169   021662   024021   020811   020570   023819   023627   022500   021931                                      
570010300310016 04310 3150201début (éch. D603)   0000000Ech. Metz FIM (D999)0020900SRDT BORNY          0020200002754000000          00000000000515      043680 0827    040257   042843   043207   044486   045999   046736   041216   039875   046037   047421   044030   042211               150428361    7    140417261    7    130341171    7    120210471 1017    110368041    7    039082   041579   043429   042581   043742   046071   041848   037962   046510   046381   043369   041593                                      
570007500310016 00610 4133001Fin 2x2             0300750Frontière           0351503SRDT GROSBLIED      0350000005133002510          00000000000515      006466 0177    005787   006165   006335   006955   007045                     006565   006664   006457   006424   006258               150067411    7    140000001    0    130000001    0    120000001    0    110000001    0             005932   006545   006752   006492   006806   006771   007284   007582   006723   006633   006580                                      
570007401310016 00610 4110201Ech. D99            0210550Fin 2x2             0300750SRDT SARREGUEMINES  0250400007249007249          00000000000515      017925                  017014   017397   018137   018519   018712   017963   017879   018795   018238   017461   017054               150000001         140174241    7    130170331    7    120171021    7    110168261    7                                                                                                                                                   
570007300310016 00610 4110201Giratoire D674      0190839Ech. D99            0210550SRDT WOUSTWILLER    0200920002083002083          00000000000515      022492 0687    020135   021386   021823   022862   023163   023809   022535   022259   024035   023036   023009   021908               150223761         140219551    7    130000001    0    120000001    0    110000001    0                      021923   022539   022222   023947   022880   021248   022866   022859   021693   021630                                      
570007200310016 00610 4113001Ech. A4             0160000Giratoire D674      0190839SRDT HAMBACH        0170970003681003681          00000000000515      013532 0767    012148   013078            013835   013878   014395   013754   013144   014498   013846   013396   012925               150000001         140000001    0    130000001    0    120000001    0    110000001    0                                                                                                                                                   
570004300310016 00520 4810201Giratoire D9 - D10  0160000Ech. A30            0180600Fameck              0170300002600002600          00000000000515      000000                                                                                                                                 150000008         140000008    0    130000008    0    120000008    0    110000008    0                                                                                                                                                   
570004200310016 00520 4840201Ech. D9             0120350Giratoire D9 - D10  0160000Clouange            0130500003649001000          00000000000515      000000                                                                                                                                 150000008         140000008    0    130000008    0    120000008    0    110000008    0                                                                                                                                                   
570004100310016 00520 4840201Gir. Cité Leclerc   0110156Ech. D9             0120350Rombas centre       0120300001358000000          00000000000515      000000                                                                                                                                 150000008         140000008    0    130000008    0    120000008    0    110000008    0                                                                                                                                                   
570004000310016 00520 4843001Giratoire D181      0100400Gir. Cité Leclerc   0110156Rombas Sud          0110000000783000000          00000000000515      000000                                                                                                                                 150000008         140000008    0    130000008    0    120000008    0    110000008    0                                                                                                                                                   
570003900310016 00520 4813001Ech. A4             0060000Giratoire D181      0100400Pierrevillers       0090750004242004242          00000000000515      000000                                                                                                                                 150000008         140000008    0    130000008    0    120000008    0    110000008    0                                                                                                                                                   
570003100310016 00330 4110201Giratoire Creutzwald0110200Frontière           0150590SRDT CREUTZWALD_CONT0110310004600004600          00000000000515      007397 1777    006022   006575   006767   007488   008050   008162   007681   007787   008076   007806   007184   007154               150067551         140064041    0    130000001    0    120000001    0    110000001    0    005690   006206   006562            006437   007339   007230   007101   007043   007194   006691   006791                                      
570003010310016 00330 4813001Ech. Carling        0070090Giratoire Creutzwald0110200Carling Nord        0100000004113004113570003100300000000000515      000000                                                                                                                                 150000008         140000008    0    130000008    0    120000008    0    110000008    0                                                                                                                                                   
570003000310016 00330 4850201Ech. A4             0050703Fin 2x2             0070090Carling             0070000001335000000570003100300000000000515      000000                                                                                                                                 150000008         140000008    0    130000008    0    120000008    0    110000008    0                                                                                                                                                   
570002900310016 00330 4850201Début               0040000Giratoire ZI Nord   0050703Cité Huchet         0040000000900000000570003100300000000000515      000000                                                                                                                                 150000008         140000008    0    130000008    0    120000008    0    110000008    0                                                                                                                                                   
570002500310016 00040 3110201Ech. Sarrebourg Est 0231050Ech. A4             0320882SRDT BROUVILLER     0270000008470008470570003100300000000000515      020265 1900                                                                                                                            150202211 1927    140195941    0    130000001    0    120000001    0    110000001    0    017956   019123   019880   020883   020355   021797   020572   019478   021135   021440   019899   020114                                      
570002101310016 00040 3110201Ech. Héming         0100375Ech. Sarrebourg Oues0180100SRDT BEBING         0160000007064007064570003100300000000000515      013450 2700                                                                                                                            150136941    0    140135861 2637    130000001    0    120000001    0    110000001    0    011705   012746   013315   014085   013934   014860   014398   014043            014516   013556   013439                                      
570002000310016 00040 4113001Limite Dépt 54      0000000Ech. Héming         0100375SRDT IBIGNY         0020350010507010507570003100300000000000515      010100 2900                                                                                                                            150099771    0    140098261 3177    130000001    0    120000001    0    110000001    0    008390   009325   009561   010301   009966   010641   010764   010473   010411   010424   009612   009838                                      
550002400310016 11350 4113001Giratoire D1916     0000000Giratoire N135      0050877SRDT LONGEVILLE_BAR 0050030005877002527570003100300000000000515      006185         005726   005965   006256   006276   006233   006602            005571   006515   006410   006371   006376               150060851 1017    140059141    0    130000001    0    120000001    0    110000001    0    005539   005857   006190   006135   006068   006468   005908   005375   006670   006436   006186   006203                                      
550002101310016 01350 4843001Ech. Ligny          0140290Fin (N4)            0151249Ligny centre        0150000002447000000          00000000000515      000000                                                                                                                                 150000008         140000008    0    130000008    0    120000008    0    110000008    0                                                                                                                                                   
550002100310016 01350 4113001Giratoire N1135     0050000Ech. Ligny          0140290SRDT TANNOIS        0060200008792005463          00000000000515      010286         009916   010180   010802   010740   010743   011244   009893   009379                     010855                        150104721 1057    140103071 1067    130100401 1057    120101861 1117    110103731 1067    009849   010352   010735   010657   010534   011332   010238   009089   010876   010806   010616   010621                                      
