840149800310013 00860 4812001N 7 LA CROISIERE    0000000D63 A MOTTE DU RHONE0010929LA CROISIERE        0010132001977001977300107050300000000001090      010019                                                                                                                                 120096838         110100118         100097558         090096118    0    080097268    0                                                                                                                                                   
840149700310013 00860 4813001D63 A MOTTE DU RHONE0010929D994                0030200LA MOTTE DU RHONE   0020213001578001578300107050300000000000898      019644                                                                                                                                 120189858         110196278         100191248         090188428    0    080161668    0                                                                                                                                                   
840107050310013 00860 4813001RD 994              0030200LIM DEP             0040000PT_ST_ESPRIT_DEV    0040000001008001008300107050300000000000197      010072                                                                                                                                 120097348         110100638         100098058         090096608         080088058                                                                                                                                                        
840107050210013 00860 4813001RD 994              0030200LIM DEP             0040000PT_ST_ESPRIT_DEV    0040000001008001008300107050200000000000197      005163                                                                                                                                 120049658         110051498         100050098         090048748         080046318                                                                                                                                                        
840107050110013 00860 4813001RD 994              0030200LIM DEP             0040000PT_ST_ESPRIT_DEV    0040000001008001008300107050100000000001296      004909                                                                                                                                 120047698         110049148         100047968         090047868         080041748                                                                                                                                                        
840003800310013 01290 4813001N 7                 0000000N 7                 0000775AUTOROUTE AVI SUD   0000690000775000775840001400100000000000500      019284                                                                                                                                 120189338         110196558         100200148         090203798    0    080164078    0                                                                                                                                                   
840001400310013 00070 4117001Charles de Gaulle   0540000D 973               0611156CAUMONT_N7          0600176006996006996840001400100000000000493      039443  597    034181   033787   037779   040782   040754   042790   044634   039364   040940   039339   038972   039620               120382901         110404441         100408711         090413041         080411411    7    037132   035572   038953   039838   035048   040249   042968   037271   040189   039908   036821   035488                                      
840001400210013 00070 4117001Charles de Gaulle   0540000D 973               0611156CAUMONT_N7          0600176006996006996840001400100000000000493      019568  627    018088   017851   019193   019964   019934   020949   021769   019297   020153   018800   019206   019505               120187771         110201871         100202441         090203011         080202611    7    018657   017920   019297   019686   015214   019367   020940   017268   019802   019665   018840   018697                                      
840001400110013 00070 4117001Charles de Gaulle   0540000D 973               0611156CAUMONT_N7          0600176006996006996840001400100000000000493      019875  547    016093   015936   018586   020818   020820   021841   022865   020067   020787   020539   019766   020115               120195131         110202571         100206271         090210031         080208801    7    018475   017652   019656   020152   019834   020882   022028   020003   020387   020243   017981   016791                                      
840000400310013 00070 4815001EB 20 ORANGE        0270485D 977               0290060COURTHEZON NORD     0290000006372006372840000202300000000000490      015606                                                                                                                                 120157348         110172388         100177138         090182018    0    080221388    0                                                                                                                                                   
840000399310013 00070 4855001EB 10 ORANGE        0240000EB 20 ORANGE        0270485TRAVERSEE ORANGE    0250000003219000000840000202300000000000401      017903                                                                                                                                 120180508         110197768         100207588         090217888    0    080184908    0                                                                                                                                                   
840000300310013 00070 4813001D 976               0220000EB 10 ORANGE        0240000ENTREE NORD ORANGE  0220000002005002005840000202300000000000490      017457                                                                                                                                 120176008         110192838         100193178         090193518    0    080211788    0                                                                                                                                                   
840000202310013 00070 4112001A7 PIOLENC          0190200D 976               0220000ORANGE NORD         0190800002793002793840000202300000000001291      012214         010842   011023   011882   012033   012784   012830   013298   014365   012605   012140   011412   011237               120123141         110134911         100131681         090128511         080129221         011115   011071   011892   012270   012368   013021   013735   013898   012836   012441   011789   011273                                      
840000202210013 00070 4112001A7 PIOLENC          0190200D 976               0220000ORANGE NORD         0190800002793002793840000202300000000001291      005319         004726   004794   005173   005285   005515   005655   005927   006135   005514   005268   004924   004861               120054161         110074041         100072901         090071771         080071931         004790   004812   005154   005360   005454   005734   006135   006461   005576   005420   005163   004899                                      
840000202110013 00070 4112001A7 PIOLENC          0190200D 976               0220000ORANGE NORD         0190800002793002793840000202300000000001291      006895         006116   006229   006709   006748   007269   007175   007371   008230   007091   006872   006488   006376               120068981         110060871         100058771         090056741         080057291         006325   006259   006738   006910   006914   007287   007600   007437   007260   007021   006626   006374                                      
840000201310013 00070 4112001D 994               0050740A7 PIOLENC          0190200MONDRAGON SUD       0110088013449010468840000202300000000001191      011758  687    010021   010205   010969   011407   012272   012568   013672   014249   012105   012494   010667   010314               120116851  558    110119341    8    100116431         090122931    8    080133791    8    010271   010087   011078   011564   011652   012155   013866   013872   012321   011834   011007   010421                                      
840000201210013 00070 4112001D 994               0050740A7 PIOLENC          0190200MONDRAGON SUD       0110088013449010468840000202300000000001191      005076  267    004297   004353   004706   004839   005389   005409   005749   006510   005209   005175   004692   004515               120049661   08    110051731    8    100050001         090050211    8    080051461    8    004410   004298   004729   004906   004921   005106   005699   005905   005329   005044   004709   004498                                      
840000201110013 00070 4112001D 994               0050740A7 PIOLENC          0190200MONDRAGON SUD       0110088013449010468840000202300000000001191      006682 1337    005724   005852   006263   006568   006883   007159   007923   007739   006896   007319   005975   005799               120067191 1378    110067611 1318    100066431         090072721 1148    080082331 1028    005861   005789   006349   006658   006731   007049   008167   007967   006992   006790   006298   005923                                      
840000100310013 00070 4115001LIMITE DROME        0000000D 994               0050740LAPALUD             0010500005786005786840000202326000250030390      009756         008155   008364   008925   009609   010294   010505   011742   012670   010104   009806   008579   008171               120091841         110098461 1937    100094991         090095971 195     080094181 1827    008057   008147   008958   008115   009313   009995   010213   011099   009841   009624   008732   008053                                      
840000100210013 00070 4115001LIMITE DROME        0000000D 994               0050740LAPALUD             0010500005786005786840000202326000250030390      004615         003858   003960   004186   004517   004903   004924   005300   006207   004853   004670   004079   003854               120042681         110046331 1877    100044721         090045171 186     080044611 1797    003727   003887   004229   003150   004172   004730   004885   005187   004688   004567   004150   003810                                      
840000100110013 00070 4115001LIMITE DROME        0000000D 994               0050740LAPALUD             0010500005786005786840000202326000250030390      005141         004297   004404   004739   005092   005391   005581   006442   006463   005251   005136   004500   004317               120049161         110052131 2057    100050271         090050801 204     080049571 1887    004330   004260   004729   004965   005141   005265   005328   005912   005153   005057   004582   004243                                      
830650200310013 05700 111 431LA CRAU             0030000HYERES              0070160LA CRAU             00604550041600041608400002023          0193      000000                                                                                                                                 120000001         110586501         100566531         090547451         080576641                                                                                                                                                        
830650200210013 05700 111 431LA CRAU             0030000HYERES              0070160LA CRAU             00604550041600041608400002023          0193      000000                                                                                                                                 120000001         110288461         100284361         090280311         080289351                                                                                                                                                        
830650200110013 05700 111 431LA CRAU             0030000HYERES              0070160LA CRAU             00604550041600041608400002023          0193      000000                                                                                                                                 120000001         110298041         100282171         090267141         080287291                                                                                                                                                        
830650100310013 05700 111 131LA GARDE            0000000LA CRAU             0030000LA BASTIDE          00009400030000030008400002023          0290      000000                                                                                                                                 120000001         110574861         100573581         090572301         080584081                                                                                                                                                        
830650100210013 05700 111 131LA GARDE            0000000LA CRAU             0030000LA BASTIDE          00009400030000030008400002023          0290      000000                                                                                                                                 120000001         110283021         100282231         090281441         080286941                                                                                                                                                        
830650100110013 05700 111 131LA GARDE            0000000LA CRAU             0030000LA BASTIDE          00009400030000030008400002023          0290      000000                                                                                                                                 120000001         110291841         100291351         090290861         080297141                                                                                                                                                        
830645500310013 00570 1110421PIERRE RONDE        0060655LA FARLEDE          0080700LA FARLEDE          0070875002170002170840000202300000000001287      000000                                                                                                                                 120000001         110707751         100708301         090708831         080718871                                                                                                                                                        
830645500210013 00570 1110421PIERRE RONDE        0060655LA FARLEDE          0080700LA FARLEDE          0070875002170002170840000202300000000000290      000000                                                                                                                                 120000001         110339131         100338771         090338411         080345911                                                                                                                                                        
830645500110013 00570 1110421PIERRE RONDE        0060655LA FARLEDE          0080700LA FARLEDE          0070875002170002170840000202300000000001287      000000                                                                                                                                 120000001         110368621         100369521         090370421         080372961                                                                                                                                                        
830645490310013 00570 1110441LA BIGUE            0040865PIERRE RONDE        0060655LA GARDE            0050966001773001773840000202300000000000189      000000                                                                                                                                 120000001         110858891         100850901         090846241         080894621                                                                                                                                                        
830645490210013 00570 1110441LA BIGUE            0040865PIERRE RONDE        0060655LA GARDE            0050966001773001773840000202300000000000189      000000                                                                                                                                 120000001         110378951         100401731         090425871         080409851                                                                                                                                                        
830645490110013 00570 1110441LA BIGUE            0040865PIERRE RONDE        0060655LA GARDE            0050966001773001773840000202300000000000189      000000                                                                                                                                 120000001         110479941         100449171         090420371         080484771                                                                                                                                                        
830645400310013 00570 1110431LES FOURCHES        0030785LA BIGUE            0040865LES FOURCHES        0040140001079001079840000202300000000001287      000000                                                                                                                                 120000001         110931581         100911781         090892391         080000001                                                                                                                                                        
830645400210013 00570 1110431LES FOURCHES        0030785LA BIGUE            0040865LES FOURCHES        0040140001079001079840000202300000000000290      000000                                                                                                                                 120000001         110453191         100443941         090434871         080000001                                                                                                                                                        
830645400110013 00570 1110431LES FOURCHES        0030785LA BIGUE            0040865LES FOURCHES        0040140001079001079840000202300000000001287      000000                                                                                                                                 120000001         110478391         100467841         090457521         080000001                                                                                                                                                        
830645200310013 00570 1110431TOMBADOU            0020565LES FOURCHES        0030785LA COUPIANE         0030125001217001217840000202300064530031287      000000                                                                                                                                 120000001         111150521         101062741         090984321         081098321                                                                                                                                                        
830645200210013 00570 111 431TOMBADOU            0020565LES FOURCHES        0030785LA COUPIANE         00301250012170012178400002023   64530020290      000000                                                                                                                                 120000001         110568181         100497081         090434871         080535391                                                                                                                                                        
830645200110013 00570 1110431TOMBADOU            0020565LES FOURCHES        0030785LA COUPIANE         0030125001217001217840000202300064530011287      000000                                                                                                                                 120000001         110582341         100565661         090549451         080562931                                                                                                                                                        
830645100310013 00570 1110431TOULON              0000000TOMBADOU            0020565LA PALASSE          0000793002569002569840000202300000000001287      000000                                                                                                                                 120000001         111042621         101033721         091024931         080000001    0                                                                                                                                                   
830645100210013 00570 1110431TOULON              0000000TOMBADOU            0020565LA PALASSE          0000793002569002569840000202300000000001287      000000                                                                                                                                 120000001         110533911         100532741         090531571         080000001    0                                                                                                                                                   
830645100110013 00570 1110431TOULON              0000000TOMBADOU            0020565LA PALASSE          0000793002569002569840000202300000000001287      000000                                                                                                                                 120000001         110508711         100500981         090493361         080000001    0                                                                                                                                                   
830645011210013 00500 1155031BONRENCONTRE        0690449ENTREE EST          0720811ACCES-EST-M         0720811003413000000840000202300000000000205      000000                                                                                                                                 120000001         110294751         100276091         090258611         080270431                                                                                                                                                        
830616600310013 00500 1150441BON RENCONTRE       0680700VILLEVIEILLE TOULON 0690449BON RENCONTRE       0680765000639000639840000202300061660031287      000000                                                                                                                                 120000001         110622521         100759341         091042221         080689831                                                                                                                                                        
830616600210013 00500 1110441BON RENCONTRE       0680700VILLEVIEILLE TOULON 0690449BON RENCONTRE       0680765000639000639840000202300061660020290      000000                                                                                                                                 120000001         110149651         100297381         090590941         080257231                                                                                                                                                        
830616600110013 00500 1110441BON RENCONTRE       0680700VILLEVIEILLE TOULON 0690449BON RENCONTRE       0680765000639000639840000202300061660011287      000000                                                                                                                                 120000001         110472871         100461951         090451281         080432601                                                                                                                                                        
830616502310013 00500 1110441PONT DES GAUX       0000000BON RENCONTRE       0680700TOULON OUEST        0670776001085001085840000202300000000000290      000000                                                                                                                                 120000001         111028011         100974511         090925231         080951241    0                                                                                                                                                   
830616502210013 00500 1110441PONT DES GAUX       0000000BON RENCONTRE       0680700TOULON OUEST        0670776001105001085840000202300000000000290      000000                                                                                                                                 120000001         110514401         100498011         090482141         080472331    0                                                                                                                                                   
830616502110013 00500 1150441PONT DES GAUX       0000000BON RENCONTRE       0680700TOULON OUEST        0670776001085001085840000202300000000000290      000000                                                                                                                                 120000001         110513611         100477051         090443091         080478911                                                                                                                                                        
830616500310013 00500 1110421LA BEAUCAIRE        0660067PONT DES GAUX       0670634LA BEAUCAIRE        0660750001567001567840000202300000000001287      000000                                                                                                                                 120000001         110963581         100851131         090752051         080862791    0                                                                                                                                                   
830616500210013 00500 1120421LA BEAUCAIRE        0660067PONT DES GAUX       0670634LA BEAUCAIRE        0660750001567001567840000202300000000000290      000000                                                                                                                                 120000001         110533011         100439531         090362441         080453681    0                                                                                                                                                   
830616500110013 00500 1110421LA BEAUCAIRE        0660067PONT DES GAUX       0670634LA BEAUCAIRE        0660750001567001567840000202300000000001287      000000                                                                                                                                 120000001         110430571         100409581         090389611         080409111    0                                                                                                                                                   
830004100210013 10500 4155001VILLEVIEILLE TOULON 0000000ENTREE EST          0010300ACCES-EST-F         0010300001300000000840000202300000000000105      000000                                                                                                                                 120000001         110000001         100000001         090000001         080000001                                                                                                                                                        
830004100110013 10500 4853001RN 8                0000000A 57 0+0            0010300TOULON              0000500001300000000830616600100000000000401      000000                                                                                                                                 120000008         110000008         100000008         090000008         080000008                                                                                                                                                        
830002799310013 00980 4856001A 570 HYERES        0000000EB10 HYERES         0100701HYERES OUEST        0100000001100001100830650200300000000000295      000000                                                                                                                                 120000008         110359958         100443918         090547458         080576648                                                                                                                                                        
480002200310013 01060 4812001LIMITE GARD         0000000INTER.D984-JALCRESTE0221003LE COLLET DE DEZE   0100800022038020321300003500300000000001287      002505                                                                                                                                 120025168         110025168         100024938         090025458    0    080024478    0                                                                                                                                                   
380003900310013 00850 4813001LA_MURE             0790000LIMITE HAUTES-ALPES 1030994SUD_ISERE           1000000025000024000050000900300000000000409      003312                                                                                                                                 120032918         110034648         100034798         090034998         080034508    0                                                                                                                                                   
380003800310013 00850 4113001VIZILLE             0560310LIMITE HAUTES-ALPES 1030997LAMURE              0730600050574050574050000900305000090010907      000000                                                                                                                                 120000001         110096841         100097561         090098281    7    080095261    7                                                                                                                                                   
380003800210013 00850 4113001VIZILLE             0560310LIMITE HAUTES-ALPES 1030997LAMURE              0730600050574050574050000900305000090010907      000000                                                                                                                                 120000001         110048631         100049031         090049431    7    080047781    7                                                                                                                                                   
380003800110013 00850 4113001VIZILLE             0560310LIMITE HAUTES-ALPES 1030997LAMURE              0730600050574050574050000900305000090010907      000000                                                                                                                                 120000001         110048211         100048531         090048851    7    080047481    7                                                                                                                                                   
340003702310013 01130 4813001VENDARGUES D65      0160150VENDARGUES LIMITE   0160912VENDARGUES LIMITE   0160700002797002197340003600300000000000180      023469                                                                                                                                 120239278         110259038         100264868         090235528    0    080227618    0                                                                                                                                                   
340003701310013 01130 4813001VENDARGUES A9       0150450VENDARGUES D65      0160150VENDARGUES A9 D65   0160000002797002197340003600300000000000180      043968                                                                                                                                 120448268         110485278         100496198         090441228    0    080387648    0                                                                                                                                                   
340003600310013 01130 4113001EB 20 LUNEL         0040630BAILLARGUES         0140750VALERGUES           0090000010811008088340003600300000000000490      014093  527    013304   013587   013646   014325   014299   014827   014906   014449   014244   014737   013477   013285               120143681         110155541    7    100159041         090141421         080142331         013907   013984   014343   014371   014641   015041   014963   014591   014738   014633   014000   013203                                      
340003600210013 01130 4113001EB 20 LUNEL         0040630BAILLARGUES         0140750VALERGUES           0090000010811008088340003600300000000000490      007003  517    006789   006913   006857   007143   007120   007276   007240   007033   007033   007467   006620   006537               120073411         110086561    7    100086741         090069701         080069901         007170   007140   007322   007286   007453   007683   007694   007439   007486   007485   007161   006767                                      
340003600110013 01130 4113001EB 20 LUNEL         0040630BAILLARGUES         0140750VALERGUES           0090000010811008088340003600300000000000490      007090  547    006515   006674   006789   007182   007179   007551   007666   007416   007211   007270   006857   006748               120070271         110068981    7    100072301         090071721         080072431         006737   006844   007021   007085   007188   007358   007269   007152   007252   007148   006839   006436                                      
340003399310013 01130 4813001EB 10 LUNEL         0010670EB 20 LUNEL         0040630LUNEL AGGLOMERATION 0030000002969000000340003300300000000000500      000000                                                                                                                                 120000008         110000008         100000008         090000008         080000008                                                                                                                                                        
340003300310013 01130 4113001LIMITE GARD         0000000EB10 LUNEL          0010670LUNEL               0010200001754001754340003300330000480030490      024203         020996   021825   022772   024465   025281   026358   028166   028254   024565   023348   022411   021793               120241441         110238651    8    100236571         090248731         080232051         021180   021223   023468   024186   025135   026589   027860   028230   024774   023527   021747   021650                                      
340003300210013 01130 4113001LIMITE GARD         0000000EB10 LUNEL          0010670LUNEL               0010200001754001754340003300330000480030490      012165         010604   011019   011449   012353   012678   013118   013933   014132   012356   011823   011377   011041               120120891         110120871    8    100118951         090114791         080116491         010735   010711   011759   012023   012377   013199   013787   014000   012560   011921   011011   010911                                      
340003300110013 01130 4113001LIMITE GARD         0000000EB10 LUNEL          0010670LUNEL               0010200001754001754340003300330000480030490      012038         010392   010806   011323   012112   012603   013240   014233   014122   012209   011525   011034   010752               120120551         110117781    8    100117621         090133941         080115561         010445   010512   011709   012163   012758   013390   014073   014230   012214   011606   010736   010739                                      
300107050310013 00860 4113001RN 086              0040000RD 994              0050000PT_ST_ESPRIT_DEV    0040000001352001352340003300300000000000197      010072         008743   008993   009424   010220   010307   010824   011943   011545   010603   009959   009110   009111               120097341         110100631 8158    100098051         090096601    8    080088051 1218    008986   009138   009559   009920   009624   010457   010846   010629   009637   009936   009163   008878                                      
300107050210013 00860 4113001RN 086              0040000RD 994              0050000PT_ST_ESPRIT_DEV    0040000001352001352340003300300000000000197      005163         004472   004604   004701   005233   005376   005544   006014   006090   005516   005078   004645   004642               120049651         110051491    8    100050091         090048741    8    080046311    8    004597   004667   004869   005025   004821   005288   005641   005577   004870   005056   004630   004515                                      
300107050110013 00860 4113001RN 086              0040000RD 994              0050000PT_ST_ESPRIT_DEV    0040000001352001352340003300300000000001296      004909         004271   004389   004723   004987   004931   005280   005929   005455   005087   004881   004465   004469               120047691         110049141 2336    100047961         090047861    8    080041741 1828    004389   004471   004690   004895   004803   005169   005205   005052   004767   004880   004533   004363                                      
300006600310013 05800 4812001RD 980 PONT DE NIZON0120606A9 ROQUEMAURE       0190085ST LAURENT DES ARBRE0180844006081006081300006500300000000000589      011125                                                                                                                                 120112268         110113208         100115558         090116078    0    080129078    0                                                                                                                                                   
300006501310013 05800 4812001RD 765A ORSAN       0050834RD 980 PONT DE NIZON0120606L'ARDOISE           0090903006732005703300006500300000000000589      012101                                                                                                                                 120122118         110123138         100125698         090126258    0    080128308    0                                                                                                                                                   
300006500310013 05800 4112001EB 20 BAGNOLS/CEZE  0020980RD 765A ORSAN       0050834BAGNOLS EST         0020980002844002844300006500300000000000589      013852  557    012999   013273   013398   014033   013782   014699   015489   013842   014170   014248   013322   012937               120139771         110140931         100143851         090144491         080143261    7    013325   013129   014101   013802   013958   014994   015312   014076   014048   014268   013685   012994                                      
300006500210013 05800 4112001EB 20 BAGNOLS/CEZE  0020980RD 765A ORSAN       0050834BAGNOLS EST         0020980002844002844300006500300000000000790      006869  577    006457   006587   006642   006931   006843   007265   007691   006976   006986   007045   006584   006402               120069761         110069811         100070851         090071331         080070871    7    006615   006547   007010   006893   006958   007574   007644   007054   007017   007116   006812   006464                                      
300006500110013 05800 4112001EB 20 BAGNOLS/CEZE  0020980RD 765A ORSAN       0050834BAGNOLS EST         0020980002844002844300006500300000000000790      006983  507    006542   006686   006756   007102   006939   007434   007798   006866   007184   007203   006738   006535               120070011         110071121         100073001         090073161         080072391    7    006710   006582   007091   006909   007000   007420   007668   007022   007031   007152   006873   006530                                      
300006100310013 05800 4842001RN86 BAGNOLS / CEZE 0000000EB 20 BAGNOLS/CEZE  0020980AGGLO BAGNOLS RN 5800000500003748000000300006500300000000000589      009920                                                                                                                                 120100108         110100948         100103048         090103508    0    080096188    0                                                                                                                                                   
300004801310013 01130 4812001RN 572              0490420LIMITE HERAULT      0490798PONT / VIDOURLE     0490798000378000378340003300300000000000189      024203                                                                                                                                 120241448         110238658         100236578         090248738         080232058    0                                                                                                                                                   
300004800310013 01130 4812001A9 RN 313           0470480RN 572              0490420GALLARGUES          0490000001931001931300004700300000010030589      018607                                                                                                                                 120186898         110184858         100183958         090191998    0    080214548    0                                                                                                                                                   
300004700310013 01130 4112001RD 139 VERGEZE      0420395A.9 RN 313          0470480CODOGNAN            0430540005085004465300004700300000000000589      010909         009459   009999   010285   011004   011197   011884   012547   013019   011226   010631   010019   009571               120109571         110108371         100107841         090112551         080110681         009718   009767   010712   011018   011245   012021   012548   012722   011314   010598   010212   009552                                      
300004700210013 01130 4112001RD 139 VERGEZE      0420395A.9 RN 313          0470480CODOGNAN            0430540005085004465300004700300000000000589      005362         004619   004887   005039   005417   005510   005849   006083   006527   005590   005189   004925   004676               120053921         110053471         100053861         090056091         080055211         004765   004788   005266   005383   005576   005949   006161   006311   005621   005213   004988   004657                                      
300004700110013 01130 4112001RD 139 VERGEZE      0420395A.9 RN 313          0470480CODOGNAN            0430540005085004465300004700300000000000589      005547         004840   005112   005246   005587   005687   006035   006464   006492   005636   005442   005094   004895               120055651         110054901         100053981         090056461         080055471         004953   004979   005446   005635   005669   006072   006387   006411   005693   005385   005224   004895                                      
300004601310013 01130 4113001RD 14 BERNIS        0360391RD 139 VERGEZE      0420395BERNIS              0360480006662006662300004700300000000000589      016941         015295   016028   016315   017114   017093   018036   019042   018766   017111   016851   015949   015618               120173391         110176771         100176631         090181371         080180191         016112   016159   017285   017396   017895   018814   018930   019107   017596   016865   016246   015618                                      
300004601210013 01130 4113001RD 14 BERNIS        0360391RD 139 VERGEZE      0420395BERNIS              0360480006662006662300004700300000000000589      008360         007506   007904   008025   008420   008426   008878   009353   009340   008451   008292   007928   007755               120085951         110088581         100087951         090090121         080090101         007984   008027   008545   008596   008933   009337   009380   009505   008751   008347   008015   007698                                      
300004601110013 01130 4113001RD 14 BERNIS        0360391RD 139 VERGEZE      0420395BERNIS              0360480006662006662300004700300000000000589      008581  847    007789   008124   008290   008694   008667   009158   009689   009426   008660   008559   008021   007863               120087441         110088191    7    100088681         090091251         080090091    7    008128   008132   008740   008800   008962   009477   009550   009602   008845   008518   008231   007920                                      
300004600310013 01130 4812001EB20 NIMES          0320195RD 14 BERNIS        0360391DEVIATION DE MILHAUD0330000005034005034300004601300000000000589      018437                                                                                                                                 120188718         110192398         100192248         090197408    0    080185688    0                                                                                                                                                   
300004599310013 01130 4857001A9 N106             0290820EB 20 NIMES         0320195NIMES PERIPH SUD OUE0310000002408000000300004601300000000000301      023389                                                                                                                                 120239398         110244068         100243878         090250428    0    080240038    0                                                                                                                                                   
300003500310013 01060 4112001LA GRAND COMBE      0570400LIMITE LOZERE       0660828SAINTE CECILE       0650200009457006617300004601300000220030290      003005         002013   002080   002395   002775   003176   003180   004063   004726   003228   003319   002713   002296               120030171         110030171         100029891         090030511         080029411    7    002177   002123   002501   002864   003117   003225   004135   004597   003376   003244   002555   002230                                      
300003500210013 01060 4112001LA GRAND COMBE      0570400LIMITE LOZERE       0660828SAINTE CECILE       0650200009457006617300004601300000220030290      001631         001110   001138   001292   001521   001712   001732   002190   002507   001770   001797   001499   001257               120016371         110016541         100016211         090016681         080015901    7    001199   001169   001380   001561   001683   001743   002243   002457   001825   001744   001402   001210                                      
300003500110013 01060 4112001LA GRAND COMBE      0570400LIMITE LOZERE       0660828SAINTE CECILE       0650200009457006617300004601300000220030290      001374         000903   000942   001103   001254   001464   001448   001873   002219   001458   001522   001214   001039               120013801         110013631         100013681         090013831         080013511    7    000978   000954   001121   001303   001434   001482   001892   002140   001551   001500   001153   001020                                      
300003400310013 01060 4112001EB20 ALES           0470000LA GRAND COMBE      0570400ST_MARTIN_VALG      0490800010324008844300004601300000000000290      010567  358    009457   009550   009940   010465   010678   010998   011459   011490   010899   011377   010364   010042               120105561  348    110105991    8    100104431         090103791         080101181    8    009763   009520   010333   010419   010631   011158   011219   011313   011070   011052   010255   009897                                      
300003400210013 01060 4112001EB20 ALES           0470000LA GRAND COMBE      0570400ST_MARTIN_VALG      0490800010324008844300004601300000000000290      005270  358    004730   004793   005000   005246   005354   005512   005600   005521   005473   005743   005186   005046               120052931  368    110053361    8    100052661         090051401         080050491    8    004899   004780   005204   005229   005330   005603   005625   005610   005557   005543   005142   004972                                      
300003400110013 01060 4112001EB20 ALES           0470000LA GRAND COMBE      0570400ST_MARTIN_VALG      0490800010324008844300004601300000000000290      005297  338    004727   004757   004940   005219   005324   005486   005859   005969   005426   005634   005178   004996               120052631  308    110052631    8    100051771         090052391         080050691    8    004864   004740   005129   005190   005301   005555   005594   005703   005513   005509   005113   004925                                      
300003399310013 01060 4852001EB10 ALES           0390707EB20 ALES           0470000ALES                0450000005617000000300003400300000000000589      013431                                                                                                                                 120134188         110134738         100132758         090131948    0    080120558    0                                                                                                                                                   
300003300310013 01060 4112001RD 982 PONT DE NERS 0270300EB10 ALES           0390707SAINT HILAIRE       0380700012257010167300003400300000000000589      000000                                                                                                                                 120185541         110182221         100181741         090181311    8    080177461    8    017808   017243   018946   019020   019087   020069   020470   019360   018553   018298   017261   016465                                      
300003300210013 01060 4110201RD 982 PONT DE NERS 0270300EB 10 ALES          0390707SAINT HILAIRE       0380700012257010167300003400300000000000404      000000                                                                                                                                 120090261         110089471         100090861         090092271    8    080089001    8    008857   008550   009396   009423   009511   009984   010220   009641   009272   008246   007753   007436                                      
300003300110013 01060 4110201RD 982 PONT DE NERS 0270300EB 10 ALES          0390707SAINT HILAIRE       0380700012257010167300003400300000000000404      000000                                                                                                                                 120095281  618    110092751         100090881         090089041 1508    080088461    8    008951   008693   009550   009597   009576   010085   010250   009719   009281   010052   009508   009029                                      
300003201310013 01060 4110101RD 8 BRIGNON        0220000RD 982 PONT DE NERS 0270300BOUCOIRAN           0270000006332004632300003400300000000000301      000000                                                                                                                                 120000001         110155091         100151281         090145531         080137811    0                                                                                                                                                   
300003201210013 01060 4110101RD 8 BRIGNON        0220000RD 982 PONT DE NERS 0270300BOUCOIRAN           0270000006332004632300003400300000000000404      000000                                                                                                                                 120000001         110069491         100067041         090065211         080062661    0                                                                                                                                                   
300003201110013 01060 4110101RD 8 BRIGNON        0220000RD 982 PONT DE NERS 0270300BOUCOIRAN           0270000006332004632300003400300000000000404      000000                                                                                                                                 120000001         110085601         100084241         090080321 108     080075151    0                                                                                                                                                   
300003200310013 01060 4110201RD 982 MOUSSAC      0140500RD 8 BRIGNON        0220000SAINT GENIES        0170750007338007338300003400300000000000589      017162  757    014567   015362   015901   017378   017457   018153   019302   019199   018219   017229   016978   016092               120157991         110164401         100159601         090148601    0    080058361    8    015424   014991   016481   015930   015741   015921   016697   016878   015729   016066   015390   014285                                      
300003200210013 01060 4110201RD 982 MOUSSAC      0140500RD 8 BRIGNON        0220000SAINT GENIES        0170750007338007338300003400300000000000589      008545  707    007256   007710   007810   008700   008686   009043   009560   009599   009086   008574   008484   007986               120080351         110082841         100080261         090073211    0    080028811    8    007750   007581   008315   008252   008329   008062   008197   008384   008138   008270   007906   007217                                      
300003200110013 01060 4110201RD 982 MOUSSAC      0140350RD 8 BRIGNON        0220000SAINT GENIES        0170750007338007338300003400300000000000589      008617  847    007311   007652   008091   008678   008771   009110   009742   009600   009133   008655   008494   008106               120077641         110081561         100079341         090075391    0    080029551    8    007674   007410   008166   007678   007412   007859   008500   008494   007591   007796   007484   007068                                      
300003000310013 01060 4112001RD 907              0050300RD 22 LA CALMETTE   0140500NIMES NORD          0050370008022008022300003400300000000000589      027652  517    025385   026286   026794   028277   028162   028946   028612   028814   028727   028730   026802   026233               120276821         110274741         100275381         090277861         080268741    0    026005   025557   027468   027919   027143   028280   029858   028393   028459   028831   028167   026030                                      
300003000210013 01060 4112001RD 907              0050300RD 22 LA CALMETTE   0140500NIMES NORD          0050370008022008022300003400300000000000304      013493  517    012350   012764   012974   013826   013735   014123   013956   014139   014112   014011   013078   012817               120134791         110133861         100134461         090135471         080130751    0    012708   012364   013362   013621   013206   013619   014626   013894   013876   013997   013787   012648                                      
300003000110013 01060 4112001RD 907              0050300RD 22 LA CALMETTE   0140500NIMES NORD          0050370008022008022300003400300000000000304      014159  517    013035   013522   013820   014451   014427   014823   014656   014675   014615   014719   013724   013416               120142031         110140881         100140921         090142391         080137991    0    013297   013193   014106   014298   013937   014661   015232   014499   014583   014834   014380   013382                                      
300002900310013 01060 4812001EB20 NIMES          0020812RD 907              0050300GUIRAUDON           0040000003810003810300003000300000000000589      025281                                                                                                                                 120253098         110251198         100251788         090254058    0    080279568    0                                                                                                                                                   
300002899310013 01060 4857001RN 113              0000000EB20 NIMES          0020812PERIPHERIQUE W NIMES0020000003674000000300003000300000000000589      032843                                                                                                                                 120328798         110326328         100327098         090330048    0    080371718    0                                                                                                                                                   
300002700310013 01000 4110201RN 580              0150900LIMITE VAUCLUSE     0190640LES ANGLES          0190500003732003732300003000300000000000290      000000                                                                                                                                 120000001         110466411         100477291         090000001         080485311                                                                                                                                                        
300002700210013 01000 4110201RN 580              0150900LIMITE VAUCLUSE     0190640LES ANGLES          0190500003732003732300003000300000000000290      000000                                                                                                                                 120000001         110238691         100243611         090000001         080246931                                                                                                                                                        
300002700110013 01000 4110201RN 580              0150900LIMITE VAUCLUSE     0190640LES ANGLES          0190500003732003732300003000300000000000290      000000                                                                                                                                 120000001         110227721         100233521         090000001         080237451                                                                                                                                                        
300002600310013 01000 4112001RD 976              0070653RN 580              0150900ROCHEFORT           0140500008238008238300003000300000000000589      019836  787    017486   018250   019180   020455   020836   021767   023649   022024   019499   019150   017769   017815               120202541         110206241         100205091         090204161         080200041    0    017592   017462   019345   020279   020564   021958   024605   023177   020696   020010   018958   018251                                      
300002600210013 01000 4112001RD 976              0070653RN 580              0150900ROCHEFORT           0140500008238008238300003000300000000000589      009955  757    008741   009151   009617   010244   010430   010913   011970   010959   009736   009677   008947   008996               120101561         110103731         100103021         090104591         080100431         008787   008735   009658   010174   010226   011036   012404   011674   010414   010014   009475   009200                                      
300002600110013 01000 4112001RD 976              0070653RN 580              0150900ROCHEFORT           0140500008238008238300003000300000000000589      009881  857    008745   009099   009563   010211   010406   010854   011679   011065   009763   009473   008822   008819               120100981         110102511         100102071         090099571         080099611 101     008805   008727   009687   010105   010338   010922   012201   011503   010282   009996   009483   009051                                      
300002500310013 01000 4112001A 9 RD 192          0020000RD 976              0070653ESTEZARGUES         0060800005056005056300003000300000000000589      018707  887    015948   016645   017535   019038   019619   020643   022839   022183   019002   017964   016556   016332               120188821         110193511         100193751         090191921 124     080184441 1000    015973   015875   017953   018929   019448   020853   023529   021989   019685   018313   017347   016539                                      
300002500210013 01000 4112001A 9 RD 192          0020000RD 976              0070653ESTEZARGUES         0060800005056005056300003000300000000000589      009330  877    007923   008316   008739   009493   009777   010296   011454   010985   009403   008999   008265   008222               120094121         110096831         100096581         090095701 104     080089601         007926   007898   008932   009448   009620   010431   011823   011006   009719   009145   008630   008284                                      
300002500110013 01000 4112001A 9 RD 192          0020000RD 976              0070653ESTEZARGUES         0060800005056005056300003000300000000000589      009377  907    008025   008329   008796   009545   009842   010347   011385   011198   009599   008965   008291   008110               120094701         110096681         100097171         090096221 144     080094841 102     008047   007977   009021   009481   009828   010422   011706   010983   009966   009168   008717   008255                                      
300000701310013 00860 4842001RD 980              0120860RD 43               0130786AGGLO BAGNOLS RN 86 0130200002503000000300000700300000000000192      032641                                                                                                                                 120324038         110278218         100278338         090278458    0    080256038    0                                                                                                                                                   
300000700310013 00860 4142001EB 20 PONT ST ESPRIT0050000RD 980              0120860BAGNOLS NORD        0120857007907006709300000700300000000000589      017387  857    015536   016025   016726   017543   018036   018560   018899   019628   017974   017594   015979   016037               120172601         110148191         100172961         090173031    8    080170941    8    015731   016050   016977   017491   017827   018021   018786   019165   017644   017266   016388   015716                                      
300000700210013 00860 4142001EB 20 PONT ST ESPRIT0050000RD 980              0120860BAGNOLS NORD        0120857007907006709300000700300000000000589      008765  877    007781   008014   008287   008818   009098   009344   009545   010093   009130   008846   008121   008046               120086601         110085831         100086401         090086971    8    080085681    8    007871   008035   008497   008771   008942   009040   009364   009639   008954   008710   008229   007839                                      
300000700110013 00860 4142001EB 20 PONT ST ESPRIT0050000RD 980              0120860BAGNOLS NORD        0120857007907006709300000700300000000000589      008622  827    007755   008011   008439   008725   008938   009216   009354   009535   008844   008748   007858   007991               120086001         110062361         100086561         090086061    8    080085261    8    007860   008015   008480   008720   008885   008981   009422   009526   008690   008556   008159   007877                                      
130645000310013 05170 1110231A 51                0000000A7                  0001160LIAISON A51 A7BN    0000000001160001160300000700300000000000589      000000                                                                                                                                 120000001         110415411         100405001         090395131         080454871                                                                                                                                                        
130645000210013 05170 1110231A 51                0000000A7                  0001160LIAISON A51 A7BN    0000000001160001160300000700300000000000589      000000                                                                                                                                 120000001         110195661         100185331         090175541         080235121                                                                                                                                                        
130645000110013 05170 1110231A 51                0000000A7                  0001160LIAISON A51 A7BN    0000000001160001160300000700300000000000589      000000                                                                                                                                 120000001         110219751         100219671         090219591         080219751                                                                                                                                                        
130644000310013 05160 1110231A 51                0000000A8                  0000915LIAISON A51 A8      0000000000915000915300000700300000000000589      000000                                                                                                                                 120000001         110000001         100000001         090000001         080000001                                                                                                                                                        
130644000210013 05160 1110231A 51                0000000A8                  0000915LIAISON A51 A8      0000000000915000915300000700300000000000589      000000                                                                                                                                 120000001         110000001         100000001         090000001         080000001                                                                                                                                                        
130644000110013 05160 1110231A 51                0000000A8                  0000915LIAISON A51 A8      0000000000915000915300000700300000000000589      000000                                                                                                                                 120000001         110000001         100000001         090000001         080000001                                                                                                                                                        
130643000310013 05150 1110231A 51                0000000D6                  0010242LIAISON A51 D6      0000000001197001197300000700300000000000589      000000                                                                                                                                 120000001         110480921         100457221         090434971         080479481                                                                                                                                                        
130643000210013 05150 1110231A 51                0000000D6                  0010242LIAISON A51 D6      0000000001197001197300000700300000000000589      000000                                                                                                                                 120000001         110239391         100233531         090227811         080239261                                                                                                                                                        
130643000110013 05150 1110231A 51                0000000D6                  0010242LIAISON A51 D6      0000000001197001197300000700300000000000589      000000                                                                                                                                 120000001         110241531         100223691         090207161         080240221                                                                                                                                                        
130642000310013 05520 1110231A 55                0000000A7                  0001620LIAISON A7BN A55    0000000001620001620300000700300000000000589      000000                                                                                                                                 120000001         110352711         100337301         090323421         080355171                                                                                                                                                        
130642000210013 05520 1110231A 55                0000000A7                  0001620LIAISON A7BN A55    0000000001620001620300000700300000000000589      000000                                                                                                                                 120000001         110150201         100135011         090121351         080152661                                                                                                                                                        
130642000110013 05520 1110231A 55                0000000A7                  0001620LIAISON A7BN A55    0000000001620001620300000700300000000000589      000000                                                                                                                                 120000001         110202511         100202291         090202071         080202511                                                                                                                                                        
130641000310013 05510 1110231A 55                0000000A7                  0001177LIAISON A7N A55L    0000000001177001177300000700300000000000589      000000                                                                                                                                 120000001         110000001         100000001         090000001         080000001                                                                                                                                                        
130641000210013 05510 1110231A 55                0000000A7                  0001177LIAISON A7N A55L    0000000001177001177300000700300000000000589      000000                                                                                                                                 120000001         110000001         100000001         090000001         080000001                                                                                                                                                        
130641000110013 05510 1110231A 55                0000000A7                  0001177LIAISON A7N A55L    0000000001177001177300000700300000000000589      000000                                                                                                                                 120000001         110186481         100193861         090201531         080186201                                                                                                                                                        
130640000510013 05570 1153031A 55                0000000ARENC               0010500LIAISON A7 A55      0000000001500001500300000700300000000000589      000000                                                                                                                                 120000001         110157891         100147731         090138221         080157131    0                                                                                                                                                   
130636700310013 00550 1810241MARTIGUES NORD      0370980RN 568.             0381061MARTIGUES NORD      0380500001080001080130007000300000000000589      000000                                                                                                                                 120000008         110742608         100745378         090000008         080746968                                                                                                                                                        
130636700210013 00550 1810241MARTIGUES NORD      0370980RN 568.             0381061MARTIGUES NORD      0380500001080001080000000000000000000000589      000000                                                                                                                                 120000008         110339538         100338608         090000008         080337988                                                                                                                                                        
130636700110013 00550 1810241MARTIGUES NORD      0370980RN 568.             0381061MARTIGUES NORD      0380500001080001080000000000000000000000589      000000                                                                                                                                 120000008         110403078         100406618         090000008         080408988                                                                                                                                                        
130636600310013 00550 1810241MARTIGUES SUD       0360400MARTIGUES NORD      0370980MARTIGUES SUD       0370500001584001584130007000300000000000589      000000                                                                                                                                 120000008         110778808         100781668         090000008         080783418                                                                                                                                                        
130636600210013 00550 1810241MARTIGUES SUD       0360400MARTIGUES NORD      0370980MARTIGUES SUD       0370000001584001584000000000000000000000589      000000                                                                                                                                 120000008         110396818         100396338         090000008         080396018                                                                                                                                                        
130636600110013 00550 1810241MARTIGUES SUD       0360400MARTIGUES NORD      0370980MARTIGUES SUD       0370000001584001584000000000000000000000589      000000                                                                                                                                 120000008         110381998         100385238         090000008         080387408                                                                                                                                                        
130636500310013 00550 1810241MARTIGUES CENTRE    0330190MARTIGUES SUD       0360400MARTIGUES CENTRE    0350100003280003280000000000000000000000589      000000                                                                                                                                 120000008         110554898         100559658         090000008         080562838                                                                                                                                                        
130636500210013 00550 181 241MARTIGUES CENTRE    0330190MARTIGUES SUD       0360400MARTIGUES CENTRE    03501000032800032800000000000          0589      000000                                                                                                                                 120000008         110295068         100298028         090000008         080300008                                                                                                                                                        
130636500110013 00550 181 241MARTIGUES CENTRE    0330190MARTIGUES SUD       0360400MARTIGUES CENTRE    03501000032800032800000000000          0589      000000                                                                                                                                 120000008         110259838         100261638         090000008         080262838                                                                                                                                                        
130636400310013 00550 1810241LA MEDE OUEST       0310650MARTIGUES CENTRE    0330190LA MEDE OUEST       0320000001471001471000000000000000000000589      000000                                                                                                                                 120000008         110688048         100694038         090000008         080697938                                                                                                                                                        
130636400210013 00550 1810241LA MEDE OUEST       0310650MARTIGUES CENTRE    0330190LA MEDE OUEST       0320000001471001471000000000000000000000589      000000                                                                                                                                 120000008         110342168         100345628         090000008         080347948                                                                                                                                                        
130636400110013 00550 1810241LA MEDE OUEST       0310650MARTIGUES CENTRE    0330190LA MEDE OUEST       0320000001471001471000000000000000000000589      000000                                                                                                                                 120000008         110345888         100348948         090000008         080350998                                                                                                                                                        
130636300310013 00550 1810241LA MEDE EST         0290400LA MEDE OUEST       0310650LA MEDE EST         0300000002251002251000000000000000000000589      000000                                                                                                                                 120000008         110630218         100635748         090000008         080639368                                                                                                                                                        
130636300210013 00550 1810241LA MEDE EST         0290400LA MEDE OUEST       0310650LA MEDE EST         0300000002251002251000000000000000000000589      000000                                                                                                                                 120000008         110338898         100341958         090000008         080344008                                                                                                                                                        
130636300110013 00550 1810241LA MEDE EST         0290400LA MEDE OUEST       0310650LA MEDE EST         0300000002251002251000000000000000000000589      000000                                                                                                                                 120000008         110291328         100293748         090000008         080295368                                                                                                                                                        
130636200310013 00550 1810241CARRY               0240130LA MEDE EST         0290400CARRY               0250000005274005274000000000000000000000589      000000                                                                                                                                 120000008         110503058         100507448         090000008         080510298                                                                                                                                                        
130636200210013 00550 1810241CARRY               0240130LA MEDE EST         0290400CARRY               0250000005274005274000000000000000000000589      000000                                                                                                                                 120000008         110250368         100252598         090000008         080254088                                                                                                                                                        
130636200110013 00550 1810241CARRY               0240130LA MEDE EST         0290400CARRY               0250000005274005274000000000000000000000589      000000                                                                                                                                 120000008         110252698         100254808         090000008         080256218                                                                                                                                                        
130636100310013 00550 1810241LES PIELETTES       0200495CARRY               0240130LES PIELETTES       0220000003421003421000000000000000000000589      000000                                                                                                                                 120000008         110583178         100588148         090000008         080591458                                                                                                                                                        
130636100210013 00550 1810241LES PIELETTES       0200495CARRY               0240130LES PIELETTES       0220000003421003421000000000000000000000589      000000                                                                                                                                 120000008         110295238         100298358         090000008         080300448                                                                                                                                                        
130636100110013 00550 1810241LES PIELETTES       0200495CARRY               0240130LES PIELETTES       0220000003421003421000000000000000000000589      000000                                                                                                                                 120000008         110287948         100289788         090000008         080291018                                                                                                                                                        
130636001310013 00550 1810241JONCTION A7 NORD    0140000LES PIELETTES       0200495REBUTY PMV          0160474006078006078130635800300000000000589      070453                                                                                                                                 120000008         110710638         100760288         090802298         080770008    0                                                                                                                                                   
130636001210013 00550 1810241JONCTION A7 NORD    0140000LES PIELETTES       0200495REBUTY PMV          0160474006078006078130635800200000000000589      035554                                                                                                                                 120000008         110363548         100383928         090405448         080386288 1007                                                                                                                                                   
130636001110013 00550 1810241JONCTION A7 NORD    0140000LES PIELETTES       0200495REBUTY PMV          0160474006078006078130635800100000000000589      034899                                                                                                                                 120000008         110347098         100371148         090396858         080383728    0                                                                                                                                                   
130636000310013 00550 1810241JONCTION A7 NORD    0140000LES PIELETTES       0200495GIGNAC              0150500006078006078130635800300000000000589      000000                                                                                                                                 120000008         110686018         100739188         090802298         080736348    0                                                                                                                                                   
130636000210013 00550 1810241JONCTION A7 NORD    0140000LES PIELETTES       0200495GIGNAC              0150500006078006078          00000000000589      000000                                                                                                                                 120000008         110336418         100369328         090405448         080365408    0                                                                                                                                                   
130636000110013 00550 1810241JONCTION A7 NORD    0140000LES PIELETTES       0200495GIGNAC              0150500006078006078          00000000000589      000000                                                                                                                                 120000008         110349608         100372488         090396858         080370948    0                                                                                                                                                   
130635901310013 00550 1110231JONCTION A7 SUD     0120880JONCTION A7 NORD    0140000JONCTION A7 SUD NORD0140000001115001115          00000000000589      000000                                                                                                                                 120000001         110191781         100181191         090000001         080174421    0                                                                                                                                                   
130635901210013 00550 1110231JONCTION A7 SUD     0120880JONCTION A7 NORD    0140000JONCTION A7 SUD NORD0140000001115001115          00000000000589      000000                                                                                                                                 120000001         110115871         100111681         090000001         080108951    7                                                                                                                                                   
130635901110013 00550 1110231JONCTION A7 SUD     0120880JONCTION A7 NORD    0140000JONCTION A7 SUD NORD0140000001115001115          00000000000589      000000                                                                                                                                 120000001         110075911         100069501         090000001         080065471    7                                                                                                                                                   
130635900310013 00550 1110231GD LITTORAL         0070150JONCTION A7 SUD     0120880GD LITTORAL         0070279007244007244          00000000000191      000000                                                                                                                                 120000001         110666791         100611271         090636181         080638831                                                                                                                                                        
130635900210013 00550 1110211GD LITTORAL         0070150JONCTION A7 SUD     0120880GD LITTORAL         0070279007244007244          00000000000191      000000                                                                                                                                 120000001         110317751         100295741         090303851         080304771    0                                                                                                                                                   
130635900110013 00550 1110231GD LITTORAL         0070150JONCTION A7 SUD     0120880GD LITTORAL         0070279007244007244          00000000000191      000000                                                                                                                                 120000001         110349041         100315531         090332331         080334061    7                                                                                                                                                   
130635800310013 00550 1110231MIRABEAU            0050620GD LITTORAL         0070150VERDURON            0070279007244007244          00000000000191      000000                                                                                                                                 120000001         110574701         100617951         090673341         080630861                                                                                                                                                        
130635800210013 00550 1110211MIRABEAU            0050620GD LITTORAL         0070150VERDURON            0070279007244007244          00000000000191      000000                                                                                                                                 120000001         110314971         100303091         090291651         080327591    0                                                                                                                                                   
130635800110013 00550 1110231MIRABEAU            0050620GD LITTORAL         0070150VERDURON            0070279007244007244          00000000000191      000000                                                                                                                                 120000001         110259731         100314861         090381691         080303271    7                                                                                                                                                   
130635600310013 00550 1110231CAP JANET           0040660MIRABEAU            0050620CAP JANET           0050000000960000960          00000000000589      000000                                                                                                                                 120000001         110633561         100659101         090687361         080671491    0                                                                                                                                                   
130635600210013 00550 1110231CAP JANET           0040660MIRABEAU            0050620CAP JANET           0050000000960000960          00000000000589      000000                                                                                                                                 120000001         110294571         100290061         090285611         080286851    7                                                                                                                                                   
130635600110013 00550 1110231CAP JANET           0040660MIRABEAU            0050620CAP JANET           0050000000960000960          00000000000589      000000                                                                                                                                 120000001         110338991         100369041         090401751         080384641    0                                                                                                                                                   
130635400310013 00550 1110431CAP PINEDE          0030460CAP JANET           0040660CAP PINEDE          0040305001200001200          00000000000589      000000                                                                                                                                 120000001         110505131         100625701         090803401         080553111    7                                                                                                                                                   
130635400210013 00550 1110431CAP PINEDE          0030460CAP JANET           0040660CAP PINEDE          0040305001200001200          00000000000589      000000                                                                                                                                 120000001         110284651         100293191         090301981         080324441    0                                                                                                                                                   
130635400110013 00550 1110431CAP PINEDE          0030460CAP JANET           0040660CAP PINEDE          0040305001200001200          00000000000589      000000                                                                                                                                 120000001         110220481         100332501         090501421         080322861    0                                                                                                                                                   
130635300310013 00550 1150231ARENC               0020060CAP PINEDE          0030460ARENC               0020800001406001406          00000000000589      000000                                                                                                                                 120000001         110689141         100657751         090627851         080653471    0                                                                                                                                                   
130635300210013 00550 1110231ARENC               0020060CAP PINEDE          0030460ARENC               0020800001406001406          00000000000589      000000                                                                                                                                 120000001         110264851         100256051         090247541         080249431    7                                                                                                                                                   
130635300110013 00550 1150231ARENC               0020060CAP PINEDE          0030460ARENC               0020800001406001406          00000000000589      039519                                                                                                                                 120000001         110424291         100401701         090380311         080404041    7                                                                                                                                                   
130635200410013 00550 1150231ARENC               0010349JOLIETTE            0020060JOLIETTE.           0020000000462000462          00000000000589      038207                                                                                                                                 120000001         110404281         100394811         090385561         080392391    7                                                                                                                                                   
130635100510013 00550 1111031PORT                0010000JOLIETTE            0020060JOLIETTE            0010442000160000160          00000000000589      037467                                                                                                                                 120000001         110457601         100417171         090380311         080414391    7                                                                                                                                                   
130620900310013 00510 1850231RACCORDEMENT A.8.   0160515AIX-OUEST(Z.A.C.)   0170826RAC.A8-AIX-OUEST ZAC0170000001319001319130620500300000000000589      000000                                                                                                                                 120000008         110892668         100857758         090824268         080836688    0                                                                                                                                                   
130620900210013 00510 1850231RACCORDEMENT A.8.   0160515AIX-OUEST(Z.A.C.)   0170826RAC.A8-AIX-OUEST ZAC0170000001319001319130620500200000000000589      000000                                                                                                                                 120000008         110504598         100488588         090473078         080471708    0                                                                                                                                                   
130620900110013 00510 1850231RACCORDEMENT A.8.   0160515AIX-OUEST(Z.A.C.)   0170826RAC.A8-AIX-OUEST ZAC0170000001319001319130620500100000000000589      000000                                                                                                                                 120000008         110388078         100369178         090351198         080364988    0                                                                                                                                                   
130620800310013 00510 1850231AIX-CENTRE          0150770RACCORDEMENT A.8    0160515AIX-CENTRE          0160200000751000751130620500300000000000589      000000                                                                                                                                 120000008         110787028         100767948         090749348         080742218    0                                                                                                                                                   
130620800210013 00510 1850231AIX-CENTRE          0150770RACCORDEMENT A.9    0160515AIX-CENTRE          0160200000751000751130620500200000000000189      000000                                                                                                                                 120000008         110429528         100421558         090413728         080412538    0                                                                                                                                                   
130620800110013 00510 1850231AIX-CENTRE          0150770RACCORDEMENT A.8    0160515AIX-CENTRE          0160200000751000751130620500100000000000589      000000                                                                                                                                 120000008         110357508         100346398         090335628         080329688    0                                                                                                                                                   
