800004000310013 00250 4813001RD 49 Doullens      0330965limite Pas de Calais0401009Doullens            0350847006991006991800003400362000190030187      006552                                                                                                                                 120067928    0    110068938    0    100072828    0    090000008    0    080068658    0                                                                                                                                                   
800003400310013 00250 4113001RN 1 Amiens         0090745RD 49 Doullens      0330965RAMPONNEAU          0120796025003025003800003400300000000000187      012017 1178    010994   011440   011320   012171   012394   012695   012561   010867   012580   013227   012025   011926               120124571 1138    110126411 1108    100133541 1028    090000001    0    080125891 1108    012257   012783   012644   012586   012515   013121   012042   011779   013017   012684   012275   011832                                      
800003400210013 00250 4113001RD 49 Doullens      0090745RN 1 Amiens         0330965RAMPONNEAU          0120796025003025003800003400300000000000187      005857 1148    005418   005606   005541   005963   006108   006104   006316   005137   006240   006227   005821   005803               120061291 1118    110061891 1088    100068461    8    090000001    0    080061591 1078    006166   006499   006240   006160   006097   006397   005918   005783   006376   006167   005994   005785                                      
800003400110013 00250 4113001RN 1 Amiens         0090745RD 49 Doullens      0330965RAMPONNEAU          0120796025003025003800003400300000000000187      006160 1208    005576   005834   005779   006208   006286   006591   006245   005730   006340   007000   006204   006123               120063281 1168    110064521 1158    100065081 1128    090000001    0    080064301 1178    006091   006284   006404   006426   006418   006724   006124   005996   006641   006517   006281   006047                                      
800003301310013 00250 4110201RN 29 Longueau      0000300RN 1 Amiens         0090745J VERNE             0020700015395015395800003400300000000000188      036481  928    033779   035722   034558   038274   037439   039252   036456   034802   035452   037593   036996   037443               120378681    0    110000001    0    100375371    8    090000001    0    080000001    0                                                                                                                                                   
800003301210013 00250 4110201RN 1 Amiens         0000000RN 29 Longueau      0090745J VERNE             0020700015395015395800003400300000000000188      018487  898    017047   018069   017244   019325   019092   019842   018381   017584   018369   019045   018763   019085               120189931    8    110000001    0    100190051    8    090000001    0    080000001    0    018064   018430   018972   018796   018875   020139   018870   017735   019886   020271   019515   018400                                      
800003301110013 00250 4110201RN 29 Longueau      0000000RN 1 Amiens         0090745J VERNE             0020700015395015395800003400300000000000188      017993  968    016732   017653   017314   018949   018347   019410   018075   017218   017083   018548   018233   018358               120188751    0    110000001    0    100185321    8    090000001    0    080000001    0                                                                                                                                                   
800000600310013 00010 4810201RN 25               0280000RD 97               0320780Longpre Amiens      0300039004967004967800003301300000000000187      000000                                                                                                                                 120000008    0    110000008    0    100000008    0    090000008    0    080000008    0                                                                                                                                                   
620521200310013 00160 1110241A 26                0870150Limite Nord         1030900CALAIS-MARCK        0880080016750016750800003301300000000000192      044742 2207    037873   040722   041234   045822   046432   046964   050132   049525   046148   045664   043344   043048               120432651 2247    110413031 2177    100404811 2107    090000001    0    080000001    0    038731   036826   036062   042463   044038   046211   048475   047605   047219   045671   043948   041729                                      
620521200210013 00160 1110241Limite Nord         0870150A 26                1030900CALAIS-MARCK        0880080016750016750800003301300000000000192      022295 2207    019135   020335   020544   022867   023079   023438   025184   024601   023141   022537   021470   021212               120210791 2277    110218401 2117    100215871 2047    090000001    0    080000001    0    019541   017445   015222   020280   021725   022519   023789   023463   023706   022710   021843   020597                                      
620521200110013 00160 1110241A 26                0870150Limite Nord         1030900CALAIS-MARCK        0880080016750016750800003301300000000000192      022447 2197    018738   020387   020690   022955   023353   023526   024948   024924   023007   023127   021874   021836               120221861 2187    110194631 2327    100188941 2237    090000001    0    080000001    0    019190   019381   020840   022183   022313   023692   024686   024142   023513   022961   022105   021132                                      
620521100310013 00160 1810241Riviere Neuve       0820100A 26                0870150Les Fontinettes     0840400005050005050620520800300000000000192      000000                                                                                                                                 120000008    0    110000008    0    100000008    0    090000008    0    080000008    0                                                                                                                                                   
620520800310013 00160 1110241Coquelles           0780455Riviere neuve       0820100CALAIS-LPA          0810950003645003645620520800300000000000194      041375 1578                                                                                                                            120420841 1620    110000001    0    100000001    0    090000001    0    080000001    0                                                                                                                                                   
620520800210013 00160 1110341Riviere neuve       0780455Coquelles           0820100CALAIS-LPA          0810950003645003645620520800300000000000194      020001 1588                                                                                                                            120204261 1640    110000001    0    100000001    0    090000001    0    080000001    0                                                                                                                                                   
620520800110013 00160 1110341Coquelles           0780455Riviere neuve       0820100CALAIS-LPA          0810950003645003645620520800300000000000194      021374 1568                                                                                                                            120216581 1590    110000001    0    100190711 1737    090000001    0    080000001    0                                                                                                                                                   
620520300310013 00160 1110241Echang 35           0620000Coquelles           0780455LEUBRINGHEN         0680500016555016555620520800300000000000194      026414 1248    022141   023183   023778   026778   026840   028491   030759   031811   027306   026234   024985   024658               120266141 1298    110266941 1208    100257911 1228    090000001         080255661 1168    022875   022690   024330   027311   026809   029349   030978   031452   028737   026137   025210   023374                                      
620520300210013 00160 1110241Coquelles           0620000Echang 35           0780455LEUBRINGHEN         0680500016555016555620520800300000000000194      013155 1168    011423   011532   011859   013125   013489   014165   015778   015516   013281   012998   012320   012374               120131821 1238    110133051 1168    100128481 1168    090000001    0    080127741 1148    011277   011304   012256   013615   013375   014694   015756   015429   013823   012867   012321   011407                                      
620520300110013 00160 1110241Echang 35           0620000Coquelles           0780455LEUBRINGHEN         0680500016555016555620520800300000000000194      013259 1328    010718   011651   011919   013653   013351   014326   014981   016295   014025   013236   012665   012284               120134321 1398    110133891 1288    100129431 1328    090000001    0    080127921 1198    011598   011386   012074   013696   013434   014655   015222   016023   014914   013270   012889   011967                                      
620510000310013 02160 1110141A 16                0000000RN 216              0010900DORET               0010800001900001900620520800300000000000792      024380 3008    021729   022284   022270   024127   021826   014749   021460   027922   025532   024371   024059   022121               120233181 2807    110245371 2857    100249631 2787    090000001    0    080255101    0    020342   021274   022551   023349   022675   024933   025369   025200   025374   023596   023072   022068                                      
620510000210013 02160 1110131RN 216              0000000A 16                0010900DORET               0010800001900001900620520800300000000000792      012657 2888    011307   011591   011753   012380   011589   007711   011483   014284   012938   012389   012477   011718               120121191 2727    110126131 2777    100129641 2687    090000001    0    080133051    0    010433   011044   011798   011984   011984   013071   013324   013046   012661   012514   011966   011575                                      
620510000110013 02160 1110131A A16               0000000RN 216              0010900DORET               0010800001900001900620520800300000000000792      011724 3148    010422   010693   010517   011747   010237   007038   009977   013638   012594   011982   011582   010403               120111991 2987    110119241 3027    100119991 3017    090000001    0    080122051    0    009909   010230   010753   011365   010691   011862   012045   012154   012713   011082   011106   010493                                      
620502000310013 00210 1110231A 211               0120300Noyelles            0130700NOYELLES            0130100001409001409620520800300000000000187      079876  667    073404   077674   079724   082506   080456   084134   079424   070318   083778   086408   081246   079437               120788601    7    110635701    0    100660691    0    090000001    0    080000001    0    077394   077849   081390   081102   079326   083618   076995   069089   081094   082949   079307   076453                                      
620502000210013 00210 1110231Noyelles            0120300A 211               0130700NOYELLES            0130100001409001409620520800300000000000187      039090  677    035828   038157   039043   040422   039351   041058   038854   034440   040893   042368   039737   038930               120385401    7    110331231    0    100343311    0    090000001    0    080000001    0    037866   038251   040086   039778   038770   040688   037671   034326   039625   039788   038354   037395                                      
620502000110013 00210 1110231A 211               0120300Noyelles            0130700NOYELLES            0130100001409001409620520800300000000000187      040786  657    037576   039517   040681   042084   041105   043076   040570   035878   042885   044040   041509   040507               120403201    7    110304471    0    100317381    0    090000001    0    080000001    0    039528   039598   041304   041324   040556   042930   039324   034763   041469   043161   040953   039058                                      
620501900310013 00210 1110231Dourges A 1         0210999Limite Nord         0260207COURCELLES LES LENS 0250800008337008337620520800300000000000187      059291 1037    051675   053222   056952   062366   060927   064714   059412   052588   063327   064714   061963   059637               120564341 1027    110599841 1047    100533181    7    090000001    0    080467741    7    059235   057888   057361   056638   056666   061635   053057   049439   060116   059255   055047   051212                                      
620501900210013 00210 1110231Limite Nord         0210999Dourges A 1         0260207COURCELLES LES LENS 0250800005536005536620520800300000000000187      028450  997    023220   023587   026533   030372   029820   031876   028925   026179   030456   031160   030185   029087               120264201 1007    110296571 1017    100243251    7    090000001    0    080193131    7    029409   028057   025906   025704   026362   028884   023195   023715   028212   028592   025894   023314                                      
620501900110013 00210 1110231Dourges A 1         0210999Limite Nord         0260207COURCELLES LES LENS 0250800005536005536620520800300000000000187      030841 1087    028455   029635   030419   031994   031107   032838   030487   026409   032871   033554   031778   030550               120300141 1077    110303271 1087    100289931 1017    090000001    0    080274611    7    029826   029831   031455   030934   030304   032751   029862   025724   031904   030663   029153   027898                                      
620501500310013 00210 1110231Noyelles/Lens       0130700Dourges A 1         0210999DOURGES             0200700008337008337620520800300000000000187      072837 1007    069980   068894   071668   074624   074768   077750   071168   046190   055903   049740   053876   053409               120742961    7    110732271 1007    100635211    7    090000001    0    080719661    7    073192   073568   077381   076633   075081   077073   072023   064759   076638   078072   073813   073500                                      
620501500210013 00210 1110231Dourges A 1         0130700Noyelles/Lens       0210999DOURGES             0200700008337008337620520800300000000000187      034784  867    034912   037128   037605   039523   037956   040124   038116   034144   039797   040864   038333   038228               120374041    7    110373811    7    100327861    7    090000001    0    080354921    7    036582   037057   039049   038485   037655   039744   036808   033315   038452   038883   035999   036894                                      
620501500110013 00210 1110231Noyelles/Lens       0130700Dourges A 1         0210999DOURGES             0200700008337008337620520800300000000000187      025887 1137    035068   031766   034063   035101   036812   037626   033052   012046   016106   008876   015543   015181               120368921 1167    110358461 1217    100307351    7    090000001    0    080364741    7    036610   036511   038332   038148   037426   037329   035215   031444   038186   039189   037814   036606                                      
620501100310013 00210 1810231RN 17               0101004A 211               0120300Lens                0110500001315001315620500700300000000000187      058901                                                                                                                                 120576548    0    110898228    0    100933928    0    090000008    0    080000008    0                                                                                                                                                   
620501000310013 00210 1810231RN 47               0090800RN 17               0101004Lens                0100500001207001207620500700300000000000187      055688                                                                                                                                 120545098    0    110849218    0    100882738    0    090000008    0    080000008    0                                                                                                                                                   
620500900310013 00210 1810231RN 43 Loos en Gohell0060900RN 47               0090800Lens                0090300002904002904620500700300000000000187      047091                                                                                                                                 120460948    0    110718128    0    100746418    0    090000008    0    080000008    0                                                                                                                                                   
620500700310013 00210 1110231Echang Lievin       0030500RN 43 Loos en Gohell0060900LOOS EN GOHELLE     0060000003406003406620500700300000000000187      052069  777    048568   049678   051894   053990   055206   054547   049717   048881   053781   055386   052640   050540               120509681    7    110506451    7    100526441    7    090000001    0    080000001    0    040746   040676   034914   026067   025857   031145   031004   031823   029218   031799   035223   031875                                      
620500700210013 00210 1110231RN 43 Loos en Gohell0030500Echang Lievin       0060900LOOS EN GOHELLE     0060000003406003406620500700300000000000187      025604  777    023917   024473   025640   026312   026367   026801   024460   024181   026636   027454   026008   024993               120254841    7    110249551    7    100258651    7    090000001    0    080000001    0    015879   015903   008608   000000   000000   003342   007023   007737   003121   005196   009825   007843                                      
620500700110013 00210 1110231Echang Lievin       0030500RN 43 Loos en Gohell0060900LOOS EN GOHELLE     0060000003406003406620500700300000000000187      026466  777    024651   025205   026254   027678   028839   027746   025257   024700   027145   027932   026632   025547               120254841    7    110256901    7    100267791    7    090000001    0    080000001    0    024867   024773   026306   026067   025857   027803   023981   024086   026097   026603   025398   024032                                      
620500500310013 00210 1810231RD 937              0000000Echang Lievin       0030500Bully les Mines     0030000003498003498620500700100000000000187      020013                                                                                                                                 120192708    0    110194268    0    100202508    0    090000008    0    080000008    0                                                                                                                                                   
620500400310013 00160 1110241Inter RN 42         0500000Echang 35           0620000WIMILLE             0540540011036011036620500700100000000000194      031953 1027    026495   028760   028693   032437   032777   034267   036858   036852   033533   032430   030809   029529               120322541 1047    110000001         100000001         090000001         080000001         028701   028607   030265   032752   032089   035256   035897   036146   034376   032380   031261   029223                                      
620500400210013 00160 1110241Echang 35           0500000Inter RN 42         0620000WIMILLE             0540540011036011036620500700100000000000194      015831 1057    013209   014265   014063   016238   015972   016973   017790   018575   016876   016140   015337   014528               120159551 1067    110000001         100000001         090000001         080000001         014304   014161   014813   016168   015788   017336   017358   018084   017455   016036   015558   014368                                      
620500400110013 00160 1110241Inter RN 42         0500000Echang 35           0620000WIMILLE             0540540011036011036620500700100000000000194      016123  997    013286   014495   014630   016199   016805   017294   019068   018277   016657   016290   015472   015001               120162991 1007    110131201    0    100126831    0    090000001    0    080125361    0    014397   014446   015452   016584   016301   017920   018539   018062   016921   016344   015703   014855                                      
620500300310013 00010 1110441Dourges A 21        1870000Limite Nord         1930393SEADOURGES          1870500006438006438620500700100000000000187      101579 1767    096881   104808   103047   000000   000000   000000            000000   000000                     000000               121078121 1727    111091901 1787    101098731 1787    090000001    0    080000001    0    101262   103926   108415   110974   112193   115891   114989   091096   112214   111393   108204   103455                                      
620500300210013 00010 1110441Limite Nord         1870000Dourges A 21        1930393SEADOURGES          1870500006438006438620500700100000000000187      051609 1757    049153   053459   052215   000000   000000   000000            000000   000000                     000000               120549661 1717    110562641 1787    100564171 1817    090000001    0    080000001    0    051101   052910   055245   056551   057135   059429   060218   046410   056635   056626   054771   052676                                      
620500300110013 00010 1110441Dourges A 21        1870000Limite Nord         1930383SEADOURGES          1870500006438006438620500700100000000000187      049970 1777    047728   051349   050832   000000   000000   000000            000000   000000                     000000               120528461 1747    110529261 1787    100534561 1727    090000001    0    080000001    0    050161   051016   053170   054423   055058   056462   054771   044686   055579   054767   053433   050779                                      
620500000310013 02110 1110231Avion               0000000A 21                0020810LENS-GARE           0010550002813002813620500700100000000000187      038002  537    035326   037011   036899   039258   038405   040150   037676   033168   039981   040925   039162   038066               120379001    7    110373041    0    100363371    7    090000001    0    080000001    0    036822   037499   039271   038212   037472   041420   036990   034384   041189   037967   037366   036398                                      
620500000210013 02110 1110231A 21                0000000Avion               0020810LENS-GARE           0010550002813002813620500700100000000000187      018727  577    017435   018329   017867   019373   018928   019821   018589   016357   019714   020114   019302   018893               120185411    7    110188101    7    100181421    7    090000001    0    080000001    0    018654   018750   019438   019029   018593   020555   017999   016801   019834   017482   017555   017906                                      
620500000110013 02110 1110231Avion               0000000A 21                0020810LENS-GARE           0010550002813002813620500700100000000000187      019275  497    017891   018682   019032   019885   019477   020329   019087   016811   020267   020811   019860   019173               120193591    7    110184941    0    100181951    7    090000001    0    080000001    0    018168   018749   019833   019183   018879   020865   018991   017583   021355   020485   019811   018492                                      
620406000310013 02160 4813001A 216               0020000Zone Portuaire Calai0030744Calais              0030000001900001900620510000300000000000793      022639                                                                                                                                 120232428    0    110244588    0    100248838    0    090000008    0    080254298    0                                                                                                                                                   
620006100310013 04250 4813001RN 25               0000000RD 264              0001233St Catherine Les Arr0000500001233001233620001400300000000000104      000000                                                                                                                                 120000008    0    110000008    0    100000008    0    090000008    0    080000008    0                                                                                                                                                   
620005700310013 00470 4813001Echang 3            0070200Limite Nord         0081278Douvrin             0080000002098002098          00000000000613      000000                                                                                                                                 120000008    0    110000008    0    100000008    0    090000008    0    080000008    0                                                                                                                                                   
620005400310013 00470 4110101Inter A21           0000000Echang3             0070200VENDIN              0010140006935006935          00000000000901      046169  737    043329   046205   045412   044727   047095   047130   045832   041425   048755   051310   047716   045098               120468741    7    110474021    7    100000001    0    090000001    0    080000001    0    046877   046868   048332   047455   044800   044454   045981   046552   049547   049158   047792   044730                                      
620005400210013 00470 4110101Echang 3            0000000Inter A 21          0070200VENDIN              0010140006935006935          00000000000901      021821  737    021110   022711   021122   019153   022150   021180   020925   020248   022677   024510   023478   022592               120235671    7    110236981    7    100233401    7    090000001    0    080230441    7    024293   023714   024565   024166   023599   024819   022030   022030   024303   024122   023527   021727                                      
620005400110013 00470 4110101Inter A21           0000000Echang 3            0070200VENDIN              0010140006935006935          00000000000901      024348  737    022219   023494   024290   025574   024945   025950   024907   021177   026078   026800   024238   022506               120233071    7    110237041    7    100000001    0    090000001    0    080000001    0    022584   023154   023767   023289   021201   019635   023951   024522   025244   025036   024265   023003                                      
620004301310013 00420 4110101RN 43               0140000Inter A 16          0541121ALINCTHUN           0430850039904039904          00000000000187      012339 1218    010090   011250   011293   012667   012510   012901   014069   013426   013074   012960   012120   011711               120121091 1428    110124191 1538    100126291 1558    090000001    0    080000001    0    011130   010606   012006   012174   012369   012396   012602   012919   012815   012762   012187   011280                                      
620004301210013 00420 4110101Inter A 16          0140000RN 43               0541121ALINCTHUN_1         0430850039904039904          00000000000187      006158 1668    005066   005624   005619   006376   006254   006472   007018   006497   006548   006455   006102   005867               120062361 1728    110064211 1878    100065851 1888    090000001    0    080000001    0    005728   005601   006108   006256   006528   006531   006585   006712   006571   006404   006129   005655                                      
620004301110013 00420 4110101RN 43               0140000Inter A 16          0541121ALINCTHUN_2         0430850039904039904          00000000000187      006181  768    005024   005626   005674   006291   006256   006429   007051   006929   006526   006505   006018   005844               120058731    8    110059981    8    100060441    8    090000001    0    080000001    0    005402   005005   005898   005918   005841   005865   006017   006207   006244   006358   006058   005625                                      
620002001310013 00250 4113001Inter RN 17         0271283Inter RN 39         0321093ANZIN               0281000006963006963          00000000000901      017926 1557    015468   016490   016391   018953   018286   018962   019906   018121   018931   018903   017729   016971               120180681 1657    110186851 1857    100180731 1827    090000001    0    080172621 1837    016704   016971   017682   018303   018573   019259   018858   017970   018931   018817   017837   016910                                      
620002001210013 00250 4113001Inter RN 17         0271283Inite RN 39         0321093ANZIN               0281000006963006963          00000000000901      008861 1587    007652   008166   008087   009389   009003   009354   009715   008956   009410   009366   008829   008410               120089071 1677    110092461 1857    100089721 1837    090000001    0    080085501 1857    007995   008200   008761   009071   009269   009470   009184   008818   009427   009444   008890   008349                                      
620002001110013 00250 4113001Inter RN 39         0271283Inter RN 17         0321093ANZIN               0281000006963006963          00000000000901      009067 1517    007816   008324   008304   009564   009283   009608   010191   009165   009521   009537   008900   008561               120091611 1617    110094391 1837    100091011 1817    090000001    0    080087121 1797    008709   008771   008921   009232   009304   009789   009674   009152   009504   009373   008947   008561                                      
620002000310013 00250 4114001Inter RD 265        0240280Inter RN 39         0271283WAGNONLIEU          0260545004813004813          00000000000901      009321 1837                                                                                                                            120092651 1777    110000001    0    100094131 1817    090000001    0    080085721 1757    008429   008568   008721   008889   009189   010485   009564   009182   010145   010385   009210   008425                                      
620002000210013 00250 4114001Inter RN 39         0240280Inter RD 265        0271283WAGNONLIEU          0260545004813004813          00000000000901      004922 1947                                                                                                                            120046431 1777    110000001    0    100045651 1817    090000001    0    080042421 1747    004269   004316   004302   004388   004521   005187   004708   004635   005032   005236   004814   004320                                      
620002000110013 00250 4114001Inter RD 265        0240280Inter RN 39         0271283WAGNONLIEU          0260545004813004813          00000000000901      004816 1717    004344   004365   004641   004956   005048   004989   005071   004532   005053   005164   004832   004770               120046221 1777    110000001    0    100048481 1827    090000001    0    080043301 1777    004160   004252   004419   004501   004668   005298   004856   004547   005113   005149   004396   004105                                      
620001900310013 00250 4113001Limite Dep 80       0000000RD 265              0240280GOUY                0150400024315019380          00000000000187      006971 1967    006313   007464   006474   006981   006924   007169   007388   006803   007261   007349   006838   006749               120080901 1930    110000001    0    100069031 1937    090000001    0    080068481 1897                                                                                                                                                   
620001900210013 00250 4113001RD 265              0000000Limite dep 80       0240280GOUY                0150400024315019380          00000000000187      003514 1897    003186   003800   003260   003498   003484   003702   003741   003405   003641   003689   003425   003366               120039171 1900    110000001    0    100034631 1867    090000001    0    080034011 1837                                                                                                                                                   
620001900110013 00250 4113001Limite Dep 80       0000000RD 265              0240280GOUY                0150400024315019380          00000000000187      003457 2037    003127   003664   003214   003483   003440   003467   003647   003398   003620   003660   003413   003383               120041731 1960    110000001    0    100034401 2067    090000001    0    080034471 2027                                                                                                                                                   
620001400310013 00170 4113001Acces A 26          0360100A 211               0441082VIMY                0360500009635009635          00000000000187      016358  967    015440   016007   016341   017046   015337   016100   015563   014264   017765   018320   017309   016803               120159191    7    110160331    7    100000001    0    090000001    0    080000001    0    015654   015919   016755   016283   014927   014598   015346   014858   016977   017407   016602   015724                                      
620001400210013 00170 4113001A 211               0360100Acces A 26          0441082VIMY                0360500009635009635          00000000000187      008156  927    007699   007981   008144   008503   007606   008013   007835   007129   008868   009117   008595   008376               120079241    7    110080371    7    100000001    0    090000001    0    080000001    0    008067   008125   008367   008158   007400   006938   007676   007257   008413   008602   008234   007864                                      
620001400110013 00170 4113001Acces A 26          0360100A 211               0441082VIMY                0390400009635009635          00000000000187      008202 1017    007741   008026   008197   008543   007731   008087   007728   007135   008897   009203   008714   008427               120079951 1057    110079961 1047    100000001    0    090000001    0    080000001    0    007587   007794   008388   008125   007527   007660   007670   007601   008564   008805   008368   007860                                      
620001302310013 00170 4810101Int RN 50           0330000Int A 26            0360100Roclincourt         0350900002960002960620001400300000000000698      020833                                                                                                                                 120202818    0    110204278    0    100000008    0    090000008    0    080000008    0                                                                                                                                                   
620000100310013 00010 4810101inter CD 940 st Leon0460000limite A 16         0500800St Leonard          0480833004048004048          00000000000613      000000                                                                                                                                 120000008    0    110000008    0    100000008    0    090000008    0    080000008    0                                                                                                                                                   
600010000310013 00310 4113001début dev Beauvais  0170000Fin dev Beauvais    0290465BEAUVAIS            0180742012465012465          00000000000513      005162 1928                                                                                                                            120000001         110000001         100000001         090000001         080000001                                                                                                                                                        
600010000210013 00310 4113001fin dev Beauvais    0170000début dev Beauvai   0290465BEAUVAIS            0180742012465012465          00000000000513      002496 1868                                                                                                                            120000001         110000001         100000001         090000001         080000001                                                                                                                                                        
600010000110013 00310 4113001début dev Beauvais  0170000Fin dev Beauvais    0290465BEAUVAIS            0180742012465012465          00000000000513      002666 1988                                                                                                                            120000001    0    110000001    0    100000001    0    090000001    0    080000001    0                                                                                                                                                   
600009000310013 00310 4113001Clermont RD 916 A   0530839déb dév Clermont    0550000CLERMONT            0540594001839001839          00000000000513      016062  978    015899   015456   015781   016853   016396   017363   015799   013433   016790   016929   016466   015581               120000001         110000001         100000001         090000001         080000001                                                                                                                                                        
600009000210013 00310 4113001déb dév Clermont    0530839Clermont RD 916A    0550000CLERMONT            0540594001839001839          00000000000513      007800  928    007643   007389   007560   008085   007883   008492   007901   006691   008302   008264   007893   007498               120000001         110000001         100000001         090000001         080000001                                                                                                                                                        
600009000110013 00310 4113001Clermont RD 916 A   0530839déb dév Clermont    0550000CLERMONT            0540594001839001839          00000000000513      008262 1018    008256   008067   008221   008768   008513   008871   007898   006742   008488   008665   008573   008083               120000001    0    110000001    0    100000001    0    090000001    0    080000001    0                                                                                                                                                   
600008301310013 03240 4815001Senlis RN 17        0010000Senlis RN 330       0020284Chamant             0020000001194001194600000800300000000001287      016542                                                                                                                                 120172548    0    110000008    0    100197898    0    090000008    0    080000008    0                                                                                                                                                   
600008200310013 03300 4813001fin dev Ermenonville0100000Senlis RN 324       0191107Fontaine Chaalis    0110000010184010184600008100300000000001287      009887                                                                                                                                 120101438    0    110108598    0    100100198    0    090000008    0    080000008    0                                                                                                                                                   
600008100310013 03300 4113001Belleville RN 2     0040239fin dév Ermenonville0100001ERMENONVILLE        0050800007149007149600008100300000000001287      007956 2067    006797   007386   007788   008386   008348   008929   008854   007989   008186   007762   007473   007567               120081621 2097    110087381 2267    100080621 2137    090000001    0    080000001    0    007529   007565   008119   008075   008291   009045   008285   007975   008806   008761   008094   007401                                      
600008100210013 03300 4113001fin dév Ermenonville0040239Belleville RN 2     0100000ERMENONVILLE        0050800007149007149600008100300000000000188      003895 2007    003382   003669   003854   004145   004139   004449   004436   003901   003899   003571   003546   003746               120040631 2067    110043621 2297    100040151 2157    090000001    0    080000001    0    003764   003787   004029   004040   004126   004547   004182   003891   004350   004337   004022   003684                                      
600008100110013 03300 4113001Belleville RN 2     0040239fin dév Ermenonville0100000ERMENONVILLE        0050800007149007149600008100300000000000188      004061 2137    003415   003717   003934   004241   004209   004480   004418   004088   004287   004191   003927   003821               120040991 2147    110043761 2207    100040471 2097    090000001    0    080000001    0    003765   003778   004090   004035   004165   004498   004103   004084   004456   004424   004072   003717                                      
600007000310013 00310 4113001Compiegne RN 1031   0790420Aisne               1040134COMPIEGNE           0850406025714025714600008100302000250031287      007984 1618    007013   007479   007578   008339   008175   008758   008588   008243   008815            007496   007338               120000001    0    110000001    0    100000001    0    090000001    0    080000001    0                                                                                                                                                   
600007000210013 00310 4113001Aisne               0790420Compiegne RN 1031   1040134COMPIEGNE           0850406025714025714600008100302000250031287      004054 1578    003556   003792   003838   004243   004160   004433   004356   004180   004459            003839   003733               120000001         110000001         100000001         090000001         080000001                                                                                                                                                        
600007000110013 00310 4113001Compiegne RN 1031   0790420Aisne               1040134COMPIEGNE           0850406025714025714600008100302000250031287      003930 1668    003457   003687   003740   004096   004015   004325   004232   004063   004356            003657   003605               120000001    0    110143161    0    100000001    0    090000001    0    080000001    0                                                                                                                                                   
600006001310013 10310 4110101RN 31               0000000RN 32 Clairoix      0070279VENETTE             0010500006840006840600008100300000000000194      034349  888                                                                                                                            120324801    7    110332801    7    100000001    0    090000001    0    080000001    0    032746   032445   033641   032106   031858   033513   028672   029180   033166   033640   035304   033626                                      
600006001210013 10310 4110101RN 32 Clairoix      0000000RN 31               0070279VENETTE             0010500006840006840600008100300000000000194      017268  858                                                                                                                            120163121    7    110167041    7    100000001    0    090000001    0    080000001    0    016535   016219   016820   016040   015959   016816   014422   014636   016651   016852   017787   017066                                      
600006001110013 10310 4110101RN 31               0000000RN 32 Clairoix      0070279VENETTE             0010500006840006840600008100300000000000194      017081  918                                                                                                                            120161681    7    110165761    7    100000001    0    090000001    0    080000001    0    016211   016226   016821   016066   015899   016697   014250   014544   016515   016788   017517   016560                                      
600005300310013 00310 4814001A 1                 0731041Compiegne RN 131    0790420Arsy                0750000005404005404600005100300000000001287      003410                                                                                                                                 120229318    0    110232128    0    100226548    0    090000008    0    080233658    0                                                                                                                                                   
600005100310013 00310 4113001début dev Clermont  0550000A 1                 0731041CATENOY             0580600018036018036600005100300000000001287      001825  528    002352   002336   002347   001048   002413   002565   002361   002030   002504   001411   000568   000000               120122711 1278    110124211 1298    100121221 1288    090000001    0    080125021 1398    011764   011892   012143   012586   012739   013437   011295   011401   013114   013137   012351   011448                                      
600005100210013 00310 4113001A 1                 0550000début dév Clermont  0731041CATENOY             0580600018036018036600005100300000000001287      001004  538    001333   001278   001278   000573   001313   001398   001281   001106   001341   000857   000306   000000               120060251 1208    110060811 1228    100059621 1208    090000001    0    080061541 1338    005749   005846   005943   006185   006260   006597   005570   005626   006432   006439   006055   005623                                      
600005100110013 00310 4113001Début dév Clermont  0550000A 1                 0731041CATENOY             0580600018036018036600005100300000000001287      000821  518    001019   001058   001069   000475   001100   001167   001080   000924   001163   000554   000262   000000               120062461 1428    110063401 1448    100061601 1438    090000001    0    080063481 1518    006015   006046   006200   006401   006479   006840   005725   005775   006682   006698   006296   005825                                      
600004500310013 00310 4110201Beauvais sortie     0300000Clermont RD 916A    0530839LA RUE St PIERRE    0420000024386024386600005100300000000001287      020317 1197    018018   019195   019546   021149   020752   022350   020780   017982   021594   021999   020830   019658               120204921 1227    110213001 1257    100000001    0    090000001    0    080000001    0    019844   020183   020379   020777   021397   022652   018897   019023   021920   021662   020776   018505                                      
600004500210013 00310 4110201Clermont RD 916A    0300000Beauvais Sortie     0530839LA RUE St PIERRE    0420000024386024386600005100300000000000188      010193 1197    009010   009630   009839   010600   010436   011237   010398   009036   010785   011032   010438   009900               120102751 1217    110106791 1247    100000001    0    090000001    0    080000001    0    009926   010112   010213   010399   010698   011371   009474   009577   010989   010893   010403   009301                                      
600004500110013 00310 4110201Beauvais sortie     0300000Clermont RD 916A    0530839LA RUE St PIERRE    0420000024386024386600005100300000000000188      010124 1207    009008   009565   009707   010549   010316   011113   010382   008946   010809   010967   010392   009758               120102171 1257    110106211 1287    100000001    0    090000001    0    080000001    0    009918   010071   010166   010378   010699   011281   009423   009446   010931   010769   010373   009204                                      
600000900310013 00020 4113001RN 330              0020700Dév Nanteuil        0110200NANTEUIL            0080650008884008884600005100300000000001287      000000                                                                                                                                 120000001         110000001         100000001         090000001         080000001                                                                                                                                                        
600000900210013 00020 4113001Dév Nanteuil        0020700RN 330              0110200NANTEUIL            0080650008884008884600005100300000000001287      000000                                                                                                                                 120000001         110000001         100000001         090000001         080000001                                                                                                                                                        
600000900110013 00020 4113001RN 330              0020700Dév Nanteuil        0110200NANTEUIL            0080650008884008884600005100300000000001287      000000                                                                                                                                 120000001    0    110000001    0    100218311    0    090000001    0    080000001    0                                                                                                                                                   
600000800310013 00020 4113001Dév Nanteuil        0110200Limite Aisne        0291114GONDREVILLE         0250300018911018911600005100300000000001287      014490 1767    012089   013358   013830   015525   017009   015646   014077   014028   014982   014970   014250   014114               120151151 1677    110000001    0    100173351 1357    090000001    0    080000001    0    015622   015866   014353   015959   017211   016851   013911   013958   014912   014932   014660   013254                                      
600000800210013 00020 4113001Limite Aisne        0110200Dév Nanteuil        0291114GONDREVILLE         0250300018911018911600005100300000000000192      006872 1767    005911   006489   006495   007015   007390   007468   006808   006743   007319   007246   006796   006785               120069161 1667    110000001    0    100064701 1327    090000001    0    080000001    0    006274   006605   006936   007104   007250   007298   006813   006723   007272   007206   007124   006404                                      
600000800110013 00020 4113001Dev Nanteuil        0110200Limite Aisne        0291114GONDREVILLE         0250300018911018911600005100300000000000192      007618 1767    006178   006869   007335   008510   009619   008178   007269   007285   007663   007724   007454   007329               120081991 1707    110000001    0    100108651 1387    090000001    0    080000001    0    009348   009261   007417   008855   009961   009553   007098   007235   007640   007726   007536   006850                                      
590506000310013 00230 1110231Orchies             0160417Petite Foret        0370278BEUVRY              0210900021018021018600005100300000000000187      040025  907    036840   038665   039215   041488   040693   043557   039879   034075   042694   043576   040616   038997               120406701    7    110409831    7    100412291    7    090000001    0    080000001    0    040271   039671   041289   041753   041305   043604   039727   034904   042628   043213   041863   037983                                      
590506000210013 00230 1110231Petite Foret        0160417Orchies             0370278BEUVRY              0210900021018021018600005100300000000000187      019896  897    018341   019289   019477   020582   020210   021637   019752   016983   021212   021640   020181   019447               120202231    7    110204221    7    100205371    7    090000001    0    080000001    0    020084   019759   020581   020780   020550   021673   019765   017474   021174   021245   020779   018899                                      
590506000110013 00230 1110231Orchies             0160417Petite Foret        0370278BEUVRY              0210900021018021018600005100300000000000187      020129  907    018499   019376   019738   020906   020483   021920   020127   017092   021482   021936   020435   019550               120204471    7    110205611    7    100206921    7    090000001    0    080000001    0    020187   019912   020708   020973   020755   021931   019962   017430   021454   021968   021084   019084                                      
590505300310013 00160 1110241Coudekerque (RN 335)1251000Ghyvelde (RD 947)   1370656GHYVELDE OUEST      1330500011656011656600005100300000000000693      027688 2548    021747   023449   024781   028018   029184   028600   034673   036105   028310   026729   025403   025251               120271421 2468    110272281 2488    100267681 2428    090000001    0    080271761 2658    022315   022462   024602   027487   027964   027840   032456   034002   028718   027039   025565   024982                                      
590505300210013 00160 1110241Ghyvelde (RD 947)   1251000Coudekerque (RN 335)1370656GHYVELDE OUEST      1330500011656011656600005100300000000000693      013359 2608    010900   011306   011822   013583   013939   013739   016654   017541   014006   012812   012224   011785               120130751 2508    110131061 2518    100129141 2458    090000001    0    080132371 2668    011151   010827   011776   013319   013491   013144   015486   016440   014100   013093   012295   011651                                      
590505300110013 00160 1110241Coudekerque (RN335) 1251000Ghyvelde (RD 947)   1370656GHYVELDE OUEST      1330500011656011656600005100300000000000693      014328 2498    010847   012143   012959   014435   015245   014861   018019   018564   014304   013917   013179   013466               120140671 2398    110141221 2428    100138541 2378    090000001    0    080139391 2638    011164   011635   012826   014168   014473   014696   016970   017562   014618   013946   013270   013331                                      
590505200310013 00160 1150441Grande Synthe (RN2551190625Coudekerque (RN335) 1251000COUDEKERQUE         1240400006375006375600005100300000000000693      061651 1387    053393   056888   058913   063303   063960   065746   068568   067941   061978   062031   059303   057791               120610311 1467    110607811    7    100591391    7    090000001    0    080621101    0    056226   056308   059457   060923   061784   062328   064871   064566   064133   063044   060547   057997                                      
590505200210013 00160 1150441Coudekerque (RN335) 1190625Grande Synthe (RN2551251000COUDEKERQUE         1240400006375006375600005100300000000000693      031717 1467    027824   029209   030122   032614   032773   033915   035097   034897   031968   032568   030485   029130               120312361 1447    110311361    7    100302101    7    090000001    0    080320881    0    029184   028903   030492   031368   031680   031161   032983   032802   033269   032448   030957   029491                                      
590505200110013 00160 1150441Grande Synthe(RN225)1110625Coudekerque (RN335) 1251000COUDEKERQUE         1240400006375006375600005100300000000000693      029934 1307    025569   027679   028791   030689   031187   031831   033471   033044   030010   029463   028818   028661               120297951 1507    110296451 1527    100289291 1517    090000001    0    080300221 1647    027042   027405   028965   029555   030104   031167   031888   031764   030864   030596   029590   028506                                      
590505000310013 00160 1110241Grande Synthe(RD131)1170000Grande Synthe(RN225)1190625ZAC DU MOULIN       1170820002625002625600005100300000000000693      060473 2047    051742   056120   057121   062935   063045   064806   067884   066695   056566   060648   059359   058754               120603331 1987    110000001    0    100000001    0    090000001    0    080000001    0    054307   054153   057715   060289   061479   063455   066109   065094   062758   061106   059653   057627                                      
590505000210013 00160 1110241Grande Synthe(RN225)1170000Grande Synthe(RD131)1190625ZAC DU MOULIN       1170820002625002625600005100300000000000693      030507 2047    026479   028344   028767   031863   031859   032871   034026   033671   028292   030683   029987   029244               120304591 1987    110000001    0    100000001    0    090000001    0    080000001    0    027875   027300   029192   030792   030825   031914   033258   032641   031898   030917   029954   028821                                      
590505000110013 00160 1110241Grande Synthe(RD131)1170000Grande Synthe(RN225)1190625ZAC DU MOULIN       1170820002625002625600005100300000000000693      029966 2047    025263   027776   028354   031072   031186   031935   033858   033024   028274   029965   029372   029510               120298741 1987    110000001    0    100000001    0    090000001    0    080000001    0    026432   026853   028523   029497   030654   031541   032851   032453   030860   030189   029699   028806                                      
590504900310013 00160 1110241Craywick (RN 316)   1100800Grande Synthe(RD131)1170000CRAYWICK            1130000006200006200600005100300000000000693      052259 2277    045805   048194   049266   054650   054597   056416   059990   058911   047590   051954   050422   049311               120515791 2147    110520331 2047    100489091 2097    090000001    0    080501601 2387    046049   046155   049194   052388   052708   055422   057379   056432   054451   052791   049947   045873                                      
590504900210013 00160 1110241Grande Synthe(RD131)1100800Craywick (RN 316)   1170000CRAYWICK            1130000006200006200600005100300000000000693      026073 2267    023002   024130   024608   027441   027327   028253   029914   029430   023249   025893   025306   024323               120256831 2097    110258591 1957    100242131 2017    090000001    0    080250761 2327    023368   022918   024533   026351   026324   027466   028294   027393   027418   026473   024830   022758                                      
590504900110013 00160 1110241Craywick (RN 316)   1100800Grande Synthe(RD131)1170000CRAYWICK            1130000006200006200600005100300000000000693      026186 2297    022803   024064   024658   027209   027270   028163   030076   029481   024341   026061   025116   024988               120258961 2247    110261741 2217    100246961 2247    090000001    0    080250841 2517    022681   023237   024661   026037   026384   027956   029085   029039   027033   026318   025117   023115                                      
590504800310013 00160 1110241Limite Pas de Calais1030900Craywick (RN 316)   1100800ST GEORGES SUR L'AA 1050800006900006900600005100300000000000693      036396 2298    030231   033018   033542   037854   038432   039170   043072   042185   036744   037031   034318   031157               120365481 2278    110361601 2238    100319871 2398    090000001    0    080000001    0    030906   031072   033950   037195   037367   038904   041641   041043   039563   037456   035740   033550                                      
590504800210013 00160 1110241Craywick (RN 316)   1030900Limite Pas de Calais1100800ST GEORGES SUR L'AA 1050800006900006900600005100300000000000693      018104 2238    015153   016331   016622   018805   019016   019476   021326   020859   018539   018482   016943   015704               120180911 2238    110179501 2198    100171301 2318    090000001    0    080000001    0    015443   015384   016781   018588   018379   019254   020616   020206   019741   018604   017628   016388                                      
590504800110013 00160 1110241Limite Pas de Calais1030900Craywick (RN 316)   1100800ST GEORGES SUR L'AA 1050800006900006900600005100300000000000693      018292 2358    015078   016687   016920   019049   019416   019694   021746   021326   018205   018549   017375   015453               120184571 2358    110182101 2308    100148571 2568    090000001    0    080178971 2538    015463   015688   017169   018607   018988   019650   021025   020837   019822   018852   018112   017162                                      
590504700310013 00230 1810231Valenciennes Nord   0391001A 2                 0420539La Sentinelle       0410500002562002562590503902100000000000187      020786                                                                                                                                 120210418    0    110213838    0    100212508    0    090000008    0    080000008    0                                                                                                                                                   
590504500310013 00230 1810231Petite Foret        0370278Valenciennes Nord   0391004Petite-Foret        0390073002739002739590503902300000000000187      061119                                                                                                                                 120615478    0    110625758    0    100622968    0    090000008    0    080000008    0                                                                                                                                                   
590503902310013 00230 1110231Centre d'activites  0020000Orchies             0160417GENECH              0080700014440014440590503902300000000000187      050202  598    047965   048192   049191   051452   049938   054093   050357   042130   052940   054450   051690   050029               120505441    8    110513881    8    100511531    8    090000001    0    080000001    0    050526   049771   051270   050532   048998   053906   048978   044144   052766   054510   052267   049047                                      
590503902210013 00230 1110231Orchies             0020000Centre d'activites  0160417GENECH              0080700014440014440590503902300000000000187      024123  618    023680   023417   023515   024655   023857   025782   024139   020377   025267   025975   024746   024068               120241501    8    110245651    8    100244981    8    090000001    0    080000001    0    024190   023910   024521   024194   023382   025618   023242   021430   025148   025927   025018   023317                                      
590503902110013 00230 1110231Centre d'activites  0011001Orchies             0160417GENECH              0080700014440014440590503902300000000000187      026079  568    024285   024775   025676   026797   026081   028311   026218   021753   027673   028475   026944   025961               120263941    8    110268231    8    100266551    8    090000001    0    080000001    0    026336   025861   026749   026338   025616   028288   025736   022714   027618   028583   027249   025730                                      
590503901310013 00230 11102314 Cantons           0000000Centre D'activités  0020000CRT-LESQUIN         0000800001885001885590503902300000000000187      060303                                                                                                                                 120000001    0    110000001    0    100000001    0    090000001    0    080000001    0                                                                                                                                                   
590503901210013 00230 1110231Centre D'activites  00000004 Cantons           0011001CRT-LESQUIN         0000800001885001885590503902300000000000187      029891                                                                                                                                 120000001    0    110000001    0    100000001    0    090000001    0    080000001    0                                                                                                                                                   
590503901110013 00230 11102314 Cantons           0000000Centre D'activites  0011001CRT-LESQUIN         0000800001885001885590503902300000000000187      030412                                                                                                                                 120000001    0    110000001    0    100000001    0    090000001    0    080000001    0                                                                                                                                                   
590503700310013 00270 11102414 Cantons           0000000Frontière Belge     0121287ANSTAING            0070974010965010965590503902300000000000187      036685 1608    032713   034918   035845   036918   036845   038161   037188   035220   039376   039451   037364   036218               120361851 1538    110000001    0    100000001    0    090000001    0    080333641    0    034203   034458   036667   037302   036577   038205   037197   033774   038047   037473   036416   033958                                      
590503700210013 00270 1110241Frontiere Belge     00000004 Cantons           0121287ANSTAING            0070974010965010965590503902300000000000187      017888 1538    015712   017414   017422   018350   018227   018994   018339   016577   019010   019076   018065   017467               120176321 1538    110000001    0    100000001    0    090000001    0    080160061    0    016709   016313   017677   018066   017767   018796   018050   016246   018551   018545   018111   016763                                      
590503700110013 00270 11102414 Cantons           0000000Frontière Belge     0121287ANSTAING            0070974010965010965590503902300000000000187      018797 1688    017001   017504   018423   018568   018618   019167   018849   018643   020366   020375   019299   018751               120185531 1538    110000001    0    100000001    0    090000001    0    080173581    0    017494   018145   018990   019236   018810   019409   019147   017528   019496   018928   018305   017195                                      
590503600310013 00220 1110641Ronchin             00000004 Cantons           0020811LESQUIN             0020340002402002402590503902300000000000996      125931                                                                                                                                 121270401    0    110000001    0    100000001    0    090000001    0    080000001    0                                                                                                                                                   
590503600210013 00220 11106414 Cantons           0000000Ronchin             0020811LESQUIN             0020340002402002402590503902300000000000996      063000                                                                                                                                 120640771    0    110000001    0    100000001    0    090000001    0    080000001    0                                                                                                                                                   
590503600110013 00220 1110641Ronchin             00000004 Cantons           0020811LESQUIN             0020340002402002402590503902300000000000996      062931                                                                                                                                 120629631    0    110000001    0    100000001    0    090000001    0    080000001    0                                                                                                                                                   
590503502310013 00250 1110241Hazebrouck          0320216Bergues             0621068QUAEDYPRE           0590110030892030892590503902300000000000187      030340  568    023598   026419   028096   031118   030920   033755   035693   033526   032369   031477   029162   027949               120290061    8    110000001    0    100000001    0    090000001    0    080288351 1448    025695   025771   027726   028587   030363   030705   032954   031140   031162   029519   028476   025867                                      
590503502210013 00250 1110241Bergues             0320216Hazebrouck          0621068QUAEDYPRE           0590110030892030892590503902300000000000187      015094  508    011364   012510   013443   015303   015460   017037   018205   017369   016617   015604   014484   013729               120141001    8    110000001    0    100000001    0    090000001    0    080144951 1458    012201   012184   013166   013501   014931   014916   016661   015680   015649   014266   013699   012272                                      
590503502110013 00250 1110241Hazebrouck          0210316Bergues             0621068QUAEDYPRE           0590110030892030892590503902300000000000187      015246  678    012234   013909   014653   015815   015460   016718   017488   016157   015752   015873   014678   014220               120149061    8    110000001    0    100000001    0    090000001    0    080143401 1438    013494   013587   014560   015086   015432   015789   016293   015460   015513   015253   014777   013595                                      
590503000310013 00250 1110241Armentières Ouest   0200394Hazebrouck          0320216STEENWERCK          0240190011831011831590503902300000000000187      052227 1267    044451   048823   049869   054229   054935   055657   053899   053880   055342   055193   051938   048506               120524081 1237    110000001    0    100000001    0    090000001    0    080518751 1287    048324   047585   051528   052826   054014   055449   055669   053255   055415   053833   052273   048625                                      
590503000210013 00250 1110241Hazebrouck          0200394Armentieres Ouest   0320216STEENWERCK          0240190011831011831590503902300000000000187      026065 1297    022280   024138   024889   026617   027572   027701   027194   027059   027680   027416   025895   024339               120263251 1297    110000001    0    100000001    0    090000001    0    080259171 1317    024402   023895   025780   026533   027302   027839   028159   026830   027657   026824   026281   024345                                      
590503000110013 00250 1110241Armentieres Ouest   0200394Hazebrouck          0320216STEENWERCK          0240190011831011831590503902300000000000187      026162 1247    022171   024685   024980   027612   027363   027956   026705   026821   027662   027777   026043   024167               120260831 1127    110000001    0    100000001    0    090000001    0    080259581 1217    023922   023690   025748   026293   026712   027610   027510   026425   027758   027009   025992   024280                                      
590502900310013 00250 1110231La Chapelle         0150680Armentieres Ouest   0200394LA_CHAPELLE         0160700004719004719590503902300000000000187      065154 1137    055955   061503   061344   067746   066196   070491   071670   064607   067073   068304   064285   062669               120652021 1167    110659371 1127    100610611    7    090000001    0    080648291 1097    061277   060257   063796   065632   066439   069285   068413   064371   068466   067217   065651   061563                                      
590502900210013 00250 1110231Armentières Ouest   0150680La Chapelle         0200394LA_CHAPELLE         0160700004719004719590503902300000000000187      032253 1147    027895   030596   030221   033709   032744   034791   035529   032211   032868   033587   031723   031156               120323671 1167    110327491 1137    100303581    7    090000001    0    080321421 1067    030490   029887   031432   032683   033186   034237   034235   032221   033769   033038   032580   030605                                      
590502900110013 00250 1110231La Capelle          0150680Armantieres Ouest   0200394LA_CHAPELLE         0160700004719004719590503902300000000000187      032901 1137    028060   030907   031123   034037   033452   035700   036141   032396   034205   034717   032562   031513               120328351 1147    110331881 1117    100307031 1097    090000001    0    080326871 1157    030787   030370   032364   032949   033253   035048   034178   032150   034697   034179   033071   030958                                      
590502800310013 00250 1110231Sequedin            0090098La Chapelle         0150680ENNETIERES          0110420006589006589590503902300000000000187      082138 1187    072226   078751   077737   084840   083132   088132   088903   080357   084094   086030   081509   079938               120824921 1217    110838501 1197    100789681 1027    090000001    0    080829701 1227    079253   078239   082369   083237   083222   087080   085163   079409   085898   084623   082783   078648                                      
590502800210013 00250 1110231La Chapelle         0090098Sequedin            0150680ENNETIERES          0110420006589006589590503902300000000000187      040416 1217    035772   038978   037829   041940   040928   043223   043988   039944   040711   042087   039962   039627               120407031 1247    110412611 1227    100393971 1187    090000001    0    080409051 1267    039073   038422   040351   041093   041249   042929   042491   039554   042161   041238   040892   038971                                      
590502800110013 00250 1110231Sequedin            0090098La Capelle          0150680ENNETIERES          0110420006589006589590503902300000000000187      041722 1147    036454   039773   039908   042900   042204   044909   044915   040413   043383   043943   041547   040311               120417891 1167    110425891 1137    100395711    7    090000001    0    080420651 1167    040180   039817   042018   042144   041973   044151   042672   039855   043737   043385   041891   039677                                      
590502600310013 00250 1110431Porte Ouest         0040488Sequedin            0090098LOOS                0050450004602004602590503902300000000000996      105014  82                                                                                                                             121039901    0    110000001    0    100000001    0    090000001    0    081036071    7                                                                                                                                                   
590502600210013 00250 1110431Sequedin            0040488Porte Ouest         0090098LOOS                0050450004602004602590503902300000000000996      052213  80                                                                                                                             120512891    0    110000001    0    100000001    0    090000001    0    080547141    7                                                                                                                                                   
590502600110013 00250 1110431Porte Ouest         0040488Sequedin            0090098LOOS                0050450004602004602590503902300000000000187      052801  84                                                                                                                             120527011    0    110000001    0    100000001    0    090000001    0    080488931    7                                                                                                                                                   
590502500310013 00250 1810431Porte de Bethune    0030890Porte Ouest         0040488Pt.Bethune/Ouest    0040150000595000595590502400300000000000187      000000                                                                                                                                 120000008    0    110000008    0    100000008    0    090000008    0    080000008    0                                                                                                                                                   
590502400310013 00250 1110631Porte Des Postes    0020835Porte De Bethune    0030890PORTE DES POSTES    0030000001056001056590502400300000000000187      094964                                                                                                                                 120000001    0    110000001    0    100000001    0    090000001    0    080000001    0                                                                                                                                                   
590502400210013 00250 1110631Porte De Bethune    0020835Porte Des Postes    0030890PORTE DES POSTES    0030000001056001056590502400300000000000187      047334                                                                                                                                 120000001    0    110000001    0    100000001    0    090000001    0    080000001    0                                                                                                                                                   
590502400110013 00250 1110631Porte Des Postes    0020835Porte De Bethune    0030890PORTE DES POSTES    0030000001056001056590502400300000000000187      047630                                                                                                                                 120000001    0    110000001    0    100000001    0    090000001    0    080000001    0                                                                                                                                                   
590502300310013 00250 1110431Porte D'Arras       0010792Porte Des Postes    0020835Pte ARRAS/POSTES    0020320001044001044590502400300000000000187      114270                                                                                                                                 121147871    0    110000001    0    100000001    0    090000001    0    080000001    0                                                                                                                                                   
590502300210013 00250 1110431Porte Des Postes    0010792Porte D'Arras       0020835Pte ARRAS/POSTES    0020320001044001044590502400300000000000187      057401                                                                                                                                 120573931    0    110000001    0    100000001    0    090000001    0    080000001    0                                                                                                                                                   
590502300110013 00250 1110431Porte D'Arras       0010792Porte Des Postes    0020835Pte ARRAS/POSTES    0020320001044001044590502400300000000000187      056869                                                                                                                                 120573941    0    110000001    0    100000001    0    090000001    0    080000001    0                                                                                                                                                   
590502200310013 00250 1110631Porte Sud           0000000Porte D'Arras       0010792PORTE SUD           0010000001512001512590502400300000000000187      207117                                                                                                                                 122062061    0    110000001    0    100000001    0    090000001    0    080000001    0                                                                                                                                                   
590502200210013 00250 1110631Porte d'Arras       0000000Porte Sud           0010792PORTE SUD           0010000001512001512590502400300000000000187      094770                                                                                                                                 120943061    0    110000001    0    100000001    0    090000001    0    080000001    0                                                                                                                                                   
590502200110013 00250 1110631Porte Sud           0000000Porte D'Arras       0010792PORTE SUD           0010000001512001512590502400300000000000187      112347                                                                                                                                 121119001    0    110000001    0    100000001    0    090000001    0    080000001    0                                                                                                                                                   
590502000310013 00020 1110241Marly               0640030Frontière Belge     0780456ONNAING             0720210014451014451590502400300000000000293      000000                                                                                                                                 120371321    8    110375361 1008    100363601 1018    090000001    0    080364321 1688    033409   033431   035891   038678   037326   039443   043309   039273   038629   037654   035374   033042                                      
590502000210013 00020 1110241Frontière Belge     0640030Marly               0780456ONNAING             0720210014451014451590502400300000000000293      000000                                                                                                                                 120185821    8    110187661    8    100182871    8    090000001    0    080183281 1628    016683   016727   018305   019302   018826   020201   022250   018753   018807   018781   017753   016526                                      
590502000110013 00020 1110241Marly               0640030Frontière Belge     0780456ONNAING             0720210014451014451590502400300000000000293      000000                                                                                                                                 120185501 1558    110187701 1588    100180731 1588    090000001    0    080181041 1818    016726   016704   017586   019376   018500   019242   021059   020520   019822   018873   017621   016516                                      
590501901310013 00210 1813001Limite Nord         0260207Echang 19           0270557Courcelles          0270000001347001347          00000000000613      000000                                                                                                                                 120000008    0    110000008    0    100000008    0    090000008    0    080000008    0                                                                                                                                                   
590501800310013 00020 1810241Valenciennes Sud    0600973Marly               0640030Aulnoy              0620210003061003061590502000300000000000187      000000                                                                                                                                 120903218    0    110913048    0    100884368    0    090000008    0    080886128    0                                                                                                                                                   
590501700310013 00020 1110441Rocade Ouest        0590025Valenciennes Sud    0600973TRITH-SAINT-LEGER   0590400001948001948590502000300000000000187      000000                                                                                                                                 120000001    0    110000001    0    100000001    0    090000001    0    080991701 1347                                                                                                                                                   
590501700210013 00020 1110441Valenciennes Sud    0590025Rocade Ouest        0600973TRITH-SAINT-LEGER   0590400001948001948590502000300000000000187      000000                                                                                                                                 120000001    0    110000001    0    100000001    0    090000001    0    080501481 1407                                                                                                                                                   
590501700110013 00020 1110441Rocade Ouest        0590025Valenciennes Sud    0600973TRITH-SAINT-LEGER   0590400001948001948590502000300000000000187      000000                                                                                                                                 120000001    0    110000001    0    100000001    0    090000001    0    080490221 1207                                                                                                                                                   
590501600310013 00020 1810241Denain              0520775Rocade Ouest        0590025La Sentinelle       0580585006258006258590501300300000000000187      058589                                                                                                                                 120584818    0    110601218    0    100585248    0    090000008    0    080576788    0                                                                                                                                                   
590501400310013 00020 1810241Neuville/Escaut     0471001Denain              0520775Neuville/Escaut     0500600004777004777590501300100000000000187      029194                                                                                                                                 120293318    0    110301438    0    100292688    0    090000008    0    080292518    0                                                                                                                                                   
590501300310013 00020 1110241Hordain             0430000Neuville/Escaut     0471001LIEU SAINT AMAND    0450510005006005006590501300100000000000187      043543 1907    036881   039508   040251   044617   043971   046558   050070   045395   046419   045167   042626   041050               120434781 1887    110446971 1907    100435111 1887    090000001    0    080428711 2227    038985   039598   041759   044151   043150   046036   050199   045288   046095   044741   042422   039225                                      
590501300210013 00020 1110241Neuville/Escaut     0430000Hordain             0471001LIEU SAINT AMAND  B 0450510005006005006590501300100000000000187      021903 1797    018426   019826   020543   022162   022232   023809   025990   022277   022952   022629   021219   020773               120217311 1807    110223481 1827    100218111 1817    090000001    0    080211841 1737    019373   019823   020895   021944   021687   023447   025892   021551   022684   022415   021148   019867                                      
590501300110013 00020 1110241Hordain             0430000Neuville/Escaut     0471001LIEU SAINT AMAND    0450510005006005006590501300100000000000187      021640 2017    018455   019682   019708   022455   021739   022749   024080   023118   023467   022538   021407   020277               120217471 2037    110223491 2067    100217001 2037    090000001    0    080216871 3187    019612   019775   020864   022207   021463   022589   024307   023737   023411   022326   021274   019358                                      
590501210310013 00220 1110241Tourcoing Nord      0220440Belgique            0240983NEUVILLE/FERRAIN    0240564002543002543590501300100000000000187      000000                                                                                                                                 120000001    0    110000001    0    100341221 2548    090361021 2200    080000001    0                                                                                                                                                   
590501210210013 00220 1110241Belgique            0220440Tourcoing Nord      0240983NEUVILLE/FERRAIN    0240564002543002543590501300100000000000187      000000                                                                                                                                 120000001    0    110000001    0    100171721 2848    090186381 2470    080000001    0                                                                                                                                                   
590501210110013 00220 1110241Tourcoing Nord      0220440Belgique            0240983NEUVILLE/FERRAIN    0240564002543002543590501300100000000000187      026952 1238    023423   026230   025593   027525   027805   027225   029793   030395   027419   027239   025872   024839               120252691 1338    110174171 1928    100169501 1948    090174641 1920    080000001    0    019960   023683   023313   024779   026093   026318   029072   028695   026771   025837   024562   024087                                      
590501200310013 00220 1110241Tourcoing Nord      0220440Belgique            0240983NEUVILLE/FERRAIN    0240564002543002543590501300100000000000187      000000                                                                                                                                 120000001    0    110000001    0    100000001    0    090000001    0    080000001    0                                                                                                                                                   
590501200210013 00220 1110241Belgique            0220440Tourcoing Nord      0240983NEUVILLE/FERRAIN    0240564002543002543590501300100000000000187      000000                                                                                                                                 120000001    0    110000001    0    100000001    0    090000001    0    080000001    0                                                                                                                                                   
590501200110013 00220 1110241Tourcoing Nord      0220440Belgique            0240983NEUVILLE/FERRAIN    0240564002543002543590501300100000000000187      000000                                                                                                                                 120000001    0    110000001    0    100000001    0    090000001    0    080000001    0                                                                                                                                                   
590500800310013 00220 1110441Echang RN 350       0140055Tourcoing Nord      0220440MOUVAUX             0160050008382008382590501300100000000000187      000000                                                                                                                                 120926821 1427    110941841 1447    100938571 1447    090000001    0    080935061 1507    088927   089451   092451   094493   093561   097820   096853   084120   095694   097662   093741   087561                                      
590500800210013 00220 1110441Tourcoing Nord      0140055Echang. RN 350      0220440MOUVAUX             0160050008382008382590501300100000000000187      000000                                                                                                                                 120470871 1497    110477951 1527    100476941 1527    090000001    0    080476431 1597    044913   045432   047096   048149   047481   049933   050561   041778   048424   049397   047511   044446                                      
590500800110013 00220 1110441Echang. RN 350      0140055Tourcoing Nord      0220440MOUVAUX             0160050008382008382590501300100000000000187      000000                                                                                                                                 120455951 1267    110463891 1277    100461631 1277    090000001    0    080458631 1317    044014   044019   045355   046344   046080   047887   046292   042342   047270   048265   046230   043115                                      
590500600310013 00220 1110431Wasquehal           0100054Echang RN 350       0140055PETIT WASQUEHAL     0100655003427003427590501300100000000000187      092475                                                                                                                                 121012091    0    110000001    0    100000001    0    090000001    0    080000001    0                                                                                                                                                   
590500600210013 00220 1110431Echang RN 350       0100054Wasquehal           0140055PETIT WASQUEHAL     0100655003427003427590501300100000000000187      040533                                                                                                                                 120499611    0    110000001    0    100000001    0    090000001    0    080000001    0                                                                                                                                                   
590500600110013 00220 1110431Wasquehal           0100054Echang RN 350       0140055PETIT WASQUEHAL     0100655003427003427590501300100000000000187      051942                                                                                                                                 120512481    0    110000001    0    100000001    0    090000001    0    080000001    0                                                                                                                                                   
590500500310013 00220 1810431Babylone            0090000Wasquehal           0100054Echang.Babylone     0090215001046001046590500600100000000000187      000000                                                                                                                                 120000008    0    110000008    0    100000008    0    090000008    0    080000008    0                                                                                                                                                   
590500400310013 00010 1110731Ronchin             2080350Lille               2101325RONCHIN             2090300002989002989590500600100000000000297      180839                                                                                                                                 121760791    0    110000001    0    100000001    0    090000001    0    080000001    0                                                                                                                                                   
590500400210013 00010 1110731Lille               2080350Ronchin             2101325RONCHIN             2090300002989002989590500600100000000000297      088489                                                                                                                                 120864391    0    110000001    0    100000001    0    090000001    0    080000001    0                                                                                                                                                   
590500400110013 00010 1110731Ronchin             2080350Lille               2101325RONCHIN             2090300002989002989590500600100000000000297      092350                                                                                                                                 120896401    0    110000001    0    100000001    0    090000001    0    080000001    0                                                                                                                                                   
590500301310013 00010A1810231A 1                 0000000A 22                0001179Petit Ronchin       0000500001179001179          00000000001203      000000                                                                                                                                 120000008    0    110000008    0    100000008    0    090000008    0    080000008    0                                                                                                                                                   
590500300310013 00010 1110631Seclin              2010315Ronchin             2080350FACHES              2070050007043007043          00000000000187      147043                                                                                                                                 121396361    0    110000001    0    100000001    0    090000001    0    080000001    0                                                                                                                                                   
590500300210013 00010 1110631Ronchin             2010315Seclin              2080350FACHES              2070050007043007043          00000000000187      073983                                                                                                                                 120695611    0    110000001    0    100000001    0    090000001    0    080000001    0                                                                                                                                                   
590500300110013 00010 1110631Seclin              2010315Ronchin             2080350FACHES              2070050007043007043          00000000000187      073060                                                                                                                                 120700751    0    110000001    0    100000001    0    090000001    0    080000001    0                                                                                                                                                   
590500100310013 00010 1110431Carvin (limite 62)  0000000Seclin              2010315MARTINSART          2000400007890007890          62050040030187      109654 154                                                                                                                             120997061    0    110000001    0    100000001    0    090000001    0    081075381 1797                                                                                                                                                   
590500100210013 00010 1110431Seclin              0000000Carvin (limite 62)  2010315MARTINSART          2000400007890007890          62050040020187      055366 160                                                                                                                             120452891    0    110000001    0    100000001    0    090000001    0    080560241 1727                                                                                                                                                   
