160000100110013 00100 411 251DEPARTEMENT 79      0000000ECH NORD.RUFFEC     0050000RUFFEC              0020930005279005279170000200386000090030187      008164 3657    006638   007241   007829   008146   008473   008402   009684   009906   008110   008170   007562   007701               120080361 3727    110079501 3987    100080001         090078841         080077561         006807   007013   007598   008353   007981   008346   009667   009362   008250   007756   007697   007548                                      
160000100210013 00100 411 251DEPARTEMENT 79      0000000ECH NORD.RUFFEC     0050000RUFFEC              0020930005279005279170000200386000090031187      008266 3667    006933   007205   007743   008327   008616   008399   009105   010924            008206   007747   007606               120081851 3697    110079651 4117    100077511         090076411         080075831         007088   006948   007611   008402   008213   008248   008975   010296   008841   008153   007985   007408                                      
160000100310013 00100 411 251DEPARTEMENT 79      0000000ECH NORD.RUFFEC     0050000RUFFEC              0020930005279005279170000200386000090030187      016430 3667    013571   014446   015572   016473   017089   016801   018789   020830            016376   015309   015307               120162211 3707    110159151 4077    100157511         090155251         080153391         013895   013961   015209   016755   016194   016594   018642   019658   017091   015909   015682   014956                                      
160000102110013 00100 411 251ECH NORD.RUFFEC     0050000ECH NORD ANGOULEME  0450000AUSSAC              0270080040619039586170000200300000000000187      010667 3107    009289   009754   010467   010771   010980   011030   012290   011925   010664   010779   010007   009959               120101441 2007    110079931 2897    100093991         090000001         080100691         009101   009036   009961   010626   010317   010661   011125   010981   009847   010092   010231   009708                                      
160000102210013 00100 411 251ECH NORD.RUFFEC     0050000ECH NORD ANGOULEME  0450000AUSSAC              0270080040619039586170000200300000000000187      010140 3087    009353   009390   007743   009162   010027   010654   011328   012711   010960   010514   010089   009685               120105451 3027    110104611 3247    100097571         090104491         080102111         009573   009231   010211   010890   010722   010932   011467   012453   011299   009536   010524   009666                                      
160000102310013 00100 411 251ECH NORD.RUFFEC     0050000ECH NORD ANGOULEME  0450000AUSSAC              0270080040619039586170000200300000000000187      020807 3097    018642   019144   018210   019933   021007   021684   023618   024636   021624   021293   020096   019644               120206891 2697    110184541 3147    100191561         090000001         080202801         018674   018267   020172   021516   021039   021593   022592   023434   021146   019628   020755   019374                                      
160000401110013 00100 415 251ECH NORD ANGOULEME  0450000RN 141 LES PLANES   0500950L EPINEUIL          0470300006347006347170000200300000000000187      022116 2327    019406   020354   021556   022306   022134   022954   025101   023652   022589   022932   021294   020965               120217031 2347    110209681 2427    100188581         090204911         080000001         019501   018931   021326   022084   021397   023098   024745   022904   022728   021600   021451   020570                                      
160000401210013 00100 415 251ECH NORD ANGOULEME  0450000RN 141 LES PLANES   0500950L EPINEUIL          0470300006347006347170000200300000000000187      022360 2377    019823   020296   021534   022539   022453   022957   024150   025025   023579   022952   021862   020994               120218961 2387    110216081 2457    100191071         090208781         080199101         019938   019020   021427   022123   021661   022969   023836   024149   023538   021704   021836   020457                                      
160000401310013 00100 415 251ECH NORD ANGOULEME  0450000RN 141 LES PLANES   0500950L EPINEUIL          0470300006347006347170000200300000000000187      044476 2357    039229   040650   043090   044845   044587   045911   049251   048677   046168   045884   043156   041959               120435991 2377    110425761 2447    100379651         090413691         080000001         039439   037951   042753   044207   043058   046067   048581   047053   046266   043304   043287   041027                                      
160000402110013 00100 411 251RN 141 LES PLANES   0500950RD 699 ST. MICHEL   0530900GIRAC               0530650002969002969170000200300000000000187      014549 2957    013295   013387   012002   015055   014497   015629   017038   013482   015223   015630   014691   014653               120148681 2927    110148171 3077    100138551         090197861         080201641         013498   013318   014573   015055   014496   015628   016962   015562   015233   014649   014934   014458                                      
160000402210013 00100 411 251RN 141 LES PLANES   0500950RD 699 ST. MICHEL   0530900GIRAC               0530650002969002969170000200300000000000187      015040 3067    013912   013916   014381   015257   014776   015776   016059   016562   015859   000000   013955   014796               120150931 2937    110150041 3067    100139061         090000001         080000001         014049   013024   014852   015257   014776   015776   016234   016341   015948   014911   015370   014511                                      
160000402310013 00100 411 251RN 141 LES PLANES   0500950RD 699 ST. MICHEL   0530900GIRAC               0530650002969002969170000200300000000000187      029589 3017    027207   027303   026383   030312   029273   031405   033097   030044   031082            028646   029449               120299611 2937    110298211 3077    100277611         090000001         080000001         027547   026342   029425   030312   029272   031404   033196   031903   031181   029560   030304   028969                                      
160000403110013 00100 415 251RD 699 ST. MICHEL   0530900EX RN 10 ZI FONT    0610400L'OISELLERIE        0550000007468007468170000200300000000000187      000000                                                                                                                                 120000001         110000001         100000001         090000001         080000001                                                                                                                                                        
160000403210013 00100 415 251RD 699 ST. MICHEL   0530900EX RN 10 ZI FONT    0610400L'OISELLERIE        0550000007468007468170000200300000000000187      000000                                                                                                                                 120000001         110000001         100000001         090000001         080000001                                                                                                                                                        
160000403310013 00100 415 251RD 699 ST. MICHEL   0530900EX RN 10 ZI FONT    0610400L'OISELLERIE        0550000007468007468170000200300000000000187      000000                                                                                                                                 120000001         110000001         100000001         090000001         080000001                                                                                                                                                        
160000702110013 00100 4115001EX RN 10 ZI FONT    0610400BARBEZIEUX NORD     0800000PETIGNAC            0700110018107018107170000200300000000000187      000000                                                                                                                                 120000001         110000001         100000001         090000001         080103701                                                                                                                                                        
160000702210013 00100 4115001EX RN 10 ZI FONT    0610400BARBEZIEUX NORD     0800000PETIGNAC            0700110018107018107170000200300000000000187      000000                                                                                                                                 120000001         110000001         100000001         090000001         080101621                                                                                                                                                        
160000702310013 00100 4115001EX RN 10 ZI FONT    0610400BARBEZIEUX SUD      0800000PETIGNAC            0700110018107018107170000200300000000000187      000000                                                                                                                                 120000001         110000001         100000001         090000001         080205321                                                                                                                                                        
160000800110013 00100 411 201BARBEZIEUX NORD     0800000BARBEZIEUX SUD      0880750BARBEZIEUX          0820500008823008823170000200300000000000599      009802 4257    008178   008985   009141   010064   009937   010287   011590   011471   009747   009841   009161   009145               120093061 4607    110094061 4767    100085991         090072171         080085531         008010   008148   008861   009406   009107   009592   010985   010463   009340   009635   009277   008781                                      
160000800210013 00100 411 201BARBEZIEUX NORD     0800000BARBEZIEUX SUD      0880750BARBEZIEUX          0820500008823008823170000200300000000000599      010065 4257    008608   009091   009341   010293   010220   010293   011018   012514   010564   010093   009576   009084               120102731 4247    110108431 4227    100086481         090075441         080087451         010943   009991   010146   010553   009862   010030   011030   012150   010685   009789   009277   008781                                      
160000800310013 00100 411 201BARBEZIEUX NORD     0800000BARBEZIEUX SUD      0880750BARBEZIEUX          0820500008823008823170000200300000000000599      019867 4257    016786   018076   018482   020357   020157   020580   022608   023985   020311   019934   018737   018229               120195791 4357    110202491 4387    100172471         090147611         080172981         018953   018139   019007   019959   018969   019622   022015   022613   020025   019424   018554   017562                                      
160000902110013 00100 411 201BARBEZIEUX SUD      0880750DEPARTEMENT 17      1011148REIGNAC             0900000013161013161170000200317000010030187      010275 4017    008722   009485   009842   010380   010457   010464   012116   011974   010218   010215   009648   009691               120102671 4267    110097741 4757    100118441         090116001         080108781         008980   009431   010137   010380   010139   010641   012181   011694   010559   009785   009877   009361                                      
160000902210013 00100 411 201BARBEZIEUX SUD      0880750DEPARTEMENT 17      1011148REIGNAC             0900000013161013161170000200317000010030187      010354 4187    009024   009455   009891   010582   009996   010449   011372   012854   010846   010331   009898   009471               120103121 4337    110104621 4297    100099181         090103591         080096681         009191   008972   010039   010897   010173   010491   011434   012360   011018   009873   009877   009361                                      
160000902310013 00100 411 201BARBEZIEUX SUD      0880750DEPARTEMENT 17      1011148REIGNAC             0900000013161013161170000200317000010030187      020629 4137    017746   018940   019733   020962   020453   020913   023488   024828   021064   020546   019546   019162               120205791 4307    110202361 4447    100217621         090219591         080205461         018171   018403   020176   021277   020312   021132   023615   024054   021577   019658   019754   018722                                      
160001401110013 01410 4113 51                    0310304RD 13 LA ROCHEFOU.  0430000TAPONNAT            0410000010468006545170000200300000000000187      000000                                                                                                                                 120000001         110000001         100077501         090068331         080066571                                                                                                                                                        
160001401210013 01410 4113 51                    0310304RD 13 LA ROCHEFOU.  0430000TAPONNAT            0410000010468006545170000200300000000000187      000000                                                                                                                                 120000001         110000001         100055461         090067241         080065171                                                                                                                                                        
160001401310013 01410 4113 51                    0310304RD 13 LA ROCHEFOU.  0430000TAPONNAT            0410000010468006545170000200300000000000187      000000                                                                                                                                 120000001         110000001         100132961         090135571         080131741                                                                                                                                                        
160001502110013 01410 4110201RD 13 LA ROCHEFOU.  0430000RN 10 ANGOULEME NORD0700000RUELLE              0580500019284018513170000200300000000000187      010658 2127    009199   009672   010189   010741   010771   011158   012389   011756   011218   011223   010437   010174               120104591 2037    110093771 2227    100084201         090096331         080092361         009276   008710   010093   010537   010349   011251   012093   011513   010950   010629   010297   009735                                      
160001502210013 01410 4110201RD 13 LA ROCHEFOU.  0430000RN 10 ANGOULEME NORD0700000RUELLE              0580500019284018513170000200300000000000187      011121 2077    009459   009837   010315   011019   011019   011287   012089   013319   011750   011393   010609   010189               120106881 1987    110094771 2157    100085151         090095661         080092261         009540   009147   010234   010679   010675   011320   011873   012066   011502   010819   010532   009807                                      
160001502310013 01410 4110201RD 13 LA ROCHEFOU.  0430000RN 10 ANGOULEME NORD0700000RUELLE              0580500019284018513170000200300000000000187      021779 2097    018658   019509   020504   021760   021790   022445   024478   025075   022968   022616   021046   020363               120211471 2007    110188541 2177    100169351         090191991         080184621         018816   017857   020327   021216   021024   022571   023966   023579   022452   021448   020829   019542                                      
160001601110013 01410 4113 51RN 10 RTE COGNAC    0680000RD 736 JARNAC       0940160BOURRAS             0860170025948025113170000200300000000000187      006835  827    005792   006036   006521   006940   006927   007315   008134   007694   007206   006882   006402   006114               120067891  867    110067701  867    100064791         090064431         080061241         005953   005648   006495   006878   006820   007371   007970   007519   007262   006706   006515   006290                                      
160001601210013 01410 4113 51RN 10 RTE COGNAC    0680000RD 736 JARNAC       0940160BOURRAS             0860170025948025113170000200300000000000187      006958  787    005924   006105   006490   007053   007058   007356   008045   008042   007560   006996   006630   006182               120069091  837    110067851  887    100066191         090065861         080062741         006101   005715   006515   006897   007009   007371   007925   007853   007605   006809   006666   006397                                      
160001601310013 01410 4113 51RN 10 RTE COGNAC    0680000RD 736 JARNAC       0940160BOURRAS             0860170025948025113170000200300000000000187      013793  807    011716   012141   013011   013993   013985   014671   016179   015736   014766   013878   013032   012296               120136981  847    110135551  887    100130981         090130291         080123981         012054   011363   013010   013775   013829   014742   015895   015372   014867   013515   013181   012687                                      
160001700110013 01410 4113001RD 736 JARNAC       0940160RD 736 MONTAGAN     0960400JARNAC              0950023002255002255170000200300000000000193      005991  947    004877   005141   005478   005880   006004   006389   007440   007059   006438   006114   005700   005307               120000001         110000001    0    100000001    0    090053761    0    080051351    0                                                                                                                                                   
160001700210013 01410 4113001RD 736 JARNAC       0940160RD 736 MONTAGAN     0960400JARNAC              0950023002255002255170000200300000000000193      006093  877    005080   005206   005528   005940   006064   006455   007368   007394   006788   006184   005874   005177               120000001         110000001    0    100000001    0    090055591    0    080053091    0                                                                                                                                                   
160001700310013 01410 4113001RD 736 JARNAC       0940160RD 736 MONTAGAN     0960400JARNAC              0950023002255002255170000200300000000000193      012084  907    009957   010347   011006   011820   012068   012844   014808   014453   013226   012298   011574   010484               120000001         110000001    0    100000001    0    090109351    0    080104441    0                                                                                                                                                   
160001802110013 01410 411 201RD 736 MONTAGAN     0960400GIR. CHA BERNARD    1050130GENSAC              1030059008587008560170000200300000000000187      009233  907    007953   008190   008668   009182   009286   010133   011093   010117   009682   009303   008682   008426               120090861  927    110089241  937    100080011         090086121         080084401         008100   007747   008678   009061   009084   009920   010540   009843   009669   009483   008740   008109                                      
160001802210013 01410 411 201RD 736 MONTAGAN     0960400GIR. CHA BERNARD    1050130GENSAC              1030059008587008560170000200300000000000187      009317  787    008044   008226   008636   009273   009398   010068   010952   010459   010029   009377   008808   008456               120091961 1597    110090431         100080521         090088401         080085911         008223   007835   008714   009090   009267   009877   010460   010135   009970   009699   008864   008159                                      
160001802310013 01410 411 201RD 736 MONTAGAN     0960400GIR. CHA BERNARD    1050130GENSAC              1030059008587008560170000200300000000000187      018550  827    015997   016416   017304   018455   018684   020201   022045   020576   019711   018680   017490   016882               120182821 1377    110179671         100160531         090174521         080170311         016323   015582   017392   018151   018351   019797   021000   019978   019639   019182   017604   016268                                      
160001901110013 01410 4153 51GIR. CHA. BERNARD   1050130GIR. CROIN          1100000COGNAC              1080960005137005137170000200300000000000187      009200  807    008162   008218   008763   009305   009181   009561   010623   010065   009403   009498   008705   008827               120000001         110089491  847    100000001         090000001         080000001                                                                                                                                                        
160001901210013 01410 4153 51GIR. CHA. BERNARD   1050130GIR. CROIN          1100000COGNAC              1080960005137005137170000200300000000000187      009171  767                      008274   008938   008955   009195   010273   010260   009438   009222   008536   008597               120000001         110086851  697    100000001         090000001         080000001                                                                                                                                                        
160001901310013 01410 4153 51GIR. CHA. BERNARD   1050130GIR. CROIN          1100000COGNAC              1080960005137005137170000200300000000000187      018371  777                      017037   018243   018136   018756   020896   020325   018841   018720   017241   017424               120000001         110176341  747    100000001         090000001         080000001                                                                                                                                                        
160002000110013 01410 4113 51GIR. CROIN          1100000DEPARTEMENT 17      1160367MOULIN ST LAURENT   1130660006657006657170000200317000210030187      000000                                                                                                                                 120000001         110000001         100000001         090000001         080000001                                                                                                                                                        
160002000210013 01410 4113 51GIR. CROIN          1100000DEPARTEMENT 17      1160367MOULIN ST LAURENT   1130660006657006657170000200317000210030187      000000                                                                                                                                 120000001         110000001         100000001         090000001         080000001                                                                                                                                                        
160002000310013 01410 4113 51GIR. CROIN          1100000DEPARTEMENT 17      1160367MOULIN ST LAURENT   1130660006657006657170000200317000210030187      000000                                                                                                                                 120000001         110000001         100000001         090000001         080000001                                                                                                                                                        
170000100110013 00100 481 251DEPARTEMENT 16      0000000RD 730              0090915CHEVANCEAUX         0010000009935008904170000200316000090130187      009870 4537    008193   009120   009406   009950   010047   009522   011956   011637   009847   009920   009295   009342               120000008         110000008         100000008         090000008         080000008                                                                                                                                                        
170000100210013 00100 481 251DEPARTEMENT 16      0000000RD 730              0090915CHEVANCEAUX         0010000009935008904170000200316000090130187      010107 4317    008645   009265   009639   010364   010291   010186   011087   012560   010518   010088   009544   009155               120000008         110000008         100000008         090000008         080000008                                                                                                                                                        
170000100310013 00100 481 251DEPARTEMENT 16      0000000RD 730              0090915CHEVANCEAUX         0010000009935008904170000200316000090130187      019977 4417    016838   018385   019045   020314   020338   019708   023043   024197   020365   020008   018839   018497               120000008         110000008         100000008         090000008         080000008                                                                                                                                                        
170000200110013 00100 411 251RD 730              0090915DEPARTEMENT 33      0190783MONTLIEU LA GARDE   0110300009672009672170000300300000000030187      010647 4027    008866   009864   010144   010680   010799   010841   012599   012441   010734   010637   009989   010078               120000001         110000001         100000001         090000001         080000001                                                                                                                                                        
170000200210013 00100 411 251RD 730              0090915DEPARTEMENT 33      0190783MONTLIEU LA GARDE   0110300009672009672170000300300000000030187      010817 4067    009265   009840   010250   011004   010950   010900   011884   013326   011349   010786   010267   009898               120000001         110000001         100000001         090000001         080000001                                                                                                                                                        
170000200310013 00100 411 251RD 730              0090915DEPARTEMENT 33      0190783MONTLIEU LA GARDE   0110300009672009672170000300300000000030187      021464 4057    018131   019704   020394   021684   021749   021741   024483   025767   022083   021423   020256   019976               120000001         110000001         100000001         090000001         080000001                                                                                                                                                        
170000300110013 00110 411 251DEPARTEMENT 79      0000000RD 116              0090272BENON               0080000009375009375170000300379000080230187      006483 1147    005071   005514   006093   006735   006889   006940   008056   007811   006775   006368   005787   005676               120063281 1107    110060681 1137    100060651         090061721         080059301         005149   005216   005926   006700   006215   006898   007865   007708   006781   006044   005872   005522                                      
170000300210013 00110 411 251DEPARTEMENT 79      0000000RD 116              0090272BENON               0080000009375009375170000300379000080230187      006542 1137    005191   005505   005941   006671   007050   006871   007668   008450   007134   006276   006041   005624               120063481 1107    110061141 1127    100061381         090062231         080059891         005264   005170   005903   006515   006313   006764   007505   008058   007160   005981   006059   005447                                      
170000300310013 00110 411 251DEPARTEMENT 79      0000000RD 116              0090272BENON               0080000009375009375170000300379000080230187      013025 1137    010262   011019   012034   013406   013939   013811   015724   016261   013909   012644   011828   011300               120126761 1107    110121821 1137    100122031         090123951         080119191         010413   010386   011829   013215   012528   013662   015370   015766   013941   012025   011931   010969                                      
170000400110013 00110 481 251RD 116 DEB 2*2 PR11 0090272RD 109              0200000FERRIERES D'AUNIS   01400000107150107151700003003000       0187      006915                                                                                                                                 120067308         110064688         100064808         090000008         080000008                                                                                                                                                        
170000400210013 00110 481 251RD 116 DEB 2*2 PR11 0090272RD 109              0200000FERRIERES D'AUNIS   01400000107150107151700003003000       0187      006915                                                                                                                                 120067308         110064688         100064808         090000008         080000008                                                                                                                                                        
170000400310013 00110 481 251RD 116 DEB 2*2 PR11 0090272RD 109              0200000FERRIERES D'AUNIS   01400000107150107151700003003000       0187      013830                                                                                                                                 120134608         110129368         100129608         090000008         080000008                                                                                                                                                        
170000601110013 00110 411 251RN 137              0270000RN 137 RN 237       0350150DOMPIERRE SUR MER   02808500081460081461700012003000       0187      017988  887    015315   015988   017208   018316   018617   018967   020877   020600   018970   017913   016643   016282               120177651  907    110141901         100155981         090159961         080164531         015451   015628   016732   018196   017946   019228   020777   020266   018817   017354   016788   015925                                      
170000601210013 00110 411 251RN 137              0270000RN 137 RN 237       0350150DOMPIERRE SUR MER   02808500081460081461700012003000       0187      017675  757    015232   015667   016785   017753   018384   018425   019822   020559   018954   017583   016882   015904               120174591  757    110174391  807    100154081         090166981         080162611         015338   015292   016379   017612   017768   018584   019682   020440   018942   017043   016781   015572                                      
170000601310013 00110 411 251RN 137              0270000RN 137 RN 237       0350150DOMPIERRE SUR MER   02808500081460081461700012003000       0187      035663  797    030547   031655   033993   036069   037001   037392   040699   041159   037924   035496   033525   032186               120352241  807    110316291         100310061         090326641         080327141         030789   030920   033111   035808   035714   037812   040459   040706   037759   034397   033569   031497                                      
170001001310013 01370 4853 51RN 141              0460000RD 24 SAINTES       0500500SAINTES DEV.        0500000004478004478170001200300000000000187      000000                                                                                                                                 120000008         110000008         100000008         090000008         080000008                                                                                                                                                        
170001100310013 01370 4813 51RD 24 SAINTES       0500500RD 18               0650708RULON               0570300015537015537170001200300000000000187      000000                                                                                                                                 120000008         110000008         100000008         090000008         080000008                                                                                                                                                        
170001200110013 01370 4113 51RD 18               0650708RD 123 E 3          0760000LA VALLEE           0720000010691008929170001200100000000000187      000000                                                                                                                                 120000001         110000001         100000001         090000001         080000001                                                                                                                                                        
170001200210013 01370 4113 51RD 18               0650708RD 123 E 3          0760000LA VALLEE           0720000010691008929170001200100000000000187      000000                                                                                                                                 120000001         110000001         100000001         090000001         080000001                                                                                                                                                        
170001200310013 01370 4113 51RD 18               0650708RD 123 E 3          0760000LA VALLEE           0720000010691008929170001200100000000000187      000000                                                                                                                                 120000001         110000001         100000001         090000001         080000001                                                                                                                                                        
170001300110013 01370 4813 51RD 123 E 3          0760000TONNAY EB 10        0800241PONT ST CLEMENT     0760400005854005854170001200100000000000190      000000                                                                                                                                 120000008         110000008         100000008         090000008         080000008                                                                                                                                                        
170001300210013 01370 4813 51RD 123 E 3          0760000TONNAY EB 10        0800241PONT ST CLEMENT     0760400005854005854170001200200000000000190      000000                                                                                                                                 120000008         110000008         100000008         090000008         080000008                                                                                                                                                        
170001300310013 01370 4813 51RD 123 E 3          0760000TONNAY EB 10        0800241PONT ST CLEMENT     0760400005854005854170001200300000000000187      000000                                                                                                                                 120000008         110000008         100000008         090000008         080000008                                                                                                                                                        
170001301310013 01370 4843001TONNAY EB 10        0800241TONNAY EB 20        0840254TONNAY CHARENTES    0830000004318000000170001200300000000000187      000000                                                                                                                                 120000008         110000008         100000008         090000008         080000008                                                                                                                                                        
170001302310013 01370 4813 51TONNAY EB 20        0840254A 837               0860965DEV. ROCHEFORT      08500000019970019911700015003000       0187      000000                                                                                                                                 120000008         110000008         100000008         090000008         080000008                                                                                                                                                        
170001400110013 01370 481 251A 837               0900000RD 214 E 1          0950104ST LAURENT LA PRE   09200000046640046641700015001000       0187      000000                                                                                                                                 120000008         110000008         100000008         090000008         080000008                                                                                                                                                        
170001400210013 01370 481 251A 838               0900000RD 214 E 1          0950104ST LAURENT LA PRE   09200000046640046641700015002000       0187      000000                                                                                                                                 120000008         110000008         100000008         090000008         080000008                                                                                                                                                        
170001400310013 01370 481 251A 839               0900000RD 214 E 1          0950104ST LAURENT LA PRE   09200000046640046641700015003000       0187      000000                                                                                                                                 120000008         110000008         100000008         090000008         080000008                                                                                                                                                        
170001500110013 01370 411 251RD 214 E 1          0950104RD 109              1060889YVES                09806000117030117031700015001000       0187      000000                                                                                                                                 120000001         110000001         100000001         090000001         080000001                                                                                                                                                        
170001500210013 01370 411 251RD 214 E 1          0950104RD 109              1060889YVES                09806000117030117031700015001000       0187      000000                                                                                                                                 120000001         110000001         100000001         090000001         080000001                                                                                                                                                        
170001500310013 01370 411 251RD 214 E 1          0950104RD 109              1060889YVES                09806000117030117031700015001000       0187      000000                                                                                                                                 120000001         110000001         100000001         090000001         080000001                                                                                                                                                        
170001600110013 01370 481 251RD 109              1060889RD 937              1120980ANGOULINS           11100000060940060941700015001000       0187      000000                                                                                                                                 120000008         110000008         100000008         090000008         080000008                                                                                                                                                        
170001600210013 01370 481 251RD 109              1060889RD 937              1120980ANGOULINS           11100000060940060941700015002000       0187      000000                                                                                                                                 120000008         110000008         100000008         090000008         080000008                                                                                                                                                        
170001600310013 01370 481 251RD 109              1060889RD 937              1120980ANGOULINS           11100000060940060941700015003000       0187      000000                                                                                                                                 120000008         110000008         100000008         090000008         080000008                                                                                                                                                        
170001701110013 01370 411 251RD 937              1120000RN 11               1170000PERIGNY             11700000050310050310000000000          0187      031571  717    028204   028817   030844   031885   032335   032621   034026   034922   033477   032263   030208   029042               120315281  687    110311251  687    100267191         090287301         080297421         028508   028338   030164   031804   031244   033509   034675   034405   033306   033034   030709   028536                                      
170001701210013 01370 411 251RD 937              1120000RN 11               1170000PERIGNY             11700000050310050310000000000          0187      032690  707    029458   030116   032006   033273   033184   033702   035858   035071   034439   033201   031323   030459               120326071  677    110322801  667    100287161         090298231         080307921         029990   029956   031626   032901   032361   034807   035521   034507   034059   033774   031829   029880                                      
170001701310013 01370 411 251RD 937              1120000RN 11               1170000PERIGNY             11700000050310050310000000000          0187      064261  707    057662   058933   062850   065158   065519   066323   069884   069993   067916   065464   061531   059501               120641351  677    110634051  677    100554351         090585531         080605341         058498   058294   061790   064705   063605   068316   070196   068912   067365   066808   062538   058416                                      
170002100110013 01410 4813001DEPARTEMENT 16      0000000RN 150 SAINTES      0160700CHERAC              0130900016846016846000000000016000200030190      004896  817    003758   004259   004420   004993   005087   005289   006317   006664   005053   004640   004209   004057               120000008         110000008    0    100000008    0    090000008    0    080085918    0                                                                                                                                                   
170002100210013 01410 4813001DEPARTEMENT 16      0000000RN 150 SAINTES      0160700CHERAC              0130900016846016846000000000016000200030190      004513  887    003727   004180   004167                              005575   006246   004725   004181   004009   003805               120000008         110000008    0    100000008    0    090000008    0    080039858    0                                                                                                                                                   
170002100310013 01410 4813001DEPARTEMENT 16      0000000RN 150 SAINTES      0160700CHERAC              0130900016846016846000000000016000200030187      009409  857    007485   008439   008587                              011892   012910   009778   008821   008218   007862               120000008         110000008    0    100000008    0    090000008    0    080125768    0                                                                                                                                                   
170002101110013 01410 4113001RN 150 SAINTES      0160700SAINTES RN 137      0210225SAINTES ROCADE S-E  01802000044700044701700029003000       0187      009906  967    008087   008631   009321   009808   009916   010326   011511   011491   010102   010716   010090   008775               120096441  977    110096851  947    100086541         090093151         080086401         008291   008212   009189   009639   009814   010417   011268   011277   010118   010006   009019   008404                                      
170002101210013 01410 4113001RN 150 SAINTES      0160700SAINTES RN 137      0210225SAINTES ROCADE S-E  01802000044700044701700029003000       0187      010106  957    008406   008803   009429   010031   010447   010522   011517   012469   010715   010445   009409   008956               120099611  967    110099541  987    100088281         090094131         080087621         008576   008335   009374   009744   010093   010540   011410   012014   010794   010559   009359   008648                                      
170002101310013 01410 4113001RN 150 SAINTES      0160700SAINTES RN 137      0210225SAINTES ROCADE S-E  01802000044700044701700029003000       0187      020012  957    016493   017434   018750   019839   020363   020848   023028   023960   020817   021161   019499   017731               120196051  967    110196391  977    100174821         090187281         080174021         016867   016547   018563   019383   019907   020957   022678   023291   020912   020565   018378   017052                                      
170002700110013 01500 4113001N 137 SAINTES       0470000RD 728              0500000GATERAT             0490670002959002959170002900300000000000187      006172  467    005036   005246   005748   006196   006380   006472   007655   007928   006297   005997   005508   005504               120061371  467    110058721  477    100060831         090064381         080086911         005153   005065   005680   006200   006084   006536   007629   007865   006454   005885   005639   005391                                      
170002700210013 01500 4113001N 137 SAINTES       0470000RD 728              0500000GATERAT             0490670002959002959170002900300000000000187      005701  447    004793   004877   005238   005667   005908   005901   006578   007323   006099   005523   005298   005135               120056731  447    110054471  467    100054491         090056511         080080901         004885   004724   005229   005652   005761   005971   006552   007199   006203   005465   005363   005024                                      
170002700310013 01500 4113001N 137 SAINTES       0470000RD 728              0500000GATERAT             0490670002959002959170002900300000000000187      011873  457    009829   010123   010986   011863   012288   012373   014233   015251   012396   011520   010806   010639               120118101  457    110113191  477    100115321         090120891         080167811         010038   009789   010909   011852   011845   012507   014181   015064   012657   011350   011002   010415                                      
170002800310013 01500 4813 51RD 728              0500000RD 117              0710058VILLENEUVE          0630800021033021033170002900300000000000187      011463                                                                                                                                 120114448         110105458         100116908         090109168         080000008                                                                                                                                                        
170002900110013 01500 4113 51RD 117              0710058ROYAN EB 10         0770470MEDIS               0760000006412004816170002900300000000000190      008086  477    006400   006731   007438   008301   008337   008599   010788   010889   007982   007573   006949   006893               120080841  487    110075111  527    100082511         090077041         080077041         006508   006619   007392   008200   008368   008844   010573   010768   008339   007469   007042   006797                                      
170002900210013 01500 4113 51RD 117              0710058ROYAN EB 10         0770470MEDIS               0760000006412004816170002900300000000000190      008062  477    006448   006648   007297   008045   008350   008346   010325   011396   008369   007502   007069   006803               120080361  497    110073421  567    100082141         090076701         080077081         006496   006487   007260   007984   008424   008557   009986   011277   008643   007393   007145   006687                                      
170002900310013 01500 4113 51RD 117              0710058ROYAN EB 10         0770470MEDIS               0760000006412004816170002900300000000000187      016148  477    012848   013379   014735   016346   016687   016945   021113   022285   016351   015075   014018   013696               120161201  497    110148531  557    100164651         090153741         080154121         013004   013106   014652   016184   016792   017401   020559   022045   016982   014862   014187   013484                                      
170002999310013 01500 4853331ROYAN EB 10         0770470EXTREMITE RN 150    0810330ROYAN               0780000003830000000170002900300000000000187      016065                                                                                                                                 120160388         110147788         100163828         090152978         080000008                                                                                                                                                        
170003001110013 02370 411 251RN 137              0000000FIN RN 137          0090230LA DESCENDERIE      0020000009267009267170003001300000000000187      030919  697    027649   028313   030401   031473   031618   032455   034830   032353   032384   031574   029397   028400               120310671  687    110287011  737    100000001         090295861         080287061         028346            030031   031542   030831   033057   034237   032335   032396   031195   029974   027879                                      
170003001210013 02370 411 251RN 137              0000000FIN RN 137          0090230LA DESCENDERIE      0020000009267009267170003001300000000000187      032914  737    029651   030239   032362   033588   033797   034243   036418   034433   034799   033496   031475   030287               120330351  727    110309941  757    100000001         090320991         080321281         030400            032072   033263   032911   035389   035518   034396   034562   033246   032103   029624                                      
170003001310013 02370 411 251RN 137              0000000FIN RN 137          0090230LA DESCENDERIE      0020000009267009267170003001300000000000187      063833  727    057300   058552   062763   065061   065415   066698   071248   066786   067183   065070   060872   058687               120641021  717    110596951  757    100000001         090616851         080608341         058746            062103   064805   063742   068446   069755   066731   066958   064441   062077   057503                                      
170053700310013 05370 4843 51RN 237              0000000GIR LA ROCHELLE     0020031N 537               0010000002031002031170003001300000000000187      005727                                                                                                                                 120057528         110053578         100000008         090055368         080060298                                                                                                                                                        
330500501110013 00620 111 241A 630               0000000ECHANGEUR LA PRADE  0090992CADAUJAC(S73)       0030000011083011083000000000000000000000187      033781 1097    030663   033029   033095   034268   034084   035214   037061   036839   033312   034775   032409   033155               120335151 1097    110335841 1117    100227561         090327751         080313971         031189   032276   033126                     035368   035835   033999   034033   033818   032965   032519                                      
330500501210013 00620 111 241A 630               0000000ECHANGEUR LA PRADE  0090992CADAUJAC(S73)       0030000011083011083000000000000000000000187      033243 1077    030431   032092   033239   033913   033831   034408   036216   035367   034324   034387   031555   032249               120329671 1087    110330081 1097    100224991         090320241         080310481         030534   031357   032902                     034094   035194   035343   033752   032828   032378   031225                                      
330500501310013 00620 111 241A 630               0000000ECHANGEUR LA PRADE  0090992CADAUJAC(S73)       0030000011083011083000000000000000000000194      067024 1087    061094   065121   066334   068181   067915   069622   073277   072206   067636   069162   063964   065404               120664821 1087    110665921 1107    100452551         090647991         080624451         061723   063633   066028                     069462   071029   069342   067785   066646   065343   063744                                      
330500600110013 00630 181 241A 630               0000000ECHANGEUR CESTAS    0060000CESTAS(S62)         00600000061770061770000000000000       0187      000000                                                                                                                                 120000008         110000008         100000008         090303488         080298108                                                                                                                                                        
330500600210013 00630 181 241A 630               0000000ECHANGEUR CESTAS    0060000CESTAS(S62)         00600000061770061770000000000000       0187      000000                                                                                                                                 120000008         110000008         100000008         090349388         080340008                                                                                                                                                        
330500600310013 00630 181 241A 630               0000000ECHANGEUR CESTAS    0060000CESTAS(S62)         00600000061770061770000000000000       0187      000000                                                                                                                                 120000008         110000008         100000008         090652868         080638108                                                                                                                                                        
330550601110013 00630 181 241ECHANGEUR CESTAS    0060000RD 211              0110830CESTAS(S64)         00706000058080058080000000000000       0187      000000                                                                                                                                 120000008         110000008         100000008         090318878         080309578                                                                                                                                                        
330550601210013 00630 181 241ECHANGEUR CESTAS    0060000RD 211              0110830CESTAS(S64)         00706000058080058080000000000000       0187      000000                                                                                                                                 120000008         110000008         100000008         090305088         080298268                                                                                                                                                        
330550601310013 00630 181 241ECHANGEUR CESTAS    0060000RD 211              0110830CESTAS(S64)         00706000058080058080000000000000       0187      000000                                                                                                                                 120000008         110000008         100000008         090623958         080607838                                                                                                                                                        
330500801110013 00630 1110241RD 211              0110830A 66                0240670PIERROTON(A63ech24) 0210300012859012859000000000000000000000187      000000                                                                                                                                 120000001         110000001    0    100000001    0    090283201    0    080280661    0                                                                                                                                                   
330500801210013 00630 1110241RD 211              0110830A 66                0240670PIERROTON(A63ech24) 0210300012859012859000000000000000000000187      000000                                                                                                                                 120000001         110000001    0    100000001    0    090281111    0    080273961    0                                                                                                                                                   
330500801310013 00630 1110241RD 211              0110830A 66                0240670PIERROTON(A63ech24) 0210300012859012859000000000000000000000187      000000                                                                                                                                 120000001         110000001    0    100000001    0    090564311    0    080554621    0                                                                                                                                                   
330500900110013 00630 111 241A 66                0240670RN 10               0460850LUGOS(S67)          04000000222370222370000000000000       0187      000000                                                                                                                                 120000001         110000001         100000001         090160271         080154211                                                                                                                                                        
330500900210013 00630 111 241A 66                0240670RN 10               0460850LUGOS(S67)          04000000222370222370000000000000       0187      000000                                                                                                                                 120000001         110000001         100000001         090165181         080157641                                                                                                                                                        
330500900310013 00630 111 241A 66                0240670RN 10               0460850LUGOS(S67)          04000000222370222370000000000000       0187      000000                                                                                                                                 120000001         110000001         100000001         090325451         080311851                                                                                                                                                        
330522100110013 06300 181 241A 10                0000000ECHANGEUR LA BARDE  0050000ROCADE EXTER(Ech4)  00200000049540049540000000000000       0188      000000                                                                                                                                 120000008         110000008         100000008         090484928         080488458                                                                                                                                                        
330522100210013 06300 181 241A 10                0000000ECHANGEUR LA BARDE  0050000ROCADE INTER(Ech4)  00200000049540049540000000000000       0188      000000                                                                                                                                 120000008         110000008         100000008         090505858         080509718                                                                                                                                                        
330522100310013 06300 181 241A 10                0000000ECHANGEUR LA BARDE  0050000ECHANGEUR LABARDE   00200000049540049540000000000000       0188      000000                                                                                                                                 120000008         110000008         100000008         090990778         080998168                                                                                                                                                        
330502102110013 06300 111 241ECHANGEUR LA BARDE  0050000RD 1                0100600ROCADE EXTER(S08dépo00808000059320059320000000000000       0187      036243  827    032361   034205   036244   037686   036738            040735   039306   034856   037800   033806   034934               120360461  947    110360031  947    100355321         090350501         080359651         033767   034252   036116   035669   035462   038559   039890   038279   036651   037045   034806   031986                                      
330502102210013 06300 111 241ECHANGEUR LA BARDE  0050000RD 1                0100600ROCADE INTER(S08dépo00808000059320059320000000000000       0187      042068  817    040564   041785   040845   041875   043106            044037   043726   040421   044111   041372   040901               120419701  837    110425531  827    100418081         090410271         080419201         040865   040486   039626   040355   041898   044724   044106   043445   043520   043338   043176   038136                                      
330502102310013 06300 111 241ECHANGEUR LA BARDE  0050000RD 1                0100600CANTINOLLE(S08déport00808000059320059320000000000000       0187      078311  817    072925   075990   077089   079561   079844            084772   083032   075277   081911   075178   075835               120780161  867    110785561  867    100773401         090760771         080778851         074632   074738   075742   076024   077360   083283   083996   081724   080171   080383   077982   070122                                      
330502201110013 06300 181 241RD 1                0100600ROCADE SORTIE 9     0140000ROCADE EXTER(S11)   01103000036660036660000000000000       0187      000000                                                                                                                                 120000008         110000008         100000008         090415878         080410398                                                                                                                                                        
330502201210013 06300 181 241RD 1                0100600ROCADE SORTIE 9     0140000ROCADE INTER(S11)   01103000036660036660000000000000       0187      000000                                                                                                                                 120000008         110000008         100000008         090421578         080418588                                                                                                                                                        
330502201310013 06300 181 241RD 1                0100600ROCADE SORTIE 9     0140000EYSINES(S11)        01103000036660036660000000000000       0187      000000                                                                                                                                 120000008         110000008         100000008         090837448         080828978                                                                                                                                                        
330502202110013 06300 111 241ROCADE SORTIE 9     0140000ROCADE SORTIE 11 B  0170330ROCADE EXTER(S16)   01500000030970030970000000000000       0187      043411  557    041985   043886   043748   044749   043289   044336   046029   041792   043978   044511   041538   041164               120443191  577    110448921  567    100441391         090433001         080421941         043679   043851   045195   043476   043988   047346   045973   043073   044541   045774   043801   041159                                      
330502202210013 06300 111 241ROCADE SORTIE 9     0140000ROCADE SORTIE 11 B  0170330ROCADE INTER(S16)   01500000030970030970000000000000       0187      044068  597    043195   044222   044239   045684   044702   045378   045186   041135   045274   045511   042786   041610               120445921  597    110451741  587    100450481         090445571         080441021         044339   044113   045795   043841   043970   047176   044741   042427   045883   046085   045341   041487                                      
330502202310013 06300 111 241ROCADE SORTIE 9     0140000ROCADE SORTIE 11 B  0170330LE CHUT(S16)        01500000030970030970000000000000       0187      087479  577    085180   088108   087987   090433   087991   089714   091215   082927   089252   090022   084324   082774               120889111  587    110900661  577    100891871         090878571         080862961         088018   087964   090990   087317   087958   094522   090714   085500   090424   091859   089142   082646                                      
330502300110013 06300 181 241ECH.11              0170330ECH.15              0250000ROCADE EXTER(S19)   01703300074240074240000000000000       0187      000000                                                                                                                                 120000008         110000008         100000008         090427058         080447658                                                                                                                                                        
330502300210013 06300 181 241ECH. 11             0170330ECH. 15             0250000ROCADE INTER(S19)   01703300074240074240000000000000       0187      000000                                                                                                                                 120000008         110000008         100000008         090450148         080449148                                                                                                                                                        
330502300310013 06300 181 241ECH. 11             0170330ECH. 15             0250000PESSAC(S19)         01703300074240074240000000000000       0187      000000                                                                                                                                 120000008         110000008         100000008         090877198         080896798                                                                                                                                                        
330502500110013 06300 111 231ECH.15              0250000ECH.16              0260000TALENCE(S26)        02600000014390014390000000000          0193      062547 1127    057258   059230   061372   063969   062105   064760   067669   066691   066389   063646   059697   057608               120000001         110588131 1067    100594591         090597841         080582231                                                                                                                                                        
330502500210013 06300 111 231ECH.15              0250000ECH.16              0260000TALENCE(S26)        02600000014390014390000000000          0193      061420 1167    055743   058737   061274   063765   061471   064854   069109   061659   062869   062408   057234   057757               120000001         110601351 1057    100608011         090607031         080594691                                                                                                                                                        
330502500310013 06300 111 231ECH.15              0250000ECH.16              0260000TALENCE(S26)        02600000014390014390000000000          0193      123967 1157    113001   117967   122646   127734   123576   129614   136778   128350   129258   126054   116931   115365               120000001         111189481 1057    101202601         091204871         081176921                                                                                                                                                        
330503100110013 06300 181 241ECH.16              0260600ECH.19              0310000ROCADE EXTER(S28)   02702000039170039170000000000000       0187      000000                                                                                                                                 120000008         110000008         100000008         090617198         080616318                                                                                                                                                        
330503100210013 06300 181 241ECH.16              0260600ECH.19              0310000ROCADE INTER(S28)   02702000039170039170000000000000       0187      000000                                                                                                                                 120000008         110000008         100000008         090549218         080535648                                                                                                                                                        
330503100310013 06300 181 241ECH.16              0260600ECH.19              0310000CHANTELOISEAU(S28)  02702000039170039170000000000000       0187      000000                                                                                                                                 120000008         110000008         100000008         091166408         081151958                                                                                                                                                        
330523402110013 06300 181 241ECH.19              0310000ECH.21              0331224ROCADE EXTER(S32)   03103450039240039240000000000000       0187      000000                                                                                                                                 120000008         110000008         100000008         090657858         080640478                                                                                                                                                        
330523402210013 06300 181 241ECH.19              0310000ECH.21              0331224ROCADE INTER(S32)   03103450039240039240000000000000       0187      000000                                                                                                                                 120000008         110000008         100000008         090661528         080648008                                                                                                                                                        
330523402310013 06300 181 241ECH.19              0310000ECH.21              0331224LA HOURCADE(S32)    03103450039240039240000000000000       0187      000000                                                                                                                                 120000008         110000008         100000008         091319378         081288478                                                                                                                                                        
330513400110013 06310 111 241A630                0000000BEGLES              0021290EXTERIEUR(S50)      00100000027250027250000000000          0187      000000                                                                                                                                 120000001         110338041  387    100000001         090339441         080333811                                                                                                                                                        
330513400210013 06310 111 241A630                0000000BEGLES              0021290INTERIEUR(S50)      00100000027250027250000000000          0187      000000                                                                                                                                 120000001         110365271  417    100000001         090363771         080355551                                                                                                                                                        
330513400310013 06310 111 241A630                0000000BEGLES              0021290BEGLES-A631(S50)    00100000027250027250000000000          0187      000000                                                                                                                                 120000001         110703311  407    100000001         090703211         080689361                                                                                                                                                        
330505000110013 06600 1110241A 63                0000000FIN 2X2 VOIES       0060664MIOS                00300000060070060073305050003000       0187      012299  667    009525   010526   011752   012867   012787   013481   015297   014937   012961   012152   010537   010617               120112661  227    110098511         100116741         090103391         080000001         009338   009672   010880   011018   011485   012312   013115   013464                     010988   010305                                      
330505000210013 06600 1110241A 63                0000000FIN 2X2 VOIES       0060664MIOS                00300000060070060073305050003000       0187      012277         009739   010526   011077   012667   012638   013206   015558   015629   013115   012047   010562   010410               120114631  247    110099151         100116791         090113251         080107751         009412   009662   010860   011061   011703   012439   013780   014504                     010971   010120                                      
330505000310013 06600 1110241A 63                0000000FIN 2X2 VOIES       0060664MIOS SIREDO         00300000060070060073305050003000       0187      024576         019264   021052   022829   025534   025425   026687   030855   030566   026076   024199   021099   021027               120227291  247    110197661         100233531         090216641         080000001         018750   019334   021740   022079   023188   024751   026895   027968                     021959   020425                                      
330505100110013 06600 1113041FIN2x2 VOIES        0060664RD 3                0100400FACTURE             0090000003758003758330505000300000000000212      000000                                                                                                                                 120000001         110048801    0    100000001    0    090000001    0    080000001    0                                                                                                                                                   
330505100210013 06600 1113041FIN2x2 VOIES        0060664RD 3                0100400FACTURE             0090000003758003758330505000300000000000212      000000                                                                                                                                 120000001         110047761         100000001         090000001         080000001                                                                                                                                                        
330505100310013 06600 1113041FIN 2X2 VOIES       0060664RD 3                0100400Facture             0090000003758003758330505000300000000000187      000000                                                                                                                                 120000001         110096561    0    100284641    0    090000001    0    080216261    0                                                                                                                                                   
330505200310013 06600 1813041RD 3                0100400FIN A 66            0211219MIOS                01201000118480118483305050003000       0187      029953                                                                                                                                 120277028         110240918         100284648         090000008         080216268                                                                                                                                                        
330000101310013 00100 4813 51DEPARTEMENT 17      0000000RD 18               0100137CAVIGNAC AU NORD    0060000010374010374330000102317000020030187      020438                                                                                                                                 120197508         110187758         100189198         090176168         080271128                                                                                                                                                        
330000102110013 00100 411 251RD 18               0100137RN 137              0200120PEUJARD             01700770093980093983300003013000       0187      019041 2387    017067   018388   018433   019441   018984   019684   020462   019553   019277   019704   018760   018707               120185051 2457    110175631 2677    100177011         090154701         080158661         017231   016935   018531   018656   018318   019028   020170   018723   018903   018833   018641   018029                                      
330000102210013 00100 411 251RD 18               0100137RN 137              0200120PEUJARD             01700770093980093983300003013000       0187      019241 2537    017438   018380   018543   019807   019161   019744   019657   020521   020083   019904   019104   018523               120184871 2597    110176021 2837    100177321         090175221         080170911         017462   016896   018694   018721   018630   017011   019425   019619   019470   018988   018922   017904                                      
330000102310013 00100 411 251RD 18               0100137RN 137              0200120PEUJARD             01700770093980093983300003013000       0187      038282 2487    034505   036768   036976   039248   038145   039428   040119   040074   039360   039608   037864   037230               120369921 2547    110351651 2787    100354331         090329921         080329571         034693   033831   037225   037377   036948   036039   039595   038342   038373   037821   037563   035933                                      
330000200310013 00100 4843001RN 137              0200120ST ANDRE DE CUB EB200230120ST ANDRE DE CUB     02205000029440009803300003013000       0187      000000                                                                                                                                 120000008         110000008         100000008         090000008         080000008                                                                                                                                                        
330000301110013 00100 4123 51ST ANDRE DE CUB EB200230120A 10                0290790ST ANDRE            02500700072620048640000000000000       0187      000000                                                                                                                                 120000001         110000001         100000001         090000001         080000001                                                                                                                                                        
330000301210013 00100 4123 51ST ANDRE DE CUB EB200230120A 10                0290790ST ANDRE            02507000072620048640000000000000       0187      000000                                                                                                                                 120000001         110000001         100000001         090000001         080000001                                                                                                                                                        
330000301310013 00100 4123 51ST ANDRE DE CUB EB200230120A 10                0290790ST ANDRE            02507000072620048640000000000000       0187      000000                                                                                                                                 120000001         110000001         100000001         090000001         080000001                                                                                                                                                        
330000499310013 00100 4853 51BDX                 0510000BDX                 0540900BDX                 05200000030260000600000000000000       0187      000000                                                                                                                                 120000008         110000008         100000008         090000008         080000008                                                                                                                                                        
330000500310013 00100 4813 51A 630               0540900RD 109              0600280LA HOUSE            05805000054150025953300007003000       0187      000000                                                                                                                                 120000008         110000008         100000008         090000008         080000008                                                                                                                                                        
330000600310013 00100 4813 51RD 109              0600280RD 211              0650030JAUGE               06407000047640047293300007003000       0187      000000                                                                                                                                 120000008         110000008         100000008         090000008         080000008                                                                                                                                                        
330000700110013 00100 4113 51RD 211              0650030RD 5                0760751LE PUCH             06807800117030111873300007003000       0190      000000                                                                                                                                 120000001         110000001         100000001         090000001         080000001                                                                                                                                                        
330000700210013 00100 4113 51RD 211              0650030RD 5                0760751LE PUCH             06807800117030111873300007003000       0190      000000                                                                                                                                 120000001         110000001         100000001         090000001         080000001                                                                                                                                                        
330000700310013 00100 4113 51RD 211              0650030RD 5                0760751LE PUCH             06807800117030111873300007003000       0187      000000                                                                                                                                 120000001         110000001         100000001         090000001         080000001                                                                                                                                                        
330000800310013 00100 4813 51RD 5                0760751RD 3                0870150LA VIGNOLLE         08004000104040092223300007003000       0187      000000                                                                                                                                 120000008         110000008         100000008         090000008         080000008                                                                                                                                                        
330000900310013 00100 4813 51RD 3                0870150A 63                0960000MONS                09208000089510064893300007003000       0187      000000                                                                                                                                 120000008         110000008         100000008         090000008         080000008                                                                                                                                                        
330000901310013 00100 481 251A 63                0960000DEPARTEMENT 40      0980615LIMITE DPT 40       0970000002615002615330500900340000010030187      000000                                                                                                                                 120000008         110000008         100000008         090000008         080229078                                                                                                                                                        
330001202110013 00890 4113 51RD 121 GENISSAC     0310790RN 2089 Ech 8       0341380SENAU (LIBOURNE-BX) 03405000053970053973300016003000       0994      017745 1027    015089   016251   016827   018033   017369   018469   020739   020078   018166   018024   016659   017070               120175141  957    110095751         100153001         090166011         080159021         015741   015390   017045   017707   017299   018757   020621   019680   018160   017347   016413   015899                                      
330001202210013 00890 4113 51RD 121 GENISSAC     0310790RN 2089 Ech 8       0341380SENAU (BX-LIBOURNE) 03405000053970053973300016003000       0994      017959  897    015500   016339   017001   018082   017912   018442   019719   020940   018684   018286   017267   017190               120178821  877    110096781         100153571         090167991         080164471         016121   015690   017254   017830   017824   018867   019668   020581   018805   018872   017003   015956                                      
330001202310013 00890 4113 51RD 121 GENISSAC     0310790RN 2089 Ech 8       0341380SENAU               03405000053970053973300016003000       0994      035704  937    030589   032590   033828   036115   035281   036911   040458   041018   036850   036310   033926   034260               120353961  907    110192531         100306571         090334001         080323491         031862   031080   034299   035537   035123   037624   040289   040261   036965   036219   033416   031855                                      
330001300310013 00890 481 251ECH SENAU           0341380ECH GD CAZAU        0360595MONTIFAUT           03500000023680023683300016003000       0397      029198                                                                                                                                 120325938         110325478         100244638         090239828         080306268                                                                                                                                                        
330001401310013 00890 481 251ECH GD CAZAU        0360595ECH BEYCHAC         0420223GRAND CAZAU         03800000056370056373300016003000       0397      037410                                                                                                                                 120417608         110417018         100313448         090307288         080392408                                                                                                                                                        
330001600110013 00890 411 251RD 13 BEYCHAC       0420223RD 115 POTEAU YVRAC 0470300MONTUSSAN (LIB-BX)  04301000050570050570000000000000       0187      027067  837    024753   026126   026406   028328   027280   026713   030542   028338   026455   000000   000000   025481               120270201  827    110271321  827    100239091         090258651         080254671         025236   024559   026865   026934   026880   028872   029730   027641   027596   027635   026835   025361                                      
330001600210013 00890 411 251RD 13 BEYCHAC       0420223RD 115 POTEAU YVRAC 0470300MONTUSSAN (BX-LIB)  04301000050570050570000000000000       0187      026937  857    024442   025472   025935   027654   026772   027666   028768   028438   027702   027941   026497   025738               120264341  827    110262461  837    100162111         090000001         080247591         024792   024067   026140   026217   026318   028049   028028   027872   027404   027181   026338   024726                                      
330001600310013 00890 411 251RD 13 BEYCHAC       0420223RD 115 POTEAU YVRAC 0470300MONTUSSAN           04301000050570050570000000000000       0187      054004  857    049195   051598   052341   055982   054052   054379   059310   056776   054157   000000   000000   051219               120534541  827    110533781  837    100401201         090000001         080502261         050028   048626   053005   053151   053198   056921   057758   055513   055000   054816   053173   050087                                      
330001700110013 00890 481 251RD 115              0470300RN 230              0500260LE POTEAU D YVRAC   04705000029830029830000000000000       0187      000000                                                                                                                                 120000008         110000008         100000008         090278258         080000008                                                                                                                                                        
330001700210013 00890 481 251RD 115              0470300RN 230              0500260LE POTEAU D YVRAC   04705000029830029830000000000000       0187      000000                                                                                                                                 120000008         110000008         100000008         090270438         080000008                                                                                                                                                        
330001700310013 00890 481 251RD 115              0470300RN 230              0500260LE POTEAU D YVRAC   04705000029830029830000000000000       0187      000000                                                                                                                                 120000008         110000008         100000008         090548688         080000008                                                                                                                                                        
330504000110013 02300 411 451ECH.21              0340000ECH.22              0350247ROCADE-EXT          03500000012420012423305050003000       0194      054649 1307    049123   050450   052495   055014   055156   055991   057960   062438   057167   055627   052060   051957               120535301 1317    110534951 1367    100520611         090515341         080520351         049834   049496   052537   053430   052518   054401   056473   061401   056217   053453   052425   049994                                      
330504000210013 02300 411 451ECH.21              0340000ECH.22              0350247ROCADE-INT          03500000012420012423305050003000       0194      059080 1327    053243   055838   057136   059860   058954   061155   067407   062885   060099   059723   055283   057064               120578051         110565221         100556791         090536041         080512511         053577   054019   057037   058198   056659   060154   065256   060431   058741   057353   056543   055523                                      
330504000310013 02300 411 451ECH.21              0340000ECH.22              0350247PT F.MITTERAND      03500000012420012423305050003000       0194      113729 1327    102366   106288   109631   114874   114110   117146   125367   125323   117266   115350   107343   109021               121113351         111100171         101077401         091051381         081032861         103411   103515   109574   111628   109177   114555   121729   121832   114958   110806   108968   105517                                      
330524200110013 02300 411 451ECH.22              0350247ECH.23              0360643ROCADE-EXT(S38)     03600000013960013960000000000000       0194      053685 1467    047903   049308   051180   053651   053889   054685   058116   063746   056391   054138   050485   050319               120531321 1477    110535111 1577    100536151         090533631         080524841         048969   048972   052002   052850   052537   055277   057058   061754   055681   052298   051270   048727                                      
330524200210013 02300 411 451ECH.22              0350247ECH.23              0360643ROCADE-INT(S38)     03600000013960013960000000000000       0194      053400 1507    047570   050287   051325   053860   053161   055254   062059   057805   054448   053873   049539   051300               120525351 1497    110519851 1577    100531301         090527631         080520911         048164   048951   051459   052805   051357   055117   060308   056335   053167   051642   050953   049998                                      
330524200310013 02300 411 451ECH.22              0350247ECH.23              0360643S38 SENS 1+SENS 2   03600000013960013960000000000000       0194      107085 1497    095473   099595   102505   107511   107050   109939   120175   121551   110839   108011   100024   101619               121056671 1497    111054961 1577    101067451         091061261         081045751         097133   097923   103461   105655   103894   110394   117366   118089   108848   103940   102223   098725                                      
330554200110013 02300 411 401ECH.23              0360643ECH.24              0390541S42 ROCADE-EXT      03703090028970028970000000000000       0194      054524 1417    048594   049872   051916   054474   054641   055823   059002   064276   057367   055155   051418   051329               120525371 1487    110528941         100458621         090547121         080540451         049524   049322   052438   053305   052944   055580   057485                     053193   052048   049428                                      
330564200210013 02300 411 401ECH.23              0360643ECH.24              0390541S42 ROCADE-INT      03703090028970028970000000000000       0194      054546 1537    048743   051306   052333   054949   054221   056533   063239   059322   055451   055029   050650   052439               120532441 1567    110491241         100438591         090536511         080528801         049054   049965   052509   053892   052435   056274   061718                     052932   052235   051300                                      
330000000310013 02300 411 401ECH.23              0360643ECH.24              0390541S42 SENS 1+SENS 2   03703090028970028973300001023000       0194      000000                                                                                                                                 120000001         110000001         100000001         091083631         081069251                                                                                                                                                        
330524300110013 02300 411 441ECH.24              0390541ECH.25              0400703ECENON (ROC-EXT)(S4504002580012070012070000000000000       0290      057073 1487    051541   053134   054693   057157   057213   057751   061463   066200   059869   057933   053782   053763               120564691 1487    110571151 1517    100000001         090568601         080554591         052257   052185   055429   056132   055886   058531   060010   065044   059041   056232   054833   051856                                      
330504300110013 02300 4110401ECH.24              0390541ECH.25              0400703S46                 0400258001207001207330505000333000000000212      000000                                                                                                                                 120000001         110000001    0    100000001    0    090000001    0    080000001    0                                                                                                                                                   
330514300210013 02300 411 441ECH.24              0390541ECH.25              0400703ICENON (ROC-INT)(S4404002580012070012070000000000000       0290      057898 1527    052507   055516   056016   058589   057660   059504   066644   062030   058692   058316   053618   055414               120574291 1507    110582051 1547    100000001         090574361         080564421         052851   053645   056358   057588   056213   060310   065287   060935   057895   057021   056046   054827                                      
330504300210013 02300 4110401ECH.24              0390541ECH.25              0400703S46                 0400258001207001207330505000333000000000212      000000                                                                                                                                 120000001         110000001         100000001         090000001         080000001                                                                                                                                                        
330504300310013 02300 4110401ECH.24              0390541ECH.25              0400703S46                 0400258001207001207330505000333000000000290      000000                                                                                                                                 120000001         110000001    0    100000001    0    091142961    0    081119011    0                                                                                                                                                   
