900001000310013 10190 4113001HAUTE-SAONE         0000000GIRATOIRE A36       0050319DORANS              0040900005362005362          00000000000299      000000                                                                                                                                 120153361         110150881 1837    100140961 1877    090143041 1937    080129141 2177    013934   014247   015439            015628   016867   016583   014576            016306   015621   014155                                      
880003210310013 20660 4812001Viaduc              0370000Viaduc              0370688BUSSANG             0370500000688000688          00000000000504      000000                                                                                                                                 120000008         110000008         100000008         090000008         080000008                                                                                                                                                        
880003200310013 00660 4813001RD 89 BUSSANG       0350417COL BUSSANG Ht- Rhin0380520EST DE BUSSANG    BA0350700003166002815880002900368000070030187      000000                                                                                                                                 120000008         110000008         100000008         090000008         080000008                                                                                                                                                        
880003100310013 00660 4813001RD 465 ST MAURICE   0300618RD 89 BUSSANG       0350417OUEST BUSSANG     BA0320000004752002073880002900300000000000187      000000                                                                                                                                 120000008         110000008         100000008         090000008         080000008                                                                                                                                                        
880003000310013 00660 4813001RD 486 (gauche)     0240930RD 465 ST MAURICE   0300618LA HARDOYE        BA0300000005657001746880002900300000000000187      000000                                                                                                                                 120000008         110000008         100000008         090000008         080000008                                                                                                                                                        
880002900310013 00660 3113001SORTIE S. REMIREMONT0020877RD 486 (gauche)     0240930RUPT-sur-MOSELLE    0080500021720016034880002900300000000000187      000000                                                                                                                                 120000001         110108611 0737    100000001         090000001         080000001                                                                                                                                                        
880002410310013 00660 3810101carref. N57 MOULIN  0000000echangeur D417      0020877                    0010000002879002879880002900300000000000191      000000                                                                                                                                 120000008         110000008         100000008         090000008         080000008                                                                                                                                                        
880002200310013 00590 4115001RD 420 REMOMEIX     0250000ECH. RN 159 RAVES PS0280032REMOMEIX  2 Sens    0260100003131003131880002900300000000000187      000000                                                                                                                                 120069881         110069851         100068271         090067851         080000001         006194   006157   006773            007073   007453   007505   007093   007369   007455   006925   006845                                      
880002110310013 00590 4813001echangeur N.415     0210667carref.Ste MARGUERIT0241000dev.SUD St DIE      0240000003331003331880002200300000000000191      000000                                                                                                                                 120045338         110000008         100000008         090044028         080000008                                                                                                                                                        
880002010310013 00590 3810201entree NORD St DIE  0140870echangeur N.415     0210667dev. NORD           0210000006830006830880002000300000000000191      014725                                                                                                                                 120146688         110000008         100000008         090145658         080000008                                                                                                                                                        
880002000310013 00590 3110201RD.32 Echangeur     0120160Echangeur Entrée N. 0140870LA PECHERIE 2 Sens  0140100002677002677880002000300000000000194      026359                  024881   025736   026136   026430   027641   028058            026441   027264                                 120262561         110265531 0927    100261001 0907    090260711 0887    080000001         024196   024362   026406            026860   027961   027140   026049   026905   027508   025613                                               
880001900310013 00590 3110201RD 259 (gauche) PIOA0040300RD 32 (droite)      0120160LA HOLLANDE       B 0070100007496007496880002000300000000000187      014278 1127    011772   013249   013848   014483   014416   015130   015330   014852   014854   014794   013730   014820               120000001         110000001         100123921 1317    090125321 1357    080000001                                                                                                                                                        
880001510310013 00590 3810201M et Moselle        0000000Echg Chatelles      0040300Dév. RAON L'ETAPE   0010000003685003685          54000560000300      000000                                                                                                                                 120000008         110000008         100000008         090000008         080000008                                                                                                                                                        
880001400310013 00570 4813001RD 157A             0640620HAUTE SAONE         0720268SUD DE PLOMBIERES   0650000007670007670880001010370000000000187      000000                                                                                                                                 120000008         110000008         100000008         090104128         080000008                                                                                                                                                        
880001300310013 00570 3113001RD 3 LE BACCU Bretel0560890RD 157A             0640620OLICHAMP            0590000007059007059880001010300000000000187      000000                                                                                                                                 120000001         110112001         100112521 2117    090000001         080000001                                                                                                                                                        
880001200310013 00570 3810201RN 66 ST NABORD PIOA0550180CD 3 LE BACCU Bretel0560890SUD DE ST NABORD  BA0560000001719001719880001010300000000000187      000000                                                                                                                                 120000008         110000008         100000008         090144028         080000008                                                                                                                                                        
880001100310013 00570 3810201POUXEUX PS          0500700RN 66 ST NABORD PIOA0550180ST NABORD         B 0520000004519004519880001010300000000000187      000000                                                                                                                                 120000008         110000008         100000008         090294838         080000008                                                                                                                                                        
880001010310013 00570 3110201Ech 159B POUXEUX PIO0450330POUXEUX             0500700POUXEUX 2 Sens      0480100005383005383880001010300000000000187      000000                                                                                                                                 120000001         110000001         100000001         090260261         080000001                                                                                                                                                        
880000900310013 00570 3810201ech.D'ARCHES  PS    0400556ech. de POUXEUX  PI 0450330                    0430000004772004772000000000000000000001090      000000                                                                                                                                 120000008         110000008         100000008         090000008         080000008                                                                                                                                                        
880000740310013 00570 3110201RAZIMONT CD11 PIOA  0330439RD 157 ARCHES PS    0400556RAZIMONT            0340350007128007128000000000000000000000499      000000                                                                                                                                 120252751         110255631 1567    100254341 1467    090249011 1427    080000001         023796   024349   025802            025179   027011   026597   024892            025345   027726   022131                                      
880000730310013 00570 3810201RN 420 PIOA         0310964RAZIMONT VC1 PIOA   0330439FAILLOUX          B 0330000001476001476880000600300000000000187      026683                                                                                                                                 120269058         110000008         100000008         090259478         080271788                                                                                                                                                        
880000720310013 00570 3810201RD 46 JEUXEY PS     0300872RN 420 PIOA         0310964LES GRANDES TERRESB 0310300001093001093880000600300000000000187      036542                                                                                                                                 120368468         110000008         100000008         090355348         080372198                                                                                                                                                        
880000710310013 00570 3810201RD 157 CHAVELOT PIOA0260160RD 46 JEUXEY PS     0300872LES NEUFS LIEUX   B 0280000004720004720880000600300000000000187      033445                                                                                                                                 120337238         110000008         100000008         090325228         080340648                                                                                                                                                        
880000600310013 00570 3110201RD41. PSOA          0200320RD 157 CHAVELOT PIOA0260160CHAVELOT 2 Sens     0240300005876005876880000600300000000000187      031799 1197    028841   031044   031674   032287   031088   033290   033126   030390   033114   033162                                 120320631         110322101 1227    100000001         090309211         080323871 1047    030437   031249   032993            031745   033931   032970   030311   032876            031366                                               
880000200310013 00570 3810201RD 10               0140846RD 41 PSOA          0200320IGNEY             B 0150100005513005513880000600300000000000187      025875                                                                                                                                 120260908         110000008         100000008         090251618         080263548                                                                                                                                                        
880000100310013 00570 3110201MEURTHE ET MOSELLE  0000000Echangeur R.D.10    0140846Dev. de CHARMES     0060400014884014884880000600354000550030187      000000                                                                                                                                 120000001         110000001         100216261 1507    090000001         080210141 1447                                                                                                                                                   
700001800310013 20570 4813001                    0150000                    0200180N2057               0200000004976004976          00000000000808      000000                                                                                                                                 120000008         110000008         100000008         090000008         080000008                                                                                                                                                        
700001700310013 00570 4813001RIOZ                0690000VORAY               0810690RIOZ                0720000012820012820700001600300000000000193      011002                                                                                                                                 120112828         110000008         100000008         090111388         080110668                                                                                                                                                        
700001600310013 00570 4113001VALLEROIS LORIOZ    0510700RIOZ                0681000LA MALACHERE        0670400017839016992700001600300000000000196      010135         009069   009514   010209   010531   010543   010818   009547   010462   010742   010866            009173               120103921         110105261 1497    100103031 1457    090102591 1387    080101921 1397    009377   009835   010341            010084   011057   011250   010610   011121   010973   010458   009212                                      
700001399310013 00570 4843001FROTEY              0450000VALLEROIS L.        0510700                    0500000007400000000          00000000000193      000000                                                                                                                                 120000008         110000008         100000008         090000008         080000008                                                                                                                                                        
700001301310013 00570 4813001SAULX               0320600FROTEY LES VESOUL   0440529COMBERJON           0430000011499011499700001300300000000000193      011758                                                                                                                                 120118998         110000008         100000008         090127248         080119658                                                                                                                                                        
700001300310013 00570 4113001RD 64               0180300SAULX               0320600PONT JOLY           0290600014214013864700001300300000000000191      007940 2037    006762   007170   007611   008084   008078   008509   008973   008610   008371   008248   007945   006877               120080351         110095731 1577    100083371 1697    090085921         080080791 1937    007134   007548   007857            008057                     008637   008443   008259   007864   006932                                      
700001200310013 00570 4813001RD 6                0150700RD 64               0180300St SAUVEUR          0180000002406000814700001001300000000000193      000000                                                                                                                                 120000008         110000008         100000008         090000008         080000008                                                                                                                                                        
700001100310013 00570 4813001Luxeuil RD 964      0130600RD 6                0150700LUXEUIL             0140000002112001762700001001300000000000193      000000                                                                                                                                 120000008         110000008         100000008         090000008         080000008                                                                                                                                                        
700001001310013 00570 4113001St VALBERT          0100000LUXEUIL             0130600FOUGEROLLES         0130000003665003565700001001300000000000193      000000                                                                                                                                 120000001         110000001         100000001         090000001         080000001                                                                                                                                                        
700001000310013 00570 4813001FOUGEROLLES         0000000ST VALBERT          0091122FOUGEROLLES         0080000010241010241700001001300000000000193      000000                                                                                                                                 120000008         110000008         100000008         090000008         080000008                                                                                                                                                        
700000901310013 00190 4813001FRAHIER             0920900FRAHIER             0980343FRAHIER             0940000005353002550700000800300000000000196      007300                                                                                                                                 120000008         110000008         100000008         090085598         080085648                                                                                                                                                        
700000900310013 00190 4813001RONCHAMP            0840300FRAHIER             0920900RONCHAMP            0860000008569005206700000800300000000000196      004910                                                                                                                                 120000008         110000008         100000008         090057578         080057618                                                                                                                                                        
700000801310013 00190 4113001LURE                0740700RONCHAMP            0840300ROYE                0750300009564004494700000800300000000000191      000000                                                                                                                                 120000001         110000001         100000001         090000001         080000001                                                                                                                                                        
700000800310013 00190 4113001LURE                0690400LURE                0740700LURE                0730500005303005303700000800300000000000196      014196         012488   013060   012641   014704   014805   015719   012981   014315   015543   015810   015351   012974               120000001         110000001         100000001         090166441         080166531                                                                                                                                                        
700000601310013 00190 4813001FROTEY LES VESOUL   0450000LURE                0690400BOUHANS LES LURE    0670000024225021908700000800300000000000193      007595                                                                                                                                 120000008         110000008         100000008         090089058         080089108                                                                                                                                                        
700000600310013 00190 4813001FROTEY LES VESOUL   0430200FROTEY LES VESOUL   0441009FROTEY les VESOUL   0440000001809001809700000400300000000000196      000000                                                                                                                                 120149678         110000008         100000008         090000008         080000008                                                                                                                                                        
700000500310013 00190 4813001VESOUL              0410600FROTEY LES VESOUL   0430200VESOUL              0430000001599001199700000400300000000000193      000000                                                                                                                                 120294098         110000008         100000008         090000008         080000008                                                                                                                                                        
700000400310013 00190 4113001VESOUL              0400200VESOUL              0410600VAUGINE             0410000001400001400700000400300000000000195      000000                                                                                                                                 120312741         110333161 1227    100000001         090000001         080267751         026039   026725   036518            035163   032935   031576   029768   038957   032687   027610   025933                                      
700000301310013 00190 4810201CHARMOILLE          0360400VESOUL              0400200PUSEY               0380000003800000000700000400300000000000196      000000                                                                                                                                 120234008         110000008         100000008         090000008         080000008                                                                                                                                                        
700000300310013 00190 4813001PORT S /SAONE       0310100CHARMOILLE          0360400PORT S / SAONE      0330000005403004815700000400300000000000193      000000                                                                                                                                 120158838         110000008         100000008         090000008         080000008                                                                                                                                                        
700000200310013 00190 4813001COMBEAUFONTAINE     0170981PORT S/ SAONE       0310100PORT S/ SAONE       0290000013016010287700001300300000000000193      008531                                                                                                                                 120086348         110000008         100000008         090092338         080086828                                                                                                                                                        
700000100310013 00190 4113001LA QUARTE           0000000COMBEAUFONTAINE     0170981GOURGEON            0120000017981016449700001300300000000000191      000000                                                                                                                                 120000001         110000001         100000001         090000001         080000001                                                                                                                                                        
680501900310013 00350 1110231N83 Houssen         0590126Ladhof              0630405Colmar Theinheimer  0610400003225003225700001300300000000000895      039267 1957    033321   035957   037709   039521   039568   042182   044806   041511   040634   040179   036487   039065               120392491         110383721 1987    100261501 1797    090350001         080237631 0657    034501   035911   038425   039532   038731   042497   042897   041609   040989   040002   038282   037537                                      
680501800310013 00350 1110231Ladhof              0630405Colmar Semm RD 13   0660600Colmar Horbourg     0640900003195003195700001300300000000000895      052171 1677    044920   047843   050309   052418   052205   055455   058498   054389   054139   054320   049975   051266               120515271         110523831 1777    100489121 1787    090464911 1707    080458551 1737    046169   047908   050878   051687   051047   054291   055720   052365   053773   054580   050750   049066                                      
680501700310013 00350 1110231Colmar Semm RD 13   0660600Colmar Sud          0700936Colmar Dachsbuhl    0670500004336004336700001300300000000000895      041938 1937    035627   038522   040389   042143   041785   044598   047350   044087   043560   043837   040020   041096               120412761         110422211 2037    100396331 2077    090388421 2017    080377711         036750   038319   041123   041661   040873   043788   044772   042140   043131   043280   040523   038880                                      
680501600310013 00350 1110241Colmar Sud          0700936RD 1b Niederhergheim0750289Colmar Fronholz     0720000004343004343700001300300000000001091      049102 1637    042390   045252   047554   049379   048886   051846   052822   050046   051213   052845   047714   049024               120483391         110492341 1677    100000001         090470001         080000001         043891   045330   048729   048523   047584   050791   049871   047880   050116   052645   047961   046684                                      
680501500310013 00350 1810241RD 1b Niederhergheim0750279Meyenheim           0830153Oberhergheim        0780000007874007874680501600300000000001187      044444                                                                                                                                 120437548         110000008         100000008         090000008         080000008                                                                                                                                                        
680501400310013 00350 1810241Meyenheim           0830153Ensisheim           0880928Meyenheim           0860000005775005775680501300300000000001187      000000                                                                                                                                 120000008         110000008         100000008         090353738         080376998                                                                                                                                                        
680501300310013 00350 1110241Ensisheim RD 2      0880928A 36 Croix Hardt    1000750Baldersheim         0970300011822011822680501300300000000001187      000000                                                                                                                                 120000001         110000001         100000001         090385831         080411191 1817                                                                                                                                                   
680501100310013 00350 1810241A 36                1000750Rixheim             1040629Rixheim Nord        1030000003879003879680501000300000000001187      054178                                                                                                                                 120531228         110000008         100000008         090000008         080000008                                                                                                                                                        
680501000310013 00350 1110241Rixheim             1040629Bartenheim          1170923Rixheim Sud         1050600013294013294680501000300000000000170      050183 0747    044964   047156   048614   050852   050441   052145   054297   052301   052284   052201   048891   047868               120492041         110491811 0787    100474061 0977    090472031         080000001         045209   046102   049413   048560   048689   051883   052965   051455   050449   051041   048671   045901                                      
680500920310013 00350 1110241échangeur Aéroport  1220760RD 105              1240398Hésingue            1240100001638001638680501000300000000000190      000000                                                                                                                                 120431191         110000001         100000001         090450001         080000001         034091   034769   039528   045084   043895   038605   051521   048511   048378   048456   040942                                               
680500910310013 00350 1110241Bartenheim          1170923Aéroport            1220760Blotzheim           1210800004837004837680501000300000000000170      000000                                                                                                                                 120000001         110000001         100000001         090490601         080000001                                                                                                                                                        
680500900310013 00350 1110241                    4470000                    4480000A35                 44800000014840014846805010003          0708      051481 0767    046144   048675   050357   051760   051373   053858   056367   053904   053704   053056   049933   048476               120505351         110510771 0707    100501171 0787    090490431 0767    080000001         046669   047997   051612   049246   049923   053249   054600   051954   051962   052734   049861   046520                                      
680500800310013 00350 1140241RD 105              1240398douane Bâle         1260303Saint-Louis douane  1250800001913001913680501000300000000000190      031310 0628    028557   029734   030337   031570   030669   032379   035752   033998   032499   031934   029577   028594               120307071 0658    110305521 0658    100296951 0738    090285001         080000001         028604   029026   030753   029742   029560   031712   034549   032910   031367   032317   030038   027786                                      
680500700310013 00360 1110241RD 52 Ottmarsheim   1180600Allemagne           1200542Ottmarsheim         1190500001942001942680501000300000000000180      014434 2647    010887   011467   012523   013609   015422   015564   017111   018778   016180   015188   013344   012877               120133651 2828    110142641 2378    100137681 2578    090128281 3097    080136981 3118    010828   011182   012722   013290   014244   014697   015576   016675   014851   013028   011852   011335                                      
680500600310013 00360 1810241RD 55 Peugeot       1120170RD 52 Ottmarsheim   1180600Ottmarsheim Ouest   1160000006430006430680500700300000000000180      018836                                                                                                                                 120174418         110000008         100000008         090167418         080178778                                                                                                                                                        
680500500310013 00360 1110441A 35 Croix Hardt    1100750RD 55 Peugeot       1120170Croix-Hardt Peugeot 1110500001420001420680500700300000000000180      000000                                                                                                                                 120000001         110000001         100000001         090248001         080000001                                                                                                                                                        
680500300310013 00360 1150231RD 430              1050580A 35 Croix Hardt    1100750Mulhouse IleNapoléon1080000005170000500680500700300000000000177      091311 1317    081492   084089   089055   093689   091908   096843   098362   089635   095679   097241   089763   087625               120894451         110919461 1317    100894781 1327    090883311 1327    080878971 1407    083947   085186   089585   088555   089770   096664   094062   086071   093300   093718   089519   083027                                      
680500200310013 00360 1150231RD 20 mulhouse Ouest1020042RD 430              1050580Mulh-Bourtzwiller   1040100003538000000680500700300000000000177      085297 1367    076437   078659   083849   090478   085909   090379   091145   083538   088762   089440   083039   081655               120838661         110859101 1437    100839801 1407    090835571 1387    080842541 1497    079425   080676   084266   083698   083487   090923   087257   078987   087089   088880   084179   077658                                      
680500100310013 00360 1850231RN66                1000000RD 20               1020042Mulhouse Ouest      1010000002042000000680500200300000000000177      082287                                                                                                                                 120809078         110000008         100000008         090806098         080812828                                                                                                                                                        
680004110310013 00830 4110201Guémar RD 106       0650984A35 Sélestat  Sud   0681006Guémar Nord         0670000003022003022680500200367000280031187      051814 1577    047459   051032   053824   055537   055738   058919   060400   055277   055254   046372   040589   041391               120549411         110558091 1667    100546821 1657    090543431 1457    080411361         048923   050714   054103   054820   055532   056335   056576   057548   058206   057687   054355   054350                                      
680004000310013 00830 4810201Ostheim RD 3        0620758Guémar RD 106       0650984Guémar Sud          0640500003226003226680004110300000000001187      050046                                                                                                                                 120530678         110000008         100000008         090524908         080397348                                                                                                                                                        
680003900310013 00830 4110201A 35 Houssen        0580000Ostheim RD 3        0620758Ostheim Sud         0610000004758001000680004110300000000001187      057348 1487    050289   053246   055942   057922   057791   060994   063207   059413   058246   058151   053933   058709               120579941         110583851 1507    100570851 1507    090553321 1457    080545231         051570   053208   056058   057941   057564   061350   062448   060425   060503   060098   057427   057202                                      
680001610310013 00660 4110201Wittelsheim Sud     0330026A 36                0370855Lutterbach          0360700004774004774680004110300000000001187      033379 0727    031480   031929   033804   034371   032380   035963   034508   030550   034567   034585   033296   033135               120341391         110319001 0817    100333921 0757    090329201 0747    080294581 0737    032413   032665   035312   032988   033876   036096   033673   035232   035403   036850   034250   030892                                      
680001500310013 00660 4110201Cernay Sud          0280811Wittelsheim Sud     0330026Wittelsheim         0330000004450004215680004110300000000001187      000000                                                                                                                                 120306871         110303411         100299471         090292071         080256531         028736   028864   030887   028710   029969   031904   030540   032935   031893   032727   030275                                               
680001400310013 00660 4110201Thann Est           0230469Cernay Sud          0280811Cernay              0270900005342004000680004110300000000001187      023271 0807    021083   021976   023284   023868   023504   024753   024387   022586   023944   024991   022912   021923               120235711         110000001         100000001         090247431 0977    080000001         022920   023171   024062   022949   023959   025196   023791   022799   024163   025085   023307   021465                                      
680001200310013 00660 4843001Thann Ouest         0210217Thann Est           0230469Thann               0210400002252000300680001100300000000001187      000000                                                                                                                                 120172998         110000008         100000008         090182108         080184548                                                                                                                                                        
680001100310013 00660 4133001Bitschwiller        0190553Thann Ouest         0210217Bitschwiller        0200200001664000000680001100300000000000195      000000                                                                                                                                 120202531 0428    110205931 0508    100206081 0508    090213191         080216131 0677    019012   019884   020237   020459   020432   021686   020620   020869   020833   020839   019689   018515                                      
680001000310013 00660 4813001Willer-sur-Thur     0170985Bitschwiller        0190553Willer-Bitschwiller 0180500001568000000680001100300000000001187      000000                                                                                                                                 120176208         110000008         100000008         090185488         080187968                                                                                                                                                        
680000920310013 00660 4833001Moosch              0150246Willer-sur-Thur     0170985Moosch - Willer/Thur0160300002739001000680001100300000000000598      000000                                                                                                                                 120154938         110000008         100000008         090163098         080165278                                                                                                                                                        
680000910310013 00660 4833001St-Amarin Est       0140222Moosch              0150246St-Amarin Moosch    0140300001024000100680001100300000000000180      000000                                                                                                                                 120146998         110000008         100000008         090154738         080156808                                                                                                                                                        
680000905310013 00660 4833001St-Amarin Ouest     0120127St-Amarin Est       0140222déviation St-Amarin 0130000002095002095680001100300000000000597      000000                                                                                                                                 120107198         110000008         100000008         090112848         080114358                                                                                                                                                        
680000900310013 00660 4823001Husseren Wesserling 0100258St-Amarin Ouest     0120127Ranspach            0100300001869000300680000800300000000001187      000000                                                                                                                                 120000008         110000008         100000008         090114878         080112938                                                                                                                                                        
680000800310013 00660 4113001Urbès               0070076Husseren Wesserling 0100258Wesserling          0090004003183002400680000800300000000001187      000000                                                                                                                                 120000001         110000001         100000001         090055531         080054591 1617                                                                                                                                                   
680000700310013 00660 4113001Col Bussang         0000000Urbès               0070076Col Bussang         0020000007075007000680000800388000000001187      000000 1608    002814   002930   003361   003588   003721   003840   004326   003591   003861                                          120037011 2008    110039111 2018    100038981 1578    090040191 1907    080040251 1967    003065   003152   003474   003782   003956   003988   004290   004404   004088   003780   003497   002914                                      
680000600310013 00590 4813001Lièpvre             0140730limite Bas-Rhin     0180148Bois l'Abbesse      0170000003418003418680000510367000000001187      010463                                                                                                                                 120102158         110000008         100000008         090092708         080085828                                                                                                                                                        
680000510310013 00590 4113001Ste-Marie-Mines     0070000Lièpvre             0140730Lièpvre             0130800007730007730680000510300000000000495      006729 0897    005458   005879   006105   006625   006827   007833   007690   007296   007265   006992   006167   006569               120065691         110065141 0887    100060211 0837    090059611 0747    080055181 0777    005477   005630   006127   006321   006593   007595   006923   007193   007323   007004   006379   006243                                      
670510800310013 00040 1810221HOERDT              1460700REICHSTETT          1490000                    1480000002300002300          00000000000187      000000                                                                                                                                 120000008         110000008         100000008         090000008         080000008                                                                                                                                                        
670510700310013 00040 1810221BRUMATH Sud         1420600HOERDT              1460700                    1450000004100004100          00000000000187      000000                                                                                                                                 120000008         110000008         100000008         090000008         080000008                                                                                                                                                        
670510600310013 00040 1810221BRUMATH Nord        1370200BRUMATH Sud         1420600                    1400000005400005400          00000000000187      000000                                                                                                                                 120000008         110000008         100000008         090000008         080000008                                                                                                                                                        
670510500310013 00040 1810221SCHWINDRATZEIM      1300300BRUMATH Nord        1370200                    1350000006900006900          00000000000187      000000                                                                                                                                 120000008         110000008         100000008         090000008         080000008                                                                                                                                                        
670510400310013 00040 1110221SAVERNE             1130000SCHWINDRATZEIM      1300000                    1200000016600016600          00000000000187      000000                                                                                                                                 120000001         110000001         100000001         090000001         080000001                                                                                                                                                        
670510300310013 00040 1810221MOSELLE             1070000SAVERNE             1130700                    1100000006700006700          00000000000187      000000                                                                                                                                 120000008         110000008         100000008         090000008         080000008                                                                                                                                                        
670510200310013 00040 1810221SARRE UNION         0820500MOSELLE             0920000                    0900000009500000095          00000000000187      000000                                                                                                                                 120000008         110000008         100000008         090000008         080000008                                                                                                                                                        
670510100310013 00040 1810221MOSELLE             0670300SARRE UNION         0820500KESKASTEL           0680000015200015200          00000000000187      000000                                                                                                                                 120000008         110000008         100000008         090000008         080000008                                                                                                                                                        
670510000310013 04220 4813001                    0000000                    0030200N0422               0000000003078003078          00000000000708      000000                                                                                                                                 120000008         110000008         100000008         090000008         080000008                                                                                                                                                        
670509000310013 06300 4813001                    0220000                    0250213N63                 0220000002669002669          00000000000708      000000                                                                                                                                 120000008         110000008         100000008         090000008         080000008                                                                                                                                                        
670508000310013 00620 4813001                    0000000                    0010910N62                 0010000001914001914          00000000000708      000000                                                                                                                                 120000008         110000008         100000008         090000008         080000008                                                                                                                                                        
670507000310013 03400 1810241A4                  0000000N340                0030564Bernolsheim         0010000003567003567000000000000000000000704      000000                                                                                                                                 120000008         110000008         100000008         090000008         080000008                                                                                                                                                        
670506000310013 03400 4110201A340 WAHLENHEIM     0030000N63 HAGUENAU        0080436HARTHOUSE           0060000004857004857000000000000000000000704      000000                                                                                                                                 120000001         110000001         100000001         090000001         080000001                                                                                                                                                        
670505000310013 00350 1110241ZELLWILLER          4250441N1083 SELESTAT      4331022SAINT PIERRE        4260800008973008973000000000000000000000500      000000                                                                                                                                 120000001         110000001         100000001         090347571         080000001                                                                                                                                                        
670504000310013 00350 1110241GOXWILLER           4210000ZELLWILLER          4250441GERTWILLER          4230200004430004430000000000000000000000500      000000                                                                                                                                 120000001         110000001         100000001         090377641         080000001                                                                                                                                                        
670503000310013 00350 1110241D500 NIEDERNAI      4180178GOXWILLER           4210000NIEDERNAI           4190000002817002817000000000000000000000500      048550 1597    042257   044775   046480   048626   048949   051648   052990   049182   050904   051148   046309   049073               120477271         110474551 1667    100423081 1657    090402511 1507    080000001         042159   044022   046555   048207   048695   050020   049751   049007   050182   050281   047334   046437                                      
670502000310013 00350 1110231D37 HOERDT          2450611A4                  2480612HOERDT OUEST        2470000002990002990000000000000000000000494      032876 2097    029711   030928   032414   033673   034248   035643   034477   032268   034732   034359   031840   030171               120332221         110329271         100327181 2207    090315141 2107    080312071 2117    030187   031040   033378   034487   033885   036718   034080   032485   034712   035536   032707   029495                                      
670501820310013 00350 1810231N1083               4331022ECH N422            4380575SELESTAT NORD       4350000004599004599          00000000000403      000000                                                                                                                                 120000008         110000008         100000008         090000008         080000008                                                                                                                                                        
670501810310013 00350 1810231N59                 4410716HAUT-RHIN           4460737CHATENOIS           4450000006771006771670501800300000000000187      000000                                                                                                                                 120000008         110000008         100000008         090000008         080000008                                                                                                                                                        
670501800310013 00350 1110231RN422               4380575N59                 4410716SELESTAT Sud        4400000003138003138670501800300000000000187      050730 1707    044200   046859   048859   050870   051026   054147   056554   052262   052045   053024   047872                        120513551         110497651 1727    100492001 1677    090490091         080000001         044949   047054   050727   051438   051716   056222   056062   053383   053721   051325   050319   049275                                      
670501700310013 10830 4810201N83 EBERSMUNSTER    0500000A35                 0520498EBERSHEIM           0520000002551002551          00000000000704      000000                                                                                                                                 120000008         110000008         100000008         090000008         080000008                                                                                                                                                        
670501600310013 03500 1150231A35                 0000000Fin A350            0010236WACKEN              0000300001238001238          00000000000187      000000                                                                                                                                 120587201         110000001         100000001         090586811 0157    080591141 0167    058501   059767   060612   060079   058401   062785   051642   052178   061343   062281   060163   057262                                      
670501510310013 03510 1150431SORTIE 4            0020715ECH WOLFISHEIM      0040191BUGATTI             0030400001238001238          00000000000403      041917         039170   039537   042173   042270   041385   043627   042950   037354   044267   045447   042902   041872               120418371         110406921 0467    100404081 0507    090399791         080401091         039883   040300   041738   040792   040689   043217   040314   038791   044851   044426   045642   041536                                      
670501500310013 03510 1110431ECH WOLFISHEIM      0040191N4                  0040811HAUTEPIERRE         0040200000621000621          00000000000187      021327 0607    019280   019858   021110   021157   020865   021913   023179   020312   023746   022524   021187   020743               120208721         110208431 0577    100206421 0557    090208941         080211431         020139   020350   021373   020921   020970   022212   020149   019049   021632   022039   021793   019912                                      
670501310310013 03510 1110431Sortie Nø2          0010877Sortie Nø4          0020715CENTRALE THERMIQUE  0020500000834000834          00000000000704      055941 0447    051481   053860   057474   057303   055552   059106   054571   045886   058886   062285   058389   056621               120540611         110540281 0447    100542971 0417    090526161         080531921         052613   053188   055750   055620   054507   057212   050039   049550   055333   056985   055437   052673                                      
670501300310013 03520 1110231A35                 0000000MOLSHEIM            0090793DUTTLENHEIM Sud     0040500009830009830          00000000000187      026099 0847    023465   024302   025729   026110   025917   028290   027531   024884   027977   027769   025682   025481               120262991         110269731 0857    100279131 0847    090280201 0867    080287461 0987    024458   025094   026135   025335   026639   029401   027760   024707   029117   027028   026091   023901                                      
670501200310013 03510 1150431A35                 0000000Sortie Nø2          0010877STRASBOURG Ouest    0000580001876001876          00000000000187      086990 0557    086732   088470   091713   090680   089834   092141   082769   068592   089121   091483   088072   084802               120880781         110884531 0517    100879871 0477    090863721 0467    080867621 0477    090270   090606   089414   089588   086707   093040   079504   078281   089724   092477   091419   086437                                      
670501100310013 00040 4150201A35 STRASBOURG      0440000PLACE DE L'ETOILE   0460135CONTOURNEMENT SUD   0450300002121000000          00000000000187      063759 0317    064210   064840   067623   066622   065145   067826   057878   047921   066715   067519   065042   064238               120657521         110654901 0427    100669671 0457    090668891         080646041 0457    064865   066301   067435   064881   064587   069030   062592   060325   067685   070703   066928   063911                                      
670501030310013 00350 1840231A35 debut Brt       3150180A35 fin Brt         3160361Ech A35/A352        3160000001177001177          00000000000505      000000                                                                                                                                 120000008         110000008         100000008         090000008         080000008                                                                                                                                                        
670501020310013 00350 1140231D400                3120215A352                3150180GEIPOLSHEIM         3140180002928002928          00000000000187      070728 1237    063486   066644   069635   071496   070686   074703   075458   068480   073972   074787   068559   070620               120698651         110702161 1287    100658561 1237    090641101         080645431         064675   066932   069946   070024   070774   073126   072559   069001   071812   073128   069175   067189                                      
670500900310013 00350 1140231N83                 3091006D400                3120215GEIPOLSHEIM         3100200002194002194          00000000000187      079242 1207    070917   074940   079216   080225   078758   083747   084389   076195   083166   083618   076998   078547               120784871         110751581 1127    100740981 1077    090730781 1087    080738371 1107    073333   075757   078901   078541   079079   082235   080722   077293   080626   081973   077970   075422                                      
670500800310013 00350 1140231D468 BAGGERSEE      3060775N83                 3091006OSTWALD             3080000003219003219          00000000000187      118722 1077    113529   115176   121128   121078   116188   125525   121538   107565   123692   124968   116639   117686               121200481         111211511 1077    101202841 1037    091198691 0977    081201271 1007    114658   117823   121540   118609   119514   126471   120845   113951   123190   125100   120035   118954                                      
670500700310013 00350 1150231N4 CONTOURNEMENT SUD3030961D468 BAGERSEE       3060775ELSAU               3040000002825000000          00000000000187      128265 1297    122932   127187   133370   133022   130467   137497   123729   104435   135102   136569   128115   127317               121313641         111311081 1337    101311161 1157    091303711 1097    081306151 1117    126789   130113   131617   130946   131190   138648   130535   127839   136002   136816   131070   125085                                      
670500600310013 00350 1150431A351                3020184N4 CONTOURNEMENT SUD3030961PORTE DE SCHIRMECK  3030200001788001788          00000000000187      146063 0947    147300   152677   159384   158508   144922   160578   112419   098480   158425   161432   152205   148535               121547651         111502211 0867    101519941 0847    091521551         081522691         149390   154015   157716   157288   153923   162129   151491   144684   159299   164217   156284   147215                                      
670500500310013 00350 1150431A350                3000905A351                3020184STRASBOURG          3010500001264000000          00000000000187      159233 0797    158121   159942   166892   165528   162018   164594   160444   117134   166543   171769   161034   157521               121633811         111637881 0777    101640131 0827    091632291 0797    081636911 0817    159893   162769   166654   161615   161924   172258   158420   155605   167746   172354   164819   156892                                      
670500400310013 00350 1140431A4                  3000000A350                3000905PLACE HAGUENAU      3000400000935000935          00000000000187      094608 1277    093100   095614   099620   099595   088541   090712   095437   081382   099640   101800   095696   094489               120985991         110987421 1247    100990441 1227    090981061 1177    080979411 1227    095287   097665   100423   099097   096583   104257   099807   094879   100211   104321   098143   092690                                      
670500310310013 00040 1150431Sortie BISCHHEIM    0040988FIN A4              0061011BISCHHEIM           0050850002046002046          00000000000187      111046 1087    105052   109025   112222   113582   111758   115507   113880   097499   115163   117575   111219   110238               121126611         111162411 1077    101175391 1017    091178271         080000001         109154   111914   114460   112465   112384   118724   114122   107275   114509   116630   112549   107953                                      
670500200310013 00040 1150231Ech. REICHSTETT     0000000Sortie HOENHEIM     0040202SOUFFELWEYERSHEIM   0020580003573003573          00000000000494      105151 1227    098200   101862   106245   107172   105721   105995   108875   097529   109638   111038   104327   105101               121067941         111073431 1247    101071961 1217    091059441 1187    081068071 1237    102004   104569   108002   107083   106825   112960   108840   101471   109025   111436   107311   102153                                      
670500100310013 00040 1150431Sortie HOENHEIM     0040202Sortie BISCHHEIM    0040988HOENHEIM            0040000000786000786          00000000000187      095586 1197    089658   091155   096834   097466   096139   094650   098872   091387   100108   100348   094628   095499               120972871         110977501 1267    100975901 1247    090975121         080000001         092644   094937   097594   097959   097343   102538   099289   093904   099408   102447   096609   092855                                      
670353400310013 03530 4110201ROCADE EST          0080400ALLEMAGNE           0080818PONT PFLIMLIN       0080500000419000419          00000000000704      012622 1557    010096   010790   011936   012779   013184   013415   014379   014475   013045   013598   011776   011831               120124591         110124311 1577    100119431 1567    090112601         080112791 1727    010128   010657   011822   012585   012898   012811   013918   014441   013473   013352   011862   011467                                      
670353300310013 03530 4110201RD468 ILLKIRCH      0050791Rocade Est          0080400N353 Est            0060000002609002609          00000000000704      022452 2207    018396   020039   021450   022792   022784   024095   025360   023640   023743   024669   021395   020899               120214721         110214191 2007    100201671 2397    090190841         080196791 2027    018495   019245   020800   021275   021337   022568   023194   022206   023368   024008   021288   019817                                      
670353200310013 03530 4110201RN83 ILLKIRCH       0030000RD468 ESCHAU        0050791N353 Centre         0050300002791002791          00000000000704      023870 2077    019549   020962   022397   023652   023623   028249   028511   024526   025005   025452   022715   021651               120225661         110227641 2057    100211641 2317    090200631         080202731         019732   020348   021809   022351   023040   024277   024994   022589   023775   024905   022155   020747                                      
670350500310013 00350 1110231N422                4100000D147                4110800Innenheim Nord      4110000001800001800          00000000000704      040282 1487    035041   037420   039383   040588   039150   042492   043929   040700   042391   042373   038526   041203               120395561         110000001         100000001         090326021         080000001         037931   036941   038570   039063   039841   041137   040719   040124   041725   040254   039096   039191                                      
670350400310013 00350 1110231D147                4110800A35/RD500           4180178Innenheim Sud       4120000006378006378          00000000000704      042287 1457    036934   039224   041308   042472   041006   044697   045904   042254   044605   044682   040810   043368               120408591         110000001         100000001         090326001         080000001         040095   038799   040372   039156   038983   043064   040516   041700   043291   042029   041217   041063                                      
670123410310013 00040 4850201SORTIE TUNNEL ETOILE0460872AVE ARISTIDE BRIAND 0490059RN4 ROUTE DU RHIN   0470000002118000000670123400300000000000403      041062                                                                                                                                 120410468         110000008         100000008         090405858         080399718                                                                                                                                                        
670123400310013 00040 4150201ENTREE TUNNEL ETOILE0460135SORTIE TUNNEL ETOILE0460872TUNNEL DE L'ETOILE  0460500000737000000670123400300000000000403      035490 0647    034223   034718   036969   036285   035944   037597   035049   030523   036650   037417   035587   034980               120354761         110334501 0967    100352781 1007    090350771         080347461         033795   034906   036001   035721   035553   037475   034965   033408   036779   037680   035703   033812                                      
670106400310013 10630 4116001N62 HAGUENAU        0110410N63 HAGUENAU        0170058HAGENAU NORD        0150800000559000559670123400300000000000704      000000                                                                                                                                 120000001         110000001         100000001         090000001         080000001                                                                                                                                                        
670006900310013 04040 4813001D421                0020330N4 OTTERSWILLER     0050631MONSWILLER          0040000003339003339670000100300000000000187      000000                                                                                                                                 120000008         110000008         100000008         090000008         080000008                                                                                                                                                        
670006800310013 04040 4813001A4 MONSWILLER       0000000D421                0020330MONSWILLER          0020000002290002290670000100300000000000187      000000                                                                                                                                 120000008         110000008         100000008         090000008         080000008                                                                                                                                                        
670006600310013 04220 4813001A35                 0300656RN83 (Fin RN422)    0310850SELESTAT            0310000001198001198          00000000000187      000000                                                                                                                                 120000008         110000008         100000008         090000008         080000008                                                                                                                                                        
670006300310013 24220 4113001GERTWILLER          0160000ZELLWILLER          0180000ST PIERRE Nord      0170000001800001800                    0704      000000                                                                                                                                 120000001         110000001         100000001         090000001         080000001                                                                                                                                                        
670006200310013 24220 4813001Goxwiller           0130800Gertwiller          0160700BOURGHEIM Ouest     0150000002900002900670004800300000000000704      000000                                                                                                                                 120000008         110000008         100000008         090000008         080000008                                                                                                                                                        
670006100310013 24220 4813001Niedernai           0100000Goxwiller           0130800NIEDERNAI           0120000003800003800          00000000000704      000000                                                                                                                                 120000008         110000008         100000008         090000008         080000008                                                                                                                                                        
670006000310013 04220 4113001A35                 0000000D215                0050042INNENHEIM           0040900004945004945          00000000000187      000000                                                                                                                                 120000001         110000001         100000001         090323751         080323221 1527                                                                                                                                                   
670005900310013 04200 4143001ECH HEILIGENBERG    0320000RD500 MOLSHEIM      0430000GRESSWILLER         0420000010804010804                    0187      000000                                                                                                                                 120000001         110000001         100000001         090000001         080000001                                                                                                                                                        
670005700310013 04200 4813001ECH LUTZELHOUSE     0260333ECH HEILIGENBERG    0320655HEILIGENBERG Sud    0320000006007006007670005900300000000000187      000000                                                                                                                                 120000008         110000008         100000008         090000008         080000008                                                                                                                                                        
670005600310013 04200 4813001D392 SCHIRMECK      0190494ECH LUTZELHOUSE     0260333WISCHES             0250000007468007468670005900300000000000494      000000                                                                                                                                 120000008         110000008         100000008         090000008         080000008                                                                                                                                                        
670005300310013 04200 4813001Dept VOSGES         0000000D424 ST BLAISE      0090027BOURG BRUCHE        0030500009011009011670003800300000000000187      000000                                                                                                                                 120000008         110000008         100000008         090000008         080000008                                                                                                                                                        
670005200310013 00350 1110231LAUTERBOURG FRONTIER2000000D28 SELTZ           2100996LAUTERBOURG Front.  2000800010967010967670003800300000000000494      009041 1848    007224   007751   008641   009208   010078   010688   011417   010205   009256   008903   007773   007249               120099711 2178    110098921 2598    100091871 2668    090078781 2607    080089651 1008    007497   008497   009732   011127   011239   011692   012200   011203   010455   010251   008389   007325                                      
670005100310013 00350 1810231D28 SELTZ           2100996D4 KAUFFENHEIM      2160041FORSTFELD           2140000005028005028          00000000000494      000000                                                                                                                                 120000008         110000008         100000008         090000008         080000008                                                                                                                                                        
670005000310013 00350 1110231D4 KAUFFENHEIM      2160041N63 ROUNTZENHEIM    2210572LEUTENHEIM          2180700005506005506          00000000000494      022912 2207    020190   020962   021959   023228   022977   023192   026053   024107   024306   024372   022307   021154               120233661         110222121 2477    100216901 2377    090205511 2237    080207991 2267    019068   019886   022260   025091   025625   026831   026891   022934   024272   024777   022388   020313                                      
670004900310013 00350 1810201N63 SOUFFLENHEIM    2210572D29 ROHRWLLER       2320173SESSENHEIM          2230000010564010564670005000300000000000494      015971                                                                                                                                 120162888         110000008         100000008         090143268         080144998                                                                                                                                                        
670004800310013 04220 4113001D62                 0180000A35                 0300656EPFIG Sud           0250300010641010641670005000300000000000187      000000                                                                                                                                 120000001         110000001         100000001         090000001         080000001                                                                                                                                                        
670004701310013 00350 1810231D29 ROHRWILLER      2320173D2 GAMBSHEIM        2360419HERLISHEIM Ouest    2340000004232004232          00000000000187      000000                                                                                                                                 120000008         110000008         100000008         090000008         080000008                                                                                                                                                        
670004600310013 00350 1810231D2 GAMBSHEIM        2360419D37 HOERDT          2450611KILSTETT            2400000009156009156670502000300000000000187      025327                                                                                                                                 120255948         110000008         100000008         090242798         080240898                                                                                                                                                        
670004300310013 00830 4150201N353 ROCADE SUD     0390442A35 ILLKIRCH        0410949ILLKIRCH ELISA      0400000002522002552670502000300000000000187      060530 1017    057963   058294   061678   062579   060410   063666   062158   054862   062343   064020   059739   058627               120616051         110618851 0927    100631061 0937    090637511         080640421         058184   059721   062034   061568   063433   065167   061549   057563   064166   064596   061161   060174                                      
670004200310013 00830 4110201D221 FEGERSHEIM     0360758N353 ROCADE SUD     0390442FEGERSHEIM          0390000002679000000670502000300000000000187      037126 0747    036329   035972   038071   038315   036978   038996   037429   032979   038258   038769   037022   036410               120381011         110382601 0797    100397311 0887    090401111         080403791         036389   037130   038458   038235   037504   040488   038239   034715   039991   039700   038273   038179                                      
670003900310013 00830 4810201D5 BENFELD          0210910D426 ERSTEIN        0280851MATZENHEIM          0250000006755006755670003400300000000000187      000000                                                                                                                                 120000008         110000008         100000008         090000008         080000008                                                                                                                                                        
670003800310013 04200 4113001D424 ST BLAISE      0090027D392 SCHIRMECK      0190494ROTHAU Sud          0130500010477010477670003400300000000000187      000000                                                                                                                                 120000001         110000001         100000001         090000001         080000001                                                                                                                                                        
670003701310013 00830 4810201N1083 EBERSMU       0130999D5 BENFELD          0210910KOGENHEIM SUD       0190000007919007919          00000000000187      000000                                                                                                                                 120000008         110000008         100000008         090000008         080000008                                                                                                                                                        
670003700310013 00830 4813001N422 SELESTAT       0070216N1083 EBERSMUNSTER  0130999EBERSHEIM SUD       0100000006742006742670003400300000000000187      000000                                                                                                                                 120000008         110000008         100000008         090000008         080000008                                                                                                                                                        
670003600310013 00830 4843001RN59 SELESTAT       0040873RN422 SELESTAT      0070216SELESTAT NORD       0070000002332000000670501800300000000000187      000000                                                                                                                                 120000008         110000008         100000008         090000008         080000008                                                                                                                                                        
670003500310013 00830 4843001D424 SELESTAT SUD   0030432N59 SELESTAT        0040873SELESTAT SUD        0040000001297000000670501800300000000000187      000000                                                                                                                                 120000008         110000008         100000008         090000008         080000008                                                                                                                                                        
670003401310013 00830 4810201N83 DEPT HAUT-RHIN  0000000D424 SELESTAT SUD   0030557SELESTAT SUD        0020000003457003457          00000000000187      000000                                                                                                                                 120000008         110000008         100000008         090000008         080000008                                                                                                                                                        
670003400310013 00830 4110201D426 ERSTEIN        0280851D221 FEGERSHEIM     0360770HINDISHEIM          0340000007941007941          00000000000187      000000                                                                                                                                 120000001         110000001         100000001         090000001         080000001                                                                                                                                                        
670003200310013 00630 4813001N62 HAGUENAU        0210868N1063 HAGUENAU      0250000HAGUENAU            0240000003200000000          00000000000494      000000                                                                                                                                 120000008         110000008         100000008         090000008         080000008                                                                                                                                                        
670003100310013 00630 4853001D263                0180000N62 HAGUENAU        0210868HAGUENAU            0200000003086000000          00000000000187      000000                                                                                                                                 120000008         110000008         100000008         090000008         080000008                                                                                                                                                        
670003000310013 20630 5813001BRUMATH NORD        0100858D44                 0180700NIEDERSCHAFFOLSHEIM 0160000007842007842670002300300000000000187      000000                                                                                                                                 120000008         110000008         100000008         090000008         080000008                                                                                                                                                        
670002900310013 02630 5843001ECH. A4             0070000BRUMATH SUD         0100858BRUMATH SUD         0100702003858000000670001900300000000000187      000000                                                                                                                                 120000008         110000008         100000008         090000008         080000008                                                                                                                                                        
670002700310013 20630 4851001D263                0000000D64 LAMPERTHEIM     0010900VENDENHEIM          0010900001900001900670001900300000000000187      000000                                                                                                                                 120000008         110000008         100000008         090000008         080000008                                                                                                                                                        
670002600310013 00620 4813001D28 NIEDERBRONN     0190394DEPT MOSELLE        0240936NIEDERBRONN         0230000005527005527670001600357000760030187      000000                                                                                                                                 120000008         110000008         100000008         090000008         080000008                                                                                                                                                        
670002500310013 00620 4813001D148 MERTZWILLER    0090240D28 NIEDERBRONN     0190394REICHSHOFFEN        0160000010155010155670001600300000000000187      000000                                                                                                                                 120000008         110000008         100000008         090000008         080000008                                                                                                                                                        
670002310310013 00630 4812001D37 SOUFFLENHEIM    0350191A35 ROUNTZENHEIM    0380477SOUFFLENHEIM        0370000003270003270          00000000000704      000000                                                                                                                                 120000008         110000008         100000008         090000008         080000008                                                                                                                                                        
670002303310013 10630 4813001Rohrwiller Ouest    0360000Rohrwiller Est      0361652Rohrwiller          0360500001652001652          00000000000405      000000                                                                                                                                 120000008         110000008         100000008         090000008         080000008                                                                                                                                                        
670002302310013 10630 4110201N340 HAGUENAU       0070000N62 HAGUENAU        0110410SCHWEIGHOUSE        0100700004210004210          00000000000500      000000                                                                                                                                 120000001         110000001         100000001         090000001         080000001                                                                                                                                                        
670002301310013 00620 4853001HAGUENAU CENTRE     0000000RN63 CONT HAGUENAU  0020000HAGUENAU            0010000002000000000670001600300000000000187      000000                                                                                                                                 120000008         110000008         100000008         090000008         080000008                                                                                                                                                        
670002300310013 00630 4112001N1063 HAGUENAU      0250000D37 SOUFFLENHEIM    0350191HAGUENAU MF         0280000010443010443670001600300000000000187      000000                                                                                                                                 120000001         110000001         100000001         090000001         080000001                                                                                                                                                        
670002200310013 00610 4113001D8 SARRE UNION      0160587DEPT MOSELLE        0220713KESKASTEL           0180500006083006083670001600300000000000187      000000                                                                                                                                 120000001         110000001         100000001         090000001         080000001                                                                                                                                                        
670002100310013 00610 4813001ACCES A4            0120681D8 SARRE UNION      0160587SARRE UNION         0150000003904003904670002200300000000000187      000000                                                                                                                                 120000008         110000008         100000008         090000008         080000008                                                                                                                                                        
670002000310013 00610 4813001D40 - PIOA          0050235ACCES A4            0120681GUNGWILLER          0090200007414007414670002200300000000000187      000000                                                                                                                                 120000008         110000008         100000008         090000008         080000008                                                                                                                                                        
670001901310013 00610 4813001DEPT MOSELLE        0000000D40 DRULINGEN       0050235SIEWILLER           0020000005228005228          00000000000403      000000                                                                                                                                 120000008         110000008         100000008         090000008         080000008                                                                                                                                                        
670001900310013 20630 4143001GIRATOIRE A4        0000000D226 ECHANGEUR A4   0060797VENDENHEIM          0030500006217006217          00000000000187      000000                                                                                                                                 120000001         110000001         100000001         090000001         080000001                                                                                                                                                        
670001800310013 00590 4843001SELESTAT ENTREE     0080177N83 SELESTAT        0090607SELESTAT            0090100003613000000          00000000000187      000000                                                                                                                                 120000008         110000008         100000008         090000008         080000008                                                                                                                                                        
670001700310013 00590 4813001D424 CHATENOIS      0040115SELESTAT ENTREE     0080177CHATENOIS           0060500003890003890          00000000000187      000000                                                                                                                                 120000008         110000008         100000008         090000008         080000008                                                                                                                                                        
670001601310013 00590 4813001DEPT HAUT-RHIN      0000000D424 CHATENOIS      0040115LA VANCELLE         0000250004095004095          00000000000187      000000                                                                                                                                 120000008         110000008         100000008         090000008         080000008                                                                                                                                                        
670001600310013 00620 4113001N63 CONT HAGUENAU   0020000D148 MERTZWILLER    0090240MERTZWILLER         0080800007349007349          00000000000187      000000                                                                                                                                 120000001         110000001         100000001         090000001         080000001                                                                                                                                                        
670001100310013 00040 4815001D228 MUSAU          0360551A351 WOLFISHEIM     0380315WOLFISHEIM OUEST    0370000001759001759670501500300000000000494      025629                                                                                                                                 120250838         110000008         100000008         090251108         080252868                                                                                                                                                        
670001000310013 00040 4815001D222 ITTENHEIM      0320946D228 MUSAU          0360551ITTENHEIM           0350000003609003609670501500300000000000187      021784                                                                                                                                 120213208         110000008         100000008         090213438         080214938                                                                                                                                                        
670000900310013 00040 4815001D30 FURDENHEIM      0300067D222 ITTENHEIM      0320946HANDSCHUHEIM        0310500002877002877670000500300000000000187      000000                                                                                                                                 120000008         110000008         100000008         090000008         080000008                                                                                                                                                        
670000801310013 00040 4814001D422 MARLENHEIM     0230423D30 FURDENHEIM      0300067FURDENHEIM          0280000006643006643670000500300000000000187      000000                                                                                                                                 120000008         110000008         100000008         090000008         080000008                                                                                                                                                        
670000800310013 00040 4157001STRASBOURG          0490059FRONTIERE           0500366PONT DE L'EUROPE    0500300001331000000670000500300000000000187      000000                                                                                                                                 120000001         110000001         100000001         090000001         080000001                                                                                                                                                        
670000600310013 00040 4815001D229 MARMOUTIER     0120437D112 WASSELONNE     0200053CRASTATT            0160000007615007615          00000000000187      000000                                                                                                                                 120000008         110000008         100000008         090000008         080000008                                                                                                                                                        
670000501310013 00040 4815001N404                0090575D229 MARMOUTIER     0120437MARMOUTIER          0100300002867002867          00000000000187      000000                                                                                                                                 120000008         110000008         100000008         090000008         080000008                                                                                                                                                        
670000500310013 00040 4115001D112 WASSELONNE     0200053D422 MARLENHEIM     0230423WASSELONNE          0230000003388003388          00000000000187      000000                                                                                                                                 120000001         110000001         100000001         090000001         080000001                                                                                                                                                        
670000400310013 00040 4143001SORTIE AGGLO SAVERNE0080000N404                0090000SAVERNE             0090000001562000000                    0187      000000                                                                                                                                 120000001         110000001         100000001         090000001         080000001                                                                                                                                                        
670000200310013 00040 4843001ENTREE AGGLO SAVERNE0040900SORTIE AGGLO SAVERNE0080000SAVERNE             0060000001100000000670000500300000000000187      000000                                                                                                                                 120000008         110000008         100000008         090000008         080000008                                                                                                                                                        
670000100310013 00040 4113001DEPT MOSELLE        0000000ENTREE AGGLO SAVERNE0040900COL DE SAVERNE      0000800004900004900670000500357000270030187      000000                                                                                                                                 120000001         110000001         100000001         090000001         080000001                                                                                                                                                        
