890003000310013 01510 4112001COURSON             0120000AUXERRE             0330650VALLAN              0310485021650000000890003000300000000000309      006107 1077    005163   005223   005885   006136   006346   006577   006931   006684   006458   006300   005818   005700               120000001         110064711 1157    100064241 1117    090066471         080066051 1107                                                                                                                                                   
890002900310013 01510 4812001Dpt. 58             0000000Courson             0120000Fretoy              0070000012000000000890003000300000000000309      004508                                                                                                                                 120000008         110047778         100047438         090049088         080048778                                                                                                                                                        
890002700310013 00770 4813001ST FLORENTIN        0290000AUBE                0400602Les Buissons        0340000010664000000890002300300000000000195      005890                                                                                                                                 120000008         110068128         100063378         090060178         080064398                                                                                                                                                        
890002300310013 00770 4113001RD203               0050053ST_FLORENTIN        0290000PONTIGNY            0190600023504000000890002300300000000000379      004041 1837    003300   003333   003625   004192   004406   004837   004369   004942   004356   004217   003517   003363               120000001         110046731 1727    100043471 1827    090041271         080044161 1707                                                                                                                                                   
890002299310013 00770 4853001AUXERRE             0000000RD203               0050053Auxerre RN77        0010000005067005067890002300300000000000195      004111                                                                                                                                 120000008         110047558         100044248         090042018         080044968                                                                                                                                                        
890002200310013 00650 4112001A6                  0000000AUXERRE             0041653VENOY               0030200005653000000890002300300000000000309      007910 1007    007332   007526   007947   008134   008099   008306   008165   007462   008334   008233   007772   007601               120000001         110083431    7    100081871    7    090083471         080083821                                                                                                                                                        
890001001310013 00060 4812001Périgny             0820282RN65                0880140Auxerre RN6         0860000005858000000890001000300000000000309      011948                                                                                                                                 120000008         110120388         100120488         090119238         080123098                                                                                                                                                        
890001000310013 00060 4112001APPOIGNY            0780000PERIGNY             0820282CHESNEZ             0810785005000000000890001000300000000000309      023544 0947    021741   022521   024221   023151   023655   025038   023867   021052   024050   025179   024221   023804               120000001         110237211    7    100237401    7    090234931         080242531    7                                                                                                                                                   
730002700310013 02010 4110401LA BOISSE           0040600VILLARCHER RN504    0080720CHAMBERY_VRU        0050400004414000000890001000300000000000200      099593 0797    097073   102027   108243   101927   094811   100942   102537   098895   099823   100662   093383   094954               120000001         111000161         100996651    7    090978921    7    080969161    7                                                                                                                                                   
730002600310013 02010 4110401A43 SUD             0000000LA BOISSE           0040600MONTS               0030380004680000000890001000300000000000200      000000                                                                                                                                 120000001         110887911    7    100869531    7    090847691    7    080828981    7                                                                                                                                                   
730002200310013 00900 4113001AIME                0640690BOURG_ST_MAURICE    0750550BONCONSEIL          0720400011434000000890001000300000000000200      009654 0667    010180   011392   012266   010254   007393   008412   010570   010728   008038   007917   008184   010560               120000001         110097391    7    100096471    7    090097711    7    080097061                                                                                                                                                        
730002102310013 00900 4113001MONGIROD            0580585AIME                0640690PT_DE_LA_TOUR       0610522006105000000890001000300000000000200      012185 0977    013294   014974   016731   012329   009085   010290   012455   013092   010197   010267   010335   013261               120000001         110122201 1147    100121481 1207    090122871 1217    080120361 1167                                                                                                                                                   
730002101310013 00900 4113001ST_MARCEL           0550250MONTGIROD           0580585TUNNEL_SIAIX        0560770003335000000890001000300000000000200      011362 0567    012351   014455   015654   011556   008480   008918   011838   012369   009414   009529   009264   012620               120000001         110113751    7    100111971         090112961    7    080000001                                                                                                                                                        
730002100310013 00900 4113001MOUTIERS            0500000ST_MARCEL           0550250MOUTIERS_EST        0500865005250000000890001000300000000000200      013667 0777    014497   016644   017925   013972   010508   011728   013916   014590   011798   011982   011557   014994               120000001         110138201    7    100137611    7    090138401    7    080137301    7                                                                                                                                                   
730002000310013 00900 4110101FEISSONS/ISERE      0400500MOUTIERS            0500000LA_LECHERE          0410800009538000000890001000300000000000200      019768 0557    023021   026212   028835   020789   014071   014924   018607   020225   015678   015497   015757   023848               120000001         110201621    7    100196631    7    090200461    7    080000001                                                                                                                                                        
730001900310013 00900 4110101PIERRE_DU_ROY       0230980FEISSONS/ISERE      0400500CEVINS              0340000016546000000890001000300000000001291      024477 0587    027126   030955   033013   025078   018922   020482   023660   024482   020778   021116   020570   027820               120000001         110240101    7    100231601    7    090233201    7    080232561    7                                                                                                                                                   
730001800310013 00900 4110201BORNERY CAR. RD990  0190000PIERRE_DU_ROY RN212 0230980GILLY/ISERE         0200020004538000000890001000300000000001200      031470 0717    033240   037265   039331   031546   026359   027314   032191   032581   028702   028803   027346   033175               120000001         110314531    7    100309151    7    090298261    7    080291801    7                                                                                                                                                   
710003700310013 00790 4112001CHARNAY_LES_MACON   0780800MACON               0800108VARENNES            0790800002900000000890001000300000000000309      013586 2427    010883   012248   012752   012976   012688   013561   016846   018262   014500   013619   012165   012369               120000001         110109421 2417    100088891 2287    090094551         080096901 2187                                                                                                                                                   
710003600310013 00790 4112001LA ROCHE VINEUSE    0700850CHARNAY_LES_MACON   0780800PRISSE              0730800007800000000890001000300000000000309      015225 2327    012653   014979   014863   015126   014950   015523   018085   018033   015196   015185   013879   014166               120000001         110150941 2357    100145881 2397    090138281         080140191                                                                                                                                                        
710002900310013 00800 4112001SAINT_DESERT        0200700ECUISSES            0390385LES_BAUDOTS         0320720018685000000890001000300000000000309      018808 2018    016272   015673   017517   018417   018835   020051   021082   020723   020565   020854   018194   017267               120000001         110000001         100186191 2227    090178241         080178771 2268                                                                                                                                                   
710002800310013 00800 4112001Saint Rémy          0110000Saint Désert        0200700GIVRY               0190000009700000000890001000300000000000309      020464         018366   017385   019971   021024   020832   021744   023026   022311   021069   020917   019326   019344               120000001         110000001         100209491         090000001         080000001                                                                                                                                                        
710002600310013 00790 4112001STE_CECILE          0610440LA ROCHE VINEUSE    0700850LE_BOISCLAIR        0640200009500000000890001000300000000000309      000000                                                                                                                                 120000001         110000001         100000001         090180381         080181181                                                                                                                                                        
710002500310013 00790 4112001BRANDON             0540250STE_CECILE          0610440STE_CECILE          0590400007250000000890001000300000000000309      012251 2647    010167   012316   011803   011924   011933   012400   014913   015287   012029   011924   011046   011220               120000001         110125551 2607    100125941 2597    090120121         080118971                                                                                                                                                        
710002300310013 00790 4812001Charolles           0260700BRANDON             0540250La Fourche          0330000027550000000710002600300000000000311      000000                                                                                                                                 120000008         110000008         100000008         090122158         080122708                                                                                                                                                        
710002200310013 00790 4812001Les Cadolles        0180250Charolles           0260700La Redoute          0190550008450000000710001900300000000000309      015814                                                                                                                                 120000008         110159668         100157278         090145578         080137168                                                                                                                                                        
710002100310013 00790 4112001PARAY OUEST         0080135LES CADOLLES        0180250VOLESVRES           0160200010115000000710001900300000000000309      010452 2937    008672   011223   010107   010278   010137   010218   012280   013181   010280   010039   009269   009753               120000001         110102571 2937    100100191 2957    090095481         080097521 3167                                                                                                                                                   
710001900310013 00790 4112001Dpt. 03             0000000PARAY OUEST         0080135CHIZEUIL            0040800008135000000710001900300000000000309      016524 1218    013021   013886   015547   016157   015934   016804   020957   023595   017020   015925   014269   014856               120000001         110166821 3507    100164321 3517    090152091         080143301                                                                                                                                                        
710001000310013 00700 4812001SAINT VALLIER       0290250RN80 Rond Point J Ba0471018Pont des Morands    0470000019277000000710000800300000000000311      000000                                                                                                                                 120000008         110184738         100183938         090000008         080182218                                                                                                                                                        
710000800310013 00700 4112001GENELARD            0190750ST_VALLIER          0290250ROZELAY             0270800009500000000710000800300000000000309      000000                                                                                                                                 120000001         110181001 2267    100180211         090000001         080178521                                                                                                                                                        
710000700310013 00700 4812001Paray le Monial     0050000Genelard            0190750St-Vincent-de-Bragny0110750014450000000710002100300000000000309      012039                                                                                                                                 120000008         110118158         100115418         090109998         080103648                                                                                                                                                        
690502000310013 00470 1110231A7                  0000000Ech.ENTREE 11       0130990GIVORS_COMMERC      0040450014500000000710002100300000000000205      056231 1347    053042   053763   056490   057689   055417   058174   061316   056457   058144   058376   051790   053897               120000001         110604151         100602831         090000001         080604501                                                                                                                                                        
690501702310013 04500 1110441PIERRE_BENITE       0000000BRIGNAIS            0070969IRIGNY              0020800007969000000710002100300000000000206      053960 0727    053511   054523   055242   056213   052913   056986   055085   041303   055358   058007   054703   053972               120000001         110531181    7    100522631    7    090512271         080503941                                                                                                                                                        
690501501310013 00430 1150441MERMOZ              0000000SORTIE BD DU 8 MAI  0030401ECH_8_MAI           0020500003400003400710002100300000000000206      131936 0417    129380   132921   135679   134164   126793   136379   136395   112256   136487   140138   131449   131643               120000001         111277841    7    101273081    7    091372141    7    081371541                                                                                                                                                        
690501203310013 00420 1110241PONT CROIX_LUIZET   0000000Ech. MIRIBEL        0040329GRAPPINIERE         0020000004329000000710002100300000000000206      000000                                                                                                                                 120000001         110938511    7    100911131    7    090908531    7    080906771                                                                                                                                                        
690501101310013 00070 1110441Ech. RD36 SOLAIZE   0130350Ech. A47 GIVORS     0200330COMMUNAY            0160830006980000000710002100300000000000206      094179 0897    081759   083352   087280   094468   095208   102641   108616   103884   099127   097221   087028   088733               120000001         110967001    7    100956701 1087    090931531 1067    080928261 106                                                                                                                                                    
690500900310013 00070 1150441Ech. P.B.S. A74     0060440Ech. RD36 SOLAIZE   0130350ST_FONS             0070918006910006910710002100300000000000206      140290 0857    128637   130960   137479   141782   139899   150417   155325   138980   145504   146219   133559   134138               120000001         111434571    7    101401761    7    091374141    7    081384421                                                                                                                                                        
690500702310013 00070 1150441SORTIE QUAI SEMARD  0040200Ech. P.B.S. A74     0060440PIERRE_BENITE       0040750002240002240710002100300000000001294      105090 0657    098964   100810   104602   107558   103690   109698   113311   100395   106584   109631   102436   103178               120000001         111060381    7    100000001         091039661    7    081048651                                                                                                                                                        
690500600310013 00070 1150441PONT LA MULATIERE NO0010527SORTIE QUAI SEMARD  0040200MULATIERE           0020500002673002673710002100300000000000206      098070 0707    089106   090513   094075   097010   093666   098442   102246   091695   096516   104412   108908   109796               120000001         110942481    7    100000001         090000001         080936571    7                                                                                                                                                   
690500501310013 00070 1150441RUE M.A. PETIT      0000000PONT LA MULATIERE NO0010527QUAI_PERRACHE       0010220001527001527710002100300000000001294      105724 0857    102079   103141   106093   105919   101398   106130   107648   098907   110162   111505   108875   106838               120000001         111096751    7    101087611    7    091076441    7    081055361                                                                                                                                                        
690500400310013 00060 1150241TUNNEL FOURVIERE    4540000TREMIE PERRACHE SUD 4550616FOURVIERE_SUD       4540800001616001616710002100300000000000206      096236 0757    092548   094535   098529   099662   095027   099343   100438   095909   095780   098807   092415   091745               120000001         111039821    7    101014971    7    091024411         081009781                                                                                                                                                        
690500200310013 00060 1150741Ech. ECULLY SUD     4490200TUNNEL FOURVIERE    4540000ECULLY              4500720004800004800710002100300000000000200      118544 0587    110532   113069   116685   121321   116610   122263   125965   117335   122905   123309   114447   117785               120000001         111180291    7    101147521    7    091172421    7    081148781                                                                                                                                                        
690500105310013 00060 1150441DARDILLY LE TRONCHON4470520Ech. ECULLY SUD     4490200CHAMPAGNE           4480590001680001680710002100300000000000200      105540 0647    095142   097556   103267   106646   105335   109661   114986   108628   110225   109223   101237   103984               120000001         111059051    7    101081811    7    091058421    7    081029431                                                                                                                                                        
690500103310013 00060 1110741Ech. LIMONEST       4450323DARDILLY LE TRONCHON4470520DARDILLY            4460690002520000000710002100300000000000188      086184 0717    075913   079608   083745   088043   086668   091431   097244   094576   090000   085121   081079   080329               120000001         110868841    7    100872971    7    090860941    7    080835251                                                                                                                                                        
690020800310013 04890 4110201Ech. RN7            0000000Ech. RN6            0020624DARDILLY_DEV        0010500002624000000710002100300000000000206      028107 0737    023067   026086   028102   029225   027972   029917   030917   027132   026845   030385   028286   029204               120000001         110233561    7    100229871         090228241    7    080224731                                                                                                                                                        
690006800310013 03460 4110201Ech. GD LARGE N RD510320000Ech. MI_PLAINE N RN60400883ST_PRIEST           0390485008883000000710002100300000000001094      078822 1837    075201   078465   080336   081086   076772   078268   087747   074076   082099   082104   075836   073906               120000001         110794731 1877    100816201 1837    090000001         080833411 1867                                                                                                                                                   
690006200310013 03460 4110201Ech. RIZE SUD RD55  0250000Ech. GD LARGE N RD510320000LAMARTINE           0310495007000000000710002100300000000001094      072900 1927    067753   071155   071533   074150   073848   076874   083742   070235   073371   073415   069440   069181               120000001         110749601 1867    100771491 1867    090777531 2047    080787571 206                                                                                                                                                    
690002500310013 00070 4813001Ech. A46 Sud        0730000Dpt. 38             0760349Communay Les Pins Te0750000002348000000000000000000000000000206      000000                                                                                                                                 120000008         110000008         100000008         090000008         080000008                                                                                                                                                        
690001801310013 00070 4113001Carf. RD73 Arb.     0280189Entrée TASSIN       0400890FLEURIEUX           0310600012291000000000000000000000000000206      014681 0787    015742   014063   014414   014931   014358   015390   014832   012315   015049   015371   014548   015130               120000001         110000001         100000001         090177281         080192931                                                                                                                                                        
690001700310013 00070 4813001Carf. RD38          0180360Carf. RD73Arb       0280189Bully Temporaire    0240100009829000000690001600300000000000206      012023                                                                                                                                 120000008         110148298         100146608         090000008         080000008                                                                                                                                                        
690001600310013 00070 4113001Dev. PONTCHARRA EST 0180000Carf. RD38          0180360PONTCHARRA          0180150000360000000690001600300000000000206      014434 0867    014781   013403   014162   014991   015069   015364   015283   012259   015028   015169   013978   013670               120000001         110178021    7    100175991         090000001         080000001                                                                                                                                                        
690001500310013 00070 4813001Dev. Pontcharra W   0150000Dev. Pontcharra E   0180000Pontcharra dév. Temp0170000003000000000690001600300000000000206      012026                                                                                                                                 120000008         110148338         100146648         090000008         080000008                                                                                                                                                        
690001400310013 00070 4843001Entrée Tarare Ouest 0100250Dev. Pontcharra W   0150000Tarare Temporaire   0120000004750004750690001600300000000000206      006668                                                                                                                                 120000008         110082258         100081328         090000008         080000008                                                                                                                                                        
690001300310013 00070 4115001COL DU PIN BOUCHAIN 0000000Entrée TARARE OUEST 0100250TARARE_OUEST        0090150010250000000690001600300000000000200      006092         005964   005420   005977   006548   006251   006443   006577   005912   006424   006273            005558               120000001         110000001         100070771         090000001         080000001                                                                                                                                                        
690000601310013 00060 4140201Ech. RD73D          0400000Ech. A6 DARDILLY    0420150DARDILLY_LES_BROSSES0410000002030002030690001600300000000000206      000000                                                                                                                                 120000001         110000001         100000001         090000001         080493161                                                                                                                                                        
580002701310013 01510 4112001Sud Dev.            0510878Dpt. 89             0580730CLAMECY             0530532006852000000690001600300000000000311      003104 2487    002341   002454   002785   003082   003225   003396   003974   003987   003383   003163   002767   002633               120000001         110000001         100032481         090032781         080032361                                                                                                                                                        
580002600310013 01510 4813001VARZY               0350958CLAMECY-NORD        0510878St-Pierre-du-Mont   0400000019090000000580002500300000000000311      002129                                                                                                                                 120000008         110022728         100022528         090022418         080000008                                                                                                                                                        
580002500310013 01510 4112001CHATEAUNEUF V.BARGIS0200512VARZY               0350958LES_PONTOTS         0260000015446000000580002500300000000000309      002110 1448    001518   001655   001900   002110   002206   002305   002614   002751   002306   002170   001933   001810               120000001         110022511 2157    100022311 1478    090022201 1448    080022511 1368                                                                                                                                                   
580002300310013 01510 4812001Dpt. 18             0000000CHATEAUNEUF V.BARGIS0200512La Charité          0010500020331000000580002500300000000000311      002042                                                                                                                                 120000008         110021798         100021608         090021508         080021818                                                                                                                                                        
580001200310013 00070 4112001ST_PIERRE           0920100Dpt. 03             1070760LE_MOUTIER          0950700015660000000580002500300000000000307      013712 3357    010276   011429   013040   013718   014036   014110   017077   018766   014322   013547   011830   012137               120000001         110140001 3367    100136491 3357    090000001         080136161 3297                                                                                                                                                   
580001101310013 00770 1110241NEVERS              1480000ST_PIERRE           1641118PLAGNY              1640200017200000000580002500300000000000507      013191 2027    010010   010645   012429   013755   014016   013982   015935   016866   014012   013142   011640   011630               120000001         110000001         100000001         090133101         080137151                                                                                                                                                        
580001007310013 00070 4812001Chaume des pendus   0770000St Pierre le Mtier  0920100Magny-Cours         0820000015100000000580001200300000000000309      012415                                                                                                                                 120000008         110126768         100123598         090000008         080123308                                                                                                                                                        
580000600310013 00770 1110241SUD LA MARCHE       1390600NEVERS              1480000PRIEZ               1440415008400000000580001200300000000000309      000000                                                                                                                                 120000001         110000001         100172181 1517    090169891 1288    080170421 1328                                                                                                                                                   
580000400310013 00770 1110241Dev. Cosne          1130900SUD LA MARCHE       1390600LA_CHARITE          1270640025700000000580001200300000000000307      013711 2007    010557   011313   013352   013904   014095   014183   016461   017166   014322   014005   012372   012572               120000001         110140641 1997    100136671 1967    090136871 1948    080134081 132                                                                                                                                                    
580000200310013 00770 1810241Maltaverne          1000500Dev. Cosne          1130900Cosne S/Loire       1050000013400000000000000000000000000000309      000000                                                                                                                                 120000008         110000008         100000008         090000008         080141128                                                                                                                                                        
420501300310013 00720 1110431Ech. RATARIEUX      0090210Ech. RN82 RD498     0170182LA_FOUILLOUSE       0120100007910000000000000000000000000000180      079397 0977    078838   077765   082086   083759   080403   086210   076750   067102   084220   086752   073716   075336               120000001         110849331    7    100823751    7    090000001         080797661                                                                                                                                                        
420500800310013 00720 1150231Ech. ST JEAN BONNEFO0000000Ech. RATARIEUX      0090210MEONS               0020750009140009140000000000000000000000190      081076 0917    080191   078638   083218   083295   079559   084970   084605   072760   084328   085401   076066   079793               120000001         110861241    7    100854291    7    090000001         080000001                                                                                                                                                        
420500700310013 00470 1110231Ech. COUZON         0230000Ech. LA VARIZELLE   0291316PARADIS             0280730007340000000000000000000000000000191      064363 1187    060506   060829   065256   063967   063618   068002   069739   062199   067163   068875   060076   061844               120000001         110689681 1177    100676261 1187    090667961 1197    080665071 1237                                                                                                                                                   
420500500310013 00470 1110231Ech. LA MADELEINE   0140000Ech.COUZON          0230000GRAND_CROIX         0220000008478000000000000000000000000000180      074682 1037    070847   071577   076030   076301   073860   078944   079789   070302   077860   078235   070115   072165               120000001         110792991 1097    100778821 1107    090768211 1097    080761231 1137                                                                                                                                                   
420008400310013 00880 4150201Ech. CHAZEAU        0510300Dpt. 43             0520400CHAZEAU             0520200001100001100000000000000000000000184      027005 0647    024506   023898   026535   027029   027343   028923   029740   026680   029026   028906   025109   026129               120000001         110280861    7    100000001         090000001         080246001    7                                                                                                                                                   
420008300310013 00880 4150201Ech. FIRMINY CENTRE 0490350Ech. CHAZEAU        0510300LA_TARDIVE          0500200001950001950000000000000000000000184      028841         026328   025687   028376   028596   028883   030957   031892   027972   031201   031171   026827   027971               120000001         110298681         100292771    7    090290281    7    080285261    7                                                                                                                                                   
420008200310013 00880 4850201Ech. FIRMINY EST    0470720Ech. FIRMINY CENTRE 0490350Firminy Ouest       0480200001980001980420008000300000000000184      030586                                                                                                                                 120000008         110320118         100000008         090318418         080317518                                                                                                                                                        
420008100310013 00880 4850201Ech. CHAMBON FEUGERO0450224Ech. FIRMINY EST    0470720Chambon-Feugerolles 0460000002496002496420008000300000000000184      040113                                                                                                                                 120000008         110419868         100000008         090417808         080416648                                                                                                                                                        
420008000310013 00880 4110201Ech. CROIX DE L'ORM 0410000Ech. CHAMBON FEUGERO0450224SILARDIERE          0440600004224000000420008000100000000000184      059218 0487    057325   055520   060442   054489   059104   063800   063085   052739   062687   065093   056936   059069               120000001         110619721    7    100000001         090616271         080614491    7                                                                                                                                                   
420007900310013 00880 4850201Ech. DE LA DIGONNIER0390811Ech. CROIX DE L'ORM 0410000République          0390880001189001189420007200300000000000184      060929                                                                                                                                 120000008         110659488         100653518         090000008         080648838                                                                                                                                                        
420007800310013 00880 4850201Ech. LA RIVIERE     0390365Ech. DE LA DIGONNIER0390811Planfoy             0390370000446000446420007200300000000000184      066632                                                                                                                                 120000008         110720878         100715158         090000008         080709458                                                                                                                                                        
420007700310013 00880 4810201Ech. ROND POINT     0380463Ech. LA RIVIERE     0390365Tunnel              0380950000902000000420007200300000000000184      095911                                                                                                                                 120000008         111037638         101029398         090000008         081021198                                                                                                                                                        
420007600310013 00880 4150201Ech. MONTPLAISIR    0360782Ech. ROND POINT     0380463CONVENTION          0380000001681001681420007200100000000000180      072222 0497    070597   069276   073915   073407   071204   076625   074634   060556   076186   078608   069619   071976               120000001         110744361    7    100740751    7    090000001         080786081                                                                                                                                                        
420007500310013 00880 4110201Demi-éch. A72       0350500Ech. MONTPLAISIR    0360782JANON               0350700001282000000420007200100000000000184      068425 0477    067570   066381   070828   070596   067717   073148   065805   057350   072892   074124   066191   068594               120000001         110703681    7    100688051    7    090000001         080809341                                                                                                                                                        
420007400310013 00880 4110201Bif. RN488          0340840Demi-éch. A72       0350500TERRENOIRE_2        0340900000660000000420007200100000000000184      029208 0567    027389   027268   029540   029958   028941   031411   030906   025865   031136   031732   027933   028338               120000001         110299541    7    100295081    7    090000001         080317061                                                                                                                                                        
420007200310013 00880 4110201Fin contour. ST_CHAM0300000Bif. RN488          0340840ST-CHAMOND_M 1      0300600006093000000420007200100000000000311      072319 1037    070128   070215   074527   074917   072323   077072   075666   066045   074500   075326   067110   069930               120000001         110782161 1017    100776491 1047    090000001         080769911    7                                                                                                                                                   
420006100310013 04880 4850201A72                 0010050Agglo. ST_ETIENNE   0011442Compteur temporaire 0010500001392001392420007200100000000000180      017555                                                                                                                                 120000008         110190718         100187338         090000008         080187178    7                                                                                                                                                   
420006000310013 04880 4110201Carf. RN88          0000000Bretelle A72        0010050TERRENOIRE_1        0000100001050000000420007200100000000000180      046842 1167    045948   045560   048070   047950   045992   048531   049915   045184   048077   048145   042830   045773               120000001         110516151 1187    100509461 1227    090000001         080513401                                                                                                                                                        
420001000310013 00820 4112001RN7                 0000000A89                 0160926BALBIGNY            0150950016926000000420007200100000000000408      007497 1367    006806   006797   007609   007714   007507   008036   008024   007318   007837   007760   007137   007377               120000001         110132621 1937    100126931 1907    090126311         080000001                                                                                                                                                        
420000500310013 00070 4113001Carf. RN82          0410735Dpt. 69             0591003NEAUX               0410800018267000000420007200100000000000206      006926 1117    006671   005989   006378   007143   006646   006943   007189   006617   007079   006999   007715   007689               120000001         110084461 1247    100083691 1257    090084651 1087    080092491 107                                                                                                                                                    
420000400310013 00070 4110101Contour. ROANNE     0300515Carf. RN82          0410735ST_VINCENT          0360650017015000000420007200100000000000309      020933 1418    018951   019114   020782   021789   020980   022349   021582   021383   021953   022037   021024   019177               120000001         110208421 1527    100203121 1547    090204081         080000001                                                                                                                                                        
420000200310013 00070 4813001CHANGY              0130500Contour. ROANNE     0300515St-Romain-la-Motte  0220500017015000000420000100342000010030180      000000                                                                                                                                 120000008         110000008         100000008         090055288         080000008                                                                                                                                                        
420000100310013 00070 4112001Dpt. 03             0000000RD8                 0130500CHANGY              0130420013500000000420000100300000000000307      000000                                                                                                                                 120000001         110000001         100000001         090088341 2397    080088811 2427                                                                                                                                                   
380501200310013 04800 1150231CLAIX               0110950VARCES RN75         0120430CLAIX               0120700000750000750420000100300000000000600      000000                                                                                                                                 120000001         110358171    7    100331921    7    090331831         080326601                                                                                                                                                        
380501100310013 04800 1150231PONT_DE_CLAIX       0100100CLAIX               0110950DRAC                0110200001850001850420000100300000000001104      042871 0337    039498   039860   041757   043042   043431   045901   046177   041189   045137   044924   042087   041308               120000001         110420941         100405811    7    090402641         080000001                                                                                                                                                        
380501020310013 04800 1150231ZI COMBOIRE         0090000PONT_DE_CLAIX       0100100LE_PARC             0090500001675001675420000100300000000000600      064520 0517    060629   061873   064847   064285   063997   067839   071653   064467   066901   065585   060623   061330               120000001         110643821    7    100637241    7    090642741         080000001                                                                                                                                                        
380501010310013 04800 1114031RONDEAU             0070400ZI COMBOIRE         0090000COMBOIRE            0070900002300000000420000100300000000000204      089822 0467    085828   086324   089509   090621   088149   092074   096738   087617   091867   092749   087445   088687               120000001         110913811    7    100898761    7    090907941         080900391                                                                                                                                                        
380501000310013 04800 1150231LOUISE_MICHEL       0060350RONDEAU             0070400LOUISE_MICHEL       0060500001050001050420000100300000000000600      085509 0777    083483   085188   087666   085791   085507   087839   089382   084245   085440   086327   082938   082273               120000001         110833421    7    100823931    7    090779621         080822881                                                                                                                                                        
380500920310013 04800 1150231CATANE              0050000LOUISE_MICHEL       0060350MISTRAL             0050800001350001350420000100300000000001104      100573 0627    098443   100185   101705   101192   099248   102432   104313   097276   103287   103609   098095   097139               120000001         111008621    7    101000051    7    090979901         081020681                                                                                                                                                        
380500910310013 04800 1150231FONTAINE VERCORS    0030650CATANE              0050000CATANE              0040250001350001350420000100300000000000103      096537 0647    093580   095470   098634   097709   093908   100543   102451   091597   098468   099142   093564   093404               120000001         110939961    7    100940801    7    090950341         081044701                                                                                                                                                        
380500905310013 04800 1150231LES_MARTYRS         0010275FONTAINE VERCORS    0030650CENG                0020850002375002375420000100300000000000600      083721 0757    081420   082985   086147   085071   082303   087652   086728   078571   085166   086195   081063   081419               120000001         110825771    7    100807391    7    090809421         080909021                                                                                                                                                        
380500900310013 04800 1110241Bif. A48/A480       0000000LES_MARTYRS         0010275LES_MARTYRS         0010050002000000000420000100300000000000403      075970 0807    073047   074750   078384   077140   075447   079307   080295   072905   077256   077012   072402   073647               120000001         110752351    7    100742001    7    090745441         080000001                                                                                                                                                        
380500800310013 04810 4150241PICQUE_PIERRE       0960300PORTE DE FRANCE     0971000PICQUE-PIERRE       0970000004779004779420000100300000000000600      000000                                                                                                                                 120000001         110293501    7    100000001         090342581         080346021                                                                                                                                                        
380500610310013 04810 4110241Bif. A48/A480       0930369PICQUE_PIERRE       0960300BELLECROIX          0950100002000000000420000100300000000000403      036907 0387    036520   038580   040488   039955   035043   036797   037328   031946   036969   038061   035374   036032               120000001         110405071    7    100417981    7    090421501         080422311                                                                                                                                                        
380500600310013 00480 1150231ST_EGREVE NORD      0910000Bif. A48/A480       0930369ST_EGREVE           0920800002369002369420000100300000000000600      092969 0797    089541   092537   096624   094157   092389   096359   098521   088511   094270   094432   087837   090424               120000001         110000001         100000001         090000001         080993061    7                                                                                                                                                   
380004050310013 00870 4113001ST_MARTIN_D'HERES P 0080000A41                 0111050MEYLAN              0090200003390000000420000100300000000000407      000000                                                                                                                                 120000001         110774241    7    100000001         090758111         080755751                                                                                                                                                        
380004040310013 00870 4113001SMH                 0060000ST_MARTIN_D'HERES P 0080000ST_MARTIN_D_HERES   0070300002000000000420000100300000000000407      082028 0547    080548   080779   082127   083392   081941   085549   084328   072829   085821   085780   081587   079791               120000001         110000001         100803961    7    090802281         080805341                                                                                                                                                        
380004035310013 00870 4110101EYBENS              0040250ST_MARTIN_D'HERES   0060000POISAT              0050100001750000000420000100300000000000403      089143 0557    087326   087599   089172   090839   089408   092815   091734   079606   092827   093142   088638   086741               120000001         110000001         100000001         090000001         080901261                                                                                                                                                        
380004030310013 00870 4113001ALPEXPO             0030500EYBENS              0040250EYBENS              0030600001250000000420000100300000000000407      090473 0497    088367   088860   090367   092132   089168   094696   093814   081767   094261   094511   090259   087623               120000001         110911771    7    100900261    7    090893591         080879861                                                                                                                                                        
380004025310013 00870 4150201ECHIROLLES          0020500ALPEXPO             0030500ECHIROLLES          0020180001000001000420000100300000000000407      090000 0527    088354   089405   090742   091387   088987   093075   090142   083122   093368   093723   089987   087908               120000001         110904361    7    100000001         090863101         080846181                                                                                                                                                        
380004020310013 00870 4150201RONDEAU             0010500ECHIROLLES          0020500ETATS_GENERAUX      0010300001000001000420000100300000000000407      090815 0507    089327   089099   090822   092324   090075   094838   094223   079272   094636   095609   091080   088613               120000001         110915801    7    100897461    7    090890351         080887031                                                                                                                                                        
380004010310013 00870 4150201Bif. A480/RN87      0000000RONDEAU             0010500RONDEAU             0000300001500001500420000100300000000000407      095215 0507    092992   092987   094638   096012   095892   099588   099075   086395   098680   099317   094424   092624               120000001         110959001    7    100000001         090000001         080736731                                                                                                                                                        
380003600310013 00850 4113001JARRIE              0500450CHAMP/DRAC          0560310CHAMPAGNIER         0530000003200000000420000100300000000000407      030354 0667    029268   029960   031102   029958   028446   031677   034308   031746   030146   030495   027711   029333               120000001         110312171    7    100307011    7    090308311         080304461                                                                                                                                                        
380003500310013 00850 4113001CLAIX               0490000JARRIE              0500450PONT_ROUGE          0500400001050000000420000100300000000000407      024498 0787    024034   024059   025351   024010   023806   024897   028069   026665   024097   023761   021754   023328               120000001         110252951    7    100249031    7    090000001         080243311                                                                                                                                                        
380001300310013 00070 4123001PEAGE DE ROUSSILLON 0270900Dpt. 26             0330605ROUSSILLON          0310400006100006100420000100300000000000600      019031 1037    016798   017942   018284   018816   018615   019781   020034   019781   019780   020149   019606   018742               120000001         110185241         100000001         090000001         080179691 1237                                                                                                                                                   
380001000310013 00070 4113001RHONE               0000000PEAGE DE ROUSSILLON 0270900AUBERIVES           0210700027900000000420000100300000000000194      012413 0687    011240   011518   012158   012628   012598   013396   013310   012485   012833   012889   012114   011750               120000001         110127601    7    100000001         090000001         080131621                                                                                                                                                        
260004000310013 00070 4150201ARMAILLER BLV Nord  0410485LAUTAGNE Giratoire R0430460SC061 B-L-V         0421166004460004460420000100300000000000205      021021 0877    019621   020029   020802   021454   020669   022197   022556   019609   021728   021945   020714   020885               120000001         110208561    7    100000001         090000001         080192071                                                                                                                                                        
260003900310013 00070 4156001LAUTAGNE Giratoire R0430460CARREFOUR ALIXAN VAL0461289SC020 CHABEUIL      0450585003829003829420000100300000000001098      043283 0837    038224   039863   041883   043173   043547   045114   049812   049218   044705   043242   039158   041095               120000001         110426881 1027    100000001         090329051         080322461                                                                                                                                                        
260003802310013 00070 4150101LAUTAGNE            0470979CHANTECOURIOL Girato0480595SC053 POMPIER       0480500001186001186420000100300000000000205      024623 1117    023132   023627   024015   025024   024459   025643   026617   023785   025417   025984   024260   023475               120000001         110242231 1117    100000001         090173161         080173461                                                                                                                                                        
260003801310013 00070 4156001CARREFOUR ALIXAN VAL0461289LAUTAGNE            0470979SC010 LAUTAGNE      0470330000690000690420000100300000000001098      055089 0877    050125   052189   053822   055429   055202   057976   061248   058019   057411   056002   051231   052187               120000001         110546591    7    100000001         090460821         080451601                                                                                                                                                        
260003200310013 05320 4110201BAYANNES            0050000BOURG_DE_PEAGE      0150171ALIXAN              0120950010170000000420000100300000000000192      046489 0767    042056   043665   045688   046264   046482   048381   052628   050863   047933   046492   042784   044340               120000001         110459071    7    100449971    7    090430881    8    080422251                                                                                                                                                        
260002800310013 01020 4813001PRACOMPTAL          0010480Dpt. 07             0030841Montélimar          0010500002361000000260001900300000000000311      008211                                                                                                                                 120000008         110080908         100080998         090081698         080079088                                                                                                                                                        
260002700310013 01020 4843001MONTELIMAR          0000000PRACOMPTAL          0010480Montélimar          0010480001480001480260001900300000000001098      008513                                                                                                                                 120000008         110083878         100083968         090084688         080081988                                                                                                                                                        
260002100310013 00070 4814001PIERRELATTE SUD     1140250VAUCLUSE            1180808Les Blaches         1150000004557000000260001900300000000001098      011042                                                                                                                                 120000008         110108798         100108918         090109858         080106348                                                                                                                                                        
260002000310013 00070 4114001MALATAVERNE Ech. A7 0980920PIERRELATTE SUD     1140250PIERRELATTE         1100000015330000000260001900300000000001098      016732 1537    014384   014812   015619   016834   017331   017876   019212   019045   017470   017601   015643   014803               120000001         110170371 1467    100167461 1387    090172751         080160281                                                                                                                                                        
260001900310013 00070 4115001MONTELIMAR SUD      0921050MALATAVERNEEch. A7  0980920MONTELIMAR          0960050005870000000260001900300000000001098      019633 1167    017429   017958   018683   019658   020064   020656   022075   021981   020106   019986   018475   018370               120000001         110193421 1117    100193621 1027    090195281         080189041 1167                                                                                                                                                   
260001800310013 00070 4854001PRACOMPTAL RN102    0891030MONTELIMAR SUD      0921050Montélimar dév. Sud 0900000003020003020260001900300000000001098      021526                                                                                                                                 120000008         110212078         100212298         090214128         080207288                                                                                                                                                        
260001600310013 00070 4815001MONTELIMAR NORD RD540870000PRACOMPTAL RN102    0891030Montélimar dév. Nord0870500003030000000260001900300000000000311      011191                                                                                                                                 120000008         110110268         100110388         090111338         080107788                                                                                                                                                        
260001500310013 00070 4115001LES TOURETTES       0760700MONTELIMAR NORD RD540870000COUCOURDE           0810000010300000000260001900300000000001098      014761 1477    012678   013297   013928   014958   015400   015822   016854   017359   015415   014798   013536   012968               120000001         110149391 1507    100148341 1517    090148191         080143451                                                                                                                                                        
260001400310013 00070 4114001LORIOL BLACHES RD7  0690300LES TOURETTES       0760700SC100 ToureteN      0760600007400000000260001900300000000001098      000000                                                                                                                                 120000001         110105841 1437    100000001         090115721         080115921                                                                                                                                                        
260001300310013 00070 4813001LORIOL CENTRE RD86F 0670160LORIOL BLACHES RD7  0690300Loriol déviation    0670500002140000000260001100300000000001098      018687                                                                                                                                 120000008         110190488         100187618         090190408         080190738                                                                                                                                                        
260001200310013 00070 4845001LORIOL NORD RD107   0660330LORIOL CENTRE RD86F 0670160Loriol dév. Nord    0660500000830000830260001100300000000001098      014392                                                                                                                                 120000008         110146708         100144498         090146648         080146898                                                                                                                                                        
260001100310013 00070 4115001LIVRON SUD          0640700LORIOL NORD RD107   0660330LORIOL              0650100001630000000260001100300000000001098      017378 0068    015692   016184   017004   017584   017815   018216   019248   019053   017805   017302   016383   016149               120000001         110177131    7    100174461    7    090177051         080177351    7                                                                                                                                                   
260001000310013 00070 4835001ST BLAISE RD247     0630320LIVRON SUD          0640700Livron agglo        0630500001378001378260001100300000000001098      012791                                                                                                                                 120000008         110130388         100128428         090130338         080130568                                                                                                                                                        
260000900310013 00070 4815001ETOILE              0550600ST BLAISE RD247     0630320Fiancey             0590000007720000000260001100300000000000188      010667                                                                                                                                 120000008         110108738         100107108         090108698         080108888                                                                                                                                                        
260000800310013 00070 4115001CHANTECOURIOL Girato0480595ETOILE              0550600SC051 CHAFFIT       0480750009056000000260001100300000000001098      000000                                                                                                                                 120000001         110175761 1417    100000001         090189091         080189421                                                                                                                                                        
260000500310013 00070 4114001LA TEPPE            0300020ARMAILLER BLV NoRD  0410485SC062 BLV NORD      0410340011465000000260001100300000000001098      016571 1107    015044   015298   016084   016649   016499   017413   018382   017080   017520   017111   016292   015407               120000001         110167621    7    100000001         090000001         080184441                                                                                                                                                        
260000400310013 00070 4843001TAIN NORD RN95      0280260LA TEPPE            0300020Tain agglo          0290700001760001760260000300300000000000188      012808                                                                                                                                 120000008         110135268         100134598         090000008         080132928                                                                                                                                                        
260000300310013 00070 4113001ST_VALLIER SUD RD51 0160200TAIN NORD RN95      0280260TAIN                0250200012060000000260000300300000000000188      011651 0938    010377   010746   011281   011857   012093   012628   013244   012569   011734   011262   011187   010779               120000001         110123041 1027    100122431 1157    090000001         080120911 1108                                                                                                                                                   
260000201310013 00070 4813001ANDANCETTE          0070350ST VALLIER SUD RD51 0160200Croix des Mailles   0110000008850000000260000300300000000000311      009788                                                                                                                                 120000008         110103378         100102868         090000008         080101598                                                                                                                                                        
260000100310013 00070 4113001Dpt. 38             0000000ANDANCETTE          0070350ST_RAMBERT          0040000007350000000260000300300000000001098      012959 1267    011450   011937   012441   013331   013029   013894   014253   013448   013205   013515   012770   012178               120000001         110127081 1347    100122201 1367    090000001         080130491                                                                                                                                                        
210600300310013 00380 1112041PONT_DE_PANY        0210000PLOMBIERES_LES_DIJON0360384PONT_DE_PANY        0210450015393000000260000300300000000000307      016326 0658    013932   014346   016179   016504   016540   017922   017568   015920   017614   017336   016202   015742               120000001         110168441    7    100169021    7    090172751    8    080171911    8                                                                                                                                                   
210600100310013 00380 1112041POUILLY_EN_AUXOIS   0000000PONT_DE_PANY        0210000CIVRY               0050400021000000000260000300300000000000107      009359 0977    007829   008297   009303   009450   009477   010114   010046   009324   010064   009957   009288   009105               120000001         110097541    7    100097391    7    090000001         080097381    7                                                                                                                                                   
210100200310013 02740 4150301LONGVIC             0000000TOISON D'OR         0111015MIRANDE             0040800012015012015260000300300000000000307      067547 0857    064709   065178   069418   068770   066791   071216   067879   056387   070235   073333   070461   066299               120000001         110000001         100000001         090621981         080585451                                                                                                                                                        
100002610310013 00770 4813001RD34 Le Cheminot    0170255RD610 Rocade        0320866Villery             0200000015401000000000000000000000000000311      000000                                                                                                                                 120000008         110000008         100000008         090000008         080000008                                                                                                                                                        
100002500310013 00770 4813001YONNE limite        0000000RD374 Auxon         0080830Auxon               0000152008854000000000000000000000000000205      000000                                                                                                                                 120000008         110000008         100000008         090000008         080000008                                                                                                                                                        
100001800310013 00770 4113001RD374 AUXON         0080830RD34 LE CHEMINOT    0170255CRESANTIGNES        0170200008459000000000000000000000000001208      000000                                                                                                                                 120000001         110068561 1527    100067721 1477    090066221         080000001                                                                                                                                                        
070002600310013 01020 4813001SORTIE AGGLO LE TEIL0040462Carf. CD107         0120889LE TEIL             0040462009688000000000000000000000000000188      000000                                                                                                                                 120000008         110000008         100081358         090082518         080080198                                                                                                                                                        
070002500310013 01020 4143001Dpt. 26             0000000SORTIE AGGLO LE TEIL0040462AGGLO LE TEIL       0000500004462004462000000000000000000000188      013765 0567    012291   012501   012973   013880   014170   014875   015522   015221   013746   013560   013088   013253               120000001         110053181    7    100000001         090000001         080159451                                                                                                                                                        
030006400310013 00790 4113001RD779               0640675Dpt. 71             0881330MOLINET             0830178024655000000000000000071000000010504      014331 3997    011222   011867   013120   013060   013012   014589   018909   021527   015087   013940   012396   012938               120000001         110000001         100144381         090140661         080139291 4127                                                                                                                                                   
030006200310013 00790 4113001RN7                 0351664RD779               0640675LES_POCHONS         0590858028011000000000000000000000000000200      011890 4347    009144   009544   010698   011569   011431   011797   015372   017875   013284   011495   009815   010391               120000001         110119741 4327    100116801 4337    090105041         080105861                                                                                                                                                        
030006000310013 00790 4813001RD2009              0330000RN7                 0351664Toulon S/Allier     0350000003664000000030005900300000000000200      000000                                                                                                                                 120000008         110162818         100165378         090148838         080151058                                                                                                                                                        
030005900310013 00790 4113001RD945               0100765RD2009              0330000CRESSANGES          0230855022235000000030005900300000000000200      000000                                                                                                                                 120000001         110089871 3957    100091281 3927    090082151 3728    080083371 4398                                                                                                                                                   
030005300310013 02090 4113001RD907               0260000RN7                 0400909CRECHY              0340821013670000000030005900300000000000394      007563 0867    008043   007987   008807   009263   009158   007895   007317   006336   006665   006845   006293   006180               120000001         110066991    7    100063101 1067    090065791         080065941 1227                                                                                                                                                   
030004100310013 00790 4813001RD46                0000000RD945               0100765Montmarault         0000500010765000000030005900300000000000200      000000                                                                                                                                 120000008         110126208         100128198         090115378         080117098                                                                                                                                                        
030001100310013 00070 4113001RD990               0700992Dpt. 42             0810328ROSSIGNOL           0720320010376000000030005900300000000000309      006207 3437    004921   005217   005950   006360   006348   006501   007348   007939   006473   006291   005453   005588               120000001         110062641 3367    100060691 3367    090059841         080060191                                                                                                                                                        
030001000310013 00070 4813001RD907               0640441RD990               0700992St-Prix             0670000006551000000000000000000000000001202      000000                                                                                                                                 120000008         110000008         100000008         090000008         080000008                                                                                                                                                        
030000900310013 00070 4113001RN209               0470707RD907               0640441ST_GERAND_PUY       0550211016734000000000000000000000000001202      005711         004587   004875   005340   005788   005818   005972   006732   006573   006851   005844   004986   005112               120000001         110057771 3507    100055691 3507    090055451         080055701                                                                                                                                                        
030000499310013 00070 4812001RD46/RD268          0430421RN209/RD23          0470707Varennes S/Allier   0470300004286000000030000400300000000000504      000000                                                                                                                                 120000008         110000008         100000008         090000008         080000008                                                                                                                                                        
030000400310013 00070 4113001RN79                0240300RD46/RD268          0430421BESSAY              0310488019121000000030000400300000000000189      008620 3318    007283   007908   008470   008846   008815   009030   009635   009286   008985   009007   008032   008088               120000001         110092871 3337    100090411 3277    090090511 3088    080090911 3108                                                                                                                                                   
030000202310013 00070 4110201RD707               0110880RN79                0240300MILLEPERTUIT        0200000012420000000030000400300000000001197      013187 3088    010185   011303   012437   013085   013032   013382   016390   017277   013815   013332   011765   012032               120000001         110134711 3267    100130071 3247    090128471         080131321 3268                                                                                                                                                   
030000200310013 00070 4110201RD133               0030110RD707               0110880AVRILLY             0070250008770000000030000400300000000000589      015376 2688    011954   013119   014682   015344   015670   015805   018711   020235   016051   015396   013480   013827               120000001         110157221 2837    100152551 2977    090152911         080153711                                                                                                                                                        
030000100310013 00070 4812001Dpt. 58             0000000RD133               0030110Villeneuve S/Allier 0020000003310000000030000200358000120031197      017766                                                                                                                                 120000008         110181668         100176278         090176698         080177628                                                                                                                                                        