140108399310013 00840 1810241limite 14/50        2080000limite 50/14        2111470Pont Farçy          2100000004470004470500100890350010089030109      026788                                                                                                                                 120265068         110269858         100256358 1100    090000008    0    080000008    0                                                                                                                                                   
140108401310013 00840 1117041Dép. de la Manche   2220000Rond point Coulvain 2370923CAHAGNES            2320557015923015923270000200100000000000198      027163 1327    019391   021726   022730   028206   029528   028145   033868   036844   028659   027150   024872   024350               120268831 1377    110275451 1497    100269471 1567    090264361 1557    080255251 1777    020764   021496   023584   029470   028945   027970   033633   034616   028547   024957   025177   023211                                      
140108402310013 00840 1117041Rond point Coulvain 2370923Echangeur RD 6      2420236MAISONCELLE-PELVEY  2400623004313004313270000200100000000000196      032649 1358    024242   026971   027704   033905   035339   033719   039589   041840   034710   032988   030527   029768               120324591 1378    110330461 1118    100324531         090311241    8    080308671 1388    026099   026497   029217   033994   036048   033981   039188   039799   034439   030762   030821   028395                                      
140108403310013 00840 1117041ECHANGEUR RD 6      2420236Echang. Villers Boca2450000VILLERS BOCAGE      2430200002764002764270000200100000000000196      032707 1507    024498   027204   027710   033884   035227   034164   039172   041336   034718   033246   030834   030054               120323801 1537    110329561 1537    100321051 1527    090317231 1507    080309291 1577    026438   026662   029448   034879   034462   033959   038684   038711   034417   031074   031035   028582                                      
140108404310013 00840 1110241Echang. Villers Boca2450000Echang Mondrainville2550310VILLY-BOCAGE        2460473010310010310270000200100000000000794      036576 1347    028178   031191   031292   037939   039441   038416   042404   044890   038871   037452   034814   033621               120362851 1357    110368961 1367    100359731 1347    090355781 1307    080348211 1457    030288   030440   033662   038617   038376   038120   042591   042189   038495   035054   035007   032368                                      
140108400310013 00840 1110241Ech Mondrainville   2550310Ech 44              2590655Mondrainville       2560500004345004345270000200100000000000711      040422 1147    032222   035073   034929   041812   042833   042497   046616   047502   042803   041618   038878   037898               120400901 1167    110407301 1167    100397141 1147    090000001    0    080000001    0    034430   034335   037738   042322   041879   042210   045790   045171   042360   039271   039050   036331                                      
140108405310013 00840 1110241Ech 44              2590655Echangeur BP Ouest  2620822BRETTEVILLE SUR ODON2610930003167003167270000200100000000001097      046451 1187    038294   041301   040726   045816   048780   048899   052411   052782   049676   048694   045367   044296               120464991 1167    110473181 1187    100461451 1157    090453771 1147    080440111 1297    040913   040764   044464   048582   048139   049604   052139   050542   048951   046040   045438   042250                                      
140000601310013 00130 4110201CARPIQUET           0690000BROUAY              0790212CARPIQUET           0700500009582009582500100890100000000000193      053738  887    049053   051790   048931   055175   055293   057547   057988   053479   055961   055542   052315   051791               120544241    7    110553111    7    100534541    7    090536561    7    080531561    7    051769   050463   055060   055386   055176   058173   056294   052856   055921   055780   054697   051465                                      
140000700310013 00130 4110201BROUAY              0790212BAYEUX              0870887CARCAGNY            0850196008722008722500100890100000000000293      025849  887    022355   023920   023526   027046   027714   027800   029460   028829   026665   025283   023822   023644               120267301    7    110274631    7    100268251         090267961    7    080261061    0    024130   023684   026251   027717   027765   028619   029374   027939   027652   027036   026342   024167                                      
140000800310013 00130 4110201BAYEUX              0870887CUSSY               0980183GUERON              0920593010439010439500100890100000000000206      018302  997    015067   016450   016354   018601   019463   020050   021095   021405   019275   018063   016941   016739               120184921    7    110190131 1027    100185981 1027    090185021 1007    080179111 1060    015464   015328   017871   019643   019487   019309   020152   021161   019924   018564   018140   016755                                      
140001002310013 00130 4110101BAYEUX              0980183LIMITE DE LA MANCHE 1280706LONGUEVILLE         1130785031535031535500100890100000000000196      013380  938    010212   011318   011547   013116   014350   014621   016180   017246   014441   013075   012355   011929               120135111    8    110137831    8    100136021 1087    090135411    8    080127711    8    010879   011085   012319   014147   014352   014499   016099   017040   014574   012842   012613   011587                                      
140001500310013 01580 4110201LIMITE DE L'ORNE    0080000ST AIGNAN-CRAMESNIL 0290766POTIGNY             0170000030879030879500100890100000000000194      018193 1197    015653   016636   016365   018444   018938   019620   019768   019114   019380   018977   017881   017472               120180681 1207    110180861 1207    100173231 1237    090159541    7    080165481    7    016506   015927   017751   017914   018200   019365   019384   018767   019151   018543   018266   016986                                      
140001600310013 01580 4110201ROCQUANCOURT        0290766IFS                 0380416TILLY LA CAMPAGNE   0340500008650008650500100890100000000000196      029685  888    026541   028306   027073   030544   030096   031756   031541   028728   031503   031363   029636   029156               120294811    8    110297711    8    100285351    8    090000001         080000001         027940   026781   029811   029004   029451   031625   030740   028408   031099   030726   030051   028094                                      
140003100310013 08140 4110201ECHANG.AUTOROUTE A130000000ECHANGEUR MONTALIVET0020000MONDEVILLE          0010000002027000000500100890100000000000193      074973  637    068681   072345   069281   076918   076096   079040   080463   074167   076493   077908   074544   073712               120747531    7    110762621    7    100751991    7    090757381    7    080749731    7    070238   069940   076296   075322   074942   079367   077936   072697   076835   076812   075354   071248                                      
140003200310013 08140 4110201Enchageur Montalivet0020000Ech.porte/Angleterre0030757VIADUC -> PARIS     0030340001750000000500100890100000000000190      080158  647    073720   077507   074098   082304   081522   084496   087396   077769   082690   083080   079642   077697               120800981    7    110808891    7    100799611    7    090821191    7    080798241    7    077161   074997   081701   080071   080138   084704   083479   078768   082090   082183   080398   075373                                      
140003300310013 08140 4110201Ech.porte/Angleterre0030757Ech.Pierre Heuzé    0040763Pierre-Heuzè        0040300000999000000500100890100000000000188      081427  607    075378   079363   075708   084135   082819   085589   087180   081290   084157   084543   079408   077595               120810731    7    110820311    7    100797901 1207    090000001         080784421    7    078460   076318   083288   081036   081454   086334   082213   078347   083468   084211   081738   075969                                      
140003500310013 08140 4110201Ech.Pierre Heuzé    0040763Ech.vallée des jardi0070255Hôpital             0070095002421000000500100890100000000000193      057553  717    052289   055669   052930   059425   059107   061340   062343   057626   059268   059726   056335   054588               120575521    7    110582171    7    100570481    7    090570031    0    080573171    7    055260   053666   058799   058356   058267   061704   059771   055615   058979   059224   057701   053243                                      
140003600310013 08140 4110201Ech.vallée des jardi0070255Ech.chemin vert     0080857Mémorial            0080242001594000000500100890100000000000700      059567  657    056241   059488   056410   063762   063124   065384   055311   051103   060712   064295   060708   058645               120611541    7    110603621    7    100611191    7    090613831    7    080611011    7    057960   057220   062995   062151   062289   066405   063458   058911   063670   063038   062672   053152                                      
140003700310013 08140 4110201Ech.chemin vert     0080857Echangeur du Bessin 0110520Chemin vert         0090402002212000000500100890100000000000700      058781  677    053419   056402   053509   060952   060215   062432   062609   057094   062170   062402   058378   055843               120585261    7    110593111    7    100578451    7    090579951    7    080572451    7    055574   054101   059781   059158   059237   063249   060272   055651   060648   060920   059247   054461                                      
140003801310013 08140 4110201Echangeur du Bessin 0110520Passage inf. RD 14  0130370CARPIQUET           0110730001916000000500100890100000000000194      041851  827    037503   040078   038102   043267   042454   044422   043184   041205   044254   044282   041633                        120418041    7    110418481    7    100409531    7    090405411    7    080402101    7    039508   038594   042430   042205   042471   045075   043555   040302   043402   043168   042265   038644                                      
140003803310013 08140 4110201Passage inf. RD 14  0130370Ech. de Bretagne    0140530Ech. de Bretagne    0140325001168000000500100890100000000000997      033679  917    028347   030784   031019   034936   034977   035798   037749   035187   034911   035540   032381   032349               120335941    7    110339031    7    100330161    7    090327901    7    080320561    7    030085   030268   032895   035088   033991   035799   037383   034364   034704   034267   033058   031144                                      
140003900310013 08140 4110201ECHA. BRETAGNE      0140530ECHAN. D'ETERVILLE  0160252ETERVILLE           0150300001678000000500100890100000000000997      054651 1127    046791   049986   048674   056794   056615   058070   060499   058706   057815   056621   052816   052200               120547631 1157    110548051 1167    100533341 1147    090528081 1167    080514541 1277    049390   048664   053288   056356   056270   057958   059942   057215   057604   055241   054514   050559                                      
140004000310013 08140 4110201ECHAN.D'ETERVILLE   0160252Ech.Suisse Normande 0200000FLEURY SUR ORNE     0190368003668000000500100890100000000000997      055064 1137    047073   050288   049087   057116   056885   058003   060946   058963   057915   057353   053735   053159               120551471 1147    110547711 1177    100538751 1157    090531051 1167    080518891 1287    049431   049137   053734   057172   056625   058457   060104   057468   057864   055550   054840   051250                                      
140004100310013 08140 4110201Ech.Suisse Normande 0200000Ech. IFS bourg      0220491IFS Bourg           0210916002506000000500100890100000000000193      058533 1077    050345   053604   052618   060575   060465   061654   064763   062413   061090   060708   057042   056844               120589721 1087    110588211 1147    100572561 1137    090567541 1367    080563081 1347    053191   053225   057405   060896   060365   062081   064267   061505   061603   059289   058528   055172                                      
140004300310013 08140 4110201Echengeur IFS bourg 0220491Ech. de CORMELLES   0240719Ech. Porte d'Espagn 0230590002227000000500100890100000000000997      058002 1197    050884   054150   053182   059424   060072   061203   064645   061823   059708   059152   056014   055525               120587181 1197    110595891 1227    100585891 1127    090578761 1037    080584311 1207    054027   053700   058007   060024   060547   061975   063971   061247   060406   058494   057444   054610                                      
140004400310013 08140 4110201Ech. de CORMELLES   0240719Ech.du PAYS d'Auge  0260788Vallée sèche        0260246002080000000500100890100000000000997      076660  987    069511   073866   071700   081209   079554   082494   085517   079883   081168   065477   074485   075190               120771501    7    110760611    7    100738681    7    090716991    7    080759461    7    071730   071474   077179   078729   078407   081679   078685   079765   079619   078708   076458   073253                                      
140004599310013 08140 4110201Ech.du PAYS d'Auge  0260788ECHANGEUR MONTALIVET0270380Ech. Porte de Paris 0270230000592000592500100890100000000000997      087665  817    079153   083569   080696   091270   089143   091422   095718   088235   090551   090440   085753   085900               120875731    7    110888471    7    100857101    7    090716991    0    080759461    7    082660   081509   087873   088953   087909   092532   093834   086772   089095   088954   087506   083134                                      
270000100310013 00120 4813001EURE ET LOIRE       0000000INTERSECTION N 154  0030600NONANCOURT        B 0000680003606003606270000200300000000000188      020895                                                                                                                                 120210448         110000008         100000008         090000008         080000008                                                                                                                                                        
270000101310013 00120 4813001                    0030600                    0030640giratoire anglais   0030600000640000640270000200300000000000188      020895                                                                                                                                 120210448         110000008         100000008    0    090000008    0    080000008    0                                                                                                                                                   
270000102310013 00120 4813001                    0030640                    0060458st Lubin Joncherets 0050680002818002818270000200300000000000188      020895                                                                                                                                 120210448         110000008         100000008    0    090000008    0    080000008    0                                                                                                                                                   
270000200310013 00120 4110201INTERSECTION N 154  0090000ENTREE VERNEUIL     0230040COURTEILLE BASLINE  0090200014040014040270000200100000000001299      013060         010960   012136   013283   013471   013960   013755   014330   013721   013114   013275   012360   012282               120131551         110000001         100000001         090000001         080000001         011490   011531   012735   014133   013879   013826   014450   013659   013746   013275   012778   012317                                      
270000300310013 00120 4813001ENTREE VERNEUIL     0230040SECTIONNEMENT RN 26 0250650VERNEUIL S/AVRE   BA0240000003400002605270000200300000000000188      013060                                                                                                                                 120131558         110000008         100000008         090000008         080000008                                                                                                                                                        
270000400310013 00120 4813001INTERSECTION RN 26  0250650ORNE                0370190VERNEUIL SUR AVRE BA0280000010748010536610000100300000000000188      007942                                                                                                                                 120079118         110000008    0    100000008    0    090000008    0    080000008    0                                                                                                                                                   
270000500310013 00130 4815001YVELINES            0000000DEVIATION PACY/EURE 0050000AIGLEVILLE          0040400004998004998270000900300000000000188      012961                                                                                                                                 120129908         110144788         100142618         090000008         080146808                                                                                                                                                        
270000600310013 00130 4810201DEVIATION PACY/EURE 0050000                    0060600DEVIATION PACY/EURE 0060000001600001600270000900300000000000188      015918                                                                                                                                 120159548         110162718         100160278         090000008         080164978                                                                                                                                                        
270000700310013 00130 4810201DEVIATION PACY/EURE 0060600BRETELLE ST ANDRE   0090100ST AQUILIN DE PACY  0070000002500002500270000900300000000000188      015720                                                                                                                                 120157578         110180648         100177938         090000008         080183148                                                                                                                                                        
270000900310013 00130 4115001BRETELLE ST ANDRE   0090100ENTREE BA 105       0180780MISEREY             0170580009396009396270000900100000000000188      019981         018482   019697   020197   020452   020544   021604   019712   017619   020797   021194   020075   019464               120200251    8    110204211    8    100201141    8    090000001         080207021    7    019210   018985   020206   020669   020371   021872   020335   017673   020837   020640   020491   019071                                      
270001000310013 00130 4810201ENTREE BA 105       0180780RN 154              0200413FAUVILLE            0200700002215002215270000900300000000000188      023675                                                                                                                                 120237288         110241998         100238398         090000008         080245358                                                                                                                                                        
270006000310013 00310 4814001limite 76/27        0000000limite 27/76        0020843Vascoeuil           0010000002843002843760006700376000660030109      005191                                                                                                                                 120054758         110057418         100055758    0    090000008    0    080000008    0                                                                                                                                                   
270004701310013 01540 4110201Nonancourt          0000000D833                0130247Petite vallée       0100750013247013247270005100100000000000101      000000                                                                                                                                 120131681 1568    110000001         100000001    0    090000001    0    080156341 2307    011482   011549   012639   013525   013259   014169   015316   014617   014067   013171   012474   011695                                      
270004800310013 01540 4110201D833                0130247Evreux              0270769PREY                0210900014522014522270005100100000000000101      000000                                                                                                                                 120153691         110000001         100153941 1638    090000001    0    080156341 2307    014196   014078   013941   015875   017235   016267   017207   016257   015992   015155   014402   013772                                      
270005000310013 01540 4810201N 13                0270769APRES ECHAN GRAVIGNY0330000FAUVILLE            0300380005440005440270005100300000000000188      000000                                                                                                                                 120000008         110000008         100000008         090000008         080000008                                                                                                                                                        
270005100310013 01540 4110201ECHANG. GRAVIGNY    0330000RN 155              0460430HEUDREVILLE/EURE    0410300016903016481760006700100000000000195      000000                                                                                                                                 120000001         110000001         100000001         090000001         080000001                                                                                                                                                        
270110001310013 10130 4810201N13                 0200000N154                0210130vielle evreux       0210000001130001130270110000300000000000212      019526                                                                                                                                 120166658         110000008    0    100000008    0    090000008    0    080000008    0                                                                                                                                                   
270110002310013 10130 4810201N154                0210130D6154               0240100Evreux              0220000002890002890270110000300000000000212      000000                                                                                                                                 120000008         110000008    0    100000008    0    090000008    0    080000008    0                                                                                                                                                   
270110000310013 10130 4110201Av Foch             0300000RD 613              0320268Parville            0310260002065002065270110000100000000000212      016880         015420   016402   016747   017026   017256   017981   017733   015959   017556   017589   016688   016214               120000001    7    110175271    7    100000001    0    090000001    0    080000001    0    016072   015813   016686   017068   016881   017741   016978   015994   017531   017063   016542   015625                                      
280000500310013 00100 4817001                    0340000Bretelle A11        0340855Mignières           0340083000855000855280000600300000000000188      011023                                                                                                                                 120110288         110112938         100110328    0    090110688    0    080000008    0                                                                                                                                                   
280000600310013 00100 4117001Bretelle A11        0340855RD12                0410767LA BOURDINIERE    BA0390000006958005499280000600100000000000188      012954 1447    011090   011829   012595   013408   013583   014332   014107   012611   013804   013558   012611   011885               120129571 1787    110132671 1798    100129601 1738    090130001 1688    080127901 1667    011885   011547   012687   013342   013496   014143   013675   012400   013788   013365   012935   012202                                      
280000700310013 00100 4817001RD12                0410767RD28/1              0530602MONTBOISSIER      BA0510700011865009997280000600300000000000188      012101                                                                                                                                 120121058         110123958         100121098         090121488         080119528                                                                                                                                                        
280000800310013 00100 4114001RD28/1              0530602RD110               0590937BOIS-GUIBERT       A0560900006239005937280000800100000000000188      011830 1737    010021   010700   011509   012104   012413   012965   012754   011748   012535   012300   011582   011282               120119111 1757    110121581 1528    100120011 1518    090120891 1438    080120911 1358    010901   010645   011789   012325   012461   012914   012627   011674   012570   012163   011748   011098                                      
280000900310013 00100 4813001RD110               0590937CHATEAUDUN(lim.aggl)0651000MARBOUE           BA0650000006000006000280000800300000000000188      014745                                                                                                                                 120148478    0    110151568    0    100149628    0    090150738    0    080150078    0                                                                                                                                                   
280004503310013 00100 4113001CHATEAUDUN nord     0651000CHATEAUDUN sud      0700237Jallans             0680370006000006000410000300100000000000188      007583 3117    006308   006795   007257   007869   007938   008220   008465   008276   008022   007653   007252   006893               120075461 3207    110076351    3    100110211    0    090111031    0    080118221 1600    006698   006781   007372   007869   007895   008122   008274   007965   008048   007701   007034   006770                                      
280001400310013 00100 4113001Chateaudun sud      0700237lim 41              0820270Chateaudun sud      0700880012000012000280001600141000010030213      000000                                                                                                                                 120000001    0    110000001    0    100000001    0    090000001    0    080000001    0                                                                                                                                                   
280001600310013 00120 4110201Limite DEPT 78      0000000Ech. Est Dreux      0140816LA MESANGERE        0090860014661014661280001600178000040030188      030775 1157    026624   028829   029813   031784   031936   033612   033210   028275   032289   032300   030379   030220               120295161 1187    110311851 1157    100297041         090299871 1157    080290411 1047    028718   028119   028597   028310   028191   029341   029292   028176   032405   032381   031231   029443                                      
280001700310013 00120 4810251Ech. Est Dreux      0140816RD 912 "Les Fenots" 0190637DEVIATION DREUX   B 01705000044360040012800016003          0188      030017                                                                                                                                 120287828         110304208         100289748         090292518         080283338                                                                                                                                                        
280001800310013 00120 4110201RD 912 "Les Fenots" 0190637Limite DEPT 27      0271017Saint Rémy          0230700008300006221280001800127000010030188      027361 1937    023043   025022   025838   028129   028401   029457   030427   028784   028491   028235   026144   026218               120274951 1947    110277041 1927    100278421    0    090278591 1857    080277821 1857    024826   024518   026747   028653   028118   029379   029969   028686   028599   027804   026795   025771                                      
280001901310013 00120 4810251                    0280000Limite DEPT 27      0310400DAMPIERRE SUR AVRE  0290000003400003400280001800327000020030188      013457                                                                                                                                 120135248         110136298         100136978         090137078         080136708                                                                                                                                                        
280003500310013 01230 4113001RN154               0030000RN10                0070840MORANCEZ          B 0060400004840004840280003900100000000000188      036572 1247    033129   034862   036230   037564   036888   038603   038763   033851   037945   038664   036404   035925               120369411 1277    110369451 1277    100362001         090361601 1187    080362051 1197    034865   035073   037257   037898   036641   039579   038369   034058   038638   039028   036599   035325                                      
280003600310013 01230 4113001RN10                0070840RN23                0110690LUISANT             0080950003853003853280003900100000000000188      033856 1627    030109   032143   033271   035006   034213   036146   036411   032641   035323   035401   033026   032557               120341901 1637    110345831 1488    100343211 1498    090343151 1478    080348291 1508    031980   032215   034374   034989   034159   036742   035970   032607   035960   035286   033677   032336                                      
280003800310013 01540 4813001VC Ex. RD 927       0140000                    0300095Ymonville           0200000016095016095280003900300000000000188      000000                                                                                                                                 120096678         110095748         100092878    0    090093088    0    080094218    0                                                                                                                                                   
280003900310013 01540 4113001RD17                0300095RN123               0470452FRAINVILLE    BA    0350500017497016333280004300100000000000188      000000                                                                                                                                 120096701 2567    110095761 2348    100092881 2278    090093091 2188    080094211 2288    007935   008112   009007   009822   009732   010430   011572   011470   010651   009790   009095   008362                                      
280004300310013 01540 4110101RN1154              0560000RD 26 - P.S         0660359Le Péage            0660350010330009799280004300100000000000202      016586 1857    014202   015297   015700   017073   016865   017872   018431   017257   017658   017179   016019   015429               120165111 1837    110167601 1738    100165011 1478    090161211 1428    080159781 1308    015024   014689   016060   016951   016563   017930   018201   017066   017638   016948   016050   014971                                      
280004400310013 01540 4813001RD 26 P.S.          0660359Echangeur Sud       0810600BOULLAY-MIVOIE      0790000015817015375280004300300000000000188      016503                                                                                                                                 120164298         110166938         100164228         090160428         080134918                                                                                                                                                        
280004500310013 01540 4812001Echangeur Sud       0810600Echangeur Est       0860298ROCADE DE DREUX   BA0830400004931003215280004600300000000000188      023614                                                                                                                                 120236748         110240178         100237878         090192168         080190378                                                                                                                                                        
280450500310013 02540 4113001A 10                0000000RN 154              0010590ALLAINES            0010550001590001590410000300100000000000100      008706 2167    006884   007655   008050   008824   008871   009381   010226   010272   009579   009087   007947   007623               120086571 2197    110087211 1948    100000001    0    090080571 1708    080079261    0    007257   007398   008114   008942   008597   009341   010252   009943   009330   008758   008372   007541                                      
280004600310013 11540 4113001PR 56.000 de RN154  0000000Giratoire RD 905    0030485DEVIATION DE LEVESB 0010200003457003457410000300100000000000188      016824 2117    014471   015507   016155   017529   017326   018264   018488   016874   017843   017390   016222   015772               120168481 2137    110171091 2127    100169501         090167151 2017    080165601 2057    015495   015431   016689   017365   017207   018524   018304   016792   017633   017185   016309   015233                                      
280010000310013 11540 4113001                    0030485                    0070775Mainvilliers        0050950004290004290410000300100000000000188      019093 2227    016278   017525   018209   019732   020606   020828   021002   019224   020037   019577   018395   017630               120191301 2227    110195001 222     100169501    0    090167151    0    080165601 2057    017609   017443   019037   019754   019490   020808   020522   019202   020225   019516   018617   017316                                      
370000100310013 00100 4113001DEPT L. ET CHER     0000000CARREF. N10/D766    0030000NEUVILLE            0020290012174012174410000300141000050030398      009005 2587    007596   008292   008784   009280   009444   009533   009948   009611   009563   009086   008572   008314               120089651 2647    110090831 2348    100087201 2228    090086001         080083081 2018    008021   007955   008872   009440   009166   009447   009744   009256   009475   009017   008944   008226                                      
370106350310013 00100 4113001                    0030000                    0111245AUTRECHE            0050170002295002295410000300100000000000402      005821 3347    005231   005578   005802   006201   006004   006205   006433   005665   006093   005908   005526   005199               120059361 3447    110060231 3417    100056451         090056471 2108    080083081    0    005499   005711   005968   006202   005983   006352   006357   005668   006208   006118   005826   005353                                      
410000100310013 00100 4113001Dpt 28              0000000RN 157              0100266ST HILAIRE          0050000010367010367410000300100000000000394      008315 3367    006977   007586   008065   008644   008728   008875   009282   009009   008756   008418   007836   007564               120083731 3427    110085001 3367    100081731         090081001 2987    080078451 2857    007384   007410   008230   008883   008601   008864   008890   008778   008861   008375   008578   007622                                      
410000300310013 00100 4113001RN 157              0100266Agglo de VENDOME    0230535NIOCHE              0200000013452009671410000300100000000000295      012659 2017    011523   011891   012540   012975   012890   013370   013204   012551   013478   012744   012302   012412               120127601 2037    110135051 1648    100000001         090127491 1438    080125001 1438    012009   012656   012155   012818   012777   013669   012991   012770   013273   012909   012831   012301                                      
410000399310013 00100 4853001Agglo de VENDOME    0230535Agglo de VEN957     0240670VENDOME             0230500001159000000410000300300000000000188      012659                                                                                                                                 120127608         110135058         100000008         090127498         080125008 143                                                                                                                                                    
410000400310013 00100 4813001VENDOME (lim.Agglo) 0240670Echangeur957957     0260298LA CHAPPE           0250000001989001989410000300300000000000889      012659                                                                                                                                 120127608         110135058         100000008         090127498         080125008 143                                                                                                                                                    
410000401310013 00100 4813001RD 957              0260298                    0370000Le Petit Plessis    0350000010702010702410000500300000000000295      008650                                                                                                                                 120086188         110087048         100083578    0    090082558    0    080079888 2407                                                                                                                                                   
410000402310013 00100 4813001                    0370000                    0400035L'Etincelle         0380850003035003035410000500300000000000295      008650                                                                                                                                 120086188         110087048         100083578    0    090082558    0    080079888 2407                                                                                                                                                   
410000500310013 00100 4113001                    0400035Dpt 37              0451074LA FAUCHERIE        0420850006039006039500000500100000000000295      008650 2767    007258   007931   008410   008916   009099   009181   009589   009289   009113   008732   008264   007977               120086181 2857    110087041 2807    100083571         090082551 2497    080079881 2407    007680   007764   008504   009062   008856   009067   009351   008912   009093   008647   008600   007867                                      
500100100310013 00840 1110241ILLE ET VILAINE     1470000ECH.32              1510495St JAMES            1480990004495004495500100890100000000001103      018769 1587    013798   015425   016033   019417   019906   019623   023560   024902   020122   018536   016920   016698               120187111 1627    110189211 1647    100181511 1627    090179921 1617    080173411 1747    014666   015270   016733   020093   019781   019585   022976   023977   020336   017462   017369   016140                                      
500100200310013 00840 1110241PS 30 ST JAME       1510495PI RN 176           1620225ST AUBIN DE TERREGAT1580800010762010762500100890100000000001100      019114 1348    014231   015862   016326   019732   020228   019999   023832   025430   020319   018791   017162   017169               120190311 1378    110194241 1338    100187561 1348    090193711 1298    080189251 1428    015139   015628   016876   020158   020024   020058   023195   024290   020630   017813   017790   016628                                      
500100300310013 00840 1110241PI RN 176           1620225ECH RN 175          1630435POILLEY             1630200001212001212500100890100000000001100      023137 1168    017941   019745   020015   023864   024305   024273   028258   029641   024392   022791   021126   020994               120230061 1198    110234161 1208    100227621 1188    090206211 1268    080205711 1358    019003   019487   021462   024051   024091   024249   027364   028245   024327   021528   021662   020442                                      
500100500310013 00840 1110241RN 175              1720000ECH.37              1890802STE PIENCE          1810840017802017802500100890100000000001103      024392 1258    016621   018844   019883   025152   026963   025547   031934   035588   025637   023671   021220   021118               120242071 1108    110248551 1188    100238861 1358    090252351 1068    080242671 1378    017805   018744   020529   026651   026068   025661   031157   033286   025754   022070   022134   020381                                      
500100600310013 00840 1110241ECH.37              1890802ECH.38              1930650FLEURY              1910200003850003850500100890100000000001100      025449 1637    017388   019832   020348   025918   028165   027000   033110   036816   026747   024932   022499   022096               120252721 1667    110257551 1677    100250421 1657    090247591 1647    080239591 1887    018661   019667   021506   027939   027325   026628   032660   034424   026743   023058   023121   021274                                      
500100700310013 00840 1110241ECH.38              1930650ECH.39              2070650BESLON              1970400016645016645500100890100000000001103      024774 1527    016640   019051   020171   025584   027574   026227   032361   036220   025951   024072   021627   021259               120246161 1567    110251211 1577    100243851 1567    090240891 1557    080234831 1797    017972   018979   020789   027285   027126   025851   032065   033874   026024   022288   022357   020516                                      
500100890310013 00840 1110241ECH.39              2120238ECH.40              2170280PONT-FARCY-CU       2120000005042005042500100890100000000001103      026788 1168    018152   020767   021905   027592   029678   028058   034521   038364   028013   026613   023605   023611               120265061 1378    110269851 1318    100256351 1078    090258471 1238    080250841 1358    019558   020654   022565   029163   028948   027732   034121   035908   028042   024125   024650   022345                                      
500100891310013 00840 1810241                    2170280                    2210759Guiberville         2190000004479004479500100890300000000001103      026788                                                                                                                                 120265068         110269858         100256358    0    090258478    0    080250848 1358                                                                                                                                                   
500000200310013 00130 4110201CALVADOS            0000000RD 913              0110000ST HILAIRE          0060000010299010299500000500114000000000296      017777 1367    013649   015210   015285   017289   018728   019970   021113   022197   019234   017832   016608   016024               120175021 1317    110155161    7    100171671 1387    090171071 1367    080165781 1417    014446   014596   016067   018299   018500   019154   020442   021397   019137   016621   016255   015012                                      
500000500310013 00130 4110201RD 913              0110000RD 15               0201060ST COME DU MONT     0120100009442009442500000500100000000001187      017872  668    014435   015993   015781   017713   018875   020019   020057   020611   019128   018353   016636   016739               120178821    8    110182511    8    100176351    8    090176301    8    080171291    8    015495   015575   016966   018653   018555   019553   019924   020309   018930   017501   017133   015926                                      
500000600310013 00130 4810201RD15                0201060RD 902 DEV. VALOGNES0380644FREVILLE            0260046018000018000500000500300000000000202      015832                                                                                                                                 120158428         110161708         100156258         090156228         080151798                                                                                                                                                        
500001000310013 00130 4110201RD 902 DEV. VALOG   0380644ROND POINT AUCHAN   0520390SAINT-JOSEPH        0430352014209014209500001070100000000001187      022158 1018    019454   020879   019122   021400   022276   025735   025486   022929   023686   023056   021547   020323               120220611 1098    110224471    8    100221111    7    090217661    8    080215001    8    020561   020354   021839   022129   021971   023241   022888   022094   023610   022648   022302   021086                                      
500001070310013 00130 4113001ROND POINT AUCHAN   0520390RN 132              0570399LA GLACERIE         0540250004554004554500001070100000000000392      016196  567    015233   015755   014518   015867   016100   016962   016747   015887   016546   017031   016595   017098               120166431    7    110164081    7    100158721    7    090155521    7    080156271    7    016101   015385   016342   016243   016067   017153   015925   016284   019240   016875   017079   017046                                      
500001071310013 00130 4813001                    0570399                    0580000RP de Penesme       0570400000601000601500001070300000000000392      016196                                                                                                                                 120166438         110164088         100158728    0    090155528    0    080156278    7                                                                                                                                                   
500001400310013 01740 4110201A 84                0000000RD 974              0180000CONDE SUR VIRE      0150345018000018000500001400100000000001205      020635  817    018121   019520   018795   021095   020827   021885   021585   020416   022174   022074   020798   020336               120201161    7    110204021    7    100198711    7    090194291    7    080150141         018976   018585   020114   019244   019954   021727   020857   019827   021486   020908   020357   019336                                      
500001401310013 01740 4810201                    0180000                    0210827Cantepie            0190000003827003827500001400300000000001205      020635                                                                                                                                 120201168         110204028         100198718    0    090194298    0    080150148    0                                                                                                                                                   
500001450310013 01740 4110201                    0210827                    0230130Saint Lô            0220500001303001303500001520100000000001205      025212  727    022794   023625   022799   025661   025624   026460   026825   025207   026556   026441   025131   025365               120249611    7    110249861    7    100242151    7    090240701    7    080150141         024111   022963   024296   025021   025234   026736   025726   024619   025920   026043   025173   023652                                      
500001451310013 01740 4810201St-LO               0230130RD 446              0280395Hébécrevon          0260896005326005326500001520300000000000202      007943                                                                                                                                 120074238         110074188    0    100070828    0    090058948    0    080060428    0                                                                                                                                                   
500001452310013 01740 4810201RD 446              0280395                    0280695La Picardière       0280500000300000300500001520300000000000288      007943                                                                                                                                 120074238         110074188    0    100070828    0    090076438    0    080078358 2708                                                                                                                                                   
500001520310013 01740 4110201Dev ST LO           0280695RN 13               0460870Pont Hebert         0320000015870015870500002400100000000000288      007943 1117    006794   007155   006967   008083   008280   008662   008710   008732   008525   008293   007683   007395               120074231 1087    110074181 1077    100070821 1127    090076431 1718    080078351 2708    006669   006648   007196   007493   007479   008018   008011   007975   007809   007391   007340   007034                                      
500002200310013 01750 4810201A 84                0390000RD 973              0410885PONTS-SOUS-AVRANCHES0410000003125003125500002400300000000000103      028169                                                                                                                                 120282978         110287478         100282478         090284188         080281798                                                                                                                                                        
500002300310013 01750 4810201RD 973              0410885ECH.CROMEL          0470235LE VAL ST PERE      0450174005585005585500002400300000000000201      034898                                                                                                                                 120350538         110356158         100349898         090352068         080349488                                                                                                                                                        
500002400310013 01750 4110201ECH. CROMEL         0470235A 84                0490130ST-QUENTIN          0480330001940001940500002800100000000001187      037664 1007    027682   030720   032139   038791   041210   039652   048115   052415   040059   036076   033795   030701               120378271 1267    110384391 1297    100377541 1387    090379931 1407    080377561 1637    029518   030625   033232   040504   040860   039810   047127   049996   040232   034739   034603   032349                                      
500002401310013 01750 4810201A 84                0490130                    0530360Pontaubault         0500990004230004230500002800300000000001187      014317                                                                                                                                 120142608         110146118         100144668    0    090145438    0    080143468 1447                                                                                                                                                   
500002402310013 01750 4810201                    0530360                    0540000Précey              0530990000400000400500002800300000000001187      014317                                                                                                                                 120142608         110146118         100144668    0    090145438    0    080143468 1447                                                                                                                                                   
500002800310013 01750 4110201                    0540000RN 176              0620500PONTORSON           0570990008500008500500002800100000000001187      014317 1397    009564   010703   011815   014510   016274   014705   019224   021695   014975   013684   012280   011996               120142601 1407    110146111 1417    100144661 1417    090145431 1397    080143461 1447    010158   010712   011991   015699   015958   014549   018818   020479   015241   012741   012829   011751                                      
500004450310013 01760 4814001RN 175              0460000ILLE ET  VILAINE    0481257PONTORSON-Temp      0460237003420003420500002800300000000000998      010790                                                                                                                                 120107498         110110148         100109048         090109638         080108148    0                                                                                                                                                   
600004101310013 00310 4813001SEINE MARITIME      0000000Les landerons       0110000SAINT GERMER DE FLY 0020000011054011054760006700300000000000895      007123                                                                                                                                 120075138         110078768         100076488         090075078         080077608    0                                                                                                                                                   
600004102310013 00310 4813001                    0110000                    0161003Ons-en-Bray         0120000006003006003760006700300000000000895      007123                                                                                                                                 120075138         110078768         100076488    0    090075078    0    080077608    0                                                                                                                                                   
610000100310013 00120 4113001EURE                0000000R.D. 912            0230262LA VENTROUZE        0090927023262022080610000100100000000001290      007942         006401   006912   007566   008086   008565   008245   008945   008963   008205   008131   007479                        120079111 2487    110081951 2387    100077651 2237    090000001         080078771 1897    006693   006659   007493   008805   008368   008332   009178   008751   008301   007744   007297   007267                                      
610000200310013 00120 4813001DEVIATION MORTAGNE  0230262R.D. 912            0270548ST HILAIRE          0250430004286004286610000100300000000000194      008102                                                                                                                                 120080718         110083628         100079248         090000008         080080398                                                                                                                                                        
610000300310013 00120 4113001RD 912              0270548RD 4A               0430019N12_LECHATEL        0270800013572012518610000600100000000000100      000000                                                                                                                                 120075011         110000001         100000001         090000001         080000001         006480   006671   008063   009296   008168   007629   008229   007355   006868   006842   007147   007241                                      
610000400310013 00120 4113001R.D. 4 A            0430019R.D. 112            0610620Ventes de Bourse    0480300018601018025610000600100000000000192      000000                                                                                                                                 120098251 2147    110100391 2067    100000001    0    090000001    0    080099431 1128    008779   008671   009658   010618   010353   010413   010698   010284   009819   009851   009410   009299                                      
610000501310013 00120 4113001ENTREE DEVIATION    0610620R.N. 138            0630300VALFRAMBERT         0620100001680001680610000600100000000000294      010275         009107   009319   010153   010465   010735   010732   011254   011259   010685   010523   009855   009139               120102691    7    110099731 1837    100101781         090000001         080109611 2337    009104   009346   010248   010365   010587   010866   011093   011279   010579   010538   010109   009080                                      
610000502310013 00120 4813001RN 138              0630300FIN DEVIAT.ALENCON  0720070DEVIATION ALENCON   0680020007836007836610000600300000000000188      008721                                                                                                                                 120087188         110091328         100089638         090000008         080089898                                                                                                                                                        
610000600310013 00120 4113001FIN DEVIATION       0720070LIMITE MAYENNE      0840911ST DENIS S/SARTH.   0790440012668009551760003700100000000000188      008689         007440   008020   008453   008695   009025   009029   009434   009681   009131   008872   008324   008114               120086861 2207    110090981 2147    100089281 2107    090000001         080089531 2097    007546   007753   008421   009435   009144   009080   009880   009461   009063   008447   008133   007830                                      
760501100310013 00280 1810241DPT SOMME           0290000CALLENGEVILLE       0430900Fallencourt         0350000014900014900760501200300000000000193      012885                                                                                                                                 120130878         110133778         100131128    0    090126908    0    080125728    0                                                                                                                                                   
760501200310013 00280 1110241CALLENGEVILLE       0430900NEUFCHATEL NORD     0550000Callengeville       0450000011100011100760501500100000000000193      011984         008276   009458   009790   012202   012479   013734   015464   017942   012692   011463   010247   009846               120121711 2707    110124391 2727    100121921 2657    090117991 2557    080116891 2567    009208   009345   010504   012714   012478   013903   015749   017285   013624   011130   010429   009567                                      
760501300310013 00280 1810241NEUFCHATEL CD 928   0550000NEUFCHATEL          0600000NEUFCHATEL          0590700005000005000760501500300000000000288      000000                                                                                                                                 120000008         110000008         100241548         090223278         080225458                                                                                                                                                        
760501400310013 00280 1810241ESCLAVELLES         0600000ECHANGEUR HAYONS    0650450Esclavelles         0630000005450005450760501500300000000000193      000000                                                                                                                                 120000008         110000008         100000008    0    090261228    0    080263568    0                                                                                                                                                   
760501500310013 00280 1110241ECH LES HAYONS      0650450ECH PUCHEUIL        0750000Maucomble           0670000009550009550760501500100000000000193      000000                                                                                                                                 120000001         110000001         100000001         090262731 1458    080265071 2537                                                                                                                                                   
760501600310013 00280 1810241ECH PUCHEUIL        0750000                    0800000Bosc-Bérenger       0800000005000005000760501500300000000000193      000000                                                                                                                                 120000008         110000008         100000008    0    090219218    0    080221568    0                                                                                                                                                   
760501601310013 00280 1810241                    0800000ECH RD 919          0830650Rocquemont          0800000003650003650760501500300000000000193      000000                                                                                                                                 120000008         110000008         100000008    0    090219218    0    080221568    0                                                                                                                                                   
760501700310013 00280 1110241ECH RD919           0830650ECH FIN A28         0970387Quincampoix         0900000013737013737800500100100000000000193      021317  557    018321   019712   020117   022279   022470   023619            020135   023317   022616   021352                        120259591 1297    110272211 1397    100268331 1767    090246991    8    080265411    8    024276   023816   025590   027594   026149   028068   029714   030183   028597   026412   020997   020017                                      
760500401310013 01310 1810241                    0210936                    0300600Sandouville         0280600008664008664760500500300000000000409      019751                                                                                                                                 120199868         110200928         100185268         090187518         080176508 1400                                                                                                                                                   
760500500310013 01310 1110241                    0300600                    0330393GONFREVILLE         0320850002793002793760501200100000000000409      041943         038951   040767   040284   043287   041769   044797   044917   039047   044085   044213   041519   039761               120424451    8    110426641 1127    100416811 1048    090407171    0    080404811 1200    041327   040358   043003   043060   041266   045088   044838   040490   043857   044779   042561   038732                                      
760500400310013 0131001810241                    0160000                    0210936Tancarville         0160000005936005936760500500300000000000409      018327                                                                                                                                 120185538         110186408         100181948    0    090177748    0    080176508 1408                                                                                                                                                   
760500100310013 01500 1110241ROUEN               0000000CANTELEU            0040000CANTELEU            0020600004230004230760500500100000000000288      062240    0                                                                                                                            120598671    0    110594491    0    100572161    0    090563031    0    080501441    0                                                                                                                                                   
760500200310013 01500 1110241Canteleu            0040000ech la vaupaliere   0060320La Vaupaliere       0040850002090002090760500500100000000000102      053061 1217    048061   051231   050263   054392   053379   055170   055795   050444   055271   055891   053804                        120510401    7    110506821    7    100487781    7    090469691    7    080432451    7    049230   047544   051189   051581   051007   054146   050660   046573   053128   053749   053669   050048                                      
760500201310013 01500 1110241Ech la vaupaliere   0060320ech A 151           0080880St Jean de Cardonay 0060500002560002560760500500100000000000102      058726    0                                                                                                                            120565021    0    110561041    0    100539991    0    090520081    0    080478551    0                                                                                                                                                   
760500300310013 01500 1110241ROUMARE             0080880BARENTIN            0121143Roumare             0100700004263004263760500500100000000000288      034528    0                                                                                                                            120332161    0    110329831    0    100339291    0    090326731    0    080300801 1130                                                                                                                                                   
760500000310013 01510 1110241PISSY POVILLE       0000000PISSY POVILLE       0060400PISSY POVILLE       0010300006400006400760500500100000000000288      020744    0                                                                                                                            120199561    0    110198171    0    100190741    0    090183691    0    080169091    0                                                                                                                                                   
760003600310013 00270 4810201                    0190000                    0190042Varneville-Brettevil0190000000042000042760003700300000000000192      015081                                                                                                                                 120150428         110154258         100132968    0    090129618    0    080122518    0                                                                                                                                                   
760003601310013 00270 4810201rd2                 0190042totes nord          0240254totes sud           0210000005196005196760003700300000000000192      014836                                                                                                                                 120147978         110151748         100148538         090144798         080122518                                                                                                                                                        
760003700310013 00270 4110201TOTES               0240254ech rd353           0270300TOTES               0250500003046003046760003700100000000000288      015847  887    013392   014699   014621   016430   016129   017188   017726   016572   016492   016301   015748   014832               120158031    7    110162061    7    100158611    7    090154611    7    080146131    7    014532   013900   015619   015795   016426   016901   016646   016341   017424   015894   015799   014323                                      
760003800310013 00270 4810201ech d353            0270300ech d149 belmesnil  0340200belmesnil           0330200006900006900760003700300000000000102      013077                                                                                                                                 120130418         110133758         100130918         090127628         080120638                                                                                                                                                        
760003801310013 00270 4810201ech d149 belmesnil  0340200ech d108 auppegard  0390343manehouville        0380600005143005143760003700300000000000102      014146                                                                                                                                 120141088         110144698         100141628         090138058         080130498                                                                                                                                                        
760003802310013 00270 4815001ech d108            0390343d54 st aubin s scie 0440570st aubin s scie sud 0410000005227004000760003700300000000000102      013003                                                                                                                                 120129678         110132998         100130168         090126898         080119948                                                                                                                                                        
760003803310013 00270 4815001rd 54 st aubin      0440570RD 915              0470479st aubin s scie nord0460000002909002000760003700300000000000102      011842                                                                                                                                 120118118         110121128         100118568         090115588         080109258                                                                                                                                                        
760003900310013 00270 4840201CD 915              0470479DIEPPE              0490200ST AUBIN SUR SCIE   0470800001721000000760003700300000000000288      029183                                                                                                                                 120291028         110298468         100292118         090284758         080269158                                                                                                                                                        
760500039310013 00280 4140201ROUEN               0000000N31                 0010800Rouen St Hilaire    0010350002016002016760500500100000000000693      028880    0                                                                                                                            120384301    0    110418021    0    100411361    0    090412811    0    080416461 1110                                                                                                                                                   
760500021310013 00280 4140201N31                 0010800ech d443bg          0020000TCAR                0010950000184000184760500500100000000000693      028880    0                                                                                                                            120384301    0    110418021    0    100411361    0    090412811    0    080416461 1110                                                                                                                                                   
760500001310013 00280 4140201ROUEN DARNETAL      0020000                    0040950Tunnel              0030900003437003437760500500100000000000693      028880  497    025898   027395   028041   029308   029006   031348   030381   026315   030468   030513   029160   028735               120384301    7    110418021 1047    100000001    0    090412811    0    080416461 1110    039216   038941   040823   042025   040702   044060   041235   039482   042745   039663   025945   026397                                      
760500023310013 00280 4110201ech 443             0040950ech 2828            0060500Le Chapitre         0050000001063001063760500500100000000000102      031539    0                                                                                                                            120419511    0    110456191    0    100448781    0    090450361    0    080452831    0                                                                                                                                                   
760500024310013 00280 4110201ech 2828            0060500fin d928 a28        0070848Bois Guillaume      0070200001348001348760500500100000000000102      024034    0                                                                                                                            120319811    0    110347871    0    100341701    0    090342881    0    080343131 1370                                                                                                                                                   
760006100310013 00310 4140201DARNETAL            0000000DARNETAL            0010780Route de Lyons      0010000001780001780760006700100000000000288      030640    0                                                                                                                            120323161    0    110338761    0    100328921    0    090322851    0    080333201    0                                                                                                                                                   
760006101310013 00310 4840201DARNETAL            0010780DARNETAL            0020050DARNETAL OUEST      0010800000270000270760006700300000000000288      030592                                                                                                                                 120322668         110338238         100328408    0    090322348    0    080333208    0                                                                                                                                                   
760006200310013 00310 4840201DARNETAL            0020050DARNETAL            0020300Darnetal centre     0020100000250000250760006700300000000000227      030592                                                                                                                                 120322668         110338238         100328408         090322348         080333208                                                                                                                                                        
760006300310013 00310 4143001DARNETAL            0020300RD43 St Jacques     0060520Darnétal            0030050004220004220760006700100000000000288      012358    0                                                                                                                            120130281    0    110136581    0    100136431    0    090133921    0    080135151 1000                                                                                                                                                   
760006400310013 00310 4813001RD 43 St Jacques    0060520RD 7                0090938ST JACQUES         A0080750003418003418760006700300000000000288      011641                                                                                                                                 120122808         110128728         100124988         090118908         080133898                                                                                                                                                        
760006500310013 00310 4113001CD 7                0090938CD 13/ CD 85        0140600Préaux              0110000004662004662760006700100000000000288      007719    0                                                                                                                            120081421    0    110085351    0    100082871    0    090081351    0    080084101    0                                                                                                                                                   
760006600310013 00310 4813001                    0140600                    0181293Martainville        0150000004693004693760006700300000000000288      005191                                                                                                                                 120054758         110057418         100055758    0    090054738    0    080056588    0                                                                                                                                                   
760006601310013 00310 4813001CD13 /CD 85         0220000CD 921              0320100LA HAYE             0270400017500017500760006700300000000000288      004562                                                                                                                                 120048148         110050478         100049018         090050458         080056588                                                                                                                                                        
760006700310013 00310 4113001CD 921              0320100GOURNAY EN BRAY     0460714Gournay             0430200014614014614760006700100000000000288      005191 1327    004318   004778   004842   005482   005194   005746   005655   005405   005495   005417   005108   004852               120054751    8    110057391 1627    100055721    8    090054691    0    080056531 1718    005040   004990   005409   005754   005715   005917   005984   005733   005841   005624   005077   004604                                      
760006800310013 00310 4843001GOURNAY EN BRAY     0460714GOURNAY EN BRAY     0470600St Aubin            0470000000986000000760006700300000000000288      011988                                                                                                                                 120126458         110132568         100128718    0    090126348    0    080130618    0                                                                                                                                                   
760006900310013 00310 4843001GOURNAY EN BRAY     0470600GOURNAY EN BRAY     0480500GOURNAY Ouest       0480000000900000000760006700300000000000288      009728                                                                                                                                 120102598         110107568         100104448    0    090102528    0    080105978    0                                                                                                                                                   
760007000310013 00310 4843001GOURNAY EN BRAY     0480500GOURNAY EN BRAY     0490075GOURNAY Est         0480800000575000000760006700300000000000288      009477                                                                                                                                 120099928         110104768         100101728    0    090099858    0    080103218    0                                                                                                                                                   
760007100310013 00310 4843001GOURNAY EN BRAY     0490075FERRIERES EN BRAY   0510852FERRIERES EN BRAY   0500000002777000000760006700300000000000288      010932                                                                                                                                 120115298         110120878         100117368         090146218         080151088 113                                                                                                                                                    
760007500310013 01380 4810201GD COURONNE         0090000GD COURONNE         0100064GD COURONNE         0090800001064001064760007600300000000000288      034652                                                                                                                                 120273238         110296598         100288278         090286758         080265358                                                                                                                                                        
760007600310013 01380 4110201GRAND COURONNE      0100064PETIT COURONNE      0120900Les Essarts         0110200002836002836760007600100000000000288      047555  917    037753   039852   040280   042974   069645   087841   044915   040492   045304   044355   038277   039013               120374621    7    110406341    7    100394841    7    090000001    0    080362611    0    037433   036234   039810   040568   039446   042718   039707   037310   039963   030821   028974   036552                                      
760007700310013 01380 4810601PETIT COURONNE      0120900PETIT COURONNE      0140800PETIT COURONNE      0130500001900001900760007600300000000000288      097458                                                                                                                                 120767748         110832768         100809208         090000008         080743158                                                                                                                                                        
760007800310013 01380 4810201PETIT COURONNE      0140800ST ETIENNE ROUVRAY  0150048ST ETIENNE ROUVRAY  0150000000248000248760007600300000000000288      037210                                                                                                                                 120293148         110317978         100308988         090000008         080283778                                                                                                                                                        
760111110310013 01380 4110201                    0210000                    0220703Pont Guillaume      0210500001703001703760500500100000000000288      000000                                                                                                                                 120471571         110444421    0    100443891    0    090477361    0    080632451    0                                                                                                                                                   
760008103310013 01820 4843001                    0180000                    0180596Harfleur            0180300000596000596          00000000000388      000000                                                                                                                                 120040118         110000008         100000008    0    090000008    0    080130058    0                                                                                                                                                   
760008400310013 02820 4815001a131                0000000RN 15               0020942gonfreville         0000400002942002942760500500300000000000102      018410                                                                                                                                 120186348         110187278         100182898         090198708         080194398                                                                                                                                                        
760008500310013 03380 4110201PETIT COURONNE      0000000GRAND QUEVILLY      0030500CETE                0010800003500003500760500500100000000000388      072317  977    066959   071208   070897   074960   073125   077220   076233   061996   072773   076654   073660                        120670291    8    110670011    7    100640271    0    090612961    7    080523921    0    065280   062042   067726   067634   065391   070849   066093   060174   069559   071953   068834   068777                                      
760008600310013 03380 4110101gd quevilly         0030500gd quevilly         0050850Bois Cany           0050600001500001500760500500100000000000301      074566    0                                                                                                                            120722421    0    110000001    0    100366811    0    090000001    0    080523921    0                                                                                                                                                   
760510010310013 03380 4140201petit quevilly      0050850petit quevilly      0070940le petit quevilly   0060500002940002940800500100176000000010600      077962  867    076794   082592   081881   084877   079844   083018   072856   053680   081641   082884   079049   077415               120755321         110000001    0    100383511    7    090000001    0    080000001    0    068303   075763   079660   075815   076990   081813   069527   064538   074811   080059   081389   078114                                      
800500000310013 00280 1817031RN1                 0000000ECHA RD 40          0010695GR-LAVIERS          0010000001932001932800500100300000000000796      000000                                                                                                                                 120140378         110146058         100147738         090146448         080144538                                                                                                                                                        
800500100310013 00280 1117031ECHA  RD 40         0010695ECHA  RD925         0040245ABBEVILLE           0020650002543002543800500200100000000001291      000000                                                                                                                                 120141171 2448    110146511 2707    100148301 2308    090147041 2198    080145111 2278    011112   011361   012760   014540   014144   015933   017890   019336   016213   013382   011471   011147                                      
800500101310013 00280 1817031ECHA RD925          0040245ECHA RD928          0100360MONT CAUBERT        0070006006095006095800500200300000000000202      000000                                                                                                                                 120120498         110125238         100119528         090117328         080115538                                                                                                                                                        
800500200310013 00280 1117031ECHA RD928          0100360ECHA RD 29          0170042BEHEN               0100641006690006690          00000000000796      000000                                                                                                                                 120118771         110123451         100117771         090115641         080113891         009066   009155   010337   012467   012393   014011   015454   015752   013094   010889   010313   009486                                      
800500300310013 00280 1117031ECHA RD 29          0170042SEINE/MAR           0280611BOUTTENCOURT        0270355011554011554          00000000000796      000000                                                                                                                                 120116121         110116041         100113391         090097131         080107251         008400   008450   009733   011871   011629   013062   014894   016658   012983   010214   009671                                               