860000900310014 00100 411 251CHAUNAY EX RN 10    1000110DEPARTEMENT 79      1070118CHAUNAY             1060430006881006881          79000010030187      014608         012547                     015475   011757   015224   016744   018575   014235   014559   013781   013964               130144641 3467    120140021 3497    110143951 3687    100120881         090000001         011915   012690   013833   014481   015092   014734   016571   018200   014838   014205   013556   013275                                      
860000900210014 00100 411 251CHAUNAY EX RN 10    1000110DEPARTEMENT 79      1070118CHAUNAY             1060430006881006881          79000010030187      007388         006210                     007479   007006   007542   007820   009714   007211   007149   006933   006805               130071441 3367    120068221 3387    110070981 3567    100057861         090000001         005968   006180   006723   007173   007478   007200   007763   009399   007642   006895   006750   006475                                      
860000900110014 00100 411 251CHAUNAY EX RN 10    1000110DEPARTEMENT 79      1070118CHAUNAY             1060430006881006881          79000010030187      007220         006337   006676   006945   007996   004751   007682   008924   008861   007024   007410   006848   007159               130073201 3677    120071801 3727    110072971 3927    100063021         090000001         005947   006510   007110   007308   007614   007534   008808   008801   007196   007310   006806   006800                                      
860000800310014 00100 481 251COUHE EX RN 10      0870550CHAUNAY EX RN 10    1000110COUHE VERAC         09207000125960125968600009003          0187      016475                                                                                                                                 130163138         120157928         110162368         100136348         090000008                                                                                                                                                        
860000701310014 00100 411 251RD 742              0740535COUHE EX RN 10      0870550LES MINIERES        07701800130210130218600009003          0187      018418 3037    015743   017161   017353   019154   018019   019087   020668   021836   018141   018620   017342   017774               130181631 3097    120158711 3067    110171541 3307    100169171         090175121         015592   016366   017743   018304   018848   018715   020460   021492   018757   018409   017367   015742                                      
860000701210014 00100 411 251RD 742              0740535COUHE EX RN 10      0870550LES MINIERES        07701800130210130218600009003          0187      009306 3037    008231   008575   008771   009490   009061   009677   009980   011483   009337   009336   008841   008820               130092191 3087    120069671 3007    110081131 3287    100083771         090087961         007945   008168   008805   009261   009513   009359   009888   011248   009724   009217   008839   008570                                      
860000701110014 00100 411 251RD 742              0740535COUHE EX RN 10      0870550LES MINIERES        07701800130210130218600009003          0187      009112 3047    007512   008586   008582   009664   008958   009410   010688   010353   008804   009284   008501   008954               130089441 3127    120089041 3167    110090411 3337    100085401         090087161         007647   008198   008938   009043   009335   009356   010572   010244   009033   009192   008528   007172                                      
860000600310014 00100 411 251RN 11               0620334RD 742              0740535RUFFIGNY            06603500121400121408600009003          0187      023193 2477    020828   021838   021962   023805   022532   024033   025259   025835   023278   023769   022414   022658               130227931 2527    120000001         110224881 2597    100203971         090216601         020097   020650   022298   022821   023382   023471   024913   025374   023606   023396   022032   021294                                      
860000600210014 00100 411 251RN 11               0620334RD 742              0740535RUFFIGNY            06603500121400121408600009003          0187      011625 2507    010471   010865   011023   011777   011274   012103   012191   013447   011872   011869   011343   011211               130113951 2567    120000001         110112701 2607    100102161         090108341         010177   010294   011055   011484   011740   011693   012067   013146   012107   011669   011036   010189                                      
860000600110014 00100 411 251RN 11               0620334RD 742              0740535RUFFIGNY            06603500121400121408600009003          0187      011568 2417    010357   010973   010939   012028   011258   011930   013068   012388   011406   011900   011071   011447               130113981 2457    120000001         110112181 2587    100101811         090108261         009920   010356   011243   011337   011642   011778   012846   012228   011499   011727   010996   011105                                      
860000501310014 00100 411 251EX RN 10            0580890RN 11               0620334CROUTELLE           06007850034540026498600009003          0187      033246 1967    030260   031685   031958   034342   032628   034703   035574   036024   033472   034014   031906   032290               130329381 1987    120315561 2057    110316511 2157    100000001         090301371         029087   030337   032453   033054   033654   033976   035558   035470   034044   033696   032015   031707                                      
860000501210014 00100 411 251EX RN 10            0580890RN 11               0620334CROUTELLE           06007850034540026498600009003          0187      016766 1947    015328   015872   016116   017128   016378   017561   017382   018745   017008   017186   016312   016126               130166081 1967    120155371 2027    110160301 2117    100141781         090146361         014774   015197   016180   016702   017043   017005   017412   018373   017492   016900   016246   015874                                      
860000501110014 00100 411 251EX RN 10            0580890RN 11               0620334CROUTELLE           06007850034540026498600009003          0187      016480 2017    014932   015813   015842   017214   016250   017142   018192   017279   016464   016828   015594   016164               130163301 2037    120160191 2117    110156211 2227    100000001         090155011         014313   015140   016273   016352   016611   016971   018146   017097   016552   016796   015769   015833                                      
790002301310014 02480 4113 51A 10                0000000RN 11               0080758LES GRELLES         00409500089670089678600009003          0187      007652 1197    005673   006068   006574   008259   007794   008690   009372   010260   008178   007650   006599   006594               130000001         120000001         110052681         100000001         090000001                                                                                                                                                        
790002301210014 02480 4113 51A 10                0000000RN 11               0080758LES GRELLES         00409500089670089678600009003          0187      003829 1217    002931   003023   003296   004008   003863   004410   004421   005351   004215   003773   003369   003235               130000001         120000001         110026611         100000001         090000001                                                                                                                                                        
790002301110014 02480 4113 51A 10                0000000RN 11               0080758LES GRELLES         00409500089670089678600009003          0187      003823 1157    002742   003045   003278   004251   003931   004280   004951   004909   003963   003877   003230   003359               130000001         120000001         110026071         100000001         090000001                                                                                                                                                        
790000806310014 00110 411 251RN 248              0540000DEPARTEMENT 17      0650681EPANNES             0560700012045012045860000900317000030030187      019405 1077    015611   016469   017841   019879   019683   021325   022271   023875   021762   019612   017353   016979               130190541 1137    120189641 1087    110190541 1077    100169771         090184071         016039   016042   017450   019422   020279   020089   022657   023842   020002   018730   017235   016584                                      
790000806210014 00110 411 251RN 248              0540000DEPARTEMENT 17      0650681EPANNES             0560700012045012045860000900317000030030187      009724 1137    007898   008212   008922   009807   009807   010822   010811   012308   011011   009788   008777   008427               130095511 1187    120094831 1107    110095301 1087    100085171         090092361         008106   007987   008607   009693   010263   009968   011028   012208   010302   009312   008766   008240                                      
790000806110014 00110 411 251RN 248              0540000DEPARTEMENT 17      0650681EPANNES             0560700012045012045860000900317000030030187      009681 0977    007713   008257   008919   010072   009876   010503   011460   011567   010751   009824   008576   008552               130095031 1037    120094811 1067    110095241 1037    100084601         090091711         007933   008055   008843   009729   010016   010121   011629   011634   009700   009418   008469   008344                                      
790000200310014 00100 481 251RD 948              0010492DEPARTEMENT 16      0060333MAISON BLANCHE      0030000004931004931000000000016000010030187      000000                                                                                                                                 130000008         120000008         110000008         100000008         090000008                                                                                                                                                        
790000100310014 00100 481 251DEPARTEMENT 86      0000000RD 948              0010492MAISON BLANCHE      0010000001502001502000000000086000090030187      000000                                                                                                                                 130000008         120000008         110000008         100000008         090000008                                                                                                                                                        
640012000310014 11340 485 251PAU A 64            0000000PAU A 64            0110254PAU RN 1134         0030000006222006222000000000000000000000193      000000                                                                                                                                 130000008         120000008         110000008         100000008         090000008                                                                                                                                                        
640003100310014 11340 4113 51RN 134 PR 115       1160000ESPAGNE             1190000FORGES D'ABEL-TUNNE 11602000037980037980000000000          0106      000882 1847    000731   000805   000928   001009   000895   000817   000167   001703   000895   000993   000779   000849               130010921 2427    120010721 2507    110011021 2397    100008571         090010771         000703   000795   000988   001010   001108   000998   001545   002225   001162   000911   000781   000837                                      
640003100210014 11340 4113 51RN 134 PR 115       1160000ESPAGNE             1190000FORGES D'ABEL-TUNNE 11602000037980037980000000000          0106      000383 1937    000372   000393   000467   000479   000425   000410   000005   000486   000270   000489   000396   000404               130005261 2457    120005261 2557    110005401 2467    100004711         090005281         000355   000396   000488   000496   000544   000415   000679   001107   000570   000448   000398   000392                                      
640003100110014 11340 4113 51RN 134 PR 115       1160000ESPAGNE             1190000FORGES D'ABEL-TUNNE 11602000037980037980000000000          0106      000499 1707    000359   000412   000461   000530   000470   000407   000162   001217   000625   000504   000383   000445               130005661 2357    120005461 2407    110005621 2267    100003861         090005491         000348   000399   000500   000514   000564   000583   000866   001118   000592   000463   000383   000445                                      
640003003310014 01340 4113 51URDOS EB 20         1090270ESPAGNE SOMPORT     1230278COL DU SOMPORT      12300000138910138910000000000          0194      000505 0477    000475   000659   000650   000379                     001377   000573   000252   000186   000130   000361               130004291         120003661    7    110003411    7    100000001         090004171         000495   000469   000758                     000253   000390   000627   000257   000181   000157   000693                                      
640003003210014 01340 4113 51URDOS EB 20         1090270ESPAGNE SOMPORT     1230278COL DU SOMPORT      12300000138910138910000000000          0194      000247 0497    000241   000232   000348   000190                     000653   000313   000135   000101   000069   000181               130002221    7    120001871    7    110001841    7    100000001         090002171         000232   000219   000406                     000146   000211   000342   000139   000100   000079   000336                                      
640003003110014 01340 4113 51URDOS EB 20         1090270ESPAGNE SOMPORT     1230278COL DU SOMPORT      12300000138910138910000000000          0194      000258 0437    000234   000427   000302   000189                     000724   000260   000117   000085   000061   000180               130002071         120001791    7    110001571    7    100000001         090002001         000263   000250   000352                     000107   000179   000285   000118   000081   000078   000357                                      
640003002310014 01340 4113 01RD 239              0980000URDOS EB 20         1090000URDOS               10900000110020099240000000000          0187      000000                                                                                                                                 130000001         120002741         110002891         100002461         090015261                                                                                                                                                        
640003001310014 01340 4813 51RD 237              0920475RD 239              0980497ACCOUS              09302000060760055586400028013          0187      002661                                                                                                                                 130000008         120000008         110028388         100025988         090029238                                                                                                                                                        
640002900310014 01340 4113 51RD 918              0780376RD 237              0920475SARRANCE            08607000139220132976400028013          0187      000000                                                                                                                                 130031561 1257    120000001         110032311    7    100000001         090000001         002213   002441   002832   002995   003029   003346   004196   004993   003434   003107   002549   002659                                      
640002900210014 01340 4113001918                 0780376937                 0920475SARRANCE            0860700013922013297640002801300000000000212      000000                                                                                                                                 130015821 1287    120000001         110016241    7    100000001         090000001         001134   001221   001425   001503   001523   001683   002046   002530   001728   001548   001294   001306                                      
640002900110014 01340 4113001918                 0780376937                 0920475SARRANCE            0860700013922013297640002801300000000000212      000000                                                                                                                                 130015741 1187    120000001         110016071 1147    100000001    0    090000001    0    001079   001220   001407   001492   001506   001663   002150   002463   001706   001559   001255   001353                                      
640002801310014 01340 4112 51RD 918              0760615RD 918              0780376ASASP               07801860017510012006400028013          0187      003680 0887    002964   003187   003385   003558   003601   003769   004205   005363                     003328   003381               130038171 121     120000001         110039241 1177    100035911         090040401         002892            003592   003508                     004237   005547   004103   003744   003322   003408                                      
640002801210014 01340 4112 51RD 918              0760615RD 918              0780376ASASP               07801860017510012006400028013          1292      001828 0867    001499   001575   001695   001750   001770   001891   002046   002700                     001664   001659               130019091 1207    120000001         110019521 1167    100017911         090020211         001460            001772   001792                     001986   002782   002048   001854   001756   001731                                      
640002801110014 01340 4112 51RD 918              0760615RD 918              0780376ASASP               07801860017510012006400028013          1292      001852 0907    001465   001612   001690   001808   001831   001878   002159   002663                     001664   001722               130019081 1227    120000001         110019721 1207    100018001         090020191         001432            001820   001716                     002251   002765   002055   001890   001566   001677                                      
640002700310014 01340 4813 51OLORON EB 20        0690529RD 918              0760615GURMENCON           07205000071620039136400028013          0187      006228                                                                                                                                 130000008         120000008         110066418         100060788         090068398                                                                                                                                                        
640002600310014 01340 4842 51RD 936              0680760OLORON EB 20        0690529BIDOS               06905000007740002696400024003          0187      006564                                                                                                                                 130064618         120064598         110059868         100066008         090066258                                                                                                                                                        
640002500310014 01340 4842 51OLORON EB 10        0660852RD 936              0680760OLORON STE MARIE    06800000019190000006400024003          0187      009449                                                                                                                                 130093018         120092988         110086178         100095008         090095368                                                                                                                                                        
640002400310014 01340 4112 51RD 920              0610579OLORON EB 10        0660852OLORON              06508000052970050466400024003          0187      011065 0517    010276   010563   011046   010960   010794   011157   011207   011293   011743   011849   011012   010861               130108911    7    120108871    7    110100891    7    100111221         090111631         010071   010534   010724   010958   010389   011083   011303   011397   011529   011457   010610   010626                                      
640002400210014 01340 4112 51RD 920              0610579OLORON EB 10        0660852OLORON              06508000052970050466400024003          0187      005517 0507    005147   005266   005522   005455   005380   005569   005543   005630   005862   005908   005513   005401               130054291    7    120054241    7    110050391    7    100055481         090055681         005038   005229   005338   005474   005187   005525   005585   005675   005766   005704   005350   005273                                      
640002400110014 01340 4112 51RD 920              0610579OLORON EB 10        0660852OLORON              06508000052970050466400024003          0187      005548 0527    005129   005297   005524   005505   005414   005588   005664   005663   005881   005941   005499   005460               130054621    7    120054631    7    110050501    7    100055741         090055951         005033   005305   005386   005484   005202   005558   005718   005722   005763   005753   005260   005353                                      
640002300310014 01340 4813 51RD 934              0440600RD 920              0610579BELAIR              0540800016914016914640002400300000000000187      007552                                                                                                                                 130074348         120074328         110068888         100075948         090076228                                                                                                                                                        
640002200310014 01340 4113 51PAU                 0370418RD 934              0440600JURANCON            04001000073010056466400024003          0187      017912 0557    016722   017416   018000   017385   017122   017607   018449   018288   018970   019414   017545   017982               130174741    7    120175361    7    110178681         100131381         090178111         016633   017399   017902   017394   016543   017426   017708   017769   017906   018309   016935   017760                                      
640002200210014 01340 4113 51PAU                 0370418RD 934              0440600JURANCON            04001000073010056466400024003          0187      008950 0557    008292   008751   008972   008667   008528   008702   009214   009235   009531   009726   008822   008942               130087141    7    120087401    7    110089001    7    100065431         090088811         008225   008728   008920   008636   008224   008666   008923   008818   008916   009114   008470   008929                                      
640002200110014 01340 4113 51PAU                 0370418RD 934              0440600JURANCON            04001000073010056466400024003          0187      008962 0557    008430   008665   009028   008718   008594   008905   009235   009053   009439   009688   008723   009040               130087601    7    120087961    7    110089681         100065951         090089301         008408   008671   008982   008758   008319   008760   008785   008951   008990   009195   008465   008831                                      
400552000310014 06410 1813 11A64                 0000000N117                0060000BARO PEYREHORADE    00100000070320070320000000000000       0187      000000                                                                                                                                 130000008         120000008         110000008         100000008         090000008                                                                                                                                                        
400550200310014 00630 181 221HOSSEGOR            0490789ST GEOURS           0650867                    04908000167100167100000000000000       0187      000000                                                                                                                                 130000008         120000008         110000008         100000008         090000008                                                                                                                                                        
400550100310014 00630 1810221DEPARTEMENT 64      0350700HOSSEGOR            0490789                    0350700014089014089000000000040055060030187      000000                                                                                                                                 130000008         120000008         110000008         100000008         090000008                                                                                                                                                        
400000801310014 00100 411 251ECH. RD947          0670190SAINT GEOURS A 63   0880195MAGESQ              08308000215710215710000000000000       0187      000000                                                                                                                                 130000001         120000001         110263921 3267    100000001         090268441                                                                                                                                                        
400000801210014 00100 411 251ECH. RD947          0670190SAINT GEOURS A 63   0880195MAGESQ              08308000215710215710000000000000       0187      000000                                                                                                                                 130000001         120000001         110132011 3267    100000001         090134261                                                                                                                                                        
400000801110014 00100 411 251ECH. RD947          0670190SAINT GEOURS A 63   0880195MAGESQ              08308000215710215710000000000000       0187      000000                                                                                                                                 130000001         120000001         110131911 3267    100000001         090134181                                                                                                                                                        
400000500310014 00100 411 251ECH. RD38           0440050ECH. RD947          0670190LAHARIE SUD         0460350023528023528000000000000000000000400      000000                                                                                                                                 130000001         120000001         110000001         100230211         090297361                                                                                                                                                        
400000500210014 00100 411 251ECH. RD38           0440050ECH. RD947          0670190LAHARIE SUD         0460350023528023528000000000000000000000400      000000                                                                                                                                 130000001         120000001         110000001         100118161         090146971                                                                                                                                                        
400000500110014 00100 411 251ECH. RD38           0440050ECH. RD947          0670190LAHARIE SUD         0460350023528023528000000000000000000000400      000000                                                                                                                                 130000001         120000001         110000001         100112051         090150391                                                                                                                                                        
400000400310014 00100 411 251ECH. RD63           0260050ECH. RD 38          0440050LAHARIE NORD        0390650018017018017000000000000000000000400      000000                                                                                                                                 130000001         120000001         110000001         100294791         090292301                                                                                                                                                        
400000400210014 00100 411 251ECH. RD63           0260050ECH. RD 38          0440050LAHARIE NORD        0390650018017018017000000000000000000000400      000000                                                                                                                                 130000001         120000001         110000001         100144371         090144141                                                                                                                                                        
400000400110014 00100 411 251ECH. RD63           0260050ECH. RD 38          0440050LAHARIE NORD        0390650018017018017000000000000000000000400      000000                                                                                                                                 130000001         120000001         110000001         100150421         090148161                                                                                                                                                        
400000100310014 00100 411 251DEPARTEMENT 33      0000000ECH. RD63           0260050LE MURET            0040940026489026489000000000033000090030187      000000                                                                                                                                 130000001         120000001         110256151 3367    100286661         090279991                                                                                                                                                        
400000100210014 00100 411 251DEPARTEMENT 33      0000000ECH. RD63           0260050LE MURET            0040940026489026489000000000033000090030187      000000                                                                                                                                 130000001         120000001         110121521 3547    100136771         090127521                                                                                                                                                        
400000100110014 00100 411 251DEPARTEMENT 33      0000000ECH. RD63           0260050LE MURET            0040940026489026489000000000033000090030187      000000                                                                                                                                 130000001         120000001         110134631 3047    100149891         090152471                                                                                                                                                        
330564200210014 02300 411 401ECH.23              0360643ECH.24              0390541S42 ROCADE-INT      03703090028970028970000000000000       0194      055406 1537    049322   051481   052704   056603   054643   057721   063912   059364   056426   056091   051734   054518               130545461 1537    120532441 1567    110491241         100438591         090536511         048743   051306   052333   054949   054221   056533   063239   059322   055451   055029   050650   052439                                      
330554200110014 02300 411 401ECH.23              0360643ECH.24              0390541S42 ROCADE-EXT      03703090028970028970000000000000       0194      055426 1397    050355   050462   053351   055416   054809   057450   058797   065118   057786   056134   051939   053049               130545241 1417    120525371 1487    110528941         100458621         090547121         048594   049872   051916   054474   054641   055823   059002   064276   057367   055155   051418   051329                                      
330550601310014 00630 181 241ECHANGEUR CESTAS    0060000RD 211              0110830CESTAS(S64)         00706000058080058080000000000000       0187      000000                                                                                                                                 130000008         120000008         110000008         100000008         090623958                                                                                                                                                        
330550601210014 00630 181 241ECHANGEUR CESTAS    0060000RD 211              0110830CESTAS(S64)         00706000058080058080000000000000       0187      000000                                                                                                                                 130000008         120000008         110000008         100000008         090305088                                                                                                                                                        
330550601110014 00630 181 241ECHANGEUR CESTAS    0060000RD 211              0110830CESTAS(S64)         00706000058080058080000000000000       0187      000000                                                                                                                                 130000008         120000008         110000008         100000008         090318878                                                                                                                                                        
330524300110014 02300 411 441ECH.24              0390541ECH.25              0400703ECENON (ROC-EXT)(S4504002580012070012070000000000000       0290      058005 1467    052712   053133   056603   058232   057603   060178   061368   067300   060454   058690   054229   055126               130570731 1487    120564691 1487    110571151 1517    100000001         090568601         051541   053134   054693   057157   057213   057751   061463   066200   059869   057933   053782   053763                                      
330524200310014 02300 411 451ECH.22              0350247ECH.23              0360643S38 SENS 1+SENS 2   03600000013960013960000000000000       0194      108905 1487    098103   100172   104579   109847   107420   112985   120574   122923   112488   110136   101915   104935               131070851 1497    121056671 1497    111054961 1577    101067451         091061261         095473   099595   102505   107511   107050   109939   120175   121551   110839   108011   100024   101619                                      
330524200210014 02300 411 451ECH.22              0350247ECH.23              0360643ROCADE-INT(S38)     03600000013960013960000000000000       0194      054450 1507    048527   050575   051757   055409   053671   056515   062745   058678   055661   055077   051232   053217               130534001 1507    120525351 1497    110519851 1577    100531301         090527631         047570   050287   051325   053860   053161   055254   062059   057805   054448   053873   049539   051300                                      
330524200110014 02300 411 451ECH.22              0350247ECH.23              0360643ROCADE-EXT(S38)     03600000013960013960000000000000       0194      054455 1457    049576   049597   052822   054438   053749   056470   057829   064245   056827   055059   050683   051718               130536851 1467    120531321 1477    110535111 1577    100536151         090533631         047903   049308   051180   053651   053889   054685   058116   063746   056391   054138   050485   050319                                      
330523402310014 06300 181 241ECH.19              0310000ECH.21              0331224LA HOURCADE(S32)    03103450039240039240000000000000       0187      000000                                                                                                                                 130000008         120000008         110000008         100000008         091319378                                                                                                                                                        
330523402210014 06300 181 241ECH.19              0310000ECH.21              0331224ROCADE INTER(S32)   03103450039240039240000000000000       0187      000000                                                                                                                                 130000008         120000008         110000008         100000008         090661528                                                                                                                                                        
330523402110014 06300 181 241ECH.19              0310000ECH.21              0331224ROCADE EXTER(S32)   03103450039240039240000000000000       0187      000000                                                                                                                                 130000008         120000008         110000008         100000008         090657858                                                                                                                                                        
330522100310014 06300 181 241A 10                0000000ECHANGEUR LA BARDE  0050000ECHANGEUR LABARDE   00200000049540049540000000000000       0188      000000                                                                                                                                 130000008         120000008         110000008         100000008         090990778                                                                                                                                                        
330522100210014 06300 181 241A 10                0000000ECHANGEUR LA BARDE  0050000ROCADE INTER(Ech4)  00200000049540049540000000000000       0188      000000                                                                                                                                 130000008         120000008         110000008         100000008         090505858                                                                                                                                                        
330522100110014 06300 181 241A 10                0000000ECHANGEUR LA BARDE  0050000ROCADE EXTER(Ech4)  00200000049540049540000000000000       0188      000000                                                                                                                                 130000008         120000008         110000008         100000008         090484928                                                                                                                                                        
330514300210014 02300 411 441ECH.24              0390541ECH.25              0400703ICENON (ROC-INT)(S4404002580012070012070000000000000       0290      058597 1537    052290   054434   055896   060053   058030   060990   067180   062236   059823   059485   054964   057432               130578981 1527    120574291 1507    110582051 1547    100000001         090574361         052507   055516   056016   058589   057660   059504   066644   062030   058692   058316   053618   055414                                      
330513400310014 06310 111 241A630                0000000BEGLES              0021290BEGLES-A631(S50)    00100000027250027250000000000          0187      000000                                                                                                                                 130000001         120000001         110703311    7    100000001         090703211                                                                                                                                                        
330513400210014 06310 111 241A630                0000000BEGLES              0021290INTERIEUR(S50)      00100000027250027250000000000          0187      000000                                                                                                                                 130000001         120000001         110365271    7    100000001         090363771                                                                                                                                                        
330513400110014 06310 111 241A630                0000000BEGLES              0021290EXTERIEUR(S50)      00100000027250027250000000000          0187      000000                                                                                                                                 130000001         120000001         110338041    7    100000001         090339441                                                                                                                                                        
330505200310014 06600 1813041RD 3                0100400FIN A 66            0211219MIOS                01201000118480118483305050003000       0187      030786                                                                                                                                 130299538         120277028         110240918         100284648         090000008                                                                                                                                                        
330505100310014 06600 1113041FIN 2X2 VOIES       0060664RD 3                0100400Facture             0090000003758003758330505000300000000000187      000000                                                                                                                                 130000001         120000001         110096561    0    100284641    0    090000001    0                                                                                                                                                   
330505100210014 06600 1113041FIN2x2 VOIES        0060664RD 3                0100400FACTURE             0090000003758003758330505000300000000000212      000000                                                                                                                                 130000001         120000001         110047761         100000001         090000001                                                                                                                                                        
330505100110014 06600 1113041FIN2x2 VOIES        0060664RD 3                0100400FACTURE             0090000003758003758330505000300000000000212      000000                                                                                                                                 130000001         120000001         110048801    0    100000001    0    090000001    0                                                                                                                                                   
330505000310014 06600 1110241A 63                0000000FIN 2X2 VOIES       0060664MIOS SIREDO         00300000060070060073305050003000       0187      025260 0467    020208   021228   023589   025763   025794   028331   029511   030452   027925   025811   022124   022096               130245761         120227291    7    110197661         100233531         090216641         019264   021052   022829   025534   025425   026687   030855   030566   026076   024199   021099   021027                                      
330505000210014 06600 1110241A 63                0000000FIN 2X2 VOIES       0060664MIOS                00300000060070060073305050003000       0187      012586 0387    010105   010522   011694   012715   012766   014174   014803   015468   013920   012781   011028   010907               130122771         120114631    7    110099151         100116791         090113251         009739   010526   011077   012667   012638   013206   015558   015629   013115   012047   010562   010410                                      
330505000110014 06600 1110241A 63                0000000FIN 2X2 VOIES       0060664MIOS                00300000060070060073305050003000       0187      012674 0637    010103   010706   011895   013048   013028   014157   014708   014984   014005   013030   011096   011189               130122991    7    120112661    7    110098511         100116741         090103391         009525   010526   011752   012867   012787   013481   015297   014937   012961   012152   010537   010617                                      
330504601310014 02300 411 601ECH.25              0400703A 10                0440507S47 EXTER ET INTER  04400130038000038003305050003000       0290      000000                                                                                                                                 130000001         120000001         111176641 1467    100000001         091164011                                                                                                                                                        
330504601210014 02300 411 601ECH.25              0400703A 10                0440507S47 INTER           04400130038000038003305050003000       0290      000000                                                                                                                                 130000001         120000001         110583681 1437    100000001         090582761                                                                                                                                                        
330504601110014 02300 411 601ECH.25              0400703A 10                0440507S47 EXTER           04400130038000038003305050003000       0290      000000                                                                                                                                 130000001         120000001         110592961 1537    100000001         090581251                                                                                                                                                        
330504300310014 02300 4110401ECH.24              0390541ECH.25              0400703S46                 0400258001207001207330505000333000000000290      000000                                                                                                                                 130000001         120000001         110000001    0    100000001    0    091142961    0                                                                                                                                                   
330504300210014 02300 4110401ECH.24              0390541ECH.25              0400703S46                 0400258001207001207330505000333000000000212      000000                                                                                                                                 130000001         120000001         110000001         100000001         090000001                                                                                                                                                        
330504300110014 02300 4110401ECH.24              0390541ECH.25              0400703S46                 0400258001207001207330505000333000000000212      000000                                                                                                                                 130000001         120000001         110000001    0    100000001    0    090000001    0                                                                                                                                                   
330504000310014 02300 411 451ECH.21              0340000ECH.22              0350247PT F.MITTERAND      03500000012420012423305050003000       0194      114659 1307    105459   107289   111384   116708   114298   117961   124258   124895   114396   117456   108484   112574               131137291 1327    121113351         111100171         101077401         091051381         102366   106288   109631   114874   114110   117146   125367   125323   117266   115350   107343   109021                                      
330504000210014 02300 411 451ECH.21              0340000ECH.22              0350247ROCADE-INT          03500000012420012423305050003000       0194      060029 1317    054228   056252   057462   061123   059198   062453   068258   063193   061230   061053   056397   059174               130590801 1327    120578051         110565221         100556791         090536041         053243   055838   057136   059860   058954   061155   067407   062885   060099   059723   055283   057064                                      
330504000110014 02300 411 451ECH.21              0340000ECH.22              0350247ROCADE-EXT          03500000012420012423305050003000       0194      054630 1267    051231   051037   053922   055585   055100   055508   056000   061702   053166   056403   052087   053400               130546491 1307    120535301 1317    110534951 1367    100520611         090515341         049123   050450   052495   055014   055156   055991   057960   062438   057167   055627   052060   051957                                      
330503100310014 06300 181 241ECH.16              0260600ECH.19              0310000CHANTELOISEAU(S28)  02702000039170039170000000000000       0187      000000                                                                                                                                 130000008         120000008         110000008         100000008         091166408                                                                                                                                                        
330503100210014 06300 181 241ECH.16              0260600ECH.19              0310000ROCADE INTER(S28)   02702000039170039170000000000000       0187      000000                                                                                                                                 130000008         120000008         110000008         100000008         090549218                                                                                                                                                        
330503100110014 06300 181 241ECH.16              0260600ECH.19              0310000ROCADE EXTER(S28)   02702000039170039170000000000000       0187      000000                                                                                                                                 130000008         120000008         110000008         100000008         090617198                                                                                                                                                        
330502500310014 06300 111 231ECH.15              0250000ECH.16              0260000TALENCE(S26)        02600000014390014390000000000          0193      124408 1177    116087   119111   122143   127757   123548   130538   133587   127063   131377   127680   115458   118283               131239671 1157    120000001         111189481 1057    101202601         091204871         113001   117967   122646   127734   123576   129614   136778   128350   129258   126054   116931   115365                                      
330502500210014 06300 111 231ECH.15              0250000ECH.16              0260000TALENCE(S26)        02600000014390014390000000000          0193      062008 1187    056840   059212   060023   064344   061441   065275   068615   060950   065256   064201   057815   060004               130614201 1167    120000001         110601351 1057    100608011         090607031         055743   058737   061274   063765   061471   064854   069109   061659   062869   062408   057234   057757                                      
330502500110014 06300 111 231ECH.15              0250000ECH.16              0260000TALENCE(S26)        02600000014390014390000000000          0193      062400 1157    059247   059899   062120   063413   062107   065263   064972   066113   066121   063479   057643   058279               130625471 1127    120000001         110588131 1067    100594591         090597841         057258   059230   061372   063969   062105   064760   067669   066691   066389   063646   059697   057608                                      
330502300310014 06300 181 241ECH. 11             0170330ECH. 15             0250000PESSAC(S19)         01703300074240074240000000000000       0187      000000                                                                                                                                 130000008         120000008         110000008         100000008         090877198                                                                                                                                                        
330502300210014 06300 181 241ECH. 11             0170330ECH. 15             0250000ROCADE INTER(S19)   01703300074240074240000000000000       0187      000000                                                                                                                                 130000008         120000008         110000008         100000008         090450148                                                                                                                                                        
330502300110014 06300 181 241ECH.11              0170330ECH.15              0250000ROCADE EXTER(S19)   01703300074240074240000000000000       0187      000000                                                                                                                                 130000008         120000008         110000008         100000008         090427058                                                                                                                                                        
330502202310014 06300 111 241ROCADE SORTIE 9     0140000ROCADE SORTIE 11 B  0170330LE CHUT(S16)        01500000030970030970000000000000       0187      085849 0567    083392   084902   085787   087942   085053   087673   088072   080296   089835   089885   083574   083874               130874791    7    120889111    7    110900661    7    100891871         090878571         085180   088108   087987   090433   087991   089714   091215   082927   089252   090022   084324   082774                                      
330502202210014 06300 111 241ROCADE SORTIE 9     0140000ROCADE SORTIE 11 B  0170330ROCADE INTER(S16)   01500000030970030970000000000000       0187      042978 0577    042303   042865   042928   044065   042835   044113   043424   039363   045249   045064   041951   041683               130440681    7    120445921    7    110451741    7    100450481         090445571         043195   044222   044239   045684   044702   045378   045186   041135   045274   045511   042786   041610                                      
330502202110014 06300 111 241ROCADE SORTIE 9     0140000ROCADE SORTIE 11 B  0170330ROCADE EXTER(S16)   01500000030970030970000000000000       0187      042871 0547    041089   042037   042859   043877   042218   043560   044648   040933   044586   044821   041623   042191               130434111    7    120443191    7    110448921    7    100441391         090433001         041985   043886   043748   044749   043289   044336   046029   041792   043978   044511   041538   041164                                      
330502201310014 06300 181 241RD 1                0100600ROCADE SORTIE 9     0140000EYSINES(S11)        01103000036660036660000000000000       0187      000000                                                                                                                                 130000008         120000008         110000008         100000008         090837448                                                                                                                                                        
330502201210014 06300 181 241RD 1                0100600ROCADE SORTIE 9     0140000ROCADE INTER(S11)   01103000036660036660000000000000       0187      000000                                                                                                                                 130000008         120000008         110000008         100000008         090421578                                                                                                                                                        
330502201110014 06300 181 241RD 1                0100600ROCADE SORTIE 9     0140000ROCADE EXTER(S11)   01103000036660036660000000000000       0187      000000                                                                                                                                 130000008         120000008         110000008         100000008         090415878                                                                                                                                                        
330502102310014 06300 111 241ECHANGEUR LA BARDE  0050000RD 1                0100600CANTINOLLE(S08dport00808000059320059320000000000000       0187      000000                                                                                                                                 130783111    7    120780161    7    110785561    7    100773401         090760771         072925   075990   077089   079561   079844            084772   083032   075277   081911   075178   075835                                      
330502102210014 06300 111 241ECHANGEUR LA BARDE  0050000RD 1                0100600ROCADE INTER(S08dpo00808000059320059320000000000000       0187      000000                                                                                                                                 130420681    7    120419701    7    110425531    7    100418081         090410271         040564   041785   040845   041875   043106            044037   043726   040421   044111   041372   040901                                      
330502102110014 06300 111 241ECHANGEUR LA BARDE  0050000RD 1                0100600ROCADE EXTER(S08dpo00808000059320059320000000000000       0187      000000                                                                                                                                 130362431    7    120360461    7    110360031    7    100355321         090350501         032361   034205   036244   037686   036738            040735   039306   034856   037800   033806   034934                                      
330500900310014 00630 111 241A 66                0240670RN 10               0460850LUGOS(S67)          04000000222370222370000000000000       0187      000000                                                                                                                                 130000001         120000001         110000001         100000001         090325451                                                                                                                                                        
330500900210014 00630 111 241A 66                0240670RN 10               0460850LUGOS(S67)          04000000222370222370000000000000       0187      000000                                                                                                                                 130000001         120000001         110000001         100000001         090165181                                                                                                                                                        
330500900110014 00630 111 241A 66                0240670RN 10               0460850LUGOS(S67)          04000000222370222370000000000000       0187      000000                                                                                                                                 130000001         120000001         110000001         100000001         090160271                                                                                                                                                        
330500801310014 00630 1110241RD 211              0110830A 66                0240670PIERROTON(A63ech24) 0210300012859012859000000000000000000000187      000000                                                                                                                                 130000001         120000001         110000001    0    100000001    0    090564311    0                                                                                                                                                   
330500801210014 00630 1110241RD 211              0110830A 66                0240670PIERROTON(A63ech24) 0210300012859012859000000000000000000000187      000000                                                                                                                                 130000001         120000001         110000001    0    100000001    0    090281111    0                                                                                                                                                   
330500801110014 00630 1110241RD 211              0110830A 66                0240670PIERROTON(A63ech24) 0210300012859012859000000000000000000000187      000000                                                                                                                                 130000001         120000001         110000001    0    100000001    0    090283201    0                                                                                                                                                   
330500600310014 00630 181 241A 630               0000000ECHANGEUR CESTAS    0060000CESTAS(S62)         00600000061770061770000000000000       0187      000000                                                                                                                                 130000008         120000008         110000008         100000008         090652868                                                                                                                                                        
330500600210014 00630 181 241A 630               0000000ECHANGEUR CESTAS    0060000CESTAS(S62)         00600000061770061770000000000000       0187      000000                                                                                                                                 130000008         120000008         110000008         100000008         090349388                                                                                                                                                        
330500600110014 00630 181 241A 630               0000000ECHANGEUR CESTAS    0060000CESTAS(S62)         00600000061770061770000000000000       0187      000000                                                                                                                                 130000008         120000008         110000008         100000008         090303488                                                                                                                                                        
330500501310014 00620 111 241A 630               0000000ECHANGEUR LA PRADE  0090992CADAUJAC(S73)       0030000011083011083000000000000000000000194      063914 1087    062417   064792   068685   069127   049658   031683   073784   071376   070742   070905   065009   068258               130670241 1087    120664821 1087    110665921 1107    100452551         090647991         061094   065121   066334   068181   067915   069622   073277   072206   067636   069162   063964   065404                                      
330500501210014 00620 111 241A 630               0000000ECHANGEUR LA PRADE  0090992CADAUJAC(S73)       0030000011083011083000000000000000000000187      031883 1067    031045   032020   034107   034362   025089   015891   036538   036276   035309   035424   032500   033739               130332431 1077    120329671 1087    110330081 1097    100224991         090320241         030431   032092   033239   033913   033831   034408   036216   035367   034324   034387   031555   032249                                      
330500501110014 00620 111 241A 630               0000000ECHANGEUR LA PRADE  0090992CADAUJAC(S73)       0030000011083011083000000000000000000000187      032031 1137    031372   032772   034578   034765   024569   015792   037246   035100   035433   035481   032509   034519               130337811 1097    120335151 1097    110335841 1117    100227561         090327751         030663   033029   033095   034268   034084   035214   037061   036839   033312   034775   032409   033155                                      
330004600310014 02500 4813 51RD 652              0390000ARCACHON            0481070ARCACHON            04700000100650011150000000000000       0187      000000                                                                                                                                 130000008         120000008         110000008         100000008         090000008                                                                                                                                                        
330001700310014 00890 481 251RD 115              0470300RN 230              0500260LE POTEAU D YVRAC   04705000029830029830000000000000       0187      000000                                                                                                                                 130000008         120000008         110000008         100000008         090548688                                                                                                                                                        
330001700210014 00890 481 251RD 115              0470300RN 230              0500260LE POTEAU D YVRAC   04705000029830029830000000000000       0187      000000                                                                                                                                 130000008         120000008         110000008         100000008         090270438                                                                                                                                                        
330001700110014 00890 481 251RD 115              0470300RN 230              0500260LE POTEAU D YVRAC   04705000029830029830000000000000       0187      000000                                                                                                                                 130000008         120000008         110000008         100000008         090278258                                                                                                                                                        
330001600310014 00890 411 251RD 13 BEYCHAC       0420223RD 115 POTEAU YVRAC 0470300MONTUSSAN           04301000050570050570000000000000       0187      055292 0887    050879   051530   053930   056308   055734   058672   059835                     057949   053756   054050               130540041    7    120534541    7    110533781    7    100401201         090000001         049195   051598   052341   055982   054052   054379   059310   056776   054157   000000   000000   051219                                      
330001600210014 00890 411 251RD 13 BEYCHAC       0420223RD 115 POTEAU YVRAC 0470300MONTUSSAN (BX-LIB)  04301000050570050570000000000000       0187      027288 0897    025274   025527   026675   027740   027821   029000   028980                     028554   026606   026577               130269371    7    120264341    7    110262461    7    100162111         090000001         024442   025472   025935   027654   026772   027666   028768   028438   027702   027941   026497   025738                                      
330001600110014 00890 411 251RD 13 BEYCHAC       0420223RD 115 POTEAU YVRAC 0470300MONTUSSAN (LIB-BX)  04301000050570050570000000000000       0187      028004 0877    025605   026003   027255   028568   027913   029672   030855                     029395   027150   027473               130270671    7    120270201    7    110271321    7    100239091         090258651         024753   026126   026406   028328   027280   026713   030542   028338   026455   000000   000000   025481                                      
330001401310014 00890 481 251ECH GD CAZAU        0360595ECH BEYCHAC         0420223GRAND CAZAU         03800000056370056373300016003000       0397      038302                                                                                                                                 130374108         120417608         110417018         100313448         090307288                                                                                                                                                        
330001300310014 00890 481 251ECH SENAU           0341380ECH GD CAZAU        0360595MONTIFAUT           03500000023680023683300016003000       0397      029894                                                                                                                                 130291988         120325938         110325478         100244638         090239828                                                                                                                                                        
330001202310014 00890 4113 51RD 121 GENISSAC     0310790RN 2089 Ech 8       0341380SENAU               03405000053970053973300016003000       0994      000000                                                                                                                                 130357041    7    120353961    7    110192531         100306571         090334001         030589   032590   033828   036115   035281   036911   040458   041018   036850   036310   033926   034260                                      
330001202210014 00890 4113 51RD 121 GENISSAC     0310790RN 2089 Ech 8       0341380SENAU (BX-LIBOURNE) 03405000053970053973300016003000       0994      000000                                                                                                                                 130179591    7    120178821    7    110096781         100153571         090167991         015500   016339   017001   018082   017912   018442   019719   020940   018684   018286   017267   017190                                      
330001202110014 00890 4113 51RD 121 GENISSAC     0310790RN 2089 Ech 8       0341380SENAU (LIBOURNE-BX) 03405000053970053973300016003000       0994      000000                                                                                                                                 130177451 1027    120175141    7    110095751         100153001         090166011         015089   016251   016827   018033   017369   018469   020739   020078   018166   018024   016659   017070                                      
330000901310014 00100 481 251A 63                0960000DEPARTEMENT 40      0980615LIMITE DPT 40       0970000002615002615330500900340000010030187      000000                                                                                                                                 130000008         120000008         110000008         100000008         090000008                                                                                                                                                        
330000900310014 00100 4813 51RD 3                0870150A 63                0960000MONS                09208000089510064893300007003000       0187      000000                                                                                                                                 130000008         120000008         110000008         100000008         090000008                                                                                                                                                        
330000800310014 00100 4813 51RD 5                0760751RD 3                0870150LA VIGNOLLE         08004000104040092223300007003000       0187      000000                                                                                                                                 130000008         120000008         110000008         100000008         090000008                                                                                                                                                        
330000700310014 00100 4113 51RD 211              0650030RD 5                0760751LE PUCH             06807800117030111873300007003000       0187      000000                                                                                                                                 130000001         120000001         110000001         100000001         090000001                                                                                                                                                        
330000700210014 00100 4113 51RD 211              0650030RD 5                0760751LE PUCH             06807800117030111873300007003000       0190      000000                                                                                                                                 130000001         120000001         110000001         100000001         090000001                                                                                                                                                        
330000700110014 00100 4113 51RD 211              0650030RD 5                0760751LE PUCH             06807800117030111873300007003000       0190      000000                                                                                                                                 130000001         120000001         110000001         100000001         090000001                                                                                                                                                        
330000600310014 00100 4813 51RD 109              0600280RD 211              0650030JAUGE               06407000047640047293300007003000       0187      000000                                                                                                                                 130000008         120000008         110000008         100000008         090000008                                                                                                                                                        
330000500310014 00100 4813 51A 630               0540900RD 109              0600280LA HOUSE            05805000054150025953300007003000       0187      000000                                                                                                                                 130000008         120000008         110000008         100000008         090000008                                                                                                                                                        
330000499310014 00100 4853 51BDX                 0510000BDX                 0540900BDX                 05200000030260000600000000000000       0187      000000                                                                                                                                 130000008         120000008         110000008         100000008         090000008                                                                                                                                                        
330000301310014 00100 4123 51ST ANDRE DE CUB EB200230120A 10                0290790ST ANDRE            02507000072620048640000000000000       0187      000000                                                                                                                                 130000001         120000001         110000001         100000001         090000001                                                                                                                                                        
330000301210014 00100 4123 51ST ANDRE DE CUB EB200230120A 10                0290790ST ANDRE            02507000072620048640000000000000       0187      000000                                                                                                                                 130000001         120000001         110000001         100000001         090000001                                                                                                                                                        
330000301110014 00100 4123 51ST ANDRE DE CUB EB200230120A 10                0290790ST ANDRE            02500700072620048640000000000000       0187      000000                                                                                                                                 130000001         120000001         110000001         100000001         090000001                                                                                                                                                        
330000200310014 00100 4843001RN 137              0200120ST ANDRE DE CUB EB200230120ST ANDRE DE CUB     02205000029440009803300003013000       0187      000000                                                                                                                                 130000008         120000008         110000008         100000008         090000008                                                                                                                                                        
330000102310014 00100 411 251RD 18               0100137RN 137              0200120PEUJARD             01700770093980093983300003013000       0187      039321 2477    035976   037257   038483   039960   038728   040625   041472   041190   040218   040639   038529   038648               130382821 2487    120369921 2547    110351651 2787    100354331         090329921         034505   036768   036976   039248   038145   039428   040119   040074   039360   039608   037864   037230                                      
330000102210014 00100 411 251RD 18               0100137RN 137              0200120PEUJARD             01700770093980093983300003013000       0187      019731 2517    018148   018572   019397   019959   019467   020443   020323   021087   020380   020332   019369   019226               130192411 2537    120184871 2597    110176021 2837    100177321         090175221         017438   018380   018543   019807   019161   019744   019657   020521   020083   019904   019104   018523                                      
330000102110014 00100 411 251RD 18               0100137RN 137              0200120PEUJARD             01700770093980093983300003013000       0187      019590 2387    017828   018685   019086   020001   019261   020182   021149   020103   019838   020307   019160   019422               130190411 2387    120185051 2457    110175631 2677    100177011         090154701         017067   018388   018433   019441   018984   019684   020462   019553   019277   019704   018760   018707                                      
330000101310014 00100 4813 51DEPARTEMENT 17      0000000RD 18               0100137CAVIGNAC AU NORD    0060000010374010374330000102317000020030187      020992                                                                                                                                 130204388         120197508         110187758         100189198         090176168                                                                                                                                                        
330000000310014 02300 411 401ECH.23              0360643ECH.24              0390541S42 SENS 1+SENS 2   03703090028970028973300001023000       0194      000000                                                                                                                                 130000001         120000001         110000001         100000001         091083631                                                                                                                                                        
170053700310014 05370 4843 51RN 237              0000000GIR LA ROCHELLE     0020031N 537               0010000002031002031170003001300000000000187      005777                                                                                                                                 130057278         120057528         110053578         100000008         090055368                                                                                                                                                        
170003001310014 02370 411 251RN 137              0000000FIN RN 137          0090230LA DESCENDERIE      0020000009267009267170003001300000000000187      064394 0707    058471   060081   062111   066382   064662   068105   069729   065601   068796   066440   061644   060526               130638331    7    120641021    7    110596951    7    100000001         090616851         057300   058552   062763   065061   065415   066698   071248   066786   067183   065070   060872   058687                                      
170003001210014 02370 411 251RN 137              0000000FIN RN 137          0090230LA DESCENDERIE      0020000009267009267170003001300000000000187      033138 0717    030247   030946   031958   034085   033261   035137   035588   033904   035462   034146   031759   031083               130329141    7    120330351    7    110309941    7    100000001         090320991         029651   030239   032362   033588   033797   034243   036418   034433   034799   033496   031475   030287                                      
170003001110014 02370 411 251RN 137              0000000FIN RN 137          0090230LA DESCENDERIE      0020000009267009267170003001300000000000187      031256 0677    028224   029135   030153   032297   031401   032968   034141   031697   033334   032294   029885   029443               130309191    7    120310671    7    110287011    7    100000001         090295861         027649   028313   030401   031473   031618   032455   034830   032353   032384   031574   029397   028400                                      
170002999310014 01500 4853331ROYAN EB 10         0770470EXTREMITE RN 150    0810330ROYAN               0780000003830000000170002900300000000000187      016371                                                                                                                                 130160658         120160388         110147788         100163828         090152978                                                                                                                                                        
170002900310014 01500 4113 51RD 117              0710058ROYAN EB 10         0770470MEDIS               0760000006412004816170002900300000000000187      016456 0467    013231   014180   014955   016876   016528   017984   020637   021759   017150   015891   014158   013914               130161481    7    120161201    7    110148531    7    100164651         090153741         012848   013379   014735   016346   016687   016945   021113   022285   016351   015075   014018   013696                                      
170002900210014 01500 4113 51RD 117              0710058ROYAN EB 10         0770470MEDIS               0760000006412004816170002900300000000000190      008204 0467    006639   007054   007443   008293   008192   008957   010020   011117   008712   007903   007114   006902               130080621    7    120080361    7    110073421    7    100082141         090076701         006448   006648   007297   008045   008350   008346   010325   011396   008369   007502   007069   006803                                      
170002900110014 01500 4113 51RD 117              0710058ROYAN EB 10         0770470MEDIS               0760000006412004816170002900300000000000190      008252 0467    006592   007126   007512   008583   008336   009027   010617   010642   008438   007988   007044   007012               130080861    7    120080841    7    110075111    7    100082511         090077041         006400   006731   007438   008301   008337   008599   010788   010889   007982   007573   006949   006893                                      
170002800310014 01500 4813 51RD 728              0500000RD 117              0710058VILLENEUVE          0630800021033021033170002900300000000000187      011681                                                                                                                                 130114638         120114448         110105458         100116908         090109168                                                                                                                                                        
170002700310014 01500 4113001N 137 SAINTES       0470000RD 728              0500000GATERAT             0490670002959002959170002900300000000000187      012008 0457    010254   010528   010971   012163   011960   012803   014082   014951   012727   011777   010798   010950               130118731    7    120118101    7    110113191    7    100115321         090120891         009829   010123   010986   011863   012288   012373   014233   015251   012396   011520   010806   010639                                      
170002700210014 01500 4113001N 137 SAINTES       0470000RD 728              0500000GATERAT             0490670002959002959170002900300000000000187      005789 0447    004993   005092   005293   005796   005755   006178   006567   007304   006233   005657   005259   005281               130057011    7    120056731    7    110054471    7    100054491         090056511         004793   004877   005238   005667   005908   005901   006578   007323   006099   005523   005298   005135                                      
170002700110014 01500 4113001N 137 SAINTES       0470000RD 728              0500000GATERAT             0490670002959002959170002900300000000000187      006219 0467    005261   005436   005678   006367   006205   006625   007515   007647   006494   006120   005539   005669               130061721    7    120061371    7    110058721    7    100060831         090064381         005036   005246   005748   006196   006380   006472   007655   007928   006297   005997   005508   005504                                      
170002101310014 01410 4113001RN 150 SAINTES      0160700SAINTES RN 137      0210225SAINTES ROCADE S-E  01802000044700044701700029003000       0187      020498 0957    018066   018792   019489   020822   020858   022236   023260   023546   021651   020259   018655   018222               130200121    7    120196051    7    110196391    7    100174821         090187281         016493   017434   018750   019839   020363   020848   023028   023960   020817   021161   019499   017731                                      
170002101210014 01410 4113001RN 150 SAINTES      0160700SAINTES RN 137      0210225SAINTES ROCADE S-E  01802000044700044701700029003000       0187      010343 0957    009003   009451   009817   010422   010516   011309   011644   011867   011087   010264   009484   009194               130101061    7    120099611    7    110099541    7    100088281         090094131         008406   008803   009429   010031   010447   010522   011517   012469   010715   010445   009409   008956                                      
170002101110014 01410 4113001RN 150 SAINTES      0160700SAINTES RN 137      0210225SAINTES ROCADE S-E  01802000044700044701700029003000       0187      010155 0967    009063   009341   009672   010400   010342   010927   011616   011679   010564   009995   009171   009028               130099061    7    120096441    7    110096851    7    100086541         090093151         008087   008631   009321   009808   009916   010326   011511   011491   010102   010716   010090   008775                                      
170002100310014 01410 4813001DEPARTEMENT 16      0000000RN 150 SAINTES      0160700CHERAC              0130900016846016846000000000016000200030187      000000                                                                                                                                 130094098    7    120000008         110000008    0    100000008    0    090000008    0    007485   008439   008587                              011892   012910   009778   008821   008218   007862                                      
170002100210014 01410 4813001DEPARTEMENT 16      0000000RN 150 SAINTES      0160700CHERAC              0130900016846016846000000000016000200030190      000000                                                                                                                                 130045138    7    120000008         110000008    0    100000008    0    090000008    0    003727   004180   004167                              005575   006246   004725   004181   004009   003805                                      
170002100110014 01410 4813001DEPARTEMENT 16      0000000RN 150 SAINTES      0160700CHERAC              0130900016846016846000000000016000200030190      000000                                                                                                                                 130048968    7    120000008         110000008    0    100000008    0    090000008    0    003758   004259   004420   004993   005087   005289   006317   006664   005053   004640   004209   004057                                      
170001701310014 01370 411 251RD 937              1120000RN 11               1170000PERIGNY             11700000050310050310000000000          0187      065296 0697    059041   060145   062611   066971   065179   069149   071840   069523   069440   066829   061256   061251               130642611    7    120641351    7    110634051    7    100554351         090585531         057662   058933   062850   065158   065519   066323   069884   069993   067916   065464   061531   059501                                      
170001701210014 01370 411 251RD 937              1120000RN 11               1170000PERIGNY             11700000050310050310000000000          0187      033091 0697    030082   030669   031807   034050   032997   035014   036317   034773   035084   033874   031067   031212               130326901    7    120326071    7    110322801    7    100287161         090298231         029458   030116   032006   033273   033184   033702   035858   035071   034439   033201   031323   030459                                      
170001701110014 01370 411 251RD 937              1120000RN 11               1170000PERIGNY             11700000050310050310000000000          0187      032205 0707    028959   029476   030804   032921   032182   034135   035523   034750   034356   032955   030189   030039               130315711    7    120315281    7    110311251    7    100267191         090287301         028204   028817   030844   031885   032335   032621   034026   034922   033477   032263   030208   029042                                      
170001600310014 01370 481 251RD 109              1060889RD 937              1120980ANGOULINS           11100000060940060941700015003000       0187      000000                                                                                                                                 130000008         120000008         110000008         100000008         090000008                                                                                                                                                        
170001600210014 01370 481 251RD 109              1060889RD 937              1120980ANGOULINS           11100000060940060941700015002000       0187      000000                                                                                                                                 130000008         120000008         110000008         100000008         090000008                                                                                                                                                        
170001600110014 01370 481 251RD 109              1060889RD 937              1120980ANGOULINS           11100000060940060941700015001000       0187      000000                                                                                                                                 130000008         120000008         110000008         100000008         090000008                                                                                                                                                        
170001500310014 01370 411 251RD 214 E 1          0950104RD 109              1060889YVES                09806000117030117031700015001000       0187      000000                                                                                                                                 130000001         120000001         110000001         100000001         090000001                                                                                                                                                        
170001500210014 01370 411 251RD 214 E 1          0950104RD 109              1060889YVES                09806000117030117031700015001000       0187      000000                                                                                                                                 130000001         120000001         110000001         100000001         090000001                                                                                                                                                        
170001500110014 01370 411 251RD 214 E 1          0950104RD 109              1060889YVES                09806000117030117031700015001000       0187      000000                                                                                                                                 130000001         120000001         110000001         100000001         090000001                                                                                                                                                        
170001400310014 01370 481 251A 839               0900000RD 214 E 1          0950104ST LAURENT LA PRE   09200000046640046641700015003000       0187      000000                                                                                                                                 130000008         120000008         110000008         100000008         090000008                                                                                                                                                        
170001400210014 01370 481 251A 838               0900000RD 214 E 1          0950104ST LAURENT LA PRE   09200000046640046641700015002000       0187      000000                                                                                                                                 130000008         120000008         110000008         100000008         090000008                                                                                                                                                        
170001400110014 01370 481 251A 837               0900000RD 214 E 1          0950104ST LAURENT LA PRE   09200000046640046641700015001000       0187      000000                                                                                                                                 130000008         120000008         110000008         100000008         090000008                                                                                                                                                        
170001302310014 01370 4813 51TONNAY EB 20        0840254A 837               0860965DEV. ROCHEFORT      08500000019970019911700015003000       0187      000000                                                                                                                                 130000008         120000008         110000008         100000008         090000008                                                                                                                                                        
170001301310014 01370 4843001TONNAY EB 10        0800241TONNAY EB 20        0840254TONNAY CHARENTES    0830000004318000000170001200300000000000187      000000                                                                                                                                 130000008         120000008         110000008         100000008         090000008                                                                                                                                                        
170001300310014 01370 4813 51RD 123 E 3          0760000TONNAY EB 10        0800241PONT ST CLEMENT     0760400005854005854170001200300000000000187      000000                                                                                                                                 130000008         120000008         110000008         100000008         090000008                                                                                                                                                        
170001300210014 01370 4813 51RD 123 E 3          0760000TONNAY EB 10        0800241PONT ST CLEMENT     0760400005854005854170001200200000000000190      000000                                                                                                                                 130000008         120000008         110000008         100000008         090000008                                                                                                                                                        
170001300110014 01370 4813 51RD 123 E 3          0760000TONNAY EB 10        0800241PONT ST CLEMENT     0760400005854005854170001200100000000000190      000000                                                                                                                                 130000008         120000008         110000008         100000008         090000008                                                                                                                                                        
