160000100310013 00100 411 251DEPARTEMENT 79      0000000ECH NORD.RUFFEC     0050000RUFFEC              0020930005279005279170000200386000090030187      016430 3667    013571   014446   015572   016473   017089   016801   018789   020830            016376   015309   015307               120162211 3707    110159151 4077    100157511         090155251         080153391         013895   013961   015209   016755   016194   016594   018642   019658   017091   015909   015682   014956                                      
160000102310013 00100 411 251ECH NORD.RUFFEC     0050000ECH NORD ANGOULEME  0450000AUSSAC              0270080040619039586170000200300000000000187      020807 3097    018642   019144   018210   019933   021007   021684   023618   024636   021624   021293   020096   019644               120206891 2697    110184541 3147    100191561         090000001         080202801         018674   018267   020172   021516   021039   021593   022592   023434   021146   019628   020755   019374                                      
160000401310013 00100 415 251ECH NORD ANGOULEME  0450000RN 141 LES PLANES   0500950L EPINEUIL          0470300006347006347170000200300000000000187      044476 2357    039229   040650   043090   044845   044587   045911   049251   048677   046168   045884   043156   041959               120435991 2377    110425761 2447    100379651         090413691         080000001         039439   037951   042753   044207   043058   046067   048581   047053   046266   043304   043287   041027                                      
160000402310013 00100 411 251RN 141 LES PLANES   0500950RD 699 ST. MICHEL   0530900GIRAC               0530650002969002969170000200300000000000187      029589 3017    027207   027303   026383   030312   029273   031405   033097   030044   031082            028646   029449               120299611 2937    110298211 3077    100277611         090000001         080000001         027547   026342   029425   030312   029272   031404   033196   031903   031181   029560   030304   028969                                      
160000403310013 00100 415 251RD 699 ST. MICHEL   0530900EX RN 10 ZI FONT    0610400L'OISELLERIE        0550000007468007468170000200300000000000187      000000                                                                                                                                 120000001         110000001         100000001         090000001         080000001                                                                                                                                                        
160000702310013 00100 4115001EX RN 10 ZI FONT    0610400BARBEZIEUX SUD      0800000PETIGNAC            0700110018107018107170000200300000000000187      000000                                                                                                                                 120000001         110000001         100000001         090000001         080205321                                                                                                                                                        
160000800310013 00100 411 201BARBEZIEUX NORD     0800000BARBEZIEUX SUD      0880750BARBEZIEUX          0820500008823008823170000200300000000000599      019867 4257    016786   018076   018482   020357   020157   020580   022608   023985   020311   019934   018737   018229               120195791 4357    110202491 4387    100172471         090147611         080172981         018953   018139   019007   019959   018969   019622   022015   022613   020025   019424   018554   017562                                      
160000902310013 00100 411 201BARBEZIEUX SUD      0880750DEPARTEMENT 17      1011148REIGNAC             0900000013161013161170000200317000010030187      020629 4137    017746   018940   019733   020962   020453   020913   023488   024828   021064   020546   019546   019162               120205791 4307    110202361 4447    100217621         090219591         080205461         018171   018403   020176   021277   020312   021132   023615   024054   021577   019658   019754   018722                                      
160001401310013 01410 4113 51                    0310304RD 13 LA ROCHEFOU.  0430000TAPONNAT            0410000010468006545170000200300000000000187      000000                                                                                                                                 120000001         110000001         100132961         090135571         080131741                                                                                                                                                        
160001502310013 01410 4110201RD 13 LA ROCHEFOU.  0430000RN 10 ANGOULEME NORD0700000RUELLE              0580500019284018513170000200300000000000187      021779 2097    018658   019509   020504   021760   021790   022445   024478   025075   022968   022616   021046   020363               120211471 2007    110188541 2177    100169351         090191991         080184621         018816   017857   020327   021216   021024   022571   023966   023579   022452   021448   020829   019542                                      
160001601310013 01410 4113 51RN 10 RTE COGNAC    0680000RD 736 JARNAC       0940160BOURRAS             0860170025948025113170000200300000000000187      013793  807    011716   012141   013011   013993   013985   014671   016179   015736   014766   013878   013032   012296               120136981  847    110135551  887    100130981         090130291         080123981         012054   011363   013010   013775   013829   014742   015895   015372   014867   013515   013181   012687                                      
160001700310013 01410 4113001RD 736 JARNAC       0940160RD 736 MONTAGAN     0960400JARNAC              0950023002255002255170000200300000000000193      012084  907    009957   010347   011006   011820   012068   012844   014808   014453   013226   012298   011574   010484               120000001         110000001    0    100000001    0    090109351    0    080104441    0                                                                                                                                                   
160001802310013 01410 411 201RD 736 MONTAGAN     0960400GIR. CHA BERNARD    1050130GENSAC              1030059008587008560170000200300000000000187      018550  827    015997   016416   017304   018455   018684   020201   022045   020576   019711   018680   017490   016882               120182821 1377    110179671         100160531         090174521         080170311         016323   015582   017392   018151   018351   019797   021000   019978   019639   019182   017604   016268                                      
160001901310013 01410 4153 51GIR. CHA. BERNARD   1050130GIR. CROIN          1100000COGNAC              1080960005137005137170000200300000000000187      018371  777                      017037   018243   018136   018756   020896   020325   018841   018720   017241   017424               120000001         110176341  747    100000001         090000001         080000001                                                                                                                                                        
160002000310013 01410 4113 51GIR. CROIN          1100000DEPARTEMENT 17      1160367MOULIN ST LAURENT   1130660006657006657170000200317000210030187      000000                                                                                                                                 120000001         110000001         100000001         090000001         080000001                                                                                                                                                        
170000100310013 00100 481 251DEPARTEMENT 16      0000000RD 730              0090915CHEVANCEAUX         0010000009935008904170000200316000090130187      019977 4417    016838   018385   019045   020314   020338   019708   023043   024197   020365   020008   018839   018497               120000008         110000008         100000008         090000008         080000008                                                                                                                                                        
170000200310013 00100 411 251RD 730              0090915DEPARTEMENT 33      0190783MONTLIEU LA GARDE   0110300009672009672170000300300000000030187      021464 4057    018131   019704   020394   021684   021749   021741   024483   025767   022083   021423   020256   019976               120000001         110000001         100000001         090000001         080000001                                                                                                                                                        
170000300310013 00110 411 251DEPARTEMENT 79      0000000RD 116              0090272BENON               0080000009375009375170000300379000080230187      013025 1137    010262   011019   012034   013406   013939   013811   015724   016261   013909   012644   011828   011300               120126761 1107    110121821 1137    100122031         090123951         080119191         010413   010386   011829   013215   012528   013662   015370   015766   013941   012025   011931   010969                                      
170000400310013 00110 481 251RD 116 DEB 2*2 PR11 0090272RD 109              0200000FERRIERES D'AUNIS   01400000107150107151700003003000       0187      013830                                                                                                                                 120134608         110129368         100129608         090000008         080000008                                                                                                                                                        
170000601310013 00110 411 251RN 137              0270000RN 137 RN 237       0350150DOMPIERRE SUR MER   02808500081460081461700012003000       0187      035663  797    030547   031655   033993   036069   037001   037392   040699   041159   037924   035496   033525   032186               120352241  807    110316291         100310061         090326641         080327141         030789   030920   033111   035808   035714   037812   040459   040706   037759   034397   033569   031497                                      
170001001310013 01370 4853 51RN 141              0460000RD 24 SAINTES       0500500SAINTES DEV.        0500000004478004478170001200300000000000187      000000                                                                                                                                 120000008         110000008         100000008         090000008         080000008                                                                                                                                                        
170001100310013 01370 4813 51RD 24 SAINTES       0500500RD 18               0650708RULON               0570300015537015537170001200300000000000187      000000                                                                                                                                 120000008         110000008         100000008         090000008         080000008                                                                                                                                                        
170001200310013 01370 4113 51RD 18               0650708RD 123 E 3          0760000LA VALLEE           0720000010691008929170001200100000000000187      000000                                                                                                                                 120000001         110000001         100000001         090000001         080000001                                                                                                                                                        
170001300310013 01370 4813 51RD 123 E 3          0760000TONNAY EB 10        0800241PONT ST CLEMENT     0760400005854005854170001200300000000000187      000000                                                                                                                                 120000008         110000008         100000008         090000008         080000008                                                                                                                                                        
170001301310013 01370 4843001TONNAY EB 10        0800241TONNAY EB 20        0840254TONNAY CHARENTES    0830000004318000000170001200300000000000187      000000                                                                                                                                 120000008         110000008         100000008         090000008         080000008                                                                                                                                                        
170001302310013 01370 4813 51TONNAY EB 20        0840254A 837               0860965DEV. ROCHEFORT      08500000019970019911700015003000       0187      000000                                                                                                                                 120000008         110000008         100000008         090000008         080000008                                                                                                                                                        
170001400310013 01370 481 251A 839               0900000RD 214 E 1          0950104ST LAURENT LA PRE   09200000046640046641700015003000       0187      000000                                                                                                                                 120000008         110000008         100000008         090000008         080000008                                                                                                                                                        
170001500310013 01370 411 251RD 214 E 1          0950104RD 109              1060889YVES                09806000117030117031700015001000       0187      000000                                                                                                                                 120000001         110000001         100000001         090000001         080000001                                                                                                                                                        
170001600310013 01370 481 251RD 109              1060889RD 937              1120980ANGOULINS           11100000060940060941700015003000       0187      000000                                                                                                                                 120000008         110000008         100000008         090000008         080000008                                                                                                                                                        
170001701310013 01370 411 251RD 937              1120000RN 11               1170000PERIGNY             11700000050310050310000000000          0187      064261  707    057662   058933   062850   065158   065519   066323   069884   069993   067916   065464   061531   059501               120641351  677    110634051  677    100554351         090585531         080605341         058498   058294   061790   064705   063605   068316   070196   068912   067365   066808   062538   058416                                      
170002100310013 01410 4813001DEPARTEMENT 16      0000000RN 150 SAINTES      0160700CHERAC              0130900016846016846000000000016000200030187      009409  857    007485   008439   008587                              011892   012910   009778   008821   008218   007862               120000008         110000008    0    100000008    0    090000008    0    080125768    0                                                                                                                                                   
170002101310013 01410 4113001RN 150 SAINTES      0160700SAINTES RN 137      0210225SAINTES ROCADE S-E  01802000044700044701700029003000       0187      020012  957    016493   017434   018750   019839   020363   020848   023028   023960   020817   021161   019499   017731               120196051  967    110196391  977    100174821         090187281         080174021         016867   016547   018563   019383   019907   020957   022678   023291   020912   020565   018378   017052                                      
170002700310013 01500 4113001N 137 SAINTES       0470000RD 728              0500000GATERAT             0490670002959002959170002900300000000000187      011873  457    009829   010123   010986   011863   012288   012373   014233   015251   012396   011520   010806   010639               120118101  457    110113191  477    100115321         090120891         080167811         010038   009789   010909   011852   011845   012507   014181   015064   012657   011350   011002   010415                                      
170002800310013 01500 4813 51RD 728              0500000RD 117              0710058VILLENEUVE          0630800021033021033170002900300000000000187      011463                                                                                                                                 120114448         110105458         100116908         090109168         080000008                                                                                                                                                        
170002900310013 01500 4113 51RD 117              0710058ROYAN EB 10         0770470MEDIS               0760000006412004816170002900300000000000187      016148  477    012848   013379   014735   016346   016687   016945   021113   022285   016351   015075   014018   013696               120161201  497    110148531  557    100164651         090153741         080154121         013004   013106   014652   016184   016792   017401   020559   022045   016982   014862   014187   013484                                      
170002999310013 01500 4853331ROYAN EB 10         0770470EXTREMITE RN 150    0810330ROYAN               0780000003830000000170002900300000000000187      016065                                                                                                                                 120160388         110147788         100163828         090152978         080000008                                                                                                                                                        
170003001310013 02370 411 251RN 137              0000000FIN RN 137          0090230LA DESCENDERIE      0020000009267009267170003001300000000000187      063833  727    057300   058552   062763   065061   065415   066698   071248   066786   067183   065070   060872   058687               120641021  717    110596951  757    100000001         090616851         080608341         058746            062103   064805   063742   068446   069755   066731   066958   064441   062077   057503                                      
170053700310013 05370 4843 51RN 237              0000000GIR LA ROCHELLE     0020031N 537               0010000002031002031170003001300000000000187      005727                                                                                                                                 120057528         110053578         100000008         090055368         080060298                                                                                                                                                        
330500501310013 00620 111 241A 630               0000000ECHANGEUR LA PRADE  0090992CADAUJAC(S73)       0030000011083011083000000000000000000000194      067024 1087    061094   065121   066334   068181   067915   069622   073277   072206   067636   069162   063964   065404               120664821 1087    110665921 1107    100452551         090647991         080624451         061723   063633   066028                     069462   071029   069342   067785   066646   065343   063744                                      
330500600310013 00630 181 241A 630               0000000ECHANGEUR CESTAS    0060000CESTAS(S62)         00600000061770061770000000000000       0187      000000                                                                                                                                 120000008         110000008         100000008         090652868         080638108                                                                                                                                                        
330550601310013 00630 181 241ECHANGEUR CESTAS    0060000RD 211              0110830CESTAS(S64)         00706000058080058080000000000000       0187      000000                                                                                                                                 120000008         110000008         100000008         090623958         080607838                                                                                                                                                        
330500801310013 00630 1110241RD 211              0110830A 66                0240670PIERROTON(A63ech24) 0210300012859012859000000000000000000000187      000000                                                                                                                                 120000001         110000001    0    100000001    0    090564311    0    080554621    0                                                                                                                                                   
330500900310013 00630 111 241A 66                0240670RN 10               0460850LUGOS(S67)          04000000222370222370000000000000       0187      000000                                                                                                                                 120000001         110000001         100000001         090325451         080311851                                                                                                                                                        
330522100310013 06300 181 241A 10                0000000ECHANGEUR LA BARDE  0050000ECHANGEUR LABARDE   00200000049540049540000000000000       0188      000000                                                                                                                                 120000008         110000008         100000008         090990778         080998168                                                                                                                                                        
330502102310013 06300 111 241ECHANGEUR LA BARDE  0050000RD 1                0100600CANTINOLLE(S08déport00808000059320059320000000000000       0187      078311  817    072925   075990   077089   079561   079844            084772   083032   075277   081911   075178   075835               120780161  867    110785561  867    100773401         090760771         080778851         074632   074738   075742   076024   077360   083283   083996   081724   080171   080383   077982   070122                                      
330502201310013 06300 181 241RD 1                0100600ROCADE SORTIE 9     0140000EYSINES(S11)        01103000036660036660000000000000       0187      000000                                                                                                                                 120000008         110000008         100000008         090837448         080828978                                                                                                                                                        
330502202310013 06300 111 241ROCADE SORTIE 9     0140000ROCADE SORTIE 11 B  0170330LE CHUT(S16)        01500000030970030970000000000000       0187      087479  577    085180   088108   087987   090433   087991   089714   091215   082927   089252   090022   084324   082774               120889111  587    110900661  577    100891871         090878571         080862961         088018   087964   090990   087317   087958   094522   090714   085500   090424   091859   089142   082646                                      
330502300310013 06300 181 241ECH. 11             0170330ECH. 15             0250000PESSAC(S19)         01703300074240074240000000000000       0187      000000                                                                                                                                 120000008         110000008         100000008         090877198         080896798                                                                                                                                                        
330502500310013 06300 111 231ECH.15              0250000ECH.16              0260000TALENCE(S26)        02600000014390014390000000000          0193      123967 1157    113001   117967   122646   127734   123576   129614   136778   128350   129258   126054   116931   115365               120000001         111189481 1057    101202601         091204871         081176921                                                                                                                                                        
330503100310013 06300 181 241ECH.16              0260600ECH.19              0310000CHANTELOISEAU(S28)  02702000039170039170000000000000       0187      000000                                                                                                                                 120000008         110000008         100000008         091166408         081151958                                                                                                                                                        
330523402310013 06300 181 241ECH.19              0310000ECH.21              0331224LA HOURCADE(S32)    03103450039240039240000000000000       0187      000000                                                                                                                                 120000008         110000008         100000008         091319378         081288478                                                                                                                                                        
330513400310013 06310 111 241A630                0000000BEGLES              0021290BEGLES-A631(S50)    00100000027250027250000000000          0187      000000                                                                                                                                 120000001         110703311  407    100000001         090703211         080689361                                                                                                                                                        
330505000310013 06600 1110241A 63                0000000FIN 2X2 VOIES       0060664MIOS SIREDO         00300000060070060073305050003000       0187      024576         019264   021052   022829   025534   025425   026687   030855   030566   026076   024199   021099   021027               120227291  247    110197661         100233531         090216641         080000001         018750   019334   021740   022079   023188   024751   026895   027968                     021959   020425                                      
330505100310013 06600 1113041FIN 2X2 VOIES       0060664RD 3                0100400Facture             0090000003758003758330505000300000000000187      000000                                                                                                                                 120000001         110096561    0    100284641    0    090000001    0    080216261    0                                                                                                                                                   
330505200310013 06600 1813041RD 3                0100400FIN A 66            0211219MIOS                01201000118480118483305050003000       0187      029953                                                                                                                                 120277028         110240918         100284648         090000008         080216268                                                                                                                                                        
330000101310013 00100 4813 51DEPARTEMENT 17      0000000RD 18               0100137CAVIGNAC AU NORD    0060000010374010374330000102317000020030187      020438                                                                                                                                 120197508         110187758         100189198         090176168         080271128                                                                                                                                                        
330000102310013 00100 411 251RD 18               0100137RN 137              0200120PEUJARD             01700770093980093983300003013000       0187      038282 2487    034505   036768   036976   039248   038145   039428   040119   040074   039360   039608   037864   037230               120369921 2547    110351651 2787    100354331         090329921         080329571         034693   033831   037225   037377   036948   036039   039595   038342   038373   037821   037563   035933                                      
330000200310013 00100 4843001RN 137              0200120ST ANDRE DE CUB EB200230120ST ANDRE DE CUB     02205000029440009803300003013000       0187      000000                                                                                                                                 120000008         110000008         100000008         090000008         080000008                                                                                                                                                        
330000301310013 00100 4123 51ST ANDRE DE CUB EB200230120A 10                0290790ST ANDRE            02507000072620048640000000000000       0187      000000                                                                                                                                 120000001         110000001         100000001         090000001         080000001                                                                                                                                                        
330000499310013 00100 4853 51BDX                 0510000BDX                 0540900BDX                 05200000030260000600000000000000       0187      000000                                                                                                                                 120000008         110000008         100000008         090000008         080000008                                                                                                                                                        
330000500310013 00100 4813 51A 630               0540900RD 109              0600280LA HOUSE            05805000054150025953300007003000       0187      000000                                                                                                                                 120000008         110000008         100000008         090000008         080000008                                                                                                                                                        
330000600310013 00100 4813 51RD 109              0600280RD 211              0650030JAUGE               06407000047640047293300007003000       0187      000000                                                                                                                                 120000008         110000008         100000008         090000008         080000008                                                                                                                                                        
330000700310013 00100 4113 51RD 211              0650030RD 5                0760751LE PUCH             06807800117030111873300007003000       0187      000000                                                                                                                                 120000001         110000001         100000001         090000001         080000001                                                                                                                                                        
330000800310013 00100 4813 51RD 5                0760751RD 3                0870150LA VIGNOLLE         08004000104040092223300007003000       0187      000000                                                                                                                                 120000008         110000008         100000008         090000008         080000008                                                                                                                                                        
330000900310013 00100 4813 51RD 3                0870150A 63                0960000MONS                09208000089510064893300007003000       0187      000000                                                                                                                                 120000008         110000008         100000008         090000008         080000008                                                                                                                                                        
330000901310013 00100 481 251A 63                0960000DEPARTEMENT 40      0980615LIMITE DPT 40       0970000002615002615330500900340000010030187      000000                                                                                                                                 120000008         110000008         100000008         090000008         080229078                                                                                                                                                        
330001202310013 00890 4113 51RD 121 GENISSAC     0310790RN 2089 Ech 8       0341380SENAU               03405000053970053973300016003000       0994      035704  937    030589   032590   033828   036115   035281   036911   040458   041018   036850   036310   033926   034260               120353961  907    110192531         100306571         090334001         080323491         031862   031080   034299   035537   035123   037624   040289   040261   036965   036219   033416   031855                                      
330001300310013 00890 481 251ECH SENAU           0341380ECH GD CAZAU        0360595MONTIFAUT           03500000023680023683300016003000       0397      029198                                                                                                                                 120325938         110325478         100244638         090239828         080306268                                                                                                                                                        
330001401310013 00890 481 251ECH GD CAZAU        0360595ECH BEYCHAC         0420223GRAND CAZAU         03800000056370056373300016003000       0397      037410                                                                                                                                 120417608         110417018         100313448         090307288         080392408                                                                                                                                                        
330001600310013 00890 411 251RD 13 BEYCHAC       0420223RD 115 POTEAU YVRAC 0470300MONTUSSAN           04301000050570050570000000000000       0187      054004  857    049195   051598   052341   055982   054052   054379   059310   056776   054157   000000   000000   051219               120534541  827    110533781  837    100401201         090000001         080502261         050028   048626   053005   053151   053198   056921   057758   055513   055000   054816   053173   050087                                      
330001700310013 00890 481 251RD 115              0470300RN 230              0500260LE POTEAU D YVRAC   04705000029830029830000000000000       0187      000000                                                                                                                                 120000008         110000008         100000008         090548688         080000008                                                                                                                                                        
330504000310013 02300 411 451ECH.21              0340000ECH.22              0350247PT F.MITTERAND      03500000012420012423305050003000       0194      113729 1327    102366   106288   109631   114874   114110   117146   125367   125323   117266   115350   107343   109021               121113351         111100171         101077401         091051381         081032861         103411   103515   109574   111628   109177   114555   121729   121832   114958   110806   108968   105517                                      
330524200310013 02300 411 451ECH.22              0350247ECH.23              0360643S38 SENS 1+SENS 2   03600000013960013960000000000000       0194      107085 1497    095473   099595   102505   107511   107050   109939   120175   121551   110839   108011   100024   101619               121056671 1497    111054961 1577    101067451         091061261         081045751         097133   097923   103461   105655   103894   110394   117366   118089   108848   103940   102223   098725                                      
330000000310013 02300 411 401ECH.23              0360643ECH.24              0390541S42 SENS 1+SENS 2   03703090028970028973300001023000       0194      000000                                                                                                                                 120000001         110000001         100000001         091083631         081069251                                                                                                                                                        
330504300310013 02300 4110401ECH.24              0390541ECH.25              0400703S46                 0400258001207001207330505000333000000000290      000000                                                                                                                                 120000001         110000001    0    100000001    0    091142961    0    081119011    0                                                                                                                                                   
330504601310013 02300 411 601ECH.25              0400703A 10                0440507S47 EXTER ET INTER  04400130038000038003305050003000       0290      000000                                                                                                                                 120000001         111176641 1467    100000001         091164011         081146991                                                                                                                                                        
330004600310013 02500 4813 51RD 652              0390000ARCACHON            0481070ARCACHON            04700000100650011150000000000000       0187      000000                                                                                                                                 120000008         110000008         100000008         090000008         080000008                                                                                                                                                        
400550100310013 00630 1810221DEPARTEMENT 64      0350700HOSSEGOR            0490789                    0350700014089014089000000000040055060030187      000000                                                                                                                                 120000008         110000008         100000008         090000008         080000008                                                                                                                                                        
400550200310013 00630 181 221HOSSEGOR            0490789ST GEOURS           0650867                    04908000167100167100000000000000       0187      000000                                                                                                                                 120000008         110000008         100000008         090000008         080000008                                                                                                                                                        
400552000310013 06410 1813 11A64                 0000000N117                0060000BARO PEYREHORADE    00100000070320070320000000000000       0187      000000                                                                                                                                 120000008         110000008         100000008         090000008         080000008                                                                                                                                                        
400000100310013 00100 411 251DEPARTEMENT 33      0000000ECH. RD63           0260050LE MURET            0040940026489026489000000000033000090030187      000000                                                                                                                                 120000001         110256151 3367    100286661         090279991         080253361                                                                                                                                                        
400000400310013 00100 411 251ECH. RD63           0260050ECH. RD 38          0440050LAHARIE NORD        0390650018017018017000000000000000000000400      000000                                                                                                                                 120000001         110000001         100294791         090292301         080284441                                                                                                                                                        
400000500310013 00100 411 251ECH. RD38           0440050ECH. RD947          0670190LAHARIE SUD         0460350023528023528000000000000000000000400      000000                                                                                                                                 120000001         110000001         100230211         090297361         080294391                                                                                                                                                        
400000801310013 00100 411 251ECH. RD947          0670190SAINT GEOURS A 63   0880195MAGESQ              08308000215710215710000000000000       0187      000000                                                                                                                                 120000001         110263921 3267    100000001         090268441         080260561                                                                                                                                                        
640002200310013 01340 4113 51PAU                 0370418RD 934              0440600JURANCON            04001000073010056466400024003          0187      017474  557    016633   017399   017902   017394   016543   017426   017708   017769   017906   018309   016935   017760               120175361  567    110178681         100131381         090178111         080179451         017058   017220   018104   016706   016881   018122   017717   017707   018023   018228   017245   017400                                      
640002300310013 01340 4813 51RD 934              0440600RD 920              0610579BELAIR              0540800016914016914640002400300000000000187      007434                                                                                                                                 120074328         110068888         100075948         090076228         080068088                                                                                                                                                        
640002400310013 01340 4112 51RD 920              0610579OLORON EB 10        0660852OLORON              06508000052970050466400024003          0187      010891  547    010071   010534   010724   010958   010389   011083   011303   011397   011529   011457   010610   010626               120108871  547    110100891  527    100111221         090111631         080113051         010499   010203   011170   010181   010803   011488   011028   011178   011421   011478   010770   010391                                      
640002500310013 01340 4842 51OLORON EB 10        0660852RD 936              0680760OLORON STE MARIE    06800000019190000006400024003          0187      009301                                                                                                                                 120092988         110086178         100095008         090095368         080085178                                                                                                                                                        
640002600310013 01340 4842 51RD 936              0680760OLORON EB 20        0690529BIDOS               06905000007740002696400024003          0187      006461                                                                                                                                 120064598         110059868         100066008         090066258         080059188                                                                                                                                                        
640002700310013 01340 4813 51OLORON EB 20        0690529RD 918              0760615GURMENCON           07205000071620039136400028013          0187      000000                                                                                                                                 120000008         110066418         100060788         090068398         080058828                                                                                                                                                        
640002801310013 01340 4112 51RD 918              0760615RD 918              0780376ASASP               07801860017510012006400028013          0187      003817 121     002892            003592   003508                     004237   005547   004103   003744   003322   003408               120000001         110039241 1177    100035911         090040401         080040071                                                                                                                                                        
640002900310013 01340 4113 51RD 918              0780376RD 237              0920475SARRANCE            08607000139220132976400028013          0187      003156 1257    002213   002441   002832   002995   003029   003346   004196   004993   003434   003107   002549   002659               120000001         110032311  897    100000001         090000001         080000001                                                                                                                                                        
640003001310013 01340 4813 51RD 237              0920475RD 239              0980497ACCOUS              09302000060760055586400028013          0187      000000                                                                                                                                 120000008         110028388         100025988         090029238         080025148                                                                                                                                                        
640003002310013 01340 4113 01RD 239              0980000URDOS EB 20         1090000URDOS               10900000110020099240000000000          0187      000000                                                                                                                                 120002741         110002891         100002461         090015261         080013121         000203   000394   000283   000160   000192   000282   000399   000580   000279   000168   000107   000231                                      
640003003310013 01340 4113 51URDOS EB 20         1090270ESPAGNE SOMPORT     1230278COL DU SOMPORT      12300000138910138910000000000          0194      000429         000495   000469   000758                     000253   000390   000627   000257   000181   000157   000693               120003661  547    110003411  517    100000001         090004171         080003871         000400   000633   000517   000224   000170   000263   000375   000619   000267   000198   000143   000574                                      
640012000310013 11340 485 251PAU A 64            0000000PAU A 64            0110254PAU RN 1134         0030000006222006222000000000000000000000193      000000                                                                                                                                 120000008         110000008         100000008         090000008         080000008                                                                                                                                                        
640003100310013 11340 4113 51RN 134 PR 115       1160000ESPAGNE             1190000FORGES D'ABEL-TUNNE 11602000037980037980000000000          0106      001092 2427    000703   000795   000988   001010   001108   000998   001545   002225   001162   000911   000781   000837               120010721 2507    110011021 2397    100008571         090010771         080010871         000766   000805   000861   001080   001007   001062   001546   002053   001165   000862   000805   000828                                      
790000100310013 00100 481 251DEPARTEMENT 86      0000000RD 948              0010492MAISON BLANCHE      0010000001502001502000000000086000090030187      000000                                                                                                                                 120000008         110000008         100000008         090000008         080000008                                                                                                                                                        
790000200310013 00100 481 251RD 948              0010492DEPARTEMENT 16      0060333MAISON BLANCHE      0030000004931004931000000000016000010030187      000000                                                                                                                                 120000008         110000008         100000008         090000008         080000008                                                                                                                                                        
790000806310013 00110 411 251RN 248              0540000DEPARTEMENT 17      0650681EPANNES             0560700012045012045860000900317000030030187      019054 1137    016039   016042   017450   019422   020279   020089   022657   023842   020002   018730   017235   016584               120189641 1087    110190541 1077    100169771         090184071         080178071         015437   015479   017975   020026   020387   020405   022627   023327   020421   017793   017449   016086                                      
790002301310013 02480 4113 51A 10                0000000RN 11               0080758LES GRELLES         00409500089670089678600009003          0187      000000                                                                                                                                 120000001         110052681         100000001         090000001         080000001                                                                                                                                                        
860000501310013 00100 411 251EX RN 10            0580890RN 11               0620334CROUTELLE           06007850034540026498600009003          0187      032938 1987    029087   030337   032453   033054   033654   033976   035558   035470   034044   033696   032015   031707               120315561 2057    110316511 2157    100000001         090301371         080305551         029369   029291   031255   033084   032108   025115   035007   034377   033739   032070   031755   031269                                      
860000600310013 00100 411 251RN 11               0620334RD 742              0740535RUFFIGNY            06603500121400121408600009003          0187      022793 2527    020097   020650   022298   022821   023382   023471   024913   025374   023606   023396   022032   021294               120000001         110224881 2597    100203971         090216601         080213521                                                                                                                                                        
860000701310013 00100 411 251RD 742              0740535COUHE EX RN 10      0870550LES MINIERES        07701800130210130218600009003          0187      018163 3097    015592   016366   017743   018304   018848   018715   020460   021492   018757   018409   017367   015742               120158711 3067    110171541 3307    100169171         090175121         080172941         007780   007949   008496   017966   017996   018530   020336   020606   018740   017191   017701   016950                                      
860000800310013 00100 481 251COUHE EX RN 10      0870550CHAUNAY EX RN 10    1000110COUHE VERAC         09207000125960125968600009003          0187      016313                                                                                                                                 120157928         110162368         100136348         090000008         080000008                                                                                                                                                        
860000900310013 00100 411 251CHAUNAY EX RN 10    1000110DEPARTEMENT 79      1070118CHAUNAY             1060430006881006881          79000010030187      014464 3467    011915   012690   013833   014481   015092   014734   016571   018200   014838   014205   013556   013275               120140021 3497    110143951 3687    100120881         090000001         080135871         012157   012244   013282   014775   014190   014470   016357   017171   013083   013221   013725   013231                                      