090000300310013 00200 4813 51RD 624              0150000PAMIERS A 66        0180000LE VERNET D'AR.     01500000022890022890900004023000       0187      000000                                                                                                                                 12000000        1   00000    110  1   00000    100  1   00000     95  1   00000     80  1 000      000      000000   000000   000000   000000   000000   000000   000000   000000   000000   000000                                      
090000402310013 00200 411 251PAMIERS A 66        0180000RD 119              0210444PAMIERS             01902900034440034440900004023000       0187      021912  607    019701   020745   022983   021499   021047   022233   023265   023467   022471   023010   020298   022069               12021892        1   000007   111  1   000007   105  1   000007    98  1   000007    81  1 000      000      019797   020319   022398   021377   021317   022519   023302   023178   022635   022557                                      
090000501310013 00200 481 251RD 119              0210444RD 12               0241071ENTRE D12 ET D119   02309000036290036290900004023000       0187      000000                                                                                                                                 12000000        8   00000    110  8   00000    100  8   00000     94  8   00000     88  8 000      000      000000   000000   000000   000000   000000   000000   000000   000000   000000   000000                                      
090000601310013 00200 481 251RD 12               0241071RD 13               0290000VARILHES DEV NORD   02602000044630044630900004023000       0187      000000                                                                                                                                 12000000        8   00000    110  8   00000    100  8   00000     97  8   00000     84  8 000      000      000000   000000   000000   000000   000000   000000   000000   000000   000000   000000                                      
090000604310013 00200 481 251RD 13               0290000FOIX NORD           0350000GARRIGOU            02908000057790057790900004023000       0190      000000                                                                                                                                 12000000        8   00000    110  8   00000    100  8   00000     92  8   00000     84  8 000      000      000000   000000   000000   000000   000000   000000   000000   000000   000000   000000                                      
090000801310013 00200 4113251FOIX NORD           0350000FOIX SUD            0400000FOIX                03903400047820047820900010013000       0102      015215  527    013218   013711   016244   014246   014469   015325   017062   018667   015419   015760   012923   015291               12015487        1   000007   115  1   000007   104  1   000007    93  1   000007    82  1 000      000      013632   013741   015532   014362   015027   015797   017569   018430   016184   015712                                      
090000901310013 00200 411 251FOIX SUD            0400000RD 117              0430500MONTGAILLARD        04106240035000035000900010013000       0102      018874  558    015864   016479   019617   017943   018285   019280   021637   023495   019585   019526   016000   018467               12019237        1   000008   110  1   000008   105  1   000008    93  1   000007    85  1 000      000      016648   017407   018960   018226   018666   019649   021978   023963   020210   019063                                      
090001001310013 00200 411 251RD 117              0430500RD 8                0540498ARIGNAC             05107460110900110900900010013000       0187      014165  608    011582   011903   014696   013214   013556   014501   017670   018510   014899   014434   011407   013304               12014584        1   000008   112  1   000008   101  1   000008    98  1   000007    80  1 000      000      012141   012919   013985   013369   013785   014774   017549   019402   015453   014409                                      
090001100310013 00200 4113 51RD 8                0540498RD 102              0710104LES CABANNES        06204200169360169360900010013000       0187      008924  637    007203   007355   008619   008286   008409   009109   010992   013743   009375   008933   006431   008404               12009125        1   000007   118  1   000007   106  1   000007    93  1   000007    89  1 000      000      007176   008407   008796   008173   008696   008725   011165   013320   009819   008724                                      
090001200310013 00200 4113 51RD 102              0710104RD 613              0790614PERLES CASTELET     07309000086570086570900010013000       0187      009278  407    007122   007908   010164   008197   008582   009099   011345   014172   009671   009140   006719   008983               12009423        1   000007   114  1   000007   107  1   000007    91  1   000007    89  1 000      000      007611   008624   009147   008385   008851   008997   011542   013816   010067   008792                                      
090001300310013 00200 4813 51RD 613              0790614RD 322              0880240MERENS NORD         08609400085320085320900010013000       0187      000000                                                                                                                                 12000000        8   00000    110  8   00000    100  8   00000     94  8   00000     80  8 000      000      000000   000000   000000   000000   000000   000000   000000   000000   000000   000000                                      
090001400310013 00200 4113 51RD 322              0880240RN 22               0970737MERENS              08904330094920094920900014003000       0187      006560  538    003962   004171   006724   005868   006531   006897   008397   011399   007344   006669   004874   005623               12007090        1   000008   114  1   000008   103  1   000008    94  1   000007    86  1 000      000      004914   006021   006415   006372   007004   006840   009119   011625   007993   006693                                      
090001800310013 00200 4813 01RN 22               0970737RN 320              0980688LHOSPITALET EST     0980100000951000951120001300300000000000187      000000                                                                                                                                 12000000        1   00000    110  1   00000    100  1   00000     90  1   00000     80  1 000      000                                                                                                                                   
090001500310013 00220 4813 51RN 20               0000000RN 320              0040015N 22 VERS ANDORRE   00305000040150040150900014003000       0187      000000                                                                                                                                 12000000        8   00000    110  8   00000    100  8   00000     95  8   00000     84  8 000      000                                                                                                                                   
090001600310013 03200 4813 51RN 20               0000000DEPARTEMENT 66      0020135R.N 320 AUX P.O     0010800002135002135090001400366000100030187      000000                                                                                                                                 12000000        8   00000    110  8   00000    100  8   00000     93  8   00000     85  8 000      000                                                                                                                                   
120000600310013 00880 4113 51RN 9                0020800RD 28               0240290VARES               01201000221070221071200013003000       0187      000000                                                                                                                                 12006604        1   00000    113  1 80000007   107  1 88000007    90  1   00000     85  1 000166  7000      004875   005108   005575   006702   007026   006893   008545   009809   007029   006307                                      
120000700310013 00880 4113 51RD 28               0240290RD 224              0420390GAGES               03604000181510181511200013003000       0187      010017 1278    008160   008488   009159   009979   010335   010406   012366   012407   009934   010334   009248   009223               12000000        1   00000    110  1 31000007   104  1 25000008    94  1 25000007    83  1 000127  8000      008519   008808   009385   010066   010354   000000   000000   000000   010838   010346                                      
120000801310013 00880 4113 51RD 224              0420390RD 988              0470000LA ROQUETTE OUEST   04305000047800047801200013003000       0187      013818         011850   012400   013391   013754   013928   015237   015863   013496   014380   015125   013227   013074               12000000        1   00000    114  1   00000    109  1   00000     92  1   00000     83  1 000      000      012612   012436   013738   014042   000000   000000   000000   000000   000000   014080                                      
120001001310013 00880 4113 51RD 988              0470000RD 901              0480095LES MOUTIERS        04800950011750011751200013003000       0187      026065                           000000   000000   000000   000000   000000   000000   000000   000000            000000               12000000        1   00000    110  1   00000    100  1   00000     90  1   00000     82  1 000      000      027431   027973   030086   029530   000000   000000   000000   000000   000000   031157                                      
120001002310013 00880 4113 51RD 901              0480095RN 140              0480660LES MOUTIERS ouest  04802000005650005651200013003000       0187      034769         000000   000000   000000   000000   000000   000000   000000   000000   000000   000000   000000   000000               12015313        1   00000    117  1   00000    107  1   00000     96  1   00000     83  1 000      000      013892   014328   015358   015084   015347   016237   016245   015744   015799   015978                                      
120001003310013 00880 4113 51RN 140              0480660RD 84 RD 67         0500000SAINT-CLOUD         05000000015620015621200013003000       0187      022128  807    019959   020936   022185   022850   022458   023152   023788   022451   023178   022067   021010   021438               12000000        1   00000    110  1   00000    100  1   00000     93  1   000007    80  1 000      000      000000   000000   000000   000000   000000   000000   000000   000000   000000   000000                                      
120001004310013 00880 4113 51RD 84 RD 67         0500000PONT V.C. OLEMPS    0520200SAINT-CLOUD         05000000023230023231200013003000       0187      024031  747    022372   023543   025018   025685   025190   026154   026955   025320   026103   018450   019718   023867               12000000        1   00000    110  1   00000    100  1   00000     92  1   00000     80  1 000      000      000000   000000   000000   000000   000000   000000   000000   000000   000000   000000                                      
120001005310013 00880 4813 51PONT V.C.OLEMPS     0520200RD 66 RD 212        0530386LE LACHETversST-CLOU05303000012630012631200013003000       0187      000000                                                                                                                                 12000000        1   00000    110  1   00000    100  1   00000     90  1   00000     80  1 000      000      000000   000000   000000   000000   000000   000000   000000   000000   000000   000000                                      
120001006310013 00880 4113 51RD66 RD212          0530386RD 911              0560800LA PRIMAUBE         05407100034140034141200013003000       0187      000000                                                                                                                                 12000000        1   00000    110  1   00000    100  1   00000     96  1   000007    80  1 000     7000      000000   000000   000000   000000   000000   000000   000000   000000   000000   000000                                      
120001100310013 00880 4113 51LA PRIMAUBE RD 911  0560800BARAQUEVILLE RD 911 0680015LE LAC              06207300090910090911200013003000       0187      015474  978    012921   013778   015084   015614   015840   016171   017028   016671   016605   016399   014724   014732               12015482        1   00000    110  1   000007   103  1   000008    91  1   000008    80  1 000     8000      013665   013592   015274   015354   015864   016577   017030   016607   016235   016152                                      
120001200310013 00880 4813 51RD 911              0680015RD 997              0810695BARAQUEVILLE        06902340136870136871200013003000       0187      000000                                                                                                                                 12000000        8   00000    110  8   00000    100  8   00000     90  8   00000     80  8 000      000      000000   000000   000000   000000   000000   000000   000000   000000   000000   000000                                      
120001300310013 00880 4113 51RD 997              0810695DEPARTEMENT 81      0910192NAUCELLE            0840550009447009447310003300381000010030187      008069 1427    006374   006970   007852   008176   008313   008396   009014   009174   008742   008636   007591   007515               12008142        1   00000    113  1   00000    107  1   00000     90  1   00000     80  1 000      000      006855   006810   007786   008152   008451   008604   009367   009210   008647   008465                                      
310506100310013 00640 111 241ECH 22 ASF          2340270ECH 23              2390200                    2340000004930004930320000500300000000000199      000000                                                                                                                                 12000000        1   00000    110  1   00000    100  1   00000     90  1   00000     80  1 000      000      000000   000000   000000   000000   000000   000000   000000   000000   000000   000000                                      
310506200310013 00640 111 241ECH 23              2390200ECH 24              2430000LAVELANET de COMMIN.2420000003800003800320000500300000000000199      000000                                                                                                                                 12000000        1   00000    115  1 0500000    105  1   00000     96  1   00000     80  1 000      000      030388   030138   031956   033075   032627   034866   000000   000000   000000   000000                                      
310506300310013 00640 111 241ECH 24              2430000ECH 25              2460000                    2440000003000003000320000500300000000000199      000000                                                                                                                                 12000000        1   00000    110  1   00000    105  1   00000     90  1   00000     80  1 000      000      000000   000000   000000   000000   000000   000000   000000   000000   000000   000000                                      
310506500310013 00640 111 241ECH 26              2460000ECH 27              2540000LACRA               2530800008000008000320000500300000000000199      036660                                                                                                                                 12000000        1   00000    113  1 0100000    105  1   00000     90  1   00000     80  1 000      000      035853   035397   038404   039230   039791   044709   049163   000000   038637   000000                                      
310506600310013 00640 111 241ECH 27              2540000ECH 28              2580000LACRA               2550000004000004000320000500300000000000199      041480                                                                                                                                 12000000        1   00000    110  1   00000    105  1   00000     90  1   00000     80  1 000      000      000000   000000   000000   000000   000000   000000   000000   000000   000000   000000                                      
310506700310013 00640 111 241ECH 28              2580000ECH 29              2590500                    2590000001500001500320000500300000000000199      000000                                                                                                                                 12000000        1   00000    110  1   00000    105  1   00000     90  1   00000     80  1 000      000      000000   000000   000000   000000   000000   000000   000000   000000   000000   000000                                      
310506800310013 00640 111 241ECH 29              2590500ECH 30              2610200                    2600000001700001700320000500300000000000199      000000                                                                                                                                 12000000        1   00000    110  1   00000    100  1   00000     90  1   00000     80  1 000      000      000000   000000   000000   000000   000000   000000   000000   000000   000000   000000                                      
310506900310013 00640 111 241ECH 30              2610200ECH 31              2630000                    2620000001800001800320000500300000000000199      000000                                                                                                                                 12000000        1   00000    110  1   00000    100  1   00000     90  1   00000     80  1 000      000      000000   000000   000000   000000   000000   000000   000000   000000   000000   000000                                      
310507000310013 00640 111 241ECH 31              2630000ECH 32              2640800                    2640000001800001800320000500300000000000199      000000                                                                                                                                 12000000        1   00000    110  1   00000    100  1   00000     90  1   00000     80  1 000      000      000000   000000   000000   000000   000000   000000   000000   000000   000000   000000                                      
310507100310013 00640 111 241ECH 32              2640800ECH 33              2690000MURET SUD           2670800004200004200320000500300000000000199      000000         000000   000000   000000   000000   000000   000000   000000   000000   000000   000000   000000   000000               12000000        1   00000    116  1   00000    100  1   00000     95  1   00000     80  1 000      000      042347   046663   051352   051240   050759   054668   057086   000000   053508   000000                                      
310507200310013 00640 111 241ECH 33              2690000ECH 34              2720000PODIO               2690673003000003000320000500300000000000199      000000    7    000000   000000   000000   000000   000000   000000   000000   000000   000000   000000   000000   000000               12049879        1   000007   116  1 06000007   106  1   000007    90  1   00000     80  1 000      000      000000   043397   046015   046433   045118   048239   038452   051005   047851   000000                                      
310507201310013 00640 111 241ECH 34              2720000ECH 35 ASF          2740089MURET               2720800002032002032320000500300000000000199      058597 1067    000000   000000   000000   000000   000000   000000   000000   000000   000000   000000   000000   000000               12000000        1   00000    110  1   00000    100  1   00000     90  1   00000     80  1 000      000      043397   046015   046433   045118   048239   038452   051005   047851   000000   000000                                      
310505200310013 00680 181 241GEMIL FIN CONCEDEE  0170105DPT81               0220110A68 ETAT GESTION 81 0180000005005005005320000500381050010030187      000000                                                                                                                                 12000000        1   00000    110  1   00000    100  1   00000     90  1   00000     80  1 000      000      000000   000000   000000   000000   000000   000000   000000   000000   000000   000000                                      
310508003310013 06200 1110231SESQUIERES          0000724LES MINIMES 31      0030626GINESTOUS           0020130002857002857320000500300000000000187      125767  56                                                                                                                             12125786        1   00000    113  1   00000    108  1   00000     97  1   00000     80  1 000      000      122920   120351   129735   126114   123316   135450   129022   114034   128816   132168                                      
310508106310013 06200 1110231ES MINIMES 31       0030626PONT JUMEAUX 30     0050106PONT JUMEAUX        0040432001464001464320000500300000000000187      099659  57                                                                                                                             12100316        1   00000    110  1   00000    102  1   00000     96  1   00000     89  1 000      000      100626   095111   102230   099916   097848   106372   103449   092996   103504   105469                                      
310508200310013 06200 1110231PONT JUMEAUX 30     0050106PURPAN 29           0060074PONT GARONNE        0050354000966000966320000500300000000000187      119509  46                                                                                                                             12122791        1   00000    110  1   00000    105  1   00000     91  1   00000     86  1 000      000      120973   117555   127417   122548   120289   130210   124878   113909   125902   128327                                      
310508300310013 06200 1110231PURPAN 29           0060074CEPIERE 27          0080497STATION A620        0070789002433002433320000500300000000000187      135706  56                                                                                                                             12135351        1   00000    111  1   00000    100  1   00000     90  1   00000     86  1 000      000      133194   130016   138447   135361   132157   143048   138648   127288   138772   140788                                      
310508400310013 06200 1110231CEPIERE 27          0080497LA FAOURETTE        0090542FAOURETTE           0090100001056001056320000500300000000000187      134846  55                                                                                                                             12134732        1   00000    116  1   00000    101  1   00000     90  1   00000     85  1 000      000      131782   129361   138718   135063   131528   142495   137932   125747   137905   140182                                      
310508500310013 06200 1110231LA FAOURETTE        0090542BORDELONGUE         0110801PT DE SEYSSES       0100604002247002247320000500300000000000187      130910  56                                                                                                                             12130717        1   00000    116  1   00000    103  1   00000     94  1   00000     84  1 000      000      127832   125319   134788   130384   127340   138208   134526   123127   134051   136181                                      
310508700310013 06200 1110231LANGLADE 25         0110801EMPALOT 24          0130601EMPALOT             0120660001836001836320000500300000000000187      134533                                                                                                                                 12122079        1   000007   114  1   000007   107  1   000007    97  1   00000     82  1 000      000      114651   113131   120582   117342   113455   123264   113256   000000   130649   143052                                      
310508800310013 06200 1110231EMPALOT 24          0130601RANGUEIL 23         0140000RANGUEIL            0130888000363000363320000500300000000000187      089450  467    085482   088527   089590   092192   087392   092814   095698   085018   090877   093631   087435   084841               12088116        1   000007   118  1   000007   106  1   000007    91  1   00000     87  1 000      000      085220   083980   089826   088344   084621   092191   092326   084328   090097   092640                                      
310508900310013 06200 1110231RANGUEIL 23         0140000DEMOISELLES 21      0150880RANGUEIL-DEMOIS     0140536001873001873320000500300000000000187      100829  49                                                                                                                             12099247        1   00000    110  1   00000    100  1   00000     97  1   00000     85  1 000      000      096187   094419   101693   099217   096067   104357   103233   093931   101792   104403                                      
310509000310013 06200 1110231DEMOISELLES 21      0150880LESPINET 20         0160048DEMOISELLES         0160000000172000172320000500300000000000187      105453  527    101130   104781   106060   107553   103566   109496   111976   098504   107877   110500   103648   100491               12104032        1   000007   119  1   000007   106  1   000007    90  1   00000     80  1 000      000      101266   099452   106745   104198   100713   109365   107557   097839   106561   109046                                      
310509100310013 06200 1110231LESPINET 20         0160048PALAYS A61          0170777LESPINET            0160285001730001730320000500300000000000187      093229  547    092541   095891   097207   100064   095366   098968   094160   073288   083795   099851   095345   092699               12095050        1   000007   110  1   000007   102  1   000007    97  1   00000     80  1 000      000      094889   092165   098159   096580   093462   100181   098418   083556   093501   100087                                      
310509600310013 06210 1110231ST MICHEL DU TOUCH  0000000LE RITOURET         0030992RITOURET            0030211003990003990320000500300000000000998      097366    7    000000   000000   000000   000000   000000   000000   000000   000000   000000   000000   000000   000000               12091227        1   000007   112  1   00000    108  1   000007    98  1   00000     89  1 000      000      098437   096193   100005   099502   094744   105435   092004   079508   091431   095227                                      
310509200310013 06230 1114031PALAYS              0000000CNES                0000415GIRATOIRE PALAYS    0000250000415000415320000500300000000000187      027603                                                                                                                                 12000000        1   00000    116  1   00000    100  1   00000     99  1   00000     80  1 000      000      000000   000000   000000   000000   000000   000000   000000   000000   000000   000000                                      
310502000310013 06240 111 231PURPAN              0000000BAYLAC 1            0000520PURPAN A624         0000351000520000520320000500300000000000194      106256  44                                                                                                                             12105391        1   00000    113  1   00000    108  1   00000     91  1   00000     80  1 000      000      103784   102080   108863   105677   102938   111787   107267   097806   107726   109450                                      
310502100310013 06240 111 231BAYLAC 1            0000520ST MARTIN DU TOUCH  0010500BAYLAC              0001184001163001163320000500300000000000194      101237  56                                                                                                                             12099613        1   00000    116  1   00000    105  1   00000     96  1   00000     84  1 000      000      000000   101454   103440   098067   096190   103939   099516   090737   103093   103370                                      
310502200310013 06240 111 231ST MARTIN DU TOUCH  0010500LA CRABE            0030900CRABE EST           0020252002400002400320000500300000000000194      126782  54                                                                                                                             12125037        1   00000    114  1   00000    107  1   00000     91  1   00000     85  1 000      000      123658   122073   130924   123931   120535   134110   126255   110888   127700   132466                                      
310003202310013 01240 481 251DEBUT 2X2 VOIES     0060000Fin 2x2 voies       0090317COLOMIERS           00900000029200029203100033003000       0187      000000                                                                                                                                 12000000        8   00000    110  8   00000    100  8   00000     90  8   00000     80  8 000      000      000000   000000   000000   000000   000000   000000   000000   000000   000000   000000                                      
310003300310013 01240 411 251FIN 2X2 VOIES       0090317RD 24               0130192COLOMIERS siredo    01107000039190039193100033003000       0187      000000                                                                                                                                 12000000        1   00000    110  1   00000    100  1   00000     90  1   00000     80  1 000      000      000000   000000   000000   000000   000000   000000   000000   000000   000000   000000                                      
310003400310013 01240 481 251RD 24               0130192DEPARTEMENT 32      0191064LEGUEVIN            0150800007216007216310003300332000090030187      000000                                                                                                                                 12000000        8   00000    110  8   00000    100  8   00000     90  8   00000     80  8 000      000      000000   000000   000000   000000   000000   000000   000000   000000   000000   000000                                      
310003600310013 01250 4113 51A 645               0030000RD 33 LABROQUERE    0050196LABROQUERE          00408000019010019013200005003000       0187      000000                                                                                                                                 12000000        1   00000    119  1   000007   107  1   000007    90  1   00000     80  1 000      000      000000   000000   000000   000000   000000   000000   000000   000000   000000   000000                                      
310338500310013 01250 4113 51LABROQUERE          0050196RD 33 CHAUM         0181637GALIE               01403000137270137273200005003000       0211      000000                                                                                                                                 12000000        1   00000    110  1   000007   100  1   00000     90  1   00000     80  1 000      000      007810   008331   008404   007668   000000   000000   000000   000000   000000   000000                                      
310003800310013 01250 4112 51RD 33 CHAUM         0181637RD 44               0230442CHAUM               01907000048780048783200005003000       0187      003606  627    003257   003767   004502   003685   002197   002861   003809   005170   003697   003477   003050   003785               12003944        1   000007   119  1   000007   106  1   000007    95  1   00000     80  1 000      000      003914   004031   004233   004158   003809   003751   004646   000000   004211   003535                                      
310003900310013 01250 4112001RD 44               0230442ESPAGNE             0340110FOS                 03108000107010107013200005003000       0187      000000                                                                                                                                 12000000        1   00000    110  1   00000    100  1   00000     92  1   000007    80  1 000      000      000000   000000   000000   000000   000000   000000   000000   000000   000000   000000                                      
310000200310013 02240 4113001RD 17 MONTAIGUT     0060654CORNEBARRIEU        0310876MONDONVILLE         0250850026112026112310003300300000000000187      010234  337    010110   010456   010609   010812   010156   010905   009856   008148   010589   010778                                 12010168        1   000007   115  1   00000    103  1   00000     90  1   00000     80  1 000      000      010089   009531   010273   000000   010013   010969   010120   008970   010407   010843                                      
320000200310013 00210 4113 51LECTOURE NORD       0100760FLEURANCE EB 10     0220960SAINT GENY          01708500114410114413200005003000       0187      006246 1188    005452   005654   006075   006235   006259   006467   006899   006957   006520   006617   005896   005870               12006824        1   000008   112  1 24000008   100  1   000008    98  1   000008    83  1 000      000      005764   005567   006265   000000   006278   006758   007051   010252   008766   006698                                      
320000300310013 00210 4843 51FLEURANCE EB 10     0220960FLEURANCE EB 20     0260856FLEURANCE AGGLO     02500000043080043083200005003000       0187      000000                                                                                                                                 12007509        8   00000    110  8   00000    100  8   00000     93  8   00000     89  8 000      000      000000   000000   000000   000000   000000   000000   000000   000000   000000   000000                                      
320000400310013 00210 4813 51FLEURANCE EB 20     0260856RD 172              0360397FLEURANCE AN SUD    02608700096010096013200005003000       0187      000000                                                                                                                                 12000000        8   00000    110  8   00000    100  8   00000     92  8   00000     88  8 000      000      000000   000000   000000   000000   000000   000000   000000   000000   000000   000000                                      
320000500310013 00210 4113 51RD 172              0360397AUCH EB 10          0460900ROUTE D'AGEN        04504500105290105293200016013000       0187      009783         009410   009541   009889   009813   008778   009633   010049   009966   010298   010548   009803   009657               12009824        1   00000    112  1   00000    109  1   00000     99  1   00000     83  1 000      000      009780   009506   010627   000000   009595   010061   009738   009410   009902   010096                                      
320000599310013 00210 4853 51AUCH EB 10          0460900AUCH EB 20          0520026AUCH                05200000054200054203200016013000       0187      000000                                                                                                                                 12000000        8   00000    111  8   00000    100  8   00000     92  8   00000     88  8 000      000      000000   000000   000000   000000   000000   000000   000000   000000   000000   000000                                      
320000601310013 00210 4113 51AUCH EB 20          0520026DEBUT 3 VOIES       0630209DEPOT FERRE         05309000111850111853200006013000       0187      007847         007098   007407   007800   007795   007793   008259   008363   008098   008092   008244   007585   007602               12007772        1   00000    119  1   00000    101  1   00000     90  1   00000     85  1 000      000      007285   006905   007870   000000   007605   008126   008269   008110   008192   008110                                      
320000602310013 00210 4815 51DEBUT 3 VOIES       0630209FIN 3 VOIES         0650264COMPTAGE 0006 01    06500000019810019813200006013000       0187      000000                                                                                                                                 12000000        8   00000    110  8   00000    100  8   00000     92  8   00000     86  8 000      000      000000   000000   000000   000000   000000   000000   000000   000000   000000   000000                                      
320000603310013 00210 4813 51FIN 3 VOIES         0650264DEBUT 3 VOIES       0690175COMPTAGE 0006 02    06600000037400037403200006011000       0187      000000                                                                                                                                 12000000        8   00000    110  8   00000    100  8   00000     90  8   00000     88  8 000      000      000000   000000   000000   000000   000000   000000   000000   000000   000000   000000                                      
320000604310013 00210 4815 51DEBUT 3 VOIES       0690175FIN 3 VOIES         0700499COMPTAGE 0006 03    07000000013300013303200006012000       0187      000000                                                                                                                                 12000000        8   00000    110  8   00000    100  8   00000     90  8   00000     81  8 000      000      000000   000000   000000   000000   000000   000000   000000   000000   000000   000000                                      
320000605310013 00210 4813 51FIN 3 VOIES         0700499RD 104              0720812COMPTAGE 0006 04    07100000022820022823200006013000       0187      000000                                                                                                                                 12000000        8   00000    110  8   00000    100  8   00000     91  8   00000     88  8 000      000      000000   000000   000000   000000   000000   000000   000000   000000   000000   000000                                      
320000700310013 00210 4813 51RD 104              0720812RD 3                0890612MIRANDE             07505000167280167283200008003000       0187      000000                                                                                                                                 12000000        8   00000    110  8   00000    100  8   00000     91  8   00000     82  8 000      000      000000   000000   000000   000000   000000   000000   000000   000000   000000   000000                                      
320000800310013 00210 4113 51RD 3                0890612DEPARTEMENT 65      1000408LAGUIAN             08909000102290102293200010003000       0187      004643 1127    004073   004176   004539   004577   004535   004688   005289   005215   004958   004847   004388   004383               12004675        1 13000007   116  1 11000007   107  1 15000007    96  1 24000007    81  1 000      000      004189   003891   004548   000000   004662   004914   005234   005134   005075   004901                                      
320000901310013 01240 4813 51DEPARTEMENT 31      0000000DEBUT DEV PUJAUDRAN 0020700COMPTAGES 0009.03   0010000002690002690320001000331000340030191      000000                                                                                                                                 12000000        8   00000    110  8   00000    100  8   00000     93  8   00000     86  8 000      000      000000   000000   000000   000000   000000   000000   000000   000000   000000   000000                                      
320000902310013 01240 481 251DEBUT DEV.PUJAUDRAN 0020700FIN DEV.            0050800DEV.PUJAUDRAN       0040000002982002982320001000300000000000191      000000                                                                                                                                 12000000        8   00000    110  8   00000    100  8   00000     99  8   00000     80  8 000      000      000000   000000   000000   000000   000000   000000   000000   000000   000000   000000                                      
320000903310013 01240 411 251FIN DEV .PUJAUDRAN  0050800RD 654              0130143PUJAUDRAN           0060165006290006290320001000300000000000191      022983  688    023398   022816   022091   022383   022036   023333   023806   022101   022378   023488   024005   023947               12022267        1   000008   115  1   000008   100  1   000008    96  1   000008    80  1 000      000      021583   020256   022591   000000   021290   023066   023106   021482   022557   022923                                      
320001000310013 01240 4113 51RD 654              0130143DEBUT 3 VOIES       0320587ISLE JOURDAIN       0170800019015019015320001000300000000000187      000000                                                                                                                                 12000000        1   00000    116  1 03000008   102  1   000008    99  1   000008    88  1 000      000      000000   000000   000000   000000   000000   000000   000000   000000   000000   000000                                      
320001100310013 01240 4815 51DEBUT 3 VOIES       0320587GIR. AUBIET EST     0350180CAHUZAC             0330500002610002610320001000300000000000187      000000                                                                                                                                 12000000        8   00000    110  8   00000    100  8   00000     95  8   00000     83  8 000      000      000000   000000   000000   000000   000000   000000   000000   000000   000000   000000                                      
320001200310013 01240 481 251GIR. AUBIET EST     0350180RD 928              0380970DEV AUBIET EST      0360000003877003877320001000300000000000187      000000                                                                                                                                 12000000        8   00000    110  8   00000    100  8   00000     91  8   00000     82  8 000      000      000000   000000   000000   000000   000000   000000   000000   000000   000000   000000                                      
320001300310013 01240 481 251RD 928              0380970GIR. AUBIET OUEST   0421029DEV AUBIET OUEST    0390300004175004175320001000300000000000187      000000                                                                                                                                 12000000        8   00000    110  8   00000    100  8   00000     91  8   00000     86  8 000      000      000000   000000   000000   000000   000000   000000   000000   000000   000000   000000                                      
320001400310013 01240 4815 51GIR. AUBIET OUEST   0421029FIN 3 VOIES         0490332MARSAN              0470000006295006295320001000300000000000187      000000                                                                                                                                 12000000        8   00000    110  8   00000    100  8   00000     93  8   00000     83  8 000      000      000000   000000   000000   000000   000000   000000   000000   000000   000000   000000                                      
320001501310013 01240 4813 51FIN 3 VOIES         0490332GIR ST.CRICQ        0510490ST.CRICQ            0510300002010002010320001601300000000000189      012468  727             011124   011845   012199   012365   012685   013383   013319   013298   012952   012120   011749               12000000        1   00000    110  1   00000    103  1   00000     99  1   00000     87  1 000      000      000000   000000   000000   000000   000000   000000   000000   000000   000000   000000                                      
320001502310013 01240 4113 01GIR ST.CRICQ        0510490GIR . ENDOUMINGUE   0560100ENGACHIES           0530020003766003766320001601300000000000187      009044 1408    007633   008141   008649   009162   009570   009412   010250   009858   009320   009270   008638   008541               12008509        1 41000008   117  1 23000008   102  1 26000007    97  1   000008    80  1 000      000      007262   007165   008493   000000   008569   009004   009128   009263   009086   008972                                      
320001601310013 01240 4113 01GIR . ENDOUMINGUE   0560100GIR. RD 930         0620500DURAN               0610450005388005388320001601300000000000287      010678 1037    009219   009662   010190   010600   010807   010897   012048   011759   011152   011103   010382   010231               12010402        1 02000007   116  1 00000007   109  1   000007    97  1   000007    87  1 000      000      009379   009281   010360   000000   010470   010904   011551   011221   010711   010553                                      
320001701310013 01240 4813 51GIR. RD 930         0620500DEBUT 3 VOIES       0730700NAHES               0650000011046011046320001601300000000000187      000000                                                                                                                                 12000000        8   00000    110  8   00000    100  8   00000     95  8   00000     83  8 000      000      000000   000000   000000   000000   000000   000000   000000   000000   000000   000000                                      
320001702310013 01240 4815 51DEBUT 3 VOIES       0730700FIN 3 VOIES         0760330ST JEAN POUTGE      0750000002653002653320001601300000000000187      000000                                                                                                                                 12000000        8   00000    110  8   00000    100  8   00000     90  8   00000     87  8 000      000      000000   000000   000000   000000   000000   000000   000000   000000   000000   000000                                      
320001703310013 01240 4813 51FIN 3 VOIES         0760330RD 626              0850735ST JEAN POUTGE      0780000009453009453320001601300000000000187      000000                                                                                                                                 12006609        8   00000    110  8   00000    100  8   00000     94  8   00000     82  8 000      000      000000   000000   000000   000000   000000   000000   000000   000000   000000   000000                                      
320001800310013 01240 4813 51RD 626              0850735RN 524              1030378CARGET              0870000017578017578320001601300000000000187      000000                                                                                                                                 12000000        8   00000    110  8   00000    100  8   00000     91  8   00000     82  8 000      000      000000   000000   000000   000000   000000   000000   000000   000000   000000   000000                                      
320004000310013 02240 4812 51R N 124             0000000RD 654              0030000L'ISLE JOURDAIN     0010500003058003058320001000300000000001290      003227  82                                                                                                                             12000000        8   00000    110  8   00000    104  8   00000     90  8   00000     80  8 000      000      000000   000000   000000   000000   000000   000000   000000   000000   000000   000000                                      
320004001310013 02240 4812 51RD 654              0030000HAUTE GARONNE       0060654L'ISLE JOURDAIN     0040000003695003695320001000300000000000106      000000                                                                                                                                 12000000        8   00000    110  8   00000    102  8   00000     93  8   00000     82  8 000      000      000000   000000   000000   000000   000000   000000   000000   000000   000000   000000                                      
320003000310013 05240 4812 51DPT LANDES          0780311RD 626 CAZAUBON     0840000BARBOTAN            0840000005823005823320001601300000000000189      000000                                                                                                                                 12000000        8   00000    110  8   00000    100  8   00000     90  8   00000     80  8 000      000      000000   000000   000000   000000   000000   000000   000000   000000   000000   000000                                      
320003100310013 05240 4812 51RD 626 CAZAUBON     0840000RD 931 EAUZE        1030000MANCIET             1020000019207019207320001601300000000000189      000000                                                                                                                                 12000000        8   00000    110  8   00000    100  8   00000     90  8   00000     80  8 000      000      000000   000000   000000   000000   000000   000000   000000   000000   000000   000000                                      
320003300310013 05240 4812 51RD 931 EAUZE        1030000R.N 124             1070373LA JALOUSIE         10500000044970044973200016013          0189      000000                                                                                                                                 12000000        8   00000    110  8   00000    100  8   00000     90  8   00000     89  8 000      000      000000   000000   000000   000000   000000   000000   000000   000000   000000   000000                                      
330093200310013 05240 4843 51PORT LANGON         0000000RD 3  BAZAS         0120790MAZERES             00707640135340135340000000000000       0397      009571 100                                                                                                                             12000000        8   00000    110  8   00000    106  8   00000     90  8   00000     80  8 000      000                                                                                                                                   
330093201310013 05240 4843 51RD 3  BAZAS         0120790RD 932 CAPTIEUX     0320000CAPTIEUX NORD       03002000188180188180000000000000       0397      003685 186                                                                                                                             12000000        8   00000    110  8   00000    108  8 8400000     90  8   00000     80  8 000      000                                                                                                                                   
330093202310013 05240 4843 51RD 932 CAPTIEUX     0320000DPT 40              0360403CAPTIEUX  vers DPT4003600000043890043890000000000400       0397      000000                                                                                                                                 12000000        8   00000    110  8   00000    100  8   00000     90  8   00000     80  8 000      000      000000   000000   000000   000000   000000   000000   000000   000000   000000   000000                                      
400052401310013 05240 4813 51DPT 33              0370000RD 933              0650000PLAISANCE           04900000282630282630000000000000000000 0104      000000                                                                                                                                 12000498        8 3900000    110  8   00000    100  8   00000     90  8   00000     80  8 000      000      000000   000000   000000   000000   000000   000000   000000   000000   000000   000000                                      
400052402310013 05240 4113 51RD 933              0650000GABARRET            0750000LAPEYRADE           06506000101810101810000000000000000000 0104      000969 133                                                                                                                             12000969        1 3900000    117  1   00000    101  1 4400000     90  1   00000     80  1 000      000      000849   000818   000916   000000   000956   001006   001056   001100   001054   001055                                      
400052403310013 05240 4813 51GABARRET            0750000DPT 32              0780311GABARRET SUD        07800000033610033610000000000000000000 0104      000000                                                                                                                                 12000000        8   00000    110  8   00000    100  8   00000     90  8   00000     80  8 000      000                                                                                                                                   
650000100310013 00210 4813001Dpart. 32          0000000RD 934              0020352RABASTENS           0000325002344002344650000201332000080030187      000000                                                                                                                                 12005803        8   00000    110  8   00000    100  8   00000     90  8   00000     80  8 000      000                                                                                                                                   
650000201310013 00210 4113001RD 934              0020352RD 2                0140940ESCONDEAUX          0100150012603012603650000201300000000000187      006256  878    005635   005838   006256   006353   006234   006304   006612   006555   006480   006664   006027   006079               12006329        1   000008   117  1   000008   102  1   000008    90  1   00000     80  1 000      000      005885   005855   006254            006203   006689   006576   006575   006509   006691                                      
650000202310013 00210 4813001RD 2                0140940AUREILHAN EB 10     0170815AUREILHAN-NORD      0150470002880002880650000201300000000000187      000000                                                                                                                                 12000000        8   00000    110  8   00000    100  8   00000     90  8   00000     80  8 000      000                                                                                                                                   
650000390310013 00210 4843001AUREILHAN EB 10     0170815GIRATOIRE SEMEAC    0200160AUREILHAN VILLE     0180100002494002494650000392300000000000187      010877  77                                                                                                                             12011375        8   00000    110  8   00000    100  8   00000     90  8   00000     84  8 000      000                                                                                                                                   
650000391310013 00210 4850201GIRATOIRE SEMEAC    0200160GIRATOIRE ST FRAI   0210000PONT SAINT FRAI     0200650000778000778650000392300000000000190      000000                                                                                                                                 12000000        8   00000    110  8   00000    100  8   00000     90  8   00000     81  8 000      000                                                                                                                                   
650000392310013 00210 4150201GIRATOIRE ST FRAI   0210000GIRATOIRE ALSTHOM   0210671CITE MOUYSSET       0210610000671000671650000392300000000000195      016256  507    016582   016796   017486   017148   016240   016613   015368   011806   017090   017572   016632   015868               12017048        1   000007   112  1   000007   101  1   000001    97  1   00000     81  1 000      000      016669   017215   017941            016595   017809   016148   015948   017500   018309                                      
650000393310013 00210 4850201GIRATOIRE ALSTHOM   0210671GIRATOIRE ORMEAU    0220515ALSTHOM             0211240001572001572650000392300000000000195      000000                                                                                                                                 12000000        8   00000    110  8   00000    100  8   00000     90  8   00000     86  8 000      000                                                                                                                                   
650000394310013 00210 4850201GIRATOIRE ORMEAU    0220515GIRATOIRE BAGNERES  0221105STADE TRELUT        0220850000590000590650000395300000000000195      000000                                                                                                                                 12000000        8   00000    110  8   00000    100  8   00000     90  8   00000     82  8 000      000                                                                                                                                   
650000395310013 00210 4150201GIRATOIRE BAGNERES  0221105GITATOIRE HOSPITAL  0230635DEBUSSY             0221500001104001104650000395300000000000195      025402  427    024804   025231   026439   025693   024338   025218   024667   023235   025596   026857   026607   026172               12025488        1   000007   118  1   000007   100  1   00000     97  1   00000     88  1 000      000      026184   025965   026967            024659   026376   024459   023351   025599   026417                                      
650000396310013 00210 4853001GIRATOIRE HOPITAL   0230635TARBES EB 20        0240570ROCADE SUD          0231310001437001437650000395300000000000189      000000                                                                                                                                 12000000        8   00000    110  8   00000    100  8   00000     90  8   00000     80  8 000      000                                                                                                                                   
650000401310013 00210 4813001TARBES EB20         0240570GIRATOIRE A64       0250338ACCES A64           0250000001341001341650000395300000000000298      000000                                                                                                                                 12000000        8   00000    110  8   00000    100  8   00000     90  8   00000     87  8 000      000                                                                                                                                   
650000402310013 00210 4813001GIRATOIRE A64       0250338RD 921 A            0290340DEVIATION DE JUILLAN0261475005503005503650000395300000000000189      000000                                                                                                                                 12013024        8   00000    111  8   00000    109  8   00000     90  8   00000     83  8 000      000                                                                                                                                   
650000501310013 00210 4813001RD 921 A            0290340RD 93               0330100ADE                 0320825003772003772650000395300000000000187      000000                                                                                                                                 12000000        1   00000    119  1   00000    100  1   00000     90  1   00000     80  1 000      000                                                                                                                                   
650000502310013 00210 4813001RD 93               0330100LOURDES             0390152TOULICOU            0330260005985005985650000395300000000000195      017316  54                                                                                                                             12015869        8   00000    117  8   00000    100  8   00000     90  8   00000     80  8 000      000                                                                                                                                   
660001101310013 00200 4113001RN 320 TUNNEL PUYMOR0140000UR RD 618           0290670PORTA               0140000015686015686660002800300000000001093      003315  828    002612   002898   004350   002431   002510   002936   004853   005747   003276   002641   001881   003506               12003510        1   000008   111  1   000008   105  1   00000     91  1   000007    80  1 000      000      003346   003755   003487   003050   002763   002990   004480   006274   003409   002781                                      
660001300310013 00200 4113001RD618 UR            0290670RN116 BOURG MADAME  0320908BOURG-MADAME-NORD   0320400003255003255660002800300000000001291      004909  477    004254   004335   005045   004060   004303   004858   005795   007616   005008   004648   004255   004632               12005080        1   000007   116  1   000007   100  1   00000     92  1   000007    80  1 000      000      004804   004842   004688   004629   004580   004907   006224   007734   005139   004559                                      
660090042310013 00200 4122001N116                0320908ESPAGNE             0321190BOURG-MADAME-FR.    0321150000282000282810000502300000000001287      008102  198    007388   007672   008932   007202   007165   007504   008560   012772   007544   006886   006847   008612               12008154        1   000008   112  1   000008   104  1   00000     90  1   00000     80  1 000      000      008199   007974   007509   008176   006907   007305   009082   012701   007515   006829                                      
660090261310013 00220 4112001CROISADE            0000000GIRATOIRE / ENVALIRA0050050PAS_MERE            0040800005011005011810000502300000000000205      006916  187    004216   003877   006666   006167   006732   007296   009002   012681   008023   007077   004730   006188               12007467        1   000007   115  1   000007   100  1   00000     99  1   000007    89  1 000     7000      005434   005373   007036   006852   007216   007183   009633   012287   008625   007003                                      
660090362310013 00220 4112001GIRATOIRE/ENVALIRA  0050050PAS DE LA CASE      0050734PAS_MERE            0050200000684000684810000502300000000000205      006986  307    002390   002239   003391   002638   003128   003643   004451   006240   004024   003571   002543   003277               12007552        1   000007   110  1   000007   107  1   00000     94  1   000007    87  1 000     7000      005847   006343   007224   006635   007250   007160   009377   011942   008525   007042                                      
660002400310013 01160 4110201GIRATOIRE ST CHARLES0000000Echangeur du Soler  0060400PERPIGNAN RN116     0040360003407003407660002800300000000000390      025944  417    024909   025722   026361   026660   026968   029051   030348   027014   024891   024100   022006   023239               12025727        1   000007   113  1   000007   100  1   00000     92  1   00000     84  1 000     7000      023987   024408   025696   025408   024796   027436   029234   028698   023432   025515                                      
660002401310013 01160 4810201Echangeur du Soler  0060400Echangeur RD 16     0110650LE SOLER            0100900005251005251660002800300000000000390      000000                                                                                                                                 12019655        8   00000    114  8   00000    100  8   00000     90  8   00000     80  8 000      000                                                                                                                                   
660002500310013 01160 4110101Echangeur RD 16     0110650Echangeur Millas    0141200SAINT FELIU         0130540003451003451660002800300000000000101      019802  417    017695   018276   018948   018785   018957   020452   022828   023797   020808   019834   018096   018965               12019514        1   000007   112  1   000007   108  1   00000     93  1   000007    81  1 000     7000      017726   018280   018908   018615   018813   020409   022344   023208   020100   019093                                      
660002601310013 01160 4110101Echangeur Millas    0141200Echangeur Ille/Tt  0220000MILLAS              0170250007575007575660002800300000000001287      014601  427    012879   013142   014031   013711   013954   014686   017239   018034   015418   014687   013161   014083               12014471        1   000007   116  1   000007   104  1   00000     93  1   00000     80  1 000      000      012768   013367   013732   013703   013807   014968   017319   017780   015164   013978                                      
660002700310013 01160 4113001Echangeur Ille/Tt  0220000D35 PRADES          0420441BOULETERNERE        0270500019996019996660002800300000000001287      014871  578    012649   013206   013926   013676   014306   015674   017910   019606   015917   014652   012937   013797               12014657        1   000008   117  1   000008   105  1   00000     99  1   000007    81  1 000     7000      013007   013372   013550   013728   014141   015453   017840   018934   015502   013971                                      
660002800310013 01160 4113001D 35(N9116)         0420441D116 VILLEFRANCHE   0480311RIA                 0450250006469006469660002800300000000000390      009902         008005   008583   009255   008575   009043   010082   013080   014800   010650   009754   007922   008877               12009868        1   00000    117  1   00000    104  1   00000     96  1   00000     80  1 000      000      008348   008592   008559   008832   009179   010176   012922   015363   010437   009200                                      
660002900310013 01160 4813001D 116               0480311D 4 OLETTE          0580178SERDINYA            0530000009960009960660002800300000000000188      000000                                                                                                                                 12009000        8   00000    118  8   00000    100  8   00000     90  8   00000     82  8 000      000                                                                                                                                   
660003000310013 01160 4113001D 4 OLETTE          0580178D 118 MONT LOUIS    0780535OLETTE              0580200019712019712810000502300000000001291      005237  558    004501   004905   005282   004132   004379   005048   006753   008343   005606   004770   003891   005135               12005225        1   000008   113  1   000008   107  1   00000     97  1   000008    84  1 000     7000      004700   005426   004473   004190   004506   005052   006932   008410   005633   004500                                      
660003100310013 01160 4113001D 118               0780535D10                 0810060MONT-LOUIS / N116   0790000002491002491810000502300000000001287      004188  727    003436   003627   004153   003142   003350   003869   005784   007576   004395   003734   003016   004037               12004260        1   000007   116  1   000007   103  1   00000     97  1   00000     80  1 000      000      003753   004135   003540   003395   003482   004044   005806   007636   004502   003583                                      
660003200310013 01160 4113001D 10                0810060N20 BOURG-MADAME    0990150HIX                 0980180017909017909810000502300000000001287      004099  508    003497   003766   004282   003043   003307   003788   004879   007471   004117   003520   003210   004210               12004181        1   000008   110  1   000008   102  1   00000     92  1   000008    82  1 000      000      004077   004113   003581   003744   003378   003781   005348   007002   004242   003517                                      
660001000310013 03200 4113001DPT 09              0000000RN 22               0030124PORTE PUYMORENS     0030080003090003090660002800300000000001191      005976  387    003277   003422   004120   005508   006376   006575   008312   010890   007002   006505   004673   004806               12006217        1   000007   112  1   000007   105  1   00000     95  1   00000     80  1 000      000      004393   004534   005543   005857   006177   005947   007917   010263   007052   005975                                      
660001100310013 03200 4113001RN 22               0030124RN 20 TUNNEL PUYM-660131066PORTE PUYMORENS     0030160010807010807660002800300000000001193      002438  537    001182   000767   003130   001861   002261   002526   003740   004955   002832   002290   001607   001912               12001972        1   000007   115  1   000007   102  1   00000     93  1   00000     80  1 000      000      001717   001824   001882   001677   001638   001672   002445   003622   002135   001525                                      
810500100310013 00680 181 231DPT31               0220110ECH. ST SULPICE     0270190                    0250000005080005080810500200300000000000193      000000                                                                                                                                 12000000        8   00000    110  8   00000    100  8   00000     90  8   00000     80  8 000      000                                                                                                                                   
810500200310013 00680 111 231ECH. ST SULPICE     0270190ECH. COUFOULEUX     0330000RIEU D'EN COSTE     0290200005810005810810500300300000000000193      024436  848    021519   023005   024126   024897   024136   025854   024947   023976   026101   026464   024196   023980               12000000        1   00000    114  1   000007   109  1   00000     90  1   00000     80  1 000      000      022185   022390   023753   024173   000000   000000   000000   000000   000000   025346                                      
810500300310013 00680 111 231ECH. COUFOULEUX     0330000ECH. LISLE MONTANS  0410740LISLE SUR TARN      03703650087400087408105003003          0193      021639  757    018918   020293   021395   022048   021396   022597   022604   021183   023058   023249   021548   021340               12021433        1   00000    111  1   000007   104  1   00000     90  1   00000     84  1 000      000      019542   019291   021086   021432   021688   023153   022967   021069   022252   022288                                      
810500400310013 00680 181 231ECH. LISLE          0410740ECH.GAILLAC         0480500                    0430000006750006750810500300300000000000193      000000                                                                                                                                 12021540        8   00000    118  8   00000    100  8   00000     90  8   00000     84  8 000      000                                                                                                                                   
810500500310013 00680 111 231ECH.GAILLAC         0480500RN 88 PR 43         0610997FLORENTIN           0590750013487013487          00000000000898      021544  917    020103   021490   022595   023179   022751   022722   021533   020316   021639   021923   020081   020237               12000000        1   00000    117  1   000007   100  1   00000     90  1   00000     80  1 000      000      020555   020335   022192   022454   000000   000000   000000   000000   000000   023629                                      
810000100310013 00880 4813 51DEPARTEMENT 12      0000000DEV CARMAUX         0110000GRAUMMOND           0080300009253009253810000502312000130030187      000000                                                                                                                                 12000000        8   00000    110  8   00000    100  8   00000     90  8   00000     80  8 000      000                                                                                                                                   
810001200310013 00880 411 251DEV CARMAUX         0110000FIN DEV CARMAUX     0260000DEV CARMAUX         01303920108320108328100005023          0187      007807 133                                                                                                                             12000000        1   00000    110  1   00000    105  1 3500000     90  1   00000     80  1 000      000                                                                                                                                   
810000400310013 00880 411 251FIN DEV CARMAUX     0260000RD 903              0290513LA TETE             0260184003505003505810000502300000000000187      019165 1007    016957   018007   018815   019431   019103   020012   020031   019051   019904   020603   019091   018917               12019288        1   00000    115  1   000007   104  1   00000     90  1   00000     80  1 000      000      017806   017391   019225   019063   019331   020588   020371   019255   019941   020298                                      
810000500310013 00880 481 251RD 903              0290513LARQUIPEYRE         0320000LARQUIPEYRE         03104000027790027798100005023          0187      000000                                                                                                                                 12000000        8   00000    119  8   00000    100  8   00000     90  8   00000     80  8 000      000                                                                                                                                   
810000501310013 00880 481 251LARQUIPEYRE         0320000CARREFOUR CANTEPAU  0320979ROCADE D'ALBI       03207500009790009798100005023          0187      000000                                                                                                                                 12000000        8   00000    115  8   00000    100  8   00000     90  8   00000     80  8 000      000                                                                                                                                   
810000502310013 00880 411 251CARREFOUR CANTEPAU  0320979RD 100              0330914ROCADE D'ALBI       03301500014190014198100005023          0187      034569  567    033644   032954   035976   036360   034016   035552   034659   031021   035316   036387   034375   034520               12000000        1   00000    116  1   000007   101  1   00000     90  1   00000     80  1 000      000      033835   033774   035970   035566   000000   000000   000000   000000   000000   037278                                      
810000503310013 00880 4813 51RD 100              0330914RD 999              0340175ROCADE D'ALBI       03400000008490008498100005023          0187      000000                                                                                                                                 12000000        8   00000    114  8   00000    100  8   00000     90  8   00000     80  8 000      000                                                                                                                                   
810000504310013 00880 4813 51RD 999              0340175RN 112              0360910ROCADE D'ALBI       03510340035720035728100005023          0192      000000                                                                                                                                 12000000        8   00000    116  8   00000    100  8   00000     90  8   00000     80  8 000      000                                                                                                                                   
810000505310013 00880 481 251RN 112              0360910FIN ROCADE          0380080ROCADE D'ALBI       03710750018890018898100005023          0192      000000                                                                                                                                 12000000        8   00000    118  8   00000    100  8   00000     90  8   00000     80  8 000      000                                          000000   000000   000000   000000   000000                                               
810000600310013 00880 411 251FIN ROCADE          0380080A 68                0430354LE SEQUESTRE        0410800005521005521810001600300000000000187      034250  797    031002   032545   034111   035002   033174   035566   035079   032789   036055   036888   034566   034201               12000000        1   00000    117  1   000007   100  1   00000     90  1   00000     80  1 000      000      030496   030998   033577   032856   000000   000000   000000   000000   000000   035784                                      
810001600310013 01120 4113 51MAZAMET             0250000RD 621              0330300ST PIERRE           02903400090270090278100016003          0105      012934 1017    011543   011945   012567   013058   013028   013619   014134   013249   013520   013702   012486   012294               12000000        1   00000    113  1   000007   100  1   00000     90  1   00000     80  1 000      000      011897   010909   012924   012773   000000   000000   000000   000000   000000   013685                                      
810001800310013 01120 4813 51RD 621              0330300RN 126 PR 53 CASTRES0411239LACAZE              04100000105660105668100016003          0187      000000                                                                                                                                 12000000        8   00000    114  8   00000    100  8   00000     90  8   00000     80  8 000      000                                          000000   000000   000000   000000   000000                                               
810002300310013 01260 4813 51RD 42               0050000RD 84               0330385RIVIERE DE LEN      0080500026698026698810002400331000410030187      000000                                                                                                                                 12005769        8 3000000    110  8   00000    100  8   00000     90  8   00000     85  8 000      000                                          000000   000000   000000   000000   000000                                               
810002500310013 01260 4113 51RD 84               0330385RD 621              0430090DEV PUYLAURENS      03500100092970092978100024003          0187      007672  93     002503   002582   002705   002790   002788   002813   002815   002632   002769   002886   002682   002652               12000000        1   00000    110  1   00000    100  1   00000     90  1   00000     88  1 000      000      006949   006709   007561   007576   000000   000000   000000   000000   000000   008311                                      
810002501310013 01260 4813 51RD 621              0430090RD 50               0490608SAIX OUEST          04904000060810060818100024003          0187      000000                                                                                                                                 12000000        8   00000    110  8   00000    100  8   00000     90  8   00000     82  8 000      000                                          000000   000000   000000   000000   000000                                               
810002600310013 01260 481 251RD 50               0490608CASTRES EB 10       0510945PONT DE SAIX        05006000023450023458100024003          0187      000000                  000000                                                                                                         12000000        8   00000    110  8   00000    100  8   00000     90  8   00000     80  8 000      000                                          000000   000000   000000   000000   000000                                               
810002699310013 01260 4853 51CASTRES EB 10       0510945CASTRES RN 112 PR 410530069CASTRES             05300000011280011288100024003          0187      000000                                                                                                                                 12000000        8   00000    110  8   00000    100  8   00000     90  8   00000     83  8 000      000                                                                                                                                   