560003000310013 01660 4810101ECH.DU CREVY        0350383ECH.RN 166          0410020MONTERTELOT         0380000005637005637560002900300000000000698      019817                                                                                                                                 120192258         110203668         100198678         090198488         080190958                                                                                                                                                        
560002902310013 01660 4810101ECH.DU COUDRAY      0290655ECH.DU CREVY        0350383SAINT ABRAHAM       0320000005728005728560002900300000000000698      016128                                                                                                                                 120156478         110165768         100161708 0706    090176498    0    080169798    0                                                                                                                                                   
560002901310013 01660 4817001ECH.DU ROFO         0240735ECH.DU COUDRAY      0290655SAINT MARCEL        0280000004920004920560002900300000000000698      015950                                                                                                                                 120154748         110163938         100159918         090159758         080153698                                                                                                                                                        
560002900310013 01660 4117001ECH.KERCHOUX        0170144ECH.DU ROFO         0240735HOTEL NEUF          0230500007591007591560002900300000000000698      016936 0777    013331   014326   015012   016991   016696   018381   021381   022070   018198   016861   015790   013992               120164301 0797    110174051 0688    100169781 0678    090169611 0688    080163171 0728    013994   014192   014288   016659   017427   017512   019843   018852   017547   016074   016007   014693                                      
560002700310013 01660 4117001ECH.DU LIZIEC       0000000ECH.DE KERBOULARD   0170144KERBOULARD          0070600017144017144560002900300000000000698      029615 0707    025264   026427   026832   030083   030813   030190   033854   033973   031061   030070   028605   027945               120289921 0727    110289971 0737    100292241 1288    090290881 0598    080277331 0648    025670   025647   027690   029986   029890   031067   033026   032423   029995   027998   027925   026471                                      
560002604310013 01650 4110101ECH. DU MOURILLON   1010650LIM FINISTERE       1090062RN165 QUEVEN PR103  1030000007376007376560002900300000000000806      041416 0837    035618   037523   038935   041686   043355   042371   046501   048947   042896   041387   038855   038542               120413201 0857    110419311 0867    100411781 0877    090412231 0867    080384561         036774   037605   039255   042233   041655   043123   047157   047816   042852   040128   039500   037585                                      
560002603310013 01650 4117001ECH.DE KERDUAL      0980398ECH.DU MOURILLON    1010650QUEVEN              1010000003248003248560002900329000000000698      045689 0867    045626   048020   049626   050330   045387   051148   051083   044094   027961   041407   046406   047184               120466941 0837    110484431 0937    100507301    0    090507401    0    080501001 0900    046032   047617   049723   052643   050708   051355   045326   043592   032905   043619   049184   047665                                      
560002602310013 01650 4117001LE TOULDOUAR        0920598ECH.DE KERDUAL      0980398DEVIATION LORIENT   0970500005814005814560002900300000000000698      042784 0687    040440   042260   043266   044954   040404   045705   048156   047404   030387   039434   046920   043916               120589411 0687    110801501 0827    100726361 0747    090782591    0    080774791 0800    071754   074412   077710   079769   078555   083480   042862   042278   030142   039490   045319   042607                                      
560002500310013 01650 4117001ECH.PRE AUX ETANGS  0870480LE TOULDOUAR        0920598LOCOYARN            0890000005124005124560002900300000000000698      051038 1037    042759   045609   047370   051064   052659   052562   057639   060589   052958   051436   048596   048731               120501541 1037    110503731 1037    100497961 1027    090486411         080483371         044651   044854   046824   051024   050200   052711   057634   058499   052043   049276   048524   045390                                      
560002400310013 01650 4117001ECH.OUEST AURAY     0661035ECH.PRE AUX ETANGS  0870480LE CRANIC           0710000021242021242560002900300000000000698      032161 0967    027015   029166   029877   032970   032356   030984   035216   039996   034523   033256   030481   029819               120316661 0957    110316841 0947    100323731 0917    090311461    0    080304101    0    028165   029011   030254   032851   031998   032213   034772   033886   032763   032371   031941   029698                                      
560002300310013 01650 4117001ECH.KERBOIS         0650383ECH.OUEST AURAY     0661035TOULCHIGNANET       0650000002387002387560002900300000000000698      036660 0877    030313   032441   033956   036794   037698   038230   042389   044291   039561   036890   033871   033141               120358651 0897    110359331 0887    100337901    0    090342941    0    080334841    0    030989   031944   033740   036428   036136   037868   042368   042873   036610   035090   034226   031904                                      
560002200310013 01650 4117001ECH.POULBEN         0630350ECH.KERBOIS         0650383KERFOURCHA          0640000002033002033560002900300000000000698      046484 0807    036991   039608   041833   046700   048795   048908   057149   060719   048950   045404   041411   040672               120453651 0797    110452621 0807    100439351 1006    090449161    0    080438541    0    037953   038940   041920   046825   046834   047540   057168   057493   044643   043321   042168   039161                                      
560002100310013 01650 4117001ECH.EST AURAY       0600678ECH.POULBEN         0630350KERPLOUZ            0620000002714002714560002900300000000000698      048914 0807    037862   040556   043229   048446   050920   050837   060185   064285   050906   050176   046816   041979               120466961 0787    110475671 0757    100491891    0    090485181    0    080465121    0    041427   041327   043330   048892   048970   045263   054104   060829   047233   044386   043433   040745                                      
560002000310013 01650 4117001ECH.DU FOURCHENE    0480348ECH.EST AURAY       0600678PLOEREN             0510050012358012358560002900300000000000698      054709 0657    045556   048207   051040   055479   057317   057645   059414   067586   057695   055532   050621   049868               120540041 0768    110541581 0658    100545921 0848    090538491 0908    080516601 0768    046267   047313   050509   055396   055019   057038   063477   064924   056558   052331   051014   047901                                      
560001900310013 01650 4117001ECH.DE MENIMUR      0460275ECH.DU FOURCHENE    0480348N165-KERLANN        0470575002085002085560002900300000000000698      064264 0757    054184   057071   059763   064843   067023   066977   074696   076284   066787   063897   059708   059275               120635991 0767    110634331 0767    100624721 0847    090623761 0608    080606891 0568    055875   056677   060118   065253   064650   067262   072890   073882   066251   061935   060287   057805                                      
560001800310013 01650 4117001ECH.DU LIZIEC       0420900ECH.DE MENIMUR      0460275DEVIATION VANNES    0450300003392003392560002900300000000000698      062209 0797    052042   054798   057454   062780   064787   064527   072990   074726   064848   062045   057689   057136               120608891 0817    110607931 0797    100595891 0807    090604771 0778    080590471 0728    052500   054154   055941   059170   061945   064761   071699   072324   064268   059866   058226   055471                                      
560001700310013 01650 4117001ECH.ST LEONARD      0390000ECH.DU LIZIEC       0420000LE PRAT             04100000029870029875600029003          0698      046288 0867    036913   039270   041789   046360   048415   048182   056890   060165   048290   045514   041875   041105               120450251 0857    110457501 0867    100427971         090434101         080423951         037523   038359   038976   040334   046587   047745   055978   058324   048036   045215   042805   039944                                      
560001600310013 01650 4117001ECH.RD 780          0380140ECH.ST LEONARD      0390916LE POTEAU ROUGE     0390000001780001780560002900300000000000698      053660 0797    043229   045851   048659   053706   056115   056133   065331   069531   056117   052487   048273   047718               120507071 0807    110000001         100000001         090531701 0498    080460001 0900    044461   045472   047665   052786   051972   049474   059336   062132   049510   048886   049666   046749                                      
560001500310013 01650 4817001LA CROIX DE LA LANDE0310880ECH.RD 780          0380140THEIX               0380000006375006375560001800300000000000698      040458                                                                                                                                 120396178         110395668         100387648         090393568         080384218                                                                                                                                                        
560001400310013 01650 4117001ECH.BEL AIR         0060450CROIX DE LA LANDE   0310880LA CORNE DU CERF    0130000024218024218560001800100000000000698      027868 1097    020141   021840   024270   027488   029813   029150   035272   041498   029409   027992   023301   023596               120272011 1127    110273951 0958    100269021 0958    090265341 0958    080259081 1177    020511   021923   022927   028385   026792   028398   035607   039617   029759   024626   024249   023349                                      
560001300310013 01650 4117001RD 34               0020000ECH.BEL AIR         0060450PONT DU MORBIHAN    0050000004500004500560001800100000000000698      024597 1197    017003   016237   018306   024806   026775   026023   030994   036850   027424   026853   021278   021840               120246361 1267    110247311 1118    100237291 1128    090228561 1128    080226961 1188    018565   019988   020645   025585   025372   025483   031838   035061   026481   022989   022192   021168                                      
560001200310013 01650 4817001LOIRE ATLANTIQUE    0000000RD 34               0020000LE RODOIR           0010000001000001000440002600300000000000698      025204                                                                                                                                 120247158         110249078         100244278         090239098         080230918                                                                                                                                                        
560001000310013 00240 4817001ECH.KERBLAYO        0900240ECH.PRE AUX ETANGS  0930938ST GILLES           0930000003724003724560000900300000000000698      022881                                                                                                                                 120225118         110226578         100222298         090217488         080210138                                                                                                                                                        
560000900310013 00240 4117001ECH.LANGUIDIC       0840935ECH.KERBLAYO        0900240PONT ER PACH        0890000005182005182560000900300000000000698      023790 1257    020279   021489   022420   023846   024660   024370   026437   027275   024515   024283   022886   022821               120234051 1047    110235561 1148    100231101 1148    090226091 1148    080218441 1148    020805   021074   022308   024182   023784   024492   025988   026134   024021   023228   022936   021831                                      
560000700310013 00240 4817001ECH.RD 768          0710064ECH.LANGUIDIC       0840935BAUD / OUEST        0800000013519013519560000900300000000000698      019382                                                                                                                                 120190698         110191938         100188308 1200    090186478    0    080180178    0                                                                                                                                                   
560000601310013 00240 4817001ECH.RD 767          0560126ECH.RD 768          0710064BAUD / EST          0680000013435013435560000400300000000000299      014248                                                                                                                                 120141268         110143868         100144508 1200    090138708    0    080134348    0                                                                                                                                                   
560000600310013 00240 4117001LA POINTE           0390150ECH.RD 767          0560126MOREAC              0550000017081017081560000400300000000000698      015349 1487    012188   013129   014157   014610   016139   015322   017898   019369   016395   015800   014494   014447               120151441 1497    110153021 1517    100000001         090147141 1507    080142851 1617    013270   013291   013885   015954   015505   015730   017652   018085   015566   014565   014425   013711                                      
560000500310013 00240 4817001ECH RD 764          0340445LA POINTE           0390150JOSSELIN OUEST      0350000004831004831560000400300000000000698      016845                                                                                                                                 120167018         110170088         100170838         090166008         080160788                                                                                                                                                        
560000400310013 00240 4117001ECH.OUEST PLOERMEL  0220600ECH RD 764          0340445LE NINIAN PLOERMEL  0260100012486012486560000400300000000000498      018675 1297    015263   016384   017469   018682   019734   019130   021207   022343   019361   018856   017648   017804               120185151 1317    110188551 1327    100189381 1337    090184021 1317    080178231 1357    015879   016202   017136   019553   018995   019202   021115   021463   019081   018031   018263   017182                                      
560000300310013 00240 4817001ECH.RN 166          0200640ECH.OUEST PLOERMEL  0220600ROCADE PLOERMEL     0200800001960001960560000400300000000000498      013508                                                                                                                                 120133938         110136398         100137008         090133138         080128958                                                                                                                                                        
560000200310013 00240 4817001RD 766 E            0191293ECH. RN 166         0200640ROCADE PLOERMEL     0200300001253001253560000100300000000000498      029611                                                                                                                                 120292318         110300798         100295268         090291648         080282178                                                                                                                                                        
560000100310013 00240 4117001ILE ET VILAINE      0000000RD 766 E            0191293PORCARO             0050000023493023493560000100335000140010498      022650 1087    018073   018012   020151   022753   025298   023045   027939   030387   023666   021744   020126   020126               120223591 1127    110230071 1137    100225841 1107    090223071 1077    080215821 1147    017648   018299   019637   024950   024073   023264   027747   028865   023493   020534   020760   018870                                      
530016266310013 01620 4843001Ent.Mayenne         0650240N12 x D35 Malécot   0670898Agglo Mayenne       0660000002659000000530016258300000000000190      017531                                                                                                                                 120180948    0    110181688 1006    100211768    0    090206638    0    080198008    0                                                                                                                                                   
530016265310013 01620 4813001D 24 Moulay         0630620Entrée de Mayenne   0650240Moulay              0650000001620000244530016258300000000000190      021833    0                                                                                                                            120188578    0    110189348    0    100186228    0    090181718    0    080174128 1500                                                                                                                                                   
530016258310013 01620 4110101D 131 Louverné      0450110D  24 Moulay        0630620Le Berry            0570812018510018510530016258100000000000494      012820 1428    012131   012974   012942   013289   012438   012300   012232   011244   014061   013857   013446   013001               120132311 1418    110132851 1328    100130661 1248    090127491 1268    080122161 1458    012707   012352   013634   013406   013173   014227   013375   011785   013865   013931   013542   012788                                      
530016242310013 01620 4813001N 162 Gir.Besnier   0410000D 131 Gir.Louverné  0450110Niafles             0410500004110004110530016258300000000000190      025711    0                                                                                                                            120221948    0    110222858    0    100219188    0    090213878    0    080204938 0800                                                                                                                                                   
530016239310013 01620 4110201N 157 Ménard        0380812N 162 Gir.Besnier   0410000Roc.Est 3.s         0390500002731002731530016258100000000000191      019463 1467    017617   018727   018542   020235   019501   020869   020569   016963   020755   021136   019663   019026               120186401 1517    110185391 1517    100180151 1517    090176881 1457    080179561 1367    017927   017890   019212   018646   018101   020177   019252   016307   019490   019872   018966   017880                                      
530016238310013 01620 4813001Car.des Bozées      0370438N 157 X D 32        0380812Laval Roc. Bozées 2 0380000001374001374530016239300000000000195      016026    0                                                                                                                            120161558    0    110160688    0    100156148    0    090153318 0800    080119698    0                                                                                                                                                   
530016237310013 01620 4813001D 21 Gir.La Rouzine 0360064Car. des Bozées     0370438Laval Roc Bozées 1  0370000001258001258530016228300000000000185      009449    0                                                                                                                            120086638    0    110088278    0    100087778    0    090085608    0    080084698 1700                                                                                                                                                   
530016236310013 01620 4813001Gir.Thévalles       0350146D21G.La Rouzine     0360064Laval Roc Est 1s    0350500000794000794530016239300000000000189      008072    0                                                                                                                            120078958    0    110078538    0    100076328    0    090074948 1300    080118558    0                                                                                                                                                   
530016235310013 01620 4813001D103 Entrammes      0290680Gir.Thévalles       0350146La Croix Bataille   0340000005466005466530016228300000000000190      011444    0                                                                                                                            120111128    0    110113238    0    100112598    0    090109818 0800    080106578    0                                                                                                                                                   
530016228310013 01620 4113001Gir.de Laval        0110420D 103 Entrammes     0290680Entrammes           0280000018260018260530016228100000000000190      008282 1237    007428   008068   008155   008660   008417   008872   008363   007345   008837   008744   008341   008179               120082551 1217    110084111 1237    100083631 1217    090081561 1197    080080691 1237    007774   007563   008476   008219   008316   008807   008486   007544   008775   008700   008366   008022                                      
530016216310013 01620 4813001Gir. de Laval       0110111Pot. de Villiers    0200200L' Aire de la Roche 0160000009907009907530016228300000000000198      009636    0                                                                                                                            120081648    0    110083198    0    100082728    0    090080688    0    080079828 1300                                                                                                                                                   
530016208310013 01620 4813001Ent.Chat.Gon.       0070800Gir. de Laval       0110111Ag Château Gontier  0080000003924003924530016228300000000000190      010204                                                                                                                                 120101718    0    110103648 0706    100088098    0    090085918    0    080085008    0                                                                                                                                                   
530016207310013 01620 4813001Dept.49             0000000Ent.Chat.Gon.       0070800Le Préssoir         0070000007800007800530016228300000000000190      006558    0                                                                                                                            120060798    0    110061948    0    100061598    0    090060078    0    080059438 1400                                                                                                                                                   
530001274310013 00120 4813001Sortie d'Ernée      0660600Dpt. 35             0740973La Pellerine        0740000008373008373350000100335000000030194      006917                                                                                                                                 120069298         110069758         100068348 1400    090068588    0    080068708    0                                                                                                                                                   
530001266310013 00120 4843001D31 Landivy         0650430Sort.Ernée          0660600Agglo Ernée         0660000001170000000350000100300000000000190      009497                                                                                                                                 120095138    0    110095768 1006    100082058    0    090082338    0    080082478    0                                                                                                                                                   
530001265310013 00120 4843001D 31 Laval          0640990D31 Landivy         0650430Agglo Ernée         0650000000440000000350000100300000000000190      013545                                                                                                                                 120135678    0    110136568 0906    100129348    0    090129798    0    080130008    0                                                                                                                                                   
530001264310013 00120 4843001Ent.Ernée           0630956D 31 Laval          0640990Agglo Ernée         0640500001034000000350000100300000000000190      007231                                                                                                                                 120072438    0    110072918 1406    100113468    0    090113858    0    080114048    0                                                                                                                                                   
530001260310013 00120 4113001D 304 Mayenne       0420894Ent.Ernée           0630956Ernée               0600400021062019799350000100300000000000190      004961 1667    004139   004474   004531   005045   005251   005255   005574   005319   005346   005062   004811   004706               120050191 1677    110051501 1667    100050051 1627    090050481 1617    080052001 1300    004406   004358   004910   005201   005258   005200   005474   005318   005396   005106   004968   004612                                      
530001243310013 00120 4843001N12 x D23           0420170N12 x D304          0420894Agglo Mayenne       0420500000724000000530000300300000000000190      008448                                                                                                                                 120085668    0    110088168 1106    100087228    0    090088178    0    080086618    0                                                                                                                                                   
530001242310013 00120 4843001N12 x N162 x D35    0410050N12 x D23           0420170Agglo Mayenne       0420000001120000000530000300300000000000190      011912                                                                                                                                 120120798    0    110124328 0606    100122388    0    090123718    0    080121528    0                                                                                                                                                   
530001241310013 00120 4843001Entrée Nord Mayenne 0400208N162xD35            0410050Agglo Mayenne       0400600000842000000530000300300000000000190      012258                                                                                                                                 120124308    0    110127938 0606    100119408    0    090120698    0    080118558    0                                                                                                                                                   
530001237310013 00120 4813001D 34 X D 7 Coulonge 0360835Ent.Nord Mayenne    0400208Coulonge            0370600003373003373530000300300000000000190      008130    0                                                                                                                            120082378    0    110084788    0    100082538    0    090083438 0906    080088678    0                                                                                                                                                   
530001212310013 00120 4813001N176 Pré - Pail     0040550D 33 Javron         0160830Javron              0120000012151009665530000300300000000000190      004981    0                                                                                                                            120055078    0    110056688    0    100055188    0    090055788    0    080054798 2200                                                                                                                                                   
530001203310013 00120 4813001Dépt.61             0000000N176 Pré - Pail     0040550Margalais           0030000004550003589530000300361000060030190      007540    0                                                                                                                            120085928    0    110088438    0    100086098    0    090087038 1806    080095918    0                                                                                                                                                   
530000300310013 00120 4113001D 33 Javron         0160829D 34 X D 7          0360853Le Ribay            0280000020024019294530000300100000000000190      005376 2757    004454   004846   004935   005568   005661   005670   005913   005819   005691   005538   005232   005147               120054511 1578    110056101 1768    100054611 2248    090055201 2208    080054221 2268    004798   004834   005318   005853   005640   005758   005985   005716   005666   005493   005351   004991                                      
490003200310013 02490 4813001rd753               0260530autre               0290078N249_32             0280000002550002550490003100300000000000309      016865                                                                                                                                 120168948         110166548         100161548         090155428         080149288 1300                                                                                                                                                   
490003100310013 02490 4113001Département Loire/A 0000000RD 753              0260530La Batardière VCA   0200380026565026565490003100344000460030187      023376 1427    021525   022290   023024   024141   023251   023855   025397   024464   024765   024651   021569   021504               120234161 1407    110230831 1138    100223891 1208    090215401 1198    080206881 1258    021835   021707   023306   023734   023252   025323   025227   023462   024568   023633   023175   021773                                      
490002600310013 01620 4113001RD 770 Lion d'Anger 0220000Département Mayenne 0330940N162SOLEIL RNL      0250455013378012253490003100300000000000187      006785 1157    005935   006429   006541   006890   006892   007171   007045   006538   007199   007106   006932   006731               120065711 1167    110066041 1237    100065051 0008    090063911 0008    080059941 1297    006144   006092   006666   006889   006859   006740   006863   006414   006139   006843   006697   006477                                      
440537600310013 08440 4150201non renseigné       0240115non renseigné       0270526N844_JANVRAIE(1+2)  0270300003050000000490003100300000000000608      093210 0777    084954   089682   090637   096780   093649   098049   102089                     095188   089130   087907               120917381 0817    110920681 0807    100904901 0787    090886521 0757    080897861 0807    085232   086455   091232   092669   090302   096934   098374   093760   094738   094016   091213   085866                                      
440537500310013 08440 4150201non renseigné       0270526non renseigné       0280406N844_D17            0280200000900000000490003100300000000000608      091657 0900                                                                                                                            120939711 0800    110000001    0    100000001    0    090000001    0    080000001    0                                                                                                                                                   
440537400310013 08440 4150201non renseigné       0280406non renseigné       0290551N844HERBLAIN_M      0280900001000000000490003100300000000000608      090381 0837    083500   087355   088310   094359   091526   094614   096861   093608   091798   089829   086531   086166               120897821 0817    110907071 0827    100900121 0797    090000001         080866001    0    084371   085552   088608   090171   088236   094469   095756   092703   092505   091086   089009   084878                                      
440537320310013 08440 4150201non renseigné       0290551non renseigné       0300354N844_ALLENDE_M      0290600000800000000490003100300000000000608      091186 0847    083770   087656   089244   094560   091844   095275   098742   096244   093743   092600   083883   086423               120901091 0837    110908241 0837    100908841 0817    090000001         080864001    0    084415   085942   089540   089961   088394   094468   095468   093497   093190   091634   089398   085345                                      
440537200310013 08440 4150201non renseigné       0300354non renseigné       0310490N844_MOULIN_M       0300700001000000000490003100300000000000608      061227 0737    057987            059358   064278   061840   064310   064977   060049   060602   062773   059606   058573               120616771 0737    110624171 0747    100615691 0737    090000001         080621001    0    058856   059541   062753   062556   060885   065206   063940   060328   063024   063090   061605   058388                                      
440537101310013 08440 4150201VC 203              0310490VC 109              0310700VC 203              0310600000200000200490003100300000000000695      059846 0767    056068   058382   059005   062686   059938   062366   063192   058426   060964   061808   058028   057292               120578211 0787    110563991 0827    100563091 0797    090555711 0787    080567831 0807    052685   053579   055955   055887   058779   057490   061708   058548   060979   061225   059992   056855                                      
440537100310013 08440 4150201Prte de Chézine     0310700Porte de Sautron    0330157VC 109              0320750001874000000490003100300000000000495      064514 0737    061015   063061   063421   067760   064290   067461   067628   061327   065688   067219   063636   061741               120644041 0757    110648801 0757    100640921 0737    090629661 0727    080633211 0757    061337   062217   065329   064568   062913   068082   066409   061705   065765   066400   065060   063105                                      
440537000310013 08440 4150201Porte de Sautron    0330157Prte d'Orvault      0340207LE FORUM            0330700001050000000490003100300000000000495      059597 0747    056154   058402   058890   062433   059121   061989   062331   056880   060373   061586   059960   057128               120593901 0757    110597521 0777    100589571 0757    090578811 0757    080590671 0807    056658   057314   059990   059932   057862   062647   061840   057580   060611   061130   060087   057073                                      
440536900310013 08440 4850201Porte D'orvault     0340207A844                0341017BOIS CESBRON        0340400000810000000440536805300000000000595      055052                                                                                                                                 120545638         110549278         100543998         090498738         080529008    0                                                                                                                                                   
440536805310013 08440 1150241BOIS CESBRON N844   0350000LA CLARTE A11       0360944LA CLARTE           0360500001944000000440536805100000000000193      094625 0947    086778   090458   092278   098580   094935   098870   102152   095701   097252   097711   091132   089484               120937791 0967    110944131 0977    100935081 0957    090853941 0957    080924921 0977    087985   089065   093779   095542   092788   098705   100070   094899   096825   094085   093441   088168                                      
440500701310013 00830 1810241D178                0040384Péage A83           0050475La Cour Neuve       0050000001091000000440500700300000000001002      036217                                                                                                                                 120358718         110357418         100353028         090345798         080336898                                                                                                                                                        
440500700310013 00830 1110241RD844 L'EBAUPIN     0000000RD178 LA COUR NEUVE 0040384A801 LES SORINIERES 0040000003864000000440500700100000000000187      063419 1037    054988   058373   060545   064667   064480   066841   071187   069958   065857   064463   059709   059581               120628111 1037    110625791 1047    100618091 1047    090605421 1027    080589821 1037    056254   056886   060381   064710   062394   066853   070622   069014   065737   062244   061035   057457                                      
440500300310013 08110 1150241RD 68 Le Linot      0040878C844 Bellevue       0060757LE LINOT            0050000001879000000440500700100000000000187      037406 0957    034956   036720   036970   038793   037514   040242   039483   033305   038881   038857   037105   036162               120369311 0987    110369001 1037    100364121 1037    090338831 1037    080323751 1077    035816   035360   037790   037338   036405   040266   037696   032452   038236   039408   037756   034744                                      
440500201310013 08110 1815041A11/ RD37 CARQUEFOU 0000000N23 LA MADELEINE    0020948Carquefou           0010000002900000000440500300300000000000298      027261                                                                                                                                 120269158         110268938         100265388         090246958         080235968 0900                                                                                                                                                   
440500200310013 08110 1110241RN23 LA MADELEINE   0020948RD68 LE LINOT       0040878LA MADELAINE        0040000001930000000440500300300000000000298      033711 1147    030986   033014   033236   034736   033595   036256   035352   029599   035518   036158   033578   032613               120329281 1157    110345251 1207    100332031 1087    090307251 1037    080291461 1087    031800   031324   033767   033081   032436   035955   034055   029012   034257   035010   033683   030822                                      
440500102310013 00820 1850241A844                0000000N165                0011145La Bugalliere       0010500001685000000440002101300000000000298      024876                                                                                                                                 120253298         110254518         100261118         090259128         080252008    0                                                                                                                                                   
440261700310013 08440 4150201non renseigné       0220590non renseigné       0240115N844_LA_BOUVRE      0230400001525000000440002101100000000000608      080604 0907    072378   076455   077346   082986   080794   085093   088242   082232   084316   084251   076599   076368               120787891 0907    110786511 0947    100778441 0937    090755661 0947    080750141 1017    071513   073611   078264   079520   077553   083828   085376   081260   082091   080461   078223   073710                                      
440261500310013 08440 4850201non renseigné       0180402non renseigné       0220590N844_2615           0200000004172000000440261400300000000000608      074193                                                                                                                                 120727708         110731468         100715978         090691118         080679178 1206                                                                                                                                                   
440261400310013 08440 4150201non renseigné       0150700non renseigné       0180402N844_REZE           0170900002700000000440261400300000000000608      068777 1177    062021   065680   066883   070933   068939   072839   074748   069281   072358   070280   065619   065657               120674571 1137    110678051 1137    100663691 1137    090640641 1147    080629571 1227    061880   062927   067354   068314   066348   071875   072335   068870   070274   068676   066987   063598                                      
440261300310013 08440 4150201non renseigné       0140473non renseigné       0150700N844VERTONNE        0140740001230000000440261400300000000000608      071226 0867    066392   069508   070115   073528   070640   075130   074210   064039   074434   075718   071029   070091               120693501 0837    110689461 0837    100668001 0787    090648461 0767    080633661 0777    067422   066652   070723   069704   067878   074326   070878   062402   071786   072442   071208   066921                                      
440261100310013 08440 4850201non renseigné       0100425non renseigné       0140473N844_2611           0110000004018000000440261300300000000000608      055043                                                                                                                                 120535948         110532828         100516248         090501148         080489718                                                                                                                                                        
440261003310013 08440 4150201non renseigné       0080323non renseigné       0100425N844_ROUCHES        0090750002100000000440261300300000000000608      062525 0927    057095   060663   060950   064862   062190   066109   065500   057119   065439   066740   062880   060872               120609481 0937    110616391 0957    100581441 0947    090565911 0917    080528501 0977    060751   059159   063011   062726   061513   066971   061345   048876   063073   064070   062562   057578                                      
440213700310013 04440 4150201non renseigné       0020585non renseigné       0060719N444_COUERON        0050010003720000000440261300300000000000608      046903 0957    043880   044297   043825   042193   041038   050709   054960   048433   050410   050038   046558   046316               120471691 0977    110474851 0967    100477991 0907    090451801 0887    080452481 0907    042065   040620   046235   047899   047078   050775   051446   048779   049663   048739   047476   045064                                      
440213500310013 04440 4150201non renseigné       0000000non renseigné       0020585N444_ATLANTIS       0020100002585000000440261300300000000000608      046979 0887    043259   045753   047190   048767   046843   048774   050423   047348   048470   048341   044547   043998               120469211 0907    110470271 0897    100465481 0867    090000001         080410001    0    043868   044587   046888   047040   046246   049808   050046   048614   048305   047869   046025   043732                                      
440100300310013 08440 4850201non renseigné       0030080Porte d'Anjou       0070061N844_1003           0030500004325000000440100200300000000000309      068601                                                                                                                                 120683898         110672408         100660658         090669808         080667008    0                                                                                                                                                   
440100200310013 08440 4150201non renseigné       0000900non renseigné       0030080N844_BEAUJOIRE      0010500002463000000440100200300000000000608      067753 0897    065151   067375   067892   070433   066357   070521   068422   060615   070217   071485   067845   066937               120675431 0927    110664081 0937    100652471 0897    090661501 0867    080658731 0827    068101   066961   070456   067441   066868   070990   067176   060131   069550   070686   068467   063863                                      
440100100310013 08440 4850201non renseigné       0000000non renseigné       0000900N844_1001           0000500000900000000440100200300000000000309      054996                                                                                                                                 120548268         110539058         100529638         090536968         080534728 0806                                                                                                                                                   
440026150310013 08440 4850201non renseigné       0180402non renseigné       0220590N844_2615           0200000004172000000440261400300000000000608      069004                                                                                                                                 120676808         110680308         100665908         090642788         080631688                                                                                                                                                        
440004600310013 02490 4813001RD 763 Vallet       0190689Département 49      0250666Le Clairay          0200000005977005977490003100349000310030187      019928                                                                                                                                 120199628    0    110196788 1206    100198328    0    090190818    0    080183278    0                                                                                                                                                   
440004500310013 02490 4110201RN 149 Tournebride  0080512RD 763 Vallet       0190689VALLET              0140400011177011177490003100100000000000187      029333 1397    026559   027701   028403   030091   029022   031652   031007   028669   030945   030969   028639   028308               120287421 1437    110284601 1417    100275761 1387    090266231 1357    080255211 1397    026899   026543   028668   028927   028531   031494   030359   027727   030352   029580   028773   027053                                      
440004403310013 02490 4140201RD 844 Bellevue Sud 0000024RD 115 Basse Goulain0040929BELLEVUE-SUD        0010560003590000000490003100100000000000187      046360 1087    042932   044880   045800   048317   045836   049629   048326   042456   048129   049009   045835   045228               120454791 1117    110451561 1107    100438451 1037    090000001         080370001    0    043819   043387   046145   045940   044754   049616   046844   041651   047410   047097   046010   043176                                      
440004401310013 02490 4810201RD 115 Basse Goulain0040929RN 149 Tournebride  0080512Haute Goulaine      0070000003583003583440004500300000000000187      036026                                                                                                                                 120353018         110349558         100338708    0    090327008    0    080313528 1400                                                                                                                                                   
440004300310013 08440 4150101Porte d'Anjou       0070061Porte du Vignoble   0080323PONT DE BELLEVUE    0070600001262000000440004500300000000000187      082197 0877    076847   080109   081451   085739   081115   087038   084859   074181   086122   087797   082021   079281               120796171 0897    110791431 0887    100767241 0897    090769511         080702481 0906    077024   075474   080438   079612   076976   084734   081907   072105   083953   084687   082352   076278                                      
440003802310013 01710 4810201ECHAN TRIGNAC       0860794N 171 CERTE         0880425Certe               0870600001631001631440003700300000000001299      056214                                                                                                                                 120565438         110564698         100556018         090550888 0500    080578528    0                                                                                                                                                   
440003801310013 01710 4810201D50 MONTOIR         0840765ECHAN TRIGNAC VC    0860794Trignac E           0860100002029002029440003700300000000001299      051487                                                                                                                                 120517898         110517218         100509268         090504568 0700    080556718    0                                                                                                                                                   
440003700310013 01710 4110201RD 4 Les Six Croix  0790118RD 50-RD 971 Montoir0840765MONTOIR             0830530005647005647440003700300000000000187      050436 0697    042564   046102   047951   052304   051280   053241   059509   057368   052040   050397   046560   045571               120507311 0707    110506641 0568    100498851 0558    090494241 1258    080471181 0687    044753   045212   051048   052407   051218   054175   058137   057011   053145   049411   047446   044589                                      
440003600310013 01710 4810201RD 100 Prinquiau    0710820RD 4 Les Six Croix  0790118Prinquiau           0750400007298007298440003500300000000000187      035958                                                                                                                                 120350788         110361718         100357308         090351978 0706    080354478    0                                                                                                                                                   
440003500310013 01710 4110201RD 217-RD 93 Sablièr0680080RD 100 Prinquiau    0710820N171/D100           0710600003740003740440003500300000000000187      038107 1057    031653   034262   035911   034996            040696   046463   044846   040328   038242   035124   035787               120371741 1017    110383321 1007    100378641 1007    090372991 0967    080364051 1037    032852   033398   036167   035772   039776   038422   041956   042953   039011   036803   035542   033191                                      
440003400310013 01710 4810201RN 165 La Moëre     0650660RD 217-RD 93 Sablièr0680080Savenay             0680000002420002420440003500300000000000187      034325                                                                                                                                 120334858         110345298         100341088    0    090336008    0    080327878 0900                                                                                                                                                   
440003300310013 01710 4113001RD 164 Blain        0490302RN 165 La Moëre     0650660BLAIN               0500000016358016358440003500300000000000187      007733 1288    006649   007101   007416   007542   007484   007807   009224   009364   008294   007801   007145   006911               120079381 1248    110078581 1248    100076151 1238    090076871 1178    080076831 1348    006829   006887   007547   007908   008354   008490   009072   009314   008510   007838   007420   007033                                      
440003200310013 01710 4843001ROUTE DE NOZAY D164 0480035LE GRAVIER D15      0490302Blain Agglomeration 0480500001461000000440003300300000000000298      012327                                                                                                                                 120126548         110125278         100121408 0706    090119128    0    080119078    0                                                                                                                                                   
440003100310013 01710 4812001RN137 NOZAY         0360000RD164 BLAIN         0480035La Grigonnais       0430000012035012035440003300300000000000298      006033                                                                                                                                 120061948         110061338         100059458         090060018         080061668 1103                                                                                                                                                   
440002600310013 01650 4110201RD16 Nord           0520137DEPARTEMENT 56      0651000HERBIGNAC           0610800012667012667440003300100000000000193      025686 1317    018509   020097   022479   025447   027502   026601   032776   038353   026925   024577   021545   022818               120251871 1357    110253821 1347    100248921 1347    090243641 1367    080235301 1467    018813   020306   021110   026277   026180   026200   033115   036559   027341   022795   022388   020889                                      
440002500310013 01650 4810201RD 16 La Sapinière  0450535RD16 Nord           0520137Pontchateau         0490000006602006602440002600300000000000187      029433                                                                                                                                 120288628         110290868         100285258    0    090279208 1006    080234478    0                                                                                                                                                   
440002400310013 01650 4110201RN 171 La Moëre     0330440RD 16 La Sapinière  0450535PRINQUIAU           0400400012095012095440002600300000000000187      028762 1067    022217   023856   025989   028860   030339   029780   034766   038658   030122   028399   025440   026219               120281331 1097    110280641 1117    100277141 1107    090269391 1097    080258821 1107    022491   023705   024735   029423   028628   029754   034580   036638   029932   026384   025946   025182                                      
440002301310013 01650 4110201RD 93               0150020MALVILLE D965       0230044LE TEMPLE           0220530008050008050440002600300000000000696      053423 0848    046181   049407   052067   056824   056969   056198   059607   060803   052956   052450   048294   048951               120542601 0968    110540251 0988    100534091 0998    090497311 0888    080501031 1208    047024   048523   050700   055979   054482   056455   062770   062642   056532   052151   054555   049138                                      
440002300310013 01650 4110201RD49                0210204RN 171 La Moëre     0330440MALVILLE            0300500012236012236440002600300000000000187      054633 0987    045296   046609   051506   055150   056453   057270   064516   066788   056975   054583   049380   050300               120542341 1007    110550261 0967    100550401 0967    090555241         080478001    0    046085   047453   050335   055342   054609   056523   063893   065345   056922   054400   050474   049059                                      
440002201310013 01650 4810201D201                0100543D93                 0150020Deviation Sautron   0120000004477004477440002301300000000001002      068370                                                                                                                                 120694428         110691428         100683548         090636478         080641248 0800                                                                                                                                                   
440002101310013 01650 4110201L 'ESPERANCE (A821) 0080000GUILLOCHERIE (D201) 0100543SAUTRON             0080560003305003305440002301300000000000187      029532 1107    022748   024650   026305   028599   029362   030543   035667   034536   032921   031651   028675   028338               120300531 1087    110301811 1067    100309791 1047    090307471 1087    080300711 1157    026315   026791   028951   031847   031446   032464   035911   032139   030263   029546   028960   025905                                      
440002001310013 01650 4843001D75                 0070126A82                 0070902L'esperence         0070500000776000000440002101300000000001002      024629                                                                                                                                 120250878         110252198         100258648         090256648         080251198                                                                                                                                                        
440001302310013 01370 4110201RD 537 Les Pavillons0730646Département 35      0810736DERVAL              0730900008090008090440002101100000000000190      024649 1367    019427   021135   022662   024971   025608   025977   029080   031248   026457   024483   022256   022176               120244661 1407    110243701 1447    100240151 1487    090241121 1447    080233641 1487    019934   020811   022051   025372   024823   026209   029222   030186   026450   023818   023074   021521                                      
440001301310013 01370 4810201RN171 NORD GRANDJOUA0650105RD537 LES PAVILLONS 0730646Tournebride-Gd Jouan0690000008541008541440001302300000000000298      026952                                                                                                                                 120267528         110266488         100262608 1206    090249748    0    080230428 1500                                                                                                                                                   
440001201310013 01370 4110201RN 171 Sud Créviac  0610120RN 171 Nord Grandjou0650105NOZAY               0620000003985003985440001302300000000000187      034394 1397    028566   030702   032330   034627   034791   035943   039236   040344   037040   035056   032109   031694               120342001 1407    110340191 1417    100333611 1407    090327971 1387    080318561 1427    029203   030454   031952   034872   034567   036533   039175   039304   036801   033942   032889   030601                                      
440001100310013 01370 4810201RD237 BOSSE LANDES  0450174RN171 SUD CREVIAC   0610120Saffre              0540000015941015941440001000300000000000298      029580                                                                                                                                 120292398         110289328         100284268         090272558 1206    080245788    0                                                                                                                                                   
440001000310013 01370 4110201D75                 0290682D237                0450174ORVAULT             0330260015487015487440001000100000000000187      038783 1008    033888   035970   036901   039644   039011   041130   042146   040917   041163   040428   037292   036758               120383351 1028    110379331 1167    100372661 1038    090357631 1068    080354341 1178    034588   034866   037015   038751   037875   041339   041983   039912   040407   039431   038300   035500                                      
440000900310013 01370 4850201A844                0280536D75                 0290682Ragon               0290000001577000000440001000300000000000499      049991                                                                                                                                 120494148         110488968         100480378    0    090461008    0    080464248 1200                                                                                                                                                   
350711700310013 01760 4810201RN 137              0290618limite 22           0330575La ville es Nonais  0300500003764003764220003900322000390030309      019143                                                                                                                                 120188568         110173288         100186368         090183528 1200    080198458    0                                                                                                                                                   
350071000310013 00840 1110241RD 92               1000750Echangeur RD 92     1080245A84_LIFFRE          1070180007333000733220003900300000000000309      034637 1297    029266   031525   032007   035692   035174   036173   038116   036807   036985   036042   034810   032906               120340471 1307    110344821 1327    100331641 1297    090325751 1297    080324381 1307    030687   030459   033095   035058   034484   036363   037300   035126   036160   034595   033700   031478                                      
350070000310013 00840 1110241Echangeur RD 92     1080245Echangeur RD 794    1160550GOSNE               1110200008305000000220003900300000000000101      030251 1367    025279   027318   027809   031176   030942   031722   033625   033195   032298   030736   029741   029017               120298161 1387    110303961 1377    100292141 1347    090287241 1287    080277401 1237    026599   026413   028547   030906   030407   031734   033039   031641   031760   029846   029395   027440                                      
350069500310013 00840 1110241Echangeur RD 155    1350525Limite Dép Manche   1460400LA JUTAIS (Montours)1420020010875000000220003900350000000000199      019130 1597    015043   015939   016454   019635   020110   019879   023574   024286   020611   019040   017530   017190               120188521 1647    110193461 1687    100184021 1687    090182161 1697    080172431 1757    015120   015637   016788   020248   019916   019892   022555   023638   020706   016944   017955   016732                                      
350069000310013 00840 111 241Echangeur RD 18     1290390Echangeur RD 155    1350525ESSART (St Etienne e13409350061350000002200039003          0199      019226 1617    014404   015975   016492   019756   020265   020217   022957   024588   020674   019415   018318   017404               120191871 1647    110195001 1657    100187661 1637    090185071 1647    080176031 1767    015361   015828   017014   020333   020109   020123   023066   023911   020598   019259   017836   016655                                      
350068500310013 00840 111 241Echangeur RD 794    1160550Echangeur RD 18     1290390LA MEULE (St Jean/C)11803320128400000002200039003          0199      027550 1918    022404   024389   024902   028338   028481   028981   031365   031525   029624   028217   026434   025728               120272431 0948    110276721 1148    100264721 1138    090260381 1138    080254401 1607    023840   023744   026001   028889   028063   029004   030698   029967   029126   026323   026478   024697                                      
350067500310013 00840 1110241Echangeur RN 136    0970000RD 92               1000750THORIGNE (A84 EX-16)0980705011670000000220003900300000000000100      036941 1057    032020   034276   034874   038166   037402   038990   039949   038147   039383   038854   035778   035343               120364081 1127    110368331 1147    100354551 1137    090346961 1137    080339101 1177    033329   033019   035628   037281   036599   038784   039135   036486   038678   037436   036361   034115                                      
350067000310013 01360 4110301RD 97               0230490A 84                0260450CALENDROU (RN136 15-0240335002960000000220003900300000000000199      055713 0987    048697   051433   053371   057340   056914   058242   060289   056303   058688   058274   054781   054011               120541591 0987    110535761 0957    100523751 0977    090504401 0937    080490361 0997    049362   049410   052100   055660   054473   056447   057907   052619   057391   056877   055037   052575                                      
350066000310013 01360 4110301Echangeur A 84      0260450Echangeur RD86/RD 290270990LA GRAVELLE (RN136 10260981001945000000220003900300000000000199      043303 1177    036725   039084   040883   044046   044262   045166   048431   045341   045351   045376   042489   042203               120411151 1187    110423681 1147    100420941 1157    090400091 1177    080400331 1207    037336   037861   039832   043848   042857   044556   046546   042856   039841   037679   040035   040037                                      
350065000310013 01360 4110201Echangeur RD 86/RD 20270990Echangeur RN 157    0300260LE VAU MARTIN (RN1360290084002270000000220003900300000000000199      046768 1167    040545   042888   044450   047650   047478   048677   051761   047786   048965   049154   045900   045717               120455111 1167    110446761 1147    100434421 1157    090429001 1147    080415831 1217    041124   041456   043648   047063   045505   048410   050101   045723   047043   046739   045741   043520                                      
350061000310013 01360 4110201Echangeur RD 175    0210410RD 97               0230490LES BOIS (RN136 14-10220569002085000000220003900300000000000195      062276 1017    054401   057597   059128   063361   062458   064418   067027   060828   065406   066431   064450   061633               120602201 1037    110594591 1017    100582231 0987    090569271 0897    080545081 0977    055894   055967   059706   061654   060274   063439   063910   057931   063138   062566   061033   057120                                      
350060000310013 01360 4110201Echangeur RN 137    0180527Echangeur RD 175    0210410ST GREGOIRE (RN136 10190390002883000000220003900300000000000195      068195 0977    060859   064331   065795   070206   068751   071193   073124   065605   071621   072382   068805   065584               120666761 0977    110658401 0967    100643421 0947    090631481 0927    080609241 0937    062987   062751   066961   067839   066661   070205   069800   063063   069735   069231   067695   063215                                      
350022210310013 01360 4110301Echangeur RN 24     0140152Echangeur RN 12     0150571BARRE-THOMAS (RN136 0140779001396000000220003900300000000000197      100787 0777    093747   098349   099404   103890   099918   106155   105494   091446   105604   107372   100335   097901               120986831 0707    111008341 0817    100997561 0827    090995561 0817    080989531 0847    096912   096237   102716   097418   098818   103862   097914   087448   103686   103918   100566   094894                                      
350005400310013 01760 4110201RD 155 Ouest de Dol 0170555RN 137              0290618ROZ - LANDRIEUX     0240000011992000000220003900300000000000187      017342 1377    012385   013645   014772   016636   019078   017906   022468   025033   018028   017021   015394   015330               120172051 1387    110176171 1397    100178621 1387    090177091 1327    080171851 1387    012961   013521   014809   018553   018588   017913   022296   023561   018307   015791   015580   014395                                      
350005300310013 01760 481 251RD 80               0140747RD 155              0170555                    01602000027860000003500050003          0187      016147                                                                                                                                 120158998         110161628         100158458         090158398         080152718                                                                                                                                                        
350005000310013 01760 411 251Département Manche  0000000RD 80 Est de Dol    0140747BAGUER PICAN        0120000014630000000350005000350000450030187      013387 1357    008200   009298   010585   013154   015354   013771   018444   021710   014004   013743   011215   010724               120131811 1407    110133991 1168    100131361 1178    090131311 1168    080126601 1427    008636   009372   010450   014882   014895   013479   018180   020327   014184   011722   011564   010287                                      
350004301310013 01640 4813 51RD 166              0110458Limite Dép 22       0131020St Meen le Grand    01308000022870000003500009003220      30187      009858                                                                                                                                 120097308         110098028         100095598         090095248         080092838                                                                                                                                                        
350004300310013 01640 4813 51RN 12               0000000RD 166              0110458Montauban           00300000107490000003500009003          0187      010607                                                                                                                                 120104698         110105468         100102858         090102488         080099898                                                                                                                                                        
350004100310013 01570 4110201RD 292 Noyal/Vilaine0380420RN 136              0410815NOYAL/VILAINE (RN1570400000002803000000350000900300000000000187      061746 1337    053591   057109   060225   063007   063777   063832   067097   062007   063775   064281   060365   061557               120607441 1327    110611631 1327    100600611 1307    090590531 1297    080578091 1367    055920   056447   059505   063479   061260   063409   065555   059736   062533   061767   060912   058368                                      
350004001310013 01570 4110201Echangeur RD 101    0330225RD 286              0380420Brécé N157_EX2      0340025005190000000350000900300000000000187      050362 1377    042827   045251   048881   051180   052782   051726   055735   054333   052466   051744   048258   048733               120497041 1367    110500391 1397    100497261 1367    090489611 1357    080487131 1407    044637   045675   047833   052854   050699   051451   055083   051212   051004   049647   049248   047028                                      
350004000310013 01570 411 251Echangeur RD 857    0280853RD 292 Noyal/Vilaine0330225BRECE (Servon/Vilain03202000034260000003500009003          0187      046184 1377    038893   041765   045014   047149   048849   047406   051675   049656   047105   047375   044105   044824               120456431 1308    110463511 1318    100457531 1417    090451271 1308    080444551 1447    040469   041630   043549   048964   046705   046699   051022   048083   047156   045228   045046   043080                                      
350003900310013 01570 4810201Echangeur RD 777    0170198Echangeur RD 857    0280853St-Didier           0200000011661000000350003700300000000000187      000000                                                                                                                                 120326988         110330408         100322508 1506    090321478    0    080310068    0                                                                                                                                                   
350003800310013 01570 4810201Echangeur RD 178    0120000Echangeur RD 777    0170198Torcé               0150188005190000000350003700300000000000187      000000                                                                                                                                 120288658         110291678         100284708 1606    090280798    0    080270828    0                                                                                                                                                   
350003700310013 01570 4110201Département Mayenne 0000000Echangeur RD 178    0120000VITRE (Mondevert)   0050800012009000000350003700353000170130187      000000                                                                                                                                 120284771 1937    110287741 1917    100280861 1907    090284431 1837    080274331 1977    022639   025392   025023   030901   029169   028439   034401   034609   028922   025997   028665   027460                                      
350003000310013 01370 4110201RD 34 Chartres      0380750Entrée Rennes Alma  0430391LE HILL (RN137 OC-060410060004641000000350003700300000000000187      049451 0937    044117   046420   047117   050277   049876   052109   053271   049570   052567   052053   048165   047748               120486241 0937    110487381 0947    100473721 0937    090461071 0937    080450621 0987    045393   045475   047811   048824   048634   052211   051407   047956   051193   049580   048849   046159                                      
350002900310013 01370 4110201RD 41               0310355RD 34 Chartres      0380750PONT PEAN (RN137 EX-0370190007394000000350003700300000000000187      047188 1077    042972   045677   046681   049637   047499   044279   043955   048129   051803   051455   047437   046729               120478891 1097    110480841 1107    100000001    0    090000001    0    080000001    0    044569   044520   047192   049528   049501   050073   050148   047024   050603   049007   047761   044727                                      
350002700310013 01370 481 251Echangeur RD 777    0160636RD 41               0310355Bourg des Comptes   02500480143780000003500025003          0187      033158                                                                                                                                 120335308         110335878         100323528         090314108         080307368                                                                                                                                                        
350002500310013 01370 411 251DEP 44              0000000Echangeur RD 777    0160636BAIN de Bretagne    01200520163830000003500025003440       0187      027394 1437    021558   022283   024260   027340   028419   028394   032442   033731   029946   028223   026079   025636               120277011 1417    110277481 0868    100267271 0818    090259481 0828    080253911 1537    023347   024006   025593   028737   028030   029758   032433   032737   029889   027422   026502   023857                                      
350002300310013 01360 4110201Echangeur RN 12     0150571Echangeur RN 137    0180527QUINCE (RN136 12-13)0170900002956000000350002500300000000000195      081003         073696   077387   079118   083348   081176   085043   086684   076963   084787   085305   079972   078502               120738811 0807    110755971 0857    100745051 0847    090715091 0817    080728111 0800    073607   075675   079843   079980   070444   070617   070398   064070   069868   075611   080773   075984                                      
350002200310013 01360 4110301Echangeur RD 177    0120063Echangeur RN 24     0140152CLEUNAY (RN136 08-090130146002108000000350002500300000000000187      101113 0947    094898   098598   100193   102722   100298   105080   104847   091075   104673   108504   102690   099884               120996541 0907    111015191 0867    101012941 0847    091007611 0837    080997731 0867    098103   096915   103186   100455   099008   103786   099681   090025   102966   103719   101707   096448                                      
350002100310013 01360 4110201Echangeur RD 837    0100536Echangeur RD 177    0120063ST JACQUES (RN136 070110495001478000000350002500300000000000196      000000                                                                                                                                 120862391 0907    110870171 0937    100852531 0927    090842151 0907    080847371 0937    084032   083442   088407   087156   085895   088998   087954   079483   088978   089315   088115   083171                                      
350002000310013 01360 4110201Echangeur RN137 Alma0090084Echangeur RD 837    0100536ALMA (RN136 06-07)  0100000001448000000350002500300000000000187      087863 0857    082763   085713   086912   090092   088012   090438   092449   080448   090746   093306   087532   085983               120875221 0877    110891171 0917    100885591 0897    090895521 0877    080886761 0917    085633   084808   089859   088555   087089   090996   089073   080157   090425   090367   088973   084439                                      
350001901310013 01360 4110201Echangeur RD 463    0050162Echangeur RD 163    0060631N136_04.05          0050976001471000000350002500300000000000309      069562 1117    064907   067414   068271   071552   069425   072100   073400   063302   072488   073568   070600   067781               120691221 1147    110704171 1177    100693001 1177    090687461 1167    080675741 1237    067390   066357   070756   070179   068242   072698   070978   062965   071830   071928   070269   065971                                      
350001900310013 01360 4110201Echangeur RD 163    0060631Echangeur RN137 Alma0090084CHAUFFERIE (RN136 050080000002451000000350002500300000000000187      081591 1037    076573   079393   080373   083670   081739   084717   086101   074774   084650   086392   080866   079867               120813171 1057    110828091 1097    100814121 1077    090809471 1067    080797151 1137    079822   078450   083448   082566   080740   085293   083241   074336   083931   083862   082453   077759                                      
350001722310013 01360 4110201autre               0010483D386 Bd Urbain      0030555N136_02.03          0020172002000000000350002500300000000000309      058399 1187    053271   055215   056819   060016   058797   060633   062643   055444   060969   061500   058041   057329               120580451 1217    110591221 1267    100580051 1257    090571191 1257    080559391 1327    055441   054584   058086   059398   057520   061487   060786   054283   060578   059779   058754   055889                                      
350001720310013 01360 4110201D386 Bd Urbain      0030555Echangeur RD 463    0050162CHANTEPIE (RN136 03-0030738001577000000350002500300000000000187      061639 1097    057490   059918   060910   063724   060161   062030   066857   056230   062009   065122   063935   061285               120618151 1117    110629501 1207    100618051 1157    090611601 1137    080599621 1197    059830   059026   062554   062779   060735   065298   064093   058424   064057   063461   063021   058577                                      
350001711310013 01360 4110201Intersection N157   0000000autre               0010483N136_01.02          0010084001483000000350002500300000000000309      049832 1267    044836   046909   048339   051217   050525   051926   053361   048079   052265   052476   049414   048530               120495891 1297    110506091 1367    100492791 1367    090483401 1357    080472921 1447    046731   046216   049347   051081   049368   052567   052638   047324   052076   050891   049951   046907                                      
350001600310013 00240 4810201RD 61 Plélan        0320520Département 56      0390565Coetquidan/Breil du 0360409007045000000560000100356000010030187      021471                                                                                                                                 120211968         110218118         100214108 1006    090206568    0    080199858    0                                                                                                                                                   
350001500310013 00240 411 251RD 69 St Thurial    0190377RD 61 Plélan        0320520TREFFENDEL          02403500129500000005600001003          0187      000000                                                                                                                                 120264631 1037    110271761 0358    100267611 0358    090264021 0348    080257701 1047    021866   022380   023941   026985   027787   027730   032075   032251   028189   025134   025175   023853                                      
350001401310013 00240 4110201RD 288 2ème ceinture0080587RD 34               0110142N24_OG.OH           0090623002555000000560000100300000000000187      030655 0927    025422   026749   028522   030824   032920   032161   035206   035377   031888   030802   028812   028839               120306751 0947    110310381 0947    100304711 0937    090300541 0917    080294231 0957    026401   027261   028598   032783   031871   032121   035011   034397   031953   029714   029662   028227                                      
350001400310013 00240 4810201RD 34               0110142RD 69               0190377Bréal/Montfort      0150488008484000000350001500300000000000187      000000                                                                                                                                 120316228         110324758         100319808 0806    090297168    0    080290058    0                                                                                                                                                   
350001300310013 00240 4110201RD 224 Est D'Apigné 0050061RD 288 2ème ceinture0080587LE RHEU (RN24 OH-10_0060075003526000000350001500300000000000187      028134 0987    023374   024638   026397   028538   029979   029569   032287   032360   028981   028118   026735   026334               120281941 1157    110289881 1187    100286741 1167    090266381 1107    080272631 1087    024629   025024   026533   030176   029221   029424   032031   031448   029369   027271   027122   025977                                      
350001200310013 00240 4110201Sortie Rennes Lim Co0020000RD 224 Est D'Apigné 0050061Les 3 Marches (RN24 0030900002760000000350001500300000000000187      033806 0947    029192   030688   032792   034655   035294   035584   037893   036093   034941   034210   032139   031958               120330711 1047    110342711 1067    100343341 1037    090341571 1017    080343461 1037    029680   030617   031526   034488   034440   034750   035539   034421   034896   032833   031961   031672                                      
350001100310013 00120 4110201RN 164 Ech.St Meen  0930007Département 22      1001040QUEDILLAC           1000608007978000000350001500322000010030187      023429 1327    018865   020525   022059   022841   024681   024330   027063   028146   024719   023627   021660   022349               120231891 1357    110236401 1357    100231791 1327    090231091 1417    080224581 1457    019429   020311   021244   024177   024101   023179   027182   026951   024640   022542   022675   021709                                      
350001000310013 00120 4810201RD 71 Montauban     0900903RN 164 Ech.St Meen  0930007Montauban           0910375002083000000350000900300000000000187      027867                                                                                                                                 120275048         110277078         100270208 1400    090292888    0    080285468    0                                                                                                                                                   
350000900310013 00120 411 251RD 72 Bédée - Bignon0820266RD 71 Montauban     0900903COUCAL (Montauban)  08700000085790000003500009003          0187      035455 1367    029994   032113   034030   035823   036876   036676   038853   038504   036944   036464   034148   034773               120349921 1377    110352491 1228    100343741 1218    090342481 1218    080333801 1318    030924   031601   033327   036094   035380   036397   038596   037083   036865   035278   034713   033556                                      
350000800310013 00120 4810201RD 21 St Gilles     0730268RD 72 Bédée - Bignon0820266St Gilles Ouest     0760000008905000000350000900300000000000187      044145                                                                                                                                 120435698         110438898         100428008 1206    090391458    0    080381538    0                                                                                                                                                   
350000701310013 00120 4810201RD287 Pont de Pacé  0700144RD 21 St Gilles     0730268St Gilles Est       0720250003014003014350000900300000000000187      041989                                                                                                                                 120414418         110417468         100407108         090405618         080395338                                                                                                                                                        
350000700310013 00120 4110201RD288/RD29 Pacé     0670795RD287 Pont de Pacé  0700144N12_EX.OI           0680595002320000000350000900300000000000187      053323 1067    047826   050385   051593   054184   054133   055355   056441   051906   055798   056254   052402   053456               120523061 1087    110518311 1087    100509471 1067    090506331 1057    080493611 1107    048698   048722   051620   053093   052388   055046   055169   049970   054658   053991   052993   051305                                      
350000600310013 00120 4110201Sortie Rennes Lim Co0630000RD288/RD29 Pacé     0670795PACE  (RN12 OI-11_1)0650300004463000000350000900300000000000187      058947 1087    055461   056326   057067   059543   058948   060692   061276   055734   061414   062413   058792   059599               120000001    0    110546991 1027    100555561 1017    090557881 1017    080530001 1077                                                                                                                                                   
350000201310013 00120 4113001RD 706              0140000RD 18/A84           0190680Romagné (barreau Fou0160200006085000000350000900300000000000187      014185 1087    013285   012912   013655   014541   014213   015243   015216   013480   014992   014797   014083   013748               120139251 1087    110139251 1077    100135461 1057    090132901 1057    080128441 1107    013321   012852   014277   014117   014054   014723   013889   012392   014846   014439   014129   014059                                      
350000101310013 00120 4813 51RD 124              0050947RD 706              0090317Beaucé              00807000033690000003500001003          0187      010288                                                                                                                                 120103058         110103738         100101638         090101988         080102158                                                                                                                                                        
350000100310013 00120 4113001Département Mayenne 0000000RD124               0050947FLEURIGNE           0040440005893000000350000100353000120030187      006248 1917    005142   005564   005876   006422   006590   006661   007021   007043   006495   006295   005922   005900               120062581 1967    110062991 1807    100061711 1777    090061921 1747    080062021 1727    005325   005578   006079   006400   006535   006505   006898   006906   006670   006187   006185   005811                                      
290003602310013 02650 4110201Keradrien           0040200Kervao              0060210Keradrien           0040920002038002038350000100300000000000187      023639 0837    023057   023519   023676   024628   023922   025233   024319   021566   022678   024932   022620   023521               120242701 0817    110244961 0797    100227231 0807    090193161 0867    080182911 0917    023464   023937   024073   024848   023849   025380   026000   023176   024407   024749   023990   023401                                      
290003601310013 02650 4810201poul ar feunteun    0020370Keradrien           0040200Brest               0030500001830001830290003602300000000000187      031774                                                                                                                                 120326238         110329278         100305448         090259658         080245888                                                                                                                                                        
290003600310013 02650 4110201Kergleux            0000000poul ar feunteun    0020370Le relecq Kéruon    0010400001577001577290003602300000000000187      027628 0857    025970   026952   027150   028098   027582   028742   029601   026746   028502   028540   027152   026494               120278001 0867    110284311 0857    100275031 0857    090267221 0857    080256301 0907    026198   026570   028199   027845   027468   029384   030373   026800   028246   028635   027702   026169                                      
290003500310013 01650 4110201RD 33A Plougastel   1110000RN 265 Entree Brest 1140540PONT DE L'IROISE    1130300003540003540290003602300000000000187      000000                                                                                                                                 120465001 2608    110468281 2648    100462751 2678    090457711 1898    080448851 0408    044453   044018   047508   046347   046698   049048   049587   044448   047830   047861   046120   044032                                      
290003400310013 01650 4810201RD 29 Echang Plougas1090350RD 33A Plougastel   1110000Le Fresq            1100000001620001620290003200300000000000187      033839                                                                                                                                 120339408         110336428         100339008    6    090355068    0    080344838    0                                                                                                                                                   
290003300310013 01650 4110201RD 770 Echang Daoula1010560RD 29 Echang Plougas1090350Ty Ar Menez         1080000007815007815290003200300000000000187      030520 0477    028086   028909   029552   030828   030881   031403   032825   031308   032019   031476   030381   028503               120306611 0487    110294451 0507    100319601    0    090315771    0    080306671    0    028736   028699   030675   030487   030598   032139   034131   030996   031588   031118   030074   028614                                      
290003200310013 01650 4110201RD 18 Echang de Hanv0920600RD 770 Echang Daoula1010560Run Bleizy          1000700008936008936290003200300000000000187      027063 0777    024107   025379   026034   027284   027325   027059   030208   029697   028430   027772   026067   025247               120271431 0777    110269041 0787    100271101 0817    090267841 0807    080260111 0837    024715   024924   026705   027003   027084   028087   031529   029227   028053   027129   026464   024688                                      
290003100310013 01650 4810201RD 42 Echang du Faou0900900RD 18 Echang de Hanv0920600Le Faou             0920000001705001705290003200300000000000187      026116                                                                                                                                 120261958         110234978         100236668         090233838         080227098                                                                                                                                                        
290003000310013 01650 4110201RD 770 Echang Pont-B0780950RD 42 Echang du Faou0900900La Douffine         0820500011890011890290003200100000000000187      023527 0907    020868   022021   022564   023633   023879   024503   025850   025520   024680   024141   022687   021881               120235811 0877    110238951 0877    100237591 0847    090231041 0767    080226951 0908    021436   021698   023019   023488   023595   024572   027118   025159   024491   023706   023127   021483                                      
290002900310013 01650 4810201RN 164 Echang Chatea0760800RD 770 Echang Pont-B0780950Rozlann Vihan       0770200002140002140290003000300000000000187      021379                                                                                                                                 120214298         110230078         100228778         090222478         080218448                                                                                                                                                        
290002800310013 01650 4810201Inter RD 41         0700160RN 164 Echang Chatea0760800Kervetous           0720500006571006571290002700300000000000187      022874                                                                                                                                 120230988         110244018         100246108         090240208         080231778                                                                                                                                                        
290002700310013 01650 4110201RD 61 Echang Briec  0630200Inter RD 41         0700160Kerhoantien         0690286006980006980290002700100000000000187      024418 0897    022168   023377   023952   024828                     024495   026509   025068   025171   024092   024082               120246751 0897    110246821 0888    100248901 0808    090242931 0778    080234391 0877    022536   022409   023864   024216   024773   025992   028094   026344   025383   024866   024694   022824                                      
290002600310013 01650 4110201RD 139 Echang Gourvi0520900RD 61 Echang Briec  0630200Rupeleter           0620000010225010225290002700100000000000187      029798 0797    026824   028041   028647   029892   030117   031071   032498   031589   031000   030615   028968   028204               120296601 0767    110300691 0757    100299061 0707    090289381         080283941 0708    027517   027583   029316   029506   029329   031232   033081   031081   030379   029964   029254   027610                                      
290002500310013 01650 4810201Inter RD 15         0490250RD 139 Echang Gourvi0520900Tréorel             0490600003327003327290002700300000000000187      024582                                                                                                                                 120248278         110247098         100249258         090243258         080234728                                                                                                                                                        
290002400310013 01650 4110201RN 2165-RD 765 Troya0440800Inter RD 15         0490250Keraud              0460800004034004034290002700100000000000187      026036 1007    022509   023906   024610   026181   026468   027015   029531   029772   026990   026890   024530   023845               120256861 1017    110259231 1007    100257851 1007    090247881 1017    080223351 1097    022787   023609   024924   025912   024969   026508   029931   028968   026679   025690   025078   023088                                      
290002300310013 01650 4810201RD 70 Echang Coat Co0340000RN 2165-RD 765 Troya0440800Keréonnec           0360000010546010546290002200300000000000187      026365                                                                                                                                 120279498         110279738         100276008 0800    090276458    0    080267458    0                                                                                                                                                   
290002200310013 01650 4110201RD 24 Echang Kérampa0250850RD 70 Echang Coat Co0340000Trouec              0300260008358008358290002200300000000000187      024567 1187    021459   022189   023651   025684   027295   025047   027826   026745   024504   023814   023665   022718               120260421 1137    110260641 1137    100257161 1137    090254041 1147    080245761 1207    021295   022320   023511   026608   025675   026822   031557   032798   030703   024321   023924   022859                                      
290002100310013 01650 4810201RD 4 Echang Kérandré0180150RD 24 Echang Kérampa0250850Miniou              0220900007665007665290002200300000000000187      024308                                                                                                                                 120257638         110252738         100249378         090246358         080238338                                                                                                                                                        
290002000310013 01650 4810201RD 783 Echang Kervid0090150RD 4 Echang Kerandré0180150La Croix de Kerdute 0150550009071009071290002200300000000000187      025315                                                                                                                                 120268358         110268588         100265008 1006    090268588    0    080259838    0                                                                                                                                                   
290001900310013 01650 4110201RD 765 Echang Kerfle0020950RD 783 Echang Kervid0090150Kerjouanno          0070200006209006209290002200300000000000187      028005 1157    023104   024171   025916   028241   030057   028818   029576   036483   029634   028141   025842   025716               120285041 1147    110284861 1167    100275341 0998    090274871 1078    080265861 1148    023305   024417   025545   029209   028652   029226   034183   035825   030065   029444   027433   024545                                      
290001800310013 01650 4110201Departement 56      0000000RD 765 Echang Kerfle0020950L'Ille              0000800002963002963290002200356000260430187      034675 0917    028929   030586   032127   034748   036191   035572   039458   042724   036005   034761   032453   032164               120343411 0927    110000001         100000001         090354991         080336251 0828    029941   030759   032134   035473   034869   035947   040113   041322   035616   032829   032131   030786                                      
290001700310013 01640 4110201RN 2164 Pleyben     0380290Inter RN 165        0460337Coatiborn           0420200007363007363290002200300000000000187      009959 1087    008893   009108   009159   009445   010089   010311   011499   011031   010353   010148   009821   009570               120098591 1067    110098421 1077    100097031 1077    090096461 1057    080093091 1037    008936   008827   009526   009579   009781   010191   011376   010723   010257   009948   009826   009291                                      
