800004000310013 00250 4813001RD 49 Doullens      0330965limite Pas de Calais0401009Doullens            0350847006991006991800003400362000190030187      006552                                                                                                                                 120067928    0    110068938    0    100072828    0    090000008    0    080068658    0                                                                                                                                                   
800003400310013 00250 4113001RN 1 Amiens         0090745RD 49 Doullens      0330965RAMPONNEAU          0120796025003025003800003400300000000000187      012017 1178    010994   011440   011320   012171   012394   012695   012561   010867   012580   013227   012025   011926               120124571 1138    110126411 1108    100133541 1028    090000001    0    080125891 1108    012257   012783   012644   012586   012515   013121   012042   011779   013017   012684   012275   011832                                      
800003301310013 00250 4110201RN 29 Longueau      0000300RN 1 Amiens         0090745J VERNE             0020700015395015395800003400300000000000188      036481  928    033779   035722   034558   038274   037439   039252   036456   034802   035452   037593   036996   037443               120378681    0    110000001    0    100375371    8    090000001    0    080000001    0                                                                                                                                                   
800000600310013 00010 4810201RN 25               0280000RD 97               0320780Longpre Amiens      0300039004967004967800003301300000000000187      000000                                                                                                                                 120000008    0    110000008    0    100000008    0    090000008    0    080000008    0                                                                                                                                                   
620521200310013 00160 1110241A 26                0870150Limite Nord         1030900CALAIS-MARCK        0880080016750016750800003301300000000000192      044742 2207    037873   040722   041234   045822   046432   046964   050132   049525   046148   045664   043344   043048               120432651 2247    110413031 2177    100404811 2107    090000001    0    080000001    0    038731   036826   036062   042463   044038   046211   048475   047605   047219   045671   043948   041729                                      
620521100310013 00160 1810241Riviere Neuve       0820100A 26                0870150Les Fontinettes     0840400005050005050620520800300000000000192      000000                                                                                                                                 120000008    0    110000008    0    100000008    0    090000008    0    080000008    0                                                                                                                                                   
620520800310013 00160 1110241Coquelles           0780455Riviere neuve       0820100CALAIS-LPA          0810950003645003645620520800300000000000194      041375 1578                                                                                                                            120420841 1620    110000001    0    100000001    0    090000001    0    080000001    0                                                                                                                                                   
620520300310013 00160 1110241Echang 35           0620000Coquelles           0780455LEUBRINGHEN         0680500016555016555620520800300000000000194      026414 1248    022141   023183   023778   026778   026840   028491   030759   031811   027306   026234   024985   024658               120266141 1298    110266941 1208    100257911 1228    090000001         080255661 1168    022875   022690   024330   027311   026809   029349   030978   031452   028737   026137   025210   023374                                      
620510000310013 02160 1110141A 16                0000000RN 216              0010900DORET               0010800001900001900620520800300000000000792      024380 3008    021729   022284   022270   024127   021826   014749   021460   027922   025532   024371   024059   022121               120233181 2807    110245371 2857    100249631 2787    090000001    0    080255101    0    020342   021274   022551   023349   022675   024933   025369   025200   025374   023596   023072   022068                                      
620502000310013 00210 1110231A 211               0120300Noyelles            0130700NOYELLES            0130100001409001409620520800300000000000187      079876  667    073404   077674   079724   082506   080456   084134   079424   070318   083778   086408   081246   079437               120788601    7    110635701    0    100660691    0    090000001    0    080000001    0    077394   077849   081390   081102   079326   083618   076995   069089   081094   082949   079307   076453                                      
620501900310013 00210 1110231Dourges A 1         0210999Limite Nord         0260207COURCELLES LES LENS 0250800008337008337620520800300000000000187      059291 1037    051675   053222   056952   062366   060927   064714   059412   052588   063327   064714   061963   059637               120564341 1027    110599841 1047    100533181    7    090000001    0    080467741    7    059235   057888   057361   056638   056666   061635   053057   049439   060116   059255   055047   051212                                      
620501500310013 00210 1110231Noyelles/Lens       0130700Dourges A 1         0210999DOURGES             0200700008337008337620520800300000000000187      072837 1007    069980   068894   071668   074624   074768   077750   071168   046190   055903   049740   053876   053409               120742961    7    110732271 1007    100635211    7    090000001    0    080719661    7    073192   073568   077381   076633   075081   077073   072023   064759   076638   078072   073813   073500                                      
620501100310013 00210 1810231RN 17               0101004A 211               0120300Lens                0110500001315001315620500700300000000000187      058901                                                                                                                                 120576548    0    110898228    0    100933928    0    090000008    0    080000008    0                                                                                                                                                   
620501000310013 00210 1810231RN 47               0090800RN 17               0101004Lens                0100500001207001207620500700300000000000187      055688                                                                                                                                 120545098    0    110849218    0    100882738    0    090000008    0    080000008    0                                                                                                                                                   
620500900310013 00210 1810231RN 43 Loos en Gohell0060900RN 47               0090800Lens                0090300002904002904620500700300000000000187      047091                                                                                                                                 120460948    0    110718128    0    100746418    0    090000008    0    080000008    0                                                                                                                                                   
620500700310013 00210 1110231Echang Lievin       0030500RN 43 Loos en Gohell0060900LOOS EN GOHELLE     0060000003406003406620500700300000000000187      052069  777    048568   049678   051894   053990   055206   054547   049717   048881   053781   055386   052640   050540               120509681    7    110506451    7    100526441    7    090000001    0    080000001    0    040746   040676   034914   026067   025857   031145   031004   031823   029218   031799   035223   031875                                      
620500500310013 00210 1810231RD 937              0000000Echang Lievin       0030500Bully les Mines     0030000003498003498620500700100000000000187      020013                                                                                                                                 120192708    0    110194268    0    100202508    0    090000008    0    080000008    0                                                                                                                                                   
620500400310013 00160 1110241Inter RN 42         0500000Echang 35           0620000WIMILLE             0540540011036011036620500700100000000000194      031953 1027    026495   028760   028693   032437   032777   034267   036858   036852   033533   032430   030809   029529               120322541 1047    110000001         100000001         090000001         080000001         028701   028607   030265   032752   032089   035256   035897   036146   034376   032380   031261   029223                                      
620500300310013 00010 1110441Dourges A 21        1870000Limite Nord         1930393SEADOURGES          1870500006438006438620500700100000000000187      101579 1767    096881   104808   103047   000000   000000   000000            000000   000000                     000000               121078121 1727    111091901 1787    101098731 1787    090000001    0    080000001    0    101262   103926   108415   110974   112193   115891   114989   091096   112214   111393   108204   103455                                      
620500000310013 02110 1110231Avion               0000000A 21                0020810LENS-GARE           0010550002813002813620500700100000000000187      038002  537    035326   037011   036899   039258   038405   040150   037676   033168   039981   040925   039162   038066               120379001    7    110373041    0    100363371    7    090000001    0    080000001    0    036822   037499   039271   038212   037472   041420   036990   034384   041189   037967   037366   036398                                      
620406000310013 02160 4813001A 216               0020000Zone Portuaire Calai0030744Calais              0030000001900001900620510000300000000000793      022639                                                                                                                                 120232428    0    110244588    0    100248838    0    090000008    0    080254298    0                                                                                                                                                   
620006100310013 04250 4813001RN 25               0000000RD 264              0001233St Catherine Les Arr0000500001233001233620001400300000000000104      000000                                                                                                                                 120000008    0    110000008    0    100000008    0    090000008    0    080000008    0                                                                                                                                                   
620005700310013 00470 4813001Echang 3            0070200Limite Nord         0081278Douvrin             0080000002098002098          00000000000613      000000                                                                                                                                 120000008    0    110000008    0    100000008    0    090000008    0    080000008    0                                                                                                                                                   
620005400310013 00470 4110101Inter A21           0000000Echang3             0070200VENDIN              0010140006935006935          00000000000901      046169  737    043329   046205   045412   044727   047095   047130   045832   041425   048755   051310   047716   045098               120468741    7    110474021    7    100000001    0    090000001    0    080000001    0    046877   046868   048332   047455   044800   044454   045981   046552   049547   049158   047792   044730                                      
620004301310013 00420 4110101RN 43               0140000Inter A 16          0541121ALINCTHUN           0430850039904039904          00000000000187      012339 1218    010090   011250   011293   012667   012510   012901   014069   013426   013074   012960   012120   011711               120121091 1428    110124191 1538    100126291 1558    090000001    0    080000001    0    011130   010606   012006   012174   012369   012396   012602   012919   012815   012762   012187   011280                                      
620002001310013 00250 4113001Inter RN 17         0271283Inter RN 39         0321093ANZIN               0281000006963006963          00000000000901      017926 1557    015468   016490   016391   018953   018286   018962   019906   018121   018931   018903   017729   016971               120180681 1657    110186851 1857    100180731 1827    090000001    0    080172621 1837    016704   016971   017682   018303   018573   019259   018858   017970   018931   018817   017837   016910                                      
620002000310013 00250 4114001Inter RD 265        0240280Inter RN 39         0271283WAGNONLIEU          0260545004813004813          00000000000901      009321 1837                                                                                                                            120092651 1777    110000001    0    100094131 1817    090000001    0    080085721 1757    008429   008568   008721   008889   009189   010485   009564   009182   010145   010385   009210   008425                                      
620001900310013 00250 4113001Limite Dep 80       0000000RD 265              0240280GOUY                0150400024315019380          00000000000187      006971 1967    006313   007464   006474   006981   006924   007169   007388   006803   007261   007349   006838   006749               120080901 1930    110000001    0    100069031 1937    090000001    0    080068481 1897                                                                                                                                                   
620001400310013 00170 4113001Acces A 26          0360100A 211               0441082VIMY                0360500009635009635          00000000000187      016358  967    015440   016007   016341   017046   015337   016100   015563   014264   017765   018320   017309   016803               120159191    7    110160331    7    100000001    0    090000001    0    080000001    0    015654   015919   016755   016283   014927   014598   015346   014858   016977   017407   016602   015724                                      
620001302310013 00170 4810101Int RN 50           0330000Int A 26            0360100Roclincourt         0350900002960002960620001400300000000000698      020833                                                                                                                                 120202818    0    110204278    0    100000008    0    090000008    0    080000008    0                                                                                                                                                   
620000100310013 00010 4810101inter CD 940 st Leon0460000limite A 16         0500800St Leonard          0480833004048004048          00000000000613      000000                                                                                                                                 120000008    0    110000008    0    100000008    0    090000008    0    080000008    0                                                                                                                                                   
600010000310013 00310 4113001début dev Beauvais  0170000Fin dev Beauvais    0290465BEAUVAIS            0180742012465012465          00000000000513      005162 1928                                                                                                                            120000001         110000001         100000001         090000001         080000001                                                                                                                                                        
600009000310013 00310 4113001Clermont RD 916 A   0530839déb dév Clermont    0550000CLERMONT            0540594001839001839          00000000000513      016062  978    015899   015456   015781   016853   016396   017363   015799   013433   016790   016929   016466   015581               120000001         110000001         100000001         090000001         080000001                                                                                                                                                        
600008301310013 03240 4815001Senlis RN 17        0010000Senlis RN 330       0020284Chamant             0020000001194001194600000800300000000001287      016542                                                                                                                                 120172548    0    110000008    0    100197898    0    090000008    0    080000008    0                                                                                                                                                   
600008200310013 03300 4813001fin dev Ermenonville0100000Senlis RN 324       0191107Fontaine Chaalis    0110000010184010184600008100300000000001287      009887                                                                                                                                 120101438    0    110108598    0    100100198    0    090000008    0    080000008    0                                                                                                                                                   
600008100310013 03300 4113001Belleville RN 2     0040239fin dév Ermenonville0100001ERMENONVILLE        0050800007149007149600008100300000000001287      007956 2067    006797   007386   007788   008386   008348   008929   008854   007989   008186   007762   007473   007567               120081621 2097    110087381 2267    100080621 2137    090000001    0    080000001    0    007529   007565   008119   008075   008291   009045   008285   007975   008806   008761   008094   007401                                      
600007000310013 00310 4113001Compiegne RN 1031   0790420Aisne               1040134COMPIEGNE           0850406025714025714600008100302000250031287      007984 1618    007013   007479   007578   008339   008175   008758   008588   008243   008815            007496   007338               120000001    0    110000001    0    100000001    0    090000001    0    080000001    0                                                                                                                                                   
600006001310013 10310 4110101RN 31               0000000RN 32 Clairoix      0070279VENETTE             0010500006840006840600008100300000000000194      034349  888                                                                                                                            120324801    7    110332801    7    100000001    0    090000001    0    080000001    0    032746   032445   033641   032106   031858   033513   028672   029180   033166   033640   035304   033626                                      
600005300310013 00310 4814001A 1                 0731041Compiegne RN 131    0790420Arsy                0750000005404005404600005100300000000001287      003410                                                                                                                                 120229318    0    110232128    0    100226548    0    090000008    0    080233658    0                                                                                                                                                   
600005100310013 00310 4113001début dev Clermont  0550000A 1                 0731041CATENOY             0580600018036018036600005100300000000001287      001825  528    002352   002336   002347   001048   002413   002565   002361   002030   002504   001411   000568   000000               120122711 1278    110124211 1298    100121221 1288    090000001    0    080125021 1398    011764   011892   012143   012586   012739   013437   011295   011401   013114   013137   012351   011448                                      
600004500310013 00310 4110201Beauvais sortie     0300000Clermont RD 916A    0530839LA RUE St PIERRE    0420000024386024386600005100300000000001287      020317 1197    018018   019195   019546   021149   020752   022350   020780   017982   021594   021999   020830   019658               120204921 1227    110213001 1257    100000001    0    090000001    0    080000001    0    019844   020183   020379   020777   021397   022652   018897   019023   021920   021662   020776   018505                                      
600000900310013 00020 4113001RN 330              0020700Dév Nanteuil        0110200NANTEUIL            0080650008884008884600005100300000000001287      000000                                                                                                                                 120000001         110000001         100000001         090000001         080000001                                                                                                                                                        
600000800310013 00020 4113001Dév Nanteuil        0110200Limite Aisne        0291114GONDREVILLE         0250300018911018911600005100300000000001287      014490 1767    012089   013358   013830   015525   017009   015646   014077   014028   014982   014970   014250   014114               120151151 1677    110000001    0    100173351 1357    090000001    0    080000001    0    015622   015866   014353   015959   017211   016851   013911   013958   014912   014932   014660   013254                                      
590506000310013 00230 1110231Orchies             0160417Petite Foret        0370278BEUVRY              0210900021018021018600005100300000000000187      040025  907    036840   038665   039215   041488   040693   043557   039879   034075   042694   043576   040616   038997               120406701    7    110409831    7    100412291    7    090000001    0    080000001    0    040271   039671   041289   041753   041305   043604   039727   034904   042628   043213   041863   037983                                      
590505300310013 00160 1110241Coudekerque (RN 335)1251000Ghyvelde (RD 947)   1370656GHYVELDE OUEST      1330500011656011656600005100300000000000693      027688 2548    021747   023449   024781   028018   029184   028600   034673   036105   028310   026729   025403   025251               120271421 2468    110272281 2488    100267681 2428    090000001    0    080271761 2658    022315   022462   024602   027487   027964   027840   032456   034002   028718   027039   025565   024982                                      
590505200310013 00160 1150441Grande Synthe (RN2551190625Coudekerque (RN335) 1251000COUDEKERQUE         1240400006375006375600005100300000000000693      061651 1387    053393   056888   058913   063303   063960   065746   068568   067941   061978   062031   059303   057791               120610311 1467    110607811    7    100591391    7    090000001    0    080621101    0    056226   056308   059457   060923   061784   062328   064871   064566   064133   063044   060547   057997                                      
590505000310013 00160 1110241Grande Synthe(RD131)1170000Grande Synthe(RN225)1190625ZAC DU MOULIN       1170820002625002625600005100300000000000693      060473 2047    051742   056120   057121   062935   063045   064806   067884   066695   056566   060648   059359   058754               120603331 1987    110000001    0    100000001    0    090000001    0    080000001    0    054307   054153   057715   060289   061479   063455   066109   065094   062758   061106   059653   057627                                      
590504900310013 00160 1110241Craywick (RN 316)   1100800Grande Synthe(RD131)1170000CRAYWICK            1130000006200006200600005100300000000000693      052259 2277    045805   048194   049266   054650   054597   056416   059990   058911   047590   051954   050422   049311               120515791 2147    110520331 2047    100489091 2097    090000001    0    080501601 2387    046049   046155   049194   052388   052708   055422   057379   056432   054451   052791   049947   045873                                      
590504800310013 00160 1110241Limite Pas de Calais1030900Craywick (RN 316)   1100800ST GEORGES SUR L'AA 1050800006900006900600005100300000000000693      036396 2298    030231   033018   033542   037854   038432   039170   043072   042185   036744   037031   034318   031157               120365481 2278    110361601 2238    100319871 2398    090000001    0    080000001    0    030906   031072   033950   037195   037367   038904   041641   041043   039563   037456   035740   033550                                      
590504700310013 00230 1810231Valenciennes Nord   0391001A 2                 0420539La Sentinelle       0410500002562002562590503902100000000000187      020786                                                                                                                                 120210418    0    110213838    0    100212508    0    090000008    0    080000008    0                                                                                                                                                   
590504500310013 00230 1810231Petite Foret        0370278Valenciennes Nord   0391004Petite-Foret        0390073002739002739590503902300000000000187      061119                                                                                                                                 120615478    0    110625758    0    100622968    0    090000008    0    080000008    0                                                                                                                                                   
590503902310013 00230 1110231Centre d'activites  0020000Orchies             0160417GENECH              0080700014440014440590503902300000000000187      050202  598    047965   048192   049191   051452   049938   054093   050357   042130   052940   054450   051690   050029               120505441    8    110513881    8    100511531    8    090000001    0    080000001    0    050526   049771   051270   050532   048998   053906   048978   044144   052766   054510   052267   049047                                      
590503901310013 00230 11102314 Cantons           0000000Centre D'activités  0020000CRT-LESQUIN         0000800001885001885590503902300000000000187      060303                                                                                                                                 120000001    0    110000001    0    100000001    0    090000001    0    080000001    0                                                                                                                                                   
590503700310013 00270 11102414 Cantons           0000000Frontière Belge     0121287ANSTAING            0070974010965010965590503902300000000000187      036685 1608    032713   034918   035845   036918   036845   038161   037188   035220   039376   039451   037364   036218               120361851 1538    110000001    0    100000001    0    090000001    0    080333641    0    034203   034458   036667   037302   036577   038205   037197   033774   038047   037473   036416   033958                                      
590503600310013 00220 1110641Ronchin             00000004 Cantons           0020811LESQUIN             0020340002402002402590503902300000000000996      125931                                                                                                                                 121270401    0    110000001    0    100000001    0    090000001    0    080000001    0                                                                                                                                                   
590503502310013 00250 1110241Hazebrouck          0320216Bergues             0621068QUAEDYPRE           0590110030892030892590503902300000000000187      030340  568    023598   026419   028096   031118   030920   033755   035693   033526   032369   031477   029162   027949               120290061    8    110000001    0    100000001    0    090000001    0    080288351 1448    025695   025771   027726   028587   030363   030705   032954   031140   031162   029519   028476   025867                                      
590503000310013 00250 1110241Armentières Ouest   0200394Hazebrouck          0320216STEENWERCK          0240190011831011831590503902300000000000187      052227 1267    044451   048823   049869   054229   054935   055657   053899   053880   055342   055193   051938   048506               120524081 1237    110000001    0    100000001    0    090000001    0    080518751 1287    048324   047585   051528   052826   054014   055449   055669   053255   055415   053833   052273   048625                                      
590502900310013 00250 1110231La Chapelle         0150680Armentieres Ouest   0200394LA_CHAPELLE         0160700004719004719590503902300000000000187      065154 1137    055955   061503   061344   067746   066196   070491   071670   064607   067073   068304   064285   062669               120652021 1167    110659371 1127    100610611    7    090000001    0    080648291 1097    061277   060257   063796   065632   066439   069285   068413   064371   068466   067217   065651   061563                                      
590502800310013 00250 1110231Sequedin            0090098La Chapelle         0150680ENNETIERES          0110420006589006589590503902300000000000187      082138 1187    072226   078751   077737   084840   083132   088132   088903   080357   084094   086030   081509   079938               120824921 1217    110838501 1197    100789681 1027    090000001    0    080829701 1227    079253   078239   082369   083237   083222   087080   085163   079409   085898   084623   082783   078648                                      
590502600310013 00250 1110431Porte Ouest         0040488Sequedin            0090098LOOS                0050450004602004602590503902300000000000996      105014  82                                                                                                                             121039901    0    110000001    0    100000001    0    090000001    0    081036071    7                                                                                                                                                   
590502500310013 00250 1810431Porte de Bethune    0030890Porte Ouest         0040488Pt.Bethune/Ouest    0040150000595000595590502400300000000000187      000000                                                                                                                                 120000008    0    110000008    0    100000008    0    090000008    0    080000008    0                                                                                                                                                   
590502400310013 00250 1110631Porte Des Postes    0020835Porte De Bethune    0030890PORTE DES POSTES    0030000001056001056590502400300000000000187      094964                                                                                                                                 120000001    0    110000001    0    100000001    0    090000001    0    080000001    0                                                                                                                                                   
590502300310013 00250 1110431Porte D'Arras       0010792Porte Des Postes    0020835Pte ARRAS/POSTES    0020320001044001044590502400300000000000187      114270                                                                                                                                 121147871    0    110000001    0    100000001    0    090000001    0    080000001    0                                                                                                                                                   
590502200310013 00250 1110631Porte Sud           0000000Porte D'Arras       0010792PORTE SUD           0010000001512001512590502400300000000000187      207117                                                                                                                                 122062061    0    110000001    0    100000001    0    090000001    0    080000001    0                                                                                                                                                   
590502000310013 00020 1110241Marly               0640030Frontière Belge     0780456ONNAING             0720210014451014451590502400300000000000293      000000                                                                                                                                 120371321    8    110375361 1008    100363601 1018    090000001    0    080364321 1688    033409   033431   035891   038678   037326   039443   043309   039273   038629   037654   035374   033042                                      
590501901310013 00210 1813001Limite Nord         0260207Echang 19           0270557Courcelles          0270000001347001347          00000000000613      000000                                                                                                                                 120000008    0    110000008    0    100000008    0    090000008    0    080000008    0                                                                                                                                                   
590501800310013 00020 1810241Valenciennes Sud    0600973Marly               0640030Aulnoy              0620210003061003061590502000300000000000187      000000                                                                                                                                 120903218    0    110913048    0    100884368    0    090000008    0    080886128    0                                                                                                                                                   
590501700310013 00020 1110441Rocade Ouest        0590025Valenciennes Sud    0600973TRITH-SAINT-LEGER   0590400001948001948590502000300000000000187      000000                                                                                                                                 120000001    0    110000001    0    100000001    0    090000001    0    080991701 1347                                                                                                                                                   
590501600310013 00020 1810241Denain              0520775Rocade Ouest        0590025La Sentinelle       0580585006258006258590501300300000000000187      058589                                                                                                                                 120584818    0    110601218    0    100585248    0    090000008    0    080576788    0                                                                                                                                                   
590501400310013 00020 1810241Neuville/Escaut     0471001Denain              0520775Neuville/Escaut     0500600004777004777590501300100000000000187      029194                                                                                                                                 120293318    0    110301438    0    100292688    0    090000008    0    080292518    0                                                                                                                                                   
590501300310013 00020 1110241Hordain             0430000Neuville/Escaut     0471001LIEU SAINT AMAND    0450510005006005006590501300100000000000187      043543 1907    036881   039508   040251   044617   043971   046558   050070   045395   046419   045167   042626   041050               120434781 1887    110446971 1907    100435111 1887    090000001    0    080428711 2227    038985   039598   041759   044151   043150   046036   050199   045288   046095   044741   042422   039225                                      
590501210310013 00220 1110241Tourcoing Nord      0220440Belgique            0240983NEUVILLE/FERRAIN    0240564002543002543590501300100000000000187      000000                                                                                                                                 120000001    0    110000001    0    100341221 2548    090361021 2200    080000001    0                                                                                                                                                   
590501200310013 00220 1110241Tourcoing Nord      0220440Belgique            0240983NEUVILLE/FERRAIN    0240564002543002543590501300100000000000187      000000                                                                                                                                 120000001    0    110000001    0    100000001    0    090000001    0    080000001    0                                                                                                                                                   
590500800310013 00220 1110441Echang RN 350       0140055Tourcoing Nord      0220440MOUVAUX             0160050008382008382590501300100000000000187      000000                                                                                                                                 120926821 1427    110941841 1447    100938571 1447    090000001    0    080935061 1507    088927   089451   092451   094493   093561   097820   096853   084120   095694   097662   093741   087561                                      
590500600310013 00220 1110431Wasquehal           0100054Echang RN 350       0140055PETIT WASQUEHAL     0100655003427003427590501300100000000000187      092475                                                                                                                                 121012091    0    110000001    0    100000001    0    090000001    0    080000001    0                                                                                                                                                   
590500500310013 00220 1810431Babylone            0090000Wasquehal           0100054Echang.Babylone     0090215001046001046590500600100000000000187      000000                                                                                                                                 120000008    0    110000008    0    100000008    0    090000008    0    080000008    0                                                                                                                                                   
590500400310013 00010 1110731Ronchin             2080350Lille               2101325RONCHIN             2090300002989002989590500600100000000000297      180839                                                                                                                                 121760791    0    110000001    0    100000001    0    090000001    0    080000001    0                                                                                                                                                   
590500301310013 00010A1810231A 1                 0000000A 22                0001179Petit Ronchin       0000500001179001179          00000000001203      000000                                                                                                                                 120000008    0    110000008    0    100000008    0    090000008    0    080000008    0                                                                                                                                                   
590500300310013 00010 1110631Seclin              2010315Ronchin             2080350FACHES              2070050007043007043          00000000000187      147043                                                                                                                                 121396361    0    110000001    0    100000001    0    090000001    0    080000001    0                                                                                                                                                   
590500100310013 00010 1110431Carvin (limite 62)  0000000Seclin              2010315MARTINSART          2000400007890007890          62050040030187      109654 154                                                                                                                             120997061    0    110000001    0    100000001    0    090000001    0    081075381 1797                                                                                                                                                   
590415000310013 0002004110201Echang 3            0210000Louvroil (RN 2002)  0270000BEAUFORT            0220000006000006000          00000000000605      006442 1527    000000   000000   000000   008581   008460   009060   008705   007681   008781   008978   008719   008341               120000001    0    110000001    0    100000001    0    090000001    0    080000001    0                                                                                                                                                   
590412100310013 00020 4810101HAUTMONT ( RD 195 ) 0290080FEIGNIES ( RN 49 )  0291606HAUTMONT            0290715001526001526590412000300000000000605      011305                                                                                                                                 120112238         110109918         100000008         090000008         080000008                                                                                                                                                        
590412000310013 0002004110201Echang 4            0270000Feignies RN 49      0291606HAUTMONT            0280303003606003606590412000300000000000605      013949  957    012595   013227   013457   014669   014318   015057   014423   013414   014261   014715   013978   013273               120138471    7    110135691 1057    100000001    0    090000001    0    080000001    0    013481   013474   014261   014172   013880   014782   012712   012776   014393   014795   014225   013256                                      
590411900310013 0002004810201LOUVROIL ( RN 2 )   0260000HAUTMONT SUD (RD121)0270755LOUVROIL            0260638001755001755590412000300000000000605      000000                                                                                                                                 120000008         110000008         100000008         090000008         080000008                                                                                                                                                        
590410900310013 03160 4810201A 16                0000000Loon-Plage          0020890Loon-Plage          0000500002977002977590504900300000000000194      005134                                                                                                                                 120050648    0    110000008    0    100000008    0    090000008    0    080000008    0                                                                                                                                                   
590410300310013 03560 4813001Wasquehal A 22      0031000Wascquehal RN 352   0060324Wasquehal           0050390001714001714          00000000000613      000000                                                                                                                                 120000008    0    110000008    0    100000008    0    090000008    0    080000008    0                                                                                                                                                   
590410200310013 00210 1110201Escaudain (RD 81)   0530800A 2                 0570500LOURCHES            0560700004263004263          00000000000190      024195         020762   021983   022048   024452   023934   025159   024235   020640   026577   028778   026493   025282               120251311    0    110278481    0    100263061    0    090000001    0    080254321    0    027209   027516   028585   028098   026092   028826   024775   020065   024046   024082   023618   018943                                      
590409900310013 03350 4810201Coudekerque (RN 336)0000000Rosendael (RN 1)    0000870Coudekerque         0000500000870000870590505200100000000000190      012172                                                                                                                                 120121108    0    110120508    0    100117598    0    090000008    0    080122048    0                                                                                                                                                   
590409700310013 03560 4810401Lille (RD14)        0011003Wasquehal (A 22)    0031000RD14 - RD48         0020500001986001986590409500100000000000189      000000                                                                                                                                 120000008    0    110000008    0    100000008    0    090000008    0    080000008    0                                                                                                                                                   
590409600310013 03560 4810401Lille (Rue de Flers)0010400Lille (RD 14)       0011003Rue de Fers-RD14    0010800000603000603590409500100000000000189      000000                                                                                                                                 120000008    0    110000008    0    100000008    0    090000008    0    080000008    0                                                                                                                                                   
590409500310013 03560 4110401Lille (Pont Fives)  0001089Lille (Rue de Flers)0010400DARWIN              0010000000955000955590409500100000000000189      000000                                                                                                                                 120000001    0    110000001    0    100000001    0    090000001    0    080000001    0                                                                                                                                                   
590408900310013 03560 4110601Hellemmes (R.Perrin)0000000Lille (RN 351)      0001089LOUIS_XIV_1         0000500001089001089590409500100000000000101      144570  62                                                                                                                             121571971    0    110000001    0    100000001    0    090000001    0    080000001    0                                                                                                                                                   
590408799310013 03490 4850201Tourcoing(Bd.Forest)0010000A22 (ech.Tourc.Nord)0010232Tourcoing Oouest    0010232000232000232590501200100000000000187      000000                                                                                                                                 120000008    0    110000008    0    100000008    0    090000008    0    080000008    0                                                                                                                                                   
590408400310013 00210 1110201Flers/Esc (RN 421)  0270557Waziers (RD 500)    0350000DOUAI-DORIGNIES     0310875007952007952590501200100000000000187      040673  887    037035   038959   039466   041818   041199   043250   041117   035866   043020   044154   042025   040165               120396481    7    110395621    7    100000001    0    090000001    0    080000001    0    038189   039153   040208   040065   039285   041782   039869   035008   041159   042224   040726   038245                                      
590406900310013 02270 4110401Pont de Bois        0030500Babylone            0051136LE CHATEAU          0040000002629002629590501200100000000000187      000000                                                                                                                                 120000001    0    110000001    0    100000001    0    090000001    0    080000001    0                                                                                                                                                   
590406800310013 02270 4110201Centre Ville        0011012Pont de Bois        0030500CITE SCIENTIFIQUE   0030000001558001558590501200100000000000187      000000                                                                                                                                 120000001    0    110000001    0    100000001    0    090000001    0    080000001    0                                                                                                                                                   
590406700310013 02270 41104014Cantons            0000000Centre Ville        0011012QUATRE-CANTONS      0010165001854001854590501200100000000000187      000000                                                                                                                                 120000001    0    110000001    0    100000001    0    090000001    0    080000001    0                                                                                                                                                   
590406500310013 02250 4810201Bergues (RD 916)    0000000Petite-Synthe(RD940)0100679Bierne              0030750010664010664590503502300000000000187      016658                                                                                                                                 120159168    0    110000008    0    100000008    0    090000008    0    080158238    0                                                                                                                                                   
590406199310013 00490 4850101Bavay (sortie devia)0950000Maubeuge (RN 2)     0980966Maubeuge            0980210003712003712          00000000000187      000000                                                                                                                                 120000008    0    110000008    0    100000008    0    090000008    0    080000008    0                                                                                                                                                   
590405700310013 00490 4810201Echang.de Marly(A2) 0660000Echang.de Curgies   0660840Saultain            0660200000840000840590001800300000000000187      031275                                                                                                                                 120324618    0    110000008    0    100000008    0    090000008    0    080000008    0                                                                                                                                                   
590403400310013 00410 4815001Echang 1            0120094Englos (A 25)       0161213Hallennes           0160515001963001963590403300100000000000501      000000                                                                                                                                 120000008    0    110000008    0    100000008    0    090000008    0    080000008    0                                                                                                                                                   
590403300310013 00410 4115001La Bassee (RN 47)   0030000Echang 1            0120094FOURNES             0100515009094009094590403300100000000000187      033221  698    030968   032590   032712   033909   033199   035047   033949   028757   035152   035678   034146   032551               120336581    8    110336851    8    100326311    8    090000001    0    080000001    0    032884   032196   033335   033183   032284   035563   033280   033836   035324   035708   034412   031923                                      
590403000310013 00474N4112001Douvrin (Lim 62)    0000000Illies              0020602LA_BASSEE           0010000002534002534590403300100000000000309      024620 1137    023364   024533   024725   024344   023860   025422   024775   022748   026898   026672   024696   023402               120249821 1177    110248651 1177    100000001    0    090000001    0    080000001    0    024419   023896   024231   024893   023600   026159   024907   025553   026195   026960   025624   023370                                      
590010800310013 00210 1813001Waziers RD 500      0350000Escaudain           0530800Abscon              0480000018719018719          00000000000613      000000                                                                                                                                 120000008    0    110000008    0    100000008    0    090000008    0    080000008    0                                                                                                                                                   
590009100310013 03550 4815001Lesquin (C.R.T.)    0040000Lesquin (A23)       0050755Lesquin             0040160001355001355590503902300000000000187      015977                                                                                                                                 120160898    0    110163588    0    100162848    0    090000008    0    080000008    0                                                                                                                                                   
590001800310013 00020 4115001Maubeuge (RN 49)    0300000Frontiere Belge     0361173BETTIGNIES          0350894006704006704590503902300000000000187      008654 1137    008094   008349   008564   008786   008812   008879   008798   008417   008612   008886   008979   008668               120089831 1147    110091901 1167    100000001    0    090000001    0    080098051    0    008567   009218   009103   009042   009101   009292   009123   008705   008992   009123   008934   008619                                      
590001700310013 00020 4113001Avesnes (RD 104)    0120101Echang 3            0210000ECLAIBES            0190950009899009899590503902300000000000187      013004 1267    011579   012121   012700   013525   013406   013870   013443   012153   013429   013801   013131   012873               120128181 1297    110126121 1247    100000001    0    090000001    0    080000001    0    012263   012367   012975   013075   012939   013613   012200   012235   013338   013537   013170   012138                                      
590001200310013 00020 4844001Avesnes (RD 951)    0100485Avesnes (RD 104)    0120101Avesnes Nord        0120744002371002371          00000000000187      000000                                                                                                                                 120000008    0    110000008    0    100000008    0    090000008    0    080000008    0                                                                                                                                                   
590001100310013 00020 4813001Larouillies (Lim 02)0000000Avesnes (RD951)     0100485Etroeugt            0060500010476010476590001700300000000000187      007230                                                                                                                                 120071278    0    110070138    0    100000008    0    090000008    0    080000008    0                                                                                                                                                   
510511200310013 00340 1113041RN 51               1000000RD 944              1100550MACECLIERS          1100300010529010529590001700300000000000799      020989 1077    018070   019731   021902   022319   020327   022375   021488   020509   022750   022858   020952   018609               120210581    0    110221071    0    100000001    0    090000001    0    080000001    0                                                                                                                                                   
510002900310013 00510 4117001Limite Ardennes     0000000Echang 24           0091020ISLES SUR SUIPPE    0030310010295010295590001700308000360030176      019481 1567    016906   018063   018719   019164   020332   020775   020454   019124   020836   020170   019740   019447               120197581 1490    110200991 1327    100000001    0    090000001    0    080185931 1327                                                                                                                                                   
510001700310013 00310 4113001Rond point Fismes   0010653A 34                0250313MUIZON              0160750024164024164590001700300000000000176      018796 1237    016974   017816   018497   019244   019073   020140   019547   016727   019827   019949   018994   018766               120190941 1297    110193501 1337    100190111 1307    090000001    0    080000001    0    018359   018626   019518   019384   019312   020847   017764   017151   020265   020347   019288   018340                                      
510001500310013 00310 4813001Limite Marne        0000000                    0010653Fismes Ouest        0010000001653001653510001700302000270030795      012742                                                                                                                                 120129458    0    110131198    0    100128908    0    090000008    0    080000008    0                                                                                                                                                   
080500900310013 00430 4110201Moulin Leblan       0410000Av De Gaulle        0441175LA CROISETTE        0420775004030004030510001700300000000000104      048940  447    045987   046697   048858   049995   050185   051885   046591   045654   051709   052474   049886   047392               120488841    7    110497771    7    100492601    7    090000001    0    080508541    7    047839   048260   050219   049255   048924   052632   044891   043830   050954   052477   049809   047703                                      
080500200310013 00340 1110241Ech Frénois         0170000Moulin Blanc        0320463VIVIER AU COURT     0250000015349015349510001700300000000000187      025759 1067    021491   024295   026378   026679   026703   028119   027612   024163   026701   026488   024550   025924               120250351 1077    110245371 1077    100264911    0    090000001    0    080000001    0    023020   025101   024695   026722   026787   027766   023062   023496   027124   026463   024264   022119                                      
080500110310013 10430 4810201RN 43               0110000Ech Frénois         0161083Bazeilles à Frenois 0130000006061006061080500200300000000000203      012404                                                                                                                                 120120548    0    110118158    0    100127568    0    090000008    0    080000008    0                                                                                                                                                   
080003800310013 00580 4110201Frontière belge     0000000RN 43               0101436LA CHAPELLE         0020000011696011696080500200300000000000104      006078 2127    004538   005017   005529   006187   006488   006477   007462   007571   006485   006110   005718   005350               120058161 2077    110059221 2147    100056371 2007    090000001    0    080000001    0    004699   004799   005493   005929   006214   006158   006638   007028   006306   005769   005699   005017                                      
080003600310013 00510 4110201RN 2051             0680000Limite Marne        0890423TAGNON              0840135023801023801080500200300000000000104      017324 1138                                                                                                                            120175721 1078    110177791    8    100174881 1108    090000001    0    080000001    0    015901   016159   017429   017740   017509   019206   017458   017421   018913   018435   017989   016727                                      
080002900310013 00340 1110241Poix Terron         0450514Bertoncourt         0670380FAISSAULT           0600000021866021866080500200300000000000305      010302 1447    008878   009577   010167   010788   010802   011281   010305   009580   011300   011033   009980   009928               120105441 1397    110108491 1327    100000001    0    090000001    0    080109651    0    009492   009943   010306   010622   010665   011343   010915   010598   011224   011156   010581   009696                                      
080002800310013 00340 1110241Moulin Blanc        0320463Poix-Terron         0450514YVERNAUMONT         0450100012980012980080500200300000000000104      013766    7                                                                                                                            120162971 1277    110167761 1267    100164811 1237    090000001    0    080158191 1237    015024   015284   016273   016772   016584   017872   016245   016029   017766   017549   016552   013672                                      
080002600310013 00510 4110201RD 98 Fumay         0410000RN 43 Piquet        0520164ROCROI              0420000010779010779080500200300000000000187      003091 2668                                                                                                                            120000001    0    110039481    0    100000001    0    090000001    0    080000001    0                                                                                                                                                   
080001200310013 00430 4113001Sortie Rocade       0460000RD 877 Mon Idee     0620831TOURNES             0500350017769017769080500200300000000000187      017729  928    016039   016832   017004   018214   018137   018716   018722   016476   018902   018701   017687   017309               120177691    7    110180191    7    100185881    7    090000001    0    080000001    0    016947   017910   017954   017770   017526   018841   017383   017122   018934   018574   017752   016600                                      
080000600310013 00430 4810201RD 4 Douzy          0290000A 34 Bazeilles      0300639Bazeilles           0290419001290001290          00000000000613      000000                                                                                                                                 120000008    0    110000008    0    100000008    0    090000008    0    080000008    0                                                                                                                                                   
020002700310013 00310 4113001Deviation de Braine 0390508Limite de la Marne  0440985BAZOCHES            0430750005015005015          51000150030187      010203 1978    009149   009939   010259   010911   010431   010509   010568   009537   010602   010617   009993   009940               120106511 1778    110108341 1748    100105961 1858    090000001    0    080109741 1838    009845   010302   010744   010901   010978   011422   010519   010693   011186   010830   010370   010043                                      
020002610310013 00310 4110201Ciry Salsogne RD 5310290120Deviation de Braine 0390508BRAINE              0340628010779010779          00000000000996      007992 2437    006839   007492   007621   008283   008016   008361   008478   007719   008439   008556   008056   008027               120081731 2457    110083831 2427    100000001    0    090000001    0    080083821    0    007601   007863   008313   008341   008265   008627   008137   008022   008596   008507   008169   007647                                      
020002600310013 00310 4813001RD 94 Mercin        0200000Ciry Salsogne RD 5310290120Venizel             0260326008763008763020002700300000000000187      014298                                                                                                                                 120149268    0    110151838    0    100148508    0    090000008    0    080153808    0                                                                                                                                                   
020002500310013 00310 4113001limite de l'Oise    0000000RN 2 Vauxbuin       0190270AMBLENY             0070500016839016839020002700360000570030187      008912 1537    008334   008280   008368   009015   009064   009499   009318   008577   009331   009555   008953   008622               120088251 1607    110090011 1627    100000001    0    090000001    0    080000001    0    008231   008480   008741   008897   009112   009349   008796   008922   009115   009102   008851   008309                                      
020001200310013 00020 4113001La Capelle RN 43    1160217limite du Nord      1220070LA FLAMENGRIE       1170970005900005900020002700359000100030187      004463 2837    003800   004108   004345   004682   004593   004767   004975   004588   004695   004641   004309   004033               120046151 2867    110048571 3007    100047641 2917    090000001    0    080000001    0    004197   004306   004627   004730   004723   005033   005157   004834   004809   004648   004448   003873                                      
020000900310013 00020 4113001Marle RD 946        0850924La Capelle RN 43    1160217LES BARAQUES        0930550029796029796020002700300000000000187      005048 2327    004315   004786   004864   005151   005072   005450   005520   005171   005267   005266   004995   004720               120051381 2397    110052891 2447    100000001    0    090000001    0    080000001    0    004640   004772   005156   005257   005113   005544   005411   005490   005351   005336   005074   004501                                      
020000800310013 00020 4113001Chambry RD 517      0660608Marle RD 946        0850924FROIDMONT           0780245019550019550020002700300000000000187      006819 1917    005901   006442   006614   007017   007017   007371   007086   007022   007242   007186   006740   006186               120070021    0    110000001    0    100000001    0    090000001    0    080067111 1908                                                                                                                                                   
020000700310013 00020 4813001carref. de l'escarg 0620732Chambry RD 517      0660608Chambry             0650200003537003537020000900300000000000187      009305                                                                                                                                 120094718    0    110097508    0    100000008    0    090000008    0    080000008    0                                                                                                                                                   
020000600310013 00020 4815001Carrefour Semilly   0570310carref. de l'escarg 0620732Ardon               0600600004943004943020000800300000000000187      000000                                                                                                                                 120000008    0    110000008    0    100000008    0    090000008    0    080000008    0                                                                                                                                                   
020000400310013 00020 4113001Crouy               0311019carrefour Semilly   0570310LAFFAUX             0400030025497025497020000800300000000000187      012836 1508    011226   012445   013148   013169   013234   013525   006144   006144   013803   014000   012745   012180               120130951 1300    110000001    0    100000001    0    090000001    0    080000001    0                                                                                                                                                   
020000303310013 00020 4813001RN 31               0281144Crouy               0311019Soissons            0291041003775003775020000302300000000000187      018013                                                                                                                                 120183718    0    110185018    0    100186128    0    090000008    0    080000008    0                                                                                                                                                   
020000302310013 00020 4110201Giratoire de Paris  0250832RN 31               0281144SOISSONS            0280040004212004212020000302300000000000187      022418 2117    018989   020588   020988   023172   022614   023338   023583   021007   023661   025491   023171   022347               120228631 2187    110230241 2197    100231611 2247    090000001    0    080000001    0    021148   021968   022512   022997   023496   024465   022054   022384   024175   024431   023352   021438                                      
020000300310013 00020 4110201Echang 2            0040464Giratoire de Paris  0250832VAUXBUIN            0240070021445021445020000302300000000000187      017240 1527    014568   016148   016555   017716   017437   018363   017999   017051   017868   018472   017905   016789               120171941 1677    110000001    0    100000001    0    090000001    0    080000001    0    015953   016726   017821   016805   017568   017566   016593   016244   018290   018534   017818   016431                                      
020000200310013 00020 4815001villers cot. rd 231 0020874villers cot. rd 231 0080104Villers Cotterêts   0060300005305005305020000300300000000000187      014821                                                                                                                                 120147828         110000008         100000008         090000008         080000008                                                                                                                                                        
020000100310013 00020 4810201Vauciennes          0000000Echang 2            0040464Villers Cotterets   0010280004472004472020000300360000090030187      017853                                                                                                                                 120178068    0    110000008    0    100000008    0    090000008    0    080000008    0                                                                                                                                                   