840149800310013 00860 4812001N 7 LA CROISIERE    0000000D63 A MOTTE DU RHONE0010929LA CROISIERE        0010132001977001977300107050300000000001090      010019                                                                                                                                 120096838         110100118         100097558         090096118    0    080097268    0                                                                                                                                                   
840149700310013 00860 4813001D63 A MOTTE DU RHONE0010929D994                0030200LA MOTTE DU RHONE   0020213001578001578300107050300000000000898      019644                                                                                                                                 120189858         110196278         100191248         090188428    0    080161668    0                                                                                                                                                   
840107050310013 00860 4813001RD 994              0030200LIM DEP             0040000PT_ST_ESPRIT_DEV    0040000001008001008300107050300000000000197      010072                                                                                                                                 120097348         110100638         100098058         090096608         080088058                                                                                                                                                        
840003800310013 01290 4813001N 7                 0000000N 7                 0000775AUTOROUTE AVI SUD   0000690000775000775840001400100000000000500      019284                                                                                                                                 120189338         110196558         100200148         090203798    0    080164078    0                                                                                                                                                   
840001400310013 00070 4117001Charles de Gaulle   0540000D 973               0611156CAUMONT_N7          0600176006996006996840001400100000000000493      039443  597    034181   033787   037779   040782   040754   042790   044634   039364   040940   039339   038972   039620               120382901         110404441         100408711         090413041         080411411    7    037132   035572   038953   039838   035048   040249   042968   037271   040189   039908   036821   035488                                      
840000400310013 00070 4815001EB 20 ORANGE        0270485D 977               0290060COURTHEZON NORD     0290000006372006372840000202300000000000490      015606                                                                                                                                 120157348         110172388         100177138         090182018    0    080221388    0                                                                                                                                                   
840000399310013 00070 4855001EB 10 ORANGE        0240000EB 20 ORANGE        0270485TRAVERSEE ORANGE    0250000003219000000840000202300000000000401      017903                                                                                                                                 120180508         110197768         100207588         090217888    0    080184908    0                                                                                                                                                   
840000300310013 00070 4813001D 976               0220000EB 10 ORANGE        0240000ENTREE NORD ORANGE  0220000002005002005840000202300000000000490      017457                                                                                                                                 120176008         110192838         100193178         090193518    0    080211788    0                                                                                                                                                   
840000202310013 00070 4112001A7 PIOLENC          0190200D 976               0220000ORANGE NORD         0190800002793002793840000202300000000001291      012214         010842   011023   011882   012033   012784   012830   013298   014365   012605   012140   011412   011237               120123141         110134911         100131681         090128511         080129221         011115   011071   011892   012270   012368   013021   013735   013898   012836   012441   011789   011273                                      
840000201310013 00070 4112001D 994               0050740A7 PIOLENC          0190200MONDRAGON SUD       0110088013449010468840000202300000000001191      011758  687    010021   010205   010969   011407   012272   012568   013672   014249   012105   012494   010667   010314               120116851  558    110119341    8    100116431         090122931    8    080133791    8    010271   010087   011078   011564   011652   012155   013866   013872   012321   011834   011007   010421                                      
840000100310013 00070 4115001LIMITE DROME        0000000D 994               0050740LAPALUD             0010500005786005786840000202326000250030390      009756         008155   008364   008925   009609   010294   010505   011742   012670   010104   009806   008579   008171               120091841         110098461 1937    100094991         090095971 195     080094181 1827    008057   008147   008958   008115   009313   009995   010213   011099   009841   009624   008732   008053                                      
830650200310013 05700 111 431LA CRAU             0030000HYERES              0070160LA CRAU             00604550041600041608400002023          0193      000000                                                                                                                                 120000001         110586501         100566531         090547451         080576641                                                                                                                                                        
830650100310013 05700 111 131LA GARDE            0000000LA CRAU             0030000LA BASTIDE          00009400030000030008400002023          0290      000000                                                                                                                                 120000001         110574861         100573581         090572301         080584081                                                                                                                                                        
830645500310013 00570 1110421PIERRE RONDE        0060655LA FARLEDE          0080700LA FARLEDE          0070875002170002170840000202300000000001287      000000                                                                                                                                 120000001         110707751         100708301         090708831         080718871                                                                                                                                                        
830645490310013 00570 1110441LA BIGUE            0040865PIERRE RONDE        0060655LA GARDE            0050966001773001773840000202300000000000189      000000                                                                                                                                 120000001         110858891         100850901         090846241         080894621                                                                                                                                                        
830645400310013 00570 1110431LES FOURCHES        0030785LA BIGUE            0040865LES FOURCHES        0040140001079001079840000202300000000001287      000000                                                                                                                                 120000001         110931581         100911781         090892391         080000001                                                                                                                                                        
830645200310013 00570 1110431TOMBADOU            0020565LES FOURCHES        0030785LA COUPIANE         0030125001217001217840000202300064530031287      000000                                                                                                                                 120000001         111150521         101062741         090984321         081098321                                                                                                                                                        
830645100310013 00570 1110431TOULON              0000000TOMBADOU            0020565LA PALASSE          0000793002569002569840000202300000000001287      000000                                                                                                                                 120000001         111042621         101033721         091024931         080000001    0                                                                                                                                                   
830616600310013 00500 1150441BON RENCONTRE       0680700VILLEVIEILLE TOULON 0690449BON RENCONTRE       0680765000639000639840000202300061660031287      000000                                                                                                                                 120000001         110622521         100759341         091042221         080689831                                                                                                                                                        
830616502310013 00500 1110441PONT DES GAUX       0000000BON RENCONTRE       0680700TOULON OUEST        0670776001085001085840000202300000000000290      000000                                                                                                                                 120000001         111028011         100974511         090925231         080951241    0                                                                                                                                                   
830616500310013 00500 1110421LA BEAUCAIRE        0660067PONT DES GAUX       0670634LA BEAUCAIRE        0660750001567001567840000202300000000001287      000000                                                                                                                                 120000001         110963581         100851131         090752051         080862791    0                                                                                                                                                   
830002799310013 00980 4856001A 570 HYERES        0000000EB10 HYERES         0100701HYERES OUEST        0100000001100001100830650200300000000000295      000000                                                                                                                                 120000008         110359958         100443918         090547458         080576648                                                                                                                                                        
480002200310013 01060 4812001LIMITE GARD         0000000INTER.D984-JALCRESTE0221003LE COLLET DE DEZE   0100800022038020321300003500300000000001287      002505                                                                                                                                 120025168         110025168         100024938         090025458    0    080024478    0                                                                                                                                                   
380003900310013 00850 4813001LA_MURE             0790000LIMITE HAUTES-ALPES 1030994SUD_ISERE           1000000025000024000050000900300000000000409      003312                                                                                                                                 120032918         110034648         100034798         090034998         080034508    0                                                                                                                                                   
380003800310013 00850 4113001VIZILLE             0560310LIMITE HAUTES-ALPES 1030997LAMURE              0730600050574050574050000900305000090010907      000000                                                                                                                                 120000001         110096841         100097561         090098281    7    080095261    7                                                                                                                                                   
340003702310013 01130 4813001VENDARGUES D65      0160150VENDARGUES LIMITE   0160912VENDARGUES LIMITE   0160700002797002197340003600300000000000180      023469                                                                                                                                 120239278         110259038         100264868         090235528    0    080227618    0                                                                                                                                                   
340003701310013 01130 4813001VENDARGUES A9       0150450VENDARGUES D65      0160150VENDARGUES A9 D65   0160000002797002197340003600300000000000180      043968                                                                                                                                 120448268         110485278         100496198         090441228    0    080387648    0                                                                                                                                                   
340003600310013 01130 4113001EB 20 LUNEL         0040630BAILLARGUES         0140750VALERGUES           0090000010811008088340003600300000000000490      014093  527    013304   013587   013646   014325   014299   014827   014906   014449   014244   014737   013477   013285               120143681         110155541    7    100159041         090141421         080142331         013907   013984   014343   014371   014641   015041   014963   014591   014738   014633   014000   013203                                      
340003399310013 01130 4813001EB 10 LUNEL         0010670EB 20 LUNEL         0040630LUNEL AGGLOMERATION 0030000002969000000340003300300000000000500      000000                                                                                                                                 120000008         110000008         100000008         090000008         080000008                                                                                                                                                        
340003300310013 01130 4113001LIMITE GARD         0000000EB10 LUNEL          0010670LUNEL               0010200001754001754340003300330000480030490      024203         020996   021825   022772   024465   025281   026358   028166   028254   024565   023348   022411   021793               120241441         110238651    8    100236571         090248731         080232051         021180   021223   023468   024186   025135   026589   027860   028230   024774   023527   021747   021650                                      
300107050310013 00860 4113001RN 086              0040000RD 994              0050000PT_ST_ESPRIT_DEV    0040000001352001352340003300300000000000197      010072         008743   008993   009424   010220   010307   010824   011943   011545   010603   009959   009110   009111               120097341         110100631 8158    100098051         090096601    8    080088051 1218    008986   009138   009559   009920   009624   010457   010846   010629   009637   009936   009163   008878                                      
300006600310013 05800 4812001RD 980 PONT DE NIZON0120606A9 ROQUEMAURE       0190085ST LAURENT DES ARBRE0180844006081006081300006500300000000000589      011125                                                                                                                                 120112268         110113208         100115558         090116078    0    080129078    0                                                                                                                                                   
300006501310013 05800 4812001RD 765A ORSAN       0050834RD 980 PONT DE NIZON0120606L'ARDOISE           0090903006732005703300006500300000000000589      012101                                                                                                                                 120122118         110123138         100125698         090126258    0    080128308    0                                                                                                                                                   
300006500310013 05800 4112001EB 20 BAGNOLS/CEZE  0020980RD 765A ORSAN       0050834BAGNOLS EST         0020980002844002844300006500300000000000589      013852  557    012999   013273   013398   014033   013782   014699   015489   013842   014170   014248   013322   012937               120139771         110140931         100143851         090144491         080143261    7    013325   013129   014101   013802   013958   014994   015312   014076   014048   014268   013685   012994                                      
300006100310013 05800 4842001RN86 BAGNOLS / CEZE 0000000EB 20 BAGNOLS/CEZE  0020980AGGLO BAGNOLS RN 5800000500003748000000300006500300000000000589      009920                                                                                                                                 120100108         110100948         100103048         090103508    0    080096188    0                                                                                                                                                   
300004801310013 01130 4812001RN 572              0490420LIMITE HERAULT      0490798PONT / VIDOURLE     0490798000378000378340003300300000000000189      024203                                                                                                                                 120241448         110238658         100236578         090248738         080232058    0                                                                                                                                                   
300004800310013 01130 4812001A9 RN 313           0470480RN 572              0490420GALLARGUES          0490000001931001931300004700300000010030589      018607                                                                                                                                 120186898         110184858         100183958         090191998    0    080214548    0                                                                                                                                                   
300004700310013 01130 4112001RD 139 VERGEZE      0420395A.9 RN 313          0470480CODOGNAN            0430540005085004465300004700300000000000589      010909         009459   009999   010285   011004   011197   011884   012547   013019   011226   010631   010019   009571               120109571         110108371         100107841         090112551         080110681         009718   009767   010712   011018   011245   012021   012548   012722   011314   010598   010212   009552                                      
300004601310013 01130 4113001RD 14 BERNIS        0360391RD 139 VERGEZE      0420395BERNIS              0360480006662006662300004700300000000000589      016941         015295   016028   016315   017114   017093   018036   019042   018766   017111   016851   015949   015618               120173391         110176771         100176631         090181371         080180191         016112   016159   017285   017396   017895   018814   018930   019107   017596   016865   016246   015618                                      
300004600310013 01130 4812001EB20 NIMES          0320195RD 14 BERNIS        0360391DEVIATION DE MILHAUD0330000005034005034300004601300000000000589      018437                                                                                                                                 120188718         110192398         100192248         090197408    0    080185688    0                                                                                                                                                   
300004599310013 01130 4857001A9 N106             0290820EB 20 NIMES         0320195NIMES PERIPH SUD OUE0310000002408000000300004601300000000000301      023389                                                                                                                                 120239398         110244068         100243878         090250428    0    080240038    0                                                                                                                                                   
300003500310013 01060 4112001LA GRAND COMBE      0570400LIMITE LOZERE       0660828SAINTE CECILE       0650200009457006617300004601300000220030290      003005         002013   002080   002395   002775   003176   003180   004063   004726   003228   003319   002713   002296               120030171         110030171         100029891         090030511         080029411    7    002177   002123   002501   002864   003117   003225   004135   004597   003376   003244   002555   002230                                      
300003400310013 01060 4112001EB20 ALES           0470000LA GRAND COMBE      0570400ST_MARTIN_VALG      0490800010324008844300004601300000000000290      010567  358    009457   009550   009940   010465   010678   010998   011459   011490   010899   011377   010364   010042               120105561  348    110105991    8    100104431         090103791         080101181    8    009763   009520   010333   010419   010631   011158   011219   011313   011070   011052   010255   009897                                      
300003399310013 01060 4852001EB10 ALES           0390707EB20 ALES           0470000ALES                0450000005617000000300003400300000000000589      013431                                                                                                                                 120134188         110134738         100132758         090131948    0    080120558    0                                                                                                                                                   
300003300310013 01060 4112001RD 982 PONT DE NERS 0270300EB10 ALES           0390707SAINT HILAIRE       0380700012257010167300003400300000000000589      000000                                                                                                                                 120185541         110182221         100181741         090181311    8    080177461    8    017808   017243   018946   019020   019087   020069   020470   019360   018553   018298   017261   016465                                      
300003201310013 01060 4110101RD 8 BRIGNON        0220000RD 982 PONT DE NERS 0270300BOUCOIRAN           0270000006332004632300003400300000000000301      000000                                                                                                                                 120000001         110155091         100151281         090145531         080137811    0                                                                                                                                                   
300003200310013 01060 4110201RD 982 MOUSSAC      0140500RD 8 BRIGNON        0220000SAINT GENIES        0170750007338007338300003400300000000000589      017162  757    014567   015362   015901   017378   017457   018153   019302   019199   018219   017229   016978   016092               120157991         110164401         100159601         090148601    0    080058361    8    015424   014991   016481   015930   015741   015921   016697   016878   015729   016066   015390   014285                                      
300003000310013 01060 4112001RD 907              0050300RD 22 LA CALMETTE   0140500NIMES NORD          0050370008022008022300003400300000000000589      027652  517    025385   026286   026794   028277   028162   028946   028612   028814   028727   028730   026802   026233               120276821         110274741         100275381         090277861         080268741    0    026005   025557   027468   027919   027143   028280   029858   028393   028459   028831   028167   026030                                      
300002900310013 01060 4812001EB20 NIMES          0020812RD 907              0050300GUIRAUDON           0040000003810003810300003000300000000000589      025281                                                                                                                                 120253098         110251198         100251788         090254058    0    080279568    0                                                                                                                                                   
300002899310013 01060 4857001RN 113              0000000EB20 NIMES          0020812PERIPHERIQUE W NIMES0020000003674000000300003000300000000000589      032843                                                                                                                                 120328798         110326328         100327098         090330048    0    080371718    0                                                                                                                                                   
300002700310013 01000 4110201RN 580              0150900LIMITE VAUCLUSE     0190640LES ANGLES          0190500003732003732300003000300000000000290      000000                                                                                                                                 120000001         110466411         100477291         090000001         080485311                                                                                                                                                        
300002600310013 01000 4112001RD 976              0070653RN 580              0150900ROCHEFORT           0140500008238008238300003000300000000000589      019836  787    017486   018250   019180   020455   020836   021767   023649   022024   019499   019150   017769   017815               120202541         110206241         100205091         090204161         080200041    0    017592   017462   019345   020279   020564   021958   024605   023177   020696   020010   018958   018251                                      
300002500310013 01000 4112001A 9 RD 192          0020000RD 976              0070653ESTEZARGUES         0060800005056005056300003000300000000000589      018707  887    015948   016645   017535   019038   019619   020643   022839   022183   019002   017964   016556   016332               120188821         110193511         100193751         090191921 124     080184441 1000    015973   015875   017953   018929   019448   020853   023529   021989   019685   018313   017347   016539                                      
300000701310013 00860 4842001RD 980              0120860RD 43               0130786AGGLO BAGNOLS RN 86 0130200002503000000300000700300000000000192      032641                                                                                                                                 120324038         110278218         100278338         090278458    0    080256038    0                                                                                                                                                   
300000700310013 00860 4142001EB 20 PONT ST ESPRIT0050000RD 980              0120860BAGNOLS NORD        0120857007907006709300000700300000000000589      017387  857    015536   016025   016726   017543   018036   018560   018899   019628   017974   017594   015979   016037               120172601         110148191         100172961         090173031    8    080170941    8    015731   016050   016977   017491   017827   018021   018786   019165   017644   017266   016388   015716                                      
130645000310013 05170 1110231A 51                0000000A7                  0001160LIAISON A51 A7BN    0000000001160001160300000700300000000000589      000000                                                                                                                                 120000001         110415411         100405001         090395131         080454871                                                                                                                                                        
130644000310013 05160 1110231A 51                0000000A8                  0000915LIAISON A51 A8      0000000000915000915300000700300000000000589      000000                                                                                                                                 120000001         110000001         100000001         090000001         080000001                                                                                                                                                        
130643000310013 05150 1110231A 51                0000000D6                  0010242LIAISON A51 D6      0000000001197001197300000700300000000000589      000000                                                                                                                                 120000001         110480921         100457221         090434971         080479481                                                                                                                                                        
130642000310013 05520 1110231A 55                0000000A7                  0001620LIAISON A7BN A55    0000000001620001620300000700300000000000589      000000                                                                                                                                 120000001         110352711         100337301         090323421         080355171                                                                                                                                                        
130641000310013 05510 1110231A 55                0000000A7                  0001177LIAISON A7N A55L    0000000001177001177300000700300000000000589      000000                                                                                                                                 120000001         110000001         100000001         090000001         080000001                                                                                                                                                        
130640000510013 05570 1153031A 55                0000000ARENC               0010500LIAISON A7 A55      0000000001500001500300000700300000000000589      000000                                                                                                                                 120000001         110157891         100147731         090138221         080157131    0                                                                                                                                                   
130636700310013 00550 1810241MARTIGUES NORD      0370980RN 568.             0381061MARTIGUES NORD      0380500001080001080130007000300000000000589      000000                                                                                                                                 120000008         110742608         100745378         090000008         080746968                                                                                                                                                        
130636600310013 00550 1810241MARTIGUES SUD       0360400MARTIGUES NORD      0370980MARTIGUES SUD       0370500001584001584130007000300000000000589      000000                                                                                                                                 120000008         110778808         100781668         090000008         080783418                                                                                                                                                        
130636500310013 00550 1810241MARTIGUES CENTRE    0330190MARTIGUES SUD       0360400MARTIGUES CENTRE    0350100003280003280000000000000000000000589      000000                                                                                                                                 120000008         110554898         100559658         090000008         080562838                                                                                                                                                        
130636400310013 00550 1810241LA MEDE OUEST       0310650MARTIGUES CENTRE    0330190LA MEDE OUEST       0320000001471001471000000000000000000000589      000000                                                                                                                                 120000008         110688048         100694038         090000008         080697938                                                                                                                                                        
130636300310013 00550 1810241LA MEDE EST         0290400LA MEDE OUEST       0310650LA MEDE EST         0300000002251002251000000000000000000000589      000000                                                                                                                                 120000008         110630218         100635748         090000008         080639368                                                                                                                                                        
130636200310013 00550 1810241CARRY               0240130LA MEDE EST         0290400CARRY               0250000005274005274000000000000000000000589      000000                                                                                                                                 120000008         110503058         100507448         090000008         080510298                                                                                                                                                        
130636100310013 00550 1810241LES PIELETTES       0200495CARRY               0240130LES PIELETTES       0220000003421003421000000000000000000000589      000000                                                                                                                                 120000008         110583178         100588148         090000008         080591458                                                                                                                                                        
130636001310013 00550 1810241JONCTION A7 NORD    0140000LES PIELETTES       0200495REBUTY PMV          0160474006078006078130635800300000000000589      070453                                                                                                                                 120000008         110710638         100760288         090802298         080770008    0                                                                                                                                                   
130636000310013 00550 1810241JONCTION A7 NORD    0140000LES PIELETTES       0200495GIGNAC              0150500006078006078130635800300000000000589      000000                                                                                                                                 120000008         110686018         100739188         090802298         080736348    0                                                                                                                                                   
130635901310013 00550 1110231JONCTION A7 SUD     0120880JONCTION A7 NORD    0140000JONCTION A7 SUD NORD0140000001115001115          00000000000589      000000                                                                                                                                 120000001         110191781         100181191         090000001         080174421    0                                                                                                                                                   
130635900310013 00550 1110231GD LITTORAL         0070150JONCTION A7 SUD     0120880GD LITTORAL         0070279007244007244          00000000000191      000000                                                                                                                                 120000001         110666791         100611271         090636181         080638831                                                                                                                                                        
130635800310013 00550 1110231MIRABEAU            0050620GD LITTORAL         0070150VERDURON            0070279007244007244          00000000000191      000000                                                                                                                                 120000001         110574701         100617951         090673341         080630861                                                                                                                                                        
130635600310013 00550 1110231CAP JANET           0040660MIRABEAU            0050620CAP JANET           0050000000960000960          00000000000589      000000                                                                                                                                 120000001         110633561         100659101         090687361         080671491    0                                                                                                                                                   
130635400310013 00550 1110431CAP PINEDE          0030460CAP JANET           0040660CAP PINEDE          0040305001200001200          00000000000589      000000                                                                                                                                 120000001         110505131         100625701         090803401         080553111    7                                                                                                                                                   
130635300310013 00550 1150231ARENC               0020060CAP PINEDE          0030460ARENC               0020800001406001406          00000000000589      000000                                                                                                                                 120000001         110689141         100657751         090627851         080653471    0                                                                                                                                                   
130635200410013 00550 1150231ARENC               0010349JOLIETTE            0020060JOLIETTE.           0020000000462000462          00000000000589      038207                                                                                                                                 120000001         110404281         100394811         090385561         080392391    7                                                                                                                                                   
130635100510013 00550 1111031PORT                0010000JOLIETTE            0020060JOLIETTE            0010442000160000160          00000000000589      037467                                                                                                                                 120000001         110457601         100417171         090380311         080414391    7                                                                                                                                                   
130620900310013 00510 1850231RACCORDEMENT A.8.   0160515AIX-OUEST(Z.A.C.)   0170826RAC.A8-AIX-OUEST ZAC0170000001319001319130620500300000000000589      000000                                                                                                                                 120000008         110892668         100857758         090824268         080836688    0                                                                                                                                                   
130620800310013 00510 1850231AIX-CENTRE          0150770RACCORDEMENT A.8    0160515AIX-CENTRE          0160200000751000751130620500300000000000589      000000                                                                                                                                 120000008         110787028         100767948         090749348         080742218    0                                                                                                                                                   
130620700310013 00510 1810441LES MILLES          0140720AIX-CENTRE          0150770LES MILLES          0150000001358001358130620500300000000000589      000000                                                                                                                                 120000008         111094938         101052278         091011258         081001418    0                                                                                                                                                   
130620690310013 00510 1810241LUYNES              0130325LES MILLES          0140720LUYNES PMV          0140000001393001393130620500300000000000189      000000                                                                                                                                 120000008         110668548         100642358         090617188         080610758    0                                                                                                                                                   
130620500310013 00510 1110241LES 3 PIGEONS       0100135LUYNES              01303253 PIGEONS-LUYNES    0100300003191003191130620500100000000000589      060957                                                                                                                                 120000001         110573351         100560811         090548591         080543271    7                                                                                                                                                   
130620400310013 00510 1110241LES CHABAUDS        0050035LES 3 PIGEONS       0100135CABRIES MARIUS      0060100005116005116130620500100000000000589      000000                                                                                                                                 120000001         110717921         100698851         090683161         080671981    7                                                                                                                                                   
130620300310013 00510 1110241PLAN DE CAMPAGNE    0020925LES CHABAUDS        0050035BOUC BEL AIR        0050000002111002111130620500100000000000589      000000                                                                                                                                 120000001         111057831         101108031         091118101         081105661    0                                                                                                                                                   
130620200310013 00510 1110431BRETELLE A 7        0010080PLAN DE CAMPAGNE    0020925BRETELLE A7-PLAN DE 0020000001848001848130620500100000000000589      000000                                                                                                                                 120000001         111254061         101198411         091204711         081204071    0                                                                                                                                                   
130620100310013 00510 1110441SEPTEMES (A 7)      0000000BRETELLE A7         0010080SEPTEMES            0000300000967000967130620500100000000001192      000000                                                                                                                                 120000001         110823931         100814381         090805171         080979121    0                                                                                                                                                   
130618100310013 05020 1110231AUBAGNE SUD (A 50)  0000000AUBAGNE EST (D 559A)0010619AUBAGNE GEMENOS     0000500001601001601130620500100000000000589      000000                                                                                                                                 120000001         110275271         100278291         090268491         080264211    0                                                                                                                                                   
130617200310013 05010 1150231AUBAGNE OUEST       0000840AUBAGNE NORD        0020589AUBAGNE NORD        0020000001780001780130620500100000000000589      000000                                                                                                                                 120000001         110311061         100308241         090306991         080310871    0                                                                                                                                                   
130617100310013 05010 1150231AUBAGNE (A 50)      0000000AUBAGNE OUEST       0000840AUBAGNE OUEST       0000800000840000840130620500100000000000589      000000                                                                                                                                 120000001         110428151         100425701         090415841         080418791                                                                                                                                                        
130615600310013 00500 1150231AUBAGNE (A 501)     0120880AUBAGNE (A 502)     0150303AUBAGNE OUEST       0140000002413002413130620500100000000000589      000000                                                                                                                                 120000001         110713641         100708181         090700331         080696831                                                                                                                                                        
130615500310013 00500 1110431LA PENNE            0100495AUBAGNE (A 501)     0120880AUBAGNE OUEST       0110820002392002392130620500100000000000589      000000                                                                                                                                 120000001         111107171         101078061         091050061         081072041    7                                                                                                                                                   
130615490310013 00500 1110431LA VALENTINE        0070507LA PENNE            0100495LA PENNE            0090316002990002990130620500100000000000589      000000                                                                                                                                 120000001         111106401         101021991         090948691         080937391    7                                                                                                                                                   
130615300310013 00500 1110431LA POMME            0020000LA VALENTINE        0070507LA VALENTINE        0050000004635004635130620500100000000000589      000000                                                                                                                                 120000001         111249471         101248461         091247451         081210331    7                                                                                                                                                   
130615200310013 00500 1110431MENPENTI            0000000LA POMME            0020000MENPENTI            0010000002260002260130620500100000000000589      000000                                                                                                                                 120000001         110891951         100901871         090909101         080843521    7                                                                                                                                                   
130602600310013 00070 1110431PLOMBIERES          2800130ST CHARLES          2820100PLOMBIERES ST CHARLE2810000001975001975130620500100000000000589      000000                                                                                                                                 120000001         110740841         100782681         090831251         080781431    7                                                                                                                                                   
130602500310013 00070 1110431LA ROSE             2780915PLOMBIERES          2800130LA ROSE             2800000001210001210130620500100000000000589      000000                                                                                                                                 120000001         110874141         101071411         090000001         081125341                                                                                                                                                        
130602300310013 00070 1110431LES AYGALADES       2750080M.I.N.ARNAVAUX      2780915LES  AYGALADES      2760000003402003402130620500100000000000589      000000                                                                                                                                 120000001         113219171         101342731         091363901         081372021                                                                                                                                                        
130602200310013 00070 1110431ST ANTOINE          2730510LES AYGALADES       2750080SAINT ANTOINE       2740000001570001570130620500100000000000589      000000                                                                                                                                 120000001         111395311         101423401         091452061         081426141                                                                                                                                                        
130602100310013 00070 1110431A 51 SUD            2710620ST ANTOINE          2730510SEPTEMES TRON COMMUN2720000001894001894130620500100000000000589      000000                                                                                                                                 120000001         111423471         101354421         091402921         081393651                                                                                                                                                        
130602000310013 00070 1110231A 51 NORD           2700585A 51 SUD            2710620SEPTEMES A 7        2700833001025001025130620500100000000000589      000000                                                                                                                                 120000001         110504371         100586911         090596381         080518261    0                                                                                                                                                   
130601901310013 00070 1110431PENNES MIRABEAU     2690000A 51 NORD           2700585PENNES MIRABEAU     2700000000860000860130620500100000000000589      000000                                                                                                                                 120000001         110874231         100882771         090877621         080860261    0                                                                                                                                                   
130601900310013 00070 1110341A55 SUD             2670280LES PENNES MIRABEAU 2690000A55 LES PENNES      2680000002450002450130620500100000000000989      000000                                                                                                                                 120000001         110991821         101000741         091014441         080987851    0                                                                                                                                                   
130601800310013 00070 1110241A 55 NORD           2651040A 55 SUD            2670280LES PENNES CRICR    2660500001363001363130620500100000000000589      000000                                                                                                                                 120000001         110653571         100697871         090000001         080728931 1110                                                                                                                                                   
130601700310013 00070 1110441SORTIE L'AGAVON     2650000A 55 NORD           2651040L'ANJOLY            2650500001040001040130620500100000000000589      000000                                                                                                                                 120000001         111123401         101094211         091098451         081107061    0                                                                                                                                                   
130601690310013 00070 1110231RN 113              2640300SORTIE L'AGAVON     2650000L AGAVON PMV        2640650000593000593130620500100000000000589      000000                                                                                                                                 120000001         111084271         101071831         090000001         081065441    7                                                                                                                                                   
130601600310013 00070 1810231MARIGNANE           2620120RN 113              2640000MARIGNANE           2640000002187002187130601690300000000000589      000000                                                                                                                                 120000008         110799348         100788978         090000008         080784448                                                                                                                                                        
130601500310013 00070 1810241VITROLLES Z.I.      2610270MARIGNANE           2620120CARREFOUR VITROLLES 2610800000849000849130601690300000000000589      000000                                                                                                                                 120000008         110517888         100510838         090000008         080507748                                                                                                                                                        
130601400310013 00070 1810241VITROLLES           2590570VITROLLES Z.I.      2610270VITROLLES NORD SUD  2600500001705001705130601690300000000000589      000000                                                                                                                                 120000008         110572798         100567898         090000008         080564648                                                                                                                                                        
130601300310013 00070 1810241BERRE               0000000VITROLLES           2590570ROGNAC              2550450005750005750130601690300000000000589      000000                                                                                                                                 120000008         110632138         100622308         090000008         080615818                                                                                                                                                        
130016200310013 15690 4813001RD 5                0080600MIRAMAS             0120994DEV MIRAMAS         0110400004393004393130007000300000000000193      000000                                                                                                                                 120000008         110115168         100112848         090000008         080111318                                                                                                                                                        
130016100310013 15690 4813001GIRATOIRE DU TUBE   0030868RD 5                0080600TRANSHUMANCE        0050200004733004733130007000300000000000193      000000                                                                                                                                 120000008         110163988         100160678         090000008         080158498                                                                                                                                                        
130016000310013 15690 4813001RN 569              0000000GIRATOIRE DU TUBE   0030868TUBE SUD            0020100003569003569130007000300000000000193      000000                                                                                                                                 120000008         110195378         100191428         090000008         080188828                                                                                                                                                        
130010200310013 15470 4853001RN547               0060000FIN RESEAU ETAT     0080920MARSEILLE 1547      0060000002847000000          00000000000600      000000                                                                                                                                 120000008         110000008         100000008         090000008         080000008    0                                                                                                                                                   
130009600310013 05720 4115001A 54  VC 114        0090000LE VITTIER          0121380ARLES OUEST 572     0100000005108005108          00000000000589      000000                                                                                                                                 120000001         110379621         100381771         090000001         080000001                                                                                                                                                        
130008600310013 05690 4812001EB20  ISTRES        0190000RN 568              0230939ECOLE DE POLICE     0200000004805004805130007000300000000001295      000000                                                                                                                                 120000008         110106948         100104798         090000008         080103378                                                                                                                                                        
130007700310013 05690 4852001EB10  MIRAMAS       0040000EB20  MIRAMAS       0050750MIRAMAS             0040500001206000000000000000000000000000589      000000                                                                                                                                 120000008         110000008         100000008         090000008         080000008                                                                                                                                                        
130007600310013 05690 4812001RN 113              0000000EB10  MIRAMAS       0040000LE MERLE SUD        0010000004104004104130007000300000000000589      000000                                                                                                                                 120000008         110095818         100097878         090000008         080099268                                                                                                                                                        
130007101310013 05680 4852001EB10  MARTIGUES     0340700A55 FIN BDR RN      0351263MARTIGUES           0340000001628001628130007000300000000000589      000000                                                                                                                                 120000008         110758208         100751448         090000008         080746968                                                                                                                                                        
130007100310013 05680 4810201RD 50B PORT DE BOUC 0320026EB10  MARTIGUES     0340700CROIX SAINTE        0330500002647000000130007000300000000000589      000000                                                                                                                                 120000008         110512828         100511838         090000008         080511178                                                                                                                                                        
130007000310013 05680 4110201RN 545              0280867RD 50B PORT DE BOUC 0320026FOS EST             0300500003258003050130007000100000000000595      000000                                                                                                                                 120000001         110449681         100436671         090424731 137     080437321 1217                                                                                                                                                   
130006900310013 05680 4817001RN 569              0260673RN 545              0280867GENDARMERIE DE FOS  0270000002158002158130007000300000000000589      000000                                                                                                                                 120000008         110325758         100323398         090000008         080321878                                                                                                                                                        
130006800310013 05680 4810201RN 569              0240865RN 569              0260673VALIN ARLES         0260000001780001780130007000300000000000589      000000                                                                                                                                 120000008         110270198         100268208         090000008         080266918                                                                                                                                                        
130006700310013 05680 4810201RN 268              0200950RN 569              0240865LA FEUILLANE        0220900004119004119130007000300000000000589      000000                                                                                                                                 120000008         110278498         100267008         090000008         080259098                                                                                                                                                        
130006600310013 05680 4110201RN 113              0000000RN 268              0200950ARLES THIBERT       0040500020558020558130007000100000000000589      000000                                                                                                                                 120000001         110172821         100179531         090000001         080184131 1260                                                                                                                                                   
130006399310013 05470 4152001MARSEILLE           0050000N1547               0050957MARSEILLE 547       0050500000957000957130007000100000000000600      000000                                                                                                                                 120000001         110302341         100298841         090295481         080298361    7                                                                                                                                                   
130005000310013 02960 4110201RN 7                0020000RN 96               0051040AIX ROCADE NORD     0040000003186003117130007000100000000000294      000000                                                                                                                                 120000001         110614881         100599821         090601621    8    080594181                                                                                                                                                        
130004900310013 02960 4810201AX OUEST (A 51)     0000000RN 7                0020000ROCADE OUEST AIX    0000500002267001573130005000300000000000589      000000                                                                                                                                 120000008         110691358         100669538         090678498         080670318                                                                                                                                                        
130004500310013 01130 4810201ARLES EST RN 570    0760100RD 570              0781239PONT D'ARLES        0781000003376003376130004300300000000000589      000000                                                                                                                                 120000008         110617088         100626548         090000008         080000008                                                                                                                                                        
130004400310013 01130 4810201RN 568              0670630ARLES EST RN 570    0760100LES CANTARELLES     0690600008462008462130004300300000000000589      000000                                                                                                                                 120000008         110504128         100511838         090000008         080000008                                                                                                                                                        
130004300310013 01130 4113001RN 1453             0640800RN 568              0670630ARLES HIPPOLYTE     0660600003037003037130004300100000000000589      000000                                                                                                                                 120000001         110340441         100345661         090000001         080000001                                                                                                                                                        
130004202310013 01130 4810201RD 24               0620440RN 1453             0640800DEV ST MARTIN       0620500002346002346130004300300000000000394      000000                                                                                                                                 120000008         110330248         100333708         090000008         080000008                                                                                                                                                        
130004201310013 01130 4810201RN 1453             0600000RD 24               0620440RD 24 EST           0600000002823002823130004300300000000000394      000000                                                                                                                                 120000008         110000008         100000008         090000008         080000008                                                                                                                                                        
050003300310013 00940 4113001SORTIE MONTGENEVRE  1730390LIMITE FRONTIERE    1740834POSTE P.A.F         1740600001451001451130004300100000000001287      003015  837    003587   003325   003447   002701   001861   002202   004189   006204   002031   001714   001832   003007               120027781  777    110029091    7    100028611         090029631    7    080031831    7    003206   003189   003067   002542   001518   002101   003910   005695   002057   001523   001727   002737                                      
050003220310013 00940 4113001AGGLO BRI NORD      1720580SORTIE MONTGENEVRE  1730390MTG TREMIE          1730120010980009660130004300100000000001287      003197  628    003267   003627   003667   002854   001949   002244   004875   006531   002222   001825   001947   003280               120030841  677    110031791    8    100026181         090025981    8    080025641    8    003749   003610   003659   002761   001669   002432   004345   006018   002294   001710   001927   002768                                      
050003200310013 00940 4113001AGGLO BRI NORD      1620412SORTIE MONTGENEVRE  1720580COL MTG             1640150010980009660130004300100000000001287      006022  597    005628   006076   005888   004999   004354   005760   009696   009839   005519   004704   004212   005482               120058541  577    110059661    8    100058731         090059721    8    080058621    8    005209   006055   006133   004941   004161   005606   008533   010644   005130   004383   004245   005107                                      
050003199310013 00940 4813001CARREF.RN91 CH.MARS 1610905AGGLO BRI NORD      1620412LA VACHETTE         1620050000511000000050003200300000000001287      008494                                                                                                                                 120082588         110084178         100082868         090084268         080082718                                                                                                                                                        
050003099310013 00940 4843001CARREF.CD994F AGGLO 1600586CARREF.RN91 CH.MARS 1610905BRIANCON AV FORGUES 1610000001339000000050002700300000000001287      000000                                                                                                                                 120016738         110017188         100033938         090034618         080067078                                                                                                                                                        
050002899310013 00940 4843001CARREF.CD2 BRIAN.   1590079CARREF.CD994F AGGLO 1600586BRIANCON AV PROVENCE1590600001550000000050002700300000000001287      000000                                                                                                                                 120037718         110038728         100076448         090077978         080151098                                                                                                                                                        
050002700310013 00940 4113001CARREF.CD994E       1440520CARREF.CD2 BRIAN.SUD1590079PRELLES             1520700014248012943050002700300000000000189      000000                                                                                                                                 120039081 1047    110040121 1067    100079191         090000001 1037    080076481 1080    003418   003778   004011   003467   003454   004110   005129   005750   003774   003420   003209   003333                                      
050002600310013 00940 4113001CARREF.CD902A GUIL. 1280350CARREF.CD994E       1440520ARGENTIERE          1430800015594013008050002700300000000001287      006331  927    005536   006252   006118   005621   005889   006026   009300   009193   006085   005428   004958   005466               120064351  917    110063361    7    100062851         090062461    7    080061321    7    005437   006035   006617   005699   005552   006502   009013   009939   006431   005628   004919   005349                                      
050002502310013 00940 4113001RD 263              1140440RD 902 A            1280350GUILLESTRE N94      1270234009874009291050002700300000000000199      008990  637    008465   009594   009050   007803   007544   008567   012195   013485   008149   007690   007084   008177               120088491  637    110091141    8    100089471         090091151    7    080089441    8    008264   009107   009856   007786   007295   008568   011939   013281   008069   007327   006801   007781                                      
050002501310013 00940 4813001EMBRUN-SUD          1080800EMBRUN-NORD         1140440DEV_EMBRUN          1140000005640005640050002502300000000000409      000000                                                                                                                                 120000008         110000008         100000008         090000008         080000008    0                                                                                                                                                   
050002500310013 20940 4113001FIN AGLO NORD EMBRUN1120659CARREF.CD263        1170420EMBRUN NORD         1130900004776004776050002502300000000001287      006442  947    003973   007759   005534   006094   004766   006808   008076   011325   006463   005682   004817   006084               120056701  877    110033871    7    100032981         090034421    7    080037331    7    002818   003033   003201   004177   005687   005787   009797   011145   006357   005593   005169   005063                                      
050002499310013 20940 4843001AGGLO SUD EMBRUN    1100195AGGLO NORD EMBRUN   1120659AGGLO EMBRUN        1100200002359000000050002500300000000000191      007696                                                                                                                                 120067748         110040478         100039418         090041148         080044628    0                                                                                                                                                   
050002400310013 00940 4113001CARREF.CD954 BARCELO0980880AGGLO SUD EMBRUM    1080800SAVINES-CROTS       1070546008803008015050002500300000000001287      013843  607    012025   013821   013095   011886   011740   013285   020809   022111   012566   011696   010640   012206               120136641  607    110139261    7    100135551         090136941    7    080133761    7    012201   013350   014182   011451   011671   013445   019645   021652   012532   011307   010688   011607                                      
050002200310013 00940 4113001CARREF.CD942 MONTGAR0820090CARREF.CD954 BARCELO0980880CAR MONGARDIN       0820150016673015996050002500300000000001287      014243  837    012874   014850   014349   012950   012857   014099   018206   019720   013322   012735   011717   013145               120139561  827    110142951    7    100139341         090139321    7    080136391    7    013146   014319   014442   012583   012452   014177   017908   019260   013243   012428   011469   011928                                      
050002199310013 00940 4853001CARREF.MUSEE        0700000SORTIE GAP EST AGGLO0720245AVENUE EMBRUN       0710000002042000000050002100300000000001287      019576                                                                                                                                 120193728         110196168         100193688         090192368         080189608                                                                                                                                                        
050002100310013 00940 4113001SORTIE GAP EST AGGLO0720245CARREF.RD 942       0820090GAP EST N94         0750800009851009489050002100300000000001287      012444  467    011531   011881   012410   011924   012161   012789   014649   014526   012239   012095   011387   011640               120123141  467    110124691    7    100123111         090122271    7    080120511    7    011321   012154   012226   011584   011669   012993   014300   014434   012150   012203   011477   011216                                      
050001400310013 00850 4113001CARREF RD 942 TALLAR0510523CARREF A51          0520421LA SAULCE           0520150000687000687050002100300000000000202      017854  577    016039   018284   016985   016085   017374   018189   020034   021975   018264   017349   015822   017792               120165321  727    110165641    7    100162171         090161621    7    080148091    0    016280   017310   018535   015368   015015   016070   019724   020479   015600   015269   013735   014882                                      
050001399310013 00850 4853001CARREFOUR EUROPE    0380360SORTIE GAP SUD AGGLO0400726AV.JEAN JAURES      0390100002477000000050001100300000000000394      021844                                                                                                                                 120218418         110219588         100223298         090225088         080220738                                                                                                                                                        
050001395310013 00850 4813001SORTIE AGGLO SUD    0400726ACCES  CAR RD 47    0400964BEL AUREILLE        0400560000238000238050001300305000130030100      016385                                                                                                                                 120163308         110166488         100164498         090165098         080158728                                                                                                                                                        
050001300310013 00850 4113001SORTIE GAP CAR RD 470400964CARREF.CD942 TALLARD0510523GAP SUD N85         0490550010422010422050001300300000000001287      011882  518    010941   011900   011712   011649   011875   012225   012913   013298   011985   011906   011011   011151               120118421 1057    110120721         100119271         090119701    7    080115081    8    011308   011861   012282   011475   011525   012158   012811   013007   011932   011948   010936   010838                                      
050001299310013 00850 4853001SORTIE GAP NORD AGGL0351330CARREFOUR EUROPE    0380360AV CDT DUMONT       0360900002781000000050001100300000000001287      008537                                                                                                                                 120085368         110085828         100087278         090087978         080086278                                                                                                                                                        
050001200310013 00850 4813001CARREF.CD944        0330328SORTIE GAP NORD AGGL0351330VARSIE              0350950003015003015050001100300000000001287      008548                                                                                                                                 120085478         110085938         100087398         090088098         080086398                                                                                                                                                        
050001100310013 00850 4113001CARREF.CD945 LA FARE0220651CARREF.CD944        0330328BAYARD PUYMO        0330290010689009884050001100300000000000989      006367  487    005479   005953   005714   005380   005815   006212   008384   008570   006826   006593   005840   005555               120063661  477    110064001    7    100065081         090065601    7    080064331    7    005488   005956   005742   006424   006704   006521   008345   008600   006236   005717   005141   005452                                      
050000900310013 00850 4113001LIMITE ISERE        0000000CARREF.CD945 LA FARE0220651ST FIRMIN           0050050022581020386050001100338000400031287      003312  667    002536   002633   003210   002697   003227   003347   004986   006074   003151   002896   002355   002506               120032911  717    110034641    8    100034791         090034991    8    080034501    8    002324   003027   002944   002912   003204   003448   005028   005902   003284   002643   002283   002433                                      
040003500310013 02020 4112001INTER.D908          0380410INTER. D2202        0450150PONT DE GUEYDAN     0440850006608006460050001100300000000000188      002561  617    001854   001948   002054   002219   002635   002899   003732   004082   002677   002494   002138   001930               120025631  567    110026241    8    100025511         090029231    0    080023111    0    001930   001982   002285   002409   002729   002857   003560   004012   002827   002393   001812   001903                                      
040003400310013 02020 4112001INTER. D955         0210343INTER. D908         0380410ROUAINE             0330620016825015738050001100300000000000188      001572  747    000999   001106   001188   001386   001655   001762   002353   002833   001687   001535   001211   001105               120015521  747    110016241         100016331         090017241    7    080016381    0    001063   001155   001366   001511   001598   001736   002368   002803   001764   001372   000826   001026                                      
040003300310013 02020 4112001INTER. D955         0130590INTER. D955         0210343SAINT JULIEN        0200050007683006489050001100300000000000188      002438         001773   001895   002171   002149   002375   002478   003552   004284   002453   002305   001876   001862               120000001         110024791         100024721         090025471         080023251    0                                                                                                                                                   
040003200310013 02020 4112001INTER. N85          0000000INTER. D955         0130590GEVAUDAN            0060450013354011302050001100300000000000188      002764         002192   002315   002439   002446   002761   002873   003738   004303   002922   002611   002269   002234               120025171         110027201         100027141         090027741         080027411                  001159   001269   001971   002666   002843   003659   004243   002767   002718   002356   002210                                      
040001800310013 00850 4112001INTER. D907         0570250INTER. N202         0750128BARRME             0740800017685017285050001100300000000000188      004171  737    002928   003052   003408   003738   004470   004658   006540   006637   004536   003768   003160   003021               120041731  727    110042231    7    100042181         090043541    7    080042471    7    002799   003108   003653   003949   004429   004601   006132   006980   004631   003623   003104   002989                                      
040001700310013 00850 4113001RD 12               0470290INTER. D907         0570250DIGNE_EST_N85       0500180008487008487050001100300000000000188      004711  877    003695   003616   004035   004366   005101   005301   006260   006955   005100   004456   003894   003644               120047671  867    110048711    7    100048501         090049791    8    080050431    8    003598   003797   004343   004536   004859   005345   006331   007059   005277   004444   003892   003662                                      
040001205310013 00850 4843001BD POMPIDOU         0440140LA PALE             0440685PONT DAVID NEEL     0440545000545000000040001203300000000000107      007713                                                                                                                                 120000008         110079288         100079998         090079928         080081738                                                                                                                                                        
040001203310013 00850 4113001Espace Commercial   0410630BD POMPIDOU         0440140DIGNE_W_N85         04200000025000025000400012031          1295      017869  337    016747   016642   017900   017921   018192   018796   018809   018690   018604   018236   017258   016551               120000001         110183561    7    100185201         090184891    7    080189021    7                                                                                                                                                   
040001202310013 00850 4813001INTER. N1085        0390945Espace Commercial   0410630NOUVELLE SUBDI      0400000001640001640040001203300000000000202      012547                                                                                                                                 120000008         110128948         100130108         090129958         080132888                                                                                                                                                        
040001201310013 00850 4813001INTER. D17          0360220INTER. N1085        0390945LE ROCHER COUPE     0390850003715003715040001200300000000000202      000000                                                                                                                                 120166058         110168908         100168148         090170328         080171058                                                                                                                                                        
040001200310013 00850 4113001INTER.DEV.MALIJAI   0270885INTER. D17          0360220MALLEMOISSON        0330700008162007132040001200100000000000190      000000                                                                                                                                 120131111  527    110133361    8    100132751         090134461    8    080135031         011520   011973   012735   012847   012844   014072   014722   014986   013777   013362   012594   011850                                      
040001101310013 00850 4813001INTER.D4            0260400INTER.DEV.MALIJAI   0270885MALIJAI             0270300001499000740040001200300000000000190      000000                                                                                                                                 120074038         110075318         100074978         090075948         080076278                                                                                                                                                        
040001100310013 00850 4113001LIMITE AGGLO.       0210291INTER. D4           0260400L'ESCALE            0220500005153004888040001200300000000000188      000000                                                                                                                                 120086371         110091071         100088931         090086821         080087851    0    007402   007650   008274   008639   008901   009460   010190   010376   009117   008408   007734   007439                                      
040001000310013 00850 4843001INTER. N96          0200840LIMITE AGGLO.       0210291SUBDI.CHATEAU-ARNOUX0210000000440000000040001100300000000000188      000000                                                                                                                                 120105078         110110798         100110488         090110178         080111488    0                                                                                                                                                   
040000900310013 00850 4843001INTER. D404         0190090INTER. N96          0200840GENDARMERIE         0200000001743000065040001100300000000000190      000000                                                                                                                                 120125748         110132598         100127838         090123248         080124718    0                                                                                                                                                   
040000800310013 00850 4113001ECH.AUBIGNOSC       0160000INTER. D404         0190090CHATEAU-ARNOUX      0190000002777002510040001100300000000000193      010436  467    008746   008889   009727   010345   010971   011392   012131   012683   011163   010431   009514   009114               120000001         110099301         100102571         090105931    7    080105981    0                                                                                                                                                   