120500400310012 00750 1110231ECH.ENGAYRESQUE     2000000ECH ST GERMAIN      2150050LA GAMASSE          2100400015050015050          00000000000194      017252 1317    008747   009269   011680   015831   018944   018517   027465   038836   019126   014332   011565   011804               120165801 1577    110156981 1267    100158821 1707    09      1         08      1         005935   006919   010195   016867   017748   017146   029925   036226   018529   013288   014203   011373                                      
120500600310012 00750 1110231VIADUC DE MILLAU SUD2220953DEP HERAULT         2520695A 75 LA CAVALERIE   2380210030012030012          00000000000998      019139 1447    009741   010462   013245   017757   020824   020808   030510   041565   021075   016358   013179   013177               120193651 1277    110192561 1287    100187151 1267    09      1         08      1         010341   011106   012612   018890   020040   019898   031980   039403   021855   016039   016826   012853                                      
340001500310012 01090 4113001SUD GIGNAC          0200000NORD GIGNAC         0320000GIGNAC 34           0300700012000012000340000500300000000000490      012132  697    009716   010301   010942   012038   012546   012694   014031   015360   012763   012547   011292   011181               120109701  667    110114081  657    100102791  677    09      1         08      1         009792   009794   010832   011720   011672   011391   011193   011198   010796   011575   010841   010783                                      
340000500310012 00750 1113041NORD RN 109         2800000RN 109              2900450LODEVE_SUD          2800200010450010450          00000000000490      024031  977    015013   015843   018621   023280   025225   026421   035625   045049   026612   021846   017895   016086               120199551 1067    110243341 1037    100222511 1037    09      1         08      1         015663   015548   018128   023859   023376   022364   021740   020749   019451   021142   019313   018003                                      
340001404310012 01090 4810101EB 20 MONTPELLIER   0040000A 750               0100000JUVIGNAC OUEST      0050000006000006000          00000000000190      034918  517    029268   030248   032081   035745   036730   037854   039603   041095   036581   034263   033129   032033               120288578  537    110310528  567    100222388  487    09      8         08      8         025990   024671   027135   032825   031472   029881   029674   029491   028469   028307   028244   029978                                      
480500400310012 00750 1110241ST CHELY-SUD        1270799AUMONT-NORD         1330830AUMONT-NORD         1330830006053006053480500400348000010030393      013684 1457    006810   007055   009047   012375   014836   014437   023212   031587   014877   011155   008849   009185               120143451 1367    110110621 1357    100104341         09      1         08      1         006973   007312   008553   013378   013696   013523   024414   030591   019378   013949   010952   008936                                      
480500600310012 00750 1110241ECH.37 LE BUISSON   1460000ECH.39 LE MONASTIER 1610000CHIRAC              15800000151000151006305019003          0199      008250 1107    006303   006513   008632   011952   011753   011029   022032   012820   002936   001900   001420   001355               120133431 1197    110161491 1077    100127731 1187    09      1         08      1         006459   006904   008224   012894   013381   013338   024035   030538   015217   009961   010280   008414                                      
480002300310012 01060 4113001INTER.D98-JALCRESTE 0221020INTER.D907-FLORAC   0440660FLORAC_SUD          0380500020631020631480002500300000000000995      003612 1467    002390   002456   002888   003372   004050   003769   005008   006247   003946   003367   002905   002824               120026421 1387    11      1         10      1         09      1         08      1         002630   002597   002591   002570   002658   002669   002640   002684   002630   002654   002685   002691                                      
480002400310012 01060 4112001INTER.D907-FLORAC   0440660INTER.D907B-R.PERCEE0510305FLORAC              0490000006245005698480002500300000000001287      003679  707    002485   002582   002898   003365   003693   003823   005413   006447   004277   003074   002999   002971               120037331  697    110037671  707    100036801  687    09      1         08      1         002612   002572   003040   003443   003740   003978   005385   006350   004134   003559   003254   002631                                      
480000900310012 00880 4113001N102-ARDECHE        0000000INTERS.D906         0020000LANGOGNE            0010460002298000790480000900300000000000592      004856  987    003186   002920   003615   004282   005160   005149   006180   008520   005622   004389   004449   004396               120053201  837    110049441 1027    100048011 1007    09      1         08      1         004939   005355   005223   005232   005158   005276   005227   008403   005438   004505   004492   004565                                      
480001900310012 00880 4113001CARR.RN106 BALSIEGES0580619CARR.RN108 BARJAC   0650751BALSIEGES           0590200006756006640480001900300000000001192      005160         003734   004065   003882   004207   004389   006028   007894   008042   005128   004921   004849   004666               120060241         110065071         100063721         09      1         08      1         004869   004998   005548   006175   006597   005869   008221   007941   006191   006613   005230   003920                                      
480002100310012 00880 4113001INTER.D31-CHANAC    0710883INTER.N9-AJUSTONS   0840280CHANAC              0740500011181011181480002500300000000001192      004479 1377    002900   003040   003613   004144   004852   004746   006031   007225   004836   004282   003786   004141               120042511 1307    110044211 1337    100042311 1347    09      1         08      1         003056   003107   003595   004324   004737   004506   004266   007094   004818   004425   003755   003274                                      
480001800310012 00880 4113001EB20 MENDE          0530185CARR.RN106 BALSIEGES0580619MENDE-SUD           0550300005284005015480001900300000000000793      008952  897    007613   007731   008212   008905   009555   009710   010690   009794   008859   009052   008389   008797               120092471  897    110094271  907    100093721  927    09      1         08      1         007821   007832   008628   008936   009449   009768   011361   011688   009808   009133   008515   007933                                      
480002500310012 01060 4112001CARR.D907B          0510305ST BAUZILE D41      0730660FLORAC_NORD         0530900021847021847480002500300000000000995      001213 1937    000708   000752   000838   001041   001291   001302   001625   002534   001500   001017   000847   001052               120010861 1967    110013181 1737    100013141 1757    09      1         08      1         000681   000725   000859   001093   001251   001266   001180   001841   001429   001032   000918   000748                                      
340001501310012 07500 4110201NORD GIGNAC         0320000A 75                0380625ST FELIX DE LODEZ   0370600006625006625340000500300000000000402      026498  747    021148   022121   023622   026418   027558   028119   031188   033885   027903   026943   024613   024064               120233851  737    110245581  727    100006591         09      1         08      1         021009   020958   023266   025495   025613   024015   023768   023800   023236   023660   023062   022649                                      
480500101310012 00750 2110201LA GARDE            1160700LA GARDE            1160700ALBARET_MARI_M      1160700000000000000480500100300000000000794      007811 1447    004436                              009154   007604   000635   008520            005792   004870   004757               120090481 1437    110095971 1317    100093841 1287    09      1         08      1         004903   004862   005753   008434   009184   008941   013913   021435   012920   006590   005810   005535                                      
480500100310012 00750 1110241LIMITE CANTAL       1140527LA GARDE SUD        1160943ALBARET_MARI_M      1160700002416002416480500100300000000000592      013780 1367    007389   007425   009626   012911   015714   014375   022088   031449   014459   010925   009008   009227               120146351 1347    110147111 1317    100142601 1307    09      1         08      1         007601   008210   009191   014119   014669   014681   025233   032852   018845   011234   008744   009767                                      
480500801310012 00750 2111001ECH.40              0000000ECH.40              0010000BANASSAC            0000005001000001000630501900300000000000199      007273 1867    003999                                                001204   007684            004910                                 120073531         110095691         100076741         09      1         08      1         004032            004759                     007122   001280   007107   008871   005715   005679   004660                                      
480500800310012 00750 1110241ECH.40 BANASSAC     1720047LIMITE AVEYRON      1790296BANASSAC            1720100007249007249630501900300000000000199      013969 1627    007169   007391   009744   013258   014859   014677   025316   033138   012721   009146   009724   009672               120146231 1677    110175361 1567    100143391 1657    09      1         08      1         007462   007821   009236   014413   014976   014775   025569   031904   016418   011942   011206   009257                                      
480500700310012 00750 1110241ECH.39 LE MONASTIER 1610724ECH.40 BANASSAC     1720047ST GERMAIN DU TEIL  1670000010323010323630501900300000000000199                                                         000070            005313   006712                                                   120087711         110068251         10      1         09      1         08      1                           005722                     009037   005482   006029   011863            006335   005602                                      
480500701310012 00750 2111001ECH.40              0000000ECH.40              0010000BANASSAC            0000005001000001000630501900300000000000199                                                                                                                                             120001871         110009481         100008581         09      1         08      1                           000268                     000267                     000181            000089   000035                                      
150500200310012 00750 1110241MASSIAC NORD        0630988MASSIAC SUD         0680500MASSIAC             0670600004512004512          00000000001200      014766 1467    007167   007205   009597   012988   015636   014927   024249   033537   019854   012006   009384   009853               120143871 1527    110147551 1677    100145161 1807    09      1         08      1         007410   008139   009153   014122   014387   014634   025531   031706   016205   011204   010172   009501                                      
150500300310012 00750 1110241MASSIAC SUD         0680500VIELLESPESSE        0840600SALBAS              0760300016100016100          000      01200      013983 1397    007967   008002   010058   006709   008666   013614   024653   034787   016541   010017   005946   006460               120152381 1567    110127601 1707    10      1         09      1         08      1         008252   008366   010049   015046   015517   015628   026203   032766   017160   011968   011048   010346                                      
150500600310012 00750 1110241ST FLOUR SUD        0960300LIMITE LOZERE       1140610LOUBARESSE          1120800018310018310          000      00300      013683 1527    007167   007258   009463   012867   011229   013393   026920   030036   015301   011713   009208   009688               120145271 1507    110158311 1647    100076521 1897    09      1         08      1         008025   009742   010410   014153   014082   014531   025390   031537   015911   010763   009898   009451                                      
150500400310012 00750 111 241VIELLESPESSE        0840600ST FLOUR NORD       0920550ST FLOUR NORD       0910400007950007950                    1200      014119 1397    008143   008158   010618   014073   015868   015091   020844   029465   011983   013112   010474   010866               120145131 1407    11      1         10      1         09      1         08      1         008003   008619   010208   015141   015490   016150   024118   026140   015334   012365   011296   010528                                      
150500500310012 00750 111 241ST FLOUR NORD       0920550ST FLOUR SUD        0960300ST FLOUR            0930300003750003750                    1200      013102 1527    006258   006279   008420   011784   014314   013772   022425   032072   013501   010653   008265   008654               120131111 1697    11      1         100066871 2087    09      1         08      1         006459   006705   008001   012800   013208   013444   024063   030263   014832   009771   008882   008407                                      
150001900310012 01220 4113001NEUSSARGUES-MOISSAC 1100900MASSIAC CARF.RN 9   1360144LA ROCHE            1330000025244025244          00000000031294      003530 1347    002855   003173   003474   003330   003557   003682   003947   004486   003690   003385   003405   003347               120035261 1367    110036361 1447    100036571 1567    09      1         08      1         002855   003212   003331   003329   003457   003679   004352   004447   003651   003544   003390   003040                                      
150001700310012 01220 4113 51TUNNEL DU LIORAN    0880000MURAT               1010850LA GRANGE DE GANILH 09708500138500138500000000000          1200      005878 1037    004936   005889   006061   005187   005455   005804   006569   007609   005899   005760   005522   005806               120058431 1067    110060141 1067    100059571 1037    09      1         08      1         004948   006200   005711   005151   005733   005787   006503   007591   005926   005607   005527   005420                                      
150001500310012 01220 4113001BANCOU              0530380VIC SUR CERE        0680800MEYMAC              06202000154200154200000000000000      01287      007505  877    006626   007200   007717   007329   007448   007923   008319   007869   007451   007730   006981   007394               120076921  897    110078851  927    100078611  867    09      1         08      1         006996   007668   007589   007244   007658   007957   008313   009023   007889   007737   007420   006798                                      
150001200310012 01220 4113001MAURS               0050100LE ROUGET CARF.CD 200270800LE MARTINET         01507000227000227001500015003000      01294      003563 1157    003007   003262   003478   003502   003664   003489   004184   004546   003650   003394   003284   003260               120036051 1127    110036891 1107    100037751         09      1         08      1         003075   003170   003450   003505   003622   003532   004172   004545   003564   003781   003512   003306                                      
070003300310012 01020 4113001CAR CD536           0530729MAYRES              0680187THUEYTS           B 0600000014317014317070003300300000000000188      004727 1217    003000   003097   003755   004877   005694   006014   007715   005120   004578   004426   003965   004339               120053841 1167    110054081 1157    100052861 1117    09      1         08      1         003099   003136   003790   005081   005914   005985   008166   009875   006161   005896   004034   003314                                      
070003500310012 01020 4113001CAR CD108           0840161LIMITE DEPT43       0941069PEYRABEILLE       B 0890400011024011024          00000000000188      003187 1517    001838   001855   002398   003142   003922   004005   005029   004369   003151   003241   002534   003046               120037061 1417    110031941 1507    10      1         09      1         08      1         001998   001948   002518   003406   004084   004003   006056   007757   004254   003161   002954   002183                                      
070003200310012 01020 4113001CARD578             0440616CARD536             0530729LALEVADE            0470000009115009115070003300300000000000105      012486  607    009594   009768   010680   011924   012947   013541   016045   017915   012076   012041   011089   011903               120125591  627    110125711  637    100113301  657    09      1         08      1         009764   009685   011020   011965   012892   013501   016068   017607   013611   012829   011379   010205                                      
430002000310012 01020 4113001CARREF.RD513        0560300VIEILLE-BRIOUDE     0740550LA LOCANDA          0640050018450018450430002000300000000001193      008853 1377    006666   006795   007790   008593   009184   009504   011622   012167   009224   008471   008043   007978               120088771 1387    110093901 1347    10      1         09      1         08      1         007032   006916   008104   008893   009376   009266   011905   011746   008498   009211   008294   007147                                      
430000600310012 00880 4113001ECHANGEURD47        0160000ECHANGEUR.RD103     0350835BAL DES NEIGES      0230700019835019835          000      00500      014396  957    012259   012218   013736   014399   014766   015630   016754   015641   014863   015034   013204   014056               120146521  977    110141871  957    100142101  927    09      1         08      1         012220   012360   013928   014814   015037   017189   016604   016148   015713   014969   014004   012791                                      
630501000310012 00750 1110241Carf.RD978          0140634ECHANGEUR COUDES Nø80180582AUTHEZAT            0170000004115004115630501000100000000001299      071474 1017    057321   058135   064086   065900   066296   071600   087214   104168   076936   074512   064281   065561               120752891 1037    110760711 1047    100679901 1227    09      1         08      1         058411   057451   065923   066677   075477   078930   100406   109348   089249   073194   067579   063410                                      
630501800310012 00750 1110241Carf. RD76          0450600LIMITE Hte LOIRE    0490000NORD DE LEMPDES     0470000003400003400          43000000011299      008462  997    007951   008410   010268   012126   013192   011680   011766   014748   003280   003677   002008   002381               120105471  977    110111241  827    100116061  877    09      1         08      1         008166   008298   009033   004545   009388   012036   012419   020757   012738   010066   009669   009205                                      
630501900310012 07110 1110241Carf.RN 89          0000000Carf. A 72          0060410SORTIE EST          0040000005056005056          00000000001299      087867  537    085138   085405   087842   088128   083103   092930   089046   077933   092233   097813   088103   085721               120874461  527    110853171  537    10      1         09      1         08      1         086787   083800   092272   085508   085386   092516   086000   074629   088500   105305   087280   085993                                      
630500600310012 00750 1150241Ech 1               0020000Carf.RD137          0040810AUBIERE             0020350002810002810630501000100000000001299      049152 1057    036687   038291   042500   048042   050112   052509   066243   074127   052178   046914   039554   041471               120489161 1137    110476991 1017    100466921 1207    09      1         08      1         034293   035569   041723   048690   048995   051648   068773   071282   053001   045682   046143   040461                                      
630500800310012 00750 1110241Carf.RD978          0060210Carf.RD213          0090956NOVIALE             0060500003888003888630501000100000000001299      102062  807    084691   087412   094630   100655   100472   107343   124740   133078   102509   102386   091759   093261               121119481  827    111043381  827    101017271  737    09      1         08      1         063720   063626   069861   072770   074159   078154   090652   098453   081324   080611   097585   090443                                      
630501300310012 00750 1110241Carf RD 9           0300000Carf. RD 996        0310000ORBEIL              0310000001120001120630501300100000000001299      060740 1027    039609   038099   045169   060025   069723   076583   092249   102530   065777   050391   043126   044035               120495261 1147    110618471 1217    100595621 1217    09      1         08      1         030806   029785   033708   037954   040539   042088   047706   035969   023899   023025   045882   046116                                      
630500501310012 0A750 1150241A 71                0000000Voie ferrée         0010000LA POUDRIERE        0000845001000001000630501000100000000000408      065696  927    059289   060651   064249   067106   064407   068227   075620   074412   068940   067062   057099   060749               120671081  917    110648611  887    100631531  847    09      1         08      1         060365   060386   065778   065981   065532   070775   076658   074888   070462   066611   066636   060968                                      
630500502310012 0A750 1150241Voie ferrée         0010000Ech 1               0020000LA PARDIEU          0010547001000001000630501000100000000000408      057807  987    051022   052479   055826   058682   056697   060016   068222   068308   060970   058642   049794   052450               120590411  967    110578041  947    100551411  897    09      1         08      1         052032   052034   057197   057762   057669   062906   069366   067869   062441   059270   057178   052389                                      