770000300310015 00030 4110201N3-D212             0040725N3-D404SUD          0090120RD212-RD404SUD      0080800004496004496000000000000000000001276      033817  67     033393   033745   034403   035073   034259   037458   032633   028180   033985   035200   000000   000000               140327351  687    130325971  667    120322981  727    110318901         100313741  777    032735   033534   033409   033778   033415   034912   030265   027935   034506   033532   031767   033027                                      
770001000310015 00040 4110101ECHANGEUR N104      0010000N4-D351             0050235RN104-RD351         0030700003931003931          00000000001276      027275  67     000000   000000   000000   000000   030935   029064   024716   000000   025937   025724   000000   000000               140492001  957    130492001  957    120491741  957    110482631 1017    100463321 1117    000000   000000   000000   000000   000000   000000   000000   000000   000000   000000   000000   000000                                      
770001300310015 00040 4110201N4-D350             0150490N4-N36              0210216RD350-RN36          0200550006910006910          00000000001276      031861 117     030397   030454   032358   033366   032256   034688   031290   026983   032047   033446   032424   032648               140316871 1137    130308651 1007    120309271 1227    110310811         100302321 1227    030077   030575   031969   032268   031835   034651   031015   026493   033672   033897   032015   031775                                      
770001400310015 00040 4113001N4-N36              0210216N4-D231             0410500RN36-RD231          0340000020175020175          00000000001276      016700 226     000000   000000   000000   000000   000000   000000   000000   000000   000000   000000   000000   000000               140167291 2267    130173571 2337    120176361 2337    110177561 2367    100172721 2357    016242   016860   017655   018303   017894   018804   016947   016293   017067   013184   016005   015492                                      
770001500310015 00040 4113001N4-D231             0410500N4-DPT51            0680927RD231-DPT51         0430200027336027336          51000090031276      011283 327     010167   010627   010871   011629   011451   012158   012012   010905   011726   000000   000000   000000               140111691 3277    130110151 2927    120111561 3357    110115081         100111171 3227    009982   010440   010859   011573   011173   012106   011543   010790   011550   011915   011077   011115                                      
770005000310015 00360 4110201N 4                 0290200A4                  0470000N36 MARLES          0450170017800017800000000000000000000000110      008658 163     008105   008474   008717   009190   008714   009505   009079   007476   000000   000000   000000   000000               140087271 1647    130084121 1697    120085031 1697    110085421 1777    100082321 1777    000000   000000   000000   008737   008407   009539   008039   007618   009478   009434   008718   008570                                      
770005200310015 00360 4110201D 319               0470000A5                  0670500N36 LES BORDES      0620950010500010500000000000000000000000110      010200 145     000000   000000   000000   000000   000000   000000   000000   000000   000000   000000   000000   000000               140101821 1457    130097101 1467    120097451 1417    110099281 1457    100097651 1457    008930   000000   009798   010176   010148   011052   010382   009693   010847   010615   000000   000000                                      
770005301310015 00370 4150101N37-A6              0000000VOIRIE DEPARTEMENTAL0020700A6-RD64             0020650003039003039000000000000000000000106      019700         000000   000000   000000   000000   000000   000000   000000   000000   000000   000000   000000   000000               140197001         130197001         120197001         110197001         100197001    0    000000   000000   000000   000000   000000   000000   000000   000000   000000   000000   000000   000000                                      
770005501310015 01050 4110201N105-A5b            0150000N105-N6             0150665A5b-RN6             0150000001872001872000000000000000000000106      038600         000000   000000   000000   000000   000000   000000   000000   000000   000000   000000   000000   000000               140386001         130386001         120386001         110386001         100386001    0    000000   000000   000000   000000   000000   000000   000000   000000   000000   000000   000000   000000                                      
770006300310015 03300 4113001N330-N3             0000000N330-D401           0100555RN3-RD401           0050300011344011344          60000800030197      011800 152     000000   000000   000000   000000   000000   000000   000000   000000   000000   000000   000000   000000               140118471 1527    130117901 1397    120118881 1397    110119181 1547    100117491 1607    011349   011529   012136   011512   011932   013087   011704   009625   012915   012612   012020   000000                                      
770010001310015 01040 4110601N104-N6             0270345N104-A5a            0281074RN6-A5a             0280100001770002276          00000000000197      095800         000000   000000   000000   000000   000000   000000   000000   000000   000000   000000   000000   000000               140958001         130958001         120958001         110958051         100924001    0    000000   000000   000000   000000   000000   000000   000000   000000   000000   000000   000000   000000                                      
770010002310015 01040 4110201N104-D50            0260228N104-N6             0270345RD50-RN6            0260900001113001113          00000000000197      061200         000000   000000   000000   000000   000000   000000   000000   000000   000000   000000   000000   000000               140612001         130612001         120611741         110609581         100611311    0    000000   000000   000000   000000   000000   000000   000000   000000   000000   000000   000000   000000                                      
770010101310015 01040 4110201N104-M4             0240955N104-D50            0260228M4-RD50             0250820001272001272          00000000000197      055300         000000   000000   000000   000000   000000   000000   000000   000000   000000   000000   000000   000000               140553001         130553001         120552571         110551321         100555731    0    000000   000000   000000   000000   000000   000000   000000   000000   000000   000000   000000   000000                                      
770010102310015 01040 4110201N104-A5b            0190250N104-M4             0240955A5b-M4              0220400005253005253          00000000000197      049398         042649   044204   042652   047588   045560   052125   050941   052420   049766   052624   055933   056313               140544001         130543681         120526681         110525521         100525701    0    000000   000000   000000   000000   000000   000000   000000   000000   000000   000000   000000   000000                                      
770010201310015 01040 4110401N104-BRET.BRIE      0171588N104-A5b            0190250BRET.BRIE-A5b       0190130001348001348          00000000000197      080077         077845   079032   078105   082358   079510   087883   085023   071341   080563   084513   076628   078127               140816751         130830001         120830001         110830001         100359001    0    076091   078568   081279   083107   080895   088960   083595   072220   084643   086930   081939   081961                                      
770010202310015 01040 4110201N104-N19            0160001N104-BRTE.BRIE      0171588RN19-BRET.BRIE      0170400003165003165          00000000000197      075200         000000   000000   000000   000000   000000   000000   000000   000000   000000   000000   000000   000000               140752001         130752001         120752001         110752311         100787091    0    000000   000000   000000   000000   000000   000000   000000   000000   000000   000000   000000   000000                                      
770010301310015 01040 4110201N104-FEROLLES       0131095N104-N19            0160001FEROLLES-RN19       0150650001613001613          00000000000197      074549         071781   075707   076063   068111   074205   083788   071851   070137   067453   077777   078585   079126               140779251         130690001         120690001         110682221         100732001    0    000000   000000   000000   000000   079002   083233   078630   068288   079117   081532   077120   076580                                      
770010302310015 01040 4110201N104-D51            0120670N104-FEROLLES       0131095RD51-FEROLLES       0131000001507001507          00000000000197      070746         070764   074321   074448   064892   063082   061682   075883   074616   076105   066744   071116   075304               140749221         130716001         120716001         110716421         100712351    0    069773   072238   074678   076197   074771   080451   077183   066812   077131   079395   075176   075262                                      
770010303310015 01040 4110201N104-D51E1          0100000N104-D51            0120670RD51E1-RD51         0100900002660002660          00000000000197      071211         070394   073626   073107   071113   073185   073049   055784   064338   073048   073437   076027   077418               140769301         130720001         120720001         110720041         100721001    0    071624   074125   076322   078041   076616   082686   079274   068797   079155   081622   077242   077661                                      
770010400310015 01040 4110201N104-N4             0060978N104-D51E1          0090930RN4-RD51E1          0080000002852002852          00000000001276      076085 147     075917   077563   079905   082155   064886   000000   000000   000000   000000   000000   000000   000000               140781591 1538    130767771 1218    120764921 1208    110765151 1507    100753711 1527    073878   076166   078350   080323   079001   081869   072195   071134   082178   083516   079578   079601                                      
770010501310015 01040 4110201N104-D21            0060240N104-N4             0060978RD21-RN4            0060560000738000738          00000000000197      093365         100517   093969   088351   084932   096839   106427   093686   074609   098480   096388   090441   095739               141035921         130917001         120917001         110917001         100917001    0    097712   100930   103570   104518   104323   110092   104177   092151   106977   109780   105136   103740                                      
770010502310015 01040 4110201N104-BERC.          0040500N104-D21            0060240BERCHERES-RD21      0050410001649001649          00000000000197      094775         098622   103064   102260   081031   093775   091227   084715   076107   097645   102499   102612   103740               141001081         131155001         121155001         111155001         101155001    0    094291   097715   099746   101011   100707   106101   101303   089738   103244   106184   101594   099767                                      
770010503310015 01040 4110201N104-D361           0030570N104-BERC.          0040500RD361-BERCHERES     0040170001064001064          00000000000197      095765         098193   102518   104769   080700   105511   113915   081550   074625   107313   104801   087295   087991               141029431         130983001         120983001         110982551         100986081    0    097372   100578   102675   104102   103815   109170   104056   091131   105876   109343   104462   102733                                      
770010504310015 01040 4110201N104-D406           0000800N104-D361           0030570RD406-RD361         0020150002746002746          00000000000197      101600 101     000000   000000   000000   000000   000000   000000   000000   000000   000000   000000   000000   000000               141016001 1017    131016001 1017    121015581 1017    111032361         100980771 1237    000000   000000   000000   000000   000000   000000   000000   000000   000000   000000   000000   000000                                      
770010505310015 01040 4110201N104-A4             0000000N104-D406           0000800A4-RD406            0000700000800000800          00000000000197      100400         000000   000000   000000   000000   000000   000000   000000   000000   000000   000000   000000   000000               141004001         131004001         121004001         111004001         101004001    0    000000   000000   000000   000000   000000   000000   000000   000000   000000   000000   000000   000000                                      
770500199310015 00060 1110441LIMITE ESSONNE      0380385RN37 / DEBUT A6     0440440A6_NAINVILLE        0400500006638006638000000000091050120031276      062840         000000   000000   000000   000000   000000   000000   000000   000000   000000   000000   058486   067194               140665001  917    130665051  917    120683951  948    110722261 1097    100730341 1097    000000   000000   000000   000000   000000   000000   000000   000000   000000   000000   000000   000000                                      
770500400310015 00020 4110201N2-D404             0100858N2-D401             0130232RD404-RD401         0110700002358002358          00000000001276      045600 131     000000   000000   000000   000000   000000   000000   000000   000000   000000   000000   000000   000000               140456001 1317    130456111 1317    120455071 1317    110464001         100464241 1377    000000   000000   000000   000000   000000   000000   000000   000000   000000   000000   000000   000000                                      
770500600310015 00020 4110201RD 401              0130200N 330 (Département. 0180600N2_Lagny_Sec        0150610005400005400000000000000000000000114      038599 130     036636   037766   038139   040996   037912   041447   038912   034398   000000   040807   037928   039711               140197401 1217    130000001         120000001         110000001         100000001    0    000000   000000   000000   000000   000000   000000   000000   000000   000000   020652   019308   019260                                      
770500800310015 01040 1110231DPT93               0080000A104-N2             0080500DPT93-RN2           0080300000500000501          00000000001276      080200         000000   000000   000000   000000   000000   000000   000000   000000   000000   000000   000000   000000               140802461         130769001         120769001         110769001         100769001    0    000000   000000   000000   000000   000000   000000   000000   071537   083186   085100   080892   080515                                      
770500900310015 01040 1110231A104-N2             0080500A104-D84NORD        0110100RN2-RD84NORD        0100770002290002290          00000000000197      079122         000000   000000   000000   000000   000000   000000   000000   076045   000000   000000   079633   081689               140799291         130918001         120918001         110918001         100918251    0    074703   077034   079249   080971   079584   085613   082367   071368   082320   084959   080574   080407                                      
770500901310015 01040 1110231A104-D84NORD        0110100A104-D84SUD         0110700RD84NORD-RD84SUD    0110500000600000600          00000000000197      079273         065317   068712   068025   069773   090409   096408   094582   081185   087260   086656   072954   069995               140797001  697    130797001  697    120797251  697    110848001         100847651    0    000000   000000   000000   000000   000000   000000   000000   000000   000000   000000   000000   000000                                      
770501000310015 01040 1110231A104-D84SUD         0110700A104-N3             0150950RD84SUD-RN3         0120100003223003223          00000000001276      095468         094052   092092   097269   102724   070711   106829   103831   087522   100757   103450   091792   094583               140776011         130962001         120962001         110962021         100931171    0    071826   074821   077195   078461   077043   083428   080543   069153   079837   082580   077689   078639                                      
770501101310015 01040 1110231A104-N3             0150950A104-D34            0180500RN3-RD34            0170000003516003516          00000000000197      084621         083389   079670   084099   088755   085716   093307   090955   075785   087051   089835   077465   079428               140772731         130696481         120883061         110810111         100792121    0    071833   074341   076812   078744   076556   084226   079073   068897   079876   082194   077334   077393                                      
770501102310015 01040 1110231A104-D34            0180500A104-D404           0200900RD34-RD404          0190850002377002377          00000000000197      065231         061104   064476   065357   064875   054386   072802   069404   063574   067981   066580   063898   068339               140469481         130546001         120546001         110546001         100545511    0    000000   000000   046134   000000   000000   050465   047074   039733   048053   049375   046756   047993                                      
770501200310015 01040 1110431A104-D404           0200900A104-N34            0230100RD404-RN34          0210200002158002158          00000000001276      065900         000000   000000   000000   000000   000000   000000   000000   000000   000000   000000   000000   000000               140659001         130659001         120659001         110659001         100659401    0    000000   000000   000000   000000   000000   000000   000000   000000   000000   000000   000000   000000                                      
770501300310015 01040 1110631A104-N34N           0230100A104-N34S           0240500RN34N-RN34S         0240250001388001388          00000000001276      096124         092154   091919   097201   096352   094676   098687   097280   098783   096175   097877   096261   000000               140551921         130980001         120980001         110979741         100967191    0    052501   052865   054944   056418   054405   059838   056682   046598   057528   059348   055353   055829                                      
770501501310015 01040 1110331A104-N34S           0240500A104-D10P           0250150RN34S-RD10P         0240950000634000634          00000000000197      100274         101720   097878   101673   103537   100047   097102   099961   000000   000000   000000   000000   000000               141034001         131034001         121034201         111010451         100956621    0    000000   000000   000000   000000   000000   000000   000000   000000   000000   000000   000000   000000                                      
770501502310015 01040 1110431A104-D10P           0250150A104-X 18           0270400RD10P-X18           0260060002253002253          00000000000197      107361         104829   109839   111815   116853   107881   116340   104582   101877   112703   097877   096376   000000               141037001         131037451         121117921         111115091         101105651    0    000000   000000   000000   000000   000000   000000   000000   000000   000000   000000   000000   000000                                      
770501503310015 01040 1110431A104-X18            0270400A104-A4             0280500X18-A4              0280000001108001108          00000000000197      108410         112961   119650   121348   125400   119368   130303   104514   063843   109428   106867   078824   108410               141078001         131078001         121078081         111033001         101033461    0    000000   000000   000000   000000   000000   000000   000000   000000   000000   000000   000000   000000                                      
770504800310015 01500 1110241LIMITE A150         0050850A150-N36            0070572RD228E-RN36         0070000001722001722          00000000000197      012900         000000   000000   000000   000000   000000   000000   000000   000000   000000   000000   000000   000000               140129001  477    130129001  477    120129221  477    110197801         100199361  467    000000   000000   000000   000000   000000   000000   000000   000000   000000   000000   000000   000000                                      
780100500310015 00100 4110401RN 10 X A 12        0120000RN 10 X RD 912      0130730OUEST A 12 MONTIGNY 0130200001864001864          00000000001276      066356  78     063988   065352   064316   068778   066349   071926   066771   057842   067822   068881   067243   067235               140656521  767    130651581  767    120665361  767    110675971  807    100670731  787    064050   064494   066460   067002   066311   070010   065080   055380   068380   069058   066119   065482                                      
780100600310015 00100 4110201RN 10 X Panneau Aggl0150120RN 10 X RD 13       0190362NORD EST RD 58      0160900004195004195          00000000000188      053595  76     051756   053250   053965   055723   054172   057401   052146   048207   000000   056056   053429   000000               140512711  767    130530271  777    120545261  797    110552231         100552521  607    000000   000000   000000   000000   053736   054613   050121   047494   049649   048673   053260   052623                                      
780100700310015 00100 4110201RN 10 X RD 13       0190362RN 10 X RD 33       0220725SUD RD 13 COIGNIERES0190800003367003367          00000000001276      049526  83     047873   049121   050028   051357   050006   052011   049016   044988   048393   051850   050002   049743               140470101  797    130492671  787    120495861  777    110512941         100511861  817    047576   048747   000000   000000   042249   038154   047155   044630   049200   052797   050003   049607                                      
780100800310015 00100 4110201RN 10 X RD 33       0220725RN 10 X RD 191      0260692SUD RD 33           0250170003980003980          00000000000188      042131  81     039284   040614   041439   043798   042584   045353   043989   038049   043131   044131   041960   041269               140417401  797    130413841  767    120419031  787    110430131  797    100429081  727    039185   040423   042009   043308   041813   045074   042881   035387   043476   044417   041386   041516                                      
780100900310015 00100 4110201RN 10 X RD 191      0260692RN 10 X RD 910 SUD  0300644NORD RD 910 SUD PERR0300230004320004320          00000000000188      039531  76     036519   037704   038574   041133   040382   042615   041595   036264   040385   041045   039681   038482               140390321  767    130381991  687    120383981  777    110392201  767    100389171  787    036097   036908   038372   040250   038940   042372   038643   036742   040697   041673   038705   038980                                      
780101000310015 00100 4110201RN 10 X RD 910 SUD  0300644RN 10 X RD 937      0320425NORD RD 937         0310500001783001783          00000000000188      042700         000000   000000   000000   000000   000000   000000   000000   000000   000000   000000   000000   000000               140427001  767    130427001  767    120427001  767    110427001  767    100427001  767    000000   000000   000000   000000   000000   000000   000000   000000   000000   000000   000000   000000                                      
780101200310015 00100 4115001RN 10 X RD 936 EST  0370620BRETELLE A 11       0470555SUD VO DES GREFFIERS0380877009954009954          00000000000188      026556 105     023410   024313   023755   028132   028569   027243   030468   000000   000000   000000   000000   000000               140227741  93     130259001         120259001         110258601         100258531    0    000000   000000   019845   019955   016038   018271   018709   027321   027167   028121   025546   026768                                      
780101400310015 00120 4110301RN 12 X RN 286      0290000RN 12 X R12         0310050EST  AV COUTURIER   0310050002011002011          00000000001276      086311  57     085217   086378   089908   093185   088292   097205   083323   072772   086632   085381   084285   083684               140833031  557    130853161  577    120843951  577    110869561  557    100853131  547    077827   079493   085384   084269   084072   091599   085530   066871   088173   086371   082748   087303                                      
780101500310015 00120 4114001RN 12 X RD 134      0350915RN 12 X RD 76       0440875OUEST PONTCHARTRAIN 0390000008820008820          00000000000680      047933  73     044191   045724   047318   049734   048025   052186   048356   000000   000000   000000   000000   000000               140470801  737    130459541  737    120472001  707    110471661  707    100455861  677    044093   045574   047892   048625   047802   051683   048050   040191   049858   050124   044893   046179                                      
780101700310015 00120 4110201RN 12 X RD 76       0440875MILLEMONT           0510295SOUS PS VO GALLUIS  0460295006287006287          00000000000789      041037  73     039751   040926   040966   043724   042714   046461   036669   034132   043994   000000   000000   000000               140373091  737    130347011  937    120350211  977    110384741  827    100399961  607    035721   038958   033646   027297   028405   040152   039297   032134   043116   044939   042457   041585                                      
780101800310015 00120 4110201MILLEMONT           0510295RN 12 X RD 112      0550705EST RD 112 BAZAINVIL0550080004397004397          00000000000394      037939  90     039141   040483   039288   041518   038446   031239   029502   029355   040625   043045   041956   041039               140401341  937    130393931 1597    120379281 1017    110373321  757    100381501  807    032774   039528   041504   040541   037832   045166   042536   035794   041910   041908   040698   041516                                      
780101900310015 00120 4110201RN 12 X RD 112BAZAIN0550705RN12 X RD983 MAULETT0580750SOUS PS RD983MAULETT0580700003040003000          00000000000393      034268  94     031467   032860   033528   036075   035201   037644   034430   030099   037006   036723   033569   032720               140336391  89     130328601         120323631         110315731 1017    100315781  967    031128   032270   033185   034705   033738   036848   033722   029906   034597   035950   034077   033543                                      
780102010310015 00130 4130301RN 13 x RN 186      0200000RN 13 X RD 284      0210476Ouest RD 186 Sud    0200600001224001224          00000000000599      068000         000000   000000   000000   000000   000000   000000   000000   000000   000000   000000   000000   000000               140680001         130680001         120680001         110680001         100680001    0    000000   000000   000000   000000   000000   000000   000000   000000   000000   000000   000000   000000                                      
780102100310015 00130 4140201RN 13 X RD 284      0210476RN 13 X RN 184      0240180SOUS RD 99          0220600002588002588          00000000001276      041861  43     043899   043447   045196   041113   043279   036226   038978   031333   000000   046748   045558   044768               140356481  41     130430061         120428961  407    110429391  417    100421321  407    043749   041872   044643   038693   029360   031688   034711   032032   037995   031061   025157   036816                                      
780102200310015 00130 4155001RN 13 X RN 184      0240180FIN AGG ST-GERMAIN  0250515EST RD 160          0240306000854000854          00000000001276      023171  41     022140   023078   022950   022586   023995   023405   000000   000000   000000   000000   024139   023911               140221231  40     130212001         120205161  387    110195461  407    100179661  367    021840   021392   022252   021543   022126   024027   021810   019059   023962   023359   021311   022799                                      
780102800310015 01180 4110301LIMI HAUTS DE SEINE 0050000LIMI ESSONNE        0070057NORD A 86           0050575001891001891          00000000000188      049300         000000   000000   000000   000000   000000   000000   000000   000000   000000   000000   000000   000000               140493001         130493001         120492791         110494991         100475771    0    000000   000000   000000   000000   000000   000000   000000   000000   000000   000000   000000   000000                                      
780103390310015 01840 4115001RN 184 x RD 190     0120700RN 184 x RD 308     0160585sud RD 308 St-Germai0160500003862003862          00000000000198      025349  68     024499   024966   024602   024674   024405   029120   027485   021895   026946   026214   025101   024394               140247651  67     130249001         120249101  697    110258921  637    100256731  597    025476   024856   025334   025401   000000   027205   023354   021220   026207   026169   022764   024433                                      
780103400310015 01840 4115001RN 184 X RD 308     0160585RN 184 X RD 30      0210640SUD RD 31 ST-GERMAIN0210500005042005042          00000000000789      032800  66     000000   000000   000000   000000   000000   000000   000000   000000   000000   000000   000000   000000               140328001  667    130327841  667    120332381  647    110335331  657    100329731  637    000000   000000   000000   000000   000000   000000   000000   000000   000000   000000   000000   000000                                      
780104000310015 01860 4110101RN 186 X RD 386     0230150RN 186 X RD 386     0250585NORD RD 386 SUD     0250500002390002390          00000000000188      021954  78     021255   021584   022013   022189   021267   024348   022059   018083   023359   022950   022525   021936               140217721  837    130231391  847    120241901         110239601  766    100242671  796    021825   021353   022419   022173   021730   024021   021944   016959   022720   023303   021171   021651                                      
780105000310015 01910 4113001ECHANGEUR A10       0550000RN 191 X RD 116     0610027OUEST RD 4 ALLAINVIL0560300005500005500          00000000000188      009937 176     007817   008688   008661   010688   010991   010039   012513   012395   009644   009950   009225   008505               140099641 162     130097751         120097681 1627    110097801         100097681 1617    007640   008473   008751   010681   009938   010363   012009   012637   010234   010463   008846   009536                                      
780106010310015 00120 4110201INTER A86 PONT COLBE0190000PONT COLBERT        0630640LIM EURE-ET-LOIR S.O0200717043850043850000000000000000000000076      040900         000000   000000   000000   000000   000000   000000   000000   000000   000000   000000   000000   000000               140409001         130409001         120409101         110424391         100432901    0    000000   000000   000000   000000   000000   000000   000000   000000   000000   000000   000000   000000                                      
780550799310015 00120 1110531A 12 X A 13         0000000A 12 X RD 129       0060325SUD A13 ROCQUENCOURT0010550006717006717          00000000000200      127080  77     000000   000000   000000   000000   117045   140484   131150   113468   133253   000000   000000   000000               141290751  777    131220811  657    121268521  647    111293021  817    101290771  707    125761   128184   133279   000000   000000   000000   000000   000000   000000   000000   000000   000000                                      
780550800310015 00120 1110231A 12 X RD 129       0060325A 12 X RN 286 EX G120071301SUD RD 129 B.D'ARCY 0060500001976001976          00000000001276      057700         000000   000000   000000   000000   000000   000000   000000   000000   000000   000000   000000   000000               140577281         130556811         120509831         110577401         100562051    0    055205   055588   057612   058251   056268   060613   056790   059850   000000   060315   057033   057488                                      
780551000310015 00130 1110441LIMITE DEPT. 92     0090000A 13 X A 12         0120600OUEST RD 182 VAUCRES0090000003793003793          92050220011276      131200         000000   000000   000000   000000   000000   000000   000000   000000   000000   000000   000000   000000               141312231         131321001         121321131         111203001         101203001    0    132595   000000   000000   132637   000000   000000   000000   000000   128437   000000   000000   000000                                      
780551100310015 00130 1110241A 13 X A 12         0120600A 13 X RD 153       0250515OUEST TRI ROCQUENCOU0220590013427013427          00000000001276      085835  88     079589   083771   085751   089998   084043   093466   090322   078260   000000   089842   082474   086745               140857321  91     130852191         120865751  967    110886621 1007    100877541  957    080072   077909   087011   088709   087054   091876   089066   080964   088885   090224   083646   083363                                      
780551300310013 00130 1110201LES MUREAUX         0320800BOUAFLE             0370200FLINS               0340260004400004400000000000000000000000076      090200         000000   000000   000000   000000   000000   000000   000000   000000   000000   000000   000000   000000               140902001  95     130902001         120902001         110902001         100902001    0    000000   000000   000000   000000   000000   000000   000000   000000   000000   000000   000000   000000                                      
780552200310013 00860 1110441A 86 X RN 286       0000000A 86 X RD 53        0040078EST RD 446 J.E.JOSAS0020700001871001871          00000000000188      080909         080223   084635   083008   083960   073836   084562   083585   073355   080666   082491   000000   000000               140936001  80     130936001         120936001         110935501         100940361  807    000000   000000   000000   000000   000000   000000   000000   000000   000000   000000   000000   000000                                      
780552300310013 00860 1110441A 86 X RD 53        0040078LIMITE DEPT. 92     0070843ENTRE RD 53 ET DEP920060000003769003769          00000000001276      114632  77     000000   000000   000000   000000   000000   000000   000000   097278   122890   123729   000000   000000               140887731  777    131153171  777    121059001         111059001         101059001    0    110906   100846   000000   000000   115507   120160   098525   074919   098779   069588   049311   050417                                      
910000100310015 00060 4110201RN6/LD94            0000000RN6/RD50            0060288N6_BRUNOY           0040772006276003000          94000280031276      035948  61     035304   035483   036368   037016   036028   039001   035793   030826   036732   036757   035738   036438               140355161  587    130352001  617    120343881  567    110348591         100346151 1987    034831   035330   036254   036789   036280   037946   034759   029701   035759   036694   035880   035964                                      
910000400310015 00070 4150201RN7/LD94            0020000ORLY                0040410N7_ORLY             0040410002339000000          94000580031276      058400  45     000000   000000   000000   000000   000000   000000   000000   000000   000000   000000   000000   000000               140584001  457    130584001  457    120583671  457    110612201  477    100572231  497    000000   000000   000000   000000   000000   000000   000000   000000   000000   000000   000000   000000                                      
910001400310015 01180 4150201RN118/LD78          0000000N118/N444           0020898N118_BIEVRES        0000527002844000000          78011216031276      091323  64     086213   089413   087903   095371   091252   099537   095071   082666   093486   094008   089874   000000               140898911  647    130883901  647    120889191  597    110888581         100857281  950    085692   088010   090672   092304   090879   095461   092593   081303   093793   094668   083264   090058                                      
910001500310015 01180 4110201N118/N444           0020898N118/PR 5.100       0050100ENTRE RN444/PR 5.1000030429002188000000          00000000001276      064500         000000   000000   000000   000000   000000   000000   000000   000000   000000   000000   000000   000000               140644861         130640431         120648631         110637201         100639031    0    059621   061573   000000   066766   063161   069796   000000   000000   066604   067188   062663   063105                                      
910001600310015 01180 4110201N118/PR5.100        0050100N118/N446           0070153N118_SACLAY         0070179001998001998          00000000001276      063700  57     000000   000000   000000   000000   000000   000000   000000   000000   000000   000000   000000   000000               140637001  577    130637161  577    120637161  577    110648051  597    100633371  587    000000   000000   000000   000000   000000   000000   000000   000000   000000   000000   000000   000000                                      
910001700310015 01180 4110201N118/RN446          0070153N118/RD128          0090473ENTRE RN446/RD128   0090315002265002265          00000000001276      062700         000000   000000   000000   000000   000000   000000   000000   000000   000000   000000   000000   000000               140626651         130684001         120684001         110683961         100684681    0    057121   000000   000000   063861   060040   067809   065460   000000   063396   065084   059819   061394                                      
910001800310015 01180 4140201N118/D128           0090473N118/PR11           0110000ENTRE RD128/PR11  A 0100097001608000000          00000000000194      074263         072058   075666   079835   078489   076228   079840   071054   070928   074946   067781   068591   075737               140679871         130740001         120739531         110739901         100718291    0    064635   000000   000000   000000   067031   076271   072846   056015   000000   073188   066432   067476                                      
910002000310015 01180 4150201N118/PR11           0110000N118/N188           0120521ENTRE PR11/RN188  A 0120000001502000000910001800300000000001276      075346         071403   072489   077331   077410   075013   076148   077757   076894   075426   073584   000000   000000               140744491         130749181         120677741         110687751         100688211    0    049580   000000   000000   077331   075013   085405   080602   060750   080797   082808   000000   077757                                      
910002100310015 01180 4150201RN118/RN188         0120521RN118/RD218         0130512ENTRE RN188/RD218  A0130000001067000000          00000000001276      063800         000000   000000   000000   000000   000000   000000   000000   000000   000000   000000   000000   000000               140637971         130574001         120574331         110580181         100562441    0    000000   000000   061381   066192   061516   069899   067270   052240   065458   066927   000000   063392                                      
910002200310015 01180 4150201RN118/D218          0130512RN118/D118          0150516ENTRE D218/D118 A   0150200000999000000910001800300000000001276      057700         000000   000000   000000   000000   000000   000000   000000   000000   000000   000000   000000   000000               140577001         130577001         120577101         110535981         100580791    0    000000   000000   000000   000000   000000   000000   000000   000000   000000   000000   000000   000000                                      
910002300310015 01180 4110201RN118/D118          0150516RN118/A10           0150370N118_ULIS           0150895000851000851          00000000001276      048421  55     042522   045903   045846   054573   048671   048533   057090   051456   047696   047637   046962   044059               140458671  478    130523431  508    120566511  568    110561531  628    100557771  748    037912   046128   043801   044586   043840   044748   044587   045795   049411   057620   043523   048458                                      
910002500310015 01880 4113001RN188/A10           0040000VILLEBON / YVETTE   0050270N188_VILLEBON / Y   0050270001125004186          00000000000194      010700         000000   000000   000000   000000   000000   000000   000000   000000   000000   000000   000000   000000               140107001         130107001         120107001         110107001  187    100106731  187    000000   000000   000000   000000   000000   000000   000000   000000   000000   000000   000000   000000                                      
910100200310015 01040 4110201RN104/PR29          0290000RN104/VILLEPECLE    0300459ENTREPR29/VILLEPECLE0290502001500001500          00000000000194      083900         000000   000000   000000   000000   000000   000000   000000   000000   000000   000000   000000   000000               140839001         130839001         120838631         110850001         100849791    0    000000   000000   000000   000000   000000   000000   000000   000000   000000   000000   000000   000000                                      
910100300310015 01040 4110201RN104/VILLEPECLE    0300459RN104/RD33          0310274N104_TIGERY         0300931000825000825          00000000000194      089300 152     000000   000000   000000   000000   000000   000000   000000   000000   000000   000000   000000   000000               140893331 1527    130881931 1527    120917321 1527    111021861 1347    100905331 1517    089211   089454   000000   000000   000000   000000   000000   000000   000000   000000   000000   000000                                      
910100400310015 01040 4140201RN104/RD33          0310274RN104/N448          0330150ENTRE RD33/RN448    0320500001779001779          00000000000194      109227         108078   109321   106271   105556   101927   105974   107916   105607   110792   113609   116426   119243               141179471         131094001         121094151         110988461         101070081    0    000000   000000   000000   000000   000000   000000   000000   102008   123938   125619   121238   116933                                      
910100500310015 01040 4150201RN104/N448          0330150RN104/RN7           0340908ENTRE RN448/RN7    A0330995001759000000          00000000000194      103960         107464   105336   105208   101080   098952   111093   107720   099142   106040   104994   097755   102739               141189001 1157    131189241 1157    121128891 1167    111071591         101066171 1187    000000   000000   000000   000000   000000   000000   000000   000000   000000   000000   000000   000000                                      
910100600310015 01040 4150201RN104/RN7           0340908RN104/A6            0360948ENTRE RN7/A6    A   0360000002033000000          00000000000194      104159         100965   104378   084829   109134   103567   114489   112004   096564   100425   111064   103508   108982               141066871         130979501         120954031         110972771         100776001    0    000000   000000   000000   000000   000000   000000   000000   094571   112963   115036   106215   105649                                      
910100700310015 01040 4150201N104/A6             0360948N104/RD93           0380829ENTRE A6/RD93       0380305001967000000          00000000000106      075043         073095   076522   060505   078421   073672   083067   082607   068160   070171   081330   074009   079272               140777991         130752901         120727071         110686781         100675581    0    075312   000000   078951   078839   076570   082939   078732   069589   080158   081508   076305   076881                                      
910100800310015 01040 4150201N104/RD93           0380829N104/N449           0400388N104_EVRY           0391097001726000000          00000000000106      050641 136     051592   054731   053902   055739   000000   000000   000000   000000   000000   000000   041378   046503               140530491  997    130425851 1527    120427221 1527    110472911         100486251 1017    039856   050163   055345   059263   056828   061551   052982   039908   055943   056759   051374   056617                                      
910100900310015 01040 4140201RN104/N449          0400388RN104/RD31          0410700ENTRE RN449/RD31 A  0410535001917000000          00000000000194      073729         073910   078281   073702   080410   072978   068249   068982   065267   080117   072875   069752   080802               140802251         130860001         120860251         110844451         100781561    0    000000   000000   000000   000000   000000   000000   000000   000000   081991   082915   077985   078008                                      
910101000310015 01040 4140201RN104/RD31          0410700RN104/N445          0440471N104_FLEURY         0430860002656000000          00000000000194      084596 143     080307   076891   085335   088188   084017   092080   087384   076669   088229   087527   084222   084026               140838181 1517    130836421 1507    120833131 1347    110828471         100777681 1357    080425   081610   085308   086776   082976   089238   086182   075033   086620   087853   082656   081151                                      
910101100310015 01040 4150201RN104/N445          0440471RN104/D117          0450435ENTRE RN445/RD117  A0450000000948000000910101000300000000000194      062862         060341   064145   065669   066592   061042   058382   059455   060748   066432   060372   065256   065908               140777281         130721991         120777861         110755961         100611601    0    073847   000000   079399   000000   000000   082508   078890   068718   080106   082502   076737   076848                                      
910101200310015 01040 4150201RN104/D117          0450435RN104/D133          0480710ENTRE RD117/RD133  A0470000003261000000910101300300000000000194      061605         062204   066100   068029   066962   060053   064312   056726   046814   061864   060288   058966   066943               140736871         130735001         120735331         110743801         100733111    0    069598   072546   075449   076773   000000   078104   074357   065824   076029   077211   071823   072842                                      
910101300310015 01040 4110201RN104/D133          0480710RN104/N20           0500881N104_LINAS          0500047002739000000          00000000000194      058217 117     046752   052064   053982   058906   067370   068930   056039   052181   072790   070136   049696   049725               140668471    7    130700751 1267    120696481 1297    110705701         100524071 1267    067129   067807   070346   071855   070213   074310   069791   064434   074159   072090   050449   049595                                      
910101500310015 01040 4110201RN104/N20           0500881RN104/A10           0590610N104_MARCOUSSIS     0560466008802008802          00000000000194      051568 160     048487   048954   050852   053795   050455   054807   053292   047925   053591   054556   050571   051492               140506441 163     130505751         120511231 1577    110513851         100517361 1587    047731   049384   051517   052928   049155   053265   053192   047605   051367   052873   049331   049384                                      
910500100310015 00060 1150441A6/LD94             0000000A6/RD32             0090950ENTRE DEP94/RD32   A0000500001540000000          00000000001276      072697         068546   073256   073546   073214   073145   074559   075151   071145   073101   073429   071253   072013               140732871         130749001         120749051         110767991         100743941    0    069635   073284   073566   073381   073223   075259   075611   072299   074104   074729   072193   072159                                      
910500109310015 00060 1110441LIMITE ESSONNE      0380385RN37 / DEBUT A6     0440440A6_NAINVILLE        0400500006076006076000000000000000000000607      072200         000000   000000   000000   000000   000000   000000   000000   000000   000000   000000   000000   000000               140722001         130722001         120722001         110722261         100730341 1090    000000   000000   000000   000000   000000   000000   000000   000000   000000   000000   000000   000000                                      
910500201310015 00060 1150441A6/RD32             0090950A6/A126             0120686WISSOUS             0090950002731002731          00000000000599      128470  96     123902   128533   125987   127785   132884   132750   132908   126411   000000   131537   121915   000000               141295841  927    131300051 1077    121292341  717    111334501  737    101331751  717    125973   130502   131906   129868   130245   133084   130298   125213   130910   130387   128231   128391                                      
910500202310015 00060 1150441A6/A126             0130000A6/RD118            0131001ENTRE A126/RD 118   0130241001001001001          00000000000599      153600         143755   152976   153980   157107   165550   162436   153875   145154   142819   147443   154866   163541               141725081         131564001         121564001         111563991         101551561    0    000000   000000   000000   174205   000000   000000   000000   000000   000000   000000   000000   170811                                      
910500300310015 00060 1150441A6/RD118            0130990A6/RD25             0170207ENTRE RD118/RD25   A0160000003218000000          00000000001276      159764         155494   166382   164615   168917   162740   173615   170904   153447   133798   152567   156898   157791               141679361         131634941         121661221         111694411         101662381    0    161641   166524   170452   171367   167557   173649   170227   158035   172209   171783   167061   164731                                      
910500400310015 00060 1150441A6/RD25             0170207A6/RN445            0200505A6_VIRY             0190670003288000000          00000000001276      159674  91     156257   159941   155822   166674   000000   000000   000000   000000   000000   000000   000000   000000               141677441  81     131653761         121625431  927    111643631  957    101616901 1397    158159   163970   165921   168375   168080   177572   178090   163993   179897   168262   160500   160110                                      
910500500310015 00060 1150441A6/RN445            0200505A6/RD310            0210772ENTRE RN445/RD310 A 0200610001267000000          00000000001276      138878         133322   139499   133882   141439   143833   141507   139784   135371   147756   142390   129613   138137               141337641         131300001         121300311         111345481         101366271    0    000000   000000   000000   000000   000000   000000   000000   000000   000000   000000   133752   133775                                      
910500600310015 00060 1150441A6/RD310            0210772A6/RN104            0240000ENTRE D310/RN104    0220800002233000000          00000000001276      116800         000000   000000   000000   000000   000000   000000   000000   000000   000000   000000   000000   000000               141168001         131167601         121123001         111122871         101100661    0    000000   000000   000000   000000   000000   000000   000000   000000   000000   000000   000000   000000                                      
910500700310015 00060 1150441A6/RN104            0240000A6/RD93             0250740ENTRE RN104/RD93   A0240450001741000000          00000000001276      103044  93     095027   096755   090036   103458   110638   115372   113567   105362   099263   101372   103205   102165               140941241  997    130932711 1027    121050481  957    111069151         101085641  847    088091   092847   092066   093608   094225   095256   094544   092487   093395   095466   096901   100605                                      
910500800310015 00060 1150441A6/RD93             0250740A6/RN104            0270686ENTRE RD93/RN104   A0260625001933000000910500700300000000001276      094710         085742   087546   091199   097617   094397   095365   096687   098325   100391   096287   098250   094710               140938671         130915821         120950941         111206651         101294001    0    085881   092194   093487   095164   094047   099298   097866   093268   096176   096465   090228   092332                                      
910500901310015 00060 1150441A6/RN104            0270686A6/RD26             0280761ENTRE RN104/RD26  A 0270943001072000000          00000000000198      092535         090145   091236   097930   100203   088245   097452   087354   092536   091245   092300   089235   092289               140945761         130952421         121241001         111240531         101025001    0    090488   000000   100203   000000   000000   000000   100253   087360   000000   000000   000000   000000                                      
910500902310015 00060 1150441A6/D26              0280761A6/N191             0320666ENTRE D26/N191      0300180004911000000          00000000000198      122900         000000   000000   000000   000000   000000   000000   000000   000000   000000   000000   000000   000000               141229001         131229001         121229001         111229001         101229001    0    000000   000000   000000   000000   000000   000000   000000   000000   000000   000000   000000   000000                                      
910501000310015 00060 1150441A6/RN191            0320666A6/RD948            0340156ENTRE RN191/RD948  A0330458001586000000          00000000001276      115100         000000   000000   000000   000000   000000   000000   000000   000000   000000   000000   000000   000000               141151001         131151001         121151001         111151001         101151001    0    000000   000000   000000   000000   000000   000000   000000   000000   000000   000000   000000   000000                                      
910501100310015 00060 1150441A6/RD948            0340156A6/RD337            0340903ENTRE RD948/RD337  A0340158000747000000          00000000000795      083001  98     076946   079610   082871   081866   085487   085768   089456   085964   084103   084878   080479   078262               140833641  977    130816071  987    120865071 1017    110895221         100883391 1017    076004   079917   083881   085471   082764   086426   087211   087920   085459   086950   080172   078187                                      
910501200310015 00060 1110441A6/RN337            0340903A6/LD77             0380385ENTRE RN337/DEP77   0380385002472002472          77050010031276      074200         000000   000000   000000   000000   000000   000000   000000   000000   000000   000000   000000   000000               140742001         130742001         120742001         110742001         100742001    0    000000   000000   000000   000000   000000   000000   000000   000000   000000   000000   000000   000000                                      
910501300310015 00100 1150241A10/A126            0060457A10/RN188           0090567ENTRE A126/RN188   A0070720003361000000          00000000001276      070938         068101   072885   064740   073307   060004   075391   077769   065315   065723   078063   074545   075415               140776501         130733191         120703771         110736941         100815821    0    068980   071029   073713   080930   077537   084002   089587   000000   079235   081113   072626   075402                                      
910501400310015 00100 1140241A10/RN188           0090567A10/RD118           0110862ENTRE RN188/RD118  A0090013003298000000          00000000001276      070976 102     059838   063715   065860   073950   073680   074040   084966   083426   071397   073976   064198   061957               140649271 100     130690121         120715621 1577    110735061 1527    100736241 1587    051787   057179   000000   062756   060006   061373   000000   082331   067201   072121   065909   068606                                      
910501500310015 00100 1110241A10/RD118           0110862A10/RN446           0131025ENTRE RD118/RN446   0131004001163001163          00000000000505      046803         040893   042748   040279   043763   049806   046899   063809   044961   037432   051526   053716   055507               140518001         130518001         120518351         110518151         100507671    0    000000   000000   000000   000000   000000   000000   000000   000000   000000   000000   000000   000000                                      
910501700310015 00100 1150241A10/RN188           0050740A10/A126            0060457ENTRE RN188/A126    0050580000715000000          00000000001276      069569         066076   071768   071020   073902   073604   070687   073862   075521   067145   060424   061252   000000               140667751         130776451         121100001         111127001         101127001    0    060406   062158   064626   072009   068859   074188   074805   000000   066138   067085   060722   063532                                      
910501800310015 00100 1150441A10/A126            0040700A10/RN188           0050740ENTRE A126/RN188  A 0040708001046000000          00000000001276      119709 115     000000   000000   000000   000000   112565   122140   132836   000000   119649   118865   112198   000000               141046001 1157    131046001 1157    121046001 1157    111045771 1157    101088001 1157    000000   000000   000000   000000   000000   000000   000000   000000   000000   000000   000000   000000                                      
910501900310015 01260 1153041A126/A6             0000000A126/A10            0020625ENTRE A6/A10    A   0010174002370000000          00000000000194      035305  77     033552   033113   035985   036946   035116   038999   036179   030556   036266   036538   035097   000000               140337691  677    130328911  697    120327401  737    110327071         100316351  700    033585   034303   035070   034249   033597   035121   033150   026905   034822   035901   034493   034029                                      
910502000310015 00100 1150341A10/A6              0000000A10/RN20            0020746ENTRE A6/RN20  A    0010600002693000000          00000000001276      121423         116115   123184   113880   127015   119371   124989   129544   122504   123244   123829   113131   120526               141527451         131522001         121522001         111521831         101371851    0    127135   138398   151632   157703   151610   159766   157391   000000   157013   159943   139366   150242                                      
910502100310015 00100 1150341A10/RN20            0020746A10/A126            0040700ENTRE RN20/A126     0030500001951000000          00000000001276      098527         091694   098266   090207   104368   099018   105375   108115   105846   091719   100529   090839   098423               141026101         131219001         121219001         111219501         101133981    0    000000   000000   000000   000000   100294   106278   109592   000000   102706   104274   096817   098306                                      
910502200310015 00200 4140201LIAISON A10         0030000LIAISONRN20         0031289LIAISON A10/RN20    0031228001289001289910501800300000000001276      109000         000000   000000   000000   000000   000000   000000   000000   000000   000000   000000   000000   000000               141090001         131090001         121090001         111090281         101067001    0    000000   000000   000000   000000   000000   000000   000000   000000   000000   000000   000000   000000                                      
910510100310015 00060B1150441A6/LD94             0000000A6/RD167            0010701ENTREDPT94/RD167  A 0010000001283000000          94050200030190      108989         107203   113477   110024   108643   110336   105007   111738   113616   104427   108568   106977   107849               141153591         131133271         121116001         111116201         101080091    0    110491   112573   112432   115497   112832   116675   116479   115690   115944   117041   113472   113185                                      
920004000310015 00130 4150401LIMITE DEP.75       0000000RD 1 NEUILLY        008040030 AV.CH DE GAULLE A0000100004750000000          00000000001276      116028  39     117281   119248   117885   109055   111501   119566   117659   000000   000000   000000   000000   000000               141151291  36     131121721         120746981         111126001         101126091  400    115054   116361   104110   112009   116676   119170   115258   099276   122311   123240   120402   117675                                      
920004200310015 00130 4150201BD CIRCULAIRE       0090000RD 05.PUTEAUX       0100450av PDT WILSON      A0100000001180000000          00000000001276      028600         000000   000000   000000   000000   000000   000000   000000   000000   000000   000000   000000   000000               140286001         130286001         120286001         110286001         100286001    0    000000   000000   000000   000000   000000   000000   000000   000000   000000   000000   000000   000000                                      
920005400310015 01920 4157001bd CIRCULAIRE       0000000RD908               0100980MISSION MARCHAND   A0090700001380000000          00000000001276      020500         000000   000000   000000   000000   000000   000000   000000   000000   000000   000000   000000   000000               140205001         130205001         120205001         110205001         100205001    0    000000   000000   000000   000000   000000   000000   000000   000000   000000   000000   000000   000000                                      
920500200310015 10130 4140201N1015               0000000BC                  0000600N1013               0000300000600000000          00000000000504      000000         000000   000000   000000   000000   000000   000000   000000   000000   000000   000000   000000   000000               140000001         130000001         120000001         110000001         100000001    0    000000   000000   000000   000000   000000   000000   000000   000000   000000   000000   000000   000000                                      
920500300310015 00860 1150241LIMITE DEP 93       0000000RD 986              0010450A 86               A0000250001550000000          00000000001276      113459         104586   109563   110245   115121   114741   119523   116219   097235   119453   119843   117855   117123               141164591         131508001         121508001         111508001         101508001    0    000000   000000   000000   117411   115768   122632   117329   096935   120753   122533   116573   118193                                      
920500500310015 00860 1150241ECHANGEUR A 15-A 86 0030300RD 19               0040620Sous A 15          A0030850001320000000          00000000001276      100001         099881   104251   103287   104821   093374   101565   104245   092695   098690   103524   092457   101220               141069441         130910451         121180001         111180001         101180001    0    105543   107875   108548   108406   107700   110327   106864   092812   110374   110892   108635   105355                                      
920500800310015 00860 1150241RD 106              0070370RN 192              0090500A86          A      0080600002130000000          00000000001276      103777 114     102332   104718   106134   107266   105303   105851   106214   097974   098885   103916   102605   104201               141009491 1067    131039241 1117    121035341 1067    111039091         101027851 1057    102498   103498   000000   106083   100877   089958   096615   094098   102301   107202   103848   103075                                      
920500900310015 00860 1150241RN 192              0090500PONT DE ROUEN       0100940A86            A    0100000001540000000          00000000001276      147600         150335   157228   148602   146112   148858   158411   154201   137480   139034   141769   141123   148052               141568791         131565471         121557161         111181001         101181001    0    153408   157587   158323   159948   157004   161858   156075   150011   162687   164102   157382   154168                                      
920501100310015 00860 1150441A15                 0120180RN190               0150780A86                 0130000002600000000          00000000000202      098200         000000   000000   000000   000000   000000   000000   000000   000000   000000   000000   000000   000000               140982001  62     130982001         120982001         110981521         100000001    0    000000   000000   000000   000000   000000   000000   000000   000000   000000   000000   000000   000000                                      
920501200310015 00860 1150441RN190               0150780INTER N13 PR16      0160980A86                 0150000002400000000          00000000000202      098823  34     094934   097313   097189   098527   097421   100682   000000   000000   101393   103126   000000   000000               140965531  32     130964291         120965221  317    110903481         100835031  277    096693   096022   097442   098359   094989   103686   094139   078437   103158   102290   098133   095290                                      
920501701310015 03150 4150201RN 13 BVD CIRCULAIRE0000000INTER N186 NANTERRE 0021000RN 315             A0010250003000000000          00000000001276      034672         037133   035268   032458   034102   033698   034985   036512   028515   036382   031311   037029   038669               140319001         130319001         120319081         110386001         100386001    0    000000   000000   000000   000000   000000   000000   000000   000000   000000   000000   000000   000000                                      
920501800310015 01180 4150501RN 10 Pont de Sévres0000000RD 181/LES BRUYERES 0020155RN10/RD 181         0020116002155000000          00000000001276      095690         089633   095666   097542   093458   097568   094125   097658   096548   098456   095421   095632   096578               140968491         130976701         120955661         110982441         100979981    0    095726   096307   098279   100189   093342   105925   098159   075532   101195   103642   098186   095705                                      
920501900310015 01180 4150501RD 181 LES BRUYERES 0020155LIMITE DEP 78       0041124LIMITE YVELINES MEUD0040123003008000000          00000000001276      103589         104213   105122   104876   106598   102456   105687   107421   084236   103254   109412   106532   103256               141063451         131015001         121015331         111034961         101047621    0    105055   105592   108770   109158   102619   113431   108909   085437   111153   113153   107112   105766                                      
920511000310015 00150 1150641a86                 0000000dept78              0050900A15                 0000450002915000000          00000000000202      136623         140445   143009   143110   142604   137350   142446   137653   134185   141014   146315   139576   091767               141556001         131556001         121556001         111556001         101556001    0    000000   000000   000000   000000   000000   000000   000000   000000   000000   000000   000000   000000                                      
920515000310015 10150 4140401Pt neuilly          0000000rn192/n1013         0000550Pt de Neuilly - N1920000300000550000000          00000000000504      116000         000000   000000   000000   000000   000000   000000   000000   000000   000000   000000   000000   000000               141160001         131160001         121160001         111160001         101160001    0    000000   000000   000000   000000   000000   000000   000000   000000   000000   000000   000000   000000                                      
920515100310015 10150 4150601N192/N1013          0000550A15 BLD CIRCULAIRE  0010360N 1015              0010500000810000000          00000000000699      080800         000000   000000   000000   000000   000000   000000   000000   000000   000000   000000   000000   000000               140808001         130808001         120808001         110808001         100808001    0    000000   000000   000000   000000   000000   000000   000000   000000   000000   000000   000000   000000                                      
920515200310015 00150 1150641N315                0020050A86                 0040000A15                 0030000001950000000          00000000000699      090700         000000   000000   000000   000000   000000   000000   000000   000000   000000   000000   000000   000000               140906721         130990001         120990001         110990001         100990001    0    000000   090720   091720   090708   000000   096043   090088   069157   094680   097159   093113   093343                                      
920515300310015 00150 1150641A86                 0040000LIMITE CONCESSION   0040550A15                 0040500001128000000          00000000000699      034700         000000   000000   000000   000000   000000   000000   000000   000000   000000   000000   000000   000000               140347001         130347001         120347001         110347001         100347001    0    000000   000000   000000   000000   000000   000000   000000   000000   000000   000000   000000   000000                                      
920516000310015 03150 4150601INTER D19           0010000A15 PR0             0030950RN315               0020000002680000000          00000000000699      045156         049437   048137   046420   049092   049781   048260   046790   041901   032856   028459   049542   051198               140526351         130512591         120515991         110504121         100454001    0    048822   063192   072639   053098   051542   053530   051585   035903   047451   053175   050722   050065                                      
920551000310015 00130 1150201ECH BP PTE MAILLOT  0000000SAINT CLOUD         0091503BRET STIE BD CIRC LA0040300004576004576000000000000000000000009      136660         137003   139697   135611   144634   145157   153347   144171   124379   140509   124298   114959   000000               141340631  477    131523591  447    121558971         111586331         101509391  430    137899   138336   069411   151565   152418   154201   130703   124081   157203   150959   152603   139381                                      
920999900310015 00150 1110201INTER N1015         0000000NANTERRE            0040550LIMITE CONCESSION   0040200003190003190000000000000000000000010      101468         000000   000000   000000   000000   000000   000000   000000   000000   101468   000000   000000   000000               140827671         130000001         120000001         110000001         100000001    0    081687   082576   083406   083695   083041   087745   083027   064679   085841   087784   084878   084849                                      
930500100310015 00010 1150641A1                  0000000RN410               0020400DEPT75-RN410        0000200002380002380          00000000001276      174890         173803   181464   171088   169760   182445   180925   179335   176287   176465   180995   150546   175571               141827911         131951001         121951001         111951001         101951001    0    000000   176030   180416   185896   184625   192542   185120   174348   188035   187525   180374   175793                                      
930500200310015 00010 1150441RN410               0020400RN1                 0040100RN410-RN1           0030000001707001707          00000000001276      134000         000000   000000   000000   000000   000000   000000   000000   000000   000000   000000   000000   000000               141340001         131340001         121340001         111340001         101340001    0    000000   000000   000000   000000   000000   000000   000000   000000   000000   000000   000000   000000                                      
930500300310015 00010 1150441RN1                 0040100RN301               0040900RN1-RN301           0040200000800000800          00000000001276      134000         000000   000000   000000   000000   000000   000000   000000   000000   000000   000000   000000   000000               141340001         131340001         121340001         111340001         101340001 1330    000000   000000   000000   000000   000000   000000   000000   000000   000000   000000   000000   000000                                      
930500401310015 00010 1150441RN301               0040900A86                 0060900RN301-A86           0060400002018002018          00000000001276      123200         000000   000000   000000   000000   000000   000000   000000   000000   000000   000000   000000   000000               141232001         131232001         121232001         111232001         101232001    0    000000   000000   000000   000000   000000   000000   000000   000000   000000   000000   000000   000000                                      
930500402310015 00010 1150441A86                 0060900RN2                 0080700A86-RN2             0070500001802001802          00000000000599      169068         161999   169452   170371   168782   171486   174689   171936   163728   000000   000000   000000   000000               141729391         131703001         121703051         111685721         101810341    0    000000   000000   000000   000000   173201   184973   174803   154869   179090   180751   170199   165623                                      
930500500310015 00010 1150441RN2                 0080700A3                  0110300RN2-A3              0100000002605002605          00000000001276      177500         000000   000000   000000   000000   000000   000000   000000   000000   000000   000000   000000   000000               141775001         131775001         121775211         111768101         101789541 1630    000000   000000   000000   000000   000000   000000   000000   000000   000000   000000   000000   000000                                      
930500601310015 00010 1150441A3                  0110300A104                0120600A3-A104             0120000001291001291          00000000001276      122500         000000   000000   000000   000000   000000   000000   000000   000000   000000   000000   000000   000000               141225001         131225001         121225371         111213211         101340001    0    000000   000000   000000   000000   000000   000000   000000   000000   000000   000000   000000   000000                                      
930500602310015 00010 1150441A104                0120600DEPT95              0130401A104-DEPT95         0130100000802000802          00000000000599      092700         000000   000000   000000   000000   000000   000000   000000   000000   000000   000000   000000   000000               140927001         130927001         120927301         110946001         100946211    0    000000   000000   000000   000000   000000   000000   000000   000000   000000   000000   000000   000000                                      
930500700310015 01040 1150331A1                  0000000RD40                0010400A1-RD40             0000800001500001500          00000000001276      119800         000000   000000   000000   000000   000000   000000   000000   000000   000000   000000   000000   000000               141198001         131198001         121198001         111198001         101198001    0    000000   000000   000000   000000   000000   000000   000000   000000   000000   000000   000000   000000                                      
930500801310015 01040 1150331RD40                0010400PARC EXPO           0020500RD40-PARC EXPO      0010900001250001250          00000000000794      103200         000000   000000   000000   000000   000000   000000   000000   000000   000000   000000   000000   000000               141032001         131032001         121032001         111032001         101032001    0    000000   000000   000000   000000   000000   000000   000000   000000   000000   000000   000000   000000                                      
930500802310015 01040 1150331PARC EXPO           0020500RN2                 0030790PARC EXPO-RN2       0030700001290001290          00000000000599      108900         000000   000000   000000   000000   000000   000000   000000   000000   000000   000000   000000   000000               141089001         131089001         121089001         111089001         101089001    0    000000   000000   000000   000000   000000   000000   000000   000000   000000   000000   000000   000000                                      
930500900310015 00030 1150531DEPT75              0000000A186                0020200DEPT75-A186         0000500002257002257          00000000001276      160000         000000   000000   000000   000000   000000   000000   000000   000000   000000   000000   000000   000000               141600481         131633001         121633301         111678521         101636231    0    158165   161317   161079   163505   160302   160631   159191   153427   165656   000000   000000   157207                                      
930501000310015 00030 1150531A186                0020200A86                 0050200A186-A86            0040000002626002626          00000000001276      164800         000000   000000   000000   000000   000000   000000   000000   000000   000000   000000   000000   000000               141647831         131638001         121638421         111687041         101641211    0    162096   164866   164644   168985   166067   166634   164255   153900   171604   000000   000000   000000                                      
930501100310015 00030 1150531A86                 0050200RN3                 0080100A86-RN3             0060500002850002850          00000000001276      118500         000000   000000   000000   000000   000000   000000   000000   000000   000000   000000   000000   000000               141185001         131185001         121184941         110992001         100992001    0    000000   000000   000000   000000   000000   000000   000000   000000   000000   000000   000000   000000                                      
930501200310015 00030 1150531RN3                 0080100RD115               0100900RN3-RD115           0090000002800002800          00000000001276      083900         000000   000000   000000   000000   000000   000000   000000   000000   000000   000000   000000   000000               140839341         131599001         121598661         111590001         101590001    0    000000   000000   000000   000000   169635   000000   167556   163773   170508   000000   000000   000000                                      
930501300310015 00030 1150431RD115               0110000RN2                 0121000RD115-RN2           0120600002240002240          00000000001276      156400         000000   000000   000000   000000   000000   000000   000000   000000   000000   000000   000000   000000               141564001         131564001         121564001         111564001         101564001    0    000000   000000   000000   000000   000000   000000   000000   000000   000000   000000   000000   000000                                      
930501500310015 00030 1150531RN2                 0130000A1                  0150225RN2-A1              0150000002277002277          00000000001276      154900         000000   000000   000000   000000   000000   000000   000000   000000   000000   000000   000000   000000               141549001         131549001         121549061         111176001         101176001    0    000000   000000   000000   000000   000000   000000   000000   000000   000000   000000   000000   000000                                      
930501500310015 01030 1150231A3                  0000000RN302               0011246A3-RN302            0000400002025002025          00000000001276      047600         000000   000000   000000   000000   000000   000000   000000   000000   000000   000000   000000   000000               140476001         130476001         120476001         110461001         100461001    0    000000   000000   000000   000000   000000   000000   000000   000000   000000   000000   000000   000000                                      
930501601310015 00860 1150231A3                  0120000TC A3/A86           0150300A3 / TC A3/A86      0150000001525001525          00000000001276      118700         000000   000000   000000   000000   000000   000000   000000   000000   000000   000000   000000   000000               141187001         131187001         121187001         111187001         101187001    0    000000   000000   000000   000000   000000   000000   000000   000000   000000   000000   000000   000000                                      
930501602310015 00860 1150231TC A3/A86           0150300RN302               0150752TC A3/A86 / RN302   0150752000452000452          00000000001276      136600         000000   000000   000000   000000   000000   000000   000000   000000   000000   000000   000000   000000               141366001         131366001         121366001         111366001         101366001    0    000000   000000   000000   000000   000000   000000   000000   000000   000000   000000   000000   000000                                      
930501700310015 00860 1150231RN302               0150000RD37                0150500RN302-RD37          0150400000500000500          00000000000903      134500         000000   000000   000000   000000   000000   000000   000000   000000   000000   000000   000000   000000               141345001         131345001         121344661         111247001         101247001    0    000000   000000   000000   000000   000000   000000   000000   000000   000000   000000   000000   000000                                      
930501801310015 00860 1150441RD37                0150500RD43                0161000RD37-RD43           0150900001270001270          00000000000903      160600         000000   000000   000000   000000   000000   000000   000000   000000   000000   000000   000000   000000               141606001         131606001         121606301         111612241         100930971 1517    000000   000000   000000   000000   000000   000000   000000   000000   000000   000000   000000   000000                                      
930501802310015 00860 1150441RD43                0170000DEPT94              0171153RD43-DEPT94         0170500001153001153          00000000000903      139600         000000   000000   000000   000000   000000   000000   000000   000000   000000   000000   000000   000000               141396001 1517    131396001 1517    121396001 1517    111396001 1517    101396001 1517    000000   000000   000000   000000   000000   000000   000000   000000   000000   000000   000000   000000                                      
930504800310015 01040 1150131RN2                 0040000RD40                0050600RN2-RD40            0040600001600001600          00000000000794      111200         000000   000000   000000   000000   000000   000000   000000   000000   000000   000000   000000   000000               141112001         131112001         121112001         111112001         101111551    0    000000   000000   000000   000000   000000   000000   000000   000000   000000   000000   000000   000000                                      
930504900310015 01040 1150231RD40                0050600DEPT77              0070108RD40-DEPT77         0060000001677001677          00000000031276      106700         000000   000000   000000   000000   000000   000000   000000   000000   000000   000000   000000   000000               141067001         131067001         121067001         111067001         101066881    0    000000   000000   000000   000000   000000   000000   000000   000000   000000   000000   000000   000000                                      
940002500310015 00060 4150201RN 6 / RN186        0130195RN 6 / CD 94        0150385ENTRE RN 186 / CD 940150285002190002190          00000000001287      050700         000000   000000   000000   000000   000000   000000   000000   000000   000000   000000   000000   000000               140507001  717    130507001  717    120507381  717    110524611  747    100536791  707    000000   000000   000000   000000   000000   000000   000000   000000   000000   000000   000000   000000                                      
940002600310015 00060 4156001RN 6 / CD 94        0150385RN 6 / CD 38        0170610ENTRE CD 94 ET CD 380160200002225002225          00000000001287      053300         000000   000000   000000   000000   000000   000000   000000   000000   000000   000000   000000   000000               140533008         130533008         120533008         110533008         100533008    0    000000   000000   000000   000000   000000   000000   000000   000000   000000   000000   000000   000000                                      
940002800310015 00060 4156001RN 6 / CD 32        0180530ESSONE              0190379ENTRE CD 32 / ESSONE0190000000849000849          91000100031287      034928  58     032948   036991   034786   034176   032658   037586   040349   033702   034514   034817   033937   032890               140377391  477    130344791  517    120349271  517    110360531  517    100415421  517    036482   036858   037654   042163   039200   044989   032354   032819   042537   040925   033593   033291                                      
940004200310015 00190 4150201RN 19 / CD 136      0180000RN 19 / CD 94E      0190620ENTRE CD 136 /CD 94E0190600001620001620          00000000001287      036554  57     000000   000000   000000   000000   036734   040248   034772   029555   037627   038191   037489   037819               140357321  647    130350071  647    120328101  647    110362001         100362001    0    035610   035757   036746   034733   036241   037624   034479   027858   036985   037890   037632   037227                                      
940007600310015 01860 4150201RN 186 / CD 65      0170654RN 186 / RN 7       0190150ENTRE CD 65 ET RN 7 0180000001586001586          00000000001287      065939  54     063952   065685   000000   000000   000000   000000   000000   060632   000000   071796   066262   067306               140654451  53     130636261         120637871  537    110634091  537    100621671  537    062777   064278   064750   066911   066658   067690   064558   059038   067477   069038   066089   066071                                      
940073300310015 04060 4140301RN406/A86           0000000RN406 / RD60D       0030200Val POMPADOUR       0020000003226003226000000000000000000000200      056653         066111   066413   057744   065420   050987   055960   054683   049728   054631   059656   060962   037544               140804001         130804001         120804421         110817741         100785731    0    000000   000000   000000   000000   000000   000000   000000   000000   000000   000000   000000   000000                                      
940073400310015 04060 4140301RN406 / RD60D       0030200RN406 / RN19        0051002ENTRE RN406 ET RD60D0050500002812002812          00000000000195      034800         000000   000000   000000   000000   000000   000000   000000   000000   000000   000000   000000   000000               140348001  76     130348001         120348001         110348001         100347961  767    000000   000000   000000   000000   000000   000000   000000   000000   000000   000000   000000   000000                                      
940500100310015 00040 1150641A.4 / C.D.50        0000000A.4 / PARIS         0000700ENTRE C.D.50 / R.N6 0000250000700000701          00000000001287      205500         000000   000000   000000   000000   000000   000000   000000   000000   000000   000000   000000   000000               142055001         132055001         122055001         112055031         101974731    0    000000   000000   000000   000000   000000   000000   000000   000000   000000   000000   000000   000000                                      
940500200310015 00040 1150641A.4 / C.D.50        0000700A.4 / R.N.6         0020250ENTRE C.D.50 / R.N 60010100001568001568          00000000001287      225300         000000   000000   000000   000000   000000   000000   000000   000000   000000   000000   000000   000000               142253001         132253001         122253001         112253501         102120471    0    000000   000000   000000   000000   000000   000000   000000   000000   000000   000000   000000   000000                                      
940500309310015 00040 1150641A.4 / R.N.6         0020250A.4 / A.86          0030660ENTRE R.N.6 / A.86  0020700001515001515          00000000001287      228200         000000   000000   000000   000000   000000   000000   000000   000000   000000   000000   000000   000000               142282001         132282001         122282001         112282421         101399821    0    000000   000000   000000   000000   000000   000000   000000   000000   000000   000000   000000   000000                                      
940500400310015 00040 1150641A.4 / A.86          0030660A.4 / R.N.186       0060100ENTRE A.86 / R.N.1860040600002466002466          00000000001287      217067  81     209200   218057   215747   220352   218462   220585   000000   000000   000000   000000   000000   000000               142157751  817    132202071  817    122199541  817    112246361  817    102586001    0    215775   000000   000000   000000   000000   000000   000000   000000   000000   000000   000000   000000                                      
940500501310015 00040 1150641A.4 / R.N.186       0060100A.4 / C.D.45        0080250ENTRE A.86 / C.D.45 0070350002153002153          00000000001287      187161         183113   185540   000000   187545   191836   195583   192329   180976   000000   180367   000000   000000               141589361         131557021         121541541         111543601         102410001    0    158089   151599   159421   150560   158585   152691   157123   130666   152002   155771   151875   158855                                      
940500600310015 00040 1150641A.4 / C.D.45        0080250A.4 / R.N.303       0090450ENTRE CD.45 / RN.3030080800001199001199          00000000001287      178700         000000   000000   000000   000000   000000   000000   000000   000000   000000   000000   000000   000000               141787181         131788001         121788001         111788001         101788001    0    000000   180277   000000   000000   000000   000000   000000   000000   000000   000000   000000   177158                                      
940500709310015 00040 1150641A4 / RN303          0090450A4 / Limite 93      0120700Champigny           0100450003700003700          00000000000200      152200         000000   000000   000000   000000   000000   000000   000000   000000   000000   000000   000000   000000               141522001         131522001         121522001         111521641         100000001    0    000000   000000   000000   000000   000000   000000   000000   000000   000000   000000   000000   000000                                      
940501209310013 00860 1150341A86 / RD1           0260000A86 / RN6           0271007CRETEIL             0270000002017002017          00000000000200      154200         000000   000000   000000   000000   000000   000000   000000   000000   000000   000000   000000   000000               141542001 1127    131542001 1127    121542001 1127    111542001 1127    101542001 1127    000000   000000   000000   000000   000000   000000   000000   000000   000000   000000   000000   000000                                      
940501309310015 00060A1150441A6A / PTE ORLEANS   0000000A6A / VOIE LENTE    0020150ARCUEIL A6a         0020000002179002179          00000000000200      121000         000000   000000   000000   000000   000000   000000   000000   000000   000000   000000   000000   000000               141210001  447    131209651  447    121244361  447    111301841  447    101574701  447    000000   000000   000000   000000   000000   000000   000000   000000   000000   000000   000000   000000                                      
940501500310015 00060A1150441A.6A / A.6B         0020150A.6A / A.106        0051000ENTRE A.6B / A.106  0050000003865003865          00000000000193      106946         111719   000000   000000   000000   000000   000000   112455   096664   000000   000000   000000   000000               141225791         131213431         121232241         111225081         101381851    0    115197   118436   120154   000000   121321   131029   132358   117836   126374   126254   119865   119543                                      
940501500310015 00060A1150441A.6A / A106         0060000A.6A / DEPT 91      0080415ENTRE RN186 / DEP 910070500002424002424          00000000000193      120500         000000   000000   000000   000000   000000   000000   000000   000000   000000   000000   000000   000000               141205001         131205001         121204511         111222531         101210181    0    000000   000000   000000   000000   000000   000000   000000   000000   000000   000000   000000   000000                                      
940501701310015 00060B1150241A.6B / LIMITE PARIS 0000000A.6B / A.6A         0021007ARCUEIL A6b         0010240003007003007          00000000000193      112900  37     000000   000000   000000   000000   000000   000000   000000   000000   000000   000000   000000   000000               141129001  377    131129001  377    121129001  377    111128801  377    100673061  997    000000   000000   000000   000000   000000   000000   000000   000000   000000   000000   000000   000000                                      
940501800310015 00060B1150241A.6B / A.6A         0030000A.6B / A.106        0041000ENTRE A.6A / A.106  0040000002005002005          00000000001287      110889         109950   107620   108446   115637   113430   115047   114322   105418   115944   117179   103634   104042               141531941         131502531         121165261         111128131         100819021    0    138590   152131   152885   156208   151507   155744   152396   136187   000000   000000   000000   000000                                      
940502100310015 00060B1150441A.6B / A.106        0050000A.6B / RN 186       0070250ENTRE A.106 / RN.1860050025002248002248          00000000001287      085622         089479   095037   064317   096327   091982   092233   095528   068647   072943   089833   083977   087164               140772591         130537291         120533731         110835241         100740661    0    074295   074651   075301   078423   076312   080541   082431   075377   078911   080576   075102   075186                                      
940502200310015 00060B1150441A.6B / RN.186       0070250A.6B / LIMITE 91    0080415ENTRE RN.186 / DEP910080000001170001170          00000000001287      154560         147974   160667   163342   164496   166938   163090   146347   146823   138167   147752   000000   000000               141526121         131578001         121578001         111578481         101563001    0    000000   000000   000000   000000   000000   155553   000000   000000   000000   000000   000000   159671                                      
940502300310015 00860 1150441A86 / RN6           0280000A86 / RN305         0310400ENTRE RN305 ET RN6  0290000003396000000          00000000001287      125201         119651   123127   125244   125311   125480   130614   129277   125505   126045   127566   119575   124844               141393001 1037    131393001 1037    121393001 1827    111393001 1827    101393471 1827    000000   000000   000000   000000   000000   000000   000000   000000   000000   000000   000000   000000                                      
940502400310015 00860 1140441A86 / RN305         0310400A86 / RN186         0340991ENTRE RD124 / RN186 0340500003632000000          00000000000990      133382         000000   000000   000000   000000   131342   135421   000000   000000   000000   000000   000000   000000               141266001 1107    131265951 1107    121283441 1107    111271651 1137    101288361 1017    000000   000000   000000   000000   000000   000000   000000   000000   000000   000000   000000   000000                                      
940502500310015 00860 1150241A86 / RN186         0350000A86 / RN7           0350999ENTRE RN186 ET RD65 0350100000999000000          00000000000194      090940 107     085454   090003   091572   093839   093921   094043   092463   092404   091190   091492   087203   087591               140891521 1107    130900891 1127    120911321 1107    110924651         100915811 1177    087228   087312   090377   091157   090807   088967   089445   086826   087649   092584   089554   087649                                      
940502600310015 00860 1150241A86 / RN7           0360000A86/RD65            0361002RN7 - RD65          0360100001002000000          00000000000194      091000         000000   000000   000000   000000   000000   000000   000000   000000   000000   000000   000000   000000               140910001         130910001         120910001         110910001         100910001    0    000000   000000   000000   000000   000000   000000   000000   000000   000000   000000   000000   000000                                      
940502700310015 00860 1150241A86/RD65            0370000A86/A6b             0380400RD65 - A6b          0370100001500000000          00000000000194      172671         164474   172680   174651   178879   000000   000000   000000   000000   000000   000000   000000   000000               141866811         131660811         121754001         111754001         101753691    0    000000   184607   190076   192020   000000   193753   185441   168286   185477   192294   187836   187017                                      
