440537600310015 08440 4150201non renseigné       0270180non renseigné       0270750N844_30_1(2)ESTUAIRE0270300000570000000490003100300000000000608      000000                                                                                                                                 140943421  737    130000001    0    120000001    0    110000001    0    100000001    0    087399   091307   091592   097430   094538   100413   100786   094245                     091559   094399                                      
440537400310015 08440 4150201non renseigné       0280280non renseigné       0290060N844_31 PTE HERBLAIN0280900000780000000490003100300000000000608      000000                                                                                                                                 140909281  837    130000001    0    120000001    0    110000001    0    100000001    0    085172   088325   089573   094437   093077   097144   097046   092333   087225   091281   086892   088442                                      
440537320310015 08440 4150201non renseigné       0290060non renseigné       0290940N844_32 PTE ATLANTIS0290600000880000000490003100300000000000608      000000                                                                                                                                 140912161  837    130000001         120000001         110000001         100000001         085252   088597   089815   094545   092121   096460   097660   092658   087610   093440   086755   089446                                      
440261601310015 08440 4150201non renseigné       0220300non renseigné       0230000N844_51-PTE GD LIEU 0220670000700000000440002101100000000000315      000000                                                                                                                                 140816341  867    130000001    0    120000001    0    110000001    0    100000001    0    075203   078531   078822   084198   081266   087833   087396   081571   078558   082854                                                        
440261600310015 08440 4150201non renseigné       0220300non renseigné       0230000N844_51-PTE GD LIEU 0220670000700000000440002101100000000000315      000000                                                                                                                                 140740421  947    130000001    0    120000001    0    110000001    0    100000001    0    068342   071483   071956   076529   073754   079155   078837   073607   072054   074636                                                        
440100700310015 08440 4150201non renseigné       0040600non renseigné       0050300N844_42_1           0050130000700000000440002101100000000000315      000000                                                                                                                                 140537011  827    130000001    0    120000001    0    110000001    0    100000001    0    052548   051483   054273   057220   052002   053195   051581   047400   056271   057380   055298   055774                                      
440100500310015 08440 4150201non renseigné       0030300non renseigné       0030950N844_40-41_2        0030700000650000000440002101100000000000315      000000                                                                                                                                 140611341  947    130000001    0    120000001    0    110000001    0    100000001    0    058863   058788   060469   063945   058210   063592   060780   054284   067385   064378   061154   061904                                      
440100401310015 08440 4150201non renseigné       0020740non renseigné       0030300N844_40-41_1        0030210000560000000440002101100000000000315      000000                                                                                                                                 140601651  887    130000001    0    120000001    0    110000001    0    100000001    0    056913   059104   059367   062819   057403   062535   059718   053490   066110   063559   060272   060946                                      
440100400310015 08440 4150201non renseigné       0020740non renseigné       0030300N844_40-41_1        0030210000560000000440002101100000000000315      000000                                                                                                                                 140677071  837    130000001    0    120000001    0    110000001    0    100000001    0    064962   067040   066780   070511   064465   070101   067237   059829   073813   071334   067980   068738                                      
440100300310015 08440 4150201non renseigné       0020000Porte d'Anjou       0020800N844_39-40_2        0020567000800000000440002101100000000000309      000000                                                                                                                                 140679521  867    130000001    0    120000001    0    110000001    0    100000001    0    064910   067235   067152   070874   064610   070507   067618   060016   074333   071567   068045   068879                                      
440004600310015 02490 4813001RD 763 Vallet       0190667Département 49      0250666Le Clairay          0200000005999000000490003100349000310030187      000000                                                                                                                                 140080288    0    130199288    0    120199628    0    110196788 1206    100198328    0                                                                                                                                                   
350002300310015 01360 4110201Echangeur RN 12     0150571Echangeur RN 137    0180527N136_12-13          0170900002956000000350003700300000000000195      000000                                                                                                                                 140823901    0    130810031    0    120738811  807    110755971  857    100745051  847    077682   079953   080286   086034   080787   086345   085462   077327   086396   086502   080348   081626                                      
350001400310015 00240 4810201RD 34               0110142RD 69               0190377Bréal/Montfort      0150488008484000000350001500300000000000187      000000                                                                                                                                 140311158 1700    130000008    0    120000008    0    110000008    0    100000008    0                                                                                                                                                   
530016238310015 01620 4813001Car.des Bozées      0370438N 157 X D 32        0380873Laval Roc. Bozées 2 0380000001435000000530016239300000000000195      015719                                                                                                                                 140160198    0    130160268    0    120161558    0    110160688    0    100156148    0                                                                                                                                                   
530016239310015 01620 4110201N 157 Ménard        0380873N 162 Gir.Besnier   0410030N162_53 LAVAL ROC   0390500002157000000530016258100000000000191      019091 1457    018259   018817   019326   019118   018187   020760   019214   015927   020716   020288   019316   019252               140194551 1477    130194631 1467    120186401 1517    110185391 1517    100180151 1517    018974   019708   019459   020567   018855   020669   020053   016412   020586   020565   018670   019042                                      
560000300310015 00240 4817001ECH.RN 166          0200640ECH.OUEST PLOERMEL  0220600ROCADE PLOERMEL     0200800001960001960560000400300000000000498      013633                                                                                                                                 140137518         130135088         120133938         110136398         100137008                                                                                                                                                        
560000500310015 00240 4817001ECH RD 764          0340445LA POINTE           0390150JOSSELIN OUEST      0350000004831004831560000400300000000000698      017001                                                                                                                                 140171488         130168458         120167018         110170088         100170838                                                                                                                                                        
560000601310015 00240 4817001ECH.RD 767          0560126ECH.RD 768          0710064BAUD / EST          0680000013435013435560000400300000000000299      014381                                                                                                                                 140145058         130142488         120141268         110143868         100144508 1200                                                                                                                                                   
560000400310015 00240 4117001ECH.OUEST PLOERMEL  0240542ECH RD 764          0340450N24_56 PLOERMEL     0260100012486000000560000400300000000000498      018850 1257    016654   016766   017339   019604   020390   020248   022492   022559   014596   019580   017220   018426               140190121 1297    130186751 1297    120185151 1317    110188551 1327    100189381 1337    016032   016753   017298   020052   019193   020196   021331   022622   019610   019458   017737   017694                                      
560000600310015 00240 4117001LA POINTE           0390410ECH.RD 767          0560130N24_56 MOREAC       0550000017082000000560000400300000000000698      015565 1397    012886   014030   014276   016218   016112   015905   018355   018845   015892   015669   013808   014621               140156691    0    130153491 1487    120151441 1497    110153021 1517    100000001    0    012910   013526   014138   016628   015690   016639   017984   019385   016105   015920   014203   014722                                      
560001701310015 01650 4117001non renseigné       0380140non renseigné       0420900N165_56 LEONARDSOL  0400777002987000000560002900300000000000415      047626         037584   040192   041575   047629   047621   050377   057498   059329   051593   049080   045866   042611               140477191  887    130000001    0    120000001    0    110000001    0    100000001    0    038054   040089   042780   047980   048265   050988   057155   060076   055947            041711   041318                                      
350022210310015 01360 4110301Echangeur RN 24     0140152Echangeur RN 12     0150571N136_11-10          0140779001396000000220003900300000000000197      102812  777    095431   100443   104871   106842   101723   111700   105450   094644   108371   105794   098378   100322               141028121  777    131007871  777    120986831  707    111008341  817    100997561  827    098441   101639   100924   107200   101014   108108   105626   092400   108326   108550   101169   100672                                      
220000400310015 00120 4110201RD768_Ville es Lan  0400490RD81_St-René        0470985N12_22 COETMIEUX    0420480007582000000220001400100000000000194      043674 1237    038713   040760   041957   047920   047300   047853   044636   049836   047023   039874   038392   039749               140436591 1217    130433521 1217    120432721 1237    110439931 1237    100421141 1187    038296   040439   041381   046535   044477   047069   048747   049153   046078   045354   034251   041785                                      
440261003310015 08440 4150201non renseigné       0090400non renseigné       0100000N844_45-44_2 ROUCHES0090750000600000000440002101100000000000608      065007  917    061371   063672   064745   068160   064369   071417   060767   057171   069679   068830   065491   064749               140649541  917    130000001    0    120000001    0    110000001    0    100000001    0    060626   063347   062812   067579   062817   068411   066365   058752   071162   068934   063825   065031                                      
440261100310015 08440 4150201non renseigné       0100000non renseigné       0110000N844_45-PTE GOULAINE0100550001000000000440002101100000000000608      066208  927    062893   065030   065594   069299   065898   072725   061526   057734   071009   070263   066807   066077               140661301  917    130000001    0    120000001    0    110000001    0    100000001    0    061874   064674   063965   068891   063877   069540   067319   059642   072465   069981   065147   066418                                      
440260900310015 08440 4150201non renseigné       0080700non renseigné       0090400N844_44-45_1        0090200000700000000440002101100000000000315      065442  987    062136   064275   064816   068489   065110   071899   060753   057238   070210   069410   066036   065298               140653531  987    130000001    0    120000001    0    110000001    0    100000001    0    061173   063955   063108   068103   063110   068767   066681   058905   071656   069161   064267   065581                                      
220000800310015 00120 4110201non renseigné       0640620non renseigné       0660441N12_22 PORDICSOL    0640950001821000000220001400100000000000415      029608 1137    025921   027733   028227   031280   030923   031326                     030850   031230   028470   030057               140295281 1107    130000001    0    120000001    0    110000001    0    100000001    0    025759   027018   027564   030714   029296   030749   033293   032899   030575   030415   027280   028575                                      
350002200310015 01360 4110301Echangeur RD 177    0120063Echangeur RN 24     0140152N136_09-08_1        0130146002108000000350003700300000000000187      102617  797    096202   101086   104593   106936   101632   110643   105762   093833   107137   104993   097841   100980               141022551  887    131011131  947    120996541  907    111015191  867    101012941  847    098928   101940   100999   106745   097238   107532   104232   091512   106793   108376   101539   101632                                      
350002100310015 01360 4110201Echangeur RD 837    0100536Echangeur RD 177    0120063N136_08-07          0110495001478000000350003700300000000000196      088391  877    077547   086798   089869   092673   088461   095720   093115   083017   092459   090294   083710   087222               140880761  867    130000001    0    120862391  907    110870171  937    100852531  927    084107   086510   086287   092034   086854   092605   091458   084399   091214   092509   086719   082401                                      
290002100310015 01650 4810201RD 4 Echang Kérandré0180150RD 24 Echang Kérampa0250535Miniou              0220900007385000000290002200300000000000187      026468                                                                                                                                 140263668 2000    130243088    0    120257638    0    110252738    0    100249378    0                                                                                                                                                   
290002200310015 01650 4110201RD 24 Echang Kérampa0250535RD 70 Echang Coat Co0330890N165_29 MELGVEN     0300260008342000000290002200100000000000187      026759 1027    021385   023240   023880   026927   027364   027950   031025   035383   027838   026904   023977   024883               140266541 1107    130245671 1187    120260421 1137    110260641 1137    100257161 1137    021591   022715   023922   027423   027084   028172   031214   035063   027403   026544   023981   024367                                      
530016242310015 01620 4813001N 162 Gir.Besnier   0410030D 131 Gir.Louverné  0430754Niafles             0410500002724000000530016258300000000000190      025545                                                                                                                                 140254428    0    130257118    0    120221948    0    110222858    0    100219188    0                                                                                                                                                   
440003100310015 01710 4812001RN137 NOZAY         0360004RD164 BLAIN         0480035La Grigonnais       0430000012031000000440003300300000000000298      006093                                                                                                                                 140060688    0    130060338    0    120061948    0    110061338    0    100059458    0                                                                                                                                                   
440003200310015 01710 4843001ROUTE DE NOZAY D164 0480035LE GRAVIER D15      0490302Blain Agglomeration 0480500001461000000440003300300000000000298      012452                                                                                                                                 140124008    0    130123278    0    120126548    0    110125278    0    100121408  706                                                                                                                                                   
440003300310015 01710 4113001RD 164 Blain        0490302RN 165 La Moëre     0640900N171_44 BLAIN       0500000016363000000440003500300000000000187      007812 1357    006627   007109   007555   008329   008496   008987   009327   009298   008034   007143   005608   007147               140077791 1248    130077331 1288    120079381 1248    110078581 1248    100076151 1238    006719   007126   007492   008103   008139   008832   008983   009088   007996   007272   006589   006956                                      
290002000310015 01650 4810201RD 783 Echang Kervid0090150RD 4 Echang Kerandré0180150Le Trevoux          0150550009071000000290002200300000000000187      041530                                                                                                                                 140413498 2100    130000008    0    120000008    0    110000008    0    100000008    0                                                                                                                                                   
290002300310015 01650 4810201RD 70 Echang Coat Co0330890RN 2165-RD 765 Troya0440592Kergonnec           0360610010546000000290002200300000000000187      043342                                                                                                                                 140431538 1800    130000008    0    120000008    0    110000008    0    100000008    0                                                                                                                                                   
530016258310015 01620 4110101D 131 Louverné      0430754D  24 Moulay        0630540N162_53 BERRY       0570812019866000000530016258100000000000494      012749 1398    011786   011949   012373   012815   012497   013530   012757   011048   013855   013838   013041   013496               140126891 1408    130128201 1428    120132311 1418    110132851 1328    100130661 1248    012494   012707   012179   012913   012439   013134   012760   011330   013621   013409   012674   012666                                      
440002101310015 01650 4110201L 'ESPERANCE (A821) 0070000GUILLOCHERIE (D201) 0110000N165_EX-36 SAUTRON  0080560004000000000440002301300000000000187      032303         027484   029327   030625   034896   034155   035375   036176   035999                     028529   030241               140321301 1017    130295321 1107    120300531 1087    110301811 1067    100309791 1047    026920   028140   029975   033458   032675   034155   036595   037076   035391   032598   028970   029341                                      
440500102310015 00820 1850241A844                0000000N165                0011145La Bugalliere       0010500001685000000440002101300000000000298      027229                                                                                                                                 140270838         130248768         120253298         110254518         100261118                                                                                                                                                        
440002001310015 01650 4843001D75                 0070126A82                 0070460L'esperence         0070500000334000000440002101300000000001002      026974                                                                                                                                 140268288    0    130246298    0    120250878    0    110252198    0    100258648    0                                                                                                                                                   
440261101310015 08440 4150201non renseigné       0100000non renseigné       0110000N844_45-PTE GOULAINE0100550001000000000440002101100000000000315      059198 1037    055914   058015   058174   061380   058037   063607   057124   053076   063098   062952   059850   059384               140588481 1027    130000001    0    120000001    0    110000001    0    100000001    0    055397   058058   057356   061126   056735   061355   059959   053414   063465   062074   058035   059398                                      
220000600310015 00120 4110201Jules Verne         0570475RD786_Les Rampes    0590002N12_22 VIADUCGOUET  0580050002527000000220001400100000000000187      065787  807    060415   062976   064502   042653   064665   072489   074694   072372   070968   069912   065261   067892               140653951  817    130658561  797    120654731  817    110664901  827    100651731  897    060202   062441   063212   067952   066034   070467   073195   070621   069503   061658   061478   057954                                      
530016265310015 01620 4813001D 24 Moulay         0630540Entrée de Mayenne   0650240Moulay              0650000001700000000530016258300000000000190      021776                                                                                                                                 140216268    0    130218338    0    120188578    0    110189348    0    100186228    0                                                                                                                                                   
350001901310015 01360 4110201Echangeur RD 463    0050160Echangeur RD 163    0060630N136_05-04          0050976001470000000350003700300000000000309      070455 1097    065279   068393   070662   073283   069263   075419   074180   065119   074339   072863   067673   069070               140699491 1107    130695621 1117    120691221 1147    110704171 1177    100693001 1177    066370   068696   067329   073680   067950   073800   072542   064054   073311   074088   068434   069310                                      
440263500310015 08440 4150201non renseigné       0350200non renseigné       0350810A844_37-36_2        0350310000610000000440002101100000000000315      095779 1007    088452   093546   092326   099570   095286   101653   099094   094206   097998   099419   093084   094803               140949831 1007    130000001    0    120000001    0    110000001    0    100000001    0    087683   090637   093067   098708   094644   100021   100240   094603   098037   097471   091314   093210                                      
220001200310015 00120 4110201RD767_Kernilien     0940150Département 29      1230872N12_22 PLOUNERIN    1200040029249000000220001400100000000000294      014787 1497    011827   013068   012498   015343   015753   015541   017056   017336   015196   015601   013691   014388               140146561 1487    130144101 1527    120145821 1567    110145201 1587    100144531 1557    012082   012410   013391   015311   014633   015674   016205   017910   015481   015435   013433   013731                                      
350067500310015 00840 1110241Echangeur RN 136    0960000RD 92               1000750A84_EX-16 THORIGNE  0980705004175000000220003900300000000000100      037173 1047    032624   034379   035798   038358   037295   039520   039824   037889   039212   038843   035883   036326               140368431 1087    130369411 1057    120364081 1127    110368331 1147    100354551 1137    033940   035714   035396   039373   037281   038308   038757   037278   038344   037777   034819   035137                                      
350003800310015 01570 4810201Echangeur RD 178    0120000Echangeur RD 777    0170198Torcé               0150188005190000000350003700300000000000187      029825                                                                                                                                 140295488         130000008         120288658         110291678         100284708 1606                                                                                                                                                   
350003900310015 01570 4810201Echangeur RD 777    0170198Echangeur RD 857    0280853St-Didier           0200000011661000000350003700300000000000187      033785                                                                                                                                 140334718         130000008         120326988         110330408         100322508 1506                                                                                                                                                   
350003700310015 01570 4110201Département Mayenne 0000000Echangeur RD 178    0120000N157_35 VITRE       0050800012009000000350003700353000170130187      029425 1877    022487   026103   025370   031910   032925   029485   035855   035573   029650   031655   025529   026204               140291511 1847    130000001    0    120284771 1937    110287741 1917    100280861 1907    022796   024284   026013   031330   029691   031807   034366   036699   028784   030141   025636   027826                                      
440263600310015 A8440 4150201non renseigné       0350810non renseigné       0360450A844_37-36_1        0360010000640000000440002101100000000000315      095877  977    087687   093435   093956   100494   095504   101636   098531   094747   099752   099480   091907   093489               140949621  977    130000001    0    120000001    0    110000001    0    100000001    0    087566   090489   092938   098711   094439   099993   100690   094416   098043   097610   091298   093174                                      
220000500310015 00120 4110201RD81_St René        0470985RD10_Le Perray      0510290N12_22 YFFINIAC     0480720003305000000220001400100000000000187      053878 1097    046513   049436   045902   051785   055175   057588   061288   060715   056722   057052   050664   053308               140533491 1147    130521051 1157    120534911 1157    110532341 1157    100526441 1157    046584   049241   049591   055424   052669   056728   059055   059363   055680   054901   049430   051247                                      
440004403310015 02490 4140201RD 844 Bellevue Sud 0000000RD 115 Basse Goulain0040929N249_EX-44 VIGNOBLE 0010560004929000000490003100100000000000187      047760 1067    044917   046596   047152   049787   047253   050596   050371   045094   047537   047732   048381                        140472751 1057    130463601 1087    120454791 1117    110451561 1107    100438451 1037    044267   046011   046653   049362   046166   050436   048032   042716   049827   049676   046558   047709                                      
440263400310015 08440 4150201non renseigné       0340700non renseigné       0350310A844_37-36_3        0340960000610000000440002101100000000000315      096770  987    089155   094265   093022   100268   096230   102538   100176   095610   100451   100338   093763   095501               140957081  977    130000001    0    120000001    0    110000001    0    100000001    0    088339   091285   093644   099375   095333   100683   100987   095241   098821   098500   092157   093963                                      
290003601310015 02650 4810201poul ar feunteun    0020376Keradrien           0040205Brest               0030500001829000000290003602300000000000187      033293                                                                                                                                 140329258    0    130317748    0    120326238    0    110329278    0    100305448    0                                                                                                                                                   
290003602310015 02650 4110201Keradrien           0040205Kervao              0060218N265_29 KERADRIEN   0040925002038000000350000100300000000000187      024770  827    022635   023094   024713   024116   023000   024807   026440   024934   026364   026532   024682   025788               140244961  777    130000001    0    120000001    0    110000001    0    100000001    0    023196   023465   023769   025284   024170   025657   025976   023498   024247   025771   023963   024885                                      
440002300310015 01650 4110201RD49                0230044RN 171 La Moëre     0330442N165_44 MALVILLE    0300500010435000000440002600300000000000187      057167  987    047378   052053   051046   055014   058617   060535   066922   069432   059497   058813   052524   053636               140564751  967    130546331  987    120542341 1007    110550261  967    100550401  967    047237   048881   051828   057126   056718   059319   065715   067640   059422   056811   053970   052426                                      
350000101310015 00120 4813 51RD 124              0050947RD 706              0090317Beaucé              00807000033690000003500001003          0187      010608                                                                                                                                 140104758         130102888         120103058         110103738         100101638                                                                                                                                                        
350000100310015 00120 4113001Département Mayenne 0000000RD124               0050947N12_35 FLEURIGNE    0040440005893000000350000100353000120030187      006443 1757    005450   005874   006151   006760   006579   006630   007148   007136   006981   006498   005967   006106               140063621 1767    130062481 1917    120062581 1967    110062991 1807    100061711 1777    005400   005695   006053   006509   006441   006862   006952   007068   006727   006600   005948   006041                                      
350001711310015 01360 4110201Intersection N157   0000000autre               0010483N136_01-02          0010084001483000000350003700300000000000309      051419 1217    046098   048543   049908   053739   051441   054866   054896   049954   054307   053265   049123   050805               140507221 1227    130498321 1267    120495891 1297    110506091 1367    100492791 1367    046328   048147   047613   053820   050222   054582   053558   049083   053051   053313   048795   050145                                      
440003802310015 01710 4810201ECHAN TRIGNAC       0860794N 171 CERTE         0880425Certe               0870600001631000000440003700300000000001299      058017                                                                                                                                 140572148    0    130562148    0    120565438    0    110564698    0    100556018    0                                                                                                                                                   
440003801310015 01710 4810201D50 MONTOIR         0840765ECHAN TRIGNAC VC    0860794Trignac E           0860100002029000000440003700300000000001299      053139                                                                                                                                 140524038    0    130514878    0    120517898    0    110517218    0    100509268    0                                                                                                                                                   
440003700310015 01710 4110201RD 4 Les Six Croix  0790118RD 50-RD 971 Montoir0840765N171_44 MONTOIR     0830530005656000000440003700300000000000187      052055  508    045171   047321   049444   054057   053357   058030   058330   056627   053610   051830   048400   048215               140513341  538    130504361  697    120507311  707    110506641  568    100498851  558    044509   047638   048427   052816   051449   056318   057747   055734   055187   051673   047101   047257                                      
350001900310015 01360 4110201Echangeur RD 163    0060630Echangeur RN137 Alma0090084N136_05-06_2        0080000002434000000350003700300000000000187      084240 1017    077999   081849   084632   087504   083294   090401   088439   078797   088401   086103   080655   082895               140830711 1017    130000001    0    120000001    0    110000001    0    100000001    0    078766   081185   080263   086838   081634   087385   085704   076226   086789   087894   081656   082660                                      
440500701310015 00830 1810241D178                0040384Péage A83           0050475La Cour Neuve       0050000001091000000440500700300000000001002      037512                                                                                                                                 140369888         130362178         120358718         110357418         100353028                                                                                                                                                        
440500700310015 00830 1110241RD844 L'EBAUPIN     0020600RD178 LA COUR NEUVE 0050460A83_48-EX-2         0030600002860000000440500700100000000000187      065690 1007    057378   061179   061876   068386   065647   070011   072871   071495   068063   066921   061203   062971               140647701 1017    130634191 1037    120628111 1037    110625791 1047    100618091 1047    056902   059375   061065   066259   064167   069146   072564   071665   067713   065948   060528   061533                                      
440536900310015 08440 4150201Porte D'orvault     0330800A844                0340700N844_36-PTE ORVAULT 0340400000900000000490003100300000000000595      059759  817    055814   059147   058447   061908   058628   062612   061266   057040   061436   062226   058817   059900               140589181  817    130550521    0    120545631    0    110549271    0    100543991    0    056068   057671   058636   061207   058670   061404   060917   056060   058594   060670   057725   059378                                      
440537000310015 08440 4150201Porte de Sautron    0330400Prte d'Orvault      0330800N844_35_1 SAUTRON   0330700000400000000490003100300000000000495      060220  777    056593   059423   058453   062331   059158   063412   062006   057620   062073   062528   058711   060438               140593661  937    130595971  747    120593901  757    110597521  777    100589571  757    056289   057961   058886   061707   059330   061967   061472   056700   059267   061141   058134   059517                                      
440537101310015 08440 4150201VC 203              0310120VC 109              0310935N844_34 PTE CHEZINE 0310600000815000000490003100300000000000695      060627  747    056481   059562   059120   063101   059970   063957   064771   058991   062350   063393   058882   057028               140597431  767    130598461  767    120578211  787    110563991  827    100563091  797    056639   058557   059543   062319   060036   062731   061963   057494   058849   061290   058066   059412                                      
350004100310015 01570 4110201RD 292 Noyal/Vilaine0380420RN 136              0410815N157_EX-01 NOYAL    0390100002803000000350000900100000000000187      063763 1267    056102   059064   061336   066775   064666   066978   068600   063536   066215   066892   060583   064124               140628011 3157    130617461 1337    120607441 1327    110611631 1327    100600611 1307    059420   059789   059784   065277   062625   066589   066854   061834   064092   065496   059538   062161                                      
220000501310015 00120 4110201RD10_Le Perray      0510290Jules Verne         0540640N12_22 TREGUEUX     0530500003369000000220001400100000000000187      054785  927    046878   049403   051054   058615   055489   057025   059882   060587   059785   055745   049926   052712               140539531  917    130533301  947    120533581  947    110547951  957    100542391  947    046813   049261   049905   057522   058434   056541   058458   058126   055104   055032   050102   051803                                      
350001722310015 01360 4110201autre               0010483D386 Bd Urbain      0030483N136_03-02 BELLANGER0020172002000000000350003700300000000000309      059625 1167    054219   056669   058195   061933   059360   063660   062847   056687   062820   061836   057455   059761               140587171 1177    130583991 1187    120580451 1217    110591221 1267    100580051 1257    054821   056519   055629   062133   057989   062607   061290   055632   061148   060994   057014   058873                                      
220000900310015 00120 4110201RD6_Le Sépulcre     0660441RD5_Bellevue        0870210N12_22 PLELO        0700900020465000000220001400100000000000187      031456 1008    027032   028597   029217   032317   031963   032489   034581   034035   033280   032784   029878   031099               140309611  988    130304531 1267    120303621 1297    110310041 1098    100304961  948    027012   028438   028815   032591   030798   032690   033682   033943   032269   032262   029203   029674                                      
440536805310015 08440 1150241BOIS CESBRON N844   0360300LA CLARTE A11       0370200A844_37 PTE RENNES  0360500000900000000490003100300000000000193      096653  937    087632   093351   092217   099949   095768   102278   102096   099095   100024   099537   093139   094719               140951041  937    130946251  947    120937791  967    110944131  977    100935081  957    087546   090366   093326   098797   094908   100375   100341   094585   098352   098022   091339   093111                                      
290003500310015 01650 4110201RD 33A Plougastel   1120222RN 265 Entree Brest 1140540N165_29 IROISE      1130300003540000000290003602300000000000187      047620  567    044589   045115   047891   048855   043138   051580   049779   048612   050119   048877   046539   046322               140468361 2608    130000001    0    120465001 2608    110468281 2648    100462751 2678    043907   045175   045010   048522   046109   049395   048068   044842   049811   049024   046112   046109                                      
290001800310015 01650 4110201Departement 56      0000000RD 765 Echang Kerfle0020905N165_29 REDENESOL   0000800002958000000290002200156000260430187      035654  887    029553   031830   032347   036755   036165   037256   041215   043658   036686   035928   032383   033714               140350481  887    130346751  917    120343411  927    110000001    0    100000001    0    031320   030934   032078   035614   034980   036577   039739   043174   036177   035027   031921   032645                                      
440101000310015 08440 4150201non renseigné       0050900non renseigné       0070100N844_42-43_1        0060535001200000000440002101100000000000315      055573  867    053087   054025   054758   057307   053271   059364   057524   052305   058624   057520   054832   054372               140546261  837    130000001    0    120000001    0    110000001    0    100000001    0    051441   051772   053480   056821   052651   056900   054471   049145   060821   058026   054674   055382                                      
440261402310015 08440 4150201non renseigné       0180000non renseigné       0190000N844_49-PTE REZE    0180500001000000000440002101100000000000315      070881         064147   067798   067413   073048   070096   075458   076000   071735   073030   073657   069055   069071               140696701    0    130000001    0    120000001    0    110000001    0    100000001    0    064604   067398   067271   069657   070679   074441   074145   068860   069792   071971   066567   070499                                      
350001300310015 00240 4110201RD 224 Est D'Apigné 0050061RD 288 2ème ceinture0080587N24_OH-10_1         0060750002948000000350001500100000000000187      029007 1037    023888   026006   026698   030547   030750   030576   033749   032919   030539   028958   025730   027474               140285091 1037    130281341  987    120281941 1157    110289881 1187    100286741 1167    024256   024315   026434   030520   029536   030565   031987   032437   029426   028835   026348   027125                                      
530016236310015 01620 4813001Gir.Thévalles       0350146D21G.La Rouzine     0360640Laval Roc Est 1s    0350500001494000000530016228300000000000189      008410                                                                                                                                 140082658    0    130080728    0    120078958    0    110078538    0    100076328    0                                                                                                                                                   
530016237310015 01620 4813001D 21 Gir.La Rouzine 0360640Car. des Bozées     0370438Laval Roc Bozées 1  0370000000798000000530016228300000000000185      009845                                                                                                                                 140096758    0    130094498    0    120086638    0    110088278    0    100087778    0                                                                                                                                                   
530016207310015 01620 4813001Dept.49             0000000Ent.Chat.Gon.       0070896Le Préssoir         0070000007777000000530016228300000000000190      006832 3303                                                                                                                            140067148    0    130065588    0    120060798    0    110061948    0    100061598    0                                                                                                                                                   
530016235310015 01620 4813001D103 Entrammes      0300067Gir.Thévalles       0350146La Croix Bataille   0340000005079000000530016228300000000000190      011924                                                                                                                                 140117188    0    130114448    0    120111128    0    110113238    0    100112598    0                                                                                                                                                   
530016216310015 01620 4813001Gir. de Laval       0110111Pot. de Villiers    0200265L' Aire de la Roche 0160000009907000000530016228300000000000198      010041                                                                                                                                 140098678    0    130096368    0    120081648    0    110083198    0    100082728    0                                                                                                                                                   
290003600310015 02650 4110201Kergleux            0000000poul ar feunteun    0020376N265_29 BREST       0010400001577000000290003602300000000000187      028386  867    026391   027051   028186   029394   027513   030714   028893   027941   030048   029324   027226   027947               140278941  827    130276281  857    120278001  867    110284311  857    100275031  857    026117   026098   027623   028959   027368   029436   029163   027022   029187   029221   027018   027439                                      
530016228310015 01620 4113001Gir.de Laval        0200265D 103 Entrammes     0300067N162_53 ENTRAMMES   0270979009802000000530016228100000000000190      008631 1217    007924   008148   008537   008774   008564   009443   008421   007665   009347   009037   008914   008813               140084811 1257    130082821 1237    120082551 1217    110084111 1237    100083631 1217    007866   008319   008242   008929   008320   009018   008588   007488   009123   008957   008507   008454                                      
440263300310015 08440 4150201non renseigné       0320900non renseigné       0330400N844_35_2           0330250000500000000440002101100000000000315      064544  677    060285   063758   062652   067033   063308   067904   066843   061392   066045   067635   063689   064121               140634121  687    130000001    0    120000001    0    110000001    0    100000001    0    060659   062588   063190   066230   063208   066490   065328   059812   062570   065010   061952   063943                                      
440537200310015 08440 4150201non renseigné       0300400non renseigné       0300740N844_33_1 PTE ARMOR 0300596000340000000490003100300000000000608      062381  727    058156   061002   061000   064813   061179   065385   065332   060381   063857   065176   060032   062275               140612781  737    130000001    0    120000001    0    110000001    0    100000001    0    058309   060524   061737   064107   061764   063269   063462   058974   060535   062328   059576   060756                                      
440261511310015 08440 4150201non renseigné       0210100non renseigné       0210800N844_50-PTE RETZ    0210380000700000000440002101100000000000315      075186         067752   071578   071416   077519   074203   079872   081877   077714   076922   077911   072615   072701               140738501    0    130000001    0    120000001    0    110000001    0    100000001    0    068322   071467   071967   076602   073744   079191   078894   073617   072079   076196   071327   072690                                      
440026150310015 08440 4850201non renseigné       0180402non renseigné       0220590N844_2615           0200000004172000000440261400300000000000608      070886                                                                                                                                 140696168         130690048         120676808         110680308         100665908                                                                                                                                                        
440261400310015 08440 4150201non renseigné       0160185non renseigné       0180000N844_48-49_2 REZE   0170900001815000000440002101100000000000608      070653 1197    062387   066849   068598   073304   069865   075701   074630   071678   073064   073381   068407   069859               140693871 1197    130000001    0    120000001    0    110000001    0    100000001    0    064352   067169   067647   072032   069127   074458   074291   068747   069851   071823   066452   066646                                      
440261500310015 08440 4150201non renseigné       0190000non renseigné       0210100N844_49-50          0200220002100000000440002101100000000000608      073836 1097    066972   070404   069889   076288   072803   078481   080369   076353   075722   076547   070171   071872               140724981 1067    130000001    0    120000001    0    110000001    0    100000001    0    066970   069956   070503   074341   072501   077602   077777   072387   071644   074459   068816   072852                                      
560002000310015 01650 4117001ECH.DU FOURCHENE    0480400ECH.EST AURAY       0600750N165_56 PLOEREN     0510000012358000000560002900300000000000698      057005  687    047373   050229   052463   058860   058529   061299   065412   066196   060318   057242   052126   053516               140559711  687    130547091  657    120540041  768    110541581  658    100545921  848    046713   049209   050921   057378   056887   059930   065170   067753   059278   055732   050789   051355                                      
440004300310015 08440 4150101Porte d'Anjou       0070250Porte du Vignoble   0080050N844_43-44 PONT BEL 0070600000800000000440004500300000000000187      085987  877    080390   083458   085451   089187   083571   089287   089192            089369   087498   088200                        140844251  867    130821971  877    120796171  897    110791431  887    100767241  897    079077   081772   081319   087825   083415   088585   084571   075447   092570   090021   083633   085087                                      
440261300310015 08440 4150201non renseigné       0140080non renseigné       0140800N844_47 PTE VERTOU  0140740000720000000440002101100000000000608      074114  847    069587   072259   073407   076869   072556   079683   073858   066188   078172   078138   074354   074516               140727551  857    130000001    0    120000001    0    110000001    0    100000001    0    069058   071986   070962   076007   070988   076860   073914   064669   078037   077025   071777   072076                                      
350004001310015 01570 4110201Echangeur RD 101    0330225RD 286              0380420N157_EX_2 BRECE     0330847005190000000350000900100000000000187      051881 1317    044376   048265   048797   054615   053666   054076   057440   054589   053115   053526   048273   051570               140509151 1327    130000001    0    120000001    0    110000001    0    100000001    0    044306   047582   047974   053581   050604   054636   055628   053555   052412   053397   047069   050052                                      
290000700310015 00120 4810201RD 69 Landivisiau   0380320RD 32 Croix Malmouti0420690Landivisiau         0390565004354004354290000600300000000000187      020273                                                                                                                                 140198908         130198788         120198298         110217538         100215298                                                                                                                                                        
290000600310015 00120 4110201Echang RD 712-RD 31 0340040RD 69 Landivisiau   0390110N12_29 GUICLAN      0350300004267000000290000600100000000000187      023833  898    021641   022186   023108   023903   023502   024893   024433   023760   024754   025368   023959   024394               140233821  918    130233661 1047    120233081 1037    110233841  968    100231411  968    021770   022262   022647   024557   022892   024434   023827   022872   024128   024743   023121   023319                                      
290000500310015 00120 4810201Ech st thegonnec    0300290Ech rd 712-31       0340040Kermat              0330000003749003749290000600300000000000187      022283                                                                                                                                 140218618         130218478         120217938         110218658         100216408                                                                                                                                                        
290000300310015 00120 4810201RD 19 Le Carpont    0210510Ech rd 785          0240924Kérily              0240000003410003410290000200300000000000187      029240                                                                                                                                 140286728         130284288         120285888         110287568         100277918                                                                                                                                                        
290000200310015 00120 4110201RD 786 Coat Menguy  0170715RD 19 Le Carpont    0220395N12_29 ST MARTIN    0200650003773000000290000200100000000000187      030512 1087    026553   027751   028595   030668   030326   032176   033580   032825   031398   031677   030092   030317               140299181 1097    130296621 1107    120298271 1117    110300011 1137    100289851 1127    026661   027776   028452   031249   029529   031533   032095   032181   030918   031009   028597   028895                                      
440261510310015 08440 4150201non renseigné       0210100non renseigné       0210800N844_50-PTE RETZ    0210380000700000000440002101100000000000315      073946         066538   070580   070178   076376   072880   078364   080511   076555   075705   076659   071321   071550               140725061    0    130000001    0    120000001    0    110000001    0    100000001    0    067009   069996   070700   075230   072488   077665   077880   072518   071958   074454   068943   071102                                      
440261422310015 08440 4150201non renseigné       0180000non renseigné       0190000N844_49-PTE REZE    0180550001000000000440002101100000000000315      073941         066511   070525   070107   076309   073106   078522   080487   076599   075767   076662   071272   071296               140724901    0    130000001    0    120000001    0    110000001    0    100000001    0    067097   070072   070204   072526   073898   077756   077845   072443   071630   074527   068878   072801                                      
560002604310015 01650 4110101ECH. DU MOURILLON   1010640LIM FINISTERE       1090326N165_56 GESTEL      1030000007640000000560002900300000000000806      042443  807    036347   038566   039212   043717   042711   044675   048240   049796   043730   042826   038945   040211               140416041  817    130414161  837    120413201  857    110419311  867    100411781  877    035958   037486   038532   042665   041386   043616   046580   049146   043315   042093   038687   039446                                      
440537110310015 08440 4150201non renseigné       0310910non renseigné       0320400N844_35-34_2        0320184000490000000490003100300000000000315      064668  777    060295   063782   062855   067095   063354   067959   066879   061395   066420   067618   063859   064630               140633871  797    130000001    0    120000001    0    110000001    0    100000001    0    060619   062585   063159   066214   063162   066456   065340   059801   062492   064920   062010   063926                                      
440261800310015 08440 4150201non renseigné       0230860non renseigné       0240650N844_52_1           0240060000790000000440002101100000000000315      083009 1007    074620   078649   079645   085496   081559   088212   090893   084907   086037   086142   079334   080424               140813431 1027    130000001    0    120000001    0    110000001    0    100000001    0    075069   078395   078629   084002   081075   087644   087163   081370   082340   083921   077062   079344                                      
350067000310015 01360 4110301RD 97               0230680A 84                0260450N136_16-15_2        0240335002960000000220003900300000000000199      058613  887    051721   054781   057015   060215   058636   062047   062904   058298   061416   061443   056547   058139               140574001  977    130557131  987    120541591  987    110535761  957    100523751  977    051227   053873   053795   060935   056690   061213   061297   057100   060570   060454   055136   056443                                      
290000100310015 00120 4110201dept 22             0090910RD 786 Coat Menguy  0170715N12_29 PLOUIGNEAU   0110400008100000000290000200122000120030187      017837 1467    014634   016305   016615   018890   018526   018668   019265   020080   018549   018009   016837   017563               140174671 1327    130171441 1357    120170091 1247    110171911 1207    100169381 1297    014820   015689   016413   018291   017203   018436   018692   019952   017915   018133   016944   017001                                      
350061000310015 01360 4110201Echangeur RD 175    0210410RD 97               0230680N136_14-15          0220569002080000000220003900300000000000195      064817  997    057469   061228   063797   067145   064389   069101   069186   063642   068274   067699   062053   063718               140634681  997    130622761 1017    120602201 1037    110594591 1017    100582231  987    059005   062027   061567   066473   061084   066561   066912   061104   066851   066789   061113   062217                                      
440001201310015 N1370 4110201RN 171 Sud Créviac  0610120RN 171 Nord Grandjou0650105N137_44 NOZAY       0620000003997000000440001302300000000000187      035564 1407    029282   032165   033206   037411   036840   038455   040802   040313            036186   032794   033487               140348151 1387    130343941 1397    120342001 1407    110340191 1417    100333611 1407    029279   030991   032256   035624   035790   038853   039486   040670   036861   033939   031661   032115                                      
220000503310015 00120 4110201non renseigné       0540640non renseigné       0570475N12_22 DOUVENANT    0560200002835000000220001400100000000000415      066278  767    059382   060868   062877   067925   066771   069619   072169   070341   068450   068254   062761   065518               140648731  767    130000001    0    120000001    0    110000001    0    100000001    0    058512   060553   060869   065712   064689   068909   072113   068630   066815   066803   061235   063316                                      
440537500310015 08440 4150201non renseigné       0280100non renseigné       0280390N844_31-30_1        0280255000290000000490003100300000000000608      092728  907    083990   089064   088552   095649   091207   097554   101190   095419   093544   096370   089018   090987               140907511  857    130916571  900    120939711  800    110000001    0    100000001    0    084682   088054   088456   093764   091279   097020   096788   092015                     086613   088741                                      
440260700310015 08440 4150201non renseigné       0070700non renseigné       0080775N844_44-PTE VIGNOBLE0080370001075000000440002101100000000000315      086358  607    080830   083523   084684   088902   083637   092925   088863   080790   091414   089788   085814   085285               140844841  577    130000001    0    120000001    0    110000001    0    100000001    0    079232   081922   081800   088155   081461   089192   084829   075711   092908   089888   083737   085245                                      
350001200310015 00240 4110201Sortie Rennes Lim Co0000000RD 224 Est D'Apigné 0050061N24_OH-10_2         0030900002948000000350001500100000000000187      034739  577    029588   032018   033160   036370   036074   036811   038910   036556   035892   035951   031911   033425               140339741  487    130000001    0    120000001    0    110000001    0    100000001    0    030190   030907   031714   035867   034213   036225   037102   035980   035406   034942   032049   032914                                      
440261700310015 08440 4150201non renseigné       0220900non renseigné       0230900N844_52-51 LA BOUVRE0230257001000000000440002101100000000000608      082943  897    074314   078453   078518   085533   081766   088926   091108   085758   085035   085974   079206   080509               140811141  927    130000001    0    120000001    0    110000001    0    100000001    0    074943   078210   078776   084073   081263   087945   087382   081484   079144   083802   076980   079203                                      
560002001310015 01650 4117001non renseigné       0480400non renseigné       0600750N165_56 LUSCANEN    0490100012358000000560002900300000000000415      055015  707    045100   047970   050218   056802   056292   059217   065259   065676   057886   054536   049776   050886               140537801  707    130000001    0    120000001    0    110000001    0    100000001    0    044661   047130   048920   055207   054818   057970   062925   065493   056899   053500   048466   048826                                      
350002700310015 01370 4110201Echangeur RD 777    0160636RD 41               0310355N137_35-BGCOMPTESOL 0250000014378000000350003700300000000000187      035689 1177    030236   032695   031887   035478   036312   038528   040070   039183   038188   037322   033797   034392               140348861 1157    130000001    0    120000001    0    110000001    0    100000001    0    029963   031896   032327   035728   035085   037836   038310   038264   036448   036146   032930   033527                                      
440537100310015 08440 4150201Prte de Chézine     0320400Porte de Sautron    0330300N844_35-34_1 VC 109 0320750000900000000490003100300000000000495      065957  727    060681   064408   064627   069383   065427   068678   068229   062358   067715   068091                                 140644621  717    130645141  737    120644041  757    110648801  757    100640921  737    061428   063359   064305   067376   064414   067880   066505   060831   063785   066027   062915   064751                                      
290002600310015 01650 4110201RD 139 Echang Gourvi0540135RD 61 Echang Briec  0630045N165_29 BRIECSOL    0620000008910000000290002700100000000000187      030935  757    027454   028697   029758   031563   030351   032958   032628   033063   032181   032008   030208   030243               140302071  787    130297981  797    120296601  767    110300691  757    100299061  707    027337   028278   028522   030980   029552   031970   032552   031939   031405   031274   029228   029350                                      
560001600310015 01650 4117001ECH.RD 780          0380140ECH.ST LEONARD      0390920N165_56 POTEAU      0390000001780000000560002900300000000000698      055905  797    044961   048303   049329   057038   057555   059631   068103   070812   058259   055511   049573   051075               140545611  787    130536601  797    120507071  807    110000001    0    100000001    0    044286   046672   049321   055590   055452   058755   065345   068948   057567   054093   048632   049389                                      
440260701310015 08440 4150201non renseigné       0070700non renseigné       0080775N844_44-PTE VIGNOBLE0080370001075000000440002101100000000000315      067725  747    062816   064965   065885   069378   065839   072708   072103            070950   070169   066731   066244               140660731  727    130000001    0    120000001    0    110000001    0    100000001    0    061795   064573   063863   068845   063793   069541   067428   059569   072409   069876   065065   066346                                      
290002700310015 01650 4110201RD 61 Echang Briec  0630045Inter RD 41         0700150N165_29 BRIEC       0690286006983000000290002700100000000000187      025899  728    022975   023915   024723   025129   025130   026768   027421   028424   027092   027530   026667   024889               140252671  788    130244181  897    120246751  897    110246821  888    100248901  808    023104   023780   023952   025836   024648   026237   026728   027496   026175   026222   024380   024549                                      
290002800310015 01650 4810201Inter RD 41         0700150RN 164 Echang Chatea0760800Kervetous           0720500006650000000290002700300000000000187      024252                                                                                                                                 140236608    0    130228748    0    120230988    0    110244018    0    100246108    0                                                                                                                                                   
560001900310015 01650 4117001ECH.DE MENIMUR      0460290ECH.DU FOURCHENE    0480400N165_56 KERLANN     0470575002085000000560002900300000000000698      066985  747    056217   059461   061866   069218   067937   071462   077214   077521   069958   067088   061471   063817               140653191  747    130642641  757    120635991  767    110634331  767    100624721  847    055672   058212   060317   067021   066398   069364   074758   076389   068288   065693   059883   061258                                      
560002500310015 01650 4117001ECH.PRE AUX ETANGS  0870490LE TOULDOUAR        0920950N165_56 LOCOYSOL    0890000005124000000560002900300000000000698      053128  947    044341   047591   048873   054126   053401   056092   060823   063020   055190   054280   048984   050337               140518031  987    130510381 1037    120501541 1037    110503731 1037    100497961 1027    045290   046591   047112   051962   053031   053486   058490   061323   053929   053767   047669   048475                                      
560002100310015 01650 4117001ECH.EST AURAY       0600750ECH.POULBEN         0630350N165_56 KERPLOUZ    0610500002714000000560002900300000000000698      050867  777    039734   043003   042611   052977   052457   055132   058166   066055   055771   051702   048065   044247               140495781  777    130489141  807    120466961  787    110475671  757    100491891    0    038939   041209   043967   050095   050147   053779   060306   064244   052513   049388   046343   043341                                      
350001401310015 00240 4110201RD 288 2ème ceinture0080587RD 34               0110142N24_OG-OH           0090623002555000000560000100100000000000187      031918  907    026281   028431   029007   033495   033834   033671   036685   036397   032929   032467   028880   030647               140311091  917    130306551  927    120306751  947    110310381  947    100304711  937    026257   027764   028218   033028   031281   033431   035186   035741   032114   031439   028886   029733                                      
440537210310015 08440 4150201non renseigné       0300700non renseigné       0310200N844_34-33          0310045000500000000490003100300000000000315      063133  777    058626   061658   061291   065302   061743   065752   065638   063273   064079   065720   061684   062825               140615281  797    130000001    0    120000001    0    110000001    0    100000001    0    058899   060868   061740   064300   062050   064704   063321   059768   059867   061474   059931   061435                                      
290000800310015 00120 4110201RD 32 Croix Malmouti0420682RD 770 St Eloi      0570095N12_29 ST SERVAISOL 0470800014371000000290001000300000000000187      023911  947    021999   022814   023434   024407   023362   024925   024006   023336   024961   025508   023990   024168               140232991  937    130231261  947    120232151  947    110232191  947    100232011  947    021794   022589   022568   024363   022718   024231   023488   022123   024187   024756   023334   023464                                      
560001801310015 01650 4117001non renseigné       0420900non renseigné       0460290N165_56 VERDUNSOL   0430969003392000000560002900300000000000415      065775  787    057366   058272   059760   067802   066283   069344   075971   076596   068382   065516   061967   061455               140640861  797    130000001    0    120000001    0    110000001    0    100000001    0    058844   057311   056352   065093   064631   067727   072922   074879   066326   063967   058801   061578                                      
440001301310015 01370 4810201RN171 NORD GRANDJOUA0650105RD537 LES PAVILLONS 0730646Tournebride-Gd Jouan0690000008541000000440001302300000000000298      028326                                                                                                                                 140275968    0    130269528    0    120267528    0    110266488    0    100262608 1206                                                                                                                                                   
440001302310015 01370 4110201RD 537 Les Pavillons0730646Département 35      0810736N137_DERVAL         0730900008102000000440002101100000000000190      025906 1407    020075   022694   023145   027209   027059   027675   030804   032386   026672   026110   022951   023807               140252381 1367    130246491 1367    120244661 1407    110243701 1447    100240151 1487    019862   021658   022567   025442   026156   028111   029510   031831   026335   025344   022402   023333                                      
560001500310015 01650 4817001LA CROIX DE LA LANDE0310880ECH.RD 780          0380140THEIX               0380000006375006375560001800300000000000698      042287                                                                                                                                 140411898         130404588         120396178         110395668         100387648                                                                                                                                                        
560001800310015 01650 4117001ECH.DU LIZIEC       0420900ECH.DE MENIMUR      0460290N165_56 VANNES      0450300003392000000560002900300000000000698      065026  777    054031   058161   059364   067473   065333   069184   075760   076413   068237   065370   059120   061330               140633331  777    130622091  797    120608891  817    110607931  797    100595891  807    053758   056015   058410   065024   064495   067572   072808   074698   066168   063700   057588   059143                                      
530001274310015 00120 4813001Sortie d'Ernée      0660600Dpt. 35             0740973La Pellerine        0740000008373000000530001260335000000030194      007288                                                                                                                                 140070968    0    130069178    0    120069298    0    110069758    0    100068348 1400                                                                                                                                                   
560001400310015 01650 4117001ECH.BEL AIR         0060470CROIX DE LA LANDE   0310880N165_56 ARZAL       0130000024218000000560001800100000000000698      029102  908    021054   023834   024062   030581   031417   030787   038424   043098   029806   027297   023246   025042               140283341  898    130278681 1097    120272011 1127    110273951  958    100269021  958    020728   022304   024621   027917   029780   031173   035488   041830   030141   026874   023788   024769                                      
530001264310015 00120 4843001Ent.Ernée           0630690D 31 Laval          0640990Agglo Ernée         0640500001034000000530001260300000000000190      007621                                                                                                                                 140074198    0    130072318    0    120072438    0    110072918 1406    100113468    0                                                                                                                                                   
530001265310015 00120 4843001D 31 Laval          0640990D31 Landivy         0650430Agglo Ernée         0650000000440000000530001260300000000000190      014276                                                                                                                                 140138978    0    130135458    0    120135678    0    110136568  906    100129348    0                                                                                                                                                   
530001266310015 00120 4843001D31 Landivy         0650430Sort.Ernée          0660600Agglo Ernée         0660000001170000000530001260300000000000190      010009                                                                                                                                 140097438    0    130094978    0    120095138    0    110095768 1006    100082058    0                                                                                                                                                   
530001260310015 00120 4113001D 304 Mayenne       0420910Ent.Ernée           0630690N12_53 ERNEESOL     0590800020780000000530001260300000000000190      005229 1647    004539   004663   005069   005436   005337   005413   005551   005421   005590   005243   005228                        140050901 1647    130049611 1667    120050191 1677    110051501 1667    100050051 1627    004524   004640   004860   005366   005166   005398   005489   005321   005319   005275   004879   004818                                      
350070000310015 00840 1110241Echangeur RD 92     1080400Echangeur RD 794    1160596A84_27-28 GOSNE     1110200008362000000220003900300000000000101      032045 1157    027119   028824   030009   033086   032821   033916   035437   034752   034018   033252   030336   030768               140311701 1117    130302511 1367    120298161 1387    110303961 1377    100292141 1347    027941   027436   028657   032633   031227   032829   034075   034206   033174   032473   029452   029692                                      
350060000310015 01360 4110201Echangeur RN 137    0180527Echangeur RD 175    0210410N136_13-14          0190390002883000000220003900300000000000195      070976  907    062891   067208   070214   071881   071317   076457   075147   068983   075165   074015   068552   069773               140689931  987    130681951  977    120666761  977    110658401  967    100643421  947    063660   066824   066188   072275   067166   073005   072536   065683   073079   073094   066965   067539                                      
220003700310015 01760 4113001RD792_Le Clairet    0320645RN12_La Cx Nogues   0410070N176_22 PLESTAN     0380300009074000000220003900300000000000187      013058 1337    010177   011130   011737   013607   013980   013698   015735   016077   013476   013304   011581   012011               140126831 1347    130123011 1347    120122111 1377    110124561 1387    100123251 1357    010097   010802   011394   013409   012885   013425   015121   016047   013124   013013   011312   011403                                      
220000700310015 00120 4110201RD786_Les Rampes    0610500RD6_Le Sépulcre     0640620N12_22 PLERIN       0620280003693000000220001400100000000000795      041785  997    035568   037772   038759   042996   042549   043287   046369   047026   043024   043702   039171   040864               140405831 1007    130398941 1027    120384901 1037    110400931 1027    100394161 1007    035226   036700   037735   042295   040497   042969   045369   045344   042075   041968   037861   038681                                      
220003600310015 01760 4110201RD766_La Bézardais  0150016RD792_Le Clairet    0320645N176_22 PLELAN      0260300017629000000220003900300000000000195      014525 1108    011334   012349   012973   015017   015504   015310   017394   017963   015036   014813   012964   013441               140141041 1108    130135881 1317    120135361 1327    110136431 1138    100135141 1148    011270   011973   012688   014869   014302   014942   016845   017719   014625   014472   012633   012726                                      
350071000310015 00840 1110241RD 92               1000750Echangeur RD 92     1080400A84_LIFFRE          1070180007320000000220003900300000000000309      036609 1287    031312   033170   034648   037766   037122   039045   039994   038452   039102   038220   034938   035357               140355471 1297    130346371 1297    120340471 1307    110344821 1327    100331641 1297    031205   032381   032989   036960   035150   037959   038598   038122   037862   037135   033941   034096                                      
350000600310015 00120 4110201Sortie Rennes Lim Co0640600RD288/RD29 Pacé     0670795N12_OI-11_1 FLEURI  0650300003310000000350000900300000000000187      062279 1077    057167   059464   061001   063889   062041   065635   064373   059625   065111   065232   060563   063175               140604711 1077    130589471 1087    120000001    0    110546991 1027    100555561 1017    057379   059477   058041   062778   058583   063170   061574   056485   062948   063860   059741   061732                                      
440261801310015 08440 4150201non renseigné       0230860non renseigné       0240650N844_52_1           0240060000790000000440002101100000000000315      088271  977    079669   083911   084869   090917   086885   093626   096691   091650   089190   091371   084563   085650               140857051  987    130000001    0    120000001    0    110000001    0    100000001    0    079725   083108   083417   088901   086011   092001   092050   086921   082275   087389   082149   084343                                      
220001100310015 00120 4110201RD5_Bellevue        0870210RD767_Kernilien     0940150N12_22 GRACES       0910780006972000000220001400100000000000294      029154 1297    024533   024906   024932   028110   027818   029851   034249   035243   031507   031307   028006   029006               140282931 1317    130269381 1487    120280611 1387    110288001 1277    100277891 1277    023379   022985   023782   028491   027408   030462   032492   033882   030356   030306   027566   028020                                      
350000800310015 00120 4110201RD 21 St Gilles     0700144RD 72 Bédée - Bignon0820266N12_35 ST GILLES    0740900012122000000350000900300000000000187      044650 1167    039088   041416   042333   046197   045108   046893   048530   046038   046384   046546   042350   044714               140433291 1157    130000001    0    120000001    0    110000001    0    100000001    0    038909   041296   040955   044836   042412   045860   045856   044052   045011   045435   042028   043247                                      
290002501310015 01650 4110201non renseigné       0520830non renseigné       0540135N165_29 QUIMPERSOL  0530407001305000000290002700100000000000415      035934  787    031909   033140   034145   036528   034991   038205   036337   038640   037080   037207   036117   036783               140348351  707    130000001    0    120000001    0    110000001    0    100000001    0                                                                                                                                                   
220000300310015 00120 4110201RN176_Le Bois Boudan0270750RD768_Ville es Lan  0400490N12_22 LAMBALLESOL  0360950012785000000220001400100000000000595      038830 1247    031400   034232   035224   040766   040608   039956   044890   046143   039886   039963   035162   037294               140376421 1237    130353231 1417    120363421 1287    110369821 1287    100372331 1277    030960   032775   034495   039308   037995   040439   043046   044709   038905   038561   034650   035481                                      
350000201310015 00120 4113001RD 706              0090339RD 18/A84           0190680N12_35 ROMAGNE      0160550004498000000350000900300000000000187      015016 1047    013813   014099   015099   015316   014814   015998   015343   013545   016340   015885   015151   014799               140145561 1067    130000001    0    120000001    0    110000001    0    100000001    0    013498   014231   014059   015257   014351   014870   015223   012999   015670   015572   014619   014363                                      
350069000310015 00840 1110241Echangeur RD 18     1290390Echangeur RD 155    1350525A84_30-29 ESSART    1340935006153000000220003900300000000000199      020564 1587    015617   017473   017964   021547   021965   021683   024449   026241   021476   020882   018189   018999               140199291 1597    130192261 1617    120191871 1647    110195001 1657    100187661 1637    015395   016329   017502   020347   020446   021927   023929   026078   021081   019966   017820   018025                                      
350002900310015 01370 4110201RD 41               0310355RD 34 Chartres      0380750N137_EX-OC TREMBLAIS0370200007394000000350003700300000000000187      051065 1067    045199   047938   049763   052547   050660   054793   054332   050723   054186   053329   049183   050038               140494851 1057    130471881 1077    120478891 1097    110480841 1107    100000001    0    045008   047455   047258   051330   049126   050552   053172   049275   052479   052189   047813   048107                                      
350001100310015 00120 4110201RN 164 Ech.St Meen  0930007Département 22      1001040N12_35 QUEDILLAC    1000608007978000000350001500122000010030187      024810 1307    020060   022133   022430   026173   025395   025590   028657   028950   025546   025828   022477   024242               140240401 1317    130234291 1327    120231891 1357    110236401 1357    100231791 1327    019553   020854   022204   024084   024399   026161   027214   028351   024502   024625   023205   023077                                      
290002400310015 01650 4110201RN 2165-RD 765 Troya0440592Inter RD 15         0490150N165_29 QUIMPER     0460800004034000000290002400100000000000187      027119  977    023108   024633   025302   027929   026577   028904   029821   030953   028202   027911   025804   026124               140262711  997    130260361 1007    120256861 1017    110259231 1007    100257851 1007    022868   023795   024506   026891   025719   027780   029424   030049   027330   027316   024515   024859                                      
350003000310015 01370 4110201RD 34 Chartres      0380750Entrée Rennes Alma  0430408N137_OC-06          0410060004658000000350003700300000000000187      052156  927    046248   049127   050798   053539   051895   055041   055697   052066   055251   054312   050204   051573               140505221  927    130000001    0    120000001    0    110000001    0    100000001    0    045746   048116   048098   052144   050026   053902   053208   050204   053301   053061   049007   049425                                      
350065000310015 01360 4110201Echangeur RD 86/RD 20270910Echangeur RN 157    0300260N136_17-01          0290840002252000000220003900300000000000199      049855 1127    043077   046103   047507   051749   049760   052752   054656   050660   051938   052361   047793   049698               140482871 1137    130467681 1167    120455111 1167    110446761 1147    100434421 1157    042661   044833   044706   051150   047847   052149   052157   048844   050336   050874   045985   047771                                      
490002600310015 01620 4113001RD 770 Lion d'Anger 0220620Département Mayenne 0330947N162_49 SOLEIL      0250455011327000000490003100300000000000187      007311 1147    006513   006768   007019   007328   007264   007889   008191   006887   007698   007663   007297   007200               140070791 1137    130067851 1157    120065711 1167    110066041 1237    100065051   08    006365   006637   006684   007277   007059   007432   007661   006802   007556   007444   007060   006966                                      
350069500310015 00840 1110241Echangeur RD 155    1350525Limite Dép Manche   1460400A84_30-31 LA JUTAIS 1420200010899000000220003900350000000000199      020482 1547    015426   017360   017837   021448   021881   021496   024434   026622   021376   020723   018023   018874               140198311 1497    130191301 1597    120188521 1647    110193461 1687    100184021 1687    015241   016249   017499   020228   020328   021761   024018   026226   020972   019786   017506   017843                                      
350068500310015 00840 1110241Echangeur RD 794    1160596Echangeur RD 18     1290390A84_28-29 MEULE     1180332012841000000220003900300000000000199      029358 1938    024178   025944   027040   030412   030289   031070   033023   033057   031216   030392   027458   027975               140284181 2078    130275501 1918    120272431  948    110276721 1148    100264721 1138    024043   025302   025890   029489   028567   030486   031730   032627   030229   029202   026549   026698                                      
350066000310015 01360 4110301Echangeur A 84      0260450Echangeur RD86/RD 290270910N136_16-17          0260981001540000000220003900300000000000199      046428 1147    039518   042630   043825   048135   047292   051746   051045   047819   047809   048200   043273   045642               140448961 1157    130433031 1177    120411151 1187    110423681 1147    100420941 1157    038980   040994   041249   047892   044982   048842   048782   046220   046811   047047   042576   044210                                      
560002400310015 01650 4117001ECH.OUEST AURAY     0670310ECH.PRE AUX ETANGS  0870490N165_56 CRANICSOL   0720370021242000000560002900300000000000698      033244  967    028320   031075   031574   035355   032304   034121   036262   036240   034268   034987   031785   032514               140320951  967    130321611  967    120316661  957    110316841  947    100323731  917    027838   029409   030589   032338   031927   032211   035965   038788   031968   031926   030873   031006                                      
560002300310015 01650 4117001ECH.KERBOIS         0650400ECH.OUEST AURAY     0670310N165_56 TOULCHISOL  0660750002387000000560002900300000000000698      038487  857    031552   034463   034964   039612   038547   041002   044525   045599   040336   039184   035479   036267               140371451  857    130000001    0    120000001    0    110000001    0    100000001    0    031094   032518   034226   037672   037258   039568   042734   044341   040104   037367   034152   034362                                      
220000200310015 00120 4110201Département 35      0000000RN176_Le Bois Boudan0270750N12_22 SEVIGNAC     0180400026717000000220001400100000000000195      024268 1377    019422   021499   021895   025649   025527   025252   028247   028386   024875   024921   021788   023506               140234171 1377    130229521 1397    120226161 1417    110230921 1417    100225721 3117    019401   020292   020925   024271   023745   025519   026583   027938   024220   023935   021552   022387                                      
440004401310015 02490 4810201RD 115 Basse Goulain0040929RN 149 Tournebride  0080512Haute Goulaine      0070000003583000000440004500300000000000187      038076                                                                                                                                 140367348    0    130360268    0    120353018    0    110349558    0    100338708    0                                                                                                                                                   
440004500310015 02490 4110201RN 149 Tournebride  0080512RD 763 Vallet       0190667N249_44 VALLET      0140400011195000000490003100100000000000187      031003 1317    028095   029011   030126   031927   030546   033955   031785   030052   033095   032474   030322   030632               140299101 1367    130293331 1397    120287421 1437    110284601 1417    100275761 1387    027681   028838   029127   031038   029586   030979                     031706   031519   029244   029385                                      
560001300310015 01650 4117001RD 34               0020300ECH.BEL AIR         0060470N165_56 PONT-56     0040500002150000000560001800100000000000698      026619 1048    019451   021899   021743   027664   028315   027584   034668   038622   027366   026183   021716   023698               140256681  988    130245971 1197    120246361 1267    110247311 1118    100237291 1128    019001   020113   022557   024990   026850   028205   032231   037331   026846   025019   021614   022693                                      
560003000310015 01660 4110101ECH.DU CREVY        0330350ECH.RN 166          0410125N166_56 PLOERMESOL  0390370005742000000          00000000000698      021778  857    017334   018140   018951   022584   023578   023799   026656   026003   023238   021595   019367   019801               140209841  847    130000001    0    120000001    0    110000001    0    100000001    0    017034   018372   018684   021831   021474   022964   024653   025268   022097   021105   019020   019120                                      
290002900310015 01650 4810201RN 164 Echang Chatea0760800RD 770 Echang Pont-B0780981Rozlann Vihan       0770200002181000000290003000300000000000187      022467                                                                                                                                 140216468    0    130213798    0    120214298    0    110230078    0    100228778    0                                                                                                                                                   
290003000310015 01650 4110201RD 770 Echang Pont-B0780981RD 42 Echang du Faou0900881N165_29 DOUFINESOL  0820850011878000000290003200100000000000187      024726  917    021565   022537   023295   024916   024415   026093   026869   027021   026186   025840   023913   023915               140238221  907    130235271  907    120235811  877    110238951  877    100237591  847    021171   021895   022246   024233   023340   025417   026032   026031   024785   024749   023003   022838                                      
560002200310015 01650 4117001ECH.POULBEN         0630350ECH.KERBOIS         0650400N165_56 KERBOISOL   0640200002033000000560002900300000000000698      049260  777    038781   041909   043805   050910   050164   053039   060252   062485   051707   048846   043826   044764               140474411  777    130000001    0    120000001    0    110000001    0    100000001    0    038246   040391   042543   048150   048241   051529   057487   060797   050302   046759   041962   042281                                      
560000200310015 00240 4117001RD 766 E            0191300ECH. RN 166         0200680N24_56 STANTOINESOL 0200300001253000000560000400300000000000498      031765 1227    024450   026701   027631   033007   034875   034364   039967   039323   032321   031626   027583   028843               140305921 1207    130000001    0    120000001    0    110000001    0    100000001    0    023985   025799   026957   032209   031178   033487   036649   038824   031883   030766   027287   027699                                      
560001200310015 01650 4817001LOIRE ATLANTIQUE    0000000RD 34               0020000LE RODOIR           0010000001000001000440002600300000000000698      026792                                                                                                                                 140257818         130252048         120247158         110249078         100244278                                                                                                                                                        
440002500310015 01650 4810201RD 16 La Sapinière  0450535RD16 Nord           0520137Pontchateau         0490000006602000000440002600300000000000187      031288                                                                                                                                 140301078    0    130294338    0    120288628    0    110290868    0    100285258    0                                                                                                                                                   
440002600310015 01650 4110201RD16 Nord           0520137DEPARTEMENT 56      0650989N165_44 HERBIGNAC   0610800012712000000440003300100000000000193      027306 1277    019404   022271   022167   028487   029214   028415   035814   040110   028075   026773   022184   024202               140262751 1277    130256861 1317    120251871 1357    110253821 1347    100248921 1347    019061   020244   022945   025837   027537   028962   033251   038740   027560   025504   021929   023111                                      
220000601310015 00120 4110201non renseigné       0590002non renseigné       0610500N12_22 ROSAIRESOL   0600080001498000000220001400100000000000415      056798  827    044595   049458   053790   059189   058297   060511   064207   063172   059246   058414   053972   056199               140546391  797    130000001    0    120000001    0    110000001    0    100000001    0    049256   051581   052551   056883   054494   057583   059793   060575   057010   056469   050508   048783                                      
350004300310015 01640 4813001RN 12               0000000RD 166              0110458Montauban           0030000010749000000350000900300000000000187      016798                                                                                                                                 140161558 3200    130000008    0    120000008    0    110000008    0    100000008    0                                                                                                                                                   
290001700310015 01640 4110201RN 2164 Pleyben     0390999Inter RN 165        0460337N164_29 PLEYBEN     0420200007604000000290002200100000000000187      010727 1107    009387   009645   010117   010744   010459   011412   012334   011805   011736   010408   010213   010393               140103161 1097    130099591 1087    120098591 1067    110098421 1077    100097031 1077    009222   009542   009411   010225   009855   010932   011810   011300   010900   010557   009966   010029                                      
350001000310015 00120 4810201RD 71 Montauban     0900903RN 164 Ech.St Meen  0930007Montauban           0910375002083000000350000900300000000000187      029692                                                                                                                                 140285178         130278678         120275048         110277078         100270208 1400                                                                                                                                                   
350000701310015 00120 4810201RD287 Pont de Pacé  0700144RD 21 St Gilles     0730268St Gilles Est       0720250003014003014350000900300000000000187      044740                                                                                                                                 140429698         130419898         120414418         110417468         100407108                                                                                                                                                        
350000900310015 00120 4110201RD 72 Bédée - Bignon0820266RD 71 Montauban     0900907N12_35 COUCAL       0870000008579000000350000900300000000000187      037779 1337    031799   034114   034918   039192   038578   039280   042039   041078   039834   039224   035534   037496               140362831 1208    130354551 1367    120349921 1377    110352491 1228    100343741 1218    031286   033438   034022   037621   035921   038755   039407   039361   037764   037550   034459   035649                                      
290000900310015 00120 4110201RD 770 St Eloi      0570095RD 788 Kergaradec   0700080N12_29 GUIPAVAS     0650800012985000000290001000300000000000187      037345  707    035316   035716   036629   037512   035721   039259   037344   033809   039769   040075   038506   038517               140358491  707    130352951  727    120350101  747    110350621  747    100345011  737    036291   036054   034990   037352   034538   036832   035096   032024   037679   036662   036174   036663                                      
560002502310015 01650 4117001LE TOULDOUAR        0920950ECH.DE KERDUAL      0950025N165_56 RAD4 KERPONT0940890002075000000560002900300000000000698      068550  857    061366   062008   063598   069542   067669   071744   074819   076506   070344   070689                                 140657901  877    130427841  687    120589411  687    110801501  827    100726361  747    059681   062437   061865   068120   066048   068158   072313   072814   065225   067410   061778   063319                                      
530001212310015 00120 4813001N176 Pré - Pail     0040550D 33 Javron         0160829Javron              0120000012279000000530000300300000000000190      005281                                                                                                                                 140050608    0    130049818    0    120055078    0    110056688    0    100055188    0                                                                                                                                                   
530001237310015 00120 4813001D 34 X D 7 Coulonge 0360853Ent.Nord Mayenne    0400208Coulonge            0370600003373000000530000300300000000000190      008621                                                                                                                                 140082598    0    130081308    0    120082378    0    110084788    0    100082538    0                                                                                                                                                   
530001203310015 00120 4813001Dépt.61             0000000N176 Pré - Pail     0040550Margalais           0030000004550000000530000300361000060030190      007996                                                                                                                                 140076608    0    130075408    0    120085928    0    110088438    0    100086098    0                                                                                                                                                   
530001242310015 00120 4843001N12 x N162 x D35    0410500N12 x D23           0420170Agglo Mayenne       0420000001120000000530000300300000000000190      012633                                                                                                                                 140121028    0    130119128    0    120120798    0    110124328  606    100122388    0                                                                                                                                                   
530001241310015 00120 4843001Entrée Nord Mayenne 0400208N162xD35            0410500Agglo Mayenne       0400600000842000000530000300300000000000190      013001                                                                                                                                 140124548    0    130122588    0    120124308    0    110127938  606    100119408    0                                                                                                                                                   
