160000100310015 00100 411 251DEPARTEMENT 79      0000000ECH NORD.RUFFEC     0050000RUFFEC              0020930005279005279170000200386000090030187      017059 3567    014138   015617   015646   017464   017498   017395   019572   021431   016999   016899   015781   016106               140166661 3607    130164301 3667    120162211 3707    110159151 4077    100157511         014145   015258   015570   017452   016432   017526   019111   020364   016312   016566   015377   015737                                      
160000102310015 00100 411 251ECH NORD.RUFFEC     0050000ECH NORD ANGOULEME  0450000AUSSAC              0270080040619039586170000200300000000000187      021572 2987    018477   020099   020291   021961   021345   022146   024046   026772                     019943   020644               140208681 2987    130208071 3097    120206891 2697    110184541 3147    100191561         018692   019900   019993   021882   020702   021999   023395   024758   019940   021325   019947   017796                                      
160000401310015 00100 415 251ECH NORD ANGOULEME  0450000RN 141 LES PLANES   0500950L EPINEUIL          0470300006347006347170000200300000000000187      046772 2317    040904   043694   044155   048025   046432   049285   051594   051120   048637   047087   044882   045268               140454411 2347    130444761 2357    120435991 2377    110425761 2447    100379651         040789   042394   043523   046529   044104   047220   049815   049578   046672   046707   043899   043845                                      
160000402310015 00100 411 251RN 141 LES PLANES   0500950RD 699 ST. MICHEL   0530900GIRAC               0530650002969002969170000200300000000000187      032434 2857    028645   030392   030672   033087   032135   033920   035721   034824   033205   032994   031217   032248               140315221 2877    130295891 3017    120299611 2937    110298211 3077    100277611         028525   029960   030339   032517   030593   032209   034449   033945   031877   032341   030568   030828                                      
160000800310015 00100 411 201BARBEZIEUX NORD     0800000BARBEZIEUX SUD      0880750BARBEZIEUX          0820500008823008823170000200300000000000599      021197 4157    017660   019349   019565   021275   021633   021744   024211   025404   021782   021438   020023   020100               140203041 4157    130198671 4257    120195791 4357    110202491 4387    100172471         017465   018690   019169   020833   019821   020955   023005   024589   020373   020531   019072   018996                                      
160000902310015 00100 411 201BARBEZIEUX SUD      0880750DEPARTEMENT 17      1011148REIGNAC             0900000013161013161170000200317000010030187      022101 4047    018550   020354   020552   022224   022613   022596   025191   026423   022494   022423   020545   021060               140211271 4017    130206291 4137    120205791 4307    110202361 4447    100217621         018258   019580   020039   021409                     023787   025524   021076   021454   020020   020047                                      
160001502310015 01410 4110201RD 13 LA ROCHEFOU.  0430000RN 10 ANGOULEME NORD0700000RUELLE              0580500019284018513170000200300000000000187      023370 2047    020010   021268   021814   023769   023386   024600   026174   026296   024465   023962   022256   022277               140227471 2077    130217791 2097    120211471 2007    110188541 2177    100169351         019910   020734   021393   023154   022298   024023   025334   025515   023951   023397   021691   021434                                      
160001601310015 01410 4113 51RN 10 RTE COGNAC    0680000RD 736 JARNAC       0940160BOURRAS             0860170025948025113170000200300000000000187      014434  887    012205   013093   013677   014947   014552   015668   016721   016161   015282   014332   013532   012965               140139781  807    130137931    7    120136981    7    110135551    7    100130981         012099   012627   013230   014303   013510   014572   015971   015670   015160   014449   013414   012650                                      
160001700310015 01410 4113001RD 736 JARNAC       0940160RD 736 MONTAGAN     0960400JARNAC              0950023002255002255170000200300000000000193      012433  907    010316   011248   011674   013044   012857   013392            014697   013559   012481   012323   011143               140124141  897    130120841    7    120000001         110000001    0    100000001    0    010329   010990   011368   012462   012383   013654   014437   014392   013441   012703   011794   010939                                      
160001802310015 01410 411 201RD 736 MONTAGAN     0960400GIR. CHA BERNARD    1050130GENSAC              1030059008587008560170000200300000000000187      019110  827    017440   018275   018718   020109   019302   020952   021462   019838   019618   018527   017776   017286               140192561  817    130185501    7    120182821 1377    110179671         100160531         016673   017427   018564   019824   019007   020566   021369   020851   020270   019806   018290   018314                                      
160001901310015 01410 4153 51GIR. CHA. BERNARD   1050130GIR. CROIN          1100000COGNAC              1080960005137005137170000200300000000000187      019157  767    016352   017236   017936   019309   019041   020120   021522   021076   020315   019624   018451   018773               140186311  767    130183711    7    120000001         110176341    7    100000001         016777   017277   018012   018923   018282   019409   020769   020484   019628   018933   017389   017584                                      
160002000310015 01410 4113 51GIR. CROIN          1100000DEPARTEMENT 17      1160367MOULIN ST LAURENT   1130660006657006657170000200317000210030187      013074  837    010297   011117   011799   013018   013545   013543   015823   016914   014068   012808   012039   011740               140132981         130000001         120000001         110000001         100000001                           011837   012685   012959   014184   015539   016346   013943   012807   011527   011121                                      
170000100310015 00100 481 251DEPARTEMENT 16      0000000RD 730              0090915CHEVANCEAUX         0010000009935008904170000200316000090130187      021357 4207    017795   019554   019818   021321   022005   021853   024503   025769   021809   021698   019825   020331               140197818         130199778 4417    120000008         110000008         100000008                                                                                                                                                        
170000200310015 00100 411 251RD 730              0090915DEPARTEMENT 33      0190783MONTLIEU LA GARDE   0110300009672009672170000300300000000030187      022924 4017    019128   021013   021228   023016   023493   023649   026169   027438   023236   023136   021385   021998               140212541         130214641 4057    120000001         110000001         100000001         018931   020283   020909   022650   015360   022679   024366   026377                     020262   020692                                      
170000300310015 00110 411 251DEPARTEMENT 79      0000000RD 116              0090272BENON               0080000009375009375170000300379000080230187      013729 1077    010706   011843   012531   014760   014875   014652   016446   016684            013582   012464   012313               140133551 1067    130130251 1137    120126761 1107    110121821 1137    100122031         011032   011253   012242   013812   013590   014723   015470   016372   014568   013516   011894   011639                                      
170000601310015 00110 411 251RN 137              0270000RN 137 RN 237       0350150DOMPIERRE SUR MER   02808500081460081461700012003000       0187      036759  767    031576   033503   034385   038789   037592   037661   041508   041356   038607   036194   034873   034837               140362521  767    130356631    7    120352241    7    110316291         100310061         031375   032582   034201   036870   036683   038767   040327   040790   038984   037454   033523   033215                                      
170001701310015 01370 411 251RD 937              1120000RN 11               1170000PERIGNY             11700000050310050310000000000          0187      066127  687    059064   061955   063148   068432   065051   070975   073924                     068072   065699   064764               140652961  697    130642611    7    120641351    7    110634051    7    100554351         059041   060145   062611   066971   065179   069149   071840   069523   069440   066829   061256   061251                                      
170002100310015 01410 4813001DEPARTEMENT 16      0000000RN 150 SAINTES      0160700CHERAC              0130900016846016846000000000016000200030187      010066  837    007574   008212   008548   009609   010638   010413   014190   013551   010589   009590   009188   008699               140000008         130094098    7    120000008         110000008    0    100000008    0                                                                                                                                                   
170002101310015 01410 4113001RN 150 SAINTES      0160700SAINTES RN 137      0210225SAINTES ROCADE S-E  01802000044700044700000000000000       0187      020742  957    017211   018326   019475   021227   021086   022141   024119   024524   021677   020391   019495   019045               140204981  957    130200121    7    120196051    7    110196391    7    100174821         018066   018792   019489   020822   020858   022236   023260   023546   021651   020259   018655   018222                                      
170002700310015 01500 4113001N 137 SAINTES       0470000RD 728              0500000GATERAT             0490670002959002959000000000000000000000187      012186  467    010160   010715   011094   012409   012205   012841   014262   014835   012767   012049   011293   011472               140120081  457    130118731    7    120118101    7    110113191    7    100115321         010254   010528   010971   012163   011960   012803   014082   014951   012727   011777   010798   010950                                      
170002800310015 01500 4810201ST ROMAIN           0620700ST ROMAIN           0620700ST ROMAIN DE BENET  0620700000000000000000000000000000000000316      015766  577    011234   012147   012780   015462   016191   016392   021679   023321   015991   014762   013462                        140000008    0    130000008    0    120000008    0    110000008    0    100000008    0                                                                                                                                                   
170002900310015 01500 4113 51RD 117              0710058ROYAN EB 10         0770470MEDIS               0760000006412004816170002900300000000000187      016521  447    013235   014129   014783   017155   016938   017742   021220   021900   016880   015476   014179   014382               140164561  467    130161481    7    120161201    7    110148531    7    100164651         013231   014180   014955   016876   016528   017984   020637   021759   017150   015891   014158   013914                                      
170003001310015 02370 411 251RN 137              0000000FIN RN 137          0090230LA DESCENDERIE      0020000009267009267160000100200000000000187      066090  697    058686   061209   062530   068546   064416   069791   071507   067543   070327   067060   065211                        140643941  707    130638331    7    120641021    7    110596951    7    100000001         058471   060081   062111   066382   064662   068105   069729   065601   068796   066440   061644   060526                                      
170003101310015 02370 4810201MIREUIL             0050945MIREUIL             0050945MIREUIL             0050945000000000000160000100200000000000316      022050  907             017471   018556   022424   022794   023989   027441   027567   023552            018768   017505               140000008    0    130000008    0    120000008    0    110000008    0    100000008    0                                                                                                                                                   
330500501310015 00620 111 241A 630               0000000ECHANGEUR LA PRADE  0090992CADAUJAC(S73)       0030000011083011083000000000000000000000194      070168 1057    063325   068048   068642   071903   069407   073885   075862   072628   069915   071543   066670   070030               140639141 1087    130670241 1087    120664821 1087    110665921 1107    100452551         062417   064792   068685   069127   049658   031683   073784   071376   070742   070905   065009   068258                                      
330500600310015 00630 181 241A 630               0000000ECHANGEUR CESTAS    0060000CESTAS(S62)         00600000061770061770000000000000       0187      069343 1657    057143   060378   062792   069954   069598   073810   084350   088455   071473   067695   062150   064316               140000008         130000008         120000008         110000008         100000008                                                                                                                                                        
330550601310015 00630 181 241ECHANGEUR CESTAS    0060000RD 211              0110830CESTAS(S64)         00706000058080058080000000000000       0187      064155 1837    052967   055408   058568   065409   064341   066324   078394   081509   064456   062939   059000   060623               140000008         130000008         120000008         110000008         100000008                                                                                                                                                        
330500801310015 00630 1110241RD 211              0110830A 66                0240670PIERROTON(A63ech24) 0210300012859012859000000000000000000000187      059640 1857    047504   050270   052624   057501   060627   064048   076056   081798   061731   057979   052147   053755               140000001         130000001         120000001         110000001    0    100000001    0                                                                                                                                                   
330500900310015 00630 111 241A 66                0240670RN 10               0460850LUGOS(S67)          04000000222370222370000000000000       0187      033616 3017    026060   027385   028305   032735   033236   033354   045315   053738   034158   031823   027722   029566               140000001         130000001         120000001         110000001         100000001                                                                                                                                                        
330522100310015 06300 181 241A 10                0000000ECHANGEUR LA BARDE  0050000ECHANGEUR LABARDE   00200000049540049540000000000000       0188      107572  627                               106865   104600   113524   112250   104106   111959   110413   105411   106025               140000008         130000008         120000008         110000008         100000008                                                                                                                                                        
330502102310015 06300 111 241ECHANGEUR LA BARDE  0050000RD 1                0100600CANTINOLLE(S08déport00808000059320059320000000000000       0187      082018  807    073439   076652   081359   083401   081340   087088   088564   083933   085540   083471   079644   079516               140000001         130783111    7    120780161    7    110785561    7    100773401                                                                                                                                                        
330502201310015 06300 181 241RD 1                0100600ROCADE SORTIE 9     0140000EYSINES(S11)        01103000036660036660000000000000       0187      084636  727    077846   081820   083412   086995   084243   089218   091044   085796   087443   085105   081294   081414               140000008         130000008         120000008         110000008         100000008                                                                                                                                                        
330502202310015 06300 111 241ROCADE SORTIE 9     0140000ROCADE SORTIE 11 B  0170330LE CHUT(S16)        01500000030970030970000000000000       0187      089059  567    082744   086216   089404   090876   086983   093776   093325                                                            140858491  567    130874791    7    120889111    7    110900661    7    100891871         083392   084902   085787   087942   085053   087673   088072   080296   089835   089885   083574   083874                                      
330502300310015 06300 181 241ECH. 11             0170330ECH. 15             0250000PESSAC(S19)         01703300074240074240000000000000       0187      000000                                                                                                                                 140000008         130000008         120000008         110000008         100000008                                                                                                                                                        
330502500310015 06300 111 231ECH.15              0250000ECH.16              0260000TALENCE(S26)        02600000014390014390000000000          0193      127767 1177    114638   119619   123488   130061   127148   136872   138499   131464   133075   129680   123619   124652               141244081 1177    131239671 1157    120000001         111189481 1057    101202601         116087   119111   122143   127757   123548   130538   133587   127063   131377   127680   115458   118283                                      
330503100310015 06300 181 241ECH.16              0260600ECH.19              0310000CHANTELOISEAU(S28)  02702000039170039170000000000000       0187      128547 1047    117042   121264   127577   132197   127028   137662   137808   129322   133310   129818   124096   125431               140000008         130000008         120000008         110000008         100000008                                                                                                                                                        
330523402310015 06300 181 241ECH.19              0310000ECH.21              0331224LA HOURCADE(S32)    03103450039240039240000000000000       0187      138619 1317    125227   130996   135843   142419   136633   146949   151337   146052   141388   139283   130680   136629               140000008         130000008         120000008         110000008         100000008                                                                                                                                                        
330513400310015 06310 111 241A630                0000000BEGLES              0021290BEGLES-A631(S50)    00100000027250027250000000000          0187      072910  377    069794   071661   074194   074349   071222   078511   073058   063249   077525   075659   072022   073677               140000001         130000001         120000001         110703311    7    100000001                                                                                                                                                        
330505000310015 06600 1110241A 63                0000000FIN 2X2 VOIES       0060664MIOS SIREDO         00300000060070060073305050003000       0187      026560  627    020515   022434   023745   027663   027628   029733   032088   031430   026959   024896                                 140252601  467    130245761         120227291    7    110197661         100233531         020208   021228   023589   025763   025794   028331   029511   030452   027925   025811   022124   022096                                      
330505100310015 06600 1113041FIN 2X2 VOIES       0060664RD 3                0100400Facture             0090000003758003758330505000300000000000187      000000                                                                                                                                 140000001         130000001         120000001         110096561    0    100284641    0                                                                                                                                                   
330000102310015 00100 411 251RD 18               0100137RN 137              0200120PEUJARD             01700770093980093983300003013000       0187      040695 2477    036363   038564   039170   041056   040649   042535   043317   042269   042193   041897   039725   040487               140393211 2477    130382821 2487    120369921 2547    110351651 2787    100354331         035976   037257   038483   039960   038728   040625   041472   041190   040218   040639   038529   038648                                      
330501001310015 00630 4830201S66                 0210739S66                 0210739S66 ECH23           0210739000000000000000000000000000000000316      061912 1827    047832   051110   053352   062341   062802   066055   080212   087548   064381   058577   053014   054619               140000008    0    130000008    0    120000008    0    110000008    0    100000008    0                                                                                                                                                   
330001202310015 00890 4113 51RD 121 GENISSAC     0310790RN 2089 Ech 8       0341380SENAU               03405000053970053973300016003000       0994      000000                                                                                                                                 140000001         130357041    7    120353961    7    110192531         100306571                                                                                                                                                        
330001600310015 00890 411 251RD 13 BEYCHAC       0420223RD 115 POTEAU YVRAC 0470300MONTUSSAN           04301000050570050570000000000000       0187      057213  907    051617   053449   055886   056968   052833            061102   059371   060252   059158                                 140552921  887    130540041    7    120534541    7    110533781    7    100401201         050879   051530   053930   056308   055734   058672   059835                     057949   053756   054050                                      
330001700310015 00890 481 251RD 115              0470300RN 230              0500260LE POTEAU D YVRAC   04705000029830029830000000000000       0187      000000                                                                                                                                 140000008         130000008         120000008         110000008         100000008                                                                                                                                                        
330504000310015 02300 411 451ECH.21              0340000ECH.22              0350247PT F.MITTERAND      03500000012420012423305050003000       0194      118007 1307    105498   111227   113833   121169   115526   123617   130483   128346   121089   118476   110606   115699               141146591 1307    131137291 1327    121113351         111100171         101077401         105459   107289   111384   116708   114298   117961   124258   124895   114396   117456   108484   112574                                      
330524200310015 02300 411 451ECH.22              0350247ECH.23              0360643S38 SENS 1+SENS 2   03600000013960013960000000000000       0194      111199 1487    098183   104192   106552   113568   109825   117463   123910   123890   113564   111284   103324   108052               141089051 1487    131070851 1497    121056671 1497    111054961 1577    101067451         098103   100172   104579   109847   107420   112985   120574   122923   112488   110136   101915   104935                                      
330000000310015 02300 411 401ECH.23              0360643ECH.24              0390541S42 SENS 1+SENS 2   03703090028970028973300001023000       0194      113510 1487    100447   106121   108520   115634   112051   119897   126095   126092   117479   113470   105299   110436               140000001         130000001         120000001         110000001         100000001                                                                                                                                                        
330504300310015 02300 4110401ECH.24              0390541ECH.25              0400703S46                 0400258001207001207330505000333000000000290      118680 1477    106639   113097   115117   120428   115989   123478   129321   128100   121223   120895   112135   117739               140000001         130000001         120000001         110000001    0    100000001    0                                                                                                                                                   
330504601310015 02300 411 601ECH.25              0400703A 10                0440507S47 EXTER ET INTER  04400130038000038003305050003000       0290      120437 1377    107041   114022   117450   122209   119746   126405   132030   129703   123342   121985   113779   117885               140000001         130000001         120000001         111176641 1467    100000001                                                                                                                                                        
330503401310015 06300 4840401S31                 0310968S31                 0310968S31                 0310968000000000000000000000000000000000316      137993 1327    124967   130635   134062   141876   135899   145903   150605   145442   140627   138802   130268   136330               140000008    0    130000008    0    120000008    0    110000008    0    100000008    0                                                                                                                                                   
640002200310015 01340 4113 51PAU                 0370418RD 934              0440600JURANCON            04001000073010056466400024003          0187      018293  557    017435   017461   018331   018301   017469   018784   018882   018468   019053   018898   017936   018451               140179121  557    130174741    7    120175361    7    110178681         100131381         016722   017416   018000   017385   017122   017607   018449   018288   018970   019414   017545   017982                                      
640003200310015 01340 4813001OGEU                0580450OGEU                0580450OGEU                0580450000000000000000000000000000000000316      007954  737    007191   007128   007935   007988   007694   008447   008391   008009   008347   008200   008008   007788               140000008    0    130000008    0    120000008    0    110000008    0    100000008    0                                                                                                                                                   
640002400310015 01340 4112 51RD 920              0610579OLORON EB 10        0660852OLORON              06508000052970050460000000000          0187      011287  587    010343   010575   011318   011081   010840   011968   011844   011499   011914   011699   011244   011074               140110651  517    130108911    7    120108871    7    110100891    7    100111221         010276   010563   011046   010960   010794   011157   011207   011293   011743   011849   011012   010861                                      
640002801310015 01340 4112 51RD 918              0760615RD 918              0780376ASASP               07801860017510012006400028013          0187      004054 1237    003169   003038   003614   004044   004085   004342   004712   005314            004579   003795   003816               140036801  887    130038171 121     120000001         110039241 1177    100035911         002964   003187   003385   003558   003601   003769   004205   005363                     003328   003381                                      
640002900310015 01340 4113 51RD 918              0780376RD 237              0920475SARRANCE            08607000139220132976400028013          0187      003392 1427    002501   002406   002955   003301   003318   003551   004305   005079   003686   003413   003116   002991               140000001         130031561 1257    120000001         110032311    7    100000001                                                                                                                                                        
640002500310015 01340 4813001ESTANGUET           0980270ESTANGUET           0980270ESTANGUET           0980270000000000000000000000000000000000316      002027 1527    001575   001503   001796   002195   002316   002262                     002521   002240   001934   001902               140000008    0    130000008    0    120000008    0    110000008    0    100000008    0                                                                                                                                                   
640003003310015 01340 4113 51URDOS EB 20         1090270ESPAGNE SOMPORT     1230278COL DU SOMPORT      12300000138910138910000000000          0194      000390  717    000684   000416   000601   000377   000160   000149            000630                                                   140005051  477    130004291         120003661    7    110003411    7    100000001         000475   000659   000650   000379                     001377   000573   000252   000186   000130   000361                                      
640003100310015 11340 4113 51RN 134 PR 115       1160000ESPAGNE             1190000FORGES D'ABEL-TUNNE 11602000037980037980000000000          0106      000948 2587    000733   000783   000936   001161   001204   001081                                       000776   000903               140008821 1847    130010921 2427    120010721 2507    110011021 2397    100008571         000731   000805   000928   001009   000895   000817   000167   001703   000895   000993   000779   000849                                      
790000806310015 00110 411 251RN 248              0540000DEPARTEMENT 17      0650681EPANNES             0560700012045012045860000900317000030030187      019826 1087    015555   017054   018007   021231   021367   021248   023563   024255   020457   019452   017799   017694               140194051 1077    130190541 1137    120189641 1087    110190541 1077    100169771         015611   016469   017841   019879   019683   021325   022271   023875   021762   019612   017353   016979                                      
790002301310015 02480 4113 51A 10                0000000RN 11               0080758LES GRELLES         00409500089670089678600009003          0187      007894 1177    005631   006397   006606   008437   009002   008448   010017   010347   008200   007760   006769   006972               140076521 1197    130000001         120000001         110052681         100000001         005673   006068   006574   008259   007794   008690   009372   010260   008178   007650   006599   006594                                      
860000501310015 00100 411 251EX RN 10            0580890RN 11               0620334CROUTELLE           06007850034540026498600009003          0187      033253 1987    029897   031763   031818   035277   033876   035112   034998   035528   034047   033008   032118   031569               140332461 1967    130329381 1987    120315561 2057    110316511 2157    100000001         030260   031685   031958   034342   032628   034703   035574   036024   033472   034014   031906   032290                                      
860000600310015 00100 411 251RN 11               0620334RD 742              0740535RUFFIGNY            06603500121400121408600009003          0187      023508 2537    020865   022174   022245   024120   023326            025226   025633   024023   023956   022922   023586               140231931 2477    130227931 2527    120000001         110224881 2597    100203971         020828   021838   021962   023805   022532   024033   025259   025835   023278   023769   022414   022658                                      
860000701310015 00100 411 251RD 742              0740535COUHE EX RN 10      0870550LES MINIERES        07701800130210130218600009003          0187      018700 3097    016394   017348   017406   019257   018916   019041   020711   021830   018867   018828   017457   018215               140184181 3037    130181631 3097    120158711 3067    110171541 3307    100169171         015743   017161   017353   019154   018019   019087   020668   021836   018141   018620   017342   017774                                      
860000900310015 00100 411 251CHAUNAY EX RN 10    1000110DEPARTEMENT 79      1070118CHAUNAY             1060430006881006881          79000010030187      014919 3427    012772   013657   013672            015370   014960   015937   018577   015515   014865   014012   014643               140146081         130144641 3467    120140021 3497    110143951 3687    100120881         012547                     015475   011757   015224   016744   018575   014235   014559   013781   013964                                      