880000740310015 00570 3110201Ech. Razimont       0330426Ech. Arches         0400572SRDT DEV_EPINAL     0340340007157007157880001010300000000000515      000000                                                                                                                                 140220731 1437    130000001    0    120252751    0    110255631 1567    100254341 1467    023922   016191   026008   027169   025237   027574   026827   024998   026051   015640   012417   012435                                      
880000730310015 00570 3810201Ech. Parc expos     0310988Ech. Razimont       0330426Failloux            0330000001439001439880000740300000000000515      000000                                                                                                                                 140229988    0    130266838    0    120263358    0    110266368    0    100000008    0                                                                                                                                                   
880000720310015 00570 3810201Ech. Jeuxey         0300876Ech. Parc expos     0310988Les Grandes Terres  0310300001113001113880000740300000000000515      000000                                                                                                                                 140314978    0    130365428    0    120360678    0    110364788    0    100000008    0                                                                                                                                                   
880000710310015 00570 3810201Ech. Chavelot       0260155Ech. Jeuxey         0300876Les Neuf Lieux      0280000004729004729880000740300000000000515      000000                                                                                                                                 140288278    0    130334458    0    120330098    0    110333868    0    100000008    0                                                                                                                                                   
680501100310015 00350 1810241Ech. Croix de la Har1000039Ech. Rixheim        1040629Rixheim Nord        1030000004570004570680501000300000000000515      000000                                                                                                                                 140553608    0    130541788    0    120531228    0    110000008    0    100000008    0                                                                                                                                                   
680501000310015 00350 1110241Ech. Rixheim        1040629Ech. Bartenheim     1170923SRDT RIXHEIM        1050320013316013316680501000300000000000515      000000                                                                                                                                 140512781  727    130501831    7    120492041    0    110491811    7    100474061    7    046774   049004   050771   051459   050376   053460   054412   052563   053563   053586   050066   049198                                      
680003900310015 00830 3110201Limite A35 (Houssen)0580000Ech. Ostheim        0620737SRDT OSTHEIM        0610050004229001000680004110300000000000515      000000                                                                                                                                 140581721 1457    130573481 1487    120579941    0    110583851 1507    100570851 1507    051623   054438   056248   057720   057350   061690   061355   060868   060022   061043   055852   059575                                      
680000900310015 00660 4823001Giratoire Wesserling0100258Giratoire St-Amarin 0120127Ranspach            0100300001863000300680001100300000000000515      000000                                                                                                                                 140101758    0    130000008    0    120109118    0    110110958    0    100000008    0                                                                                                                                                   
670005200310015 00350 1110221Frontière           2000000Ech. Seltz          2100990SRDT LAUTERBOURG    2000500010449010449          00000000000515      000000                                                                                                                                 140091091 2397    130090411 1848    120099711 2178    110098921 2598    100091871 2668    006854   007437   007868   009241   009507   010234   011099   010676   010278   010266   008516   007235                                      
570502700310015 00300 1110241Ech. Hayange Ouest  0100580                    0120000SRDT HAYANGE        0110380001420001420570502700300000000000515      000000                                                                                                                                 140207401 1667    130197511 1597    120193011    0    110196941 1727    100000001    0    019106   020119   020418   021732   020390   021971   021754   018992   021789   022104   021105   019455                                      
570502600310015 00300 1810241Ech. Hayange Est    0080234Ech. Hayange Ouest  0100580Hayange             0100000002340002340570502700300000000000515      000000                                                                                                                                 140295958    0    130281848    0    120275428    0    110281038    0    100000008    0                                                                                                                                                   
570502500310015 00300 1810241Ech. Fameck centre  0060007Ech. Hayange Est    0080234Sérémange           0070000002233002233570502700300000000000515      000000                                                                                                                                 140436618    0    130415798    0    120406328    0    110414608    0    100000008    0                                                                                                                                                   
570220200310015 00040 3110201Ech. Sarrebourg Oues0180100Ech. Sarrebourg Est 0231050SRDT SARREBOURG     0200000006788006788          00000000000515      000000                                                                                                                                 140202261    0    130202071    0    120203061 2057    110202951 1638    100000001    0    019054   019696   020058   020875   019417   020684   020391   020122   021401   021758   019564   019693                                      
570007401310015 00610 4110201Ech. D99            0210550Fin 2x2             0300750SRDT SARREGUEMINES  0250400007249007249          00000000000515      000000                                                                                                                                 140174241  767    130170331    7    120171021    7    110168261    7    100000001    0    015831   016664   017127   018154   017423   018400   017958   017188   018190   018207   017459   016495                                      
540502100310015 03300 1110241Ech. Richardménil   0060127N 57 (fin)          0091000SRDT RICHARDMENIL   0060170003991003991550000700300000000000515      000000                                                                                                                                 140361991  977    130189051    0    120359501    0    110000001    0    100000001    0    033885   035945   035931   037568   035569   038944   036600   034306   037777   038099   035321   034569                                      
540501100310015 03130 1810231Ech. Pont-à-Mousson 0000000PONT A MOUSSON      0010700Bretelle PàM        0010000001700001700          00000000000515      000000                                                                                                                                 140078738    0    130076608    0    120000008    0    110000008    0    100000008    0                                                                                                                                                   
540500600310015 00310 1110231Ech. Bouxières      2570684Ech. Custines       2600500SRDT BOUXIERES      2580000002816000281540500800300000000000515      000000                                                                                                                                 140679621    0    130000001 1507    120680431 1517    110000001    0    100000001    0                      064503   070360   070324   072222   074022   072101   069411   065864   060658   060177                                      
540500100310015 00310 1110231Ech. Origine (Laxou)2480000Ech. Gentilly       2500615SRDT LAXOU          2480000002507002507540500400300000000000515      000000                                                                                                                                 140596251    0    130586941    7    120588991    0    110600721    7    100000001    0    052929   055703   056731   061599   058060   064314   068338   065761   061992   059708   055233   054906                                      
540003800310015 00520 3110201Ech. Villers-la-Mont0090322Ech. Mexy           0131002SRDT MEXY           0130800004782004782540003820300000000000515      000000                                                                                                                                 140217291 1397    130206611 1387    120210161    7    110208521 1307    100000001    0    020324   021327   021401   022996   021442   023044   022632   019222   022951   022944   021863   020689                                      
520000401310015 00040 3110701Ech. N67            0160385Limite Dépt 55      0170788SRDT ANCERVILLE     0170790001403001403520001300355000070010515      000000                                                                                                                                 140151581 3537    130149181 3577    120150091 3657    110152731 3667    100000001    0    013324   014235   014707   015870   015207   016454   016269   015939   015485   015511   014247   014610                                      
510002800310015 00440 4813001LA CHAUSSEE SUR MARN0800000Giratoire N4        0920290La Chaussée sur Marn0840200012218012218510002700300000000000515      000000                                                                                                                                 140144778    0    130143928    0    120146738    0    110149378    0    100000008    0                                                                                                                                                   
510002700310015 00440 4113001Ech. D1             0630881LA CHAUSSEE SUR MARN0800000SRDT CHEPY          0720000016305016305510002700300000000000515      000000                                                                                                                                 140152261 2317    130151361    0    120154311    0    110157081 2018    100000001    0    014008   014637   015169   015867   015107   016521   015510   014720   016327   015586   014441   014827                                      
510002640310015 00440 3110201Ech. D3             0610754Ech. D1             0630881SRDT ST_MEMMIE      0620670002053002053510002700300000000000515      000000                                                                                                                                 140269261    0    130220681    0    120224991    0    110000001    0    100000001    0    025545   026332   027141   028054   026597   028669   026880   025383   030017   026840   024797                                               
510002620310015 00440 3813001Ech. D977           0590950Ech. D3             0610754Chalons-Melette     0600500001860001860510002640300000000000515      000000                                                                                                                                 140349808    0    130286698    0    120292298    0    110000008    0    100000008    0                                                                                                                                                   
510002610310015 00440 3110201Ech. D1             0560785Ech. D977           0590950SRDT ST_MARTIN_S_PRE0570740003148003148510002640300000000000515      000000    0                                                                                                                            140325781    0    130267011    0    120272221    0    110123361    0    100000001    0                                                                                                                                                   
510001000310015 00040 4110201Dév. Esternay       0050687Ech. D 951          0190786SRDT ESTERNAY       0100080014132012950510001400300000000000515      000000                                                                                                                                 140088161    0    130091911 4017    120094661 4077    110093751 2088    100000001    0    007969   008179   008259   008868   008720   009336   009434   008872   009279   009462   008561                                               
510000900310015 00040 4813001Limite Dépt 77      0000000dév. Esternay       0050687Courgivaux          0040000005684004793510001000377000150030515      000000                                                                                                                                 140096618    0    130100728    0    120103748    0    110102758    0    100000008    0                                                                                                                                                   
250001640310015 00570 4110201Giratoire N83       0150025Ech. Trou aux Loups 0200052SRDT MERCUREAUX     0160020007105007105390000105300000000000515      016078                                                                                                                                 140160481    0    130000001    0    120000001    0    110000001    0    100000001    0    013835   015029   015746   015738   015603   016257   015903   019693   016423   016599   015991   015671                                      
680001610310015 00660 3110201Ech. Wittelsheim Sud0330026Ech. A36            0370855SRDT LUTTERBACH     0360700004797004797680004110300000000001187      032120  727    031618   033109   033646   033712   029729   037180   024096   020382   036635   036487   034666   034719               140340691  737    130333791    7    120341391    0    110319001    7    100333921    7    033422   034350   032527   034918   033129   035339   034293   032875   035176   036430   034053   032448                                      
700001301310015 00570 4813001Saulx (inter D14)   0320600Inter N19           0440529Comberjon           0430000011728011000700001300300000000000515      011565                                                                                                                                 140119378    0    130117578    0    120118988    0    110141768    0    100000008    0                                                                                                                                                   
700001300310015 00570 4113001Fin dév. Luxeuil (gi0180950Saulx (inter D14)   0320600SRDT PONT_JOLY      0290600013906013498700001300300000000000515      007811 1827    006874   007686   007747            008204   008456   008958   008669   008507   007469   006537   006810               140080621 1907    130079401 2037    120080351    0    110095731 1577    100083371 1697    007067   007381   007911   008213   008045   008571   008716   008848   008513   008460   007665   007308                                      
570501200310015 00310 1110241Ech. Guénange       3240800Ech. Yutz Est       3280618SRDT GUENANGE       3250770003809003809570501200300000000000515      075156 1157    069199   074811   076237   078533   077957   083350   090350   066479   059347   080366   072679   072316               140768211 1167    130410961 1197    120375841 1237    110587691    0    100000001    0    069985   073437   074329   078853   074277   080029   086506   081842   080336   077831   072533   071702                                      
250001400310015 00830 4813001Limite Dépt 39      0000000Quingey             0110328Samson              0080500011328011000250001501339000390030515      009543                                                                                                                                 140096858    0    130089248    0    120000008    0    110101228    0    100000008    0                                                                                                                                                   
250001501310015 00830 4113001Larnod              0220000RN 57               0280475SRDT BEURE          0270685006375006375390000105300000000000515      013669 1517    011911   012753   013473   014320   014285   015050   013608   014178   014456   014062   012991   012926               140138711    0    130127801 1177    120000001    0    110144951 1417    100149261 1497             012819   013400   014224   014225   015282   013974   014068   014793   014082   013101   012575                                      
670501610310015 03500 1150231Ech. A35            0000000Fin A350            0010236SRDT HERRENSCHMIDT  0000800001238001238          00000000000515      041476  317    040827   042945   042642   043014   040154   043745   040256   037926   041915   042474   041522   040568               140420651  317    130000001    0    120587201    0    110000001    0    100000001    0    041669   044029   043188   042345   043116   043090   040675   035605   044108   043609   043280   040400                                      
670501300310015 03520 1110241                    0020000Ech. Molsheim       0090850SRDT DUTTLENHEIM    0040500007032007032          00000000000515      026797  847    024342   025929   026416   026106   025840   029559   027118   024678   029415   028758   027216   026275               140271351  847    130260991    7    120262991    0    110269731    7    100279131    7    024710   025793   026160   026683   027285   030929   027653   026384   029517   028839   026416   025284                                      
570501400310015 00310 1110241Ech. Elange         3360725Ech. Kanfen         3440525SRDT KANFEN         3400560007909007909570501600300000000000515      060957 1267    054521   058737   059398   061901   061996   063899   075697   071247   065917   062634   046737   048418               140615731 1227    130621431 1307    120608461 1247    110629061 1267    100000001    0    056071   057859   059229   063053   060488   063461   072654   069113   063898   060365   056287   056056                                      
540005400310015 00570 3812001Ech. Vézelise       0520000Ech. Haroué-Bayon   0620750Neuviller           0620000010750010750540005300300000000000515      045770                                                                                                                                 140460308    0    130454818    0    120457488    0    110466968    0    100000008    0                                                                                                                                                   
540005300310015 00570 3110201A330 FLAVIGNY       0490000Ech. Vézelise       0520000SRDT FLAVIGNY       0500500003000003000540005300300000000000515      032838 1077    030212   033412   033366   033962   033099   035493   033613   031757   033206   033323   031230   031523               140330241 1097    130326301    0    120328211 1247    110335011    0    100000001    0    030696   032831   032924   034211   032341   035382   033574   031906   034278   034594   032067   031597                                      
570501300310015 00310 1150231Ech. Thionville cent3290967Ech. Beauregard     3310452SRDT BEAUREGARD     3300700001483000000570501600300000000000515      079521         069774   074167   076608   078375   079075   082875   088409   084283   085634   083610   074334   076691               140798991 1067    130676951 1067    120000001    0    110807301 1017    100000001    0    074337   077150   077509   082088   077742   082557   089012   083939   081416   080728   076073   076052                                      
670501310310015 03510 1150231Ech. CHU            0010430Ech. Centre sportif 0020700SRDT CENTRALE_THERM 0010870001266000000          00000000000515      057246         054643   057376   058087   058442   055538   060877   055285   050437   058788   060831   057546   059322               140574421    0    130559411    7    120540611    0    110540281    7    100542971    7    057174   058926   058475   058182   057805   058877   055454   049842   060037   061620   057093   056113                                      
390003600310015 00830 4110201Gir. Saint-Lothain  0570000N 5                 0640693SRDT POLIGNY        0610350007100007100390003700300000000000515      012860 1737    011111   013032   012773   013438   013185   013787   013886   013426   013048   012636   011847   012180               140128651 1737    130000001    0    120000001    0    110124331 1747    100124601 1807    011077   012541   012911   012993   012866   013874   013903   014188   013514   012995   011784   011718                                      
670004600310015 00350 1810241Ech. Offendorf      2360418Ech. Hoerdt         2450606Kilstett            2400000009152009152670502000300000000000515      025545                                                                                                                                 140255358    0    130253278    0    120255948    0    110253678    0    100000008    0                                                                                                                                                   
670502000310015 00350 1110241Ech. Hoerdt         2450606Ech. A4             2480580SRDT HOERDT         2470000002963002963000000000000000000000515      033159         030002   031573   032390   034330   033493            034190   033082   035476   034998   032866   031234               140331461 1987    130328761 2097    120332221    0    110329271    0    100327181 2207    030463   031327   032555   034104   033128   035487   034584   032461   034837   034759   031555   032426                                      
670001100310015 00040 4815001Intersection D228   0360551Ech. A351           0380315Wolfisheim Ouest    0370000001759001759670501500300000000000515      024708                                                                                                                                 140246888    0    130256288    0    120250828    0    110250488    0    100000008    0                                                                                                                                                   
670001000310015 00040 4815001Début (Ittenheim)   0320000Intersection D228   0360551Ittenheim           0350000003609003049670501500300000000000515      021001                                                                                                                                 140209848    0    130217838    0    120213198    0    110212908    0    100000008    0                                                                                                                                                   
670501500310015 03510 1150231Ech. Wolfisheim     0040200Fin (N4)            0040811SRDT WOLFISHEIM     0040200000611000611          00000000000515      020562  627    019119   020133   020618   020859   020266   021899   020053   018482   021864   021952   020759   020800               140205451  617    130213271    7    120208721    0    110208431    7    100206421    7    020260   020914   020875   020887   020671   021780   020133   017934   021292   021697   020289   019906                                      
570501350310015 00310 1110241Ech. Bétange        3340848Ech. Elange         3360725SRDT VEYMERANGE     3350960001877001877570501600300000000000515      064406 1267    056468   061511   062164   064831   065003   067876   078183   073670   068933   065692   053125   055040               140642501 1267    130000001    0    120000001    0    110000001    0    100000001    0    058116   060526   061962   065431   063076   066588   074925   071573   066709   063865   059331   058577                                      
570501320310015 00310 1150231Ech. Beauregard     3310452Ech. Bétange        3340848SRDT LINKLING       3320020003396000000570501600300000000000515      071156 1057    063506   067662   068504   070696   071163   075384   081887   077339   074417   072132   064987   065878               140709531 1057    130000001    0    120000001    0    110000001    0    100000001    0    065471   068026   068963   072428   069201   072991   079880   075680   073687   071692   066784   066417                                      
540501420310015 00330 1110231                    0100000                    0110000SRDT LUDRES         0100020001027001027540001820300000000000515      040650 1657    036703   039829   040745   041547   040070   043787   040798   038309   041835   042902   040317   041030               140405211 1657    130000001    0    120000001    0    110000001    0    100000001    0    037763   039788   039821   042194   039575   043231   041254   038118   042598   043080   039521   039421                                      
670500500310015 00350 1150631Ech. Cronenbourg (A33000900Ech. Porte Blanche (3020200SRDT CRONENBOURG    3010500001285000000          00000000000515      162847  847    155391   163576   164277   166241   158808   172349   163316   146461   168265   170861   161770   163471               141621561  857    131592331    7    121633811    0    111637881    7    101640131    7    158013   163764   164072   163772   162079   167265   163041   149557   168938   170409   159340   156116                                      
540500400310015 00310 1110441Ech. Nancy 3 Maisons2540418Ech. Frouard        2560538SRDT CHAMPIGNEULLES 2560030002136002136540500400300000000000515      087317         079205   084311   086195   090215   086366   095237   097299   088574   091852   087416            078707               140868821 1317    130000001    0    120863281 1307    110891011    0    100000001    0    080165   084142   083959   090201   084533   092462   094101   087560   091487   090149   082311   081536                                      
880002110310015 00590 3810201Ech. D415           0230110Ech. Fin 2x2        0240753Saint-Dié Sud       0240000001643001643880002100300000000000515      004927                                                                                                                                 140049028    0    130044508    0    120044338    0    110000008    0    100000008    0                                                                                                                                                   
880002100310015 00590 3110201Ech. D85            0140876Ech. D415           0230110SRDT ST_DIE         0210300009038009038880002100300000000000515      016307         013802   015665   015495   016628   016721   017062   017661   017521   016754   016583   014656   017072               140162231 1157    130147251    0    120146681    0    110000001    0    100000001    0    014008   015049   015543   016681   016287   017379   017217   017130   016923   016770   015238   016377                                      
670501510310015 03510 1150231Ech. Centre sportif 0020700Ech. Wolfisheim     0040200SRDT BUGATTI        0030398001490000000          00000000000515      042607         040558   042351   043104   043445   041409   045796   041345   036953   044418   044889   043019   044174               140423751    0    130419171    0    120418371    0    110406921    7    100404081    7    041738   043109   042894   042859   042638   044028   041341   037014   044334   044991   042312   041452                                      
680500800310015 00350 1110241Ech. Huningue       1240398PFD Saint-Louis     1260000SRDT SAINT_LOUIS    1250380001602001602680501000300000000000515      031474  588    028465   030450   031320   031565   029558   032698   034150   033373   032750   032293   029924   031078               140312941  588    130313101    8    120307071    8    110305521    8    100296951    8    028836   030120   030779   030360   030253   032413   035100   033828   032519   032054   029911   029247                                      
670500700310015 00350 1150431Ech. Porte Schirmeck3030950                    3050000SRDT ELSAU          3040150001053000000          00000000000515      131611 1287    123273   130314   130384   134218   126888   138074   134302   122568   137115   138474   130766   133270               141308021 1297    131282651 1297    121313641    0    111311081 1337    101311161 1157    125428   130479   130975   132693   130844   135668   132511   125930   136564   136822   128127   123871                                      
680500900310015 00350 1110241Ech. Bartenheim     1170923Ech. Aéroport       1220760SRDT BLOTZHEIM      1210750004804004804680501000300000000000515      052108  717    047657   051162   052162   053564   051435   055056   054685                     053997   050498   050859               140517631  757    130000001    0    120000001    0    110000001    0    100000001    0    047679   047671   050810   051677   050507   054399   055671   054034   054898   053874   050333   049344                                      
670500600310015 00350 1150631Ech. Porte Blanche (3020200Ech. Porte Schirmeck3030950SRDT PTE_SCHIRMECK  3030200001761000000          00000000000515      155547  877    147120   155361   157148   158612   150636   163590   157044   143396   160822   163282   154498   155534               141544721  897    131460631    7    121547651    0    111502211    7    101519941    7    149576   155491   156364   156721   154596   159399   155480   144271   160786   162181   151582   147664                                      
570501900310015 03200 1110241Ech. Forbach Ouest  0060500Ech. Forbach centre 0090500SRDT FORBACH        0070000002994002994570502100300000000000515      041727  827    037490   039095   041291   042986   042597            041980   042463   043938   043415   040783   042783               140414141    0    130000001    0    120000001    0    110000001    0    100000001    0    038849            039996   043058   041132   043742   041732   040399   043708   043455   040428   039219                                      
540501300310015 00330 1110231Ech. Origine (Laxou)0000000Ech. Brabois        0060020SRDT CLAIRLIEU      0040300006343006343540001820300000000000515      064351 2007    058150   063221   064195   065818   063008   069300   066043   060929   067253   067470   062878   064094               140638471 2017    130628221 2057    120629591 2077    110643541 2137    100000001    0    059550   063107   063104   066422   062705   068174   065066   059753   067079   067576   062156   061671                                      
570002101310015 00040 3110201Ech. Héming         0100375Ech. Sarrebourg Oues0180100SRDT BEBING         0160000007064007064570003100300000000000515      013694         011705   012746   013315   014085   013934   014860   014398   014043            014516   013556   013439               140135861 2637    130000001    0    120000001    0    110000001    0    100000001    0    012116   012647   013041   014089   013488   014994   014248   013585   014264   014468   013066   013000                                      
520000302310015 00040 3110701Ech. Ch. De la Marin0140850Ech. N67            0160385SRDT MARNAVAL       0150370001535001535520001300300000000000515      019212         016108   018305   018407   020265   019804   020432   020935   020143   019838   019904   017727   018636               140190491 3567    130187421 3587    120190181 3637    110192691 3647    100000001    0    016718   017915   018536   019941   019098   020639   020456   019730   019600   019709   018089   018119                                      
670500710310015 00350 1150431                    3050000                    3060000SRDT PLAINE_BOUCHERS3050100001008000000          00000000000515      131182  937    122575   129569   130779   132850   126247   137403   134083   123781   136454   137982   130069   132615               141300591  967    130000001    0    120000001    0    110000001    0    100000001    0    124735   129773   131342   131985   130223   135330   132054   125447   134727   135829   127442   122094                                      
570502100310015 03200 1110241Ech. Stiring-Wendel 0120100Frontière           0130635SRDT SPICHEREN      0130600001550001550570502300300000000000515      019867 1457    017337   018029   019016   020672   021099   021078   022241   024225   020796   020833   017396   015521               140196801 1397    130189001 1387    120186881 1417    110000001    0    100000001    0    017770   017837   018725   020329   019358   020466   021221   021697   020686   020500   019060   018396                                      
250000206310015 00570 4150201Ech. A36            0070255Ech. Saint-Claude   0090280SRDT VALENTIN       0080900001940000000250000301300000000000515      040700  767    038397   040738   040871                     043159   040689   035924   042757   042644   041156   041178               140403001  767    130000001    0    120000001    0    110000001    0    100000001    0    039270   040518   041153   041815   040629   041328   039018   035221   042254   042146   040519   039905                                      
520001710310015 00670 4813001Ech. Gourzon        0160914Ech. Vecqueville    0280050Chatonrupt          0230000011205011205520001600300000000000515      006817                                                                                                                                 140067498    0    130065008    0    120067058    0    110069748    0    100000008    0                                                                                                                                                   
520001810310015 00670 4813001Ech. Vecqueville    0280050Ech. Thonnance-lès-J0290500Joinville -Ste-Anne 0290000001448001448520001600300000000000515      008706                                                                                                                                 140086198    0    130083018    0    120085638    0    110089078    0    100000008    0                                                                                                                                                   
520001600310015 00670 4113001Giratoire origine   0000000Ech. Gourzon        0160914SRDT PREZ_MARNE     0130600012983012983520001600300000000000515      007327 2777    006497   007032   007239   007674   007183   007758   007629   007185   007654   007588   007242   007251               140072531 2627    130069851 2637    120072051 2717    110074941 2757    100000001    0    006579   006990   007256   007613   007228   007648   007562   007302   007566   007477   007027   006792                                      
540501900310015 03300 1810231Ech. Fléville       0030100Ech. Ludres ZI      0050150Ludres              0040500002085002085540501800300000000000515      053875                                                                                                                                 140533298    0    130277728    0    120528118    0    110547168    0    100000008    0                                                                                                                                                   
540502000310015 03300 1810241Ech. Ludres ZI      0050150Ech. Richardménil   0060127Ludres ZI           0050500000974000974540501800300000000000515      050449                                                                                                                                 140499378    0    130260068    0    120494528    0    110512368    0    100000008    0                                                                                                                                                   
540501800310015 03300 1110231Parc Expos (début)  0000000Ech. Fléville       0030100SRDT HEILLECOURT    0010007003076003076540501800300000000000515      059900  397    057020   058442   060963   060864   059129   064520   057993   051902   063090   062959   060776   061310               140592921    0    130000001    7    120587161    7    110608341    7    100000001    0    060406   060528                     058130   062840   056938   050498   062062   062742   059630   059477                                      
670500100310015 00040 1150431Ech. Hoenheim       0040200Ech. Bischheim      0050000SRDT HOENHEIM       0040500000813000000          00000000000515      097024 1157    090364   095274   095513   098146   091773   100696   099225   095198   101537   102232   095408   099004               140960361 1177    130955861 1197    120972871    0    110977501 1267    100975901 1247    092081   095023   095968   097054   095055   098807   098886   092912   099799   101144   092741   093009                                      
250003414310015 00570 4153001Ech. Saint-Ferjeux  0121245Giratoire N83       0150025SRDT MICROPOLIS     0140026003939000000390000105300000000000395      032748         029372   031847   032583   034137   032399   034964   033827   031217   034332   034158   032103   032088               140323871    0    130195931    0    120000001    0    110000001    0    100000001    0    029390   030868   032387   033256   032571   033969   032440   032782   034126   033888   032047   030901                                      
550000800310015 00040 3810201Début dév. Ligny    0250400Ech. Ligny          0270053Déviation de Ligny  0260000001686001686550000700300000000000515      012325                                                                                                                                 140121898    0    130120098    0    120122838    0    110126168    0    100000008    0                                                                                                                                                   
550000700310015 00040 3110201Limite Dépt 52      0000000Début dév. Ligny    0250400SRDT AULNOIS        0110500024611024611550000700352000040130515      014542         012234   013992   013791   014800   014524   015332   015808   015346   014973   015065   013818   014790               140143811 3577    130141681 3607    120144911 3667    110148831 3637    100000001    0    012511   013439   013810   015081   014314   015549   015427   015043   014709   014902   013652   014094                                      
540003824310015 00520 3110201Ech. Aubange        0230341Frontière           0240960SRDT MONT_SAINT_MART0240200001639001639540005300300000000000515      031042  917    028202   029327   030618   031977   031455   033138   032573   028714   031834   032028   030830   031759               140306961  917    130295581    7    120259261    0    110295141    7    100000001    0    029128   029751   030199   032016   030368   031868   032175   028672   031920   032096   029849   030314                                      
670500320310015 00040 1150431                    0060000Fin A4 (A35)        0061012SRDT SCHILTIGHEIM   0060650001012000000          00000000000515      123047  967    115870   122270   122840   125151   114425   127509   124615   119745   128292   129465   121810   124843               141216611 1017    130000001    0    120000001    0    110000001    0    100000001    0    118109   122014   123376   122199   119350   125746   124425   114588   126936   128403   116880   118116                                      
670500210310015 00040 1150431                    0030000Ech. Hoenheim       0040200SRDT GARE_TRIAGE    0030700001207000000          00000000000515      101370 1157    094359   099626   099847   102548   096503   105692   103401   098001   106347   107042   099788   103393               141002071 1157    130000001    0    120000001    0    110000001    0    100000001    0    096090   099160   100181   101220   099200   103293   102795   096304   104255   105840   097129   097079                                      
880002900310015 00660 4110701Ech. Accrues Noël   0020957Fin voie expresse (S0180250SRDT LEPANGE        0080300021720016034680000700300000000000515      007929 1107    006986   007601   007906   008103   008004   008088   008484   007978   008268   008196   007668   007847               140078381 1137    130000001    0    120000001    0    110108611    7    100000001    0    007420   007668   007796   008190   007822   008453   007658   007841   008088   008134   007518   007486                                      
700001700310015 00570 4813001Ech. Rioz           0690253Limite Dépt 25      0810690Rioz                0720000012517012517700001600325000010030193      011739                                                                                                                                 140116048    0    130110028    0    120112818    0    110114278    0    100000008    0                                                                                                                                                   
700001600310015 00570 4113001Giratoire D457      0510700Ech. Rioz           0690253SRDT LA_MALACHERE   0680000017407017103700001600300000000000515      010815 1357    009519   010462   010585   011463   010701   011682   011337   010769   011419   011166   010440   010261               140106901 1377    130101351    0    120103921    0    110105261 1497    100103031 1457    009685   010110   010619   010939   010696   011384   010973   010686   011402   011316   010433   010020                                      
680000800310015 00660 4813001Urbès               0070076Giratoire Wesserling0100258Wesserling          0090004003151001911680000700300000000000515      004976                                                                                                                                 140049178    0    130000008    0    120051128    0    110054038    0    100000008    0                                                                                                                                                   
680000700310015 00660 4115001Limite Dépt 88      0000000Sortie d'Urbès      0070076SRDT COL_BUSSANG    0060102006919006902680000700388000320030515      003603 1888    002774   003078   003278   003636   003815   003921   004276   004394   003783   003678   003235   003322               140035601 1858    130000001 1608    120037011 2008    110039111 2018    100038981 1578    002961   003086   003326   003611   003654   004044   004053   004103   003801   003768   003189   003088                                      
670501800310015 00350 1110241Ech. Maison Rouge   4380582Ech. N59            4420401SRDT SELESTAT       4400900003818003818670501800300000000000515      052179 1567    044261   048437   049818   052164   052600   055327   057283   055698            054888   050588   052590               140515541    0    130507301 1707    120513551    0    110497651 1727    100492001 1677    047398   047979   051006   052057   050726   055328   055620   052023   053854            049984   050943                                      
670350800310015 00350 1110231                    3150000Ech. Duppigheim     3160767SRDT DUPPIGHEIM_NORD3160600001754001754          00000000000515      068546         061437   066510   066073   069535   067477   070113   070805   066407   072272   072876   067784   071252               140677111    0    130000001    0    120000001    0    110000001    0    100000001    0    062213   065484   067463   068830   067515   071027   070775   066914   069765   071223   065747   065500                                      
570500730310015 00310 1150431Ech. La Maxe        3070673Croix Hauconcourt   3130292SRDT ST_REMY        3110400005639000000570501200300000000000515      085355 1107    076872   081344   082487   085515   084488   090163   095444   087084   088671   086712   081443   083792               140842951 1047    130000001    0    120000001    0    110000001    0    100000001    0    078396   081176   081941   086266   082644   088926   093612   086164   086507   085456   080664   079643                                      
520000301310015 00040 3110701Ech. D2             0130000Ech. Ch. De la Marin0140850SRDT LES_BARGES     0130850001850001850520001300300000000000515      020945         017572   019929   020009   022032   021457   022164   022845   021963   021574   021667   019350   020726               140206621 3277    130203211 3287    120000001    0    110210461 3367    100000001    0    018187   019340   020101   021604   020699   022227   022056   021375   021227   021420   019716   019937                                      
670500200310015 00040 1150431Fin concession (Reic0000000                    0030000SRDT SOUFFEL        0020550002364000000          00000000000515      107077 1177    099800   105214   104606   108233   102619   111945   109208   103278   112382   112803   105578   109392               141055941 1197    131051511 1227    121067941    0    111073431 1247    101071961 1217    101626   104860   104991   107184   105062   109064   108301   101000   109906   111754   102757   100766                                      
670501200310015 03510 1150431Ech. A35            0000000Ech. CHU            0010430SRDT CHARMILLE      0000636001429000000          00000000000515      088948  537    087049   090479   089713   089889   087005   094632   083625   079341   092006   093261   089046   091794               140876751  537    130869901    7    120880781    0    110884531    7    100879871    7    087321   089742   088793   088788   086288   090109   084686   076315   091594   093859   089013   086084                                      
670500720310015 00350 1150441                    3060000Ech. Baggersee      3060780SRDT BAGGERSEE      3060000000780000000          00000000000515      118307  807    109756   116205   115360   120027   113527   124405   121997   115892   123306   123261   116489   119618               141165901  817    130000001    0    120000001    0    110000001    0    100000001    0    109824   115971   116876   116840   114927   118863   117886   113982   122464   126742   114056   110772                                      
880001100310015 00570 3810201Ech. Peuxy          0500717Ech. Moulin (N66)   0550090Saint Nabord        0520000004412004412880001010300000000000515      029459                                                                                                                                 140290288    0    130000008    0    120000008    0    110000008    0    100000008    0                                                                                                                                                   
880001010310015 00570 3110201Ech. Pouxeux        0450351Ech. Peuxy          0500717SRDT POUXEUX        0480100005379005379880001010300000000000515      026006 1397    023106   026042   025810   026387   025711   027275   026950   025802   027052   027186   025215   025612               140256251 1397    130000001    0    120000001    0    110000001    0    100000001    0    023549   025012   025320   026937   025092   027297   026800   025360   026804   026624   024515   024230                                      
670350700310015 00350 1110231Ech. Duppigheim     3160767Début VRPV          3190000SRDT DUPPIGHEIM_SUD 3170180002024002024          00000000000515      068459 1177    060936   066109   066871   069107   067604   070339   070692   066664   072324   072639   067431   070738               140674481 1177    130000001    0    120000001    0    110000001    0    100000001    0    061610   064908   066950   068383   067112   070852   070185   067016   070722   071096   065461   065013                                      
570002000310015 00040 4113001Limite Dépt 54      0000000Ech. Héming         0100375SRDT IBIGNY         0020350010507010507570003100300000000000515      009977         008390   009325   009561   010301   009966   010641   010764   010473   010411   010424   009612   009838               140098261 3177    130000001    0    120000001    0    110000001    0    100000001    0    008703   009179   009504   010267   009771   010814   010370   009915   010198   010336   009368   009462                                      
670500810310015 00350 1150431                    3080000Ech. Vigie          3100000SRDT AIRE_SERVICE   3080350002004000000          00000000000515      119427  947    110469   116972   118222   120321   114569   124706   121543   113167   124191   125797   118296   124950               141175961  987    130000001    0    120000001    0    110000001    0    100000001    0    112216   116870   118557   119433   117581   122598   119660   112754   123717            116123   114348                                      
670500800310015 00350 1140431Ech. Baggersee      3060780                    3080000SRDT OSTWALD        3080000001213000000          00000000000515      120991 1017    112313   119017   119374   122495   116816   127090   124013   115214   126478   127928   120376                        141191361 1017    131187221 1077    121200481    0    111211511 1077    101202841 1037    114055   118810   120525   121626   119714   125044   122168   115096                     118220   116312                                      
550002100310015 01350 4113001Giratoire N1135     0050000Ech. Ligny          0140290SRDT TANNOIS        0060200008792005463          00000000000515      010472 1057    009849   010352   010735   010657   010534   011332   010238   009089   010876   010806   010616   010621               140103071 1067    130100401 1057    120101861 1117    110103731 1067    100000001    0    009930   010323   010168   010826   010170   010931   009956   008935   010836   010873   010471   010324                                      
570501000310015 00310 1110441Ech. Mondelange     3200250Bifurcation A30     3230000SRDT RICHEMONT      3210450002741002741570501200300000000000515      098660 1207    086934   093809   096037   099758   096620   105457   111068   102146   103259   100603   094060   093963               140971051 1217    130000001    0    120000001    0    110000001    0    100000001    0    088952   092751   094385   100039   095285   102489   107975   099207   101994   099360   092653   090022                                      
540501220310015 00310 1110241Ech. Parc de Haye   2440905Ech. Origine (Laxou)2480000SRDT LES_BARAQUES   2470270003044003044540001820300000000000515      060981 1947    052136            057148   062361   060461   065393   070870   066117   063048   060614   055289   057426               140600141 1947    130591591 1977    120599451 1997    110376841    0    100000001    0    053177   055980   057180   061879   058461   064820   069112   066368   062394   060106   054841   055576                                      
680501900310015 00350 1150231Limite N83 (Houssen)0590000Ech. Colmar Nord ZI 0630405SRDT THEINHEIMER    0610390003596003596520001300300000000000515      040673 1867    034738   038134   038492   039787   039736   042183   044842   043807   043459   043034   039007                        140400251 1877    130392671 1957    120392491    0    110383721 1987    100261501 1797    035069   037101   038516   040321   039273   043025   044038   042692   041012   041337   037629   040061                                      
670500900310015 00350 1110241Ech. Vigie          3100000Ech. Geispolsheim   3120200SRDT GENS_VOYAGE    3100200002176002176          00000000000515      081718 1167    073896   079325   080382   082772   079609   084983   084797   077375   086399   086589   080761   083752               140804151 1177    130792421 1207    120784871    0    110751581 1127    100740981 1077    074581   078320   079534   081695   079819   084229   083033   078440   084672   084804   078434   077460                                      
670501020310015 00350 1110241                    3130500                    3150000SRDT GEISPO_VILLAGE 3140180001988001988          00000000000515      073178 1187    065471   070805   071649   074238   071830   075445   075468   070628   077240   077692   072201   075447               140719471 1187    130000001    0    120000001    0    110000001    0    100000001    0    066155   068590   071707   073184   071766   075573   075095   071322   075664   075574   070002   068630                                      
680001400310015 00660 3110201Thann Est           0230469Ech. Cernay Sud (D830280811SRDT CERNAY         0270870004222004222680004110300000000000515      023827  777    021503   022634   023527   024389   023414   025722   024595   022809   024934   024745                                 140234071  787    130232711    7    120235711    0    110000001    0    100000001    0    021952   022682   023418   023801   023679   024387   024286   022475   024570   024554   022975   022100                                      
540500920310015 00310 1810241Ech. Atton          2750330Ech. Lesménils      2800561Atton               2780000005229005229540500800300000000000515      053568                                                                                                                                 140526148    0    130511878    0    120000008    0    110527898    0    100000008    0                                                                                                                                                   
540500910310015 00310 1810241Ech. Pont-à-Mousson 2740180Ech. Atton          2750330Pont-à-Mousson      2750000001150001150540500800300000000000515      053214                                                                                                                                 140522668    0    130508488    0    120000008    0    110524398    0    100000008    0                                                                                                                                                   
540500800310015 00310 1110241Ech. Belleville     2660631Ech. Pont-à-Mousson 2740180SRDT AUTREVILLE     2670400007555007555540500800300000000000515      059854         051732   056635   056832   060851   059144   062889   069658   064606   063092   060855   055382   056356               140587871    0    130571921 1377    120000001    0    110589811 1687    100000001    0    051594   054931   055682   060457   057066   063590   067897   064026   061964   059979   054557   053504                                      
670004300310015 00830 4150401Ech. D222           0400650Ech. Vigie          0420387SRDT ROND_POINT     0410500001727001727670502000300000000000515      061460  957    057253   060166   061531   062491   059081   066731   063460   055404   063674   064626   061318   061936               140603571  987    130605301 1017    120616051    0    110618851    7    100631061    7    058365   060592   061373   062366   061082   063658   061169   056863                     060389   057914                                      
540005800310015 00590 3810201Ech. Bertrichamps   0260622Limite Dépt 88      0320570Bertrichamps        0280000005948005948540005620388000151030515      011590                                                                                                                                 140113818    0    130110148    0    120106908    0    110113638    0    100000008    0                                                                                                                                                   
540005620310015 00590 3110201Ech. Baccarat       0221120Ech. Bertrichamps   0260622SRDT BACCARAT       0250460004182004182540005620300000000000515      011440         009249   010998   010749   011690   011786   012099   012535   012271   011600   011946   010928   011405               140112331 1647    130108701 1687    120105501 1717    110112141 1737    100000001    0    009183   010160   010666   011540   011260   012308   012017   012108   011775   011654   010671   011396                                      
510001310310015 00040 4813001Giratoire N 44      0850000Giratoire Marolles  0890322Déviation RN 4 Vitry0890000004569004569510001400300000000000515      018645                                                                                                                                 140183058    0    130181488    0    120186178    0    110190418    0    100000008    0                                                                                                                                                   
510001400310015 00040 4110201Giratoire Marolles  0890322Limite Dépt 52      1000964SRDT VAUCLERC       0920800011740011740510002640352000010030515      019220         016200   018448   018543   020083   019168   020358   020457   020148   020050   019813   018688   018688               140188691 3617    130187071 3637    120191901 3817    110196271 3727    100000001    0    016693   017964   018558   019850   018650   020436   019956   018847   019580   019554   018073   018256                                      
540500700310015 00310 1110241Ech. Custines       2600500Ech. Belleville     2660631SRDT CUSTINES       2620150007555007555540500800300000000000515      065023         056852   061148   061832   064509   065315   070128   075223   069613            067521   060888   061865               140638191    0    130626371 1177    120629601    7    110635131    7    100000001    0    056483   059928   060756   065839   062441   069200   072952   068508   066945   064707   059388   058511                                      
570501201310015 00310 1110241Bifurcation A30     3230000Ech. Guénange       3240800SRDT RICHEMONT 2    3240040001801001801570501200300000000000515      065357 1217    057259   062458   063126   065585   061707   068555   076597   071054   069315   066886   060044   061480               140641311 1277    130000001    0    120000001    0    110000001    0    100000001    0    057693   060645   061627   065439   061953   066960   073767   070609   066252   064605   060072   059693                                      
570007300310015 00610 4110201Giratoire D674      0190839Ech. D99            0210550SRDT WOUSTWILLER    0200920002083002083          00000000000515      022376                           021923   022539   022222   023947   022880   021248   022866   022859   021693   021630               140219551  727    130000001    0    120000001    0    110000001    0    100000001    0    020378   021272   021618   022799   021899   023328   022449   020823   022828   023131   021864   021108                                      
680500100310015 00360 1850231Fin concession      1000000Ech. Mulhouse-Dornac1020042Mulhouse Ouest      1010000002042000000680500200300000000000515      085788                                                                                                                                 140841618    0    130822868    0    120809068    0    110828788    0    100000008    0                                                                                                                                                   
680500200310015 00360 1150431Ech. Mulhouse-Dornac1020042Ech. Mulhouse centre1050580SRDT BOURTZWILLER   1040700003538000000680500700300000000000515      088928 1367    079389   083949   087470   094198   087050   093868   091863   088476   093323   092945   086617   087897               140872411 1357    130852971 1367    120838661    0    110859101 1437    100839801 1407    080577   083261   084982   095169   086957   094219   087838   084059   091798   092176   084201   081789                                      
540003821310015 00520 3810201Ech. Longuyon       0180382Fin 2x2             0200520Station épuration   0190000002138002138540003820300000000000515      035931                                                                                                                                 140352358    0    130338158    0    120336748    0    110336768    0    100000008    0                                                                                                                                                   
540003820310015 00520 3113001Ech. Mexy           0131002Ech. Longuyon       0180382SRDT VIADUC_LONGWY  0170100004366004366540003820300000000000515      021354 1397    019018   020047   021385   022422   021778   023308   021552   018694   022058   022140   022052   021800               140209401 1407    130200961    0    120200121    0    110200131 1397    100000001    0    019436   020344   020607   022294   020812   022292   021515   018818   022202   022087   020917   020024                                      
670501010310015 00350 1110241Ech. Geispolsheim   3120200                    3130500SRDT ECH_GEISPO     3120700001294001294          00000000000515      073316         065547   070885   071751   074315   071939   075556   075572   072196   077364   077790   072278   074570               140718811 1227    130707281 1237    120698651    0    110702161 1287    100658561 1237    065322   068589   071860   073266   071856   075614   073399   071397   075776   076040   070077   069297                                      
880001900310015 00590 3110201Ech. D259           0040033Ech. D32            0120163SRDT ETIVAL         0070100007766007766880002100300000000000515      014886 1237    013046   014427   014332   014904   014697   015365   015363   015056   015343   016208   014426   015444               140145871 1077    130142781 1127    120000001    0    110000001    0    100123921 1317    013037   013897   014094   014766   014587   015512   015046   014767   015148   015142   014164   014859                                      
880000200310015 00570 3810201Ech. Châtel-sur-Mose0140844Ech. Igney          0200297Dév. Nomexy         0150350005492005492880000100300000000000515      027490                                                                                                                                 140269228    0    130258758    0    120260908    0    110000008    0    100000008    0                                                                                                                                                   
880000100310015 00570 3110201Limite Dépt 54      0000000Ech. Châtel-sur-Mose0140844SRDT CHARMES        0060400014882014882880000100354000550030515      021920 1567    019067   022290   021690   022418   022025   023273   023027   022087   022643   022646   020928   021035               140214671 1567    130000001    0    120000001    0    110000001    0    100216261 1507    019329   021166   021530   022148   020799   023335   022549   021381   022398   022323   020703   020003                                      
570500900310015 00310 1110341Ech. Maizières      3150122Ech. Talange        3170895SRDT MAIZIERES      3160350002782002782570501200300000000000515      101386 1147    090494   096049   098471   101967   099867   107412   112251   103936   106657   104105   096859   098283               140992811 1167    130961741 1197    120959301 1227    110970491 1277    100000001    0    091207   095202   096308   102649   096661   104363   109409   101129   103613   101887   095089   093735                                      
880001300310015 00570 3113001Ech. Le Baccu       0560883Ech. Plombières     0640788SRDT OLICHAMP       0590000007903007903880001300300000000000515      011665 2107    009527   010973   010940   011997   011791   012376   013001   012889   012131   012019   010823   011472               140114191 2107    130000001    0    120000001    0    110112001    0    100112521 2117    009657   010452   010956   011754   011274   012331   012612   012604   011968   011835   010737   010796                                      
570010401310015 04310 3110201Ech. Metz FIM (D999)0020900Ech. Magny (D913)   0080400SRDT GRIGY          0030550005500005500          00000000000515      022058 1097    020138   021200   022301   022169   021662   024021   020811   020570   023819   023627   022500   021931               140215881 1077    130000001    0    120224141    0    110206321    7    100000001    0             021117   021291   022473   021324   022586   021012   019099   022918   023131   021790   020789                                      
570500100310015 00310 1110241Limite Dépt 54      2840000Ech. Féy            2920000SRDT FEY            2900770007987007987          54050100030515      056870 1777    048963   052974   053261   057432   056294   060760   066823   062387   059867   057450   052251   053692               140556461 1797    130000001    0    120000001    0    110274331    0    100000001    0    048517   051518   052560   056911   054283   060310   065109   062033   058666   055873   051262   050457                                      
520002400310015 00670 4113001Ech. Jonchery       0690675Fin (A5)            0810190SRDT SEMOUTIER_MONTS0790640011638011638540001820300000000000515      005527         004765   005333   005418   005831   005425                     005571   005877   006004   005583   005460               140054081 2997    130000001    0    120000001    0    110000001    0    100000001    0    004843   005165   005315   005512   005244   005753   005786   005715   005644   005619   005190   005099                                      
540001821310015 00040 3810201Ech. Lunéville centr0340910Ech. Lunéville ZI   0380800Hériménil           0360000003897003897540001820300000000000515      031128                                                                                                                                 140304298    0    130000008    0    120000008    0    110175858    0    100000008    0                                                                                                                                                   
540501700310015 00330 1810241Ech. ZI des Sables  0240830Fin A33 (N4)        0250998Hudiviller          0250000001166001166540001820300000000000515      033240                                                                                                                                 140324938    0    130275338    0    120274448    0    110187788    0    100000008    0                                                                                                                                                   
540001820310015 00040 3110201Fin A33             0260000Ech. Lunéville centr0340910SRDT CHAUFONTAINE   0330800008908008908540001820300000000000515      028472 1847    024670   027080   027691   029191   028604   030295   029393   028432   029767   029927   027594   028984               140278321 1837    130000001    0    120000001    0    110160841 1178    100000001    0    025033   026408   026921   028994            029043   028908   027525   028930   029263   027189   027900                                      
250000100310015 00570 4113001Limite Dépt 70      0000000Echang. A36         0070255SRDT CHATILLON_DUC  0020815007203006170250000301370000170030515      020024 1067    018086   019328   019717            019703   021714   021149   019369   021309   020845   019561   019503               140195411 1047    130194131    0    120191391    0    110190791 1057    100186431 1017    017970   018762   019533   020161   019753   020798   019777   018511   020735   020452   019241   018821                                      
670350200310015 00350 1110241Ech. Zellwiller     4250400Ech. Dambach        4350307SRDT SAINT_PIERRE   4260800010390010390          00000000000515      042992 1497    036380   040376   040803   043528   043057   042885   044695   045256   045503   045060   042386   045795               140419251 1527    130000001    0    120000001    0    110000001    0    100000001    0    036261   038451   040555   042140   041169   044601   045211   044638   043309   043687   039811   043005                                      
570010300310015 04310 3150201début (éch. D603)   0000000Ech. Metz FIM (D999)0020900SRDT BORNY          0020200002754000000          00000000000515      042836  867    039082   041579   043429   042581   043742   046071   041848   037962   046510   046381   043369   041593               140417261  867    130341171    7    120210471 1017    110368041    7    100000001    0    040199   041923   041265   043059   042200   043233   040240   036531   044983   045689   041956   039659                                      
670503000310015 00350 1110241Ech. D500           4180174Ech. Goxwiller      4200992SRDT NIEDERNAI      4190000002818002818000000000000000000000515      051239 1557    043957   048317   049274   052277   050903   051898   054257   053677   054474   053750   050413   051528               140499011 1557    130485501 1597    120477271    0    110474551 1667    100423081 1657    043952   046668   048677   050660   049408   052601   052831   051557   051338   052527   048447   049948                                      
670350500310015 00350 1110241Début VRPV (A35/A3523190000Ech. Innenheim      4110694SRDT INNENHEIM_NORD 3210630003476003476          00000000000515      042235 1437    036636   040334   040627   043190   042296   042170   043985   042867   044983   044362   040924   044336               140411241 1427    130402821 1487    120395561    0    110000001    0    100000001    0    036936   039135   040728   041347   040645   043368   043094   042125   043055   043020   039574   040361                                      
670500400310015 00350 1150431Fin A4              3000000Ech. Cronenbourg (A33000900SRDT PLACE_HAGUENAU 3000324000900000000          00000000000515      100011 1187    092364   097704   098353   100154   102209   109146   100694   097232   102193   103481   097050   099598               140973431 1207    130946081 1277    120985991    0    110987421 1247    100990441 1227    093995   097329   098594   098131   095343   100597   100747   093660   101027   102708   092695   093384                                      
570500400310015 00310 1150431Ech. Moulins        2990142Ech. Metz centre    3030011SRDT METZ_SUD       3010410003827000000          00000000000515      075902 1197    067078   071696   071931   075494   075095   080722   086332   079489   079448   077045   071390   074809               140738481 1227    130720561 1237    120720471 1227    110753571    7    100000001    0    066890   069885   070700   074952   071798   078183   082581   077318   076900   075384   070888   070499                                      
540501200310015 00310 1110241Ech. Gondreville    2380290Ech. Parc de Haye   2440905SRDT VELAINE        2420730006622006622540001820300000000000515      056023         048173   051905   052738   057238   055056   060116   066050   062009   058279   055918   051098   053378               140544941 1867    130534301 2037    120537971    0    110552401    0    100000001    0    047245   049986   051231   055956   052855   057099   062429   062314   057419   055313   050415   051326                                      
570500200310015 00310 1110241Ech. Féy            2920000Ech. Jouy           2970000SRDT AUGNY          2940440005723005723          00000000000515      052825 1637    045381   049462   049103   053022   052060   056174   062851   058384   055098   053200   048416   050462               140513611 1667    130503091 1667    120496571 1687    110507701 1767    100000001    0    045006   047452   048542   052123   049857   055120   060625   057386   053581   051468   047641   047250                                      
550002400310015 11350 4113001Giratoire D1916     0000000Giratoire N135      0050877SRDT LONGEVILLE_BAR 0050030005877002527570003100300000000000515      006085 1017    005539   005857   006190   006135   006068   006468   005908   005375   006670   006436   006186   006203               140059141    0    130000001    0    120000001    0    110000001    0    100000001    0    005630   005875   005869   006219   005926   006312   005765   005242   006127   006200   005931   005894                                      
570500300310015 00310 1150431Ech. Jouy           2970000Ech. Moulins        2990142SRDT JOUY           2970020002124000000          00000000000515      067297 1297    058642   063151   063381   067273   066034   071293   077540   072096   069648   068536   063111   066527               140653961 1267    130643761 1387    120653271 1287    110676611 1297    100000001    0    058790   061389   062448   066295   064058   068953   074124   070187   067524   066011   062387   062308                                      
250000500310015 00570 4813001Fin 2x2 (D492)      0370000St Gorgon-Main      0560691Fallerans           0410000019183019183250000600300000000000515      009147                                                                                                                                 140088828    0    130000008    0    120000008    0    110081008    0    100000008    0                                                                                                                                                   
250000700310015 00570 4810201RD 130              0670383RD 72               0680716Pontarlier Nord     0680000001687001687250000600300000000000515      013451                                                                                                                                 140130618    0    130000008    0    120000008    0    110119118    0    100000008    0                                                                                                                                                   
250000800310015 00570 4843001RD 72               0680716RD 47               0700800Pontarlier Aerodrome0700000002790000000250000600300000000000515      016417                                                                                                                                 140159418    0    130000008    0    120000008    0    110145378    0    100000008    0                                                                                                                                                   
250000600310015 00570 4113001St Gorgon-Main      0560691RD 130              0670383SRDT LA_VRINE       0610900010805010805250000600300000000000515      013294  747    011601   013260   013099   013549   013153   013834   013999   013823   013840   013724   012533   013124               140129081  757    130000001    0    120000001    0    110117711    7    100112691    7    011527   012691   013310   012929   012624   013386   013311   013294   013531   013536   012465   012284                                      
680000600310015 00590 4813001Giratoire D459      0140730Limite Dépt 67      0180148Bois l'Abbesse      0170000003550003550680000510367000160130515      011203                                                                                                                                 140108668    0    130104628    0    120102148    0    110101298    0    100000008    0                                                                                                                                                   
680000510310015 00590 4113001Début (Ste-Marie-aux0080000Giratoire D459      0140730SRDT LIEPVRE        0130800006705006705680000510300000000000515      007206  877    005806   006494   006662   007173   007189   007651   007871   007945   007915   007564   006801   007360               140069891  857    130067291    7    120065691    0    110065141    7    100060211    7    005764   006061   006551   006782   007017   008166   007510   007463   007674   007390   006518   006919                                      
670350400310015 00350 1110241Ech. Innenheim      4110694Ech. D500           4180174SRDT INNENHEIM_SUD  4120000006440006440          00000000000515      044665 1407    038953   042728   043039   045754   044517   044734   046007   044759   047690   047003   043685   047018               140432981 1417    130422871 1457    120408591    0    110000001    0    100000001    0    039040   041283   042851   043491   042668   045698   044978   043688   045466   045670   042062   042595                                      
570002500310015 00040 3110201Ech. Sarrebourg Est 0231050Ech. A4             0320882SRDT BROUVILLER     0270000008470008470570003100300000000000515      020221 1927    017956   019123   019880   020883   020355   021797   020572   019478   021135   021440   019899   020114               140195941    0    130000001    0    120000001    0    110000001    0    100000001    0    018330   019049   018921   019932   019470                     019076   021037   021353   019449   019324                                      
570502800310015 00300 1110241Ech. Fontoy         0170847Limité Dépt 54      0260429SRDT AUMETZ         0220260008402008402670501500354000381030515      023104         020284   021147   021961   023430   022798   025142   024037   020777   023742   024625   024991   024276               140223441    0    130211501 1387    120209811 1367    110000001    0    100000001    0    020112   021691   021988   023516   022011   023840   023393   020488   023776   023409   021603                                               
570502400310015 00300 1810241Ech. VR52           0040800Ech. Fameck centre  0060007Rémélange           0050500001348001348570502300300000000000515      029779                                                                                                                                 140287868    0    130273998    0    120270388    0    110291438    0    100000008    0                                                                                                                                                   
570502300310015 00300 1110241Ech. Uckange        0000934Ech. VR52           0040800SRDT UCKANGE        0010000003771003771570502300300000000000515      034288 1097    031064   032993   034528   035151   034070   036831   034604   030629   035344   035912   035467   034920               140331441 1117    130315461 1277    120311301 1097    110335531 1127    100000001    0    031371   032672   032686   034432   032619   034736   033880   029924   034814   035244   033613   031851                                      
250000301310015 00570 4110201Ech. Trou au Loup   0200052Ech. Saône ZI       0230575SRDT SAONE          0210370002470002470250000301300000000000515      024601  787    021966   024297   024289   025639   024249   025748   024507   022960   026345   026358   024547   024399               140237541  797    130000001    0    120000001    0    110000001    0    100000001    0    021954   023229   024109   024385            025077   023639   021702   024634   025430   024053   023132                                      
390003900310015 00830 4813001Ech. Port-Lesney    0830850Limite Dépt 25      0871100Port Lesney         0860000004493004493390003700325000140030515      007430                                                                                                                                 140071718    0    130070288    0    120071668    0    110071978    0    100000008    0                                                                                                                                                   
390003800310015 00830 4817001ARBOIS              0750000Ech. Port-Lesney    0830850Les Arsures         0790400008578008578390003700300000000000515      008742                                                                                                                                 140084378    0    130082698    0    120084328    0    110084698    0    100000008    0                                                                                                                                                   
390003700310015 00830 4113001N 5                 0640693ARBOIS              0750000SRDT BUVILLY        0710030009480009480390003700300000000000515      009385 2057    007589   008416   008851   009609   009505   010078   010472   010742   010570   009751   008568   008422               140090571 2067    130088761    0    120090501    0    110090891 2007    100105681 1877    007640   008283   008757   009280   009273   009962   009754   009863   009944   009307   008532   008057                                      
570010403310015 04310 3110201Ech. Magny (D913)   0080400Ech. Féy (A31)      0140700SRDT MARLY          0100000006500006500          00000000000515      024622  957    022380   023413   024814   024418   024375   026939   024211   021883   026917   026831   025158   024168               140237541  967    130233731    7    120231061 1137    110214661 1137    100000001    0    022903   023781   023240   024609   023276   025157   022801   020643   025625   025898   024469   022798                                      
880000600310015 00570 3110201Ech. Igney          0200297Ech. Chavelot       0260155SRDT CHAVELOT       0240300005894005894880000740300000000000515      032564 1197    029702   033159   033048   033448   032532   034857   032461   031118   033492   033440   031749   031921               140313721 1167    130317991 1197    120320631    0    110322101 1227    100000001    0    030110   032220   032235   033918   030068   034319   033343   020948   033588   033681   031446   030924                                      
700000900310015 00190 4813001Romchamp (inter D4) 0840300Frahier (inter D16) 0920900Ronchamp            0860000008568005206700000800300000000000515      005537                                                                                                                                 140053328    0    130049108    0    120000008    0    110000008    0    100000008    0                                                                                                                                                   
700000901310015 00190 4813001Frahier (inter D16) 0920900Fin (D19)           0980343Frahier             0940000005386002550700000800300000000000515      008233                                                                                                                                 140079288    0    130073008    0    120000008    0    110000008    0    100000008    0                                                                                                                                                   
700000601310015 00190 4813001Ech. D919           0450161Giratoire Lure (D64)0681452Bouhans-lès-Lure    0670000024144021780700000800300000000000515      008566                                                                                                                                 140082488    0    130075958    0    120000008    0    110000008    0    100000008    0                                                                                                                                                   
700000800310015 00190 4110201Giratoire Lure (D64)0690000Ech. Dév. Lure      0740382SRDT LURE           0730500005329005329700000800300000000000515      016013 1787    013551   014839   015514   016770   016333   017332   016726   015575   016809   017029   015826   015820               140154181 1747    130141961    0    120000001    0    110000001    0    100000001    0    013543            014917   015872   015446   016502   016310   014393   016170   016441   015264   014814                                      
670004900310015 00350 1810241Ech. Rountzenheim   2210562Ech. Rohrwiller     2320167Sessenheim          2230000010568010568670005000300000000000515      016863                                                                                                                                 140162208    0    130159708    0    120162878    0    110154838    0    100000008    0                                                                                                                                                   
670005000310015 00350 1110241Ech. Forstfeld      2160035Ech. Rountzenheim   2210562SRDT LEUTENHEIM     2180700005502005502670005000300000000000515      024195 2207    020785   021688   022220   023686   023440   025622   027179   025479   026610   026571   023074   023814               140232721 2237    130229121 2207    120233661    0    110222121 2477    100216901 2377    021297   021679   022438   023720   023583   025224   025487   024665   023841   024012   022598   020636                                      
680500300310015 00360 1150431Ech. Mulhouse centre1050580Ech. Croix de la Har1100750SRDT ILE_NAPOL      1080000005170001247680500700300000000000515      095969 1337    085814   091094   093557   097096   094418   101751   099174   095052   100838   101264   093752   097656               140922801 1337    130913111 1317    120894451    0    110919461 1317    100894781 1327    085684   088838   090922   094426   092233   099600   095328   090718                     092425   089203                                      
250001000310015 00570 4842001Pontarlier Sud      0710904Le Franbourg        0740548Les Rosiers         0720500002945002700250001100300000000000515      025656                                                                                                                                 140245668    0    130000008    0    120231638    0    110225898    0    100000008    0                                                                                                                                                   
250001200310015 00570 4810201Début 2x2           0830610Fin 2x2             0870953Dév. Les Hôpitaux   0860000004286004286250001100300000000000515      011575                                                                                                                                 140110838    0    130000008    0    120000008    0    110000008    0    100000008    0                                                                                                                                                   
250001100310015 00570 4113001Le Frambourg        0740548Début 2x2           0830610SRDT LA GAUFFRE     0760600018916018560250001100300000000000515      011575  687    010179   012045   011307   011114   011255   011905   012794   012806   011684   012519   010422   010882               140110831  697    130000001    0    120104501    0    110101911    7    100097261    7    009939   011374   011684   010855   010775   011379   011888   012290   011225   011133   010191   010270                                      
680501700310015 00350 1110241Ech. Colmar Sud     0660600Ech. Colmar centre  0690158SRDT DACHSBUHL      0670547002560002560520001300300000000000515      043986 1817    037664   041452   042263   044989   043577   044755   047873   046231   046684   046656   042715   042825               140417911 1977    130419381 1937    120412761    0    110422211 2037    100396331 2077    037707   040037   042033   042927   041941   042576   038572   043044   044530   044822   040925   042337                                      
570003100310015 00330 4110201Giratoire Creutzwald0110200Frontière           0150590SRDT CREUTZWALD_CONT0110310004600004600          00000000000515      006755         005690   006206   006562            006437   007339   007230   007101   007043   007194   006691   006791               140064041    0    130000001    0    120000001    0    110000001    0    100000001    0    006025   006285   006466   006718   006298   006619   006689   005988   006785   006759   006324   005902                                      
900001300310015 10190 4110701Ech. Morvillars     0140622Frontière           0201200SRDT FECHE_EGLISE   0180600006578006578          00000000000515      008048  597    007501   007801   008154   008496   007847   008654   007633   006834   008600   008707   008317   008065               140075791  577    130000001    0    120000001    0    110000001    0    100000001    0             007380   007476   007902   007508   007919   007107   006167   008160   008384   007879   007514                                      
680501800310015 00350 1150231Ech. Colmar Nord ZI 0630405Ech. Colmar Sud     0660600SRDT HORBOURG       0640884003202003202520001300300000000000515      054811 1607    047471   051478   052560   055865   053248   056688   058825   057777   057765   057738   054120   054049               140502171 1537    130521711 1677    120515271    0    110523831 1777    100489121 1787    047523   049917   052285   053239   052036   056714   053105   051326   052230   032253            052099                                      
570500920310015 00310 1110441Ech. Talange        3170895Ech. Mondelange     3200250SRDT HAGONDANGE     3190090002330002330570501200300000000000515      101099 1267             095182   097280   101038   098931   102859   111155   103469   105854   103054   095602   097131               140000001    0    130944031    0    120941641    0    110000001    0    100000001    0                                                                                                                                                   
570500600310015 00310 1150431Ech. Metz Nord      3050601Ech. La Maxe        3070673SRDT LA_MAXE        3070750002078000000570501200300000000000515      074391 1197    069726   074329   075954   079457   078853   079970   079405   074368   073432   071470   066860   068928               140000001    0    130000001    0    120000001    0    110000001    0    100000001    0                                                                                                                                                   
540501400310015 00330 1110241Ech. Brabois        0060020                    0100000SRDT CHAVIGNY       0060250003955003955540001820300000000000515      063991 1577                      062980   064400   062338   068012   064619   059597   066167   066385   062142   063432               140000001    0    130614151    0    120615491    0    110000001    0    100000001    0                                                                                                                                                   
540500200310015 00310 1110231Ech. Gentilly       2500615Ech. Nancy centre   2530140SRDT GENTILLY       2510500002526002526540500400300000000000515      061069 1707    053625   058047   058628   061972   059855   066426   071476   065122   062988   060851   056164   057484               140000001    0    130000001    0    120000001    0    110656471 2267    100000001    0                                                                                                                                                   
570501560310015 00310 1110241Ech. Kanfen         3440525Frontière (Zoufftgen3480987SRDT ZOUFFTGEN      3480120004471004471570501600300000000000515      058403 1167    051209   055579   055952   058056   057708   061703   068251   069031   063654   060088   048838   050450               140000001    0    130528931    0    120517901    0    110000001    0    100000001    0                                                                                                                                                   
540501520310015 00330 1110241                    0110000Ech. Fléville ZI    0120516SRDT FLEVILLE2      0120010001513001513540001820300000000000515      052989 1387    047632   051019   052415   054048   052542   056523   053683   049950   055358   055976   052447   054293               140000001    0    130000001    0    120000001    0    110000001    0    100000001    0                                                                                                                                                   
540501500310015 00330 1110241Ech. Fléville ZI    0120516Ech. Saint-Nicolas  0170314SRDT FLEVILLE       0150850004792004792540001820300000000000515      052035 1327    046988   050223   051663   053268   051280   055744   052779   049166   053891   054080   051712   053656               140000001    0    130494961 1617    120493361    0    110502491 1607    100000001    0                                                                                                                                                   
670004310310015 00830 4110401Début (D1083)       0390000Ech. D222           0400650SRDT ELISA          0400000000782000782670502000300000000000515      048518 1207    044769   046716   048250   049359   046895   052867   049734   045786   050214   050865   048040   048755               140000001    0    130000001    0    120000001    0    110000001    0    100000001    0                                                                                                                                                   
670350100310015 00350 1110241Ech. Goxwiller      4200992Ech. Zellwiller     4250400SRDT GERTWILLER     4230200004392004392          00000000000515      048125 1417    041547   045682   046306   048989   047830            050710   050428   050458   051289   047863   051483               140000001    0    130000001    0    120000001    0    110000001    0    100000001    0                                                                                                                                                   
680501500310015 00350 1110241Ech. Niederhergheim 0750279Ech. Meyenheim      0830153SRDT OBERHERGHEIM   0810600007760007760520001300300000000000515      046054 1677    037467   042465   043820   047495   045897   047968   049526   048867   048914   048859   045272   045919               140000001    0    130444441    0    120437541    0    110000001    0    100000001    0                                                                                                                                                   
540502600310015 00310 1110241Limite N4           2290000Ech. Gondreville    2380290SRDT VALCOURT       2300700008236008236550000700300000000000515      044784                  040470   040133   045232   043302   047171   055072   051913   045766   043244   038662   041170               140000001    0    130000001    0    120446341 2547    110393731 2517    100000001    0                                                                                                                                                   
540501600310015 00330 1110241Ech. Saint-Nicolas  0170314Ech. ZI des Sables  0240830SRDT ROSIERES_AUX_SA0220000007489007489540001820300000000000515      043374 1437    038715   041857   042884   044195   043051   046320   044073   041171   045233   045840   042726   044435               140000001    0    130366551    0    120365371    0    110000001    0    100000001    0                                                                                                                                                   
680501400310015 00350 1110241Ech. Meyenheim      0830153Ech. Ensisheim      0880928SRDT MEYENHEIM      0840600005691005691520001300300000000000515      042655 1707    037571   040384   040896   043296   042452   043599   045861   045277   045213   045389   039450   042282               140000001    0    130000001    0    120000001    0    110000001    0    100000001    0                                                                                                                                                   
570501700310015 03200 1810241Ech. Rosbruck       0030200Ech. Forbach Ouest  0060500Rosbruck            0050200003301003301570501600300000000000515      036598                                                                                                                                 140000008    0    130000008    0    120000008    0    110000008    0    100000008    0                                                                                                                                                   
570501600310015 03200 1130241A4                  0000000Ech. Rosbruck       0030200SRDT ROSBRUCK2      0030070002909000000570501600300000000000515      033251 1027             029909   032011   033917   033061   035194   033525   033893   035037   035226   032051   031713               140000001    0    130000001    0    120000001    0    110000001    0    100000001    0                                                                                                                                                   
540003823310015 00520 3115001Fin 2x2             0200520Ech. Aubange        0230341SRDT LONGWY         0200000002887002887540005300300000000000515      029984                           029625   030733   029809   031859   029169   026320   031159   030309   030167   030825               140000001    0    130277891    0    120276731    0    110000001    0    100000001    0                                                                                                                                                   
700000400310015 00190 4153001Ech. Zone de l'Oasi 0391028VESOUL              0410600SRDT LA_VAUGINE     0400200001702000000700000400300000000000515      025987 1167    023415   024706   025164   026803   025381   027264   026066   024463   026617   028157   026614   027175               140000001    0    130000001    0    120312741    0    110333161 1227    100000001    0                                                                                                                                                   
700000500310015 00190 4815001VESOUL              0410600Ech. Frotey-lès-Veso0430138Vesoul              0430000001544000000700000400300000000000515      024437                                                                                                                                 140000008    0    130000008    0    120294098    0    110000008    0    100000008    0                                                                                                                                                   
