320000603310015 00210 4813 51FIN 3 VOIES         0650264DEBUT 3 VOIES       0690175COMPTAGE 0006 02    06600000037400037403200006011000       0187      000000                                                                                                                                 140059028 100     130061578         120000008         110000008         100000008                                                                                                                                                        
320000700310015 00210 4813 51RD 104              0720812RD 3                0890612MIRANDE             07505000167280167283200008003000       0187      000000                                                                                                                                 140049348 131     130056428         120000008         110000008         100000008                                                                                                                                                        
320001800310015 01240 4813 51RD 626              0850735RN 524              1030378CARGET              0870000017578017578320001601300000000000187      000000                                                                                                                                 140062168 162     130051508         120000008         110000008         100000008                                                                                                                                                        
400052403310015 05240 4813 51GABARRET            0750000DPT 32              0780311GABARRET SUD        07800000033610033610000000000000000000 0104      000000                                                                                                                                 140027818         130000008         120000008         110000008         100000008                                                                                                                                                        
650000502310015 00210 4813001RD 93               0330100LOURDES             0390152TOULICOU            0330260005985005985650000395300000000000195      000000                                                                                                                                 140199078         130158158         120158698         110173178         100000008                                                                                                                                                        
660090042310015 00200 4822001N116                0290670ESPAGNE             0310918FUTURE BOURG-MADAME 0310650002273002273810000502300000000001287      000000                                                                                                                                 140081581    8    130081021    8    120081541    8    110080821    8    100082141         007651   007802   008104   007841   007358   007716   009277   011984   007733   007130   006881   008303                                      
660003100310015 01160 4113001D 118               0780535D10                 0810060MONT-LOUIS / N116   0790100002491002491810000502300000000001287      000000                                                                                                                                 140042911    7    130041881    7    120042601    7    110042961    7    100043431         003569   003848   004243   003545   003574   004220   005581   007605   004573   003909   003174   003552                                      
310508200310015 06200 1110231PONT JUMEAUX 30     0050106PURPAN 29           0060074PONT GARONNE        0050354000966000966320000500300000000000187      062772                                                                                                                                 141235221         130000001         121227911         111224401         101223951                                                                                                                                                        
310003900310015 01250 4112001RD 44               0230442ESPAGNE             0340110FOS                 03100000106990106993200005003000       0187      003218 1007    002445   003222   003294   003291   003326   003049   003850   004801   003084   002970   002363   002886               140037681 100     130000001         120000001         110000001         100000001                                                                                                                                                        
660001300310015 01160 4113001RD618 UR            0990150RN116 BOURG MADAME  1000552BOURG-MADAME-NORD   0990657001479001479660002800300000000001291      004028  517    003743   003931   003745   003715   003630   003863   004613   005927   004178   003713   003335   003899               140046001    7    130049091    7    120050801    7    110051361    7    100052301         004263   004561   004625   004570   004353   004723   005550   006943   004274   003805   003519   003964                                      
310507201310015 00640 111 241ECH 34              2720000ECH 35 ASF          2740089MURET NORD          2720800002032002032320000500300000000000199      054734  937    049497   051279   052643   054507   053200   056424   058925   057878   056506   056210   052381   054188               140574721    7    130265181    7    120000001         110000001         100000001         043777   051793   052121   054130   051207   055927   058405   057335   053965   052841   050576   052492                                      
120001004310015 00880 4113 51RD 84 RD 67         0500000PONT V.C. OLEMPS    0520200SAINT-CLOUD         05000500023230023231200013003000       0187      024133  59     023794   024255   025584   026550   025483   020816   017676   018803   027272   027250   026080   026185               140253231         130240311    7    120000001         110000001         100000001         023571   024469   024312   026084   024860   026108   025387   024942   026440   027283   025404   025035                                      
650000390310015 00210 4843001AUREILHAN EB 10     0170815GIRATOIRE SEMEAC    0200160AUREILHAN VILLE     0180100002494002494650000392300000000000187      010444  67                                                                                                                             140106978         130108458         120113758         110000008         100000008                                                                                                                                                        
320000200310015 00210 4113 51LECTOURE NORD       0100760FLEURANCE EB 10     0220960SAINT GENY          01708500114410114413200005003000       0187      006146  918    005513   005599   006053   006244   005982   006565   006564   006596   006507   006247   005973   005884               140062751 1188    130062461    8    120068241    8    110064321 1248    100064601    8    005641   005988   005999   006394   006036   006472   006920   006870   006545   006658   005909   005844                                      
660090362310015 00220 4112001GIRATOIRE/ENVALIRA  0050050PAS DE LA CASE      0050734PAS_MERE            0050200000684000684810000502300000000000205      007325  287    002990   003019   003218   003368   003682   003525   005360   005385   003613   003773   002634   003553               140074661    7    130034741    7    120075521    7    110000001    7    100071271         002940   002990   003287   003355   003602   003640   005352   005390   003605   003761   003295   002907                                      
090001400310015 00200 4113 51RD 322              0880240RN 22               0970737MERENS              08904330094920094920900014003000       0187      006805  468    004589   005239   005501   006731   006904   006475   008725   011131   007218   007164   005269   006523               140069251    8    130065601    8    120070901    8    110072141    8    100067631    8    004584   005618   006479   006306   007186   006891   008859   011467   007295   007109   005971   005169                                      
660001000310015 03200 4113001DPT 09              0000000RN 22               0030124PORTE PUYMORENS     0030080003090003090660002800300000000001191      006357  367    003959   003857   003735   006336   007092   006459   008587   011124   007203   007141   004872   005658               140064681    7    130059761    7    120062171    7    110064021    7    100058851         003549   004711   005579   005821   006978   006529   008586   011321   006939   006941   005844   004627                                      
090001001310015 00200 411 251RD 117              0430500RD 8                0540498ARIGNAC             05107460110780110780900010013000       0187      014465  588    012359   013721   013413   014492   014565   015062   016912   017864   014683   014568   012388   013436               140146851    8    130141651    8    120145841    8    110147121    8    100143811    8    012057   013646   014541   013675   014298   014973   017246   019450   015037   015128   013196   012820                                      
660090261310015 00220 4112001CROISADE            0000000GIRATOIRE / ENVALIRA0050050PAS_MERE            0040750005011005011810000502300000000000205      007318  197    005178   004726   005870   007311   007753   007078   009487   012535   007833   007619   004909   007195               140074271    7    130069161    7    120074671    7    110076151    7    100070501         004651   005763   006735   006876   007595   007246   009562   012793   007945   007588   006487   005687                                      
650000201310015 00210 4113001RD 934              0020352RD 2                0140940ESCONDEAUX          0100150012603012603650000201300000000000187      006201  718    005775   005674   006148   006258   006140   006465   006390   006239   006552   006480   006130   006133               140062821    8    130062561    8    120063291    8    110065471    8    100057221    8    005825   006075   006166   006306   006185   006460   006617   006384   006482   006658   006103   006104                                      
650000392310015 00210 4150201GIRATOIRE ST FRAI   0210000GIRATOIRE ALSTHOM   0210671CITE MOUYSSET       0210610000671000671650000392300000000000195      016025  487    015897   015479   016903   016498   015438   017014   015419   014175   016767   016777   016455   015510               140161471    7    130162561    7    120170481    7    110174221    7    100173511    1    016177   016484   016523   016850   015656   016683   015566   014169   016505   016995   016545   015700                                      
310508003310015 06200 1110231SESQUIERES          0000724LES MINIMES 31      0030626GINESTOUS           0020130002857002857320000500300000000000187      125447  63                                                                                                                             141263071         130000001         121257861         111253631         101245281                                                                                                                                                        
660002700310015 01160 4113001Echangeur Ille/Têt  0220000D35 PRADES          0420441BOULETERNERE        0270500019996019996660002800300000000001287      015006  498    013148   014005   013831   014367   014624   015531   017751   018277   016119   014898   013460   013950               140150881    8    130148711    8    120146571    8    110147971    8    100148251         013170   013929   014490   014165   014569   015741   017722   019664   015973   014961   013279   013248                                      
320000800310015 00210 4113 51RD 3                0890612DEPARTEMENT 65      1000408LAGUIAN             08909000102290102293200010003000       0187      004594 1127    004067   004041   004424   004583   004609   004846   005067   005164   004851   004729   004415   004293               140046191 1137    130046431 1127    120046751 1137    110047361 1117    100047571 1157    004124   004331   004441   004613   004511   004788   004991   005079   004956   004891   004416   004264                                      
320000500310015 00210 4113 51RD 172              0360397AUCH EB 10          0460900ROUTE D'AGEN        04504500105290105293200016013000       0187      010038         009457   009589   010174   010236   009713   010496   010025   009694   010628   010510   009910   010016               140100861         130097831         120098241         110103221         100103791         009704   010141   009959   010428   009800   010295   010180   009820   010436   010708   009775   009809                                      
310509200310015 06230 1114031PALAYS              0000000CNES                0000415A623                0000250000415000415320000500300000000000187      027896  387    029654   028973   030153   028175   026209   028645   025273   020902   028698   029886   029404   028996               140279061    7    130000001         120000001         110407261         100410201         028927   030394   028123   028959   025099   028081   025829   021150   029526   029462   030189   029531                                      
650000395310015 00210 4150201GIRATOIRE BAGNERES  0221105GITATOIRE HOSPITAL  0230635DEBUSSY             0221500001104001104650000395300000000000195      025113  607    024861   024224   026372   025633   023834   026046   024279   022604   026232   026026   025357   025896               140251141    7    130254021    7    120254881    7    110259381    7    100259101         025041   025863   025967   026116   024145   025610   024933   022694   025340   025983   024744   025041                                      
660002800310015 01160 4113001D 35(N9116)         0420441D116 VILLEFRANCHE   0480311RIA                 0450250006469006469660002800300000000000390      010097         008457   009650   008828   009201   009529   010134   012561   014737   010958   009867   008205   008934               140100701         130099021         120098681         110098871         100099941         008396   008967   009721   008930   009313   010272   012589   015076   010954   009962   008112   008370                                      
090001100310015 00200 4113 51RD 8                0540498RD 102              0710104LES CABANNES        06204200169260169260900010013000       0187      009236  547    007378   008815   008253   008771   009274   008879   011339   013555   009611   008410   007495   008951               140091981    7    130089241    7    120091251    7    110092781    7    100090961    7    007069   008647   009661   008379   008966   008998   011368   013798   009432   008252   008057   007634                                      
810001600310015 01120 4113 51MAZAMET             0250000RD 621              0330300ST PIERRE           02903400090270090278100016003          0105      013110  967    011815   011831   012810   013411   013104   013929   014005   013054   013898   013805   012930   012665               140130201    7    130129341    7    120000001         110132431    7    100000001         012013   012518   012596   013374   012807   013797   013675   013125   013741   013713   012521   012351                                      
310508106310015 06200 1110231ES MINIMES 31       0030626PONT JUMEAUX 30     0050106PONT JUMEAUX        0040432001464001464320000500300000000000187      101137  57                                                                                                                             141004181         130000001         121003161         111017501         101015421                                                                                                                                                        
660002601310015 01160 4110101Echangeur Millas    0141200Echangeur Ille/Têt  0220000MILLAS              0170250007575007575660002800300000000001287      015291  417    013578   014569   014164   014662   014696   015524   017833   019164   015811   014986   013841   014548               140151791    7    130146011    7    120144711    7    110143361    7    100148641         013481   014250   014685   014431   014516   015721   017666   019419   015674   014972   013448   013744                                      
660001100310015 03200 4113001RN 22               0030124RN 20 TUNNEL PUYM-660131066PORTE PUYMORENS     0030160010807010807660002800300000000001193      002586  617    001767   001288   002437   002270   002483   002404   003795   005344   003003   002483   001501   002095               140025661    7    130024381    7    120019721    7    110019351    7    100017321         001590   001772   001928   001999   002560   002620   003731   005508   003067   002473   001709   001737                                      
090000801310015 00200 4113251FOIX NORD           0350000FOIX SUD            0400000FOIX                03903400047820047820900010013000       0102      016088  627    014039   015626   015220   015710   015819   016123   018021   019306   016199   016194   014545   016155               140159571    7    130152151    7    120154871    7    110157751    7    100150941    7    013615   015504   016481   014992   015294   017142   017318   019000   015781   016516   014829   014931                                      
660001101310015 00200 4113001RN 320 TUNNEL PUYMOR0140000UR RD 618           0290670PORTA               0170550015686015686660002800300000000001093      003511  758    003510   003827   003547   002901   002758   002901   004226   006073   003295   002761   002438   003848               140034811    8    130033151    8    120035101    8    110034511    8    100034351         003069   003519   003929   002920   002799   003166   004494   006126   003341   002854   002277   003208                                      
120001002310015 00880 4113 51RD 901              0480095RN 140              0480660LES MOUTIERS OUEST  04801490005650005651200013003000       0187      034503         014178   014546   015275   015853   015242   016367   016128   015667   016298   016091   015197   015615               140341821         130347691         120000001         110000001         100332371         014394   014929   015008   016107   015297   016089   016292   015843   016256   015769   013700   012936                                      
090001200310015 00200 4113 51RD 102              0710104RD 613              0790614PERLES CASTELET     07309000086570086570900010013000       0187      009768  397    007906   009438   008838   009083   009431   009206   011715   014383   009986   009832   007732   009533               140096761    7    130092781    7    120094231    7    110095441    7    100093071    7    007639   009374   010212   008602   009164   009211   011581   014350   009780   009672   008359   008053                                      
310508500310015 06200 1110231LA FAOURETTE        0090542BORDELONGUE         0110801PT DE SEYSSES       0100604002247002247320000500300000000000187      132487  54                                                                                                                             141311771         130000001         121307171         111303761         101287231                                                                                                                                                        
310508300310015 06200 1110231PURPAN 29           0060074CEPIERE 27          0080497STATION A620        0070789002433002433320000500300000000000187      137966  55                                                                                                                             141364481         131357061         121353511         111356011         101343801                                                                                                                                                        
310508700310015 06200 1110231LANGLADE 25         0110801EMPALOT 24          0130601EMPALOT             0120660001836001836320000500300000000000187      137376  317    132988   133718   141313   140393   132721   145034   135555   125336   142961   144006   138863   135841               141357081    7    130000001         121220791    7    111331041    7    101236771    7    133417   139987   135464   140175   129854   137714   136852   121628   142073   143502   134714   133913                                      
310502000310015 06240 111 231PURPAN              0000000BAYLAC 1            0000520PURPAN A624         0000351000520000520320000500300000000000194      107870  43                                                                                                                             141064131         130000001         121053911         111066331         101061381                                                                                                                                                        
310502200310015 06240 111 231ST MARTIN DU TOUCH  0010500LA CRABE            0030900CRABE EST           0020252002400002400320000500300000000000194      129689  54                                                                                                                             141278421         130000001         121250371         111239341         101221671                                                                                                                                                        
400052402310015 05240 4113 51RD 933              0650000GABARRET            0750000LAPEYRADE           06408000101810101810000000000000000000 0104      000987 139                                                                                                                             140009721 131     130000001         120009691 139     110010171         100010511 144                                                                                                                                                    
660002500310015 01160 4110101Echangeur RD 16     0110650Echangeur Millas    0141200SAINT FELIU         0130540003451003451660002800300000000000101      020652  397    018645   019660   019589   020054   019876   021279   023322   024285   021632   020509   019232   019630               140203351    7    130198021    7    120195141    7    110196321    7    100192981         018396   019375   019732   019665   019577   021006   023004   024043   021207   020483   018513   018890                                      
120001003310015 00880 4113 51RN 140              0480660RD 84 RD 67         0500000SAINT-CLOUD         04909500015620015621200013003000000000 0187      022946  727    021055   021366   022632   023358   022611   023966   023940   022712   023899   023756   022801   023180               140225911         130221281    7    120000001         110000001         100000001         020887   021734   021916   023433   022110   023181   023236   022537   023370   023942   022381   022343                                      
330093201310015 05240 4843 51RD 3  BAZAS         0120790RD 932 CAPTIEUX     0320000CAPTIEUX NORD       03002000188190188190000000000000       0397      003516  90                                                                                                                             140034618         130000008         120000008         110000008         100067488 184                                                                                                                                                    
660003200310015 01160 4113001D 10                0810060BOURG-MADAME        0990150HIX                 0980300017935017935810000502300000000001287      004218  488    003812   004045   003629   003768   003688   004213   005085   007325   004217   003748   002986   004036               140041491    8    130040991    8    120041811    8    110044301    8    100043021         003599   003750   003874   003673   003461   003904   004974   007367   004226   003670   003197   004004                                      
320000903310015 01240 411 251FIN DEV .PUJAUDRAN  0050800RD 654              0130143PUJAUDRAN           0060165006290006290320001000300000000000191      023132  658    021864   022045   022788   023243   022825   024617   024430   022619   024130   024405   022392   022189               140227501    8    130229831    8    120222671    8    110220551    8    100213601    8    022351   023039   021997   023079   021861   022950   022462   022168   023618   023823   022555   023166                                      
090000901310015 00200 411 251FOIX SUD            0400000RD 117              0430500MONTGAILLARD        04106240035000035000900010013000       0102      019911  598    017251   018774   018478   019591   019525   020153   022573   024422   020479   020247   017839   019429               140195181    8    130188741    8    120192371    8    110193801    8    100189851    8    016782   018758   019642   018758   019112   019326   021849   024109   020045   020115   017947   017647                                      
310508900310015 06200 1110231RANGUEIL 23         0140000DEMOISELLES 21      0150880RANGUEIL-DEMOIS     0140536001873001873320000500300000000000187      102205  48                                                                                                                             141001711         130000001         120992471         110987201         100973401                                                                                                                                                        
310508400310015 06200 1110231CEPIERE 27          0080497LA FAOURETTE        0090542FAOURETTE           0090100001056001056320000500300000000000187      136759  53                                                                                                                             141339201         130000001         121347321         111334561         101309511                                                                                                                                                        
310506200310015 00640 111 241ECH 23              2390200ECH 24              2430000LAVELANET de COMMIN.2420000003800003800320000500300000000000199      034158 109                                                                                                                             140334331 113     130000001         120000001         110345751 105     100344951                                                                                                                                                        
310509000310015 06200 1110231DEMOISELLES 21      0150880LESPINET 20         0160048DEMOISELLES         0160000000172000172320000500300000000000187      107340  497    101916   103441   108633   109632   104465   110968   110124   101168   111979   113071   108175   104501               141048671    7    131054531    7    121040321    7    111033591    7    101094161    7    102482   107151   104323   107854   100789   103921   107054   096925   110086   110713   103757   103776                                      
310508800310015 06200 1110231EMPALOT 24          0130601RANGUEIL 23         0140000RANGUEIL            0130888000363000363320000500300000000000187      091298  447    086231   087407   091344   092406   088039   096748   094364   087312   094497   095747   091168   090244               140890961    7    130894501    7    120881161    7    111164581    7    100865361    7    085785   090343   088065   091242   085551   090852   092141   083858   093034   093639   087316   087649                                      
310003800310015 01250 4112 51RD 33 CHAUM         0181637RD 44               0230442CHAUM               01907000048780048783200005003000       0187      003764  657             004052   003864   003768   003709   003438   004185   004741   003538   003477   003083   003665               140036661    7    130036061    7    120039441    7    110043891    7    100047561    7    003342   003732   003430   003130   003622   003531   004354   005003   003596   003525   003186   003505                                      
810002500310015 01260 4113 51RD 84               0330385RD 621              0430090DEV PUYLAURENS      03500100092970092970000000000          0187      008085  917    007429   007468   008064   008261   007947   008496   008198   007502   008483   008734   008223   008194               140078701         130000001         120000001         110000001         100000001         000000   000000   000000   000000   000000   000000   000000   000000   000000   000000   000000   000000                                      
320001601310015 01240 4113 01GIR . ENDOUMINGUE   0560100GIR. RD 930         0620500DURAN               0610450005388005388320001601300000000000287      011228  967    009754   009895   010547   011301   011680   011779   012491   012243   011689   011608   010733   010902               140109121    7    130106781 1007    120104021 1027    110107461 1007    100107791    7    009672   010210   010103   010982   010593   011738   011983   011844   011487   011343   010500   010450                                      
310507100310015 00640 111 241ECH 32              2640800ECH 33              2690000MURET SUD           2670800004200004200320000500300000000000199      054491  92                                                                                                                             140528811         130000001         120000001         110495261         100000001                                                                                                                                                        
090000402310015 00200 411 251PAMIERS A 66        0180000RD 119              0210444PAMIERS             01902900034440034440900004023000       0187      023225  547    021010   022548   022634   023109   022630   023736   024520   024412   023815   024204   022247   023768               140225171    7    130219121    7    120218921    7    110219211    7    100213651    7    020579   022292   023475   022251   021617   022661   023427   023586   022833   023531   021812   022104                                      
330093200310015 05240 4843 51PORT LANGON         0000000RD 3  BAZAS         0120790MAZERES             00707640135540135540000000000000       0397      009532  63                                                                                                                             140092348         130000008         120000008         110000008         100167768                                                                                                                                                        
810000400310015 00880 411 251FIN DEV CARMAUX     0260000RD 903              0290513LA TETE             0260184003505003505810000502300000000000187      020332  747    017947   018602   019699   020470   020011   021199   021283   020276   021504   021794   020525   020579               140196251    7    130191651 1077    120192881         110194451    7    100192541         018043   018699   019031   019963   019296   020448   020633   019590   020476   020810   019524   018962                                      
810500200310015 00680 111 231ECH. ST SULPICE     0270190ECH. COUFOULEUX     0330000RIEU D'EN COSTE     0290150005810005810810500300300000000000193      026059  837    022998   023779   025137   026472   027100   028017   028330   025307   027201   027576   025586   025084               140251041    8    130244361    8    120000001         110238941    7    100234391         022711   023974   024225   025559   024504   026547   025983   024514   026123   027210   025148   024738                                      
810000600310015 00880 411 251FIN ROCADE          0380080A 68                0430354LE SEQUESTRE        0410800005528005528810001600300000000000187      036660  757    033583   034107   036276   036236   035732   038639   037686   035137   038900   039051   037295   037172               140352961    7    130342501    7    120000001         110330771    7    100321101         032837   034335   034266   036574   034382   036571   035345   033604   036718   037813   035680   035473                                      
810500300310015 00680 111 231ECH. COUFOULEUX     0330000ECH. LISLE MONTANS  0410740LISLE SUR TARN      03703650087400087408105003003          0193      022983  757    020159   020923   022220   023368   022774   024273   024179   022523   024466   024684   023272   022875               140221271    7    130216391    7    120214331         110211811    7    100204941         020094   021196   021645   022811   021229   023118   022423   021964   023348   023735   021929   022036                                      
320001502310015 01240 4113 01GIR ST.CRICQ        0510490GIR . ENDOUMINGUE   0560100ENGACHIES           0530020003766003766320001601300000000000187      009520 1228    008116   008377   008903   009631   009807   010043   010578   010393   009937   009933   008979   009448               140091391 1278    130090441 1028    120085091 1418    110088371 1238    100082821 1267    007910   008366   008434   009168   008832   009785   009905   010088   009674   009635   008933   008896                                      
310502100310015 06240 111 231BAYLAC 1            0000520ST MARTIN DU TOUCH  0010500BAYLAC              0001184001163001163320000500300000000000194      109961  50                                                                                                                             141049811         130000001         120996131         111066661         101060351                                                                                                                                                        
120001100310015 00880 4113 51LA PRIMAUBE RD 911  0560800BARAQUEVILLE RD 911 0680015LE LAC              06207300090910090911200013003000       0187      016361  978    014028   014464   015531   016452   016398   017099   017758   017406   017432   017368   016151   016114               140156141    8    130154741    8    120154821         110155801    7    100153431    8    014080   014545   015027   016678   016022   016725   015702   016979   016883   017159   014809   012746                                      
660002400310015 01160 4110201GIRATOIRE ST CHARLES0000000Echangeur du Soler  0060400PERPIGNAN RN116     0040360003407003407660002800300000000000390      025708  437    023161   023941   024177   024701   024192   026218   030148   028487   026213   027979   023589   025450               140244941    7    130259441    7    120257271    7    110262431    7    100261401         022617   023851   023758   024284   023861   024998   026925   027353   025244   024580   023149   023237                                      
810000200310015 00880 411 251DEV CARMAUX         0110000FIN DEV CARMAUX     0260000DEV CARMAUX         01303920108320108328100005023          0187      008758 1287    006972   007516   007857   008790   008801   008876   009716   009983   009546   009560   008680   008707               140083031 1297    130000001         120000001         110000001         100073651 135     006954   007348   007836   008357   008336   008700   009106   009363   008817   009004   008032   007705                                      
310507200310015 00640 111 241ECH 33              2690000ECH 34              2720000PODIO               2690673003000003000320000500300000000000199      052781  947    054394   053889   052106   057650   057132   054314   043668   054638   053769   061150   058461   055728               140496821    7    130585971 1057    120498791    7    110371461 1067    100385161    7    055321   057546   057100   053679   055979   059857   063573   060528   058958   053600   054660   058790                                      
810500500310015 00680 111 231ECH.GAILLAC         0480500RN 88 PR 43         0610997FLORENTIN           0580660013487013487          00000000000898      024369  857    021412   022045   023719   024574   023932   025600   025542   023981   026033   026114   024780   024584               140220941    7    130215441    7    120000001         110225771    7    100000001         019129   020175   020792   021651   020770   022106   022049   022607   024309   025196   023267   022993                                      
810000502310015 00880 411 251CARREFOUR CANTEPAU  0320979RD 100              0330914ROCADE D'ALBI       03301500014190014198100005023          0187      038284  547    033737   035852   039088   040266   038629   040159   038140   035698   040389   040085   038274   039052               140339221    7    130345691    7    120000001         110345461    7    100357011         033954   034776   034783   035829   032428   032750   033028   030527   034197   036583   034458   033882                                      
120000700310015 00880 4113 51RD 28               0240290RD 224              0420390GAGES               03604000181510181511200013003000       0187      010405  598    008650   009233   009611   010841   010795   010736   012218   011864   010698   010729   009499   009880               140090261 1228    130100171 1178    120000001         110102301 1317    100100641 1258    008570   006864   005739   006397   009224   009205   012004   010165   010875   010186   009352   009509                                      
120001001310015 00880 4113 51RD 988              0470000RD 901              0480095LES MOUTIERS EST    04800500011750011751200013003000       0187      031876         027672   030374   031206   032565   031365   033381   033263   032659   033207   032254   031389   033134               140263461         130260651         120000001         110000001         100000001                                                                                                                                                        
310509100310015 06200 1110231LESPINET 20         0160048PALAYS A61          0170777LESPINET            0160285001730001730320000500300000000000187      097310  547    095994   096592   101746   102947   098504   102970   104446   092565   095191   093814   091043   091935               140796831         130932291    7    120950501    7    110955801    7    100957821    7    093753   098037   088731   089508   080371   082615   074572   056646   065820   056009   074167   097534                                      
310506500310015 00640 111 241ECH 26              2460000ECH 27              2540000LACRA               2530750008000008000320000500300000000000199      037159 116                                                                                                                             140000001         130000001         120000001         110446831 101     100443051                                                                                                                                                        
810002600310015 01260 481 251RD 50               0490608CASTRES EB 10       0510945PONT DE SAIX        05006000023450023450000000000          0187      018249  72                                                                                                                             140000008         130066688         120000008         110000008         100000008                                                                                                                                                        
320001300310015 01240 411 251RD 928              0380970GIR. AUBIET OUEST   0430000AUBIET              0420900004171004171320001000300000000000187      012898  68                                                                                                                             140000008         130000008         120000008         110000008         100000008                                                                                                                                                        
320001000310015 01240 4113 51RD 654              0130143DEBUT 3 VOIES       0320587ISLE JOURDAIN       0170800019015019015320001000300000000000187      012685  958    011176   011505   012230   013441   012845   013232   013462   012943   013157   013297   012446   012422               140000001         130000001         120000001         110116461 1038    100113721    8                                                                                                                                                   
310003600310015 01250 4113 51A 645               0030000RD 33 LABROQUERE    0050196LABROQUERE          00408000019010019013200005003000       0187      011916  967    011016   012382   011905   011832   011427   011809   013146   013299   012002   011972   010482   011723               140000001         130000001         120000001         110144291    7    100134071    7                                                                                                                                                   
310000200310015 02240 4113001RD 17 MONTAIGUT     0070000CORNEBARRIEU        0310876MONDONVILLE         0250850026105026105000000000000000000000187      010356  377    010057   009999   010098   010850   010232   011296   010592   009331   010837   010933   010081   009986               140000001         130102341    7    120101681    7    110103451         100041331                                                                                                                                                        
320000601310015 00210 4113 51AUCH EB 20          0520026DEBUT 3 VOIES       0630209DEPOT FERRE         05309000111850111853200006013000       0187      007926  917    007290   007293   007843   007931   007731   008238   008230   008177   008426   008284   007816   007820               140000001         130078471         120077721         110079591         100080411                                                                                                                                                        
120000600310015 00880 4113 51RN 9                0020800RD 28               0240290VARES               01201000221070221071200013003000       0187      006921 1967    004953   005630   005611   007059   007527   007281   008789   010447   007132   006620   005761   006113               140000001         130000001         120066041         110067531 1807    100064971 1887                                                                                                                                                   
660003000310014 01160 4113001D 4 OLETTE          0580178D 118               0780535OLETTE              0560182019770019770660002800300000000000188      005336  57     000000   000000   000000   000000   000000   000000   000000   000000   000000   000000   000000   000000               00000000          00000000          00000000          00000000          00000000          000000   000000   000000   000000   000000   000000   000000   000000   000000   000000   000000   000000                                      
320004000310015 02240 4812 51R N 124             0000000RD 654              0030000L'ISLE JOURDAIN     0010500003058003058320001000300000000001290      003308  42                                                                                                                             140000008         130000008         120000008         110000008         100021848                                                                                                                                                        
320003100310015 05240 4812 51RD 626 CAZAUBON     0840000RD 931 EAUZE        1030000MANCIET             1020000019207019207320001601300000000000189      001352 104                                                                                                                             140000008         130048858         120000008         110000008         100000008                                                                                                                                                        
090000300310015 00200 4813 51RD 624              0150000PAMIERS A 66        0180000LE VERNET D'AR.     01500000022890022890900004023000       0187      000000                                                                                                                                 140000008         130000008         120000008         110000008         100000008                                                                                                                                                        
090000501310015 00200 481 251RD 119              0210444RD 12               0241071ENTRE D12 ET D119   02309000036290036290900004023000       0187      000000                                                                                                                                 140000008         130223058         120000008         110000008         100000008                                                                                                                                                        
090000601310015 00200 481 251RD 12               0241071RD 13               0290000VARILHES DEV NORD   02602000044630044630900004023000       0187      000000                                                                                                                                 140000008         130230538         120000008         110000008         100000008                                                                                                                                                        
090000604310015 00200 481 251RD 13               0290000FOIX NORD           0350000GARRIGOU            02908000057790057790900004023000       0190      000000                                                                                                                                 140000008         130242758         120000008         110000008         100000008                                                                                                                                                        
090001300310015 00200 4813 51RD 613              0790614RD 322              0880240MERENS NORD         08609400085320085320900010013000       0187      000000                                                                                                                                 140000008         130077258         120000008         110000008         100000008                                                                                                                                                        
090001800310015 00200 4813 01RN 22               0970737RN 320              0980688LHOSPITALET EST     0980100000951000951120001300300000000000187      000000                                                                                                                                 140000008         130000008         120000008         110000008         100000008                                                                                                                                                        
090001500310015 00220 4813 51RN 20               0000000RN 320              0040015N 22 VERS ANDORRE   00305000040150040150900014003000       0187      000000                                                                                                                                 140000008         130074598         120000008         110000008         100000008                                                                                                                                                        
090001600310015 03200 4813 51RN 20               0000000DEPARTEMENT 66      0020132R.N 320 AUX P.O     0010800002136002136090001400366000100030187      000000                                                                                                                                 140000008         130067008         120000008         110000008         100000008                                                                                                                                                        
120001005310015 00880 4813 51PONT V.C.OLEMPS     0520200RD 66 RD 212        0530386LE LACHETversST-CLOU05303000012630012631200013003000       0187      000000                                                                                                                                 140000008         130000008         120000008         110000008         100000008                                                                                                                                                        
120001006310015 00880 4813 51RD66 RD212          0530386RD 911              0560800LA PRIMAUBE         05407100034140034141200013003000       0187      000000                                                                                                                                 140000008         130000008         120000008         110000008         100000008                                                                                                                                                        
120001200310015 00880 4813 51RD 911              0680015RD 997              0810695BARAQUEVILLE        06902340136870136871200013003000       0187      000000                                                                                                                                 140000008         130103508         120000008         110000008         100000008                                                                                                                                                        
120001300310015 00880 4113 51RD 997              0810695DEPARTEMENT 81      0910192NAUCELLE            0840550009447009447000000000081000010030187      000000                                                                                                                                 140000001         130080691 1427    120081421         110080131         100071471                                                                                                                                                        
310506100310015 00640 181 241ECH 22 ASF          2340270ECH 23              2390200                    2340000004930004930320000500300000000000199      000000                                                                                                                                 140000001         130000001         120000001         110000001         100000001                                                                                                                                                        
310506300310015 00640 181 241ECH 24              2430000ECH 25              2460000                    2440000003000003000320000500300000000000199      000000                                                                                                                                 140000001         130000001         120000001         110000001         100373951                                                                                                                                                        
310506600310015 00640 111 241ECH 27              2540000ECH 28              2580000                    2550000004000004000320000500300000000000199      000000                                                                                                                                 140000001         130000001         120000001         110000001         100443051                                                                                                                                                        
310506700310015 00640 181 241ECH 28              2580000ECH 29              2590500                    2590000001500001500320000500300000000000199      000000                                                                                                                                 140000001         130000001         120000001         110000001         100443051                                                                                                                                                        
310506800310015 00640 181 241ECH 29              2590500ECH 30              2610200                    2600000001700001700320000500300000000000199      000000                                                                                                                                 140000001         130000001         120000001         110000001         100000001                                                                                                                                                        
310506900310015 00640 181 241ECH 30              2610200ECH 31              2630000                    2620000001800001800320000500300000000000199      000000                                                                                                                                 140000001         130000001         120000001         110000001         100000001                                                                                                                                                        
310507000310015 00640 181 241ECH 31              2630000ECH 32              2640800                    2640000001800001800320000500300000000000199      000000                                                                                                                                 140000001         130000001         120000001         110000001         100000001                                                                                                                                                        
310505200310015 00680 181 241GEMIL FIN CONCEDEE  0170105DPT81               0220110A68 ETAT GESTION 81 0180000005005005005320000500381050010030187      000000                                                                                                                                 140000008         130000008         120000008         110000008         100000008                                                                                                                                                        
310003202310015 01240 481 251DEBUT 2X2 VOIES     0060000Fin 2x2 voies       0090317COLOMIERS           00900000029200029200000000000000       0187      000000                                                                                                                                 140000008         130000008         120000008         110000008         100000008                                                                                                                                                        
310003300310015 01240 481 251FIN 2X2 VOIES       0090317RD 24               0130192COLOMIERS siredo    01107000039190039190000000000000       0187      000000                                                                                                                                 140000008         130000008         120000008         110000008         100000008                                                                                                                                                        
310003400310015 01240 481 251RD 24               0130192DEPARTEMENT 32      0191064LEGUEVIN            0150800007216007216000000000032000090030187      000000                                                                                                                                 140000008         130000008         120000008         110000008         100000008                                                                                                                                                        
310338500310015 01250 4813 51LABROQUERE          0050196RD 33 CHAUM         0181637GALIE               01403000137270137273200005003000       0211      000000                                                                                                                                 140000001         130000001         120000001         110000001    7    100000001                                                                                                                                                        
310509600310015 06210 1110231ST MICHEL DU TOUCH  0000000LE RITOURET         0030992RITOURET            0020485003990003990320000500300000000000998      000000                                                                                                                                 140000001    7    130000001    7    120912271    7    110980821         100972381    7    068964   070862   067780   071627   064971   071055   068720   055650   070588   074273   069241   069737                                      
320000300310015 00210 4843 51FLEURANCE EB 10     0220960FLEURANCE EB 20     0260856FLEURANCE AGGLO     02500000043080043083200005003000       0187      000000                                                                                                                                 140000008         130074778         120075098         110000008         100000008                                                                                                                                                        
320000400310015 00210 4813 51FLEURANCE EB 20     0260856RD 172              0360397FLEURANCE AN SUD    02608700096010096013200005003000       0187      000000                                                                                                                                 140000008         130078138         120000008         110000008         100000008                                                                                                                                                        
320000599310015 00210 4853 51AUCH EB 10          0460900AUCH EB 20          0520026AUCH                05200000054200054203200016013000       0187      000000                                                                                                                                 140000008         130207688         120000008         110209018         100000008                                                                                                                                                        
320000602310015 00210 4815 51DEBUT 3 VOIES       0630209FIN 3 VOIES         0650264COMPTAGE 0006 01    06500000019810019813200006013000       0187      000000                                                                                                                                 140000008         130082478         120000008         110000008         100000008                                                                                                                                                        
320000604310015 00210 4815 51DEBUT 3 VOIES       0690175FIN 3 VOIES         0700499COMPTAGE 0006 03    07000000013300013303200006012000       0187      000000                                                                                                                                 140000008         130081248         120000008         110000008         100000008                                                                                                                                                        
320000605310015 00210 4813 51FIN 3 VOIES         0700499RD 104              0720812COMPTAGE 0006 04    07100000022820022823200006013000       0187      000000                                                                                                                                 140000008         130075088         120000008         110000008         100000008                                                                                                                                                        
320000901310015 01240 4813 51DEPARTEMENT 31      0000000DEBUT DEV PUJAUDRAN 0020700COMPTAGES 0009.03   0010000002690002690320001000331000340030191      000000                                                                                                                                 140000008         130000008         120000008         110000008         100000008                                                                                                                                                        
320000902310015 01240 481 251DEBUT DEV.PUJAUDRAN 0020700FIN DEV.            0050800DEV.PUJAUDRAN       0040000002982002982320001000300000000000191      000000                                                                                                                                 140000008         130000008         120000008         110000008         100000008                                                                                                                                                        
320001100310015 01240 4815 51DEBUT 3 VOIES       0320587GIR. AUBIET EST     0350180CAHUZAC             0330500002610002610320001000300000000000187      000000                                                                                                                                 140000008         130000008         120000008         110000008         100000008                                                                                                                                                        
320001200310015 01240 481 251GIR. AUBIET EST     0350180RD 928              0380970DEV AUBIET EST      0360000003877003877320001000300000000000187      000000                                                                                                                                 140000008         130000008         120000008         110000008         100000008                                                                                                                                                        
320001400310015 01240 4815 51GIR. AUBIET OUEST   0430000FIN 3 VOIES         0490332MARSAN              0470000006299006299320001000300000000000187      000000                                                                                                                                 140000008         130000008         120000008         110000008         100000008                                                                                                                                                        
320001701310015 01240 4813 51GIR. RD 930         0620500DEBUT 3 VOIES       0730700NAHES               0650000011046011046320001601300000000000187      000000                                                                                                                                 140000008         130085698         120000008         110000008         100000008                                                                                                                                                        
320001702310015 01240 4815 51DEBUT 3 VOIES       0730700FIN 3 VOIES         0760330ST JEAN POUTGE      0750000002653002653320001601300000000000187      000000                                                                                                                                 140000008         130085858         120000008         110000008         100000008                                                                                                                                                        
320001703310015 01240 4813 51FIN 3 VOIES         0760330RD 626              0850735ST JEAN POUTGE      0780000009453009453320001601300000000000187      000000                                                                                                                                 140000008         130067848         120066098         110000008         100000008                                                                                                                                                        
320004001310015 02240 4812 51RD 654              0030000HAUTE GARONNE       0060654L'ISLE JOURDAIN     0040000003698003698320001000300000000000106      000000                                                                                                                                 140000008         130000008         120000008         110000008         100010628                                                                                                                                                        
320003000310015 05240 4812 51DPT LANDES          0780311RD 626 CAZAUBON     0840000BARBOTAN            0840000005823005823320001601300000000000189      000000                                                                                                                                 140000008         130016798         120000008         110000008         100000008                                                                                                                                                        
320003300310015 05240 4812 51RD 931 EAUZE        1030000R.N 124             1070373LA JALOUSIE         10500000044970044973200016013          0189      000000                                                                                                                                 140000008         130015218         120000008         110000008         100000008                                                                                                                                                        
330093202310015 05240 4843 51RD 932 CAPTIEUX     0320000DPT 40              0360403CAPTIEUX  vers DPT4003600000043890043890000000000400       0397      000000                                                                                                                                 140000008         130000008         120000008         110000008         100000008                                                                                                                                                        
400052401310015 05240 4813 51DPT 33              0370000RD 933              0650000PLAISANCE           04900000282630282630000000000000000000 0104      000000                                                                                                                                 140000008         130000008         120004988 139     110000008         100000008                                                                                                                                                        
650000100310015 00210 4813001Départ. 32          0000000RD 934              0020352RABASTENS           0000325002344002344650000201332000080030187      000000                                                                                                                                 140000008         130057348         120058038         110000008         100000008                                                                                                                                                        
650000202310015 00210 4813001RD 2                0140940AUREILHAN EB 10     0170815AUREILHAN-NORD      0150470002880002880650000201300000000000187      000000                                                                                                                                 140000008         130098448         120000008         110000008         100000008                                                                                                                                                        
650000391310015 00210 4850201GIRATOIRE SEMEAC    0200160GIRATOIRE ST FRAI   0210000PONT SAINT FRAI     0200650000778000778650000392300000000000190      000000                                                                                                                                 140000008         130000008         120000008         110000008         100000008                                                                                                                                                        
650000393310015 00210 4850201GIRATOIRE ALSTHOM   0210671GIRATOIRE ORMEAU    0220515ALSTHOM             0211240001572001572650000392300000000000195      000000                                                                                                                                 140000008         130217848         120000008         110000008         100000008                                                                                                                                                        
650000394310015 00210 4850201GIRATOIRE ORMEAU    0220515GIRATOIRE BAGNERES  0221105STADE TRELUT        0220850000590000590650000395300000000000195      000000                                                                                                                                 140000008         130216238         120000008         110000008         100000008                                                                                                                                                        
650000396310015 00210 4853001GIRATOIRE HOPITAL   0230635TARBES EB 20        0240570ROCADE SUD          0231310001437001437650000395300000000000189      000000                                                                                                                                 140000008         130172728         120000008         110000008         100000008                                                                                                                                                        
650000401310015 00210 4813001TARBES EB20         0240570GIRATOIRE A64       0250338ACCES A64           0250000001341001341650000395300000000000298      000000                                                                                                                                 140000008         130127908         120000008         110000008         100000008                                                                                                                                                        
650000402310015 00210 4813001GIRATOIRE A64       0250338RD 921 A            0290340DEVIATION DE JUILLAN0261475005503005503650000395300000000000189      000000                                                                                                                                 140000008         130129808         120130248         110145918         100137598                                                                                                                                                        
650000501310015 00210 4813001RD 921 A            0290340RD 93               0330100ADE                 0320825003772003772650000395300000000000187      000000                                                                                                                                 140000008         130000008         120000008         110112198         100000008                                                                                                                                                        
660002401310015 01160 4810201Echangeur du Soler  0060400Echangeur RD 16     0110650LE SOLER            0100900005251005251660002800300000000000390      000000                                                                                                                                 140000008         130197228         120196558         110196948         100000008                                                                                                                                                        
660002900310015 01160 4813001D 116               0480311D 4 OLETTE          0580178SERDINYA            0530000009960009960660002800300000000000188      000000                                                                                                                                 140000008         130090318         120090008         110090188         100000008                                                                                                                                                        
810500100310015 00680 181 231DPT31               0220110ECH. ST SULPICE     0270190                    0250000005080005080810500200300000000000193      000000                                                                                                                                 140000008         130217318         120000008         110212508         100000008                                                                                                                                                        
810500400310015 00680 181 231ECH. LISLE          0410740ECH.GAILLAC         0480500                    0430000006750006750810500300300000000000193      000000                                                                                                                                 140000008         130217468         120215408         110212888         100000008                                                                                                                                                        
810000100310015 00880 4813 51DEPARTEMENT 12      0000000DEV CARMAUX         0110000GRAUMMOND           0080300009472009472810000502312000130030187      000000                                                                                                                                 140000008         130061248         120000008         110061208         100000008                                                                                                                                                        
810000500310015 00880 481 251RD 903              0290513LARQUIPEYRE         0320000LARQUIPEYRE         03104000027790027798100005023          0187      000000                                                                                                                                 140000008         130247058         120000008         110246898         100000008                                                                                                                                                        
810000501310015 00880 481 251LARQUIPEYRE         0320000CARREFOUR CANTEPAU  0320979ROCADE D'ALBI       03207500009790009798100005023          0187      000000                                                                                                                                 140000008         130279338         120000008         110279158         100000008                                                                                                                                                        
810000503310015 00880 4813 51RD 100              0330914RD 999              0340175ROCADE D'ALBI       03400000008490008498100005023          0187      000000                                                                                                                                 140000008         130268618         120000008         110268448         100000008                                                                                                                                                        
810000504310015 00880 4813 51RD 999              0340175RN 112              0360910ROCADE D'ALBI       03510340035540035548100005023          0192      000000                                                                                                                                 140000008         130344888         120000008         110344668         100000008                                                                                                                                                        
810000505310015 00880 481 251RN 112              0360910FIN ROCADE          0380080ROCADE D'ALBI       03710750019310019318100005023          0192      000000                                                                                                                                 140000008         130294878         120000008         110294688         100000008                                                                                                                                                        
810001800310015 01120 4813 51RD 621              0330300RN 126 PR 53 CASTRES0411239LACAZE              04100000105660105668100016003          0187      000000                                                                                                                                 140000008         130107278         120000008         110109848         100000008                                                                                                                                                        
810002300310015 01260 4813 51RD 42               0050000RD 84               0330385RIVIERE DE LEN      0080500026698026698000000000031000410030187      000000                                                                                                                                 140000008         130020858         120057698 130     110000008         100000008                                                                                                                                                        
810002501310015 01260 4813 51RD 621              0430090RD 50               0490608SAIX OUEST          04904000060810060810000000000          0187      000000                                                                                                                                 140000008         130000008         120000008         110000008         100000008                                                                                                                                                        
810002699310015 01260 4853 51CASTRES EB 10       0510945CASTRES RN 112 PR 410530069CASTRES             05300000011280011280000000000          0187      000000                                                                                                                                 140000008         130071138         120000008         110000008         100000008                                                                                                                                                        