840000100310015 00070 4115001LIMITE DROME        0000000D 994               0050740LAPALUD             0010500005786005786840000202326000250030390      009533         004250   007854   008473   009971   010531   010606   011645   012998   010466   009893   008949   008666               140098531         130097561         120091841         110098461 1937    100094991                                                                                                                                                        
840000201310015 00070 4112001D 994               0050740A7 PIOLENC          0190200MONDRAGON SUD       0110088013449010468840000202300000000001191      010418         005602   005762   006104   011723   012160   012480   013108   014249   011962   011113   009948   010495               140119171         130117581    7    120116851    8    110119341    8    100116431         010117   010581   010997   011717   012019   012581   013196   014664   012402   012672   011264   010672                                      
840000202310015 00070 4112001A7 PIOLENC          0190200D 976               0220000ORANGE NORD         0190800002793002793840000202300000000001291      000000                                                                                                                                 140122751         130122141         120123141         110134911         100131681         010987   011421   011649   012239   012849   012999   013364   014338   012561   012097   011463   011263                                      
300000300310015 00860 4842001EB 10 PT ST ESPRIT  0020063EB 20 PT ST ESPRIT  0040991AGGLO PT ST ESPRIT  0020100002961000000300000700300000000000589      008463                                                                                                                                 140083868         130000008         120000008         110000008         100000008                                                                                                                                                        
840000300310015 00070 4813001D 976               0220000EB 10 ORANGE        0240000ENTREE NORD ORANGE  0220000002005002005840000202300000000000490      000000                                                                                                                                 140175448         130174578         120176008         110192838         100193178                                                                                                                                                        
840000399310015 00070 4855001EB 10 ORANGE        0240000EB 20 ORANGE        0270485TRAVERSEE ORANGE    0250000003219000000840000202300000000000401      000000                                                                                                                                 140179928         130179038         120180508         110197768         100207588                                                                                                                                                        
840000400310015 00070 4815001EB 20 ORANGE        0270485D 977               0290060COURTHEZON NORD     0290000006372006372840000202300000000000490      000000                                                                                                                                 140156838         130156068         120157348         110172388         100177138                                                                                                                                                        
300000700310015 00860 4142001EB 20 PONT ST ESPRIT0040991RD 980              0120860BAGNOLS NORD        0120857007907006709000000000000000000000589      017915         015979   016393   017428   018060   018607   019246   019543   019888   018251   017847   016873   016743               140177511         130000001         120000001         110000001         100000001         015745   016615   017152   018564   018137   019092   018978   019859   018359   017521   016315   016607                                      
040000800310015 00850 4113001ECH.AUBIGNOSC       0160000INTER. D404         0190090CHATEAU-ARNOUX      0190000002777002510040001100300000000000193      010491  487    008964   009222   009719   010675   010998   011105   011767   012243   011022   010364            009241               140103371    7    130104361    7    120000001         110099301         100102571         008699   008902   009754   010360   010667   011067   011656   012559   010984   010420   009504   009347                                      
040000900310015 00850 4843001INTER. D404         0190090INTER. N96          0200840GENDARMERIE         0200000001743000065040001100300000000000190      013101                                                                                                                                 140126208         130000008         120125748         110132598         100127838                                                                                                                                                        
050000900310015 00850 4113001LIMITE ISERE        0000000CARREF.CD945 LA FARE0220651ST FIRMIN           0050050022581020386050001100338000400031287      003500  677    002413   002825   002745   003167   003619   003577   005629   006503   003304   003022   002375   002711               140032091    7    130033121    7    120032911    7    110034641    8    100034791         002273   002757   003125   002762   003026   003341   004502   005852   003137   002924   002271   002454                                      
040001000310015 00850 4843001INTER. N96          0200840LIMITE AGGLO.       0210291SUBDI.CHATEAU-ARNOUX0210000000440000000040001100300000000000188      011199                                                                                                                                 140107888         130000008         120105078         110110798         100110488                                                                                                                                                        
040001100310015 00850 4113001LIMITE AGGLO.       0210291INTER. D4           0260400L'ESCALE            0220500005153004888040001200300000000000188      008974    0                                                                                                                            140086441    0    130000001    0    120086371    0    110091071    0    100088931    0                                                                                                                                                   
050001100310015 00850 4113001CARREF.CD945 LA FARE0220651CARREF.CD944        0330328COL_BAYARD          0330290010689009884050001100300000000000989      006312  557    005273   005913   005597   005911   006317   006461   008080   008878   006355   006018   005233   005625               140060801    7    130063671    7    120063661    7    110064001    7    100065081    0    005042   005984   005955   005436   005877   006272   007317   008414   006090   006134   005201   005179                                      
040001101310015 00850 4813001INTER.D4            0260400INTER.DEV.MALIJAI   0270885MALIJAI             0270300001499000740040001200300000000000190      007659                                                                                                                                 140074928         130000008         120074038         110075318         100074978                                                                                                                                                        
040001200310015 00850 4113001INTER.DEV.MALIJAI   0270885INTER. D17          0360220MALLEMOISSON        0330700008162007132040001200100000000000190      013550    0                                                                                                                            140132541    0    130000001    0    120131111    7    110133361    8    100132751    0                                                                                                                                                   
050001200310015 00850 4813001CARREF.CD944        0330328SORTIE GAP NORD AGGL0351330VARSIE              0350950003015003015050001100300000000001287      008473                                                                                                                                 140081628         130085488         120085478         110085938         100087398                                                                                                                                                        
040001201310015 00850 4813001INTER. D17          0360220INTER. N1085        0390945LE ROCHER COUPE     0390850003715003715040001200300000000000202      017184                                                                                                                                 140168108         130000008         120166058         110168908         100168148                                                                                                                                                        
040001202310015 00850 4813001INTER. N1085        0390945Espace Commercial   0410630NOUVELLE SUBDI      0400000001640001640040001203300000000000202      012668                                                                                                                                 140125728         130125478         120000008         110128948         100130108                                                                                                                                                        
040001203310015 00850 4113001Espace Commercial   0410630BD POMPIDOU         0440140DIGNE_W_N85         04200000025000025000400012031          1295      018037  317    016960   017384   017659   018531   017547   019206   018472   018537   019011   018006   017481   017651               140178981    7    130178691    7    120000001         110183561    7    100185201         016492   016769   017634   018646   017675   018851   018936   018711   018989   018216   016935   016873                                      
040001205310015 00850 4843001BD POMPIDOU         0440140LA PALE             0440685PONT DAVID NEEL     0440545000545000000040001203300000000000107      007787                                                                                                                                 140077298         130077138         120000008         110079288         100079998                                                                                                                                                        
050001299310015 00850 4853001SORTIE GAP NORD AGGL0351330CARREFOUR EUROPE    0380360AV CDT DUMONT       0360900002781000000050001100300000000001287      008463                                                                                                                                 140081528         130085378         120085368         110085828         100087278                                                                                                                                                        
050001300310015 00850 4113001SORTIE GAP CAR RD 470400964CARREF.CD942 TALLARD0510523GAP SUD N85         0490550010422010422050001300300000000001287      012002  518    011420   011754   012216   012077   011803   012166   012731   012908   012230   011935   011303   011448               140119661    8    130118821    8    120118421 1057    110120721         100119271         011014   011733   012379   011718   011817   012327   012704   013277   012246   012079   011003   011248                                      
050001395310015 00850 4813001SORTIE AGGLO SUD    0400726ACCES  CAR RD 47    0400964BEL AUREILLE        0400560000238000238050001300305000130030100      016549                                                                                                                                 140165008         130163858         120163308         110166488         100164498                                                                                                                                                        
050001399310015 00850 4853001CARREFOUR EUROPE    0380360SORTIE GAP SUD AGGLO0400726AV.JEAN JAURES      0390100002477000000050001100300000000000394      021654                                                                                                                                 140208598         130218448         120218418         110219588         100223298                                                                                                                                                        
050001400310015 00850 4113001CARREF RD 942 TALLAR0510523CARREF A51          0520421LA SAULCE           0520150000687000687050002100300000000000202      017106  717    018114   018196   019555   017902   017548   017526   017396   018887   015418            012888   014687               140158101    7    130178541    7    120165321    7    110165641    7    100162171         018224   019050   016571   012757   013506   014110   015461   016726   014537   017278                                                        
840001400310015 00070 4117001Charles de Gaulle   0540000D 973               0611156CAUMONT_N7          0600176006996006996840001400300000000000493      000000                                                                                                                                 140401931         130394431    7    120382901         110404441         100408711         038543   038495   039918   041769   040505   041053   043432   038035   040907   041165   038399   039983                                      
040001700310015 00850 4113001RD 12               0470290INTER. D907         0570250DIGNE_EST_N85       0500180008487008487050001100300000000000188      004915    0                                                                                                                            140047371    0    130047111    7    120047671    7    110048711    7    100048501    0                                                                                                                                                   
040001800310015 00850 4112001INTER. D907         0570250INTER. N202         0750128BARRÊME             0740800017685017285050001100300000000000188      004233  777    002969   003161   003446   003910   004490   004468   005844   006741   004464   003808            003158               140040941    7    130041711    7    120041731    7    110042231    7    100042181         002877   002848   003649   003702   004196   004605   005660   006920   004494   003892   003139   003012                                      
050002100310015 00940 4113001SORTIE GAP EST AGGLO0720245CARREF.RD 942       0820090GAP EST N94         0750800009851009489050002100300000000001287      013170  527    011866   012405   012562   012795   012552   013861   015833   015688   012992   012882   012265   012243               140125511    7    130124441    7    120123141    7    110124691    7    100123111         011519   012030   012587   012096   011852   012616   014289   014401   012541   012352   011823   012415                                      
050002199310015 00940 4853001CARREF.MUSEE        0700000SORTIE GAP EST AGGLO0720245AVENUE EMBRUN       0710000002042000000050002100300000000001287      020717                                                                                                                                 140197448         130195768         120193728         110196168         100193688                                                                                                                                                        
050002200310015 00940 4113001CARREF.CD942 MONTGAR0820090CARREF.CD954 BARCELO0980880CAR MONGARDIN       0820150016673015996050002500300000000001287      015567    0                                                                                                                            140144641    0    130142431    7    120139561    7    110142951    7    100139341    0                                                                                                                                                   
480002200310015 01060 4812001LIMITE GARD         0000000INTER.D984-JALCRESTE0221003LE COLLET DE DEZE   0100800022038020321300003500300000000001287      002548                                                                                                                                 140025308         130025058         120025168         110025168         100024938                                                                                                                                                        
050002400310015 00940 4113001CARREF.CD954 BARCELO0980880AGGLO SUD EMBRUM    1080800SAVINES-CROTS       1070546008803008015050002500300000000001287      014406  627    012603   013432   013823   012969   012920   014414   021206   022680   013171   012125   011228   012018               140138131    7    130138431    7    120136641    7    110139261    7    100135551         012056   013302   014221   012004   012017   013457   019231   021670   012899   011949   010573   012125                                      
050002499310015 20940 4843001AGGLO SUD EMBRUN    1100195AGGLO NORD EMBRUN   1120659AGGLO EMBRUN        1100200002359000000050002500300000000000191      008563                                                                                                                                 140082308         130076968         120067748         110040478         100039418                                                                                                                                                        
050002500310015 20940 4113001FIN AGLO NORD EMBRUN1120659CARREF.CD263        1170420EMBRUN NORD         1130900004776004776050002502300000000001287      007168  987    005806   005857   006764   005999   006124   007329   011058   012265   006186   006162   005518   006692               140068891    7    130064421    7    120056701    7    110033871    7    100032981         006489   007252   007362   005968   005469   006515   009368   010989   006249   005582   004998   006327                                      
300002500310015 01000 4112001A 9 RD 192          0020590RD 976              0070653ESTEZARGUES         0060800005056005056000000000000000000000589      019130         016189   016389   017751   019575   018851   020691   023167   021915   020071   019455   017241   018029               140000001         130000001         120000001         110000001         100000001                                                                                                                                                        
050002501310015 00940 4813001EMBRUN-SUD          1080800EMBRUN-NORD         1140440DEV_EMBRUN          1140000005640005640050002502300000000000409      000000                                                                                                                                 140000008         130000008         120000008         110000008         100000008                                                                                                                                                        
050002502310015 00940 4113001RD 263              1140440RD 902 A            1280350GUILLESTRE N94      1270234009874009291050002700300000000000199      009256  667    008611   009129   009433   008557   008017   008687   012953   013905   008429   008110   007292   007809               140089811    7    130089901    7    120088491    7    110091141    8    100089471         008142   009103   009890   007855   007533   008623   011671   013401   008313   007912   006924   008286                                      
050002600310015 00940 4113001CARREF.CD902A GUIL. 1280350CARREF.CD994E       1440520ARGENTIERE          1430800015594013008050002700300000000001287      006808  837    005933   006110   006573   006394   006131   007122   009282   010112   006337   006011   005527   006036               140065781    7    130063311    7    120064351    7    110063361    7    100062851         005455   005899   006660   005855   005770            009034   010121   006478   005955   005200   005802                                      
300002600310015 01000 4112001RD 976              0070653RN 580              0150900ROCHEFORT           0140500008238008238000000000000000000000589      020340         017784   018185   019255   020378   021456   022249   022939   023292   021201   019217   018884   019076               140202581         130000001         120000001         110000001         100000001         017173   018022   018699   020342   020317   022107   024202   023225   021223   020298   018460   018845                                      
050002700310015 00940 4113001CARREF.CD994E       1440520CARREF.CD2 BRIAN.SUD1590079PRELLES             1520700014248012943050002700300000000000189      000000                                                                                                                                 140080281         130079491         120079491 1047    110079491 1067    100079191                                                                                                                                                        
300002700310015 01000 4810201RN580               0150900LIMITE VAUCLUSE     0190640LES ANGLES          0160475003732003732000000000000000000000616      039391    0                                                                                                                            140000008    0    130000008    0    120000008    0    110000008    0    100000008    0                                                                                                                                                   
830002799310015 00980 4856001A 570 HYERES        0000000EB10 HYERES         0100701HYERES OUEST        0100000001100001100830650200300000000000295      000000                                                                                                                                 140363548         130359958         120359958         110359958         100443918                                                                                                                                                        
050002899310015 00940 4843001CARREF.CD2 BRIAN.   1590079CARREF.CD994F AGGLO 1600586BRIANCON AV PROVENCE1590600001550000000050002700300000000001287      000000                                                                                                                                 140038088         130037718         120037718         110038728         100076448                                                                                                                                                        
300003000310015 01060 4112001RD 907              0050322RD 22 LA CALMETTE   0130500NIMES NORD          0050370008022008022300004601300000000000589      031235         025983   026614   027598   024903   023659   038522   041078   038801   039526   032206   027983   027692               140280601         130000001         120000001         110000001         100000001         025654   026945   027113   029113   028245   029523   029784   028302   028711   029599   026820   026870                                      
050003099310015 00940 4843001CARREF.CD994F AGGLO 1600586CARREF.RN91 CH.MARS 1610905BRIANCON AV FORGUES 1610000001339000000050002700300000000001287      000000                                                                                                                                 140016898         130016738         120016738         110017188         100033938                                                                                                                                                        
050003199310015 00940 4813001CARREF.RN91 CH.MARS 1610905AGGLO BRI NORD      1620412LA VACHETTE         1620050000511000000050003200300000000001287      008757                                                                                                                                 140085398         130084948         120082588         110084178         100082868                                                                                                                                                        
040003200310015 02020 4112001INTER. N85          0000000INTER. D955         0130590GEVAUDAN            0060450013354011302050001100300000000000188      002809         002275   002410   002427   002568   002819   002872   003729   004019   002826   002719            002185               140026541    7    130027641         120025171         110027201         100027141         002177   002079   002619   002508   002644                     003993   002895   002984   002275   002296                                      
050003200310015 00940 4113001AGGLO BRI NORD      1620412SORTIE MONTGENEVRE  1720580COL MTG             1640150010980009660130004300100000000001287      006209  627    005912   006029   005945   005310   004911   005988   009019   010985   005446   004752   004193   005879               140060541    7    130060221    7    120058541    7    110059661    8    100058731         005423   005508   006511   005304   004786   005742   008476   010821   005579   004789   004206   005346                                      
300003200310015 01060 4110101GIRATOIRE           0140430RD 8 BRIGNON        0200770ST GENIES           0170748005385005385300004601300000000000589      018293    0    015687   016450   017335   018636   018876   019361   019865   019806   019205   019336   018051   016800               140174661    0    130000001    0    120000001    0    110000001    0    100000001    0    015597   016505   016788   018188   017974   017821   018824   020108   017553   016741   017033   016394                                      
300003201310015 01060 4110101RD 8 BRIGNON        0200770RD 982 PONT DE NERS 0270300BOUCOIRAN           0270000006332004632300004601300000000000301      037941                           037440   038777   039712   039090   039657   040330   040189   040157   029361   034554               140000001         130000001         120000001         110000001         100000001                                                                                                                                                        
050003220310015 00940 4113001AGGLO BRI NORD      1720580SORTIE MONTGENEVRE  1730390MTG TREMIE          1730120010980009660130004300100000000001287      003303  598    003776   003519   003502   003183   002200   002630   004709   006407   002275   001954   001751   003642               140031641    8    130031971    8    120030841    7    110031791    8    100026181         003384   003334   003803   002997   002071   002472   004239   006215   002403   001938   001900   003142                                      
040003300310015 02020 4112001INTER. D955         0130590INTER. D955         0210343SAINT JULIEN        0200050007683006489050001100300000000000188      002493         001831   001930   002113   002213   002433   002384   003932   004252   002591   002373   001894   001884               140020951         130024381         120000001         110024791         100024721         001819   001876   002227   002206   002278   002538            001979   002185   002443   001743   001732                                      
050003300310015 00940 4113001SORTIE MONTGENEVRE  1730390LIMITE FRONTIERE    1740834POSTE P.A.F         1740600001451001451130004300100000000001287      003136  917    003820   003336   003325   003063   002108   002345   004358   006102   002122   001864   001627   003473               140029801    7    130030151    7    120027781    7    110029091    7    100028611         003266   003074   003651   002765   002123   002059   004263   005817   002172   001803   001747   002933                                      
300003300310015 01060 4112001RD 982 PONT DE NERS 0270300EB10 ALES           0390707SAINT HILAIRE       0380700012257010167300004601300000000000589      000000                                                                                                                                 140000001         130000001         120000001         110000001         100000001                                                                                                                                                        
340003300310015 01130 4113001LIMITE GARD         0000000EB10 LUNEL          0010670LUNEL               0010200001754001754340003600330000480030490      025723         022422   022871   024473   026249   027145   028139   029461   030255   025977   024623   023697   023118               140245681         130242031         120241441         110238651    8    100236571         020845   023042   023683   025951   025812   026662   026463   029383   025530   023675   021363   022301                                      
040003400310015 02020 4112001INTER. D955         0210343INTER. D908         0380410ROUAINE             0330620016825015738050001100300000000000188      000000                                                                                                                                 140015731         130015721    7    120015521    7    110016241         100016331                                                                                                                                                        
300003400310015 01060 4112001EB20 ALES           0470000LA GRAND COMBE      0570400ST_MARTIN_VALG      0490800010324008844300004601300000000000290      010678         009642   009637   010261   010711   010870   011149   011247   011219   011333   011124   010528   010338               140104401    8    130000001         120000001         110000001         100000001         009390   009918   009935   010662   010553   010879   011094   011281   010719   010798   009881   010125                                      
040003500310015 02020 4112001INTER.D908          0380410INTER. D2202        0450150PONT DE GUEYDAN     0440850006608006460050001100300000000000188      002559  657    001889   001960   002150   002360   002725   002757   003562   003920   002800   002459   002037   002025               140025261    7    130025611    7    120025631    7    110026241    8    100025511         001774   001825   002128   002232   002576   002852   003395   004058   002740   002540   002208   001921                                      
300003500310015 01060 4112001LA GRAND COMBE      0570400LIMITE LOZERE       0660871SAINTE CECILE       0650200009457006617300004601300000220030290      003061         002111   002169   002445   002933   003315   003266   004104   004761   003362   003203   002536   002439               140030391         130000001         120000001         110000001         100000001         002082   002150   002496   002846   003125   003257   004376   004686   003224   003221   002501   002405                                      
340003600310015 01130 4113001EB 20 LUNEL         0040630BAILLARGUES         0140750VALERGUES           0090000010811008088340003600300000000000490      014433    0                                                                                                                            140142331    0    130140931    7    120143681    0    110155541    7    100159041    0                                                                                                                                                   
340003701310015 01130 4813001VENDARGUES A9       0150450VENDARGUES D65      0160150VENDARGUES A9 D65   0160000002797002197340003600300000000000180      045031                                                                                                                                 140444078         130439688         120448268         110485278         100496198                                                                                                                                                        
340003702310015 01130 4813001VENDARGUES D65      0160150VENDARGUES LIMITE   0160912VENDARGUES LIMITE   0160700002797002197340003600300000000000180      024036                                                                                                                                 140237038         130234698         120239278         110259038         100264868                                                                                                                                                        
380003800310015 00850 4113001VIZILLE             0560310LIMITE HAUTES-ALPES 1030997LAFFREY             0730600050574050574300003500305000090010907      009464    0                                                                                                                            140097801    0    130096841    0    120096841    0    110096841    0    100097561    0                                                                                                                                                   
840003800310015 01290 4813001N 7                 0000000N 7                 0000775AUTOROUTE AVI SUD   0000690000775000775840001400300000000000500      000000                                                                                                                                 140199148         130192848         120189338         110196558         100200148                                                                                                                                                        
130004201310015 01130 4810201RN 1453             0600000RD 24               0620440RD 24 EST           0600000002823002823130004300300000000000394      000000                                                                                                                                 140000008         130000008         120000008         110000008         100000008                                                                                                                                                        
130004202310015 01130 4810201RD 24               0620440RN 1453             0640800DEV ST MARTIN       0620500002346002346130004300300000000000394      035588                                                                                                                                 140333548         130330248         120330248         110330248         100333708                                                                                                                                                        
130004300310015 01130 4113001RN 1453             0640800RN 568              0670630ARLES HIPPOLYTE     0660600003037003037130004300100000000000589      036683    0                                                                                                                            140343841    0    130340441    0    120340441    0    110340441    0    100345661    0                                                                                                                                                   
130004400310015 01130 4810201RN 568              0670630ARLES EST RN 570    0760100LES CANTARELLES     0690600008462008462130004300300000000000589      054261                                                                                                                                 140509168         130504128         120504128         110504128         100511838                                                                                                                                                        
130004500310015 01130 4810201ARLES EST RN 570    0760100RD 570              0781239PONT D'ARLES        0781000003376003376130004300300000000000589      066628                                                                                                                                 140623258         130617088         120617088         110617088         100626548                                                                                                                                                        
300004597310015 01130 4852001EB 10 NIMES         0240280RN 86 BD SUD        0260640NIMES ENTREE SUD    0250000002405000000300004601300000000000301      034553                                                                                                                                 140336368         130000008         120000008         110000008         100000008                                                                                                                                                        
300004598310015 01130 4857001RN 86 BD SUD        0260640A9 RN 106           0290820NIMES  PERIPHERIQUE 0280760003143000000300004601300000000000589      034816    0                                                                                                                            140338928    0    130000008    0    120000008    0    110000008    0    100000008    0                                                                                                                                                   
300004599310015 01130 4857001A9 N106             0290820EB 20 NIMES         0320195NIMES PERIPH SUD OUE0310000002408000000300004601300000000000301      034553                                                                                                                                 140336368         130000008         120000008         110000008         100000008                                                                                                                                                        
300004600310015 01130 4812001EB20 NIMES          0320195RD 14 BERNIS        0360391DEVIATION DE MILHAUD0330000005034005034300004601300000000000589      022380                                                                                                                                 140217868         130000008         120000008         110000008         100000008                                                                                                                                                        
300004601310015 01130 4113001RD 14 BERNIS        0360391RD 139 VERGEZE      0420395BERNIS              0360480006662006662300004700300000000000589      017702         015794   015938   017884   019607   019409   019654   018649   018915   017526   016832   016192   015918               140172321         130000001         120000001         110000001         100000001         015439   016457   016601   017429   017373   018392   018674   019106   017937   017131   016044   016159                                      
300004700310015 01130 4112001RD 139 VERGEZE      0420395A.9 RN 313          0470480CODOGNAN            0430540005085004465300004700300000000000589      011378         009494   009353   010258   011090   011867   012230   012532   013023   012115   011860   011197   011361               140110561         130000001         120000001         110000001         100000001         009522   010381   010670   011365   011330   012128   012211   013459   011572   010369   009798   009828                                      
300004800310015 01130 4812001A9 RN 313           0470480RN 572              0490420GALLARGUES          0490000001931001931300004700300000010030589      016780                                                                                                                                 140163068         130000008         120000008         110000008         100000008                                                                                                                                                        
300004801310015 01130 4812001RN 572              0490420LIMITE HERAULT      0490798PONT / VIDOURLE     0490798000378000378300004700300000000000189      015620                                                                                                                                 140151788         130000008         120000008         110000008         100000008                                                                                                                                                        
130004900310015 02960 4810201AX OUEST (A 51)     0000000RN 7                0020000ROCADE OUEST AIX    0000500002267001573130005000300000000000589      069501                                                                                                                                 140698268         130691358         120691358         110691358         100669538                                                                                                                                                        
130005000310015 02960 4110201RN 7                0020000RN 96               0051040AIX ROCADE NORD     0040000003186003117130007000100000000000294      061781    0                                                                                                                            140621021    0    130614881    0    120614881    0    110614881    0    100599821    0                                                                                                                                                   
130006399310015 05470 4152001MARSEILLE           0050000N1547               0050957MARSEILLE 547       0050500000957000957130007000100000000000600      000000                                                                                                                                 140305361         130302341         120302341         110302341         100298841                                                                                                                                                        
130006600310015 05680 4110201RN 113              0000000RN 268              0200950ARLES THIBERT       0040500020558020558130007000100000000000589      000000                                                                                                                                 140174541         130172821         120172821         110172821         100179531                                                                                                                                                        
130006610310015 05680 4113001Giratoire D24       0060350Giratoire D268      0200844MAS THIBERT         0090250014463014463130007000100000000000616      016768    0                                                                                                                            140000001    0    130000001    0    120000001    0    110000001    0    100000001    0                                                                                                                                                   
130006700310015 05680 4810201RN 268              0200950RN 569              0240865LA FEUILLANE        0220900004119004119130007000300000000000589      024893                                                                                                                                 140281278         130278498         120278498         110278498         100267008                                                                                                                                                        
130006800310015 05680 4810201RN 569              0240865RN 569              0260673FOS PMV             0250350001780001780130007000300000000000589      024174    0                                                                                                                            140272898    0    130270198    0    120270198    0    110270198    0    100268208    0                                                                                                                                                   
130006900310015 05680 4817001RN 569              0260673RN 545              0280867GENDARMERIE DE FOS  0270000002158002158130007000300000000000589      029173                                                                                                                                 140329008         130325758         120325758         110325758         100323398                                                                                                                                                        
130007000310015 05680 4110201RN 545              0280867RD 50B PORT DE BOUC 0320026FOS EST             0300500003258003050130007000100000000000595      040269    0                                                                                                                            140454171    0    130449681    0    120449681    0    110449681    0    100436671    0                                                                                                                                                   
130007100310015 05680 4810201RD 50B PORT DE BOUC 0320026EB10  MARTIGUES     0340700CROIX SAINTE        0330500002647000000130007000300000000000589      045825                                                                                                                                 140517948         130512828         120512828         110512828         100511838                                                                                                                                                        
130007101310015 05680 4852001EB10  MARTIGUES     0340700A55 FIN BDR RN      0351263MARTIGUES           0340000001628001628130007000300000000000589      067897                                                                                                                                 140765788         130758208         120758208         110758208         100751448                                                                                                                                                        
130007600310015 05690 4812001RN 113              0000000EB10  MIRAMAS       0040000LE MERLE SUD        0010000004104004104130007000300000000000589      008579                                                                                                                                 140096768         130095818         120095818         110095818         100097878                                                                                                                                                        
130007700310015 05690 4852001EB10  MIRAMAS       0040000EB20  MIRAMAS       0050750MIRAMAS             0040500001206000000000000000000000000000589      000000                                                                                                                                 140000008         130000008         120000008         110000008         100000008                                                                                                                                                        
130008600310015 05690 4812001EB20  ISTRES        0190000RN 568              0230939ECOLE DE POLICE     0200000004805004805130007000300000000001295      009575                                                                                                                                 140108008         130106948         120106948         110106948         100104798                                                                                                                                                        
130009600310015 05720 4115001A 54  VC 114        0090000LE VITTIER          0121380ARLES OUEST 572     0100000005108005108          00000000000589      000000                                                                                                                                 140383411         130379621         120379621         110379621         100381771                                                                                                                                                        
130010200310015 15470 4853001RN547               0060000FIN RESEAU ETAT     0080920MARSEILLE 1547      0060000002847000000          00000000000600      000000                                                                                                                                 140000008         130000008         120000008         110000008         100000008                                                                                                                                                        
130016000310015 15690 4813001RN 569              0000000GIRATOIRE DU TUBE   0030868TUBE SUD            0020100003569003569130007000300000000000193      017495                                                                                                                                 140197328         130195378         120195378         110195378         100191428                                                                                                                                                        
130016100310015 15690 4813001GIRATOIRE DU TUBE   0030868RD 5                0080600TRANSHUMANCE        0050200004733004733130007000300000000000193      014683                                                                                                                                 140165618         130163988         120163988         110163988         100160678                                                                                                                                                        
130016200310015 15690 4813001RD 5                0080600MIRAMAS             0120994DEV MIRAMAS         0110400004393004393130007000300000000000193      010312                                                                                                                                 140116318         130115168         120115168         110115168         100112848                                                                                                                                                        
840100723310015 10070 4110201giratoire           0220000sortie gare TGV     0230500COURTINE NORD       0230235000641000641000000000000000000000616      015143    0    013333   013657   014341   015685   014869   016301   017135   015228   016168   015884   014580   014463               140000001    0    130000001    0    120000001    0    110000001    0    100000001    0                                                                                                                                                   
840100725310015 10070 4110201sortie gare TGV     0230500giratoire fin route 0260076RIVE GAUCHE         0250065001104001104000000000000000000000616      019826    0                                                                                                                            140000001    0    130000001    0    120000001    0    110000001    0    100000001    0                                                                                                                                                   
840107050310015 00860 4813001RD 994              0030200LIM DEP             0040000PT_ST_ESPRIT_DEV    0040000001008001008000000000000000000000197      000000                                                                                                                                 140101728         130100728         120097348         110100638         100098058                                                                                                                                                        
840149700310015 00860 4813001D63 A MOTTE DU RHONE0010929D994                0030200LA MOTTE DU RHONE   0020213001578001578000000000000000000000898      000000                                                                                                                                 140198408         130196448         120189858         110196278         100191248                                                                                                                                                        
840149800310015 00860 4812001N 7 LA CROISIERE    0000000D63 A MOTTE DU RHONE0010929LA CROISIERE        0010132001977001977000000000000000000001090      000000                                                                                                                                 140101198         130100198         120096838         110100118         100097558                                                                                                                                                        
130601300310015 00070 1810241BERRE               0000000VITROLLES           2590570ROGNAC              2550450005750005750130601690300000000000589      061798                                                                                                                                 140638458         130632138         120632138         110632138         100622308                                                                                                                                                        
130601400310015 00070 1810241VITROLLES           2590570VITROLLES Z.I.      2610270VITROLLES NORD SUD  2600500001705001705130601690300000000000589      057084                                                                                                                                 140578518         130572798         120572798         110572798         100567898                                                                                                                                                        
130601500310015 00070 1810241VITROLLES Z.I.      2610270MARIGNANE           2620120CARREFOUR VITROLLES 2610800000849000849130601690300000000000589      051293                                                                                                                                 140523058         130517888         120517888         110517888         100510838                                                                                                                                                        
130601600310015 00070 1810231MARIGNANE           2620120RN 113              2640000MARIGNANE           2640000002187002187130601690300000000000589      079298                                                                                                                                 140807338         130799348         120799348         110799348         100788978                                                                                                                                                        
130601690310015 00070 1110231RN 113              2640300SORTIE L'AGAVON     2650000L AGAVON PMV        2640650000593000593130620500100000000000589      107452    0                                                                                                                            141095111    0    131084271    0    121084271    0    111084271    0    101071831    0                                                                                                                                                   
130601700310015 00070 1110441SORTIE L'AGAVON     2650000A 55 NORD           2651040L'ANJOLY            2650500001040001040130620500100000000000589      000000                                                                                                                                 141134631         131123401         121123401         111123401         101094211                                                                                                                                                        
130601800310015 00070 1110241A 55 NORD           2651040A 55 SUD            2670280LES PENNES CRICR    2660500001363001363130620500100000000000589      000000                                                                                                                                 140660101         130653571         120653571         110653571         100697871                                                                                                                                                        
130601900310015 00070 1110341A55 SUD             2670280LES PENNES MIRABEAU 2690000A55 LES PENNES      2680000002450002450130620500100000000000989      000000                                                                                                                                 141001731         130991821         120991821         110991821         101000741                                                                                                                                                        
130601901310015 00070 1110431PENNES MIRABEAU     2690000A 51 NORD           2700585PENNES MIRABEAU     2700000000860000860130620500100000000000589      000000                                                                                                                                 140882971         130874231         120874231         110874231         100882771                                                                                                                                                        
130602000310015 00070 1110231A 51 NORD           2700585A 51 SUD            2710620SEPTEMES A 7        2700833001025001025130620500100000000000589      000000                                                                                                                                 140509411         130504371         120504371         110504371         100586911                                                                                                                                                        
130602100310015 00070 1110431A 51 SUD            2710620ST ANTOINE          2730510SEPTEMES TRON COMMUN2720000001894001894130620500100000000000589      000000                                                                                                                                 141437701         131423471         121423471         111423471         101354421                                                                                                                                                        
130602200310015 00070 1110431ST ANTOINE          2730510LES AYGALADES       2750080SAINT ANTOINE       2740000001570001570130620500100000000000589      000000                                                                                                                                 141409261         131395311         121395311         111395311         101423401                                                                                                                                                        
130602300310015 00070 1110431LES AYGALADES       2750080M.I.N.ARNAVAUX      2780915LES  AYGALADES      2760000003402003402130620500100000000000589      128939    0                                                                                                                            143251361    0    133219171    0    123219171    0    113219171    0    101342731    0                                                                                                                                                   
130602500310015 00070 1110431LA ROSE             2780915PLOMBIERES          2800130LA ROSE             2800000001210001210130620500100000000000589      000000                                                                                                                                 140882881         130874141         120874141         110874141         101071411                                                                                                                                                        
130602600310015 00070 1110431PLOMBIERES          2800130ST CHARLES          2820100PLOMBIERES ST CHARLE2810000001975001975130620500100000000000589      000000                                                                                                                                 140748241         130740841         120740841         110740841         100782681                                                                                                                                                        
130615200310015 00500 1110431MENPENTI            0000000LA POMME            0020000MENPENTI            0010000002260002260130620500100000000000589      089420    0                                                                                                                            140900861    0    130891951    0    120891951    0    110891951    0    100901871    0                                                                                                                                                   
130615300310015 00500 1110431LA POMME            0020000LA VALENTINE        0070507LA VALENTINE        0050000004635004635130620500100000000000589      124105    0                                                                                                                            141261961    0    131249471    0    121249471    0    111249471    0    101248461    0                                                                                                                                                   
130615490310015 00500 1110431LA VALENTINE        0070507LA PENNE            0100495LA PENNE            0090316002990002990130620500100000000000589      000000                                                                                                                                 141117461         131106401         121106401         111106401         101021991                                                                                                                                                        
130615500310015 00500 1110431LA PENNE            0100495AUBAGNE (A 501)     0120880AUBAGNE OUEST       0110820002392002392130620500100000000000589      113149    0                                                                                                                            141118241    0    131107171    0    121107171    0    111107171    0    101078061    0                                                                                                                                                   
130615600310015 00500 1150231AUBAGNE (A 501)     0120880AUBAGNE (A 502)     0150303AUBAGNE OUEST       0140000002413002413130620500100000000000589      071570    0                                                                                                                            140720771    0    130713641    0    120713641    0    110713641    0    100708181    0                                                                                                                                                   
830616500310015 00500 1110421LA BEAUCAIRE        0660067PONT DES GAUX       0670634LA BEAUCAIRE        0660750001567001567840000202300000000001287      000000                                                                                                                                 140973211         130963581         120963581         110963581         100851131                                                                                                                                                        
830616502310015 00500 1110441PONT DES GAUX       0000000BON RENCONTRE       0680700TOULON OUEST        0670776001085001085840000202300000000000290      000000                                                                                                                                 141038291         131028011         121028011         111028011         100974511                                                                                                                                                        
830616600310015 00500 1150441BON RENCONTRE       0680700VILLEVIEILLE TOULON 0690449BON RENCONTRE       0680765000639000639840000202300061660031287      000000                                                                                                                                 140628741         130622521         120622521         110622521         100759341                                                                                                                                                        
130617100310015 05010 1150231AUBAGNE (A 50)      0000000AUBAGNE OUEST       0000840AUBAGNE OUEST       0000800000840000840130620500100000000000589      039835    0                                                                                                                            140432431    0    130428151    0    120428151    0    110428151    0    100425701    0                                                                                                                                                   
130617200310015 05010 1150231AUBAGNE OUEST       0000840AUBAGNE NORD        0020589AUBAGNE NORD        0020000001780001780130620500100000000000589      033250    0                                                                                                                            140314171    0    130311061    0    120311061    0    110311061    0    100308241    0                                                                                                                                                   
130618100310015 05020 1110231AUBAGNE SUD (A 50)  0000000AUBAGNE EST (D 559A)0010619AUBAGNE GEMENOS     0000500001601001601130620500100000000000589      000000                                                                                                                                 140278021         130275271         120275271         110275271         100278291                                                                                                                                                        
130620100310015 00510 1110441SEPTEMES (A 7)      0000000BRETELLE A7         0010080SEPTEMES            0000300000967000967130620500100000000001192      071352    0                                                                                                                            140832161    0    130823931    0    120823931    0    110823931    0    100814381    0                                                                                                                                                   
130620200310015 00510 1110431BRETELLE A 7        0010080PLAN DE CAMPAGNE    0020925BRETELLE A7-PLAN DE 0020000001848001848130620500100000000000589      117628    0                                                                                                                            141266601    0    131254061    0    121254061    0    111254061    0    101198411    0                                                                                                                                                   
130620300310015 00510 1110241PLAN DE CAMPAGNE    0020925LES CHABAUDS        0050035BOUC BEL AIR        0050000002111002111130620500100000000000589      116174    0                                                                                                                            141068401    0    131057831    0    121057831    0    111057831    0    101108031    0                                                                                                                                                   
130620400310015 00510 1110241LES CHABAUDS        0050035LES 3 PIGEONS       0100135CABRIES MARIUS      0060100005116005116130620500100000000000589      054841    0                                                                                                                            140725091    0    130717921    0    120717921    0    110717921    0    100698851    0                                                                                                                                                   
130620500310015 00510 1110241LES 3 PIGEONS       0100135LUYNES              01303253 PIGEONS-LUYNES    0100300003191003191130620500100000000000589      000000                                                                                                                                 140579081         130573351         120573351         110573351         100560811                                                                                                                                                        
130620690310015 00510 1810241LUYNES              0130325LES MILLES          0140720LUYNES PMV          0140000001393001393130620500300000000000189      000000                                                                                                                                 140675228         130668548         120668548         110668548         100642358                                                                                                                                                        
130620700310015 00510 1810441LES MILLES          0140720AIX-CENTRE          0150770LES MILLES          0150000001358001358130620500300000000000589      000000                                                                                                                                 141105878         131094938         121094938         111094938         101052278                                                                                                                                                        
130620800310015 00510 1850231AIX-CENTRE          0150770RACCORDEMENT A.8    0160515AIX-CENTRE          0160200000751000751130620500300000000000589      000000                                                                                                                                 140794898         130787028         120787028         110787028         100767948                                                                                                                                                        
130620900310015 00510 1850231RACCORDEMENT A.8.   0160515AIX-OUEST(Z.A.C.)   0170826RAC.A8-AIX-OUEST ZAC0170000001319001319130620500300000000000589      000000                                                                                                                                 140901588         130892668         120892668         110892668         100857758                                                                                                                                                        
130635100510015 00550 1111031PORT                0010000JOLIETTE            0020060JOLIETTE            0010442000160000160          00000000000589      038731    0                                                                                                                            140462171    0    130457601    0    120457601    0    110457601    0    100417171    0                                                                                                                                                   
130635200410015 00550 1150231ARENC               0010349JOLIETTE            0020060JOLIETTE.           0020000000462000462          00000000000589      000000                                                                                                                                 140408321         130404281         120404281         110404281         100394811                                                                                                                                                        
130635300310015 00550 1150231ARENC               0020060CAP PINEDE          0030460ARENC               0020800001406001406          00000000000589      000000                                                                                                                                 140696031         130689141         120689141         110689141         100657751                                                                                                                                                        
130635400310015 00550 1110431CAP PINEDE          0030460CAP JANET           0040660CAP PINEDE          0040305001200001200          00000000000589      000000                                                                                                                                 140510181         130505131         120505131         110505131         100625701                                                                                                                                                        
130635600310015 00550 1110231CAP JANET           0040660MIRABEAU            0050620CAP JANET           0050000000960000960          00000000000589      000000                                                                                                                                 140639891         130633561         120633561         110633561         100659101                                                                                                                                                        
130635800310015 00550 1110231MIRABEAU            0050620GD LITTORAL         0070150VERDURON            0070279007244007244          00000000000191      000000                                                                                                                                 140580441         130574701         120574701         110574701         100617951                                                                                                                                                        
130635900310015 00550 1110231GD LITTORAL         0070150JONCTION A7 SUD     0120880GD LITTORAL         0070279007244007244          00000000000191      000000                                                                                                                                 140673451         130666791         120666791         110666791         100611271                                                                                                                                                        
130635901310015 00550 1110231JONCTION A7 SUD     0120880JONCTION A7 NORD    0140000JONCTION A7 SUD NORD0140000001115001115          00000000000589      000000                                                                                                                                 140193691         130191781         120191781         110191781         100181191                                                                                                                                                        
130636000310015 00550 1810241JONCTION A7 NORD    0140000LES PIELETTES       0200495GIGNAC              0150500006078006078130635800300000000000589      000000                                                                                                                                 140692878         130686018         120686018         110686018         100739188                                                                                                                                                        
130636001310015 00550 1810241JONCTION A7 NORD    0140000LES PIELETTES       0200495REBUTY PMV          0160474006078006078130635800300000000000589      073024    0                                                                                                                            140717738    0    130710638    0    120710638    0    110710638    0    100760288    0                                                                                                                                                   
130636100310015 00550 1810241LES PIELETTES       0200495CARRY               0240130LES PIELETTES       0220000003421003421000000000000000000000589      000000                                                                                                                                 140589008         130583178         120583178         110583178         100588148                                                                                                                                                        
130636200310015 00550 1810241CARRY               0240130LA MEDE EST         0290400CARRY               0250000005274005274000000000000000000000589      000000                                                                                                                                 140508088         130503058         120503058         110503058         100507448                                                                                                                                                        
130636300310015 00550 1810241LA MEDE EST         0290400LA MEDE OUEST       0310650LA MEDE EST         0300000002251002251000000000000000000000589      000000                                                                                                                                 140636518         130630218         120630218         110630218         100635748                                                                                                                                                        
130636400310015 00550 1810241LA MEDE OUEST       0310650MARTIGUES CENTRE    0330190LA MEDE OUEST       0320000001471001471000000000000000000000589      000000                                                                                                                                 140694928         130688048         120688048         110688048         100694038                                                                                                                                                        
130636500310015 00550 1810241MARTIGUES CENTRE    0330190MARTIGUES SUD       0360400MARTIGUES CENTRE    0350100003280003280000000000000000000000589      000000                                                                                                                                 140560438         130554898         120554898         110554898         100559658                                                                                                                                                        
130636600310015 00550 1810241MARTIGUES SUD       0360400MARTIGUES NORD      0370980MARTIGUES SUD       0370500001584001584130007000300000000000589      069742    0                                                                                                                            140786588    0    130778808    0    120778808    0    110778808    0    100781668    0                                                                                                                                                   
130636700310015 00550 1810241MARTIGUES NORD      0370980RN 568.             0381061MARTIGUES NORD      0380500001080001080130007000300000000000589      066500    0                                                                                                                            140750028    0    130742608    0    120742608    0    110742608    0    100745378    0                                                                                                                                                   
130640000510015 05570 1153031A 55                0000000ARENC               0010500LIAISON A7 A55      0000000001500001500300000700300000000000589      000000                                                                                                                                 140159461         130157891         120157891         110157891         100147731                                                                                                                                                        
130641000310015 05510 1110231A 55                0000000A7                  0001177LIAISON A7N A55L    0000000001177001177300000700300000000000589      000000                                                                                                                                 140000001         130000001         120000001         110000001         100000001                                                                                                                                                        
130642000310015 05520 1110231A 55                0000000A7                  0001620LIAISON A7BN A55    0000000001620001620300000700300000000000589      000000                                                                                                                                 140356231         130352711         120352711         110352711         100337301                                                                                                                                                        
130643000310015 05150 1110231A 51                0000000D6                  0010242LIAISON A51 D6      0000000001197001197300000700300000000000589      000000                                                                                                                                 140485721         130480921         120480921         110480921         100457221                                                                                                                                                        
130644000310015 05160 1110231A 51                0000000A8                  0000915LIAISON A51 A8      0000000000915000915300000700300000000000589      000000                                                                                                                                 140000001         130000001         120000001         110000001         100000001                                                                                                                                                        
130645000310015 05170 1110231A 51                0000000A7                  0001160LIAISON A51 A7BN    0000000001160001160300000700300000000000589      000000                                                                                                                                 140419561         130415411         120415411         110415411         100405001                                                                                                                                                        
830645100310015 00570 1110431TOULON              0000000TOMBADOU            0020565LA PALASSE          0000793002569002569840000202300000000001287      000000                                                                                                                                 141053041         131042621         121042621         111042621         101033721                                                                                                                                                        
830645200310015 00570 1110431TOMBADOU            0020565LES FOURCHES        0030785LA COUPIANE         0030125001217001217840000202300064530031287      000000                                                                                                                                 141162021         131150521         121150521         111150521         101062741                                                                                                                                                        
830645400310015 00570 1110431LES FOURCHES        0030785LA BIGUE            0040865LES FOURCHES        0040140001079001079840000202300000000001287      000000                                                                                                                                 140940891         130931581         120931581         110931581         100911781                                                                                                                                                        
830645490310015 00570 1110441LA BIGUE            0040865PIERRE RONDE        0060655LA GARDE            0050966001773001773840000202300000000000189      000000                                                                                                                                 140867471         130858891         120858891         110858891         100850901                                                                                                                                                        
830645500310015 00570 1110421PIERRE RONDE        0060655LA FARLEDE          0080700LA FARLEDE          0070875002170002170840000202300000000001287      000000                                                                                                                                 140714821         130707751         120707751         110707751         100708301                                                                                                                                                        
830650100310015 05700 111 131LA GARDE            0000000LA CRAU             0030000LA BASTIDE          00009400030000030008400002023          0290      000000                                                                                                                                 140580601         130574861         120574861         110574861         100573581                                                                                                                                                        
830650200310015 05700 111 431LA CRAU             0030000HYERES              0070160LA CRAU             00604550041600041608400002023          0193      000000                                                                                                                                 140592361         130586501         120586501         110586501         100566531                                                                                                                                                        