090000300310013 00200 4813 51RD 624              0150000PAMIERS A 66        0180000LE VERNET D'AR.     01500000022890022890900004023000       0187      000000                                                                                                                                 12000000        1   00000    110  1   00000    100  1   00000     95  1   00000     80  1 000      000      000000   000000   000000   000000   000000   000000   000000   000000   000000   000000                                      
090000402110013 00200 411 251PAMIERS A 66        0180000RD 119              0210444PAMIERS             01902900034440034440900004023000       0187      011164  587    009851   010697   011642   010877   010687   011306   012090   011957   011326   011753   010294   011409               12011150        1   000007   113  1   000007   104  1   000007    99  1   000007    89  1 000      000      009962   010449   011386   010921   010814   011558   011927   011775   011401   011491                                      
090000402210013 00200 411 251PAMIERS A 66        0180000RD 119              0210444PAMIERS             01902900034440034440900004023000       0187      010748  627    009850   010048   011341   010622   010360   010927   011175   011510   011145   011257   010004   010660               12010742        1   000007   118  1   000007   101  1   000007    99  1   000007    82  1 000      000      009835   009870   011012   010456   010503   010961   011375   011403   011234   011066                                      
090000402310013 00200 411 251PAMIERS A 66        0180000RD 119              0210444PAMIERS             01902900034440034440900004023000       0187      021912  607    019701   020745   022983   021499   021047   022233   023265   023467   022471   023010   020298   022069               12021892        1   000007   111  1   000007   105  1   000007    98  1   000007    81  1 000      000      019797   020319   022398   021377   021317   022519   023302   023178   022635   022557                                      
090000501110013 00200 481 251RD 119              0210444RD 12               0241071ENTRE D12 ET D119   02309000036290036290900004023000       0187      000000                                                                                                                                 12000000        8   00000    110  8   00000    100  8   00000     96  8   00000     85  8 000      000      000000   000000   000000   000000   000000   000000   000000   000000   000000   000000                                      
090000501210013 00200 481 251RD 119              0210444RD 12               0241071ENTRE D12 ET D119   02309000036290036290900004023000       0187      000000                                                                                                                                 12000000        8   00000    110  8   00000    100  8   00000     98  8   00000     83  8 000      000      000000   000000   000000   000000   000000   000000   000000   000000   000000   000000                                      
090000501310013 00200 481 251RD 119              0210444RD 12               0241071ENTRE D12 ET D119   02309000036290036290900004023000       0187      000000                                                                                                                                 12000000        8   00000    110  8   00000    100  8   00000     94  8   00000     88  8 000      000      000000   000000   000000   000000   000000   000000   000000   000000   000000   000000                                      
090000601110013 00200 481 251RD 12               0241071RD 13               0290000VARILHES DEV NORD   02602000044630044630900004023000       0187      000000                                                                                                                                 12000000        8   00000    110  8   00000    100  8   00000     95  8   00000     81  8 000      000      000000   000000   000000   000000   000000   000000   000000   000000   000000   000000                                      
090000601210013 00200 481 251RD 12               0241071RD 13               0290000VARILHES DEV NORD   02602000044630044630900004023000       0187      000000                                                                                                                                 12000000        8   00000    110  8   00000    100  8   00000     92  8   00000     83  8 000      000      000000   000000   000000   000000   000000   000000   000000   000000   000000   000000                                      
090000601310013 00200 481 251RD 12               0241071RD 13               0290000VARILHES DEV NORD   02602000044630044630900004023000       0187      000000                                                                                                                                 12000000        8   00000    110  8   00000    100  8   00000     97  8   00000     84  8 000      000      000000   000000   000000   000000   000000   000000   000000   000000   000000   000000                                      
090000604110013 00200 481 251RD 13               0290000FOIX NORD           0350000GARRIGOU            02908000057790057790900004023000       0190      000000                                                                                                                                 12000000        8   00000    110  8   00000    100  8   00000     97  8   00000     84  8 000      000      000000   000000   000000   000000   000000   000000   000000   000000   000000   000000                                      
090000604210013 00200 481 251RD 13               0290000FOIX NORD           0350000GARRIGOU            02908000057790057790900004023000       0190      000000                                                                                                                                 12000000        8   00000    110  8   00000    100  8   00000     95  8   00000     80  8 000      000      000000   000000   000000   000000   000000   000000   000000   000000   000000   000000                                      
090000604310013 00200 481 251RD 13               0290000FOIX NORD           0350000GARRIGOU            02908000057790057790900004023000       0190      000000                                                                                                                                 12000000        8   00000    110  8   00000    100  8   00000     92  8   00000     84  8 000      000      000000   000000   000000   000000   000000   000000   000000   000000   000000   000000                                      
090000801110013 00200 4113251FOIX NORD           0350000FOIX SUD            0400000FOIX                03903400047820047820900010013000       0102      007639  487    006459   007042   008168   007117   007250   007659   008712   009259   007648   007925   006435   007881               12007775        1   000007   119  1   000007   102  1   000007    99  1   000007    84  1 000      000      006671   007006   007768   007231   007511   007974   008930   009159   008031   007885                                      
090000801210013 00200 4113251FOIX NORD           0350000FOIX SUD            0400000FOIX                03903400047820047820900010013000       0102      007576  547    006759   006669   008076   007129   007219   007666   008350   009408   007771   007835   006488   007410               12007712        1   000007   116  1   000007   102  1   000007    94  1   000007    88  1 000      000      006961   006735   007764   007131   007516   007823   008639   009271   008153   007827                                      
090000801310013 00200 4113251FOIX NORD           0350000FOIX SUD            0400000FOIX                03903400047820047820900010013000       0102      015215  527    013218   013711   016244   014246   014469   015325   017062   018667   015419   015760   012923   015291               12015487        1   000007   115  1   000007   104  1   000007    93  1   000007    82  1 000      000      013632   013741   015532   014362   015027   015797   017569   018430   016184   015712                                      
090000901110013 00200 411 251FOIX SUD            0400000RD 117              0430500MONTGAILLARD        04106240035000035000900010013000       0102      009417  608    007725   008376   009720   008907   009118   009650   010971   011602   009719   009787   007904   009381               12009610        1   000008   119  1   000008   102  1   000008    90  1   00000     86  1 000      000      008117   008567   009404   009082   009309   009924   011198   011905   010029   009596                                      
090000901210013 00200 411 251FOIX SUD            0400000RD 117              0430500MONTGAILLARD        04106240035000035000900010013000       0102      009457  518    008139   008103   009897   009036   009167   009630   010666   011893   009866   009739   008096   009086               12009627        1   000008   111  1   000008   103  1   000008    90  1   000007    89  1 000      000      008531   008840   009556   009144   009357   009725   010780   012058   010181   009467                                      
090000901310013 00200 411 251FOIX SUD            0400000RD 117              0430500MONTGAILLARD        04106240035000035000900010013000       0102      018874  558    015864   016479   019617   017943   018285   019280   021637   023495   019585   019526   016000   018467               12019237        1   000008   110  1   000008   105  1   000008    93  1   000007    85  1 000      000      016648   017407   018960   018226   018666   019649   021978   023963   020210   019063                                      
090001001110013 00200 411 251RD 117              0430500RD 8                0540498ARIGNAC             05107460110900110900900010013000       0187      007101  638    005708   006019   007100   006586   006711   007401   009063   009286   007553   007290   005602   006743               12007304        1   000008   113  1   000008   107  1   000008    93  1   000007    80  1 000      000      005878   006206   006872   006656   006860   007511   009061   009696   007755   007331                                      
090001001210013 00200 411 251RD 117              0430500RD 8                0540498ARIGNAC             05107460110900110900900010013000       0187      007064  568    005874   005884   007596   006628   006845   007100   008607   009224   007346   007144   005805   006561               12007280        1   000008   119  1   000008   104  1   000008    95  1   000007    80  1 000      000      006263   006713   007113   006713   006925   007263   008488   009706   007698   007078                                      
090001001310013 00200 411 251RD 117              0430500RD 8                0540498ARIGNAC             05107460110900110900900010013000       0187      014165  608    011582   011903   014696   013214   013556   014501   017670   018510   014899   014434   011407   013304               12014584        1   000008   112  1   000008   101  1   000008    98  1   000007    80  1 000      000      012141   012919   013985   013369   013785   014774   017549   019402   015453   014409                                      
090001100110013 00200 4113 51RD 8                0540498RD 102              0710104LES CABANNES        06204200169360169360900010013000       0187      004473  627    003497   003776   004310   004103   004174   004564   005602   006804   004651   004491   003202   004389               12004580        1   000007   115  1   000007   101  1   000007    97  1   000007    89  1 000      000      003491   004308   004350   004096   004343   004411   005713   006610   004857   004383                                      
090001100210013 00200 4113 51RD 8                0540498RD 102              0710104LES CABANNES        06204200169360169360900010013000       0187      004451  637    003706   003579   004309   004183   004235   004545   005390   006939   004724   004442   003229   004015               12004545        1   000007   113  1   000007   105  1   000007    96  1   000007    80  1 000      000      003685   004099   004446   004077   004353   004314   005452   006710   004962   004341                                      
090001100310013 00200 4113 51RD 8                0540498RD 102              0710104LES CABANNES        06204200169360169360900010013000       0187      008924  637    007203   007355   008619   008286   008409   009109   010992   013743   009375   008933   006431   008404               12009125        1   000007   118  1   000007   106  1   000007    93  1   000007    89  1 000      000      007176   008407   008796   008173   008696   008725   011165   013320   009819   008724                                      
090001200110013 00200 4113 51RD 102              0710104RD 613              0790614PERLES CASTELET     07309000086570086570900010013000       0187      004647  417    003448   004100   004997   004063   004284   004570   005775   006989   004807   004617   003348   004660               12004716        1   000007   118  1   000007   104  1   000007    93  1   000007    85  1 000      000      003692   004307   004520   004202   004430   004550   005889   006810   005000   004415                                      
090001200210013 00200 4113 51RD 102              0710104RD 613              0790614PERLES CASTELET     07309000086570086570900010013000       0187      004631  407    003674   003808   005167   004134   004298   004529   005570   007183   004864   004523   003371   004323               12004707        1   000007   116  1   000007   103  1   000007    98  1   000007    84  1 000      000      003919   004317   004627   004183   004421   004447   005653   007006   005067   004377                                      
090001200310013 00200 4113 51RD 102              0710104RD 613              0790614PERLES CASTELET     07309000086570086570900010013000       0187      009278  407    007122   007908   010164   008197   008582   009099   011345   014172   009671   009140   006719   008983               12009423        1   000007   114  1   000007   107  1   000007    91  1   000007    89  1 000      000      007611   008624   009147   008385   008851   008997   011542   013816   010067   008792                                      
090001300110013 00200 4813 51RD 613              0790614RD 322              0880240MERENS NORD         08609400085320085320900010013000       0187      000000                                                                                                                                 12000000        8   00000    110  8   00000    100  8   00000     94  8   00000     80  8 000      000      000000   000000   000000   000000   000000   000000   000000   000000   000000   000000                                      
090001300210013 00200 4813 51RD 613              0790614RD 322              0880240MERENS NORD         08609400085320085320900010013000       0187      000000                                                                                                                                 12000000        8   00000    110  8   00000    100  8   00000     90  8   00000     80  8 000      000      000000   000000   000000   000000   000000   000000   000000   000000   000000   000000                                      
090001300310013 00200 4813 51RD 613              0790614RD 322              0880240MERENS NORD         08609400085320085320900010013000       0187      000000                                                                                                                                 12000000        8   00000    110  8   00000    100  8   00000     94  8   00000     80  8 000      000      000000   000000   000000   000000   000000   000000   000000   000000   000000   000000                                      
090001400110013 00200 4113 51RD 322              0880240RN 22               0970737MERENS              08904330094920094920900014003000       0187      003275  538    001882   002164   003326   002924   003235   003435   004257   005598   003629   003335   002470   002922               12003540        1   000008   113  1   000008   109  1   000008    90  1   000007    87  1 000      000      002391   003066   003151   003191   003478   003426   004636   005717   003959   003353                                      
090001400210013 00200 4113 51RD 322              0880240RN 22               0970737MERENS              08904330094920094920900014003000       0187      003285  538    002080   002007   003398   002944   003296   003462   004140   005801   003715   003334   002404   002701               12003550        1   000008   111  1   000008   104  1   000008    94  1   000007    89  1 000      000      002523   002955   003264   003181   003526   003414   004483   005908   004034   003340                                      
090001400310013 00200 4113 51RD 322              0880240RN 22               0970737MERENS              08904330094920094920900014003000       0187      006560  538    003962   004171   006724   005868   006531   006897   008397   011399   007344   006669   004874   005623               12007090        1   000008   114  1   000008   103  1   000008    94  1   000007    86  1 000      000      004914   006021   006415   006372   007004   006840   009119   011625   007993   006693                                      
090001800310013 00200 4813 01RN 22               0970737RN 320              0980688LHOSPITALET EST     0980100000951000951120001300300000000000187      000000                                                                                                                                 12000000        1   00000    110  1   00000    100  1   00000     90  1   00000     80  1 000      000                                                                                                                                   
090001500310013 00220 4813 51RN 20               0000000RN 320              0040015N 22 VERS ANDORRE   00305000040150040150900014003000       0187      000000                                                                                                                                 12000000        8   00000    110  8   00000    100  8   00000     95  8   00000     84  8 000      000                                                                                                                                   
090001600310013 03200 4813 51RN 20               0000000DEPARTEMENT 66      0020135R.N 320 AUX P.O     0010800002135002135090001400366000100030187      000000                                                                                                                                 12000000        8   00000    110  8   00000    100  8   00000     93  8   00000     85  8 000      000                                                                                                                                   
120000600110013 00880 4113 51RN 9                0020800RD 28               0240290VARES               01201000221070221071200013003000       0187      000000                                                                                                                                 12003291        1   00000    117  1 85000007   107  1 91000007    90  1   00000     87  1 000170  7000      002421   002554   002798   003351   003499   003421   004272   004815   003508   003178                                      
120000600210013 00880 4113 51RN 9                0020800RD 28               0240290VARES               01201000221070221071200013003000       0187      000000                                                                                                                                 12003313        1   00000    116  1 78000007   100  1 86000007    90  1   00000     88  1 000164  7000      002454   002554   002777   003351   003527   003472   004273   004994   003521   003129                                      
120000600310013 00880 4113 51RN 9                0020800RD 28               0240290VARES               01201000221070221071200013003000       0187      000000                                                                                                                                 12006604        1   00000    113  1 80000007   107  1 88000007    90  1   00000     85  1 000166  7000      004875   005108   005575   006702   007026   006893   008545   009809   007029   006307                                      
120000700110013 00880 4113 51RD 28               0240290RD 224              0420390GAGES               03604000181510181511200013003000       0187      004988 1298    004101   004262   004621   005027   005186   005220   005956   006175   004724   005211   004648   004643               12000000        1   00000    119  1 32000007   109  1 29000008    94  1 26000007    85  1 000130  8000      004306   004297   004752   005070   005183   000000   000000   000000   005458   005171                                      
120000700210013 00880 4113 51RD 28               0240290RD 224              0420390GAGES               03604000181510181511200013003000       0187      005029 1258    004059   004226   004538   004952   005149   005186   006410   006232   005210   005123   004600   004580               12005171        1   00000    111  1 30000007   105  1 23000008    90  1 25000007    88  1 000125  8000      004213   004511   004633   004996   005171   005572   006401   006254   005380   005175                                      
120000700310013 00880 4113 51RD 28               0240290RD 224              0420390GAGES               03604000181510181511200013003000       0187      010017 1278    008160   008488   009159   009979   010335   010406   012366   012407   009934   010334   009248   009223               12000000        1   00000    110  1 31000007   104  1 25000008    94  1 25000007    83  1 000127  8000      008519   008808   009385   010066   010354   000000   000000   000000   010838   010346                                      
120000801110013 00880 4113 51RD 224              0420390RD 988              0470000LA ROQUETTE OUEST   04305000047800047801200013003000       0187      006567         005908   006149   006639   006496   006516   007553   007400   004818   006778   007514   006531   006498               12000000        1   00000    116  1   00000    100  1 1700000     95  1   00000     84  1 000      000      006279   006212   006779   006826   000000   000000   000000   000000   000000   006560                                      
120000801210013 00880 4113 51RD 224              0420390RD 988              0470000LA ROQUETTE OUEST   04305000047800047801200013003000       0187      007251 1157    005942   006251   006752   007258   007412   007684   008463   008678   007602   007611   006696   006576               12000000        1   00000    118  1 16000007   109  1 17000007    97  1   00000     89  1 000      000      006333   006224   006959   007216   000000   000000   000000   000000   000000   007520                                      
120000801310013 00880 4113 51RD 224              0420390RD 988              0470000LA ROQUETTE OUEST   04305000047800047801200013003000       0187      013818         011850   012400   013391   013754   013928   015237   015863   013496   014380   015125   013227   013074               12000000        1   00000    114  1   00000    109  1   00000     92  1   00000     83  1 000      000      012612   012436   013738   014042   000000   000000   000000   000000   000000   014080                                      
120001001310013 00880 4113 51RD 988              0470000RD 901              0480095LES MOUTIERS        04800950011750011751200013003000       0187      026065                           000000   000000   000000   000000   000000   000000   000000   000000            000000               12000000        1   00000    110  1   00000    100  1   00000     90  1   00000     82  1 000      000      027431   027973   030086   029530   000000   000000   000000   000000   000000   031157                                      
120001002310013 00880 4113 51RD 901              0480095RN 140              0480660LES MOUTIERS ouest  04802000005650005651200013003000       0187      034769         000000   000000   000000   000000   000000   000000   000000   000000   000000   000000   000000   000000               12015313        1   00000    117  1   00000    107  1   00000     96  1   00000     83  1 000      000      013892   014328   015358   015084   015347   016237   016245   015744   015799   015978                                      
120001003110013 00880 4113 51RN 140              0480660RD 84 RD 67         0500000SAINT-CLOUD         05000000015620015621200013003000       0187      010586  737    009599   010037   010681   011059   010835   011178   011504   010812   011102   010240   009720   010231               12000000        1   00000    110  1   00000    100  1   00000     93  1   000007    80  1 000      000      000000   000000   000000   000000   000000   000000   000000   000000   000000   000000                                      
120001003210013 00880 4113 51RN 140              0480660RD 84 RD 67         0500000SAINT-CLOUD         05000000015620015621200013003000       0187      011542  877    010360   010899   011504   011791   011623   011974   012284   011639   012076   011827   011290   011207               12000000        1   00000    110  1   00000    100  1   00000     90  1   000007    80  1 000      000      000000   000000   000000   000000   000000   000000   000000   000000   000000   000000                                      
120001003310013 00880 4113 51RN 140              0480660RD 84 RD 67         0500000SAINT-CLOUD         05000000015620015621200013003000       0187      022128  807    019959   020936   022185   022850   022458   023152   023788   022451   023178   022067   021010   021438               12000000        1   00000    110  1   00000    100  1   00000     93  1   000007    80  1 000      000      000000   000000   000000   000000   000000   000000   000000   000000   000000   000000                                      
120001004110013 00880 4113 51RD 84 RD 67         0500000PONT V.C. OLEMPS    0520200SAINT-CLOUD         05000000023230023231200013003000       0187      012026  657    011234   011834   012569   012885   012656   013138   013453   012595   013068   009068   009845   011972               12000000        1   00000    110  1   00000    100  1   00000     92  1   000007    80  1 000      000      000000   000000   000000   000000   000000   000000   000000   000000   000000   000000                                      
120001004210013 00880 4113 51RD 84 RD 67         0500000PONT V.C. OLEMPS    0520200SAINT-CLOUD         05000000023230023231200013003000       0187      012005  837    011138   011709   012449   012800   012534   013016   013502   012725   013035   009382   009873   011895               12000000        1   00000    110  1   00000    100  1   00000     90  1   00000     80  1 000      000      000000   000000   000000   000000   000000   000000   000000   000000   000000   000000                                      
120001004310013 00880 4113 51RD 84 RD 67         0500000PONT V.C. OLEMPS    0520200SAINT-CLOUD         05000000023230023231200013003000       0187      024031  747    022372   023543   025018   025685   025190   026154   026955   025320   026103   018450   019718   023867               12000000        1   00000    110  1   00000    100  1   00000     92  1   00000     80  1 000      000      000000   000000   000000   000000   000000   000000   000000   000000   000000   000000                                      
120001005310013 00880 4813 51PONT V.C.OLEMPS     0520200RD 66 RD 212        0530386LE LACHETversST-CLOU05303000012630012631200013003000       0187      000000                                                                                                                                 12000000        1   00000    110  1   00000    100  1   00000     90  1   00000     80  1 000      000      000000   000000   000000   000000   000000   000000   000000   000000   000000   000000                                      
120001006110013 00880 4113 51RD66 RD212          0530386RD 911              0560800LA PRIMAUBE         05407100034140034141200013003000       0187      000000                                                                                                                                 12000000        1   00000    110  1   00000    100  1   00000     97  1   000007    81  1 000     7000      000000   000000   000000   000000   000000   000000   000000   000000   000000   000000                                      
120001006210013 00880 4113 51RD66 RD212          0530386RD 911              0560800LA PRIMAUBE         05407100034140034141200013003000       0187      000000                                                                                                                                 12000000        1   00000    110  1   00000    100  1   00000     99  1   000007    89  1 000     7000      000000   000000   000000   000000   000000   000000   000000   000000   000000   000000                                      
120001006310013 00880 4113 51RD66 RD212          0530386RD 911              0560800LA PRIMAUBE         05407100034140034141200013003000       0187      000000                                                                                                                                 12000000        1   00000    110  1   00000    100  1   00000     96  1   000007    80  1 000     7000      000000   000000   000000   000000   000000   000000   000000   000000   000000   000000                                      
120001100110013 00880 4113 51LA PRIMAUBE RD 911  0560800BARAQUEVILLE RD 911 0680015LE LAC              06207300090910090911200013003000       0187      007754  998    006474   006908   007559   007847   007926   008093   008563   008308   008315   008203   007393   007398               12007755        1   00000    115  1 00000007   100  1   000008    93  1   000008    81  1 000     8000      006852   006815   007670   007689   007947   008280   008550   008279   008137   008076                                      
120001100210013 00880 4113 51LA PRIMAUBE RD 911  0560800BARAQUEVILLE RD 911 0680015LE LAC              06207300090910090911200013003000       0187      007720  958    006447   006870   007525   007767   007914   008078   008465   008363   008290   008196   007331   007334               12007727        1   00000    115  1   000007   103  1   000008    98  1   000008    89  1 000     8000      006813   006777   007604   007665   007917   008297   008480   008328   008098   008076                                      
120001100310013 00880 4113 51LA PRIMAUBE RD 911  0560800BARAQUEVILLE RD 911 0680015LE LAC              06207300090910090911200013003000       0187      015474  978    012921   013778   015084   015614   015840   016171   017028   016671   016605   016399   014724   014732               12015482        1   00000    110  1   000007   103  1   000008    91  1   000008    80  1 000     8000      013665   013592   015274   015354   015864   016577   017030   016607   016235   016152                                      
120001200310013 00880 4813 51RD 911              0680015RD 997              0810695BARAQUEVILLE        06902340136870136871200013003000       0187      000000                                                                                                                                 12000000        8   00000    110  8   00000    100  8   00000     90  8   00000     80  8 000      000      000000   000000   000000   000000   000000   000000   000000   000000   000000   000000                                      
120001300110013 00880 4113 51RD 997              0810695DEPARTEMENT 81      0910192NAUCELLE            0840550009447009447310003300381000010030187      004033 1437    003205   003493   003913   004118   004152   004183   004513   004547   004375   004285   003818   003762               12004072        1   00000    117  1   00000    103  1   00000     90  1   00000     80  1 000      000      003456   003415   003892   004067   004245   004281   004720   004568   004322   004197                                      
120001300210013 00880 4113 51RD 997              0810695DEPARTEMENT 81      0910192NAUCELLE            0840550009447009447310003300381000010030187      004036 1417    003169   003477   003939   004058   004161   004213   004501   004627   004367   004351   003773   003753               12004070        1   00000    116  1   00000    104  1   00000     90  1   00000     80  1 000      000      003399   003395   003894   004085   004206   004323   004647   004642   004325   004268                                      
120001300310013 00880 4113 51RD 997              0810695DEPARTEMENT 81      0910192NAUCELLE            0840550009447009447310003300381000010030187      008069 1427    006374   006970   007852   008176   008313   008396   009014   009174   008742   008636   007591   007515               12008142        1   00000    113  1   00000    107  1   00000     90  1   00000     80  1 000      000      006855   006810   007786   008152   008451   008604   009367   009210   008647   008465                                      
310506100310013 00640 111 241ECH 22 ASF          2340270ECH 23              2390200                    2340000004930004930320000500300000000000199      000000                                                                                                                                 12000000        1   00000    110  1   00000    100  1   00000     90  1   00000     80  1 000      000      000000   000000   000000   000000   000000   000000   000000   000000   000000   000000                                      
310506200310013 00640 111 241ECH 23              2390200ECH 24              2430000LAVELANET de COMMIN.2420000003800003800320000500300000000000199      000000                                                                                                                                 12000000        1   00000    115  1 0500000    105  1   00000     96  1   00000     80  1 000      000      030388   030138   031956   033075   032627   034866   000000   000000   000000   000000                                      
310506300310013 00640 111 241ECH 24              2430000ECH 25              2460000                    2440000003000003000320000500300000000000199      000000                                                                                                                                 12000000        1   00000    110  1   00000    105  1   00000     90  1   00000     80  1 000      000      000000   000000   000000   000000   000000   000000   000000   000000   000000   000000                                      
310506500310013 00640 111 241ECH 26              2460000ECH 27              2540000LACRA               2530800008000008000320000500300000000000199      036660                                                                                                                                 12000000        1   00000    113  1 0100000    105  1   00000     90  1   00000     80  1 000      000      035853   035397   038404   039230   039791   044709   049163   000000   038637   000000                                      
310506600310013 00640 111 241ECH 27              2540000ECH 28              2580000LACRA               2550000004000004000320000500300000000000199      041480                                                                                                                                 12000000        1   00000    110  1   00000    105  1   00000     90  1   00000     80  1 000      000      000000   000000   000000   000000   000000   000000   000000   000000   000000   000000                                      
310506700310013 00640 111 241ECH 28              2580000ECH 29              2590500                    2590000001500001500320000500300000000000199      000000                                                                                                                                 12000000        1   00000    110  1   00000    105  1   00000     90  1   00000     80  1 000      000      000000   000000   000000   000000   000000   000000   000000   000000   000000   000000                                      
310506800310013 00640 111 241ECH 29              2590500ECH 30              2610200                    2600000001700001700320000500300000000000199      000000                                                                                                                                 12000000        1   00000    110  1   00000    100  1   00000     90  1   00000     80  1 000      000      000000   000000   000000   000000   000000   000000   000000   000000   000000   000000                                      
310506900310013 00640 111 241ECH 30              2610200ECH 31              2630000                    2620000001800001800320000500300000000000199      000000                                                                                                                                 12000000        1   00000    110  1   00000    100  1   00000     90  1   00000     80  1 000      000      000000   000000   000000   000000   000000   000000   000000   000000   000000   000000                                      
310507000310013 00640 111 241ECH 31              2630000ECH 32              2640800                    2640000001800001800320000500300000000000199      000000                                                                                                                                 12000000        1   00000    110  1   00000    100  1   00000     90  1   00000     80  1 000      000      000000   000000   000000   000000   000000   000000   000000   000000   000000   000000                                      
310507100310013 00640 111 241ECH 32              2640800ECH 33              2690000MURET SUD           2670800004200004200320000500300000000000199      000000         000000   000000   000000   000000   000000   000000   000000   000000   000000   000000   000000   000000               12000000        1   00000    116  1   00000    100  1   00000     95  1   00000     80  1 000      000      042347   046663   051352   051240   050759   054668   057086   000000   053508   000000                                      
310507200310013 00640 111 241ECH 33              2690000ECH 34              2720000PODIO               2690673003000003000320000500300000000000199      000000    7    000000   000000   000000   000000   000000   000000   000000   000000   000000   000000   000000   000000               12049879        1   000007   116  1 06000007   106  1   000007    90  1   00000     80  1 000      000      000000   043397   046015   046433   045118   048239   038452   051005   047851   000000                                      
310507201310013 00640 111 241ECH 34              2720000ECH 35 ASF          2740089MURET               2720800002032002032320000500300000000000199      058597 1067    000000   000000   000000   000000   000000   000000   000000   000000   000000   000000   000000   000000               12000000        1   00000    110  1   00000    100  1   00000     90  1   00000     80  1 000      000      043397   046015   046433   045118   048239   038452   051005   047851   000000   000000                                      
310505200310013 00680 181 241GEMIL FIN CONCEDEE  0170105DPT81               0220110A68 ETAT GESTION 81 0180000005005005005320000500381050010030187      000000                                                                                                                                 12000000        1   00000    110  1   00000    100  1   00000     90  1   00000     80  1 000      000      000000   000000   000000   000000   000000   000000   000000   000000   000000   000000                                      
310508003210013 06200 1110231SESQUIERES          0000724LES MINIMES 31      0030626GINESTOUS           0020130002857002857320000500300000000000187      062941  56                                                                                                                             12062880        1   00000    117  1   00000    103  1   00000     98  1   00000     81  1 000      000      061562   060213   065124   062793   061645   067824   064118   057138   064542   066197                                      
310508003110013 06200 1110231SESQUIERES          0000724LES MINIMES 31      0030626GINESTOUS           0020130002857002857320000500300000000000187      062826  56                                                                                                                             12062906        1   00000    116  1   00000    105  1   00000     99  1   00000     89  1 000      000      061358   060138   064611   063321   061671   067626   064904   056896   064274   065971                                      
310508003310013 06200 1110231SESQUIERES          0000724LES MINIMES 31      0030626GINESTOUS           0020130002857002857320000500300000000000187      125767  56                                                                                                                             12125786        1   00000    113  1   00000    108  1   00000     97  1   00000     80  1 000      000      122920   120351   129735   126114   123316   135450   129022   114034   128816   132168                                      
310508106110013 06200 1110231ES MINIMES 31       0030626PONT JUMEAUX 30     0050106PONT JUMEAUX        0040432001464001464320000500300000000000187      048908  557    045853   047867   047962   049229   047384   049982   051909   044549   052260   054427   048238   047271               12049784        1   00000    119  1   00000    108  1   00000     97  1   00000     82  1 000      000      051169   046620   050008   049253   048148   052442   051848   045590   051871   052918                                      
310508106210013 06200 1110231ES MINIMES 31       0030626PONT JUMEAUX 30     0050106PONT JUMEAUX        0040432001464001464320000500300000000000187      050751  60                                                                                                                             12050532        1   00000    111  1   00000    104  1   00000     99  1   00000     87  1 000      000      049457   048491   052222   050663   049700   053930   051601   047406   051633   052551                                      
310508106310013 06200 1110231ES MINIMES 31       0030626PONT JUMEAUX 30     0050106PONT JUMEAUX        0040432001464001464320000500300000000000187      099659  57                                                                                                                             12100316        1   00000    110  1   00000    102  1   00000     96  1   00000     89  1 000      000      100626   095111   102230   099916   097848   106372   103449   092996   103504   105469                                      
310508204110013 06200 1110231PONT JUMEAUX 30     0050106PURPAN 29           0060074PONT GARONNE        0050354000966000966320000500300000000000187      056977  36                                                                                                                             120601662       1   00000    112  1   00000    104  1   00000     95  1   00000     89  1 000      000      059540   057554   062351   060126   058634   063726   061261   055341   061487   063154                                      
310508200210013 06200 1110231PONT JUMEAUX 30     0050106PURPAN 29           0060074PONT GARONNE        0050354000966000966320000500300000000000187      062532  557    059618   062440   063149   063983   060011   064904   065695   057840   065206   065211   061422   061071               12062625        1   000007   118  1   000007   101  1   00000     96  1   00000     87  1 000      000      061433   060001   065066   062422   061655   066484   063617   058568   064415   065173                                      
310508200310013 06200 1110231PONT JUMEAUX 30     0050106PURPAN 29           0060074PONT GARONNE        0050354000966000966320000500300000000000187      119509  46                                                                                                                             12122791        1   00000    110  1   00000    105  1   00000     91  1   00000     86  1 000      000      120973   117555   127417   122548   120289   130210   124878   113909   125902   128327                                      
310508304110013 06200 1110231PURPAN 29           0060074CEPIERE 27          0080497STATION A620        0070789002433002433320000500300000000000187      065703  61                                                                                                                             12065380        1   00000    110  1   00000    104  1   00000     97  1   00000     87  1 000      000      064418   062360   066497   065189   063329   068941   067284   062253   066786   068036                                      
310508303210013 06200 1110231PURPAN 29           0060074CEPIERE 27          0080497STATION A620        0070789002433002433320000500300000000000187      070003  51                                                                                                                             12069971        1   00000    111  1   00000    106  1   00000     93  1   00000     89  1 000      000      068776   067656   071950   070172   068828   074107   071364   065035   071986   072752                                      
310508300310013 06200 1110231PURPAN 29           0060074CEPIERE 27          0080497STATION A620        0070789002433002433320000500300000000000187      135706  56                                                                                                                             12135351        1   00000    111  1   00000    100  1   00000     90  1   00000     86  1 000      000      133194   130016   138447   135361   132157   143048   138648   127288   138772   140788                                      
310508402110013 06200 1110231CEPIERE 27          0080497LA FAOURETTE        0090542FAOURETTE           0090100001056001056320000500300000000000187      064093  57                                                                                                                             12064157        1   00000    115  1   00000    102  1   00000     92  1   00000     81  1 000      000      062869   061350   065438   064422   062187   067450   066081   060993   065305   066528                                      
310508402210013 06200 1110231CEPIERE 27          0080497LA FAOURETTE        0090542FAOURETTE           0090100001056001056320000500300000000000187      070753  53                                                                                                                             12070575        1   00000    111  1   00000    109  1   00000     98  1   00000     84  1 000      000      068913   068011   073280   070641   069341   075045   071851   064754   072600   073654                                      
310508400310013 06200 1110231CEPIERE 27          0080497LA FAOURETTE        0090542FAOURETTE           0090100001056001056320000500300000000000187      134846  55                                                                                                                             12134732        1   00000    116  1   00000    101  1   00000     90  1   00000     85  1 000      000      131782   129361   138718   135063   131528   142495   137932   125747   137905   140182                                      
310508502110013 06200 1110231LA FAOURETTE        0090542BORDELONGUE         0110801PT DE SEYSSES       0100604002247002247320000500300000000000187      063104  60                                                                                                                             12063112        1   00000    112  1   00000    104  1   00000     90  1   00000     86  1 000      000      061799   060136   064624   062876   061074   066438   065302   060470   064353   065815                                      
310508500210013 06200 1110231LA FAOURETTE        0090542BORDELONGUE         0110801PT DE SEYSSES       0100604002247002247320000500300000000000187      067806  537    065021   067739   068076   069076   066397   070407   071890   062706   069845   071221   065883   065538               12067605        1   000007   114  1   000007   109  1   00000     94  1   00000     86  1 000      000      066033   065183   070164   067508   066266   071770   069224   062657   069698   070366                                      
310508500310013 06200 1110231LA FAOURETTE        0090542BORDELONGUE         0110801PT DE SEYSSES       0100604002247002247320000500300000000000187      130910  56                                                                                                                             12130717        1   00000    116  1   00000    103  1   00000     94  1   00000     84  1 000      000      127832   125319   134788   130384   127340   138208   134526   123127   134051   136181                                      
310508700110013 06200 1110231LANGLADE 25         0110801EMPALOT 24          0130601EMPALOT             0120660001836001836320000500300000000000187      067140                                                                                                                                 12065443        1   000007   118  1   000007   107  1   000007    99  1   00000     85  1 000      000      064376   062458   067378   065319   063269   068527   063939   000000   066947   069311                                      
310508700210013 06200 1110231LANGLADE 25         0110801EMPALOT 24          0130601EMPALOT             0120660001836001836320000500300000000000187      067393                                                                                                                                 12056636        1   000007   116  1   000007   100  1   000007    98  1   00000     87  1 000      000      050275   050673   053204   052023   050186   054737   049317   050910   063702   073741                                      
310508700310013 06200 1110231LANGLADE 25         0110801EMPALOT 24          0130601EMPALOT             0120660001836001836320000500300000000000187      134533                                                                                                                                 12122079        1   000007   114  1   000007   107  1   000007    97  1   00000     82  1 000      000      114651   113131   120582   117342   113455   123264   113256   000000   130649   143052                                      
310508800110013 06200 1110231EMPALOT 24          0130601RANGUEIL 23         0140000RANGUEIL            0130888000363000363320000500300000000000187      045608  487    043709   045039   045675   047035   044529   047519   048133   043406   046299   047971   044909   043128               12044822        1   000007   118  1   000007   106  1   000007    99  1   00000     82  1 000      000      043162   042379   045525   044729   043161   047254   046655   043094   045883   047357                                      
310508800210013 06200 1110231EMPALOT 24          0130601RANGUEIL 23         0140000RANGUEIL            0130888000363000363320000500300000000000187      043842  457    041773   043488   043915   045157   042863   045295   047565   041612   044578   045660   042526   041713               12043294        1   000007   110  1   000007   100  1   000007    92  1   00000     85  1 000      000      042058   041601   044301   043615   041460   044937   045671   041234   044214   045283                                      
310508800310013 06200 1110231EMPALOT 24          0130601RANGUEIL 23         0140000RANGUEIL            0130888000363000363320000500300000000000187      089450  467    085482   088527   089590   092192   087392   092814   095698   085018   090877   093631   087435   084841               12088116        1   000007   118  1   000007   106  1   000007    91  1   00000     87  1 000      000      085220   083980   089826   088344   084621   092191   092326   084328   090097   092640                                      
310508900110013 06200 1110231RANGUEIL 23         0140000DEMOISELLES 21      0150880RANGUEIL-DEMOIS     0140536001873001873320000500300000000000187      052089  50                                                                                                                             12051060        1   00000    111  1   00000    109  1   00000     92  1   00000     83  1 000      000      049348   048181   052261   050793   049459   054044   052737   048266   052396   054152                                      
310508900210013 06200 1110231RANGUEIL 23         0140000DEMOISELLES 21      0150880RANGUEIL-DEMOIS     0140536001873001873320000500300000000000187      048740  49                                                                                                                             12048187        1   00000    119  1   00000    101  1   00000     95  1   00000     82  1 000      000      046839   046238   049432   048424   046608   050313   050496   045665   049396   050251                                      
310508900310013 06200 1110231RANGUEIL 23         0140000DEMOISELLES 21      0150880RANGUEIL-DEMOIS     0140536001873001873320000500300000000000187      100829  49                                                                                                                             12099247        1   00000    110  1   00000    100  1   00000     97  1   00000     85  1 000      000      096187   094419   101693   099217   096067   104357   103233   093931   101792   104403                                      
310509000110013 06200 1110231DEMOISELLES 21      0150880LESPINET 20         0160048DEMOISELLES         0160000000172000172320000500300000000000187      051909  567    049947   051477   052056   052685   050951   054103   054517   048598   053099   054771   051459   049319               12050918        1   000007   114  1   000007   102  1   000007    90  1   00000     80  1 000      000      049266   048244   052135   050834   049270   053919   052017   048081   052203   053915                                      
310509000210013 06200 1110231DEMOISELLES 21      0150880LESPINET 20         0160048DEMOISELLES         0160000000172000172320000500300000000000187      053544  487    051183   053304   054004   054868   052615   055393   057459   049906   054778   055729   052189   051172               12053114        1   000007   115  1   000007   104  1   000007    90  1   00000     80  1 000      000      052000   051208   054610   053364   051443   055446   055540   049758   054358   055131                                      
310509000310013 06200 1110231DEMOISELLES 21      0150880LESPINET 20         0160048DEMOISELLES         0160000000172000172320000500300000000000187      105453  527    101130   104781   106060   107553   103566   109496   111976   098504   107877   110500   103648   100491               12104032        1   000007   119  1   000007   106  1   000007    90  1   00000     80  1 000      000      101266   099452   106745   104198   100713   109365   107557   097839   106561   109046                                      
310509100110013 06200 1110231LESPINET 20         0160048PALAYS A61          0170777LESPINET            0160285001730001730320000500300000000000187      048877  537    047905   049482   050191   051622   049433   052378   049900   040527   045613   051998   049824   047831               12049218        1   000007   114  1   000007   100  1   000007    97  1   00000     80  1 000      000      048494   046893   050303   049273   047921   052497   050996   045358   048696   052123                                      
310509100210013 06200 1110231LESPINET 20         0160048PALAYS A61          0170777LESPINET            0160285001730001730320000500300000000000187      044352  567    044636   046409   047016   048442   045933   046590   044260   032761   038182   047853   045521   044868               12045832        1   000007   116  1   000007   102  1   000007    90  1   00000     80  1 000      000      046395   045272   047856   047307   045541   047684   047422   038198   044805   047964                                      
310509100310013 06200 1110231LESPINET 20         0160048PALAYS A61          0170777LESPINET            0160285001730001730320000500300000000000187      093229  547    092541   095891   097207   100064   095366   098968   094160   073288   083795   099851   095345   092699               12095050        1   000007   110  1   000007   102  1   000007    97  1   00000     80  1 000      000      094889   092165   098159   096580   093462   100181   098418   083556   093501   100087                                      
310509600210013 06210 1110231ST MICHEL DU TOUCH  0000000LE RITOURET         0030992RITOURET            0030211003990003990320000500300000000000998      047000    7    000000   000000   000000   000000   000000   000000   000000   000000   000000   000000   000000   000000               12045000        1   000007   111  1   00000    101  1   000007    99  1   00000     85  1 000      000      048462   047113   047984   048569   046166   051381   041661   036138   040544   041925                                      
310509600110013 06210 1110231ST MICHEL DU TOUCH  0000000LE RITOURET         0030992RITOURET            0030211003990003990320000500300000000000998      050366  377    000000   000000   000000   000000   000000   000000   000000   000000   000000   000000   000000   000000               12050262        1   000007   111  1   000007   107  1   000007    99  1   00000     84  1 000      000      049975   049080   052021   050933   048578   054054   050343   043370   050887   053302                                      
310509600310013 06210 1110231ST MICHEL DU TOUCH  0000000LE RITOURET         0030992RITOURET            0030211003990003990320000500300000000000998      097366    7    000000   000000   000000   000000   000000   000000   000000   000000   000000   000000   000000   000000               12091227        1   000007   112  1   00000    108  1   000007    98  1   00000     89  1 000      000      098437   096193   100005   099502   094744   105435   092004   079508   091431   095227                                      
310509200310013 06230 1114031PALAYS              0000000CNES                0000415GIRATOIRE PALAYS    0000250000415000415320000500300000000000187      027603                                                                                                                                 12000000        1   00000    116  1   00000    100  1   00000     99  1   00000     80  1 000      000      000000   000000   000000   000000   000000   000000   000000   000000   000000   000000                                      
310502002110013 06240 111 231PURPAN              0000000BAYLAC 1            0000520PURPAN A624         0000351000520000520320000500300000000000194      048822  46                                                                                                                             12048504        1   00000    116  1   00000    108  1   00000     92  1   00000     81  1 000      000      047538   047251   050267   049038   047661   051716   049626   044287   049353   050300                                      
310502002210013 06240 111 231PURPAN              0000000BAYLAC 1            0000520PURPAN A624         0000351000520000520320000500300000000000194      057434  42                                                                                                                             12056887        1   000007   117  1   000007   100  1   00000     99  1   00000     89  1 000      000      056246   054829   058596   056639   055277   060071   057641   053519   058373   059150                                      
310502000310013 06240 111 231PURPAN              0000000BAYLAC 1            0000520PURPAN A624         0000351000520000520320000500300000000000194      106256  44                                                                                                                             12105391        1   00000    113  1   00000    108  1   00000     91  1   00000     80  1 000      000      103784   102080   108863   105677   102938   111787   107267   097806   107726   109450                                      
310502103110013 06240 111 231BAYLAC 1            0000520ST MARTIN DU TOUCH  0010500BAYLAC              0001184001163001163320000500300000000000194      046081  59                                                                                                                             12045032        1   00000    111  1   00000    109  1   00000     96  1   00000     83  1 000      000      000000   048847   046992   043625   043249   046122   043895   039864   047244   046764                                      
310502103210013 06240 111 231BAYLAC 1            0000520ST MARTIN DU TOUCH  0010500BAYLAC              0001184001163001163320000500300000000000194      055156  54                                                                                                                             12054581        1   00000    115  1   00000    106  1   00000     90  1   00000     81  1 000      000      000000   052607   056448   054442   052941   057817   055621   050873   055849   056606                                      
310502100310013 06240 111 231BAYLAC 1            0000520ST MARTIN DU TOUCH  0010500BAYLAC              0001184001163001163320000500300000000000194      101237  56                                                                                                                             12099613        1   00000    116  1   00000    105  1   00000     96  1   00000     84  1 000      000      000000   101454   103440   098067   096190   103939   099516   090737   103093   103370                                      
310502203110013 06240 111 231ST MARTIN DU TOUCH  0010500LA CRABE            0030900CRABE EST           0020252002400002400320000500300000000000194      064200  54                                                                                                                             12063473        1   00000    110  1   00000    104  1   00000     99  1   00000     82  1 000      000      062389   061887   066267   062990   061547   068372   064184   055808   064962   067507                                      
310502203210013 06240 111 231ST MARTIN DU TOUCH  0010500LA CRABE            0030900CRABE EST           0020252002400002400320000500300000000000194      062582  55                                                                                                                             12061564        1   00000    114  1   00000    103  1   00000     92  1   00000     83  1 000      000      061269   060186   064657   060941   058988   065738   062071   055080   062738   064959                                      
310502200310013 06240 111 231ST MARTIN DU TOUCH  0010500LA CRABE            0030900CRABE EST           0020252002400002400320000500300000000000194      126782  54                                                                                                                             12125037        1   00000    114  1   00000    107  1   00000     91  1   00000     85  1 000      000      123658   122073   130924   123931   120535   134110   126255   110888   127700   132466                                      
310003202310013 01240 481 251DEBUT 2X2 VOIES     0060000Fin 2x2 voies       0090317COLOMIERS           00900000029200029203100033003000       0187      000000                                                                                                                                 12000000        8   00000    110  8   00000    100  8   00000     90  8   00000     80  8 000      000      000000   000000   000000   000000   000000   000000   000000   000000   000000   000000                                      
310003300310013 01240 411 251FIN 2X2 VOIES       0090317RD 24               0130192COLOMIERS siredo    01107000039190039193100033003000       0187      000000                                                                                                                                 12000000        1   00000    110  1   00000    100  1   00000     90  1   00000     80  1 000      000      000000   000000   000000   000000   000000   000000   000000   000000   000000   000000                                      
310003400310013 01240 481 251RD 24               0130192DEPARTEMENT 32      0191064LEGUEVIN            0150800007216007216310003300332000090030187      000000                                                                                                                                 12000000        8   00000    110  8   00000    100  8   00000     90  8   00000     80  8 000      000      000000   000000   000000   000000   000000   000000   000000   000000   000000   000000                                      
310003600110013 01250 4113 51A 645               0030000RD 33 LABROQUERE    0050196LABROQUERE          00408000019010019013200005003000       0187      000000                                                                                                                                 12000000        1   00000    111  1   000007   101  1   000007    90  1   00000     85  1 000      000      000000   000000   000000   000000   000000   000000   000000   000000   000000   000000                                      
310003600210013 01250 4113 51A 645               0030000RD 33 LABROQUERE    0050196LABROQUERE          00408000019010019013200005003000       0187      000000                                                                                                                                 12000000        1   00000    118  1   000007   106  1   000007    92  1   00000     80  1 000      000      000000   000000   000000   000000   000000   000000   000000   000000   000000   000000                                      
310003600310013 01250 4113 51A 645               0030000RD 33 LABROQUERE    0050196LABROQUERE          00408000019010019013200005003000       0187      000000                                                                                                                                 12000000        1   00000    119  1   000007   107  1   000007    90  1   00000     80  1 000      000      000000   000000   000000   000000   000000   000000   000000   000000   000000   000000                                      
310338500110013 01250 4113 51LABROQUERE          0050196RD 33 CHAUM         0181637GALIE               01403000137270137273200005003000       0211      000000                                                                                                                                 12000000        1   00000    110  1   000007   100  1   00000     90  1   00000     80  1 000      000      003791   004221   004192   003848   000000   000000   000000   000000   000000   000000                                      
310338500210013 01250 4113 51LABROQUERE          0050196RD 33 CHAUM         0181637GALIE               01403000137270137273200005003000       0211      000000                                                                                                                                 12000000        1   00000    110  1   000007   100  1   00000     90  1   00000     80  1 000      000      004019   004110   004212   003820   000000   000000   000000   000000   000000   000000                                      
310338500310013 01250 4113 51LABROQUERE          0050196RD 33 CHAUM         0181637GALIE               01403000137270137273200005003000       0211      000000                                                                                                                                 12000000        1   00000    110  1   000007   100  1   00000     90  1   00000     80  1 000      000      007810   008331   008404   007668   000000   000000   000000   000000   000000   000000                                      
310003800310013 01250 4112 51RD 33 CHAUM         0181637RD 44               0230442CHAUM               01907000048780048783200005003000       0187      003606  627    003257   003767   004502   003685   002197   002861   003809   005170   003697   003477   003050   003785               12003944        1   000007   119  1   000007   106  1   000007    95  1   00000     80  1 000      000      003914   004031   004233   004158   003809   003751   004646   000000   004211   003535                                      
310003900310013 01250 4112001RD 44               0230442ESPAGNE             0340110FOS                 03108000107010107013200005003000       0187      000000                                                                                                                                 12000000        1   00000    110  1   00000    100  1   00000     92  1   000007    80  1 000      000      000000   000000   000000   000000   000000   000000   000000   000000   000000   000000                                      
310000200310013 02240 4113001RD 17 MONTAIGUT     0060654CORNEBARRIEU        0310876MONDONVILLE         0250850026112026112310003300300000000000187      010234  337    010110   010456   010609   010812   010156   010905   009856   008148   010589   010778                                 12010168        1   000007   115  1   00000    103  1   00000     90  1   00000     80  1 000      000      010089   009531   010273   000000   010013   010969   010120   008970   010407   010843                                      
320000200110013 00210 4113 51LECTOURE NORD       0100760FLEURANCE EB 10     0220960SAINT GENY          01708500114410114413200005003000       0187      003132 1018    002729   002855   003066   003139   003132   003230   003466   003454   003272   003300   002967   002954               12003670        1 11000008   114  1   000008   104  1   000008    90  1   000008    88  1 000      000      002913   002857   003146   000000   003162   003437   003630   006251   005610   003476                                      
320000200210013 00210 4113 51LECTOURE NORD       0100760FLEURANCE EB 10     0220960SAINT GENY          01708500114410114413200005003000       0187      003114 1368    002723   002799   003009   003096   003127   003237   003433   003503   003248   003317   002929   002916               12003154        1   000008   118  1   000008   106  1   000008    98  1   000008    85  1 000      000      002851   002710   003119   000000   003116   003321   003421   004001   003156   003222                                      
320000200310013 00210 4113 51LECTOURE NORD       0100760FLEURANCE EB 10     0220960SAINT GENY          01708500114410114413200005003000       0187      006246 1188    005452   005654   006075   006235   006259   006467   006899   006957   006520   006617   005896   005870               12006824        1   000008   112  1 24000008   100  1   000008    98  1   000008    83  1 000      000      005764   005567   006265   000000   006278   006758   007051   010252   008766   006698                                      
320000300310013 00210 4843 51FLEURANCE EB 10     0220960FLEURANCE EB 20     0260856FLEURANCE AGGLO     02500000043080043083200005003000       0187      000000                                                                                                                                 12007509        8   00000    110  8   00000    100  8   00000     93  8   00000     89  8 000      000      000000   000000   000000   000000   000000   000000   000000   000000   000000   000000                                      
320000400310013 00210 4813 51FLEURANCE EB 20     0260856RD 172              0360397FLEURANCE AN SUD    02608700096010096013200005003000       0187      000000                                                                                                                                 12000000        8   00000    110  8   00000    100  8   00000     92  8   00000     88  8 000      000      000000   000000   000000   000000   000000   000000   000000   000000   000000   000000                                      
320000500110013 00210 4113 51RD 172              0360397AUCH EB 10          0460900ROUTE D'AGEN        04504500105290105293200016013000       0187      004915         004705   004816   004992   004935   004396   004856   005072   004991   005164   005267   004911   004869               12004995        1   00000    119  1   00000    102  1   00000     99  1   00000     89  1 000      000      004883   004789   005309   000000   004935   005163   005021   004825   005070   005148                                      
320000500210013 00210 4113 51RD 172              0360397AUCH EB 10          0460900ROUTE D'AGEN        04504500105290105293200016013000       0187      004868         004705   004725   004897   004878   004382   004777   004977   004975   005134   005281   004892   004788               12004829        1   00000    113  1   00000    107  1   00000     90  1   00000     84  1 000      000      004897   004717   005318   000000   004660   004898   004717   004585   004832   004948                                      
320000500310013 00210 4113 51RD 172              0360397AUCH EB 10          0460900ROUTE D'AGEN        04504500105290105293200016013000       0187      009783         009410   009541   009889   009813   008778   009633   010049   009966   010298   010548   009803   009657               12009824        1   00000    112  1   00000    109  1   00000     99  1   00000     83  1 000      000      009780   009506   010627   000000   009595   010061   009738   009410   009902   010096                                      
320000599310013 00210 4853 51AUCH EB 10          0460900AUCH EB 20          0520026AUCH                05200000054200054203200016013000       0187      000000                                                                                                                                 12000000        8   00000    111  8   00000    100  8   00000     92  8   00000     88  8 000      000      000000   000000   000000   000000   000000   000000   000000   000000   000000   000000                                      
320000601110013 00210 4113 51AUCH EB 20          0520026DEBUT 3 VOIES       0630209DEPOT FERRE         05309000111850111853200006013000       0187      003952         003568   003737   003927   003919   003885   004130   004269   004077   004068   004163   003824   003841               12003935        1   00000    118  1   00000    105  1   00000     91  1   00000     80  1 000      000      003678   003505   003990   000000   003850   004128   004221   004093   004119   004099                                      
320000601210013 00210 4113 51AUCH EB 20          0520026DEBUT 3 VOIES       0630209DEPOT FERRE         05309000111850111853200006013000       0187      003895         003530   003670   003873   003876   003908   004129   004094   004021   004024   004081   003761   003761               12003837        1   00000    111  1   00000    106  1   00000     99  1   00000     85  1 000      000      003607   003400   003880   000000   003755   003998   004048   004017   004073   004011                                      
320000601310013 00210 4113 51AUCH EB 20          0520026DEBUT 3 VOIES       0630209DEPOT FERRE         05309000111850111853200006013000       0187      007847         007098   007407   007800   007795   007793   008259   008363   008098   008092   008244   007585   007602               12007772        1   00000    119  1   00000    101  1   00000     90  1   00000     85  1 000      000      007285   006905   007870   000000   007605   008126   008269   008110   008192   008110                                      
320000602310013 00210 4815 51DEBUT 3 VOIES       0630209FIN 3 VOIES         0650264COMPTAGE 0006 01    06500000019810019813200006013000       0187      000000                                                                                                                                 12000000        8   00000    110  8   00000    100  8   00000     92  8   00000     86  8 000      000      000000   000000   000000   000000   000000   000000   000000   000000   000000   000000                                      
320000603310013 00210 4813 51FIN 3 VOIES         0650264DEBUT 3 VOIES       0690175COMPTAGE 0006 02    06600000037400037403200006011000       0187      000000                                                                                                                                 12000000        8   00000    110  8   00000    100  8   00000     90  8   00000     88  8 000      000      000000   000000   000000   000000   000000   000000   000000   000000   000000   000000                                      
320000604310013 00210 4815 51DEBUT 3 VOIES       0690175FIN 3 VOIES         0700499COMPTAGE 0006 03    07000000013300013303200006012000       0187      000000                                                                                                                                 12000000        8   00000    110  8   00000    100  8   00000     90  8   00000     81  8 000      000      000000   000000   000000   000000   000000   000000   000000   000000   000000   000000                                      
320000605310013 00210 4813 51FIN 3 VOIES         0700499RD 104              0720812COMPTAGE 0006 04    07100000022820022823200006013000       0187      000000                                                                                                                                 12000000        8   00000    110  8   00000    100  8   00000     91  8   00000     88  8 000      000      000000   000000   000000   000000   000000   000000   000000   000000   000000   000000                                      
320000700310013 00210 4813 51RD 104              0720812RD 3                0890612MIRANDE             07505000167280167283200008003000       0187      000000                                                                                                                                 12000000        8   00000    110  8   00000    100  8   00000     91  8   00000     82  8 000      000      000000   000000   000000   000000   000000   000000   000000   000000   000000   000000                                      
320000800110013 00210 4113 51RD 3                0890612DEPARTEMENT 65      1000408LAGUIAN             08909000102290102293200010003000       0187      002347 1107    002045   002100   002283   002281   002268   002358   002757   002658   002505   002444   002210   002230               12002370        1 12000007   110  1 14000007   103  1 18000007    96  1 28000007    83  1 000      000      002094   001956   002281   000000   002374   002520   002683   002618   002595   002483                                      
320000800210013 00210 4113 51RD 3                0890612DEPARTEMENT 65      1000408LAGUIAN             08909000102290102293200010003000       0187      002296 1147    002028   002076   002256   002296   002267   002330   002532   002557   002453   002403   002178   002153               12002305        1 13000007   116  1 10000007   104  1 14000007    90  1 22000007    88  1 000      000      002095   001935   002267   000000   002288   002394   002551   002516   002480   002418                                      
320000800310013 00210 4113 51RD 3                0890612DEPARTEMENT 65      1000408LAGUIAN             08909000102290102293200010003000       0187      004643 1127    004073   004176   004539   004577   004535   004688   005289   005215   004958   004847   004388   004383               12004675        1 13000007   116  1 11000007   107  1 15000007    96  1 24000007    81  1 000      000      004189   003891   004548   000000   004662   004914   005234   005134   005075   004901                                      
320000901310013 01240 4813 51DEPARTEMENT 31      0000000DEBUT DEV PUJAUDRAN 0020700COMPTAGES 0009.03   0010000002690002690320001000331000340030191      000000                                                                                                                                 12000000        8   00000    110  8   00000    100  8   00000     93  8   00000     86  8 000      000      000000   000000   000000   000000   000000   000000   000000   000000   000000   000000                                      
320000902110013 01240 481 251DEBUT DEV.PUJAUDRAN 0020700FIN DEV.            0050800DEV.PUJAUDRAN       0040000002982002982320001000100000000000191      000000                                                                                                                                 12000000        8   00000    110  8   00000    100  8   00000     90  8   00000     85  8 000      000      000000   000000   000000   000000   000000   000000   000000   000000   000000   000000                                      
320000902210013 01240 481 251DEBUT DEV.PUJAUDRAN 0020700FIN DEV.            0050800DEV.PUJAUDRAN       0040000002982002982320001000200000000000191      000000                                                                                                                                 12000000        8   00000    110  8   00000    100  8   00000     99  8   00000     85  8 000      000      000000   000000   000000   000000   000000   000000   000000   000000   000000   000000                                      
320000902310013 01240 481 251DEBUT DEV.PUJAUDRAN 0020700FIN DEV.            0050800DEV.PUJAUDRAN       0040000002982002982320001000300000000000191      000000                                                                                                                                 12000000        8   00000    110  8   00000    100  8   00000     99  8   00000     80  8 000      000      000000   000000   000000   000000   000000   000000   000000   000000   000000   000000                                      
320000903110013 01240 411 251FIN DEV .PUJAUDRAN  0050800RD 654              0130143PUJAUDRAN           0060165006290006290320001000300000000000191      011103  778    009899   010431   010960   011109   010966   011679   012139   011003   011329   011750   011026   010902               12010803        1   000008   112  1   000008   101  1   000008    97  1   000008    87  1 000      000      009762   009539   010844   000000   010635   011614   011619   010667   011246   011377                                      
320000903210013 01240 411 251FIN DEV .PUJAUDRAN  0050800RD 654              0130143PUJAUDRAN           0060165006290006290320001000300000000000191      011880  608    013499   012385   011131   011274   011070   011654   011667   011098   011049   011738   012979   013045               12011464        1   000008   113  1   000008   109  1   000008    99  1   000008    83  1 000      000      011821   010717   011747   000000   010655   011452   011487   010815   011311   011546                                      
320000903310013 01240 411 251FIN DEV .PUJAUDRAN  0050800RD 654              0130143PUJAUDRAN           0060165006290006290320001000300000000000191      022983  688    023398   022816   022091   022383   022036   023333   023806   022101   022378   023488   024005   023947               12022267        1   000008   115  1   000008   100  1   000008    96  1   000008    80  1 000      000      021583   020256   022591   000000   021290   023066   023106   021482   022557   022923                                      
320001000110013 01240 4113 51RD 654              0130143DEBUT 3 VOIES       0320587ISLE JOURDAIN       0170800019015019015320001000300000000000187      000000                                                                                                                                 12000000        1   00000    117  1   000008   101  1   000008    98  1   000008    87  1 000      000      000000   000000   000000   000000   000000   000000   000000   000000   000000   000000                                      
320001000210013 01240 4113 51RD 654              0130143DEBUT 3 VOIES       0320587ISLE JOURDAIN       0170800019015019015320001000300000000000187      000000                                                                                                                                 12000000        1   00000    119  1   000008   101  1   000008    91  1   000008    81  1 000      000      000000   000000   000000   000000   000000   000000   000000   000000   000000   000000                                      
320001000310013 01240 4113 51RD 654              0130143DEBUT 3 VOIES       0320587ISLE JOURDAIN       0170800019015019015320001000300000000000187      000000                                                                                                                                 12000000        1   00000    116  1 03000008   102  1   000008    99  1   000008    88  1 000      000      000000   000000   000000   000000   000000   000000   000000   000000   000000   000000                                      
320001100310013 01240 4815 51DEBUT 3 VOIES       0320587GIR. AUBIET EST     0350180CAHUZAC             0330500002610002610320001000300000000000187      000000                                                                                                                                 12000000        8   00000    110  8   00000    100  8   00000     95  8   00000     83  8 000      000      000000   000000   000000   000000   000000   000000   000000   000000   000000   000000                                      
320001200310013 01240 481 251GIR. AUBIET EST     0350180RD 928              0380970DEV AUBIET EST      0360000003877003877320001000300000000000187      000000                                                                                                                                 12000000        8   00000    110  8   00000    100  8   00000     91  8   00000     82  8 000      000      000000   000000   000000   000000   000000   000000   000000   000000   000000   000000                                      
320001300310013 01240 481 251RD 928              0380970GIR. AUBIET OUEST   0421029DEV AUBIET OUEST    0390300004175004175320001000300000000000187      000000                                                                                                                                 12000000        8   00000    110  8   00000    100  8   00000     91  8   00000     86  8 000      000      000000   000000   000000   000000   000000   000000   000000   000000   000000   000000                                      
320001400310013 01240 4815 51GIR. AUBIET OUEST   0421029FIN 3 VOIES         0490332MARSAN              0470000006295006295320001000300000000000187      000000                                                                                                                                 12000000        8   00000    110  8   00000    100  8   00000     93  8   00000     83  8 000      000      000000   000000   000000   000000   000000   000000   000000   000000   000000   000000                                      
320001501110013 01240 4813 51FIN 3 VOIES         0490332GIR ST.CRICQ        0510490ST.CRICQ            0510300002010002010320001601300000000000189      006281  797             005603   006010   006136   006208   006379   006806   006666   006643   006546   006102   005933               12000000        1   00000    110  1   00000    101  1   00000     96  1   00000     89  1 000      000      000000   000000   000000   000000   000000   000000   000000   000000   000000   000000                                      
320001501210013 01240 4813 51FIN 3 VOIES         0490332GIR ST.CRICQ        0510490ST.CRICQ            0510300002010002010320001601300000000000189      006187  657             005521   005835   006063   006157   006306   006577   006653   006655   006406   006018   005816               12000000        1   00000    110  1   00000    102  1   00000     93  1   00000     88  1 000      000      000000   000000   000000   000000   000000   000000   000000   000000   000000   000000                                      
320001501310013 01240 4813 51FIN 3 VOIES         0490332GIR ST.CRICQ        0510490ST.CRICQ            0510300002010002010320001601300000000000189      012468  727             011124   011845   012199   012365   012685   013383   013319   013298   012952   012120   011749               12000000        1   00000    110  1   00000    103  1   00000     99  1   00000     87  1 000      000      000000   000000   000000   000000   000000   000000   000000   000000   000000   000000                                      
320001502110013 01240 4113 01GIR ST.CRICQ        0510490GIR . ENDOUMINGUE   0560100ENGACHIES           0530020003766003766320001601300000000000289      004485 1438    003761   004057   004331   004527   004796   004680   005106   004820   004546   004614   004270   004272               12004254        1 50000008   112  1   000008   103  1 31000007    99  1   000008    82  1 000      000      003563   003563   004070   000000   004355   004617   004539   004586   004594   004588                                      
320001502210013 01240 4113 01GIR ST.CRICQ        0510490GIR . ENDOUMINGUE   0560100ENGACHIES           0530020003766003766320001601300000000000289      004559 1378    003872   004084   004318   004635   004774   004732   005144   005038   004774   004656   004368   004269               12004255        1 37000008   115  1   000008   109  1 24000007    98  1   000008    88  1 000      000      003699   003602   004423   000000   004214   004387   004589   004677   004492   004384                                      
320001502310013 01240 4113 01GIR ST.CRICQ        0510490GIR . ENDOUMINGUE   0560100ENGACHIES           0530020003766003766320001601300000000000187      009044 1408    007633   008141   008649   009162   009570   009412   010250   009858   009320   009270   008638   008541               12008509        1 41000008   117  1 23000008   102  1 26000007    97  1   000008    80  1 000      000      007262   007165   008493   000000   008569   009004   009128   009263   009086   008972                                      
320001601110013 01240 4113 01GIR . ENDOUMINGUE   0560100GIR. RD 930         0620500DURAN               0610450005388005388320001601300000000000287      005311 1117    004559   004837   005130   005258   005354   005442   006037   005765   005490   005542   005162   005112               12005121        1 13000007   111  1 13000007   105  1 04000007    97  1   000007    87  1 000      000      004641   004627   005195   000000   005114   005379   005660   005408   005205   005202                                      
320001601210013 01240 4113 01GIR . ENDOUMINGUE   0560100GIR. RD 930         0620500DURAN               0610450005388005388320001601300000000000287      005367  957    004660   004825   005060   005342   005453   005455   006011   005994   005662   005561   005220   005119               12005281        1   000007   115  1   000007   104  1   000007    90  1   000007    80  1 000      000      004738   004654   005165   000000   005356   005525   005891   005813   005506   005351                                      
320001601310013 01240 4113 01GIR . ENDOUMINGUE   0560100GIR. RD 930         0620500DURAN               0610450005388005388320001601300000000000287      010678 1037    009219   009662   010190   010600   010807   010897   012048   011759   011152   011103   010382   010231               12010402        1 02000007   116  1 00000007   109  1   000007    97  1   000007    87  1 000      000      009379   009281   010360   000000   010470   010904   011551   011221   010711   010553                                      
320001701310013 01240 4813 51GIR. RD 930         0620500DEBUT 3 VOIES       0730700NAHES               0650000011046011046320001601300000000000187      000000                                                                                                                                 12000000        8   00000    110  8   00000    100  8   00000     95  8   00000     83  8 000      000      000000   000000   000000   000000   000000   000000   000000   000000   000000   000000                                      
320001702310013 01240 4815 51DEBUT 3 VOIES       0730700FIN 3 VOIES         0760330ST JEAN POUTGE      0750000002653002653320001601300000000000187      000000                                                                                                                                 12000000        8   00000    110  8   00000    100  8   00000     90  8   00000     87  8 000      000      000000   000000   000000   000000   000000   000000   000000   000000   000000   000000                                      
320001703310013 01240 4813 51FIN 3 VOIES         0760330RD 626              0850735ST JEAN POUTGE      0780000009453009453320001601300000000000187      000000                                                                                                                                 12006609        8   00000    110  8   00000    100  8   00000     94  8   00000     82  8 000      000      000000   000000   000000   000000   000000   000000   000000   000000   000000   000000                                      
320001800310013 01240 4813 51RD 626              0850735RN 524              1030378CARGET              0870000017578017578320001601300000000000187      000000                                                                                                                                 12000000        8   00000    110  8   00000    100  8   00000     91  8   00000     82  8 000      000      000000   000000   000000   000000   000000   000000   000000   000000   000000   000000                                      
320004000310013 02240 4812 51R N 124             0000000RD 654              0030000L'ISLE JOURDAIN     0010500003058003058320001000300000000001290      003227  82                                                                                                                             12000000        8   00000    110  8   00000    104  8   00000     90  8   00000     80  8 000      000      000000   000000   000000   000000   000000   000000   000000   000000   000000   000000                                      
320004001310013 02240 4812 51RD 654              0030000HAUTE GARONNE       0060654L'ISLE JOURDAIN     0040000003695003695320001000300000000000106      000000                                                                                                                                 12000000        8   00000    110  8   00000    102  8   00000     93  8   00000     82  8 000      000      000000   000000   000000   000000   000000   000000   000000   000000   000000   000000                                      
320003000310013 05240 4812 51DPT LANDES          0780311RD 626 CAZAUBON     0840000BARBOTAN            0840000005823005823320001601300000000000189      000000                                                                                                                                 12000000        8   00000    110  8   00000    100  8   00000     90  8   00000     80  8 000      000      000000   000000   000000   000000   000000   000000   000000   000000   000000   000000                                      
320003100310013 05240 4812 51RD 626 CAZAUBON     0840000RD 931 EAUZE        1030000MANCIET             1020000019207019207320001601300000000000189      000000                                                                                                                                 12000000        8   00000    110  8   00000    100  8   00000     90  8   00000     80  8 000      000      000000   000000   000000   000000   000000   000000   000000   000000   000000   000000                                      
320003300310013 05240 4812 51RD 931 EAUZE        1030000R.N 124             1070373LA JALOUSIE         10500000044970044973200016013          0189      000000                                                                                                                                 12000000        8   00000    110  8   00000    100  8   00000     90  8   00000     89  8 000      000      000000   000000   000000   000000   000000   000000   000000   000000   000000   000000                                      
330093200310013 05240 4843 51PORT LANGON         0000000RD 3  BAZAS         0120790MAZERES             00707640135340135340000000000000       0397      009571 100                                                                                                                             12000000        8   00000    110  8   00000    106  8   00000     90  8   00000     80  8 000      000                                                                                                                                   
330093201310013 05240 4843 51RD 3  BAZAS         0120790RD 932 CAPTIEUX     0320000CAPTIEUX NORD       03002000188180188180000000000000       0397      003685 186                                                                                                                             12000000        8   00000    110  8   00000    108  8 8400000     90  8   00000     80  8 000      000                                                                                                                                   
330093202310013 05240 4843 51RD 932 CAPTIEUX     0320000DPT 40              0360403CAPTIEUX  vers DPT4003600000043890043890000000000400       0397      000000                                                                                                                                 12000000        8   00000    110  8   00000    100  8   00000     90  8   00000     80  8 000      000      000000   000000   000000   000000   000000   000000   000000   000000   000000   000000                                      
