890003099310013 01510 4812001Auxerre             0330650Auxerre             0341289Auxerre RN151       0330800002775000000890003000300000000000309      006048                                                                                                                                 120000008         110064098         100063638         090065848         080065438                                                                                                                                                        
890003000310013 01510 4112001COURSON             0120000AUXERRE             0330650VALLAN              0310485021650000000890003000300000000000309      006107 1077    005163   005223   005885   006136   006346   006577   006931   006684   006458   006300   005818   005700               120000001         110064711 1157    100064241 1117    090066471         080066051 1107                                                                                                                                                   
890003000210013 01510 4112001COURSON             0120000AUXERRE             0330650VALLAN              0310485021650000000890003000300000000000309      003029 1097    002550   002600   002951   003029   003153   003266   003518   003274   003151   003116   002863   002843               120000001         110032221 1187    100031971 1137    090033181         080032841 1107                                                                                                                                                   
890003000110013 01510 4112001COURSON             0120000AUXERRE             0330650VALLAN              0310485021650000000890003000300000000000309      003078 1047    002613   002623   002934   003107   003193   003311   003413   003410   003307   003184   002955   002857               120000001         110032491 1087    100032271 1087    090033291         080033211 1107                                                                                                                                                   
890002900310013 01510 4812001Dpt. 58             0000000Courson             0120000Fretoy              0070000012000000000890003000300000000000309      004508                                                                                                                                 120000008         110047778         100047438         090049088         080048778                                                                                                                                                        
890002700310013 00770 4813001ST FLORENTIN        0290000AUBE                0400602Les Buissons        0340000010664000000890002300300000000000195      005890                                                                                                                                 120000008         110068128         100063378         090060178         080064398                                                                                                                                                        
890002300310013 00770 4113001RD203               0050053ST_FLORENTIN        0290000PONTIGNY            0190600023504000000890002300300000000000379      004041 1837    003300   003333   003625   004192   004406   004837   004369   004942   004356   004217   003517   003363               120000001         110046731 1727    100043471 1827    090041271         080044161 1707                                                                                                                                                   
890002300210013 00770 4113001RD203               0050053ST_FLORENTIN        0290000PONTIGNY            0190600023504000000890002300300000000000379      002030 1797    001663   001680   001807   002129   002210   002610   002165   002355   002139   002157   001736   001695               120000001         110023571 1687    100021511 1797    090020621         080021301 1627                                                                                                                                                   
890002300110013 00770 4113001RD203               0050053ST_FLORENTIN        0290000PONTIGNY            0190600023504000000890002300300000000000379      002011 1907    001637   001653   001818   002063   002196   002227   002204   002587   002217   002060   001781   001668               120000001         110023161 1807    100021961 1857    090020651         080022861 1877                                                                                                                                                   
890002299310013 00770 4853001AUXERRE             0000000RD203               0050053Auxerre RN77        0010000005067005067890002300300000000000195      004111                                                                                                                                 120000008         110047558         100044248         090042018         080044968                                                                                                                                                        
890002200310013 00650 4112001A6                  0000000AUXERRE             0041653VENOY               0030200005653000000890002300300000000000309      007910 1007    007332   007526   007947   008134   008099   008306   008165   007462   008334   008233   007772   007601               120000001         110083431    7    100081871    7    090083471         080083821                                                                                                                                                        
890002200210013 00650 4112001A6                  0000000AUXERRE             0041653VENOY               0030200005653000000890002300300000000000309      003905 1007    003505   003644   004028   003954   003973   004149   004059   003673   004145   004082   003864   003778               120000001         110041531    7    100040681    7    090041791         080041821                                                                                                                                                        
890002200110013 00650 4112001A6                  0000000AUXERRE             0041653VENOY               0030200005653000000890002300300000000000309      004005 1007    003827   003882   003919   004180   004126   004157   004106   003789   004189   004151   003908   003823               120000001         110041901 1007    100041191    7    090041681         080042001                                                                                                                                                        
890001001310013 00060 4812001Périgny             0820282RN65                0880140Auxerre RN6         0860000005858000000890001000300000000000309      011948                                                                                                                                 120000008         110120388         100120488         090119238         080123098                                                                                                                                                        
890001000310013 00060 4112001APPOIGNY            0780000PERIGNY             0820282CHESNEZ             0810785005000000000890001000300000000000309      023544 0947    021741   022521   024221   023151   023655   025038   023867   021052   024050   025179   024221   023804               120000001         110237211    7    100237401    7    090234931         080242531    7                                                                                                                                                   
890001000210013 00060 4112001APPOIGNY            0780000PERIGNY             0820282CHESNEZ             0810785005000000000890001000300000000000309      011938 0947    011029   011373   012158   011767   011960   012541   012053   010743   012296   012864   012356   012102               120000001         110119951    7    100119981    7    090118911         080121761    7                                                                                                                                                   
890001000110013 00060 4112001APPOIGNY            0780000PERIGNY             0820282CHESNEZ             0810785005000000000890001000300000000000309      011606 0927    010712   011148   012063   011384   011695   012497   011814   010309   011754   012315   011865   011702               120000001         110117261    7    100117421    7    090116021         080120771    7                                                                                                                                                   
730002700310013 02010 4110401LA BOISSE           0040600VILLARCHER RN504    0080720CHAMBERY_VRU        0050400004414000000890001000300000000000200      099593 0797    097073   102027   108243   101927   094811   100942   102537   098895   099823   100662   093383   094954               120000001         111000161         100996651    7    090978921    7    080969161    7                                                                                                                                                   
730002700210013 02010 4110401LA BOISSE           0040600VILLARCHER RN504    0080720CHAMBERY_VRU        0050400004414000000890001000300000000000200      049117 0827    047231   050807   053192   049812   046659   049904   050282   048589   048749   050282   046904   047123               120000001         110496101         100493551    7    090484671    7    080481381    7                                                                                                                                                   
730002700110013 02010 4110401LA BOISSE           0040600VILLARCHER RN504    0080720CHAMBERY_VRU        0050400004414000000890001000300000000000200      050476 0737    049842   051220   055051   052115   048152   051038   052255   050306   051074   050380   046479   047831               120000001         110504061         100503101    7    090494251    7    080487781    7                                                                                                                                                   
730002600310013 02010 4110401A43 SUD             0000000LA BOISSE           0040600MONTS               0030380004680000000890001000300000000000200      000000                                                                                                                                 120000001         110887911    7    100869531    7    090847691    7    080828981    7                                                                                                                                                   
730002600210013 02010 4110401A43 SUD             0000000LA BOISSE           0040600MONTS_Y             0030380004680000000890001000300000000000200      000000                                                                                                                                 120000001         110443521    7    100434841    7    090424421    7    080415081    7                                                                                                                                                   
730002600110013 02010 4110401A43 SUD             0000000LA BOISSE           0040600MONTS_W             0030380004680000000890001000300000000000200      000000                                                                                                                                 120000001         110444391    7    100434691    7    090423271    7    080413901    7                                                                                                                                                   
730002200310013 00900 4113001AIME                0640690BOURG_ST_MAURICE    0750550BONCONSEIL          0720400011434000000890001000300000000000200      009654 0667    010180   011392   012266   010254   007393   008412   010570   010728   008038   007917   008184   010560               120000001         110097391    7    100096471    7    090097711    7    080097061                                                                                                                                                        
730002200210013 00900 4113001AIME                0640690BOURG_ST_MAURICE    0750550BONCONSEIL          0720400011434000000890001000300000000000200      004786 0657    005267   005520   006141   005232   003722   004149   005154   005373   003996   003953   004008   004931               120000001         110048361    7    100047941    7    090048541    7    080048261    7                                                                                                                                                   
730002200110013 00900 4113001AIME                0640690BOURG_ST_MAURICE    0750550BONCONSEIL          0720400011434000000890001000300000000000200      004868 0677    004913   005872   006125   005022   003671   004263   005416   005355   004042   003964   004176   005629               120000001         110049031    7    100048531    7    090049171    7    080048801                                                                                                                                                        
730002102310013 00900 4113001MONGIROD            0580585AIME                0640690PT_DE_LA_TOUR       0610522006105000000890001000300000000000200      012185 0977    013294   014974   016731   012329   009085   010290   012455   013092   010197   010267   010335   013261               120000001         110122201 1147    100121481 1207    090122871 1217    080120361 1167                                                                                                                                                   
730002102210013 00900 4113001MONGIROD            0580585AIME                0640690PT_DE_LA_TOUR       0610522006105000000890001000300000000000200      006092 1007    006927   007300   008462   006439   004633   005125   006113   006691   005136   005127   005077   006110               120000001         110061011    7    100061181    7    090061341    7    080060131 1027                                                                                                                                                   
730002102110013 00900 4113001MONGIROD            0580585AIME                0640690PT_DE_LA_TOUR       0610522006105000000890001000300000000000200      006093 0927    006367   007674   008269   005890   004452   005165   006342   006401   005061   005140   005258   007151               120000001         110061191 1467    100060301 1427    090061531 1447    080060231 1467                                                                                                                                                   
730002101310013 00900 4113001ST_MARCEL           0550250MONTGIROD           0580585TUNNEL_SIAIX        0560770003335000000890001000300000000000200      011362 0567    012351   014455   015654   011556   008480   008918   011838   012369   009414   009529   009264   012620               120000001         110113751    7    100111971         090112961    7    080000001                                                                                                                                                        
730002101210013 00900 4113001ST_MARCEL           0550250MONTGIROD           0580585TUNNEL_SIAIX        0560770003335000000890001000300000000000200      005686 0547    006495   006945   007936   006069   004344   004280   005998   006337   004732   004753   004588   005781               120000001         110056611    7    100055941         090056181    7    080000001                                                                                                                                                        
730002101110013 00900 4113001ST_MARCEL           0550250MONTGIROD           0580585TUNNEL_SIAIX        0560770003335000000890001000300000000000200      005676 0607    005856   007510   007718   005487   004136   004638   005840   006032   004682   004776   004676   006839               120000001         110057141    7    100056031         090056781    7    080000001                                                                                                                                                        
730002100310013 00900 4113001MOUTIERS            0500000ST_MARCEL           0550250MOUTIERS_EST        0500865005250000000890001000300000000000200      013667 0777    014497   016644   017925   013972   010508   011728   013916   014590   011798   011982   011557   014994               120000001         110138201    7    100137611    7    090138401    7    080137301    7                                                                                                                                                   
730002100210013 00900 4113001MOUTIERS            0500000ST_MARCEL           0550250MOUTIERS_EST        0500865005250000000890001000300000000000200      006841 0767    007577   008063   009117   007280   005330   005836   006822   007544   005928   005961   005717   006954               120000001         110069771    7    100068721    7    090069081    7    080068411    7                                                                                                                                                   
730002100110013 00900 4113001MOUTIERS            0500000ST_MARCEL           0550250MOUTIERS_EST        0500865005250000000890001000300000000000200      006826 0787    006920   008581   008808   006692   005178   005892   007094   007046   005870   006021   005840   008040               120000001         110068431    7    100068891    7    090069321    7    080068891    7                                                                                                                                                   
730002000310013 00900 4110101FEISSONS/ISERE      0400500MOUTIERS            0500000LA_LECHERE          0410800009538000000890001000300000000000200      019768 0557    023021   026212   028835   020789   014071   014924   018607   020225   015678   015497   015757   023848               120000001         110201621    7    100196631    7    090200461    7    080000001                                                                                                                                                        
730002000210013 00900 4110101FEISSONS/ISERE      0400500MOUTIERS            0500000LA_LECHERE          0410800009538000000890001000300000000000200      010069 0557    012028   012770   014668   010949   007439   007931   009233   010365   008146   008344   008147   010908               120000001         110100391    7    100098501    7    090100181    7    080000001                                                                                                                                                        
730002000110013 00900 4110101FEISSONS/ISERE      0400500MOUTIERS            0500000LA_LECHERE          0410800009538000000890001000300000000000200      009699 0567    010993   013442   014167   009840   006632   006993   009374   009860   007532   007153   007610   012940               120000001         110101231    7    100098131    7    090100281    7    080000001                                                                                                                                                        
730001900310013 00900 4110101PIERRE_DU_ROY       0230980FEISSONS/ISERE      0400500CEVINS              0340000016546000000890001000300000000001291      024477 0587    027126   030955   033013   025078   018922   020482   023660   024482   020778   021116   020570   027820               120000001         110240101    7    100231601    7    090233201    7    080232561    7                                                                                                                                                   
730001900210013 00900 4110101PIERRE_DU_ROY       0230980FEISSONS/ISERE      0400500CEVINS              0340000016546000000890001000300000000001200      012237 0577    014164   015028   016815   013119   009577   010159   011571   012523   010425   010584   010141   012848               120000001         110119991    7    100116641    7    090115531    7    080115501    7                                                                                                                                                   
730001900110013 00900 4110101PIERRE_DU_ROY       0230980FEISSONS/ISERE      0400500CEVINS              0340000016546000000890001000300000000001200      012240 0617    012962   015927   016198   011959   009345   010323   012089   011959   010353   010532   010429   014972               120000001         110120111    7    100114961    7    090117671    7    080117061    7                                                                                                                                                   
730001800310013 00900 4110201BORNERY CAR. RD990  0190000PIERRE_DU_ROY RN212 0230980GILLY/ISERE         0200020004538000000890001000300000000001200      031470 0717    033240   037265   039331   031546   026359   027314   032191   032581   028702   028803   027346   033175               120000001         110314531    7    100309151    7    090298261    7    080291801    7                                                                                                                                                   
730001800210013 00900 4110201BORNERY CAR. RD990  0190000PIERRE_DU_ROY RN212 0230980GILLY/ISERE         0200020004538000000890001000300000000001200      015879 0647    017472   018222   020134   016475   013409   014184   015891   016663   014504   014473   013672   015530               120000001         110158041    7    100156151    7    090150301    7    080147371    7                                                                                                                                                   
730001800110013 00900 4110201BORNERY CAR. RD990  0190000PIERRE_DU_ROY RN212 0230980GILLY/ISERE         0200020004538000000890001000300000000001200      015591 0857    015768   019043   019197   015071   012950   013130   016300   015918   014198   014330   013674   017645               120000001         110156491    7    100153001    7    090147961    7    080144431    7                                                                                                                                                   
710003700310013 00790 4112001CHARNAY_LES_MACON   0780800MACON               0800108VARENNES            0790800002900000000890001000300000000000309      013586 2427    010883   012248   012752   012976   012688   013561   016846   018262   014500   013619   012165   012369               120000001         110109421 2417    100088891 2287    090094551         080096901 2187                                                                                                                                                   
710003700210013 00790 4112001CHARNAY_LES_MACON   0780800MACON               0800108VARENNES            0790800002900000000890001000300000000000309      007370 2407    005956   006523   007134   007072   006904   007423   009120   009713   007795   007409   006610   006679               120000001         110059951 2367    100051541 2047    090052471         080052641 2047                                                                                                                                                   
710003700110013 00790 4112001CHARNAY_LES_MACON   0780800MACON               0800108VARENNES            0790800002900000000890001000300000000000309      006216 2487    004927   005725   005618   005904   005784   006138   007726   008549   006705   006210   005555   005690               120000001         110049471 2537    100037351 2617    090042081         080044261 2517                                                                                                                                                   
710003600310013 00790 4112001LA ROCHE VINEUSE    0700850CHARNAY_LES_MACON   0780800PRISSE              0730800007800000000890001000300000000000309      015225 2327    012653   014979   014863   015126   014950   015523   018085   018033   015196   015185   013879   014166               120000001         110150941 2357    100145881 2397    090138281         080140191                                                                                                                                                        
710003600210013 00790 4112001LA ROCHE VINEUSE    0700850CHARNAY_LES_MACON   0780800PRISSE              0730800007800000000890001000300000000000309      007685 2337    006347   007056   007733   007643   007567   007893   009153   009109   007810   007793   006979   007058               120000001         110076071 2357    100073381 2377    090069441         080070391                                                                                                                                                        
710003600110013 00790 4112001LA ROCHE VINEUSE    0700850CHARNAY_LES_MACON   0780800PRISSE              0730800007800000000890001000300000000000309      007540 2327    006306   007923   007130   007483   007383   007630   008932   008924   007386   007392   006900   007108               120000001         110074871 2377    100072501 2407    090068841         080069801                                                                                                                                                        
710002900310013 00800 4112001SAINT_DESERT        0200700ECUISSES            0390385LES_BAUDOTS         0320720018685000000890001000300000000000309      018808 2018    016272   015673   017517   018417   018835   020051   021082   020723   020565   020854   018194   017267               120000001         110000001         100186191 2227    090178241         080178771 2268                                                                                                                                                   
710002900210013 00800 4112001SAINT_DESERT        0200700ECUISSES            0390385LES_BAUDOTS         0320720018685000000890001000300000000000309      010026 1998    008783   007948   009647   010323   010092   010752   011042   011168   010885   010460   009612   009444               120000001         110100601 2177    100098001 2187    090092711 2078    080092391 2248                                                                                                                                                   
710002900110013 00800 4112001SAINT_DESERT        0200700ECUISSES            0390385LES_BAUDOTS         0320720018685000000890001000300000000000309      008782 2068    007489   007725   007870   008094   008743   009299   010040   009555   009680   010394   008582   007823               120000001         110000001         100088191 2267    090085531         080086381 2318                                                                                                                                                   
710002800310013 00800 4112001Saint Rémy          0110000Saint Désert        0200700GIVRY               0190000009700000000890001000300000000000309      020464         018366   017385   019971   021024   020832   021744   023026   022311   021069   020917   019326   019344               120000001         110000001         100209491         090000001         080000001                                                                                                                                                        
710002800210013 00800 4112001Saint Rémy          0110000Saint Désert        0200700GIVRY               0190000009700000000890001000300000000000309      010224         009267   008320   009915   010587   010472   010992   011236   011387   010781   010395   009632   009557               120000001         110000001         100104741         090000001         080000001                                                                                                                                                        
710002800110013 00800 4112001ST_REMY             0110000ST_DESERT           0200700GIVRY               0190000009700000000890001000300000000000309      010240         009099   009065   010056   010437   010360   010752   011790   010924   010288   010522   009694   009787               120000001         110000001         100104751         090000001         080000001                                                                                                                                                        
710002600310013 00790 4112001STE_CECILE          0610440LA ROCHE VINEUSE    0700850LE_BOISCLAIR        0640200009500000000890001000300000000000309      000000                                                                                                                                 120000001         110000001         100000001         090180381         080181181                                                                                                                                                        
710002600210013 00790 4112001STE_CECILE          0610440LA ROCHE VINEUSE    0700850LE_BOISCLAIR        0640200009500000000890001000300000000000309      000000                                                                                                                                 120000001         110000001         100000001         090092011         080091351                                                                                                                                                        
710002600110013 00790 4112001STE_CECILE          0610440LA ROCHE VINEUSE    0700850LE_BOISCLAIR        0640200009500000000890001000300000000000309      000000                                                                                                                                 120000001         110000001         100000001         090088371         080089831                                                                                                                                                        
710002500310013 00790 4112001BRANDON             0540250STE_CECILE          0610440STE_CECILE          0590400007250000000890001000300000000000309      012251 2647    010167   012316   011803   011924   011933   012400   014913   015287   012029   011924   011046   011220               120000001         110125551 2607    100125941 2597    090120121         080118971                                                                                                                                                        
710002500210013 00790 4112001BRANDON             0540250STE_CECILE          0610440STE_CECILE          0590400007250000000890001000300000000000309      005691 2747    004617   005114   005553   005570   005555   005934   007178   007296   005787   005560   005007   005048               120000001         110060321 2647    100060421 2667    090057761         080056651                                                                                                                                                        
710002500110013 00790 4112001BRANDON             0540250STE_CECILE          0610440STE_CECILE          0590400007250000000890001000300000000000309      006560 2477    005550   007202   006250   006354   006378   006466   007735   007991   006242   006364   006039   006172               120000001         110065231 2527    100065521 2537    090062361         080062321                                                                                                                                                        
710002300310013 00790 4812001Charolles           0260700BRANDON             0540250La Fourche          0330000027550000000710002600300000000000311      000000                                                                                                                                 120000008         110000008         100000008         090122158         080122708                                                                                                                                                        
710002200310013 00790 4812001Les Cadolles        0180250Charolles           0260700La Redoute          0190550008450000000710001900300000000000309      015814                                                                                                                                 120000008         110159668         100157278         090145578         080137168                                                                                                                                                        
710002100310013 00790 4112001PARAY OUEST         0080135LES CADOLLES        0180250VOLESVRES           0160200010115000000710001900300000000000309      010452 2937    008672   011223   010107   010278   010137   010218   012280   013181   010280   010039   009269   009753               120000001         110102571 2937    100100191 2957    090095481         080097521 3167                                                                                                                                                   
710002100210013 00790 4112001PARAY OUEST         0080135LES CADOLLES        0180250VOLESVRES           0160200010115000000710001900300000000000309      005207 2937    004333   004789   005206   005162   005105   005130   006225   006694   005215   005123   004641   004797               120000001         110051251 2937    100050341 2967    090048291         080049091 3187                                                                                                                                                   
710002100110013 00790 4112001PARAY OUEST         0080135LES CADOLLES        0180250VOLESVRES           0160200010115000000710001900300000000000309      005245 2937    004339   006434   004901   005116   005032   005088   006055   006487   005065   004916   004628   004956               120000001         110051321 2937    100049851 2957    090047191         080048431 3127                                                                                                                                                   
710001900310013 00790 4112001Dpt. 03             0000000PARAY OUEST         0080135CHIZEUIL            0040800008135000000710001900300000000000309      016524 1218    013021   013886   015547   016157   015934   016804   020957   023595   017020   015925   014269   014856               120000001         110166821 3507    100164321 3517    090152091         080143301                                                                                                                                                        
710001900210013 00790 4112001Dpt. 03             0000000PARAY OUEST         0080135CHIZEUIL            0040800008135000000710001900300000000000309      008316 0188    006496   006835   008124   008090   008233   008300   010884   011624   008402   008040   007135   007446               120000001         110083451 3477    100082621 3457    090076751         080068771                                                                                                                                                        
710001900110013 00790 4112001Dpt. 03             0000000PARAY OUEST         0080135CHIZEUIL            0040800008135000000710001900300000000000309      008208 3308    006525   007051   007423   008067   007701   008504   010073   011971   008618   007885   007134   007410               120000001         110083371 3537    100081701 3577    090075341         080074531                                                                                                                                                        
710001000310013 00700 4812001SAINT VALLIER       0290250RN80 Rond Point J Ba0471018Pont des Morands    0470000019277000000710000800300000000000311      000000                                                                                                                                 120000008         110184738         100183938         090000008         080182218                                                                                                                                                        
710000800310013 00700 4112001GENELARD            0190750ST_VALLIER          0290250ROZELAY             0270800009500000000710000800300000000000309      000000                                                                                                                                 120000001         110181001 2267    100180211         090000001         080178521                                                                                                                                                        
710000800210013 00700 4112001GENELARD            0190750ST_VALLIER          0290250ROZELAY             0270800009500000000710000800300000000000309      003412 0008    008193   008443   008924   009008                     000000   000000   000000   000000   000000   000000               120000001         110091291 2287    100090851         090000001         080088971                                                                                                                                                        
710000800110013 00700 4112001GENELARD            0190750ST_VALLIER          0290250ROZELAY             0270800009500000000710000800300000000000309      000000                                                                                                                                 120000001         110089711 2257    100089361 2217    090000001         080089551                                                                                                                                                        
710000700310013 00700 4812001Paray le Monial     0050000Genelard            0190750St-Vincent-de-Bragny0110750014450000000710002100300000000000309      012039                                                                                                                                 120000008         110118158         100115418         090109998         080103648                                                                                                                                                        
690502000310013 00470 1110231A7                  0000000Ech.ENTREE 11       0130990GIVORS_COMMERC      0040450014500000000710002100300000000000205      056231 1347    053042   053763   056490   057689   055417   058174   061316   056457   058144   058376   051790   053897               120000001         110604151         100602831         090000001         080604501                                                                                                                                                        
690502000210013 00470 1110231A7                  0000000Ech.ENTREE 11       0130990GIVORS_COMMERC      0040450014500000000710002100300000000000205      027351 1347    025892   026254   027288   028185   026900   028241   029874   027402   028166   028327   025263   026322               120000001         110295651 1357    100295671 1327    090000001         080000001                                                                                                                                                        
690502000110013 00470 1110231A7                  0000000Ech.ENTREE 11       0130990GIVORS_COMMERC      0040450014500000000710002100300000000000205      028880 1337    027150   027509   029202   029504   028517   029933   031442   029055   029978   030049   026527   027575               120000001         110308501         100307161         090000001         080000001                                                                                                                                                        
690501702310013 04500 1110441PIERRE_BENITE       0000000BRIGNAIS            0070969IRIGNY              0020800007969000000710002100300000000000206      053960 0727    053511   054523   055242   056213   052913   056986   055085   041303   055358   058007   054703   053972               120000001         110531181    7    100522631    7    090512271         080503941                                                                                                                                                        
690501702210013 04500 1110441PIERRE_BENITE       0000000BRIGNAIS            0070969IRIGNY              0020800007969000000710002100300000000000206      026134 0757    025863   026401   026714   027286   025755   027553   026666   019989   026693   028138   026473   026214               120000001         110257401    7    100253301    7    090248111         080243691                                                                                                                                                        
690501702110013 04500 1110441PIERRE_BENITE       0000000BRIGNAIS            0070969IRIGNY              0020800007969000000710002100300000000000206      027826 0657    027648   028122   028528   028927   027158   029433   028419   021314   028665   029869   028230   027758               120000001         110273781    7    100269331    7    090264151         080260241                                                                                                                                                        
690501501310013 00430 1150441MERMOZ              0000000SORTIE BD DU 8 MAI  0030401ECH_8_MAI           0020500003400003400710002100300000000000206      131936 0417    129380   132921   135679   134164   126793   136379   136395   112256   136487   140138   131449   131643               120000001         111277841    7    101273081    7    091372141    7    081371541                                                                                                                                                        
690501501210013 00430 1150441MERMOZ              0000000SORTIE BD DU 8 MAI  0030401ECH_8_MAI           0020500003400003400710002100300000000000206      059765 0347    063394   064584   066480   065814   054844   060563   059302   045609   060242   061783   057688   057518               120000001         110624891    7    100628921    7    090677921    7    080677741                                                                                                                                                        
690501501110013 00430 1150441MERMOZ              0000000SORTIE BD DU 8 MAI  0030401ECH_8_MAI           0020500003400003400710002100300000000000206      072171 0537    065986   068337   069199   068350   071949   075816   077093   066647   076245   078355   073761   074125               120000001         110652951    7    100644161    7    090694221    7    080693801                                                                                                                                                        
690501203310013 00420 1110241PONT CROIX_LUIZET   0000000Ech. MIRIBEL        0040329GRAPPINIERE         0020000004329000000710002100300000000000206      000000                                                                                                                                 120000001         110938511    7    100911131    7    090908531    7    080906771                                                                                                                                                        
690501203210013 00420 1110241PONT CROIX_LUIZET   0000000Ech. MIRIBEL        0040329GRAPPINIERE         0020000004329000000710002100300000000000206      000000                                                                                                                                 120000001         110464321    7    100458361    7    090452041    7    080451851                                                                                                                                                        
690501203110013 00420 1110241PONT CROIX_LUIZET   0000000Ech. MIRIBEL        0040329GRAPPINIERE         0020000004329000000710002100300000000000206      046266         044627   046460   047090   047757   047895   049207   043634   043052   047786   047956   045641   044276               120000001         110474191    7    100452771    7    090456481    7    080454911                                                                                                                                                        
690501101310013 00070 1110441Ech. RD36 SOLAIZE   0130350Ech. A47 GIVORS     0200330COMMUNAY            0160830006980000000710002100300000000000206      094179 0897    081759   083352   087280   094468   095208   102641   108616   103884   099127   097221   087028   088733               120000001         110967001    7    100956701 1087    090931531 1067    080928261 106                                                                                                                                                    
690501101210013 00070 1110441Ech. RD36 SOLAIZE   0130350Ech. A47 GIVORS     0200330COMMUNAY            0160830006980000000710002100300000000000206      047161 0877    041441   041074   042481   046860   047671   050169   053016   054204   051264   048975   044283   044035               120000001         110483911    7    100481381 1107    090461201    7    080465711                                                                                                                                                        
690501101110013 00070 1110441Ech. RD36 SOLAIZE   0130350Ech. A47 GIVORS     0200330COMMUNAY            0160830006980000000710002100300000000000206      047018 0937    040318   042278   044799   047608   047537   052472   055600   049680   047863   048246   042745   044698               120000001         110483091    7    100475321 1077    090470331 1147    080462541 113                                                                                                                                                    
690500900310013 00070 1150441Ech. P.B.S. A74     0060440Ech. RD36 SOLAIZE   0130350ST_FONS             0070918006910006910710002100300000000000206      140290 0857    128637   130960   137479   141782   139899   150417   155325   138980   145504   146219   133559   134138               120000001         111434571    7    101401761    7    091374141    7    081384421                                                                                                                                                        
690500900210013 00070 1150441Ech. P.B.S. A74     0060440Ech. RD36 SOLAIZE   0130350ST_FONS             0070918006910006910710002100300000000000206      071446 0847    066306   066748   069858   071305   071054   075064   077179   072403   075576   074810   068801   067949               120000001         110729241    7    100711301    7    090696231    7    080706581                                                                                                                                                        
690500900110013 00070 1150441Ech. P.B.S. A74     0060440Ech. RD36 SOLAIZE   0130350ST_FONS             0070918006910006910710002100300000000000206      068844 0867    062331   064212   067621   070477   068845   075353   078146   066577   069928   071409   064758   066189               120000001         110705331    7    100690461    7    090677901 1007    080677841                                                                                                                                                        
690500702310013 00070 1150441SORTIE QUAI SEMARD  0040200Ech. P.B.S. A74     0060440PIERRE_BENITE       0040750002240002240710002100300000000001294      105090 0657    098964   100810   104602   107558   103690   109698   113311   100395   106584   109631   102436   103178               120000001         111060381    7    100000001         091039661    7    081048651                                                                                                                                                        
690500702210013 00070 1150441SORTIE QUAI SEMARD  0040200Ech. P.B.S. A74     0060440PIERRE_BENITE       0040750002240002240710002100300000000001294      048951 0667    046717   047216   048651   049838   048745   049215   050492   047702   050653   051670   048334   048078               120000001         110498861    7    100000001         090489381    7    080500281                                                                                                                                                        
690500702110013 00070 1150441SORTIE QUAI SEMARD  0040200Ech. P.B.S. A74     0060440PIERRE_BENITE       0040750002240002240710002100300000000001294      056139 0657    052247   053594   055951   057720   054945   060483   062819   052693   055931   057961   054102   055100               120000001         110561521    7    100000001         090550271    7    080548361                                                                                                                                                        
690500600310013 00070 1150441PONT LA MULATIERE NO0010527SORTIE QUAI SEMARD  0040200MULATIERE           0020500002673002673710002100300000000000206      098070 0707    089106   090513   094075   097010   093666   098442   102246   091695   096516   104412   108908   109796               120000001         110942481    7    100000001         090000001         080936571    7                                                                                                                                                   
690500600210013 00070 1150441PONT LA MULATIERE NO0010527SORTIE QUAI SEMARD  0040200MULATIERE           0020500002673002673710002100300000000000206      042570 0747    040859   041040   042265   043273   042576   042103   043374   041946   044208   045458   041890   041738               120000001         110415171    7    100409281         090000001         080425261    7                                                                                                                                                   
690500600110013 00070 1150441PONT LA MULATIERE NO0010527SORTIE QUAI SEMARD  0040200MULATIERE           0020500002673002673710002100300000000000206      055500 0647    048247   049473   051810   053737   051090   056339   058872   049749   052308   058954   067018   068058               120000001         110527311    7    100000001         090517281    7    080511311    7                                                                                                                                                   
690500501310013 00070 1150441RUE M.A. PETIT      0000000PONT LA MULATIERE NO0010527QUAI_PERRACHE       0010220001527001527710002100300000000001294      105724 0857    102079   103141   106093   105919   101398   106130   107648   098907   110162   111505   108875   106838               120000001         111096751    7    101087611    7    091076441    7    081055361                                                                                                                                                        
690500501210013 00070 1150441RUE M.A. PETIT      0000000PONT LA MULATIERE NO0010527QUAI_PERRACHE       0010220001527001527710002100300000000001294      047756 0887    048272   048038   048431   046917   046148   044819   044354   044615   051027   050088   051399   049089               120000001         110508901    7    100506201    7    090506951    7    080494161                                                                                                                                                        
690500501110013 00070 1150441RUE M.A. PETIT      0000000PONT LA MULATIERE NO0010527QUAI_PERRACHE       0010220001527001527710002100300000000001294      057968 0797    053807   055103   057662   059002   055250   061311   063294   054292   059135   061417   057476   057749               120000001         110587851    7    100581411    7    090569481    7    080561191                                                                                                                                                        
690500400310013 00060 1150241TUNNEL FOURVIERE    4540000TREMIE PERRACHE SUD 4550616FOURVIERE_SUD       4540800001616001616710002100300000000000206      096236 0757    092548   094535   098529   099662   095027   099343   100438   095909   095780   098807   092415   091745               120000001         111039821    7    101014971    7    091024411         081009781                                                                                                                                                        
690500400210013 00060 1150241TUNNEL FOURVIERE    4540000TREMIE PERRACHE SUD 4550616FOURVIERE_SUD       4540800001616001616710002100300000000000206      043727 0787    043090   043568   044894   044850   043772   043432   042896   044467   043687   045370   042819   041856               120000001         110500341    7    100491461    7    090412531         080390191 121                                                                                                                                                    
690500400110013 00060 1150241TUNNEL FOURVIERE    4540000TREMIE PERRACHE SUD 4550616FOURVIERE_SUD       4540800001616001616710002100300000000000206      052509 0707    049458   050967   053635   054812   051255   055911   057542   051442   052093   053437   049596   049889               120000001         110539481    7    100523511    7    090492061         080492361                                                                                                                                                        
690500200310013 00060 1150741Ech. ECULLY SUD     4490200TUNNEL FOURVIERE    4540000ECULLY              4500720004800004800710002100300000000000200      118544 0587    110532   113069   116685   121321   116610   122263   125965   117335   122905   123309   114447   117785               120000001         111180291    7    101147521    7    091172421    7    081148781                                                                                                                                                        
690500200210013 00060 1150741Ech. ECULLY SUD     4490200TUNNEL FOURVIERE    4540000ECULLY              4500720004800004800710002100300000000000200      061469 0547    057538   058486   059999   063119   060634   064208   065265   060437   064040   064070   059499   060210               120000001         110612061    7    100585331    7    090606451    7    080591121                                                                                                                                                        
690500200110013 00060 1150741Ech. ECULLY SUD     4490200TUNNEL FOURVIERE    4540000ECULLY              4500720004800004800710002100300000000000200      057075 0677    052994   054583   056686   058202   055976   058055   060700   056898   058865   059239   054948   057575               120000001         110568231    7    100562191    7    090565961    7    080557661                                                                                                                                                        
690500105310013 00060 1150441DARDILLY LE TRONCHON4470520Ech. ECULLY SUD     4490200CHAMPAGNE           4480590001680001680710002100300000000000200      105540 0647    095142   097556   103267   106646   105335   109661   114986   108628   110225   109223   101237   103984               120000001         111059051    7    101081811    7    091058421    7    081029431                                                                                                                                                        
690500105210013 00060 1150441DARDILLY LE TRONCHON4470520Ech. ECULLY SUD     4490200CHAMPAGNE           4480590001680001680710002100300000000000200      054094 0607    049060   049508   052481   053812   054094   055992   058570   056393   057554   056325   052239   052758               120000001         110547961    7    100564051    7    090550221    7    080545621                                                                                                                                                        
690500105110013 00060 1150441DARDILLY LE TRONCHON4470520Ech. ECULLY SUD     4490200CHAMPAGNE           4480590001680001680710002100300000000000200      051446 0737    046082   048048   050786   052834   051241   053669   056416   052235   052671   052898   048998   051226               120000001         110511091    7    100517761    7    090508201    7    080483801                                                                                                                                                        
690500103310013 00060 1110741Ech. LIMONEST       4450323DARDILLY LE TRONCHON4470520DARDILLY            4460690002520000000710002100300000000000188      086184 0717    075913   079608   083745   088043   086668   091431   097244   094576   090000   085121   081079   080329               120000001         110868841    7    100872971    7    090860941    7    080835251                                                                                                                                                        
690500103210013 00060 1110741Ech. LIMONEST       4450323DARDILLY LE TRONCHON4470520DARDILLY            4460690002520000000710002100300000000000188      042223 0667    037019   038758   040078   042219   042015   044101   046496   047071   044506   042809   040421   040926               120000001         110432141    7    100432521    7    090424401    7    080407801                                                                                                                                                        
690500103110013 00060 1110741Ech. LIMONEST       4450323DARDILLY LE TRONCHON4470520DARDILLY            4460690002520000000710002100300000000000188      043961 0797    038894   040850   043667   045824   044653   047330   050748   047505   045494   042312   040658   039403               120000001         110436701    7    100440451    7    090436531    7    080427451                                                                                                                                                        
690020800310013 04890 4110201Ech. RN7            0000000Ech. RN6            0020624DARDILLY_DEV        0010500002624000000710002100300000000000206      028107 0737    023067   026086   028102   029225   027972   029917   030917   027132   026845   030385   028286   029204               120000001         110233561    7    100229871         090228241    7    080224731                                                                                                                                                        
690020800210013 04890 4110201Ech. RN7            0000000Ech. RN6            0020624DARDILLY_DEV        0010500002624000000710002100300000000000206      013810 0727    011798   013011   014083   014482   013829   014940   015718   012242   012583   014902   013832   014237               120000001         110122251    7    100119801         090119181    7    080118491                                                                                                                                                        
690020800110013 04890 4110201Ech. RN7            0000000Ech. RN6            0020624DARDILLY_DEV        0010500002624000000710002100300000000000206      014297 0737    011269   013075   014019   014743   014143   014977   015199   014890   014262   015483   014454   014967               120000001         110111311    7    100110071         090109051    7    080106241                                                                                                                                                        
690006800310013 03460 4110201Ech. GD LARGE N RD510320000Ech. MI_PLAINE N RN60400883ST_PRIEST           0390485008883000000710002100300000000001094      078822 1837    075201   078465   080336   081086   076772   078268   087747   074076   082099   082104   075836   073906               120000001         110794731 1877    100816201 1837    090000001         080833411 1867                                                                                                                                                   
690006800210013 03460 4110201Ech. GD LARGE N RD510320000Ech. MI_PLAINE N RN60400883ST_PRIEST           0390485008883000000710002100300000000001094      038605 1847    037156   038517   039508   039732   037211   039616   041742   037286   040060   039747   037162   035586               120000001         110390991 1917    100397951 1907    090000001         080404061 1977                                                                                                                                                   
690006800110013 03460 4110201Ech. GD LARGE N RD510320000Ech. MI_PLAINE N RN60400883ST_PRIEST           0390485008883000000710002100300000000001094      040217 1817    038045   039948   040828   041354   039561   038652   046005   036790   042039   042357   038674   038320               120000001         110403741 1777    100418251 1787    090407721 1777    080429341 1767                                                                                                                                                   
690006200310013 03460 4110201Ech. RIZE SUD RD55  0250000Ech. GD LARGE N RD510320000LAMARTINE           0310495007000000000710002100300000000001094      072900 1927    067753   071155   071533   074150   073848   076874   083742   070235   073371   073415   069440   069181               120000001         110749601 1867    100771491 1867    090777531 2047    080787571 206                                                                                                                                                    
690006200210013 03460 4110201Ech. RIZE SUD RD55  0250000Ech. GD LARGE N RD510320000LAMARTINE           0310495007000000000710002100300000000001094      036590 1937    034638   035752   034862   037319   036702   038639   041074   036612   036318   036139   035616   035376               120000001         110378751 1887    100387831 1877    090391221 2087    080397591 209                                                                                                                                                    
690006200110013 03460 4110201Ech. RIZE SUD RD55  0250000Ech. GD LARGE N RD510320000LAMARTINE           0310495007000000000710002100300000000001094      036310 1887    033115   035403   036671   036831   037146   038235   042668   033623   037053   037276   033824   033805               120000001         110370851 1827    100383661 1857    090386311 1997    080389981 203                                                                                                                                                    
690002500310013 00070 4813001Ech. A46 Sud        0730000Dpt. 38             0760349Communay Les Pins Te0750000002348000000000000000000000000000206      000000                                                                                                                                 120000008         110000008         100000008         090000008         080000008                                                                                                                                                        
690002500210013 00070 4813001Ech. A46 Sud        0730000Dpt. 38             0760349Communay Les Pins Te0750000002348000000000000000000000000000206      000000                                                                                                                                 120000008         110000008         100000008         090000008         080000008                                                                                                                                                        
690002500110013 00070 4813001Ech. A46 Sud        0730000Dpt. 38             0760349Communay Les Pins Te0750000002348000000000000000000000000000206      000000                                                                                                                                 120000008         110000008         100000008         090000008         080000008                                                                                                                                                        
690001801310013 00070 4113001Carf. RD73 Arb.     0280189Entrée TASSIN       0400890FLEURIEUX           0310600012291000000000000000000000000000206      014681 0787    015742   014063   014414   014931   014358   015390   014832   012315   015049   015371   014548   015130               120000001         110000001         100000001         090177281         080192931                                                                                                                                                        
690001801210013 00070 4113001Carf. RD73 Arb.     0280189Entrée TASSIN       0400890FLEURIEUX           0310600012291000000000000000000000000000206      007340 0727    007939   007041   007223   007419   007179   007651   007360   006113   007454   007680   007296   007706               120000001         110000001         100000001         090081091         080097531                                                                                                                                                        
690001801110013 00070 4113001Carf. RD73 Arb.     0280189Entrée TASSIN       0400890FLEURIEUX           0310600012291000000000000000000000000000206      007341 0907    007803   007022   007191   007512   007179   007739   007472   006202   007595   007691   007252   007424               120000001         110000001         100000001         090096191         080095401                                                                                                                                                        
690001700310013 00070 4813001Carf. RD38          0180360Carf. RD73Arb       0280189Bully Temporaire    0240100009829000000690001600300000000000206      012023                                                                                                                                 120000008         110148298         100146608         090000008         080000008                                                                                                                                                        
690001700210013 00070 4813001Carf. RD38          0180360Carf. RD73Arb       0280189Bully Temporaire    0240100009829000000690001600300000000000206      000000                                                                                                                                 120000008         110000008         100000008         090000008         080000008                                                                                                                                                        
690001700110013 00070 4813001Carf. RD38          0180360Carf. RD73Arb       0280189Bully Temporaire    0240100009829000000690001600300000000000206      000000                                                                                                                                 120000008         110000008         100000008         090000008         080000008                                                                                                                                                        
690001600310013 00070 4113001Dev. PONTCHARRA EST 0180000Carf. RD38          0180360PONTCHARRA          0180150000360000000690001600300000000000206      014434 0867    014781   013403   014162   014991   015069   015364   015283   012259   015028   015169   013978   013670               120000001         110178021    7    100175991         090000001         080000001                                                                                                                                                        
690001600210013 00070 4113001Dev. PONTCHARRA EST 0180000Carf. RD38          0180360PONTCHARRA          0180150000360000000690001600300000000000206      007044 0867    007173   006477   006876   007317   007398   007482   007484   006022   007323   007426   006829   006686               120000001         110087321    7    100086471         090000001         080000001                                                                                                                                                        
690001600110013 00070 4113001Dev. PONTCHARRA EST 0180000Carf. RD38          0180360PONTCHARRA          0180150000360000000690001600300000000000206      007390 0867    007608   006926   007286   007674   007671   007882   007799   006237   007705   007743   007149   006984               120000001         110090701    7    100089521         090000001         080000001                                                                                                                                                        
690001500310013 00070 4813001Dev. Pontcharra W   0150000Dev. Pontcharra E   0180000Pontcharra dév. Temp0170000003000000000690001600300000000000206      012026                                                                                                                                 120000008         110148338         100146648         090000008         080000008                                                                                                                                                        
690001500210013 00070 4813001Dev. Pontcharra W   0150000Dev. Pontcharra E   0180000Pontcharra dév. Temp0170000003000000000690001600300000000000206      000000                                                                                                                                 120000008         110000008         100000008         090000008         080000008                                                                                                                                                        
690001500110013 00070 4813001Dev. Pontcharra W   0150000Dev. Pontcharra E   0180000Pontcharra dév. Temp0170000003000000000690001600300000000000206      000000                                                                                                                                 120000008         110000008         100000008         090000008         080000008                                                                                                                                                        
690001400310013 00070 4843001Entrée Tarare Ouest 0100250Dev. Pontcharra W   0150000Tarare Temporaire   0120000004750004750690001600300000000000206      006668                                                                                                                                 120000008         110082258         100081328         090000008         080000008                                                                                                                                                        
690001400210013 00070 4843001Entrée Tarare Ouest 0100250Dev. Pontcharra W   0150000Tarare Temporaire   0120000004750004750690001600300000000000206      000000                                                                                                                                 120000008         110000008         100000008         090000008         080000008                                                                                                                                                        
690001400110013 00070 4843001Entrée Tarare Ouest 0100250Dev. Pontcharra W   0150000Tarare Temporaire   0120000004750004750690001600300000000000206      000000                                                                                                                                 120000008         110000008         100000008         090000008         080000008                                                                                                                                                        
690001300310013 00070 4115001COL DU PIN BOUCHAIN 0000000Entrée TARARE OUEST 0100250TARARE_OUEST        0090150010250000000690001600300000000000200      006092         005964   005420   005977   006548   006251   006443   006577   005912   006424   006273            005558               120000001         110000001         100070771         090000001         080000001                                                                                                                                                        
690001300210013 00070 4115001COL DU PIN BOUCHAIN 0000000Entrée TARARE OUEST 0100250TARARE_OUEST        0090150010250000000690001600300000000000200      003043         002972   002658   002952   003255   003110   003184   003290   002945   003188   003132            002768               120000001         110000001         100035491         090000001         080000001                                                                                                                                                        
690001300110013 00070 4115001COL DU PIN BOUCHAIN 0000000Entrée TARARE OUEST 0100250TARARE_OUEST        0090150010250000000690001600300000000000200      003049         002992   002762   003025   003293   003141   003259   003287   002967   003236   003141   002683   002790               120000001         110000001         100035281         090000001         080034771    7                                                                                                                                                   
690000601310013 00060 4140201Ech. RD73D          0400000Ech. A6 DARDILLY    0420150DARDILLY_LES_BROSSES0410000002030002030690001600300000000000206      000000                                                                                                                                 120000001         110000001         100000001         090000001         080493161                                                                                                                                                        
690000601210013 00060 4140201Ech. RD73D          0400000Ech. A6 DARDILLY    0420150DARDILLY_LES_BROSSES0410000002030002030690001600300000000000206      000000                                                                                                                                 120000001         110000001         100000001         090000001         080245881                                                                                                                                                        
690000601110013 00060 4140201Ech. RD73D          0400000Ech. A6 DARDILLY    0420150DARDILLY_LES_BROSSES0410000002030002030690001600300000000000206      000000                                                                                                                                 120000001         110253051    7    100251451         090252671    7    080247281                                                                                                                                                        
580002701310013 01510 4112001Sud Dev.            0510878Dpt. 89             0580730CLAMECY             0530532006852000000690001600300000000000311      003104 2487    002341   002454   002785   003082   003225   003396   003974   003987   003383   003163   002767   002633               120000001         110000001         100032481         090032781         080032361                                                                                                                                                        
580002701210013 01510 4112001Sud Dev.            0510878Dpt. 89             0580730CLAMECY             0530532006852000000690001600300000000000311      001550 2537    001182   001244   001401   001538   001626   001696   002018   001928   001638   001585   001385   001334               120000001         110000001         100016211         090016321         080016021                                                                                                                                                        
580002701110013 01510 4112001Sud Dev.            0510878Dpt. 89             0580730CLAMECY             0530532006852000000690001600300000000000311      001554 2397    001159   001210   001384   001544   001599   001700   001956   002059   001745   001578   001382   001299               120000001         110000001         100016271         090016461         080016341                                                                                                                                                        
580002600310013 01510 4813001VARZY               0350958CLAMECY-NORD        0510878St-Pierre-du-Mont   0400000019090000000580002500300000000000311      002129                                                                                                                                 120000008         110022728         100022528         090022418         080000008                                                                                                                                                        
580002500310013 01510 4112001CHATEAUNEUF V.BARGIS0200512VARZY               0350958LES_PONTOTS         0260000015446000000580002500300000000000309      002110 1448    001518   001655   001900   002110   002206   002305   002614   002751   002306   002170   001933   001810               120000001         110022511 2157    100022311 1478    090022201 1448    080022511 1368                                                                                                                                                   
580002500210013 01510 4112001CHATEAUNEUF V.BARGIS0200512VARZY               0350958LES_PONTOTS         0260000015446000000580002500300000000000309      001058 1418    000766   000826   000955   001049   001116   001165   001351   001368   001127   001083   000959   000906               120000001         110011271 2107    100011121 1448    090011081 1388    080011131 1318                                                                                                                                                   
580002500110013 01510 4112001CHATEAUNEUF V.BARGIS0200512VARZY               0350958LES_PONTOTS         0260000015446000000580002500300000000000309      001052 1498    000752   000829   000945   001061   001090   001140   001263   001383   001179   001087   000974   000904               120000001         110011241 2217    100011191 1538    090011121 1498    080011381 1468                                                                                                                                                   
580002300310013 01510 4812001Dpt. 18             0000000CHATEAUNEUF V.BARGIS0200512La Charité          0010500020331000000580002500300000000000311      002042                                                                                                                                 120000008         110021798         100021608         090021508         080021818                                                                                                                                                        
580001200310013 00070 4112001ST_PIERRE           0920100Dpt. 03             1070760LE_MOUTIER          0950700015660000000580002500300000000000307      013712 3357    010276   011429   013040   013718   014036   014110   017077   018766   014322   013547   011830   012137               120000001         110140001 3367    100136491 3357    090000001         080136161 3297                                                                                                                                                   
580001200210013 00070 4112001ST_PIERRE           0920100Dpt. 03             1070760LE_MOUTIER          0950700015660000000580002500300000000000307      006782 3397    005174   005573   006477   006788   006916   006908   008000   009488   007332   006739   005983   005881               120000001         110069921 3407    100068021 3417    090000001         080069521 3337                                                                                                                                                   
580001200110013 00070 4112001ST_PIERRE           0920100Dpt. 03             1070760LE_MOUTIER          0950700015660000000580002500300000000000307      006930 3287    005102   005856   006563   006930   007120   007202   009077   009278   006990   006808   005847   006256               120000001         110070081 3307    100068471 3297    090000001         080066641 3207                                                                                                                                                   
580001101310013 00770 1110241NEVERS              1480000ST_PIERRE           1641118PLAGNY              1640200017200000000580002500300000000000507      013191 2027    010010   010645   012429   013755   014016   013982   015935   016866   014012   013142   011640   011630               120000001         110000001         100000001         090133101         080137151                                                                                                                                                        
580001101210013 00770 1110241NEVERS              1480000ST_PIERRE           1641118PLAGNY              1640200017200000000580002500300000000000507      006489 2047    005034   005232   006127   006723   006929   006773   007403   008474   007162   006319   005912   005676               120000001         110000001         100000001         090060731         080064221                                                                                                                                                        
580001101110013 00770 1110241NEVERS              1480000ST_PIERRE           1641118PLAGNY              1640200017200000000580002500300000000000507      006702 1987    004976   005413   006302   007032   007087   007209   008532   008392   006850   006823   005728   005954               120000001         110069641 1947    100072251 1717    090072371         080072931                                                                                                                                                        
580001007310013 00070 4812001Chaume des pendus   0770000St Pierre le Mtier  0920100Magny-Cours         0820000015100000000580001200300000000000309      012415                                                                                                                                 120000008         110126768         100123598         090000008         080123308                                                                                                                                                        
580000600310013 00770 1110241SUD LA MARCHE       1390600NEVERS              1480000PRIEZ               1440415008400000000580001200300000000000309      000000                                                                                                                                 120000001         110000001         100172181 1517    090169891 1288    080170421 1328                                                                                                                                                   
580000600210013 00770 1110241SUD LA MARCHE       1390600NEVERS              1480000PRIEZ               1440415008400000000580001200300000000000309      000000                                                                                                                                 120000001         110000001         100085181 1517    090084401 1278    080084861 1368                                                                                                                                                   
580000600110013 00770 1110241SUD LA MARCHE       1390600NEVERS              1480000PRIEZ               1440415008400000000580001200300000000000309      000000                                                                                                                                 120000001         110000001         100087001 1517    090085491 1298    080085561 1248                                                                                                                                                   
580000400310013 00770 1110241Dev. Cosne          1130900SUD LA MARCHE       1390600LA_CHARITE          1270640025700000000580001200300000000000307      013711 2007    010557   011313   013352   013904   014095   014183   016461   017166   014322   014005   012372   012572               120000001         110140641 1997    100136671 1967    090136871 1948    080134081 132                                                                                                                                                    
580000400210013 00770 1110241Dev. Cosne          1130900SUD LA MARCHE       1390600LA_CHARITE          1270640025700000000580001200300000000000307      006752 1987    005364   005600   006516   006909   006780   006911   007679   008602   007323   006875   006192   006171               120000001         110069241 1997    100067921 1967    090067671 1968    080066691                                                                                                                                                        
580000400110013 00770 1110241Dev. Cosne          1130900SUD LA MARCHE       1390600LA_CHARITE          1270640025700000000580001200300000000000307      006959 2057    005193   005713   006836   006995   007315   007272   008782   008564   006999   007130   006180   006401               120000001         110071401 1997    100068751 1977    090069201 1938    080067391                                                                                                                                                        
580000200310013 00770 1810241Maltaverne          1000500Dev. Cosne          1130900Cosne S/Loire       1050000013400000000000000000000000000000309      000000                                                                                                                                 120000008         110000008         100000008         090000008         080141128                                                                                                                                                        
420501300310013 00720 1110431Ech. RATARIEUX      0090210Ech. RN82 RD498     0170182LA_FOUILLOUSE       0120100007910000000000000000000000000000180      079397 0977    078838   077765   082086   083759   080403   086210   076750   067102   084220   086752   073716   075336               120000001         110849331    7    100823751    7    090000001         080797661                                                                                                                                                        
420501300210013 00720 1110431Ech. RATARIEUX      0090210Ech. RN82 RD498     0170182LA_FOUILLOUSE       0120100007910000000000000000000000000000180      040136 0987    039986   039319   040900   042317   040468   043608   037412   032316   042519   044212   038307   040391               120000001         110434131    7    100421671    7    090000001         080403331                                                                                                                                                        
420501300110013 00720 1110431Ech. RATARIEUX      0090210Ech. RN82 RD498     0170182LA_FOUILLOUSE       0120100007910000000000000000000000000000180      039261 0967    038852   038446   041186   041442   039935   042602   039338   034786   041701   042540   035409   034945               120000001         110415201    7    100402081    7    090000001         080394331                                                                                                                                                        
420500800310013 00720 1150231Ech. ST JEAN BONNEFO0000000Ech. RATARIEUX      0090210MEONS               0020750009140009140000000000000000000000190      081076 0917    080191   078638   083218   083295   079559   084970   084605   072760   084328   085401   076066   079793               120000001         110861241    7    100854291    7    090000001         080000001                                                                                                                                                        
420500800210013 00720 1150231Ech. ST JEAN BONNEFO0000000Ech. RATARIEUX      0090210MEONS               0020750009140009140000000000000000000000190      040078 0917    039913   039012   040876   041053   039459   042107   041526   035603   041804   042134   037683   039744               120000001         110427421    7    100423251    7    090000001         080432321                                                                                                                                                        
420500800110013 00720 1150231Ech. ST JEAN BONNEFO0000000Ech. RATARIEUX      0090210MEONS               0020750009140009140000000000000000000000180      040998 0917    040278   039626   042342   042242   040100   042863   043079   037157   042524   043267   038383   040049               120000001         110433821    7    100431041    7    090000001         080000001                                                                                                                                                        
420500700310013 00470 1110231Ech. COUZON         0230000Ech. LA VARIZELLE   0291316PARADIS             0280730007340000000000000000000000000000191      064363 1187    060506   060829   065256   063967   063618   068002   069739   062199   067163   068875   060076   061844               120000001         110689681 1177    100676261 1187    090667961 1197    080665071 1237                                                                                                                                                   
420500700210013 00470 1110231Ech. COUZON         0230000Ech. LA VARIZELLE   0291316PARADIS             0280730007340000000000000000000000000000191      032041 1157    030365   030608   032098   032058   031690   033944   034405   030366   033432   034354   030161   030923               120000001         110348701 1137    100341721 1127    090337591 1127    080336531 1197                                                                                                                                                   
420500700110013 00470 1110231Ech. COUZON         0230000Ech. LA VARIZELLE   0291316PARADIS             0280730007340000000000000000000000000000191      032322 1247    030141   030221   033158   031909   031928   034058   035334   031833   033731   034521   029915   030921               120000001         110340981 1267    100334541 1247    090330371 1257    080328541 1337                                                                                                                                                   
420500500310013 00470 1110231Ech. LA MADELEINE   0140000Ech.COUZON          0230000GRAND_CROIX         0220000008478000000000000000000000000000180      074682 1037    070847   071577   076030   076301   073860   078944   079789   070302   077860   078235   070115   072165               120000001         110792991 1097    100778821 1107    090768211 1097    080761231 1137                                                                                                                                                   
420500500210013 00470 1110231Ech. LA MADELEINE   0140000Ech.COUZON          0230000GRAND_CROIX         0220000008478000000000000000000000000000180      037126 1007    035483   035854   037332   038097   036753   039306   039340   034339   038906   038815   035107   036148               120000001         110399281 1077    100390751 1067    090385401 1067    080381941 1117                                                                                                                                                   
420500500110013 00470 1110231Ech. LA MADELEINE   0140000Ech.COUZON          0230000GRAND_CROIX         0220000008478000000000000000000000000000180      037556 1107    035364   035723   038698   038204   037107   039638   040449   035963   038954   039420   035008   036017               120000001         110393711 1147    100388071 1137    090382811 1127    080379291 1177                                                                                                                                                   
420008400310013 00880 4150201Ech. CHAZEAU        0510300Dpt. 43             0520400CHAZEAU             0520200001100001100000000000000000000000184      027005 0647    024506   023898   026535   027029   027343   028923   029740   026680   029026   028906   025109   026129               120000001         110280861    7    100000001         090000001         080246001    7                                                                                                                                                   
420008400210013 00880 4150201Ech. CHAZEAU        0510300Dpt. 43             0520400CHAZEAU             0520200001100001100000000000000000000000396      013616 0627    012455   012091   013299   013728   013776   014571   014743   013383   014793   014537   012736   013178               120000001         110142261    7    100000001         090000001         080138091    7                                                                                                                                                   
420008400110013 00880 4150201Ech. CHAZEAU        0510300Dpt. 43             0520400CHAZEAU             0520200001100001100000000000000000000000396      013389 0697    012051   011807   013236   013301   013567   014352   014997   013297   014233   014369   012373   012951               120000001         110138601    7    100000001         090000001         080107911    7                                                                                                                                                   
420008300310013 00880 4150201Ech. FIRMINY CENTRE 0490350Ech. CHAZEAU        0510300LA_TARDIVE          0500200001950001950000000000000000000000184      028841         026328   025687   028376   028596   028883   030957   031892   027972   031201   031171   026827   027971               120000001         110298681         100292771    7    090290281    7    080285261    7                                                                                                                                                   
420008300210013 00880 4150201Ech. FIRMINY CENTRE 0490350Ech. CHAZEAU        0510300LA_TARDIVE          0500200001950001950000000000000000000000184      015179 0747    013946   013512   014840   015129   015208   016306   016611   014665   016645   016279   014180   014717               120000001         110156381    7    100153611    7    090151331    7    080150561    7                                                                                                                                                   
420008300110013 00880 4150201Ech. FIRMINY CENTRE 0490350Ech. CHAZEAU        0510300LA_TARDIVE          0500200001950001950000000000000000000000184      013662         012382   012175   013536   013467   013675   014651   015281   013307   014556   014892   012647   013254               120000001         110142301         100139161    7    090138951    7    080134701    7                                                                                                                                                   
420008200310013 00880 4850201Ech. FIRMINY EST    0470720Ech. FIRMINY CENTRE 0490350Firminy Ouest       0480200001980001980420008000300000000000184      030586                                                                                                                                 120000008         110320118         100000008         090318418         080317518                                                                                                                                                        
420008200210013 00880 4850201Ech. FIRMINY EST    0470720Ech. FIRMINY CENTRE 0490350Firminy Ouest       0480200001980001980420008000200000000000184      015529                                                                                                                                 120000008         110162228         100000008         090160128         080159528                                                                                                                                                        
420008200110013 00880 4850201Ech. FIRMINY EST    0470720Ech. FIRMINY CENTRE 0490350Firminy Ouest       0480200001980001980420008000100000000000184      015057                                                                                                                                 120000008         110157898         100000008         090158298         080157998                                                                                                                                                        
420008100310013 00880 4850201Ech. CHAMBON FEUGERO0450224Ech. FIRMINY EST    0470720Chambon-Feugerolles 0460000002496002496420008000300000000000184      040113                                                                                                                                 120000008         110419868         100000008         090417808         080416648                                                                                                                                                        
