120500400110012 00750 1110231ECH.ENGAYRESQUE     2000000ECH ST GERMAIN      2150050LA GAMASSE          2100400015050015050          00000000000194      008784 1087    004443   004840   006088   008376   009467   009826   015433   018519   009109   007041   005703   006110               120080211 1117    110075741 1177    100080521 1357    09      1         08      1         001511   002387   004785   008894   009003   008900   014442   017291   009337   006644   006887   005874                                      
120500400210012 00750 1110231ECH.ENGAYRESQUE     2000000ECH ST GERMAIN      2150050LA GAMASSE          2100400015050015050          00000000000194      008468 1537    004304   004429   005592   007455   009477   008691   012032   020317   010017   007291   005862   005694               120085591 1947    110081241 1347    100078301 1847    09      1         08      1         004424   004532   005410   007973   008745   008246   015483   018935   009192   006644   007316   005499                                      
120500400310012 00750 1110231ECH.ENGAYRESQUE     2000000ECH ST GERMAIN      2150050LA GAMASSE          2100400015050015050          00000000000194      017252 1317    008747   009269   011680   015831   018944   018517   027465   038836   019126   014332   011565   011804               120165801 1577    110156981 1267    100158821 1707    09      1         08      1         005935   006919   010195   016867   017748   017146   029925   036226   018529   013288   014203   011373                                      
120500600110012 00750 1110231VIADUC DE MILLAU SUD2220953DEP HERAULT         2520695A 75 LA CAVALERIE   2380210030012030012          00000000000998      009590 1327    004876   005309   006712   009195   010370   010835   016628   019607   009868   008032   006492   006674               120095881 1317    110096271 1317    100093061 1277    09      1         08      1         005207   005443   006311   009732   009918   010393   017381   018567   010302   008335   006653   006500                                      
120500600210012 00750 1110231VIADUC DE MILLAU SUD2220953DEP HERAULT         2520695A 75 LA CAVALERIE   2380210030012030012          00000000000998      009549 1637    004865   005153   006533   008562   010454   009973   013882   021958   011207   008326   006687   006503               120097771 1247    110096291 1257    100094091 1257    09      1         08      1         005134   005663   006301   009158   010122   009505   014599   020836   011553   007704   010173   006353                                      
120500600310012 00750 1110231VIADUC DE MILLAU SUD2220953DEP HERAULT         2520695A 75 LA CAVALERIE   2380210030012030012          00000000000998      019139 1447    009741   010462   013245   017757   020824   020808   030510   041565   021075   016358   013179   013177               120193651 1277    110192561 1287    100187151 1267    09      1         08      1         010341   011106   012612   018890   020040   019898   031980   039403   021855   016039   016826   012853                                      
340001500310012 01090 4113001SUD GIGNAC          0200000NORD GIGNAC         0320000GIGNAC 34           0300700012000012000340000500300000000000490      012132  697    009716   010301   010942   012038   012546   012694   014031   015360   012763   012547   011292   011181               120109701  667    110114081  657    100102791  677    09      1         08      1         009792   009794   010832   011720   011672   011391   011193   011198   010796   011575   010841   010783                                      
340001500110012 01090 4113001SUD GIGNAC          0200000NORD GIGNAC         0320000GIGNAC 34           0300700012000012000340000500300000000000490      012136  697    009708   010293   010933   012028   012536   012684   014018   015349   012753   012707   011282   011172               120109661  667    110113851  657    100102421  677    09      1         08      1         009785   009787   010824   011709   011670   011402   011214   011199   010794   010770   010785   011609                                      
340001500210012 01090 4113001SUD GIGNAC          0200000NORD GIGNAC         0320000GIGNAC 34           0300700012000012000340000500300000000000490      012602  747    010263   010657   011168   012640   012985   013281   014674   015658   013327   013003   011870   011533               120112501  727    110120391  737    100106581  737    09      1         08      1         010402   010206   011132   012222   012266   011769   011685   011532   011156   011090   011052   010454                                      
340000500110012 00750 1110241NORD RN 109         2800000RN 109              2900450LODEVE_SUD          2800200010450010450          00000000000490      012563 1067    007756   008216   009630   012298   012786   014053   019536   022146   013110   011154   010007   009620               120102711 1087    110124811 1057    100117851 1027    09      1         08      1         008095   008048   009303   012481   012149   011469   011170   010541   009972   010738   009901   009326                                      
340000500210012 00750 1110241NORD RN 109         2800000RN 109              2900450LODEVE_SUD          2800200010450010450          00000000000490      011468  897    007257   007627   008991   010982   012439   012368   016089   022903   013502   010692   007888   006466               120096841 1037    110118531 1017    100104661 1047    09      1         08      1         007568   007500   008825   011378   011227   010895   010570   010208   009479   010404   009412   008677                                      
340000500310012 00750 1113041NORD RN 109         2800000RN 109              2900450LODEVE_SUD          2800200010450010450          00000000000490      024031  977    015013   015843   018621   023280   025225   026421   035625   045049   026612   021846   017895   016086               120199551 1067    110243341 1037    100222511 1037    09      1         08      1         015663   015548   018128   023859   023376   022364   021740   020749   019451   021142   019313   018003                                      
340001404110012 01090 4110101EB 20 MONTPELLIER   0040000A 750               0100000JUVIGNAC OUEST      0050000006000006000                    0190      016970  497    014007   014633   015559   017503   017931   018405   019224   020155   017728   016809   015977   015529               120135471  507    110153691  527    100141931  537    09      1         08      1         011243   010139   011448   016266   015385   014439   014262   014220   013682   013556   013408   014409                                      
340001404210012 01090 4110101EB 20 MONTPELLIER   0040000A 750               0100000JUVIGNAC OUEST      0050000006000006000                    0190      017948  537    015261   015615   016522   018242   018799   019449   020379   020940   018853   017454   017152   016504               120153101  567    110156831  597    100080451  377    09      1         08      1         014747   014532   015687   016559   016087   015442   015412   015271   014787   014751   014836   015569                                      
340001404310012 01090 4810101EB 20 MONTPELLIER   0040000A 750               0100000JUVIGNAC OUEST      0050000006000006000          00000000000190      034918  517    029268   030248   032081   035745   036730   037854   039603   041095   036581   034263   033129   032033               120288578  537    110310528  567    100222388  487    09      8         08      8         025990   024671   027135   032825   031472   029881   029674   029491   028469   028307   028244   029978                                      
480500100110012 00750 1110241LIMITE CANTAL       1140527LA GARDE SUD        1160943ALBARET_MARI_M      1160700002416002416480500100300000000001101      006240 1277    003266   003409   004441   005932   006577   006789   011454   012930   005994   005134   004139   004471               120061951 1247    110062611 1367    100060131 1347    09      1         08      1         003393   004006   004099   006415   006193   006445   012011   012030   006377   005005   003766   004416                                      
480500101110012 00750 2110201LA GARDE            1160700LA GARDE            1160700ALBARET_MARI_M      1160700000000000000480500100300000000000794      000271 1857    000313                              000017   000018                              000001   000001   000001               120006081 1687    110011471 1607    100011371 1647    09      1         08      1         000695   000658   000661   000730   000708   000705   000691   000613   000452   000361   000832   000184                                      
480500400110012 00750 1110241ST CHELY-SUD        1270799AUMONT-NORD         1330830AUMONT-NORD         1330830006053006053480500400300000010030393      006776 1587    003303   003522   004619   006389   007151   007618   013247   014163   006551   005497   004183   004672               120071251 1737    110057261 1737    100056431         09      1         08      1         003421   003722   004233   006968   006709   007210   013764   014084   008963   006545   005131   004531                                      
480500400210012 00750 1110241ST CHELY-SUD        1270799AUMONT-NORD         1330830AUMONT-NORD         1330830006053006053480500400348000010030393      006908 1327    003507   003533   004428   005986   007685   006819   009965   017424   008326   005658   004666   004513               120072201 1037    110053361 1067    100047911         09      1         08      1         003552   003590   004320   006410   006987   006313   010650   016507   010415   007404   005821   004405                                      
480500400310012 00750 1110241ST CHELY-SUD        1270799AUMONT-NORD         1330830AUMONT-NORD         1330830006053006053480500400348000010030393      013684 1457    006810   007055   009047   012375   014836   014437   023212   031587   014877   011155   008849   009185               120143451 1367    110110621 1357    100104341         09      1         08      1         006973   007312   008553   013378   013696   013523   024414   030591   019378   013949   010952   008936                                      
480500600110012 00750 1110241ECH.37 LE BUISSON   1460000ECH.39 LE MONASTIER 1610000CHIRAC              15800000151000151006305019003          0199      004402 1377    003096   003304   004419   006204   007013   007347   012553   005370   001145   000897   000632   000662               120066231 1407    110076731 1307    100061801 1407    09      1         08      1         003197   003519   004089   006671   006495   007057   013358   013799   006791   004871   005128   004278                                      
480500600210012 00750 1110241ECH.37 LE BUISSON   1460000ECH.39 LE MONASTIER 1610000CHIRAC              15800000151000151006305019003          0199      003848  337    003207   003209   004213   005748   004740   003682   009479   007450   001791   001003   000788   000693               120067201  297    110084761  287    100065931  337    09      1         08      1         003262   003385   004135   006223   006886   006281   010677   016739   008426   005090   005152   004136                                      
480500600310012 00750 1110241ECH.37 LE BUISSON   1460000ECH.39 LE MONASTIER 1610000CHIRAC              15800000151000151006305019003          0199      008250 1107    006303   006513   008632   011952   011753   011029   022032   012820   002936   001900   001420   001355               120133431 1197    110161491 1077    100127731 1187    09      1         08      1         006459   006904   008224   012894   013381   013338   024035   030538   015217   009961   010280   008414                                      
480500800110012 00750 1110241ECH.40 BANASSAC     1720047LIMITE AVEYRON      1790296BANASSAC            1720100007249007249630501900300000000000199      007014 1427    003512   003749   004988   006902   007468   007755   014113   015455   005921   004243   004844   004811               120073771 1487    110084541 1377    100071201 1437    09      1         08      1         003678   004010   004632   007486   007352   007808   014290   014798   007665   006324   005594   004635                                      
480500801110012 00750 2111001                    0000000                    0010000BANASSAC            0000005001000001000630501900300000000000199      000318 9687    000342                                                                           000007                                 120001071         110004871         100004551         09      1         08      1         000248            000155                     000155                     000118   000097   000067   000038                                      
480500701110012 00750 2111001A75                 0000000N9                  0010000BANASSAC            0000005001000001000630501900300000000000199      000062 10007    000062                                                                                                                  120000881 3047    110004061         100003891         09      1         08      1         000202            000129                     000129                     000094   000078   000055   000032                                      
480500700110012 00750 1110241ECH.39 LE MONASTIER 1610724ECH.40 BANASSAC     1720047ST GERMAIN DU TEIL  1670000010323010323630501900300000000000199      008340 1207    004348   004635   005922   007914   010069            015312   016711   009044   006918   005493   005941               120086721 1217    110062831 1417    10      1         09      1         08      1         004622   004935   005583   008490   008355   008899   015481   016028   011776   007692   006301   005599                                      
480002300110012 01060 4113001INTER.D984-JALCRESTE0221020INTER.D907-FLORAC   0440660FLORAC_SUD          0380500020631020631480002500300000000000995      001900 1387    001236   001281   001530   001768   002098   001986   002654   003388   002061   001752   001505   001475               120013721 1357    11      1         10      1         09      1         08      1         001358   001327   001345   001333   001386   001392   001374   001400   001370   001383   001390   001401                                      
480002300210012 01060 4113001INTER.D984-JALCRESTE0221020INTER.D907-FLORAC   0440660FLORAC_SUD          0380500020631020631480002500300000000000995      001712 1547    001154   001175   001358   001604   001952   001783   002354   002859   001885   001615   001400   001349               120012701 1417    11      1         10      1         09      1         08      1         001272   001270   001246   001237   001272   001277   001266   001284   001260   001271   001295   001290                                      
480002300310012 01060 4113001INTER.D98-JALCRESTE 0221020INTER.D907-FLORAC   0440660FLORAC_SUD          0380500020631020631480002500300000000000995      003612 1467    002390   002456   002888   003372   004050   003769   005008   006247   003946   003367   002905   002824               120026421 1387    11      1         10      1         09      1         08      1         002630   002597   002591   002570   002658   002669   002640   002684   002630   002654   002685   002691                                      
480002400110012 01060 4112001INTER.D907-FLORAC   0440660INTER.D907B         0510305FLORAC              0490000006245005698480002500300000000001287      001716  587    001146   001179   001325   001544   001732   001762   002499   003142   002024   001419   001383   001375               120017381  587    110017511  587    100017291  587    09      1         08      1         001201   001166   001372   001590   001746   001836   002478   003091   001951   001650   001505   001220                                      
480002400210012 01060 4112001INTER.D907-FLORAC   0440660INTER.D907B         0510305FLORAC              0490000006245005698480002500300000000001287      001963  817    001339   001403   001573   001821   001961   002061   002914   003305   002253   001655   001616   001596               120019951  797    110020161  807    100019511  767    09      1         08      1         001411   001406   001668   001853   001994   002142   002907   003259   002183   001909   001749   001411                                      
480002400310012 01060 4112001INTER.D907-FLORAC   0440660INTER.D907B-R.PERCEE0510305FLORAC              0490000006245005698480002500300000000001287      003679  707    002485   002582   002898   003365   003693   003823   005413   006447   004277   003074   002999   002971               120037331  697    110037671  707    100036801  687    09      1         08      1         002612   002572   003040   003443   003740   003978   005385   006350   004134   003559   003254   002631                                      
480000900110012 00880 4113001N102-ARDECHE        0000000INTERS.D906         0020000LANGOGNE            0010460002298000790480000900300000000000592      002468 1097    001599   001470   001850   002172   002602   002624   003222   004293   002803   002247   002279   002242               120026831  947    110025101 1137    100024351 1117    09      1         08      1         002492   002715   002652   002646   002611   002675   002642   004225   002712   002264   002259   002294                                      
480000900210012 00880 4113001N102-ARDECHE        0000000INTERS.D906         0020000LANGOGNE            0010460002298000790480000900300000000000592      002388  877    001587   001450   001765   002110   002558   002525   002958   004227   002819   002142   002170   002154               120026371  727    110024341  917    100023661  907    09      1         08      1         002447   002640   002571   002586   002547   002601   002585   004178   002726   002241   002233   002271                                      
480000900310012 00880 4113001N102-ARDECHE        0000000INTERS.D906         0020000LANGOGNE            0010460002298000790480000900300000000000592      004856  987    003186   002920   003615   004282   005160   005149   006180   008520   005622   004389   004449   004396               120053201  837    110049441 1027    100048011 1007    09      1         08      1         004939   005355   005223   005232   005158   005276   005227   008403   005438   004505   004492   004565                                      
480001900110012 00880 4113001CARR.RN106 BALSIEGES0580619CARR.RN108 BARJAC   0650751BALSIEGES           0590200006756006640480001900300000000001192      003035         002281   002420   002727   002958   002991   002825   004131   005008   003703   002292   002393   002628               120033061         110033751         100032661         09      1         08      1         002510   002595   002889   003223   003431   003528   004426   004902   003597   003544   002891   002070                                      
480001900210012 00880 4113001CARR.RN106 BALSIEGES0580619CARR.RN108 BARJAC   0650751BALSIEGES           0590200006756006640480001900300000000001192      002125         001453   001645   001155   001249   001398   003203   003763   003034   001425   002629   002456   002038               120027181         110031321         100031061         09      1         08      1         002359   002403   002659   002952   003166   002341   003795   003039   002594   003069   002339   001850                                      
480001900310012 00880 4113001CARR.RN106 BALSIEGES0580619CARR.RN108 BARJAC   0650751BALSIEGES           0590200006756006640480001900300000000001192      005160         003734   004065   003882   004207   004389   006028   007894   008042   005128   004921   004849   004666               120060241         110065071         100063721         09      1         08      1         004869   004998   005548   006175   006597   005869   008221   007941   006191   006613   005230   003920                                      
480002100110012 00880 4113001INTER.D31-CHANAC    0710883INTER.N9-AJUSTONS   0840280CHANAC              0740500011181011181480002500300000000001192      002298 1417    001464   001543   001842   002112   002470   002440   003120   003840   002452   002181   001918   002116               120021871 1347    110022851 1367    100021961 1377    09      1         08      1         001548   001577   001832   002222   002436   002321   002196   003762   002489   002249   001916   001665                                      
480002100210012 00880 4113001INTER.D31-CHANAC    0710883INTER.N9-AJUSTONS   0840280CHANAC              0740500011181011181480002500300000000001192      002181 1317    001436   001497   001771   002032   002382   002306   002911   003385   002384   002101   001868   002025               120020641 1257    110021361 1307    100020351 1307    09      1         08      1         001508   001530   001763   002102   002301   002185   002070   003332   002329   002176   001839   001609                                      
480002100310012 00880 4113001INTER.D31-CHANAC    0710883INTER.N9-AJUSTONS   0840280CHANAC              0740500011181011181480002500300000000001192      004479 1377    002900   003040   003613   004144   004852   004746   006031   007225   004836   004282   003786   004141               120042511 1307    110044211 1337    100042311 1347    09      1         08      1         003056   003107   003595   004324   004737   004506   004266   007094   004818   004425   003755   003274                                      
480001800110012 00880 4113001EB20 MENDE          0530185CARR.RN106 BALSIEGES0580619MENDE-SUD           0550300005284005015480001900300000000000793      004658  967    003927   003984   004250   004690   004967   005016   005635   005166   004600   004704   004319   004574               120048051  987    110048791  997    100048691 1007    09      1         08      1         004018   004068   004463   004642   004900   005128   005955   006085   005096   004718   004428   004114                                      
480001800210012 00880 4113001EB20 MENDE          0530185CARR.RN106 BALSIEGES0580619MENDE-SUD           0550300005284005015480001900300000000000793      004294  827    003686   003747   003962   004215   004588   004694   005055   004628   004259   004348   004070   004223               120044421  807    110045481  817    100045031  837    09      1         08      1         003803   003764   004165   004294   004549   004640   005406   005603   004712   004415   004087   003819                                      
480001800310012 00880 4113001EB20 MENDE          0530185CARR.RN106 BALSIEGES0580619MENDE-SUD           0550300005284005015480001900300000000000793      008952  897    007613   007731   008212   008905   009555   009710   010690   009794   008859   009052   008389   008797               120092471  897    110094271  907    100093721  927    09      1         08      1         007821   007832   008628   008936   009449   009768   011361   011688   009808   009133   008515   007933                                      
480002500110012 01060 4112001CARR.D907B          0510305ST BAUZILE D41      0730660FLORAC_NORD         0530900021847021847480002500300000000000995      000732 1787    000329   000352   000395   000501   000669   000664   001191   001672   000777   000815   000736   000639               120005451 1777    110006591 1547    100006561 1587    09      1         08      1         000316   000337   000414   000539   000644   000634   000589   001024   000739   000507   000445   000345                                      
480002500210012 01060 4112001CARR.D907B          0510305ST BAUZILE D41      0730660FLORAC_NORD         0530900021847021847480002500300000000000995      000481 2157    000379   000400   000443   000540   000622   000638   000434   000862   000723   000202   000111   000413               120005411 2167    110006591 1937    100006581 1937    09      1         08      1         000365   000388   000445   000554   000607   000632   000591   000817   000690   000525   000473   000403                                      
480002500310012 01060 4112001CARR.D907B          0510305ST BAUZILE D41      0730660FLORAC_NORD         0530900021847021847480002500300000000000995      001213 1937    000708   000752   000838   001041   001291   001302   001625   002534   001500   001017   000847   001052               120010861 1967    110013181 1737    100013141 1757    09      1         08      1         000681   000725   000859   001093   001251   001266   001180   001841   001429   001032   000918   000748                                      
340001501110012 07500 4110201NORD GIGNAC         0320000A 75                0380625ST FELIX DE LODEZ   0370600006625006625340000500300000000000402      013896  747    010885   011464   012454   013778   014573   014838   016514   018227   014576   013940   012743   012531               120121351  747    110125191  727    10      1         09      1         08      1         010607   010752   012134   013273   013347   012246   012083   012268   012080   012570   012010   012195                                      
340001501310012 07500 4110201NORD GIGNAC         0320000A 75                0380625ST FELIX DE LODEZ   0370600006625006625340000500300000000000402      026498  747    021148   022121   023622   026418   027558   028119   031188   033885   027903   026943   024613   024064               120233851  737    110245581  727    100006591         09      1         08      1         021009   020958   023266   025495   025613   024015   023768   023800   023236   023660   023062   022649                                      
340001501210012 07500 4110201NORD GIGNAC         0320000A 75                0380625ST FELIX DE LODEZ   0370600006625006625340000500300000000000402      013271  747    010496   010944   011592   013250   013799   014100   015926   017190   014052   013448   012273   011977               120116761  747    110121781  737    10      1         09      1         08      1         010660   010482   011580   012868   012732   011716   011691   011768   011654   012022   011510   011388                                      
480500100210012 00750 1110241LIMITE CANTAL       1140527LA GARDE SUD        1160943ALBARET_MARI_F      1160700002416002416480500100300000000000592      007540 1447    004123   004016   005185   006979   009137   007586   010634   018519   008465   005791   004869   004756               120084401 1427    110084501 1287    100082471 1277    09      1         08      1         004208   004204   005092   007704   008476   008236   013222   020822   012468   006229   004978   005351                                      
480500101310012 00750 2110201LA GARDE            1160700LA GARDE            1160700ALBARET_MARI_M      1160700000000000000480500100300000000000794      007811 1447    004436                              009154   007604   000635   008520            005792   004870   004757               120090481 1437    110095971 1317    100093841 1287    09      1         08      1         004903   004862   005753   008434   009184   008941   013913   021435   012920   006590   005810   005535                                      
480500100310012 00750 1110241LIMITE CANTAL       1140527LA GARDE SUD        1160943ALBARET_MARI_M      1160700002416002416480500100300000000000592      013780 1367    007389   007425   009626   012911   015714   014375   022088   031449   014459   010925   009008   009227               120146351 1347    110147111 1317    100142601 1307    09      1         08      1         007601   008210   009191   014119   014669   014681   025233   032852   018845   011234   008744   009767                                      
480500101210012 00750 2110201LA GARDE            1160700LA GARDE            1160700ALBARET_MARI_F      1160700000000000000480500100300000000000794      001123 1547    000461   000440   000578   000866   001198   001089   001872   003488   001361   000785   000622   000637               120011731 1757    110011721 1417    100011661 1477    09      1         08      1         000485   000481   000586   001018   001131   001132   002024   003349   001837   000760   000564   000655                                      
480500800210012 00750 1110241ECH.40 BANASSAC     1720047LIMITE AVEYRON      1790296BANASSAC            1720100007249007249630501900300000000000199      006955 1827    003657   003642   004756   006356   007391   006922   011203   017683   006800   004903   004880   004861               120072461 1927    110090821 1817    100072191 1957    09      1         08      1         003784   003811   004604   006927   007624   006967   011279   017106   008753   005618   005612   004622                                      
480500801310012 00750 2111001ECH.40              0000000ECH.40              0010000BANASSAC            0000005001000001000630501900300000000000199      007273 1867    003999                                                001204   007684            004910                                 120073531         110095691         100076741         09      1         08      1         004032            004759                     007122   001280   007107   008871   005715   005679   004660                                      
480500800310012 00750 1110241ECH.40 BANASSAC     1720047LIMITE AVEYRON      1790296BANASSAC            1720100007249007249630501900300000000000199      013969 1627    007169   007391   009744   013258   014859   014677   025316   033138   012721   009146   009724   009672               120146231 1677    110175361 1567    100143391 1657    09      1         08      1         007462   007821   009236   014413   014976   014775   025569   031904   016418   011942   011206   009257                                      
480500801210012 00750 2111001A75                 0000000N9                  0010000BANASSAC            0000005001000001000630501900300000000000199                                                                                                                                             120001301         110006881         100006091         09      1         08      1                           000176                     000175                     000120            000047                                               
480500701210012 00750 2111001N9                  0000000A75                 0010000BANASSAC            0000005001000001000630501900300000000000199                                                                                                                                             120000991         110005421         100004691         09      1         08      1                           000139                     000138                     000087            000034   000003                                      
480500700310012 00750 1110241ECH.39 LE MONASTIER 1610724ECH.40 BANASSAC     1720047ST GERMAIN DU TEIL  1670000010323010323630501900300000000000199                                                         000070            005313   006712                                                   120087711         110068251         10      1         09      1         08      1                           005722                     009037   005482   006029   011863            006335   005602                                      
480500701310012 00750 2111001ECH.40              0000000ECH.40              0010000BANASSAC            0000005001000001000630501900300000000000199                                                                                                                                             120001871         110009481         100008581         09      1         08      1                           000268                     000267                     000181            000089   000035                                      
480500700210012 00750 1110241ECH.39 LE MONASTIER 1610724ECH.40 BANASSAC     1720047ST GERMAIN DU TEIL  1670000010323010323630501900300000000000199      005606 1427    004291   004288   005427   007091   010892            005399                     005195   005330   005518               120082101 1217    110060271 1457    10      1         09      1         08      1         004171   004490   005393   007459   008352   007795   012271   018290   011610   006387   006671   005316                                      
150500200110012 00750 1110241MASSIAC NORD        0630988MASSIAC SUD         0680500MASSIAC             0670600004512004512          00000000001200      007374 1497    003478   003679   004951   006777   007637   007839   013696   015326   009246   005987   004422   005054               120071861 1577    110073661 1797    100069061 1807    09      1         08      1         003636   004221   004617   007390   007018   007810   014362   014478   007118   005645   004804   004888                                      
150500200210012 00750 1110241MASSIAC NORD        0630988MASSIAC SUD         0680500MASSIAC             0670600004512004512          00000000001200      007392 1447    003689   003526   004646   006211   007999   007088   010553   018211   010608   006019   004962   004799               120072011 1467    110073891 1557    100076101 1797    09      1         08      1         003774   003918   004536   006732   007369   006824   011169   017228   009087   005559   005368   004613                                      
150500200310012 00750 1110241MASSIAC NORD        0630988MASSIAC SUD         0680500MASSIAC             0670600004512004512          00000000001200      014766 1467    007167   007205   009597   012988   015636   014927   024249   033537   019854   012006   009384   009853               120143871 1527    110147551 1677    100145161 1807    09      1         08      1         007410   008139   009153   014122   014387   014634   025531   031706   016205   011204   010172   009501                                      
150500300110012 00750 1110241MASSIAC SUD         0680500VIELLESPESSE        0840600SALBAS              0760300016100016100          000      01200      007469 1387    003862   004062   004961   000023   000175   008723   013931   015937   007434   006428   004829   005427               120076091 1667    110062431 1757    10      1         09      1         08      1         004035   004305   005041   007846   007861   008319   014586   014962   007606   005966   005225   005294                                      
150500300210012 00750 1110241MASSIAC SUD         0680500VIELLESPESSE        0840600SALBAS              0760300016100016100          000      01200      006514 1407    004105   003940   005097   006686   008491   004891   010722   018850   009107   003589   001117   001033               120076291 1467    110065171 1657    10      1         09      1         08      1         004217   004061   005008   007200   007656   007309   011617   017804   009554   006002   005823   005052                                      
150500300310012 00750 1110241MASSIAC SUD         0680500VIELLESPESSE        0840600SALBAS              0760300016100016100          000      01200      013983 1397    007967   008002   010058   006709   008666   013614   024653   034787   016541   010017   005946   006460               120152381 1567    110127601 1707    10      1         09      1         08      1         008252   008366   010049   015046   015517   015628   026203   032766   017160   011968   011048   010346                                      
150500400110012 00750 1110241VIELLESPESSE        0840600ST FLOUR NORD       0920550ST FLOUR NORD ( M ) 0910400007950007950          000      01200      006370 1387    004010   004193   005498   007362   007347   007434   009691   010517   002909   006569   005008   005602               120067941 1417    110062681 1707    10      1         09      1         08      1         004147   004480   005174   007913   007760   008447   012738   008398   005537   006047   005296   005441                                      
150500500110012 00750 1110241ST FLOUR NORD       0920550ST FLOUR SUD        0960300ST FLOUR ( M )      0930300003750003750          000      01200      006502 1537    003040   003200   004323   006144   006931   007263   012467   014517   006180   005265   003872   004423               120065541 1577    110057271 2497    100033821 2107    09      1         08      1         003172   003473   004005   006686   006475   007159   013651   014021   006469   004813   004158   004308                                      
150500600110012 00750 1110241ST FLOUR SUD        0960300LIMITE LOZERE       1140610LOUBARESSE          1120800018310018310          000      01294      006728 1457    003515   003698   004868   006710   005882   007079   013783   012852   006863   005805   004377   004952               120072611 1477    110078311 1597    100037631 1867    09      1         08      1         004027   005008   005259   007363   007097   007750   014086   014439   007016   005335   004696   004838                                      
150500600210012 00750 1110241ST FLOUR SUD        0960300LIMITE LOZERE       1140610LOUBARESSE          1120800018310018310          000      00300      006955 1587    003652   003560   004595   006157   005347   006314   013137   017184   008438   005908   004831   004736               120072661 1537    110080001 1687    100038891 1937    09      1         08      1         003998   004734   005151   006790   006985   006781   011304   017098   008895   005428   005202   004613                                      
150500600310012 00750 1110241ST FLOUR SUD        0960300LIMITE LOZERE       1140610LOUBARESSE          1120800018310018310          000      00300      013683 1527    007167   007258   009463   012867   011229   013393   026920   030036   015301   011713   009208   009688               120145271 1507    110158311 1647    100076521 1897    09      1         08      1         008025   009742   010410   014153   014082   014531   025390   031537   015911   010763   009898   009451                                      
150500400210012 00750 1110241VIELLESPESSE        0840600ST FLOUR NORD       0920550ST FLOUR NORD ( F ) 0910400007950007950          000      01200      007749 1417    004133   003965   005120   006711   008521   007657   011153   018948   009074   006543   005466   005264               120077191 1407    11      1         100042751 1797    09      1         08      1         003856   004139   005034   007228   007730   007703   011380   017742   009797   006318   006000   005087                                      
150500400310012 00750 111 241VIELLESPESSE        0840600ST FLOUR NORD       0920550ST FLOUR NORD       0910400007950007950                    1200      014119 1397    008143   008158   010618   014073   015868   015091   020844   029465   011983   013112   010474   010866               120145131 1407    11      1         10      1         09      1         08      1         008003   008619   010208   015141   015490   016150   024118   026140   015334   012365   011296   010528                                      
150500500210012 00750 1110241ST FLOUR NORD       0920550ST FLOUR SUD        0960300ST FLOUR ( F )      0930300003750003750          000      01200      006600 1527    003218   003079   004097   005640   007383   006509   009958   017555   007321   005388   004393   004231               120065571 1877    11      1         100033051 2067    09      1         08      1         003287   003232   003996   006114   006733   006285   010412   016242   008363   004958   004724   004099                                      
150500500310012 00750 111 241ST FLOUR NORD       0920550ST FLOUR SUD        0960300ST FLOUR            0930300003750003750                    1200      013102 1527    006258   006279   008420   011784   014314   013772   022425   032072   013501   010653   008265   008654               120131111 1697    11      1         100066871 2087    09      1         08      1         006459   006705   008001   012800   013208   013444   024063   030263   014832   009771   008882   008407                                      
150001900110012 01220 4113001NEUSSARGUES-MOISSAC 1100900MASSIAC CARF.RN 9   1360144LA ROCHE            1330000025244025244          000      31294      001752 1327    001456   001555   001725   001658   001774   001812   001903   002263   001853   001674   001677   001661               120017561 1357    110018081 1507    100018221 1737    09      1         08      1         001449   001570   001667   001643   001720   001819   002189   002244   001831   001743   001705   001479                                      
150001900210012 01220 4113001NEUSSARGUES-MOISSAC 1100900MASSIAC CARF.RN 9   1360144LA ROCHE            1330000025244025244          000      31294      001778 1367    001399   001618   001749   001672   001783   001870   002044   002223   001837   001711   001728   001686               120017701 1367    110018281 1387    100018351 1377    09      1         08      1         001406   001642   001664   001686   001737   001860   002163   002203   001820   001801   001685   001561                                      
150001900310012 01220 4113001NEUSSARGUES-MOISSAC 1100900MASSIAC CARF.RN 9   1360144LA ROCHE            1330000025244025244          00000000031294      003530 1347    002855   003173   003474   003330   003557   003682   003947   004486   003690   003385   003405   003347               120035261 1367    110036361 1447    100036571 1567    09      1         08      1         002855   003212   003331   003329   003457   003679   004352   004447   003651   003544   003390   003040                                      
150001700110012 01220 4113 51TUNNEL DU LIORAN    0880000MURAT               1010850LA GRANGE DE GANILH 09708500138500138500000000000          1200      002931 1037    002465   002922   003027   002581   002729   002893   003245   003815   002960   002856   002763   002893               120029151 1057    110030061 1057    100029641 1037    09      1         08      1         002483   003066   002863   002560   002869   002876   003214   003834   002975   002787   002743   002702                                      
150001700210012 01220 4113 51TUNNEL DU LIORAN    0880000MURAT               1010850LA GRANGE DE GANILH 09708500138500138500000000000          1200      002947 1047    002471   002967   003034   002606   002726   002911   003324   003794   002939   002904   002759   002913               120029281 1077    110030081 1067    100029931 1037    09      1         08      1         002465   003134   002848   002591   002864   002911   003289   003757   002951   002820   002784   002718                                      
150001700310012 01220 4113 51TUNNEL DU LIORAN    0880000MURAT               1010850LA GRANGE DE GANILH 09708500138500138500000000000          1200      005878 1037    004936   005889   006061   005187   005455   005804   006569   007609   005899   005760   005522   005806               120058431 1067    110060141 1067    100059571 1037    09      1         08      1         004948   006200   005711   005151   005733   005787   006503   007591   005926   005607   005527   005420                                      
150001500110012 01220 4113001BANCOU              0530380VIC SUR CERE        0680800MEYMAC              06202000154200154200000000000000      01287      003751  857    003308   003610   003841   003658   003731   003968   004150   003931   003726   003859   003498   003696               120038471  877    110039461  907    100039361  857    09      1         08      1         003483   003816   003792   003619   003837   003978   004154   004548   003953   003863   003705   003412                                      
150001500210012 01220 4113001BANCOU              0530380VIC SUR CERE        0680800MEYMAC              06202000154200154200000000000000      01287      003754  897    003318   003590   003876   003671   003717   003955   004169   003938   003725   003871   003483   003698               120038451  907    110039391  937    100039251  887    09      1         08      1         003513   003852   003797   003625   003821   003979   004159   004475   003936   003874   003715   003386                                      
150001500310012 01220 4113001BANCOU              0530380VIC SUR CERE        0680800MEYMAC              06202000154200154200000000000000      01287      007505  877    006626   007200   007717   007329   007448   007923   008319   007869   007451   007730   006981   007394               120076921  897    110078851  927    100078611  867    09      1         08      1         006996   007668   007589   007244   007658   007957   008313   009023   007889   007737   007420   006798                                      
150001200110012 01220 4113001MAURS               0050100LE ROUGET CARF.CD 200270800LE MARTINET         01507000227000227001500015003000      01294      001780  977    001512   001637   001760   001764   001806   001617   002121   002285   001841   001707   001651   001641               120017981  947    110018591  967    100018991         09      1         08      1         001548   001591   001746   001766   001787   001635   002113   002283   001782   001894   001758   001658                                      
150001200210012 01220 4113001MAURS               0050100LE ROUGET CARF.CD 200270800LE MARTINET         01507000227000227001500015003000      01294      001783 1347    001495   001625   001718   001738   001858   001872   002063   002261   001809   001687   001633   001619               120018071 1297    110018301 1257    100018761         09      1         08      1         001527   001579   001704   001739   001835   001897   002059   002262   001782   001887   001754   001648                                      
150001200310012 01220 4113001MAURS               0050100LE ROUGET CARF.CD 200270800LE MARTINET         01507000227000227001500015003000      01294      003563 1157    003007   003262   003478   003502   003664   003489   004184   004546   003650   003394   003284   003260               120036051 1127    110036891 1107    100037751         09      1         08      1         003075   003170   003450   003505   003622   003532   004172   004545   003564   003781   003512   003306                                      
070003300110012 01020 4113001CAR CD536           0530729MAYRES              0680187THUEYTS           B 0600000014317014317070003300300000000000188      002342 1237    001486   001541   001874   002395   002863   002963   003759   002561   002274   002196   001972   002150               120026881 1197    110027011 1197    100026461 1177    09      1         08      1         001529   001564   001888   002529   002962   002967   003992   005030   003108   002940   002009   001659                                      
070003300210012 01020 4113001CAR CD536           0530729MAYRES              0680187THUEYTS           B 0600000014317014317070003300300000000000188      002385 1197    001514   001556   001881   002482   002831   003051   003956   002559   002304   002230   001993   002189               120026961 1127    110027071 1117    100026401 1067    09      1         08      1         001570   001572   001902   002552   002952   003018   004174   004845   003053   002956   002025   001655                                      
070003300310012 01020 4113001CAR CD536           0530729MAYRES              0680187THUEYTS           B 0600000014317014317070003300300000000000188      004727 1217    003000   003097   003755   004877   005694   006014   007715   005120   004578   004426   003965   004339               120053841 1167    110054081 1157    100052861 1117    09      1         08      1         003099   003136   003790   005081   005914   005985   008166   009875   006161   005896   004034   003314                                      
070003500110012 01020 4113001CARD108             0840161LIMIT43             0941069PEREBEILLE          0940000011024011024          00000000000101      001570 1447    000917   000924   001191   001540   001986   001964   002380   002116   001561   001624   001258   001500               120018531 1357    110016131 1467    10      1         09      1         08      1         000995   000971   001256   001689   002060   001965   002892   003999   002172   001594   001476   001090                                      
070003500210012 01020 4113001CARD108             0840161LIMIT43             0941069PEREBEILLE          0940000011024011024          00000000000101      001617 1587    000921   000931   001207   001602   001936   002041   002649   002253   001590   001617   001276   001546               120018531 1477    110015811 1557    10      1         09      1         08      1         001003   000977   001262   001717   002024   002038   003164   003758   002082   001567   001478   001093                                      
070003500310012 01020 4113001CAR CD108           0840161LIMITE DEPT43       0941069PEYRABEILLE       B 0890400011024011024          00000000000188      003187 1517    001838   001855   002398   003142   003922   004005   005029   004369   003151   003241   002534   003046               120037061 1417    110031941 1507    10      1         09      1         08      1         001998   001948   002518   003406   004084   004003   006056   007757   004254   003161   002954   002183                                      
070003200110012 01020 4113001CARD578             0440616CARD536             0530729LALEVADE            0470000009115009115070003300300000000000105      006209  597    004767   004871   005341   005902   006477   006716   007923   008941   006000   005991   005518   005909               120062651  627    110062721  627    100056511  657    09      1         08      1         004848   004837   005497   005972   006424   006717   007941   008840   006796   006427   005686   005107                                      
070003200210012 01020 4113001CARD578             0440616CARD536             0530729LALEVADE            0470000009115009115070003300300000000000105      006277  617    004827   004897   005339   006022   006470   006825   008122   008974   006076   006050   005571   005994               120062941  637    110062991  647    100056791  657    09      1         08      1         004916   004848   005523   005993   006468   006784   008127   008767   006815   006402   005693   005098                                      
070003200310012 01020 4113001CARD578             0440616CARD536             0530729LALEVADE            0470000009115009115070003300300000000000105      012486  607    009594   009768   010680   011924   012947   013541   016045   017915   012076   012041   011089   011903               120125591  627    110125711  637    100113301  657    09      1         08      1         009764   009685   011020   011965   012892   013501   016068   017607   013611   012829   011379   010205                                      
430000600110012 00880 4113001ECHANGEUR.RD47      0160000ECHANGEUR.RD103     0350835BAL DES NEIGES      0230700019835019835          000      01100      007311  917    006093   006117   006967   007223   007406   007856   008607   008336   007736   007631   006581   007073               120074111  947    110067771  287    100070191  277    09      1         08      1         005820   006243   006953   007632   007375   009567   008482   008079   007773   007498   007062   006449                                      
430002000110012 01020 4113001CARREF.RD513        0560300VIEILLE-BRIOUDE     0740550LA LOCANDA          0640050018450018450430002000300000000001193      004442 1397    003360   003403   003882   004281   004516   004722   005869   006316   004649   004222   004000   003981               120044641 1397    110047361 1367    10      1         09      1         08      1         003541   003454   004064   004376   004528   004693   006102   006082   004276   004632   004169   003580                                      
430002000210012 01020 4113001CARREF.RD513        0560300VIEILLE-BRIOUDE     0740550LA LOCANDA          0640050018450018450430002000300000000001187      004411 1357    003306   003392   003908   004312   004668   004782   005753   005851   004575   004249   004043   003997               120044131 1377    110046541 1317    10      1         09      1         08      1         003491   003462   004040   004517   004848   004573   005803   005664   004222   004579   004125   003567                                      
430002000310012 01020 4113001CARREF.RD513        0560300VIEILLE-BRIOUDE     0740550LA LOCANDA          0640050018450018450430002000300000000001193      008853 1377    006666   006795   007790   008593   009184   009504   011622   012167   009224   008471   008043   007978               120088771 1387    110093901 1347    10      1         09      1         08      1         007032   006916   008104   008893   009376   009266   011905   011746   008498   009211   008294   007147                                      
430000600210012 00880 4113001ECHANGEUR.RD47      0160000ECHANGEUR.RD103     0350835BAL DES NEIGES      0230700019835019835          000      01187      007085 1007    006166   006101   006769   007176   007360   007774   008147   007305   007127   007403   006623   006983               120072411  997    110074101 1027    100071911 1027    09      1         08      1         006400   006117   006975   007182   007662   007622   008122   008069   007940   007471   006942   006342                                      
430000600310012 00880 4113001ECHANGEURD47        0160000ECHANGEUR.RD103     0350835BAL DES NEIGES      0230700019835019835          000      00500      014396  957    012259   012218   013736   014399   014766   015630   016754   015641   014863   015034   013204   014056               120146521  977    110141871  957    100142101  927    09      1         08      1         012220   012360   013928   014814   015037   017189   016604   016148   015713   014969   014004   012791                                      
630501000110012 00750 1110241Carf.RD978          0140634Carf.RD 797C        0180582AUTHEZAT            0170000004115004115630501000100000000001299      035041  987    028024   029048   032269   032529   030320   036385   046213   048197   036291   036952   031040   032678               120376681 1007    110381851 1017    100335231 1227    09      1         08      1         028674   028900   032799   034189   037523   040734   053770   052326   042483   036476   033208   031900                                      
630501000210012 00750 1110241Carf.RD978          0140634Carf.RD797C         0180582AUTHEZAT            0170000004115004115630501000100000000001299      036433 1037    029297   029087   031817   033371   035976   035215   041001   055971   040645   037560   033241   032883               120376211 1067    110378861 1077    100344671 1227    09      1         08      1         029737   028551   033124   032488   037954   038196   046636   057022   046766   036718   034371   031510                                      
630501000310012 00750 1110241Carf.RD978          0140634ECHANGEUR COUDES N80180582AUTHEZAT            0170000004115004115630501000100000000001299      071474 1017    057321   058135   064086   065900   066296   071600   087214   104168   076936   074512   064281   065561               120752891 1037    110760711 1047    100679901 1227    09      1         08      1         058411   057451   065923   066677   075477   078930   100406   109348   089249   073194   067579   063410                                      
630501800310012 00750 1110241Carf. RD76          0450600LIMITE Hte LOIRE    0490000NORD DE LEMPDES     0470000003400003400          43000000011299      008462  997    007951   008410   010268   012126   013192   011680   011766   014748   003280   003677   002008   002381               120105471  977    110111241  827    100116061  877    09      1         08      1         008166   008298   009033   004545   009388   012036   012419   020757   012738   010066   009669   009205                                      
630501800110012 00750 1110241Carf.RD76           0450600LIMITE Hte LOIRE    0490000NORD DE LEMPDES     0470000003400003400          43000000011299      013015 1037    007950   008409   010266   012116   013192   014255   027380   022955   015544   009324                                 120110041  947    110127251 1117    100123951  887    09      1         08      1         007022   006685   009378   006524   011216   011461   017269   020754   012622   009546   009554   009621                                      
630501800210012 00750 1110241Carf.RD76           0450600LIMITE Hte LOIRE    0490000NORD DE LEMPDES     0470000003400003400          43000000011299      012466  487    008863            009432   011571   005195   013272   019090   024436   004402   011784   010078   009855               120124961 1097    110128161 1107    100126021 1277    09      1         08      1         008525   008196   009765   012033   012868   012429   017114   023659   014533   010545   010146   009838                                      
630501900110012 07110 1110241Carf.N89            0000000INTER A72           0060410SORTIE EST          0040000005056005056          00000000001299      044982  557    043147   043403   044495   044540   042400   048212   045322   040781   047484   050663   045108   043687               120452671  537    110444331  537    10      1         09      1         08      1         044150   042584   047527   043346   043354   046884   043378   037870   045065   063557   046000   043715                                      
630501900210012 07110 1110241Carf.RN 89          0000000Carf.A72            0060410SORTIE EST          0040000005056005056          00000000001299      042885  517    041991   042002   043347   043588   040703   044718   043724   037152   044749   047150   042995   042034               120421791  517    110408841  537    10      1         09      1         08      1         042637   041216   044745   042162   042032   045632   042622   036759   043435   041748   041280   042278                                      
630501900310012 07110 1110241Carf.RN 89          0000000Carf. A 72          0060410SORTIE EST          0040000005056005056          00000000001299      087867  537    085138   085405   087842   088128   083103   092930   089046   077933   092233   097813   088103   085721               120874461  527    110853171  537    10      1         09      1         08      1         086787   083800   092272   085508   085386   092516   086000   074629   088500   105305   087280   085993                                      
630500600110012 00750 1150241Ech 1               0020000Carf RD 137         0040810AUBIERE             0020350002810002810630501000100000000001299      031900  887    027940   029022   030820   032211   031168   033992   038778   035291   033052   032582   027989   029667               120323361  887    110320011  887    100308101  877    09      1         08      1         028358   028650   031528   031823   031247   034502   038848   035056   034472   032394   031940   029088                                      
630500600310012 00750 1150241Ech 1               0020000Carf.RD137          0040810AUBIERE             0020350002810002810630501000100000000001299      049152 1057    036687   038291   042500   048042   050112   052509   066243   074127   052178   046914   039554   041471               120489161 1137    110476991 1017    100466921 1207    09      1         08      1         034293   035569   041723   048690   048995   051648   068773   071282   053001   045682   046143   040461                                      
630500600210012 00750 1150241Ech 1               0020000Carf.RD 137         0040810AUBIERE             0020350002810002810630501000100000000001299      094375  827    083307   084353   089322   093776   094366   096934   105727   115161   101058   095583   085242   086684               120952731  817    110942811  817    100935191  797    09      1         08      1         084492   083207   092288   092372   094125   099143   106443   115079   104189   095093   090980   085052                                      
630500800110012 00750 1110241Carf.RD 978         0060210Carf.RD213          0090956noviale             0060500003888003888630501000100000000001299      051544  787    042432   044520   048198   051120   050376   055157   066385   064617   050010   051903   045257   047580               120640441  857    110571491  837    100511791  597    09      1         08      1         042689   042745   046673   048909   049565   052662   061805   064835   053722   050205   049336   046275                                      
630500800210012 00750 1110241Carf.RD978 N4      0060210ECHANGEUR D213 N5  0090956NOVIALE             0060500003888003888630501000100000000001299      050518  817    042259   042892   046432   049535   050096   052186   058355   068461   052499   050483   046502   045681               120479041  777    110471891  817    100505481  827    09      1         08      1         021031   020881   023188   023861   024594   025492   028847   033618   027602   030406   048249   044168                                      
630500800310012 00750 1110241Carf.RD978          0060210Carf.RD213          0090956NOVIALE             0060500003888003888630501000100000000001299      102062  807    084691   087412   094630   100655   100472   107343   124740   133078   102509   102386   091759   093261               121119481  827    111043381  827    101017271  737    09      1         08      1         063720   063626   069861   072770   074159   078154   090652   098453   081324   080611   097585   090443                                      
630501300110012 00750 1110241Carf RD 9           0300000Carf. RD 996        0310000ORBEIL              0310000001120001120630501300100000000001299      027080 1027    021180   020023   023414   028493   023027   025751   041589   043432   027322   026399   021182   022713               120277331 1097    110347981 1217    100334061 1197    09      1         08      1         020959   021166   023733   025968   027926   028706   033983   022327   013001   012235   025082   025184                                      
630501300210012 00750 1110241Carf RD 9           0300000Carf. RD 996        0310000ORBEIL              0310000001120001120630501300100000000001299      033660 1037    018429   018076   021755   031532   046696   050832   050660   059098   038455   023992   021944   021322               120217931 1197    110270491 1217    100261561 1237    09      1         08      1         009847   008619   009975   011986   012613   013382   013723   013642   010898   010790   020800   020932                                      
630501300310012 00750 1110241Carf RD 9           0300000Carf. RD 996        0310000ORBEIL              0310000001120001120630501300100000000001299      060740 1027    039609   038099   045169   060025   069723   076583   092249   102530   065777   050391   043126   044035               120495261 1147    110618471 1217    100595621 1217    09      1         08      1         030806   029785   033708   037954   040539   042088   047706   035969   023899   023025   045882   046116                                      
630500501110012 0A750 1150241A 71                0000000Voie ferre         0010000LA POUDRIERE        0000845001000001000630501000100000000000408      033564  907    030191   031125   032952   034427   032684   035694   039957   036129   034546   034395   028886   031518               120341191  877    110328751  877    100319261  867    09      1         08      1         030680   031065   033487   033892   033085   036438   040187   036629   034888   033758   033744   031463                                      
630500501210012 0A750 1150241A 71                0000000Voie ferre         0010000LA POUDRIERE        0000845001000001000630501000100000000000408      032132  957    029098   029526   031297   032679   031723   032533   035663   038283   034394   032667   028213   029231               120329891  957    110319861  897    100312271  837    09      1         08      1         029685   029321   032291   032089   032447   034337   036471   038259   035574   032853   032892   029505                                      
630500501310012 0A750 1150241A 71                0000000Voie ferre         0010000LA POUDRIERE        0000845001000001000630501000100000000000408      065696  927    059289   060651   064249   067106   064407   068227   075620   074412   068940   067062   057099   060749               120671081  917    110648611  887    100631531  847    09      1         08      1         060365   060386   065778   065981   065532   070775   076658   074888   070462   066611   066636   060968                                      
630500502110012 0A750 1150241Voie ferre         0010000Ech 1               0020000LA PARDIEU          0010547001000001000630501000100000000000408      025675 1027    021924   022953   024529   026003   024974   027483   032559   030025   026576   025975   021581   023219               120260521  987    110258181 1007    100239141  977    09      1         08      1         022347   022713   024906   025673   025222   028569   032895   029610   026867   026417   024286   022884                                      
630500502310012 0A750 1150241Voie ferre         0010000Ech 1               0020000LA PARDIEU          0010547001000001000630501000100000000000408      057807  987    051022   052479   055826   058682   056697   060016   068222   068308   060970   058642   049794   052450               120590411  967    110578041  947    100551411  897    09      1         08      1         052032   052034   057197   057762   057669   062906   069366   067869   062441   059270   057178   052389                                      
630500502210012 0A750 1150241Voie ferre         0010000Ech 1               0020000LA PARDIEU          0010547001000001000630501000100000000000408      025801  997    022574   022972   024555   025797   025598   026178   029692   033187   028036   025857   022162   022700               120264311  907    110260301  917    100253881  887    09      1         08      1         023104   022634   025372   025455   026044   028271   030287   033095   029253   025940   024789   022689                                      
630500700110012 00750 1110241Carf.RD 137         0040810Carf.RD978          0060210LES LITTES          0050500001437001437630501000100000000001299      032892  647    028425   029451   031153   032901   032564   034963   040062   037407   032939   033517   029829   031129               120332111  637    110327761  637    100320831  617    09      1         08      1         028586   028783   031198   032339   032113   035052   040044   036792   038483   032793   031989   030233                                      
630500701110012 00750 2110201Carf.RD 137         0040810Carf.RD978          0060210LES LITTES          00505000014370014376305010001000      01299      007769  587    007893   007996   008149   007890   007518   008247   007327   005755   008996   008273   007642   007622               120078471  567    110076221  547    100072151  547    09      1         08      1         008072   007889   009125   007520   007463   008244   007123   005907   008640   008160   008638   007522                                      
