120500400310012 00750 1110231ECH.ENGAYRESQUE     2000000ECH ST GERMAIN      2150050LA GAMASSE          2100400015050015050          00000000000194      015495 1147    009397   009903   012454   015370   018026   019600   024785   023486   013227   014258   012232   012300               130172521 1317    120165801 1577    110156981 1267    100158821 1707    09      1         008747   009269   011680   015831   018944   018517   027465   038836   019126   014332   011565   011804                                      
120500600310012 00750 1110231VIADUC DE MILLAU SUD2220953DEP HERAULT         2520695A 75 LA CAVALERIE   2380210030012030012          00000000000998      019654 1297    010541   011068   013924   017886   020768   021554   030123   043544   020161   017320   013634   014322               130191391 1447    120193651 1277    110192561 1287    100187151 1267    09      1         009741   010462   013245   017757   020824   020808   030510   041565   021075   016358   013179   013177                                      
340001500310012 01090 4113001SUD GIGNAC          0200000NORD GIGNAC         0320000GIGNAC 34           0300700012000012000340000500300000000000490      012550  687    010281   010870   011425   012425   012670   013228   014513   015833   012963   012947   011469   011811               130121321  697    120109701  667    110114081  657    100102791  677    09      1         009716   010301   010942   012038   012546   012694   014031   015360   012763   012547   011292   011181                                      
340000500310012 00750 1113041NORD RN 109         2800000RN 109              2900450LODEVE_SUD          2800200010450010450          00000000000490      021762  657    013722   014412   016620   020499   022469   024339   029913   042706   022898   019727   016261   016766               130240311  977    120199551 1067    110243341 1037    100222511 1037    09      1         015013   015843   018621   023280   025225   026421   035625   045049   026612   021846   017895   016086                                      
340001404310012 01090 4810101EB 20 MONTPELLIER   0040000A 750               0100000JUVIGNAC OUEST      0050000006000006000          00000000000190      035586  467    032554   030612   033212   035797   035965   037720   040253   041717   035859   036112   033132   033342               130350448  517    120288578  537    110310528  567    100222388  487    090092908         029268   030248   032081   035745   036730   037854   039603   041095   036581   035794   033129   032033                                      
480500400310012 00750 1110241ST CHELY-SUD        1270799AUMONT-NORD         1330830AUMONT-NORD         1330830006053006053480500400348000010030393      012487 1497    007181   007474   009257   012583   014152   015232   022796   017757   012855   011542   008933   009591               130136841 1457    120143451 1367    110110621 1357    100104341         09      1         006810   007055   009047   012375   014836   014437   023212   031587   014877   011155   008849   009185                                      
480500600310012 00750 1110241ECH.37 LE BUISSON   1460000ECH.39 LE MONASTIER 1610000CHIRAC              15800000151000151006305019003          0199      010357  737    007460   008905   010764   010813   012438   013679   011904   013883   009705   007628   007389   009571               130124431  977    120133431 1197    110161491 1077    100127731 1187    09      1         006303   006513   008632   011952   013991   013580   022032   017774   020666   011023   008185   008243                                      
480002300310012 01060 4113001INTER.D98-JALCRESTE 0221020INTER.D907-FLORAC   0440660FLORAC_SUD          0380500020631020631480002500300000000000995      003742 1527    002460   002661   003046   003447   003917   004186   005077   006472   003998   003616   003017   002891               130036121 1467    120026421 1387    11      1         10      1         09      1         002390   002456   002888   003372   004050   003769   005008   006247   003946   003367   002905   002824                                      
480002400310012 01060 4112001INTER.D907-FLORAC   0440660INTER.D907B-R.PERCEE0510305FLORAC              0490000006245005698480002500300000000001287      003864  697    003390   003478   003580   003422   003684   003975   005044   006301   004039   003514   003025   002848               130036951  707    120037331  697    110037671  707    100036801  687    09      1         002485   002582   002898   003365   003693   003823   005413   006447   004277   003542   003009   002679                                      
480000900310012 00880 4113001N102-ARDECHE        0000000INTERS.D906         0020000LANGOGNE            0010460002298000790480000900300000000000592      005194 1087    004368   004514   004842   005147   005523   005655   006260                                                            130048631  997    120053201  837    110049441 1027    100048011 1007    09      1         003490   002920   003615   004282   005160   005149   006180   008520   005622   004389   004449   004396                                      
480001900310012 00880 4113001CARR.RN106 BALSIEGES0580619CARR.RN108 BARJAC   0650751BALSIEGES           0590200006756006640480001900300000000001192      004704         004575   004808   005073   005724   005960   006019   003882   003677   002897   003043   003193   003241               130051601         120060241         110065071         100063721         09      1         003734   004065   003882   004207   004389   006028   007894   008042   005128   004921   004849   004666                                      
480002100310012 00880 4113001INTER.D31-CHANAC    0710883INTER.N9-AJUSTONS   0840280CHANAC              0740500011181011181480002500300000000001192      004549 1487    003061   003337   003775   004291   004759   005072   005994   007418   004912   004489   003795   003564               130044791 1377    120042511 1307    110044211 1337    100042311 1347    09      1         002900   003040   003613   004144   004852   004746   006031   007225   004836   004282   003786   004141                                      
480001800310012 00880 4113001EB20 MENDE          0530185CARR.RN106 BALSIEGES0580619MENDE-SUD           0550300005284005015480001900300000000000793      008669  917    007729   008204   008231   009067   009346   009931   009177   008615   008650   008758   008142   008176               130089521  897    120092471  897    110094271  907    100093721  927    09      1         007613   007731   008212   008905   009555   009710   010690   009794   008859   009052   008389   008797                                      
480002500310012 01060 4112001CARR.D907B          0510305ST BAUZILE D41      0730660FLORAC_NORD         0530900021847021847480002500300000000000995      001049 1997    000637   000706   000770   001095   001147   001282   001397   001921   001255   000911   000732   000706               130012091 1937    120010861 1967    110013181 1737    100013141 1757    09      1         000708   000752   000838   001041   001291   001302   001625   002534   001500   001006   000826   001028                                      
340001501310012 07500 4110201NORD GIGNAC         0320000A 75                0380625ST FELIX DE LODEZ   0370600006625006625340000500300000000000402      027176  737    022241   023506   024998   026131   025278   028234   032653   035188   028391   028218   024663   025090               130264981  747    120233851  737    110245581  727    100006591         09      1         021148   022121   023622   026418   027558   028119   031188   033885   027903   026943   024613   024064                                      
480500101310012 00750 2110201LA GARDE            1160700LA GARDE            1160700ALBARET_MARI_M      1160700000000000000480500100300000000000794      007727                  003841   004927   006170   007459            009954   009171   008109   006222                                 130078231 1447    120090481 1437    110095971 1317    100093841 1287    09      1         004436                              009154   007604   000635   008520            005944   004870   004757                                      
480500100310012 00750 1110241LIMITE CANTAL       1140527LA GARDE SUD        1160943ALBARET_MARI_M      1160700002416002416480500100300000000000592      014356 1407    007139   007545   009310   012350   014001   014898   020795   032572   014016   011506   013572   013830               130137831 1367    120146351 1347    110147111 1317    100142601 1307    09      1         007389   007425   009626   012911   015714   014375   022088   031449   014459   011077   008902   009227                                      
480500801310012 00750 2111001ECH.40              0000000ECH.40              0010000BANASSAC            0000005001000001000630501900300000000000199      013618 1717    008373   008909   010701   012638   016593            000523   008938                                                   130072731 1867    120073531         110095691         100076741         09      1         003999                                                001204   007684            004910                                                        
480500800310012 00750 1110241ECH.40 BANASSAC     1720047LIMITE AVEYRON      1790296BANASSAC            1720100007249007249630501900300000000000199      008493 1897    008224   009144   008858   009469   011753                                                                              130139691 1627    120146231 1677    110175361 1567    100143391 1657    09      1         007169   007391   009744   013258   014859   014677   025316   033138   012721   009146   009724   009672                                      
480500700310012 00750 1110241ECH.39 LE MONASTIER 1610724ECH.40 BANASSAC     1720047ST GERMAIN DU TEIL  1670000010323010323630501900300000000000199                                                                           004651   007446                                                   13      1         120087711         110068251         10      1         09      1                                                               005313   006712                                                                          
480500701310012 00750 2111001ECH.40              0000000ECH.40              0010000BANASSAC            0000005001000001000630501900300000000000199                                                                                                                                             13      1         120001871         110009481         100008581         09      1                                                                                                                                                        
150500200310012 00750 1110241MASSIAC NORD        0630988MASSIAC SUD         0680500MASSIAC             0670600004512004512          00000000001200      012426 1567    010138   010442   009748   013398   015032   016142   014934   014650   012034   012432   009765   010261               130147661 1467    120143871 1527    110147551 1677    100145161 1807    09      1         007167   007205   009597   012988   015636   014927   024249   033537   019854   012006   009384   009853                                      
150500300310012 00750 1110241MASSIAC SUD         0680500VIELLESPESSE        0840600SALBAS              0760300016100016100          000      01200      009631 1197    004890   005173   006182   008158   008616   009344   018669   023527   009298   008189   006112   006798               130149391 1397    120152381 1567    110127601 1707    10      1         09      1         007967   008002   010271   013396   015462   015239   024653   034787   016541   011606   009937   010586                                      
150500600310012 00750 1110241ST FLOUR SUD        0960300LIMITE LOZERE       1140610LOUBARESSE          1120800018310018310          000      00300      014542 1787    007473   007881   009742   013130   014845   015916   023606   034713   014825   012145   009386   010048               130136831 1527    120145271 1507    110158311 1647    100076521 1897    09      1         007167   007258   009463   012867   011229   013393   026920   030036   015301   011713   009208   009688                                      
150500400310012 00750 111 241VIELLESPESSE        0840600ST FLOUR NORD       0920550ST FLOUR NORD       0910400007950007950                    1200      019320 1587    008619   008910   014362   020031   021420   019172   029410   042302   018411   018476   014518   015038               130141191 1397    120145131 1407    11      1         10      1         09      1         008143   008158   010618   014073   015868   015091   020844   029465   011983   013112   010474   010866                                      
150500500310012 00750 111 241ST FLOUR NORD       0920550ST FLOUR SUD        0960300ST FLOUR            0930300003750003750                    1200      011961 1727    006591   006879   010078   014117   013778   014253   019397   021542   010556   009503   007836   008477               130131021 1527    120131111 1697    11      1         100066871 2087    09      1         006258   006279   008420   011784   014314   013772   022425   032072   013501   010653   008265   008654                                      
150001900310012 01220 4113001NEUSSARGUES-MOISSAC 1100900MASSIAC CARF.RN 9   1360144LA ROCHE            1330000025244025244          00000000031294      003435 1317    003263   003360   003561   003441   003510   003826   003490   003431   003399   003645   003150   003136               130034841 1357    120035261 1367    110036361 1447    100036571 1567    09      1         002855   003173   003474   003330   003557   003682   003947   004486   003690   003531   003016   003031                                      
150001700310012 01220 4113 51TUNNEL DU LIORAN    0880000MURAT               1010850LA GRANGE DE GANILH 09708500138500138500000000000          1200      005925  977    004977   006093   006275   005501   005673   005929   006395   007539   006014   005903   005717   005080               130058001 1037    120058431 1067    110060141 1067    100059571 1037    09      1         004936   005889   006061   005187   005455   005804   006569   007609   005899   005760   005154   005251                                      
150001500310012 01220 4113001BANCOU              0530380VIC SUR CERE        0680800MEYMAC              06202000154200154200000000000000      01287      007746  877    006828   007666   007974   007649   007476   008084   008124   008850   008047   007946   007168   007129               130075051  877    120076921  897    110078851  927    100078611  867    09      1         006626   007200   007717   007329   007448   007923   008319   007869   007451   007730   006981   007394                                      
150001200310012 01220 4113001MAURS               0050100LE ROUGET CARF.CD 200270800LE MARTINET         01507000227000227001500015003000      01294      003828 1177    003409   003523   003809   003904   003939   003892   003914   003919   003902   003931   003884   003885               130035971 1157    120036051 1127    110036891 1107    100037751         09      1         003007   003262   003478   003502   003664   003489   004184   004546   003650   003719   003284   003322                                      
070003300310012 01020 4113001CAR CD536           0530729MAYRES              0680187THUEYTS           B 0600000014317014317070003300300000000000188      005330 1157    003074   003343   003880   004967   005748   006255   007639   010019   005965   005359   004036   003476               130058411 1227    120053841 1167    110054081 1157    100052861 1117    09      1         003000   003097   003755   004877   005694   006014   007715   010027   006473   010989   003868   004248                                      
070003500310012 01020 4113001CAR CD108           0840161LIMITE DEPT43       0941069PEYRABEILLE       B 0890400011024011024          00000000000188      003580 1427    001895   002012   002556   003209   003892   004248   005258   007694   003915   003320   002549   002245               130032001 1517    120037061 1417    110031941 1507    10      1         09      1         001838   001855   002398   003142   003922   004005   004772   004369   003151   003241   002534   003046                                      
070003200310012 01020 4113001CARD578             0440616CARD536             0530729LALEVADE            0470000009115009115070003300300000000000105      012587  607    009699   010400   010977   012544   012967   013896   015531   017808   011732   011792   011620   011850               130124861  607    120125591  627    110125711  637    100113301  657    09      1         009594   009768   010680   011924   012947   013541   016045   017915   012076   012041   011089   011903                                      
430002000310012 01020 4113001CARREF.RD513        0560300VIEILLE-BRIOUDE     0740550LA LOCANDA          0640050018450018450430002000300000000001193      008770 1367    006888   007403   007955   008696   008932   009361   010090   012006   009501   008995   007895   007403               130088531 1377    120088771 1387    110093901 1347    10      1         09      1         006666   006795   007790   008593   009184   009504   011622   012167   009224   008471   008043   007978                                      
430000600310012 00880 4113001ECHANGEURD47        0160000ECHANGEUR.RD103     0350835BAL DES NEIGES      0230700019835019835          000      00500      014550  977    012676   013535   014339   015458   015388   016481   015934   014439   014417   014503   014060   013339               130143961  957    120146521  977    110141871  957    100142101  927    09      1         012259   012218   013736   014399   014766   015630   016754   015641   014863   015034   013204   014056                                      
630501000310012 00750 1110241Carf.RD978          0140634ECHANGEUR COUDES Nø80180582AUTHEZAT            0170000004115004115630501000100000000001299      079976 1017    064365   074035   066331   076656   076116   082758   096901   114074   080307   063813   039280   039744               130715521 1017    120752891 1037    110760711 1047    100679901 1227    09      1         057321   058135   064086   066850   068282   071600   087214   104168   076936   074512   064281   065561                                      
630501800310012 00750 1110241Carf. RD76          0450600LIMITE Hte LOIRE    0490000NORD DE LEMPDES     0470000003400003400          43000000011299      006858  707    003805   007287   001972   003255   003117   003735   008584   018789   010796   007004   007027   006878               130110661  997    120105471  977    110111241  827    100116061  877    09      1         007951   008410   010268   012126   013192   012445   013105   015939   013296   008459   008864   008565                                      
630501900310012 07110 1110241Carf.RN 89          0000000Carf. A 72          0060410SORTIE EST          0040000005056005056          00000000001299      095331  777    079033   105676   068753   060455   043036   049317   031751   044102   042866   045552   039075   006481               130880111  527    120874461  527    110853171  537    10      1         09      1         085138   085405   087842   088128   083103   092930   089046   077933   092233   097826   088673   087942                                      
630500600310012 00750 1150241Ech 1               0020000Carf.RD137          0040810AUBIERE             0020350002810002810630501000100000000001299      046210 1007    038165   040505   042981   048955   048019   049324   060280   058631   039747   043161   041358   042354               130491521 1057    120489161 1137    110476991 1017    100466921 1207    09      1         036687   038291   042500   048042   050112   052509   066243   074127   052178   046914   039554   041471                                      
630500800310012 00750 1110241Carf.RD978          0060210Carf.RD213          0090956NOVIALE             0060500003888003888630501000100000000001299      103400  807    088559   092507   095354   104488   101075   109176   122472   134593   106682   097800   092708   094312               131023191  807    121119481  827    111043381  827    101017271  737    09      1         084691   087412   094630   100655   103697   107343   124740   133078   102509   102386   091759   093261                                      
630501300310012 00750 1110241Carf RD 9           0300000Carf. RD 996        0310000ORBEIL              0310000001120001120630501300100000000001299      054984 1027    039204   042126   045353   053491   055226   060183   073890   089052   057682   053236   045208   044922               130607401 1027    120495261 1147    110618471 1217    100595621 1217    09      1         039609   038099   045169   060025   069723   076583   092249   102530   065777   050391   043126   044035                                      
630500501310012 0A750 1150241A 71                0000000Voie ferrée         0010000LA POUDRIERE        0000845001000001000630501000100000000000408      061686  957    059416   062445   062995   067564   060641   059767   066966   073618   051553   054039   059751   061290               130656961  927    120671081  917    110648611  887    100631531  847    09      1         059289   060651   064249   067106   064407   068227   075620   074412   068940   067062   057099   060749                                      
630500502310012 0A750 1150241Voie ferrée         0010000Ech 1               0020000LA PARDIEU          0010547001000001000630501000100000000000408      054364 1017    051410   054276   054928   059448   053693   053263   060040   067391   045495   047431   051977   052778               130578071  987    120590411  967    110578041  947    100551411  897    09      1         051022   052479   055826   058682   056697   060016   068222   068308   060970   058642   049794   052450                                      