860000900310014 00100 411 251CHAUNAY EX RN 10    1000110DEPARTEMENT 79      1070118CHAUNAY             1060430006881006881          79000010030187      014608         012547                     015475   011757   015224   016744   018575   014235   014559   013781   013964               130144641 3467    120140021 3497    110143951 3687    100120881         090000001         011915   012690   013833   014481   015092   014734   016571   018200   014838   014205   013556   013275                                      
860000800310014 00100 481 251COUHE EX RN 10      0870550CHAUNAY EX RN 10    1000110COUHE VERAC         09207000125960125968600009003          0187      016475                                                                                                                                 130163138         120157928         110162368         100136348         090000008                                                                                                                                                        
860000701310014 00100 411 251RD 742              0740535COUHE EX RN 10      0870550LES MINIERES        07701800130210130218600009003          0187      018418 3037    015743   017161   017353   019154   018019   019087   020668   021836   018141   018620   017342   017774               130181631 3097    120158711 3067    110171541 3307    100169171         090175121         015592   016366   017743   018304   018848   018715   020460   021492   018757   018409   017367   015742                                      
860000600310014 00100 411 251RN 11               0620334RD 742              0740535RUFFIGNY            06603500121400121408600009003          0187      023193 2477    020828   021838   021962   023805   022532   024033   025259   025835   023278   023769   022414   022658               130227931 2527    120000001         110224881 2597    100203971         090216601         020097   020650   022298   022821   023382   023471   024913   025374   023606   023396   022032   021294                                      
860000501310014 00100 411 251EX RN 10            0580890RN 11               0620334CROUTELLE           06007850034540026498600009003          0187      033246 1967    030260   031685   031958   034342   032628   034703   035574   036024   033472   034014   031906   032290               130329381 1987    120315561 2057    110316511 2157    100000001         090301371         029087   030337   032453   033054   033654   033976   035558   035470   034044   033696   032015   031707                                      
790002301310014 02480 4113 51A 10                0000000RN 11               0080758LES GRELLES         00409500089670089678600009003          0187      007652 1197    005673   006068   006574   008259   007794   008690   009372   010260   008178   007650   006599   006594               130000001         120000001         110052681         100000001         090000001                                                                                                                                                        
790000806310014 00110 411 251RN 248              0540000DEPARTEMENT 17      0650681EPANNES             0560700012045012045860000900317000030030187      019405 1077    015611   016469   017841   019879   019683   021325   022271   023875   021762   019612   017353   016979               130190541 1137    120189641 1087    110190541 1077    100169771         090184071         016039   016042   017450   019422   020279   020089   022657   023842   020002   018730   017235   016584                                      
790000200310014 00100 481 251RD 948              0010492DEPARTEMENT 16      0060333MAISON BLANCHE      0030000004931004931000000000016000010030187      000000                                                                                                                                 130000008         120000008         110000008         100000008         090000008                                                                                                                                                        
790000100310014 00100 481 251DEPARTEMENT 86      0000000RD 948              0010492MAISON BLANCHE      0010000001502001502000000000086000090030187      000000                                                                                                                                 130000008         120000008         110000008         100000008         090000008                                                                                                                                                        
640012000310014 11340 485 251PAU A 64            0000000PAU A 64            0110254PAU RN 1134         0030000006222006222000000000000000000000193      000000                                                                                                                                 130000008         120000008         110000008         100000008         090000008                                                                                                                                                        
640003100310014 11340 4113 51RN 134 PR 115       1160000ESPAGNE             1190000FORGES D'ABEL-TUNNE 11602000037980037980000000000          0106      000882 1847    000731   000805   000928   001009   000895   000817   000167   001703   000895   000993   000779   000849               130010921 2427    120010721 2507    110011021 2397    100008571         090010771         000703   000795   000988   001010   001108   000998   001545   002225   001162   000911   000781   000837                                      
640003003310014 01340 4113 51URDOS EB 20         1090270ESPAGNE SOMPORT     1230278COL DU SOMPORT      12300000138910138910000000000          0194      000505 0477    000475   000659   000650   000379                     001377   000573   000252   000186   000130   000361               130004291         120003661    7    110003411    7    100000001         090004171         000495   000469   000758                     000253   000390   000627   000257   000181   000157   000693                                      
640003002310014 01340 4113 01RD 239              0980000URDOS EB 20         1090000URDOS               10900000110020099240000000000          0187      000000                                                                                                                                 130000001         120002741         110002891         100002461         090015261                                                                                                                                                        
640003001310014 01340 4813 51RD 237              0920475RD 239              0980497ACCOUS              09302000060760055586400028013          0187      002661                                                                                                                                 130000008         120000008         110028388         100025988         090029238                                                                                                                                                        
640002900310014 01340 4113 51RD 918              0780376RD 237              0920475SARRANCE            08607000139220132976400028013          0187      000000                                                                                                                                 130031561 1257    120000001         110032311    7    100000001         090000001         002213   002441   002832   002995   003029   003346   004196   004993   003434   003107   002549   002659                                      
640002801310014 01340 4112 51RD 918              0760615RD 918              0780376ASASP               07801860017510012006400028013          0187      003680 0887    002964   003187   003385   003558   003601   003769   004205   005363                     003328   003381               130038171 121     120000001         110039241 1177    100035911         090040401         002892            003592   003508                     004237   005547   004103   003744   003322   003408                                      
640002700310014 01340 4813 51OLORON EB 20        0690529RD 918              0760615GURMENCON           07205000071620039136400028013          0187      006228                                                                                                                                 130000008         120000008         110066418         100060788         090068398                                                                                                                                                        
640002600310014 01340 4842 51RD 936              0680760OLORON EB 20        0690529BIDOS               06905000007740002696400024003          0187      006564                                                                                                                                 130064618         120064598         110059868         100066008         090066258                                                                                                                                                        
640002500310014 01340 4842 51OLORON EB 10        0660852RD 936              0680760OLORON STE MARIE    06800000019190000006400024003          0187      009449                                                                                                                                 130093018         120092988         110086178         100095008         090095368                                                                                                                                                        
640002400310014 01340 4112 51RD 920              0610579OLORON EB 10        0660852OLORON              06508000052970050466400024003          0187      011065 0517    010276   010563   011046   010960   010794   011157   011207   011293   011743   011849   011012   010861               130108911    7    120108871    7    110100891    7    100111221         090111631         010071   010534   010724   010958   010389   011083   011303   011397   011529   011457   010610   010626                                      
640002300310014 01340 4813 51RD 934              0440600RD 920              0610579BELAIR              0540800016914016914640002400300000000000187      007552                                                                                                                                 130074348         120074328         110068888         100075948         090076228                                                                                                                                                        
640002200310014 01340 4113 51PAU                 0370418RD 934              0440600JURANCON            04001000073010056466400024003          0187      017912 0557    016722   017416   018000   017385   017122   017607   018449   018288   018970   019414   017545   017982               130174741    7    120175361    7    110178681         100131381         090178111         016633   017399   017902   017394   016543   017426   017708   017769   017906   018309   016935   017760                                      
400552000310014 06410 1813 11A64                 0000000N117                0060000BARO PEYREHORADE    00100000070320070320000000000000       0187      000000                                                                                                                                 130000008         120000008         110000008         100000008         090000008                                                                                                                                                        
400550200310014 00630 181 221HOSSEGOR            0490789ST GEOURS           0650867                    04908000167100167100000000000000       0187      000000                                                                                                                                 130000008         120000008         110000008         100000008         090000008                                                                                                                                                        
400550100310014 00630 1810221DEPARTEMENT 64      0350700HOSSEGOR            0490789                    0350700014089014089000000000040055060030187      000000                                                                                                                                 130000008         120000008         110000008         100000008         090000008                                                                                                                                                        
400000801310014 00100 411 251ECH. RD947          0670190SAINT GEOURS A 63   0880195MAGESQ              08308000215710215710000000000000       0187      000000                                                                                                                                 130000001         120000001         110263921 3267    100000001         090268441                                                                                                                                                        
400000500310014 00100 411 251ECH. RD38           0440050ECH. RD947          0670190LAHARIE SUD         0460350023528023528000000000000000000000400      000000                                                                                                                                 130000001         120000001         110000001         100230211         090297361                                                                                                                                                        
400000400310014 00100 411 251ECH. RD63           0260050ECH. RD 38          0440050LAHARIE NORD        0390650018017018017000000000000000000000400      000000                                                                                                                                 130000001         120000001         110000001         100294791         090292301                                                                                                                                                        
400000100310014 00100 411 251DEPARTEMENT 33      0000000ECH. RD63           0260050LE MURET            0040940026489026489000000000033000090030187      000000                                                                                                                                 130000001         120000001         110256151 3367    100286661         090279991                                                                                                                                                        
330550601310014 00630 181 241ECHANGEUR CESTAS    0060000RD 211              0110830CESTAS(S64)         00706000058080058080000000000000       0187      000000                                                                                                                                 130000008         120000008         110000008         100000008         090623958                                                                                                                                                        
330524200310014 02300 411 451ECH.22              0350247ECH.23              0360643S38 SENS 1+SENS 2   03600000013960013960000000000000       0194      108905 1487    098103   100172   104579   109847   107420   112985   120574   122923   112488   110136   101915   104935               131070851 1497    121056671 1497    111054961 1577    101067451         091061261         095473   099595   102505   107511   107050   109939   120175   121551   110839   108011   100024   101619                                      
330523402310014 06300 181 241ECH.19              0310000ECH.21              0331224LA HOURCADE(S32)    03103450039240039240000000000000       0187      000000                                                                                                                                 130000008         120000008         110000008         100000008         091319378                                                                                                                                                        
330522100310014 06300 181 241A 10                0000000ECHANGEUR LA BARDE  0050000ECHANGEUR LABARDE   00200000049540049540000000000000       0188      000000                                                                                                                                 130000008         120000008         110000008         100000008         090990778                                                                                                                                                        
330513400310014 06310 111 241A630                0000000BEGLES              0021290BEGLES-A631(S50)    00100000027250027250000000000          0187      000000                                                                                                                                 130000001         120000001         110703311    7    100000001         090703211                                                                                                                                                        
330505200310014 06600 1813041RD 3                0100400FIN A 66            0211219MIOS                01201000118480118483305050003000       0187      030786                                                                                                                                 130299538         120277028         110240918         100284648         090000008                                                                                                                                                        
330505100310014 06600 1113041FIN 2X2 VOIES       0060664RD 3                0100400Facture             0090000003758003758330505000300000000000187      000000                                                                                                                                 130000001         120000001         110096561    0    100284641    0    090000001    0                                                                                                                                                   
330505000310014 06600 1110241A 63                0000000FIN 2X2 VOIES       0060664MIOS SIREDO         00300000060070060073305050003000       0187      025260 0467    020208   021228   023589   025763   025794   028331   029511   030452   027925   025811   022124   022096               130245761         120227291    7    110197661         100233531         090216641         019264   021052   022829   025534   025425   026687   030855   030566   026076   024199   021099   021027                                      
330504601310014 02300 411 601ECH.25              0400703A 10                0440507S47 EXTER ET INTER  04400130038000038003305050003000       0290      000000                                                                                                                                 130000001         120000001         111176641 1467    100000001         091164011                                                                                                                                                        
330504300310014 02300 4110401ECH.24              0390541ECH.25              0400703S46                 0400258001207001207330505000333000000000290      000000                                                                                                                                 130000001         120000001         110000001    0    100000001    0    091142961    0                                                                                                                                                   
330504000310014 02300 411 451ECH.21              0340000ECH.22              0350247PT F.MITTERAND      03500000012420012423305050003000       0194      114659 1307    105459   107289   111384   116708   114298   117961   124258   124895   114396   117456   108484   112574               131137291 1327    121113351         111100171         101077401         091051381         102366   106288   109631   114874   114110   117146   125367   125323   117266   115350   107343   109021                                      
330503100310014 06300 181 241ECH.16              0260600ECH.19              0310000CHANTELOISEAU(S28)  02702000039170039170000000000000       0187      000000                                                                                                                                 130000008         120000008         110000008         100000008         091166408                                                                                                                                                        
330502500310014 06300 111 231ECH.15              0250000ECH.16              0260000TALENCE(S26)        02600000014390014390000000000          0193      124408 1177    116087   119111   122143   127757   123548   130538   133587   127063   131377   127680   115458   118283               131239671 1157    120000001         111189481 1057    101202601         091204871         113001   117967   122646   127734   123576   129614   136778   128350   129258   126054   116931   115365                                      
330502300310014 06300 181 241ECH. 11             0170330ECH. 15             0250000PESSAC(S19)         01703300074240074240000000000000       0187      000000                                                                                                                                 130000008         120000008         110000008         100000008         090877198                                                                                                                                                        
330502202310014 06300 111 241ROCADE SORTIE 9     0140000ROCADE SORTIE 11 B  0170330LE CHUT(S16)        01500000030970030970000000000000       0187      085849 0567    083392   084902   085787   087942   085053   087673   088072   080296   089835   089885   083574   083874               130874791    7    120889111    7    110900661    7    100891871         090878571         085180   088108   087987   090433   087991   089714   091215   082927   089252   090022   084324   082774                                      
330502201310014 06300 181 241RD 1                0100600ROCADE SORTIE 9     0140000EYSINES(S11)        01103000036660036660000000000000       0187      000000                                                                                                                                 130000008         120000008         110000008         100000008         090837448                                                                                                                                                        
330502102310014 06300 111 241ECHANGEUR LA BARDE  0050000RD 1                0100600CANTINOLLE(S08déport00808000059320059320000000000000       0187      000000                                                                                                                                 130783111    7    120780161    7    110785561    7    100773401         090760771         072925   075990   077089   079561   079844            084772   083032   075277   081911   075178   075835                                      
330500900310014 00630 111 241A 66                0240670RN 10               0460850LUGOS(S67)          04000000222370222370000000000000       0187      000000                                                                                                                                 130000001         120000001         110000001         100000001         090325451                                                                                                                                                        
330500801310014 00630 1110241RD 211              0110830A 66                0240670PIERROTON(A63ech24) 0210300012859012859000000000000000000000187      000000                                                                                                                                 130000001         120000001         110000001    0    100000001    0    090564311    0                                                                                                                                                   
330500600310014 00630 181 241A 630               0000000ECHANGEUR CESTAS    0060000CESTAS(S62)         00600000061770061770000000000000       0187      000000                                                                                                                                 130000008         120000008         110000008         100000008         090652868                                                                                                                                                        
330500501310014 00620 111 241A 630               0000000ECHANGEUR LA PRADE  0090992CADAUJAC(S73)       0030000011083011083000000000000000000000194      063914 1087    062417   064792   068685   069127   049658   031683   073784   071376   070742   070905   065009   068258               130670241 1087    120664821 1087    110665921 1107    100452551         090647991         061094   065121   066334   068181   067915   069622   073277   072206   067636   069162   063964   065404                                      
330004600310014 02500 4813 51RD 652              0390000ARCACHON            0481070ARCACHON            04700000100650011150000000000000       0187      000000                                                                                                                                 130000008         120000008         110000008         100000008         090000008                                                                                                                                                        
330001700310014 00890 481 251RD 115              0470300RN 230              0500260LE POTEAU D YVRAC   04705000029830029830000000000000       0187      000000                                                                                                                                 130000008         120000008         110000008         100000008         090548688                                                                                                                                                        
330001600310014 00890 411 251RD 13 BEYCHAC       0420223RD 115 POTEAU YVRAC 0470300MONTUSSAN           04301000050570050570000000000000       0187      055292 0887    050879   051530   053930   056308   055734   058672   059835                     057949   053756   054050               130540041    7    120534541    7    110533781    7    100401201         090000001         049195   051598   052341   055982   054052   054379   059310   056776   054157   000000   000000   051219                                      
330001401310014 00890 481 251ECH GD CAZAU        0360595ECH BEYCHAC         0420223GRAND CAZAU         03800000056370056373300016003000       0397      038302                                                                                                                                 130374108         120417608         110417018         100313448         090307288                                                                                                                                                        
330001300310014 00890 481 251ECH SENAU           0341380ECH GD CAZAU        0360595MONTIFAUT           03500000023680023683300016003000       0397      029894                                                                                                                                 130291988         120325938         110325478         100244638         090239828                                                                                                                                                        
330001202310014 00890 4113 51RD 121 GENISSAC     0310790RN 2089 Ech 8       0341380SENAU               03405000053970053973300016003000       0994      000000                                                                                                                                 130357041    7    120353961    7    110192531         100306571         090334001         030589   032590   033828   036115   035281   036911   040458   041018   036850   036310   033926   034260                                      
330000901310014 00100 481 251A 63                0960000DEPARTEMENT 40      0980615LIMITE DPT 40       0970000002615002615330500900340000010030187      000000                                                                                                                                 130000008         120000008         110000008         100000008         090000008                                                                                                                                                        
330000900310014 00100 4813 51RD 3                0870150A 63                0960000MONS                09208000089510064893300007003000       0187      000000                                                                                                                                 130000008         120000008         110000008         100000008         090000008                                                                                                                                                        
330000800310014 00100 4813 51RD 5                0760751RD 3                0870150LA VIGNOLLE         08004000104040092223300007003000       0187      000000                                                                                                                                 130000008         120000008         110000008         100000008         090000008                                                                                                                                                        
330000700310014 00100 4113 51RD 211              0650030RD 5                0760751LE PUCH             06807800117030111873300007003000       0187      000000                                                                                                                                 130000001         120000001         110000001         100000001         090000001                                                                                                                                                        
330000600310014 00100 4813 51RD 109              0600280RD 211              0650030JAUGE               06407000047640047293300007003000       0187      000000                                                                                                                                 130000008         120000008         110000008         100000008         090000008                                                                                                                                                        
330000500310014 00100 4813 51A 630               0540900RD 109              0600280LA HOUSE            05805000054150025953300007003000       0187      000000                                                                                                                                 130000008         120000008         110000008         100000008         090000008                                                                                                                                                        
330000499310014 00100 4853 51BDX                 0510000BDX                 0540900BDX                 05200000030260000600000000000000       0187      000000                                                                                                                                 130000008         120000008         110000008         100000008         090000008                                                                                                                                                        
330000301310014 00100 4123 51ST ANDRE DE CUB EB200230120A 10                0290790ST ANDRE            02507000072620048640000000000000       0187      000000                                                                                                                                 130000001         120000001         110000001         100000001         090000001                                                                                                                                                        
330000200310014 00100 4843001RN 137              0200120ST ANDRE DE CUB EB200230120ST ANDRE DE CUB     02205000029440009803300003013000       0187      000000                                                                                                                                 130000008         120000008         110000008         100000008         090000008                                                                                                                                                        
330000102310014 00100 411 251RD 18               0100137RN 137              0200120PEUJARD             01700770093980093983300003013000       0187      039321 2477    035976   037257   038483   039960   038728   040625   041472   041190   040218   040639   038529   038648               130382821 2487    120369921 2547    110351651 2787    100354331         090329921         034505   036768   036976   039248   038145   039428   040119   040074   039360   039608   037864   037230                                      
330000101310014 00100 4813 51DEPARTEMENT 17      0000000RD 18               0100137CAVIGNAC AU NORD    0060000010374010374330000102317000020030187      020992                                                                                                                                 130204388         120197508         110187758         100189198         090176168                                                                                                                                                        
330000000310014 02300 411 401ECH.23              0360643ECH.24              0390541S42 SENS 1+SENS 2   03703090028970028973300001023000       0194      000000                                                                                                                                 130000001         120000001         110000001         100000001         091083631                                                                                                                                                        
170053700310014 05370 4843 51RN 237              0000000GIR LA ROCHELLE     0020031N 537               0010000002031002031170003001300000000000187      005777                                                                                                                                 130057278         120057528         110053578         100000008         090055368                                                                                                                                                        
170003001310014 02370 411 251RN 137              0000000FIN RN 137          0090230LA DESCENDERIE      0020000009267009267170003001300000000000187      064394 0707    058471   060081   062111   066382   064662   068105   069729   065601   068796   066440   061644   060526               130638331    7    120641021    7    110596951    7    100000001         090616851         057300   058552   062763   065061   065415   066698   071248   066786   067183   065070   060872   058687                                      
170002999310014 01500 4853331ROYAN EB 10         0770470EXTREMITE RN 150    0810330ROYAN               0780000003830000000170002900300000000000187      016371                                                                                                                                 130160658         120160388         110147788         100163828         090152978                                                                                                                                                        
170002900310014 01500 4113 51RD 117              0710058ROYAN EB 10         0770470MEDIS               0760000006412004816170002900300000000000187      016456 0467    013231   014180   014955   016876   016528   017984   020637   021759   017150   015891   014158   013914               130161481    7    120161201    7    110148531    7    100164651         090153741         012848   013379   014735   016346   016687   016945   021113   022285   016351   015075   014018   013696                                      
170002800310014 01500 4813 51RD 728              0500000RD 117              0710058VILLENEUVE          0630800021033021033170002900300000000000187      011681                                                                                                                                 130114638         120114448         110105458         100116908         090109168                                                                                                                                                        
170002700310014 01500 4113001N 137 SAINTES       0470000RD 728              0500000GATERAT             0490670002959002959170002900300000000000187      012008 0457    010254   010528   010971   012163   011960   012803   014082   014951   012727   011777   010798   010950               130118731    7    120118101    7    110113191    7    100115321         090120891         009829   010123   010986   011863   012288   012373   014233   015251   012396   011520   010806   010639                                      
170002101310014 01410 4113001RN 150 SAINTES      0160700SAINTES RN 137      0210225SAINTES ROCADE S-E  01802000044700044701700029003000       0187      020498 0957    018066   018792   019489   020822   020858   022236   023260   023546   021651   020259   018655   018222               130200121    7    120196051    7    110196391    7    100174821         090187281         016493   017434   018750   019839   020363   020848   023028   023960   020817   021161   019499   017731                                      
170002100310014 01410 4813001DEPARTEMENT 16      0000000RN 150 SAINTES      0160700CHERAC              0130900016846016846000000000016000200030187      000000                                                                                                                                 130094098    7    120000008         110000008    0    100000008    0    090000008    0    007485   008439   008587                              011892   012910   009778   008821   008218   007862                                      
170001701310014 01370 411 251RD 937              1120000RN 11               1170000PERIGNY             11700000050310050310000000000          0187      065296 0697    059041   060145   062611   066971   065179   069149   071840   069523   069440   066829   061256   061251               130642611    7    120641351    7    110634051    7    100554351         090585531         057662   058933   062850   065158   065519   066323   069884   069993   067916   065464   061531   059501                                      
170001600310014 01370 481 251RD 109              1060889RD 937              1120980ANGOULINS           11100000060940060941700015003000       0187      000000                                                                                                                                 130000008         120000008         110000008         100000008         090000008                                                                                                                                                        
170001500310014 01370 411 251RD 214 E 1          0950104RD 109              1060889YVES                09806000117030117031700015001000       0187      000000                                                                                                                                 130000001         120000001         110000001         100000001         090000001                                                                                                                                                        
170001400310014 01370 481 251A 839               0900000RD 214 E 1          0950104ST LAURENT LA PRE   09200000046640046641700015003000       0187      000000                                                                                                                                 130000008         120000008         110000008         100000008         090000008                                                                                                                                                        
170001302310014 01370 4813 51TONNAY EB 20        0840254A 837               0860965DEV. ROCHEFORT      08500000019970019911700015003000       0187      000000                                                                                                                                 130000008         120000008         110000008         100000008         090000008                                                                                                                                                        
170001301310014 01370 4843001TONNAY EB 10        0800241TONNAY EB 20        0840254TONNAY CHARENTES    0830000004318000000170001200300000000000187      000000                                                                                                                                 130000008         120000008         110000008         100000008         090000008                                                                                                                                                        
170001300310014 01370 4813 51RD 123 E 3          0760000TONNAY EB 10        0800241PONT ST CLEMENT     0760400005854005854170001200300000000000187      000000                                                                                                                                 130000008         120000008         110000008         100000008         090000008                                                                                                                                                        
170001200310014 01370 4113 51RD 18               0650708RD 123 E 3          0760000LA VALLEE           0720000010691008929170001200100000000000187      000000                                                                                                                                 130000001         120000001         110000001         100000001         090000001                                                                                                                                                        
170001100310014 01370 4813 51RD 24 SAINTES       0500500RD 18               0650708RULON               0570300015537015537170001200300000000000187      000000                                                                                                                                 130000008         120000008         110000008         100000008         090000008                                                                                                                                                        
170001001310014 01370 4853 51RN 141              0460000RD 24 SAINTES       0500500SAINTES DEV.        0500000004478004478170001200300000000000187      000000                                                                                                                                 130000008         120000008         110000008         100000008         090000008                                                                                                                                                        
170000601310014 00110 411 251RN 137              0270000RN 137 RN 237       0350150DOMPIERRE SUR MER   02808500081460081461700012003000       0187      036252 0767    031375   032582   034201   036870   036683   038767   040327   040790   038984   037454   033523   033215               130356631    7    120352241    7    110316291         100310061         090326641         030547   031655   033993   036069   037001   037392   040699   041159   037924   035496   033525   032186                                      
170000400310014 00110 481 251RD 116 DEB 2*2 PR11 0090272RD 109              0200000FERRIERES D'AUNIS   01400000107150107151700003003000       0187      014180                                                                                                                                 130138308         120134608         110129368         100129608         090000008                                                                                                                                                        
170000300310014 00110 411 251DEPARTEMENT 79      0000000RD 116              0090272BENON               0080000009375009375170000300379000080230187      013355 1067    011032   011253   012242   013812   013590   014723   015470   016372   014568   013516   011894   011639               130130251 1137    120126761 1107    110121821 1137    100122031         090123951         010262   011019   012034   013406   013939   013811   015724   016261   013909   012644   011828   011300                                      
170000200310014 00100 411 251RD 730              0090915DEPARTEMENT 33      0190783MONTLIEU LA GARDE   0110300009672009672170000300300000000030187      021254         018931   020283   020909   022650   015360   022679   024366   026377                     020262   020692               130214641 4057    120000001         110000001         100000001         090000001         018131   019704   020394   021684   021749   021741   024483   025767   022083   021423   020256   019976                                      
170000100310014 00100 481 251DEPARTEMENT 16      0000000RD 730              0090915CHEVANCEAUX         0010000009935008904170000200316000090130187      019781                                                                                                                                 130199778 4417    120000008         110000008         100000008         090000008         016838   018385   019045   020314   020338   019708   023043   024197   020365   020008   018839   018497                                      
160002000310014 01410 4113 51GIR. CROIN          1100000DEPARTEMENT 17      1160367MOULIN ST LAURENT   1130660006657006657170000200317000210030187      013298                           011837   012685   012959   014184   015539   016346   013943   012807   011527   011121               130000001         120000001         110000001         100000001         090000001                                                                                                                                                        
160001901310014 01410 4153 51GIR. CHA. BERNARD   1050130GIR. CROIN          1100000COGNAC              1080960005137005137170000200300000000000187      018631 0767    016777   017277   018012   018923   018282   019409   020769   020484   019628   018933   017389   017584               130183711    7    120000001         110176341    7    100000001         090000001                           017037   018243   018136   018756   020896   020325   018841   018720   017241   017424                                      
160001802310014 01410 411 201RD 736 MONTAGAN     0960400GIR. CHA BERNARD    1050130GENSAC              1030059008587008560170000200300000000000187      019256 0817    016673   017427   018564   019824   019007   020566   021369   020851   020270   019806   018290   018314               130185501    7    120182821 1377    110179671         100160531         090174521         015997   016416   017304   018455   018684   020201   022045   020576   019711   018680   017490   016882                                      
160001700310014 01410 4113001RD 736 JARNAC       0940160RD 736 MONTAGAN     0960400JARNAC              0950023002255002255170000200300000000000193      012414 0897    010329   010990   011368   012462   012383   013654   014437   014392   013441   012703   011794   010939               130120841    7    120000001         110000001    0    100000001    0    090109351    0    009957   010347   011006   011820   012068   012844   014808   014453   013226   012298   011574   010484                                      
160001601310014 01410 4113 51RN 10 RTE COGNAC    0680000RD 736 JARNAC       0940160BOURRAS             0860170025948025113170000200300000000000187      013978 0807    012099   012627   013230   014303   013510   014572   015971   015670   015160   014449   013414   012650               130137931    7    120136981    7    110135551    7    100130981         090130291         011716   012141   013011   013993   013985   014671   016179   015736   014766   013878   013032   012296                                      
160001502310014 01410 4110201RD 13 LA ROCHEFOU.  0430000RN 10 ANGOULEME NORD0700000RUELLE              0580500019284018513170000200300000000000187      022747 2077    019910   020734   021393   023154   022298   024023   025334   025515   023951   023397   021691   021434               130217791 2097    120211471 2007    110188541 2177    100169351         090191991         018658   019509   020504   021760   021790   022445   024478   025075   022968   022616   021046   020363                                      
160001401310014 01410 4113 51                    0310304RD 13 LA ROCHEFOU.  0430000TAPONNAT            0410000010468006545170000200300000000000187      000000                                                                                                                                 130000001         120000001         110000001         100132961         090135571                                                                                                                                                        
160000902310014 00100 411 201BARBEZIEUX SUD      0880750DEPARTEMENT 17      1011148REIGNAC             0900000013161013161170000200317000010030187      021127 4017    018258   019580   020039   021409                     023787   025524   021076   021454   020020   020047               130206291 4137    120205791 4307    110202361 4447    100217621         090219591         017746   018940   019733   020962   020453   020913   023488   024828   021064   020546   019546   019162                                      
160000800310014 00100 411 201BARBEZIEUX NORD     0800000BARBEZIEUX SUD      0880750BARBEZIEUX          0820500008823008823170000200300000000000599      020304 4157    017465   018690   019169   020833   019821   020955   023005   024589   020373   020531   019072   018996               130198671 4257    120195791 4357    110202491 4387    100172471         090147611         016786   018076   018482   020357   020157   020580   022608   023985   020311   019934   018737   018229                                      
160000702310014 00100 4115001EX RN 10 ZI FONT    0610400BARBEZIEUX SUD      0800000PETIGNAC            0700110018107018107170000200300000000000187      000000                                                                                                                                 130000001         120000001         110000001         100000001         090000001                                                                                                                                                        
160000403310014 00100 415 251RD 699 ST. MICHEL   0530900EX RN 10 ZI FONT    0610400L'OISELLERIE        0550000007468007468170000200300000000000187      000000                                                                                                                                 130000001         120000001         110000001         100000001         090000001                                                                                                                                                        
160000402310014 00100 411 251RN 141 LES PLANES   0500950RD 699 ST. MICHEL   0530900GIRAC               0530650002969002969170000200300000000000187      031522 2877    028525   029960   030339   032517   030593   032209   034449   033945   031877   032341   030568   030828               130295891 3017    120299611 2937    110298211 3077    100277611         090000001         027207   027303   026383   030312   029273   031405   033097   030044   031082            028646   029449                                      
160000401310014 00100 415 251ECH NORD ANGOULEME  0450000RN 141 LES PLANES   0500950L EPINEUIL          0470300006347006347170000200300000000000187      045441 2347    040789   042394   043523   046529   044104   047220   049815   049578   046672   046707   043899   043845               130444761 2357    120435991 2377    110425761 2447    100379651         090413691         039229   040650   043090   044845   044587   045911   049251   048677   046168   045884   043156   041959                                      
160000102310014 00100 411 251ECH NORD.RUFFEC     0050000ECH NORD ANGOULEME  0450000AUSSAC              0270080040619039586170000200300000000000187      020868 2987    018692   019900   019993   021882   020702   021999   023395   024758   019940   021325   019947   017796               130208071 3097    120206891 2697    110184541 3147    100191561         090000001         018642   019144   018210   019933   021007   021684   023618   024636   021624   021293   020096   019644                                      
160000100310014 00100 411 251DEPARTEMENT 79      0000000ECH NORD.RUFFEC     0050000RUFFEC              0020930005279005279170000200386000090030187      016666 3607    014145   015258   015570   017452   016432   017526   019111   020364   016312   016566   015377   015737               130164301 3667    120162211 3707    110159151 4077    100157511         090155251         013571   014446   015572   016473   017089   016801   018789   020830            016376   015309   015307                                      