090000300310014 00200 4813 51RD 624              0150000PAMIERS A 66        0180000LE VERNET D'AR.     01500000022890022890900004023000       0187      000000                                                                                                                                 130000001         120000001         110000001         100000001         090117651                                                                                                                                                        
090000402310014 00200 411 251PAMIERS A 66        0180000RD 119              0210444PAMIERS             01902900034440034440900004023000       0187      022517  597    020579   022292   023475   022251   021617   022661   023427   023586   022833   023531   021812   022104               130219121  607    120218921    7    110219211    7    100213651    7    090208981    7    019701   020745   022983   021499   021047   022233   023265   023467   022471   023010   020298   022069                                      
090000501310014 00200 481 251RD 119              0210444RD 12               0241071ENTRE D12 ET D119   02309000036290036290900004023000       0187      000000                                                                                                                                 130223058         120000008         110000008         100000008         090212748                                                                                                                                                        
090000601310014 00200 481 251RD 12               0241071RD 13               0290000VARILHES DEV NORD   02602000044630044630900004023000       0187      000000                                                                                                                                 130230538         120000008         110000008         100000008         090219878                                                                                                                                                        
090000604310014 00200 481 251RD 13               0290000FOIX NORD           0350000GARRIGOU            02908000057790057790900004023000       0190      000000                                                                                                                                 130242758         120000008         110000008         100000008         090231528                                                                                                                                                        
090000801310014 00200 4113251FOIX NORD           0350000FOIX SUD            0400000FOIX                03903400047820047820900010013000       0102      015957  587    013615   015504   016481   014992   015294   017142   017318   019000   015781   016516   014829   014931               130152151  527    120154871    7    110157751    7    100150941    7    090151031    7    013218   013711   016244   014246   014469   015325   017062   018667   015419   015760   012923   015291                                      
090000901310014 00200 411 251FOIX SUD            0400000RD 117              0430500MONTGAILLARD        04106240035000035000900010013000       0102      019518  618    016782   018758   019642   018758   019112   019326   021849   024109   020045   020115   017947   017647               130188741  438    120192371    8    110193801    8    100189851    8    090190331    7    015864   016479   019617   017943   018285   019280   021637   023495   019585   019526   016000   018467                                      
090001001310014 00200 411 251RD 117              0430500RD 8                0540498ARIGNAC             05107460110780110780900010013000       0187      014685  608    012057   013646   014541   013675   014298   014973   017246   019450   015037   015128   013196   012820               130141651  438    120145841    8    110147121    8    100143811    8    090145281    7    011582   011903   014696   013214   013556   014501   017670   018510   014899   014434   011407   013304                                      
090001100310014 00200 4113 51RD 8                0540498RD 102              0710104LES CABANNES        06204200169260169260900010013000       0187      009198  567    007069   008647   009661   008379   008966   008998   011368   013798   009432   008252   008057   007634               130089241  637    120091251    7    110092781    7    100090961    7    090092831    7    007203   007355   008619   008286   008409   009109   010992   013743   009375   008933   006431   008404                                      
090001200310014 00200 4113 51RD 102              0710104RD 613              0790614PERLES CASTELET     07309000086570086570900010013000       0187      009676  407    007639   009374   010212   008602   009164   009211   011581   014350   009780   009672   008359   008053               130092781  407    120094231    7    110095441    7    100093071    7    090095811    7    007122   007908   010164   008197   008582   009099   011345   014172   009671   009140   006719   008983                                      
090001300310014 00200 4813 51RD 613              0790614RD 322              0880240MERENS NORD         08609400085320085320900010013000       0187      000000                                                                                                                                 130077258         120000008         110000008         100000008         090079248                                                                                                                                                        
090001400310014 00200 4113 51RD 322              0880240RN 22               0970737MERENS              08904330094920094920900014003000       0187      006925  498    004584   005618   006479   006306   007186   006891   008859   011467   007295   007109   005971   005169               130065601  458    120070901    8    110072141    8    100067631    8    090069341    7    003962   004171   006724   005868   006531   006897   008397   011399   007344   006669   004874   005623                                      
090001800310014 00200 4813 01RN 22               0970737RN 320              0980688LHOSPITALET EST     0980100000951000951120001300300000000000187      000000                                                                                                                                 130000001         120000001         110000001         100000001         090000001                                                                                                                                                        
090001500310014 00220 4813 51RN 20               0000000RN 320              0040015N 22 VERS ANDORRE   00305000040150040150900014003000       0187      000000                                                                                                                                 130074598         120000008         110000008         100000008         090078858                                                                                                                                                        
090001600310014 03200 4813 51RN 20               0000000DEPARTEMENT 66      0020132R.N 320 AUX P.O     0010800002249002249090001400366000100030187      000000                                                                                                                                 130067008         120000008         110000008         100000008         090070838                                                                                                                                                        
120000600310014 00880 4113 51RN 9                0020800RD 28               0240290VARES               01201000221070221071200013003000       0187      000000                                                                                                                                 130000001         120066041         110067531 1807    100064971 1887    090067001                                                                                                                                                        
120000700310014 00880 4113 51RD 28               0240290RD 224              0420390GAGES               03604000181510181511200013003000       0187      009026 1228    008570   006864   005739   006397   009224   009205   012004   010165   010875   010186   009352   009509               130100171 1178    120000001         110102301 1317    100100641 1258    090100141 1257    008160   008488   009159   009979   010335   010406   012366   012407   009934   010334   009248   009223                                      
120000801310014 00880 4113 51RD 224              0420390RD 988              0470000LA ROQUETTE OUEST   04305000047800047801200013003000       0187      014635         012314   013034   013486   014862   014626   015647   016554   016235   014958   000000   000000   000000               130138181         120000001         110142541         100140291         090145721         011850   012400   013391   013754   013928   015237   015863   013496   014380   015125   013227   013074                                      
120001002310014 00880 4113 51RD 901              0480095RN 140              0480660LES MOUTIERS OUEST  04801500005650005651200013003000       0187      034182         014394   014929   015008   016107   015297   016089   016292   015843   016256   015769   013700   012936               130347691         120000001         110000001         100332371         090330661         013532   014447   015306   016281   015765   016265   016586   015876   016199   015824   014500   014913                                      
120001001310014 00880 4113 51RD 988              0470000RD 901              0480095LES MOUTIERS EST    04800500011750011751200013003000       0187      026346                                                                                                                                 130260651         120000001         110000001         100000001         090257001                           000000   000000   000000   000000   000000   000000   000000   000000            000000                                      
120001003310014 00880 4113 51RN 140              0480660RD 84 RD 67         0500000SAINT-CLOUD         05000000015620015621200013003000000000 0187      022591         020887   021734   021916   023433   022110   023181   023236   022537   023370   023942   022381   022343               130221281  837    120000001         110000001         100000001         090215931    7    019959   020936   022185   022850   022458   023152   023788   022451   023178   022067   021010   021438                                      
120001004310014 00880 4113 51RD 84 RD 67         0500000PONT V.C. OLEMPS    0520200SAINT-CLOUD         05000000023230023231200013003000       0187      025323         023571   024469   024312   026084   024860   026108   025387   024942   026440   027283   025404   025035               130240311  777    120000001         110000001         100000001         090207921         022372   023543   025018   025685   025190   026154   026955   025320   026103   018450   019718   023867                                      
120001005310014 00880 4813 51PONT V.C.OLEMPS     0520200RD 66 RD 212        0530386LE LACHETversST-CLOU05303000012630012631200013003000       0187      000000                                                                                                                                 130000001         120000001         110000001         100000001         090200001                                                                                                                                                        
120001006310014 00880 4813 51RD66 RD212          0530386RD 911              0560800LA PRIMAUBE         05407100034140034141200013003000       0187      000000                                                                                                                                 130000001         120000001         110000001         100000001         090162261    7                                                                                                                                                   
120001100310014 00880 4113 51LA PRIMAUBE RD 911  0560800BARAQUEVILLE RD 911 0680015LE LAC              06207300090910090911200013003000       0187      015614  978    014080   014545   015027   016678   016022   016725   015702   016979   016883   017159   014809   012746               130154741  878    120154821         110155801    7    100153431    8    090152411    8    012921   013778   015084   015614   015840   016171   017028   016671   016605   016399   014724   014732                                      
120001200310014 00880 4813 51RD 911              0680015RD 997              0810695BARAQUEVILLE        06902340136870136871200013003000       0187      000000                                                                                                                                 130103508         120000008         110000008         100000008         090000008                                                                                                                                                        
120001300310014 00880 4113 51RD 997              0810695DEPARTEMENT 81      0910192NAUCELLE            0840550009447009447310003300381000010030187      000000                                                                                                                                 130080691 1427    120081421         110080131         100071471         090079001         006374   006970   007852   008176   008313   008396   009014   009174   008742   008636   007591   007515                                      
310506100310014 00640 111 241ECH 22 ASF          2340270ECH 23              2390200                    2340000004930004930320000500300000000000199      000000                                                                                                                                 130000001         120000001         110000001         100000001         090000001                                                                                                                                                        
310506200310014 00640 111 241ECH 23              2390200ECH 24              2430000LAVELANET de COMMIN.2420000003800003800320000500300000000000199      033433 113                                                                                                                             130000001         120000001         110345751 105     100344951         090342961                                                                                                                                                        
310506300310014 00640 111 241ECH 24              2430000ECH 25              2460000                    2440000003000003000320000500300000000000199      000000                                                                                                                                 130000001         120000001         110000001         100373951         090000001                                                                                                                                                        
310506500310014 00640 111 241ECH 26              2460000ECH 27              2540000LACRA               2530800008000008000320000500300000000000199      000000                                                                                                                                 130000001         120000001         110446831 101     100443051         090000001                                                                                                                                                        
310506600310014 00640 111 241ECH 27              2540000ECH 28              2580000                    2550000004000004000320000500300000000000199      000000                                                                                                                                 130000001         120000001         110000001         100443051         090000001                                                                                                                                                        
310506700310014 00640 111 241ECH 28              2580000ECH 29              2590500                    2590000001500001500320000500300000000000199      000000                                                                                                                                 130000001         120000001         110000001         100443051         090000001                                                                                                                                                        
310506800310014 00640 111 241ECH 29              2590500ECH 30              2610200                    2600000001700001700320000500300000000000199      000000                                                                                                                                 130000001         120000001         110000001         100000001         090000001                                                                                                                                                        
310506900310014 00640 111 241ECH 30              2610200ECH 31              2630000                    2620000001800001800320000500300000000000199      000000                                                                                                                                 130000001         120000001         110000001         100000001         090000001                                                                                                                                                        
310507000310014 00640 111 241ECH 31              2630000ECH 32              2640800                    2640000001800001800320000500300000000000199      000000                                                                                                                                 130000001         120000001         110000001         100000001         090000001                                                                                                                                                        
310507100310014 00640 111 241ECH 32              2640800ECH 33              2690000MURET SUD           2670800004200004200320000500300000000000199      052881  93                                                                                                                             130000001         120000001         110495261         100000001         090518851                                                                                                                                                        
310507200310014 00640 111 241ECH 33              2690000ECH 34              2720000PODIO               2690673003000003000320000500300000000000199      049682  997    055321   057546   057100   053679   055979   059857   063573   060528   058958   053600   054660   058790               130585971 1057    120498791    7    110371461 1067    100385161    7    090000001                  052947   056399   057562   057067   059787   064821   061755   059157   060985   056084   057394                                      
310507201310014 00640 111 241ECH 34              2720000ECH 35 ASF          2740089MURET NORD          2720800002032002032320000500300000000000199      057472  977    043777   051793   052121   054130   051207   055927   058405   057335   053965   052841   050576   052492               130265181  747    120000001         110000001         100000001         090470001         024838   024668   026372   026471   026175   027095   028450   028965   026917   027426   025267   025389                                      
310505200310014 00680 181 241GEMIL FIN CONCEDEE  0170105DPT81               0220110A68 ETAT GESTION 81 0180000005005005005320000500381050010030187      000000                                                                                                                                 130000001         120000001         110000001         100000001         090000001                                                                                                                                                        
310003202310014 01240 481 251DEBUT 2X2 VOIES     0060000Fin 2x2 voies       0090317COLOMIERS           00900000029200029203100033003000       0187      000000                                                                                                                                 130000008         120000008         110000008         100000008         090000008                                                                                                                                                        
310003300310014 01240 481 251FIN 2X2 VOIES       0090317RD 24               0130192COLOMIERS siredo    01107000039190039193100033003000       0187      000000                                                                                                                                 130000001         120000001         110000001         100000001         090000001                                                                                                                                                        
310003400310014 01240 481 251RD 24               0130192DEPARTEMENT 32      0191064LEGUEVIN            0150800007216007216310003300332000090030187      000000                                                                                                                                 130000008         120000008         110000008         100000008         090000008                                                                                                                                                        
310003600310014 01250 4113 51A 645               0030000RD 33 LABROQUERE    0050196LABROQUERE          00408000019010019013200005003000       0187      000000                                                                                                                                 130000001         120000001         110144291    7    100134071    7    090137001                                                                                                                                                        
310338500310014 01250 4113 51LABROQUERE          0050196RD 33 CHAUM         0181637GALIE               01403000137270137273200005003000       0211      000000                                                                                                                                 130000001         120000001         110000001    7    100000001         090000001                                                                                                                                                        
310003800310014 01250 4112 51RD 33 CHAUM         0181637RD 44               0230442CHAUM               01907000048780048783200005003000       0187      003666  677    003342   003732   003430   003130   003622   003531   004354   005003   003596   003525   003186   003505               130036061  627    120039441    7    110043891    7    100047561    7    090050451         003257   003767   004502   003685   002197   002861   003809   005170   003697   003477   003050   003785                                      
310003900310014 01250 4112001RD 44               0230442ESPAGNE             0340110FOS                 03100000106990106993200005003000       0187      003768 100                                                                                                                             130000001         120000001         110000001         100000001         090052421    7                                                                                                                                                   
310000200310014 02240 4113001RD 17 MONTAIGUT     0070000CORNEBARRIEU        0310876MONDONVILLE         0250850026105026105310003300300000000000187      000000                                                                                                                                 130102341  357    120101681    7    110103451         100041331         090000001         010110   010456   010609   010812   010156   010905   009856   008148   010589   010778                                                        
310508003310014 06200 1110231SESQUIERES          0000724LES MINIMES 31      0030626GINESTOUS           0020130002857002857320000500300000000000187      126307  58                                                                                                                             130000001         121257861         111253631         101245281         091222271                                                                                                                                                        
310508106310014 06200 1110231ES MINIMES 31       0030626PONT JUMEAUX 30     0050106PONT JUMEAUX        0040432001464001464320000500300000000000187      100418  57                                                                                                                             130000001         121003161         111017501         101015421         091007461                                                                                                                                                        
310508200310014 06200 1110231PONT JUMEAUX 30     0050106PURPAN 29           0060074PONT GARONNE        0050354000966000966320000500300000000000187      123522  48                                                                                                                             130000001         121227911         111224401         101223951         091231011                                                                                                                                                        
310508300310014 06200 1110231PURPAN 29           0060074CEPIERE 27          0080497STATION A620        0070789002433002433320000500300000000000187      136448  56                                                                                                                             131357061         121353511         111356011         101343801         091338601                                                                                                                                                        
310508400310014 06200 1110231CEPIERE 27          0080497LA FAOURETTE        0090542FAOURETTE           0090100001056001056320000500300000000000187      133920  54                                                                                                                             130000001         121347321         111334561         101309511         091310301                                                                                                                                                        
310508500310014 06200 1110231LA FAOURETTE        0090542BORDELONGUE         0110801PT DE SEYSSES       0100604002247002247320000500300000000000187      131177  55                                                                                                                             130000001         121307171         111303761         101287231         091284741                                                                                                                                                        
310508700310014 06200 1110231LANGLADE 25         0110801EMPALOT 24          0130601EMPALOT             0120660001836001836320000500300000000000187      135708  347    133417   139987   135464   140175   129854   137714   136852   121628   142073   143502   134714   133913               130000001         121220791    7    111331041    7    101236771    7    091282971                                                                                                                                                        
310508800310014 06200 1110231EMPALOT 24          0130601RANGUEIL 23         0140000RANGUEIL            0130888000363000363320000500300000000000187      089096  467    085785   090343   088065   091242   085551   090852   092141   083858   093034   093639   087316   087649               130894501  467    120881161    7    111164581    7    100865361    7    091134711         085482   088527   089590   092192   087392   092814   095698   085018   090877   093631   087435   084841                                      
310508900310014 06200 1110231RANGUEIL 23         0140000DEMOISELLES 21      0150880RANGUEIL-DEMOIS     0140536001873001873320000500300000000000187      100171  49                                                                                                                             130000001         120992471         110987201         100973401         090962871                                                                                                                                                        
310509000310014 06200 1110231DEMOISELLES 21      0150880LESPINET 20         0160048DEMOISELLES         0160000000172000172320000500300000000000187      104867  517    102482   107151   104323   107854   100789   103921   107054   096925   110086   110713   103757   103776               131054531  517    121040321    7    111033591    7    101094161    7    090000001         101130   104781   106060   107553   103566   109496   111976   098504   107877   110500   103648   100491                                      
310509100310014 06200 1110231LESPINET 20         0160048PALAYS A61          0170777LESPINET            0160285001730001730320000500300000000000187      079683         093753   098037   088731   089508   080371   082615   074572   056646   065820   056009   074167   097534               130932291  557    120950501    7    110955801    7    100957821    7    090952471         092541   095891   097207   100064   095366   098968   094160   073288   083795   099851   095345   092699                                      
310509600310014 06210 1110231ST MICHEL DU TOUCH  0000000LE RITOURET         0030992RITOURET            0020485003990003990320000500300000000000998      000000    7    068964   070862   067780   071627   064971   071055   068720   055650   070588   074273   069241   069737               130000001  417    120912271    7    110980821         100972381    7    090972781         067244   069265   069459   071019   066120   073105   070701   056064   069924   072945   069585   067384                                      
310509200310014 06230 1114031PALAYS              0000000CNES                0000415A623                0000250000415000415320000500300000000000187      027906  407    028927   030394   028123   028959   025099   028081   025829   021150   029526   029462   030189   029531               130000001         120000001         110407261         100410201         090404691                                                                                                                                                        
310502000310014 06240 111 231PURPAN              0000000BAYLAC 1            0000520PURPAN A624         0000351000520000520320000500300000000000194      106413  44                                                                                                                             130000001         121053911         111066331         101061381         091061011                                                                                                                                                        
310502100310014 06240 111 231BAYLAC 1            0000520ST MARTIN DU TOUCH  0010500BAYLAC              0001184001163001163320000500300000000000194      104981  53                                                                                                                             130000001         120996131         111066661         101060351         091069061                                                                                                                                                        
310502200310014 06240 111 231ST MARTIN DU TOUCH  0010500LA CRABE            0030900CRABE EST           0020252002400002400320000500300000000000194      127842  54                                                                                                                             130000001         121250371         111239341         101221671         091170111                                                                                                                                                        
320000200310014 00210 4113 51LECTOURE NORD       0100760FLEURANCE EB 10     0220960SAINT GENY          01708500114410114413200005003000       0187      006275 1188    005641   005988   005999   006394   006036   006472   006920   006870   006545   006658   005909   005844               130062461  718    120068241    8    110064321 1248    100064601    8    090064481    8    005452   005654   006075   006235   006259   006467   006899   006957   006520   006617   005896   005870                                      
320000300310014 00210 4843 51FLEURANCE EB 10     0220960FLEURANCE EB 20     0260856FLEURANCE AGGLO     02500000043080043083200005003000       0187      000000                                                                                                                                 130074778         120075098         110000008         100000008         090072638                                                                                                                                                        
320000400310014 00210 4813 51FLEURANCE EB 20     0260856RD 172              0360397FLEURANCE AN SUD    02608700096010096013200005003000       0187      000000                                                                                                                                 130078138         120000008         110000008         100000008         090082828                                                                                                                                                        
320000500310014 00210 4113 51RD 172              0360397AUCH EB 10          0460900ROUTE D'AGEN        04504500105290105293200016013000       0187      010086         009704   010141   009959   010428   009800   010295   010180   009820   010436   010708   009775   009809               130097831         120098241         110103221         100103791         090103691         009410   009541   009889   009813   008778   009633   010049   009966   010298   010548   009803   009657                                      
320000599310014 00210 4853 51AUCH EB 10          0460900AUCH EB 20          0520026AUCH                05200000054200054203200016013000       0187      000000                                                                                                                                 130207688         120000008         110209018         100000008         090195228                                                                                                                                                        
320000601310014 00210 4113 51AUCH EB 20          0520026DEBUT 3 VOIES       0630209DEPOT FERRE         05309000111850111853200006013000       0187      000000                                                                                                                                 130078471         120077721         110079591         100080411         090080801         007098   007407   007800   007795   007793   008259   008363   008098   008092   008244   007585   007602                                      
320000602310014 00210 4815 51DEBUT 3 VOIES       0630209FIN 3 VOIES         0650264COMPTAGE 0006 01    06500000019810019813200006013000       0187      000000                                                                                                                                 130082478         120000008         110000008         100000008         090084928                                                                                                                                                        
320000603310014 00210 4813 51FIN 3 VOIES         0650264DEBUT 3 VOIES       0690175COMPTAGE 0006 02    06600000037400037403200006011000       0187      005902 100 uci                                                                                                                         130061578         120000008         110000008         100000008         090063908                                                                                                                                                        
320000604310014 00210 4815 51DEBUT 3 VOIES       0690175FIN 3 VOIES         0700499COMPTAGE 0006 03    07000000013300013303200006012000       0187      000000                                                                                                                                 130081248         120000008         110000008         100000008         090083008                                                                                                                                                        
320000605310014 00210 4813 51FIN 3 VOIES         0700499RD 104              0720812COMPTAGE 0006 04    07100000022820022823200006013000       0187      000000                                                                                                                                 130075088         120000008         110000008         100000008         090077318                                                                                                                                                        
320000700310014 00210 4813 51RD 104              0720812RD 3                0890612MIRANDE             07505000167280167283200008003000       0187      004934 131 uci                                                                                                                         130056428         120000008         110000008         100000008         090058418                                                                                                                                                        
320000800310014 00210 4113 51RD 3                0890612DEPARTEMENT 65      1000408LAGUIAN             08909000102290102293200010003000       0187      004619 1137    004124   004331   004441   004613   004511   004788   004991   005079   004956   004891   004416   004264               130046431 1127    120046751 1137    110047361 1117    100047571 1157    090048061 1247    004073   004176   004539   004577   004535   004688   005289   005215   004958   004847   004388   004383                                      
320000901310014 01240 4813 51DEPARTEMENT 31      0000000DEBUT DEV PUJAUDRAN 0020700COMPTAGES 0009.03   0010000002690002690320001000331000340030191      000000                                                                                                                                 130000008         120000008         110000008         100000008         090145338                                                                                                                                                        
320000902310014 01240 481 251DEBUT DEV.PUJAUDRAN 0020700FIN DEV.            0050800DEV.PUJAUDRAN       0040000002982002982320001000300000000000191      000000                                                                                                                                 130000008         120000008         110000008         100000008         090144098                                                                                                                                                        
320000903310014 01240 411 251FIN DEV .PUJAUDRAN  0050800RD 654              0130143PUJAUDRAN           0060165006290006290320001000300000000000191      022750  688    022351   023039   021997   023079   021861   022950   022462   022168   023618   023823   022555   023166               130229831  548    120222671    8    110220551    8    100213601    8    090188661    8    023398   022816   022091   022383   022036   023333   023806   022101   022378   023488   024005   023947                                      
320001000310014 01240 4113 51RD 654              0130143DEBUT 3 VOIES       0320587ISLE JOURDAIN       0170800019015019015320001000300000000000187      000000                                                                                                                                 130000001         120000001         110116461 1038    100113721    8    090107991    8                                                                                                                                                   
320001100310014 01240 4815 51DEBUT 3 VOIES       0320587GIR. AUBIET EST     0350180CAHUZAC             0330500002610002610320001000300000000000187      000000                                                                                                                                 130000008         120000008         110000008         100000008         090108458                                                                                                                                                        
320001200310014 01240 481 251GIR. AUBIET EST     0350180RD 928              0380970DEV AUBIET EST      0360000003877003877320001000300000000000187      000000                                                                                                                                 130000008         120000008         110000008         100000008         090098918                                                                                                                                                        
320001300310014 01240 481 251RD 928              0380970GIR. AUBIET OUEST   0421029DEV AUBIET OUEST    0390300004175004175320001000300000000000187      000000                                                                                                                                 130000008         120000008         110000008         100000008         090127018                                                                                                                                                        
320001400310014 01240 4815 51GIR. AUBIET OUEST   0421029FIN 3 VOIES         0490332MARSAN              0470000006295006295320001000300000000000187      000000                                                                                                                                 130000008         120000008         110000008         100000008         090116338                                                                                                                                                        
320001501310014 01240 4113 51FIN 3 VOIES         0490332GIR ST.CRICQ        0510490ST.CRICQ            0420900002010002010320001601300000000000189      012626  727    011068   011645   011863   012652   012478   013204   013572   013815   013225   013303   012357   012269               130124681  697    120000001         110000001         100143531         090141891                  011124   011845   012199   012365   012685   013383   013319   013298   012952   012120   011749                                      
320001502310014 01240 4113 01GIR ST.CRICQ        0510490GIR . ENDOUMINGUE   0560100ENGACHIES           0530020003766003766320001601300000000000187      009139 1278    007910   008366   008434   009168   008832   009785   009905   010088   009674   009635   008933   008896               130090441 1028    120085091 1418    110088371 1238    100082821 1267    090080371    8    007633   008141   008649   009162   009570   009412   010250   009858   009320   009270   008638   008541                                      
320001601310014 01240 4113 01GIR . ENDOUMINGUE   0560100GIR. RD 930         0620500DURAN               0610450005388005388320001601300000000000287      010912  967    009672   010210   010103   010982   010593   011738   011983   011844   011487   011343   010500   010450               130106781 1007    120104021 1027    110107461 1007    100107791    7    090100371    7    009219   009662   010190   010600   010807   010897   012048   011759   011152   011103   010382   010231                                      
320001701310014 01240 4813 51GIR. RD 930         0620500DEBUT 3 VOIES       0730700NAHES               0650000011046011046320001601300000000000187      000000                                                                                                                                 130085698         120000008         110000008         100000008         090080558                                                                                                                                                        
320001702310014 01240 4815 51DEBUT 3 VOIES       0730700FIN 3 VOIES         0760330ST JEAN POUTGE      0750000002653002653320001601300000000000187      000000                                                                                                                                 130085858         120000008         110000008         100000008         090080708                                                                                                                                                        
320001703310014 01240 4813 51FIN 3 VOIES         0760330RD 626              0850735ST JEAN POUTGE      0780000009453009453320001601300000000000187      000000                                                                                                                                 130067848         120066098         110000008         100000008         090066648                                                                                                                                                        
320001800310014 01240 4813 51RD 626              0850735RN 524              1030378CARGET              0870000017578017578320001601300000000000187      006216 162 uci                                                                                                                         130051508         120000008         110000008         100000008         090048418                                                                                                                                                        
320004000310014 02240 4812 51R N 124             0000000RD 654              0030000L'ISLE JOURDAIN     0010500003058003058320001000300000000001290      000000                                                                                                                                 130000008         120000008         110000008         100021848         090021808                                                                                                                                                        
320004001310014 02240 4812 51RD 654              0030000HAUTE GARONNE       0060654L'ISLE JOURDAIN     0040000003698003698320001000300000000000106      000000                                                                                                                                 130000008         120000008         110000008         100010628         090009238                                                                                                                                                        
320003000310014 05240 4812 51DPT LANDES          0780311RD 626 CAZAUBON     0840000BARBOTAN            0840000005823005823320001601300000000000189      000000                                                                                                                                 130016798         120000008         110000008         100000008         090000008                                                                                                                                                        
320003100310014 05240 4812 51RD 626 CAZAUBON     0840000RD 931 EAUZE        1030000MANCIET             1020000019207019207320001601300000000000189      000000                                                                                                                                 130048858         120000008         110000008         100000008         090000008                                                                                                                                                        
320003300310014 05240 4812 51RD 931 EAUZE        1030000R.N 124             1070373LA JALOUSIE         10500000044970044973200016013          0189      000000                                                                                                                                 130015218         120000008         110000008         100000008         090014308                                                                                                                                                        
330093200310014 05240 4843 51PORT LANGON         0000000RD 3  BAZAS         0120790MAZERES             00707640135340135340000000000000       0397      009234  63 uci                                                                                                                         130000008         120000008         110000008         100167768         090000008                                                                                                                                                        
330093201310014 05240 4843 51RD 3  BAZAS         0120790RD 932 CAPTIEUX     0320000CAPTIEUX NORD       03002000188190188190000000000000       0397      003461  89 uci                                                                                                                         130000008         120000008         110000008         100067488 184     090070508                                                                                                                                                        
330093202310014 05240 4843 51RD 932 CAPTIEUX     0320000DPT 40              0360403CAPTIEUX  vers DPT4003600000043890043890000000000400       0397      000000                                                                                                                                 130000008         120000008         110000008         100000008         090000008                                                                                                                                                        
400052401310014 05240 4813 51DPT 33              0370000RD 933              0650000PLAISANCE           04900000282630282630000000000000000000 0104      000000                                                                                                                                 130000008         120004988 139     110000008         100000008         090000008                                                                                                                                                        
400052402310014 05240 4113 51RD 933              0650000GABARRET            0750000LAPEYRADE           06506000101810101810000000000000000000 0104      000972 131                                                                                                                             130000001         120009691 139     110010171         100010511 144     090011501                                                                                                                                                        
400052403310014 05240 4813 51GABARRET            0750000DPT 32              0780311GABARRET SUD        07800000033610033610000000000000000000 0104      002781  82 uci                                                                                                                         130000008         120000008         110000008         100000008         090000008                                                                                                                                                        
650000100310014 00210 4813001Dpart. 32          0000000RD 934              0020352RABASTENS           0000325002344002344650000201332000080030187      000000                                                                                                                                 130057348         120058038         110000008         100000008         090060008                                                                                                                                                        
650000201310014 00210 4113001RD 934              0020352RD 2                0140940ESCONDEAUX          0100150012603012603650000201300000000000187      006282  828    005825   006075   006166   006306   006185   006460   006617   006384   006482   006658   006103   006104               130062561  708    120063291    8    110065471    8    100057221    8    090070001         005635   005838   006256   006353   006234   006304   006612   006555   006480   006664   006027   006079                                      
650000202310014 00210 4813001RD 2                0140940AUREILHAN EB 10     0170815AUREILHAN-NORD      0150470002880002880650000201300000000000187      000000                                                                                                                                 130098448         120000008         110000008         100000008         090108508                                                                                                                                                        
650000390310014 00210 4843001AUREILHAN EB 10     0170815GIRATOIRE SEMEAC    0200160AUREILHAN VILLE     0180100002494002494650000392300000000000187      010697  75 uci                                                                                                                         130108458         120113758         110000008         100000008         090107008                                                                                                                                                        
650000392310014 00210 4150201GIRATOIRE ST FRAI   0210000GIRATOIRE ALSTHOM   0210671CITE MOUYSSET       0210610000671000671650000392300000000000195      016147  497    016177   016484   016523   016850   015656   016683   015566   014169   016505   016995   016545   015700               130162561  497    120170481    7    110174221    7    100173511    1    090168171         016582   016796   017486   017148   016240   016613   015368   011806   017090   017572   016632   015868                                      
650000391310014 00210 4850201GIRATOIRE SEMEAC    0200160GIRATOIRE ST FRAI   0210000PONT SAINT FRAI     0200650000778000778650000392300000000000190      000000                                                                                                                                 130000008         120000008         110000008         100000008         090000008                                                                                                                                                        
650000394310014 00210 4850201GIRATOIRE ORMEAU    0220515GIRATOIRE BAGNERES  0221105STADE TRELUT        0220850000590000590650000395300000000000195      000000                                                                                                                                 130216238         120000008         110000008         100000008         090235008                                                                                                                                                        
650000393310014 00210 4850201GIRATOIRE ALSTHOM   0210671GIRATOIRE ORMEAU    0220515ALSTHOM             0211240001572001572650000392300000000000195      000000                                                                                                                                 130217848         120000008         110000008         100000008         090221008                                                                                                                                                        
650000395310014 00210 4150201GIRATOIRE BAGNERES  0221105GITATOIRE HOSPITAL  0230635DEBUSSY             0221500001104001104650000395300000000000195      025114  427    025041   025863   025967   026116   024145   025610   024933   022694   025340   025983   024744   025041               130254021  417    120254881    7    110259381    7    100259101         090271571         024804   025231   026439   025693   024338   025218   024667   023235   025596   026857   026607   026172                                      
650000396310014 00210 4853001GIRATOIRE HOPITAL   0230635TARBES EB 20        0240570ROCADE SUD          0231310001437001437650000395300000000000189      000000                                                                                                                                 130172728         120000008         110000008         100000008         090188008                                                                                                                                                        
650000401310014 00210 4813001TARBES EB20         0240570GIRATOIRE A64       0250338ACCES A64           0250000001341001341650000395300000000000298      000000                                                                                                                                 130127908         120000008         110000008         100000008         090000008                                                                                                                                                        
650000402310014 00210 4813001GIRATOIRE A64       0250338RD 921 A            0290340DEVIATION DE JUILLAN0261475005503005503650000395300000000000189      000000                                                                                                                                 130129808         120130248         110145918         100137598         090000008                                                                                                                                                        
650000501310014 00210 4813001RD 921 A            0290340RD 93               0330100ADE                 0320825003772003772650000395300000000000187      000000                                                                                                                                 130000001         120000001         110112191         100000001         090000001                                                                                                                                                        
650000502310014 00210 4813001RD 93               0330100LOURDES             0390152TOULICOU            0330260005985005985650000395300000000000195      019907  65 uci                                                                                                                         130158158         120158698         110173178         100000008         090000008                                                                                                                                                        
660001101310014 00200 4113001RN 320 TUNNEL PUYMOR0140000UR RD 618           0290670PORTA               0170550015686015686660002800300000000001093      003481  798    003069   003519   003929   002920   002799   003166   004494   006126   003341   002854   002277   003208               130033151  778    120035101    8    110034511    8    100034351         090037811    7    002612   002898   004350   002431   002510   002936   004853   005747   003276   002641   001881   003506                                      
660090042310014 00200 4122001N116                0320908ESPAGNE             0321190BOURG-MADAME-FR.    0321150000282000282810000502300000000001287      008158  208    007651   007802   008104   007841   007358   007716   009277   011984   007733   007130   006881   008303               130081021  218    120081541    8    110080821    8    100082141         090080001         007388   007672   008932   007202   007165   007504   008560   012772   007544   006886   006847   008612                                      
660001300310014 00200 4113001RD618 UR            0290670RN116 BOURG MADAME  0320908BOURG-MADAME-NORD   0320400003255003255660002800300000000001291      004600  507    004263   004561   004625   004570   004353   004723   005550   006943   004274   003805   003519   003964               130049091  487    120050801    7    110051361    7    100052301         090053821    7    004254   004335   005045   004060   004303   004858   005795   007616   005008   004648   004255   004632                                      
660090362310014 00220 4112001GIRATOIRE/ENVALIRA  0050050PAS DE LA CASE      0050734PAS_MERE            0050200000684000684810000502300000000000205      007466  287    002940   002990   003287   003355   003602   003640   005352   005390   003605   003761   003295   002907               130034741  297    120075521    7    110000001    7    100071271         090073041    7    002390   002239   003391   002638   003128   003643   004451   006240   004024   003571   002543   003277                                      
660090261310014 00220 4112001CROISADE            0000000GIRATOIRE / ENVALIRA0050050PAS_MERE            0040800005745005745810000502300000000000205      007427  207    004651   005763   006735   006876   007595   007246   009562   012793   007945   007588   006487   005687               130069161  177    120074671    7    110076151    7    100070501         090072591    7    004216   003877   006666   006167   006732   007296   009002   012681   008023   007077   004730   006188                                      
660002400310014 01160 4110201GIRATOIRE ST CHARLES0000000Echangeur du Soler  0060400PERPIGNAN RN116     0040360003407003407660002800300000000000390      024494  437    022617   023851   023758   024284   023861   024998   026925   027353   025244   024580   023149   023237               130259441  417    120257271    7    110262431    7    100261401         090259321         024909   025722   026361   026660   026968   029051   030348   027014   024891   024100   022006   023239                                      
660002401310014 01160 4810201Echangeur du Soler  0060400Echangeur RD 16     0110650LE SOLER            0100900005251005251660002800300000000000390      000000                                                                                                                                 130197228         120196558         110196948         100000008         090000008                                                                                                                                                        
660002500310014 01160 4110101Echangeur RD 16     0110650Echangeur Millas    0141200SAINT FELIU         0130540003451003451660002800300000000000101      020335  427    018396   019375   019732   019665   019577   021006   023004   024043   021207   020483   018513   018890               130198021  417    120195141    7    110196321    7    100192981         090192331    7    017695   018276   018948   018785   018957   020452   022828   023797   020808   019834   018096   018965                                      
660002601310014 01160 4110101Echangeur Millas    0141200Echangeur Ille/Tt  0220000MILLAS              0170250007575007575660002800300000000001287      015179  437    013481   014250   014685   014431   014516   015721   017666   019419   015674   014972   013448   013744               130146011  437    120144711    7    110143361    7    100148641         090150631         012879   013142   014031   013711   013954   014686   017239   018034   015418   014687   013161   014083                                      
660002700310014 01160 4113001Echangeur Ille/Tt  0220000D35 PRADES          0420441BOULETERNERE        0270500019996019996660002800300000000001287      015088  568    013170   013929   014490   014165   014569   015741   017722   019664   015973   014961   013279   013248               130148711  358    120146571    8    110147971    8    100148251         090149591    7    012649   013206   013926   013676   014306   015674   017910   019606   015917   014652   012937   013797                                      
660002800310014 01160 4113001D 35(N9116)         0420441D116 VILLEFRANCHE   0480311RIA                 0450250006469006469660002800300000000000390      010070         008396   008967   009721   008930   009313   010272   012589   015076   010954   009962   008112   008370               130099021         120098681         110098871         100099941         090101961         008005   008583   009255   008575   009043   010082   013080   014800   010650   009754   007922   008877                                      
660002900310014 01160 4813001D 116               0480311D 4 OLETTE          0580178SERDINYA            0530000009960009960660002800300000000000188      000000                                                                                                                                 130090318         120090008         110090188         100000008         090093008                                                                                                                                                        
660003000310014 01160 4113001D 4 OLETTE          0580178D 118 MONT LOUIS    0780535OLETTE              0560182019770019770810000502300000000001291      005384  618    004745   005146   005775   004376   004580   005225   006899   008284   005694   005150   004099   004541               130052371  528    120052251    8    110052631    8    100052571         090053571    8    004501   004905   005282   004132   004379   005048   006753   008343   005606   004770   003891   005135                                      
660003100310014 01160 4113001D 118               0780535D10                 0810060MONT-LOUIS / N116   0790100002491002491810000502300000000001287      004291  687    003569   003848   004243   003545   003574   004220   005581   007605   004573   003909   003174   003552               130041881  727    120042601    7    110042961    7    100043431         090042471         003436   003627   004153   003142   003350   003869   005784   007576   004395   003734   003016   004037                                      
660003200310014 01160 4113001D 10                0810060N20 BOURG-MADAME    0990150HIX                 0980300017909017909810000502300000000001287      004149  488    003599   003750   003874   003673   003461   003904   004974   007367   004226   003670   003197   004004               130040991  378    120041811    8    110044301    8    100043021         090043421    8    003497   003766   004282   003043   003307   003788   004879   007471   004117   003520   003210   004210                                      
660001000310014 03200 4113001DPT 09              0000000RN 22               0030124PORTE PUYMORENS     0030080003090003090660002800300000000001191      006468  377    003549   004711   005579   005821   006978   006529   008586   011321   006939   006941   005844   004627               130059761  367    120062171    7    110064021    7    100058851         090061351         003277   003422   004120   005508   006376   006575   008312   010890   007002   006505   004673   004806                                      
660001100310014 03200 4113001RN 22               0030124RN 20 TUNNEL PUYM-660131066PORTE PUYMORENS     0030160010807010807660002800300000000001193      002566  587    001590   001772   001928   001999   002560   002620   003731   005508   003067   002473   001709   001737               130024381  537    120019721    7    110019351    7    100017321         090018131         001182   000767   003130   001861   002261   002526   003740   004955   002832   002290   001607   001912                                      
810500100310014 00680 181 231DPT31               0220110ECH. ST SULPICE     0270190                    0250000005080005080810500200300000000000193      000000                                                                                                                                 130217318         120000008         110212508         100000008         090000008                                                                                                                                                        
810500200310014 00680 111 231ECH. ST SULPICE     0270190ECH. COUFOULEUX     0330000RIEU D'EN COSTE     0290150005810005810810500300300000000000193      025104  848    022711   023974   024225   025559   024504   026547   025983   024514   026123   027210   025148   024738               130244361  538    120000001         110238941    7    100234391         090240001         021519   023005   024126   024897   024136   025854   024947   023976   026101   026464   024196   023980                                      
810500300310014 00680 111 231ECH. COUFOULEUX     0330000ECH. LISLE MONTANS  0410740LISLE SUR TARN      03703650087400087408105003003          0193      022127  757    020094   021196   021645   022811   021229   023118   022423   021964   023348   023735   021929   022036               130216391  767    120214331         110211811    7    100204941         090205001         018918   020293   021395   022048   021396   022597   022604   021183   023058   023249   021548   021340                                      
810500400310014 00680 181 231ECH. LISLE          0410740ECH.GAILLAC         0480500                    0430000006750006750810500300300000000000193      000000                                                                                                                                 130217468         120215408         110212888         100000008         090000008                                                                                                                                                        
810500500310014 00680 111 231ECH.GAILLAC         0480500RN 88 PR 43         0610997FLORENTIN           0580660013487013487          00000000000898      022094  907    019129   020175   020792   021651   020770   022106   022049   022607   024309   025196   023267   022993               130215441  927    120000001         110225771    7    100000001         090220001         020103   021490   022595   023179   022751   022722   021533   020316   021639   021923   020081   020237                                      
810000100310014 00880 4813 51DEPARTEMENT 12      0000000DEV CARMAUX         0110000GRAUMMOND           0080300009472009472810000502312000130030187      000000                                                                                                                                 130061248         120000008         110061208         100000008         090000008                                                                                                                                                        
810000200310014 00880 411 251DEV CARMAUX         0110000FIN DEV CARMAUX     0260000DEV CARMAUX         01303920108320108328100005023          0187      008303 1297    006954   007348   007836   008357   008336   008700   009106   009363   008817   009004   008032   007705               130000001         120000001         110000001         100073651 135     090070001                                                                                                                                                        
810000400310014 00880 411 251FIN DEV CARMAUX     0260000RD 903              0290513LA TETE             0260184003505003505810000502300000000000187      019625  767    018043   018699   019031   019963   019296   020448   020633   019590   020476   020810   019524   018962               130191651 1077    120192881         110194451    7    100192541         090190001         016957   018007   018815   019431   019103   020012   020031   019051   019904   020603   019091   018917                                      
810000501310014 00880 481 251LARQUIPEYRE         0320000CARREFOUR CANTEPAU  0320979ROCADE D'ALBI       03207500009790009798100005023          0187      000000                                                                                                                                 130279338         120000008         110279158         100000008         090000008                                                                                                                                                        
810000500310014 00880 481 251RD 903              0290513LARQUIPEYRE         0320000LARQUIPEYRE         03104000027790027798100005023          0187      000000                                                                                                                                 130247058         120000008         110246898         100000008         090000008                                                                                                                                                        
810000502310014 00880 411 251CARREFOUR CANTEPAU  0320979RD 100              0330914ROCADE D'ALBI       03301500014190014198100005023          0187      033922  597    033954   034776   034783   035829   032428   032750   033028   030527   034197   036583   034458   033882               130345691  567    120000001         110345461    7    100357011         090360001         033644   032954   035976   036360   034016   035552   034659   031021   035316   036387   034375   034520                                      
810000503310014 00880 4813 51RD 100              0330914RD 999              0340175ROCADE D'ALBI       03400000008490008498100005023          0187      000000                                                                                                                                 130268618         120000008         110268448         100000008         090000008                                                                                                                                                        
810000504310014 00880 4813 51RD 999              0340175RN 112              0360910ROCADE D'ALBI       03510340035720035728100005023          0192      000000                                                                                                                                 130344888         120000008         110344668         100000008         090000008                                                                                                                                                        
810000505310014 00880 481 251RN 112              0360910FIN ROCADE          0380080ROCADE D'ALBI       03710750018910018918100005023          0192      000000                                                                                                                                 130294878         120000008         110294688         100000008         090000008                                                                                                                                                        
810000600310014 00880 411 251FIN ROCADE          0380080A 68                0430354LE SEQUESTRE        0410800005528005528810001600300000000000187      035296  777    032837   034335   034266   036574   034382   036571   035345   033604   036718   037813   035680   035473               130342501  787    120000001         110330771    7    100321101         090320001         031002   032545   034111   035002   033174   035566   035079   032789   036055   036888   034566   034201                                      
810001600310014 01120 4113 51MAZAMET             0250000RD 621              0330300ST PIERRE           02903400090270090278100016003          0105      013020  997    012013   012518   012596   013374   012807   013797   013675   013125   013741   013713   012521   012351               130129341  997    120000001         110132431    7    100000001         090000001         011543   011945   012567   013058   013028   013619   014134   013249   013520   013702   012486   012294                                      
810001800310014 01120 4813 51RD 621              0330300RN 126 PR 53 CASTRES0411239LACAZE              04100000105660105668100016003          0187      000000                                                                                                                                 130107278         120000008         110109848         100000008         090000008                                                                                                                                                        
810002300310014 01260 4813 51RD 42               0050000RD 84               0330385RIVIERE DE LEN      0080500026698026698810002400331000410030187      000000                                                                                                                                 130020858         120057698 130     110000008         100000008         090000008                                                                                                                                                        
810002500310014 01260 4113 51RD 84               0330385RD 621              0430090DEV PUYLAURENS      03500100092970092978100024003          0187      007870  92     000000   000000   000000   000000   000000   000000   000000   000000   000000   000000   000000   000000               00000000          00000000          00000000          00000000          00000000          000000   000000   000000   000000   000000   000000   000000   000000   000000   000000   000000   000000                                      
810002501310014 01260 4813 51RD 621              0430090RD 50               0490608SAIX OUEST          04904000060810060818100024003          0187      000000                                                                                                                                 130000008         120000008         110000008         100000008         090000008                                                                                                                                                        
810002500310014 01260 4813 51RD 621              0430000RD 50               0490000SAIX OUEST          04900000060810060818100024003          0187      000000  927    007270   007691   007636   008034   007742   008124   007913   007439   008192   008513   007996   007900               130076721  937    120000001         110000001         100000001         090000001         006937   007264   007503   007804   007629   007967   007973   007268   008113   008354   007625   007617                                      
810002600310014 01260 481 251RD 50               0490608CASTRES EB 10       0510945PONT DE SAIX        05006000023450023458100024003          0187      000000                                                                                                                                 130066688         120000008         110000008         100000008         090000008                                                                                                                                                        
810002699310014 01260 4853 51CASTRES EB 10       0510945CASTRES RN 112 PR 410530069CASTRES             05300000011280011288100024003          0187      000000                                                                                                                                 130071138         120000008         110000008         100000008         090000008                                                                                                                                                        