800004000310014 00250 4813001RD 49 Doullens      0330965limite Pas de Calais0401009Doullens            0350847006991006991800003400362000190030187      000000                                                                                                                                 130065528         120067928    0    110068938    0    100072828    0    090000008    0                                                                                                                                                   
800003400310014 00250 4113001RN 1 Amiens         0090745RD 49 Doullens      0330965RAMPONNEAU          0120796025003025003800003400300000000000187      012186 1128    011517   011733   011858   012241   011947   012569   012469   011284   012736   013439   012440   011999               130120171 1178    120124571 1138    110126411 1108    100133541 1028    090000001    0    010994   011440   011320   012171   012394   012695   012561   010867   012580   013227   012025   011926                                      
800003301310014 00250 4110201RN 29 Longueau      0000300RN 1 Amiens         0090745J VERNE             0020700015395015395800003400300000000000188      038147  888    036293   036825   037678   039746   037827   039795   038009   034501   040669   040299   037955   038215               130364811    8    120378681    0    110000001    0    100375371    8    090000001    0    033779   035722   034558   038274   037439   039252   036456   034802   035452   037593   036996   037443                                      
800000600310014 00010 4810201RN 25               0280000RD 97               0320780Longpre Amiens      0300039004967004967800003301300000000000187      000000                                                                                                                                 130000008         120000008    0    110000008    0    100000008    0    090000008    0                                                                                                                                                   
620521200310014 00160 1110241A 26                0870150Limite Nord         1030900CALAIS-MARCK        0880080016750016750800003301300000000000192      045843 2287    041276   041978   043813   048028   046706   048388   050627   047514   045451   046972   044717   044373               130447421 2207    120432651 2247    110413031 2177    100404811 2107    090000001    0    037873   040722   041234   045822   046432   046964   050132   049525   046148   045664   043344   043048                                      
620521100310014 00160 1810241Riviere Neuve       0820100A 26                0870150Les Fontinettes     0840400005050005050620520800300000000000192      000000                                                                                                                                 130000008         120000008    0    110000008    0    100000008    0    090000008    0                                                                                                                                                   
620520800310014 00160 1110241Coquelles           0780455Riviere neuve       0820100CALAIS-LPA          0810950003645003645620520800300000000000194      000000                                                                                                                                 130413751 1578    120420841 1620    110000001    0    100000001    0    090000001    0                                                                                                                                                   
620520300310014 00160 1110241Echang 35           0620000Coquelles           0780455LEUBRINGHEN         0680500016555016555620520800300000000000194      027056 1218    023603   024173   024974   027733   027175   029204   030589   031745   027578   027114   025362   025193               130264141 1248    120266141 1298    110266941 1208    100257911 1228    090000001         022141   023183   023778   026778   026840   028491   030759   031811   027306   026234   024985   024658                                      
620510000310014 02160 1110141A 16                0000000RN 216              0010900DORET               0010800001900001900620520800300000000000792      024903 3077    021917   022721   023148   025518   024330   026532   027883   028287   026442   025467   023707   022761               130243801 3008    120233181 2807    110245371 2857    100249631 2787    090000001    0    021729   022284   022270   024127   021826   014749   021460   027922   025532   024371   024059   022121                                      
620502000310014 00210 1110231A 211               0120300Noyelles            0130700NOYELLES            0130100001409001409620520800300000000000187      081924  677    080414   081481   083426   084851   082207   085090   079331   070484   086184   086992   082851   080102               130798761    7    120788601    7    110635701    0    100660691    0    090000001    0    073404   077674   079724   082506   080456   084134   079424   070318   083778   086408   081246   079437                                      
620501900310014 00210 1110231Dourges A 1         0210999Limite Nord         0260207COURCELLES LES LENS 0250800008337008337620520800300000000000187      064310  94     060479   062255   064098   064187   061099   063680                     066084   054030   075094   072989               130592911 1037    120564341 1027    110599841 1047    100533181    7    090000001    0    051675   053222   056952   062366   060927   064714   059412   052588   063327   064714   061963   059637                                      
620501500310014 00210 1110231Noyelles/Lens       0130700Dourges A 1         0210999DOURGES             0200700008337008337620520800300000000000187      071256  937    068479   069743   071069   059423   056031   081031   074957   069047   082228   081853   078422   063159               130728371 1007    120742961    7    110732271 1007    100635211    7    090000001    0    069980   068894   071668   074624   074768   077750   071168   046190   055903   049740   053876   053409                                      
620501100310014 00210 1810231RN 17               0101004A 211               0120300Lens                0110500001315001315620500700300000000000187      000000                                                                                                                                 130589018         120576548    0    110898228    0    100933928    0    090000008    0                                                                                                                                                   
620501000310014 00210 1810231RN 47               0090800RN 17               0101004Lens                0100500001207001207620500700300000000000187      000000                                                                                                                                 130556888         120545098    0    110849218    0    100882738    0    090000008    0                                                                                                                                                   
620500900310014 00210 1810231RN 43 Loos en Gohell0060900RN 47               0090800Lens                0090300002904002904620500700300000000000187      000000                                                                                                                                 130470918         120460948    0    110718128    0    100746418    0    090000008    0                                                                                                                                                   
620500700310014 00210 1110231Echang Lievin       0030500RN 43 Loos en Gohell0060900LOOS EN GOHELLE     0060000003406003406620500700300000000000187      053163  777    050750   051793   053301   054870   053336   055514                     055465   054802   051458   050353               130520691    7    120509681    7    110506451    7    100526441    7    090000001    0    048568   049678   051894   053990   055206   054547   049717   048881   053781   055386   052640   050540                                      
620500500310014 00210 1810231RD 937              0000000Echang Lievin       0030500Bully les Mines     0030000003498003498620500700100000000000187      000000                                                                                                                                 130200138         120192708    0    110194268    0    100202508    0    090000008    0                                                                                                                                                   
620500400310014 00160 1110241Inter RN 42         0500000Echang 35           0620000WIMILLE             0540540011036011036620500700100000000000194      032719 1067    029139   029810   030744   033749   032178   034519   035799   036355   034318   033666   031291   030871               130319531 1027    120322541 1047    110000001         100000001         090000001         026495   028760   028693   032437   032777   034267   036858   036852   033533   032430   030809   029529                                      
620500300310014 00010 1110441Dourges A 21        1870000Limite Nord         1930393SEADOURGES          1870500006438006438620500700100000000000187      111418 1727    104313   103791   104128   108690   111387   118641   117600   111761   117816   118348   111400   108746               131015791 1767    121078121 1727    111091901 1787    101098731 1787    090000001    0    096881   104808   103047   000000   000000   000000            000000   000000                     000000                                      
620500000310014 02110 1110231Avion               0000000A 21                0020810LENS-GARE           0010550002813002813620500700100000000000187      039008  537    037906   038981   039703   040649   039035   040379   036966   032868   041202   041755   039871   038970               130380021    7    120379001    7    110373041    0    100363371    7    090000001    0    035326   037011   036899   039258   038405   040150   037676   033168   039981   040925   039162   038066                                      
620406000310014 02160 4813001A 216               0020000Zone Portuaire Calai0030744Calais              0030000001900001900620510000300000000000793      000000                                                                                                                                 130226398         120232428    0    110244588    0    100248838    0    090000008    0                                                                                                                                                   
620006100310014 04250 4813001RN 25               0000000RD 264              0001233St Catherine Les Arr0000500001233001233620001400300000000000104      000000                                                                                                                                 130000008         120000008    0    110000008    0    100000008    0    090000008    0                                                                                                                                                   
620005700310014 00470 4813001Echang 3            0070200Limite Nord         0081278Douvrin             0080000002098002098          00000000000613      000000                                                                                                                                 130000008         120000008    0    110000008    0    100000008    0    090000008    0                                                                                                                                                   
620005400310014 00470 4110101Inter A21           0000000Echang3             0070200VENDIN              0010140006935006935          00000000000901      044930  627    044957   045805   045390   044980   044198   045579   043583   037630   046803   049791   046410   044250               130461691    7    120468741    7    110474021    7    100000001    0    090000001    0    043329   046205   045412   044727   047095   047130   045832   041425   048755   051310   047716   045098                                      
620004301310014 00420 4110101RN 43               0140000Inter A 16          0541121ALINCTHUN           0430850039904039904          00000000000187      012894 1238    011360   011766   012399   013000   012962   013778   013783   014386   013924   013125   012077   012097               130123391 1218    120121091 1428    110124191 1538    100126291 1558    090000001    0    010090   011250   011293   012667   012510   012901   014069   013426   013074   012960   012120   011711                                      
620002001310014 00250 4113001Inter RN 17         0271283Inter RN 39         0321093ANZIN               0281000006963006963          00000000000901      018192 1537    015874   017175   017950   019300   018389   019608   019112   017582   019414   019181   017813   016922               130179261 1557    120180681 1657    110186851 1857    100180731 1827    090000001    0    015468   016490   016391   018953   018286   018962   019906   018121   018931   018903   017729   016971                                      
620002000310014 00250 4114001Inter RD 265        0240280Inter RN 39         0271283WAGNONLIEU          0260545004813004813          00000000000901      009993 1817    009459   009685   009779   010205   009940   010575   010250   009428   010424   010325   009922   009940               130093211 1837    120092651 1777    110000001    0    100094131 1817    090000001    0                                                                                                                                                   
620001900310014 00250 4113001Limite Dep 80       0000000RD 265              0240280GOUY                0150400024315019380          00000000000187      006877 1967    006478   006460   006676   006815   006832   007138   006908   006674   007292   007366   007019   006850               130069711 1967    120080901 1930    110000001    0    100069031 1937    090000001    0    006313   007464   006474   006981   006924   007169   007388   006803   007261   007349   006838   006749                                      
620001400310014 00170 4113001Acces A 26          0360100A 211               0441082VIMY                0360500009635009635          00000000000187      017281  947    016712   017214   017455   017844   016792   018150   016459   014124   018637   018586   017750   017748               130163581    7    120159191    7    110160331    7    100000001    0    090000001    0    015440   016007   016341   017046   015337   016100   015563   014264   017765   018320   017309   016803                                      
620001302310014 00170 4810101Int RN 50           0330000Int A 26            0360100Roclincourt         0350900002960002960620001400300000000000698      000000                                                                                                                                 130208338         120202818    0    110204278    0    100000008    0    090000008    0                                                                                                                                                   
620000100310014 00010 4810101inter CD 940 st Leon0460000limite A 16         0500800St Leonard          0480833004048004048          00000000000613      000000                                                                                                                                 130000008         120000008    0    110000008    0    100000008    0    090000008    0                                                                                                                                                   
600010000310014 00310 4113001début dev Beauvais  0170000Fin dev Beauvais    0290465BEAUVAIS            0180742012465012465          00000000000513      005333 1888    004667   004791   004924   005454   005264   005777   005668   005549   005752   005778   005381   004974               130051621 1928    120000001         110000001         100000001         090000001                                                                                                                                                        
600009000310014 00310 4113001Clermont RD 916 A   0530839déb dév Clermont    0550000CLERMONT            0540594001839001839          00000000000513      016518  948    015915   016290   016680   017139   016842   017955   016177   013877   017578   016990   016752   016101               130160621    8    120000001         110000001         100000001         090000001         015899   015456   015781   016853   016396   017363   015799   013433   016790   016929   016466   015581                                      
600008301310014 03240 4815001Senlis RN 17        0010000Senlis RN 330       0020284Chamant             0020000001194001194600000800300000000001287      000000                                                                                                                                 130165428         120172548    0    110000008    0    100197898    0    090000008    0                                                                                                                                                   
600008200310014 03300 4813001fin dev Ermenonville0100000Senlis RN 324       0191107Fontaine Chaalis    0110000010184010184600008100300000000001287      000000                                                                                                                                 130098878         120101438    0    110108598    0    100100198    0    090000008    0                                                                                                                                                   
600008100310014 03300 4113001Belleville RN 2     0040239fin dév Ermenonville0100001ERMENONVILLE        0050800007149007149600008100300000000001287      008303 2027    007210   007455   007866   008625   008350   009286   008955   007954   009049   008999   008216   007660               130079561 2067    120081621 2097    110087381 2267    100080621 2137    090000001    0    006797   007386   007788   008386   008348   008929   008854   007989   008186   007762   007473   007567                                      
600007000310014 00310 4113001Compiegne RN 1031   0790420Aisne               1040134COMPIEGNE           0850406025714025714600008100302000250031287      008661 1558    007546   008298   008636   009061   008495   009317   008715   007595   009551   009412   008850   008480               130079841 1618    120000001    0    110000001    0    100000001    0    090000001    0    007013   007479   007578   008339   008175   008758   008588   008243   008815            007496   007338                                      
600006001310014 10310 4110101RN 31               0000000RN 32 Clairoix      0070279VENETTE             0010500006840006840600008100300000000000194      035185  897    034755   035373   036015   037221   035763   037914   034832   031277   036508   035068   033667   033992               130343491    8    120324801    7    110332801    7    100000001    0    090000001    0                                                                                                                                                   
600005300310014 00310 4814001A 1                 0731041Compiegne RN 131    0790420Arsy                0750000005404005404600005100300000000001287      000000                                                                                                                                 130034108         120229318    0    110232128    0    100226548    0    090000008    0                                                                                                                                                   
600005100310014 00310 4113001début dev Clermont  0550000A 1                 0731041CATENOY             0580600018036018036600005100300000000001287      000000                                                                                                                                 130018251    8    120122711 1278    110124211 1298    100121221 1288    090000001    0    002352   002336   002347   001048   002413   002565   002361   002030   002504   001411   000568   000000                                      
600004500310014 00310 4110201Beauvais sortie     0300000Clermont RD 916A    0530839LA RUE St PIERRE    0420000024386024386600005100300000000001287      021144 1207    019821   020505   021044   021517   021395   022831   021546   018191   022773   022611   021327   020227               130203171 1197    120204921 1227    110213001 1257    100000001    0    090000001    0    018018   019195   019546   021149   020752   022350   020780   017982   021594   021999   020830   019658                                      
600000900310014 00020 4113001RN 330              0020700Dév Nanteuil        0110200NANTEUIL            0080650008884008884600005100300000000001287      026000 1438             024996   025355   026317   025635   027519   026043   023631   026912   027726   026071   025796               130000001         120000001         110000001         100000001         090000001                                                                                                                                                        
600000800310014 00020 4113001Dév Nanteuil        0110200Limite Aisne        0291114GONDREVILLE         0250300018911018911600005100300000000001287      014706 1807    013476   014058   014720   015159   015986   015746   014314   014091   015334   015056   014487   014039               130144901 1767    120151151 1677    110000001    0    100173351 1357    090000001    0    012089   013358   013830   015525   017009   015646   014077   014028   014982   014970   014250   014114                                      
590506000310014 00230 1110231Orchies             0160417Petite Foret        0370278BEUVRY              0210900021018021018600005100300000000000187      040687  907    039931   040890   041388   042492   040396   043264   039576   033548   043230   043157   040847   039779               130400251    7    120406701    7    110409831    7    100412291    7    090000001    0    036840   038665   039215   041488   040693   043557   039879   034075   042694   043576   040616   038997                                      
590505300310014 00160 1110241Coudekerque (RN 335)1251000Ghyvelde (RD 947)   1370656GHYVELDE OUEST      1330500011656011656600005100300000000000693      029048 2598    023371   024518   026641   030152   029365   030836   035101   036536   030034   028462   026471   026690               130276881 2548    120271421 2468    110272281 2488    100267681 2428    090000001    0    021747   023449   024781   028018   029184   028600   034673   036105   028310   026729   025403   025251                                      
590505200310014 00160 1150441Grande Synthe (RN2551190625Coudekerque (RN335) 1251000COUDEKERQUE         1240400006375006375600005100300000000000693      062299 1557    056781   058129   060304   063667   063655   065622   068164   065624   065320   062719   059711   057653               130616511 1387    120610311 1467    110607811    7    100591391    7    090000001    0    053393   056888   058913   063303   063960   065746   068568   067941   061978   062031   059303   057791                                      
590505000310014 00160 1110241Grande Synthe(RD131)1170000Grande Synthe(RN225)1190625ZAC DU MOULIN       1170820002625002625600005100300000000000693      061627 2127    056362   058149   060173   064227   063323   066677   068383   065673   062450   058963   058524   056459               130604731 2047    120603331 1987    110000001    0    100000001    0    090000001    0    051742   056120   057121   062935   063045   064806   067884   066695   056566   060648   059359   058754                                      
590504900310014 00160 1110241Craywick (RN 316)   1100800Grande Synthe(RD131)1170000CRAYWICK            1130000006200006200600005100300000000000693      053170 2307    047863   049609   051862   056732   054457   057627   058959   058733   053580   049774   049347   049292               130522591 2277    120515791 2147    110520331 2047    100489091 2097    090000001    0    045805   048194   049266   054650   054597   056416   059990   058911   047590   051954   050422   049311                                      
590504800310014 00160 1110241Limite Pas de Calais1030900Craywick (RN 316)   1100800ST GEORGES SUR L'AA 1050800006900006900600005100300000000000693      037638 2288    033107   034137   035896   039743   038637   040708   042804   039941   037206   037890   036175   035174               130363961 2298    120365481 2278    110361601 2238    100319871 2398    090000001    0    030231   033018   033542   037854   038432   039170   043072   042185   036744   037031   034318   031157                                      
590504700310014 00230 1810231Valenciennes Nord   0391001A 2                 0420539La Sentinelle       0410500002562002562590503902100000000000187      000000                                                                                                                                 130207868         120210418    0    110213838    0    100212508    0    090000008    0                                                                                                                                                   
590504500310014 00230 1810231Petite Foret        0370278Valenciennes Nord   0391004Petite-Foret        0390073002739002739590503902300000000000187      000000                                                                                                                                 130611198         120615478    0    110625758    0    100622968    0    090000008    0                                                                                                                                                   
590503902310014 00230 1110231Centre d'activites  0020000Orchies             0160417GENECH              0080700014440014440590503902300000000000187      050919  558    050475   051481   051770   052815   050288   053609   048688   042006   053632   054092   052101   050407               130502021    8    120505441    8    110513881    8    100511531    8    090000001    0    047965   048192   049191   051452   049938   054093   050357   042130   052940   054450   051690   050029                                      
590503901310014 00230 11102314 Cantons           0000000Centre D'activités  0020000CRT-LESQUIN         0000800001885001885590503902300000000000187      000000                                                                                                                                 130603031         120000001    0    110000001    0    100000001    0    090000001    0                                                                                                                                                   
590503700310014 00270 11102414 Cantons           0000000Frontière Belge     0121287ANSTAING            0070974010965010965590503902300000000000187      038322 1728    035779   037204   038142   038620   037996   039286   038804   035993   040893   041751   038784   036645               130366851 1608    120361851 1538    110000001    0    100000001    0    090000001    0    032713   034918   035845   036918   036845   038161   037188   035220   039376   039451   037364   036218                                      
590503600310014 00220 1110641Ronchin             00000004 Cantons           0020811LESQUIN             0020340002402002402590503902300000000000996      000000                                                                                                                                 131259311         121270401    0    110000001    0    100000001    0    090000001    0                                                                                                                                                   
590503502310014 00250 1110241Hazebrouck          0320216Bergues             0621068QUAEDYPRE           0590110030892030892590503902300000000000187      031292    7    027108   030665   030546   031750   032249   034956                     020650   021522   019700   018494               130303401    8    120290061    8    110000001    0    100000001    0    090000001    0    023598   026419   028096   031118   030920   033755   035693   033526   032369   031477   029162   027949                                      
590503000310014 00250 1110241Armentières Ouest   0200394Hazebrouck          0320216STEENWERCK          0240190011831011831590503902300000000000187      054650 1347    049932   051711   052858   055491   055813   058193   056376   053537   057381   057517   054312   052610               130522271 1267    120524081 1237    110000001    0    100000001    0    090000001    0    044451   048823   049869   054229   054935   055657   053899   053880   055342   055193   051938   048506                                      
590502900310014 00250 1110231La Chapelle         0150680Armentieres Ouest   0200394LA_CHAPELLE         0160700004719004719590503902300000000000187      066945 1127    061720   064431   066697   068566   067346   070461   068786   064740   069669   070227   066165   064523               130651541 1137    120652021 1167    110659371 1127    100610611    7    090000001    0    055955   061503   061344   067746   066196   070491   071670   064607   067073   068304   064285   062669                                      
590502800310014 00250 1110231Sequedin            0090098La Chapelle         0150680ENNETIERES          0110420006589006589590503902300000000000187      083931 1197    078992   082030   084593   086772   084834   087773   085605   078669   087073   087299   082478   081137               130821381 1187    120824921 1217    110838501 1197    100789681 1027    090000001    0    072226   078751   077737   084840   083132   088132   088903   080357   084094   086030   081509   079938                                      
590502600310014 00250 1110431Porte Ouest         0040488Sequedin            0090098LOOS                0050450004602004602590503902300000000000996      104493                                                                                                                                 131050141         121039901    0    110000001    0    100000001    0    090000001    0                                                                                                                                                   
590502500310014 00250 1810431Porte de Bethune    0030890Porte Ouest         0040488Pt.Bethune/Ouest    0040150000595000595590502400300000000000187      000000                                                                                                                                 130000008         120000008    0    110000008    0    100000008    0    090000008    0                                                                                                                                                   
590502400310014 00250 1110631Porte Des Postes    0020835Porte De Bethune    0030890PORTE DES POSTES    0030000001056001056590502400300000000000187      000000                                                                                                                                 130949641         120000001    0    110000001    0    100000001    0    090000001    0                                                                                                                                                   
590502300310014 00250 1110431Porte D'Arras       0010792Porte Des Postes    0020835Pte ARRAS/POSTES    0020320001044001044590502400300000000000187      000000                                                                                                                                 131142701         121147871    0    110000001    0    100000001    0    090000001    0                                                                                                                                                   
590502200310014 00250 1110631Porte Sud           0000000Porte D'Arras       0010792PORTE SUD           0010000001512001512590502400300000000000187      208402                                                                                                                                 132071171         122062061    0    110000001    0    100000001    0    090000001    0                                                                                                                                                   
590502000310014 00020 1110241Marly               0640030Frontière Belge     0780456ONNAING             0720210014451014451590502400300000000000293      000000                                                                                                                                 130000001         120371321    8    110375361 1008    100363601 1018    090000001    0                                                                                                                                                   
590501901310014 00210 1813001Limite Nord         0260207Echang 19           0270557Courcelles          0270000001347001347          00000000000613      000000                                                                                                                                 130000008         120000008    0    110000008    0    100000008    0    090000008    0                                                                                                                                                   
590501800310014 00020 1810241Valenciennes Sud    0600973Marly               0640030Aulnoy              0620210003061003061590502000300000000000187      000000                                                                                                                                 130000008         120903218    0    110913048    0    100884368    0    090000008    0                                                                                                                                                   
590501700310014 00020 1110441Rocade Ouest        0590025Valenciennes Sud    0600973TRITH-SAINT-LEGER   0590400001948001948590502000300000000000187      101221 102                                                                                                                             130000001         120000001    0    110000001    0    100000001    0    090000001    0                                                                                                                                                   
590501600310014 00020 1810241Denain              0520775Rocade Ouest        0590025La Sentinelle       0580585006258006258590501300300000000000187      000000                                                                                                                                 130585898         120584818    0    110601218    0    100585248    0    090000008    0                                                                                                                                                   
590501400310014 00020 1810241Neuville/Escaut     0471001Denain              0520775Neuville/Escaut     0500600004777004777590501300100000000000187      000000                                                                                                                                 130291948         120293318    0    110301438    0    100292688    0    090000008    0                                                                                                                                                   
590501300310014 00020 1110241Hordain             0430000Neuville/Escaut     0471001LIEU SAINT AMAND    0450510005006005006590501300100000000000187      044871 1877    039486   041318   042794   046977   043974   048296   049886   046686   046118   046934   043300   042518               130435431 1907    120434781 1887    110446971 1907    100435111 1887    090000001    0    036881   039508   040251   044617   043971   046558   050070   045395   046419   045167   042626   041050                                      
590501210310014 00220 1110241Tourcoing Nord      0220440Belgique            0240983NEUVILLE/FERRAIN    0240564002543002543590501300100000000000187      000000                                                                                                                                 130000001         120000001    0    110000001    0    100341221 2548    090361021 2200                                                                                                                                                   
590501200310014 00220 1110241Tourcoing Nord      0220440Belgique            0240983NEUVILLE/FERRAIN    0240564002543002543590501300100000000000187      000000                                                                                                                                 130000001         120000001    0    110000001    0    100000001    0    090000001    0                                                                                                                                                   
590500800310014 00220 1110441Echang RN 350       0140055Tourcoing Nord      0220440MOUVAUX             0160050008382008382590501300100000000000187      000000                                                                                                                                 130000001         120926821 1427    110941841 1447    100938571 1447    090000001    0                                                                                                                                                   
590500600310014 00220 1110431Wasquehal           0100054Echang RN 350       0140055PETIT WASQUEHAL     0100655003427003427590501300100000000000187      000000                                                                                                                                 130924751         121012091    0    110000001    0    100000001    0    090000001    0                                                                                                                                                   
590500500310014 00220 1810431Babylone            0090000Wasquehal           0100054Echang.Babylone     0090215001046001046590500600100000000000187      000000                                                                                                                                 130000008         120000008    0    110000008    0    100000008    0    090000008    0                                                                                                                                                   
590500400310014 00010 1110731Ronchin             2080350Lille               2101325RONCHIN             2090300002989002989590500600100000000000297      168657                                                                                                                                 131808391         121760791    0    110000001    0    100000001    0    090000001    0                                                                                                                                                   
590500301310014 00010A1810231A 1                 0000000A 22                0001179Petit Ronchin       0000500001179001179          00000000001203      000000                                                                                                                                 130000008         120000008    0    110000008    0    100000008    0    090000008    0                                                                                                                                                   
590500300310014 00010 1110631Seclin              2010315Ronchin             2080350FACHES              2070050007043007043          00000000000187      000000                                                                                                                                 131470431         121396361    0    110000001    0    100000001    0    090000001    0                                                                                                                                                   
590500100310014 00010 1110431Carvin (limite 62)  0000000Seclin              2010315MARTINSART          2000400007890007890          62050040030187      110186                                                                                                                                 131096541 154     120997061    0    110000001    0    100000001    0    090000001    0                                                                                                                                                   
590415000310014 0002004110201Echang 3            0210000Louvroil (RN 2002)  0270000BEAUFORT            0220000006000006000          00000000000605      008904 1477    008320   008643   008807   009207   008926   009420   008950   008067   009436   009522   009017   008555               130064421 1527    120000001    0    110000001    0    100000001    0    090000001    0    000000   000000   000000   008581   008460   009060   008705   007681   008781   008978   008719   008341                                      
590412100310014 00020 4810101HAUTMONT ( RD 195 ) 0290080FEIGNIES ( RN 49 )  0291606HAUTMONT            0290715001526001526590412000300000000000605      000000                                                                                                                                 130113058         120112238         110109918         100000008         090000008                                                                                                                                                        
590412000310014 0002004110201Echang 4            0270000Feignies RN 49      0291606HAUTMONT            0280303003606003606590412000300000000000605      014090  947    013547   013831   014024   014773   013979   015187   014404   012500   014507   014270   013973   014135               130139491    7    120138471    7    110135691 1057    100000001    0    090000001    0    012595   013227   013457   014669   014318   015057   014423   013414   014261   014715   013978   013273                                      
590411900310014 0002004810201LOUVROIL ( RN 2 )   0260000HAUTMONT SUD (RD121)0270755LOUVROIL            0260638001755001755590412000300000000000605      000000                                                                                                                                 130000008         120000008         110000008         100000008         090000008                                                                                                                                                        
590410900310014 03160 4810201A 16                0000000Loon-Plage          0020890Loon-Plage          0000500002977002977590504900300000000000194      000000                                                                                                                                 130051348         120050648    0    110000008    0    100000008    0    090000008    0                                                                                                                                                   
590410300310014 03560 4813001Wasquehal A 22      0031000Wascquehal RN 352   0060324Wasquehal           0050390001714001714          00000000000613      000000                                                                                                                                 130000008         120000008    0    110000008    0    100000008    0    090000008    0                                                                                                                                                   
590410200310014 00210 1110201Escaudain (RD 81)   0530800A 2                 0570500LOURCHES            0560700004263004263          00000000000190      028516         013588   014200   014495   014832   014035   015150   014019   011960   015143   015515   014456   013776               130241951         120251311    0    110278481    0    100263061    0    090000001    0    020762   021983   022048   024452   023934   025159   024235   020640   026577   028778   026493   025282                                      
590409900310014 03350 4810201Coudekerque (RN 336)0000000Rosendael (RN 1)    0000870Coudekerque         0000500000870000870590505200100000000000190      000000                                                                                                                                 130121728         120121108    0    110120508    0    100117598    0    090000008    0                                                                                                                                                   
590409700310014 03560 4810401Lille (RD14)        0011003Wasquehal (A 22)    0031000RD14 - RD48         0020500001986001986590409500100000000000189      000000                                                                                                                                 130000008         120000008    0    110000008    0    100000008    0    090000008    0                                                                                                                                                   
590409600310014 03560 4810401Lille (Rue de Flers)0010400Lille (RD 14)       0011003Rue de Fers-RD14    0010800000603000603590409500100000000000189      000000                                                                                                                                 130000008         120000008    0    110000008    0    100000008    0    090000008    0                                                                                                                                                   
590409500310014 03560 4110401Lille (Pont Fives)  0001089Lille (Rue de Flers)0010400DARWIN              0010000000955000955590409500100000000000189      000000                                                                                                                                 130000001         120000001    0    110000001    0    100000001    0    090000001    0                                                                                                                                                   
590408900310014 03560 4110601Hellemmes (R.Perrin)0000000Lille (RN 351)      0001089LOUIS_XIV_1         0000500001089001089590409500100000000000101      000000                                                                                                                                 131445701         121571971    0    110000001    0    100000001    0    090000001    0                                                                                                                                                   
590408799310014 03490 4850201Tourcoing(Bd.Forest)0010000A22 (ech.Tourc.Nord)0010232Tourcoing Oouest    0010232000232000232590501200100000000000187      000000                                                                                                                                 130000008         120000008    0    110000008    0    100000008    0    090000008    0                                                                                                                                                   
590408400310014 00210 1110201Flers/Esc (RN 421)  0270557Waziers (RD 500)    0350000DOUAI-DORIGNIES     0310875007952007952590501200100000000000187      042373  897    040360   041773   042854   043699   042024   044434   041977   035886   045140   046026   043541   040947               130406731    7    120396481    7    110395621    7    100000001    0    090000001    0    037035   038959   039466   041818   041199   043250   041117   035866   043020   044154   042025   040165                                      
590406900310014 02270 4110401Pont de Bois        0030500Babylone            0051136LE CHATEAU          0040000002629002629590501200100000000000187      000000                                                                                                                                 130000001         120000001    0    110000001    0    100000001    0    090000001    0                                                                                                                                                   
590406800310014 02270 4110201Centre Ville        0011012Pont de Bois        0030500CITE SCIENTIFIQUE   0030000001558001558590501200100000000000187      000000                                                                                                                                 130000001         120000001    0    110000001    0    100000001    0    090000001    0                                                                                                                                                   
590406700310014 02270 41104014Cantons            0000000Centre Ville        0011012QUATRE-CANTONS      0010165001854001854590501200100000000000187      000000                                                                                                                                 130000001         120000001    0    110000001    0    100000001    0    090000001    0                                                                                                                                                   
590406500310014 02250 4810201Bergues (RD 916)    0000000Petite-Synthe(RD940)0100679Bierne              0030750010664010664590503502300000000000187      000000                                                                                                                                 130166588         120159168    0    110000008    0    100000008    0    090000008    0                                                                                                                                                   
590406199310014 00490 4850101Bavay (sortie devia)0950000Maubeuge (RN 2)     0980966Maubeuge            0980210003712003712          00000000000187      000000                                                                                                                                 130000008         120000008    0    110000008    0    100000008    0    090000008    0                                                                                                                                                   
590405700310014 00490 4810201Echang.de Marly(A2) 0660000Echang.de Curgies   0660840Saultain            0660200000840000840590001800300000000000187      000000                                                                                                                                 130312758         120324618    0    110000008    0    100000008    0    090000008    0                                                                                                                                                   
590403400310014 00410 4815001Echang 1            0120094Englos (A 25)       0161213Hallennes           0160515001963001963590403300100000000000501      000000                                                                                                                                 130000008         120000008    0    110000008    0    100000008    0    090000008    0                                                                                                                                                   
590403300310014 00410 4115001La Bassee (RN 47)   0030000Echang 1            0120094FOURNES             0100515009094009094590403300100000000000187      033789  688    032966   033565   034003   034652   033642   035922   032574   028025   035932   036133   034614   033605               130332211    8    120336581    8    110336851    8    100326311    8    090000001    0    030968   032590   032712   033909   033199   035047   033949   028757   035152   035678   034146   032551                                      
590403000310014 00474N4112001Douvrin (Lim 62)    0000000Illies              0020602LA_BASSEE           0010000002534002534590403300100000000000309      023422 1227    025698   025994   025151            002977   026625   023136   022129   027783   028063   026931   025110               130246201 1137    120249821 1177    110248651 1177    100000001    0    090000001    0    023364   024533   024725   024344   023860   025422   024775   022748   026898   026672   024696   023402                                      
590010800310014 00210 1813001Waziers RD 500      0350000Escaudain           0530800Abscon              0480000018719018719          00000000000613      000000                                                                                                                                 130000008         120000008    0    110000008    0    100000008    0    090000008    0                                                                                                                                                   
590009100310014 03550 4815001Lesquin (C.R.T.)    0040000Lesquin (A23)       0050755Lesquin             0040160001355001355590503902300000000000187      000000                                                                                                                                 130159778         120160898    0    110163588    0    100162848    0    090000008    0                                                                                                                                                   
590001800310014 00020 4115001Maubeuge (RN 49)    0300000Frontiere Belge     0361173BETTIGNIES          0350894006704006704590503902300000000000187      008906 1137    008450   008601   008904   009106   009306   009084   009063   008494   009031   009203   008995   008626               130086541 1137    120089831 1147    110091901 1167    100000001    0    090000001    0    008094   008349   008564   008786   008812   008879   008798   008417   008612   008886   008979   008668                                      
590001700310014 00020 4113001Avesnes (RD 104)    0120101Echang 3            0210000ECLAIBES            0190950009899009899590503902300000000000187      013267 1267    012550   012879   013125   013680   013413   013987   013251   012273   013833   014161   013420   012652               130130041 1267    120128181 1297    110126121 1247    100000001    0    090000001    0    011579   012121   012700   013525   013406   013870   013443   012153   013429   013801   013131   012873                                      
590001200310014 00020 4844001Avesnes (RD 951)    0100485Avesnes (RD 104)    0120101Avesnes Nord        0120744002371002371          00000000000187      000000                                                                                                                                 130000008         120000008    0    110000008    0    100000008    0    090000008    0                                                                                                                                                   
590001100310014 00020 4813001Larouillies (Lim 02)0000000Avesnes (RD951)     0100485Etroeugt            0060500010476010476590001700300000000000187      000000                                                                                                                                 130072308         120071278    0    110070138    0    100000008    0    090000008    0                                                                                                                                                   
510511200310014 00340 1113041RN 51               1000000RD 944              1100550MACECLIERS          1100300010529010529590001700300000000000799      021258  157    018341   022671   019353   022098   022358   022776   020670   020213   023037   022877   020536   020420               130209891 1077    120210581    0    110221071    0    100000001    0    090000001    0    018070   019731   021902   022319   020327   022375   021488   020509   022750   022858   020952   018609                                      
510002900310014 00510 4117001Limite Ardennes     0000000Echang 24           0091020ISLES SUR SUIPPE    0030310010295010295590001700308000360030176      018486 2047    017499   017094   017439   018949   019133   020432   020163   017361   018477   018961   017211   019012               130194811 1567    120197581 1490    110200991 1327    100000001    0    090000001    0    016906   018063   018719   019164   020332   020775   020454   019124   020836   020170   019740   019447                                      
510001700310014 00310 4113001Rond point Fismes   0010653A 34                0250313MUIZON              0160750024164024164590001700300000000000176      019048 1197    018115   018554   019140   019693   019286   020307   019020   017420   020227   018975   019029   018854               130187961 1237    120190941 1297    110193501 1337    100190111 1307    090000001    0    016974   017816   018497   019244   019073   020140   019547   016727   019827   019949   018994   018766                                      
510001500310014 00310 4813001Limite Marne        0000000                    0010653Fismes Ouest        0010000001653001653510001700302000270030795      000000                                                                                                                                 130127428         120129458    0    110131198    0    100128908    0    090000008    0                                                                                                                                                   
080500900310014 00430 4110201Moulin Leblan       0410000Av De Gaulle        0441175LA CROISETTE        0420775004030004030510001700300000000000104      050130  447    049038   049721   050363   050791   050746   052305   049024   044291   052607   052956   049178   050641               130489401    7    120488841    7    110497771    7    100492601    7    090000001    0    045987   046697   048858   049995   050185   051885   046591   045654   051709   052474   049886   047392                                      
080500200310014 00340 1110241Ech Frénois         0170000Moulin Blanc        0320463VIVIER AU COURT     0250000015349015349510001700300000000000187      027278 1077    025484   026176   026907   028218   027474   028706   027555   024666   029522   028783   027340   026545               130257591 1067    120250351 1077    110245371 1077    100264911    0    090000001    0    021491   024295   026378   026679   026703   028119   027612   024163   026701   026488   024550   025924                                      
080500110310014 10430 4810201RN 43               0110000Ech Frénois         0161083Bazeilles à Frenois 0130000006061006061080500200300000000000203      000000                                                                                                                                 130124048         120120548    0    110118158    0    100127568    0    090000008    0                                                                                                                                                   
080003800310014 00580 4110201Frontière belge     0000000RN 43               0101436LA CHAPELLE         0020000011696011696080500200300000000000104      006246 2157    004938   005248   005933   006480   006565   006831   007509   007553   006525   006382   005895   005016               130060781 2127    120058161 2077    110059221 2147    100056371 2007    090000001    0    004538   005017   005529   006187   006488   006477   007462   007571   006485   006110   005718   005350                                      
080003600310014 00510 4110201RN 2051             0680000Limite Marne        0890423TAGNON              0840135023801023801080500200300000000000104      018616 1237             017568   018505   019580   018356   019432   018033   018338   019404   019999   018387   017152               130173241 1138    120175721 1078    110177791    8    100174881 1108    090000001    0                                                                                                                                                   
080002900310014 00340 1110241Poix Terron         0450514Bertoncourt         0670380FAISSAULT           0600000021866021866080500200300000000000305      010885 1377    009575   010062   010582   011237   010741   011792   011375   010646   011789   011566   010961   010285               130103021 1447    120105441 1397    110108491 1327    100000001    0    090000001    0    008878   009577   010167   010788   010802   011281   010305   009580   011300   011033   009980   009928                                      
080002800310014 00340 1110241Moulin Blanc        0320463Poix-Terron         0450514YVERNAUMONT         0450100012980012980080500200300000000000104      017190 172                                                                                                                             130137661    7    120162971 1277    110167761 1267    100164811 1237    090000001    0                                                                                                                                                   
080002600310014 00510 4110201RD 98 Fumay         0410000RN 43 Piquet        0520164ROCROI              0420000010779010779080500200300000000000187      003107 2667             002701   003019   002973   002979   003205   003732   003566   003385   003050   002912   002653               130030911 2668    120000001    0    110039481    0    100000001    0    090000001    0                                                                                                                                                   
080001200310014 00430 4113001Sortie Rocade       0460000RD 877 Mon Idee     0620831TOURNES             0500350017769017769080500200300000000000187      017868  957    017120   017587   017985   018588   018185   018912   017895   016021   018754   018591   017631   017208               130177291    8    120177691    7    110180191    7    100185881    7    090000001    0    016039   016832   017004   018214   018137   018716   018722   016476   018902   018701   017687   017309                                      
080000600310014 00430 4810201RD 4 Douzy          0290000A 34 Bazeilles      0300639Bazeilles           0290419001290001290          00000000000613      000000                                                                                                                                 130000008         120000008    0    110000008    0    100000008    0    090000008    0                                                                                                                                                   
020002700310014 00310 4113001Deviation de Braine 0390508Limite de la Marne  0440985BAZOCHES            0430750005015005015          51000150030187      010118 1388    009407   009694   010115   010427   010192   010649   010261   009557   010689   010534   010002   009887               130102031 1978    120106511 1778    110108341 1748    100105961 1858    090000001    0    009149   009939   010259   010911   010431   010509   010568   009537   010602   010617   009993   009940                                      
020002610310014 00310 4110201Ciry Salsogne RD 5310290120Deviation de Braine 0390508BRAINE              0340628010779010779          00000000000996      008118 2387    007446   007688   008033   008331   008105   008590   008303   007760   008532   008512   008086   008030               130079921 2437    120081731 2457    110083831 2427    100000001    0    090000001    0    006839   007492   007621   008283   008016   008361   008478   007719   008439   008556   008056   008027                                      
020002600310014 00310 4813001RD 94 Mercin        0200000Ciry Salsogne RD 5310290120Venizel             0260326008763008763020002700300000000000187      000000                                                                                                                                 130142988         120149268    0    110151838    0    100148508    0    090000008    0                                                                                                                                                   
020002500310014 00310 4113001limite de l'Oise    0000000RN 2 Vauxbuin       0190270AMBLENY             0070500016839016839020002700360000570030187      009220 1627    008333   008661   008954   009552   009304   009864   009405   008904   009873   009744   009100   008945               130089121 1537    120088251 1607    110090011 1627    100000001    0    090000001    0    008334   008280   008368   009015   009064   009499   009318   008577   009331   009555   008953   008622                                      
020001200310014 00020 4113001La Capelle RN 43    1160217limite du Nord      1220070LA FLAMENGRIE       1170970005900005900020002700359000100030187      004508 2897    004008   004239   004537   004725   004589   004949   004778   004472   004790   004650   004302   004049               130044631 2837    120046151 2867    110048571 3007    100047641 2917    090000001    0    003800   004108   004345   004682   004593   004767   004975   004588   004695   004641   004309   004033                                      
020000900310014 00020 4113001Marle RD 946        0850924La Capelle RN 43    1160217LES BARAQUES        0930550029796029796020002700300000000000187      005124 2347    004663   005004   005084   005352   005121   005395   005414   005120   005419   005371   004811   004748               130050481 2327    120051381 2397    110052891 2447    100000001    0    090000001    0    004315   004786   004864   005151   005072   005450   005520   005171   005267   005266   004995   004720                                      
020000800310014 00020 4113001Chambry RD 517      0660608Marle RD 946        0850924FROIDMONT           0780245019550019550020002700300000000000187      000085         001008   000000   000000   000000   000000   000000   000000   000000   000000   000000   000000   000000               130068191 1917    120070021    0    110000001    0    100000001    0    090000001    0    005901   006442   006614   007017   007017   007371   007086   007022   007242   007186   006740   006186                                      
020000700310014 00020 4813001carref. de l'escarg 0620732Chambry RD 517      0660608Chambry             0650200003537003537020000900300000000000187      000000                                                                                                                                 130093058         120094718    0    110097508    0    100000008    0    090000008    0                                                                                                                                                   
020000600310014 00020 4815001Carrefour Semilly   0570310carref. de l'escarg 0620732Ardon               0600600004943004943020000800300000000000187      000000                                                                                                                                 130000008         120000008    0    110000008    0    100000008    0    090000008    0                                                                                                                                                   
020000400310014 00020 4113001Crouy               0311019carrefour Semilly   0570310LAFFAUX             0400030025497025497020000800300000000000187      013479 1407    012346   013094   013229   013941   013808   014152                     014557   014454   013259   012985               130128361 1508    120130951 1300    110000001    0    100000001    0    090000001    0    011226   012445   013148   013169   013234   013525   006144   006144   013803   014000   012745   012180                                      
020000303310014 00020 4813001RN 31               0281144Crouy               0311019Soissons            0291041003775003775020000302300000000000187      000000                                                                                                                                 130180138         120183718    0    110185018    0    100186128    0    090000008    0                                                                                                                                                   
020000302310014 00020 4110201Giratoire de Paris  0250832RN 31               0281144SOISSONS            0280040004212004212020000302300000000000187      023232 2127    020983   021587   022496   023925   023221   024448   023177   021529   024888   025374   023748   023380               130224181 2117    120228631 2187    110230241 2197    100231611 2247    090000001    0    018989   020588   020988   023172   022614   023338   023583   021007   023661   025491   023171   022347                                      
020000300310014 00020 4110201Echang 2            0040464Giratoire de Paris  0250832VAUXBUIN            0240070021445021445020000302300000000000187      017188 1537    014722   015416   016988   018419   017599   018088   018029   017005   018344   018399   017086   016087               130172401 1527    120171941 1677    110000001    0    100000001    0    090000001    0    014568   016148   016555   017716   017437   018363   017999   017051   017868   018472   017905   016789                                      
020000200310014 00020 4815001villers cot. rd 231 0020874villers cot. rd 231 0080104Villers Cotterêts   0060300005305005305020000300300000000000187      000000                                                                                                                                 130148218         120147828         110000008         100000008         090000008                                                                                                                                                        
020000100310014 00020 4810201Vauciennes          0000000Echang 2            0040464Villers Cotterets   0010280004472004472020000300360000090030187      000000                                                                                                                                 130178538         120178068    0    110000008    0    100000008    0    090000008    0                                                                                                                                                   