140108399110013 00840 1810241limite 14/50        2080000limite 50/14        2111470Pont Farçy          2100000004470004470500100890150010089010109      013360                                                                                                                                 120132608         110135168         100127788 1100    090000008    0    080000008    0                                                                                                                                                   
140108399210013 00840 1810241limite 14/50        2080000limite 50/14        2111470Pont Farçy          2100000004470004470500100890250010089020109      013428                                                                                                                                 120132468         110134698         100128578 1000    090000008    0    080000008    0                                                                                                                                                   
140108399310013 00840 1810241limite 14/50        2080000limite 50/14        2111470Pont Farçy          2100000004470004470500100890350010089030109      026788                                                                                                                                 120265068         110269858         100256358 1100    090000008    0    080000008    0                                                                                                                                                   
140108401110013 00840 1117041Dép. de la Manche   2220000Rond point Coulvain 2370923CAHAGNES            2320557015923015923270000200100000000000198      013629 1337    010011   010816   010986   014208   014867   013936   016168   019157   014948   013377   012851   011997               120134871 1387    110138601 1507    100135661 1587    090132801 1597    080128441 1807    010656   010596   011795   014390   014893   013779   016127   018029   014907   012204   012997   011358                                      
140108401210013 00840 1117041Dép. de la Manche   2220000Rond point Coulvain 2370923CAHAGNES            2320557015923015923270000200100000000000198      013534 1317    009380   010910   011744   013998   014661   014209   017700   017687   013711   013773   012021   012353               120133961 1377    110136851 1487    100133811 1557    090131561 1537    080126811 1757    010108   010900   011789   015080   014052   014191   017506   016587   013640   012753   012180   011853                                      
140108401310013 00840 1117041Dép. de la Manche   2220000Rond point Coulvain 2370923CAHAGNES            2320557015923015923270000200100000000000198      027163 1327    019391   021726   022730   028206   029528   028145   033868   036844   028659   027150   024872   024350               120268831 1377    110275451 1497    100269471 1567    090264361 1557    080255251 1777    020764   021496   023584   029470   028945   027970   033633   034616   028547   024957   025177   023211                                      
140108402110013 00840 1117041Rond point Coulvain 2370923Enchangeur RD 6     2420236MAISONCELLE-PELVEY  2400623004313004313270000200100000000000196      016374 1348    012479   013452   013465   017092   017761   016485   019039   021841   018002   016283   015670   014687               120162501 1348    110165981 1338    100163511         090156761    8    080155221 1378    013355   013098   014601   016755   018066   016775   018893   020619   017819   015114   015853   013925                                      
140108402210013 00840 1117041Rond point Coulvain 2370923Echangeur RD 6      2420236MAISONCELLE-PELVEY  2400623004313004313270000200100000000000196      016275 1368    011763   013519   014239   016813   017578   017234   020550   019999   016708   016705   014857   015081               120162091 1398    110164481 1008    100161021 1188    090154481    8    080153451 1398    012744   013399   014616   017239   017982   017206   020295   019180   016620   015648   014968   014470                                      
140108402310013 00840 1117041Rond point Coulvain 2370923Echangeur RD 6      2420236MAISONCELLE-PELVEY  2400623004313004313270000200100000000000196      032649 1358    024242   026971   027704   033905   035339   033719   039589   041840   034710   032988   030527   029768               120324591 1378    110330461 1118    100324531         090311241    8    080308671 1388    026099   026497   029217   033994   036048   033981   039188   039799   034439   030762   030821   028395                                      
140108403110013 00840 1117041Echangeur RD 6      2420236Echang. Villers boca2450000VILLERS BOCAGE      2430792002764002764270000200100000000000196      016667 1467    012841   013812   013705   017367   017970   017178   019127   021646   018269   016664   016101   015124               120164851 1497    110167831 1497    100163881 1477    090162121 1477    080158361 1577    013752   013410   014982   017356   017873   017032   018944   020294   018069   015506   016203   014293                                      
140108403210013 00840 1117041Echangeur RD 6      2420236Echang. Villers Boca2450000VILLERS BOCAGE      2430793002764002764270000200100000000000196      016040 1527    011657   013392   014005   016517   017257   016986   020045   019690   016449   016582   014733   014930               120158951 1557    110161731 1567    100157171 1557    090155111 1517    080150931 1577    012686   013252   014466   017523   016589   016927   019740   018417   016348   015568   014832   014289                                      
140108403310013 00840 1117041ECHANGEUR RD 6      2420236Echang. Villers Boca2450000VILLERS BOCAGE      2430200002764002764270000200100000000000196      032707 1507    024498   027204   027710   033884   035227   034164   039172   041336   034718   033246   030834   030054               120323801 1537    110329561 1537    100321051 1527    090317231 1507    080309291 1577    026438   026662   029448   034879   034462   033959   038684   038711   034417   031074   031035   028582                                      
140108404110013 00840 1110241Echang. Villers Boca2450000Echang Mondrainville2550310VILLY-BOCAGE        2460473010310010310270000200100000000000794      018334 1327    014408   015531   015238   019083   019656   019034   020840   023130   020006   018431   017786   016674               120181571 1347    110185051 1347    100180691 1327    090178441 1327    080175381 1517    015424   015040   016731   018977   019574   018803   020596   021778   019811   017235   017907   015901                                      
140108404210013 00840 1110241Echang.villers Bocag2450000Echang Mondrainville2550310VILLY-BOCAGE        2460473010310010310270000200100000000000794      018242 1357    013770   015660   016054   018856   019785   019382   021564   021760   018865   019021   017028   016947               120181281 1367    110183911 1377    100179041 1357    090177341 1297    080172831 1427    014864   015400   016931   019640   018802   019317   021995   020411   018684   017819   017100   016467                                      
140108404310013 00840 1110241Echang. Villers Boca2450000Echang Mondrainville2550310VILLY-BOCAGE        2460473010310010310270000200100000000000794      036576 1347    028178   031191   031292   037939   039441   038416   042404   044890   038871   037452   034814   033621               120362851 1357    110368961 1367    100359731 1347    090355781 1307    080348211 1457    030288   030440   033662   038617   038376   038120   042591   042189   038495   035054   035007   032368                                      
140108400110013 00840 1110241Ech Mondrainville   2550310Ech 44              2590655Mondrainville       2560500004345004345270000200100000000000711      020192 1207    016405   017443   017031   020989   021446   021055   022497   024353   021985   020474   019772   018686               120200251 1227    110203381 1227    100198811 1207    090000001    0    080000001    0    017444   016960   018799   020742   021283   020823   022201   023229   021687   019313   019867   017850                                      
140108400210013 00840 1110241Ech Mondrainville   2550310Ech 44              2590655Mondrainville       2560500004345004345270000200100000000000711      020230 1117    015817   017630   017898   020823   021387   021442   024119   023149   020818   021144   019106   019212               120200651 1137    110203921 1137    100198331 1117    090000001         080000001         016986   017375   018939   021580   020596   021387   023589   021942   020673   019958   019183   018481                                      
140108400310013 00840 1110241Ech Mondrainville   2550310Ech 44              2590655Mondrainville       2560500004345004345270000200100000000000711      040422 1147    032222   035073   034929   041812   042833   042497   046616   047502   042803   041618   038878   037898               120400901 1167    110407301 1167    100397141 1147    090000001    0    080000001    0    034430   034335   037738   042322   041879   042210   045790   045171   042360   039271   039050   036331                                      
140108405110013 00840 1110241Ech 44              2590655Echangeur BP Ouest  2620822BRETTEVILLE SUR ODON2610930003167003167270000200100000000001097      022931 1197    019288   020360   019751   021614   024159   023923   025160   026958   025317   023863   022833   021763               120230751 1097    110234791 1167    100229261 1147    090225141 1157    080221971 1297    020503   020043   021962   023693   024223   024517   025306   025806   024784   022485   022848   020649                                      
140108405210013 00840 1110241Ech 44              2590655Echangeur BP Ouest  2620822BRETTEVILLE SUR ODON2610930003167003167270000200100000000001097      023520 1177    019006   020941   020975   024202   024621   024976   027251   025824   024359   024831   022534   022533               120234241 1197    110238391 1187    100232191 1157    090228631 1137    080218141 1297    020410   020721   022502   024889   023916   025087   026833   024736   024167   023555   022590   021601                                      
140108405310013 00840 1110241Ech 44              2590655Echangeur BP Ouest  2620822BRETTEVILLE SUR ODON2610930003167003167270000200100000000001097      046451 1187    038294   041301   040726   045816   048780   048899   052411   052782   049676   048694   045367   044296               120464991 1167    110473181 1187    100461451 1157    090453771 1147    080440111 1297    040913   040764   044464   048582   048139   049604   052139   050542   048951   046040   045438   042250                                      
140000601110013 00130 4110201CARPIQUET           0690000BROUAY              0790212CARPIQUET           0700500009582009582500100890100000000000193      026505 1007    024080   025550   024287   026673   027216   028481   028973   026562   027496   027432   025661   025635               120268701 1007    110274021 1027    100265091 1027    090266571 1027    080264321 1097    025385   024970   027212   027525   027172   028807   027969   026142   027259   027487   026860   025620                                      
140000601210013 00130 4110201CARPIQUET           0690000BROUAY              0790212CARPIQUET           0700500009582009582500100890100000000000193      027233  827    024973   026240   024644   028502   028077   029066   029015   026917   028465   028110   026654   026156               120275541    7    110279091    7    100269451    7    090269991    7    080267241    7    026384   025493   027848   027861   028004   029366   028325   026714   028662   028293   027837   025845                                      
140000601310013 00130 4110201CARPIQUET           0690000BROUAY              0790212CARPIQUET           0700500009582009582500100890100000000000193      053738  887    049053   051790   048931   055175   055293   057547   057988   053479   055961   055542   052315   051791               120544241    7    110553111    7    100534541    7    090536561    7    080531561    7    051769   050463   055060   055386   055176   058173   056294   052856   055921   055780   054697   051465                                      
140000700110013 00130 4110201BROUAY              0790212BAYEUX              0870887CARCAGNY            0850196008722008722500100890100000000000197      012798  857    010879   011784   011756   013452   013676   013717   014738   014135   013152   012625   011779   011816               120133011    7    110136871    7    100132871         090132471    7    080128751    7    011834   011772   013022   013820   013654   014313   014746   014122   013884   013472   012911   012017                                      
140000700210013 00130 4110201BROUAY              0790212BAYEUX              0870887CARCAGNY            0850196008722008722500100890100000000000193      013051  897    011476   012136   011770   013594   014038   014083   014722   014694   013513   012658   012043   011828               120134291    7    110137761    7    100135381    7    090135491    7    080132311    0    012296   011912   013229   013897   014111   014306   014628   013817   013768   013564   013431   012150                                      
140000700310013 00130 4110201BROUAY              0790212BAYEUX              0870887CARCAGNY            0850196008722008722500100890100000000000293      025849  887    022355   023920   023526   027046   027714   027800   029460   028829   026665   025283   023822   023644               120267301    7    110274631    7    100268251         090267961    7    080261061    0    024130   023684   026251   027717   027765   028619   029374   027939   027652   027036   026342   024167                                      
140000800110013 00130 4110201BAYEUX              0870887CUSSY               0980183GUERON              0920593010439010439500100890100000000000206      008975 1047    007270   008080   008150   009008   009393   009937   010515   010415   009343   009003   008236   008289               120089171 1067    110093891 1067    100091531 1047    090090851 1027    080087931 1090    007071   007178   008791   009697   009452   009148   009415   010260   009636   009223   008813   008264                                      
140000800210013 00130 4110201BAYEUX              0870887CUSSY               0980183GUERON              0920593010439010439500100890100000000000206      009327  977    007797   008370   008204   009593   010070   010113   010580   010990   009932   009060   008705   008450               120095751    7    110096241 1007    100094451 1017    090094171    7    080091181 1040    008393   008150   009080   009946   010035   010161   010737   010901   010288   009341   009327   008491                                      
140000800310013 00130 4110201BAYEUX              0870887CUSSY               0980183GUERON              0920593010439010439500100890100000000000206      018302  997    015067   016450   016354   018601   019463   020050   021095   021405   019275   018063   016941   016739               120184921    7    110190131 1027    100185981 1027    090185021 1007    080179111 1060    015464   015328   017871   019643   019487   019309   020152   021161   019924   018564   018140   016755                                      
140001002110013 00130 4110101BAYEUX              0980183LIMITE DE LA MANCHE 1280706LONGUEVILLE         1130785031535031535500100890100000000000196      006762  958    005064   005715   005952   006545   007200   007375   008306   008646   007187   006796   006184   006079               120068191    8    110069451    8    100068501 1057    090068351    8    080065621    8    005455   005631   006211   007206   007146   007364   008246   008513   007248   006546   006290   005923                                      
140001002210013 00130 4110101BAYEUX              0980183LIMITE DE LA MANCHE 1280706LONGUEVILLE         1130785031535031535500100890100000000000196      006618  928    005148   005603   005595   006571   007150   007246   007874   008600   007254   006279   006171   005850               120066921    8    110068381    8    100067521 1097    090067061    8    080062091 1018    005424   005454   006108   006941   007206   007135   007853   008527   007326   006296   006323   005664                                      
140001002310013 00130 4110101BAYEUX              0980183LIMITE DE LA MANCHE 1280706LONGUEVILLE         1130785031535031535500100890100000000000196      013380  938    010212   011318   011547   013116   014350   014621   016180   017246   014441   013075   012355   011929               120135111    8    110137831    8    100136021 1087    090135411    8    080127711    8    010879   011085   012319   014147   014352   014499   016099   017040   014574   012842   012613   011587                                      
140001500110013 01580 4110201LIMITE DE L'ORNE    0080000ST AIGNAN-CRAMESNIL 0290766POTIGNY             0170000030879030879500100890100000000000194      009318 1257    008032   008542   008364   009472   009693   010046   010073   009740   009975   009738   009163   008946               120092801 1267    110092781 1257    100088891 1287    090078211    7    080084661    7    008473   008172   009098   009201   009274   009896   009872   009671   009882   009599   009451   008741                                      
140001500210013 01580 4110201LIMITE DE L'ORNE    0080000ST AIGNAN-CRAMESNIL 0290766POTIGNY             0170000030879030879500100890100000000000194      008875 1177    007621   008094   008001   008972   009245   009574   009695   009374   009405   009239   008718   008526               120087881 1187    110088081 1177    100084341 1217    090081331    7    080080821    7    008033   007755   008653   008713   008926   009469   009512   009096   009269   008944   008815   008245                                      
140001500310013 01580 4110201LIMITE DE L'ORNE    0080000ST AIGNAN-CRAMESNIL 0290766POTIGNY             0170000030879030879500100890100000000000194      018193 1197    015653   016636   016365   018444   018938   019620   019768   019114   019380   018977   017881   017472               120180681 1207    110180861 1207    100173231 1237    090159541    7    080165481    7    016506   015927   017751   017914   018200   019365   019384   018767   019151   018543   018266   016986                                      
140001600110013 01580 4110201ROCQUANCOURT        0290766IFS                 0380416TILLY LA CAMPAGNE   0340500008650008650500100890100000000000196      015473  978    013770   014682   014051   015943   015722   016553   016396   015025   016538   016402   015445   015160               120153261    8    110152811    8    100145231    8    090000001         080000001         014446   013822   015424   015077   015217   016354   015883   014772   016303   016174   015778   014640                                      
140001600210013 01580 4110201ROCQUANCOURT        0290766IFS                 0380416TILLY LA CAMPAGNE   0340500008650008650500100890100000000000196      014212  838    012771   013624   013022   014601   014374   015203   015145   013703   014965   014961   014191   013996               120141551    8    110144901    8    100140121    8    090000001         080000001         013494   012959   014387   013927   014234   015271   014857   013636   014796   014552   014273   013454                                      
140001600310013 01580 4110201ROCQUANCOURT        0290766IFS                 0380416TILLY LA CAMPAGNE   0340500008650008650500100890100000000000196      029685  888    026541   028306   027073   030544   030096   031756   031541   028728   031503   031363   029636   029156               120294811    8    110297711    8    100285351    8    090000001         080000001         027940   026781   029811   029004   029451   031625   030740   028408   031099   030726   030051   028094                                      
140003100110013 08140 4110201ECHANG.AUTOROUTE A130000000ECHANGEUR MONTALIVET0020000MONDEVILLE          0010000002027000000500100890100000000000193      037413  637    034129   036107   034862   038526   037997   039646   040976   036454   037649   038970   036846   036761               120372891    7    110379841    7    100374561    7    090374981    7    080374761    7    034739   034889   037865   037765   037116   039540   039473   036414   038315   038469   037321   035529                                      
140003100210013 08140 4110201ECHANG.AUTOROUTE A130000000ECHANGEUR MONTALIVET0020000MONDEVILLE          0010000002027000000500100890100000000000193      037560  637    034552   036238   034419   038392   038099   039394   039487   037713   038844   038938   037698   036951               120374641    7    110382781    7    100377431    7    090382401    7    080374971    7    035499   035051   038431   037557   037826   039827   038463   036283   038520   038343   038033   035719                                      
140003100310013 08140 4110201ECHANG.AUTOROUTE A130000000ECHANGEUR MONTALIVET0020000MONDEVILLE          0010000002027000000500100890100000000000193      074973  637    068681   072345   069281   076918   076096   079040   080463   074167   076493   077908   074544   073712               120747531    7    110762621    7    100751991    7    090757381    7    080749731    7    070238   069940   076296   075322   074942   079367   077936   072697   076835   076812   075354   071248                                      
140003200110013 08140 4110201Echangeur Montalivet0020000Ech.porte/Angleterre0030757VIADUC ->CHERBOURG  0030340001750000000500100890100000000000190      040355  567    036960   039023   037474   041498   040974   042630   044711   038995   041456   041756   039692   039090               120402731    7    110406991    7    100402401    7    090412051    7    080401211    7    038574   037639   040860   040468   040060   042664   042448   039606   041316   041517   040148   037918                                      
140003200210013 08140 4110201Echangeur Montalivet0020000Ech.porte/Angleterre0030757VIADUC CALIX CUMUL  0030340001750000000500100890100000000000190      039803  687    036760   038484   036624   040806   040548   041866   042685   038774   041234   041324   039950   038607               120398251    7    110401901    7    100397211    7    090409141    7    080397031    7    038587   037358   040841   039603   040078   042040   041031   039162   040774   040666   040250   037455                                      
140003200310013 08140 4110201Enchageur Montalivet0020000Ech.porte/Angleterre0030757VIADUC -> PARIS     0030340001750000000500100890100000000000190      080158  647    073720   077507   074098   082304   081522   084496   087396   077769   082690   083080   079642   077697               120800981    7    110808891    7    100799611    7    090821191    7    080798241    7    077161   074997   081701   080071   080138   084704   083479   078768   082090   082183   080398   075373                                      
140003300110013 08140 4110201Ech.porte/angleterre0030757Ech.Pierre Heuzé    0040763PIierre-Heuzé       0040300000999000000500100890100000000000188      040939  627    037699   039810   038195   042245   041575   042960   044283   041965   042148   042327   039209   038833               120408621    7    110415001    7    100399361    7    090333961    7    080385431    7    039374   038222   041993   041081   040662   043751   042628   039149   041860   042554   040802   038226                                      
140003300210013 08140 4110201Ech.porte/Angleterre0030757Ech.Pierre Heuzé    0040763Pierre Heuzé        0040300000999000000500100890100000000000188      040488  597    037679   039553   037513   041890   041244   042629   042897   039325   042009   042216   040199   038762               120402111    7    110405311 1087    100398541 1497    090000001         080398991    7    039086   038096   041295   039955   040792   042583   039585   039198   041608   041657   040936   037743                                      
140003300310013 08140 4110201Ech.porte/Angleterre0030757Ech.Pierre Heuzé    0040763Pierre-Heuzè        0040300000999000000500100890100000000000188      081427  607    075378   079363   075708   084135   082819   085589   087180   081290   084157   084543   079408   077595               120810731    7    110820311    7    100797901 1207    090000001         080784421    7    078460   076318   083288   081036   081454   086334   082213   078347   083468   084211   081738   075969                                      
140003500110013 08140 4110201Ech. Pierre Heuzé   0040763Ech.vallée des jardi0070255Hôpital             0070095002421000000500100890100000000000193      027128  787    024279   025962   024991   027956   027937   028990   030213   027260   027719   028189   026292   025708               120270951    7    110274351    7    100268891    7    090268831    0    080269491    7    025559   024976   027418   027737   027340   029134   028904   026435   027637   027959   026861   025143                                      
140003500210013 08140 4110201Ech.pierre Heuzé    0040763Ech.vallée des jardi0070255Hôpital             0070095002421000000500100890100000000000193      030425  687    028010   029707   027939   031469   031170   032350   032130   030366   031549   031537   030043   028880               120304571    7    110307821    7    100301591    7    090301201    0    080303681    7    029701   028690   031381   030619   030927   032570   030867   029180   031342   031265   030840   028100                                      
140003500310013 08140 4110201Ech.Pierre Heuzé    0040763Ech.vallée des jardi0070255Hôpital             0070095002421000000500100890100000000000193      057553  717    052289   055669   052930   059425   059107   061340   062343   057626   059268   059726   056335   054588               120575521    7    110582171    7    100570481    7    090570031    0    080573171    7    055260   053666   058799   058356   058267   061704   059771   055615   058979   059224   057701   053243                                      
140003600110013 08140 4110201Ech.vallée des jardi0070255Ech.chemin vert     0080857Mémorial            0080242001594000000500100890100000000000700      029640  707    028698   030518   029110   032655   032367   033578   024002   021913   029228   032967   030862   030114               120312701    7    110301321    7    100315131    7    090317621    7    080315821    7    029729   029270   032345   032164   031860   034186   033065   030273   032494   032415   032225   025275                                      
140003600210013 08140 4110201Ech.vallée des jardi0070255Ech.chemin vert     0080857Mémorial            0080242001594000000500100890100000000000700      029927  637    027543   028970   027300   031107   030757   031806   031309   029190   031484   031328   029846   028531               120298841    7    110302301    7    100296061    7    090296211    7    080295191    7    028231   027950   030650   029987   030429   032219   030393   028638   031176   030623   030447   027877                                      
140003600310013 08140 4110201Ech.vallée des jardi0070255Ech.chemin vert     0080857Mémorial            0080242001594000000500100890100000000000700      059567  657    056241   059488   056410   063762   063124   065384   055311   051103   060712   064295   060708   058645               120611541    7    110603621    7    100611191    7    090613831    7    080611011    7    057960   057220   062995   062151   062289   066405   063458   058911   063670   063038   062672   053152                                      
140003700110013 08140 4110201Ech.chemin vert     0080857Echangeur du Bessin 0110520Chemin vert         0090402002212000000500100890100000000000700      030117  707    027089   028813   027383   031029   030726   031946   032564   029215   031859   032332   029827   028624               120298271    7    110302951    7    100295551    7    090296781    7    080292901    7    027828   027430   030516   030357   030099   032324   031140   028308   030702   031246   030001   027954                                      
140003700210013 08140 4110201Ech.chemin vert     0080857Echangeur du Bessin 0110520Chemin vert         0090402002212000000500100890100000000000700      028664  657    026330   027589   026126   029923   029489   030486   030045   027879   030311   030070   028551   027219               120286991    7    110290161    7    100282901    7    090283171    7    080279551    7    027746   026671   029265   028801   029138   030925   029132   027343   029946   029674   029246   026507                                      
140003700310013 08140 4110201Ech.chemin vert     0080857Echangeur du Bessin 0110520Chemin vert         0090402002212000000500100890100000000000700      058781  677    053419   056402   053509   060952   060215   062432   062609   057094   062170   062402   058378   055843               120585261    7    110593111    7    100578451    7    090579951    7    080572451    7    055574   054101   059781   059158   059237   063249   060272   055651   060648   060920   059247   054461                                      
140003801110013 08140 4110201Echangeur du Bessin 0110520Passage inf.RD 14   0130370CARPIQUET           0110730001916000000500100890100000000000194      021774  747    019572   020949   019796   022473   021931   023158   022461   021252   022984   023210   021749                        120217601    7    110217801    7    100213151    7    090210251    7    080207641    7    020562   019881   022146   021986   022046   023400   022790   020787   022664   022759   021949   020120                                      
140003801210013 08140 4110201Echangeur du Bessin 0110520Passage inf. RD 14  0130370CARPIQUET           0110730001916000000500100890100000000000194      020077  877    017931   019129   018306   020794   020523   021264   020723   019953   021270   021072   019884                        120200441    7    110200681    7    100196381    7    090195161    7    080194461    7    018946   018713   020284   020219   020425   021675   020765   019515   020738   020409   020316   018524                                      
140003801310013 08140 4110201Echangeur du Bessin 0110520Passage inf. RD 14  0130370CARPIQUET           0110730001916000000500100890100000000000194      041851  827    037503   040078   038102   043267   042454   044422   043184   041205   044254   044282   041633                        120418041    7    110418481    7    100409531    7    090405411    7    080402101    7    039508   038594   042430   042205   042471   045075   043555   040302   043402   043168   042265   038644                                      
140003803110013 08140 4110201Passage inf. RD 14  0130370Ech. de Bretagne    0140530Ech. de Bretagne    0140325001168000000500100890100000000000997      007712  857    006420   006994   007366   007861   007997   008120   008672   007990   008017   008241   007584   007237               120076261    7    110077781    7    100076231    7    090075061    7    080074211 1037    006910   006753   007540   007947   007765   008293   008514   007695   007854   007830   007471   006915                                      
140003803210013 08140 4110201Passage inf. RD 14  0130370Ech. de Bretagne    0140530Ech. de Bretagne    0140325001168000000500100890100000000000997      025967  927    021927   023790   023653   027075   026980   027678   029077   027197   026894   027299   024797   025112               120259681    7    110261251    7    100253931    7    090252841    7    080246351    7    023175   023515   025355   027141   026226   027506   028869   026669   026850   026437   025587   024229                                      
140003803310013 08140 4110201Passage inf. RD 14  0130370Ech. de Bretagne    0140530Ech. de Bretagne    0140325001168000000500100890100000000000997      033679  917    028347   030784   031019   034936   034977   035798   037749   035187   034911   035540   032381   032349               120335941    7    110339031    7    100330161    7    090327901    7    080320561    7    030085   030268   032895   035088   033991   035799   037383   034364   034704   034267   033058   031144                                      
140003900110013 08140 4110201ECHANG.BRETAGNE     0140530ECHANG.D'ETERVILLE  0160252ETERVILLE           0150300001678000000500100890100000000000997      027977 1167    024141   025470   024463   029119   029028   029609   030705   030596   030037   028690   027298   026465               120280131 1197    110280341 1217    100272691 1197    090269351 1217    080262351 1327    025362   024466   027138   028520   029155   029376   030377   029841   029919   028084   028135   025680                                      
140003900210013 08140 4110201ECHAN.BRETAGNE      0140530ECHANG.D'ETERVILLE  0160252ETERVILLE           0150300001678000000500100890100000000000997      026674 1107    022650   024516   024211   027675   027587   028461   029794   028110   027778   027931   025518   025735               120267501 1137    110267711 1147    100260651 1117    090258731 1137    080252191 1247    024028   024198   026150   027836   027115   028582   029565   027374   027685   027157   026379   024879                                      
140003900310013 08140 4110201ECHA. BRETAGNE      0140530ECHAN. D'ETERVILLE  0160252ETERVILLE           0150300001678000000500100890100000000000997      054651 1127    046791   049986   048674   056794   056615   058070   060499   058706   057815   056621   052816   052200               120547631 1157    110548051 1167    100533341 1147    090528081 1167    080514541 1277    049390   048664   053288   056356   056270   057958   059942   057215   057604   055241   054514   050559                                      
140004000110013 08140 4110201ECHAN.D'ETERVILLE   0160252Ech. Suisse Normande0200000FLEURY SUR ORNE     0190368003668000000500100890100000000000997      027544 1117    023750   025118   024195   028651   028451   028743   030150   030317   029379   028244   027084   026335               120276201 1137    110273411 1177    100269621 1167    090266361 1177    080261241 1307    024877   024360   026821   028340   028702   028950   029902   029582   029389   027503   027579   025346                                      
140004000210013 08140 4110201ECHAN.D'ETERVILLE   0160252Ech.Suisse Normande 0200000FLEURY SUR ORNE     0190368003668000000500100890100000000000997      027520 1147    023323   025170   024892   028465   028434   029260   030796   028646   028536   029109   026651   026824               120275271 1157    110274301 1187    100269131 1147    090264691 1157    080257651 1277    024554   024777   026913   028832   027923   029507   030202   027886   028475   028047   027261   025904                                      
140004000310013 08140 4110201ECHAN.D'ETERVILLE   0160252Ech.Suisse Normande 0200000FLEURY SUR ORNE     0190368003668000000500100890100000000000997      055064 1137    047073   050288   049087   057116   056885   058003   060946   058963   057915   057353   053735   053159               120551471 1147    110547711 1177    100538751 1157    090531051 1167    080518891 1287    049431   049137   053734   057172   056625   058457   060104   057468   057864   055550   054840   051250                                      
140004100110013 08140 4110201Ech.Suisse Normande 0200000Ech.IFS bourg       0220491IFS Bourg           0210916002506000000500100890100000000000193      028742 1117    024874   026237   025495   029891   029689   030126   031538   031301   030396   029365   028191   027682               120290371 1137    110293951 1207    100287581 1217    090287161 1697    080284801 1447    026259   025959   028096   029640   030111   030371   031485   031067   030744   028868   028955   026803                                      
140004100210013 08140 4110201Ech.Suisse Normande 0200000Ech. IFS bour       0220491IFS Bourg           0210916002506000000500100890100000000000193      029791 1067    025471   027367   027123   030684   030776   031528   033225   031112   030694   031343   028851   029162               120299351 1067    110294261 1117    100284981 1097    090280381 1197    080278281 1287    026932   027266   029309   031256   030254   031710   032782   030438   030859   030421   029573   028369                                      
140004100310013 08140 4110201Ech.Suisse Normande 0200000Ech. IFS bourg      0220491IFS Bourg           0210916002506000000500100890100000000000193      058533 1077    050345   053604   052618   060575   060465   061654   064763   062413   061090   060708   057042   056844               120589721 1087    110588211 1147    100572561 1137    090567541 1367    080563081 1347    053191   053225   057405   060896   060365   062081   064267   061505   061603   059289   058528   055172                                      
140004300110013 08140 4110201Echangeur IFS bourg 0220491Ech. de CORMELLES   0240719Ech. Porte d'Espagn 0230590002227000000500100890100000000000997      024131 1357    020827   022090   021604   024772   025128   025394   026772   026602   025447   024318   023473   023027               120241691 1347    110244421 1387    100238221 1307    090232631 1217    080231791 1357    021816   021484   023647   024357   025071   025330   026555   026096   025546   023837   024043   022160                                      
140004300210013 08140 4110201Echangeur IFS bourg 0220491Ech. de CORMELLES   0240719Ech Porte d'Espagne 0230590002227000000500100890100000000000997      033871 1137    030057   032060   031578   034652   034944   035809   037873   035221   034261   034834   032541   032498               120345491 1137    110351471 1167    100347671 1067    090346131    7    080352521 1167    032211   032216   034360   035667   035476   036645   037416   035151   034860   034657   033401   032450                                      
140004300310013 08140 4110201Echengeur IFS bourg 0220491Ech. de CORMELLES   0240719Ech. Porte d'Espagn 0230590002227000000500100890100000000000997      058002 1197    050884   054150   053182   059424   060072   061203   064645   061823   059708   059152   056014   055525               120587181 1197    110595891 1227    100585891 1127    090578761 1037    080584311 1207    054027   053700   058007   060024   060547   061975   063971   061247   060406   058494   057444   054610                                      
140004400110013 08140 4110201Ech. de Cormelles   0240719Ech. du Pays D'auge 0260788Vallée sèche        0260246002080000000500100890100000000000997      039214 1087    035080   037111   035657   040969   039936   041457   042705   040579   040861   039986   038343   037834               120389061 1107    110373701 1077    100356091    7    090341511    7    080378751    7    036420   035933   038783   039357   039671   041004   039895   040259   040242   040026   038594   036609                                      
140004400210013 08140 4110201Ech.de CORMELLEZS   0240719Ech. du Pays D'Auge 0260788Vallée sèche        0260246002080000000500100890100000000000997      037446  927    034431   036755   036043   040240   039618   041037   042812   039304   040307   025491   036142   037356               120382441    7    110386911    7    100382591    7    090375481    7    080380711 1067    035310   035541   038396   039372   038736   040675   038790   039506   039377   038682   037864   036644                                      
140004400310013 08140 4110201Ech. de CORMELLES   0240719Ech.du PAYS d'Auge  0260788Vallée sèche        0260246002080000000500100890100000000000997      076660  987    069511   073866   071700   081209   079554   082494   085517   079883   081168   065477   074485   075190               120771501    7    110760611    7    100738681    7    090716991    7    080759461    7    071730   071474   077179   078729   078407   081679   078685   079765   079619   078708   076458   073253                                      
140004599110013 08140 4110201Ech. du Pays D'auge 0260788ECHANGEUR MONTALIVET0270380Ech. Porte de Paris 0270230000592000592500100890100000000000997      043703  987    039651   041664   039958   045784   044368   045148   047691   044027   045609   044826   043014   042653               120435591    7    110440211    7    100414741    7    090341511    0    080378751    7    041188   040384   043699   044174   043959   045870   046736   043044   044384   044240   043803   041148                                      
140004599210013 08140 4110201Ech. du Pays D'Auge 0260788ECHANGEUR MONTALIVET0270380Ech. Porte de Paris 0270230000592000592500100890100000000000997      043962  737    039502   041905   040738   045486   044775   046274   048027   044208   044942   045614   042739   043247               120440141    7    110448261    7    100442361    7    090375481    0    080380711 1067    041472   041125   044174   044779   043950   046662   047098   043728   044711   044714   043703   041986                                      
140004599310013 08140 4110201Ech.du PAYS d'Auge  0260788ECHANGEUR MONTALIVET0270380Ech. Porte de Paris 0270230000592000592500100890100000000000997      087665  817    079153   083569   080696   091270   089143   091422   095718   088235   090551   090440   085753   085900               120875731    7    110888471    7    100857101    7    090716991    0    080759461    7    082660   081509   087873   088953   087909   092532   093834   086772   089095   088954   087506   083134                                      
270000100110013 00120 4813001EURE ET LOIRE       0000000INTERSECTION N 154  0030600NONANCOURT        B 0000680003606003606270000200100000000000188      010280                                                                                                                                 120104378         110000008         100000008         090000008         080000008                                                                                                                                                        
270000100210013 00120 4813001EURE ET LOIRE       0000000INTERSECTION N 154  0030600NONANCOURT        B 0000680003606003606270000200200000000000188      010615                                                                                                                                 120106078         110000008         100000008         090000008         080000008                                                                                                                                                        
270000100310013 00120 4813001EURE ET LOIRE       0000000INTERSECTION N 154  0030600NONANCOURT        B 0000680003606003606270000200300000000000188      020895                                                                                                                                 120210448         110000008         100000008         090000008         080000008                                                                                                                                                        
270000101110013 00120 4813001                    0030600                    0030640giratoire anglais   0030600000640000640270000200100000000000188      010280                                                                                                                                 120104378         110000008         100000008    0    090000008    0    080000008    0                                                                                                                                                   
270000101210013 00120 4813001                    0030600                    0030640giratoire anglais   0030600000640000640270000200200000000000188      010615                                                                                                                                 120106078         110000008         100000008    0    090000008    0    080000008    0                                                                                                                                                   
270000101310013 00120 4813001                    0030600                    0030640giratoire anglais   0030600000640000640270000200300000000000188      020895                                                                                                                                 120210448         110000008         100000008    0    090000008    0    080000008    0                                                                                                                                                   
270000102110013 00120 4813001                    0030640                    0060458st Lubin Joncherets 0050680002818002818270000200100000000000188      010280                                                                                                                                 120104378         110000008         100000008    0    090000008    0    080000008    0                                                                                                                                                   
270000102210013 00120 4813001                    0030640                    0060458st Lubin Joncherets 0050680002818002818270000200200000000000188      010615                                                                                                                                 120106078         110000008         100000008    0    090000008    0    080000008    0                                                                                                                                                   
270000102310013 00120 4813001                    0030640                    0060458st Lubin Joncherets 0050680002818002818270000200300000000000188      020895                                                                                                                                 120210448         110000008         100000008    0    090000008    0    080000008    0                                                                                                                                                   
270000200110013 00120 4110201INTERSECTION N 154  0090000ENTREE VERNEUIL     0230040COURTEILLE BASLINE  0090200014040014040270000200100000000001299      006563         005400   006131   006840   006848   007021   006980   007425   006803   006345   006739   006044   006138               120066631         110000001         100000001         090000001         080000001         005652   005855   006364   007178   006959   007070   007420   007119   006820   006744   006456   006297                                      
270000200210013 00120 4110201INTERSECTION N 154  0090000ENTREE VERNEUIL     0230040COURTEILLE BASLINE  0090200014040014040270000200100000000001299      006497         005560   006005   006443   006623   006939   006775   006905   006918   006769   006536   006316   006144               120064921         110000001         100000001         090000001         080000001         005838   005676   006371   006955   006920   006756   007030   006540   006926   006531   006322   006020                                      
270000200310013 00120 4110201INTERSECTION N 154  0090000ENTREE VERNEUIL     0230040COURTEILLE BASLINE  0090200014040014040270000200100000000001299      013060         010960   012136   013283   013471   013960   013755   014330   013721   013114   013275   012360   012282               120131551         110000001         100000001         090000001         080000001         011490   011531   012735   014133   013879   013826   014450   013659   013746   013275   012778   012317                                      
270000300110013 00120 4813001ENTREE VERNEUIL     0230040SECTIONNEMENT RN 26 0250650VERNEUIL S/AVRE   BA0240000003400002605270000200100000000000188      006563                                                                                                                                 120066638         110000008         100000008         090000008         080000008                                                                                                                                                        
270000300210013 00120 4813001ENTREE VERNEUIL     0230040SECTIONNEMENT RN 26 0250650VERNEUIL S/AVRE   BA0240000003400002605270000200200000000000188      006497                                                                                                                                 120064928         110000008         100000008         090000008         080000008                                                                                                                                                        
270000300310013 00120 4813001ENTREE VERNEUIL     0230040SECTIONNEMENT RN 26 0250650VERNEUIL S/AVRE   BA0240000003400002605270000200300000000000188      013060                                                                                                                                 120131558         110000008         100000008         090000008         080000008                                                                                                                                                        
270000400110013 00120 4813001INTERSECTION RN 26  0250650ORNE                0370190VERNEUIL SUR AVRE BA0280000010748010536610000100100000000000188      003965                                                                                                                                 120039848         110000008    0    100000008    0    090000008    0    080000008    0                                                                                                                                                   
270000400210013 00120 4813001INTERSECTION RN 26  0250650ORNE                0370190VERNEUIL SUR AVRE BA0280000010748010536610000100200000000000188      003977                                                                                                                                 120039278         110000008    0    100000008    0    090000008    0    080000008    0                                                                                                                                                   
270000400310013 00120 4813001INTERSECTION RN 26  0250650ORNE                0370190VERNEUIL SUR AVRE BA0280000010748010536610000100300000000000188      007942                                                                                                                                 120079118         110000008    0    100000008    0    090000008    0    080000008    0                                                                                                                                                   
270000500110013 00130 4815001YVELINES            0000000DEVIATION PACY/EURE 0050000AIGLEVILLE          0040400004998004998270000900100000000000188      005895                                                                                                                                 120059108         110072508         100071168         090000008         080073408                                                                                                                                                        
270000500210013 00130 4815001YVELINES            0000000DEVIATION PACY/EURE 0050000AIGLEVILLE          0040400004998004998270000900200000000000188      007066                                                                                                                                 120070808         110072288         100071458         090000008         080073408                                                                                                                                                        
270000500310013 00130 4815001YVELINES            0000000DEVIATION PACY/EURE 0050000AIGLEVILLE          0040400004998004998270000900300000000000188      012961                                                                                                                                 120129908         110144788         100142618         090000008         080146808                                                                                                                                                        
270000600110013 00130 4810201DEVIATION PACY/EURE 0050000                    0060600DEVIATION PACY/EURE 0060000001600001600270000900100000000000188      007977                                                                                                                                 120079988         110081498         100079988         090000008         080082498                                                                                                                                                        
270000600210013 00130 4810201DEVIATION PACY/EURE 0050000                    0060600DEVIATION PACY/EURE 0060000001600001600270000900200000000000188      007941                                                                                                                                 120079568         110081228         100080298         090000008         080082488                                                                                                                                                        
270000600310013 00130 4810201DEVIATION PACY/EURE 0050000                    0060600DEVIATION PACY/EURE 0060000001600001600270000900300000000000188      015918                                                                                                                                 120159548         110162718         100160278         090000008         080164978                                                                                                                                                        
270000700110013 00130 4810201DEVIATION PACY/EURE 0060600BRETELLE ST ANDRE   0090100ST AQUILIN DE PACY  0070000002500002500270000900100000000000188      008734                                                                                                                                 120087578         110089228         100087568         090000008         080090318                                                                                                                                                        
270000700210013 00130 4810201DEVIATION PACY/EURE 0060600BRETELLE ST ANDRE   0090100ST AQUILIN DE PACY  0070000002500002500270000900200000000000188      006986                                                                                                                                 120070008         110091428         100090378         090000008         080092838                                                                                                                                                        
270000700310013 00130 4810201DEVIATION PACY/EURE 0060600BRETELLE ST ANDRE   0090100ST AQUILIN DE PACY  0070000002500002500270000900300000000000188      015720                                                                                                                                 120157578         110180648         100177938         090000008         080183148                                                                                                                                                        
270000900110013 00130 4115001BRETELLE ST ANDRE   0090100ENTREE BA 105       0180780MISEREY             0170580009396009396270000900100000000000188      009891         009104   009792   010092   010085   010149   010692   009732   008735   010234   010563   009906   009637               120099161    8    110101021    8    100099141    8    090000001         080102251    7    009463   009515   010046   010295   010017   010911   010057   008739   010232   010229   010069   009453                                      
270000900210013 00130 4115001BRETELLE ST ANDRE   0090100ENTREE BA 105       0180780MISEREY             0170580009396009396270000900100000000000188      010090         009378   009905   010105   010367   010395   010912   009980   008884   010563   010631   010169   009827               120101091    8    110103191    8    100102001    8    090000001         080104771    7    009747   009470   010160   010374   010354   010961   010278   008934   010605   010411   010422   009618                                      
270000900310013 00130 4115001BRETELLE ST ANDRE   0090100ENTREE BA 105       0180780MISEREY             0170580009396009396270000900100000000000188      019981         018482   019697   020197   020452   020544   021604   019712   017619   020797   021194   020075   019464               120200251    8    110204211    8    100201141    8    090000001         080207021    7    019210   018985   020206   020669   020371   021872   020335   017673   020837   020640   020491   019071                                      
270001000110013 00130 4810201ENTREE BA 105       0180780RN 154              0200413FAUVILLE            0200700002215002215270000900100000000000188      011314                                                                                                                                 120113438         110115568         100113418         090000008         080116978                                                                                                                                                        
270001000210013 00130 4810201ENTREE BA 105       0180780RN 154              0200413FAUVILLE            0200700002215002215270000900200000000000188      012361                                                                                                                                 120123858         110126438         100124988         090000008         080128388                                                                                                                                                        
270001000310013 00130 4810201ENTREE BA 105       0180780RN 154              0200413FAUVILLE            0200700002215002215270000900300000000000188      023675                                                                                                                                 120237288         110241998         100238398         090000008         080245358                                                                                                                                                        
270006000110013 00310 4814001limite 76/27        0000000limite 27/76        0020843Vascoeuil           0010000002843002843760006700176000660010109      002622                                                                                                                                 120027358         110028748         100027948    0    090000008    0    080000008    0                                                                                                                                                   
270006000210013 00310 4814001limite 76/27        0000000limite 27/76        0020843Vascoeuil           0010000002843002843760006700276000660020109      002569                                                                                                                                 120027408         110028678         100027818    0    090000008    0    080000008    0                                                                                                                                                   
270006000310013 00310 4814001limite 76/27        0000000limite 27/76        0020843Vascoeuil           0010000002843002843760006700376000660030109      005191                                                                                                                                 120054758         110057418         100055758    0    090000008    0    080000008    0                                                                                                                                                   
270004701110013 01540 4110201Nonancourt          0000000D833                0130247Petite vallée       0100750013247013247270005100100000000000101      000000                                                                                                                                 120061541 2438    110000001         100062031 2428    090000001    0    080079701 2317    005408   005514   005979   006267   006230   006488   006795   006732   006679   006241   006044   005455                                      
270004701210013 01540 4110201Nonancourt          0000000D833                0130247Petite vallée       0100750013247013247270005100100000000000101      000000                                                                                                                                 120070141 1198    110000001         100000001    0    090000001    0    080076641 2297    006074   006035   006660   007258   007029   007681   008521   007885   007388   006930   006430   006240                                      
270004701310013 01540 4110201Nonancourt          0000000D833                0130247Petite vallée       0100750013247013247270005100100000000000101      000000                                                                                                                                 120131681 1568    110000001         100000001    0    090000001    0    080156341 2307    011482   011549   012639   013525   013259   014169   015316   014617   014067   013171   012474   011695                                      
270004800110013 01540 4110201D833                0130247Evreux              0270769PREY                0210900014522014522270005100100000000000101      007259         006332   006859   006998   007308   007185   007712   007896   007984   007781   007485   006930   006623               120070141 2548    110000001         100082971 2038    090000001    0    080079701 2317    006376   006328   006853   007126   007171   007513   007533   007627   007467   006997   006871   006292                                      
270004800210013 01540 4110201D833                0130247Evreux              0270769PREY                0210900014522014522270005100100000000000101      000000                                                                                                                                 120083551         110080761         100070971 1398    090000001    0    080076641 2297    007820   007750   007088   008749   010064   008754   009674   008630   008525   008158   007531   007480                                      
270004800310013 01540 4110201D833                0130247Evreux              0270769PREY                0210900014522014522270005100100000000000101      000000                                                                                                                                 120153691         110000001         100153941 1638    090000001    0    080156341 2307    014196   014078   013941   015875   017235   016267   017207   016257   015992   015155   014402   013772                                      
270005000110013 01540 4810201N 13                0270769APRES ECHAN GRAVIGNY0330000FAUVILLE            0300380005440005440270005100100000000000188      000000                                                                                                                                 120110148         110000008         100000008         090000008         080000008                                                                                                                                                        
270005000210013 01540 4810201N 13                0270769APRES ECHAN GRAVIGNY0330000FAUVILLE            0300380005440005440270005100200000000000188      000000                                                                                                                                 120000008         110000008         100000008         090000008         080000008                                                                                                                                                        
270005000310013 01540 4810201N 13                0270769APRES ECHAN GRAVIGNY0330000FAUVILLE            0300380005440005440270005100300000000000188      000000                                                                                                                                 120000008         110000008         100000008         090000008         080000008                                                                                                                                                        
270005100110013 01540 4110201ECHAN.GRAVIGNY      0330000RN 155              0460430HEUDREVILLE/EURE    0410300016903016481760006700100000000000195      000000                                                                                                                                 120000001         110000001    0    100000001    0    090000001    0    080000001    0                                                                                                                                                   
270005100210013 01540 4110201ECHANG. GRAVIGNY    0330000RN 155              0460430HEUDREVILLE/EURE    0410300016903016481760006700100000000000195      000000                                                                                                                                 120000001         110000001         100000001         090000001         080000001                                                                                                                                                        
270005100310013 01540 4110201ECHANG. GRAVIGNY    0330000RN 155              0460430HEUDREVILLE/EURE    0410300016903016481760006700100000000000195      000000                                                                                                                                 120000001         110000001         100000001         090000001         080000001                                                                                                                                                        
270110001110013 10130 4810201N13                 0200000N154                0210130vielle evreux       0210000001130001130270110000100000000000212      016829                                                                                                                                 120166658         110000008    0    100000008    0    090000008    0    080000008    0                                                                                                                                                   
270110001210013 10130 4810201N13                 0200000N154                0210130vielle evreux       0210000001130001130270110000200000000000212      002697                                                                                                                                 120026558         110000008    0    100000008    0    090000008    0    080000008    0                                                                                                                                                   
270110001310013 10130 4810201N13                 0200000N154                0210130vielle evreux       0210000001130001130270110000300000000000212      019526                                                                                                                                 120166658         110000008    0    100000008    0    090000008    0    080000008    0                                                                                                                                                   
270110002110013 10130 4810201N154                0210130D6154               0240100Evreux              0220000002890002890270110000100000000000212      000000                                                                                                                                 120000008         110000008    0    100000008    0    090000008    0    080000008    0                                                                                                                                                   
270110002210013 10130 4810201N154                0210130D6154               0240100Evreux              0220000002890002890270110000200000000000212      016931                                                                                                                                 120166658         110000008    0    100000008    0    090000008    0    080000008    0                                                                                                                                                   
270110002310013 10130 4810201N154                0210130D6154               0240100Evreux              0220000002890002890270110000300000000000212      000000                                                                                                                                 120000008         110000008    0    100000008    0    090000008    0    080000008    0                                                                                                                                                   
270110000110013 10130 4110201Av Foch             0300000RD 613              0320268Parville            0310260002065002065270110000100000000000212      008500         007717   008309   008525   008517   008654   009054   008931   008015   008804   008931   008367   008187               120084171    7    110088441    7    100000001    0    090000001    0    080000001    0    008100   008051   008479   008612   008477   009015   008539   008027   008784   008652   008360   007919                                      
270110000210013 10130 4110201Av Foch             0300000RD 613              0320268Parville            0310260002065002065270110000100000000000212      008380         007703   008093   008222   008509   008602   008927   008802   007944   008752   008658   008321   008027               120082481    7    110086831    7    100000001         090000001         080000001         007972   007762   008207   008456   008404   008726   008439   007967   008747   008411   008182   007706                                      
270110000310013 10130 4110201Av Foch             0300000RD 613              0320268Parville            0310260002065002065270110000100000000000212      016880         015420   016402   016747   017026   017256   017981   017733   015959   017556   017589   016688   016214               120000001    7    110175271    7    100000001    0    090000001    0    080000001    0    016072   015813   016686   017068   016881   017741   016978   015994   017531   017063   016542   015625                                      
280000500110013 00100 4817001                    0340000Bretelle A11        0340855Mignières           0340083000855000855280000600100000000000396      005577                                                                                                                                 120055918         110057298         100055888    0    090056268    0    080000008    0                                                                                                                                                   
280000500210013 00100 4817001                    0340000Bretelle A11        0340855Mignières           0340083000855000855280000600200000000000396      005446                                                                                                                                 120054378         110055648         100054448    0    090054428    0    080000008    0                                                                                                                                                   
280000500310013 00100 4817001                    0340000Bretelle A11        0340855Mignières           0340083000855000855280000600300000000000188      011023                                                                                                                                 120110288         110112938         100110328    0    090110688    0    080000008    0                                                                                                                                                   
280000600110013 00100 4117001Bretelle A11        0340855RD12                0410767LA BOURDINIERE    BA0390000006958005499280000600100000000000188      006407 1527    005449   005863   006303   006614   006695   007132   007125   006146   006748   006697   006246   005851               120064221 1727    110065801    8    100064181    8    090064611    8    080063451 1627    005858   005761   006321   006642   006629   007083   006886   006053   006723   006651   006362   006085                                      
280000600210013 00100 4117001Bretelle A11        0340855RD12                0410767LA BOURDINIERE    BA0390000006958005499280000600100000000000188      006547 1407    005641   005966   006292   006794   006888   007200   006982   006465   007056   006861   006365   006034               120065351 1817    110066871 2198    100065421 2198    090065391 2058    080064451 1687    006027   005786   006366   006700   006867   007060   006789   006347   007065   006714   006573   006117                                      
280000600310013 00100 4117001Bretelle A11        0340855RD12                0410767LA BOURDINIERE    BA0390000006958005499280000600100000000000188      012954 1447    011090   011829   012595   013408   013583   014332   014107   012611   013804   013558   012611   011885               120129571 1787    110132671 1798    100129601 1738    090130001 1688    080127901 1667    011885   011547   012687   013342   013496   014143   013675   012400   013788   013365   012935   012202                                      
280000700110013 00100 4817001RD12                0410767RD28/1              0530602MONTBOISSIER      BA0510700011865009997280000600100000000000188      006032                                                                                                                                 120060478         110061968         100060448         090060858         080059768                                                                                                                                                        
280000700210013 00100 4817001RD12                0410767RD28/1              0530602MONTBOISSIER      BA0510700011865009997280000600200000000000188      006069                                                                                                                                 120060588         110061998         100060658         090060638         080059768                                                                                                                                                        
280000700310013 00100 4817001RD12                0410767RD28/1              0530602MONTBOISSIER      BA0510700011865009997280000600300000000000188      012101                                                                                                                                 120121058         110123958         100121098         090121488         080119528                                                                                                                                                        
280000800110013 00100 4114001RD28/1              0530602RD110               0590937BOIS-GUIBERT       A0560900006239005937280000800100000000000188      005864 1707    004940   005317   005776   005979   006141   006469   006472   005674   006115   006137   005690   005631               120059131 1737    110060441 1408    100059661 1498    090060221 1448    080060031 1358    005392   005349   005866   006151   006128   006472   006389   005660   006126   006067   005790   005559                                      
280000800210013 00100 4114001RD28/1              0530602RD110               0590937BOIS-GUIBERT       A0560900006239005937280000800100000000000188      005966 1757    005081   005383   005733   006125   006272   006496   006282   006074   006420   006163   005892   005651               120059981 1757    110061141 1588    100060351 1518    090060671 1428    080060881 1368    005509   005296   005923   006174   006333   006442   006238   006014   006444   006096   005958   005539                                      
280000800310013 00100 4114001RD28/1              0530602RD110               0590937BOIS-GUIBERT       A0560900006239005937280000800100000000000188      011830 1737    010021   010700   011509   012104   012413   012965   012754   011748   012535   012300   011582   011282               120119111 1757    110121581 1528    100120011 1518    090120891 1438    080120911 1358    010901   010645   011789   012325   012461   012914   012627   011674   012570   012163   011748   011098                                      
280000900110013 00100 4813001RD110               0590937CHATEAUDUN(lim.aggl)0651000MARBOUE           BA0650000006000006000280000800100000000000188      007360                                                                                                                                 120074228    0    110075878    0    100074908    0    090075618    0    080075388    0                                                                                                                                                   
280000900210013 00100 4813001RD110               0590937CHATEAUDUN(lim.aggl)0651000MARBOUE           BA0650000006000006000280000800200000000000188      007385                                                                                                                                 120074258    0    110075698    0    100074728    0    090075128    0    080075398    0                                                                                                                                                   
280000900310013 00100 4813001RD110               0590937CHATEAUDUN(lim.aggl)0651000MARBOUE           BA0650000006000006000280000800300000000000188      014745                                                                                                                                 120148478    0    110151568    0    100149628    0    090150738    0    080150078    0                                                                                                                                                   
280004503110013 00100 4113001CHATEAUDUN nord     0651000CHATEAUDUN sud      0700237Jallans             0680370006000006000410000300100000000000188      003602 3157    003023   003269   003469   003746   003747   003922   004095   003788   003756   003643   003454   003296               120035891 3287    110036251    3    100056131    0    090056661    0    080060141    0    003225   003275   003529   003746   003712   003875   003989   003653   003747   003680   003356   003270                                      
280004503210013 00100 4113001CHATEAUDUN nord     0651000CHATEAUDUN sud      0700237Jallans             0680370006000006000410000300100000000000188      003981 3107    003285   003526   003788   004123   004191   004298   004370   004488   004266   004010   003798   003597               120039571 3167    110040101    0    100054081    0    090054371    0    080058081    0    003473   003506   003843   004123   004183   004247   004285   004312   004301   004021   003678   003500                                      
280004503310013 00100 4113001CHATEAUDUN nord     0651000CHATEAUDUN sud      0700237Jallans             0680370006000006000410000300100000000000188      007583 3117    006308   006795   007257   007869   007938   008220   008465   008276   008022   007653   007252   006893               120075461 3207    110076351    3    100110211    0    090111031    0    080118221 1600    006698   006781   007372   007869   007895   008122   008274   007965   008048   007701   007034   006770                                      
280001400110013 00100 4113001Chateaudun sud      0700237lim 41              0820270Chateaudun sud      0700880012000012000280001600141000010010213      000000                                                                                                                                 120000001    0    110000001    0    100000001    0    090000001    0    080000001    0                                                                                                                                                   
280001400210013 00100 4113001Chateaudun sud      0700237lim 41              0820270Chateaudun sud      0700880012000012000280001600141000010020213      000000                                                                                                                                 120000001         110000001         100000001         090000001         080000001                                                                                                                                                        
280001400310013 00100 4113001Chateaudun sud      0700237lim 41              0820270Chateaudun sud      0700880012000012000280001600141000010030213      000000                                                                                                                                 120000001    0    110000001    0    100000001    0    090000001    0    080000001    0                                                                                                                                                   
280001600110013 00120 4110201Limite DEPT 78      0000000Ech.Est Dreux       0140816LA MESANGERE        0090860014661014661280001600128000040030188      015108 1157    012934   014189   015013   015567   015640   016554   016645   014038   015452   015790   014571   014865               120138681 1237    110153781 1177    100145001         090145971 1217    080144251 1057    013994   013944   013047   012061   011949   012575   013097   013975   015748   016122   015272   014647                                      
280001600210013 00120 4110201Limite DEPT 78      0000000Ech. Est Dreux      0140816LA MESANGERE        0090860014661014661280001600178000040030188      015667 1167    013690   014640   014800   016217   016296   017058   016565   014237   016837   016510   015808   015355               120156481 1167    110158071 1147    100152041         090153901 1127    080146161 1037    014724   014175   015550   016249   016242   016766   016195   014201   016657   016259   015959   014796                                      
280001600310013 00120 4110201Limite DEPT 78      0000000Ech. Est Dreux      0140816LA MESANGERE        0090860014661014661280001600178000040030188      030775 1157    026624   028829   029813   031784   031936   033612   033210   028275   032289   032300   030379   030220               120295161 1187    110311851 1157    100297041         090299871 1157    080290411 1047    028718   028119   028597   028310   028191   029341   029292   028176   032405   032381   031231   029443                                      
280001700110013 00120 4810251Ech. Est Dreux      0140816RD 912 "Les Fenots" 0190637DEVIATION DREUX   B 01705000044360040012800016001          0188      014835                                                                                                                                 120136188         110151018         100142398         090143358         080141678                                                                                                                                                        
280001700210013 00120 4810251Ech. Est Dreux      0140816RD 912 "Les Fenots" 0190637DEVIATION DREUX   B 01705000044360040012800016002          0188      015182                                                                                                                                 120151648         110153198         100147358         090149168         080141668                                                                                                                                                        
280001700310013 00120 4810251Ech. Est Dreux      0140816RD 912 "Les Fenots" 0190637DEVIATION DREUX   B 01705000044360040012800016003          0188      030017                                                                                                                                 120287828         110304208         100289748         090292518         080283338                                                                                                                                                        
280001800110013 00120 4110201RD 912 "Les Fenots" 0190637Limite DEPT 27      0271017Saint Rémy          0230700008300006221280001800127000010030188      013784 1947    011467   012526   013170   014137   014255   014833   015253   014661   014306   014380   013111   013227               120138391 1957    110138421 1937    100140411    0    090140291 1857    080139961 1837    012392   012338   013492   014399   014139   014885   014888   014489   014425   014130   013448   013011                                      
280001800210013 00120 4110201RD 912 "Les Fenots" 0190637Limite DEPT 27      0271017Saint Rémy          0230700008300006221280001800127000010030188      013577 1927    011576   012496   012668   013992   014146   014624   015174   014123   014185   013855   013033   012991               120136561 1937    110138621 1917    100138011    0    090138301 1857    080137861 1867    012434   012180   013255   014254   013979   014494   015081   014197   014174   013674   013347   012760                                      
280001800310013 00120 4110201RD 912 "Les Fenots" 0190637Limite DEPT 27      0271017Saint Rémy          0230700008300006221280001800127000010030188      027361 1937    023043   025022   025838   028129   028401   029457   030427   028784   028491   028235   026144   026218               120274951 1947    110277041 1927    100278421    0    090278591 1857    080277821 1857    024826   024518   026747   028653   028118   029379   029969   028686   028599   027804   026795   025771                                      
280001901110013 00120 4810251                    0280000Limite DEPT 27      0310400DAMPIERRE SUR AVRE  0290000003400003400280001800127000020030188      006729                                                                                                                                 120067568         110067588         100068568         090068518         080068358                                                                                                                                                        
280001901210013 00120 4810251                    0280000Limite DEPT 27      0310400DAMPIERRE SUR AVRE  0290000003400003400280001800227000020030188      006728                                                                                                                                 120067688         110068718         100068418         090068568         080068358                                                                                                                                                        
280001901310013 00120 4810251                    0280000Limite DEPT 27      0310400DAMPIERRE SUR AVRE  0290000003400003400280001800327000020030188      013457                                                                                                                                 120135248         110136298         100136978         090137078         080136708                                                                                                                                                        
280003500110013 01230 4113001RN154               0030000RN10                0070840MORANCEZ          B 0060400004840004840280003900100000000000188      018626 1247    016948   017778   018667   019141   018649   019552   019431   017258   019410   019746   018536   018377               120188571 1257    110189191 1297    100185861         090185441 1287    080185551 1307    017868   017964   019036   019381   018638   020293   019360   017335   019646   019955   018725   018113                                      
280003500210013 01230 4113001RN154               0030000RN10                0070840MORANCEZ          B 0060400004840004840280003900100000000000188      017946 1247    016181   017084   017563   018423   018239   019051   019332   016593   018535   018918   017868   017548               120180841 1277    110180261 1267    100176141         090176161 1137    080176501 1147    016997   017109   018221   018517   018003   019286   019009   016723   018992   019073   017874   017212                                      
280003500310013 01230 4113001RN154               0030000RN10                0070840MORANCEZ          B 0060400004840004840280003900100000000000188      036572 1247    033129   034862   036230   037564   036888   038603   038763   033851   037945   038664   036404   035925               120369411 1277    110369451 1277    100362001         090361601 1187    080362051 1197    034865   035073   037257   037898   036641   039579   038369   034058   038638   039028   036599   035325                                      
280003600110013 01230 4113001RN10                0070840RN23                0110690LUISANT             0080950003853003853280003900100000000000188      016951 1647    015159   016095   016762   017498   017018   018017   017946   016389   017842   017769   016610   016298               120171351 1647    110173521 1538    100170871 1538    090171551 1508    080173531 1538    016041   016125   017225   017379   017101   018450   017698   016374   018201   017789   017025   016225                                      
280003600210013 01230 4113001RN10                0070840RN23                0110690LUISANT             0080950003853003853280003900100000000000188      016905 1607    014950   016048   016509   017508   017195   018129   018465   016252   017481   017632   016416   016259               120170551 1627    110172311 1458    100172341 1468    090171601 1458    080174761 1498    015939   016090   017149   017610   017058   018292   018272   016233   017759   017497   016652   016111                                      
280003600310013 01230 4113001RN10                0070840RN23                0110690LUISANT             0080950003853003853280003900100000000000188      033856 1627    030109   032143   033271   035006   034213   036146   036411   032641   035323   035401   033026   032557               120341901 1637    110345831 1488    100343211 1498    090343151 1478    080348291 1508    031980   032215   034374   034989   034159   036742   035970   032607   035960   035286   033677   032336                                      
280003800110013 01540 4813001VC Ex. RD 927       0140000                    0300095Ymonville           0200000016095016095280003900100000000000188      000000                                                                                                                                 120048618         110048318         100046718    0    090046198    0    080047108    0                                                                                                                                                   
280003800210013 01540 4813001VC Ex. RD 927       0140000                    0300095Ymonville           0200000016095016095280003900200000000000188      000000                                                                                                                                 120048068         110047438         100046168    0    090046898    0    080047118    0                                                                                                                                                   
280003800310013 01540 4813001VC Ex. RD 927       0140000                    0300095Ymonville           0200000016095016095280003900300000000000188      000000                                                                                                                                 120096678         110095748         100092878    0    090093088    0    080094218    0                                                                                                                                                   
280003900110013 01540 4113001RD17                0300095RN123               0470452FRAINVILLE BA       0350500017497016333280004300100000000000188      000000                                                                                                                                 120048161 2547    110047861 2378    100046271 2318    090045751 2238    080046651 2348    003969   003995   004514   004809   004858   005125   005463   005871   005468   004918   004613   004155                                      
280003900210013 01540 4113001RD17                0300095RN123               0470452FRAINVILLE  BA      0350500017497016333280004300100000000000188      000000                                                                                                                                 120048541 2567    110047901 2338    100046611 2248    090047341 2168    080047561 2258    003966   004117   004493   005013   004874   005305   006109   005599   005183   004872   004482   004207                                      
280003900310013 01540 4113001RD17                0300095RN123               0470452FRAINVILLE    BA    0350500017497016333280004300100000000000188      000000                                                                                                                                 120096701 2567    110095761 2348    100092881 2278    090093091 2188    080094211 2288    007935   008112   009007   009822   009732   010430   011572   011470   010651   009790   009095   008362                                      
280004300110013 01540 4110101RN1154              0560000RD26-P.S.           0660359Le Péage            0660350010330009799280004300100000000000202      008215 1927    007047   007539   007748   008469   008329   008802   008794   008723   008922   008544   008021   007615               120081831 1917    110080891 2418    100081451 1758    090079881 1568    080078781 1218    007485   007311   007947   008297   008266   008836   008675   008602   008929   008400   008054   007382                                      
280004300210013 01540 4110101RN1154              0560000RD26-P.S.           0660359Le Péage            0660350010330009799280004300100000000000202      008371 1827    007155   007758   007952   008604   008536   009070   009637   008534   008736   008635   007998   007814               120083281 1797    110086711 1428    100083561 1348    090081331 1358    080081001 1348    007539   007378   008113   008654   008297   009094   009526   008464   008709   008548   007996   007589                                      
280004300310013 01540 4110101RN1154              0560000RD 26 - P.S         0660359Le Péage            0660350010330009799280004300100000000000202      016586 1857    014202   015297   015700   017073   016865   017872   018431   017257   017658   017179   016019   015429               120165111 1837    110167601 1738    100165011 1478    090161211 1428    080159781 1308    015024   014689   016060   016951   016563   017930   018201   017066   017638   016948   016050   014971                                      
280004400110013 01540 4813001RD 26 P.S.          0660359Echangeur Sud       0810600BOULLAY-MIVOIE      0790000015817015375280004300100000000000188      007866                                                                                                                                 120078368         110077468         100078008         090076508         080067458                                                                                                                                                        
280004400210013 01540 4813001RD 26 P.S.          0660359Echangeur Sud       0810600BOULLAY-MIVOIE      0790000015817015375280004300200000000000188      008637                                                                                                                                 120085938         110089478         100086228         090083928         080067468                                                                                                                                                        
280004400310013 01540 4813001RD 26 P.S.          0660359Echangeur Sud       0810600BOULLAY-MIVOIE      0790000015817015375280004300300000000000188      016503                                                                                                                                 120164298         110166938         100164228         090160428         080134918                                                                                                                                                        
280004500110013 01540 4812001Echangeur Sud       0810600Echangeur Est       0860298ROCADE DE DREUX   BA0830400004931003215280004600100000000000188      013998                                                                                                                                 120140928         110142398         100140838         090096518         080095188                                                                                                                                                        
280004500210013 01540 4812001Echangeur Sud       0810600Echangeur Est       0860298ROCADE DE DREUX   BA0830400004931003215280004600200000000000188      009616                                                                                                                                 120095828         110097788         100097048         090095658         080095198                                                                                                                                                        
