890003099310015 01510 4812001Auxerre             0330650Auxerre             0341289Auxerre RN151       0330800002775000000890003000300000000000309      005945                                                                                                                                 140061118         130060488         120000008         110064098         100063638                                                                                                                                                        
890003000310015 01510 4112001COURSON             0120000AUXERRE             0330650VALLAN              0310485021650000000890003000300000000000309      006004 1087    005312   005539   005663   006349   006264   006630   006641   006298   006167   006022   005525   005618               140061711 1077    130061071 1077    120000001         110064711 1157    100064241 1117    005449   005503   005699   006337   006273   006563   006819   006776   006432   006429   005955   005772                                      
890003000210015 01510 4112001COURSON             0120000AUXERRE             0330650VALLAN              0310485021650000000890003000300000000000309      002987 1107    002635   002760   002799   003189   003105   003282   003387   003071   003038   002997   002755   002817               140030601 1097    130030291 1097    120000001         110032221 1187    100031971 1137    002695   002738   002813   003167   003135   003237   003449   003317   003156   003173   002942   002877                                      
890003000110015 01510 4112001COURSON             0120000AUXERRE             0330650VALLAN              0310485021650000000890003000300000000000309      003017 1027    002677   002779   002864   003160   003159   003348   003254   003227   003129   003025   002770   002801               140031111 1047    130030781 1047    120000001         110032491 1087    100032271 1087    002754   002765   002886   003170   003138   003326   003370   003459   003276   003256   003013   002895                                      
890002900310015 01510 4812001Dpt. 58             0000000Courson             0120000Fretoy              0070000012000000000890003000300000000000309      004431                                                                                                                                 140045558         130045088         120000008         110047778         100047438                                                                                                                                                        
890002700310015 00770 4813001ST FLORENTIN        0290000AUBE                0400602Les Buissons        0340000010664000000890002300300000000000195      008077                                                                                                                                 140057988         130058908         120000008         110068128         100063378                                                                                                                                                        
890002300310015 00770 4113001RD203               0050053ST_FLORENTIN        0290000PONTIGNY            0190600023504000000890002300300000000000379      005542 1357    003304   003456   003555   004011   004176   004603   018926   008005   004480   004202   003823   003586               140039781 1977    130040411 1837    120000001         110046731 1727    100043471 1827    003372   003365   003647   004092   004044   004292   004641   004662   004393   004095   003633   003461                                      
890002300210015 00770 4113001RD203               0050053ST_FLORENTIN        0290000PONTIGNY            0190600023504000000890002300300000000000379      003367 1197    001655   001729   001756   002007   002052   002467   014700   005474   002382   002138   001919   001812               140019671 1947    130020301 1797    120000001         110023571 1687    100021511 1797    001681   001686   001793   002028   002002   002120   002372   002270   002140   001991   001765   001734                                      
890002300110015 00770 4113001RD203               0050053ST_FLORENTIN        0290000PONTIGNY            0190600023504000000890002300300000000000379      002175 1887    001649   001727   001799   002004   002124   002136   004226   002531   002098   002064   001904   001774               140020111 2027    130020111 1907    120000001         110023161 1807    100021961 1857    001691   001679   001854   002064   002042   002172   002269   002392   002253   002104   001868   001727                                      
890002299310015 00770 4853001AUXERRE             0000000RD203               0050053Auxerre RN77        0010000005067005067890002300300000000000195      005636                                                                                                                                 140040468         130041118         120000008         110047558         100044248                                                                                                                                                        
890002200310015 00650 4112001A6                  0000000AUXERRE             0041653VENOY               0030200005653000000890002300300000000000309      008162 0967    007391   007975   008026   008464   008043   008734   008292   007575   008817   008403   008070   008174               140081241 1007    130079101 1007    120000001         110083431    7    100081871    7    007364   007792   007823   008150   008024   008576   008496   008084   008574   008798   007967   007833                                      
890002200210015 00650 4112001A6                  0000000AUXERRE             0041653VENOY               0030200005653000000890002300300000000000309      004063 0967    003649   004001   003949   004251   003977   004453   004104   003761   004375   004173   004008   004071               140039881 1007    130039051 1007    120000001         110041531    7    100040681    7    003645   003869   003866   004037   003974   004258   004116   003726   004229   004317   003939   003883                                      
890002200110015 00650 4112001A6                  0000000AUXERRE             0041653VENOY               0030200005653000000890002300300000000000309      004099 0967    003742   003974   004077   004213   004066   004281   004188   003814   004442   004230   004062   004103               140041361 1007    130040051 1007    120000001         110041901 1007    100041191    7    003719   003923   003957   004113   004050   004318   004380   004358   004345   004481   004028   003950                                      
890001001310015 00060 4812001Périgny             0820282RN65                0880140Auxerre RN6         0860000005858000000890001000300000000000309      012136                                                                                                                                 140120608         130119488         120000008         110120388         100120488                                                                                                                                                        
890001000310015 00060 4112001APPOIGNY            0780000PERIGNY             0820282CHESNEZ             0810785005000000000890001000300000000000309      023915 0937    022289   023734   023344   024885   023216   025145   025454   020964   024652   024787   023869   024721               140237651 0927    130235441 0947    120000001         110237211    7    100237401    7    022828   023837   023767   024251   023623   024838   023524   020934   024777   025028   023761   024101                                      
890001000210015 00060 4112001APPOIGNY            0780000PERIGNY             0820282CHESNEZ             0810785005000000000890001000300000000000309      012138 0947    011345   011899   011851   012558   011772   012673   013198   010685   012542   012538   012136   012480               140120521 0937    130119381 0947    120000001         110119951    7    100119981    7    011594   012052   012130   012279   011912   012682   011849   010684   012577   012646   012079   012188                                      
890001000110015 00060 4112001APPOIGNY            0780000PERIGNY             0820282CHESNEZ             0810785005000000000890001000300000000000309      011777 0917    010944   011835   011493   012327   011444   012472   012256   010279   012110   012249   011733   012241               140117131 0917    130116061 0927    120000001         110117261    7    100117421    7    011234   011785   011637   011972   011711   012156   011675   010250   012200   012382   011682   011913                                      
730002700310015 02010 4110401LA BOISSE           0040600VILLARCHER RN504    0080720CHAMBERY_VRU        0050400004414000000890001000300000000000200      100778 2057    097926   103450   106291   102906   093866   103406   104852   096447   103109   100606   093872   102868               140998911 2327    130995931 0797    120000001         111000161         100996651    7    098593   104610   106647   102242   092263   100873   102471   094414   101026   100832   095337   099836                                      
730002700210015 02010 4110401LA BOISSE           0040600VILLARCHER RN504    0080720CHAMBERY_VRU        0050400004414000000890001000300000000000200      050727 2757    048615   052603   053182   051388   047273   052246   053506   047927   051718   050268   047112   053049               140500781 3037    130491171 0827    120000001         110496101         100493551    7    048731   053013   052818   050915   046152   050673   052212   046781   050669   050548   047769   050926                                      
730002700110015 02010 4110401LA BOISSE           0040600VILLARCHER RN504    0080720CHAMBERY_VRU        0050400004414000000890001000300000000000200      050051 0657    049311   050847   053109   051518   046593   051160   051346   048520   051391   050338   046760   049819               140498131 0887    130504761 0737    120000001         110504061         100503101    7    049862   051597   053829   051327   046111   050200   050259   047633   050357   050284   047568   048910                                      
730002600310015 02010 4110401A43 SUD             0000000LA BOISSE           0040600MONTS               0030380004680000000890001000300000000000200      000000                                                                                                                                 140000001         130000001         120000001         110887911    7    100869531    7                                                                                                                                                   
730002600210015 02010 4110401A43 SUD             0000000LA BOISSE           0040600MONTS_Y             0030380004680000000890001000300000000000200      000000                                                                                                                                 140000001         130000001         120000001         110443521    7    100434841    7                                                                                                                                                   
730002600110015 02010 4110401A43 SUD             0000000LA BOISSE           0040600MONTS_W             0030380004680000000890001000300000000000200      000000                                                                                                                                 140000001         130000001         120000001         110444391    7    100434691    7                                                                                                                                                   
730002200310015 00900 4113001AIME                0640690BOURG_ST_MAURICE    0750550BONCONSEIL          0720400011434000000890001000300000000000200      007115         010403   010991   011606   010401   004106   004216   005176   005564   003994   004974                                 140096331 0647    130096541 0667    120000001         110097391    7    100096471    7    010168   010776   012146   010365   007414   008529   010319   010969   008034   008159   008400   010322                                      
730002200210015 00900 4113001AIME                0640690BOURG_ST_MAURICE    0750550BONCONSEIL          0720400011434000000890001000300000000000200      004845 0597    005343   005487   005844   005228   003728   004216   005176   005564   003994   003893                                 140047591 0647    130047861 0657    120000001         110048361    7    100047941    7    005065   005327   006110   005200   003763   004190   005016   005424   004001   004045   004136   004834                                      
730002200110015 00900 4113001AIME                0640690BOURG_ST_MAURICE    0750550BONCONSEIL          0720400011434000000890001000300000000000200      002270         005060   005504   005762   005173   000378   000000   000000   000000   000000   001081                                 140048741 0657    130048681 0677    120000001         110049031    7    100048531    7    005103   005449   006036   005165   003651   004339   005303   005545   004033   004114   004264   005488                                      
730002102310015 00900 4113001MONGIROD            0580585AIME                0640690PT_DE_LA_TOUR       0610522006105000000890001000300000000000200      012356 0837    013506   015466   015357   013057   009288   010777   012834   013447   010459   010409   010491   013325               140121571 0877    130121851 0977    120000001         110122201 1147    100121481 1207    013080   014339   016394   012900   009060   010538   012102   013231   010444   010421   010297   013150                                      
730002102210015 00900 4113001MONGIROD            0580585AIME                0640690PT_DE_LA_TOUR       0610522006105000000890001000300000000000200      006180 0877    007042   007659   007835   006669   004747   005361   006287   006891   005263   005206   005208   006059               140060611 0907    130060921 1007    120000001         110061011    7    100061181    7    006437   007176   008382   006581   004627   005241   005928   006792   005255   005213   005116   006028                                      
730002102110015 00900 4113001MONGIROD            0580585AIME                0640690PT_DE_LA_TOUR       0610522006105000000890001000300000000000200      006176 0767    006464   007807   007522   006388   004541   005416   006547   006556   005196   005203   005283   007266               140060961 0797    130060931 0927    120000001         110061191 1467    100060301 1427    006643   007163   008012   006319   004433   005297   006174   006439   005189   005208   005181   007122                                      
730002101310015 00900 4113001ST_MARCEL           0550250MONTGIROD           0580585TUNNEL_SIAIX        0560770003335000000890001000300000000000200      000000                                                                                                                                 140000001         130113621 0567    120000001         110113751    7    100111971                                                                                                                                                        
730002101210015 00900 4113001ST_MARCEL           0550250MONTGIROD           0580585TUNNEL_SIAIX        0560770003335000000890001000300000000000200      000000                                                                                                                                 140000001         130056861 0547    120000001         110056611    7    100055941                                                                                                                                                        
730002101110015 00900 4113001ST_MARCEL           0550250MONTGIROD           0580585TUNNEL_SIAIX        0560770003335000000890001000300000000000200      000000                                                                                                                                 140000001         130056761 0607    120000001         110057141    7    100056031                                                                                                                                                        
730002100310015 00900 4113001MOUTIERS            0500000ST_MARCEL           0550250MOUTIERS_EST        0500865005250000000890001000300000000000200      013501 0817    014843   016882   016850   013982   010196   011765   013845   014411   011596   011605   011571   014619               140136751 0777    130136671 0777    120000001         110138201    7    100137611    7    014785   016098   017891   014438   010421   011980   013800   014654   011860   011928   011669   014650                                      
730002100210015 00900 4113001MOUTIERS            0500000ST_MARCEL           0550250MOUTIERS_EST        0500865005250000000890001000300000000000200      006714 0857    007683   008350   008605   007136   005111   005704   006725   007307   005777   005778   005727   006735               140068281 0767    130068411 0767    120000001         110069771    7    100068721    7    007709   007921   009163   007334   005294   005942   006730   007374   005935   005977   005801   006783                                      
730002100110015 00900 4113001MOUTIERS            0500000ST_MARCEL           0550250MOUTIERS_EST        0500865005250000000890001000300000000000200      006787 0737    007160   008532   008245   006846   005085   006061   007120   007104   005819   005827   005844   007884               140068471 0777    130068261 0787    120000001         110068431    7    100068891    7    007076   008177   008728   007104   005127   006038   007070   007280   005925   005951   005868   007867                                      
730002000310015 00900 4110101FEISSONS/ISERE      0400500MOUTIERS            0500000LA_LECHERE          0410800009538000000890001000300000000000200      000000                                                                                                                                 140000001         130197681 0557    120000001         110201621    7    100196631    7                                                                                                                                                   
730002000210015 00900 4110101FEISSONS/ISERE      0400500MOUTIERS            0500000LA_LECHERE          0410800009538000000890001000300000000000200      000000                                                                                                                                 140000001         130100691 0557    120000001         110100391    7    100098501    7                                                                                                                                                   
730002000110015 00900 4110101FEISSONS/ISERE      0400500MOUTIERS            0500000LA_LECHERE          0410800009538000000890001000300000000000200      000000                                                                                                                                 140000001         130096991 0567    120000001         110101231    7    100098131    7                                                                                                                                                   
730001900310015 00900 4110101PIERRE_DU_ROY       0230980FEISSONS/ISERE      0400500CEVINS              0340000016546000000890001000300000000001291      024069 0577    028220   029627   032252   026884   019615   021973   024720   025309   021829   018007   011741   028744               140249641 0577    130244771 0587    120000001         110240101    7    100231601    7    027807   030430   033791   026586   019179   021228   024164   024827   021736   021802   021523   026729                                      
730001900210015 00900 4110101PIERRE_DU_ROY       0230980FEISSONS/ISERE      0400500CEVINS              0340000016546000000890001000300000000001200      012053 0567    014629   015020   016491   013735   009948   010904   012117   012902   010959   008975   005797   013230               140125201 0557    130122371 0577    120000001         110119991    7    100116641    7    014477   014985   017431   013549   009713   010529   011826   012597   010902   010946   010649   012725                                      
730001900110015 00900 4110101PIERRE_DU_ROY       0230980FEISSONS/ISERE      0400500CEVINS              0340000016546000000890001000300000000001200      012016 0607    013591   014607   015761   013149   009667   011069   012603   012407   010870   009032   005944   015514               140124441 0607    130122401 0617    120000001         110120111    7    100114961    7    013330   015445   016360   013037   009466   010699   012338   012230   010834   010856   010874   014004                                      
730001800310015 00900 4110201BORNERY CAR. RD990  0190000PIERRE_DU_ROY RN212 0230980GILLY/ISERE         0200020004538000000890001000300000000001200      030128 0697    033764   035133   037746   033099   026705   029490   032172   031946   029224   023590   014850   033859               140320301 0707    130314701 0717    120000001         110314531    7    100309151    7    033081   036228   039309   032288   026519   029843   032600   032771   029659   029299   029876   033083                                      
730001800210015 00900 4110201BORNERY CAR. RD990  0190000PIERRE_DU_ROY RN212 0230980GILLY/ISERE         0200020004538000000890001000300000000001200      015258 0647    017542   017859   019411   017047   013657   014842   016141   016378   014813   011953   007480   016005               140161061 0647    130158791 0647    120000001         110158041    7    100156151    7    017248   017926   020324   016523   013559   015009   016255   016726   014973   014965   014173   015642                                      
730001800110015 00900 4110201BORNERY CAR. RD990  0190000PIERRE_DU_ROY RN212 0230980GILLY/ISERE         0200020004538000000890001000300000000001200      014870 0777    016222   017274   018335   016052   013048   014648   016031   015568   014411   011637   007370   017854               140159241 0847    130155911 0857    120000001         110156491    7    100153001    7    015833   018302   018985   015765   012960   014834   016345   016045   014686   014334   015703   017441                                      
710003700310015 00790 4112001CHARNAY_LES_MACON   0780800MACON               0800108VARENNES            0790800002900000000890001000300000000000309      014143 2407    011786   013396   013402   014632   013850   014280   016742   016167   014515   014434   012840   013593               140137131 2447    130135861 2427    120000001         110109421 2417    100088891 2287    011570   012358   013652   013740   013253   014254   015898   015461   014478   014288   012406   013064                                      
710003700210015 00790 4112001CHARNAY_LES_MACON   0780800MACON               0800108VARENNES            0790800002900000000890001000300000000000309      007704 2377    006430   007204   007395   007983   007520   008148   009152   008637   007757   007818   006988   007367               140074591 2417    130073701 2407    120000001         110059951 2367    100051541 2047    006297   006679   007486   007545   007202   007875   008652   008307   007844   007770   006733   007045                                      
710003700110015 00790 4112001CHARNAY_LES_MACON   0780800MACON               0800108VARENNES            0790800002900000000890001000300000000000309      006439 2467    005356   006192   006007   006649   006330   006132   007590   007530   006758   006616   005852   006226               140062541 2507    130062161 2487    120000001         110049471 2537    100037351 2617    005273   005679   006166   006195   006051   006379   007246   007154   006634   006518   005673   006019                                      
710003600310015 00790 4112001LA ROCHE VINEUSE    0700850CHARNAY_LES_MACON   0780800PRISSE              0730800007800000000890001000300000000000309      015507 2247    012851   014753   014529   016058   015504   014509   018466   018333   016084   015814   014117   014948               140152851 2267    130152251 2327    120000001         110150941 2357    100145881 2397    012916   013771   015376   015470   015240   015493   016536   018277   016081   015822   013729   014553                                      
710003600210015 00790 4112001LA ROCHE VINEUSE    0700850CHARNAY_LES_MACON   0780800PRISSE              0730800007800000000890001000300000000000309      007855 2257    006484   007382   007458   008157   007826   007984   009377   009197   007887   007975   006978   007496               140077171 2267    130076851 2337    120000001         110076071 2357    100073381 2377    006502   006874   007866   007897   007677   008107   008472   009180   007964   007841   006893   007246                                      
710003600110015 00790 4112001LA ROCHE VINEUSE    0700850CHARNAY_LES_MACON   0780800PRISSE              0730800007800000000890001000300000000000309      007652 2237    006367   007371   007071   007901   007678   006525   009089   009136   008197   007839   007139   007452               140075681 2267    130075401 2327    120000001         110074871 2377    100072501 2407    006414   006897   007510   007573   007563   007386   008064   009097   008117   007981   006836   007307                                      
710002900310015 00800 4112001SAINT_DESERT        0200700ECUISSES            0390385LES_BAUDOTS         0320720018685000000890001000300000000000309      017450 2047    000000   010848   019434   021070   020423   022510   018592   020270   016494   019726   019930   019798               140177501 1768    130188081 2018    120000001         110000001         100186191 2227    016786   017148   018120   019154   018509   020472   021077   020990   021004   020988   018973   000000                                      
710002900210015 00800 4112001SAINT_DESERT        0200700ECUISSES            0390385LES_BAUDOTS         0320720018685000000890001000300000000000309      009239 2067    000000   005416   009717   010540   010243   011525   011089   011352   010400   010464   010029   009907               140094451 2018    130100261 1998    120000001         110100601 2177    100098001 2187    009076   009350   009799   010414   010004   011063   011125   011084   010917   010840   009804   000000                                      
710002900110015 00800 4112001SAINT_DESERT        0200700ECUISSES            0390385LES_BAUDOTS         0320720018685000000890001000300000000000309      008211 2017    000000   005432   009717   010530   010180   010985   007503   008918   006094   009262   009901   009891               140083051 1178    130087821 2068    120000001         110000001         100088191 2267    007710   007798   008321   008740   008505   009409   009952   009906   010087   010148   009169   000000                                      
710002800310015 00800 4112001Saint Rémy          0110000Saint Désert        0200700GIVRY               0190000009700000000890001000300000000000309      021494 2237    018361   019718   020124   021993   021353   023364   023555   023146   022030   022140   020919   021130               140207061 2207    130204641         120000001         110000001         100209491         018546   019228   020029   021298   020542   022248   022672   022399   021093   020836   019675   019813                                      
710002800210015 00800 4112001Saint Rémy          0110000Saint Désert        0200700GIVRY               0190000009700000000890001000300000000000309      010795 2247    009231   009842   010090   011001   010716   012047   011607   011899   010967   011052   010515   010520               140102791 2227    130102241         120000001         110000001         100104741         009240   009543   010000   010580   010256   011228   010932   011364   010328   010134   009878   009829                                      
710002800110015 00800 4112001ST_REMY             0110000ST_DESERT           0200700GIVRY               0190000009700000000890001000300000000000309      010699 2217    009130   009876   010034   010992   010637   011317   011948   011247   011063   011088   010404   010610               140104271 2177    130102401         120000001         110000001         100104751         009306   009685   010029   010718   010286   011020   011740   011035   010765   010702   009797   009984                                      
710002600310015 00790 4112001STE_CECILE          0610440LA ROCHE VINEUSE    0700850LE_BOISCLAIR        0640200009500000000890001000300000000000309      000000                                                                                                                                 140000001         130000001         120000001         110000001         100000001                                                                                                                                                        
710002600210015 00790 4112001STE_CECILE          0610440LA ROCHE VINEUSE    0700850LE_BOISCLAIR        0640200009500000000890001000300000000000309      000000                                                                                                                                 140000001         130000001         120000001         110000001         100000001                                                                                                                                                        
710002600110015 00790 4112001STE_CECILE          0610440LA ROCHE VINEUSE    0700850LE_BOISCLAIR        0640200009500000000890001000300000000000309      000000                                                                                                                                 140000001         130000001         120000001         110000001         100000001                                                                                                                                                        
710002500310015 00790 4112001BRANDON             0540250STE_CECILE          0610440STE_CECILE          0590400007250000000890001000300000000000309      012339 2627    010297   011920   011589   012565   012144   011693   014846   014944   012779   012325   011173   011727               140121871 2677    130122511 2647    120000001         110125551 2607    100125941 2597    010386   011075   011880   012258   011817   012319   013915   014875   012703   012580   010759   011547                                      
710002500210015 00790 4112001BRANDON             0540250STE_CECILE          0610440STE_CECILE          0590400007250000000890001000300000000000309      005655 2747    004710   005401   005408   005784   005570   005794   006967   006847   005552   005555   004947   005290               140055641 2797    130056911 2747    120000001         110060321 2647    100060421 2667    004727   004961   005255   005811   005369   005831   006313   006938   005819   005628   004888   005177                                      
710002500110015 00790 4112001BRANDON             0540250STE_CECILE          0610440STE_CECILE          0590400007250000000890001000300000000000309      006684 2427    005587   006519   006181   006781   006574   005899   007879   008097   007227   006770   006226   006437               140066231 2477    130065601 2477    120000001         110065231 2527    100065521 2537    005659   006114   006625   006447   006448   006488   007602   007937   006884   006952   005871   006370                                      
710002300310015 00790 4812001Charolles           0260700BRANDON             0540250La Fourche          0330000027550000000710002600300000000000311      000000                                                                                                                                 140000008         130000008         120000008         110000008         100000008                                                                                                                                                        
710002200310015 00790 4812001Les Cadolles        0180250Charolles           0260700La Redoute          0190550008450000000710001900300000000000309      014786                                                                                                                                 140152898         130158148         120000008         110159668         100157278                                                                                                                                                        
710002100310015 00790 4112001PARAY OUEST         0080135LES CADOLLES        0180250VOLESVRES           0160200010115000000710001900300000000000309      010316 2907    008707   010270   009673   010560   010105   010049   012446   013023   010412   010110   008836   009555               140104701 2877    130104521 2937    120000001         110102571 2937    100100191 2957    008822   009402   010625   010249   009979   010514   012066   013126   011063   010763   009042   009852                                      
710002100210015 00790 4112001PARAY OUEST         0080135LES CADOLLES        0180250VOLESVRES           0160200010115000000710001900300000000000309      005244 2887    004351   005088   005011   005356   005114   005088   006325   006581   005214   005263   004516   004985               140052121 2867    130052071 2937    120000001         110051251 2937    100050341 2967    004397   004632   005440   005214   005044   005343   006096   006596   005233   005124   004505   004844                                      
710002100110015 00790 4112001PARAY OUEST         0080135LES CADOLLES        0180250VOLESVRES           0160200010115000000710001900300000000000309      005072 2957    004356   005182   004662   005204   004991   004961   006121   006442   005198   004847   004320   004570               140052581 2907    130052451 2937    120000001         110051321 2937    100049851 2957    004425   004770   005185   005035   004935   005171   005970   006530   005830   005639   004537   005008                                      
710001900310015 00790 4112001Dpt. 03             0000000PARAY OUEST         0080135CHIZEUIL            0040800008135000000710001900300000000000309      015451 3897    012215   014002   013626   015197   015684   015178   019137   021425   015603   015069   013796   014276               140159761 2368    130165241 1218    120000001         110166821 3507    100164321 3517    013239   014066   015797   016352   016231   017368   020583   020985   015589   014540   012878   013841                                      
710001900210015 00790 4112001Dpt. 03             0000000PARAY OUEST         0080135CHIZEUIL            0040800008135000000710001900300000000000309      007127 4057    005667   006453   006454   007105   007265   007152   008997   009430   007074   006879   006374   006579               140078631 1868    130083161 0188    120000001         110083451 3477    100082621 3457    006642   007041   008052   008344   008211   008776   010725   010291   007090   006744   005969   006351                                      
710001900110015 00790 4112001Dpt. 03             0000000PARAY OUEST         0080135CHIZEUIL            0040800008135000000710001900300000000000309      008324 3627    006548   007549   007172   008092   008419   008026   010140   011995   008529   008190   007422   007697               140081131 3338    130082081 3308    120000001         110083371 3537    100081701 3577    006597   007025   007745   008008   008020   008592   009858   010694   008499   007796   006909   007490                                      
710001000310015 00700 4812001SAINT VALLIER       0290250RN80 Rond Point J Ba0471018Pont des Morands    0470000019277000000710000800300000000000311      018720                                                                                                                                 140188348         130000008         120000008         110184738         100183938                                                                                                                                                        
710000800310015 00700 4112001GENELARD            0190750ST_VALLIER          0290250ROZELAY             0270800009500000000710000800300000000000309      018343 2387    016056   016632   016986   018755   018598   020104   020773   020545   018448   018509   016998   017567               140184541 2317    130000001         120000001         110181001 2267    100180211                           016999   018407   018051   019876   020248   020635   019729   018267   016849   017356                                      
710000800210015 00700 4112001GENELARD            0190750ST_VALLIER          0290250ROZELAY             0270800009500000000710000800300000000000309      009278 2427    007837   008476   008603   009546   009406   009854   010884   010138   009472   009458   008655   008939               140091981 2188    130034121 0008    120000001         110091291 2287    100090851         008182   008274   008615   009286   009128   009703   010586   010157   009856   009172   008505   008836                                      
710000800110015 00700 4112001GENELARD            0190750ST_VALLIER          0290250ROZELAY             0270800009500000000710000800300000000000309      009065 2297    008219   008156   008383   009209   009192   010250   009889   010407   008976   009051   008343   008628               140092561 2237    130000001         120000001         110089711 2257    100089361 2217                      008384   009121   008923   010173   009662   010478   009873   009095   008344   008520                                      
710000700310015 00700 4812001Paray le Monial     0050000Genelard            0190750St-Vincent-de-Bragny0110750014450000000710002100300000000000309      011881                                                                                                                                 140120598         130120398         120000008         110118158         100115418                                                                                                                                                        
690502000310015 00470 1110231A7                  0000000Ech.ENTREE 11       0130990GIVORS_COMMERC      0040450014500000000710002100300000000000205      055806 1317    051223   053376   055449   058111   055772   058909   059348   055915   058004   053381   054452   055701               140555861 1297    130562311 1347    120000001         110604151         100602831         051818   054221   057090   056908   053365   058808   059586   056177   057415   053202   053457   054989                                      
690502000210015 00470 1110231A7                  0000000Ech.ENTREE 11       0130990GIVORS_COMMERC      0040450014500000000710002100300000000000205      027277 1337    025018   026133   026792   028080   027251   028751   029570   027626   028333   025878   026498   027366               140270991 1337    130273511 1347    120000001         110295651 1357    100295671 1327    025302   026368   027819   027807   026593   028190   029223   027582   027721   025623   025898   027035                                      
690502000110015 00470 1110231A7                  0000000Ech.ENTREE 11       0130990GIVORS_COMMERC      0040450014500000000710002100300000000000205      028529 1287    026205   027243   028657   030031   028521   030158   029778   028289   029671   027503   027954   028335               140284871 1227    130288801 1337    120000001         110308501         100307161         026516   027853   029271   029101   026772   030618   030363   028595   029694   027579   027559   027954                                      
690501702310015 04500 1110441PIERRE_BENITE       0000000BRIGNAIS            0070969IRIGNY              0020800007969000000710002100300000000000206      055375 0707    053990   055567   057706   057236   052885   059973   053423   042482   058231   059148   057343   056893               140542801 0707    130539601 0727    120000001         110531181    7    100522631    7    054286   056408   054926   057326   052595   056529   054110   040364   056866   058373   054769   055287                                      
690501702210015 04500 1110441PIERRE_BENITE       0000000BRIGNAIS            0070969IRIGNY              0020800007969000000710002100300000000000206      026861 0737    026052   027012   028039   028097   025830   029096   025461   020567   028097   028746   027828   027703               140263291 0737    130261341 0757    120000001         110257401    7    100253301    7    026195   027357   026766   027862   025540   027562   026324   019516   027484   028319   026420   026835                                      
690501702110015 04500 1110441PIERRE_BENITE       0000000BRIGNAIS            0070969IRIGNY              0020800007969000000710002100300000000000206      028514 0637    027938   028555   029667   029139   027055   030877   027962   021915   030134   030402   029515   029190               140279511 0637    130278261 0657    120000001         110273781    7    100269331    7    028091   029051   028160   029464   027055   028967   027786   020848   029382   030054   028349   028452                                      
690501501310015 00430 1150441MERMOZ              0000000SORTIE BD DU 8 MAI  0030401ECH_8_MAI           0020500003400003400710002100300000000000206      134610 0427    132035   136754   141107   137256   127201   141852   135099   114657   136635   140930   135918   136506               141340661 0417    131319361 0417    120000001         111277841    7    101273081    7    132917   137275   137463   135611   131860   137399   132954   112163   139807   142088   134163   135743                                      
690501501210015 00430 1150441MERMOZ              0000000SORTIE BD DU 8 MAI  0030401ECH_8_MAI           0020500003400003400710002100300000000000206      065685 0407    064785   066687   069461   067396   062349   069624   066369   056672   064882   068511   065967   065776               140634471 0377    130597651 0347    120000001         110624891    7    100628921    7    058415   061021   059937   060466   065172   067426   064925   055149   068421   069273   065636   065548                                      
690501501110015 00430 1150441MERMOZ              0000000SORTIE BD DU 8 MAI  0030401ECH_8_MAI           0020500003400003400710002100300000000000206      068925 0457    067250   070067   071646   069860   064852   072228   068730   057985   071753   072419   069951   070730               140706191 0477    130721711 0537    120000001         110652951    7    100644161    7    074502   076254   077526   075145   066688   069973   068029   057014   071386   072815   068527   070195                                      
690501203310015 00420 1110241PONT CROIX_LUIZET   0000000Ech. MIRIBEL        0040329GRAPPINIERE         0020000004329000000710002100300000000000206      097983         096145   095341   098045   096361   096075   108315   097743   088645   102595   102017   097442   097233               140000001         130000001         120000001         110938511    7    100911131    7                                                                                                                                                   
690501203210015 00420 1110241PONT CROIX_LUIZET   0000000Ech. MIRIBEL        0040329GRAPPINIERE         0020000004329000000710002100300000000000206      048155         047193   045944   047338   047700   047331   053254   048720   042971   050643   050228   048209   048350               140000001         130000001         120000001         110464321    7    100458361    7                                                                                                                                                   
690501203110015 00420 1110241PONT CROIX_LUIZET   0000000Ech. MIRIBEL        0040329GRAPPINIERE         0020000004329000000710002100300000000000206      049828 0637    048952   049397   050707   048661   048744   055061   049023   045674   051952   051789   049233   048883               140465531         130462661         120000001         110474191    7    100452771    7    045110   045796   047266   047943   047838   048979   043199   042923   048333   048248                                                        
690501101310015 00070 1110441Ech. RD36 SOLAIZE   0130350Ech. A47 GIVORS     0200330COMMUNAY            0160830006980000000710002100300000000000206      096018 0907    081876   085493   089920   100407   098475   102579   107894   106871   098793   096489   090055   092605               140957451 0887    130941791 0897    120000001         110967001    7    100956701 1087    082874   085665   088779   097834   096800   105223   108995   107526   099824   096135   087790   090761                                      
690501101210015 00070 1110441Ech. RD36 SOLAIZE   0130350Ech. A47 GIVORS     0200330COMMUNAY            0160830006980000000710002100300000000000206      048336 0897    041460   042629   045102   049562   049597   051166   052763   056283   050586   048768   045558   046123               140481851 0877    130471611 0877    120000001         110483911    7    100481381 1107    042049   042779   044521   047988   048162   052753   053216   056674   051220   048781   044614   045059                                      
690501101110015 00070 1110441Ech. RD36 SOLAIZE   0130350Ech. A47 GIVORS     0200330COMMUNAY            0160830006980000000710002100300000000000206      047682 0907    040416   042864   044818   050845   048878   051413   055131   050588   048207   047721   044497   046482               140475601 0927    130470181 0937    120000001         110483091    7    100475321 1077    040825   042886   044258   049846   048638   052470   055779   050852   048604   047354   043176   045702                                      
690500900310015 00070 1150441Ech. P.B.S. A74     0060440Ech. RD36 SOLAIZE   0130350ST_FONS             0070918006910006910710002100300000000000206      143061 0837    128899   133911   140331   149035   142932   153126   154170   143209   147919   145577   138898   138388               141419641 0837    131402901 0857    120000001         111434571    7    101401761    7    130178   134793   136122   146433   141682   151351   153351   142418   148252   146565   134377   137765                                      
690500900210015 00070 1150441Ech. P.B.S. A74     0060440Ech. RD36 SOLAIZE   0130350ST_FONS             0070918006910006910710002100300000000000206      072984 0837    066094   068141   071524   075037   072743   077412   076478   074969   076467   074403   071083   071253               140722721 0837    130714461 0847    120000001         110729241    7    100711301    7    066811   068697   069553   073764   071577   076943   075882   074172   076491   074749   068845   069665                                      
690500900110015 00070 1150441Ech. P.B.S. A74     0060440Ech. RD36 SOLAIZE   0130350ST_FONS             0070918006910006910710002100300000000000206      070077 0837    062805   065770   068807   073998   070189   075714   077692   068240   071452   071174   067815   067135               140696921 0847    130688441 0867    120000001         110705331    7    100690461    7    063367   066096   066569   072669   070105   074408   077469   068246   071761   071816   065532   068100                                      
690500702310015 00070 1150441SORTIE QUAI SEMARD  0040200Ech. P.B.S. A74     0060440PIERRE_BENITE       0040750002240002240710002100300000000001294      103846 0617    098584   096624   104322   107699   102728   107948   107007   097345   102995   107253   105224   108006               141048681 0637    131050901 0657    120000001         111060381    7    100000001         100142   103902   103002   109092   106409   112239   111603   100743   106364   101713   097811   105503                                      
690500702210015 00070 1150441SORTIE QUAI SEMARD  0040200Ech. P.B.S. A74     0060440PIERRE_BENITE       0040750002240002240710002100300000000001294      049913 0607    046819   048114   050539   052034   049296   051590   050398   049089   049653   050439   050101   050831               140497561 0627    130489511 0667    120000001         110498861    7    100000001         047378   048850   048596   050521   049891   052119   050620   049216   051271   050660   048644   049336                                      
690500702110015 00070 1150441SORTIE QUAI SEMARD  0040200Ech. P.B.S. A74     0060440PIERRE_BENITE       0040750002240002240710002100300000000001294      053933 0627    051765   048510   053783   055665   053432   056358   056609   048256   053342   056814   055123   057175               140551121 0647    130561391 0657    120000001         110561521    7    100000001         052764   055052   054406   058571   056518   060120   060983   051527   055093   051053   049167   056167                                      
690500600310015 00070 1150441PONT LA MULATIERE NO0010527SORTIE QUAI SEMARD  0040200MULATIERE           0020500002673002673710002100300000000000206      098574 0647    104158   106525   105278   101017   094067   099243   100395   092335   094395   095508   095493   095108               141130991 0597    130980701 0707    120000001         110942481    7    100000001         106495   109470   110883   112320   114066   119837   122740   111789   117204   112926   108543   110741                                      
690500600210015 00070 1150441PONT LA MULATIERE NO0010527SORTIE QUAI SEMARD  0040200MULATIERE           0020500002673002673710002100300000000000206      042676 0687    040372   041498   043446   045419   042355   043540   042666   042424   042488   042891   043315   041710               140428961 0677    130425701 0747    120000001         110415171    7    100409281         041100   042271   042798   039595   043822   044760   044317   043057   044398   043758   042162   042637                                      
690500600110015 00070 1150441PONT LA MULATIERE NO0010527SORTIE QUAI SEMARD  0040200MULATIERE           0020500002673002673710002100300000000000206      055898 0587    063786   065027   061832   055598   051712   055703   057729   049911   051907   052617   052178   053398               140702031 0497    130555001 0647    120000001         110527311    7    100000001         065395   067199   068085   072725   070244   075077   078423   068732   072806   069168   066381   068104                                      
690500501310015 00070 1150441RUE M.A. PETIT      0000000PONT LA MULATIERE NO0010527QUAI_PERRACHE       0010220001527001527710002100300000000001294      107311 0837    103356   106109   111682   115039   105992   105721   109076   100016   104824   106947   109681   109370               141082681 0877    131057241 0857    120000001         111096751    7    101087611    7    104793   107356   106782   110259   110168   111918   112570   102077   111591   107776   106378   107689                                      
690500501210015 00070 1150441RUE M.A. PETIT      0000000PONT LA MULATIERE NO0010527QUAI_PERRACHE       0010220001527001527710002100300000000001294      048357 0867    049451   050114   052763   052418   047923   042994   044929   044028   045953   048511   051476   049879               140486591 0917    130477561 0887    120000001         110508901    7    100506201    7    048755   049082   048568   048183   050069   048254   046489   045578   048977   049182   050501   050354                                      
690500501110015 00070 1150441RUE M.A. PETIT      0000000PONT LA MULATIERE NO0010527QUAI_PERRACHE       0010220001527001527710002100300000000001294      058954 0787    053905   055995   058919   062621   058069   062727   064147   055988   058871   058436   058205   059491               140596091 0807    130579681 0797    120000001         110587851    7    100581411    7    056038   058274   058214   062076   060099   063664   066081   056499   062614   058594   055877   057335                                      
690500400310015 00060 1150241TUNNEL FOURVIERE    4540000TREMIE PERRACHE SUD 4550616FOURVIERE_SUD       4540800001616001616710002100300000000000206      085566 0777    082998   085134   091678   096696   085061   060158   091339   087314   082277   082930   090905   089862               140939181 0757    130962361 0757    120000001         111039821    7    101014971    7    091423   093341   095379   097128   095573   098015   100290   094008   097138   088217   087100   089470                                      
690500400210015 00060 1150241TUNNEL FOURVIERE    4540000TREMIE PERRACHE SUD 4550616FOURVIERE_SUD       4540800001616001616710002100300000000000206      039346 0837    038174   038825   042521   043890   038344   035135   039313   039839   036539   037233   041787   040498               140425541 0817    130437271 0787    120000001         110500341    7    100491461    7    042086   042770   043761   043590   043498   043374   043484   043694   043167   040254   040154   040842                                      
690500400110015 00060 1150241TUNNEL FOURVIERE    4540000TREMIE PERRACHE SUD 4550616FOURVIERE_SUD       4540800001616001616710002100300000000000206      046220 0667    044824   046309   049157   052806   046717   025023   052026   047475   045738   045697   049118   049364               140513641 0657    130525091 0707    120000001         110539481    7    100523511    7    049337   050571   051618   053538   052075   054641   056806   050314   053971   047963   046946   048628                                      
690500200310015 00060 1150741Ech. ECULLY SUD     4490200TUNNEL FOURVIERE    4540000ECULLY              4500720004800004800710002100300000000000200      115292 0537    101878   112255   112164   122678   109198   119263   109676   116163   123701   119489   116210   121194               141189021 0587    131185441 0587    120000001         111180291    7    101147521    7    114210   117621   117820   123672   119079   125021   126730   120711   125914   121815   110471   103934                                      
690500200210015 00060 1150741Ech. ECULLY SUD     4490200TUNNEL FOURVIERE    4540000ECULLY              4500720004800004800710002100300000000000200      057270 0497    046784   054769   055308   063148   052341   059278   049501   057687   065450   061599   060023   061715               140604231 0547    130614691 0547    120000001         110612061    7    100585331    7    058633   060190   060226   063403   060991   065203   065339   062434   065054   063322   055134   045350                                      
690500200110015 00060 1150741Ech. ECULLY SUD     4490200TUNNEL FOURVIERE    4540000ECULLY              4500720004800004800710002100300000000000200      058022 0627    055094   057486   056856   059530   056857   059985   060175   058476   058251   057890   056187   059479               140584791 0657    130570751 0677    120000001         110568231    7    100562191    7    055577   057431   057594   060269   058088   059818   061391   058277   060860   058493   055337   058584                                      
690500105310015 00060 1150441DARDILLY LE TRONCHON4470520Ech. ECULLY SUD     4490200CHAMPAGNE           4480590001680001680710002100300000000000200      105313 0637    095641   098699   096759   102059   105267   112245   113984   111217   108958   107436   103572   107459               140000001         131055401 0647    120000001         111059051    7    101081811    7                                                                                                                                                   
690500105210015 00060 1150441DARDILLY LE TRONCHON4470520Ech. ECULLY SUD     4490200CHAMPAGNE           4480590001680001680710002100300000000000200      052828 0617    047658   048398   045597   047652   053096   057308   058192   057135   056034   054982   053057   054488               140000001         130540941 0607    120000001         110547961    7    100564051    7                                                                                                                                                   
690500105110015 00060 1150441DARDILLY LE TRONCHON4470520Ech. ECULLY SUD     4490200CHAMPAGNE           4480590001680001680710002100300000000000200      052485 0657    047983   050301   051162   054407   052171   054937   055792   054082   052924   052454   050515   052971               140000001         130514461 0737    120000001         110511091    7    100517761    7                                                                                                                                                   
690500103310015 00060 1110741Ech. LIMONEST       4450323DARDILLY LE TRONCHON4470520DARDILLY            4460690002520000000710002100300000000000188      087227 0657    077269   075095   079482   091563   089149   092437   095734   097124   088942   087123   084083   087806               140851691 0697    130861841 0717    120000001         110868841    7    100872971    7    079104   080779   082594   085726   087688   086901   091504   094817   087684   084303   080510   079997                                      
690500103210015 00060 1110741Ech. LIMONEST       4450323DARDILLY LE TRONCHON4470520DARDILLY            4460690002520000000710002100300000000000188      042471 0637    037862   038842   041021   043886   043028   044147   045250   047807   043262   041822   040712   041728               140431241 0647    130422231 0667    120000001         110432141    7    100432521    7    038900   040159   041311   043784   043003   045579   046438   048940   045049   042791   040192   041128                                      
690500103110015 00060 1110741Ech. LIMONEST       4450323DARDILLY LE TRONCHON4470520DARDILLY            4460690002520000000710002100300000000000188      044756 0717    039407   036253   038461   047677   046121   048290   050484   049317   045680   045301   043371   046078               140420451 0817    130439611 0797    120000001         110436701    7    100440451    7    040204   040620   041283   041942   044685   041322   045066   045877   042635   041512   040318   038869                                      
690020800310015 04890 4110201Ech. RN7            0000000Ech. RN6            0020624DARDILLY_DEV        0010500002624000000710002100300000000000206      000000                                                                                                                                 140000001         130281071 0737    120000001         110233561    7    100229871                                                                                                                                                        
690020800210015 04890 4110201Ech. RN7            0000000Ech. RN6            0020624DARDILLY_DEV        0010500002624000000710002100300000000000206      000000                                                                                                                                 140000001         130138101 0727    120000001         110122251    7    100119801                                                                                                                                                        
690020800110015 04890 4110201Ech. RN7            0000000Ech. RN6            0020624DARDILLY_DEV        0010500002624000000710002100300000000000206      000000                                                                                                                                 140000001         130142971 0737    120000001         110111311    7    100110071                                                                                                                                                        
690006800310015 03460 4110201Ech. GD LARGE N RD510320000Ech. MI_PLAINE N RN60400883ST_PRIEST           0390485008883000000710002100300000000001094      081093 1847    075121   079601   082436   082075   076173   086788   085650   075167   085525   085231   079722   079802               140782601 1877    130788221 1837    120000001         110794731 1877    100816201 1837    075553   080425   079060   082564   071977   081784   083358   071572   082164   079890   074988   076261                                      
690006800210015 03460 4110201Ech. GD LARGE N RD510320000Ech. MI_PLAINE N RN60400883ST_PRIEST           0390485008883000000710002100300000000001094      039331 1877    036844   038571   040185   039536   036028   041586   040159   037771   042213   041578   039025   038565               140381451 1907    130386051 1847    120000001         110390991 1917    100397951 1907    036973   038927   038876   039984   035981   039585   039759   035818   040240   038697   036303   036783                                      
690006800110015 03460 4110201Ech. GD LARGE N RD510320000Ech. MI_PLAINE N RN60400883ST_PRIEST           0390485008883000000710002100300000000001094      041762 1777    038277   041030   042251   042539   040145   045202   045491   037396   043312   043653   040697   041237               140401151 1807    130402171 1817    120000001         110403741 1777    100418251 1787    038580   041498   040184   042580   035996   042199   043599   035754   041924   041193   038685   039478                                      
690006200310015 03460 4110201Ech. RIZE SUD RD55  0250000Ech. GD LARGE N RD510320000LAMARTINE           0310495007000000000710002100300000000001094      066680 2127    068947   067043   058906   059242   056841   063394   066587   059456   078009   076647   072527   072805               140724381 1937    130729001 1927    120000001         110749601 1867    100771491 1867    068267   074078   073596   076153   068999   075128   075936   069866   074894   073685   068963   070024                                      
690006200210015 03460 4110201Ech. RIZE SUD RD55  0250000Ech. GD LARGE N RD510320000LAMARTINE           0310495007000000000710002100300000000001094      029969 2247    036042   031377   022188   021558   020621   023134   026154   025916   040290   038909   037025   036618               140377411 1917    130365901 1937    120000001         110378751 1887    100387831 1877    034749   037355   038485   038808   038226   039008   038620   037905   039247   038903   035746   035856                                      
690006200110015 03460 4110201Ech. RIZE SUD RD55  0250000Ech. GD LARGE N RD510320000LAMARTINE           0310495007000000000710002100300000000001094      036711 1927    032905   035666   036718   037684   036220   040260   040433   033540   037719   037738   035502   036187               140346971 1977    130363101 1887    120000001         110370851 1827    100383661 1857    033518   036723   035111   037345   030773   036120   037316   031961   035647   034782   033217   034168                                      
690002500310015 00070 4813001Ech. A46 Sud        0730000Dpt. 38             0760349Communay Les Pins Te0750000002348000000000000000000000000000206      000000                                                                                                                                 140000008         130000008         120000008         110000008         100000008                                                                                                                                                        
690002500210015 00070 4813001Ech. A46 Sud        0730000Dpt. 38             0760349Communay Les Pins Te0750000002348000000000000000000000000000206      000000                                                                                                                                 140000008         130000008         120000008         110000008         100000008                                                                                                                                                        
690002500110015 00070 4813001Ech. A46 Sud        0730000Dpt. 38             0760349Communay Les Pins Te0750000002348000000000000000000000000000206      000000                                                                                                                                 140000008         130000008         120000008         110000008         100000008                                                                                                                                                        
690001801310015 00070 4113001Carf. RD73 Arb.     0280189Entrée TASSIN       0400890FLEURIEUX           0310600012291000000000000000000000000000206      015180 0697    014547   014759   015643   015228   014886   016559   014759   012539   015992   016081   015754   015465               140000001         130146811 0787    120000001         110000001         100000001                                                                                                                                                        
690001801210015 00070 4113001Carf. RD73 Arb.     0280189Entrée TASSIN       0400890FLEURIEUX           0310600012291000000000000000000000000000206      007608 0637    007344   007438   007853   007631   007422   008325   007298   006234   007992   008093   007929   007767               140000001         130073401 0727    120000001         110000001         100000001                                                                                                                                                        
690001801110015 00070 4113001Carf. RD73 Arb.     0280189Entrée TASSIN       0400890FLEURIEUX           0310600012291000000000000000000000000000206      007572 0807    007203   007321   007790   007597   007464   008234   007461   006305   008000   007988   007825   007698               140000001         130073411 0907    120000001         110000001         100000001                                                                                                                                                        
690001700310015 00070 4813001Carf. RD38          0180360Carf. RD73Arb       0280189Bully Temporaire    0240100009829000000690001600300000000000206      012493                                                                                                                                 140121408         130120238         120000008         110148298         100146608                                                                                                                                                        
690001700210015 00070 4813001Carf. RD38          0180360Carf. RD73Arb       0280189Bully Temporaire    0240100009829000000690001600300000000000206      000000                                                                                                                                 140000008         130000008         120000008         110000008         100000008                                                                                                                                                        
690001700110015 00070 4813001Carf. RD38          0180360Carf. RD73Arb       0280189Bully Temporaire    0240100009829000000690001600300000000000206      000000                                                                                                                                 140000008         130000008         120000008         110000008         100000008                                                                                                                                                        
690001600310015 00070 4113001Dev. PONTCHARRA EST 0180000Carf. RD38          0180360PONTCHARRA          0180150000360000000690001600300000000000206      015000 0707    013929   014438   015518   015946   014901   016207   015121   012657   015708   015508   015254   014864               140145751 0797    130144341 0867    120000001         110178021    7    100175991         014115   014337   014430   015207   014460   015467   014761   012334   015287   015556   014747   014254                                      
690001600210015 00070 4113001Dev. PONTCHARRA EST 0180000Carf. RD38          0180360PONTCHARRA          0180150000360000000690001600300000000000206      007345 0717    006807   007074   007585   007834   007295   007937   007404   006200   007683   007603   007458   007285               140071431 0797    130070441 0867    120000001         110087321    7    100086471         006934   007016   007069   007456   007094   007558   007240   006080   007493   007632   007196   006978                                      
690001600110015 00070 4113001Dev. PONTCHARRA EST 0180000Carf. RD38          0180360PONTCHARRA          0180150000360000000690001600300000000000206      007655 0707    007122   007364   007933   008112   007606   008270   007717   006457   008025   007905   007796   007579               140074321 0787    130073901 0867    120000001         110090701    7    100089521         007181   007321   007361   007751   007366   007909   007521   006254   007794   007924   007551   007276                                      
690001500310015 00070 4813001Dev. Pontcharra W   0150000Dev. Pontcharra E   0180000Pontcharra dév. Temp0170000003000000000690001600300000000000206      012497                                                                                                                                 140121438         130120268         120000008         110148338         100146648                                                                                                                                                        
690001500210015 00070 4813001Dev. Pontcharra W   0150000Dev. Pontcharra E   0180000Pontcharra dév. Temp0170000003000000000690001600300000000000206      000000                                                                                                                                 140000008         130000008         120000008         110000008         100000008                                                                                                                                                        
690001500110015 00070 4813001Dev. Pontcharra W   0150000Dev. Pontcharra E   0180000Pontcharra dév. Temp0170000003000000000690001600300000000000206      000000                                                                                                                                 140000008         130000008         120000008         110000008         100000008                                                                                                                                                        
690001400310015 00070 4843001Entrée Tarare Ouest 0100250Dev. Pontcharra W   0150000Tarare Temporaire   0120000004750004750690001600300000000000206      006929                                                                                                                                 140067338         130066688         120000008         110082258         100081328                                                                                                                                                        
690001400210015 00070 4843001Entrée Tarare Ouest 0100250Dev. Pontcharra W   0150000Tarare Temporaire   0120000004750004750690001600300000000000206      000000                                                                                                                                 140000008         130000008         120000008         110000008         100000008                                                                                                                                                        
690001400110015 00070 4843001Entrée Tarare Ouest 0100250Dev. Pontcharra W   0150000Tarare Temporaire   0120000004750004750690001600300000000000206      000000                                                                                                                                 140000008         130000008         120000008         110000008         100000008                                                                                                                                                        
690001300310015 00070 4115001COL DU PIN BOUCHAIN 0000000Entrée TARARE OUEST 0100250TARARE_OUEST        0090150010250000000690001600300000000000200      005598 0657    005064   005232   005618   005655   004659   006003   006263   005621   006014   005904   005608   005528               140059241 0857    130060921         120000001         110000001         100070771         005417   005638   005827   006139   005974   006488   006202   005653   006248   006226   005784   005491                                      
690001300210015 00070 4115001COL DU PIN BOUCHAIN 0000000Entrée TARARE OUEST 0100250TARARE_OUEST        0090150010250000000690001600300000000000200      002818 0617    002582   002693   002844   002882   002374   002994   003147   002801   002996   002954   002782   002766               140029601 0807    130030431         120000001         110000001         100035491         002692   002806   002887   003074   002984   003214   003109   002854   003127   003135   002878   002757                                      
690001300110015 00070 4115001COL DU PIN BOUCHAIN 0000000Entrée TARARE OUEST 0100250TARARE_OUEST        0090150010250000000690001600300000000000200      002780 0747    002482   002539   002774   002773   002285   003009   003116   002820   003018   002950   002826   002762               140029641 0947    130030491         120000001         110000001         100035281         002725   002832   002940   003065   002990   003274   003093   002799   003121   003091   002906   002734                                      
690000601310015 00060 4140201Ech. RD73D          0400000Ech. A6 DARDILLY    0420150DARDILLY_LES_BROSSES0410000002030002030690001600300000000000206      000000                                                                                                                                 140000001         130000001         120000001         110000001         100000001                                                                                                                                                        
690000601210015 00060 4140201Ech. RD73D          0400000Ech. A6 DARDILLY    0420150DARDILLY_LES_BROSSES0410000002030002030690001600300000000000206      000000                                                                                                                                 140000001         130000001         120000001         110000001         100000001                                                                                                                                                        
690000601110015 00060 4140201Ech. RD73D          0400000Ech. A6 DARDILLY    0420150DARDILLY_LES_BROSSES0410000002030002030690001600300000000000206      000000                                                                                                                                 140000001         130000001         120000001         110253051    7    100251451                                                                                                                                                        
580002701310015 01510 4112001Sud Dev.            0510878Dpt. 89             0580730CLAMECY             0530532006852000000690001600300000000000311      003019 2507    002462   002665   002762   003154   003273   003416   003694   003796   003288   003062   002107   002510               140031581 2477    130031041 2487    120000001         110000001         100032481         002492   002581   002711   003173   003195   003532   003776   004243   003441   003208   002767   002734                                      
580002701210015 01510 4112001Sud Dev.            0510878Dpt. 89             0580730CLAMECY             0530532006852000000690001600300000000000311      001507 2557    001236   001346   001385   001607   001648   001705   001904   001840   001633   001521   000973   001261               140015791 2517    130015501 2537    120000001         110000001         100016211         001258   001308   001352   001612   001620   001746   001951   002044   001688   001591   001377   001382                                      
580002701110015 01510 4112001Sud Dev.            0510878Dpt. 89             0580730CLAMECY             0530532006852000000690001600300000000000311      001512 2407    001226   001319   001377   001547   001625   001711   001790   001956   001655   001541   001134   001249               140015791 2387    130015541 2397    120000001         110000001         100016271         001234   001273   001359   001561   001575   001786   001825   002199   001753   001617   001390   001352                                      
580002600310015 01510 4813001VARZY               0350958CLAMECY-NORD        0510878St-Pierre-du-Mont   0400000019090000000580002500300000000000311      002159                                                                                                                                 140022138         130021298         120000008         110022728         100022528                                                                                                                                                        
580002500310015 01510 4112001CHATEAUNEUF V.BARGIS0200512VARZY               0350958LES_PONTOTS         0260000015446000000580002500300000000000309      002141 1967    001671   001842   001938   002196   002242   002368   002568   002698   002257   002115   001913   001855               140021941 1488    130021101 1448    120000001         110022511 2157    100022311 1478    001682   001776   001907   002178   002148   002435   002961   002790   002372   002229   001958   001861                                      
580002500210015 01510 4112001CHATEAUNEUF V.BARGIS0200512VARZY               0350958LES_PONTOTS         0260000015446000000580002500300000000000309      001076 1927    000830   000917   000963   001119   001138   001197   001352   001342   001123   001050   000940   000925               140011041 1448    130010581 1418    120000001         110011271 2107    100011121 1448    000843   000890   000949   001107   001087   001216   001571   001387   001174   001104   000974   000931                                      
580002500110015 01510 4112001CHATEAUNEUF V.BARGIS0200512VARZY               0350958LES_PONTOTS         0260000015446000000580002500300000000000309      001065 2047    000841   000925   000975   001077   001104   001171   001216   001356   001134   001065   000973   000930               140010901 1578    130010521 1498    120000001         110011241 2217    100011191 1538    000839   000886   000958   001071   001061   001219   001390   001403   001198   001125   000984   000930                                      
580002300310015 01510 4812001Dpt. 18             0000000CHATEAUNEUF V.BARGIS0200512La Charité          0010500020331000000580002500300000000000311      002071                                                                                                                                 140021238         130020428         120000008         110021798         100021608                                                                                                                                                        
580001200310015 00070 4112001ST_PIERRE           0920100Dpt. 03             1070760LE_MOUTIER          0950700015660000000580002500300000000000307      014041 3337    010917   012661   012422   014371   014686   014463   017447   018861   014233   013985   011806   012467               140138661 3317    130137121 3357    120000001         110140001 3367    100136491 3357    010834   011894   012909   014288   013899   014607   016630   018537   014222   013894   012020   012469                                      
580001200210015 00070 4112001ST_PIERRE           0920100Dpt. 03             1070760LE_MOUTIER          0950700015660000000580002500300000000000307      006946 3387    005477   006168   006291   006935   007340   007087   008109   009630   007235   006981   005953   006056               140068681 3357    130067821 3397    120000001         110069921 3407    100068021 3417    005444   005789   006533   006986   006851   007244   007827   009371   007249   006911   006072   006043                                      
580001200110015 00070 4112001ST_PIERRE           0920100Dpt. 03             1070760LE_MOUTIER          0950700015660000000580002500300000000000307      007095 3247    005440   006493   006131   007436   007346   007376   009338   009231   006998   007004   005853   006411               140069981 3227    130069301 3287    120000001         110070081 3307    100068471 3297    005390   006105   006376   007302   007048   007363   008803   009166   006973   006983   005948   006426                                      
580001101310015 00770 1110241NEVERS              1480000ST_PIERRE           1641118PLAGNY              1640200017200000000580002500300000000000507      007119 2067    005285   006260   006174   007458   007454   007450   009268   009028   006993   007612   005944   006408               140133451 2067    130131911 2027    120000001         110000001         100000001         010436   011320   012325   013981   013662   014593   015351   016750   013880   014012   011701   011966                                      
580001101210015 00770 1110241NEVERS              1480000ST_PIERRE           1641118PLAGNY              1640200017200000000580002500300000000000507      000262 2637    000160   000228   000244   000301   000337   000324   000371   000541   000349   000288   000000   000000               140066241 2097    130064891 2047    120000001         110000001         100000001         005261   005516   006223   006785   006734   007300   007170   008480   007122   006949   006037   005830                                      
580001101110015 00770 1110241NEVERS              1480000ST_PIERRE           1641118PLAGNY              1640200017200000000580002500300000000000507      006857 2027    005125   006032   005930   007157   007117   007126   008897   008487   006644   007324   005944   006408               140067211 2017    130067021 1987    120000001         110069641 1947    100072251 1717    005175   005804   006102   007196   006928   007293   008181   008270   006758   007063   005664   006136                                      
580001007310015 00070 4812001Chaume des pendus   0770000St Pierre le Mtier  0920100Magny-Cours         0820000015100000000580001200300000000000309      012712                                                                                                                                 140125548         130124158         120000008         110126768         100123598                                                                                                                                                        
580000600310015 00770 1110241SUD LA MARCHE       1390600NEVERS              1480000PRIEZ               1440415008400000000580001200300000000000309      000000                                                                                                                                 140000001         130000001         120000001         110000001         100172181 1517                                                                                                                                                   
580000600210015 00770 1110241SUD LA MARCHE       1390600NEVERS              1480000PRIEZ               1440415008400000000580001200300000000000309      000000                                                                                                                                 140000001         130000001         120000001         110000001         100085181 1517                                                                                                                                                   
580000600110015 00770 1110241SUD LA MARCHE       1390600NEVERS              1480000PRIEZ               1440415008400000000580001200300000000000309      000000                                                                                                                                 140000001         130000001         120000001         110000001         100087001 1517                                                                                                                                                   
580000400310015 00770 1110241Dev. Cosne          1130900SUD LA MARCHE       1390600LA_CHARITE          1270640025700000000580001200300000000000307      014096 2007    011059   012562   012611   014657   014889   014513   016661   017198   014146   014754   012631   013307               140139991 2007    130137111 2007    120000001         110140641 1997    100136671 1967    011241   012074   012854   014471   013948   015228   016345   017031   014185   014394   012953   013106                                      
580000400210015 00770 1110241Dev. Cosne          1130900SUD LA MARCHE       1390600LA_CHARITE          1270640025700000000580001200300000000000307      007001 1977    005616   006187   006382   007119   007507   007162   007713   008788   007168   007366   006426   006491               140069311 1977    130067521 1987    120000001         110069241 1997    100067921 1967    005700   005887   006497   006988   006739   007616   007736   008579   007210   007140   006579   006419                                      
580000400110015 00770 1110241Dev. Cosne          1130900SUD LA MARCHE       1390600LA_CHARITE          1270640025700000000580001200300000000000307      007095 2067    005443   006375   006229   007538   007382   007351   008948   008410   006978   007388   006205   006816               140070681 2057    130069591 2057    120000001         110071401 1997    100068751 1977    005541   006187   006357   007483   007209   007612   008609   008452   006975   007254   006374   006687                                      
580000200310015 00770 1810241Maltaverne          1000500Dev. Cosne          1130900Cosne S/Loire       1050000013400000000000000000000000000000309      000000                                                                                                                                 140000008         130000008         120000008         110000008         100000008                                                                                                                                                        
420501300310015 00720 1110431Ech. RATARIEUX      0090210Ech. RN82 RD498     0170182LA_FOUILLOUSE       0120100007910000000000000000000000000000180      082662 0877    077143   079575   083304   085262   080079   085809   084916   075002   086992   086902   082927   084069               140769111 0917    130793971 0977    120000001         110849331    7    100823751    7    070132   077475   069544   069460   069058   075284   082362   074364   085360   086533   081653   081890                                      
420501300210015 00720 1110431Ech. RATARIEUX      0090210Ech. RN82 RD498     0170182LA_FOUILLOUSE       0120100007910000000000000000000000000000180      041240 0867    038626   039805   041557   042562   040036   041875   042276   037423   043522   043414   041592   042198               140406081 0877    130401361 0987    120000001         110434131    7    100421671    7    039310   040708   040636   041188   038781   040829   041462   036887   042549   043171   040899   040978                                      
420501300110015 00720 1110431Ech. RATARIEUX      0090210Ech. RN82 RD498     0170182LA_FOUILLOUSE       0120100007910000000000000000000000000000180      041422 0907    038517   039770   041747   042700   040043   043934   042640   037579   043470   043488   041335   041871               140363031 1017    130392611 0967    120000001         110415201    7    100402081    7    030822   036767   028908   028272   030277   034455   040900   037477   042811   043362   040754   040912                                      
420500800310015 00720 1150231Ech. ST JEAN BONNEFO0000000Ech. RATARIEUX      0090210MEONS               0020750009140009140000000000000000000000190      081950 0917    076719   080064   084348   084715   079497   087355   083256   071589   086407   085002   082092   082595               140813041 0917    130810761 0917    120000001         110861241    7    100854291    7    079345   082764   082821   084097   078035   084098   081883   071816   085437   085043   080231   080505                                      
420500800210015 00720 1150231Ech. ST JEAN BONNEFO0000000Ech. RATARIEUX      0090210MEONS               0020750009140009140000000000000000000000190      040754 0907    038210   039836   041922   041941   039600   043179   041634   035815   042776   042095   040988   041159               140402561 0907    130400781 0917    120000001         110427421    7    100423251    7    039612   041274   041080   041387   038430   041405   040183   035433   042407   042037   039960   040097                                      
420500800110015 00720 1150231Ech. ST JEAN BONNEFO0000000Ech. RATARIEUX      0090210MEONS               0020750009140009140000000000000000000000180      041196 0947    038509   040228   042426   042774   039897   044176   041622   035774   043631   042907   041104   041436               140410481 0947    130409981 0917    120000001         110433821    7    100431041    7    039733   041490   041741   042710   039605   042693   041700   036383   043030   043006   040271   040408                                      
420500700310015 00470 1110231Ech. COUZON         0230000Ech. LA VARIZELLE   0291316PARADIS             0280730007340000000000000000000000000000191      000000                                                                                                                                 140000001         130643631 1187    120000001         110689681 1177    100676261 1187                                                                                                                                                   
420500700210015 00470 1110231Ech. COUZON         0230000Ech. LA VARIZELLE   0291316PARADIS             0280730007340000000000000000000000000000191      000000                                                                                                                                 140000001         130320411 1157    120000001         110348701 1137    100341721 1127                                                                                                                                                   
420500700110015 00470 1110231Ech. COUZON         0230000Ech. LA VARIZELLE   0291316PARADIS             0280730007340000000000000000000000000000191      000000                                                                                                                                 140000001         130323221 1247    120000001         110340981 1267    100334541 1247                                                                                                                                                   
420500500310015 00470 1110231Ech. LA MADELEINE   0140000Ech.COUZON          0230000GRAND_CROIX         0220000008478000000000000000000000000000180      000000                                                                                                                                 140747781 1017    130746821 1037    120000001         110792991 1097    100778821 1107    070070   073249   075271   076865   072673   079669   077373   070290   077404   078165   073367   073055                                      
420500500210015 00470 1110231Ech. LA MADELEINE   0140000Ech.COUZON          0230000GRAND_CROIX         0220000008478000000000000000000000000000180      000000                                                                                                                                 140372381 0987    130371261 1007    120000001         110399281 1077    100390751 1067    034941   036603   037385   038303   036187   039790   038340   034601   038524   038938   036681   036642                                      
420500500110015 00470 1110231Ech. LA MADELEINE   0140000Ech.COUZON          0230000GRAND_CROIX         0220000008478000000000000000000000000000180      000000                                                                                                                                 140375401 1087    130375561 1107    120000001         110393711 1147    100388071 1137    035129   036646   037886   038562   036486   039879   039033   035689   038880   039227   036686   036413                                      
420008400310015 00880 4150201Ech. CHAZEAU        0510300Dpt. 43             0520400CHAZEAU             0520200001100001100000000000000000000000184      027962 0667    024631   025141   027381   028803   028127   029900   030043   025553   029880   029789   028103   028078               140278801 0677    130270051 0647    120000001         110280861    7    100000001         026206   026670   027384   028589   027615   030217   028959   024888   030057   029695   027763   026567                                      
420008400210015 00880 4150201Ech. CHAZEAU        0510300Dpt. 43             0520400CHAZEAU             0520200001100001100000000000000000000000396      014130 0657    012489   012680   013848   014471   014190   015101   014832   013435   015103   014992   014250   014105               140141271 0657    130136161 0627    120000001         110142261    7    100000001         013133   013432   013837   014445   013833   015493   014701   013086   015226   014894   014093   013373                                      
420008400110015 00880 4150201Ech. CHAZEAU        0510300Dpt. 43             0520400CHAZEAU             0520200001100001100000000000000000000000396      013832 0687    012142   012461   013533   014332   013937   014799   015211   012118   014777   014797   013853   013973               140137531 0707    130133891 0697    120000001         110138601    7    100000001         013073   013238   013547   014144   013782   014724   014258   011802   014831   014801   013670   013194                                      
420008300310015 00880 4150201Ech. FIRMINY CENTRE 0490350Ech. CHAZEAU        0510300LA_TARDIVE          0500200001950001950000000000000000000000184      029684 0637    026158   026698   029149   030408   029563   031490   031549   027985   031601   031700   029864   029906               140297091         130288411         120000001         110298681         100292771    7    027967   028483   029325   030765   029234   032134   031070   027309   031443   031371   029222   028222                                      
420008300210015 00880 4150201Ech. FIRMINY CENTRE 0490350Ech. CHAZEAU        0510300LA_TARDIVE          0500200001950001950000000000000000000000184      015675 0637    013940   014150   015452   015997   015644   016733   016355   014732   016706   016669   015861   015799               140156061 0707    130151791 0747    120000001         110156381    7    100153611    7    014640   014951   015390   016071   015249   017086   016056   014308   016663   016460   015524   014905                                      
420008300110015 00880 4150201Ech. FIRMINY CENTRE 0490350Ech. CHAZEAU        0510300LA_TARDIVE          0500200001950001950000000000000000000000184      014009 0647    012218   012548   013697   014411   013919   014757   015194   013253   014895   015031   014003   014107               140141031         130136621         120000001         110142301         100139161    7    013327   013532   013935   014694   013985   015048   015014   013001   014780   014911   013698   013317                                      
420008200310015 00880 4850201Ech. FIRMINY EST    0470720Ech. FIRMINY CENTRE 0490350Firminy Ouest       0480200001980001980420008000300000000000184      030321                                                                                                                                 140317318         130305868         120000008         110320118         100000008                                                                                                                                                        
420008200210015 00880 4850201Ech. FIRMINY EST    0470720Ech. FIRMINY CENTRE 0490350Firminy Ouest       0480200001980001980420008000200000000000184      014552                                                                                                                                 140160268         130155298         120000008         110162228         100000008                                                                                                                                                        
420008200110015 00880 4850201Ech. FIRMINY EST    0470720Ech. FIRMINY CENTRE 0490350Firminy Ouest       0480200001980001980420008000100000000000184      015769                                                                                                                                 140157058         130150578         120000008         110157898         100000008                                                                                                                                                        
420008100310015 00880 4850201Ech. CHAMBON FEUGERO0450224Ech. FIRMINY EST    0470720Chambon-Feugerolles 0460000002496002496420008000300000000000184      039874                                                                                                                                 140416258         130401138         120000008         110419868         100000008                                                                                                                                                        
