020000100310015 00020 4810201Vauciennes          0000000Echang 2            0040464Villers Cotterets   0010280004472004472020000300360000090030187      018567                                                                                                                                 140000008         130178538         120178068    0    110000008    0    100000008    0                                                                                                                                                   
620000100310015 00010 4810101inter CD 940 st Leon0460000limite A 16         0500800St Leonard          0480833004048004048          00000000000613      000000                                                                                                                                 140000008         130000008         120000008    0    110000008    0    100000008    0                                                                                                                                                   
020000200310015 00020 4815001villers cot. rd 231 0020874villers cot. rd 231 0080104Villers Cotterêts   0060300005305005305020000300300000000000187      015414                                                                                                                                 140000008         130148218         120147828         110000008         100000008                                                                                                                                                        
020000300210015 00020 4110201Giratoire de Paris  0040464Echang 2            0250832VAUXBUIN            0240070021445021445020000302300000000000187      009212 1577    008249   009252   008774   008996   009307   009802   009465   009100   009494   009678   009236                        140089631 1557    130088031 1547    120087761 1687    110000001    0    100000001    0    008316   008647   008888   009362   009069   009423   009233   008567   009574   009381   008694   008406                                      
020000300310015 00020 4110201Echang 2            0040464Giratoire de Paris  0250832VAUXBUIN            0240070021445021445020000302300000000000187      017930 1577    015496   018052   016892   017723   018388   019640   019230   017714   018340   019162   017951                        140171881 1537    130172401 1527    120171941 1677    110000001    0    100000001    0    014722   015416   016988   018419   017599   018088   018029   017005   018344   018399   017086   016087                                      
020000300110015 00020 4110201Echang 2            0040464Giratoire de Paris  0250832VAUXBUIN            0240070021445021445020000302300000000000187      008718 1567    007247   008800   008118   008727   009081   009838   009765   008614   008846   009484   008715   007425               140082251 1477    130084371 1477    120084181 1677    110000001    0    100102111 1508    006406   006769   008100   009057   008530   008665   008796   008438   008770   009018   008392   007681                                      
020000302210015 00020 4110201RN 31               0250832Giratoire de Paris  0281144SOISSONS            0280040004212004212020000302300000000000187      010650 1347    009874   008050   008672   011107   010935   011606   010758   010508   011634   011471   011481   011561               140111861 2127    130107961 2117    120110331 2197    110110641 2217    100112211 2287    010226   010420   010855   011494   011140   011843   011141   010265   011958   012129   011461   011284                                      
020000302310015 00020 4110201Giratoire de Paris  0250832RN 31               0281144SOISSONS            0280040004212004212020000302300000000000187      022609 1607    020407   018948   019993   023116   022733   024173   022752   022005   024569   024734   023620   024070               140232321 2127    130224181 2117    120228631 2187    110230241 2197    100231611 2247    020983   021587   022496   023925   023221   024448   023177   021529   024888   025374   023748   023380                                      
020000302110015 00020 4110201Giratoire de Paris  0250832RN 31               0281144SOISSONS            0280040004212004212020000302300000000000187      011959 2067    010533   010898   011321   012009   011798   012567   011994   011497   012935   013263   012139   012509               140120461 2127    130116221 2117    120118301 2167    110119601 2157    100119401 2177    010757   011167   011641   012431   012081   012605   012036   011264   012930   013245   012287   012096                                      
020000303310015 00020 4813001RN 31               0281144Crouy               0311019Soissons            0291041003775003775020000302300000000000187      018166                                                                                                                                 140000008         130180138         120183718    0    110185018    0    100186128    0                                                                                                                                                   
020000400110015 00020 4113001Crouy               0311019carrefour Semilly   0570310LAFFAUX             0400030025497025497020000800300000000000187      003736 1717    006269   006402   006733   006870   004073   000769   002373   001826   000478   001725                                 140067721  957    130064581 1508    120065411 1310    110000001    0    100000001    0    006125   006561   006668   007021   007078   007143   006584   006380   007374   007260   006536   006549                                      
020000400310015 00020 4113001Crouy               0311019carrefour Semilly   0570310LAFFAUX             0400030025497025497020000800300000000000187      008090 2027    012403   012626   013484   013727   009720   002822   006103   004850   001455   003944                                 140135221 1187    130128361 1508    120130951 1300    110000001    0    100000001    0    012346   013094   013229   013941   013808   014152                     014557   014454   013259   012985                                      
020000400210015 00020 4113001carrefour Semilly   0311019Crouy               0570310LAFFAUX             0400030025497025497020000800300000000000187      004354 2167    006134   006224   006751   006857   005647   002053   003730   003024   000977   002219                                 140067501 1307    130063771 1498    120065541 1298    110000001    0    100000001    0    006221   006533   006561   006920   006730   007009                     007183   007194   006723   006436                                      
020000600310015 00020 4815001Carrefour Semilly   0570310carref. de l'escarg 0620732Ardon               0600600004943004943020000800300000000000187      000000                                                                                                                                 140000008         130000008         120000008    0    110000008    0    100000008    0                                                                                                                                                   
080000600310015 00430 4810201RD 4 Douzy          0290000A 34 Bazeilles      0300639Bazeilles           0290419001290001290          00000000000613      000000                                                                                                                                 140000008         130000008         120000008    0    110000008    0    100000008    0                                                                                                                                                   
800000600310015 00010 4810201RN 25               0280000RD 97               0320780Longpre Amiens      0300039004967004967800003301300000000000187      000000                                                                                                                                 140000008         130000008         120000008    0    110000008    0    100000008    0                                                                                                                                                   
020000700310015 00020 4813001carref. de l'escarg 0620732Chambry RD 517      0660608Chambry             0650200003537003537020000900300000000000187      009493                                                                                                                                 140000008         130093058         120094718    0    110097508    0    100000008    0                                                                                                                                                   
020000800310015 00020 4113001Chambry RD 517      0660608Marle RD 946        0850924FROIDMONT           0780245019550019550020002700300000000000187      000000                                                                                                                                 140000851         130068191 1917    120070021    0    110000001    0    100000001    0    001008   000000   000000   000000   000000   000000   000000   000000   000000   000000   000000   000000                                      
020000800210015 00020 4113001Marle RD 946        0660608Chambry RD 517      0850924FROIDMONT           0780245019550019550020002700300000000000187      000000                                                                                                                                 140000851         130034231 1927    120035081    0    110000001    0    100000001    0    001008   000000   000000   000000   000000   000000   000000   000000   000000   000000   000000   000000                                      
020000800110015 00020 4113001Chambry RD 517      0660608Marle RD 946        0850924FROIDMONT           0780245019550019550020002700300000000000187      000000                                                                                                                                 140000001         130033961 1907    120034941    0    110000001    0    100000001    0    000000   000000   000000   000000   000000   000000   000000   000000   000000   000000   000000   000000                                      
600000800210015 00020 4113001Limite Aisne        0110200Dév Nanteuil        0291114GONDREVILLE         0250300018911018911600005100300000000000192      006546 1767    006364   007050   007075   006702   007188   007401   004446   004268   007398   007299   006933                        140070161 1797    130068721 1767    120069161 1667    110000001    0    100064701 1327    006576   006840   006976   006918   007203   007394   006835   006776   007466   007291   007045   006879                                      
600000800310015 00020 4113001Dév Nanteuil        0110200Limite Aisne        0291114GONDREVILLE         0250300018911018911600005100300000000001287      013878 1777    013079   014471   014447   013933   014730   015219   011230   011162   015231   015100   014206                        140147061 1807    130144901 1767    120151151 1677    110000001    0    100173351 1357    013476   014058   014720   015159   015986   015746   014314   014091   015334   015056   014487   014039                                      
600000800110015 00020 4113001Dev Nanteuil        0110200Limite Aisne        0291114GONDREVILLE         0250300018911018911600005100300000000000192      007332 1807    006715   007421   007372   007231   007542   007818   006784   006894   007833   007801   007273                        140076901 1817    130076181 1767    120081991 1707    110000001    0    100108651 1387    006900   007218   007744   008241   008783   008352   007479   007315   007868   007765   007442   007160                                      
020000900210015 00020 4113001La Capelle RN 43    0850924Marle RD 946        1160217LES BARAQUES        0930550029796029796020002700300000000000187      002574 2427    002260   002470   002524   002564   002570   002833   002711   002536   002688   002673   002590   002467               140025631 2407    130025221 2397    120025761 2457    110026571 2517    100000001    0    002354   002520   002540   002680   002560   002701   002744   002504   002713   002673   002406   002368                                      
020000900310015 00020 4113001Marle RD 946        0850924La Capelle RN 43    1160217LES BARAQUES        0930550029796029796020002700300000000000187      005150 2377    004485   004915   005054   005148   005124   005635   005385   005192   005397   005375   005135   004948               140051241 2347    130050481 2327    120051381 2397    110052891 2447    100000001    0    004663   005004   005084   005352   005121   005395   005414   005120   005419   005371   004811   004748                                      
020000900110015 00020 4113001Marle RD 946        0850924La Capelle RN 43    1160217LES BARAQUES        0930550029796029796020002700300000000000187      002576 2287    002225   002445   002530   002584   002554   002802   002674   002656   002709   002702   002545   002481               140025611 2247    130025261 2257    120025621 2277    110026321 2317    100000001    0    002309   002484   002544   002672   002561   002694   002670   002616   002706   002698   002405   002380                                      
600000900210015 00020 4113001Dév Nanteuil        0020700RN 330              0110200NANTEUIL            0080650008884008884600005100300000000001287      014306 1407    013383   014377   014333   014360   014466   014213   014596   012991   014664   015389   014463   014457               140142471 1418    130000001         120000001         110000001         100000001                  013764   013944   014428   014004   015153   014321   012804   014758   015105   014304   014142                                      
600000900310015 00020 4113001RN 330              0020700Dév Nanteuil        0110200NANTEUIL            0080650008884008884600005100300000000001287      026204 1427    024267   026181   026055   026276   026289   027079   026577   023908   027148   028143   026214   026372               140260001 1438    130000001         120000001         110000001         100000001                  024996   025355   026317   025635   027519   026043   023631   026912   027726   026071   025796                                      
600000900110015 00020 4113001RN 330              0020700Dév Nanteuil        0110200NANTEUIL            0080650008884008884600005100300000000001287      011898 1487    010884   011804   011722   011916   011823   012866   011981   010917   012484   012754   011751   011915               140117531 1468    130000001         120000001    0    110000001    0    100218311    0             011232   011411   011889   011631   012366   011722   010827   012154   012621   011767   011654                                      
590001100310015 00020 4813001Larouillies (Lim 02)0000000Avesnes (RD951)     0100485Etroeugt            0060500010476010476590001700300000000000187      007311                                                                                                                                 140000008         130072308         120071278    0    110070138    0    100000008    0                                                                                                                                                   
020001200110015 00020 4113001La Capelle RN 43    1160217limite du Nord      1220070LA FLAMENGRIE       1170970005900005900020002700359000100030187      002271 2857    001929   002109   002220   002311   002282   002501   002389   002335   002457   002380   002213   002121               140022701 2807    130022531 2787    120023171 2757    110024241 2887    100023791 2807    002010   002122   002285   002368   002299   002492   002371   002300   002430   002356   002167   002035                                      
020001200310015 00020 4113001La Capelle RN 43    1160217limite du Nord      1220070LA FLAMENGRIE       1170970005900005900020002700359000100030187      004512 2937    003871   004213   004400   004602   004525   004982   004813   004553   004854   004694   004409   004228               140045081 2897    130044631 2837    120046151 2867    110048571 3007    100047641 2917    004008   004239   004537   004725   004589   004949   004778   004472   004790   004650   004302   004049                                      
020001200210015 00020 4113001Limite Nord         1160217La Capelle RN 43    1220070LA FLAMENGRIE       1170970005900005900020002700359000100030187      002241 2977    001942   002104   002180   002291   002243   002481   002424   002218   002397   002314   002196   002107               140022381 2937    130022101 2897    120022981 2917    110024331 3077    100023851 2967    001998   002117   002252   002357   002290   002457   002407   002172   002360   002294   002135   002014                                      
080001200210015 00430 4113001RD 877 Mon Idee     0460000Sortie Rocade       0620831TOURNES             0500350017769017769080500200300000000000187      008934  927    008163   008812   008870   009211   008858   009618   009056   008113   009407   009224   008977                        140089851  957    130089131    8    120089381    7    110091191    7    100093621    7    008610   008846   009068   009357   009161   009528   009028   008041   009418   009332   008831   008629                                      
080001200310015 00430 4113001Sortie Rocade       0460000RD 877 Mon Idee     0620831TOURNES             0500350017769017769080500200300000000000187      017843  927    016301   017607   017781   018313   017661   019240   018018   016222   018803   018474   017923                        140178681  957    130177291    8    120177691    7    110180191    7    100185881    7    017120   017587   017985   018588   018185   018912   017895   016021   018754   018591   017631   017208                                      
080001200110015 00430 4113001Sortie Rocade       0460000RD 877 Mon Idee     0620831TOURNES             0500350017769017769080500200300000000000187      008909  937    008138   008795   008911   009102   008803   009622   008962   008109   009396   009250   008946                        140088831  957    130088161    8    120088311    7    110089001    7    100092261    7    008510   008741   008917   009231   009024   009384   008867   007980   009336   009259   008800   008579                                      
590001200310015 00020 4844001Avesnes (RD 951)    0100485Avesnes (RD 104)    0120101Avesnes Nord        0120744002371002371          00000000000187      000000                                                                                                                                 140000008         130000008         120000008    0    110000008    0    100000008    0                                                                                                                                                   
620001302310015 00170 4810101Int RN 50           0330000Int A 26            0360100Roclincourt         0350900002960002960620001400300000000000698      022866                                                                                                                                 140000008         130208338         120202818    0    110204278    0    100000008    0                                                                                                                                                   
620001400210015 00170 4113001A 211               0360100Acces A 26          0441082VIMY                0360500009635009635          00000000000187      008940  877    008408   008810   008839   008800   008261   009585   008696   008351   009754   009440   009130   009237               140086121  917    130081561    7    120079241    7    110080371    7    100000001    0    008316   008580   008705   008905   008307   009045   008259   007037   009256   009174   008817   008995                                      
620001400310015 00170 4113001Acces A 26          0360100A 211               0441082VIMY                0360500009635009635          00000000000187      017955  897    016887   017697   017737   017810   016601   019279   017344   016444   019696   019105   018350   018584               140172811  947    130163581    7    120159191    7    110160331    7    100000001    0    016712   017214   017455   017844   016792   018150   016459   014124   018637   018586   017750   017748                                      
620001400110015 00170 4113001Acces A 26          0360100A 211               0441082VIMY                0390400009635009635          00000000000187      009015  947    008479   008887   008898   009010   008340   009694   008648   008093   009942   009665   009220   009347               140086691  997    130082021 1017    120079951 1057    110079961 1047    100000001    0    008396   008634   008750   008939   008485   009105   008200   007087   009381   009412   008933   008753                                      
510001500310015 00310 4813001Limite Marne        0000000                    0010653Fismes Ouest        0010000001653001653510001700302000270030795      012690                                                                                                                                 140000008         130127428         120129458    0    110131198    0    100128908    0                                                                                                                                                   
510001700210015 00310 4111001A 34                0010653Rond point Fismes   0250313MUIZON              0160750024164024164590001700300000000000176      009357 1177    008797   009280   009593   009733   009506   010375   009091   008917   010033   010035   009806   007193               140095331 1157    130093901 1197    120095481 1217    110096931 1237    100094871 1207    009066   009258   009595   009845   009645   010160   009474   008704   010163   009586   009523   009398                                      
510001700310015 00310 4113001Rond point Fismes   0010653A 34                0250313MUIZON              0160750024164024164590001700300000000000176      018720 1207    017580   018653   019138   019472   019028   020674   018217   017842   020054   020071   019609   014457               140190481 1197    130187961 1237    120190941 1297    110193501 1337    100190111 1307    018115   018554   019140   019693   019286   020307   019020   017420   020227   018975   019029   018854                                      
510001700110015 00310 4111001Rond point Fismes   0010653A 34                0250313MUIZON              0160750024164024164590001700300000000000176      009363 1267    008783   009373   009545   009739   009522   010299   009126   008925   010021   010036   009803   007264               140095151 1267    130094061 1277    120095461 1457    110096571 1527    100095241 1507    009049   009296   009545   009848   009641   010147   009546   008716   010064   009389   009506   009456                                      
590001700110015 00020 4113001Avesnes (RD 104)    0120101Echang 3            0210000ECLAIBES            0190950009899009899590503902300000000000187      006554 1187    006112   006268   006436   006707   006549   006969   006386   006280   007028   006984   006700   006246               140066171 1247    130064861 1257    120063891 1287    110062951 1307    100000001    0    006250   006404   006553   006805   006676   007012   006586   006158   006904   007065   006699   006300                                      
590001700310015 00020 4113001Avesnes (RD 104)    0120101Echang 3            0210000ECLAIBES            0190950009899009899590503902300000000000187      013150 1247    012279   012637   012945   013498   013074   013949   012781   012533   013991   014004                                 140132671 1267    130130041 1267    120128181 1297    110126121 1247    100000001    0    012550   012879   013125   013680   013413   013987   013251   012273   013833   014161   013420   012652                                      
590001700210015 00020 4113001Echan 3             0120101Avesnes (RD 104)    0210000ECLAIBES            0190950009899009899590503902300000000000187      006596 1277    006167   006369   006509   006791   006525   006980   006395   006253   006963   007020                                 140066501 1277    130065181 1277    120064291 1307    110063171 1217    100000001    0    006300   006475   006572   006875   006737   006975   006665   006115   006929   007096   006721   006352                                      
590001800210015 00020 4115001Frontiere Belge     0300000Maubeuge (RN 49)    0361173BETTIGNIES          0350894006704006704590503902300000000000187      004467 1097    004221   004327   004400   004509   004404   004618   004565   004252   004598   004739   004501                        140044731 1087    130043181 1057    120045201 1117    110046171 1147    100000001    0    004239   004312   004465   004580   004699   004542   004566   004255   004524   004608   004527   004356                                      
590001800310015 00020 4115001Maubeuge (RN 49)    0300000Frontiere Belge     0361173BETTIGNIES          0350894006704006704590503902300000000000187      008897 1137    008374   008652   008776   009023   008783   009244   008986   008464   009182   009437   008950                        140089061 1137    130086541 1137    120089831 1147    110091901 1167    100000001    0    008450   008601   008904   009106   009306   009084   009063   008494   009031   009203   008995   008626                                      
590001800110015 00020 4115001Maubeuge (RN 49)    0300000Fronfiere Belge     0361173BETTIGNIES          0350894006704006704590503902300000000000187      004430 1237    004153   004325   004376   004514   004379   004626   004421   004212   004584   004698   004449                        140044331 1227    130043361 1217    120044631 1207    110045731 1227    100000001    0    004211   004289   004439   004526   004607   004542   004497   004239   004507   004595   004468   004270                                      
620001900210015 00250 4113001RD 265              0000000Limite dep 80       0240280GOUY                0150400024315019380          00000000000187      003437 1717    002979   003181   003277   003516   003411   003632   003637   003415   003581   003689   003477                        140034731 1907    130035141 1897    120039171 1900    110000001    0    100034631 1867    003325   003319   003404   003405   003446   003560   003515   003358   003650   003710   003523   003453                                      
620001900310015 00250 4113001Limite Dep 80       0000000RD 265              0240280GOUY                0150400024315019380          00000000000187      006820 1757    005926   006310   006501   006945   006786   007213   007126   006791   007159   007327   006917                        140068771 1967    130069711 1967    120080901 1930    110000001    0    100069031 1937    006478   006460   006676   006815   006832   007138   006908   006674   007292   007366   007019   006850                                      
620001900110015 00250 4113001Limite Dep 80       0000000RD 265              0240280GOUY                0150400024315019380          00000000000187      003383 1837    002947   003129   003224   003429   003375   003581   003489   003376   003578   003638   003440                        140034041 2097    130034571 2037    120041731 1960    110000001    0    100034401 2067    003153   003141   003272   003410   003386   003578   003393   003316   003642   003656   003496   003397                                      
620002000110015 00250 4114001Inter RD 265        0240280Inter RN 39         0271283WAGNONLIEU          0260545004813004813          00000000000901      005054 1507    004531   004790   004911   005180   004921   005414   005190   004718   005358   005395   004974   005264               140050081 1657    130048161 1717    120046221 1777    110000001    0    100048481 1827    004726   004824   004903   005125   005019   005352   005155   004762   005200   005145   004940   004951                                      
620002000310015 00250 4114001Inter RD 265        0240280Inter RN 39         0271283WAGNONLIEU          0260545004813004813          00000000000901      010158 1507    009114   009645   009847   010433   009887   010869   010487   009442   010724   010815   010023   010607               140099931 1817    130093211 1837    120092651 1777    110000001    0    100094131 1817    009459   009685   009779   010205   009940   010575   010250   009428   010424   010325   009922   009940                                      
620002000210015 00250 4114001Inter RN 39         0240280Inter RD 265        0271283WAGNONLIEU          0260545004813004813          00000000000901      005104 1507    004583   004855   004936   005253   004966   005455   005297   004724   005366   005420   005049   005343               140049851 1897    130049221 1947    120046431 1777    110000001    0    100045651 1817    004733   004861   004876   005080   004921   005223   005095   004666   005224   005180   004982   004989                                      
620002001210015 00250 4113001Inter RN 17         0271283Inite RN 39         0321093ANZIN               0281000006963006963          00000000000901      009240 1517    008176   008488   008764   009657   009203   009862   009767   009209   009751   009634   009097                        140090251 1557    130088611 1587    120089071 1677    110092461 1857    100089721 1837    008176   008499   008850   009438   009080   009767   009350   008698   009678   009503   008848   008416                                      
620002001310015 00250 4113001Inter RN 17         0271283Inter RN 39         0321093ANZIN               0281000006963006963          00000000000901      018653 1497    016534   017109   017727   019708   018550   019962   019901   018423   019564   019428   018218                        140181921 1537    130179261 1557    120180681 1657    110186851 1857    100180731 1827    015874   017175   017950   019300   018389   019608   019112   017582   019414   019181   017813   016922                                      
620002001110015 00250 4113001Inter RN 39         0271283Inter RN 17         0321093ANZIN               0281000006963006963          00000000000901      009413 1477    008358   008621   008963   010051   009347   010100   010134   009214   009813   009794   009121                        140091671 1487    130090671 1517    120091611 1617    110094391 1837    100091011 1817    007698   008676   009100   009862   009309   009841   009762   008884   009736   009678   008965   008506                                      
020002500210015 00310 4113001RN 2 Vauxbuin       0000000Limite Oise         0190270AMBLENY             0070500016839016839020002700360000570030187      004622 1617    004153   004400   004482   004599   004573   005029   004732   004381   004875   004851   004664   004728               140046191 1667    130044421 1597    120044161 1637    110045021 1637    100000001    0    004174   004372   004468   004799   004655   004935   004723   004429   004941   004887   004558   004486                                      
020002500310015 00310 4113001limite de l'Oise    0000000RN 2 Vauxbuin       0190270AMBLENY             0070500016839016839020002700360000570030187      009238 1577    008305   008740   008996   009203   009166   010083   009445   008787   009748   009681   009301   009395               140092201 1627    130089121 1537    120088251 1607    110090011 1627    100000001    0    008333   008661   008954   009552   009304   009864   009405   008904   009873   009744   009100   008945                                      
020002500110015 00310 4113001limite de l'oise    0000000RN 2 Vauxbuin       0190270AMBLENY             0070500016839016839020002700360000570030187      004616 1497    004152   004340   004514   004604   004593   005054   004713   004406   004873   004830   004637   004667               140046011 1537    130044701 1477    120044091 1557    110044991 1597    100000001    0    004159   004289   004486   004753   004649   004929   004682   004475   004932   004857   004542   004459                                      
020002600310015 00310 4813001RD 94 Mercin        0200000Ciry Salsogne RD 5310290120Venizel             0260326008763008763020002700300000000000187      014169                                                                                                                                 140000008         130142988         120149268    0    110151838    0    100148508    0                                                                                                                                                   
080002600210015 00510 4110201RN 43 Piquet        0410000RD 988 Fumay        0520164ROCROI              0420000010779010779080500200300000000000187      001493 2737    001216   001330   001447   001521   001487   001540   001817   001795   001526   001296   001437                        140015651 2647    130015671 2768    120000001    0    110025081    0    100000001    0             001370   001542   001426   001432   001562   001863   001808   001804   001501   001508   001385                                      
080002600310015 00510 4110201RD 98 Fumay         0410000RN 43 Piquet        0520164ROCROI              0420000010779010779080500200300000000000187      003016 2727    002365   002633   002877   003065   003063   003191   003642   003566   003156   002776   002810                        140031101 2657    130030911 2668    120000001    0    110039481    0    100000001    0             002701   003019   002973   002979   003205   003732   003566   003385   003050   002912   002653                                      
080002600110015 00510 4110201RD 988 Fumay        0410000RN 43 Piquet        0520164ROCROI              0420000010779010779080500200300000000000187      001523 2707    001149   001303   001430   001544   001576   001651   001825   001771   001630   001480   001373                        140015451 2677    130015241 2548    120000001    0    110014401    0    100000001    0             001331   001477   001547   001547   001643   001869   001758   001581   001549   001404   001268                                      
020002610210015 00310 4110201Deviation de Braine 0290120Ciry Salsogne RD 5310390508BRAINE              0340628010779010779          00000000000996      004051 2377    003569   003844   003978   004094   004089   004308   004119   003882   004247   004269   004048   004158               140040401 2357    130039821 2397    120040901 2397    110041521 2417    100000001    0    003711   003801   004029   004155   004053   004308   004113   003896   004248   004210   003999   003955                                      
020002610310015 00310 4110201Ciry Salsogne RD 5310290120Deviation de Braine 0390508BRAINE              0340628010779010779          00000000000996      008163 2417    007203   007824   007970   008201   008149   008654   008342   007760   008558   008653   008166   008473               140081181 2387    130079921 2437    120081731 2457    110083831 2427    100000001    0    007446   007688   008033   008331   008105   008590   008303   007760   008532   008512   008086   008030                                      
020002610110015 00310 4110201Ciry Salsogne RD 5310290120Deviation de Braine 0390508BRAINE              0340628010779010779          00000000000996      004112 2487    003634   003980   003992   004107   004060   004346   004223   003878   004311   004384   004118   004315               140040781 2437    130040101 2477    120040831 2557    110042311 2298    100041301 2258    003735   003887   004004   004176   004052   004282   004190   003864   004284   004302   004087   004075                                      
020002700210015 00310 4113001Limite de la Marne  0390508Deviation de Braine 0440985BAZOCHES            0430750005015005015          51000150030187      005390 1997    004798   005248   005307   005431   005350   005747   005536   005012   005727   005731   005421                        140054001 1378    130052981 1808    120053121 1718    110053931 1768    100052711 1768    005021   005203   005375   005566   005433   005671   005486   005044   005706   005635   005354   005305                                      
020002700310015 00310 4113001Deviation de Braine 0390508Limite de la Marne  0440985BAZOCHES            0430750005015005015          51000150030187      010111 2037    008961   009751   009965   010426   010109   010731   010306   009465   010714   010689   010126                        140101181 1388    130102031 1978    120106511 1778    110108341 1748    100105961 1858    009407   009694   010115   010427   010192   010649   010261   009557   010689   010534   010002   009887                                      
020002700110015 00310 4113001Deviation de Braine 0390508Limite de la Marne  0440985BAZOCHES            0430750005015005015          51000150030187      004721 2137    004163   004503   004658   004995   004759   004984   004770   004453   004987   004958   004705                        140047181 1428    130049051 2158    120053391 1878    110054411 1708    100053251 2028    004386   004491   004740   004861   004759   004978   004775   004513   004983   004899   004648   004582                                      
080002800310015 00340 1110241Moulin Blanc        0320463Poix-Terron         0450514YVERNAUMONT         0450100012980012980080500200300000000000104      015040         014831   016183   016589            017511   018614   009191   008881   018644   012976   017396                        140000001         130137661    7    120162971 1277    110167761 1267    100164811 1237                                                                                                                                                   
080002800110015 00340 1110241Moulin Blanc        0320463Poix-Terron         0450514YVERNAUMONT         0450100012980012980080500200300000000000104      007676         007427   008125   008332            008730   009385   004976   004739   009387   007069   008780                        140000001         130061891    7    120081241 1227    110084251 1217    100082721 1187                                                                                                                                                   
080002800210015 00340 1110241Poix-Terron         0320463Moulin Blanc        0450514YVERNAUMONT         0450100012980012980080500200300000000000104      007364         007404   008058   008257            008781   009229   004215   004142   009257   005907   008616                        140000001         130075771    7    120081731 1297    110083511 1297    100082091 1267                                                                                                                                                   
080002900210015 00340 1110241Bertoncourt         0450514Poix Terron         0670380FAISSAULT           0600000021866021866080500200300000000000103      005401 1337    004705   005046   005260   005339   005505   005850   005759   004603   005865   005857   005618                        140053931 1347    130051251 1337    120051881 1327    110054691 1287    100000001    0    004732   004966   005255   005544   005348   005815   005540   005385   005836   005771   005439   005072                                      
080002900310015 00340 1110241Poix Terron         0450514Bertoncourt         0670380FAISSAULT           0600000021866021866080500200300000000000305      011023 1347    009480   010225   010668   010814   011219   011851   011813   010053   011931   011804   011369                        140108851 1377    130103021 1447    120105441 1397    110108491 1327    100000001    0    009575   010062   010582   011237   010741   011792   011375   010646   011789   011566   010961   010285                                      
080002900110015 00340 1110241Poix Terron         0450514Bertoncourt         0670380FAISSAULT           0600000021866021866080500200300000000000103      005622 1357    004775   005179   005408   005475   005714   006001   006054   005450   006066   005947   005751                        140054921 1417    130051771 1547    120053561 1527    110053801 1417    100000001    0    004843   005096   005327   005693   005393   005977   005835   005261   005953   005795   005522   005213                                      
510002900310015 00510 4117001Limite Ardennes     0000000Echang 24           0091020ISLES SUR SUIPPE    0030310010295010295590001700308000360030176      000000                                                                                                                                 140184861 2047    130194811 1567    120197581 1490    110200991 1327    100000001    0    017499   017094   017439   018949   019133   020432   020163   017361   018477   018961   017211   019012                                      
510002900210015 00510 4110201Echang 24           0000000Limite Ardennes     0091020ISLES SUR SUIPPE    0030310010295010295590001700308000360020176      000000                                                                                                                                 140081671 2497    130094671 1727    120098681 1360    110100541 1327    100000001    0    008199   007568   007455   008352   009004   009422   009626   007373   007360   007846   006761   008955                                      
510002900110015 00510 4110201Limite Ardennes     0000000Echang 24           0091020ISLES SUR SUIPPE    0030310010295010295590001700308000360010176      000000                                                                                                                                 140103191 1327    130100141 1417    120098901 1620    110100451 1337    100000001    0    009300   009526   009984   010597   010129   011010   010537   009988   011117   011115   010450   010057                                      
800003301310015 00250 4110201RN 29 Longueau      0000300RN 1 Amiens         0090745J VERNE             0020700015395015395800003400300000000000188      000000                                                                                                                                 140381471  888    130364811    8    120378681    0    110000001    0    100375371    8    036293   036825   037678   039746   037827   039795   038009   034501   040669   040299   037955   038215                                      
800003301210015 00250 4110201RN 1 Amiens         0000000RN 29 Longueau      0090745J VERNE             0020700015395015395800003400300000000000188      000000                                                                                                                                 140193231  868    130184871    8    120189931    8    110000001    0    100190051    8    018448   018619   019038   020132   019131   020254   019226   017557   020577   020366   019220   019332                                      
800003301110015 00250 4110201RN 29 Longueau      0000000RN 1 Amiens         0090745J VERNE             0020700015395015395800003400300000000000188      015012  807    004250            018353   019454   018145   020902   016601   017188   019853   019885                                 140188241  928    130179931    8    120188751    0    110000001    0    100185321    8    017845   018206   018640   019614   018696   019541   018783   016944   020092   019933   018735   018883                                      
800003400110015 00250 4113001RN 1 Amiens         0090745RD 49 Doullens      0330965RAMPONNEAU          0120796025003025003800003400300000000000187      006028  848    005694   005871   005963   006224   005895   006494   005879   005156   006279   006417   006289   006202               140062431 1128    130061601 1208    120063281 1168    110064521 1158    100065081 1128    005881   006013   006070   006276   006126   006405   006505   005889   006578   006803   006220   006149                                      
800003400310015 00250 4113001RN 1 Amiens         0090745RD 49 Doullens      0330965RAMPONNEAU          0120796025003025003800003400300000000000187      011971  768    011190   013801   011694   012214   011577   012664   011539   010117   012256   012457   012282   012094               140121861 1128    130120171 1178    120124571 1138    110126411 1108    100133541 1028    011517   011733   011858   012241   011947   012569   012469   011284   012736   013439   012440   011999                                      
800003400210015 00250 4113001RD 49 Doullens      0090745RN 1 Amiens         0330965RAMPONNEAU          0120796025003025003800003400300000000000187      005943  728    005496   007930   005731   005990   005682   006170   005660   004961   005977   006040   005993   005892               140059431 1138    130058571 1148    120061291 1118    110061891 1088    100068461    8    005636   005720   005788   005965   005821   006164   005964   005395   006158   006636   006220   005850                                      
080003600210015 00510 4110201Limite Marne        0680000RN 2051             0890423TAGNON              0840135023801023801080500200300000000000104      007840         008196   008974   009125   008995   009010   009552   001427   001135   010013   010145   010009                        140092411 1217    130084931 1138    120086101 1078    110087991 1108    100085291 1108             008792   009240   009788   009138   009680   008941   009118   009615   009884   009049   008403                                      
080003600310015 00510 4110201RN 2051             0680000Limite Marne        0890423TAGNON              0840135023801023801080500200300000000000104      015842         016603   018106   018394   018358   018213   019272   002935   002523   020125   020437   019975                        140186161 1237    130173241 1138    120175721 1078    110177791    8    100174881 1108             017568   018505   019580   018356   019432   018033   018338   019404   019999   018387   017152                                      
080003600110015 00510 4110201RN 2051             0680000Limite Marne        0890423TAGNON              0840135023801023801080500200300000000000104      008002         008407   009132   009269   009363   009203   009720   001508   001388   010112   010292   009966                        140093751 1277    130088311 1138    120089621 1078    110089801    8    100089591 1098             008776   009265   009792   009218   009752   009092   009220   009789   010115   009338   008749                                      
080003800310015 00580 4110201Frontière belge     0000000RN 43               0101436LA CHAPELLE         0020000011696011696080500200300000000000104      000000                                                                                                                                 140062461 2157    130060781 2127    120058161 2077    110059221 2147    100056371 2007    004938   005248   005933   006480   006565   006831   007509   007553   006525   006382   005895   005016                                      
080003800210015 00580 4110201RN 43               0000000Frontière belge     0101436LA CHAPELLE         0020000011696011696080500200300000000000104      000000                                                                                                                                 140031321 2177    130030371 2167    120029031 2067    110029371 2117    100028101 1957    002486   002639   002986   003252   003238   003426   003680   003835   003314   003219   002969   002503                                      
080003800110015 00580 4110201Frontière belge     0000000RN 43               0101436LA CHAPELLE         0020000011696011696080500200300000000000104      003138 2087    002510   002597   002831   003076   003279   003225   003801   003616   003236   003281   003016                        140031141 2107    130030411 2097    120029131 2117    110029851 2207    100028271 2107    002452   002609   002947   003228   003327   003405   003829   003718   003211   003163   002926   002513                                      
800004000310015 00250 4813001RD 49 Doullens      0330965limite Pas de Calais0401009Doullens            0350847006991006991800003400362000190030187      006526                                                                                                                                 140000008         130065528         120067928    0    110068938    0    100072828    0                                                                                                                                                   
620004301310015 00420 4110101RN 43               0140000Inter A 16          0541121ALINCTHUN           0430850039904039904          00000000000187      000000                                                                                                                                 140128941 1238    130123391 1218    120121091 1428    110124191 1538    100126291 1558    011360   011766   012399   013000   012962   013778   013783   014386   013924   013125   012077   012097                                      
620004301110015 00420 4110101RN 43               0140000Inter A 16          0541121ALINCTHUN_2         0430850039904039904          00000000000187      000000                                                                                                                                 140064271  758    130061811    8    120058731    8    110059981    8    100060441    8    005654   005868   006197   006546   006496   006882   006965   007145   006917   006460   005956   006007                                      
620004301210015 00420 4110101Inter A 16          0140000RN 43               0541121ALINCTHUN_1         0430850039904039904          00000000000187      006535  928    005776   006111   006040   006238   006472   007084   007212   006923   006757   006714                                 140064671 1478    130061581 1668    120062361 1728    110064211 1878    100065851 1888    005706   005898   006202   006454   006466   006896   006818   007241   007007   006665   006121   006090                                      
600004500210015 00310 4110201Clermont RD 916A    0300000Beauvais Sortie     0530839LA RUE St PIERRE    0420000024386024386600005100300000000000188      010407 1177    009581   010003   010248   010597   010277   011330   009884   009649   011336   011187   010418                        140106091 1197    130101931 1197    120102751 1217    110106791 1247    100000001    0    009929   010271   010541   010807   010756   011424   010833   009113   011406   011362   010702   010194                                      
600004500310015 00310 4110201Beauvais sortie     0300000Clermont RD 916A    0530839LA RUE St PIERRE    0420000024386024386600005100300000000001287      020755 1187    019181   019933   020454   021078   020495   022591   019701   019282   022613   022289   020747                        140211441 1207    130203171 1197    120204921 1227    110213001 1257    100000001    0    019821   020505   021044   021517   021395   022831   021546   018191   022773   022611   021327   020227                                      
600004500110015 00310 4110201Beauvais sortie     0300000Clermont RD 916A    0530839LA RUE St PIERRE    0420000024386024386600005100300000000000188      010348 1207    009600   009930   010206   010481   010218   011261   009817   009633   011277   011102   010329                        140105351 1227    130101241 1207    120102171 1257    110106211 1287    100000001    0    009892   010234   010503   010710   010639   011407   010713   009078   011367   011249   010625   010033                                      
600005100310015 00310 4113001début dev Clermont  0550000A 1                 0731041CATENOY             0580600018036018036600005100300000000001287      000000                                                                                                                                 140000001         130018251    8    120122711 1278    110124211 1298    100121221 1288                                                                                                                                                   
600005100210015 00310 4113001A 1                 0550000début dév Clermont  0731041CATENOY             0580600018036018036600005100300000000001287      000000                                                                                                                                 140000001         130010041    8    120060251 1208    110060811 1228    100059621 1208                                                                                                                                                   
600005100110015 00310 4113001Début dév Clermont  0550000A 1                 0731041CATENOY             0580600018036018036600005100300000000001287      000000                                                                                                                                 140000001         130008211    8    120062461 1428    110063401 1448    100061601 1438                                                                                                                                                   
600005300310015 00310 4814001A 1                 0731041Compiegne RN 131    0790420Arsy                0750000005404005404600005100300000000001287      000000                                                                                                                                 140000008         130034108         120229318    0    110232128    0    100226548    0                                                                                                                                                   
620005400310015 00470 4110101Inter A21           0000000Echang3             0070200VENDIN              0010140006935006935          00000000000901      000000                                                                                                                                 140449301  267    130461691    7    120468741    7    110474021    7    100000001    0    044957   045805   045390   044980   044198   045579   043583   037630   046803   049791   046410   044250                                      
620005400210015 00470 4110101Echang 3            0000000Inter A 21          0070200VENDIN              0010140006935006935          00000000000901      000000                                                                                                                                 140210771   67    130218211    7    120235671    7    110236981    7    100233401    7    022784   023072   021071   019294   019397   019589   020735   016731   020618   023875   022773   023113                                      
620005400110015 00470 4110101Inter A21           0000000Echang 3            0070200VENDIN              0010140006935006935          00000000000901      000000                                                                                                                                 140238531  627    130243481    7    120233071    7    110237041    7    100000001    0    022173   022733   024319   025686   024801   025990   022848   020899   026185   025916   023637   021137                                      
620005700310015 00470 4813001Echang 3            0070200Limite Nord         0081278Douvrin             0080000002098002098          00000000000613      000000                                                                                                                                 140000008         130000008         120000008    0    110000008    0    100000008    0                                                                                                                                                   
600006001310015 10310 4110101RN 31               0000000RN 32 Clairoix      0070279VENETTE             0010500006840006840600008100300000000000194      000000                                                                                                                                 140351851  897    130343491    8    120324801    7    110332801    7    100000001    0    034755   035373   036015   037221   035763   037914   034832   031277   036508   035068   033667   033992                                      
600006001210015 10310 4110101RN 32 Clairoix      0000000RN 31               0070279VENETTE             0010500006840006840600008100300000000000194      000000                                                                                                                                 140177251  877    130172681    8    120163121    7    110167041    7    100000001    0    017528   017825   018119   018712   017939   019029   017574   015767   018361   017635   017092   017199                                      
600006001110015 10310 4110101RN 31               0000000RN 32 Clairoix      0070279VENETTE             0010500006840006840600008100300000000000194      000000                                                                                                                                 140174601  947    130170811    8    120161681    7    110165761    7    100000001    0    017227   017548   017896   018509   017824   018885   017258   015510   018147   017433   016575   016793                                      
620006100310015 04250 4813001RN 25               0000000RD 264              0001233St Catherine Les Arr0000500001233001233620001400300000000000104      000000                                                                                                                                 140000008         130000008         120000008    0    110000008    0    100000008    0                                                                                                                                                   
600007000210015 00310 4113001Aisne               0790420Compiegne RN 1031   1040134COMPIEGNE           0850406025714025714600008100302000250031287      004632 1747    004107   005599   004325   004342   004458   005162   004651   004044   004954   004895   004522                        140043721 1518    130040541 1578    120000001         110000001         100000001         003831   004183   004356   004561   004297   004695   004396   003839   004806   004733   004463   004312                                      
600007000310015 00310 4113001Compiegne RN 1031   0790420Aisne               1040134COMPIEGNE           0850406025714025714600008100302000250031287      009180 1757    008138   011269   008579   008593   008819   010227   009178   007910   009844   009696   008956                        140086611 1558    130079841 1618    120000001    0    110000001    0    100000001    0    007546   008298   008636   009061   008495   009317   008715   007595   009551   009412   008850   008480                                      
600007000110015 00310 4113001Compiegne RN 1031   0790420Aisne               1040134COMPIEGNE           0850406025714025714600008100302000250031287      004548 1777    004031   005670   004254   004251   004361   005065   004527   003866   004890   004801   004434                        140042891 1638    130039301 1668    120000001    0    110143161    0    100000001    0    003715   004115   004280   004500   004198   004622   004319   003756   004745   004679   004387   004168                                      
600008100110015 03300 4113001Belleville RN 2     0040239fin dév Ermenonville0100000ERMENONVILLE        0050800007149007149600008100300000000000188      004247 2037    003685   003659   003983   004220   004364   004822   004530   004114   004331   004634   004343                        140041961 2097    130040611 2137    120040991 2147    110043761 2207    100040471 2097    003661   003757   004001   004333   004234   004692   004426   004056   004634   004539   004147   003864                                      
600008100310015 03300 4113001Belleville RN 2     0040239fin dév Ermenonville0100001ERMENONVILLE        0050800007149007149600008100300000000001287      008504 2007    007277   007247   007854   008333   008618   009579   009138   008081   009015   009751   008580                        140083031 2027    130079561 2067    120081621 2097    110087381 2267    100080621 2137    007210   007455   007866   008625   008350   009286   008955   007954   009049   008999   008216   007660                                      
600008100210015 03300 4113001fin dév Ermenonville0040239Belleville RN 2     0100000ERMENONVILLE        0050800007149007149600008100300000000000188      004257 1987    003592   003588   003871   004113   004254   004757   004608   003967   004684   005117   004237                        140041071 1987    130038951 2007    120040631 2067    110043621 2297    100040151 2157    003549   003698   003865   004292   004116   004594   004529   003898   004415   004460   004069   003796                                      
600008200310015 03300 4813001fin dev Ermenonville0100000Senlis RN 324       0191107Fontaine Chaalis    0110000010184010184600008100300000000001287      010568                                                                                                                                 140000008         130098878         120101438    0    110108598    0    100100198    0                                                                                                                                                   
600008301310015 03240 4815001Senlis RN 17        0010000Senlis RN 330       0020284Chamant             0020000001194001194600000800300000000001287      015843                                                                                                                                 140000008         130165428         120172548    0    110000008    0    100197898    0                                                                                                                                                   
600009000110015 00310 4113001Clermont RD 916 A   0530839déb dév Clermont    0550000CLERMONT            0540594001839001839          00000000000513      008432 1187    008264   008683   008888   008686   007768   008275   008803   007284   008991   008727   008432                        140085241  998    130082621 1018    120000001    0    110000001    0    100000001    0    008272   008451   008638   008881   008693   009261   008328   007159   009016   008659   008660   008316                                      
600009000310015 00310 4113001Clermont RD 916 A   0530839déb dév Clermont    0550000CLERMONT            0540594001839001839          00000000000513      016719 1187    015967   016751   017211   016865   015853   017581   017695   014219   017958   017504   016378                        140165181  948    130160621    8    120000001         110000001         100000001         015915   016290   016680   017139   016842   017955   016177   013877   017578   016990   016752   016101                                      
600009000210015 00310 4113001déb dév Clermont    0530839Clermont RD 916A    0550000CLERMONT            0540594001839001839          00000000000513      008287 1187    007703   008068   008323   008179   008085   009306   008892   006935   008967   008777   007946                        140079941  918    130078001    8    120000001         110000001         100000001         007643   007839   008042   008258   008149   008694   007849   006718   008562   008331   008092   007785                                      
590009100310015 03550 4815001Lesquin (C.R.T.)    0040000Lesquin (A23)       0050755Lesquin             0040160001355001355590503902300000000000187      016784                                                                                                                                 140000008         130159778         120160898    0    110163588    0    100162848    0                                                                                                                                                   
600010000310015 00310 4113001début dev Beauvais  0170000Fin dev Beauvais    0290465BEAUVAIS            0180742012465012465          00000000000513      000000                                                                                                                                 140053331 1888    130051621 1928    120000001         110000001         100000001         004667   004791   004924   005454   005264   005777   005668   005549   005752   005778   005381   004974                                      
600010000210015 00310 4113001fin dev Beauvais    0170000début dev Beauvai   0290465BEAUVAIS            0180742012465012465          00000000000513      000000                                                                                                                                 140025681 1858    130024961 1868    120000001         110000001         100000001         002243   002304   002364   002639   002518   002785   002747   002672   002752   002788   002590   002401                                      
600010000110015 00310 4113001début dev Beauvais  0170000Fin dev Beauvais    0290465BEAUVAIS            0180742012465012465          00000000000513      002902 2227    002530   002689   002732   002796   002956   003221   003193   003008   002999   002994   002787                        140027651 1958    130026661 1988    120000001    0    110000001    0    100000001    0    002424   002487   002560   002815   002746   002992   002921   002877   003000   002990   002791   002573                                      
590010800310015 00210 1813001Waziers RD 500      0350000Escaudain           0530800Abscon              0480000018719018719          00000000000613      000000                                                                                                                                 140000008         130000008         120000008    0    110000008    0    100000008    0                                                                                                                                                   
590403000110015 00474N4112001Douvrin (Lim 62)    0000000Illies (RN 41)      0020602LA_BASSEE           0010001002534002534590403300100000000000309      013489 1027    012870   012505   013494   014007   012637   014468   013550   013045   015057   015074   011616                        140118301 1077    130121581 1087    120123061 1097    110120961 1127    100000001    0    013072   013069   012557   010435   002980   013359   011432   010931   013999   014146   013561   012666                                      
590403000310015 00474N4112001Douvrin (Lim 62)    0000000Illies              0020602LA_BASSEE           0010000002534002534590403300100000000000309      026834 1087    025529   025629   026876   027837   025398   029080   026700   025860   029841   029549   022833                        140234221 1227    130246201 1137    120249821 1177    110248651 1177    100000001    0    025698   025994   025151            002977   026625   023136   022129   027783   028063   026931   025110                                      
590403000210015 00474N4112001Illies (RN 41)      0000000Douvrin (Lim 62)    0020602LA_BASSEE           0010000002534002534590403300100000000000309      013345 1107    012659   013124   013382   013830   012761   014612   013150   012815   014784   014475   011217                        140115921 1307    130124621 1187    120126761 1207    110127691 1207    100000001    0    012626   012925   012594                     013266   011704   011198   013784   013917   013370   012444                                      
590403300210015 00410 4115001Echang 1            0030000La Bassee (RN 47)   0120094FOURNES             0100515009094009094590403300100000000000187      016987  528    015877   017352   015852   017855   016260   016343   016646   016933   018571   018391   016896   016961               140169471  668    130166541    8    120168541    8    110167381    8    100164261    8    016592   016895   017068   017407   016835   017873   016374   014012   017955   018067   017370   016996                                      
590403300310015 00410 4115001La Bassee (RN 47)   0030000Echang 1            0120094FOURNES             0100515009094009094590403300100000000000187      034127  548    032169   034369   033027   035488   032472   034548   033260   033106   037033   036578   034121   033523               140337891  688    130332211    8    120336581    8    110336851    8    100326311    8    032966   033565   034003   034652   033642   035922   032574   028025   035932   036133   034614   033605                                      
590403300110015 00410 4115001La Bassee (RN 47)   0030000Echang 1            0120094FOURNES             0100515009094009094590403300100000000000187      017140  588    016292   017017   017175   017633   016212   018205   016614   016173   018462   018187   017225   016562               140168421  718    130165671    8    120168041    8    110169471    8    100162051    8    016374   016670   016935   017245   016807   018049   016200   014013   017977   018066   017244   016609                                      
590403400310015 00410 4815001Echang 1            0120094Englos (A 25)       0161213Hallennes           0160515001963001963590403300100000000000501      000000                                                                                                                                 140000008         130000008         120000008    0    110000008    0    100000008    0                                                                                                                                                   
590405700310015 00490 4810201Echang.de Marly(A2) 0660000Echang.de Curgies   0660840Saultain            0660200000840000840590001800300000000000187      032153                                                                                                                                 140000008         130312758         120324618    0    110000008    0    100000008    0                                                                                                                                                   
620406000310015 02160 4813001A 216               0020000Zone Portuaire Calai0030744Calais              0030000001900001900620510000300000000000793      021988                                                                                                                                 140000008         130226398         120232428    0    110244588    0    100248838    0                                                                                                                                                   
590406199310015 00490 4850101Bavay (sortie devia)0950000Maubeuge (RN 2)     0980966Maubeuge            0980210003712003712          00000000000187      000000                                                                                                                                 140000008         130000008         120000008    0    110000008    0    100000008    0                                                                                                                                                   
590406500310015 02250 4810201Bergues (RD 916)    0000000Petite-Synthe(RD940)0100679Bierne              0030750010664010664590503502300000000000187      013153                                                                                                                                 140000008         130166588         120159168    0    110000008    0    100000008    0                                                                                                                                                   
590406700310015 02270 41104014Cantons            0000000Centre Ville        0011012QUATRE-CANTONS      0010165001854001854590501200100000000000187      000000                                                                                                                                 140000001         130000001         120000001    0    110000001    0    100000001    0                                                                                                                                                   
590406700210015 02270 4110401Centre Ville        00000004Cantons            0011012QUATRE-CANTONS      0010165001854001854590501200100000000000187      000000                                                                                                                                 140000001         130000001         120000001    0    110000001    0    100000001    0                                                                                                                                                   
590406700110015 02270 41104014Cantons            0000000Centre Ville        0011012QUATRE-CANTONS      0010165001854001854590501200100000000000187      000000                                                                                                                                 140000001         130449871         120000001    0    110000001    0    100000001    0                                                                                                                                                   
590406800310015 02270 4110201Centre Ville        0011012Pont de Bois        0030500CITE SCIENTIFIQUE   0030000001558001558590501200100000000000187      000000                                                                                                                                 140000001         130000001         120000001    0    110000001    0    100000001    0                                                                                                                                                   
590406800210015 02270 4110201Pont de Bois        0011012Centre Ville        0030500CITE SCIENTIFIQUE   0030000001558001558590501200100000000000187      000000                                                                                                                                 140000001         130000001         120000001    0    110000001    0    100000001    0                                                                                                                                                   
590406800110015 02270 4110201Centre Ville        0011012Pont de Bois        0030500CITE SCIENTIFIQUE   0030000001558001558590501200100000000000187      000000                                                                                                                                 140000001         130000001         120000001    0    110000001    0    100000001    0                                                                                                                                                   
590406900310015 02270 4110401Pont de Bois        0030500Babylone            0051136LE CHATEAU          0040000002629002629590501200100000000000187      000000                                                                                                                                 140000001         130000001         120000001    0    110000001    0    100000001    0                                                                                                                                                   
590406900210015 02270 4110401Babylone            0030500Pont de Bois        0051136LE CHATEAU          0040000002629002629590501200100000000000187      000000                                                                                                                                 140000001         130000001         120000001    0    110000001    0    100000001    0                                                                                                                                                   
590406900110015 02270 4110401Pont de Bois        0030500Babylone            0051136LE CHATEAU          0040000002629002629590501200100000000000187      000000                                                                                                                                 140000001         130000001         120000001    0    110000001    0    100000001    0                                                                                                                                                   
590408400210015 00210 1110201Waziers (RD 500)    0270557Flers/Esc (RN 421)  0350000DOUAI-DORIGNIES     0310875007952007952590501200100000000000102      021966  717    019952   020919   022290   023303   021873   022776   022728   019236   023955   023193   021411                        140213221  907    130204741    7    120198921    7    110198481    7    100000001    0    020263   020962   021575   022005   021157   022333   021270   018097   022691   023141   021866   020588                                      
590408400310015 00210 1110201Flers/Esc (RN 421)  0270557Waziers (RD 500)    0350000DOUAI-DORIGNIES     0310875007952007952590501200100000000000187      043661         039711   041602   044094   045271   043404   046830   044750   038009   047635   046413   042603                        140423731  897    130406731    7    120396481    7    110395621    7    100000001    0    040360   041773   042854   043699   042024   044434   041977   035886   045140   046026   043541   040947                                      
590408400110015 00210 1110201Flers/Esc (RN 421)  0270557Waziers (RD 500)    0350000DOUAI-DORIGNIES     0310875007952007952590501200100000000000104      021695         019759   020683   021804   021968   021531   024054   022022   018773   023680   023220   021192                        140210511  887    130201991    7    120197561    7    110197141 1067    100000001    0    020097   020811   021279   021694   020867   022101   020707   017789   022449   022885   021675   020359                                      
590408799310015 03490 4850201Tourcoing(Bd.Forest)0010000A22 (ech.Tourc.Nord)0010232Tourcoing Oouest    0010232000232000232590501200100000000000187      000000                                                                                                                                 140000008         130000008         120000008    0    110000008    0    100000008    0                                                                                                                                                   
590408900310015 03560 4110601Hellemmes (R.Perrin)0000000Lille (RN 351)      0001089LOUIS_XIV_1         0000500001089001089590409500100000000000101      000000                                                                                                                                 140000001         131445701         121571971    0    110000001    0    100000001    0                                                                                                                                                   
590408900210015 03560 4110601Lille (RN 351)      0000000Hellemmes (R.Perrin)0001089LOUIS_XIV_1         0000500001089001089590409500100000000000101      000000                                                                                                                                 140000001         130676961         120759491    0    110000001    0    100000001    0                                                                                                                                                   
590408900110015 03560 4110601Hellemes (R.Perrin) 0000000Lille (RN 351)      0001089LOUIS_XIV_1         0000500001089001089590409500100000000000101      000000                                                                                                                                 140000001         130768741         120812481    0    110000001    0    100000001    0                                                                                                                                                   
590409500310015 03560 4110401Lille (Pont Fives)  0001089Lille (Rue de Flers)0010400DARWIN              0010000000955000955590409500100000000000189      000000                                                                                                                                 140000001         130000001         120000001    0    110000001    0    100000001    0                                                                                                                                                   
590409500210015 03560 4110401Lille (Rue de Flers)0001089Lille (Pont Fives)  0010400DARWIN              0010000000955000955590409500100000000000189      000000                                                                                                                                 140000001         130000001         120000001    0    110000001    0    100000001    0                                                                                                                                                   
590409500110015 03560 4110401Lille (Pont Fives)  0001089Lille (Rue de Flers)0010400DARWIN              0010000000955000955590409500100000000000189      000000                                                                                                                                 140000001         130000001         120000001    0    110000001    0    100000001    0                                                                                                                                                   
590409600310015 03560 4810401Lille (Rue de Flers)0010400Lille (RD 14)       0011003Rue de Fers-RD14    0010800000603000603590409500100000000000189      000000                                                                                                                                 140000008         130000008         120000008    0    110000008    0    100000008    0                                                                                                                                                   
590409700310015 03560 4810401Lille (RD14)        0011003Wasquehal (A 22)    0031000RD14 - RD48         0020500001986001986590409500100000000000189      000000                                                                                                                                 140000008         130000008         120000008    0    110000008    0    100000008    0                                                                                                                                                   
590409900310015 03350 4810201Coudekerque (RN 336)0000000Rosendael (RN 1)    0000870Coudekerque         0000500000870000870590505200100000000000190      011361                                                                                                                                 140000008         130121728         120121108    0    110120508    0    100117598    0                                                                                                                                                   
590410200110015 00210 1110201Escaudain (RD 81)   0530800A 2                 0570500LOURCHES            0560700004263004263          00000000000190      013806         013490   005103   014869   013313   014160   015861   014658   012677   015772   016011   015062   014014               140142581         130136551         120132871    0    110136721    0    100129251    0    013588   014200   014495   014832   014035   015150   014019   011960   015143   015515   014456   013776                                      
590410200310015 00210 1110201Escaudain (RD 81)   0530800A 2                 0570500LOURCHES            0560700004263004263          00000000000190      027237         022762   015572   029899   024508   028340   031940   029301   025372   031578   031559   030207   024981               140142581         130241951         120251311    0    110278481    0    100263061    0    013588   014200   014495   014832   014035   015150   014019   011960   015143   015515   014456   013776                                      
590410200210015 00210 1110201A 2                 0530800Escaudain (RD 81)   0570500LOURCHES            0560700004263004263          00000000000190      013431         009272   010469   015030   011195   014180   016079   014643   012695   015806   015548   015145   010967               140000001         130105401         120118441    0    110141761    0    100133811    0    000000   000000   000000   000000   000000   000000   000000   000000   000000   000000   000000   000000                                      
590410300310015 03560 4813001Wasquehal A 22      0031000Wascquehal RN 352   0060324Wasquehal           0050390001714001714          00000000000613      000000                                                                                                                                 140000008         130000008         120000008    0    110000008    0    100000008    0                                                                                                                                                   
590410900310015 03160 4810201A 16                0000000Loon-Plage          0020890Loon-Plage          0000500002977002977590504900300000000000194      005133                                                                                                                                 140000008         130051348         120050648    0    110000008    0    100000008    0                                                                                                                                                   
590411900210015 0002004810201LOUVROIL ( RD 121 ) 0260000HAUTMONT SUD (RN 2) 0270755LOUVROIL            0260638001755001755590412000200000000000605      002225                                                                                                                                 140000008         130022148         120021578         110020308         100000008                                                                                                                                                        
590411900310015 0002004810201LOUVROIL ( RN 2 )   0260000HAUTMONT SUD (RD121)0270755LOUVROIL            0260638001755001755590412000300000000000605      000000                                                                                                                                 140000008         130000008         120000008         110000008         100000008                                                                                                                                                        
590412000210015 0002004110201Feignies RN 49      0270000Echang 4            0291606HAUTMONT            0280303003606003606590412000300000000000605      004599 1337    003389   003934   003904   004867   004907   005243   004816   004436   004951   005328   004793                        140046701 1077    130045761 1097    120044581 1147    110041941 1267    100000001    0    004499   004699   004787   005072   004543   005142   004791   004041   004790   004517   004581   004613                                      
590412000310015 0002004110201Echang 4            0270000Feignies RN 49      0291606HAUTMONT            0280303003606003606590412000300000000000605      014010 1097    011374   012248   013287   014641   014320   015898   014327   013518   015043   014898   014509                        140140901  947    130139491    7    120138471    7    110135691 1057    100000001    0    013547   013831   014024   014773   013979   015187   014404   012500   014507   014270   013973   014135                                      
590412000110015 0002004110201Echang 4            0270000Feignies RN 49      0291606HAUTMONT            0280303003606003606590412000300000000000605      009411  857    007985   008314   009383   009774   009413   010655   009511   009082   010092   009570   009716                        140094201  827    130093731    7    120093891    7    110093751    7    100000001    0    009048   009132   009237   009701   009436   010045   009613   008459   009717   009753   009392   009522                                      
590412100310015 00020 4810101HAUTMONT ( RD 195 ) 0290080FEIGNIES ( RN 49 )  0291606HAUTMONT            0290715001526001526590412000300000000000605      011354                                                                                                                                 140000008         130113058         120112238         110109918         100000008                                                                                                                                                        
590415000210015 0002004110201Louvroil (RN 2002)  0210000Echang 3            0270000BEAUFORT            0220000006000006000          00000000000605      004482 1457    004083   004377   004490   004482   004363   004891   004522   004056   004763   004819   004426   004525               140043721 1457    130032141 1487    120000001    0    110000001    0    100000001    0    004092   004265   004330   004539   004391   004614   004429   003939   004635   004635   004423   004189                                      
590415000310015 0002004110201Echang 3            0210000Louvroil (RN 2002)  0270000BEAUFORT            0220000006000006000          00000000000605      009141 1477    008318   008919   009132   009032   008862   009981   009190   008414   009765   009850   009035   009216               140089041 1477    130064421 1527    120000001    0    110000001    0    100000001    0    008320   008643   008807   009207   008926   009420   008950   008067   009436   009522   009017   008555                                      
590415000110015 0002004110201Echang 3            0210000Louvroil (RN 2002)  0270000BEAUFORT            0220000006000006000          00000000000605      004659 1517    004235   004542   004642   004550   004499   005090   004668   004358   005002   005031   004609   004691               140045321 1517    130032281 1567    120000001    0    110000001    0    100000001    0    004228   004378   004477   004668   004535   004806   004521   004128   004801   004887   004594   004366                                      
620500000110015 02110 1110231Avion               0000000A 21                0020810LENS-GARE           0010550002813002813620500700100000000000187      018943  607    018963   019731   020122   020692   019080   021597   018919   017452   020833   020796   012112   017073               140196181  487    130192751    7    120193591    7    110184941    0    100181951    7    019165   019519   019990   020391   019692   020360   018601   016586   020668   021046   020000   019479                                      
620500000310015 02110 1110231Avion               0000000A 21                0020810LENS-GARE           0010550002813002813620500700100000000000187      037694  637    037931   034069   034988   041022   038171   043038   038148   034540   041227   041159   031368   036497               140390081  537    130380021    7    120379001    7    110373041    0    100363371    7    037906   038981   039703   040649   039035   040379   036966   032868   041202   041755   039871   038970                                      
620500000210015 02110 1110231A 21                0000000Avion               0020810LENS-GARE           0010550002813002813620500700100000000000187      018751  647    018968   014338   014866   020330   019091   021441   019229   017088   020394   020363   019256   019424               140193901  557    130187271    7    120185411    7    110188101    7    100181421    7    018741   019462   019713   020258   019343   020019   018365   016282   020534   020709   019871   019491                                      
590500100310015 00010 1110431Carvin (limite 62)  0000000Seclin              2010315MARTINSART          2000400007890007890          62050040030187      000000                                                                                                                                 140000001         131096541 154     120997061    0    110000001    0    100000001    0                                                                                                                                                   
590500100210015 00010 1110431Seclin              0000000Carvin (limite 62)  2010315MARTINSART          2000400007890007890          62050040020187      000000                                                                                                                                 140000001         130553661 160     120452891    0    110000001    0    100000001    0                                                                                                                                                   
590500100110015 00010 1110431Carvin (limite 62)  0000000Seclin              2010315MARTINSART          2000400007890007890          62050040010187      000000                                                                                                                                 140000001         130542881 147     120544171    0    110000001    0    100000001    0                                                                                                                                                   
080500110310015 10430 4810201RN 43               0110000Ech Frénois         0161083Bazeilles à Frenois 0130000006061006061080500200300000000000203      013130                                                                                                                                 140000008         130124048         120120548    0    110118158    0    100127568    0                                                                                                                                                   
080500200110015 00340 1110241Ech Frénois         0170000Moulin Blanc        0320463VIVIER AU COURT     0250000015349015349510001700300000000000187      013656 1047    012428   013337   013343   013840   013448   014578   013347   013045   014592   014632                                 140136781 1037    130123131 1117    120116381 1247    110109371 1257    100128641    7    012764   013114   013490   014132   013793   014430   013890   012308   014774   014431   013691   013339                                      
080500200310015 00340 1110241Ech Frénois         0170000Moulin Blanc        0320463VIVIER AU COURT     0250000015349015349510001700300000000000187      027268 1087    025082   026665   026708   027615   026792   029040   026569   025967   029086   029223                                 140272781 1077    130257591 1067    120250351 1077    110245371 1077    100264911    0    025484   026176   026907   028218   027474   028706   027555   024666   029522   028783   027340   026545                                      
080500200210015 00340 1110241Moulin Blanc        0170000Ech Frénois         0320463VIVIER AU COURT     0250000015349015349510001700300000000000187      013612 1107    012654   013328   013365   013775   013344   014462   013222   012922   014494   014591                                 140136001 1087    130134451 1027    120133971    7    110136001 1007    100136271    0    012720   013062   013417   014086   013681   014276   013665   012358   014748   014352   013649   013206                                      
590500300310015 00010 1110631Seclin              2010315Ronchin             2080350FACHES              2070050007043007043          00000000000187      000000                                                                                                                                 140000001         131470431         121396361    0    110000001    0    100000001    0                                                                                                                                                   
590500300210015 00010 1110631Ronchin             2010315Seclin              2080350FACHES              2070050007043007043          00000000000187      000000                                                                                                                                 140000001         130739831         120695611    0    110000001    0    100000001    0                                                                                                                                                   
590500300110015 00010 1110631Seclin              2010315Ronchin             2080350FACHES              2070050007043007043          00000000000187      000000                                                                                                                                 140000001         130730601         120700751    0    110000001    0    100000001    0                                                                                                                                                   
620500300310015 00010 1110441Dourges A 21        1870000Limite Nord         1930393SEADOURGES          1870500006438006438620500700100000000000187      000000                                                                                                                                 141114181 1727    131015791 1767    121078121 1727    111091901 1787    101098731 1787    104313   103791   104128   108690   111387   118641   117600   111761   117816   118348   111400   108746                                      
620500300210015 00010 1110441Limite Nord         1870000Dourges A 21        1930393SEADOURGES          1870500006438006438620500700100000000000187      000000                                                                                                                                 140567131 1737    130516091 1757    120549661 1717    110562641 1787    100564171 1817    053152   052849   053068   055731   057095   060804   060471   054823   059944   060453   056539   055447                                      
