890003000310015 01510 4112001COURSON             0120000AUXERRE             0330650VALLAN              0310485021650000000890003000300000000000309      006004 1087    005312   005539   005663   006349   006264   006630   006641   006298   006167   006022   005525   005618               140061711 1077    130061071 1077    120000001         110064711 1157    100064241 1117    005449   005503   005699   006337   006273   006563   006819   006776   006432   006429   005955   005772                                      
890002900310015 01510 4812001Dpt. 58             0000000Courson             0120000Fretoy              0070000012000000000890003000300000000000309      004431                                                                                                                                 140045558         130045088         120000008         110047778         100047438                                                                                                                                                        
890002700310015 00770 4813001ST FLORENTIN        0290000AUBE                0400602Les Buissons        0340000010664000000890002300300000000000195      008077                                                                                                                                 140057988         130058908         120000008         110068128         100063378                                                                                                                                                        
890002300310015 00770 4113001RD203               0050053ST_FLORENTIN        0290000PONTIGNY            0190600023504000000890002300300000000000379      005542 1357    003304   003456   003555   004011   004176   004603   018926   008005   004480   004202   003823   003586               140039781 1977    130040411 1837    120000001         110046731 1727    100043471 1827    003372   003365   003647   004092   004044   004292   004641   004662   004393   004095   003633   003461                                      
890002299310015 00770 4853001AUXERRE             0000000RD203               0050053Auxerre RN77        0010000005067005067890002300300000000000195      005636                                                                                                                                 140040468         130041118         120000008         110047558         100044248                                                                                                                                                        
890002200310015 00650 4112001A6                  0000000AUXERRE             0041653VENOY               0030200005653000000890002300300000000000309      008162 0967    007391   007975   008026   008464   008043   008734   008292   007575   008817   008403   008070   008174               140081241 1007    130079101 1007    120000001         110083431    7    100081871    7    007364   007792   007823   008150   008024   008576   008496   008084   008574   008798   007967   007833                                      
890001001310015 00060 4812001Périgny             0820282RN65                0880140Auxerre RN6         0860000005858000000890001000300000000000309      012136                                                                                                                                 140120608         130119488         120000008         110120388         100120488                                                                                                                                                        
890001000310015 00060 4112001APPOIGNY            0780000PERIGNY             0820282CHESNEZ             0810785005000000000890001000300000000000309      023915 0937    022289   023734   023344   024885   023216   025145   025454   020964   024652   024787   023869   024721               140237651 0927    130235441 0947    120000001         110237211    7    100237401    7    022828   023837   023767   024251   023623   024838   023524   020934   024777   025028   023761   024101                                      
730002700310015 02010 4110401LA BOISSE           0040600VILLARCHER RN504    0080720CHAMBERY_VRU        0050400004414000000890001000300000000000200      100778 2057    097926   103450   106291   102906   093866   103406   104852   096447   103109   100606   093872   102868               140998911 2327    130995931 0797    120000001         111000161         100996651    7    098593   104610   106647   102242   092263   100873   102471   094414   101026   100832   095337   099836                                      
730002600310015 02010 4110401A43 SUD             0000000LA BOISSE           0040600MONTS               0030380004680000000890001000300000000000200      000000                                                                                                                                 140000001         130000001         120000001         110887911    7    100869531    7                                                                                                                                                   
730002200310015 00900 4113001AIME                0640690BOURG_ST_MAURICE    0750550BONCONSEIL          0720400011434000000890001000300000000000200      007115         010403   010991   011606   010401   004106   004216   005176   005564   003994   004974                                 140096331 0647    130096541 0667    120000001         110097391    7    100096471    7    010168   010776   012146   010365   007414   008529   010319   010969   008034   008159   008400   010322                                      
730002102310015 00900 4113001MONGIROD            0580585AIME                0640690PT_DE_LA_TOUR       0610522006105000000890001000300000000000200      012356 0837    013506   015466   015357   013057   009288   010777   012834   013447   010459   010409   010491   013325               140121571 0877    130121851 0977    120000001         110122201 1147    100121481 1207    013080   014339   016394   012900   009060   010538   012102   013231   010444   010421   010297   013150                                      
730002101310015 00900 4113001ST_MARCEL           0550250MONTGIROD           0580585TUNNEL_SIAIX        0560770003335000000890001000300000000000200      000000                                                                                                                                 140000001         130113621 0567    120000001         110113751    7    100111971                                                                                                                                                        
730002100310015 00900 4113001MOUTIERS            0500000ST_MARCEL           0550250MOUTIERS_EST        0500865005250000000890001000300000000000200      013501 0817    014843   016882   016850   013982   010196   011765   013845   014411   011596   011605   011571   014619               140136751 0777    130136671 0777    120000001         110138201    7    100137611    7    014785   016098   017891   014438   010421   011980   013800   014654   011860   011928   011669   014650                                      
730002000310015 00900 4110101FEISSONS/ISERE      0400500MOUTIERS            0500000LA_LECHERE          0410800009538000000890001000300000000000200      000000                                                                                                                                 140000001         130197681 0557    120000001         110201621    7    100196631    7                                                                                                                                                   
730001900310015 00900 4110101PIERRE_DU_ROY       0230980FEISSONS/ISERE      0400500CEVINS              0340000016546000000890001000300000000001291      024069 0577    028220   029627   032252   026884   019615   021973   024720   025309   021829   018007   011741   028744               140249641 0577    130244771 0587    120000001         110240101    7    100231601    7    027807   030430   033791   026586   019179   021228   024164   024827   021736   021802   021523   026729                                      
730001800310015 00900 4110201BORNERY CAR. RD990  0190000PIERRE_DU_ROY RN212 0230980GILLY/ISERE         0200020004538000000890001000300000000001200      030128 0697    033764   035133   037746   033099   026705   029490   032172   031946   029224   023590   014850   033859               140320301 0707    130314701 0717    120000001         110314531    7    100309151    7    033081   036228   039309   032288   026519   029843   032600   032771   029659   029299   029876   033083                                      
710003700310015 00790 4112001CHARNAY_LES_MACON   0780800MACON               0800108VARENNES            0790800002900000000890001000300000000000309      014143 2407    011786   013396   013402   014632   013850   014280   016742   016167   014515   014434   012840   013593               140137131 2447    130135861 2427    120000001         110109421 2417    100088891 2287    011570   012358   013652   013740   013253   014254   015898   015461   014478   014288   012406   013064                                      
710003600310015 00790 4112001LA ROCHE VINEUSE    0700850CHARNAY_LES_MACON   0780800PRISSE              0730800007800000000890001000300000000000309      015507 2247    012851   014753   014529   016058   015504   014509   018466   018333   016084   015814   014117   014948               140152851 2267    130152251 2327    120000001         110150941 2357    100145881 2397    012916   013771   015376   015470   015240   015493   016536   018277   016081   015822   013729   014553                                      
710002900310015 00800 4112001SAINT_DESERT        0200700ECUISSES            0390385LES_BAUDOTS         0320720018685000000890001000300000000000309      017450 2047    000000   010848   019434   021070   020423   022510   018592   020270   016494   019726   019930   019798               140177501 1768    130188081 2018    120000001         110000001         100186191 2227    016786   017148   018120   019154   018509   020472   021077   020990   021004   020988   018973   000000                                      
710002800310015 00800 4112001Saint Rémy          0110000Saint Désert        0200700GIVRY               0190000009700000000890001000300000000000309      021494 2237    018361   019718   020124   021993   021353   023364   023555   023146   022030   022140   020919   021130               140207061 2207    130204641         120000001         110000001         100209491         018546   019228   020029   021298   020542   022248   022672   022399   021093   020836   019675   019813                                      
710002600310015 00790 4112001STE_CECILE          0610440LA ROCHE VINEUSE    0700850LE_BOISCLAIR        0640200009500000000890001000300000000000309      000000                                                                                                                                 140000001         130000001         120000001         110000001         100000001                                                                                                                                                        
710002500310015 00790 4112001BRANDON             0540250STE_CECILE          0610440STE_CECILE          0590400007250000000890001000300000000000309      012339 2627    010297   011920   011589   012565   012144   011693   014846   014944   012779   012325   011173   011727               140121871 2677    130122511 2647    120000001         110125551 2607    100125941 2597    010386   011075   011880   012258   011817   012319   013915   014875   012703   012580   010759   011547                                      
710002300310015 00790 4812001Charolles           0260700BRANDON             0540250La Fourche          0330000027550000000710002600300000000000311      000000                                                                                                                                 140000008         130000008         120000008         110000008         100000008                                                                                                                                                        
710002200310015 00790 4812001Les Cadolles        0180250Charolles           0260700La Redoute          0190550008450000000710001900300000000000309      014786                                                                                                                                 140152898         130158148         120000008         110159668         100157278                                                                                                                                                        
710002100310015 00790 4112001PARAY OUEST         0080135LES CADOLLES        0180250VOLESVRES           0160200010115000000710001900300000000000309      010316 2907    008707   010270   009673   010560   010105   010049   012446   013023   010412   010110   008836   009555               140104701 2877    130104521 2937    120000001         110102571 2937    100100191 2957    008822   009402   010625   010249   009979   010514   012066   013126   011063   010763   009042   009852                                      
710001900310015 00790 4112001Dpt. 03             0000000PARAY OUEST         0080135CHIZEUIL            0040800008135000000710001900300000000000309      015451 3897    012215   014002   013626   015197   015684   015178   019137   021425   015603   015069   013796   014276               140159761 2368    130165241 1218    120000001         110166821 3507    100164321 3517    013239   014066   015797   016352   016231   017368   020583   020985   015589   014540   012878   013841                                      
710001000310015 00700 4812001SAINT VALLIER       0290250RN80 Rond Point J Ba0471018Pont des Morands    0470000019277000000710000800300000000000311      018720                                                                                                                                 140188348         130000008         120000008         110184738         100183938                                                                                                                                                        
710000800310015 00700 4112001GENELARD            0190750ST_VALLIER          0290250ROZELAY             0270800009500000000710000800300000000000309      018343 2387    016056   016632   016986   018755   018598   020104   020773   020545   018448   018509   016998   017567               140184541 2317    130000001         120000001         110181001 2267    100180211                           016999   018407   018051   019876   020248   020635   019729   018267   016849   017356                                      
710000700310015 00700 4812001Paray le Monial     0050000Genelard            0190750St-Vincent-de-Bragny0110750014450000000710002100300000000000309      011881                                                                                                                                 140120598         130120398         120000008         110118158         100115418                                                                                                                                                        
690502000310015 00470 1110231A7                  0000000Ech.ENTREE 11       0130990GIVORS_COMMERC      0040450014500000000710002100300000000000205      055806 1317    051223   053376   055449   058111   055772   058909   059348   055915   058004   053381   054452   055701               140555861 1297    130562311 1347    120000001         110604151         100602831         051818   054221   057090   056908   053365   058808   059586   056177   057415   053202   053457   054989                                      
690501702310015 04500 1110441PIERRE_BENITE       0000000BRIGNAIS            0070969IRIGNY              0020800007969000000710002100300000000000206      055375 0707    053990   055567   057706   057236   052885   059973   053423   042482   058231   059148   057343   056893               140542801 0707    130539601 0727    120000001         110531181    7    100522631    7    054286   056408   054926   057326   052595   056529   054110   040364   056866   058373   054769   055287                                      
690501501310015 00430 1150441MERMOZ              0000000SORTIE BD DU 8 MAI  0030401ECH_8_MAI           0020500003400003400710002100300000000000206      134610 0427    132035   136754   141107   137256   127201   141852   135099   114657   136635   140930   135918   136506               141340661 0417    131319361 0417    120000001         111277841    7    101273081    7    132917   137275   137463   135611   131860   137399   132954   112163   139807   142088   134163   135743                                      
690501203310015 00420 1110241PONT CROIX_LUIZET   0000000Ech. MIRIBEL        0040329GRAPPINIERE         0020000004329000000710002100300000000000206      097983         096145   095341   098045   096361   096075   108315   097743   088645   102595   102017   097442   097233               140000001         130000001         120000001         110938511    7    100911131    7                                                                                                                                                   
690501101310015 00070 1110441Ech. RD36 SOLAIZE   0130350Ech. A47 GIVORS     0200330COMMUNAY            0160830006980000000710002100300000000000206      096018 0907    081876   085493   089920   100407   098475   102579   107894   106871   098793   096489   090055   092605               140957451 0887    130941791 0897    120000001         110967001    7    100956701 1087    082874   085665   088779   097834   096800   105223   108995   107526   099824   096135   087790   090761                                      
690500900310015 00070 1150441Ech. P.B.S. A74     0060440Ech. RD36 SOLAIZE   0130350ST_FONS             0070918006910006910710002100300000000000206      143061 0837    128899   133911   140331   149035   142932   153126   154170   143209   147919   145577   138898   138388               141419641 0837    131402901 0857    120000001         111434571    7    101401761    7    130178   134793   136122   146433   141682   151351   153351   142418   148252   146565   134377   137765                                      
690500702310015 00070 1150441SORTIE QUAI SEMARD  0040200Ech. P.B.S. A74     0060440PIERRE_BENITE       0040750002240002240710002100300000000001294      103846 0617    098584   096624   104322   107699   102728   107948   107007   097345   102995   107253   105224   108006               141048681 0637    131050901 0657    120000001         111060381    7    100000001         100142   103902   103002   109092   106409   112239   111603   100743   106364   101713   097811   105503                                      
690500600310015 00070 1150441PONT LA MULATIERE NO0010527SORTIE QUAI SEMARD  0040200MULATIERE           0020500002673002673710002100300000000000206      098574 0647    104158   106525   105278   101017   094067   099243   100395   092335   094395   095508   095493   095108               141130991 0597    130980701 0707    120000001         110942481    7    100000001         106495   109470   110883   112320   114066   119837   122740   111789   117204   112926   108543   110741                                      
690500501310015 00070 1150441RUE M.A. PETIT      0000000PONT LA MULATIERE NO0010527QUAI_PERRACHE       0010220001527001527710002100300000000001294      107311 0837    103356   106109   111682   115039   105992   105721   109076   100016   104824   106947   109681   109370               141082681 0877    131057241 0857    120000001         111096751    7    101087611    7    104793   107356   106782   110259   110168   111918   112570   102077   111591   107776   106378   107689                                      
690500400310015 00060 1150241TUNNEL FOURVIERE    4540000TREMIE PERRACHE SUD 4550616FOURVIERE_SUD       4540800001616001616710002100300000000000206      085566 0777    082998   085134   091678   096696   085061   060158   091339   087314   082277   082930   090905   089862               140939181 0757    130962361 0757    120000001         111039821    7    101014971    7    091423   093341   095379   097128   095573   098015   100290   094008   097138   088217   087100   089470                                      
690500200310015 00060 1150741Ech. ECULLY SUD     4490200TUNNEL FOURVIERE    4540000ECULLY              4500720004800004800710002100300000000000200      115292 0537    101878   112255   112164   122678   109198   119263   109676   116163   123701   119489   116210   121194               141189021 0587    131185441 0587    120000001         111180291    7    101147521    7    114210   117621   117820   123672   119079   125021   126730   120711   125914   121815   110471   103934                                      
690500105310015 00060 1150441DARDILLY LE TRONCHON4470520Ech. ECULLY SUD     4490200CHAMPAGNE           4480590001680001680710002100300000000000200      105313 0637    095641   098699   096759   102059   105267   112245   113984   111217   108958   107436   103572   107459               140000001         131055401 0647    120000001         111059051    7    101081811    7                                                                                                                                                   
690500103310015 00060 1110741Ech. LIMONEST       4450323DARDILLY LE TRONCHON4470520DARDILLY            4460690002520000000710002100300000000000188      087227 0657    077269   075095   079482   091563   089149   092437   095734   097124   088942   087123   084083   087806               140851691 0697    130861841 0717    120000001         110868841    7    100872971    7    079104   080779   082594   085726   087688   086901   091504   094817   087684   084303   080510   079997                                      
690020800310015 04890 4110201Ech. RN7            0000000Ech. RN6            0020624DARDILLY_DEV        0010500002624000000710002100300000000000206      000000                                                                                                                                 140000001         130281071 0737    120000001         110233561    7    100229871                                                                                                                                                        
690006800310015 03460 4110201Ech. GD LARGE N RD510320000Ech. MI_PLAINE N RN60400883ST_PRIEST           0390485008883000000710002100300000000001094      081093 1847    075121   079601   082436   082075   076173   086788   085650   075167   085525   085231   079722   079802               140782601 1877    130788221 1837    120000001         110794731 1877    100816201 1837    075553   080425   079060   082564   071977   081784   083358   071572   082164   079890   074988   076261                                      
690006200310015 03460 4110201Ech. RIZE SUD RD55  0250000Ech. GD LARGE N RD510320000LAMARTINE           0310495007000000000710002100300000000001094      066680 2127    068947   067043   058906   059242   056841   063394   066587   059456   078009   076647   072527   072805               140724381 1937    130729001 1927    120000001         110749601 1867    100771491 1867    068267   074078   073596   076153   068999   075128   075936   069866   074894   073685   068963   070024                                      
690002500310015 00070 4813001Ech. A46 Sud        0730000Dpt. 38             0760349Communay Les Pins Te0750000002348000000000000000000000000000206      000000                                                                                                                                 140000008         130000008         120000008         110000008         100000008                                                                                                                                                        
690001801310015 00070 4113001Carf. RD73 Arb.     0280189Entrée TASSIN       0400890FLEURIEUX           0310600012291000000000000000000000000000206      015180 0697    014547   014759   015643   015228   014886   016559   014759   012539   015992   016081   015754   015465               140000001         130146811 0787    120000001         110000001         100000001                                                                                                                                                        
690001700310015 00070 4813001Carf. RD38          0180360Carf. RD73Arb       0280189Bully Temporaire    0240100009829000000690001600300000000000206      012493                                                                                                                                 140121408         130120238         120000008         110148298         100146608                                                                                                                                                        
690001600310015 00070 4113001Dev. PONTCHARRA EST 0180000Carf. RD38          0180360PONTCHARRA          0180150000360000000690001600300000000000206      015000 0707    013929   014438   015518   015946   014901   016207   015121   012657   015708   015508   015254   014864               140145751 0797    130144341 0867    120000001         110178021    7    100175991         014115   014337   014430   015207   014460   015467   014761   012334   015287   015556   014747   014254                                      
690001500310015 00070 4813001Dev. Pontcharra W   0150000Dev. Pontcharra E   0180000Pontcharra dév. Temp0170000003000000000690001600300000000000206      012497                                                                                                                                 140121438         130120268         120000008         110148338         100146648                                                                                                                                                        
690001400310015 00070 4843001Entrée Tarare Ouest 0100250Dev. Pontcharra W   0150000Tarare Temporaire   0120000004750004750690001600300000000000206      006929                                                                                                                                 140067338         130066688         120000008         110082258         100081328                                                                                                                                                        
690001300310015 00070 4115001COL DU PIN BOUCHAIN 0000000Entrée TARARE OUEST 0100250TARARE_OUEST        0090150010250000000690001600300000000000200      005598 0657    005064   005232   005618   005655   004659   006003   006263   005621   006014   005904   005608   005528               140059241 0857    130060921         120000001         110000001         100070771         005417   005638   005827   006139   005974   006488   006202   005653   006248   006226   005784   005491                                      
690000601310015 00060 4140201Ech. RD73D          0400000Ech. A6 DARDILLY    0420150DARDILLY_LES_BROSSES0410000002030002030690001600300000000000206      000000                                                                                                                                 140000001         130000001         120000001         110000001         100000001                                                                                                                                                        
580002701310015 01510 4112001Sud Dev.            0510878Dpt. 89             0580730CLAMECY             0530532006852000000690001600300000000000311      003019 2507    002462   002665   002762   003154   003273   003416   003694   003796   003288   003062   002107   002510               140031581 2477    130031041 2487    120000001         110000001         100032481         002492   002581   002711   003173   003195   003532   003776   004243   003441   003208   002767   002734                                      
580002600310015 01510 4813001VARZY               0350958CLAMECY-NORD        0510878St-Pierre-du-Mont   0400000019090000000580002500300000000000311      002159                                                                                                                                 140022138         130021298         120000008         110022728         100022528                                                                                                                                                        
580002500310015 01510 4112001CHATEAUNEUF V.BARGIS0200512VARZY               0350958LES_PONTOTS         0260000015446000000580002500300000000000309      002141 1967    001671   001842   001938   002196   002242   002368   002568   002698   002257   002115   001913   001855               140021941 1488    130021101 1448    120000001         110022511 2157    100022311 1478    001682   001776   001907   002178   002148   002435   002961   002790   002372   002229   001958   001861                                      
580002300310015 01510 4812001Dpt. 18             0000000CHATEAUNEUF V.BARGIS0200512La Charité          0010500020331000000580002500300000000000311      002071                                                                                                                                 140021238         130020428         120000008         110021798         100021608                                                                                                                                                        
580001200310015 00070 4112001ST_PIERRE           0920100Dpt. 03             1070760LE_MOUTIER          0950700015660000000580002500300000000000307      014041 3337    010917   012661   012422   014371   014686   014463   017447   018861   014233   013985   011806   012467               140138661 3317    130137121 3357    120000001         110140001 3367    100136491 3357    010834   011894   012909   014288   013899   014607   016630   018537   014222   013894   012020   012469                                      
580001101310015 00770 1110241NEVERS              1480000ST_PIERRE           1641118PLAGNY              1640200017200000000580002500300000000000507      007119 2067    005285   006260   006174   007458   007454   007450   009268   009028   006993   007612   005944   006408               140133451 2067    130131911 2027    120000001         110000001         100000001         010436   011320   012325   013981   013662   014593   015351   016750   013880   014012   011701   011966                                      
580001007310015 00070 4812001Chaume des pendus   0770000St Pierre le Mtier  0920100Magny-Cours         0820000015100000000580001200300000000000309      012712                                                                                                                                 140125548         130124158         120000008         110126768         100123598                                                                                                                                                        
580000600310015 00770 1110241SUD LA MARCHE       1390600NEVERS              1480000PRIEZ               1440415008400000000580001200300000000000309      000000                                                                                                                                 140000001         130000001         120000001         110000001         100172181 1517                                                                                                                                                   
580000400310015 00770 1110241Dev. Cosne          1130900SUD LA MARCHE       1390600LA_CHARITE          1270640025700000000580001200300000000000307      014096 2007    011059   012562   012611   014657   014889   014513   016661   017198   014146   014754   012631   013307               140139991 2007    130137111 2007    120000001         110140641 1997    100136671 1967    011241   012074   012854   014471   013948   015228   016345   017031   014185   014394   012953   013106                                      
580000200310015 00770 1810241Maltaverne          1000500Dev. Cosne          1130900Cosne S/Loire       1050000013400000000000000000000000000000309      000000                                                                                                                                 140000008         130000008         120000008         110000008         100000008                                                                                                                                                        
420501300310015 00720 1110431Ech. RATARIEUX      0090210Ech. RN82 RD498     0170182LA_FOUILLOUSE       0120100007910000000000000000000000000000180      082662 0877    077143   079575   083304   085262   080079   085809   084916   075002   086992   086902   082927   084069               140769111 0917    130793971 0977    120000001         110849331    7    100823751    7    070132   077475   069544   069460   069058   075284   082362   074364   085360   086533   081653   081890                                      
420500800310015 00720 1150231Ech. ST JEAN BONNEFO0000000Ech. RATARIEUX      0090210MEONS               0020750009140009140000000000000000000000190      081950 0917    076719   080064   084348   084715   079497   087355   083256   071589   086407   085002   082092   082595               140813041 0917    130810761 0917    120000001         110861241    7    100854291    7    079345   082764   082821   084097   078035   084098   081883   071816   085437   085043   080231   080505                                      
420500700310015 00470 1110231Ech. COUZON         0230000Ech. LA VARIZELLE   0291316PARADIS             0280730007340000000000000000000000000000191      000000                                                                                                                                 140000001         130643631 1187    120000001         110689681 1177    100676261 1187                                                                                                                                                   
420500500310015 00470 1110231Ech. LA MADELEINE   0140000Ech.COUZON          0230000GRAND_CROIX         0220000008478000000000000000000000000000180      000000                                                                                                                                 140747781 1017    130746821 1037    120000001         110792991 1097    100778821 1107    070070   073249   075271   076865   072673   079669   077373   070290   077404   078165   073367   073055                                      
420008400310015 00880 4150201Ech. CHAZEAU        0510300Dpt. 43             0520400CHAZEAU             0520200001100001100000000000000000000000184      027962 0667    024631   025141   027381   028803   028127   029900   030043   025553   029880   029789   028103   028078               140278801 0677    130270051 0647    120000001         110280861    7    100000001         026206   026670   027384   028589   027615   030217   028959   024888   030057   029695   027763   026567                                      
420008300310015 00880 4150201Ech. FIRMINY CENTRE 0490350Ech. CHAZEAU        0510300LA_TARDIVE          0500200001950001950000000000000000000000184      029684 0637    026158   026698   029149   030408   029563   031490   031549   027985   031601   031700   029864   029906               140297091         130288411         120000001         110298681         100292771    7    027967   028483   029325   030765   029234   032134   031070   027309   031443   031371   029222   028222                                      
420008200310015 00880 4850201Ech. FIRMINY EST    0470720Ech. FIRMINY CENTRE 0490350Firminy Ouest       0480200001980001980420008000300000000000184      030321                                                                                                                                 140317318         130305868         120000008         110320118         100000008                                                                                                                                                        
420008100310015 00880 4850201Ech. CHAMBON FEUGERO0450224Ech. FIRMINY EST    0470720Chambon-Feugerolles 0460000002496002496420008000300000000000184      039874                                                                                                                                 140416258         130401138         120000008         110419868         100000008                                                                                                                                                        
420008000310015 00880 4110201Ech. CROIX DE L'ORM 0410000Ech. CHAMBON FEUGERO0450224SILARDIERE          0440600004224000000420008000100000000000184      058611 0517    057067   057932   061669   029683   056182   066158   063096   053329   065259   066067   063305   063197               140614271 0527    130592181 0487    120000001         110619721    7    100000001         058212   060935   060969   063901   059713   064721   062536   052741   065275   066314   061963   060124                                      
420007900310015 00880 4850201Ech. DE LA DIGONNIER0390811Ech. CROIX DE L'ORM 0410000République          0390880001189001189420007200300000000000184      051415                                                                                                                                 140612898         130609298         120000008         110659488         100653518                                                                                                                                                        
420007800310015 00880 4850201Ech. LA RIVIERE     0390365Ech. DE LA DIGONNIER0390811Planfoy             0390370000446000446420007200300000000000184      054838                                                                                                                                 140669868         130666328         120000008         110720878         100715158                                                                                                                                                        
420007700310015 00880 4810201Ech. ROND POINT     0380463Ech. LA RIVIERE     0390365Tunnel              0380950000902000000420007200300000000000184      078951                                                                                                                                 140964218         130959118         120000008         111037638         101029398                                                                                                                                                        
420007600310015 00880 4150201Ech. MONTPLAISIR    0360782Ech. ROND POINT     0380463CONVENTION          0380000001681001681420007200100000000000180      074584 0507    069964   071503   076398   076313   072242   079805   075488   064645   078633   078777   076084   075260               140738031 0507    130722221 0497    120000001         110744361    7    100740751    7    072317   075216   073715   076425   071654   078133   074050   060842   077956   078628   074402   072822                                      
420007500310015 00880 4110201Demi-éch. A72       0350500Ech. MONTPLAISIR    0360782JANON               0350700001282000000420007200100000000000184      068893 0467    066799   066962   073158   072269   066444   074870   067867   054701   074608   075282   071381   062763               140707201 0467    130684251 0477    120000001         110703681    7    100688051    7    069271   072009   070589   073218   067744   077564   072502   058242   074517   075004   070058   068448                                      
420007400310015 00880 4110201Bif. RN488          0340840Demi-éch. A72       0350500TERRENOIRE_2        0340900000660000000420007200100000000000184      015340 0737    014018   014561   015500   015897   015310   016415   015895   013114   016175   016446   015516   015242               140152251 0727    130292081 0567    120000001         110299541    7    100295081    7    014436   015156   015191   015820   014915   016253   015510   013254   016007   016358   015212   014653                                      
420007200310015 00880 4110201Fin contour. ST_CHAM0300000Bif. RN488          0340840ST-CHAMOND_M 1      0300600006093000000420007200100000000000311      058593 0997    033091   034834   036054   037084   039021   077686   075829   067455   076853   077179   073204   073514               140726771 1017    130723191 1037    120000001         110782161 1017    100776491 1047    068274   070910   071890   074959   070751   077026   075098   067626   075762   076383   071862   071696                                      
420006100310015 04880 4850201A72                 0010050Agglo. ST_ETIENNE   0011442Compteur temporaire 0010500001392001392420007200100000000000180      017664                                                                                                                                 140177418         130175558         120000008         110190718         100187338                                                                                                                                                        
420006000310015 04880 4110201Carf. RN88          0000000Bretelle A72        0010050TERRENOIRE_1        0000100001050000000420007200100000000000180      046006 1107    042438   045108   045951   047354   044612   047997   047731   044182   047560   047550   045489   046160               140452551 1137    130468421 1167    120000001         110516151 1187    100509461 1227    043593   045500   046502   046951   044440   044517   043609   042922   046901   047749   044766   045706                                      
420001000310015 00820 4112001RN7                 0000000A89                 0160926BALBIGNY            0150950016926000000420007200100000000000408      000000                                                                                                                                 140000001         130074971 1367    120000001         110132621 1937    100126931 1907                                                                                                                                                   
420000500310015 00070 4113001Carf. RN82          0410735Dpt. 69             0591003NEAUX               0410800018267000000420007200100000000000206      000000                                                                                                                                 140000001         130069261 1117    120000001         110084461 1247    100083691 1257                                                                                                                                                   
420000400310015 00070 4110101Contour. ROANNE     0300515Carf. RN82          0410735ST_VINCENT          0360650017015000000420007200100000000000309      000000                                                                                                                                 140000001         130209331 1418    120000001         110208421 1527    100203121 1547                                                                                                                                                   
420000200310015 00070 4813001CHANGY              0130500Contour. ROANNE     0300515St-Romain-la-Motte  0220500017015000000420000100342000010030180      000000                                                                                                                                 140000008         130000008         120000008         110000008         100000008                                                                                                                                                        
420000100310015 00070 4112001Dpt. 03             0000000RD8                 0130500CHANGY              0130420013500000000420000100300000000000307      000000                                                                                                                                 140000001         130000001         120000001         110000001         100000001                                                                                                                                                        
380501200310015 04800 1150231CLAIX               0110950VARCES RN75         0120430CLAIX               0120700000750000750420000100300000000000600      033764 0407    030662   030514   033086   034356   034320   036716   037160   032736   035478   034752   032666   032540               140384041 0417    130000001         120000001         110358171    7    100331921    7    035766   037075   037042   039721   037786   041021   039872   037102   040782   040555   037307   036860                                      
380501100310015 04800 1150231PONT_DE_CLAIX       0100100CLAIX               0110950DRAC                0110200001850001850420000100300000000001104      044455 0317    041477   040934   044385   045481   044807   048290   046346   041703   046946   046028   043587   043350               140437531 0327    130428711 0337    120000001         110420941         100405811    7    040924   042532   042435   045482   042986   046628   045060   041372   046472   046287   042788   042159                                      
380501020310015 04800 1150231ZI COMBOIRE         0090000PONT_DE_CLAIX       0100100LE_PARC             0090500001675001675420000100300000000000600      065765 0517    062152   063813   067126   066945   064032   070007   071045   063145   067673   066289   062782   064132               140653871 0537    130645201 0517    120000001         110643821    7    100637241    7    061897   064924   065935   067370   062145   068533   068580   064474   068068   067624   062175   063028                                      
380501010310015 04800 1114031RONDEAU             0070400ZI COMBOIRE         0090000COMBOIRE            0070900002300000000420000100300000000000204      091747 0447    088066   089280   093399   093536   089537   096413   096006   085659   094039   093486   089033   092468               140912071 0497    130898221 0467    120000001         110913811    7    100898761    7    087925   090411   092128   094175   088018   094190   094112   086783   093024   094260   088435   091111                                      
380501000310015 04800 1150231LOUISE_MICHEL       0060350RONDEAU             0070400LOUISE_MICHEL       0060500001050001050420000100300000000000600      086807 0677    083613   087780   089424   088882   084288   088490   087954   083172   088008   088912   084308   087020               140861581 0697    130855091 0777    120000001         110833421    7    100823931    7    084222   087799   089385   088884   082468   087017   088724   082461   086962   087756   083388   085050                                      
380500920310015 04800 1150231CATANE              0050000LOUISE_MICHEL       0060350MISTRAL             0050800001350001350420000100300000000001104      102134 0607    098395   102182   105554   104623   099073   104912   105119   093512   105033   104592   100371   102458               140962341 0577    131005731 0627    120000001         111008621    7    101000051    7    089901   090874   091502   090330   092191   104074   102000   094654   102161   104423   096651   095799                                      
380500910310015 04800 1150231FONTAINE VERCORS    0030650CATANE              0050000CATANE              0040250001350001350420000100300000000000103      095741 0687    092270   096763   099155   098199   092096   099233   097704   087139   098052   098258   094913   095447               140954721 0427    130965371 0647    120000001         110939961    7    100940801    7    094254   098064   098813   099076   090915   098023   097609   088254   097248   097321   092727   093775                                      
380500905310015 04800 1150231LES_MARTYRS         0010275FONTAINE VERCORS    0030650CENG                0020850002375002375420000100300000000000600      083774 0767    080191   084651   086526   086080   081104   086323   086054   078119   085667   085271   081968   083573               140836511 0777    130837211 0757    120000001         110825771    7    100807391    7    081889   085345   086948   086293   081509   085581   083998   079085   084975   085779   080783   081898                                      
380500900310015 04800 1110241Bif. A48/A480       0000000LES_MARTYRS         0010275LES_MARTYRS         0010050002000000000420000100300000000000403      075062 0777    072299   076933   078155   078398   073766   078688   079336   072319   077430   073319   069300   071089               140758761 0817    130759701 0807    120000001         110752351    7    100742001    7    073692   077277   078997   078163   072358   078024   077273   073418   077233   077549   072698   074050                                      
380500800310015 04810 4150241PICQUE_PIERRE       0960300PORTE DE FRANCE     0971000PICQUE-PIERRE       0970000004779004779420000100300000000000600      000000                                                                                                                                 140000001         130000001         120000001         110293501    7    100000001                                                                                                                                                        
380500610310015 04810 4110241Bif. A48/A480       0930369PICQUE_PIERRE       0960300BELLECROIX          0950100002000000000420000100300000000000403      037211 0347    036489   037623   038894   037944   035474   040487   037040   031143   038809   038306   037067   037475               140371801 0357    130369071 0387    120000001         110405071    7    100417981    7    035928   038336   036578   038125   034837   039301   037911   031179   039045   039721   037467   038016                                      
380500600310015 00480 1150231ST_EGREVE NORD      0910000Bif. A48/A480       0930369ST_EGREVE           0920800002369002369420000100300000000000600      092781 0747    088328   094531   095689   094947   089108   097251   096862   086561   094341   094420   089581   092078               140928221 0757    130929691 0797    120000001         110000001         100000001         089060   094486   095644   095391   087830   096918   095637   088274   094790   095356   089278   091524                                      
380004050310015 00870 4113001ST_MARTIN_D'HERES P 0080000A41                 0111050MEYLAN              0090200003390000000420000100300000000000407      077459 0397    077811   076136   081078   080006   075402   083566   078411   068109   083046   081476   066421   078033               140769311 0537    130000001         120000001         110774241    7    100000001         078746   077783   076771   080427   072649   079138   076238   066244   080192   080473   076423   078434                                      
380004040310015 00870 4113001SMH                 0060000ST_MARTIN_D'HERES P 0080000ST_MARTIN_D_HERES   0070300002000000000420000100300000000000407      082269 0537    080293   080990   085987   084233   079293   085524   081297   071910   086880   085610   082990   082437               140811441 0557    130820281 0547    120000001         110000001         100803961    7    081630   083784   082562   084824   077316   082575   080879   070771   083676   085077   080756   080372                                      
380004035310015 00870 4110101EYBENS              0040250ST_MARTIN_D'HERES   0060000POISAT              0050100001750000000420000100300000000000403      089743 0527    087034   088022   093137   092025   086575   091974   090330   083019   093583   092339   089590   089392               140869531 0547    130891431 0557    120000001         110000001         100000001         088382   090752   089627   091739   084091   088707   087595   076475   085866   085376   088089   087316                                      
380004030310015 00870 4113001ALPEXPO             0030500EYBENS              0040250EYBENS              0030600001250000000420000100300000000000407      090942 0497    088076   089171   094359   093301   088698   093874   091547   089184   090752   092363   089760   090178               140877071 0517    130904731 0497    120000001         110911771    7    100900261    7    088730   091656   091248   093333   086107   089805   089318   078674   090936   075350   089437   088679                                      
380004025310015 00870 4150201ECHIROLLES          0020500ALPEXPO             0030500ECHIROLLES          0020180001000001000420000100300000000000407      089255 0517    087372   088151   093244   092468   088087   093749   089057   079571   089036   091897   089369   089200               140756391 0527    130900001 0527    120000001         110904361    7    100000001         089935   090353   083948   048258   044874   018825   090977   079623   091354   092441   088609   088106                                      
380004020310015 00870 4150201RONDEAU             0010500ECHIROLLES          0020500ETATS_GENERAUX      0010300001000001000420000100300000000000407      090376 0467    087864   089085   093404   092932   089581   093885   089828   079946   093830   093176   090311   090856               140907801 0507    130908151 0507    120000001         110915801    7    100897461    7    089934   092459   092692   094624   091972   090738   092260   081641   091868   093139   089113   089189                                      
380004010310015 00870 4150201Bif. A480/RN87      0000000RONDEAU             0010500RONDEAU             0000300001500001500420000100300000000000407      095279 0617    092482   093455   097913   098114   093449   100048   095284   084131   099077   098486   095228   095862               140938771 0567    130952151 0507    120000001         110959001    7    100000001         093606   096094   096161   098998   093026   095283   090600   079484   097122   098538   093965   094177                                      
380003600310015 00850 4113001JARRIE              0500450CHAMP/DRAC          0560310CHAMPAGNIER         0530000003200000000420000100300000000000407      030346 0657    028592   030929   031598   030417   028251   031942   033871   030348   030126   029598   028401   030115               140305361 0657    130303541 0667    120000001         110312171    7    100307011    7    030818   030575   031947   030986   028047   031649   032134   031388   030892   030456   027984   029543                                      
380003500310015 00850 4113001CLAIX               0490000JARRIE              0500450PONT_ROUGE          0500400001050000000420000100300000000000407      024006 0787    023152   024882   025023   023995   022031   024778   027325   024820   023372   023024   021897   023795               140245861 0777    130244981 0787    120000001         110252951    7    100249031    7    023150   024648   025946   024715   022255   025211   025572   024685   024702   024875   024561   024744                                      
380001300310015 00070 4123001PEAGE DE ROUSSILLON 0270900Dpt. 26             0330605ROUSSILLON          0310400006100006100420000100300000000000600      019679 0977    017812   018313   018619   020192   019739   020931   020592   019390   020394   020463   020018   019645               140191721         130190311 1037    120000001         110185241         100000001         017926   018452   019001   019672   018717   019484   020040   019605   019740   019749   018490   019151                                      
380001000310015 00070 4113001RHONE               0000000PEAGE DE ROUSSILLON 0270900AUBERIVES           0210700027900000000420000100300000000000194      012610 0617    011616   011784   012558   012901   012538   013186   013060   012383   013355   013350   012338   012214               140124131 0597    130124131 0687    120000001         110127601    7    100000001         011588   012056   012113   012894   012504   013125   012822   011844   012960   012881   012142   012050                                      
260004000310015 00070 4150201ARMAILLER BLV Nord  0410485LAUTAGNE Giratoire R0430460SC061 B-L-V         0421166004460004460420000100300000000000205      019849 0817    020008   020698   021491   021782   019390   020859   022336   019934   022313   022069   011778   015529               140212271 0827    130210211 0877    120000001         110208561    7    100000001         020085   020751   020632   021799   020640   022497   022093   019613   022115   022406   020789   021336                                      
260003900310015 00070 4156001LAUTAGNE Giratoire R0430460CARREFOUR ALIXAN VAL0461289SC020 CHABEUIL      0450585003829003829420000100300000000001098      043980 0697    040013   040874   041047   045537   043563   045734   049849   049745   045195   043961   039400   042536               140441791 0797    130432831 0837    120000001         110426881 1027    100000001         039310   040155   042601   044160   043565   047108   049856   050629   045325   044974   039824   042245                                      
260003802310015 00070 4150101LAUTAGNE            0470979CHANTECOURIOL Girato0480595SC053 POMPIER       0480500001186001186420000100300000000000205      025507 1107    025531   024245   025358   025971   024823   027173   026628   024277   026196   025997   025049   024784               140250351 1107    130246231 1117    120000001         110242231 1117    100000001         023468   024347   024431   025606   024388   026193   026321   024221   025989   026224   024199                                               
260003801310015 00070 4156001CARREFOUR ALIXAN VAL0461289LAUTAGNE            0470979SC010 LAUTAGNE      0470330000690000690420000100300000000001098      056641 0857    051615   053860   054985   058439   055047   059921   061738   058389   058605   057783   053488   055689               140557531 0857    130550891 0877    120000001         110546591    7    100000001         051430   052915   055010   055991   054581   059238   060817   058623   058191   057078   051153   053787                                      
260003200310015 05320 4110201BAYANNES            0050000BOURG_DE_PEAGE      0150171ALIXAN              0120950010170000000420000100300000000000192      048177 0727    043004   045675   045304   049357   047832   049512   054130   052540   049667   048119   046847   045976               140469371 0688    130464891 0767    120000001         110459071    7    100449971    7    042953   043737   046129   047268   046268   049910   052253   052003   048233   047332   041993   044845                                      
260002800310015 01020 4813001PRACOMPTAL          0010480Dpt. 07             0030841Montélimar          0010500002361000000260001900300000000000311      008504                                                                                                                                 140083598         130082118         120000008         110080908         100080998                                                                                                                                                        
260002700310015 01020 4843001MONTELIMAR          0000000PRACOMPTAL          0010480Montélimar          0010480001480001480260001900300000000001098      008817                                                                                                                                 140086668         130085138         120000008         110083878         100083968                                                                                                                                                        
260002100310015 00070 4814001PIERRELATTE SUD     1140250VAUCLUSE            1180808Les Blaches         1150000004557000000260001900300000000001098      011437                                                                                                                                 140112418         130110428         120000008         110108798         100108918                                                                                                                                                        
260002000310015 00070 4114001MALATAVERNE Ech. A7 0980920PIERRELATTE SUD     1140250PIERRELATTE         1100000015330000000260001900300000000001098      016680 1327    014269   014770   015793   016229   016870   017361   018129   018819   017570   018089   017319   014811               140159601 1397    130167321 1537    120000001         110170371 1467    100167461 1387    012113   012524   013653   017039   016852   018063   018464   019667   016383   016683   015044   014786                                      
260001900310015 00070 4115001MONTELIMAR SUD      0921050MALATAVERNEEch. A7  0980920MONTELIMAR          0960050005870000000260001900300000000001098      020336 1327    017993   018452   018983   020374   020038   020832   021627   022121   021248   021807   021145   019307               140199871 1397    130196331 1167    120000001         110193421 1117    100193621 1027    017718   018449   018961   020034   020049   020876   021740   022555   020966   020528   018671   019166                                      
260001800310015 00070 4854001PRACOMPTAL RN102    0891030MONTELIMAR SUD      0921050Montélimar dév. Sud 0900000003020003020260001900300000000001098      022296                                                                                                                                 140219148         130215268         120000008         110212078         100212298                                                                                                                                                        
260001600310015 00070 4815001MONTELIMAR NORD RD540870000PRACOMPTAL RN102    0891030Montélimar dév. Nord0870500003030000000260001900300000000000311      011590                                                                                                                                 140113928         130111918         120000008         110110268         100110388                                                                                                                                                        
260001500310015 00070 4115001LES TOURETTES       0760700MONTELIMAR NORD RD540870000COUCOURDE           0810000010300000000260001900300000000001098      014933 1467    012853   013383   014242   015315   015680   016112   016622   017382   015460   014528   013784   013716               140148611 1487    130147611 1477    120000001         110149391 1507    100148341 1517    012777   013454   013914   015121   015138   016342   016641   017880   015388   014780   013310   013472                                      
260001400310015 00070 4114001LORIOL BLACHES RD7  0690300LES TOURETTES       0760700SC100 ToureteN      0760600007400000000260001900300000000001098      010644 1377    008842   009277   009900   010850   011215   011412   012582   013679   010982   010202   009510   009146               140000001         130000001         120000001         110105841 1437    100000001                                                                                                                                                        
260001300310015 00070 4813001LORIOL CENTRE RD86F 0670160LORIOL BLACHES RD7  0690300Loriol déviation    0670500002140000000260001100300000000001098      019561                                                                                                                                 140189478         130186878         120000008         110190488         100187618                                                                                                                                                        
260001200310015 00070 4845001LORIOL NORD RD107   0660330LORIOL CENTRE RD86F 0670160Loriol dév. Nord    0660500000830000830260001100300000000001098      015064                                                                                                                                 140145928         130143928         120000008         110146708         100144498                                                                                                                                                        
260001100310015 00070 4115001LIVRON SUD          0640700LORIOL NORD RD107   0660330LORIOL              0650100001630000000260001100300000000001098      018191 0817    015960   016334   017319   018100   018452   018648   019161   019409   018700   019144   018216   018704               140176201 0068    130173781 0068    120000001         110177131    7    100174461    7    015753   016547   016930   018086   017796   018806   018859   019572   018098   017764   016501   016658                                      
260001000310015 00070 4835001ST BLAISE RD247     0630320LIVRON SUD          0640700Livron agglo        0630500001378001378260001100300000000001098      013389                                                                                                                                 140129698         130127918         120000008         110130388         100128428                                                                                                                                                        
260000900310015 00070 4815001ETOILE              0550600ST BLAISE RD247     0630320Fiancey             0590000007720000000260001100300000000000188      011165                                                                                                                                 140108158         130106678         120000008         110108738         100107108                                                                                                                                                        
260000800310015 00070 4115001CHANTECOURIOL Girato0480595ETOILE              0550600SC051 CHAFFIT       0480750009056000000260001100300000000001098      018078 1657    016316   016967   017805   018405   017666   019369   019808   019426   018524   017887   017462   017241               140000001         130000001         120000001         110175761 1417    100000001                                                                                                                                                        
260000500310015 00070 4114001LA TEPPE            0300020ARMAILLER BLV NoRD  0410485SC062 BLV NORD      0410340011465000000260001100300000000001098      016691 1037    015255   015572   016560   016716   016349   017559   018165   017124   017522   016788   016135   016483               140164221 0987    130165711 1107    120000001         110167621    7    100000001         015067   015533   015853   016739   016307   017242   017587   017291   016954   016776   015605   016055                                      
260000400310015 00070 4843001TAIN NORD RN95      0280260LA TEPPE            0300020Tain agglo          0290700001760001760260000300300000000000188      012671                                                                                                                                 140128918         130128088         120000008         110135268         100134598                                                                                                                                                        
260000300310015 00070 4113001ST_VALLIER SUD RD51 0160200TAIN NORD RN95      0280260TAIN                0250200012060000000260000300300000000000188      011527 1407    010670   010999   011256   011893   011301   011892   012448   012286   012254   011701   010881   010715               140117271 0838    130116511 0938    120000001         110123041 1027    100122431 1157    010343   010865   011095   011908   011854   012319   012590   012770   011943   012166                                                        
260000201310015 00070 4813001ANDANCETTE          0070350ST VALLIER SUD RD51 0160200Croix des Mailles   0110000008850000000260000300300000000000311      009682                                                                                                                                 140098518         130097888         120000008         110103378         100102868                                                                                                                                                        
260000100310015 00070 4113001Dpt. 38             0000000ANDANCETTE          0070350ST_RAMBERT          0040000007350000000260000300300000000001098      013430 1207    011819   012534   013057   013635   013573   014207   014592   013548   013977   013743   013645   012803               140000001         130129591 1267    120000001         110127081 1347    100122201 1367                                                                                                                                                   
210600300310015 00380 1112041PONT_DE_PANY        0210000PLOMBIERES_LES_DIJON0360384PONT_DE_PANY        0210450015393000000260000300300000000000307      018000 0817    015459   016597   017224   018578   018204   019349   019034   017612   019002   018896   018082   017920               140174091 0748    130163261 0658    120000001         110168441    7    100169021    7    014921   015927   016857   017854   017667   019337   017960   016843   018563   018605   017467   016880                                      
210600100310015 00380 1112041POUILLY_EN_AUXOIS   0000000PONT_DE_PANY        0210000CIVRY               0050400021000000000260000300300000000000107      010402 0987    008616   009407   009851   010515   010473   011108   010915   010340   010678   011237   010818   010822               140099001 0967    130093591 0977    120000001         110097541    7    100097391    7    008373   008928   009457   010127   009977   010944   010415   009848   010402   010760   009912   009616                                      
210100200310015 02740 4150301LONGVIC             0000000TOISON D'OR         0111015MIRANDE             0040800012015012015260000300300000000000307      070814 0927    068687   071590   073122   073142   068660   074882   064306   060847   075872   071466   074858   072920               140694761 0907    130675471 0857    120000001         110000001         100000001         067293   069356   067924   073118   069795   070614   070311   059734   074877   072752   068983   069260                                      
100002610310015 00770 4813001RD34 Le Cheminot    0170255RD610 Rocade        0320866Villery             0200000015401000000000000000000000000000311      000000                                                                                                                                 140000008         130000008         120000008         110000008         100000008                                                                                                                                                        
100002500310015 00770 4813001YONNE limite        0000000RD374 Auxon         0080830Auxon               0000152008854000000000000000000000000000205      000000                                                                                                                                 140000008         130000008         120000008         110000008         100000008                                                                                                                                                        
100001800310015 00770 4113001RD374 AUXON         0080830RD34 LE CHEMINOT    0170255CRESANTIGNES        0170200008459000000000000000000000000001208      000000                                                                                                                                 140000001         130000001         120000001         110068561 1527    100067721 1477                                                                                                                                                   
070002600310015 01020 4813001SORTIE AGGLO LE TEIL0040462Carf. CD107         0120889LE TEIL             0040462009688000000000000000000000000000188      000000                                                                                                                                 140000008         130000008         120000008         110000008         100081358                                                                                                                                                        
070002500310015 01020 4143001Dpt. 26             0000000SORTIE AGGLO LE TEIL0040462AGGLO LE TEIL       0000500004462004462000000000000000000000188      014347         012779   012438   013687   014264   014698   015221   015288   014813   014957   015392   014655   013848               140138881 0557    130137651 0567    120000001         110053181    7    100000001         012733   013070   013171   014113   013947   014716   015095   014989   014333   013855   013190   013400                                      
030006400310015 00790 4113001RD779               0640675Dpt. 71             0881330MOLINET             0830178024655000000000000000071000000010504      014892 4107    011405   013341   012947   014764   015175   014573   019297   021686   015203   014223   012215   013633               140147841 3907    130143311 3997    120000001         110000001         100144381         011486   012286   013995   014481   014202   015332   018574   021545   016242   013892   011981   013118                                      
030006200310015 00790 4113001RN7                 0351664RD779               0640675LES_POCHONS         0590858028011000000000000000000000000000200      011647 4417    009255   010881   010371   011525   011307   011099   015212   017045   011823   011161   009466   010468               140117171 4277    130118901 4347    120000001         110119741 4327    100116801 4337    009382   010042   011185   011526   011325   012147   014948   017271   011910   010938   009397   010318                                      
030006000310015 00790 4813001RD2009              0330000RN7                 0351664Toulon S/Allier     0350000003664000000030005900300000000000200      000000                                                                                                                                 140000008         130000008         120000008         110162818         100165378                                                                                                                                                        
030005900310015 00790 4113001RD945               0100765RD2009              0330000CRESSANGES          0230855022235000000030005900300000000000200      000000                                                                                                                                 140000001         130000001         120000001         110089871 3957    100091281 3927                                                                                                                                                   
030005300310015 02090 4113001RD907               0260000RN7                 0400909CRECHY              0340821013670000000030005900300000000000394      006229 0877    005646   005869   006214   006489   006295   006633   006481   006023   006439   006467   006142   006039               140063481 0907    130075631 0867    120000001         110066991    7    100063101 1067    005972   006246   006286   006718   006227   006680   006504   006100   006543   006714   006214   005983                                      
030004100310015 00790 4813001RD46                0000000RD945               0100765Montmarault         0000500010765000000030005900300000000000200      000000                                                                                                                                 140000008         130000008         120000008         110126208         100128198                                                                                                                                                        
030001100310015 00070 4113001RD990               0700992Dpt. 42             0810328ROSSIGNOL           0720320010376000000030005900300000000000309      000000                                                                                                                                 140000001         130062071 3437    120000001         110062641 3367    100060691 3367                                                                                                                                                   
030001000310015 00070 4813001RD907               0640441RD990               0700992St-Prix             0670000006551000000000000000000000000001202      000000                                                                                                                                 140000008         130000008         120000008         110000008         100000008                                                                                                                                                        
030000900310015 00070 4113001RN209               0470707RD907               0640441ST_GERAND_PUY       0550211016734000000000000000000000000001202      006135 3737    005133   005614   005626   006339   006229   006684   007025   007220   006295   006163   005531   005721               140058931 3607    130057111         120000001         110057771 3507    100055691 3507    004788   005100   005485   005941   005637   006382   006724   007031   006375   006280   005419   005489                                      
030000499310015 00070 4812001RD46/RD268          0430421RN209/RD23          0470707Varennes S/Allier   0470300004286000000030000400300000000000504      000000                                                                                                                                 140000008         130000008         120000008         110000008         100000008                                                                                                                                                        
030000400310015 00070 4113001RN79                0240300RD46/RD268          0430421BESSAY              0310488019121000000030000400300000000000189      008905 3527    007519   008312   008421   009230   009057   009764   010021   009933   009257   008830   008219   008272               140088191 3278    130086201 3318    120000001         110092871 3337    100090411 3277    007640   008169   008488   009235   008587   009519   009539   009504   009308   009200   008345   008270                                      
030000202310015 00070 4110201RD707               0110880RN79                0240300MILLEPERTUIT        0200000012420000000030000400300000000001197      013841 3217    010996   012462   012485   014231   014287   014146   016805   017601   014280   013847   012170   012627               140137691 2938    130131871 3088    120000001         110134711 3267    100130071 3247    011021   012001   013168   014639   013477   014427   016282   017460   014060   013989   012192   012351                                      
030000200310015 00070 4110201RD133               0030110RD707               0110880AVRILLY             0070250008770000000030000400300000000000589      015681 2927    012492   014300   014115   016039   016331   016163   019012   020194   015987   015508   013625   014252               140156801 2608    130153761 2688    120000001         110157221 2837    100152551 2977    012527   013639   014384   016030   015425   016236   018358   019818   016665   016009   014151   014728                                      
030000100310015 00070 4812001Dpt. 58             0000000RD133               0030110Villeneuve S/Allier 0020000003310000000030000200358000120031197      018118                                                                                                                                 140181178         130177668         120000008         110181668         100176278                                                                                                                                                        