320000100310015 00210 4112 51DEPARTEMENT 47      0000000RD 36               0100760SEMPESSERRE         0000900010767010767360000280347000080030790      000000                                                                                                                                 140000001         130000001         120000001         110000001         100000001                                                                                                                                                        
470000100310015 00210 4813001DEPARTEMENT 24      0000000RD 124              0170755CASTILLONES         0090300017709014709470000202324000080030187      007889                                                                                                                                 140000008         130000008         120000008         110000008         100000008                                                                                                                                                        
180000200310015 00200 1110241A71                 0000000Ech. 6              0020675VIERZON             0010250002674002674180002100300000000000195      023676 2027    016833   019356   018957   024101   025073   022922   031350   034014   022619   023869   021841   022651               140000001         130000001         120206821 1987    110209871 1927    100237371                                                                                                                                                        
360000200310015 00200 1810241DPT 18              0230000Ech. 10 Sud         0320000Vatan               0270000009000009000360000280300000000000101      020130                                                                                                                                 140000008         130000008         120209228         110202388         100000008                                                                                                                                                        
240000201310015 00210 4813 51RD 81               0220099RD 8                0350080NEGRONDES           0310800013014011748240000301300000000000187      014356                                                                                                                                 140000008         130000008         120052478         110000008         100000008                                                                                                                                                        
470000201310015 00210 4813001RD 124              0170755RD 2021NORD         0330105CANCON              0190000015552013619470000202300000000000193      008803                                                                                                                                 140000008         130000008         120000008         110000008         100000008                                                                                                                                                        
240000202310015 00210 4813 51RD 8                0350080RD 705              0450555BUJADELLES          0400000010077008359240000301300000000000187      015908                                                                                                                                 140000008         130000008         120058148         110000008         100000008                                                                                                                                                        
470000202310015 00210 4113 51RD 2021NORD         0330105RN 2021SUD          0400418VILLENEUVE SUR LOT  03809000082670082674700003003          0187      013421  887    012045   012279   013128   014193   013139   014036   013698   013453   014540   013770   013243   013498               140000001         130000001         120000001         110000001         100000001                                                                                                                                                        
470000203310015 00210 4813001RN 2021 SUD         0400418RD 110              0490450ST ANTOINE de FICA. 0460230009485008609470000300300000000000187      011486                                                                                                                                 140114798         130000008         120000008         110000008         100000008                                                                                                                                                        
360000210310015 00200 1110241ECH_09              0230000ECH_10N             0270575SRDT_A20_09_10N     0270000004575004575360000280300000000000213      021523 1737    015089   017406   016654   021892   023477   020989   029513   032924   020604   021271   017215   020672               140212671 1957    130211031 1757    120151851 1657    110000001         100000001         014924   016023   016911   021875   021134   022572   028433   033453   020524   020696   017973   020107                                      
360000220310015 00200 1110241ECH_10N             0270575ECH_10S             0320645SRDT_A20_10N_10S    0310800009070009070360000280300000000000213      017074 1907    013918   016124   015333   020426   022118   019524   028251   031129   010125   009933   008316   009273               140199461 1897    130199901 1647    120087221 1857    110000001         100000001         013701   014957   015851   020659   019311   021337   027084   031998   019098   019301   016660   018849                                      
360000250310015 00200 1110241Ech. 15             0770000Ech. 17 Nord        0870000Tendu               08400000101000101003600002803          0101      024557 1887    017689   019932   019338   024873   026363   024073   032451   037132   023891   024312   020220   023795               140243701 1937    130000001         120000001         110000001         100000001         018223   019195   020371   024841   023626   025750   031832   037430   023519   023508   020632   022915                                      
360000255310015 00200 1110241ECH_16              0820700ECH_17N             0860800SRDT_A20_16_17N     0850100004100004100360000280300000000000213      024399 1777    017560   019691   019188   024779   025409   023927   032923   036979   023802   024202   020082   023636               140242991 1897    130243421 1867    120241131 1877    110000001         100000001         018093   019091   020268   024909   023557   025679   031818   037462   023259   023458   020579   022825                                      
360000260310015 00200 1810241Ech. 17 Nord        0870100Ech. 17 Sud         0890500St Marcel           0880000002400002400360000280300000000000101      022343                                                                                                                                 140000008         130000008         120232238         110224648         100000008                                                                                                                                                        
360000270310015 00200 1110241ECH_18              0940000ECH_19              1010600SRDT_A20_18_19      0940700007600007600000000000000000000000213      020161 2097    014796   016887   014336   021620   022957   015328   024242   031520   020879   021166   017080   020620               140000001         130211571 2107    120213701 2107    110000001         100000001                                                                                                                                                        
360000280310015 00200 1110241ECH_19              1010600ECH_20              1090500VIGOUX              1050280007900007900000000000000000000000100      020918 2147    014162   016321   015703   021018   022757   020128   029498   033998   020083   020498   016374   019834               140000001         130000001         120217411 1497    110210301 1637    100204411 1687                                                                                                                                                   
360000290310015 00200 1110241ECH_20              1090500ECH_21              1200000SRDT_A20_20_21      1180250010500010500000000000000000000000213      020384 2247    013483   015587   014916   020219   022106   019294   030703   032834   019270   019291   017168   019091               140198451 2247    130202981 1927    120000001         110000001         100000001         013572   014441   015620   019908   020121   021263   027750   032176   019055   019038   016160   018417                                      
180000300310015 00200 1110241ECH_08N             0080400ECH_08S             0140600MASSAY              0120310006200006200180002100300000000000195      008923 2077    014154   008562   007970   009961   011695   009831   012586   017621   010448   004043   000000   000000               140000001         130000001         120000001         110000001         100206571    8                                                                                                                                                   
230000300310015 01450 4110201DEPARTEMENT 87      0000000RD 951              0110723ST MAURICE LA SOU   0030090010835010835240000301387000160030190      000000                                                                                                                                 140000001         130000001         120000001         110000001         100000001                                                                                                                                                        
470000300310015 00210 4115 51RD 110              0490450RN 1021 Foulayronnes0610240LA CROIX BLANCHE    05505000116790102224700003003          0187      011184         010499   010375   010933   011036   011111   011963   011477   011083   011689   011519   011180   011303               140111771  668    130000001         120000001         110000001         100000001    8    010398   010546   011109   011294   011058   011673   011464   011010   011814   011741   011070   010921                                      
240000301310015 00210 4113 51RD 705              0450555RD 6                0490864SARLIAC             0460200004233003931240000301300000000000187      025715  327    008909   007426   011788   015662   025957   012478   026645   035030   032234   018983   012940   097805               140000001         130000001         120093981 1227    110000001         100087221 1227                                                                                                                                                   
240000302310015 00210 4813 51RD 6                0490864PERIGUEUX           0560190TRELISSAC           0530000006324004754240000301300000000000187      042903                                                                                                                                 140000008         130000008         120156808         110000008         100000008                                                                                                                                                        
180000310310015 00200 1110241ECH_06              0020700ECH_07              0050700SRDT_A20_06_07      0040455003000003000180002100300000000000213      023781 1887    017466   019948   019074   024416   025608   023349   031716   034331   023102   022767   022455   020718               140237841 1857    130000001         120170861 1927    110000001    0    100000001    0    017421   018593   019535   024403   023031   025133   033317   034405   022730   023205   020426   022622                                      
180000320310015 00200 1110241ECH_07              0050700ECH_08N             0090900SRDT_A20_07_08N     0080400002700002700180002100300000000000213      023073         016026   018758   017960   023342   024781   022391   030889   033843   022094   022693   021370   022210               140227551 2017    130000001         120000001         110000001         100000001         016453   017611   018476   023432   021929   024212   030016   034371   021855   022109   019275                                               
180000330310015 00200 1110241ECH_08S             0140600ECH_09              0230000SRDT_A20_08S_09     0190790008400008400180002100300000000000213      021176 2027    014740   017023   016219   021488   023057   020529   029215   032406   020318   021045   017063   020435               140209231 2067    130205991 2027    120178701 1997    110000001         100000001         014869   015936   016697   021668   020236   022394   028120   032947   020055   020284   017569   019755                                      
230000400310015 01450 4110201RD 951              0110723RD 912              0270099TROIS ET DEMI       0260300014913014913240000301300000000000187      013816 1787    011005   012406   012653   014356   014008   014210   016571   018301   014232   013910   012352   011641               140135661         130000001         120131471 2837    110000001         100000001         011067   011607   012913   013328   013465   014283   016163   018166   013935   013330   012010   012317                                      
230000410310015 01450 4110201RD 912              0270099RD 33               0440000ST VAURY            0360000016272016272240000301300000000000189      017308 2147    014269   015677   016007   017886   017039   017874   019876   021173   018011   017384   015875   016476               140000001         130000001         120161651 2047    110162831         100158751 2027                                                                                                                                                   
230000500310015 01450 4110201RD 33               0440000RD 990              0600662LA RIBIERE          0470165016090016090240000301300000000000187      000000                                                                                                                                 140000001         130000001         120000001         110000001         100000001    7                                                                                                                                                   
240000500310015 00210 4112 51PERIGUEUX           0650000RD 21 E             1000851ST MAMET            0840400034948032158240000500300000000000187      006057 1427    005060   005429   005737   005982   005913   006368   006649   007064   006593   006254   005921   005673               140059811 1387    130000001         120000001         110000001         100056811         005049   005317   005651   006123   005989   006398   006597   006981   006457   006129   005593   005439                                      
470000500310015 00210 4813001RN 1113 AGEN        0690000GIR BEAUREGARD ex27 0710915BEAUREGARD          0710600002828000000470000300300000000000187      025346                                                                                                                                 140253318         130000008         120000008         110000008         100000008                                                                                                                                                        
230000550310015 01450 4113001RD 990              0600662RD 997              0740000GOUZON              0700300013384013384240000301300000000000898      000000                                                                                                                                 140000001         130000001         120000001         110000001         100000001                                                                                                                                                        
230000600310015 01450 4113001RD 997              0740000DEPARTEMENT 03      0910693NOUHANT             0890750017423017423240000301303000370030187      011186 3067    008644   009804   009835   011256   011442   011258   014148   015243   011303   011101   009602   010417               140000001         130000001         120000001         110000001         100000001    7                                                                                                                                                   
470000600310015 00210 4813 51GIR BEAUREGARD      0710915RD 17               0780250MOIRAX              07306000063550043604700003003          0187      008951                                                                                                                                 140089468         130000008         120000008         110000008         100000008                                                                                                                                                        
240000601310015 00210 4813 51RD 21 E             1000851RD 107              1040760POMBONNE            1040000003898003355240000500300000000000187      009651                                                                                                                                 140095308         130000008         120000008         110000008         100000008                                                                                                                                                        
240000602310015 00210 4813 51RD 107              1040760BERGERAC EB10       1060260BERGERAC            1050500001467001444240000500300000000000187      014301                                                                                                                                 140141228         130000008         120000008         110000008         100000008                                                                                                                                                        
240000699310015 00210 4852 51BERGERAC EB 10      1060260BERGERAC EB 20      1090210BERGERAC            1080000002734000000240000500300000000000187      014519                                                                                                                                 140143378         130000008         120000008         110000008         100000008                                                                                                                                                        
240000700310015 00210 4113 51BERGERAC EB 20      1090210RD 14               1180030COLOMBIER           1160500008925008258240000700300000000000187      007470 1067    006125   006456   007003   007508   007565   007645   008664   009226            007841   006835   007024               140000001         130000001         120000001         110000001         100068091    8                                                                                                                                                   
470000700310015 00210 4813001RD 17               0780250RD 15               0860315GOULENS             0830000008139006749470000300300000000000187      008628                                                                                                                                 140086238         130000008         120000008         110000008         100000008                                                                                                                                                        
240000800310015 00210 4812 51RD 14               1180030DEPARTEMENT 47      1290551MANDACOU            1260600011506010780240000700347000010030187      005606                                                                                                                                 140000008         130000008         120000008         110000008         100000008                                                                                                                                                        
470000800310015 00210 4813 51RD 15               0860315DEPARTEMENT 32      0910293ASTAFFORT           0870500005011004719470000300332000010030187      006147                                                                                                                                 140061448         130000008         120000008         110000008         100000008                                                                                                                                                        
870000899310015 00210 4853001RN 1020             0020000LIMOGES EB 20       0030742LIMOGES             00300000015490000008700009003          0192      009454                                                                                                                                 140000008         130000008         120000008         110089578         100000008                                                                                                                                                        
870000900310015 00210 4113 51LIMOGES EB 20       0030742RD 10               0140398VAL D'ENRAUD        00609470106880076348700009003          0187      010099  517    009682   009968   010127   010487   009680   010955   010093   009172   010659   010669   010170   009575               140000001         130000001         120000001         110095681    7    100079591    7                                                                                                                                                   
870001000310015 00210 4813 51RD 10               0140398RD 64a1             0360000PAGEAS            BA03202000214760183428700009003          0187      005213                                                                                                                                 140000008         130000008         120000008         110049398         100000008                                                                                                                                                        
790001001310015 01490 4113 51DEPARTEMENT 86      0000000PARTHENAY DEBUT 2X2V0140227LA CROIX CHAMBERT   0080900014238012948790001401386000240030187      000000                                                                                                                                 140077851         130000001         120078631 1407    110074051 1787    100079681         006964   007235   007779   008022   008111   008343   009408   009848   008482   008260            003597                                      
160001100310015 01410 4813 51DEPARTEMENT 87      0000000RD 948              0030260ETAGNAC             0010000002185001799000000000087000340030187      000000                                                                                                                                 140000008         130000008         120000008         110000008         100000008                                                                                                                                                        
790001100310015 01490 484 251PARTHENAY DEBUT 2X2V0140227RD 134              0170299PONT PONPAIRAIN     01509000029620000047900014013          0187      016307                                                                                                                                 140152128         130000008         120144478         110147638         100000008                                                                                                                                                        
850001100310015 01490 4113001Département 79      0000000RN 160 Mortagne/Sèv.0030323La Trique           0010910003277003277000000000079000210030187      000000                                                                                                                                 140000001         130000001         120000001         110000001         100000001                                                                                                                                                        
870001100310015 00210 4813051RD 64a1             0360000DEPARTEMNENT 24     0401040CHALUS              0360687005044004353870000900324000010031101      004854                                                                                                                                 140000008         130000008         120000008         110045998         100000008                                                                                                                                                        
850001102310015 01490 4113001Département 79      0750605Département 79      0820222Enclave             0750700002680002680000000000079000210030187      000000                                                                                                                                 140000001         130000001         120000001         110000001         100000001                                                                                                                                                        
860001200310015 01470 4113 51DEPARTEMENT 87      0000000RD 11               0181000MOULISMES           0100915019039017819000000000087000210030187      006711 2427    004504   005555   005408   006713   006921   006631   009330   011814   006666   006193   004902   005714               140066481 2267    130000001         120071241 2277    110000001         100066921         004483   004850   006165   006198   006669   006654   009152   012064   006654   005036   004960                                               
160001201310015 01410 4813 51RD 948              0030260RD 951 CHASSENEUIL  0310304LA PERUSE           0180850028174020906000000000000000000000187      000000                                                                                                                                 140000008         130000008         120000008         110000008         100000008                                                                                                                                                        
860001300310015 01470 4113 51RD 11               0181000RD 2                0370770FLEURE              03606200187410167350000000000          0187      000000                                                                                                                                 140000001         130000001         120099191    7    110098651 1117    100100461 1498                                                                                                                                                   
790001401310015 01490 4113 51PARTHENAY FIN ROCADE0170299RD 725              0420758ST VINCENT          02605500258500233517900014013          0187      007862 1997    006276   007014   006923   008032   008334   008728   009101   008885   008500   008338   006952   007203               140073341         130000001         120069651 2147    110071171 1837    100046671 1008    006046   006320   006920   007397   007189   007678   008327   008851   007645   007754   007047   006741                                      
860001401310015 01470 4113 51RD 2                0370770DEBUT DEVIATION     0500500MIGNALOUX           04908950127280116440000000000          0187      012528 1157    015679   017086   016913   018647   014551   009867   009855   010313   009968   009533   008978   009293               140172861 1177    130000001         120174771 1207    110173841 1177    100172951 1027    015547   016069   017103   017277   017337   017926   018825   019302   018167   016576   016439   016769                                      
860001402310015 01470 4813 51DEBUT DEVIATION     0500500RN 151              0520040LA SABLIERE         05200000013600013600000000000          0188      000000                                                                                                                                 140000008         130000008         120000008         110000008         100000008                                                                                                                                                        
860001403310015 01470 4813 51RN151               0520040PENETRANTE POITIERS 0520900                    05205000008600008600000000000          0190      000000                                                                                                                                 140000008         130000008         120000008         110000008         100000008                                                                                                                                                        
860001404310015 01470 4113 51PENETRANTE POITIERS 0520900RD 6                0540200GENIEC              05209700013000013000000000000          0190      023704 1067    024093   026193   025979   028025   025342   015521   006871   027129   026669   027453   025985   025480               140258221 1037    130000001         120234781 1147    110248931    7    100251531         024135   025001   025656   026225   024726   026296   027172   027122   026876   026948   025011   024659                                      
860001405310015 01470 4113 51RD 6                0540200RN 10               0600050BUXEROLLES          05910600064000064000000000000          0190      037490  917    035264   037817   037136   040265   036403   040037   037818   036508   034050   039034   037982   037667               140365491  937    130000001         120378901    7    110375791    7    100367511    7    035112   035720   036276   037297   035701   036403   037135   035985   038017   038287   036388   036248                                      
790001500310015 01490 481 251RD 725              0420758BRESSUIRE EB 10     0450415MONPLAISIR          04300000023870023877900014013          0187      005701                                                                                                                                 140053198         130000008         120050528         110051638         100000008                                                                                                                                                        
870001500310015 01450 4813 51BELLAC              0000000RD 942              0170937LA BROUSSE          00900500181050160728700016003          0187      000000                                                                                                                                 140000008         130000008         120064978         110000008         100000008                                                                                                                                                        
860001501310015 01470 4813 51RN 10               0600050EX RN 147           0630000LE BARREAU          06200000034750034750000000000          0193      000000                                                                                                                                 140000008         130000008         120000008         110000008         100000008                                                                                                                                                        
860001502310015 01470 4113 51EX RN 147           0630000RN 149              0651003MIGNEAUXANCES       06310150033660033668700009003          0193      025715 1427    023686   023691   025436   027578   024334   027933   027604   027490                     025610   023724               140252921 1397    130000001         120249641         110246731         100234491    7    023465   024399   024915   025765   024606   026306   026195   026639   025478   026223   024702   024753                                      
790001600310015 01490 484 251BRESSUIRE EB 10     0450415BRESSUIRE EB 20     0480216DEV BRESSUIRE       04600000035710000007900014013          0187      006307                                                                                                                                 140058848         130000008         120055888         110057108         100000008                                                                                                                                                        
870001600310015 01450 4113 51RD 942              0170937DEPARTEMENT CREUSE  0290835BELLEVUE            0270250011726010687870001800323000030030187      000000                                                                                                                                 140000001         130000001         120060741         110000001         100000001                                                                                                                                                        
870001800310015 01470 4113 51RD 520              0080000BELLAC EB 10        0380409MAISONNEUVE         01708700292380290008700018003          0187      007259 1377    006762   007362   007588   008393   008269   008476   009494   010515   008547   008508   003188   000000               140082481 1297    130000001         120083121 1377    110085171 1407    100083251 1207    006906   007018   007883   008300   008307   008659   009418   010680   008670   008159   007422   007431                                      
870001810310015 01470 4113001Bellac              0000000Bellac              0000000LA_BAZINE           0000000000000000000870001800300000000000311      005244 1888    003925   004423   004506   005236   005370   005430   006486   007901   005416   005246   004318   004571               140051441 1847    130000001         120051611 1877    110047551         100000001    0    003942   004047   004663   004926   005222   005522   006422   007948   005399   004764   004343   004415                                      
790001900310015 01490 4812 01BRESSUIRE EB 20     0480216RD 960 BIS          0500264BELLEVUE            0490000003028001953790001401300000000000187      008657                                                                                                                                 140080768         130000008         120076708         110078388         100000008                                                                                                                                                        
870001900310015 01470 4843 51BELLAC EB 10        0380409BELLAC EB 20        0400085BELLAC              03907500016970000008700018003          0187      009085                                                                                                                                 140103238         130000008         120104048         110106618         100000008                                                                                                                                                        
870001910310015 01470 4113001Bellac              0000000Bellac              0000000EPANOURS            0000000000000000000870002000300000000000311      009224 3538    006731   007773   007945   009316   009569   009432   011997   014296   009478   008705   007429   007840               140090361 3617    130000001         120087451 3627    110087221 3567    100081151    0    006734   007103   008064   008760   008912   009602   012009   014359   009299   008300   007441   007624                                      
870002000310015 01470 4113 51BELLAC EB 20        0400085RD 951              0440245CHATAIGNERS         04102680040870040878700020003          0101      000000                                                                                                                                 140000001         130000001         120000001         110000001         100000001                                                                                                                                                        
790002001310015 01490 4113 51RD 960 BIS          0500264RD 759              0680396LA VIOLETTE         05500000181700160187900020013          0187      002395  827    002403   002477   002501   002526   002223   002624   002407   001878   002548   002477   002400   002299               140083631 1907    130000001         120096191 1767    110094611 1297    100089501 1667    008637   009036   009555   010010   009936   010754   011669   011870   010549   003424   002554   002451                                      
790002002310015 01490 4843 51EB10 MAULEON        0680396EB20 MAULEON        0700514MAULEON             06900000021230000007900020013          0193      005975                                                                                                                                 140208668         130000008         120240008         110236068         100000008                                                                                                                                                        
870002010310015 01470 4110101Bellac              0000000Bellac              0000000LE_VINCOU           0000000000000000000870002000300000000000311      008112         006070   007108   007206   008390   008118   007641   010221   011868   008744   007958   006738   007149               140083451 3687    130000001         120077051 2287    110080201 3677    100000001    0    006071   006424   007383   008033   008211   008857   011390   013728   008569   007530   006779   006938                                      
180002100310015 01510 4113001DEP 36              0000000St Florent (lim agg)0100520CIVRAY              0060405010526008391180002100336000000030695      000000                                                                                                                                 140000001         130000001         120043541 1647    110043591         100046771 1807                                                                                                                                                   
790002100310015 01490 4813051RD 759              0700514DEPARTEMENT 85      0820676PIED ROTI           0750500009591009591790002001385000110030187      003124                                                                                                                                 140109098         130000008         120125488         110123428         100000008                                                                                                                                                        
870002100310015 01470 4813 51RD 951              0440245DEPARTEMENT 86      0611216ST BONNET BELLAC    0500400018006017045870002000386000120030187      000000                                                                                                                                 140000008         130000008         120000008         110000008         100000008                                                                                                                                                        
180002200310015 01510 4843001St Florent O(lim agg0100520RD 27               0110910RN 151 -St FLORENT O0110800001391000000180002100300000000001287      000000                                                                                                                                 140000008         130000008         120065888         110065968         100000008                                                                                                                                                        
240002200310015 02210 4813 51RN 21               0000000RD 5                0000607RN 221              00002500006070005372400024003000       0187      012128                                                                                                                                 140000008         130000008         120000008         110000008         100000008                                                                                                                                                        
360002250310015 01510 4810201Ech.12              0550000Ech. N 151          0562134Déols               0550500003098003098000000000000000000000196      000000                                                                                                                                 140000008         130000008         120000008         110000008         100000008                                                                                                                                                        
180002300310015 01510 4843001RD 27               0110910RD 35 / 28          0120510RN 151 -St FLORENT C0120065000598000000180002500300000000001287      000000                                                                                                                                 140000008         130000008         120136078         110139258         100000008                                                                                                                                                        
240002300310015 02210 4813001RD 5                0000607                    0010035BOULAZAC            0000980000506000000240002400300000000000187      016454                                                                                                                                 140000008         130000008         120000008         110000008         100000008                                                                                                                                                        
360002300310015 01510 4112001Rocade              0570000Entrée Issoudun     0800000POUDAULT            0670547023093022500360002300300000000000100      000000                                                                                                                                 140000001         130000001         120000001         111983831         100067311 1038                                                                                                                                                   
860002300310015 01490 4113 51POITIERS            0000000RD 62               0130618MOULINET            00708600098020092948700009003          0187      012396 1377    011054   011962   011788   013018   012130   012438   013295   013414   012978   012612   011889   012154               140123981 1407    130000001         120000001         110000001         100111411    7    011157   011429   011977   012544   012279   013090   013557   013674   013053   012427   011717   011809                                      
180002400310015 01510 4843001RD 35 / 28          0120510St Florent E(lim agg0140500RN 151 -St FLORENT E0130790001987000000180002500300000000001287      000000                                                                                                                                 140000008         130000008         120114308         110116978         100000008                                                                                                                                                        
240002400310015 02210 4113 51EX RN 89            0010035RN 89               0070527SAINT LAURENT 0014 00050034005488005355240000700300000000000197      012990 1977    010885   011244   012952   013604   013656   012927   012712   012023   012852   014604   014200   014098               140000001         130000001         120000001         110000001         100000001                                                                                                                                                        
360002400310015 01510 4843001Entrée              0800000Carrefour D918      0800440ISSOUDUN            0800300000440000000360002300300000000000193      000000                                                                                                                                 140000008         130000008         120000008         112378078         100000008                                                                                                                                                        
860002400310015 01490 4113 51RD 62               0130618DEPARTEMENT 79      0290223AYRON               0220460015656012608870000900379000100030187      007539 2077    006151   006952   006756   007703   007492   007808   008851   009555   007901   007404   006785   007057               140074581 2147    130000001         120073791 2077    110073541 2017    100071181    7    006150   006470   007002   007369   007345   007862   008803   009672   007738   007341   006797   006852                                      
180002500310015 01510 4110201St Florent E(lim agg0140500RN 142 (Roc sud Bges0210708LE SUBDRAY          0170230007213007213          00000000000695      000000                                                                                                                                 140000001         130000001         120109731 1067    110112291         100112651 1077                                                                                                                                                   
360002500310015 01510 4846001Carrefour D918      0800440Carrefour D9        0810747ISSOUDUN            0810000001496000000360002300300000000000193      000000                                                                                                                                 140000008         130000008         120000008         112341698         100000008                                                                                                                                                        
180002501310015 01510 4116001RN 142 (Roc sud Bges0210708Bourges O (lim agg) 0230570BOURGES             0220666001868001868          00000000000695      000000                                                                                                                                 140000001         130000001         120000001         110000001         100000001                                                                                                                                                        
180002599310015 01510 4813001Bourges             0230570Bourges             0290657Bourges             0250000006283000000          00000000000306      000000                                                                                                                                 140000008         130000008         120000008         110000008         100000008                                                                                                                                                        
180002600310015 01510 4110201Bourges E (lim agg) 0290657RD 955              0310360ST GERMAIN          0290800001839001839180002600300000000000695      022866  577    029770   030129   029668   023481   020806   021851   020031   017845   020007   020406   019396   021489               140000001         130000001         120000001         110000001         100257781                                                                                                                                                        
360002600310015 01510 4846001Carrefour D9        0810747Giratoire           0820890ISSOUDUN            0820000001299000000360002300300000000000193      000000                                                                                                                                 140000008         130000008         120000008         112974428         100000008                                                                                                                                                        
180002601310015 01510 4843001RD955               0310360St Germain          0340040RN 151 St Germain   0320000002676002676180002600300000000000202      013563                                                                                                                                 140000008         130000008         120000008         110000008         100000008                                                                                                                                                        
180002700310015 01510 4112001St Germain (lim agg)0340040RD 10 - Chaumoux    0560138BRECY               0420950022114020825190500500300000000000695      000000                                                                                                                                 140000001         130000001         120000001         110000001         100042531 1028                                                                                                                                                   
360002700310015 01510 4813001Giratoire           0820890Limite Dép 18       0900467ISSOUDUN EST        0850000007737007737360002300300000000000193      000000                                                                                                                                 140000008         130000008         120000008         111725408         100000008                                                                                                                                                        
180002800310015 01510 4112001RD 10 - Chaumoux    0560138RD 920 - Sancergues 0660926CHARENTONNAY        0640320010821009604190500500300000000000695      000000                                                                                                                                 140000001         130000001         120000001         110000001         100000001                                                                                                                                                        
180002900310015 01510 4112001RD 920 - Sancergues 0660926Lim dépt 18 / 58    0740236SANCERGUES          0710000007345004592190500500358000000030695      000000                                                                                                                                 140000001         130000001         120033651 1077    110036631 1527    100036841                                                                                                                                                        
180003000310015 01420 4113001RD 400 (Roc ouest B)0000000RN 144 (Giratoire)  0040725TROUY               0000650005055005055190500500300000000000695      000000                                                                                                                                 140000001         130000001         120000001         110128681 2927    100123861                                                                                                                                                        
180003100310015 01420 4113001RN 144 (Giratoire)  0040725RN 76               0090579PLAIMPIED           0070220004880004880190500500300000000000695      000000                                                                                                                                 140000001         130000001         120000001         110000001         100131671                                                                                                                                                        
870003200310015 01410 4113 51RD 20               0430000SAINT JUNIEN dev    0630000LES CARRIERES       05106000190070190070000000000          0187      000000                                                                                                                                 140211871 1547    130000001         120086911 1227    110174061    7    100152601    8    018512   019172   020046   021363   020932   022352   023220   023456   022467   022013   020436   020134                                      
870003201310015 01410 4110101Les_seguines        0000000Les_seguines        0000000LES_SEGUINES        0000000000000000000000000000000000000000311      000000                                                                                                                                 140181381 1637    130000001         120158591         110000001         100160001    0    015505   016188   016982   018248   017926   019151   019904   021011   019350   018817   017311   017115                                      
870003300310015 01410 4143 51SAINT JUNIEN dev    0630000DEPARTEMENT 16      0711005LE_DEROT            06402920088900088900000000000          0187      011698 1187    008812   010028   010340   011890   012321   012075   014125   015369   012157   011945   010459   010682               140112931 1707    130000001         120101481 2197    110102201 2397    100097541 1767    008978   009592   010106   011362   011136   012016   013309   014964   012019   011622   010081   010185                                      
180003500310015 01420 4113001ech RN76            0090579RD976               0120764GUERRY              0100647003211003211190500500300000000000204      000000                                                                                                                                 140000001         130000001         120000001         110137651 1257    100133211                                                                                                                                                        
180003600310015 01420 4113001RD976               0120764RN151               0131000FENESTRELAY         0130275001421001421190500500300000000000204      000000                                                                                                                                 140000001         130000001         120000001         110000001         100000001                                                                                                                                                        
030003700310015 01450 4113001DEP. 23             0000000RD 745              0100218QUINSSAINES         0090573010236010236000000000023000060030295      000000                                                                                                                                 140108331         130000001         120000001         110000001         100090181    7             008939   010131   010720   010785   011129   013111   014921   010863   010653   009057   009847                                      
030004200310015 01450 4112001RD 745              0100218RD 2144             0160039DOMERAT             0130761009145009145000000000000000000000595      000000                                                                                                                                 140000001         130000001         120000001         110000001         100107481 1777                                                                                                                                                   
030007000310015 01450 4113001RD 2144             0160039A 71                0240938LE MONTAIS          0240310008958008958000000000000000000000495      000000                                                                                                                                 140000001         130000001         120000001         110000001         100000001                                                                                                                                                        
870010000310015 05200 485 251A 20                0000000RN 147              0060000RN 520 tronçon 1    00500000060000060000000000000          0107      000000                                                                                                                                 140000008         130000008         120000008         110000008         100000008                                                                                                                                                        
870010001310015 05200 485 251RN 147              0060000RN 21               0140222RN 520 tronçon 2    0070000008222008222000000000000000000000107      000000                                                                                                                                 140000008         130000008         120000008         110000008         100000008                                                                                                                                                        
870010002310015 05200 485 251RN 21               0160000A 20                0191215LIMOGES             0180000003856003856000000000000000000000107      000000                                                                                                                                 140000008         130000008         120000008         110000008         100000008                                                                                                                                                        
240102100310015 10210 4813 51RD 660              1060000RN 21 PR111         1110405BERGERAC            1100500004862004862240000700300000000000187      010658                                                                                                                                 140000008         130000008         120000008         110000008         100000008                                                                                                                                                        
470102100310015 10210 4813001DEB RN              0620000FIN RN              0671475RN 1021             0620000006945006945470000300300000000000106      005716                                                                                                                                 140057138         130000008         120000008         110000008         100000008                                                                                                                                                        
470111300310015 11130 4813001AGEN                0160000RN 113 PR20         0200901AGEN                0170000004804004804000000000000000000000697      000000                                                                                                                                 140000008         130000008         120000008         110000008         100000008                                                                                                                                                        
190500100310015 00200 181 241DEP. 87             2230000MASSERET RN20       2250400MASSERET            22400000027450027451905005003000000000 0195      000000                                                                                                                                 140000008         130000008         120260648         110264128         100000008                                                                                                                                                        
230500100310015 00200 1110241DEP 36              1200000DPT 87              1210077A 20 nord           1210000001405001405240000301387050010030998      000000                                                                                                                                 140000001         130000001         120000001         110000001         100000001                                                                                                                                                        
870500100310015 00200 1110241ECH_21              1200000ECH_22              1290500LA GARDE            1250582006484006484          00000000000998      016569 2057    013995   016192   015542   016391   014202   015046   029702   032590   017044   010103   008267   009408               140190501 1867    130000001         120203921         110000001         100202661    8    013963   014900   016002   019332   020697   020858   017755   029220   019943   019685   016740   019122                                      
190500200310015 00200 111 241ECH_43              2250000ECH_44              2300000SRDT_A20_43_44      22900000055000055002400003013          0998      026063 1707    018530   021293   020659   026078   027416   025374   035027   041123   025820   025501   021023   024258               140253751 1677    130000001         120000001         110000001         100000001         018052   019082   021073   025137   025416   025810   033879   040733   025605   024256   021236   023497                                      
870500200310015 00200 1110241ECH 22              1280485ECH 23              1370410RUFFEC              1320000007903007903          00000000000998      000000                                                                                                                                 140000001         130000001         120000001         110000001         100000001                                                                                                                                                        
230500250310015 00200 1110241ECH_22              1290500ECH_23              1370500SRDT_A20_22_23      1360250008000008000240000301300000000000213      021156 2217    014350   016496   015874   021201   023028   020331   029671   034573   019705   021439   016487   020045               140209911 2197    130207161 1957    120203101 2117    110000001         100000001         014352   015350   016535   021215   020432   022219   028646   034991   020967   020055   017090   019417                                      
190500300310015 00200 111 241ECH_44              2300900ECH_45              2430700ANGLARD             24100000128000128002400003013000000000 0998      025040 1607             020263   019511   024683   025903   024059   033243   039089   024334   024087   019860   022980               140245311 1577    130000001         120243441 1517    110234221         100229501 1318    017715   018701   020642   024042   024026   025312   032444   039128   024749   023390   020312                                               
870500300310015 00200 1110241ECH_23              1370500ECH_23-1            1440610SRDT_A20_23-23.1    1390475007110007110          00000020030192      021091 1987    019769   022290   021890   027587   028819   026730   035621   040141   026697   003487   000068   000003               140265261 2047    130000001         120263201 2047    110000001         100271311         019818   020677   022236   026920   025960   028076   034371   038784   026836   026100   022839   025075                                      
190500400310015 00200 111 241ECH_45              2430700ECH_46              2520175SRDT_A20_45_46      2450350008475008475240000301300000000000213      026059 1657    018172   020976   020100   025670   026481   024816   034187   039525   025252   024847                                 140249971 1667    130243291 1607    120139591 1597    110000001         100000001         017599   018501   020353   024407   024417   027624   032811   039636   025618   023805   020659   023847                                      
360500400310015 00200 1110241ECH_11              0430603Ech. 12             0550000ST_MAUR             0520050011397011397470000202300000000000304      023173 2017    016391   018796   018056   023513   025039   022604   031337   034673   022367   023336   018934   022438               140218141 2077    130000001         120203691 2147    110211651 2067    100213241    0    015053   016075   016909   021966   020208   022057   028616   035078   021943   022278   019391   021571                                      
870500400310015 00200 1110241ECH_23-1            1440610ECH_24              1480180SRDT_A20_23.1_24    1450600003570003570          00000020030192      026397 2087    019030   021515   021128   026772   028049   025897   034754   039321   025898   026385   021974   025403               140257691 2037    130000001         120257031 1997    110000001         100000001         019124   019985   021513   026107   025127   027172   033380   039262   025475   025109   022055   024287                                      
360500410310015 00200 1110241ECH_10S             0320645ECH_11              0430603SRDT_A20_10S_11     0380440010958010958470000202300000000000213      022610 2037    015855   018250   017471   022952   024528   022029   030937   034325   021817   022439   018299   021828               140000001         130000001         120218691 1927    110000001         100000001                                                                                                                                                        
190500500310015 00200 111 241ECH_46              2520175ECH_47              2600800SADROC              25608200086250086252400003013000000000 0194      000000                                                                                                                                 140000001         130000001         120312961 1607    110317121 1607    100305731    8                                                                                                                                                   
360500500310015 00200 1110241Ech. 12             0550000Ech. 13             0610000Brelay              05900000060000060004700002023          0101      024990 2177    017901   020312   019746   025275   026816   024605   033606   037371   024366   024729   020489   024044               140247851 2177    130000001         120259091         110250621         100000001         018052   019150   020359   025475   024031   026379   032664   037907   024126   024295   021145   023235                                      
870500500310015 00200 1110241ECH_24              1480180ECH_25              1580220TOIT DE CHAUME      1490210010040010040          00000020030192      029356 1937    021739   024353   023987   029777   030857   028943   037962   042151   029026   029568   024912   028366               140286601 1917    130000001         120283501 1877    110289931 1877    100286441 1437    022025   022892   024433   029209   028077   029613   036657   042196   028051   027975   024945   027200                                      
870500510310015 00200 111 241ECH_25              1580000ECH_26              1630000SRDT_A20_25_26      1600000005245005245                    0195      031006 1787    023029   025779   025556   031258   032467   030437   040114   044071   030769   031361   026488   030073               140300581 1767    130000001         120000001         110000001         100000001         023065   023943   025535   030696   029737   031729   038413   043887   029052   028841   026465   028674                                      
190500600310015 00200 111 241ECH_47              2600000ECH_48              2640000SRDT_A20_47_48      26200000037000037002400003013          0194      035046 1487    024989   027486   027078   034607   036005   034487   047783   056271   035249   034225   028313   033079               140333821 1567    130000001         120000001         110000001         100000001         024252   025157   027174   032730   032938   034639   044805   055075   032850   032129   027882   029977                                      
360500600310015 00200 1110241Ech. 13             0610000ECH_14              0680000PONT/INDRE          06201500070000070004700002023          0101      025863 2127    018438   020892   020262   026166   027829   025364   034915   039187   025136   025560   021005   024934               140256491 2107    130000001         120246901 2077    110231291 2257    100248231         018575   019533   021085   026344   024874   027403   033902   039615   024913   024973   021752   024159                                      
870500600310015 00200 111 241ECH_26              1630465ECH_27              1700240NEPOULAS            1650114006775006775                    0195      031529 1677             026586   024801   026980   031002   031121   040326   043965   031321   032010   027258   030661               140313881 1807    130000001         120304511 1767    110311191 1777    100296241         024119   024983   026568   031183   030188   032522   038675   043916   030659   030455                                                        
190500700310015 00200 111 241ECH_48              2640500ECH_49              2670800DONZENAC            26507300033000033002400003013          0192      033568 1607    024137   026845   025048   032098   032814   030823   040255   055264   036001   035146   029450   034099               140329901 1287    130000001         120311091 2057    110000001         100315431         023951   025331   026500   031254   033003   034423   044701   054584   031954   031136   028350   029753                                      
870500700310015 00200 111 241ECH_27              1700240ECH_28              1750280GROSSEREIX AIRE DE B1740225005040005040                    0195      037433 1427    029754   032549   032416   038283   038517   037883   045689   048035   037501   038041   033344   036632               140000001         130000001         120369861 1817    110366151 2307    100373461                                                                                                                                                        
190500800310015 00200 111 241ECH. USSAC 49       2680000ECH. DU CANA 50     2730000BRIVE               27000000049970049972400003013          0195      038493 1557    028312   031383   030578   038362   039401   038086   051340   059108   038591   037592   031630   036602               140374391 1507    130000001         120238351         110241521         100000001         028172   029173   031396   036686   036717   039097   048667   058605   037354   036231   031362   034830                                      
360500800310015 00200 1110241ECH_14              0680000ECH_15              0770000LA_LIENNE           06900000090000090004700002023          0101      027960 1937    020496   022976   022436   028414   029831   027599   036854   040867   027322   027800   023151   027117               140276231 1917    130000001         120275061 1857    110000001         100273811         020735   021834   023056   028470   027068   029459   035932   041444   025683   027049   023907   026188                                      
870500800310015 00200 111 241ECH_28              1750280ECH_29              1760719SUD RN 520          1760190001268001268                    0195      000000                                                                                                                                 140000001         130000001         120000001         110000001         100000001                                                                                                                                                        
190500810310015 00200 111 241ECH_A89             2690790ECH_50              2720700SRDT_A20_A89_50     2710860002910002910240000301300000000000213      031912 1557    024169   026840   026238   032351   032947   031921   040895   045051   032209   031882   027097   030726               140311371 1517    130302021 1307    120141241 1537    110000001         100000001         023544   024387   026423   030825   031074   033056   039419   045245   031374   030963   027052   029558                                      
190500900310015 00200 111 241ECH_50              2720700ECH_51              2740500CANA                27302100015100015102400003013000000000 0192      034494 1667    026495   029364   028689   035061   035639   034305   043931   048083   034298   034667   029361   033383               140337891 1657    130000001         120327771 1667    110332531 1607    100318291         026119   027115   029496   033746   033632   035854   042505   048879   033928   032284   028966   032211                                      
870500900310015 00200 111 241ECH_28              1750280ECH_29              1760719GROSSEREIX SUD RD2001760190001439001439                    0195      000000                                                                                                                                 140000001         130000001         120000001         110000001         100498451                                                                                                                                                        
190501000310015 00200 111 241ECH_51              2740500ECH_52              2810300CENTRE AUTO         27600000068000068002400003013000000000 0192      027785 1617    020243   022627   021914   027903   029144   027248   037134   042734   027985   027090   022496   026228               140273741 1567    130000001         120264671 1367    110270211 1597    100265281         020453   021073   022662   026864   027206   029078   036011   043276   027361   026097   022047   025623                                      
870501000310015 00200 111 241ECH_29              1760719ECH_30              1770500BEAUBREUIL          1770186000781000781                    0195      055889  997    048751   052106   052057   057897   055575   059141   064575   065682   054007   057452   049631   053335               140565561 1087    130000001         120560541 1087    110000001         100548861         050324   051128   053186   057098   055678   059586   064168   064406   058375   056852   051759   055608                                      
190501100310015 00200 111 241ECH_52              2810300ECH_53              2850381FONT TROUVE         28309650040810040812400003013000       0195      024644 1647    017608   019845   019151   024674   025864   024002   033839   039028   024017   023997   019697   023348               140242391 1657    130000001         120238491 1657    110240141 1647    100237281         017593   018265   020273   023698   023992   025118   031720   039489   024045   023185   020251   022546                                      
870501100310015 00200 111 241ECH_30              1770500ECH_31              1780772TECHNOPOLE          1780596001272001272                    0195      042009  897    037337   040186   039679   045568   043778   044936   053574   050935   037142   038111   034468   038024               140443691  487    130000001         120438261    7    110432641    7    100428571         038366   038851   040602   044558   043185   046505   051980   055458   045145   044299   039908   042996                                      
360501200310015 00200 1110241ECH_17N             0860800Ech. 18             0940000CEI_ARGENTON        09300000072000072004700002023          0101      022700 1437    015558   017877   017235   022861   024581   022106   031670   036053   021899   022347   017932   021614               140223701         130000001         120220171 1397    110000001         100219531    8    015624   016561   017764   022793   021729   023846   030475   036488   021611   021579   018534   020782                                      
870501200310015 00200 111 241ECH_31              1780000ECH_32              1810000SRDT_A20_31_32      1800000002538002538                    0195      050605 1027    050397   053888   053938   060392   056785   058727   064120   064924   018323   023215   043484   058694               140570251 1057    130000001         120559801         110653861         100666921         050489   051054   053082   057955   056422   059719   063871   065795   058981   057630   052359   056397                                      
870501300310015 00200 111 241ECH_32              1810310ECH_33              1820332PUY IMBERT          1810502001022001022          00000000000213      039573  937    031060   033502   033452   037205   034070   036115   038697   035864   035342   036262   056089   066836               140360031  897    130392421  827    120421521  767    110490351  597    100000001         032162   035369   036623   038973   037448   036699   038507   036265                     031952   034595                                      
870501400310015 00200 111 241ECH_33              1820332ECH_34              1830000LES CASSEAUX        1820413000668000668                    0195      000000                                                                                                                                 140524711 1137    130000001         120521911 1177    110530031 1167    100500541         046426   047300   049667   053302   051963   054927   058839   061865   053851   053081   047238   050674                                      
870501500310015 00200 111 241ECH_34              1830000ECH_35              1850000CHASTAINGT          1840140002000002000                    0195      051486         044250   046204   047346   053578   051003   052084   059122   060329   050296   052480                                 140514541         130000001         120508941         110000001         100501671         045431   045558   048099   052003   050711   053654   058779   061145   052617   052023   046773   050068                                      
870501600310015 00200 111 241ECH_35              1850000ECH_36              1860000LAUGERIE            1860000001000001000                    0195      042538 1257    035500   038459   037946   043860   042889   043068   050617   052843   041067   042811   038394   042481               140425671 1197    130000001         120425011 1247    110434631 1267    100426931 1107    036452   036905   038960   042676   041605   044497   049525   052140   044120            038300   041769                                      
870501700310015 00200 111 241ECH_36              1860000ECH_37              1890630SUBDIVISION A 20    1880550003630003630                    0195      040267 1267    033194   035496   034893   040792   040711   040343   048719   052011   040048   040108   035668   040632               140396461 1237    130000001         120400731 1377    110403291 1097    100402191         033795   034109   036265   035780   036220   042048   048230   052922   040461   039568   035930   039746                                      
870501800310015 00200 111 241ECH_37              1890000ECH_38              1930000SRDT_A20_37_38      1930000003850003850                    0195      033460 1377    025867   028723   028251   033991   034456   033318   042249   046629   033410   033210   028707   032104               140331691 1357    130000001         120000001         110000001         100000001         026067   027030   029168   032973   032584   035046   041103   047231   033543   032675   028785   031152                                      
870501900310015 00200 111 241ECH_38              1930000ECH_39              1990000SRDT_A20_38_39      1950000005675005675                    0195      033619 1387    025896   028600   028254   034084   034686   033700   042554   046962   033632   033383   028847   032203               140330661 1207    130000001         120000001         110000001         100000001         025791   026771   028901   032945   032706   034954   040797   046929   033236   032805   028995   031289                                      
870502000310015 00200 111 241ECH_39              1990155ECH_40              2030050PIERRE BUFFIERE     2010560003895003895                    0195      029584 1027    022203   024945   024388   029953   030795   029511   037520   043325   029661   029326   024786   027998               140292771 1017    130000001         120271601 1257    110269021 1427    100266181         022214   023155   025283   028888   028723   031021   037162   043831   029458   028523   025082   027298                                      
870502010310015 00200 111 241ECH_40              2030050ECH_41              2120140LE MONCEAU          2120000007090007090          00000000000213      026459 1517    019164   021826   021222   026511   027660   025858   035040   040663   026312   026101   021667   024869               140000001         130000001         120000001         110000001         100000001                                                                                                                                                        
870502100310015 00200 111 241ECH 40              2030050ECH_41              2120140LE MONTCEAU         2120000009144009144                    0193      000000                                                                                                                                 140000001         130000001         120000001         110000001         100000001                                                                                                                                                        
870502200310015 00200 111 241ECH_41              2120000ECH_42              2170000SRDT_A20_41_42      2160000005757005757                    0187      026999 1607    019398   022124   021532   027052   028344   026363   035914   041919   026828   026596   021980   025281               140265971 1537    130000001         120000001         110000001         100000001         019368   020364   022236   026076   026061   028116   035320   042143   026527   025586   022186   024466                                      
870502300310015 00200 111 241ECH 42              2170000DPT. CORREZE        2220000                    2220000004751004751                    0395      025960 1707    018407   021130   020541   025968   027375   025290   034883   040976   025729   025446   020937   024175               140255281 1677    130000001         120000001         110000001         100000001         018390   019455   021499   025156   025147   026586   033860   041090   025465   024435   021147   023392                                      