630501900310015 07110 1110241Carf.RN 89          0000000Carf. A 72          0060410SORTIE EST          0040000005056005056          00000000001299      000000                                                                                                                                 140953311    7    130880111    7    120874461    7    110853171    7    100000001         079033   105676   068753   060455   043036   049317   031751   044102   042866   045552   039075   006481                                      
630501900210015 07110 1110241Carf.RN 89          0000000Carf.A72            0060410SORTIE EST          0040000005056005056          00000000001299      000000                                                                                                                                 140548521    7    130429651    7    120421791    7    110408841    7    100000001         054386   062648   058760   048678   028467   036689   021853   021376   023085   023493   022116                                               
630501900110015 07110 1110241Carf.N89            0000000INTER A72           0060410SORTIE EST          0040000005056005056          00000000001299      000000                                                                                                                                 140404791    7    130450461    7    120452671    7    110444331    7    100000001         024647   043028   009993   011777   014569   012628   009898   022726   019781   022059   016959   016480                                      
630501800310015 00750 1110241Carf. RD76          0450600LIMITE Hte LOIRE    0490000NORD DE LEMPDES     0470000003400003400          43000000011299      000000                                                                                                                                 140068581    7    130110661    7    120105471    7    110111241    7    100116061    7    003805   007287   001972   003255   003117   003735   008584   018789   010796   007004   007027   006878                                      
630501800210015 00750 1110241Carf.RD76           0450600LIMITE Hte LOIRE    0490000NORD DE LEMPDES     0470000003400003400          43000000011299      000000                                                                                                                                 140132791    7    130127901    7    120124961 1097    110128161 1107    100126021 1277    008973   008971   009811   011811   012784   013870            024379   014076                                                                 
630501800110015 00750 1110241Carf.RD76           0450600LIMITE Hte LOIRE    0490000NORD DE LEMPDES     0470000003400003400          43000000011299      010364                           008082   009556   010731   009971   012448   015958   010394   009635   008285   008472               140114511    7    130121731 1037    120110041    7    110127251 1117    100123951    7    007547   008776                                                018818   010787                                                                 
630501300310015 00750 1110241Carf RD 9           0300000Carf. RD 996        0310000ORBEIL              0310000001120001120          00000000001299      025933         019734   021943   021787   023749   026509   025417   036083   035734   024302   027297   023092   024930               140549841 1027    130607401 1027    120495261 1147    110618471 1217    100595621 1217    039204   042126   045353   053491   055226   060183   073890   089052   057682   053236   045208   044922                                      
630501300210015 00750 1110241Carf RD 9           0300000Carf. RD 996        0310000ORBEIL              0310000001120001120          00000000001299      011803         009782   010153   010295   010852   011907   011399   014537   014470   010909   013340   011816   011939               140269931    7    130336601 1037    120217931 1197    110270491 1217    100261561 1237    019344   019832   022418   025532   027302   030202   033744   044487   030262   026618   022871   021766                                      
630501300110015 00750 1110241Carf RD 9           0300000Carf. RD 996        0310000ORBEIL              0310000001120001120          00000000001299      014130         009952   011790   011492   012897   014602   014018   021546   021264   013393   013957   011276   012991               140279911 1047    130270801 1027    120277331 1097    110347981 1217    100334061 1197    019860   022294   022935   027959   027924   029981   040146   044565   027420   026618   022337   023156                                      
630501000310015 00750 1110241Carf.RD978          0140634ECHANGEUR COUDES Nø80180582AUTHEZAT            0170000004115004115          00000000001299      000000                                                                                                                                 140799761 1017    130715521 1017    120752891 1037    110760711 1047    100679901 1227    064365   074035   066331   076656   076116   082758   096901   114074   080307   063813   039280   039744                                      
630501000210015 00750 1110241Carf.RD978          0140634Carf.RD797C         0180582AUTHEZAT            0170000004115004115          00000000001299      000000                                                                                                                                 140405981 1057    130364611 1037    120376211 1067    110378861 1077    100344671 1227    033118   037777   033727   037691   038252   041646   045317   060346   041945   035333   019754   019971                                      
630501000110015 00750 1110241Carf.RD978          0140634Carf.RD 797C        0180582AUTHEZAT            0170000004115004115          00000000001299      000000                                                                                                                                 140393781    7    130350911    7    120376681 1007    110381851 1017    100335231 1227    031247   036258   032604   038965   037864   041112   051584   053728   038362   028480   019526   019773                                      
630500800310015 00750 1110241Carf.RD978          0060210Carf.RD213          0090956NOVIALE             0060500003888003888          00000000001299      036693  547    029542   031716   032733   036805   036169   038355   048221   045040   036785   036800   032484   035116               141034001    7    131023191    7    121119481    7    111043381    7    101017271    7    088559   092507   095354   104488   101075   109176   122472   134593   106682   097800   092708   094312                                      
630500800210015 00750 1110241Carf.RD978 Nø4      0060210ECHANGEUR D213 Nø5  0090956NOVIALE             0060500003888003888          00000000001299      009934  217    007528   008165   008493   009820   009527   010426   014178   012821   009957   010024   008567   009504               140512361    7    130506001    7    120479041    7    110471891    7    100505481    7    044206   045055   047484   050838   049998   054090   057248   069760   054268   048797   046360   046149                                      
630500800110015 00750 1110241Carf.RD 978         0060210Carf.RD213          0090956noviale             0060500003888003888          00000000001299      026759  787    022014   023551   024240   026985   026642   027929   034043   032219   026828   026776   023917   025612               140521641    7    130517191    7    120640441    7    110571491    7    100511791    7    044353   047452   047870   053650   051077   055086   065224   064833   052414   049003   046348   048163                                      
630500701110015 00750 2110201Carf.RD 137         0040810Carf.RD978          0060210LES LITTES          0050500001437001437          000      01299      007967  577    008107   007857   008712   007871   007437   008656   007425   005852   009041   008374   008307   008013               140077531    7    130077691    7    120078471    7    110076221    7    100072151    7    007893   008124   008449   008644   007499   007672   007232   005877   007912   007966   008082   007761                                      
630500700110015 00750 1110241Carf.RD 137         0040810Carf.RD978          0060210LES LITTES          0050500001437001437          00000000001299      034232  707    029590   031097   032032   034459   033846   036073   040979   037904   034630   034613   031778   033483               140332021    7    130328921    7    120332111    7    110327761    7    100320831    7    030317   032073   031335   034612   032505   033907   038884   037883   031858   032439   030707   031739                                      
630500600310015 00750 1150241Ech 1               0020000Carf.RD137          0040810AUBIERE             0020350002810002810          00000000001299      065253  887    056270   058731   061735   064129   064032   068415   074852   074739   068197   066949   061363   063025               140462101 1007    130491521 1057    120489161 1137    110476991 1017    100466921 1207    038165   040505   042981   048955   048019   049324   060280   058631   039747   043161   041358   042354                                      
630500600210015 00750 1150241Ech 1               0020000Carf.RD 137         0040810AUBIERE             0020350002810002810          00000000001299      031981  877    027513   028529   030214   031040   031751   033110   035071   038823   033829   032936   030127   030501               140935321    7    130943751    7    120952731    7    110942811    7    100935191    7    086073   088358   090380   096284   091217   096785   100022   116116   093566   087937   087435   087696                                      
630500600110015 00750 1150241Ech 1               0020000Carf RD 137         0040810AUBIERE             0020350002810002810          00000000001299      033272  887    028757   030202   031521   033089   032281   035305   039781   035916   034368   034013   031236   032524               140307151    7    130319001    7    120323361    7    110320011    7    100308101    7    028768   030602   030527   033585   029993   029724   035495   035145   026520   028903   029126   030054                                      
630500502310015 0A750 1150241Voie ferrée         0010000Ech 1               0020000LA PARDIEU          0010547001000001000          00000000000408      053813 1017    045040   047496   050068   052210   053235   056396   063614   065413   056490   054799   049724   050649               140543641 1017    130578071    7    120590411    7    110578041    7    100551411    7    051410   054276   054928   059448   053693   053263   060040   067391   045495   047431   051977   052778                                      
630500502210015 0A750 1150241Voie ferrée         0010000Ech 1               0020000LA PARDIEU          0010547001000001000          00000000000408      027016 1017    022621   023592   025118   025837   027054   027849   030158   034804   028840   027786   025069   025115               140245671 1037    130258011    7    120264311    7    110260301    7    100253881    7    022663   023654   024238   026113   024269   025543   026055   032760   022951   020525   023095   022832                                      
630500502110015 0A750 1150241Voie ferrée         0010000Ech 1               0020000LA PARDIEU          0010547001000001000          00000000000408      026797 1037    022419   023904   024950   026373   026181   028547   033456   030609   027650   027013   024655   025534               140237951 1067    130256751 1027    120260521    7    110258181 1007    100239141    7    022435   024127   024147   026885   023689   021751   028066   029541   017303   021375   022686   023360                                      
630500501310015 0A750 1150241A 71                0000000Voie ferrée         0010000LA POUDRIERE        0000845001000001000          00000000000408      068159  937    059258   062522   064790   066532   066456   070861   077093   076601   070809   070798   064566   067077               140616861    7    130656961    7    120671081    7    110648611    7    100631531    7    059416   062445   062995   067564   060641   059767   066966   073618   051553   054039   059751   061290                                      
630500501210015 0A750 1150241A 71                0000000Voie ferrée         0010000LA POUDRIERE        0000845001000001000          00000000000408      033441  937    028916   030269   031678   032273   032962   034273   036264   039930   035246   034958   031706   032498               140305691    7    130321321    7    120329891    7    110319861    7    100312271    7    028975   030149   030781   032563   030004   031512   031974   037850   028192   026056   029291   029418                                      
630500501110015 0A750 1150241A 71                0000000Voie ferrée         0010000LA POUDRIERE        0000845001000001000          00000000000408      034718  937    030342   032253   033112   034259   033494   036588   040829   036671   035563   035840   032860   034579               140311171    7    130335641    7    120341191    7    110328751    7    100319261    7    030441   032296   032214   035001   030637   028255   034992   035768   023361   027983   030460   031872                                      
480500801310015 00750 2111001ECH.40              0000000ECH.40              0010000BANASSAC            0000005001000001000          00000000000199      000000                                                                                                                                 140136181 1717    130072731 1867    120073531         110095691         100076741         008373   008909   010701   012638   016593            000523   008938                                                                          
480500801210015 00750 2111001A75                 0000000N9                  0010000BANASSAC            0000005001000001000          00000000000199      000000                                                                                                                                 140000001         130000001         120001301         110006881         100006091                                                                                                                                                        
480500801110015 00750 2111001                    0000000                    0010000BANASSAC            0000005001000001000          00000000000199      000000                                                                                                                                 140076191 1377    130003181 9687    120001071         110004871         100004551         003444   003846   004966   006242   007661   008129   010522   018937   008229   006413   007697   004966                                      
480500800310015 00750 1110241ECH.40 BANASSAC     1720047LIMITE AVEYRON      1790296BANASSAC            1720100007249007249          00000000000199      000000                                                                                                                                 140084931 1897    130139691 1627    120146231 1677    110175361 1567    100143391 1657    008224   009144   008858   009469   011753                                                                                                     
480500800210015 00750 1110241ECH.40 BANASSAC     1720047LIMITE AVEYRON      1790296BANASSAC            1720100007249007249          00000000000199      000000                                                                                                                                 140059991 2107    130069551 1827    120072461 1927    110090821 1817    100072191 1957    004929   005063   005735   006396   008932                                                                                                     
480500800110015 00750 1110241ECH.40 BANASSAC     1720047LIMITE AVEYRON      1790296BANASSAC            1720100007249007249          00000000000199      000000                                                                                                                                 140024941 1377    130070141 1427    120073771 1487    110084541 1377    100071201 1437    003295   004081   003123   003073   002821   002979   003226   004451   000958   000843   000496   000657                                      
480500701310015 00750 2111001ECH.40              0000000ECH.40              0010000BANASSAC            0000005001000001000          00000000000199      000000                                                                                                                                 140000001         130000001         120001871         110009481         100008581                                                                                                                                                        
480500701210015 00750 2111001N9                  0000000A75                 0010000BANASSAC            0000005001000001000          00000000000199      000000                                                                                                                                 140000001         130000001         120000991         110005421         100004691                                                                                                                                                        
480500701110015 00750 2111001A75                 0000000N9                  0010000BANASSAC            0000005001000001000          00000000000199      000000                                                                                                                                 140000001         130000621 1000    120000001         110000001         100000001                                                                                                                                                        
480500700310015 00750 1110241ECH.39 LE MONASTIER 1610724ECH.40 BANASSAC     1720047ST GERMAIN DU TEIL  1670000010323010323          00000000000199      000000                                                                                                                                 140000001         130000001         120087711         110068251         100000001                                                               004651   007446                                                                          
480500700210015 00750 1110241ECH.39 LE MONASTIER 1610724ECH.40 BANASSAC     1720047ST GERMAIN DU TEIL  1670000010323010323          00000000000199      000000                                                                                                                                 140082611 1347    130061641 1637    120082101 1217    110060271 1457    100000001         004537   004653   005820   007113   008496   009041   011491   020030   009138   006919   005988   005497                                      
480500700110015 00750 1110241ECH.39 LE MONASTIER 1610724ECH.40 BANASSAC     1720047ST GERMAIN DU TEIL  1670000010323010323          00000000000199      000000                                                                                                                                 140084741 1267    130081581 1207    120086721 1217    110062831 1417    100000001         004641   005083   006009   008257   008741   009460   014650   017445   008177   007017   005672   006130                                      
480500600310015 00750 1110241ECH.37 LE BUISSON   1460000ECH.39 LE MONASTIER 1610000CHIRAC              1580000015100015100                    0199      000000                                                                                                                                 140103571    7    130124431    7    120133431 1197    110161491 1077    100127731 1187    007460   008905   010764   010813   012438   013679   011904   013883   009705   007628   007389   009571                                      
480500600210015 00750 1110241ECH.37 LE BUISSON   1460000ECH.39 LE MONASTIER 1610000CHIRAC              1580000015100015100                    0199      000000                                                                                                                                 140066241    7    130061061    7    120067201    7    110084761    7    100065931    7    003988   005114   006308   005969   006993   007490   008196   009019   007274   006216   005880   006893                                      
480500600110015 00750 1110241ECH.37 LE BUISSON   1460000ECH.39 LE MONASTIER 1610000CHIRAC              1580000015100015100                    0199      000000                                                                                                                                 140037331 1077    130063371 1327    120066231 1407    110076731 1307    100061801 1407    003472   003791   004456   004844   005445   006189   003708   004864   002431   001412   001509   002678                                      
480500400310015 00750 1110241ST CHELY-SUD        1270799AUMONT-NORD         1330830AUMONT-NORD         1330830006053006053          48000010030393      014221 1397    007350   008406   008556   013471   015983   013872   024684   033249   013491   011979   008646   010164               140124871 1497    130136841 1457    120143451 1367    110110621 1357    100104341         007181   007474   009257   012583   014152   015232   022796   017757   012855   011542   008933   009591                                      
480500400210015 00750 1110241ST CHELY-SUD        1270799AUMONT-NORD         1330830AUMONT-NORD         1330830006053006053          48000010030393      007132 1327    003796   004163   004317   006303   008224   006649   010517   018265   007307   006206   004452   004978               140060721 1397    130069081 1327    120072201 1037    110053361 1067    100047911         003689   003647   004680   005883   007057   007502   009845   008117   006957   005909   004628   004737                                      
480500400110015 00750 1110241ST CHELY-SUD        1270799AUMONT-NORD         1330830AUMONT-NORD         1330830006053006053          00000010030393      007089 1527    003554   004243   004239   007168   007759   007223   014167   014984   006184   005773   004194   005186               140064151 1587    130067761 1587    120071251 1737    110057261 1737    100056431         003492   003827   004577   006700   007095   007730   012951   009640   005898   005633   004305   004854                                      
480500101310015 00750 2110201LA GARDE            1160700LA GARDE            1160700ALBARET_MARI_M      1160700000000000000          00000000000794      000000                                                                                                                                 140077271         130078231 1447    120090481 1437    110095971 1317    100093841 1287             003841   004927   006170   007459            009954   009171   008109   006222                                                        
480500101210015 00750 2110201LA GARDE            1160700LA GARDE            1160700ALBARET_MARI_F      1160700000000000000          00000000000794      000000                                                                                                                                 140011931 1547    130011251 1547    120011731 1757    110011721 1417    100011661 1477    000475   000465   000630   000856   001071   001214   001667   003488   001244   000835   001097                                               
480500101110015 00750 2110201LA GARDE            1160700LA GARDE            1160700ALBARET_MARI_M      1160700000000000000          00000000000794      000000                                                                                                                                 140000011         130002711 1857    120006081 1687    110011471 1607    100011371 1647             000001   000001   000001   000001            000001            000001   000001                                                        
480500100310015 00750 1110241LIMITE CANTAL       1140527LA GARDE SUD        1160943ALBARET_MARI_M      1160700002416002416          00000000000592      000000                                                                                                                                 140143561 1407    130137831 1367    120146351 1347    110147111 1317    100142601 1307    007139   007545   009310   012350   014001   014898   020795   032572   014016   011506   013572   013830                                      
480500100210015 00750 1110241LIMITE CANTAL       1140527LA GARDE SUD        1160943ALBARET_MARI_F      1160700002416002416          00000000000592      000000                                                                                                                                 140077261 1497    130075521 1447    120084401 1427    110084501 1287    100082471 1277    003830   003840   004926   006169   007458   007933   009953   019170   008108   006221   007312   007371                                      
480500100110015 00750 1110241LIMITE CANTAL       1140527LA GARDE SUD        1160943ALBARET_MARI_M      1160700002416002416          00000000001101      004840 2907    003693   005206   003349   004662   005085   004782   007873   008277   004389   004185   002968   003567               140066301 1317    130062311 1277    120061951 1247    110062611 1367    100060131 1347    003309   003705   004384   006181   006543   006965   010842   013402   005908   005285   006260   006459                                      
480002500310015 01060 4112001CARR.D907B          0510305ST BAUZILE D41      0730660FLORAC_NORD         0530900021847021847          00000000000995      000000                                                                                                                                 140010491 1997    130012091 1937    120010861 1967    110013181 1737    100013141 1757    000637   000706   000770   001095   001147   001282   001397   001921   001255   000911   000732   000706                                      
480002500210015 01060 4112001CARR.D907B          0510305ST BAUZILE D41      0730660FLORAC_NORD         0530900021847021847          00000000000995      000000                                                                                                                                 140004121 1957    130004851 2157    120005411 2167    110006591 1937    100006581 1937    000062   000064   000059   000393   000480   000620   000663   000813   000601   000452   000364   000352                                      
480002500110015 01060 4112001CARR.D907B          0510305ST BAUZILE D41      0730660FLORAC_NORD         0530900021847021847          00000000000995      000000                                                                                                                                 140006371 2017    130007241 1787    120005451 1777    110006591 1547    100006561 1587    000575   000642   000711   000702   000667   000662   000734   001108   000654   000459   000368   000354                                      
480002400310015 01060 4112001INTER.D907-FLORAC   0440660INTER.D907B-R.PERCEE0510305FLORAC              0490000006245005698          00000000001287      003894  707    002653   002782   003068   003578   003997   004086   005368   006486   004226            002560                        140038641    7    130036951    7    120037331    7    110037671    7    100036801    7    003390   003478   003580   003422   003684   003975   005044   006301   004039   003514   003025   002848                                      
480002400210015 01060 4112001INTER.D907-FLORAC   0440660INTER.D907B         0510305FLORAC              0490000006245005698          00000000001287      002075  777    001426   001500   001654   001926   002131   002197   002908   003331   002240            001368                        140020561    7    130019711    7    120019951    7    110020161    7    100019511    7    001826   001871   001922   001845   001960   002123   002713   003225   002117   001889   001622   001527                                      
480002400110015 01060 4112001INTER.D907-FLORAC   0440660INTER.D907B         0510305FLORAC              0490000006245005698          00000000001287      001819  567    001227   001282   001414   001652   001866   001889   002460   003155   001986            001192                        140018081    7    130017241    7    120017381    7    110017511    7    100017291    7    001564   001607   001658   001577   001724   001852   002331   003076   001922   001625   001403   001321                                      
480002300310015 01060 4113001INTER.D98-JALCRESTE 0221020INTER.D907-FLORAC   0440660FLORAC_SUD          0380500020631020631          00000000000995      002237 1017    001406   001490   001662   002118   002426   002348   003183   003964   002488   002225   001749   001711               140037421 1527    130036121 1467    120026421 1387    110000001         100000001         002460   002661   003046   003447   003917   004186   005077   006472   003998   003616   003017   002891                                      
480002300210015 01060 4113001INTER.D984-JALCRESTE0221020INTER.D907-FLORAC   0440660FLORAC_SUD          0380500020631020631          00000000000995      001090 1087    000674   000714   000798   001032   001189   001157   001602   001930   001219   001072   000847   000808               140017841 1607    130017121 1547    120012701 1417    110000001         100000001         001185   001269   001461   001625   001872   002016   002450   003000   001908   001731   001451   001381                                      
480002300110015 01060 4113001INTER.D984-JALCRESTE0221020INTER.D907-FLORAC   0440660FLORAC_SUD          0380500020631020631          00000000000995      001147  887    000732   000776   000864   001086   001237   001191   001581   002034   001269   001153   000902   000903               140019581 1457    130019001 1387    120013721 1357    110000001         100000001         001275   001392   001585   001822   002045   002170   002627   003472   002090   001885   001566   001510                                      
480002100310015 00880 4113001INTER.D31-CHANAC    0710883INTER.N9-AJUSTONS   0840280CHANAC              0740500011181011181          00000000001192      000000                                                                                                                                 140045491 1487    130044791 1377    120042511 1307    110044211 1337    100042311 1347    003061   003337   003775   004291   004759   005072   005994   007418   004912   004489   003795   003564                                      
480002100210015 00880 4113001INTER.D31-CHANAC    0710883INTER.N9-AJUSTONS   0840280CHANAC              0740500011181011181          00000000001192      000000                                                                                                                                 140022131 1437    130021811 1317    120020641 1257    110021361 1307    100020351 1307    001513   001636   001857   002078   002318   002478   002913   003500   002389   002202   001874   001744                                      
480002100110015 00880 4113001INTER.D31-CHANAC    0710883INTER.N9-AJUSTONS   0840280CHANAC              0740500011181011181          00000000001192      000000                                                                                                                                 140023361 1547    130022981 1417    120021871 1347    110022851 1367    100021961 1377    001548   001701   001918   002213   002441   002594   003081   003918   002523   002287   001921   001820                                      
480001900310015 00880 4113001CARR.RN106 BALSIEGES0580619CARR.RN108 BARJAC   0650751BALSIEGES           0590200006756006640          00000000001192      000000                                                                                                                                 140047041         130051601         120060241         110065071         100063721         004575   004808   005073   005724   005960   006019   003882   003677   002897   003043   003193   003241                                      
480001900210015 00880 4113001CARR.RN106 BALSIEGES0580619CARR.RN108 BARJAC   0650751BALSIEGES           0590200006756006640          00000000001192      000000                                                                                                                                 140026581         130021251         120027181         110031321         100031061         002266   002397   002377   002762   002914   003205   003078   003390   002868   002115   002034   002475                                      
480001900110015 00880 4113001CARR.RN106 BALSIEGES0580619CARR.RN108 BARJAC   0650751BALSIEGES           0590200006756006640          00000000001192      000000                                                                                                                                 140020461         130030351         120033061         110033751         100032661         002309   002411   002696   002962   003046   002814   000804   000287   000029   000928   001159   000766                                      
480001800310015 00880 4113001EB20 MENDE          0530185CARR.RN106 BALSIEGES0580619MENDE-SUD           0550300005284005015          00000000000793      009120  887    007733   007893   008643   009183   009522   009762   010617   011150   009501   008847   008288   008196               140086691    7    130089521    7    120092471    7    110094271    7    100093721    7    007729   008204   008231   009067   009346   009931   009177   008615   008650   008758   008142   008176                                      
480001800210015 00880 4113001EB20 MENDE          0530185CARR.RN106 BALSIEGES0580619MENDE-SUD           0550300005284005015          00000000000793      004391  847    003736   003797   004200   004436   004569   004705   005041   005347   004615   004268   004008   003918               140041851    7    130042941    7    120044421    7    110045481    7    100045031    7    003758   003978   004003   004369   004520   004757   004407   004154   004180   004195   003939   003962                                      
480001800110015 00880 4113001EB20 MENDE          0530185CARR.RN106 BALSIEGES0580619MENDE-SUD           0550300005284005015          00000000000793      004729  957    003997   004096   004443   004747   004953   005057   005576   005803   004886   004579   004280   004278               140044841    7    130046581    7    120048051    7    110048791    7    100048691 1007    003971   004226   004228   004698   004826   005174   004770   004461   004470   004563   004203   004214                                      
480000900310015 00880 4113001N102-ARDECHE        0000000INTERS.D906         0020000LANGOGNE            0010460002298000790          00000000000592      005778 1227             003707   004274   005436   006328   005970   007814   009011   006085   005643   004681   004382               140051941 1087    130048631    7    120053201    7    110049441 1027    100048011 1007    004368   004514   004842   005147   005523   005655   006260                                                                                   
480000900210015 00880 4113001N102-ARDECHE        0000000INTERS.D906         0020000LANGOGNE            0010460002298000790          00000000000592      002856 1177             001845   002128   002687   003075   002968   003764   004539   002984   002822   002325   002165               140025281    7    130023921    7    120026371    7    110024341    7    100023661    7    002139   002213   002374   002520   002700   002740   002989                                                                                   
480000900110015 00880 4113001N102-ARDECHE        0000000INTERS.D906         0020000LANGOGNE            0010460002298000790          00000000000592      002922 1317             001862   002146   002749   003253   003002   004050   004472   003101   002821   002356   002217               140026661 1197    130024711 1107    120026831    7    110025101 1137    100024351 1117    002229   002301   002468   002627   002823   002915   003271                                                                                   
430002000310015 01020 4113001CARREF.RD513        0560300VIEILLE-BRIOUDE     0740550LA LOCANDA          0640050018450018450          00000000001193      008940         006763   007154   007989   009024   009441   009368   010979   011821   009509   009142   008037   007888               140087701 1367    130088531 1377    120088771 1387    110093901 1347    100000001         006888   007403   007955   008696   008932   009361   010090   012006   009501   008995   007895   007403                                      
430002000210015 01020 4113001CARREF.RD513        0560300VIEILLE-BRIOUDE     0740550LA LOCANDA          0640050018450018450          00000000001187      004452         003355   003581   003977   004550   004704   004685   005572   005703   004706   004573   003984   003957               140043751 1347    130044111 1357    120044131 1377    110046541 1317    100000001         003422   003704   003957   004376   004481   004684   005133   005880   004704   004481   003918   003702                                      
430002000110015 01020 4113001CARREF.RD513        0560300VIEILLE-BRIOUDE     0740550LA LOCANDA          0640050018450018450          00000000001193      004488         003408   003573   004012   004474   004737   004683   005407   006118   004803   004569   004053   003931               140043951 1397    130044421 1397    120044641 1397    110047361 1367    100000001         003466   003699   003998   004320   004451   004677   004957   006126   004797   004514   003977   003701                                      
430000600310015 00880 4113001ECHANGEURD47        0160000ECHANGEUR.RD103     0350835BAL DES NEIGES      0230700019835019835          000      00500      000000                                                                                                                                 140145501    7    130143961    7    120146521    7    110141871    7    100142101    7    012676   013535   014339   015458   015388   016481   015934   014439   014417   014503   014060   013339                                      
430000600210015 00880 4113001ECHANGEUR.RD47      0160000ECHANGEUR.RD103     0350835BAL DES NEIGES      0230700019835019835          000      01187      000000                                                                                                                                 140072221 1007    130070851 1007    120072411    7    110074101 1027    100071911 1027    006336   006722   007149   007613   007602   008322   007785   007150   007169   007183   007007   006614                                      
430000600110015 00880 4113001ECHANGEUR.RD47      0160000ECHANGEUR.RD103     0350835BAL DES NEIGES      0230700019835019835          000      01100      000000                                                                                                                                 140073281    7    130073111    7    120074111    7    110067771    7    100070191    7    006340   006813   007190   007845   007786   008159   008149   007289   007248   007320   007053   006725                                      
340001501310015 07500 4110201NORD GIGNAC         0320000A 75                0380625ST FELIX DE LODEZ   0370600006625006625          00000000000402      000000                                                                                                                                 140271761    7    130264981    7    120233851    7    110245581    7    100006591         022241   023506   024998   026131   025278   028234   032653   035188   028391   028218   024663   025090                                      
340001501210015 07500 4110201NORD GIGNAC         0320000A 75                0380625ST FELIX DE LODEZ   0370600006625006625          00000000000402      000000                                                                                                                                 140127591    7    130132711    7    120116761    7    110121781    7    100000001         011057   011617   009632   009636   009917   013223   016743   018062   014504   013712   012401   012450                                      
340001501110015 07500 4110201NORD GIGNAC         0320000A 75                0380625ST FELIX DE LODEZ   0370600006625006625          00000000000402      000000                                                                                                                                 140140491    7    130138961    7    120121351    7    110125191    7    100000001         011451   012213   013064   013186   012039   014334   017187   018677   014642   014903   012531   013015                                      
340001500310015 01090 4113001SUD GIGNAC          0200000NORD GIGNAC         0320000GIGNAC 34           0300700012000012000          00000000000490      026471  717    021954   022935   023753   025643   027610   027606   030530   032921   027070   027326   024938   025007               140125501    7    130121321    7    120109701    7    110114081    7    100102791    7    010281   010870   011425   012425   012670   013228   014513   015833   012963   012947   011469   011811                                      
340001500210015 01090 4113001SUD GIGNAC          0200000NORD GIGNAC         0320000GIGNAC 34           0300700012000012000          00000000000490      013557  747    011470   011692   012156   013081   014129   014136   015707   016846   013867   013846   012833   012731               140131271    7    130126021    7    120112501    7    110120391    7    100106581    7    010790   011293   011934   012945   013239   013900   015466   016511   013749   013315   012132   012075                                      
340001500110015 01090 4113001SUD GIGNAC          0200000NORD GIGNAC         0320000GIGNAC 34           0300700012000012000          00000000000490      012914  647    010484   011243   011597   012562   013481   013470   014823   016075   013203   013480   012105   012276               140125401    7    130121361    7    120109661    7    110113851    7    100102421    7    010273   010861   011415   012415   012660   013216   014501   015822   012953   012936   011459   011802                                      
340001404310015 01090 4810101EB 20 MONTPELLIER   0040000A 750               0100000JUVIGNAC OUEST      0050000006000006000          00000000000190      036753                                                                                                                                 140355868    7    130350448    7    120288578    7    110310528    7    100222388    7    032554   030612   033212   035797   035965   037720   040253   041717   035859   036112   033132   033342                                      
340001404210015 01090 4110101EB 20 MONTPELLIER   0040000A 750               0100000JUVIGNAC OUEST      0050000006000006000                    0190      018943         016679   017015   017875   019390   019799   019390   020934   021017   019378   019150   017563                        140183391    7    130180201    7    120153101    7    110156831    7    100080451    7    016815   015933   017195   018490   018546   019448   020805   021184   018566   018521   017085   017101                                      
340001404110015 01090 4110101EB 20 MONTPELLIER   0040000A 750               0100000JUVIGNAC OUEST      0050000006000006000                    0190      017810         015416   015981   016700   018145   018492   018785   019520   019629   018227   018353   016504                        140172471    7    130170241    7    120135471    7    110153691    7    100141931    7    015739   014679   016017   017307   017419   018272   019448   020533   017293   017591   016047   016241                                      
340000500310015 00750 1113041NORD RN 109         2800000RN 109              2900450LODEVE_SUD          2800200010450010450          00000000000490      023553  577    014180   014957   015886   021708   025042   022750   033564   042114   025154   023634   019087                        140217621    7    130240311    7    120199551 1067    110243341 1037    100222511 1037    013722   014412   016620   020499   022469   024339   029913   042706   022898   019727   016261   016766                                      
340000500210015 00750 1110241NORD RN 109         2800000RN 109              2900450LODEVE_SUD          2800200010450010450          00000000000490      010068  327    005710   005905   006254   008427   010428   008884   012813   019622   011362   011351   009526                        140089991    7    130114681    7    120096841 1037    110118531 1017    100104661 1047    005492   005620   006689   007960   009185   009870   011576   019689   009914   008187   006620   006809                                      
340000500110015 00750 1110241NORD RN 109         2800000RN 109              2900450LODEVE_SUD          2800200010450010450          00000000000490      013485  967    008470   009052   009632   013281   014614   013866   020751   022492   013792   012283   009561                        140127631 1047    130125631 1067    120102711 1087    110124811 1057    100117851 1027    008230   008792   009931   012539   013284   014469   018337   023017   012984   011540   009641   009957                                      
150500600310015 00750 1110241ST FLOUR SUD        0960300LIMITE LOZERE       1140610LOUBARESSE          1120800018310018310          000      00300      015698         007653   008700   008926   012848   016254   014395   025643   034842   014373   012493                                 140145421 1787    130136831 1527    120145271 1507    110158311 1647    100076521 1897    007473   007881   009742   013130   014845   015916   023606   034713   014825   012145   009386   010048                                      
150500600210015 00750 1110241ST FLOUR SUD        0960300LIMITE LOZERE       1140610LOUBARESSE          1120800018310018310          000      00300      007795         003912   004247   004459   006095   008292   006992   011048   018388   007751   006346                                 140073021 1867    130069551 1587    120072661 1537    110080001 1687    100038891 1937    003817   003827   004901   006139   007413   007892   010289   018926   008059   006191   004872   004893                                      
150500600110015 00750 1110241ST FLOUR SUD        0960300LIMITE LOZERE       1140610LOUBARESSE          1120800018310018310          000      01294      007903         003741   004453   004467   006753   007962   007403   014595   016454   006622   006147                                 140072401 1707    130067281 1457    120072611 1477    110078311 1597    100037631 1867    003656   004054   004841   006991   007432   008024   013317   015787   006766   005954   004514   005155                                      
150500500310015 00750 111 241ST FLOUR NORD       0920550ST FLOUR SUD        0960300ST FLOUR            0930300003750003750                    1200      000000                                                                                                                                 140119611 1727    130131021 1527    120131111 1697    110000001         100066871 2087    006591   006879   010078   014117   013778   014253   019397   021542   010556   009503   007836   008477                                      
150500500210015 00750 1110241ST FLOUR NORD       0920550ST FLOUR SUD        0960300ST FLOUR ( F )      0930300003750003750          000      01200      000000                                                                                                                                 140051781 1717    130066001 1527    120065571 1877    110000001         100033051 2067    003391   003345   005607   006616   006938   006817   006685   006535   004399   004038   003815   003807                                      
150500500110015 00750 1110241ST FLOUR NORD       0920550ST FLOUR SUD        0960300ST FLOUR ( M )      0930300003750003750          000      01200      006885 1597    003294   003923   003971   006982   007527   006994   013995   014723   006110   005654   003985   005069               140067831 1737    130065021 1537    120065541 1577    110057271 2497    100033821 2107    003200   003534   004471   007501   006840   007436   012712   015007   006157   005465   004021   004670                                      
150500400310015 00750 111 241VIELLESPESSE        0840600ST FLOUR NORD       0920550ST FLOUR NORD       0910400007950007950                    1200      015432 1417    012152   012417   014282   020673   022163   013587   020832   028808   011004   007055   009898   011808               140193201 1587    130141191 1397    120145131 1407    110000001         100000001         008619   008910   014362   020031   021420   019172   029410   042302   018411   018476   014518   015038                                      
150500400210015 00750 1110241VIELLESPESSE        0840600ST FLOUR NORD       0920550ST FLOUR NORD ( F ) 0910400007950007950          000      01200      003984 1017    004475   003824   005075   007189   009243   003528   002794   006861   001688   001282   000852   000890               140081911 1537    130077491 1417    120077191 1407    110000001         100042751 1797    004370   004284   007089   008514   007942   008567   010880   019618   008726   006920   005554   005402                                      
150500400110015 00750 1110241VIELLESPESSE        0840600ST FLOUR NORD       0920550ST FLOUR NORD ( M ) 0910400007950007950          000      01200      011448 1697    007677   008593   009207   013484   012920   010059   018038   021947   009316   005773   009046   010918               140111291 1627    130063701 1387    120067941 1417    110062681 1707    100000001         004249   004626   007273   011517   013478   010605   018530   022684   009685   011556   008964   009636                                      
150500300310015 00750 1110241MASSIAC SUD         0680500VIELLESPESSE        0840600SALBAS              0760300016100016100          000      01200      000000                                                                                                                                 140096311 1197    130149391 1397    120152381 1567    110127601 1707    100000001         004890   005173   006182   008158   008616   009344   018669   023527   009298   008189   006112   006798                                      
150500300210015 00750 1110241MASSIAC SUD         0680500VIELLESPESSE        0840600SALBAS              0760300016100016100          000      01200      000000                                                                                                                                 140021471 1107    130074961 1407    120076291 1467    110065171 1657    100000001         000794   000702   000950   001326   001801   002145   004893   007185   002047   001476   001087   001150                                      
150500300110015 00750 1110241MASSIAC SUD         0680500VIELLESPESSE        0840600SALBAS              0760300016100016100          000      01200      000000                                                                                                                                 140074841 1267    130074431 1387    120076091 1667    110062431 1757    100000001         004096   004471   005232   006832   006815   007199   013776   016342   007251   006713   005025   005648                                      
150500200310015 00750 1110241MASSIAC NORD        0630988MASSIAC SUD         0680500MASSIAC             0670600004512004512          00000000001200      015105 1547    007868   008728   009168   014357   017019   014811   025751   034538   014596   012998   009487   011095               140124261 1567    130147661 1467    120143871 1527    110147551 1677    100145161 1807    010138   010442   009748   013398   015032   016142   014934   014650   012034   012432   009765   010261                                      
150500200210015 00750 1110241MASSIAC NORD        0630988MASSIAC SUD         0680500MASSIAC             0670600004512004512          00000000001200      007564 1517    004045   004242   004586   006675   008762   007096   010995   019153   007830   006664   004904   005376               140061851 1537    130073921 1447    120072011 1467    110073891 1557    100076101 1797    005159   005106   004904   006230   007464   008021   007459   007493   006022   006216   005096   004965                                      
150500200110015 00750 1110241MASSIAC NORD        0630988MASSIAC SUD         0680500MASSIAC             0670600004512004512          00000000001200      007541 1607    003823   004486   004582   007682   008257   007715   014756   015385   006766   006334   004583   005719               140062411 1597    130073741 1497    120071861 1577    110073661 1797    100069061 1807    004979   005336   004844   007168   007568   008121   007475   007157   006012   006216   004669   005296                                      
150001900310015 01220 4113001NEUSSARGUES-MOISSAC 1100900MASSIAC CARF.RN 9   1360144LA ROCHE            1330000025244025244          00000000031294      003520         002914   003297   003341   003508   003686   003681   003936   004232   003624   003625   003154   003211               140034351 1317    130034841 1357    120035261 1367    110036361 1447    100036571 1567    003263   003360   003561   003441   003510   003826   003490   003431   003399   003645   003150   003136                                      
150001900210015 01220 4113001NEUSSARGUES-MOISSAC 1100900MASSIAC CARF.RN 9   1360144LA ROCHE            1330000025244025244          000      31294      001787         001444   001681   001700   001796   001853   001864   002041   002170   001817   001835   001567   001658               140017391 1337    130017571 1377    120017701 1367    110018281 1387    100018351 1377    001660   001711   001772   001760   001781   001920   001770   001734   001715   001858   001570   001613                                      
150001900110015 01220 4113001NEUSSARGUES-MOISSAC 1100900MASSIAC CARF.RN 9   1360144LA ROCHE            1330000025244025244          000      31294      001733         001470   001616   001641   001712   001833   001817   001895   002062   001807   001790   001587   001553               140016961 1297    130017271 1327    120017561 1357    110018081 1507    100018221 1737    001603   001649   001789   001681   001729   001906   001720   001697   001684   001787   001580   001523                                      
150001700310015 01220 4113 51TUNNEL DU LIORAN    0880000MURAT               1010850LA GRANGE DE GANILH 0970850013850013850                    1200      005854  827    004872   006526   005767   005553   005484   005756   006493   007644   005868   005674   005180   005474               140059251    7    130058001 1037    120058431 1067    110060141 1067    100059571 1037    004977   006093   006275   005501   005673   005929   006395   007539   006014   005903   005717   005080                                      
150001700210015 01220 4113 51TUNNEL DU LIORAN    0880000MURAT               1010850LA GRANGE DE GANILH 0970850013850013850                    1200      002908  727    002369   003217   002799   002749   002718   002847   003284   003783   002934   002845   002592   002777               140029701    7    130029081 1047    120029281 1077    110030081 1067    100029931 1037    002479   003068   003132   002767   002861   002966   003244   003753   003017   002958   002854   002538                                      
150001700110015 01220 4113 51TUNNEL DU LIORAN    0880000MURAT               1010850LA GRANGE DE GANILH 0970850013850013850                    1200      002946 1027    002503   003309   002968   002804   002766   002909   003209   003861   002934   002829   002588   002697               140029551    7    130028921 1037    120029151 1057    110030061 1057    100029641 1037    002498   003025   003143   002734   002812   002963   003151   003786   002997   002945   002863   002542                                      
150001500310015 01220 4113001BANCOU              0530380VIC SUR CERE        0680800MEYMAC              0620200015420015420          000      01287      007772  877    006729   007966   007717   007633   007625   008034   008266   008978   007966   007775   007258   007330               140077461    7    130075051    7    120076921    7    110078851    7    100078611    7    006828   007666   007974   007649   007476   008084   008124   008850   008047   007946   007168   007129                                      
150001500210015 01220 4113001BANCOU              0530380VIC SUR CERE        0680800MEYMAC              0620200015420015420          000      01287      003883  887    003364   003988   003868   003824   003803   004010   004154   004448   003972   003888   003625   003663               140038691    7    130037541    7    120038451    7    110039391    7    100039251    7    003418   003837   003993   003829   003723   004026   004077   004390   004012   003976   003585   003553                                      
150001500110015 01220 4113001BANCOU              0530380VIC SUR CERE        0680800MEYMAC              0620200015420015420          000      01287      003889  857    003365   003978   003849   003809   003822   004024   004112   004530   003994   003887   003633   003667               140038771    7    130037511    7    120038471    7    110039461    7    100039361    7    003410   003829   003981   003820   003753   004058   004047   004460   004035   003970   003583   003576                                      
150001200310015 01220 4113001MAURS               0050100LE ROUGET CARF.CD 200270800LE MARTINET         0150700022700022700          000      01294      000000                                                                                                                                 140038281 1177    130035971 1157    120036051 1127    110036891 1107    100037751         003409   003523   003809   003904   003939   003892   003914   003919   003902   003931   003884   003885                                      
150001200210015 01220 4113001MAURS               0050100LE ROUGET CARF.CD 200270800LE MARTINET         0150700022700022700          000      01294      000000                                                                                                                                 140019141 1357    130018011 1347    120018071 1297    110018301 1257    100018761         001694   001755   001897   001954   001972   001948   001959   001962   001953   001969   001947   001947                                      
150001200110015 01220 4113001MAURS               0050100LE ROUGET CARF.CD 200270800LE MARTINET         0150700022700022700          000      01294      000000                                                                                                                                 140019141    7    130017961    7    120017981    7    110018591    7    100018991         001715   001768   001912   001950   001967   001944   001955   001957   001949   001962   001937   001938                                      
120500600310015 00750 1110231VIADUC DE MILLAU SUD2220953DEP HERAULT         2520695A 75 LA CAVALERIE   2380210030012030012          00000000000998      019620 1327    010951   012195   012730   019607   023288   020426   032438   038685   019043   017304   013179   014676               140196541 1297    130191391 1447    120193651 1277    110192561 1287    100187151 1267    010541   011068   013924   017886   020768   021554   030123   043544   020161   017320   013634   014322                                      
120500600210015 00750 1110231VIADUC DE MILLAU SUD2220953DEP HERAULT         2520695A 75 LA CAVALERIE   2380210030012030012          00000000000998      009634 1307    005488   006019   006308   009402   011878   009941   014688   018834   009818   008888   006634   007274               140098511 1277    130095491 1637    120097771 1247    110096291 1257    100094091 1257    005286   005420   006988   008498   010358   010614   013599   023107   010552   009004   007085   007186                                      
120500600110015 00750 1110231VIADUC DE MILLAU SUD2220953DEP HERAULT         2520695A 75 LA CAVALERIE   2380210030012030012          00000000000998      009986 1357    005463   006176   006422   010205   011410   010485   017750   019851   009225   008416   006545   007402               140098031 1327    130095901 1327    120095881 1317    110096271 1317    100093061 1277    005255   005648   006936   009388   010410   010940   016524   020437   009609   008316   006549   007136                                      
120500400310015 00750 1110231ECH.ENGAYRESQUE     2000000ECH ST GERMAIN      2150050LA GAMASSE          2100400015050015050          00000000000194      000000                                                                                                                                 140154951 1147    130172521 1317    120165801 1577    110156981 1267    100158821 1707    009397   009903   012454   015370   018026   019600   024785   023486   013227   014258   012232   012300                                      
120500400210015 00750 1110231ECH.ENGAYRESQUE     2000000ECH ST GERMAIN      2150050LA GAMASSE          2100400015050015050          00000000000194      008717         004792   005301   005504   008145   010450   008738   013110   018532   009389   008020   005799   006407               140077581 1487    130084681 1537    120085591 1947    110081241 1347    100078301 1847    004618   004559   006046   007449   009076   009321   011935   010374   009348   007591   006298   005907                                      
120500400110015 00750 1110231ECH.ENGAYRESQUE     2000000ECH ST GERMAIN      2150050LA GAMASSE          2100400015050015050          00000000000194      000000                                                                                                                                 140077371    7    130087841 1087    120080211 1117    110075741 1177    100080521 1357    004779   005344   006408   007921   008950   010279   012850   013112   003879   006667   005934   006393                                      
070003500310015 01020 4113001CAR CD108           0840161LIMITE DEPT43       0941069PEYRABEILLE       B 0890400011024011024          00000000000188      003680 1527    001821   002002   002368   003320   004376   003970   005856   007614   004065   003452   002571   002554               140035801 1427    130032001 1517    120037061 1417    110031941 1507    100000001         001895   002012   002556   003209   003892   004248   005258   007694   003915   003320   002549   002245                                      
070003500210015 01020 4113001CARD108             0840161LIMIT43             0941069PEREBEILLE          0940000011024011024          00000000000101      001838 1577    000915   001006   001194   001679   002169   002017   003041   003683   001987   001705   001285   001277               140017831 1497    130016231 1587    120018531 1477    110015811 1557    100000001         000946   001008   001280   001634   001954   002120   002711   003715   001916   001641   001271   001116                                      
070003500110015 01020 4113001CARD108             0840161LIMIT43             0941069PEREBEILLE          0940000011024011024          00000000000101      001842 1417    000906   000996   001174   001641   002207   001953   002815   003931   002078   001747   001286   001277               140017971 1357    130015771 1447    120018531 1357    110016131 1467    100000001         000949   001004   001276   001575   001938   002128   002547   003979   001999   001679   001278   001129                                      
070003300310015 01020 4113001CAR CD536           0530729MAYRES              0680187THUEYTS           B 0600000014317014317          00000000000188      005701         003027   003373   003854   004924   006203   006035   007985   009830   006191   005359                                 140053301 1157    130058411 1227    120053841 1167    110054081 1157    100052861 1117    003074   003343   003880   004967   005748   006255   007639   010019   005965   005359   004036   003476                                      
070003300210015 01020 4113001CAR CD536           0530729MAYRES              0680187THUEYTS           B 0600000014317014317          00000000000188      002856         001531   001689   001948   002486   003098   003049   004076   004835   003071   002666                                 140026681 1137    130029271 1207    120026961 1127    110027071 1117    100026401 1067    001552   001682   001951   002513   002882   003130   003901   004917   002966   002661   002035   001731                                      
070003300110015 01020 4113001CAR CD536           0530729MAYRES              0680187THUEYTS           B 0600000014317014317          00000000000188      002845         001496   001684   001906   002438   003105   002986   003909   004995   003120   002693                                 140026621 1177    130029141 1257    120026881 1197    110027011 1197    100026461 1177    001522   001661   001929   002454   002866   003125   003738   005102   002999   002698   002001   001745                                      
070003200310015 01020 4113001CARD578             0440616CARD536             0530729LALEVADE            0470000009115009115          00000000000105      000000                                                                                                                                 140125871    7    130124861    7    120125591    7    110125711    7    100113301    7    009699   010400   010977   012544   012967   013896   015531   017808   011732   011792   011620   011850                                      
070003200210015 01020 4113001CARD578             0440616CARD536             0530729LALEVADE            0470000009115009115          00000000000105      000000                                                                                                                                 140063411    7    130062771    7    120062941    7    110062991    7    100056791    7    004874   005206   005505   006298   006498   006984   007855   009159   005891   005913   005834   005951                                      
070003200110015 01020 4113001CARD578             0440616CARD536             0530729LALEVADE            0470000009115009115          00000000000105      000000                                                                                                                                 140062461    7    130062091    7    120062651    7    110062721    7    100056511    7    004825   005194   005472   006246   006469   006912   007676   008649   005841   005879   005786   005899                                      
