840000100110015 00070 4115001LIMITE DROME        0000000D 994               0050740LAPALUD             0010500005786005786840000202326000250030390      004903         004250   004381   004683   005125   005204   005061   005300   006537   005046   004779   004286   004133               140051921         130051411         120049161         110052131 2057    100050271                                                                                                                                                        
840000100310015 00070 4115001LIMITE DROME        0000000D 994               0050740LAPALUD             0010500005786005786840000202326000250030390      009533         004250   007854   008473   009971   010531   010606   011645   012998   010466   009893   008949   008666               140098531         130097561         120091841         110098461 1937    100094991                                                                                                                                                        
840000100210015 00070 4115001LIMITE DROME        0000000D 994               0050740LAPALUD             0010500005786005786840000202326000250030390      004630         000000   003473   003790   004846   005327   005545   006345   006461   005420   005114   004663   004533               140046611         130046151         120042681         110046331 1877    100044721                                                                                                                                                        
840000201210015 00070 4112001D 994               0050740A7 PIOLENC          0190200MONDRAGON SUD       0110088013449010468840000202300000000001191      003947         000009   000005   000006   005064   005428   005513   005527   006789   005328   004868   003959   004612               140051481         130050761    7    120049661    8    110051731    8    100050001         004434   004620   004799   005063   005310   005507   005492   006771   005270   005197   004698   004557                                      
840000201310015 00070 4112001D 994               0050740A7 PIOLENC          0190200MONDRAGON SUD       0110088013449010468840000202300000000001191      010418         005602   005762   006104   011723   012160   012480   013108   014249   011962   011113   009948   010495               140119171         130117581    7    120116851    8    110119341    8    100116431         010117   010581   010997   011717   012019   012581   013196   014664   012402   012672   011264   010672                                      
840000201110015 00070 4112001D 994               0050740A7 PIOLENC          0190200MONDRAGON SUD       0110088013449010468840000202300000000001191      006471         005593   005757   006098   006659   006732   006967   007581   007460   006634   006245   005989   005883               140067691         130066821 1337    120067191 1378    110067611 1318    100066431         005683   005961   006198   006654   006709   007074   007704   007893   007132   007475   006566   006115                                      
840000202310015 00070 4112001A7 PIOLENC          0190200D 976               0220000ORANGE NORD         0190800002793002793840000202300000000001291      000000                                                                                                                                 140122751         130122141         120123141         110134911         100131681         010987   011421   011649   012239   012849   012999   013364   014338   012561   012097   011463   011263                                      
840000202210015 00070 4112001A7 PIOLENC          0190200D 976               0220000ORANGE NORD         0190800002793002793840000202300000000001291      000000                                                                                                                                 140054151         130053191         120054161         110074041         100072901         004740   004927   005077   005333   006431   006054   005972   006039   005408   005192   004965   004802                                      
840000202110015 00070 4112001A7 PIOLENC          0190200D 976               0220000ORANGE NORD         0190800002793002793840000202300000000001291      000000                                                                                                                                 140068601         130068951         120068981         110060871         100058771         006247   006494   006572   006906   006418   006945   007392   008299   007153   006905   006498   006461                                      
300000300310015 00860 4842001EB 10 PT ST ESPRIT  0020063EB 20 PT ST ESPRIT  0040991AGGLO PT ST ESPRIT  0020100002961000000300000700300000000000589      008463                                                                                                                                 140083868         130000008         120000008         110000008         100000008                                                                                                                                                        
840000300310015 00070 4813001D 976               0220000EB 10 ORANGE        0240000ENTREE NORD ORANGE  0220000002005002005840000202300000000000490      000000                                                                                                                                 140175448         130174578         120176008         110192838         100193178                                                                                                                                                        
840000399310015 00070 4855001EB 10 ORANGE        0240000EB 20 ORANGE        0270485TRAVERSEE ORANGE    0250000003219000000840000202300000000000401      000000                                                                                                                                 140179928         130179038         120180508         110197768         100207588                                                                                                                                                        
840000400310015 00070 4815001EB 20 ORANGE        0270485D 977               0290060COURTHEZON NORD     0290000006372006372840000202300000000000490      000000                                                                                                                                 140156838         130156068         120157348         110172388         100177138                                                                                                                                                        
300000700210015 00860 4142001RD 980              0040991EB 10 PONT ST ESPRIT0120860BAGNOLS NORD        0120630007907006709000000000000000000000589      009075         008078   008253   008792   009140   009479   009777   009768   010251   009292   009067   008542   008399               140089921         130000001         120000001         110000001         100000001         007932   008341   008638   009299   009154   009724   009550   010304   009366   008896   008309   008357                                      
300000700310015 00860 4142001EB 20 PONT ST ESPRIT0040991RD 980              0120860BAGNOLS NORD        0120857007907006709000000000000000000000589      017915         015979   016393   017428   018060   018607   019246   019543   019888   018251   017847   016873   016743               140177511         130000001         120000001         110000001         100000001         015745   016615   017152   018564   018137   019092   018978   019859   018359   017521   016315   016607                                      
300000700110015 00860 4142001EB 20 PONT ST ESPRIT0040991RD 980              0120860BAGNOLS NORD        0120630007907006709000000000000000000000589      008840         007901   008140   008636   008920   009128   009469   009775   009637   008959   008780   008331   008344               140087591         130000001         120000001         110000001         100000001         007813   008274   008514   009265   008983   009368   009428   009555   008993   008625   008006   008250                                      
040000800210015 00850 4113001ECH.AUBIGNOSC       0160000INTER. D404         0190090CHATEAU-ARNOUX      0190000002777002510040001100300000000000193      005271  447    004512   004667   004925   005380   005495   005545   005992   006089   005511   005166            004660               140051941    7    130052311    7    120000001         110049961         100051551         004409   004483   004931   005228   005379   005514   005915   006241   005479   005213   004776   004698                                      
040000800310015 00850 4113001ECH.AUBIGNOSC       0160000INTER. D404         0190090CHATEAU-ARNOUX      0190000002777002510040001100300000000000193      010491  487    008964   009222   009719   010675   010998   011105   011767   012243   011022   010364            009241               140103371    7    130104361    7    120000001         110099301         100102571         008699   008902   009754   010360   010667   011067   011656   012559   010984   010420   009504   009347                                      
040000800110015 00850 4113001ECH.AUBIGNOSC       0160000INTER. D404         0190090CHATEAU-ARNOUX      0190000002777002510040001100300000000000193      005220  547    004452   004555   004794   005295   005503   005560   005775   006154   005511   005198            004581               140051431    7    130052051    7    120051951    7    110049341         100051021         004290   004419   004823   005132   005288   005553   005741   006318   005505   005207   004728   004649                                      
040000900310015 00850 4843001INTER. D404         0190090INTER. N96          0200840GENDARMERIE         0200000001743000065040001100300000000000190      013101                                                                                                                                 140126208         130000008         120125748         110132598         100127838                                                                                                                                                        
050000900210015 00850 4113001LIMITE ISERE        0000000CARREF.CD945 LA FARE0220651ST FIRMIN           0050050022581020386050001100338000400031287      001736  697    001296   001360   001404   001570   001855   001718   002602   003374   001662   001506   001188   001236               140016111    7    130016691    7    120016581    7    110017311    8    100017431         001148   001375   001611   001364   001496   001727   002117   003113   001609   001465   001145   001121                                      
050000900310015 00850 4113001LIMITE ISERE        0000000CARREF.CD945 LA FARE0220651ST FIRMIN           0050050022581020386050001100338000400031287      003500  677    002413   002825   002745   003167   003619   003577   005629   006503   003304   003022   002375   002711               140032091    7    130033121    7    120032911    7    110034641    8    100034791         002273   002757   003125   002762   003026   003341   004502   005852   003137   002924   002271   002454                                      
050000900110015 00850 4113001LIMITE ISERE        0000000CARREF.CD945 LA FARE0220651ST FIRMIN           0050050022581020386050001100338000400031287      001764  637    001117   001465   001341   001597   001764   001859   003027   003129   001642   001516   001187   001475               140015981    7    130016431    7    120016331    7    110017331    8    100017361         001125   001382   001514   001398   001530   001614   002385   002739   001528   001459   001126   001333                                      
040001000310015 00850 4843001INTER. N96          0200840LIMITE AGGLO.       0210291SUBDI.CHATEAU-ARNOUX0210000000440000000040001100300000000000188      011199                                                                                                                                 140107888         130000008         120105078         110110798         100110488                                                                                                                                                        
040001100110015 00850 4113001LIMITE AGGLO.       0210291INTER. D4           0260400L'ESCALE            0220500005153004888040001200300000000000188      004393    0                                                                                                                            140042971    0    130000001    0    120000001    0    110045391    0    100043751    0                                                                                                                                                   
040001100310015 00850 4113001LIMITE AGGLO.       0210291INTER. D4           0260400L'ESCALE            0220500005153004888040001200300000000000188      008974    0                                                                                                                            140086441    0    130000001    0    120086371    0    110091071    0    100088931    0                                                                                                                                                   
040001100210015 00850 4113001LIMITE AGGLO.       0210291INTER. D4           0260400L'ESCALE            0220500005153004888040001200300000000000188      004581    0                                                                                                                            140043471    0    130000001    0    120000001    0    110045681    0    100045171    0                                                                                                                                                   
050001100210015 00850 4113001CARREF.CD945 LA FARE0220651CARREF.CD944        0330328COL_BAYARD          0330290010689009884050001100300000000000989      003133  547    002703   002891   002764   002917   003151   003171   003926   004528   003156   003012   002577   002753               140030321    7    130031671    7    120031861    7    110031721    7    100032291    0    002532   002973   002948   002703   002903   003167   003614   004355   003049   003044   002526   002537                                      
050001100310015 00850 4113001CARREF.CD945 LA FARE0220651CARREF.CD944        0330328COL_BAYARD          0330290010689009884050001100300000000000989      006312  557    005273   005913   005597   005911   006317   006461   008080   008878   006355   006018   005233   005625               140060801    7    130063671    7    120063661    7    110064001    7    100065081    0    005042   005984   005955   005436   005877   006272   007317   008414   006090   006134   005201   005179                                      
050001100110015 00850 4113001CARREF.CD945 LA FARE0220651CARREF.CD944        0330328COL_BAYARD          0330290010689009884050001100300000000000989      003179  587    002570   003022   002833   002994   003166   003290   004154   004350   003199   003006   002656   002872               140030481    7    130032001    7    120031801    7    110032281    7    100032791    0    002510   003011   003007   002733   002974   003105   003703   004059   003041   003090   002675   002642                                      
040001101310015 00850 4813001INTER.D4            0260400INTER.DEV.MALIJAI   0270885MALIJAI             0270300001499000740040001200300000000000190      007659                                                                                                                                 140074928         130000008         120074038         110075318         100074978                                                                                                                                                        
040001200210015 00850 4113001INTER.DEV.MALIJAI   0270885INTER. D17          0360220MALLEMOISSON        0330700008162007132040001200100000000000190      006743    0                                                                                                                            140065961    0    130000001    0    120065321    7    110066681 1248    100066291    0                                                                                                                                                   
040001200310015 00850 4113001INTER.DEV.MALIJAI   0270885INTER. D17          0360220MALLEMOISSON        0330700008162007132040001200100000000000190      013550    0                                                                                                                            140132541    0    130000001    0    120131111    7    110133361    8    100132751    0                                                                                                                                                   
040001200110015 00850 4113001INTER.DEV.MALIJAI   0270885INTER. D17          0360220MALLEMOISSON        0330700008162007132040001200100000000000190      006807    0                                                                                                                            140066581    0    130000001    0    120000001    0    110066681    8    100066461    0                                                                                                                                                   
050001200310015 00850 4813001CARREF.CD944        0330328SORTIE GAP NORD AGGL0351330VARSIE              0350950003015003015050001100300000000001287      008473                                                                                                                                 140081628         130085488         120085478         110085938         100087398                                                                                                                                                        
040001201210015 00850 4813001INTER. D17          0360220INTER. N1085        0390945LE ROCHER COUPE     0390850003715003715040001200200000000000202      008611                                                                                                                                 140084248         130000008         120082478         110084198         100083708                                                                                                                                                        
040001201310015 00850 4813001INTER. D17          0360220INTER. N1085        0390945LE ROCHER COUPE     0390850003715003715040001200300000000000202      017184                                                                                                                                 140168108         130000008         120166058         110168908         100168148                                                                                                                                                        
040001201110015 00850 4813001INTER. D17          0360220INTER. N1085        0390945LE ROCHER COUPE     0390850003715003715040001200100000000000202      008573                                                                                                                                 140083868         130000008         120000008         110084718         100084448                                                                                                                                                        
040001202110015 00850 4813001INTER. N1085        0390945Espace Commercial   0410630NOUVELLE SUBDI      0400000001640001640040001203100000000000202      006692                                                                                                                                 140066458         130065998         120065548         110068038         100068578                                                                                                                                                        
040001202310015 00850 4813001INTER. N1085        0390945Espace Commercial   0410630NOUVELLE SUBDI      0400000001640001640040001203300000000000202      012668                                                                                                                                 140125728         130125478         120000008         110128948         100130108                                                                                                                                                        
040001202210015 00850 4813001INTER. N1085        0390945Espace Commercial   0410630NOUVELLE SUBDI      0400000001640001640040001203200000000000202      005976                                                                                                                                 140059278         130059488         120000008         110060918         100061538                                                                                                                                                        
040001203110015 00850 4113001Espace Commercial   0410630BD POMPIDOU         0440140DIGNE_W_N85         0420000002500002500040001203100000000001295      008829  297    008261   008498   008626   009070   008619   009409   009130   009057   009311   008816   008538   008611               140087661    7    130087051    7    120086451    7    110089731    7    100090431         008051   008238   008609   009179   008677   009238   009318   009160   009261   008908   008283   008248                                      
040001203310015 00850 4113001Espace Commercial   0410630BD POMPIDOU         0440140DIGNE_W_N85         04200000025000025000400012031          1295      018037  317    016960   017384   017659   018531   017547   019206   018472   018537   019011   018006   017481   017651               140178981    7    130178691    7    120000001         110183561    7    100185201         016492   016769   017634   018646   017675   018851   018936   018711   018989   018216   016935   016873                                      
040001203210015 00850 4113001Espace Commercial   0410630BD POMPIDOU         0440140DIGNE_W_N85         0420000002500002500040001203100000000001295      009208  337    008699   008886   009033   009461   008928   009797   009342   009480   009700   009190   008943   009040               140091321    7    130091641    7    120000001         110093831    7    100094771         008441   008531   009025   009467   008998   009613   009618   009551   009728   009308   008652   008625                                      
040001205110015 00850 4843001BD POMPIDOU         0440140LA PALE             0440685PONT DAVID NEEL     0440545000545000000040001203100000000000107      004290                                                                                                                                 140042608         130042318         120042028         110043628         100043978                                                                                                                                                        
040001205310015 00850 4843001BD POMPIDOU         0440140LA PALE             0440685PONT DAVID NEEL     0440545000545000000040001203300000000000107      007787                                                                                                                                 140077298         130077138         120000008         110079288         100079998                                                                                                                                                        
040001205210015 00850 4843001BD POMPIDOU         0440140LA PALE             0440685PONT DAVID NEEL     0440545000545000000040001203200000000000107      003497                                                                                                                                 140034698         130034828         120000008         110035668         100036028                                                                                                                                                        
050001299310015 00850 4853001SORTIE GAP NORD AGGL0351330CARREFOUR EUROPE    0380360AV CDT DUMONT       0360900002781000000050001100300000000001287      008463                                                                                                                                 140081528         130085378         120085368         110085828         100087278                                                                                                                                                        
050001300110015 00850 4113001SORTIE GAP CAR RD 470400964CARREF.CD942 TALLARD0510523GAP SUD N85         0490550010422010422050001300300000000001287      006091  518    005935   006084   006442   006210   005994   006156   006383   006501   006148   005945   005656   005630               140061601    8    130060991    8    120060211    7    110059821         100059111         005882   006063   006517   006068   006084   006240   006427   006730   006256   006180   005703   005745                                      
050001300310015 00850 4113001SORTIE GAP CAR RD 470400964CARREF.CD942 TALLARD0510523GAP SUD N85         0490550010422010422050001300300000000001287      012002  518    011420   011754   012216   012077   011803   012166   012731   012908   012230   011935   011303   011448               140119661    8    130118821    8    120118421 1057    110120721         100119271         011014   011733   012379   011718   011817   012327   012704   013277   012246   012079   011003   011248                                      
050001300210015 00850 4113001SORTIE GAP CAR RD 470400964CARREF.CD942 TALLARD0510523GAP SUD N85         0490550010422010422050001300300000000001287      005911  518    005485   005670   005774   005867   005809   006010   006348   006407   006082   005990   005647   005818               140058061    8    130057831    8    120058211 1237    110060901    7    100060161         005132   005670   005862   005650   005733   006087   006277   006547   005990   005899   005300   005503                                      
050001395310015 00850 4813001SORTIE AGGLO SUD    0400726ACCES  CAR RD 47    0400964BEL AUREILLE        0400560000238000238050001300305000130030100      016549                                                                                                                                 140165008         130163858         120163308         110166488         100164498                                                                                                                                                        
050001399310015 00850 4853001CARREFOUR EUROPE    0380360SORTIE GAP SUD AGGLO0400726AV.JEAN JAURES      0390100002477000000050001100300000000000394      021654                                                                                                                                 140208598         130218448         120218418         110219588         100223298                                                                                                                                                        
050001400110015 00850 4113001CARREF RD 942 TALLAR0510523CARREF A51          0520421LA SAULCE           0520150000687000687050002100300000000000202      009415  607    010928   010689   012072   011256   011313   010952   007660   008859   007618            005784   006489               140089481    7    130106381    7    120082301    7    110082221    7    100080691         012171   012526   008729   006578   007006   007346   008058   008205   007894   011155                                                        
050001400310015 00850 4113001CARREF RD 942 TALLAR0510523CARREF A51          0520421LA SAULCE           0520150000687000687050002100300000000000202      017106  717    018114   018196   019555   017902   017548   017526   017396   018887   015418            012888   014687               140158101    7    130178541    7    120165321    7    110165641    7    100162171         018224   019050   016571   012757   013506   014110   015461   016726   014537   017278                                                        
050001400210015 00850 4113001CARREF RD 942 TALLAR0510523CARREF A51          0520421LA SAULCE           0520150000687000687050002100300000000000202      007691  787    007186   007507   007483   006646   006235   006574   009736   010028   007800            007104   008198               140068621    7    130072161    7    120083021    7    110083421    7    100081481         006053   006524   007842   006179   006500   006764   007403   008521   006643   006123                                                        
840001400310015 00070 4117001Charles de Gaulle   0540000D 973               0611156CAUMONT_N7          0600176006996006996840001400300000000000493      000000                                                                                                                                 140401931         130394431    7    120382901         110404441         100408711         038543   038495   039918   041769   040505   041053   043432   038035   040907   041165   038399   039983                                      
840001400210015 00070 4117001Charles de Gaulle   0540000D 973               0611156CAUMONT_N7          0600176006996006996840001400300000000000493      000000                                                                                                                                 140196681         130195681    7    120187771         110201871         100202441         018950   018949   019569   020454   019866   020002   021215   017581   020122   020199   019077   019996                                      
840001400110015 00070 4117001Charles de Gaulle   0540000D 973               0611156CAUMONT_N7          0600176006996006996840001400300000000000493      000000                                                                                                                                 140205251         130198751    7    120195131         110202571         100206271         019593   019546   020349   021315   020639   021051   022217   020454   020785   020966   019322   019987                                      
040001700110015 00850 4113001RD 12               0470290INTER. D907         0570250DIGNE_EST_N85       0500180008487008487050001100300000000000188      002436    0                                                                                                                            140023871    0    130023291    7    120023661    7    110024121    7    100024031    0                                                                                                                                                   
040001700310015 00850 4113001RD 12               0470290INTER. D907         0570250DIGNE_EST_N85       0500180008487008487050001100300000000000188      004915    0                                                                                                                            140047371    0    130047111    7    120047671    7    110048711    7    100048501    0                                                                                                                                                   
040001700210015 00850 4113001RD 12               0470290INTER. D907         0570250DIGNE_EST_N85       0500180008487008487050001100300000000000188      002479    0                                                                                                                            140023501    0    130023821    7    120024011    7    110024591    7    100024471    0                                                                                                                                                   
040001800110015 00850 4112001INTER. D907         0570250INTER. N202         0750128BARRÊME             0740800017685017285050001100300000000000188      002140  717    001492   001611   001726   001984   002250   002262   003036   003340   002247   001912            001630               140020721    7    130021081    7    120021111    7    110021371    7    100021341         001460   001476   001839   001906   002148   002305   002941   003412   002230   001960   001571   001548                                      
040001800310015 00850 4112001INTER. D907         0570250INTER. N202         0750128BARRÊME             0740800017685017285050001100300000000000188      004233  777    002969   003161   003446   003910   004490   004468   005844   006741   004464   003808            003158               140040941    7    130041711    7    120041731    7    110042231    7    100042181         002877   002848   003649   003702   004196   004605   005660   006920   004494   003892   003139   003012                                      
040001800210015 00850 4112001INTER. D907         0570250INTER. N202         0750128BARRÊME             0740800017685017285050001100300000000000188      002093  807    001477   001550   001720   001926   002240   002206   002808   003401   002217   001896            001528               140020221    7    130020631    7    120020621    7    110020861    7    100020841         001417   001372   001810   001796   002048   002300   002719   003508   002264   001932   001568   001464                                      
050002100110015 00940 4113001SORTIE GAP EST AGGLO0720245CARREF.RD 942       0820090GAP EST N94         0750800009851009489050002100300000000001287      006615  517    005861   006268   006250   006439   006314   007051   008144   007777   006542   006448   006171   006072               140063191    7    130062591    7    120061721    7    110062801    7    100061951         005666   006077   006263   006099   005988   006362   007288   007131   006303   006226   005983   006401                                      
050002100310015 00940 4113001SORTIE GAP EST AGGLO0720245CARREF.RD 942       0820090GAP EST N94         0750800009851009489050002100300000000001287      013170  527    011866   012405   012562   012795   012552   013861   015833   015688   012992   012882   012265   012243               140125511    7    130124441    7    120123141    7    110124691    7    100123111         011519   012030   012587   012096   011852   012616   014289   014401   012541   012352   011823   012415                                      
050002100210015 00940 4113001SORTIE GAP EST AGGLO0720245CARREF.RD 942       0820090GAP EST N94         0750800009851009489050002100300000000001287      006555  527    006005   006137   006312   006356   006238   006810   007689   007911   006450   006434   006094   006171               140062321    7    130061851    7    120061421    7    110061891    7    100061161         005853   005953   006324   005997   005864   006254   007001   007270   006238   006126   005840   006014                                      
050002199310015 00940 4853001CARREF.MUSEE        0700000SORTIE GAP EST AGGLO0720245AVENUE EMBRUN       0710000002042000000050002100300000000001287      020717                                                                                                                                 140197448         130195768         120193728         110196168         100193688                                                                                                                                                        
050002200210015 00940 4113001CARREF.CD942 MONTGAR0820090CARREF.CD954 BARCELO0980880CAR MONGARDIN       0820150016673015996050002500300000000000191      007704    0                                                                                                                            140073651    0    130070961    7    120069691    7    110071391    7    100069421    0                                                                                                                                                   
050002200310015 00940 4113001CARREF.CD942 MONTGAR0820090CARREF.CD954 BARCELO0980880CAR MONGARDIN       0820150016673015996050002500300000000001287      015567    0                                                                                                                            140144641    0    130142431    7    120139561    7    110142951    7    100139341    0                                                                                                                                                   
050002200110015 00940 4113001CARREF.CD942 MONTGAR0820090CARREF.CD954 BARCELO0980880CAR MONGARDIN       0820150016673015996050002500300000000000191      007863    0                                                                                                                            140070991    0    130071471    7    120069871    7    110071561    7    100069921    0                                                                                                                                                   
480002200310015 01060 4812001LIMITE GARD         0000000INTER.D984-JALCRESTE0221003LE COLLET DE DEZE   0100800022038020321300003500300000000001287      002548                                                                                                                                 140025308         130025058         120025168         110025168         100024938                                                                                                                                                        
050002400110015 00940 4113001CARREF.CD954 BARCELO0980880AGGLO SUD EMBRUN    1080800SAVINES-CROTS       1070546008803008015050002500300000000001287      007149  607    006048   006746   006591   006410   006433   007275   010780   011109   006552   006041   005670   006003               140068981    7    130069191    7    120068211    7    110069381    7    100067501         005776   006800   006968   005966   005986   006714   009737   010589   006388   005989   005289   006462                                      
050002400310015 00940 4113001CARREF.CD954 BARCELO0980880AGGLO SUD EMBRUM    1080800SAVINES-CROTS       1070546008803008015050002500300000000001287      014406  627    012603   013432   013823   012969   012920   014414   021206   022680   013171   012125   011228   012018               140138131    7    130138431    7    120136641    7    110139261    7    100135551         012056   013302   014221   012004   012017   013457   019231   021670   012899   011949   010573   012125                                      
050002400210015 00940 4113001CARREF.CD954 BARCELO0980880AGGLO SUD EMBRUN    1080800SAVINES-CROTS       1070546008803008015050002500300000000001287      007257  637    006555   006686   007232   006559   006487   007139   010426   011571   006619   006084   005558   006015               140069151    7    130069241    7    120068431    7    110069881    7    100068051         006280   006502   007253   006038   006031   006743   009494   011081   006511   005960   005284   005663                                      
050002499310015 20940 4843001AGGLO SUD EMBRUN    1100195AGGLO NORD EMBRUN   1120659AGGLO EMBRUN        1100200002359000000050002500300000000000191      008563                                                                                                                                 140082308         130076968         120067748         110040478         100039418                                                                                                                                                        
050002500210015 20940 4113001FIN AGLO NORD EMBRUN1120659CARREF.CD263        1170420EMBRUN NORD         1130900004776004776050002502300000000001287      003541  977    003131   002893   003603   003014   003035   003541   005251   006085   003066   003013   002732   003002               140034041    7    130031761    7    120028871    7    110017131    7    100016631         003420   003502   003770   002974   002704   003222   004519   005518   003091   002752   002484   002835                                      
050002500310015 20940 4113001FIN AGLO NORD EMBRUN1120659CARREF.CD263        1170420EMBRUN NORD         1130900004776004776050002502300000000001287      007168  987    005806   005857   006764   005999   006124   007329   011058   012265   006186   006162   005518   006692               140068891    7    130064421    7    120056701    7    110033871    7    100032981         006489   007252   007362   005968   005469   006515   009368   010989   006249   005582   004998   006327                                      
050002500110015 20940 4113001FIN AGL NORD EMBRUN 1120659CARREF.CD263.       1170420EMBRUN NORD         1130900004776004776050002502300000000001287      003627 1017    002675   002964   003161   002985   003089   003788   005807   006180   003120   003149   002786   003690               140034851    7    130032661    7    120027831    7    110016741    7    100016351         003069   003750   003592   002994   002765   003293   004849   005471   003158   002830   002514   003492                                      
300002500210015 01000 4112001RD 976              0020590A9 RD 192           0070653ESTEZARGUES         0060800005056005056000000000000000000000589      009577         008087   008242   008853   009840   009443   010362   011690   010943   009999   009700   008625   009026               140094711         130000001         120000001         110000001         100000001         007890   008419   008800   009828   009800   010017   011309   011168   009871   009396   008489   008568                                      
300002500110015 01000 4112001A 9 RD 192          0020590RD 976              0070653ESTEZARGUES         0060800005056005056000000000000000000000589      009553         008102   008147   008898   009735   009408   010329   011477   010972   010072   009755   008616   009003               140000001         130000001         120000001         110000001         100000001                                                                                                                                                        
300002500310015 01000 4112001A 9 RD 192          0020590RD 976              0070653ESTEZARGUES         0060800005056005056000000000000000000000589      019130         016189   016389   017751   019575   018851   020691   023167   021915   020071   019455   017241   018029               140000001         130000001         120000001         110000001         100000001                                                                                                                                                        
050002501310015 00940 4813001EMBRUN-SUD          1080800EMBRUN-NORD         1140440DEV_EMBRUN          1140000005640005640050002502300000000000409      000000                                                                                                                                 140000008         130000008         120000008         110000008         100000008                                                                                                                                                        
050002502110015 00940 4113001RD 263              1140440RD 902 A            1280350GUILLESTRE N94      1270234009874009291050002700300000000000199      004532  558    004144   004602   004475   004187   003905   004104   006494   006451   004133   004125   003674   004037               140045011    8    130045161    8    120044201    7    110045781    8    100044831         003867   004673   004805   003903   003766   004333   005941   006600   004146   003991   003462   004474                                      
050002502310015 00940 4113001RD 263              1140440RD 902 A            1280350GUILLESTRE N94      1270234009874009291050002700300000000000199      009256  667    008611   009129   009433   008557   008017   008687   012953   013905   008429   008110   007292   007809               140089811    7    130089901    7    120088491    7    110091141    8    100089471         008142   009103   009890   007855   007533   008623   011671   013401   008313   007912   006924   008286                                      
050002502210015 00940 4113001RD 263              1140440RD 902 A            1280350GUILLESTRE N94      1270234009874009291050002700300000000000199      004724  577    004467   004527   004958   004370   004112   004583   006459   007454   004296   003985   003618   003772               140044801    7    130044741    7    120044291    7    110045361    8    100044641         004275   004430   005085   003952   003767   004290   005730   006801   004167   003921   003462   003812                                      
050002600210015 00940 4113001CARREF.CD902A GUIL. 1280350CARREF.CD994E       1440520ARGENTIERE          1430800015594013008050002700300000000000192      003324  797    002944   002995   003299   003163   003003   003440   004478   005003   003108   002933   002667   002796               140032271    7    130031271    7    120031851    7    110031371    7    100031061         002731   002809   003246   002892   002832            004491   005042   003172   002913   002557   002740                                      
050002600310015 00940 4113001CARREF.CD902A GUIL. 1280350CARREF.CD994E       1440520ARGENTIERE          1430800015594013008050002700300000000001287      006808  837    005933   006110   006573   006394   006131   007122   009282   010112   006337   006011   005527   006036               140065781    7    130063311    7    120064351    7    110063361    7    100062851         005455   005899   006660   005855   005770            009034   010121   006478   005955   005200   005802                                      
050002600110015 00940 4113001CARREF.CD902A GUIL. 1280350CARREF.CD994E       1440520ARGENTIERE          1430800015594013008050002700300000000000192      003484  897    002989   003115   003274   003231   003128   003682   004804   005109   003229   003078   002860   003240               140033511    7    130032041 1127    120032501 1167    110031991 1387    100031791         002724   003090   003414   002963   002938            004543   005079   003306   003042   002643   003062                                      
300002600110015 01000 4112001RD 976              0070653RN 580              0150900ROCHEFORT           0140500008238008238000000000000000000000589      010104         008855   009010   009588   010082   010684   011059   011350   011680   010568   009484   009381   009426               140100681         130000001         120000001         110000001         100000001         008565   008917   009298   010048   010104   011036   011972   011592   010596   010108   009176   009314                                      
300002600310015 01000 4112001RD 976              0070653RN 580              0150900ROCHEFORT           0140500008238008238000000000000000000000589      020340         017784   018185   019255   020378   021456   022249   022939   023292   021201   019217   018884   019076               140202581         130000001         120000001         110000001         100000001         017173   018022   018699   020342   020317   022107   024202   023225   021223   020298   018460   018845                                      
300002600210015 01000 4112001RD 580              0070653RD 976              0150900ROCHEFORT           0140500008238008238000000000000000000000589      010236         008929   009175   009667   010296   010772   011190   011589   011612   010633   009733   009503   009650               140101901         130000001         120000001         110000001         100000001         008608   009105   009401   010294   010213   011071   012230   011633   010627   010190   009284   009531                                      
050002700310015 00940 4113001CARREF.CD994E       1440520CARREF.CD2 BRIAN.SUD1590079PRELLES             1520700014248012943050002700300000000000189      000000                                                                                                                                 140080281         130079491         120079491 1047    110079491 1067    100079191                                                                                                                                                        
050002700210015 00940 4113001CARREF.CD994E       1440520CARREF.CD2 BRIAN.SUD1590079PRELLES             1520700014248012943050002700300000000000189      000000                                                                                                                                 140037881         130037511         120037511         110037511         100038481                                                                                                                                                        
050002700110015 00940 4113001CARREF.CD994E       1440520CARREF.CD2 BRIAN.SUD1590079PRELLES             1520700014248012943050002700300000000000189      000000                                                                                                                                 140042391         130041981         120041981         110041981         100040711                                                                                                                                                        
300002700210015 01000 4810201RN580               0150900LIMITE VAUCLUSE     0190640LES ANGLES          0160475003732003732000000000000000000000616      019548    0                                                                                                                            140000008    0    130000008    0    120000008    0    110000008    0    100000008    0                                                                                                                                                   
300002700110015 01000 4110201RN580               0150900LIMITE VAUCLUSE     0190640LES ANGLES          0160475003732003732000000000000000000000616      019843    0                                                                                                                            140000001    0    130000001    0    120000001    0    110000001    0    100000001    0                                                                                                                                                   
300002700310015 01000 4810201RN580               0150900LIMITE VAUCLUSE     0190640LES ANGLES          0160475003732003732000000000000000000000616      039391    0                                                                                                                            140000008    0    130000008    0    120000008    0    110000008    0    100000008    0                                                                                                                                                   
830002799310015 00980 4856001A 570 HYERES        0000000EB10 HYERES         0100701HYERES OUEST        0100000001100001100830650200300000000000295      000000                                                                                                                                 140363548         130359958         120359958         110359958         100443918                                                                                                                                                        
050002899310015 00940 4843001CARREF.CD2 BRIAN.   1590079CARREF.CD994F AGGLO 1600586BRIANCON AV PROVENCE1590600001550000000050002700300000000001287      000000                                                                                                                                 140038088         130037718         120037718         110038728         100076448                                                                                                                                                        
300003000210015 01060 4112001RD 907              0050322RD 22 LA CALMETTE   0130500NIMES NORD          0050370008022008022300004601300000000000304      013786         012564   012824   013188   012865   014076   014684   015115   014404   014424   014293   013527   013381               140136571         130000001         120000001         110000001         100000001         012548   013162   013273   014150   013687   014464   014597   013803   013721   014349   013087   013026                                      
300003000310015 01060 4112001RD 907              0050322RD 22 LA CALMETTE   0130500NIMES NORD          0050370008022008022300004601300000000000589      031235         025983   026614   027598   024903   023659   038522   041078   038801   039526   032206   027983   027692               140280601         130000001         120000001         110000001         100000001         025654   026945   027113   029113   028245   029523   029784   028302   028711   029599   026820   026870                                      
300003000110015 01060 4112001RD 907              0050300RD 22 LA CALMETTE   0130322NIMES NORD          0050370008022008022300004601300000000000304      017449         013419   013790   014410   012038   009583   023838   025963   024397   025102   017913   014456   014311               140144031         130000001         120000001         110000001         100000001         013106   013783   013840   014963   014558   015059   015187   014499   014990   015250   013733   013844                                      
050003099310015 00940 4843001CARREF.CD994F AGGLO 1600586CARREF.RN91 CH.MARS 1610905BRIANCON AV FORGUES 1610000001339000000050002700300000000001287      000000                                                                                                                                 140016898         130016738         120016738         110017188         100033938                                                                                                                                                        
050003199310015 00940 4813001CARREF.RN91 CH.MARS 1610905AGGLO BRI NORD      1620412LA VACHETTE         1620050000511000000050003200300000000001287      008757                                                                                                                                 140085398         130084948         120082588         110084178         100082868                                                                                                                                                        
040003200210015 02020 4112001INTER. N85          0000000INTER. D955         0130590GEVAUDAN            0060450013354011302050001100300000000000188      001418         001160   001209   001222   001299   001438   001450   001846   002066   001449   001347            001088               140013441    7    130013961         120011401         110013521         100013511         001122   001032   001343   001269   001329                     002003   001484   001516   001173   001131                                      
040003200310015 02020 4112001INTER. N85          0000000INTER. D955         0130590GEVAUDAN            0060450013354011302050001100300000000000188      002809         002275   002410   002427   002568   002819   002872   003729   004019   002826   002719            002185               140026541    7    130027641         120025171         110027201         100027141         002177   002079   002619   002508   002644                     003993   002895   002984   002275   002296                                      
040003200110015 02020 4112001INTER. N85          0000000INTER. D955         0130590GEVAUDAN            0060450013354011302050001100300000000000188      001391         001115   001201   001205   001269   001381   001422   001883   001953   001377   001372            001097               140013101    7    130013681    7    120013771         110013681         100013631         001055   001047   001276   001239   001315                     001990   001411   001468   001102   001165                                      
050003200110015 00940 4113001AGGLO BRI NORD      1620412SORTIE MONTGENEVRE  1720580COL MTG             1640150010980009660130004300100000000001287      003101  647    002947   003006   002956   002641   002450   003036   004501   005500   002733   002393   002099   002879               140030261    7    130030161    7    120029251    7    110029841    8    100029381         002748   002752   003252   002655   002398   002890   004233   005377   002796   002398   002102   002635                                      
050003200310015 00940 4113001AGGLO BRI NORD      1620412SORTIE MONTGENEVRE  1720580COL MTG             1640150010980009660130004300100000000001287      006209  627    005912   006029   005945   005310   004911   005988   009019   010985   005446   004752   004193   005879               140060541    7    130060221    7    120058541    7    110059661    8    100058731         005423   005508   006511   005304   004786   005742   008476   010821   005579   004789   004206   005346                                      
050003200210015 00940 4113001AGGLO BRI NORD      1620412SORTIE MONTGENEVRE  1720580COL MTG             1640150010980009660130004300100000000001287      003108  617    002965   003023   002989   002669   002461   002952   004518   005485   002713   002359   002094   003000               140030281    7    130030061    7    120029291    7    110029821    8    100029351         002675   002756   003259   002649   002388   002852   004243   005444   002783   002391   002104   002711                                      
300003200210015 01060 4110101GIRATOIRE           0140430RD 8 BRIGNON        0200770ST GENIES           0170748005385005385300004601300000000000589      009097    0    007775   008131   008597   009229   009429   009628   009860   009963   009587   009552   009029   008329               140086991    0    130000001    0    120000001    0    110000001    0    100000001    0    007776   008209   008362   009018   008899   008948   009276   010085   008758   008384   008502   008136                                      
300003200310015 01060 4110101GIRATOIRE           0140430RD 8 BRIGNON        0200770ST GENIES           0170748005385005385300004601300000000000589      018293    0    015687   016450   017335   018636   018876   019361   019865   019806   019205   019336   018051   016800               140174661    0    130000001    0    120000001    0    110000001    0    100000001    0    015597   016505   016788   018188   017974   017821   018824   020108   017553   016741   017033   016394                                      
300003200110015 01060 4110101GIRATOIRE           0140430RD 8 BRIGNON        0200770ST GENIES           0170748005385005385300004601300000000000589      009196    0    007912   008319   008738   009407   009447   009733   010005   009843   009618   009784   009022   008471               140087671    0    130000001    0    120000001    0    110000001    0    100000001    0    007821   008296   008426   009170   009075   008873   009548   010023   008795   008357   008531   008258                                      
300003201210015 0106004110101RD 8 BRIGNON        0200730RD 982 PONT DE NERS 0270300BOUCOIRAN           0270000006332004632300004601300000000000404      018251                           018492   018967   019771   019084   019331   020130   019906   019593   011073   016034               140000001         130000001         120000001         110000001         100000001                                                                                                                                                        
300003201110015 0106004110101RD 8 BRIGNON        0200730RD 982 PONT DE NERS 0270300BOUCOIRAN           0270000006332004632300004601300000000000404      019690                           018948   019810   019941   020006   020326   020200   020283   020564   018288   018520               140000001         130000001         120000001         110000001         100000001                                                                                                                                                        
300003201310015 01060 4110101RD 8 BRIGNON        0200770RD 982 PONT DE NERS 0270300BOUCOIRAN           0270000006332004632300004601300000000000301      037941                           037440   038777   039712   039090   039657   040330   040189   040157   029361   034554               140000001         130000001         120000001         110000001         100000001                                                                                                                                                        
050003220110015 00940 4113001AGGLO BRI NORD      1720580SORTIE MONTGENEVRE  1730390MTG TREMIE          1730120010980009660130004300100000000001287      001959  608    002360   002225   002188   001929   001223   001514   002712   003691   001297   001116   001028   002186               140018821    8    130018881    8    120018681    7    110019311    8    100013871         002171   002125   002391   001828   001172   001407   002392   003505   001402   001103   001136   001924                                      
050003220310015 00940 4113001AGGLO BRI NORD      1720580SORTIE MONTGENEVRE  1730390MTG TREMIE          1730120010980009660130004300100000000001287      003303  598    003776   003519   003502   003183   002200   002630   004709   006407   002275   001954   001751   003642               140031641    8    130031971    8    120030841    7    110031791    8    100026181         003384   003334   003803   002997   002071   002472   004239   006215   002403   001938   001900   003142                                      
050003220210015 00940 4113001AGGLO BRI NORD      1720580SORTIE MONTGENEVRE  1730390MTG TREMIE          1730120010980009660130004300100000000001287      001344  588    001416   001294   001314   001254   000977   001116   001997   002716   000978   000838   000723   001456               140012821    8    130013091    8    120012161    7    110012481    8    100012311         001213   001209   001412   001169   000899   001065   001847   002710   001001   000835   000764   001218                                      
040003300110015 02020 4112001INTER. D955         0130590INTER. D955         0210343SAINT JULIEN        0200050007683006489050001100300000000000188      001221         000937   000976   001076   001095   001199   001172   001927   002097   001265   001114   000898   000852               140011511         130011991         120000001         110012201         100012171         000923   000946   001149   001156   001130   001246            001979   001245   001191   000858   000810                                      
040003300310015 02020 4112001INTER. D955         0130590INTER. D955         0210343SAINT JULIEN        0200050007683006489050001100300000000000188      002493         001831   001930   002113   002213   002433   002384   003932   004252   002591   002373   001894   001884               140020951         130024381         120000001         110024791         100024721         001819   001876   002227   002206   002278   002538            001979   002185   002443   001743   001732                                      
040003300210015 02020 4112001INTER. D955         0130590INTER. D955         0210343SAINT JULIEN        0200050007683006489050001100300000000000188      001272         000894   000954   001037   001118   001234   001212   002005   002155   001326   001259   000996   001032               140009441         130012391         120000001         110012591         100012551         000896   000930   001078   001050   001148   001292            000000   000940   001252   000885   000922                                      
050003300110015 00940 4113001SORTIE MONTGENEVRE  1730390LIMITE FRONTIERE    1740834POSTE P.A.F         1740600001451001451130004300100000000001287      001562  867    001937   001666   001674   001543   001035   001175   002137   003069   001059   000940   000816   001649               140015101    7    130014991    7    120013881    7    110014571    7    100014301         001705   001541   001845   001437   001137   000958   002342   002882   001091   000897   000870   001368                                      
050003300310015 00940 4113001SORTIE MONTGENEVRE  1730390LIMITE FRONTIERE    1740834POSTE P.A.F         1740600001451001451130004300100000000001287      003136  917    003820   003336   003325   003063   002108   002345   004358   006102   002122   001864   001627   003473               140029801    7    130030151    7    120027781    7    110029091    7    100028611         003266   003074   003651   002765   002123   002059   004263   005817   002172   001803   001747   002933                                      
050003300210015 00940 4113001SORTIE MONTGENEVRE  1730390LIMITE FRONTIERE    1740834POSTE P.A.F         1740600001451001451130004300100000000001287      001574  937    001883   001670   001651   001520   001073   001170   002221   003033   001063   000924   000811   001824               140014701    7    130015161    7    120013901    7    110014521    7    100014311         001561   001533   001806   001328   000986   001101   001921   002935   001081   000906   000877   001565                                      
300003300310015 01060 4112001RD 982 PONT DE NERS 0270300EB10 ALES           0390707SAINT HILAIRE       0380700012257010167300004601300000000000589      000000                                                                                                                                 140000001         130000001         120000001         110000001         100000001                                                                                                                                                        
300003300210015 0106004110201RD 982 PONT DE NERS 0270300EB 10 ALES          0390707SAINT HILAIRE       0380700012257010167300004601300000000000404      000000                                                                                                                                 140000001         130000001         120000001         110000001         100000001                                                                                                                                                        
300003300110015 0106004110201RD 982 PONT DE NERS 0270300EB 10 ALES          0390707SAINT HILAIRE       0380700012257010167300004601300000000000404      000000                                                                                                                                 140000001         130000001         120000001         110000001         100000001                                                                                                                                                        
340003300110015 01130 4113001LIMITE GARD         0000000EB10 LUNEL          0010670LUNEL               0010200001754001754340003600330000480030490      012781         011059   011288   012106   013050   013418   014056   014880   015208   012807   012245   011654   011467               140122311         130120381         120120551         110117781    8    100117621         010306   011507   011690   012897   012818   013397   013364   014825   012686   011712   010535   010990                                      
340003300310015 01130 4113001LIMITE GARD         0000000EB10 LUNEL          0010670LUNEL               0010200001754001754340003600330000480030490      025723         022422   022871   024473   026249   027145   028139   029461   030255   025977   024623   023697   023118               140245681         130242031         120241441         110238651    8    100236571         020845   023042   023683   025951   025812   026662   026463   029383   025530   023675   021363   022301                                      
340003300210015 01130 4113001LIMITE GARD         0000000EB10 LUNEL          0010670LUNEL               0010200001754001754340003600330000480030490      012942         011363   011583   012367   013199   013727   014083   014581   015047   013170   012378   012043   011651               140123371         130121651         120120891         110120871    8    100118951         010539   011535   011993   013054   012994   013265   013099   014558   012844   011963   010828   011311                                      
040003400310015 02020 4112001INTER. D955         0210343INTER. D908         0380410ROUAINE             0330620016825015738050001100300000000000188      000000                                                                                                                                 140015731         130015721    7    120015521    7    110016241         100016331                                                                                                                                                        
040003400210015 02020 4112001INTER. D955         0210343INTER. D908         0380410ROUAINE             0330620016825015738050001100300000000000188      000000                                                                                                                                 140007841         130007911    7    120007771    7    110008101         100008161                                                                                                                                                        
040003400110015 02020 4112001INTER. D955         0210343INTER. D908         0380410ROUAINE             0330620016825015738050001100300000000000188      000000                                                                                                                                 140007891         130007811    7    120007751    7    110008141         100008171                                                                                                                                                        
300003400210015 01060 4112001LA GRAND COMBE      0470000EB20 ALES           0570400ST_MARTIN_VALG      0490800010324008844300004601300000000000290      005356         004842   004836   005147   005372   005445   005599   005625   005632   005686   005593   005266   005191               140052421    8    130000001         120000001         110000001         100000001         004708   004982   004991   005350   005289   005446   005561   005677   005382   005443   004939   005112                                      
300003400310015 01060 4112001EB20 ALES           0470000LA GRAND COMBE      0570400ST_MARTIN_VALG      0490800010324008844300004601300000000000290      010678         009642   009637   010261   010711   010870   011149   011247   011219   011333   011124   010528   010338               140104401    8    130000001         120000001         110000001         100000001         009390   009918   009935   010662   010553   010879   011094   011281   010719   010798   009881   010125                                      
300003400110015 01060 4112001EB20 ALES           0470000LA GRAND COMBE      0570400ST_MARTIN_VALG      0490800010324008844300004601300000000000290      005322         004800   004801   005114   005339   005425   005550   005622   005587   005647   005531   005262   005147               140051981    8    130000001         120000001         110000001         100000001         004682   004936   004944   005312   005264   005433   005533   005604   005337   005355   004942   005013                                      
040003500110015 02020 4112001INTER.D908          0380410INTER. D2202        0450150PONT DE GUEYDAN     0440850006608006460050001100300000000000188      001288  657    000986   000995   001111   001185   001379   001379   001793   001955   001399   001217   001032   000995               140012731    7    130012841    7    120012871    7    110013151    8    100012781         000934   000923   001091   001127   001306   001427   001721   002023   001372   001272   001106   000942                                      
040003500310015 02020 4112001INTER.D908          0380410INTER. D2202        0450150PONT DE GUEYDAN     0440850006608006460050001100300000000000188      002559  657    001889   001960   002150   002360   002725   002757   003562   003920   002800   002459   002037   002025               140025261    7    130025611    7    120025631    7    110026241    8    100025511         001774   001825   002128   002232   002576   002852   003395   004058   002740   002540   002208   001921                                      
040003500210015 02020 4112001INTER.D908          0380410INTER. D2202        0450150PONT DE GUEYDAN     0440850006608006460050001100300000000000188      001271  657    000903   000965   001039   001175   001346   001378   001769   001965   001401   001242   001005   001030               140012531    7    130012771    7    120012761    7    110013091    8    100012731         000840   000902   001037   001105   001270   001425   001674   002035   001368   001268   001102   000979                                      
300003500110015 01060 4112001LA GRAND COMBE      0570400LIMITE LOZERE       0660871SAINTE CECILE       0650200009457006617300004601300000220030290      001376         000938   000968   001092   001315   001468   001460   001829   002176   001514   001470   001130   001115               140013831         130000001         120000001         110000001         100000001         000935   000974   001119   001285   001422   001478   002033   002161   001469   001476   001119   001081                                      
300003500310015 01060 4112001LA GRAND COMBE      0570400LIMITE LOZERE       0660871SAINTE CECILE       0650200009457006617300004601300000220030290      003061         002111   002169   002445   002933   003315   003266   004104   004761   003362   003203   002536   002439               140030391         130000001         120000001         110000001         100000001         002082   002150   002496   002846   003125   003257   004376   004686   003224   003221   002501   002405                                      
300003500210015 01060 4112001LIMITE LOZERE       0570400LA GRAND COMBE      0660871SAINTE CECILE       0650200009457006617300004601300000220030290      001685         001173   001201   001353   001618   001847   001806   002275   002585   001848   001733   001406   001324               140016561         130000001         120000001         110000001         100000001         001147   001176   001377   001561   001703   001779   002343   002525   001755   001745   001382   001324                                      
340003600110015 01130 4113001EB 20 LUNEL         0040630BAILLARGUES         0140750VALERGUES           0090000010811008088340003600300000000000490      007235    0                                                                                                                            140071601    0    130070901    7    120070271    0    110068981    7    100072301    0                                                                                                                                                   
340003600310015 01130 4113001EB 20 LUNEL         0040630BAILLARGUES         0140750VALERGUES           0090000010811008088340003600300000000000490      014433    0                                                                                                                            140142331    0    130140931    7    120143681    0    110155541    7    100159041    0                                                                                                                                                   
340003600210015 01130 4113001EB 20 LUNEL         0040630BAILLARGUES         0140750VALERGUES           0090000010811008088340003600300000000000490      007198    0                                                                                                                            140070731    0    130070031    7    120073411    0    110086561    7    100086741    0                                                                                                                                                   
340003601110015 01130 4113001BAILLARGUES         0140750VENDARGUES A9       0150450BAILLARGUES         0140948002797002797340003600300000000000616      029067    0             041660   037758   040360   039749   026176   024629   020955   021127   021497   020265   026512               140000001    0    130000001    0    120000001    0    110000001    0    100000001    0                                                                                                                                                   
340003701310015 01130 4813001VENDARGUES A9       0150450VENDARGUES D65      0160150VENDARGUES A9 D65   0160000002797002197340003600300000000000180      045031                                                                                                                                 140444078         130439688         120448268         110485278         100496198                                                                                                                                                        
340003702310015 01130 4813001VENDARGUES D65      0160150VENDARGUES LIMITE   0160912VENDARGUES LIMITE   0160700002797002197340003600300000000000180      024036                                                                                                                                 140237038         130234698         120239278         110259038         100264868                                                                                                                                                        
380003800110015 00850 4113001VIZILLE             0560310LIMITE HAUTES-ALPES 1030997LAFFREY             0730600050574050574300003500305000090010907      004349    0                                                                                                                            140048691    0    130048211    0    120048211    0    110048211    0    100048531    0                                                                                                                                                   
380003800310015 00850 4113001VIZILLE             0560310LIMITE HAUTES-ALPES 1030997LAFFREY             0730600050574050574300003500305000090010907      009464    0                                                                                                                            140097801    0    130096841    0    120096841    0    110096841    0    100097561    0                                                                                                                                                   
380003800210015 00850 4113001VIZILLE             0560310LIMITE HAUTES-ALPES 1030997LAFFREY             0730600050574050574300003500305000090010907      005115    0                                                                                                                            140049111    0    130048631    0    120048631    0    110048631    0    100049031    0                                                                                                                                                   
840003800310015 01290 4813001N 7                 0000000N 7                 0000775AUTOROUTE AVI SUD   0000690000775000775840001400300000000000500      000000                                                                                                                                 140199148         130192848         120189338         110196558         100200148                                                                                                                                                        
830004100210015 10500 4155001VILLEVIEILLE TOULON 0000000ENTREE EST          0010300ACCES-EST-F         0010300001300000000840000202300000000000105      000000                                                                                                                                 140000001         130000001         120000001         110000001         100000001                                                                                                                                                        
830004100110015 10500 4853001RN 8                0000000A 57 0+0            0010300TOULON              0000500001300000000830616600100000000000401      000000                                                                                                                                 140000008         130000008         120000008         110000008         100000008                                                                                                                                                        
130004201310015 01130 4810201RN 1453             0600000RD 24               0620440RD 24 EST           0600000002823002823130004300300000000000394      000000                                                                                                                                 140000008         130000008         120000008         110000008         100000008                                                                                                                                                        
130004201210015 01130 4810201RN 1453             0600000RD 24               0620440RD 24 EST           0600000002823002823130004300200000000000394      000000                                                                                                                                 140000008         130000008         120000008         110000008         100000008                                                                                                                                                        
130004201110015 01130 4810201RN 1453             0600000RD 24               0620440RD 24 EST           0600000002823002823130004300100000000000394      000000                                                                                                                                 140000008         130000008         120000008         110000008         100000008                                                                                                                                                        
130004202210015 01130 4810201RD 24               0620440RN 1453             0640800DEV ST MARTIN       0620500002346002346130004300200000000000394      017777                                                                                                                                 140171478         130169788         120169788         110169788         100170748                                                                                                                                                        
130004202310015 01130 4810201RD 24               0620440RN 1453             0640800DEV ST MARTIN       0620500002346002346130004300300000000000394      035588                                                                                                                                 140333548         130330248         120330248         110330248         100333708                                                                                                                                                        
130004202110015 01130 4810201RD 24               0620440RN 1453             0640800DEV ST MARTIN       0620500002346002346130004300100000000000394      017811                                                                                                                                 140162068         130160468         120160468         110160468         100161378                                                                                                                                                        
130004300210015 01130 4113001RN 568              0640800RN 1453             0670630ARLES HIPPOLYTE     0660600003037003037130004300100000000000589      018438    0                                                                                                                            140177841    0    130176081    0    120176081    0    110176081    0    100177081    0                                                                                                                                                   
130004300310015 01130 4113001RN 1453             0640800RN 568              0670630ARLES HIPPOLYTE     0660600003037003037130004300100000000000589      036683    0                                                                                                                            140343841    0    130340441    0    120340441    0    110340441    0    100345661    0                                                                                                                                                   
130004300110015 01130 4113001RN 1453             0640800RN 568              0670630ARLES HIPPOLYTE     0660600003037003037130004300100000000000589      018245    0                                                                                                                            140166001    0    130164361    0    120164361    0    110164361    0    100165291    0                                                                                                                                                   
130004400210015 01130 4810201RN 568              0670630ARLES EST RN 570    0760100LES CANTARELLES     0690600008462008462130004300200000000000589      028245                                                                                                                                 140272448         130269758         120269758         110269758         100271278                                                                                                                                                        
130004400310015 01130 4810201RN 568              0670630ARLES EST RN 570    0760100LES CANTARELLES     0690600008462008462130004300300000000000589      054261                                                                                                                                 140509168         130504128         120504128         110504128         100511838                                                                                                                                                        
130004400110015 01130 4810201RN 568              0670630ARLES EST RN 570    0760100LES CANTARELLES     0690600008462008462130004300100000000000589      026016    0                                                                                                                            140236718    0    130234378    0    120234378    0    110234378    0    100235698    0                                                                                                                                                   
130004500210015 01130 4810201ARLES EST RN 570    0760100RD 570              0781239PONT D'ARLES        0781000003376003376130004300200000000000589      031116                                                                                                                                 140300138         130297168         120297168         110297168         100298848                                                                                                                                                        
130004500310015 01130 4810201ARLES EST RN 570    0760100RD 570              0781239PONT D'ARLES        0781000003376003376130004300300000000000589      066628                                                                                                                                 140623258         130617088         120617088         110617088         100626548                                                                                                                                                        
130004500110015 01130 4810201ARLES EST RN 570    0760100RD 570              0781239PONT D'ARLES        0781000003376003376130004300100000000000589      035512                                                                                                                                 140323118         130319928         120319928         110319928         100321738                                                                                                                                                        
300004597310015 01130 4852001EB 10 NIMES         0240280RN 86 BD SUD        0260640NIMES ENTREE SUD    0250000002405000000300004601300000000000301      034553                                                                                                                                 140336368         130000008         120000008         110000008         100000008                                                                                                                                                        
300004598310015 01130 4857001RN 86 BD SUD        0260640A9 RN 106           0290820NIMES  PERIPHERIQUE 0280760003143000000300004601300000000000589      034816    0                                                                                                                            140338928    0    130000008    0    120000008    0    110000008    0    100000008    0                                                                                                                                                   
300004598210015 01130 4157001RN 86 BD SUD        0260040A9 RN 106           0290820NIMES PERIPHERIQUE  0280760003143000000300004601300000000000589      000000                                                                                                                                 140000001         130000001         120000001         110000001         100000001                                                                                                                                                        
300004598110015 01130 4157001RN 86 BD SUD        0260040A9 RN 106           0290820NIMES PERIPHERIQUE  0280760003143000000300004601300000000000589      000000                                                                                                                                 140000001         130000001         120000001         110000001         100000001                                                                                                                                                        
300004599310015 01130 4857001A9 N106             0290820EB 20 NIMES         0320195NIMES PERIPH SUD OUE0310000002408000000300004601300000000000301      034553                                                                                                                                 140336368         130000008         120000008         110000008         100000008                                                                                                                                                        
300004600310015 01130 4812001EB20 NIMES          0320195RD 14 BERNIS        0360391DEVIATION DE MILHAUD0330000005034005034300004601300000000000589      022380                                                                                                                                 140217868         130000008         120000008         110000008         100000008                                                                                                                                                        
300004601110015 01130 4113001RD 14 BERNIS        0360391RD 139 VERGEZE      0420395BERNIS              0360480006662006662300004700300000000000589      008775         007914   008008   009016   009757   009565   009705   009206   009234   008626   008307   008017   007902               140086421         130000001         120000001         110000001         100000001         007785   008336   008310   008789   008693   009216   009372   009495   008999   008544   008034   008121                                      
300004601310015 01130 4113001RD 14 BERNIS        0360391RD 139 VERGEZE      0420395BERNIS              0360480006662006662300004700300000000000589      017702         015794   015938   017884   019607   019409   019654   018649   018915   017526   016832   016192   015918               140172321         130000001         120000001         110000001         100000001         015439   016457   016601   017429   017373   018392   018674   019106   017937   017131   016044   016159                                      
300004601210015 01130 4113001RD 139 VERGEZE      0360391RD 14 BERNIS        0420395BERNIS              0360480006662006662300004700300000000000589      008927         007880   007930   008868   009850   009844   009949   009443   009681   008900   008525   008175   008016               140085901         130000001         120000001         110000001         100000001         007654   008121   008291   008640   008680   009176   009302   009611   008938   008587   008010   008038                                      
300004700110015 01130 4112001RD 139 VERGEZE      0420395A.9 RN 313          0470480CODOGNAN            0430540005085004465300004700300000000000589      003878         003157   003241   003473   003690   003996   004211   004414   004924   004167   003914   003722   003574               140052671         130000001         120000001         110000001         100000001         004856   005305   005401   005782   005686   006088   006205   006707   005812   004963   003249   003152                                      
300004700310015 01130 4112001RD 139 VERGEZE      0420395A.9 RN 313          0470480CODOGNAN            0430540005085004465300004700300000000000589      011378         009494   009353   010258   011090   011867   012230   012532   013023   012115   011860   011197   011361               140110561         130000001         120000001         110000001         100000001         009522   010381   010670   011365   011330   012128   012211   013459   011572   010369   009798   009828                                      
300004700210015 01130 4112001A.9 RN 313          0420395RD 139 VERGEZE      0470480CODOGNAN            0430540005085004465300004700300000000000589      007500         006337   006112   006785   007400   007871   008019   008118   008099   007948   007946   007475   007787               140057891         130000001         120000001         110000001         100000001         004666   005076   005269   005583   005644   006040   006006   006752   005760   005406   006549   006676                                      
300004800310015 01130 4812001A9 RN 313           0470480RN 572              0490420GALLARGUES          0490000001931001931300004700300000010030589      016780                                                                                                                                 140163068         130000008         120000008         110000008         100000008                                                                                                                                                        
300004801310015 01130 4812001RN 572              0490420LIMITE HERAULT      0490798PONT / VIDOURLE     0490798000378000378300004700300000000000189      015620                                                                                                                                 140151788         130000008         120000008         110000008         100000008                                                                                                                                                        
130004900210015 02960 4810201AX OUEST (A 51)     0000000RN 7                0020000ROCADE OUEST AIX    0000500002267001573130005000200000000000589      032868                                                                                                                                 140333828         130330528         120330528         110330528         100318578                                                                                                                                                        
130004900310015 02960 4810201AX OUEST (A 51)     0000000RN 7                0020000ROCADE OUEST AIX    0000500002267001573130005000300000000000589      069501                                                                                                                                 140698268         130691358         120691358         110691358         100669538                                                                                                                                                        
130004900110015 02960 4810201AX OUEST (A 51)     0000000RN 7                0020000ROCADE OUEST AIX    0000500002267001573130005000100000000000589      036633                                                                                                                                 140364438         130360838         120360838         110360838         100350958                                                                                                                                                        
130005000210015 02960 4110201RN 7                0020000RN 96 A51           0051040AIX  ROCADE NORD    0040000003186003117130007000100000000000294      030876    0                                                                                                                            140313581    0    130310481    0    120310481    0    110310481    0    100299251    0                                                                                                                                                   
130005000310015 02960 4110201RN 7                0020000RN 96               0051040AIX ROCADE NORD     0040000003186003117130007000100000000000294      061781    0                                                                                                                            140621021    0    130614881    0    120614881    0    110614881    0    100599821    0                                                                                                                                                   
