140108399310015 00840 1810241limite 14/50        2080000limite 50/14        2111470Pont Farçy T        2100000004470004470500100890350010089030109      000000                                                                                                                                 140270928         130267888    0    120265068    0    110269858    0    100256358 1100                                                                                                                                                   
140108403310015 00840 1117041ECHANGEUR RD 6      2420236Echang. Villers Boca2450000VILLERS BOCAGE      2430896002764002764270000200100000000000196      000000                                                                                                                                 140336271 1507    130327071 1507    120323801 1537    110329561 1537    100321051 1527    026818   028392   029968   035895   034508   036114   039762   041082   035130   034379   030447   030619                                      
500100890310015 00840 1110241ECH.39              2120238ECH.40              2170280PONT-FARCY          2120000005042005042500100890100000000001103      000000                                                                                                                                 140270921 1287    130267881 1168    120265061 1378    110269851 1318    100256351 1078    020220   021724   023621   028876   029122   028314   033671   037508   027574   027326   023468   023158                                      
500100891310015 00840 1810241                    2170280                    2210759Guiberville         2190000004479004479500100890300000000001103      000000                                                                                                                                 140270928         130267888         120265068         110269858         100256358    0                                                                                                                                                   
610000502310015 00120 4813001RN 138              0630300FIN DEVIAT.ALENCON  0720070DEVIATION ALENCON   0680020007836007836610000600300000000000188      000000                                                                                                                                 140086788         130087218         120087188         110091328         100089638                                                                                                                                                        
610000600310015 00120 4113001FIN DEVIATION       0720070LIMITE MAYENNE      0840911Alençon             0790440012668009551760003700100000000000188      000000                                                                                                                                 140086481 2127    130086891    0    120086861 2207    110090981 2147    100089281 2107    007325   007765   008023   009145   008736   009322   009628   009771   009336            007940   008090                                      
760501100310015 00280 1810241DPT SOMME           0290000CALLENGEVILLE       0430900Fallencourt         0350000014900014900760501200300000000000193      000000                                                                                                                                 140132738         130128858         120130878         110133778         100131128    0                                                                                                                                                   
760501200310015 00280 1110241CALLENGEVILLE       0430900NEUFCHATEL NORD     0550000Callengeville       0450000011100011100760501500100000000000193      000000                                                                                                                                 140123451 2767    130119841         120121711 2707    110124391 2727    100121921 2657    009065   009677   010376   012427   012326   014082   015693   018147   013087   012100   010530   010394                                      
760500401310015 01310 1810241                    0210936                    0300600Sandouville         0280600008664008664760500500300000000000409      000000                                                                                                                                 140204378         130197518         120199868         110200928         100185268                                                                                                                                                        
760500500310015 01310 1110241                    0300600                    0330393GONFREVILLE         0320850002793002793760501200100000000000409      000000                                                                                                                                 140433921         130419431         120424451    8    110426641 1127    100416811 1048    041216   041871   042499   044022   041771   045894   043993   039266   047009   047303   043418   042518                                      
760500400310015 0131001810241                    0160000                    0210936Tancarville         0160000005936005936760500500300000000000409      000000                                                                                                                                 140189418         130183278         120185538         110186408         100181948    0                                                                                                                                                   
760008400310015 02820 4815001a131                0000000RN 15               0020942gonfreville         0000400002942002942760500500300000000000102      000000                                                                                                                                 140190378         130184108         120186348         110187278         100182898                                                                                                                                                        
760500000310015 01510 1110241PISSY POVILLE       0000000PISSY POVILLE       0060400PISSY POVILLE       0010300006400006400760500500100000000000288      019296  917    018176   018852   019349   020492   019020   021406   018768   017989   020097   019657   019069   018758               140220641 1357    130215671 1047    120199561    0    110198171    0    100190741    0    021045   021713   022701   023323   022457   024707   024600   021466   022170   021720   020066   018833                                      
140001002310015 00130 4110101BAYEUX              0980183LIMITE DE LA MANCHE 1280706LONGUEVILLE         1130785031535031535500100890100000000000196      012742 120                                                                                                                             140138541 1097    130133801    8    120135111    8    110137831    8    100136021 1087    010991   011737   012524   014517   014430   017403   016438   016667   014886   014196   012301                                               
500000200310015 00130 4110201CALVADOS            0000000RD 913              0110000ST HILAIRE          0060000010299010299500000500114000000000296      017646 137     014963   016387   017480   020136   020824   021476   019743   011111   018551   018258   016450   016449               140189841 1347    130177771 1367    120175021 1317    110155161    7    100171671 1387    014875   015820   016861   019648   019354   023890   022180   022209   020181   019070   016959   016610                                      
760008701310015 13380 1140131Rive Gauche         0080000Rive Droite         0090960Pt Flaubert         0080500001960001960760500500100000000000814      049233  977    046508   048279   049875   051940   047472   052864   048866   044553   050865   050507   049555   049696               140529001 1387    130000001    0    120000001    0    110000001    0    100000001    0    053227   047992   055485   057857   054250   058525   056557   048842   051603   051988   050078   048129                                      
760008500310015 03380 4110201PETIT COURONNE      0000000GRAND QUEVILLY      0030500CETE                0010800003500003500760500500100000000000388      069661  87                                                                                                                             140729921 1007    130723171    7    120670291    8    110670011    7    100640271    0    072037   072128   074072   076704   072325   077812   075995   067642   072986   074086   070948   069289                                      
760007500310015 01380 4810201GD COURONNE         0090000GD COURONNE         0100064GD COURONNE         0090800001064001064760007600300000000000288      029731                                                                                                                                 140310358         130346528         120273238         110296598         100288278                                                                                                                                                        
760007800310015 01380 4810201PETIT COURONNE      0140800ST ETIENNE ROUVRAY  0150048ST ETIENNE ROUVRAY  0150000000248000248760007600300000000000288      031880                                                                                                                                 140332788         130372108         120293148         110317978         100308988                                                                                                                                                        
760007700310015 01380 4810601PETIT COURONNE      0120900PETIT COURONNE      0140800PETIT COURONNE      0130500001900001900760007600300000000000288      083500                                                                                                                                 140871618         130974588         120767748         110832768         100809208                                                                                                                                                        
760007600310015 01380 4110201GRAND COURONNE      0100064PETIT COURONNE      0120900Les Essarts         0110200002836002836760007600100000000000288      040745  917    037880   039815   040572   043163   039551   043651   041243   037446   043235   042167   040715   039663               140425311 1057    130475551    7    120374621    7    110406341    7    100394841    7    040206   040813            047056   044965   045290   043705   039363   043190   043033   040951   039317                                      
760500200310015 01500 1110241Canteleu            0040000ech la vaupaliere   0060320La Vaupaliere       0040850002090002090760500500100000000000102      051782  857    048344   050491   051873   054649   050556   056075   049463   046261   054063   054129   052255   053422               140534101 1117    130530611 1217    120510401    7    110506821    7    100487781    7    051916   052209   053961   054953   053023   056898   054954   052470   053724   054151   052064   050606                                      
760008600310015 03380 4110101gd quevilly         0030500gd quevilly         0050850Bois Cany           0050600001500001500760500500100000000000301      065155  707    061453   063772   065061   068276   062970   068449   065898   059768   068604   066898   065229   065671               140670861    7    130669611    7    120722421    0    110000001    0    100366811    0    065350   066780   068400   070380   066766   070927   069701   063247   067837   068158   065424   062239                                      
760500201310015 01500 1110241Ech la vaupaliere   0060320ech A 151           0080880St Jean de Cardonay 0060500002560002560760500500100000000000102      052497 5257    049193   051604   053212   055609   051514   057663   048425   046863   054626   054620   052775   054117               140538071    7    130542301    7    120565021    0    110561041    0    100539991    0    052777   053635   055339   056240   054509   058391   055296   046808   053734   054612   052886   051631                                      
140004400310015 08140 4110201Ech. de CORMELLES   0240719Ech.du PAYS d'Auge  0260788Vallée sèche        0260243002080000000500100890100000000000997      074660  617    068349   071283   073168   076872   075213   080069   074914   074411   077022   077444   072344   074751               140764421    7    130766601    7    120771501    7    110760611    7    100738681    7    072829   075284   076426   082561   077649   077007   078860   076777   077406   077168   072789   072564                                      
140003100310015 08140 4110201ECHANG.AUTOROUTE A130000000ECHANGEUR MONTALIVET0020000MONDEVILLE          0010000002027000000500100890100000000000193      072248  377    066760   069313   071501   073956   071673   077604   072318   068528   076431   075298   071535   072108               140738551    7    130749731    7    120747531    7    110762621    7    100751991    7    072170   074450   073991   079568   074101   073994   074765   071738   075077   075960   071210   069434                                      
140004599310015 08140 4110201Ech.du PAYS d'Auge  0260788ECHANGEUR MONTALIVET0270380Porte de Paris      0270228000592000592500100890100000000000997      086745  937    078088   084804   087569   089730   085418   095544   086943   084442   092247   091909   086259   078341               140884221    7    130876651    7    120875731    7    110888471    7    100857101    7    083081   085765   086122   093173   087085   089301   090513   088891   092066   092299   086121   086615                                      
760500100310015 01500 1110241ROUEN               0000000CANTELEU            0040000CANTELEU            0020600004230004230760500500100000000000288      061570  697    058007   060398   061817   064611   059471   066186   059936   054724   064398   064224   062653   062677               140624591    7    130620451    7    120598671    0    110594491    0    100572161    0    061066   061817   063822   064739   062252   066650   063795   056082   063527   064351   061928   059639                                      
280003600310015 01230 4113001RN10                0070840RN23                0110690LUISANT             0080950003853003853280003900100000000000188      032829 164     029931   031245   031950   034313   032921   035266   034438   031097   034318   033624   031927   032908               140332071 1667    130338561 1627    120341901 1637    110345831 1488    100343211 1498    031457   032531   033426   034614   032803   035197   034270   031411   034209   034388   032026   032199                                      
140108405310015 00840 1110241Ech 44              2590655Echangeur BP Ouest  2620822BRETTEVILLE SUR ODON2610928003167003167270000200100000000001097      046286  917    038674   041815   043320   048677   048958   048931   048109   050952   048455   048237   043793   045226               140467881 1087    130464511 1187    120464991 1167    110473181 1187    100461451 1157    041231   043419   044402   050776   048264   049817   050828   050891   047792   047793   042867   043180                                      
280001700310015 00120 4810201Ech. Est Dreux      0140816RD 912 "Les Fenots" 0190637DEVIATION DREUX     0170500004436004001280001600300000000000188      030402                                                                                                                                 140307288         130300178    0    120287828    0    110304208    0    100289748    0                                                                                                                                                   
280001600310015 00120 4110201Limite DEPT 78      0000000Ech. Est Dreux      0140816LA MESANGERE        0100200014661014661280001600178000040030188      031171 109     028519   030722   031214   034045   031046   033971   032790   028324   031689   031728   030223   029910               140315051 1137    130307751 1157    120295161 1187    110311851 1157    100297041    0    028872   030128   031227   032977   031851   033731   031965   028387   032849   033660   031448   030987                                      
140003700310015 08140 4110201Ech.chemin vert     0080857Echangeur du Bessin 0110520Chemin vert         0090398002212000000500100890100000000000700      059983  677    056767   058055   061038   063742   061477   061640   062437   053353   059257   062736   059800   059455               140602991    7    130587811    7    120585261    7    110593111    7    100578451    7    055841   058582   057748   063402   058785   063470   062268   057332   063857   063996   060026   058425                                      
140108404310015 00840 1110241Echang. Villers Boca2450000Echang Mondrainville2550310VILLY-BOCAGE        2460502010310010310270000200100000000000794      036592 1067    029143   031850   033298   038851   039879   038203   040972   043272   037888   037652   033397   034296               140366711 1217    130365761 1347    120362851 1357    110368961 1367    100359731 1347    030656   032367   033896   040008   038745   039232   041714   043124   037417   037352   032884   032337                                      
760510010310015 03380 4140201petit quevilly      0050850petit quevilly      0070940petit quevilly      0061000002940002940800500100176000000010600      079337  65     074665   078145   079031   082376   076402   083654                     081486   080988   078206   079798               140794961    7    130779621    7    120755321    0    110000001    0    100383511    7    075805   079160   080793   082172   080467   083081   079215   074386   081207   081837   079054   076981                                      
280001400310015 00100 4113001Chateaudun sud      0700237lim 41              0820270Chateaudun sud      0700880012000012000280001600141000010030213      010798 196     009609   010144   010355   011436   011288   011382   011340   010905   011339   010932   010419   010412               140108181 1977    130000001         120000001    0    110000001    0    100000001    0    010033   010303   010636   011397   011022   010939   011405   010734   011365   011230   010472   010264                                      
270110001310015 10130 4810201N13                 0200000N154                0210130vielle evreux       0210000001130001130270110000300000000000212      019740                                                                                                                                 140197768         130195268         120166658         110000008    0    100000008    0                                                                                                                                                   
270110000310015 10130 4110201Av Foch             0300000RD 613              0320268Parville            0310260002065002065270110000100000000000212      017132  687    015819   016608   016957   018199   017020   018743   017102   015864   017791   017762   016949   016826               140171371    7    130168801         120000001    7    110175271    7    100000001    0    015951   016630   016977   017846   017253   018487   017160   015762   018217   017959   016872   016566                                      
140003500310015 08140 4110201Ech.Pierre Heuzé    0040763Ech.vallée des jardi0070255Caen                0070093002421000000500100890100000000000193      058585  687    054291   055825   058658   061338   059470   063237   058575   057542   060452   060314   056819   056474               140584991    7    130575531    7    120575521    7    110582171    7    100570481    7    054662   057277   056921   061888   058363   061499   060616   056821   061040   060954   056456   055599                                      
270000100310015 00120 4813001EURE ET LOIRE       0000000INTERSECTION N 154  0030600NONANCOURT          0000680003606003606270000200300000000000188      020330                                                                                                                                 140202948         130208958    0    120210448    0    110000008    0    100000008    0                                                                                                                                                   
270000101310015 00120 4813001                    0030600                    0030640giratoire anglais   0030600000640000640270000200300000000000188      020330                                                                                                                                 140202948         130208958         120210448         110000008         100000008    0                                                                                                                                                   
270000102310015 00120 4813001                    0030640                    0060458st Lubin Joncherets 0050680002818002818270000200300000000000188      020330                                                                                                                                 140202948         130208958         120210448         110000008         100000008    0                                                                                                                                                   
270000200310015 00120 4110201INTERSECTION N 154  0090000ENTREE VERNEUIL     0230040COURTEILLE BASLINE  0190200014040014040270000200100000000001299      012714    7    009917   011332   011053   013199   013628   013606   014319   013679   013146   013847   012195   012557               140126861    7    130130601    0    120131551    0    110000001    0    100000001    0    010992   011822   012249   013419   012780   013818   013666   013650   013045   012993   012063   011708                                      
270000300310015 00120 4813001ENTREE VERNEUIL     0230040SECTIONNEMENT RN 26 0250650VERNEUIL S/AVRE     0240000003400002605270000200300000000000188      012714                                                                                                                                 140126868         130130608    0    120131558    0    110000008    0    100000008    0                                                                                                                                                   
140001600310015 01580 4110201ROCQUANCOURT        0290766IFS                 0380416TILLY LA CAMPAGNE   0340573008650008650500100890100000000000196      029937  868    027002   028157   029726   030557   029687   032711   029382   028724   031553   031369   030180   030193               140298651    7    130296851    8    120294811    8    110297711    8    100285351    8    027837   028934   029044   031202   029559   031453   030343   029036   031746   031143   029173   028957                                      
140004000310015 08140 4110201ECHAN.D'ETERVILLE   0160252Ech. Suisse Normande0200000FLEURY SUR ORNE     0190366003668000000500100890100000000000997      056068  757    047376   051295   053480   057810   058006   059310   060798   058241   059050   058302   054162   054719               140559311    7    130550641 1137    120551471 1147    110547711 1177    100538751 1157    050173   052593   053109   059556   057044   059781   059209   058233   058101   057580   053022   052670                                      
500002300310015 01750 4810201RD 973              0410885ECH.CROMEL          0470235LE VAL ST PERE      0450174005585005585500002400300000000000201      035507                                                                                                                                 140354048         130348988         120350538         110356158         100349898                                                                                                                                                        
500002400310015 01750 4110201ECH. CROMEL         0470235A 84                0490130ST-QUENTIN          0480330001940001940500002800100000000001187      038321 1097    029165   032625   034416   041405   042977   041061   047095   051567   040537   036212   028757   033434               140382061 1187    130376641 1007    120378271 1267    110384391 1297    100377541 1387    030363   030934   034231   039102   039968   041271   047125   050673   040003   037793   033192   033138                                      
140004100310015 08140 4110201Ech.Suisse Normande 0200000Ech. IFS bourg      0220491IFS Bourg           0210909002506000000500100890100000000000193      057915 1087    048726   053434   055332   059694   059688   061121   063059   060015   060434   059702   055676   057838               140577191 1067    130585331 1077    120589721 1087    110588211 1147    100572561 1137    053754   055812   054848   059701   056944   060020   061216   060382   059199   058667   056270   055768                                      
610000501310015 00120 4113001ENTREE DEVIATION    0610620R.N. 138            0630300VALFRAMBERT         0620100001680001680610000600100000000000294      010153 250     008544   009380   009817   010752   010424   010750   011142   010425   010719                     009559               140101181 2297    130102751         120102691    7    110099731 1837    100101781         008744   009352   009523   010094   010669   010795   010419   010433   011732   010698   009527   009416                                      
140000601310015 00130 4110201CARPIQUET           0690000BROUAY              0790212CARPIQUET           0700478009582009582500100890100000000000193      055656  707    050558   052420   055658   058495   056952   060321   054294   055159   058865   058354   054960   051852               140553951    7    130537381    7    120544241    7    110553111    7    100534541    7    050861   053076   052575   057538   054775   058932   057872   054140   058267   057997   054399   054320                                      
280001901310015 00120 4810251                    0280000Limite DEPT 27      0310400DAMPIERRE SUR AVRE  0290000003400003400280001800327000020030188      013810                                                                                                                                 140137388         130134578         120135248         110136298         100136978                                                                                                                                                        
280001800310015 00120 4110201RD 912 "Les Fenots" 0190637Limite DEPT 27      0271017Saint Rémy          0230700008300006221280001800127000010030188      028083 193     024495   026687   027058   029635   028781   029766   030419   028400   028606   028977   026786   027323               140279351 1907    130273611 1937    120274951 1947    110277041 1927    100278421    0    024446   025741   026772   028721   027870   030049   029975   029131   029124   029330   026906   027040                                      
280003500310015 01230 4113001RN154               0030000RN10                0070840MORANCEZ            0060400004840004840280003900100000000000188      036248 120     033130   034900   035719   037261   035298   038077   036114   033905   038272   038433   036042   037843               140360161 1537    130365721 1247    120369411 1277    110369451 1277    100362001    0    034749   035601   036225   037274   034712   036987   036174   035420   038444   037589   034625   034461                                      
140003200310015 08140 4110201Enchageur Montalivet0020000Ech.porte/Angleterre0030757Calix               0030332001750000000500100890100000000000190      082390  637    075128   078320   082470   084551   081587   088694   083356   077107   089273   085013   080983   082254               140818151    7    130801581    7    120800981    7    110808891    7    100799611    7    077206   079961   079138   085297   080606   084341   085995   080867   085454   085147   078781   079023                                      
280000700310015 00100 4817001RD12                0410767RD28/1              0530602MONTBOISSIER        0510700011865009997280000600300000000000188      012450                                                                                                                                 140123608         130121018    0    120121058    0    110123958    0    100121098    0                                                                                                                                                   
280000500310015 00100 4817001                    0340000Bretelle A11        0340855Mignières           0340083000855000855280000600300000000000188      011341                                                                                                                                 140112598         130110238         120110288         110112938         100110328    0                                                                                                                                                   
280000600310015 00100 4117001Bretelle A11        0340855RD12                0410767LA BOURDINIERE      0390000006958005499280000600100000000000188      013329 192     011698   012539   012887   014091   013909   014533   013875   012733   013816   013709   012950   013207               140132321 1897    130129541 1447    120129571 1787    110132671 1798    100129601 1738    011933   012485   012997   013895   013313   014093   013775   012635   013981   013897   013053   012716                                      
410000401310015 00100 4813001RD 957              0260298                    0370000Le Petit Plessis    0350000010702010702410000500300000000000295      008612                                                                                                                                 140085498         130086508         120086188         110087048         100083578    0                                                                                                                                                   
410000402310015 00100 4813001                    0370000                    0400035L'Etincelle         0380850003035003035410000500300000000000295      008612                                                                                                                                 140085498         130086508         120086188         110087048         100083578    0                                                                                                                                                   
410000500310015 00100 4113001                    0400035Dpt 37              0451074FAUCHERIE           0420850006039006039500000500100000000000295      008612 258     007353   007605   008163   008805   009125   009164   009547   009204   008916   008873   008262   008248               140085491 2647    130086501 2767    120086181 2857    110087041 2807    100083571    0    007529   007996   008325   009155   008665   008931   009181   009159   008827   008696   008085   008010                                      
280004400310015 01540 4813001RD 26 P.S.          0660359Echangeur Sud       0810600BOULLAY-MIVOIE      0790000015817015375280004300300000000000188      016901                                                                                                                                 140167718         130165038         120164298         110166938         100164228                                                                                                                                                        
280004300310015 01540 4110101RN1154              0560000RD 26 - P.S         0660359Le Péage            0660350010330009799280004300100000000000202      016987 188     014924   015915   016536   017392   017152   018400   017913   017208   017934   017481   016514   016443               140168561 1857    130165861 1857    120165111 1837    110167601 1738    100165011 1478    015008   015613   016358   017445   016761   018463   018177   017243   017886   017559   015949   015770                                      
270000700310015 00130 4810201DEVIATION PACY/EURE 0060600BRETELLE ST ANDRE   0090100ST AQUILIN DE PACY  0070000002500002500270000900300000000000188      015993                                                                                                                                 140158178         130157208         120157578         110180648         100177938                                                                                                                                                        
270000600310015 00130 4810201DEVIATION PACY/EURE 0050000                    0060600DEVIATION PACY/EURE 0060000001600001600270000900300000000000188      016195                                                                                                                                 140160138         130159188         120159548         110162718         100160278                                                                                                                                                        
270000900310015 00130 4115001BRETELLE ST ANDRE   0090100ENTREE BA 105       0180780MISEREY             0170580009396009396270000900100000000000188      020332  807    018786   019970   020155   021538   020285   022055   020158   017798   021236   021398   020260   020440               140201011    7    130199811         120200251    8    110204211    8    100201141    8    019086   019697   020025   020845   020368            020138   017704   021518   021548   020281   019943                                      
270001000310015 00130 4810201ENTREE BA 105       0180780RN 154              0200413FAUVILLE            0200700002215002215270000900300000000000188      024089                                                                                                                                 140238158         130236758         120237288         110241998         100238398                                                                                                                                                        
270000500310015 00130 4815001YVELINES            0000000DEVIATION PACY/EURE 0050000AIGLEVILLE          0040400004998004998270000900300000000000188      013188                                                                                                                                 140130368         130129618         120129908         110144788         100142618                                                                                                                                                        
280004500310015 01540 4812001Echangeur Sud       0810600Echangeur Est       0860298ROCADE DE DREUX     0830400004931003215280004600300000000000188      024278                                                                                                                                 140239928         130236148    0    120236748    0    110240178    0    100237878    0                                                                                                                                                   
280004600310015 11540 4113001PR 56.000 de RN154  0000000Giratoire RD 905    0030485LEVES               0010200003457003457410000300100000000000188      017300 214     015181   016125   016779   018471   017135   018130   017646   017663   018616   017932   016989   016916               140170961 2167    130168241 2117    120168481 2137    110171091 2127    100169501    0    015207   015920   016751   017833   017059   018696   018285   017026   018183   017829   016299   016034                                      
410000100310015 00100 4113001Dpt 28              0000000RN 157              0100266ST HILAIRE          0050000010367010367410000300100000000000394      008325 325     007018   007565   007897   008752   008820   008864   009299   008988   008650   008298   007863   007844               140082241 3217    130083151 3367    120083731 3427    110085001 3367    100081731         007272   007684   007956   008807   008290   008118   008944   009010   008617   008491   007770   007693                                      
280450500310015 02540 4113001A 10                0000000RN 154              0010590ALLAINES            0010550001590001590410000300100000000000100      008648 173     006922   007772   007854   008748   008890   009225   010257   010196   009110   008901   007848   007986               140085421 1707    130087061 2167    120086571 2197    110087211 1948    100000001    0    006888   007360   008066   008692   008473   009315   009893   010213   009003   008858   007790   007860                                      
140003600310015 08140 4110201Ech.vallée des jardi0070255Ech.chemin vert     0080857Mémorial            0080247001594000000500100890100000000000700      063326  657    058360   059857   063324   065856   063710   068266   062744   061882   066499   065520   062108   061754               140625021    7    130595671    7    120611541    7    110603621    7    100611191    7    058575   061253   060388   065764   061727   066248   065187   057830   066532   065739   060956   060016                                      
140003900310015 08140 4110201ECHA. BRETAGNE      0140530ECHAN. D'ETERVILLE  0160252ETERVILLE           0150298001678000000500100890100000000000997      056655 1087    048116   051746   054301   058810   059127   060585   061811   059505   060020   059180   054885   051544               140559051 1097    130546511 1127    120547631 1157    110548051 1167    100533341 1147    049499   051981   052261   058464   056082   059353   060299   058553   058847   058152   053523   053683                                      
500004450310015 01760 4814001RN 175              0460000ILLE ET  VILAINE    0481257PONTORSON-Temp      0460237003420003420500002800300000000000998      011024                                                                                                                                 140108548         130107908         120107498         110110148         100109048                                                                                                                                                        
500002401310015 01750 4810201A 84                0490130                    0530360Pontaubault         0500990004230004230500002800300000000001187      014627                                                                                                                                 140144008         130143178         120142608         110146118         100144668    0                                                                                                                                                   
500002402310015 01750 4810201                    0530360                    0540000Précey              0530990000400000400500002800300000000001187      014627                                                                                                                                 140144008         130143178         120142608         110146118         100144668    0                                                                                                                                                   
500002800310015 01750 4110201                    0540000RN 176              0620500PONTORSON           0570990008500008500500002800100000000001187      014627 1067    010026   011716   012426   015725   017030   015143   019209   020956   014904   013796   011746   012536               140144001 1247    130143171 1397    120142601 1407    110146111 1417    100144661 1417    010322   011026   012540   015916   016088   014975   018440   020519   014801   013395   012601   011870                                      
500002200310015 01750 4110201A 84                0390000RD 973              0410885PONTS-SOUS-AVRANCHES0390900003125003125500002400100000000000103      026532 1627    018951   021801   022737   028907   030704   028067   033431   036832   023252   026703   022319   024116               140261101 1657    130281691    0    120282971    0    110287471    0    100282471    0    018892   020296   022100   027861   027390   028801   033288   035956   026969   026022   022404   022831                                      
280004503310015 00100 4113001CHATEAUDUN nord     0651000CHATEAUDUN sud      0700237Jallans             0680350006000006000410000300100000000000188      007853 312     006869   007542   007601   008272   008190   008430   008481   007644   008102   008034   007544   007532               140077281 3127    130075831 3117    120075461 3207    110076351    3    100110211    0    006563   006999   007465   008051   007702   008126   008247   008086   008170   008562   007466   007266                                      
140108400310015 00840 1110241Ech Mondrainville   2550310Ech 44              2590655Mondrainville       2560500004345004345270000200100000000000711      042102 1137    034268   037258   038795   044602   045447   044318   045328   048312   043801   043318   038989   040426               140414231 1147    130404221 1147    120400901 1167    110407301 1167    100397141 1147    034711   036533   037718   044009   041890   044020   047041   047411   043311   042843   038525   038734                                      
370000100310015 00100 4113001DEPT L. ET CHER     0000000CARREF. N10/D766    0030000NEUVILLE            0020290012174012174410000300141000050030398      008999 245     007669   008292   008417   009363   009444   009526   009939   009550   009371   009226   008584   008567               140088491 2447    130090051 2587    120089651 2647    110090831 2348    100087201 2228    007753   007994   008645   009503   008972   009225   009546   009494   009193   009060   008412   008344                                      
140003300310015 08140 4110201Ech.porte/Angleterre0030757Ech.Pierre Heuzé    0040763Pierre-Heuzé        0040293000999000000500100890100000000000188      084368  577    076060   079253   083354   085916   082870   096521   094967   080202   086947   085273   080948   080025               140829241    7    130814271    7    120810731    7    110820311    7    100797901 1207    078154   081517   080550   085513   081857   085984   085977   079833   086833   085431   084168   079486                                      
760003600310015 00270 4810201                    0190000                    0190042Varneville-Brettevil0190000000042000042760003700300000000000192      015933                                                                                                                                 140156228         130150818         120150428         110154258         100132968    0                                                                                                                                                   
760003601310015 00270 4810201rd2                 0190042totes nord          0240254totes sud           0210000005196005196760003700300000000000192      015674                                                                                                                                 140153688         130148368         120147978         110151748         100148538                                                                                                                                                        
760003803310015 00270 4815001rd 54 st aubin      0440570RD 915              0470479st aubin s scie nord0460000002909002000760003700300000000000102      012511                                                                                                                                 140122668         130118428         120118118         110121128         100118568                                                                                                                                                        
760003801310015 00270 4810201ech d149 belmesnil  0340200ech d108 auppegard  0390343manehouville        0380600005143005143760003700300000000000102      014945                                                                                                                                 140146518         130141468         120141088         110144698         100141628                                                                                                                                                        
760003802310015 00270 4815001ech d108            0390343d54 st aubin s scie 0440570st aubin s scie sud 0410000005227004000760003700300000000000102      013737                                                                                                                                 140134668         130130038         120129678         110132998         100130168                                                                                                                                                        
760003900310015 00270 4840201CD 915              0470479DIEPPE              0490200ST AUBIN SUR SCIE   0470800001721000000760003700300000000000288      030833                                                                                                                                 140302248         130291838         120291028         110298468         100292118                                                                                                                                                        
760003800310015 00270 4810201ech d353            0270300ech d149 belmesnil  0340200belmesnil           0330200006900006900760003700300000000000102      013816                                                                                                                                 140135438         130130778         120130418         110133758         100130918                                                                                                                                                        
760003700310015 00270 4110201TOTES               0240254ech rd353           0270300TOTES               0250500003046003046760003700100000000000288      016744    7    014436   015470   016290   017587   016771   018613   017726   017269   017553   017062   016709   015432               140164131    7    130158471    7    120158031    7    110162061    7    100158611    7    014774   015407   016330   016524   016459   017751   017232   016191   017650   016721   016552   015365                                      
410000300310015 00100 4113001RN 157              0100266Agglo de VENDOME    0230535NIOCHE              0200000013452009671410000300100000000000295      012596 192     011682   012405   012296   012890   012336   013119   013499   012214   012750   012805   012293   012866               140123261 1917    130126591 2017    120127601 2037    110135051 1648    100000001         011871   012404   011961   012566   012352   012239   012757   012195   012631   012496   012195   012259                                      
410000399310015 00100 4853001Agglo de VENDOME    0230535Agglo de VEN957     0240670VENDOME             0230500001159000000410000300300000000000188      012596                                                                                                                                 140123268         130126598         120127608         110135058         100000008                                                                                                                                                        
410000400310015 00100 4813001VENDOME (lim.Agglo) 0240670Echangeur957957     0260298LA CHAPPE           0250000001989001989410000300300000000000889      012596                                                                                                                                 140123268         130126598         120127608         110135058         100000008                                                                                                                                                        
500001070310015 00130 4113001ROND POINT AUCHAN   0520390RN 132              0570399LA GLACERIE         0540250004554004554500001070100000000000392      017052  587    015868   016028   016648   017177   016715   017775   017151   016823   017640   017968   017308   017478               140166411    7    130161961    7    120166431    7    110164081    7    100158721    7    015672   015716   015737   016700   016267   017288   016845   015887   016990   017413   016993   018141                                      
500001071310015 00130 4813001                    0570399                    0580000RP de Penesme       0570400000601000601500001070300000000000392      017052                                                                                                                                 140166418         130161968         120166438         110164088         100158728    0                                                                                                                                                   
500000600310015 00130 4810201RD15                0201060RD 902 DEV. VALOGNES0380644FREVILLE            0260046018000018000500000500300000000000202      017079                                                                                                                                 140166668         130158328         120158428         110161708         100156258                                                                                                                                                        
500000500310015 00130 4110201RD 913              0110000RD 15               0201060ST COME DU MONT     0120100009442009442500000500100000000001187      019281  94     015670   016845   017854   019512   020378   021375   021312   022150   020483   019971   018338   017328               140188141    7    130178721    8    120178821    8    110182511    8    100176351    8    015600   016564   017139   019602   018958   022361   020838   020829   019823   019274   017504   017186                                      
140108401310015 00840 1117041Dép. de la Manche   2220000Rond point Coulvain 2370923CAHAGNES            2320557015923015923270000200100000000000198      028620 1557    020758   023742   024797   030698   032088   029680   034767   037552   029197   029032   024512   026141               140279251 1477    130271631 1327    120268831 1377    110275451 1497    100269471 1567    021038   022505   024248   029894   028949   030359   034525   036742   029024   028157   024442   024762                                      
270004701310015 01540 4110201Nonancourt          0000000D833                0130247Petite vallée       0100750013247013247270005100100000000000101      013986 2667    011629   012837   013203   014472   014229   015128   016027   015414   014447   014263   013017   013086               140136071 2627    130000001         120131681 1568    110000001         100000001    0    011699   012355   012757   014119   013242   015030   015433   015295   014236   013982   012621   012447                                      
500001450310015 01740 4110201                    0210827                    0230130Saint Lô            0220500001303001303500001520100000000001205      026208  697    024050   024462   025733   026655   026075   027871   026858   025975   027140   027145   025667   026774               140254961    7    130252121    7    120249611    7    110249861    7    100242151    7    023968   024749   024478   026751   025024   026129   025968   025140   027192   026621   024897   025059                                      
140001500310015 01580 4110201LIMITE DE L'ORNE    0080000ST AIGNAN-CRAMESNIL 0290766POTIGNY             0170181030879030879500100890100000000000194      019283  997    016742   017651   018668   019742   019530   020928   020088   019966   020200   019914   018914   018982               140187591 1197    130181931 1197    120180681 1207    110180861 1207    100173231 1237    016692   017524   017798   019332   018681   020212   020040   019116   020373   019792   018288   017242                                      
280010000310015 11540 4113001                    0030485                    0070775Mainvilliers        0050950004290004290410000300100000000000188      019843 186     018010   017612   018775   021489   020201   021533   021303   019365   020819   020359   019420   019138               140192871 2177    130190931 2227    120191301 2227    110195001 222     100169501    0    017105   017963   018961   020345   019449   020944   020481   019461   019940   020090   018551   018113                                      
140108402310015 00840 1117041Rond point Coulvain 2370923Echangeur RD 6      2420236MAISONCELLE         2400628004313004313270000200100000000000196      034486 1388    026067   029255   030668   036753   038218   035893   040198   042914   035524   035316   030548   031999               140335071 1487    130326491 1358    120324591 1378    110330461 1118    100324531    0    026354   028032   029851   035854   034697   034661   040208   041981   035170   034236   030193   030374                                      
500001400310015 01740 4110201A 84                0000000RD 974              0180000CONDE SUR VIRE      0150345018000018000500001400100000000001205      021769  807    019931   020580   021545   022263   021886   023209   022210   021368   023059   022704   021549   020894               140211331    7    130206351    7    120201161    7    110204021    7    100198711    7    019095   020520   020114   022072   020433   022971   021824   020514   022751   022249   020492   020623                                      
500001401310015 01740 4810201                    0180000                    0210827Cantepie            0190000003827003827500001400300000000001205      021769                                                                                                                                 140211338         130206358         120201168         110204028         100198718    0                                                                                                                                                   
140000700310015 00130 4110201BROUAY              0790212BAYEUX              0870887CARCAGNY            0850196008722008722500100890100000000000293      028011  837    023524   024681   026919   029245   028236   029430   030531   029808   029010   029181   027489   027858               140271511    7    130258491    7    120267301    7    110274631    7    100268251         023337   023797   024984   028382   027750   030650   030339   029298   028142   027146   026254   025568                                      
500100700310015 00840 1110241ECH.38              1930650ECH.39              2070650BESLON              1970400016645016645500100890100000000001103      026352 1507    018077   020941   022029   028237   030168   027354   033503   037058   026771   026365   021803   023363               140255081 1517    130247741 1527    120246161 1567    110251211 1577    100243851 1567    018052   019487   021469   027327   026801   028246   033059   035845   026473   025157   021693   021966                                      
500001000310015 00130 4110201RD 902 DEV. VALOG   0380644ROND POINT AUCHAN   0520390SAINT-JOSEPH        0430352014209014209500001070100000000001187      020855  687    021939   021711   021537   013913   013779   016953            027475   025772   022899   021427   021884               140201781    7    130221581 1018    120220611 1098    110224471    8    100221111    7    013592   012892   012682   013984   013210   027163   027142   024655   025832   025351   022594   022616                                      
140000800310015 00130 4110201BAYEUX              0870887CUSSY               0980183GUERON              0920593010439010439500100890100000000000206      019956  977    015988   016736   018425   020645   021029   021523   022298   022783   020973   020555   018659   019615               140192921    7    130183021    7    120184921    7    110190131 1027    100185981 1027    016034   017017   017491   020020   019595   021871   021913   021417   020407   019931   017952   017743                                      
500100500310015 00840 1110241RN 175              1720000ECH.37              1890802STE PIENCE          1810840017802017802500100890100000000001103      026114 1298    018002   020817   021746   027854   029608   027417   032752   038036   026309   025879   021383   023013               140251701 1567    130243921 1258    120242071 1108    110248551 1188    100238861 1358    017955   019181   021113   026725   026410   027976   032911   035264   025911   024947   021369   021737                                      
500100300310015 00840 1110241PI RN 176           1620225ECH RN 175          1630435POILLEY             1630200001212001212500100890100000000001100      024743 1068    019190   021135   021872   025611   025850   025903   027891   030411   025435   024195   018486   030469               140237801 1517    130231371 1168    120230061 1198    110234161 1208    100227621 1188    018962   020114   021355   024441   024210   026102   028379   029343   025222   023713   021461   021771                                      
500100200310015 00840 1110241PS 30 ST JAME       1510495PI RN 176           1620225ST AUBIN            1580800010762010762500100890100000000001100      020356 1258    015276   017230   017712   021321   021712   021309   023858   026411   021189   020550   018008   019405               140194851 1687    130191141 1348    120190311 1378    110194241 1338    100187561 1348    015168   016109   017433   020196   020246   020329   023062   025272   020874   019573   017540   017720                                      
370106350310015 00100 4113001                    0030000                    0111245AUTRECHE            0090770002295002295410000300100000000000402      005980 309     005083   005508   005654   006218   005984   006347   006140   005797   006147   006808   006417   005647               140057111 3087    130058211 3347    120059361 3447    110060231 3417    100056451    0    005232   005573   005757   006091   005692   005801   006099   005503   006015   005972   005448   005358                                      
500100100310015 00840 1110241ILLE ET VILAINE     1470000ECH.32              1510495St JAMES            1480900004495004495500100890100000000001103      020088 1627    014960   016906   017413   021077   021556   021074   024083   026571   020885   020235   017528   018459               140191131 1607    130187691 1587    120187111 1627    110189211 1647    100181511 1627    014755   015757   017042   019728   019953   020356   023444   024345   019845   019360   017080   017385                                      
270006000310015 00310 4814001limite 76/27        0000000limite 27/76        0020843Vascoeuil           0010000002843002843760006700376000660030109      005550                                                                                                                                 140052698         130051918         120054758         110057418         100055758    0                                                                                                                                                   
760006600310015 00310 4813001                    0140600                    0181293Martainville        0150000004693004693760006700300000000000288      005550                                                                                                                                 140052698         130051918         120054758         110057418         100055758    0                                                                                                                                                   
760007000310015 00310 4843001GOURNAY EN BRAY     0480500GOURNAY EN BRAY     0490075GOURNAY Est         0480800000575000000760006700300000000000288      010135                                                                                                                                 140096218         130094778         120099928         110104768         100101728    0                                                                                                                                                   
600004101310015 00310 4813001SEINE MARITIME      0000000Les landerons       0110000SAINT GERMER DE FLY 0020000011054011054760006700300000000000895      007618                                                                                                                                 140072318         130071238         120075138         110078768         100076488                                                                                                                                                        
600004102310015 00310 4813001                    0110000                    0161003Ons-en-Bray         0120000006003006003760006700300000000000895      007618                                                                                                                                 140072318         130071238         120075138         110078768         100076488    0                                                                                                                                                   
760006601310015 00310 4813001CD13 /CD 85         0220000CD 921              0320100LA HAYE             0270400017500017500760006700300000000000288      004879                                                                                                                                 140046318         130045628         120048148         110050478         100049018                                                                                                                                                        
760006900310015 00310 4843001GOURNAY EN BRAY     0470600GOURNAY EN BRAY     0480500GOURNAY Ouest       0480000000900000000760006700300000000000288      010405                                                                                                                                 140098768         130097288         120102598         110107568         100104448    0                                                                                                                                                   
760007100310015 00310 4843001GOURNAY EN BRAY     0490075FERRIERES EN BRAY   0510852FERRIERES EN BRAY   0500000002777000000760006700300000000000288      011692                                                                                                                                 140110978         130109328         120115298         110120878         100117368                                                                                                                                                        
760006400310015 00310 4813001RD 43 St Jacques    0060520RD 7                0090938ST JACQUES          0080750003418003418760006700300000000000288      012451                                                                                                                                 140118178         130116418    0    120122808    0    110128728    0    100124988    0                                                                                                                                                   
760006800310015 00310 4843001GOURNAY EN BRAY     0460714GOURNAY EN BRAY     0470600St Aubin            0470000000986000000760006700300000000000288      012823                                                                                                                                 140121708         130119888         120126458         110132568         100128718    0                                                                                                                                                   
760006101310015 00310 4840201DARNETAL            0010780DARNETAL            0020050DARNETAL OUEST      0010800000270000270760006700300000000000288      032723                                                                                                                                 140310568         130305928         120322668         110338238         100328408    0                                                                                                                                                   
760006200310015 00310 4840201DARNETAL            0020050DARNETAL            0020300Darnetal centre     0020100000250000250760006700300000000000227      032723                                                                                                                                 140310568         130305928         120322668         110338238         100328408                                                                                                                                                        
760006700310015 00310 4113001CD 921              0320100GOURNAY EN BRAY     0460714Gournay             0450500014614014614760006700100000000000288      005553 1437    004838   005311   005438   005926   005820            005865   005773   005771   005765   005285   005272               140052701 1317    130051911 1327    120054751    8    110057391 1627    100055721    8    004710   004937   005151   005467   005352   005514   005582                     005497   005353   005129                                      
500001451310015 01740 4810201St-LO               0230130RD 446              0280395Hébécrevon          0260896005326005326500001520300000000000202      008773                                                                                                                                 140082978         130079438         120074238         110074188    0    100070828    0                                                                                                                                                   
500001452310015 01740 4810201RD 446              0280395                    0280695La Picardière       0280500000300000300500001520300000000000288      008773                                                                                                                                 140082978         130079438         120074238         110074188    0    100070828    0                                                                                                                                                   
500001520310015 01740 4110201Dev ST LO           0280695RN 13               0460870St Jean             0400700015870015870500002400100000000000288      008773 1227    007348   007880   008274   008753   008774   009487   009373   009544   009388   009060   008577                        140082971 1147    130079431 1117    120074231 1087    110074181 1077    100070821 1127    007151   007644   007715   008669   008271   009671   008962   008544   009018   008680   007691   007553                                      
500100600310015 00840 1110241ECH.37              1890802ECH.38              1930650FLEURY              1910200003850003850500100890100000000001100      027091 1607    018860   021890   022646   029067   030770   028175   034121   037662   027427   027256   022560   024109               140256161 1627    130254491 1637    120252721 1667    110257551 1677    100250421 1657    018877   020223   022261   027907   027531   027853   033828   036164   027197   019892   022476   022765                                      
760006100310015 00310 4140201DARNETAL            0000000DARNETAL            0010780Route de Lyons      0010000001780001780760006700100000000000288      032276  567    030902   032290   032448   033856   030977   034958   031506   027448   034198   033523   032693   032720               140304101    7    130306401    0    120323161    0    110338761    0    100328921    0    029976   030033   030128   030638   029777   030949   028388   024854   032911   033482   032498   031423                                      
760006300310015 00310 4143001DARNETAL            0020300RD43 St Jacques     0060520Darnétal            0030050004220004220760006700100000000000288      013520  867    012591   013366   013430   014221   013131   014602   013217   011958   014218   014195   013700   013686               140126881    7    130119391 8727    120130281    0    110136581    0    100136431    0    011972   012093   012313   012675   012440   013262   012377   010980   013994   013937   013364   012865                                      
760501700310015 00280 1110241ECH RD919           0830650ECH FIN A28         0970387Quincampoix         0900000013737013737800500100100000000000193      026787 1637    023272   024816   025486   028305   024721   026437   030000   029042   028664   027811   026358   026423               140235121 1147    130213171    7    120259591 1297    110272211 1397    100268331 1767    019563   020518   021282   022869   022442   023777   022839   024069   027165   026971   025400   025121                                      
760500023310015 00280 4110201ech 443             0040950ech 2828            0060500Le Chapitre         0050000001063001063760500500100000000000102      044493  947    040044   041377   042922   046714   043423   048555   046279   042979   047222   045881   044236   044256               140380371    7    130315391    0    120419511    0    110456191    0    100448781    0             033244   033557   034600   034160   036204                     044285   044883   042465   041872                                      
760500024310015 00280 4110201ech 2828            0060500fin d928 a28        0070848Bois Guillaume      0060680001348001348760500500100000000000102      034966 1257    030723   032666   033330   036607   034962   037777   037570   035595   036691   035867   033924   033816               140290811    7    130270421    7    120319811    0    110347871    0    100341701    0    025972   026417   026856   028220   027938   028539   024211   027945   034051   034289   032620   031883                                      
760500039310015 00280 4140201ROUEN               0000000                    0011016Rouen St Hilaire    0010350002016002016760500500100000000000693      073677  667    068959   070999   072419   077346   070272   080277   074280   067874   077877   076405   074124   073519               140601171    7    130496051    0    120384301    0    110418021    0    100411361    0    056151   056098   056138   054084   055716   056522   049180   050426   072065   074190   071531   069357                                      
760500001310015 00280 4140201ROUEN DARNETAL      0020000                    0040950Tunnel              0030900003437003437760500500100000000000693      040691  927    036251   039167   039058   042412   039573   044144   042285   039787   043078   041907   040431   040287               140326231    7    130288801    7    120384301    7    110418021 1047    100000001    0    028532   029332   029463   029826   029731   031626   027659   028565   039578   040532   038611   037999                                      
760500021310015 00280 4140201                    0011016ech d443bg          0020000TCAR                0010950000184000184760500500100000000000693      047028  847    042373   044804   045308   049069   046032   051164   048592   045489   049708   048191   047082   046608               140357251    7    130319831    7    120384301    0    110418021    0    100411361    0    031833   032447   032743   029535   032894   032454   026542   031196   044889   046283   044355   043483                                      
140004300310015 08140 4110201Echengeur IFS bourg 0220491Ech. de CORMELLES   0240719Porte d'Espagn      0230589002227000000500100890100000000000997      070727  947    060379   066895   068683   073003   072234   075609   076693   071583   072782   073243   068288   069175               140000001         130580021 1197    120587181 1197    110595891 1227    100585891 1127                                                                                                                                                   
760501500310015 00280 1110241ECH LES HAYONS      0650450ECH PUCHEUIL        0750000Maucomble           0670000009550009550760501500100000000000193      029127 250                                                                                                                             140000001         130000001         120000001         110000001         100000001                                                                                                                                                        
280000900310015 00100 4813001RD110               0590937CHATEAUDUN(lim.aggl)0651000MARBOUE             0650000006000006000280000800300000000000188      014906                                                                                                                                 140000008         130147458    0    120148478    0    110151568    0    100149628    0                                                                                                                                                   
280000800310015 00100 4114001RD28/1              0530602RD110               0590937BOIS-GUIBERT        0560900006239005937280000800100000000000188      011960 168     010528   011249   011430   012662   012457   012765   012545   011611   012422   012315   011673   011851               140000001         130118301 1737    120119111 1757    110121581 1528    100120011 1518                                                                                                                                                   
760006500310015 00310 4113001CD 7                0090938CD 13/ CD 85        0140600Préaux              0110000004662004662760006700100000000000288      009087  71                                                                                                                             140000001         130077191    0    120081421    0    110085351    0    100082871    0                                                                                                                                                   
140003801310015 08140 4110201Echangeur du Bessin 0110520Passage inf. RD 14  0130370Bessin 2            0120000001916000000500100890100000000000194      000000                                                                                                                                 140000001         130418511    7    120418041    7    110418481    7    100409531    7                                                                                                                                                   
140003803310015 08140 4110201Passage inf. RD 14  0130370Ech. de Bretagne    0140530Porte de Bretagne   0140200001168000000500100890100000000000997      000000                                                                                                                                 140000001         130336791    7    120335941    7    110339031    7    100330161    7                                                                                                                                                   
270000400310015 00120 4813001INTERSECTION RN 26  0250650ORNE                0370190VERNEUIL SUR AVRE   0280000010748010536610000100300000000000188      000000                                                                                                                                 140000008         130079428    0    120079118    0    110000008    0    100000008    0                                                                                                                                                   
270004800310015 01540 4110201D833                0130247Evreux              0270769PREY                0210900014522014522270005100100000000000101      000000                                                                                                                                 140000001         130000001         120153691         110000001         100153941 1638                                                                                                                                                   
270005000310015 01540 4810201N 13                0270769APRES ECHAN GRAVIGNY0330000FAUVILLE            0300380005440005440270005100300000000000188      000000                                                                                                                                 140000008         130000008         120000008         110000008         100000008                                                                                                                                                        
270005100310015 01540 4110201ECHANG. GRAVIGNY    0330000RN 155              0460430HEUDREVILLE/EURE    0410300016903016481760006700100000000000195      000000                                                                                                                                 140000001         130000001         120000001         110000001         100000001                                                                                                                                                        
270110002310015 10130 4810201N154                0210130D6154               0240100Evreux              0220000002890002890270110000300000000000212      000000                                                                                                                                 140000008         130000008         120000008         110000008    0    100000008    0                                                                                                                                                   
280003800310015 01540 4813001VC Ex. RD 927       0140000                    0300095Ymonville           0200000016095016095280003900300000000000188      000000                                                                                                                                 140000008         130000008         120096678         110095748         100092878    0                                                                                                                                                   
280003900310015 01540 4113001RD17                0300095RN123               0470452FRAINVILLE          0350500017497016333280004300100000000000188      000000                                                                                                                                 140000001         130000001    0    120096701 2567    110095761 2348    100092881 2278                                                                                                                                                   
610000100310015 00120 4113001EURE                0000000R.D. 912            0230262VENTROUZE           0090927023262022080610000100100000000001290      000000                                                                                                                                 140000001         130079421    0    120079111 2487    110081951 2387    100077651 2237                                                                                                                                                   
610000200310015 00120 4813001DEVIATION MORTAGNE  0230262R.D. 912            0270548ST HILAIRE T        0250430004286004286610000100300000000000194      000000                                                                                                                                 140000008         130081028    0    120080718    0    110083628    0    100079248    0                                                                                                                                                   
610000300310015 00120 4113001RD 912              0270548RD 4A               0430019LECHATEL            0270800013572012518610000600100000000000100      000000                                                                                                                                 140000001         130000001    0    120075011    0    110000001    0    100000001    0                                                                                                                                                   
610000400310015 00120 4113001R.D. 4 A            0430019R.D. 112            0610620Ventes de Bourse    0480300018601018025610000600100000000000192      000000                                                                                                                                 140000001         130000001         120098251 2147    110100391 2067    100000001    0                                                                                                                                                   
760501300310015 00280 1810241NEUFCHATEL CD 928   0550000NEUFCHATEL          0600000NEUFCHATEL          0590700005000005000760501500300000000000288      000000                                                                                                                                 140000008         130000008         120000008         110000008         100241548                                                                                                                                                        
760501400310015 00280 1810241ESCLAVELLES         0600000ECHANGEUR HAYONS    0650450Esclavelles         0630000005450005450760501500300000000000193      000000                                                                                                                                 140000008         130000008         120000008         110000008         100000008    0                                                                                                                                                   
760501600310015 00280 1810241ECH PUCHEUIL        0750000                    0800000Bosc-Bérenger       0800000005000005000760501500300000000000193      000000                                                                                                                                 140000008         130000008         120000008         110000008         100000008    0                                                                                                                                                   
760501601310015 00280 1810241                    0800000ECH RD 919          0830650Rocquemont          0800000003650003650760501500300000000000193      000000                                                                                                                                 140000008         130000008         120000008         110000008         100000008    0                                                                                                                                                   
760500300310015 01500 1110241ROUMARE             0080880BARENTIN            0121143Roumare             0100700004263004263760500500100000000000288      000000                                                                                                                                 140000001         130345281    0    120332161    0    110329831    0    100339291    0                                                                                                                                                   
760111110310015 01380 4110201                    0210000                    0220703Pont Guillaume      0220243001703001703760500500100000000000288      000000                                                                                                                                 140000001         130610391    0    120471571    0    110444421    0    100443891    0                                                                                                                                                   
760008103310015 01820 4843001                    0180000                    0180596Harfleur            0180300000596000596          00000000000388      000000                                                                                                                                 140000008         130000008         120040118         110000008         100000008    0                                                                                                                                                   
800500000310015 00280 1817031RN1                 0000000ECHA RD 40          0010695GR-LAVIERS          0010000001932001932800500100300000000000796      000000                                                                                                                                 140000008         130000008         120140378         110146058         100147738                                                                                                                                                        
800500100310015 00280 1117031ECHA  RD 40         0010695ECHA  RD925         0040245ABBEVILLE           0020650002543002543800500200100000000001291      000000                                                                                                                                 140000001         130000001         120141171 2448    110146511 2707    100148301 2308                                                                                                                                                   
800500101310015 00280 1817031ECHA RD925          0040245ECHA RD928          0100360MONT CAUBERT        0070006006095006095800500200300000000000202      000000                                                                                                                                 140000008         130000008         120120498         110125238         100119528                                                                                                                                                        
800500200310015 00280 1117031ECHA RD928          0100360ECHA RD 29          0170042BEHEN               0100671006690006690          00000000000796      000000                                                                                                                                 140000001         130000001    0    120118771    0    110123451    0    100117771    0                                                                                                                                                   
800500300310015 00280 1117031ECHA RD 29          0170042SEINE/MAR           0280611BOUTTENCOURT        0270505011554011554          00000000000796      000000                                                                                                                                 140000001         130000001    0    120116121    0    110116041    0    100113391    0                                                                                                                                                   