620000100310015 00010 4810101inter CD 940 st Leon0460000limite A 16         0500800St Leonard          0480833004048004048          00000000000613      000000                                                                                                                                 140000008         130000008         120000008    0    110000008    0    100000008    0                                                                                                                                                   
020000200310015 00020 4815001villers cot. rd 231 0020874villers cot. rd 231 0080104Villers Cotterêts   0060300005305005305020000300300000000000187      015414                                                                                                                                 140000008         130148218         120147828         110000008         100000008                                                                                                                                                        
020000300310015 00020 4110201Echang 2            0040464Giratoire de Paris  0250832VAUXBUIN            0240070021445021445020000302300000000000187      017930 1577    015496   018052   016892   017723   018388   019640   019230   017714   018340   019162   017951                        140171881 1537    130172401 1527    120171941 1677    110000001    0    100000001    0    014722   015416   016988   018419   017599   018088   018029   017005   018344   018399   017086   016087                                      
020000302310015 00020 4110201Giratoire de Paris  0250832RN 31               0281144SOISSONS            0280040004212004212020000302300000000000187      022609 1607    020407   018948   019993   023116   022733   024173   022752   022005   024569   024734   023620   024070               140232321 2127    130224181 2117    120228631 2187    110230241 2197    100231611 2247    020983   021587   022496   023925   023221   024448   023177   021529   024888   025374   023748   023380                                      
020000303310015 00020 4813001RN 31               0281144Crouy               0311019Soissons            0291041003775003775020000302300000000000187      018166                                                                                                                                 140000008         130180138         120183718    0    110185018    0    100186128    0                                                                                                                                                   
020000400310015 00020 4113001Crouy               0311019carrefour Semilly   0570310LAFFAUX             0400030025497025497020000800300000000000187      008090 2027    012403   012626   013484   013727   009720   002822   006103   004850   001455   003944                                 140135221 1187    130128361 1508    120130951 1300    110000001    0    100000001    0    012346   013094   013229   013941   013808   014152                     014557   014454   013259   012985                                      
020000600310015 00020 4815001Carrefour Semilly   0570310carref. de l'escarg 0620732Ardon               0600600004943004943020000800300000000000187      000000                                                                                                                                 140000008         130000008         120000008    0    110000008    0    100000008    0                                                                                                                                                   
080000600310015 00430 4810201RD 4 Douzy          0290000A 34 Bazeilles      0300639Bazeilles           0290419001290001290          00000000000613      000000                                                                                                                                 140000008         130000008         120000008    0    110000008    0    100000008    0                                                                                                                                                   
800000600310015 00010 4810201RN 25               0280000RD 97               0320780Longpre Amiens      0300039004967004967800003301300000000000187      000000                                                                                                                                 140000008         130000008         120000008    0    110000008    0    100000008    0                                                                                                                                                   
020000700310015 00020 4813001carref. de l'escarg 0620732Chambry RD 517      0660608Chambry             0650200003537003537020000900300000000000187      009493                                                                                                                                 140000008         130093058         120094718    0    110097508    0    100000008    0                                                                                                                                                   
020000800310015 00020 4113001Chambry RD 517      0660608Marle RD 946        0850924FROIDMONT           0780245019550019550020002700300000000000187      000000                                                                                                                                 140000851         130068191 1917    120070021    0    110000001    0    100000001    0    001008   000000   000000   000000   000000   000000   000000   000000   000000   000000   000000   000000                                      
600000800310015 00020 4113001Dév Nanteuil        0110200Limite Aisne        0291114GONDREVILLE         0250300018911018911600005100300000000001287      013878 1777    013079   014471   014447   013933   014730   015219   011230   011162   015231   015100   014206                        140147061 1807    130144901 1767    120151151 1677    110000001    0    100173351 1357    013476   014058   014720   015159   015986   015746   014314   014091   015334   015056   014487   014039                                      
020000900310015 00020 4113001Marle RD 946        0850924La Capelle RN 43    1160217LES BARAQUES        0930550029796029796020002700300000000000187      005150 2377    004485   004915   005054   005148   005124   005635   005385   005192   005397   005375   005135   004948               140051241 2347    130050481 2327    120051381 2397    110052891 2447    100000001    0    004663   005004   005084   005352   005121   005395   005414   005120   005419   005371   004811   004748                                      
600000900310015 00020 4113001RN 330              0020700Dév Nanteuil        0110200NANTEUIL            0080650008884008884600005100300000000001287      026204 1427    024267   026181   026055   026276   026289   027079   026577   023908   027148   028143   026214   026372               140260001 1438    130000001         120000001         110000001         100000001                  024996   025355   026317   025635   027519   026043   023631   026912   027726   026071   025796                                      
590001100310015 00020 4813001Larouillies (Lim 02)0000000Avesnes (RD951)     0100485Etroeugt            0060500010476010476590001700300000000000187      007311                                                                                                                                 140000008         130072308         120071278    0    110070138    0    100000008    0                                                                                                                                                   
020001200310015 00020 4113001La Capelle RN 43    1160217limite du Nord      1220070LA FLAMENGRIE       1170970005900005900020002700359000100030187      004512 2937    003871   004213   004400   004602   004525   004982   004813   004553   004854   004694   004409   004228               140045081 2897    130044631 2837    120046151 2867    110048571 3007    100047641 2917    004008   004239   004537   004725   004589   004949   004778   004472   004790   004650   004302   004049                                      
080001200310015 00430 4113001Sortie Rocade       0460000RD 877 Mon Idee     0620831TOURNES             0500350017769017769080500200300000000000187      017843  927    016301   017607   017781   018313   017661   019240   018018   016222   018803   018474   017923                        140178681  957    130177291    8    120177691    7    110180191    7    100185881    7    017120   017587   017985   018588   018185   018912   017895   016021   018754   018591   017631   017208                                      
590001200310015 00020 4844001Avesnes (RD 951)    0100485Avesnes (RD 104)    0120101Avesnes Nord        0120744002371002371          00000000000187      000000                                                                                                                                 140000008         130000008         120000008    0    110000008    0    100000008    0                                                                                                                                                   
620001302310015 00170 4810101Int RN 50           0330000Int A 26            0360100Roclincourt         0350900002960002960620001400300000000000698      022866                                                                                                                                 140000008         130208338         120202818    0    110204278    0    100000008    0                                                                                                                                                   
620001400310015 00170 4113001Acces A 26          0360100A 211               0441082VIMY                0360500009635009635          00000000000187      017955  897    016887   017697   017737   017810   016601   019279   017344   016444   019696   019105   018350   018584               140172811  947    130163581    7    120159191    7    110160331    7    100000001    0    016712   017214   017455   017844   016792   018150   016459   014124   018637   018586   017750   017748                                      
510001500310015 00310 4813001Limite Marne        0000000                    0010653Fismes Ouest        0010000001653001653510001700302000270030795      012690                                                                                                                                 140000008         130127428         120129458    0    110131198    0    100128908    0                                                                                                                                                   
510001700310015 00310 4113001Rond point Fismes   0010653A 34                0250313MUIZON              0160750024164024164590001700300000000000176      018720 1207    017580   018653   019138   019472   019028   020674   018217   017842   020054   020071   019609   014457               140190481 1197    130187961 1237    120190941 1297    110193501 1337    100190111 1307    018115   018554   019140   019693   019286   020307   019020   017420   020227   018975   019029   018854                                      
590001700310015 00020 4113001Avesnes (RD 104)    0120101Echang 3            0210000ECLAIBES            0190950009899009899590503902300000000000187      013150 1247    012279   012637   012945   013498   013074   013949   012781   012533   013991   014004                                 140132671 1267    130130041 1267    120128181 1297    110126121 1247    100000001    0    012550   012879   013125   013680   013413   013987   013251   012273   013833   014161   013420   012652                                      
590001800310015 00020 4115001Maubeuge (RN 49)    0300000Frontiere Belge     0361173BETTIGNIES          0350894006704006704590503902300000000000187      008897 1137    008374   008652   008776   009023   008783   009244   008986   008464   009182   009437   008950                        140089061 1137    130086541 1137    120089831 1147    110091901 1167    100000001    0    008450   008601   008904   009106   009306   009084   009063   008494   009031   009203   008995   008626                                      
620001900310015 00250 4113001Limite Dep 80       0000000RD 265              0240280GOUY                0150400024315019380          00000000000187      006820 1757    005926   006310   006501   006945   006786   007213   007126   006791   007159   007327   006917                        140068771 1967    130069711 1967    120080901 1930    110000001    0    100069031 1937    006478   006460   006676   006815   006832   007138   006908   006674   007292   007366   007019   006850                                      
620002000310015 00250 4114001Inter RD 265        0240280Inter RN 39         0271283WAGNONLIEU          0260545004813004813          00000000000901      010158 1507    009114   009645   009847   010433   009887   010869   010487   009442   010724   010815   010023   010607               140099931 1817    130093211 1837    120092651 1777    110000001    0    100094131 1817    009459   009685   009779   010205   009940   010575   010250   009428   010424   010325   009922   009940                                      
620002001310015 00250 4113001Inter RN 17         0271283Inter RN 39         0321093ANZIN               0281000006963006963          00000000000901      018653 1497    016534   017109   017727   019708   018550   019962   019901   018423   019564   019428   018218                        140181921 1537    130179261 1557    120180681 1657    110186851 1857    100180731 1827    015874   017175   017950   019300   018389   019608   019112   017582   019414   019181   017813   016922                                      
020002500310015 00310 4113001limite de l'Oise    0000000RN 2 Vauxbuin       0190270AMBLENY             0070500016839016839020002700360000570030187      009238 1577    008305   008740   008996   009203   009166   010083   009445   008787   009748   009681   009301   009395               140092201 1627    130089121 1537    120088251 1607    110090011 1627    100000001    0    008333   008661   008954   009552   009304   009864   009405   008904   009873   009744   009100   008945                                      
020002600310015 00310 4813001RD 94 Mercin        0200000Ciry Salsogne RD 5310290120Venizel             0260326008763008763020002700300000000000187      014169                                                                                                                                 140000008         130142988         120149268    0    110151838    0    100148508    0                                                                                                                                                   
080002600310015 00510 4110201RD 98 Fumay         0410000RN 43 Piquet        0520164ROCROI              0420000010779010779080500200300000000000187      003016 2727    002365   002633   002877   003065   003063   003191   003642   003566   003156   002776   002810                        140031101 2657    130030911 2668    120000001    0    110039481    0    100000001    0             002701   003019   002973   002979   003205   003732   003566   003385   003050   002912   002653                                      
020002610310015 00310 4110201Ciry Salsogne RD 5310290120Deviation de Braine 0390508BRAINE              0340628010779010779          00000000000996      008163 2417    007203   007824   007970   008201   008149   008654   008342   007760   008558   008653   008166   008473               140081181 2387    130079921 2437    120081731 2457    110083831 2427    100000001    0    007446   007688   008033   008331   008105   008590   008303   007760   008532   008512   008086   008030                                      
020002700310015 00310 4113001Deviation de Braine 0390508Limite de la Marne  0440985BAZOCHES            0430750005015005015          51000150030187      010111 2037    008961   009751   009965   010426   010109   010731   010306   009465   010714   010689   010126                        140101181 1388    130102031 1978    120106511 1778    110108341 1748    100105961 1858    009407   009694   010115   010427   010192   010649   010261   009557   010689   010534   010002   009887                                      
080002800310015 00340 1110241Moulin Blanc        0320463Poix-Terron         0450514YVERNAUMONT         0450100012980012980080500200300000000000104      015040         014831   016183   016589            017511   018614   009191   008881   018644   012976   017396                        140000001         130137661    7    120162971 1277    110167761 1267    100164811 1237                                                                                                                                                   
080002900310015 00340 1110241Poix Terron         0450514Bertoncourt         0670380FAISSAULT           0600000021866021866080500200300000000000305      011023 1347    009480   010225   010668   010814   011219   011851   011813   010053   011931   011804   011369                        140108851 1377    130103021 1447    120105441 1397    110108491 1327    100000001    0    009575   010062   010582   011237   010741   011792   011375   010646   011789   011566   010961   010285                                      
510002900310015 00510 4117001Limite Ardennes     0000000Echang 24           0091020ISLES SUR SUIPPE    0030310010295010295590001700308000360030176      000000                                                                                                                                 140184861 2047    130194811 1567    120197581 1490    110200991 1327    100000001    0    017499   017094   017439   018949   019133   020432   020163   017361   018477   018961   017211   019012                                      
800003301310015 00250 4110201RN 29 Longueau      0000300RN 1 Amiens         0090745J VERNE             0020700015395015395800003400300000000000188      000000                                                                                                                                 140381471  888    130364811    8    120378681    0    110000001    0    100375371    8    036293   036825   037678   039746   037827   039795   038009   034501   040669   040299   037955   038215                                      
800003400310015 00250 4113001RN 1 Amiens         0090745RD 49 Doullens      0330965RAMPONNEAU          0120796025003025003800003400300000000000187      011971  768    011190   013801   011694   012214   011577   012664   011539   010117   012256   012457   012282   012094               140121861 1128    130120171 1178    120124571 1138    110126411 1108    100133541 1028    011517   011733   011858   012241   011947   012569   012469   011284   012736   013439   012440   011999                                      
080003600310015 00510 4110201RN 2051             0680000Limite Marne        0890423TAGNON              0840135023801023801080500200300000000000104      015842         016603   018106   018394   018358   018213   019272   002935   002523   020125   020437   019975                        140186161 1237    130173241 1138    120175721 1078    110177791    8    100174881 1108             017568   018505   019580   018356   019432   018033   018338   019404   019999   018387   017152                                      
080003800310015 00580 4110201Frontière belge     0000000RN 43               0101436LA CHAPELLE         0020000011696011696080500200300000000000104      000000                                                                                                                                 140062461 2157    130060781 2127    120058161 2077    110059221 2147    100056371 2007    004938   005248   005933   006480   006565   006831   007509   007553   006525   006382   005895   005016                                      
800004000310015 00250 4813001RD 49 Doullens      0330965limite Pas de Calais0401009Doullens            0350847006991006991800003400362000190030187      006526                                                                                                                                 140000008         130065528         120067928    0    110068938    0    100072828    0                                                                                                                                                   
620004301310015 00420 4110101RN 43               0140000Inter A 16          0541121ALINCTHUN           0430850039904039904          00000000000187      000000                                                                                                                                 140128941 1238    130123391 1218    120121091 1428    110124191 1538    100126291 1558    011360   011766   012399   013000   012962   013778   013783   014386   013924   013125   012077   012097                                      
600004500310015 00310 4110201Beauvais sortie     0300000Clermont RD 916A    0530839LA RUE St PIERRE    0420000024386024386600005100300000000001287      020755 1187    019181   019933   020454   021078   020495   022591   019701   019282   022613   022289   020747                        140211441 1207    130203171 1197    120204921 1227    110213001 1257    100000001    0    019821   020505   021044   021517   021395   022831   021546   018191   022773   022611   021327   020227                                      
600005100310015 00310 4113001début dev Clermont  0550000A 1                 0731041CATENOY             0580600018036018036600005100300000000001287      000000                                                                                                                                 140000001         130018251    8    120122711 1278    110124211 1298    100121221 1288                                                                                                                                                   
600005300310015 00310 4814001A 1                 0731041Compiegne RN 131    0790420Arsy                0750000005404005404600005100300000000001287      000000                                                                                                                                 140000008         130034108         120229318    0    110232128    0    100226548    0                                                                                                                                                   
620005400310015 00470 4110101Inter A21           0000000Echang3             0070200VENDIN              0010140006935006935          00000000000901      000000                                                                                                                                 140449301  267    130461691    7    120468741    7    110474021    7    100000001    0    044957   045805   045390   044980   044198   045579   043583   037630   046803   049791   046410   044250                                      
620005700310015 00470 4813001Echang 3            0070200Limite Nord         0081278Douvrin             0080000002098002098          00000000000613      000000                                                                                                                                 140000008         130000008         120000008    0    110000008    0    100000008    0                                                                                                                                                   
600006001310015 10310 4110101RN 31               0000000RN 32 Clairoix      0070279VENETTE             0010500006840006840600008100300000000000194      000000                                                                                                                                 140351851  897    130343491    8    120324801    7    110332801    7    100000001    0    034755   035373   036015   037221   035763   037914   034832   031277   036508   035068   033667   033992                                      
620006100310015 04250 4813001RN 25               0000000RD 264              0001233St Catherine Les Arr0000500001233001233620001400300000000000104      000000                                                                                                                                 140000008         130000008         120000008    0    110000008    0    100000008    0                                                                                                                                                   
600007000310015 00310 4113001Compiegne RN 1031   0790420Aisne               1040134COMPIEGNE           0850406025714025714600008100302000250031287      009180 1757    008138   011269   008579   008593   008819   010227   009178   007910   009844   009696   008956                        140086611 1558    130079841 1618    120000001    0    110000001    0    100000001    0    007546   008298   008636   009061   008495   009317   008715   007595   009551   009412   008850   008480                                      
600008100310015 03300 4113001Belleville RN 2     0040239fin dév Ermenonville0100001ERMENONVILLE        0050800007149007149600008100300000000001287      008504 2007    007277   007247   007854   008333   008618   009579   009138   008081   009015   009751   008580                        140083031 2027    130079561 2067    120081621 2097    110087381 2267    100080621 2137    007210   007455   007866   008625   008350   009286   008955   007954   009049   008999   008216   007660                                      
600008200310015 03300 4813001fin dev Ermenonville0100000Senlis RN 324       0191107Fontaine Chaalis    0110000010184010184600008100300000000001287      010568                                                                                                                                 140000008         130098878         120101438    0    110108598    0    100100198    0                                                                                                                                                   
600008301310015 03240 4815001Senlis RN 17        0010000Senlis RN 330       0020284Chamant             0020000001194001194600000800300000000001287      015843                                                                                                                                 140000008         130165428         120172548    0    110000008    0    100197898    0                                                                                                                                                   
600009000310015 00310 4113001Clermont RD 916 A   0530839déb dév Clermont    0550000CLERMONT            0540594001839001839          00000000000513      016719 1187    015967   016751   017211   016865   015853   017581   017695   014219   017958   017504   016378                        140165181  948    130160621    8    120000001         110000001         100000001         015915   016290   016680   017139   016842   017955   016177   013877   017578   016990   016752   016101                                      
590009100310015 03550 4815001Lesquin (C.R.T.)    0040000Lesquin (A23)       0050755Lesquin             0040160001355001355590503902300000000000187      016784                                                                                                                                 140000008         130159778         120160898    0    110163588    0    100162848    0                                                                                                                                                   
600010000310015 00310 4113001début dev Beauvais  0170000Fin dev Beauvais    0290465BEAUVAIS            0180742012465012465          00000000000513      000000                                                                                                                                 140053331 1888    130051621 1928    120000001         110000001         100000001         004667   004791   004924   005454   005264   005777   005668   005549   005752   005778   005381   004974                                      
590010800310015 00210 1813001Waziers RD 500      0350000Escaudain           0530800Abscon              0480000018719018719          00000000000613      000000                                                                                                                                 140000008         130000008         120000008    0    110000008    0    100000008    0                                                                                                                                                   
590403000310015 00474N4112001Douvrin (Lim 62)    0000000Illies              0020602LA_BASSEE           0010000002534002534590403300100000000000309      026834 1087    025529   025629   026876   027837   025398   029080   026700   025860   029841   029549   022833                        140234221 1227    130246201 1137    120249821 1177    110248651 1177    100000001    0    025698   025994   025151            002977   026625   023136   022129   027783   028063   026931   025110                                      
590403300310015 00410 4115001La Bassee (RN 47)   0030000Echang 1            0120094FOURNES             0100515009094009094590403300100000000000187      034127  548    032169   034369   033027   035488   032472   034548   033260   033106   037033   036578   034121   033523               140337891  688    130332211    8    120336581    8    110336851    8    100326311    8    032966   033565   034003   034652   033642   035922   032574   028025   035932   036133   034614   033605                                      
590403400310015 00410 4815001Echang 1            0120094Englos (A 25)       0161213Hallennes           0160515001963001963590403300100000000000501      000000                                                                                                                                 140000008         130000008         120000008    0    110000008    0    100000008    0                                                                                                                                                   
590405700310015 00490 4810201Echang.de Marly(A2) 0660000Echang.de Curgies   0660840Saultain            0660200000840000840590001800300000000000187      032153                                                                                                                                 140000008         130312758         120324618    0    110000008    0    100000008    0                                                                                                                                                   
620406000310015 02160 4813001A 216               0020000Zone Portuaire Calai0030744Calais              0030000001900001900620510000300000000000793      021988                                                                                                                                 140000008         130226398         120232428    0    110244588    0    100248838    0                                                                                                                                                   
590406199310015 00490 4850101Bavay (sortie devia)0950000Maubeuge (RN 2)     0980966Maubeuge            0980210003712003712          00000000000187      000000                                                                                                                                 140000008         130000008         120000008    0    110000008    0    100000008    0                                                                                                                                                   
590406500310015 02250 4810201Bergues (RD 916)    0000000Petite-Synthe(RD940)0100679Bierne              0030750010664010664590503502300000000000187      013153                                                                                                                                 140000008         130166588         120159168    0    110000008    0    100000008    0                                                                                                                                                   
590406700310015 02270 41104014Cantons            0000000Centre Ville        0011012QUATRE-CANTONS      0010165001854001854590501200100000000000187      000000                                                                                                                                 140000001         130000001         120000001    0    110000001    0    100000001    0                                                                                                                                                   
590406800310015 02270 4110201Centre Ville        0011012Pont de Bois        0030500CITE SCIENTIFIQUE   0030000001558001558590501200100000000000187      000000                                                                                                                                 140000001         130000001         120000001    0    110000001    0    100000001    0                                                                                                                                                   
590406900310015 02270 4110401Pont de Bois        0030500Babylone            0051136LE CHATEAU          0040000002629002629590501200100000000000187      000000                                                                                                                                 140000001         130000001         120000001    0    110000001    0    100000001    0                                                                                                                                                   
590408400310015 00210 1110201Flers/Esc (RN 421)  0270557Waziers (RD 500)    0350000DOUAI-DORIGNIES     0310875007952007952590501200100000000000187      043661         039711   041602   044094   045271   043404   046830   044750   038009   047635   046413   042603                        140423731  897    130406731    7    120396481    7    110395621    7    100000001    0    040360   041773   042854   043699   042024   044434   041977   035886   045140   046026   043541   040947                                      
590408799310015 03490 4850201Tourcoing(Bd.Forest)0010000A22 (ech.Tourc.Nord)0010232Tourcoing Oouest    0010232000232000232590501200100000000000187      000000                                                                                                                                 140000008         130000008         120000008    0    110000008    0    100000008    0                                                                                                                                                   
590408900310015 03560 4110601Hellemmes (R.Perrin)0000000Lille (RN 351)      0001089LOUIS_XIV_1         0000500001089001089590409500100000000000101      000000                                                                                                                                 140000001         131445701         121571971    0    110000001    0    100000001    0                                                                                                                                                   
590409500310015 03560 4110401Lille (Pont Fives)  0001089Lille (Rue de Flers)0010400DARWIN              0010000000955000955590409500100000000000189      000000                                                                                                                                 140000001         130000001         120000001    0    110000001    0    100000001    0                                                                                                                                                   
590409600310015 03560 4810401Lille (Rue de Flers)0010400Lille (RD 14)       0011003Rue de Fers-RD14    0010800000603000603590409500100000000000189      000000                                                                                                                                 140000008         130000008         120000008    0    110000008    0    100000008    0                                                                                                                                                   
590409700310015 03560 4810401Lille (RD14)        0011003Wasquehal (A 22)    0031000RD14 - RD48         0020500001986001986590409500100000000000189      000000                                                                                                                                 140000008         130000008         120000008    0    110000008    0    100000008    0                                                                                                                                                   
590409900310015 03350 4810201Coudekerque (RN 336)0000000Rosendael (RN 1)    0000870Coudekerque         0000500000870000870590505200100000000000190      011361                                                                                                                                 140000008         130121728         120121108    0    110120508    0    100117598    0                                                                                                                                                   
590410200310015 00210 1110201Escaudain (RD 81)   0530800A 2                 0570500LOURCHES            0560700004263004263          00000000000190      027237         022762   015572   029899   024508   028340   031940   029301   025372   031578   031559   030207   024981               140142581         130241951         120251311    0    110278481    0    100263061    0    013588   014200   014495   014832   014035   015150   014019   011960   015143   015515   014456   013776                                      
590410300310015 03560 4813001Wasquehal A 22      0031000Wascquehal RN 352   0060324Wasquehal           0050390001714001714          00000000000613      000000                                                                                                                                 140000008         130000008         120000008    0    110000008    0    100000008    0                                                                                                                                                   
590410900310015 03160 4810201A 16                0000000Loon-Plage          0020890Loon-Plage          0000500002977002977590504900300000000000194      005133                                                                                                                                 140000008         130051348         120050648    0    110000008    0    100000008    0                                                                                                                                                   
590411900310015 0002004810201LOUVROIL ( RN 2 )   0260000HAUTMONT SUD (RD121)0270755LOUVROIL            0260638001755001755590412000300000000000605      000000                                                                                                                                 140000008         130000008         120000008         110000008         100000008                                                                                                                                                        
590412000310015 0002004110201Echang 4            0270000Feignies RN 49      0291606HAUTMONT            0280303003606003606590412000300000000000605      014010 1097    011374   012248   013287   014641   014320   015898   014327   013518   015043   014898   014509                        140140901  947    130139491    7    120138471    7    110135691 1057    100000001    0    013547   013831   014024   014773   013979   015187   014404   012500   014507   014270   013973   014135                                      
590412100310015 00020 4810101HAUTMONT ( RD 195 ) 0290080FEIGNIES ( RN 49 )  0291606HAUTMONT            0290715001526001526590412000300000000000605      011354                                                                                                                                 140000008         130113058         120112238         110109918         100000008                                                                                                                                                        
590415000310015 0002004110201Echang 3            0210000Louvroil (RN 2002)  0270000BEAUFORT            0220000006000006000          00000000000605      009141 1477    008318   008919   009132   009032   008862   009981   009190   008414   009765   009850   009035   009216               140089041 1477    130064421 1527    120000001    0    110000001    0    100000001    0    008320   008643   008807   009207   008926   009420   008950   008067   009436   009522   009017   008555                                      
620500000310015 02110 1110231Avion               0000000A 21                0020810LENS-GARE           0010550002813002813620500700100000000000187      037694  637    037931   034069   034988   041022   038171   043038   038148   034540   041227   041159   031368   036497               140390081  537    130380021    7    120379001    7    110373041    0    100363371    7    037906   038981   039703   040649   039035   040379   036966   032868   041202   041755   039871   038970                                      
590500100310015 00010 1110431Carvin (limite 62)  0000000Seclin              2010315MARTINSART          2000400007890007890          62050040030187      000000                                                                                                                                 140000001         131096541 154     120997061    0    110000001    0    100000001    0                                                                                                                                                   
080500110310015 10430 4810201RN 43               0110000Ech Frénois         0161083Bazeilles à Frenois 0130000006061006061080500200300000000000203      013130                                                                                                                                 140000008         130124048         120120548    0    110118158    0    100127568    0                                                                                                                                                   
080500200310015 00340 1110241Ech Frénois         0170000Moulin Blanc        0320463VIVIER AU COURT     0250000015349015349510001700300000000000187      027268 1087    025082   026665   026708   027615   026792   029040   026569   025967   029086   029223                                 140272781 1077    130257591 1067    120250351 1077    110245371 1077    100264911    0    025484   026176   026907   028218   027474   028706   027555   024666   029522   028783   027340   026545                                      
590500300310015 00010 1110631Seclin              2010315Ronchin             2080350FACHES              2070050007043007043          00000000000187      000000                                                                                                                                 140000001         131470431         121396361    0    110000001    0    100000001    0                                                                                                                                                   
620500300310015 00010 1110441Dourges A 21        1870000Limite Nord         1930393SEADOURGES          1870500006438006438620500700100000000000187      000000                                                                                                                                 141114181 1727    131015791 1767    121078121 1727    111091901 1787    101098731 1787    104313   103791   104128   108690   111387   118641   117600   111761   117816   118348   111400   108746                                      
590500301310015 00010A1810231A 1                 0000000A 22                0001179Petit Ronchin       0000500001179001179          00000000001203      000000                                                                                                                                 140000008         130000008         120000008    0    110000008    0    100000008    0                                                                                                                                                   
590500400310015 00010 1110731Ronchin             2080350Lille               2101325RONCHIN             2090300002989002989590500600100000000000297      000000                                                                                                                                 140000001         131808391         121760791    0    110000001    0    100000001    0                                                                                                                                                   
620500400310015 00160 1110241Inter RN 42         0500000Echang 35           0620000WIMILLE             0540540011036011036620500700100000000000194      031585         027886   030253   030525   033280   032506   034855   035350   035777   033272   033158   020299                        140327191 1067    130319531 1027    120322541 1047    110000001         100000001         029139   029810   030744   033749   032178   034519   035799   036355   034318   033666   031291   030871                                      
590500500310015 00220 1810431Babylone            0090000Wasquehal           0100054Echang.Babylone     0090215001046001046590500600100000000000187      000000                                                                                                                                 140000008         130000008         120000008    0    110000008    0    100000008    0                                                                                                                                                   
620500500310015 00210 1810231RD 937              0000000Echang Lievin       0030500Bully les Mines     0030000003498003498620500700100000000000187      020064                                                                                                                                 140000008         130200138         120192708    0    110194268    0    100202508    0                                                                                                                                                   
590500600310015 00220 1110431Wasquehal           0100054Echang RN 350       0140055PETIT WASQUEHAL     0100655003427003427590501300100000000000187      000000                                                                                                                                 140000001         130924751         121012091    0    110000001    0    100000001    0                                                                                                                                                   
620500700310015 00210 1110231Echang Lievin       0030500RN 43 Loos en Gohell0060900LOOS EN GOHELLE     0060000003406003406620500700300000000000187      049006  847    049777   051660   053081   055302   051908   056062   029359   027864   055735   055139   051811   051374               140531631  777    130520691    7    120509681    7    110506451    7    100526441    7    050750   051793   053301   054870   053336   055514                     055465   054802   051458   050353                                      
590500800310015 00220 1110441Echang RN 350       0140055Tourcoing Nord      0220440MOUVAUX             0160050008382008382590501300100000000000187      000000                                                                                                                                 140000001         130000001         120926821 1427    110941841 1447    100938571 1447                                                                                                                                                   
080500900310015 00430 4110201Moulin Leblan       0410000Av De Gaulle        0441175LA CROISETTE        0420775004030004030510001700300000000000104      050226  417    047130   049698   049777   051246   048860   054105   049750   044125   053681   052855   051517                        140501301  447    130489401    7    120488841    7    110497771    7    100492601    7    049038   049721   050363   050791   050746   052305   049024   044291   052607   052956   049178   050641                                      
620500900310015 00210 1810231RN 43 Loos en Gohell0060900RN 47               0090800Lens                0090300002904002904620500700300000000000187      044320                                                                                                                                 140000008         130470918         120460948    0    110718128    0    100746418    0                                                                                                                                                   
620501000310015 00210 1810231RN 47               0090800RN 17               0101004Lens                0100500001207001207620500700300000000000187      052412                                                                                                                                 140000008         130556888         120545098    0    110849218    0    100882738    0                                                                                                                                                   
620501100310015 00210 1810231RN 17               0101004A 211               0120300Lens                0110500001315001315620500700300000000000187      055436                                                                                                                                 140000008         130589018         120576548    0    110898228    0    100933928    0                                                                                                                                                   
590501200310015 00220 1110241Tourcoing Nord      0220440Belgique            0240983NEUVILLE/FERRAIN    0240564002543002543590501300100000000000187      000000                                                                                                                                 140000001         130000001         120000001    0    110000001    0    100000001    0                                                                                                                                                   
590501210310015 00220 1110241Tourcoing Nord      0220440Belgique            0240983NEUVILLE/FERRAIN    0240564002543002543590501300100000000000187      000000                                                                                                                                 140000001         130000001         120000001    0    110000001    0    100341221 2548                                                                                                                                                   
590501300310015 00020 1110241Hordain             0430000Neuville/Escaut     0471001LIEU SAINT AMAND    0450510005006005006590501300100000000000187      045596 1787    039623   042122   042022   047712   045607   048403   051148   047774   047086   046399   043467                        140448711 1877    130435431 1907    120434781 1887    110446971 1907    100435111 1887    039486   041318   042794   046977   043974   048296   049886   046686   046118   046934   043300   042518                                      
590501400310015 00020 1810241Neuville/Escaut     0471001Denain              0520775Neuville/Escaut     0500600004777004777590501300100000000000187      030549                                                                                                                                 140000008         130291948         120293318    0    110301438    0    100292688    0                                                                                                                                                   
620501500310015 00210 1110231Noyelles/Lens       0130700Dourges A 1         0210999DOURGES             0200700008337008337620520800300000000000187      066110  867    068660   069875   070294   046930   037916   080240   073479   064194   077176   077532   061316                        140712561  937    130728371 1007    120742961    7    110732271 1007    100635211    7    068479   069743   071069   059423   056031   081031   074957   069047   082228   081853   078422   063159                                      
590501600310015 00020 1810241Denain              0520775Rocade Ouest        0590025La Sentinelle       0580585006258006258590501300300000000000187      061351                                                                                                                                 140000008         130585898         120584818    0    110601218    0    100585248    0                                                                                                                                                   
590501700310015 00020 1110441Rocade Ouest        0590025Valenciennes Sud    0600973TRITH-SAINT-LEGER   0590400001948001948590502000300000000000187      000000                                                                                                                                 140000001         130000001         120000001    0    110000001    0    100000001    0                                                                                                                                                   
590501800310015 00020 1810241Valenciennes Sud    0600973Marly               0640030Aulnoy              0620210003061003061590502000300000000000187      094835                                                                                                                                 140000008         130000008         120903218    0    110913048    0    100884368    0                                                                                                                                                   
620501900310015 00210 1110231Dourges A 1         0210999Limite Nord         0260207COURCELLES LES LENS 0250800008337008337620520800300000000000187      064724 2057    069276   076246   067030   065496   059969   067696   062433   052270   066680   066820   065437   058663               140632321         130592911 1037    120564341 1027    110599841 1047    100533181    7    060479   062255   064098   064187   061099   063680                     066084   054030   075094   072989                                      
590501901310015 00210 1813001Limite Nord         0260207Echang 19           0270557Courcelles          0270000001347001347          00000000000613      000000                                                                                                                                 140000008         130000008         120000008    0    110000008    0    100000008    0                                                                                                                                                   
590502000310015 00020 1110241Marly               0640030Frontière Belge     0780456ONNAING             0720210014451014451590502400300000000000293      038988 1228    033824   036459   036608   041504   040194   040615   045540   042944   039144   039481   036334   035021               140000001         130000001         120371321    8    110375361 1008    100363601 1018                                                                                                                                                   
620502000310015 00210 1110231A 211               0120300Noyelles            0130700NOYELLES            0130100001409001409620520800300000000000187      082285  667    078324   082273   083275   086033   080351   088295   080730   071370   086970   086828   082818   080632               140819241  677    130798761    7    120788601    7    110635701    0    100660691    0    080414   081481   083426   084851   082207   085090   079331   070484   086184   086992   082851   080102                                      
590502200310015 00250 1110631Porte Sud           0000000Porte D'Arras       0010792PORTE SUD           0010000001512001512590502400300000000000187      000000                                                                                                                                 140000001         132071171         122062061    0    110000001    0    100000001    0                                                                                                                                                   
590502300310015 00250 1110431Porte D'Arras       0010792Porte Des Postes    0020835Pte ARRAS/POSTES    0020320001044001044590502400300000000000187      000000                                                                                                                                 140000001         131142701         121147871    0    110000001    0    100000001    0                                                                                                                                                   
590502400310015 00250 1110631Porte Des Postes    0020835Porte De Bethune    0030890PORTE DES POSTES    0030000001056001056590502400300000000000187      000000                                                                                                                                 140000001         130949641         120000001    0    110000001    0    100000001    0                                                                                                                                                   
590502500310015 00250 1810431Porte de Bethune    0030890Porte Ouest         0040488Pt.Bethune/Ouest    0040150000595000595590502400300000000000187      000000                                                                                                                                 140000008         130000008         120000008    0    110000008    0    100000008    0                                                                                                                                                   
590502600310015 00250 1110431Porte Ouest         0040488Sequedin            0090098LOOS                0050450004602004602590503902300000000000996      000000                                                                                                                                 140000001         131050141         121039901    0    110000001    0    100000001    0                                                                                                                                                   
590502800310015 00250 1110231Sequedin            0090098La Chapelle         0150680ENNETIERES          0110420006589006589590503902300000000000187      083937         077770   081803   083060   087955   083420   089497   086613   080736   086940   087463   081621   080489               140839311 1197    130821381 1187    120824921 1217    110838501 1197    100789681 1027    078992   082030   084593   086772   084834   087773   085605   078669   087073   087299   082478   081137                                      
590502900310015 00250 1110231La Chapelle         0150680Armentieres Ouest   0200394LA_CHAPELLE         0160700004719004719590503902300000000000187      067517 1147    061636   065398   066844   070263   066693   070641   068198   066812   069554   069179                                 140669451 1127    130651541 1137    120652021 1167    110659371 1127    100610611    7    061720   064431   066697   068566   067346   070461   068786   064740   069669   070227   066165   064523                                      
590503000310015 00250 1110241Armentières Ouest   0200394Hazebrouck          0320216STEENWERCK          0240190011831011831590503902300000000000187      000000                                                                                                                                 140546501 1347    130522271 1267    120524081 1237    110000001    0    100000001    0    049932   051711   052858   055491   055813   058193   056376   053537   057381   057517   054312   052610                                      
590503502310015 00250 1110241Hazebrouck          0320216Bergues             0621068QUAEDYPRE           0590110030892030892590503902300000000000187      023957 1207    019089   026716   022888   021726   021871   024801   026685   024866   027133   025238   022800                        140268141 1107    130303401    8    120290061    8    110000001    0    100000001    0    027108   030665   030546   031750   032249   034956                     020650   021522   019700   018494                                      
590503600310015 00220 1110641Ronchin             00000004 Cantons           0020811LESQUIN             0020340002402002402590503902300000000000996      000000                                                                                                                                 140000001         131259311         121270401    0    110000001    0    100000001    0                                                                                                                                                   
590503700310015 00270 11102414 Cantons           0000000Frontière Belge     0121287ANSTAING            0070974010965010965590503902300000000000187      037111 1408    035296   037257   036363   040124   039069   040777   039411   036146   039996   035519   031911   033611               140383221 1728    130366851 1608    120361851 1538    110000001    0    100000001    0    035779   037204   038142   038620   037996   039286   038804   035993   040893   041751   038784   036645                                      
590503901310015 00230 11102314 Cantons           0000000Centre D'activités  0020000CRT-LESQUIN         0000800001885001885590503902300000000000187      000000                                                                                                                                 140000001         130603031         120000001    0    110000001    0    100000001    0                                                                                                                                                   
590503902310015 00230 1110231Centre d'activites  0020000Orchies             0160417GENECH              0080700014440014440590503902300000000000187      052740         049381   051455   053164   055805   050614   057446   051871   046920   057460   053561                                 140509191  558    130502021    8    120505441    8    110513881    8    100511531    8    050475   051481   051770   052815   050288   053609   048688   042006   053632   054092   052101   050407                                      
590504500310015 00230 1810231Petite Foret        0370278Valenciennes Nord   0391004Petite-Foret        0390073002739002739590503902300000000000187      064208                                                                                                                                 140000008         130611198         120615478    0    110625758    0    100622968    0                                                                                                                                                   
590504700310015 00230 1810231Valenciennes Nord   0391001A 2                 0420539La Sentinelle       0410500002562002562590503902100000000000187      021538                                                                                                                                 140000008         130207868         120210418    0    110213838    0    100212508    0                                                                                                                                                   
590504800310015 00160 1110241Limite Pas de Calais1030900Craywick (RN 316)   1100800ST GEORGES SUR L'AA 1050800006900006900600005100300000000000693      037996         032714   028721   036424   041522   040393   039721   041684   042385   038229   037445                                 140376381 2288    130363961 2298    120365481 2278    110361601 2238    100319871 2398    033107   034137   035896   039743   038637   040708   042804   039941   037206   037890   036175   035174                                      
590504900310015 00160 1110241Craywick (RN 316)   1100800Grande Synthe(RD131)1170000CRAYWICK            1130000006200006200600005100300000000000693      052257 2287    045355   049171   050584   056338   054282   055259   054271   057762   054480   052324   049394   047776               140531701 2307    130522591 2277    120515791 2147    110520331 2047    100489091 2097    047863   049609   051862   056732   054457   057627   058959   058733   053580   049774   049347   049292                                      
590505000310015 00160 1110241Grande Synthe(RD131)1170000Grande Synthe(RN225)1190625ZAC DU MOULIN       1170820002625002625600005100300000000000693      060745         056159   057271   059465   062421   062349   063380   061492   060424   064546   062239   058912   060149               140616271 1427    130604731 2047    120603331 1987    110000001    0    100000001    0    056362   058149   060173   064227   063323   066677   068383   065673   062450   058963   058524   056459                                      
590505200310015 00160 1150441Grande Synthe (RN2551190625Coudekerque (RN335) 1251000COUDEKERQUE         1240400006375006375600005100300000000000693      060139 1597    044489   048548   054084   066219   062347   064679   065044   068262   064656   063333   059204                        140622991 1427    130616511 1387    120610311 1467    110607811    7    100591391    7    056781   058129   060304   063667   063655   065622   068164   065624   065320   062719   059711   057653                                      
590505300310015 00160 1110241Coudekerque (RN 335)1251000Ghyvelde (RD 947)   1370656GHYVELDE OUEST      1330500011656011656600005100300000000000693      028836 3077    023830   025679   026360   030528   031114   029802   033896   036966   029504   028404   026185   023484               140290481 2598    130276881 2548    120271421 2468    110272281 2488    100267681 2428    023371   024518   026641   030152   029365   030836   035101   036536   030034   028462   026471   026690                                      
590506000310015 00230 1110231Orchies             0160417Petite Foret        0370278BEUVRY              0210900021018021018600005100300000000000187      039192  897    038912   040501   041268   042565   039854   044245   038872   036237   044317   042357   021088   040078               140406871  907    130400251    7    120406701    7    110409831    7    100412291    7    039931   040890   041388   042492   040396   043264   039576   033548   043230   043157   040847   039779                                      
620510000310015 02160 1110141A 16                0000000RN 216              0010900DORET               0010800001900001900620520800300000000000792      023679 3047    021690   023419   023471   025308   023407   026164   023720   024470   025090   022509   021295                        140249031 3077    130243801 3008    120233181 2807    110245371 2857    100249631 2787    021917   022721   023148   025518   024330   026532   027883   028287   026442   025467   023707   022761                                      
510511200310015 00340 1113041RN 51               1000000RD 944              1100550MACECLIERS          1100300010529010529590001700300000000000799      014540  647    019138   019468   021199   021284            015335   010374   010697   011635   000000                                 140212581  157    130209891 1077    120210581    0    110221071    0    100000001    0    018341   022671   019353   022098   022358   022776   020670   020213   023037   022877   020536   020420                                      
620520300310015 00160 1110241Echang 35           0620000Coquelles           0780455LEUBRINGHEN         0680500016555016555620520800300000000000194      025901 1197    023769   024251   024673   023865   026580   027238   027804   030558   027396   026722   025305   022495               140270561 1218    130264141 1248    120266141 1298    110266941 1208    100257911 1228    023603   024173   024974   027733   027175   029204   030589   031745   027578   027114   025362   025193                                      
620520800310015 00160 1110241Coquelles           0780455Riviere neuve       0820100CALAIS-LPA          0810950003645003645620520800300000000000194      000000                                                                                                                                 140000001         130413751 1578    120420841 1620    110000001    0    100000001    0                                                                                                                                                   
620521100310015 00160 1810241Riviere Neuve       0820100A 26                0870150Les Fontinettes     0840400005050005050620520800300000000000192      000000                                                                                                                                 140000008         130000008         120000008    0    110000008    0    100000008    0                                                                                                                                                   
620521200310015 00160 1110241A 26                0870150Limite Nord         1030900CALAIS-MARCK        0880080016750016750800003301300000000000192      045534 2297    040119   042299   044014   048753   046979   047422   046328   047416   046533   045358                                 140458431 2287    130447421 2207    120432651 2247    110413031 2177    100404811 2107    041276   041978   043813   048028   046706   048388   050627   047514   045451   046972   044717   044373                                      