630501800310015 00750 1110241Carf. RD76          0450600LIMITE Hte LOIRE    0490000NORD DE LEMPDES     0470000003400003400          43000000011299      000000                                                                                                                                 140068581    7    130110661    7    120105471    7    110111241    7    100116061    7    003805   007287   001972   003255   003117   003735   008584   018789   010796   007004   007027   006878                                      
630501300310015 00750 1110241Carf RD 9           0300000Carf. RD 996        0310000ORBEIL              0310000001120001120          00000000001299      025933         019734   021943   021787   023749   026509   025417   036083   035734   024302   027297   023092   024930               140549841 1027    130607401 1027    120495261 1147    110618471 1217    100595621 1217    039204   042126   045353   053491   055226   060183   073890   089052   057682   053236   045208   044922                                      
630501000310015 00750 1110241Carf.RD978          0140634ECHANGEUR COUDES Nø80180582AUTHEZAT            0170000004115004115          00000000001299      000000                                                                                                                                 140799761 1017    130715521 1017    120752891 1037    110760711 1047    100679901 1227    064365   074035   066331   076656   076116   082758   096901   114074   080307   063813   039280   039744                                      
630500800310015 00750 1110241Carf.RD978          0060210Carf.RD213          0090956NOVIALE             0060500003888003888          00000000001299      036693  547    029542   031716   032733   036805   036169   038355   048221   045040   036785   036800   032484   035116               141034001    7    131023191    7    121119481    7    111043381    7    101017271    7    088559   092507   095354   104488   101075   109176   122472   134593   106682   097800   092708   094312                                      
630500600310015 00750 1150241Ech 1               0020000Carf.RD137          0040810AUBIERE             0020350002810002810          00000000001299      065253  887    056270   058731   061735   064129   064032   068415   074852   074739   068197   066949   061363   063025               140462101 1007    130491521 1057    120489161 1137    110476991 1017    100466921 1207    038165   040505   042981   048955   048019   049324   060280   058631   039747   043161   041358   042354                                      
630500502310015 0A750 1150241Voie ferrée         0010000Ech 1               0020000LA PARDIEU          0010547001000001000          00000000000408      053813 1017    045040   047496   050068   052210   053235   056396   063614   065413   056490   054799   049724   050649               140543641 1017    130578071    7    120590411    7    110578041    7    100551411    7    051410   054276   054928   059448   053693   053263   060040   067391   045495   047431   051977   052778                                      
630500501310015 0A750 1150241A 71                0000000Voie ferrée         0010000LA POUDRIERE        0000845001000001000          00000000000408      068159  937    059258   062522   064790   066532   066456   070861   077093   076601   070809   070798   064566   067077               140616861    7    130656961    7    120671081    7    110648611    7    100631531    7    059416   062445   062995   067564   060641   059767   066966   073618   051553   054039   059751   061290                                      
480500801310015 00750 2111001ECH.40              0000000ECH.40              0010000BANASSAC            0000005001000001000          00000000000199      000000                                                                                                                                 140136181 1717    130072731 1867    120073531         110095691         100076741         008373   008909   010701   012638   016593            000523   008938                                                                          
480500800310015 00750 1110241ECH.40 BANASSAC     1720047LIMITE AVEYRON      1790296BANASSAC            1720100007249007249          00000000000199      000000                                                                                                                                 140084931 1897    130139691 1627    120146231 1677    110175361 1567    100143391 1657    008224   009144   008858   009469   011753                                                                                                     
480500701310015 00750 2111001ECH.40              0000000ECH.40              0010000BANASSAC            0000005001000001000          00000000000199      000000                                                                                                                                 140000001         130000001         120001871         110009481         100008581                                                                                                                                                        
480500700310015 00750 1110241ECH.39 LE MONASTIER 1610724ECH.40 BANASSAC     1720047ST GERMAIN DU TEIL  1670000010323010323          00000000000199      000000                                                                                                                                 140000001         130000001         120087711         110068251         100000001                                                               004651   007446                                                                          
480500600310015 00750 1110241ECH.37 LE BUISSON   1460000ECH.39 LE MONASTIER 1610000CHIRAC              1580000015100015100                    0199      000000                                                                                                                                 140103571    7    130124431    7    120133431 1197    110161491 1077    100127731 1187    007460   008905   010764   010813   012438   013679   011904   013883   009705   007628   007389   009571                                      
480500400310015 00750 1110241ST CHELY-SUD        1270799AUMONT-NORD         1330830AUMONT-NORD         1330830006053006053          48000010030393      014221 1397    007350   008406   008556   013471   015983   013872   024684   033249   013491   011979   008646   010164               140124871 1497    130136841 1457    120143451 1367    110110621 1357    100104341         007181   007474   009257   012583   014152   015232   022796   017757   012855   011542   008933   009591                                      
480500101310015 00750 2110201LA GARDE            1160700LA GARDE            1160700ALBARET_MARI_M      1160700000000000000          00000000000794      000000                                                                                                                                 140077271         130078231 1447    120090481 1437    110095971 1317    100093841 1287             003841   004927   006170   007459            009954   009171   008109   006222                                                        
480500100310015 00750 1110241LIMITE CANTAL       1140527LA GARDE SUD        1160943ALBARET_MARI_M      1160700002416002416          00000000000592      000000                                                                                                                                 140143561 1407    130137831 1367    120146351 1347    110147111 1317    100142601 1307    007139   007545   009310   012350   014001   014898   020795   032572   014016   011506   013572   013830                                      
480002500310015 01060 4112001CARR.D907B          0510305ST BAUZILE D41      0730660FLORAC_NORD         0530900021847021847          00000000000995      000000                                                                                                                                 140010491 1997    130012091 1937    120010861 1967    110013181 1737    100013141 1757    000637   000706   000770   001095   001147   001282   001397   001921   001255   000911   000732   000706                                      
480002400310015 01060 4112001INTER.D907-FLORAC   0440660INTER.D907B-R.PERCEE0510305FLORAC              0490000006245005698          00000000001287      003894  707    002653   002782   003068   003578   003997   004086   005368   006486   004226            002560                        140038641    7    130036951    7    120037331    7    110037671    7    100036801    7    003390   003478   003580   003422   003684   003975   005044   006301   004039   003514   003025   002848                                      
480002300310015 01060 4113001INTER.D98-JALCRESTE 0221020INTER.D907-FLORAC   0440660FLORAC_SUD          0380500020631020631          00000000000995      002237 1017    001406   001490   001662   002118   002426   002348   003183   003964   002488   002225   001749   001711               140037421 1527    130036121 1467    120026421 1387    110000001         100000001         002460   002661   003046   003447   003917   004186   005077   006472   003998   003616   003017   002891                                      
480002100310015 00880 4113001INTER.D31-CHANAC    0710883INTER.N9-AJUSTONS   0840280CHANAC              0740500011181011181          00000000001192      000000                                                                                                                                 140045491 1487    130044791 1377    120042511 1307    110044211 1337    100042311 1347    003061   003337   003775   004291   004759   005072   005994   007418   004912   004489   003795   003564                                      
480001900310015 00880 4113001CARR.RN106 BALSIEGES0580619CARR.RN108 BARJAC   0650751BALSIEGES           0590200006756006640          00000000001192      000000                                                                                                                                 140047041         130051601         120060241         110065071         100063721         004575   004808   005073   005724   005960   006019   003882   003677   002897   003043   003193   003241                                      
480001800310015 00880 4113001EB20 MENDE          0530185CARR.RN106 BALSIEGES0580619MENDE-SUD           0550300005284005015          00000000000793      009120  887    007733   007893   008643   009183   009522   009762   010617   011150   009501   008847   008288   008196               140086691    7    130089521    7    120092471    7    110094271    7    100093721    7    007729   008204   008231   009067   009346   009931   009177   008615   008650   008758   008142   008176                                      
480000900310015 00880 4113001N102-ARDECHE        0000000INTERS.D906         0020000LANGOGNE            0010460002298000790          00000000000592      005778 1227             003707   004274   005436   006328   005970   007814   009011   006085   005643   004681   004382               140051941 1087    130048631    7    120053201    7    110049441 1027    100048011 1007    004368   004514   004842   005147   005523   005655   006260                                                                                   
430002000310015 01020 4113001CARREF.RD513        0560300VIEILLE-BRIOUDE     0740550LA LOCANDA          0640050018450018450          00000000001193      008940         006763   007154   007989   009024   009441   009368   010979   011821   009509   009142   008037   007888               140087701 1367    130088531 1377    120088771 1387    110093901 1347    100000001         006888   007403   007955   008696   008932   009361   010090   012006   009501   008995   007895   007403                                      
430000600310015 00880 4113001ECHANGEURD47        0160000ECHANGEUR.RD103     0350835BAL DES NEIGES      0230700019835019835          000      00500      000000                                                                                                                                 140145501    7    130143961    7    120146521    7    110141871    7    100142101    7    012676   013535   014339   015458   015388   016481   015934   014439   014417   014503   014060   013339                                      
340001501310015 07500 4110201NORD GIGNAC         0320000A 75                0380625ST FELIX DE LODEZ   0370600006625006625          00000000000402      000000                                                                                                                                 140271761    7    130264981    7    120233851    7    110245581    7    100006591         022241   023506   024998   026131   025278   028234   032653   035188   028391   028218   024663   025090                                      
340001500310015 01090 4113001SUD GIGNAC          0200000NORD GIGNAC         0320000GIGNAC 34           0300700012000012000          00000000000490      026471  717    021954   022935   023753   025643   027610   027606   030530   032921   027070   027326   024938   025007               140125501    7    130121321    7    120109701    7    110114081    7    100102791    7    010281   010870   011425   012425   012670   013228   014513   015833   012963   012947   011469   011811                                      
340001404310015 01090 4810101EB 20 MONTPELLIER   0040000A 750               0100000JUVIGNAC OUEST      0050000006000006000          00000000000190      036753                                                                                                                                 140355868    7    130350448    7    120288578    7    110310528    7    100222388    7    032554   030612   033212   035797   035965   037720   040253   041717   035859   036112   033132   033342                                      
340000500310015 00750 1113041NORD RN 109         2800000RN 109              2900450LODEVE_SUD          2800200010450010450          00000000000490      023553  577    014180   014957   015886   021708   025042   022750   033564   042114   025154   023634   019087                        140217621    7    130240311    7    120199551 1067    110243341 1037    100222511 1037    013722   014412   016620   020499   022469   024339   029913   042706   022898   019727   016261   016766                                      
150500600310015 00750 1110241ST FLOUR SUD        0960300LIMITE LOZERE       1140610LOUBARESSE          1120800018310018310          000      00300      015698         007653   008700   008926   012848   016254   014395   025643   034842   014373   012493                                 140145421 1787    130136831 1527    120145271 1507    110158311 1647    100076521 1897    007473   007881   009742   013130   014845   015916   023606   034713   014825   012145   009386   010048                                      
150500500310015 00750 111 241ST FLOUR NORD       0920550ST FLOUR SUD        0960300ST FLOUR            0930300003750003750                    1200      000000                                                                                                                                 140119611 1727    130131021 1527    120131111 1697    110000001         100066871 2087    006591   006879   010078   014117   013778   014253   019397   021542   010556   009503   007836   008477                                      
150500400310015 00750 111 241VIELLESPESSE        0840600ST FLOUR NORD       0920550ST FLOUR NORD       0910400007950007950                    1200      015432 1417    012152   012417   014282   020673   022163   013587   020832   028808   011004   007055   009898   011808               140193201 1587    130141191 1397    120145131 1407    110000001         100000001         008619   008910   014362   020031   021420   019172   029410   042302   018411   018476   014518   015038                                      
150500300310015 00750 1110241MASSIAC SUD         0680500VIELLESPESSE        0840600SALBAS              0760300016100016100          000      01200      000000                                                                                                                                 140096311 1197    130149391 1397    120152381 1567    110127601 1707    100000001         004890   005173   006182   008158   008616   009344   018669   023527   009298   008189   006112   006798                                      
150500200310015 00750 1110241MASSIAC NORD        0630988MASSIAC SUD         0680500MASSIAC             0670600004512004512          00000000001200      015105 1547    007868   008728   009168   014357   017019   014811   025751   034538   014596   012998   009487   011095               140124261 1567    130147661 1467    120143871 1527    110147551 1677    100145161 1807    010138   010442   009748   013398   015032   016142   014934   014650   012034   012432   009765   010261                                      
150001900310015 01220 4113001NEUSSARGUES-MOISSAC 1100900MASSIAC CARF.RN 9   1360144LA ROCHE            1330000025244025244          00000000031294      003520         002914   003297   003341   003508   003686   003681   003936   004232   003624   003625   003154   003211               140034351 1317    130034841 1357    120035261 1367    110036361 1447    100036571 1567    003263   003360   003561   003441   003510   003826   003490   003431   003399   003645   003150   003136                                      
150001700310015 01220 4113 51TUNNEL DU LIORAN    0880000MURAT               1010850LA GRANGE DE GANILH 0970850013850013850                    1200      005854  827    004872   006526   005767   005553   005484   005756   006493   007644   005868   005674   005180   005474               140059251    7    130058001 1037    120058431 1067    110060141 1067    100059571 1037    004977   006093   006275   005501   005673   005929   006395   007539   006014   005903   005717   005080                                      
150001500310015 01220 4113001BANCOU              0530380VIC SUR CERE        0680800MEYMAC              0620200015420015420          000      01287      007772  877    006729   007966   007717   007633   007625   008034   008266   008978   007966   007775   007258   007330               140077461    7    130075051    7    120076921    7    110078851    7    100078611    7    006828   007666   007974   007649   007476   008084   008124   008850   008047   007946   007168   007129                                      
150001200310015 01220 4113001MAURS               0050100LE ROUGET CARF.CD 200270800LE MARTINET         0150700022700022700          000      01294      000000                                                                                                                                 140038281 1177    130035971 1157    120036051 1127    110036891 1107    100037751         003409   003523   003809   003904   003939   003892   003914   003919   003902   003931   003884   003885                                      
120500600310015 00750 1110231VIADUC DE MILLAU SUD2220953DEP HERAULT         2520695A 75 LA CAVALERIE   2380210030012030012          00000000000998      019620 1327    010951   012195   012730   019607   023288   020426   032438   038685   019043   017304   013179   014676               140196541 1297    130191391 1447    120193651 1277    110192561 1287    100187151 1267    010541   011068   013924   017886   020768   021554   030123   043544   020161   017320   013634   014322                                      
120500400310015 00750 1110231ECH.ENGAYRESQUE     2000000ECH ST GERMAIN      2150050LA GAMASSE          2100400015050015050          00000000000194      000000                                                                                                                                 140154951 1147    130172521 1317    120165801 1577    110156981 1267    100158821 1707    009397   009903   012454   015370   018026   019600   024785   023486   013227   014258   012232   012300                                      
070003500310015 01020 4113001CAR CD108           0840161LIMITE DEPT43       0941069PEYRABEILLE       B 0890400011024011024          00000000000188      003680 1527    001821   002002   002368   003320   004376   003970   005856   007614   004065   003452   002571   002554               140035801 1427    130032001 1517    120037061 1417    110031941 1507    100000001         001895   002012   002556   003209   003892   004248   005258   007694   003915   003320   002549   002245                                      
070003300310015 01020 4113001CAR CD536           0530729MAYRES              0680187THUEYTS           B 0600000014317014317          00000000000188      005701         003027   003373   003854   004924   006203   006035   007985   009830   006191   005359                                 140053301 1157    130058411 1227    120053841 1167    110054081 1157    100052861 1117    003074   003343   003880   004967   005748   006255   007639   010019   005965   005359   004036   003476                                      
070003200310015 01020 4113001CARD578             0440616CARD536             0530729LALEVADE            0470000009115009115          00000000000105      000000                                                                                                                                 140125871    7    130124861    7    120125591    7    110125711    7    100113301    7    009699   010400   010977   012544   012967   013896   015531   017808   011732   011792   011620   011850                                      