040000900310012 00850 4843001INTER. D404         0190090INTER. N96          0200840GENDARMERIE         0200000001743000065040001100300000000000190      012574                                                                                                                                 110132598         100127838         090123248         080124718    0    070128828    0                                                                                                                                                   
040001000310012 00850 4843001INTER. N96          0200840LIMITE AGGLO.       0210291SUBDI.CHATEAU-ARNOUX0210000000440000000040001100300000000000188      010507                                                                                                                                 110110798         100110488         090110178         080111488    0    070115158    0                                                                                                                                                   
040001100310012 00850 4113001LIMITE AGGLO.       0210291INTER. D4           0260400L'ESCALE            0220500005153004888040001200300000000000188      009063         007402   007650   008274   008639   008901   009460   010190   010376   009117   008408   007734   007439               110091071         100088931         090086821         080087851    0    070090741    0    008398   008542   008933   009471   009704   010093   008492   000000   000000   009916   009078   008458                                      
040001101310012 00850 4813001INTER.D4            0260400INTER.DEV.MALIJAI   0270885MALIJAI             0270300001499000740040001200300000000000190      007403                                                                                                                                 110075318         100074978         090075948         080076278         070077598    0                                                                                                                                                   
040001200310012 00850 4113001INTER.DEV.MALIJAI   0270885INTER. D17          0360220MALLEMOISSON        0330700008162007132040001200100000000000190      013114  527    011520   011973   012735   012847   012844   014072   014722   014986   013777   013362   012594   011850               110133361    8    100132751         090134461    8    080135031         070137361    8    011816   012626   012782   013195   013772   014038   014893   015202   014081   013271   012368   011926                                      
040001201310012 00850 4813001INTER. D17          0360220INTER. N1085        0390945LE ROCHER COUPE     0390850003715003715040001200300000000000202      016601                                                                                                                                 110168908         100168148         090170328         080171058         070174018                                                                                                                                                        
040001202310012 00850 4813001INTER. N1085        0390945Espace Commercial   0410630NOUVELLE SUBDI      0400000001640001640040001203300000000000202      012553                                                                                                                                 110128948         100130108         090129958         080132888         070134108                                                                                                                                                        
040001203310012 00850 4113001Espace Commercial   0410630BD POMPIDOU         0440140DIGNE_W_N85         04200000025000025000400012031          1295      017976                                                                                                                                 110183561    7    100185201         090184891    7    080189021    7    070190731    7    017086   017722   018187   018300   019111   018976   018764   019137   019203   018745   017866   017149                                      
040001205310012 00850 4843001BD POMPIDOU         0440140LA PALE             0440685PONT DAVID NEEL     0440545000545000000040001203300000000000107      007737                                                                                                                                 110079288         100079998         090079928         080081738         070082498                                                                                                                                                        
040001700310012 00850 4113001RD 12               0470290INTER. D907         0570250DIGNE_EST_N85       0500180008487008487050001100300000000000188      004767  867    003598   003797   004343   004536   004859   005345   006331   007059   005277   004444   003892   003662               110048711    7    100048501         090049791    8    080050431    8    070051181    8    003698   004131   004251   004743   004877   005071   006539   007057   005366   004852   003961   003818                                      
040001800310012 00850 4112001INTER. D907         0570250INTER. N202         0750128BARRÊME             0740800017685017285050001100300000000000188      004173  727    002799   003108   003653   003949   004429   004601   006132   006980   004631   003623   003104   002989               110042231    7    100042181         090043541    7    080042471    7    070043261    7    002979   003476   003536   003571   004096   004627   006337   006974   004716   003999   003179   003088                                      
040003200310012 02020 4112001INTER. N85          0000000INTER. D955         0130590GEVAUDAN            0060450013354011302050001100300000000000188      002517                  001159   001269   001971   002666   002843   003659   004243   002767   002718   002356   002210               110027201         100027141         090027741         080027411         070028271         002155   002497   002466   002342   002501   002765   003702   004123   002856   002627   002334   002224                                      
040003300310012 02020 4112001INTER. D955         0130590INTER. D955         0210343SAINT JULIEN        0200050007683006489050001100300000000000188      002452                                                                                                                                 110024791         100024721         090025471         080023251    0    070025001    0    001836   002184   002118   002150   002175   002585   003711   004367   002652   002265   001799   001859                                      
040003400310012 02020 4112001INTER. D955         0210343INTER. D908         0380410ROUAINE             0330620016825015738050001100300000000000188      001552  747    001063   001155   001366   001511   001598   001736   002368   002803   001764   001372   000826   001026               110016241         100016331         090017241    7    080016381    0    070016351    0    001081   001218   001384   001552   001498   001775   002480   002692   001712   001651   001269   001136                                      
040003500310012 02020 4112001INTER.D908          0380410INTER. D2202        0450150PONT DE GUEYDAN     0440850006608006460050001100300000000000188      002563  567    001930   001982   002285   002409   002729   002857   003560   004012   002827   002393   001812   001903               110026241    8    100025511         090029231    0    080023111    0    070025961    8    001928   002207   002269   002443   002485   002915   003758   003987   002798   002516   002086   002043                                      
050000900310012 00850 4113001LIMITE ISERE        0000000CARREF.CD945 LA FARE0220651ST FIRMIN           0050050022581020386050001100338000400031287      003291  717    002324   003027   002944   002912   003204   003448   005028   005902   003284   002643   002283   002433               110034641    8    100034791         090034991    8    080034501    8    070034841    8    002373   003049   003216   003235   002942   003756   005649   005982   003466   002972   002324   002529                                      
050001100310012 00850 4113001CARREF.CD945 LA FARE0220651CARREF.CD944        0330328BAYARD PUYMO        0330290010689009884050001100300000000000989      006366  477    005488   005956   005742   006424   006704   006521   008345   008600   006236   005717   005141   005452               110064001    7    100065081         090065601    7    080064331    7    070062441    7    005209   005898   005759   005803   005863   006495   008084   008606   006313   006552   006051   006094                                      
050001200310012 00850 4813001CARREF.CD944        0330328SORTIE GAP NORD AGGL0351330VARSIE              0350950003015003015050001100300000000001287      008547                                                                                                                                 110085938         100087398         090088098         080086398         070083868                                                                                                                                                        
050001299310012 00850 4853001SORTIE GAP NORD AGGL0351330CARREFOUR EUROPE    0380360AV CDT DUMONT       0360900002781000000050001100300000000001287      008536                                                                                                                                 110085828         100087278         090087978         080086278         070083748                                                                                                                                                        
050001399310012 00850 4853001CARREFOUR EUROPE    0380360SORTIE GAP SUD AGGLO0400726AV.JEAN JAURES      0390100002477000000050001100300000000000394      021841                                                                                                                                 110219588         100223298         090225088         080220738         070214258                                                                                                                                                        
050001395310012 00850 4813001SORTIE AGGLO SUD    0400726ACCES  CAR RD 47    0400964BEL AUREILLE        0400560000238000238050001300305000130030100      016330                                                                                                                                 110166488         100164498         090165098         080158728         070161768                                                                                                                                                        
050001300310012 00850 4113001SORTIE GAP CAR RD 470400964CARREF.CD942 TALLARD0510523GAP SUD N85         0490550010422010422050001300300000000001287      011842 1057    011308   011861   012282   011475   011525   012158   012811   013007   011932   011948   010936   010838               110120721         100119271         090119701    7    080115081    8    070117281    8    011377   012303   012155   011869   012097   012268   013126   013290   012324   011652   011134   011266                                      
050001400310012 00850 4113001CARREF RD 942 TALLAR0510523CARREF A51          0520421LA SAULCE           0520150000687000687050002100300000000000202      016532  727    016280   017310   018535   015368   015015   016070   019724   020479   015600   015269   013735   014882               110165641    7    100162171         090161621    7    080148091    0    070159031    7    016091   018441   017747   016084   014972   016023   019103   019437   015620   015309   014389   015599                                      
050002199310012 00940 4853001CARREF.MUSEE        0700000SORTIE GAP EST AGGLO0720245AVENUE EMBRUN       0710000002042000000050002100300000000001287      019372                                                                                                                                 110196168         100193688         090192368         080189608         070188938                                                                                                                                                        
050002100310012 00940 4113001SORTIE GAP EST AGGLO0720245CARREF.RD 942       0820090GAP EST N94         0750800009851009489050002100300000000001287      012314  467    011321   012154   012226   011584   011669   012993   014300   014434   012150   012203   011477   011216               110124691    7    100123111         090122271    7    080120511    7    070120081    7    011342   012306   012718   011840   012401   012636   014418   014415   012527   011839   011537   011598                                      
050002200310012 00940 4113001CARREF.CD942 MONTGAR0820090CARREF.CD954 BARCELO0980880CAR MONGARDIN       0820150016673015996050002500300000000001287      013956  827    013146   014319   014442   012583   012452   014177   017908   019260   013243   012428   011469   011928               110142951    7    100139341         090139321    7    080136391    7    070137291    7    013099   014905   014985   013016   012838   014244   018370   019123   013746   012613   011556   012953                                      
050002400310012 00940 4113001CARREF.CD954 BARCELO0980880AGGLO SUD EMBRUM    1080800SAVINES-CROTS       1070546008803008015050002500300000000001287      013664  607    012201   013350   014182   011451   011671   013445   019645   021652   012532   011307   010688   011607               110139261    7    100135551         090136941    7    080133761    7    070133871    7    012137   013999   014308   012433   011794   013536   020059   021515   012982   011615   010575   011971                                      
050002501310012 00940 4813001EMBRUN-SUD          1080800EMBRUN-NORD         1140440DEV_EMBRUN          1140000005640005640050002502300000000000409      000000                                                                                                                                 110000008         100000008         090000008         080000008    0    070000008    0                                                                                                                                                   
050002502310012 00940 4113001RD 263              1140440RD 902 A            1280350GUILLESTRE N94      1270234009874009291050002700300000000000199      008849  637    008264   009107   009856   007786   007295   008568   011939   013281   008069   007327   006801   007781               110091141    8    100089471         090091151    7    080089441    8    070089131    8    008185   009618   009685   008018   007468   008792   012493   013949   008242   007709   007062   008062                                      
050002600310012 00940 4113001CARREF.CD902A GUIL. 1280350CARREF.CD994E       1440520ARGENTIERE          1430800015594013008050002700300000000001287      006435  917    005437   006035   006617   005699   005552   006502   009013   009939   006431   005628   004919   005349               110063361    7    100062851         090062461    7    080061321    7    070064401    7    005571   006305   006521   005877   005496   006370   008849   009695   005939   005226   004740   005358                                      
050002700310012 00940 4113001CARREF.CD994E       1440520CARREF.CD2 BRIAN.SUD1590079PRELLES             1520700014248012943050002700300000000000189      007894 1047    003418   003778   004011   003467   003454   004110   005129   005750   003774   003420   003209   003333               110080121 1067    100079191         090000001 1037    080076481 1080    070079051 1097    003407   003880   004027   003613   003534   004160   005342   005815   004083   003559   003302   003380                                      
050002899310012 00940 4843001CARREF.CD2 BRIAN.   1590079CARREF.CD994F AGGLO 1600586BRIANCON AV PROVENCE1590600001550000000050002700300000000001287      007542                                                                                                                                 110077448         100076448         090077978         080151098         070156168                                                                                                                                                        
050003099310012 00940 4843001CARREF.CD994F AGGLO 1600586CARREF.RN91 CH.MARS 1610905BRIANCON AV FORGUES 1610000001339000000050002700300000000001287      006692                                                                                                                                 110068728         100067868         090069228         080067078         070069328                                                                                                                                                        
050003199310012 00940 4813001CARREF.RN91 CH.MARS 1610905AGGLO BRI NORD      1620412LA VACHETTE         1620050000511000000050003200300000000001287      008258                                                                                                                                 110084178         100082868         090084268         080082718         070084768                                                                                                                                                        
050003200310012 00940 4113001AGGLO BRI NORD      1620412SORTIE MONTGENEVRE  1720580COL MTG             1640150010980009660130004300100000000001287      005854  577    005209   006055   006133   004941   004161   005606   008533   010644   005130   004383   004245   005107               110059661    8    100058731         090059721    8    080058621    8    070060071    8    005676   005920   006038   005204   004381   005550   008892   010711   005249   004460   004148   005240                                      
050003220310012 00940 4113001AGGLO BRI NORD      1720580SORTIE MONTGENEVRE  1730390MTG TREMIE          1730120010980009660130004300100000000001287      003084  677    003749   003610   003659   002761   001669   002432   004345   006018   002294   001710   001927   002768               110031791    8    100026181         090025981    8    080025641    8    070027591    8    003918   003782   003850   002872   001823   002294   004727   006087   002260   001860   001600   003006                                      
050003300310012 00940 4113001SORTIE MONTGENEVRE  1730390LIMITE FRONTIERE    1740834POSTE P.A.F         1740600001451001451130004300100000000001287      002778  777    003206   003189   003067   002542   001518   002101   003910   005695   002057   001523   001727   002737               110029091    7    100028611         090029631    7    080031831    7    070031621    7    003878   003454   003396   002669   001531   001827   004079   005763   002030   001698   001739   002784                                      
050002499310012 20940 4843001AGGLO SUD EMBRUN    1100195AGGLO NORD EMBRUN   1120659AGGLO EMBRUN        1100200002359000000050002500300000000000191      006774                                                                                                                                 110040478         100039418         090041148         080044628    0    070117388    0                                                                                                                                                   
050002500310012 20940 4113001FIN AGLO NORD EMBRUN1120659CARREF.CD263        1170420EMBRUN NORD         1130900004776004776050002502300000000001287      005670  877    002818   003033   003201   004177   005687   005787   009797   011145   006357   005593   005169   005063               110033871    7    100032981         090034421    7    080037331    7    070098191    7    002941   003204   003288   003093   003162            004529   004760   003361   003134   002905   002833                                      
130601300310012 00070 1810241BERRE               0000000VITROLLES           2590570ROGNAC              2550450005750005750130601690300000000000589      062192                                                                                                                                 110632138         100622308         090000008         080615818         070637478    0    000000   000000   000000   000000   000000   000000   000000   000000   000000   000000   000000   000000                                      
130601400310012 00070 1810241VITROLLES           2590570VITROLLES Z.I.      2610270VITROLLES NORD SUD  2600500001705001705130601690300000000000589      057522                                                                                                                                 110572798         100567898         090000008         080564648         070584528    0    000000   000000   000000   000000   000000   000000   000000   000000   000000   000000   000000   000000                                      
130601500310012 00070 1810241VITROLLES Z.I.      2610270MARIGNANE           2620120CARREFOUR VITROLLES 2610800000849000849130601690300000000000589      051738                                                                                                                                 110517888         100510838         090000008         080507748         070525888    0    000000   000000   000000   000000   000000   000000   000000   000000   000000   000000   000000   000000                                      
130601600310012 00070 1810231MARIGNANE           2620120RN 113              2640000MARIGNANE           2640000002187002187130601690300000000000589      079954                                                                                                                                 110799348         100788978         090000008         080784448         070812108    0    000000   000000   000000   000000   000000   000000   000000   000000   000000   000000   000000   000000                                      
130601690310012 00070 1110231RN 113              2640300SORTIE L'AGAVON     2650000L AGAVON PMV        2640650000593000593130620500100000000000589      108333                                                                                                                                 111084271         101071831         090000001         081065441    7    071103311    8    000000   000000   000000   000000   000000   000000   000000   000000   000000   000000   000000   000000                                      
130601700310012 00070 1110441SORTIE L'AGAVON     2650000A 55 NORD           2651040L'ANJOLY            2650500001040001040130620500100000000000589      112133                                                                                                                                 111123401         101094211         091098451         081107061    0    071064401    0    106512   109609   112057   113566   120206   117252   116849   114498   118490   113332   104062   101513                                      
130601800310012 00070 1110241A 55 NORD           2651040A 55 SUD            2670280LES PENNES CRICR    2660500001363001363130620500100000000000589      065320                                                                                                                                 110653571         100697871         090000001         080728931 1110    070666811    0    000000   000000   000000   000000   000000   000000   000000   000000   000000   000000   000000   000000                                      
130601900310012 00070 1110341A55 SUD             2670280LES PENNES MIRABEAU 2690000A55 LES PENNES      2680000002450002450130620500100000000000989      099303                                                                                                                                 110991821         101000741         091014441         080987851    0    071000541    0    090854   096640   095631   100657   091098   106959   105616   099945   102997   103336   097944   093217                                      
130601901310012 00070 1110431PENNES MIRABEAU     2690000A 51 NORD           2700585PENNES MIRABEAU     2700000000860000860130620500100000000000589      087414                                                                                                                                 110874231         100882771         090877621         080860261    0    070925921    0    063859   067170   061402   064952   062252   073787   072314   069618   077294   081516   083781   085601                                      
130602000310012 00070 1110231A 51 NORD           2700585A 51 SUD            2710620SEPTEMES A 7        2700833001025001025130620500100000000000589      050434                                                                                                                                 110504371         100586911         090596381         080518261    0    070489931    0    047332   049641   053902   051272   051795   051022   051727   048931   052654   050371   050039   046584                                      
130602100310012 00070 1110431A 51 SUD            2710620ST ANTOINE          2730510SEPTEMES TRON COMMUN2720000001894001894130620500100000000000589      142580                                                                                                                                 111423471         101354421         091402921         081393651         071149041    0    137285   140300   144277   142707   148405   145028   138629   140885   146978   143973   140449   139237                                      
130602200310012 00070 1110431ST ANTOINE          2730510LES AYGALADES       2750080SAINT ANTOINE       2740000001570001570130620500100000000000589      139501                                                                                                                                 111395311         101423401         091452061         081426141         071383791    0    112500   126705   141197   147380   142164   151120   143132   132490   147921   149171   145139   135268                                      
130602300310012 00070 1110431LES AYGALADES       2750080M.I.N.ARNAVAUX      2780915LES  AYGALADES      2760000003402003402130620500100000000000589      133006                                                                                                                                 111336401         101342731         091363901         081372021         071228801    0    108387   114131   112464   116380   114259   119989   114663   107841   116504   118615   113994   109961                                      
130602500310012 00070 1110431LA ROSE             2780915PLOMBIERES          2800130LA ROSE             2800000001210001210130620500100000000000589      087369                                                                                                                                 110874141         101071411         090000001         081125341         071017491    0    000000   000000   000000   000000   000000   000000   000000   000000   000000   000000   000000   000000                                      
130602600310012 00070 1110431PLOMBIERES          2800130ST CHARLES          2820100PLOMBIERES ST CHARLE2810000001975001975130620500100000000000589      073954                                                                                                                                 110740841         100782681         090831251         080781431    7    070739131    0    000000   000000   000000   000000   000000   000000   000000   000000   000000   000000   000000   000000                                      
130615200310012 00500 1110431MENPENTI            0000000LA POMME            0020000MENPENTI            0010000002260002260130620500100000000000589      089192                                                                                                                                 110891951         100901871         090909101         080843521    7    070931341    0    000000   000000   000000   000000   000000   000000   000000   000000   000000   000000   000000   000000                                      
130615300310012 00500 1110431LA POMME            0020000LA VALENTINE        0070507LA VALENTINE        0050000004635004635130620500100000000000589      124858                                                                                                                                 111249471         101248461         091247451         081210331    7    071290651    0    000000   000000   000000   000000   000000   000000   000000   000000   000000   000000   000000   000000                                      
130615490310012 00500 1110431LA VALENTINE        0070507LA PENNE            0100495LA PENNE            0090316002990002990130620500100000000000589      110588                                                                                                                                 111106401         101021991         090948691         080937391    7    071399841    8    000000   000000   000000   000000   000000   000000   000000   000000   000000   000000   000000   000000                                      
130615500310012 00500 1110431LA PENNE            0100495AUBAGNE (A 501)     0120880AUBAGNE OUEST       0110820002392002392130620500100000000000589      110856                                                                                                                                 111107171         101078061         091050061         081072041    7    071282921    0    000000   000000   000000   000000   000000   000000   000000   000000   000000   000000   000000   000000                                      
130615600310012 00500 1150231AUBAGNE (A 501)     0120880AUBAGNE (A 502)     0150303AUBAGNE OUEST       0140000002413002413130620500100000000000589      071387                                                                                                                                 110713641         100708181         090700331         080696831         070750951         065512   067203   069846   071594   073259   073198   077621   077663   072731   070238   067228                                               
130620100310012 00510 1110441SEPTEMES (A 7)      0000000BRETELLE A7         0010080SEPTEMES            0000300000967000967130620500100000000001192      082586                                                                                                                                 110823931         100814381         090805171         080979121    0    070790331    0    095226   099636   099452   102711   099782   106723   101543   093829   103513   105390   099082   096647                                      
130620200310012 00510 1110431BRETELLE A 7        0010080PLAN DE CAMPAGNE    0020925BRETELLE A7-PLAN DE 0020000001848001848130620500100000000000589      125071                                                                                                                                 111254061         101198411         091204711         081204071    0    071169481    0    117989   120779   124518   123711   130985   128464   128288   122714   131644   127595   123881   124057                                      
130620300310012 00510 1110241PLAN DE CAMPAGNE    0020925LES CHABAUDS        0050035BOUC BEL AIR        0050000002111002111130620500100000000000589      105736                                                                                                                                 111057831         101108031         091118101         081105661    0    071072741    0    106827   111226   110015   114554   112516   117486   112618   102427   111461   110327   102358   106192                                      
130620400310012 00510 1110241LES CHABAUDS        0050035LES 3 PIGEONS       0100135CABRIES MARIUS      0060100005116005116130620500100000000000589      071372                                                                                                                                 110717921         100698851         090683161         080671981    7    070696061    0    000000   000000   000000   000000   000000   000000   000000   000000   000000   000000   000000   000000                                      
130620500310012 00510 1110241LES 3 PIGEONS       0100135LUYNES              01303253 PIGEONS-LUYNES    0100300003191003191130620500100000000000589      057200                                                                                                                                 110573351         100560811         090548591         080543271    7    070687371    0    000000   000000   000000   000000   000000   000000   000000   000000   000000   000000   000000   000000                                      
130620690310012 00510 1810241LUYNES              0130325LES MILLES          0140720LUYNES PMV          0140000001393001393130620500300000000000189      066935                                                                                                                                 110668548         100642358         090617188         080610758    0    070774668    8    000000   000000   000000   000000   000000   000000   000000   000000   000000   000000   000000   000000                                      
130620700310012 00510 1810441LES MILLES          0140720AIX-CENTRE          0150770LES MILLES          0150000001358001358130620500300000000000589      109711                                                                                                                                 111094938         101052278         091011258         081001418    0    071267218    0    000000   000000   000000   000000   000000   000000   000000   000000   000000   000000   000000   000000                                      
130620800310012 00510 1850231AIX-CENTRE          0150770RACCORDEMENT A.8    0160515AIX-CENTRE          0160200000751000751130620500300000000000589      078574                                                                                                                                 110787028         100767948         090749348         080742218    0    070938548    0    000000   000000   000000   000000   000000   000000   000000   000000   000000   000000   000000   000000                                      
130620900310012 00510 1850231RACCORDEMENT A.8.   0160515AIX-OUEST(Z.A.C.)   0170826RAC.A8-AIX-OUEST ZAC0170000001319001319130620500300000000000589      089348                                                                                                                                 110892668         100857758         090824268         080836688    0    071057578    0    000000   000000   000000   000000   000000   000000   000000   000000   000000   000000   000000   000000                                      
130635100510012 00550 1111031PORT                0010000JOLIETTE            0020060JOLIETTE            0010442000160000160          00000000000589      045824                                                                                                                                 110457601         100417171         090380311         080414391    7    070465201    0    000000   000000   000000   000000   000000   000000   000000   000000   000000   000000   000000   000000                                      
130635200410012 00550 1150231ARENC               0010349JOLIETTE            0020060JOLIETTE.           0020000000462000462          00000000000589      040317                                                                                                                                 110404281         100394811         090385561         080392391    7    070413771    0    000000   000000   000000   000000   000000   000000   000000   000000   000000   000000   000000   000000                                      
130635300310012 00550 1150231ARENC               0020060CAP PINEDE          0030460ARENC               0020800001406001406          00000000000589      068810                                                                                                                                 110689141         100657751         090627851         080653471    0    070704821    0    048102   050667   050080   052864   051290   052961   051835   051603   052502   052958   049829   049324                                      
130635400310012 00550 1110431CAP PINEDE          0030460CAP JANET           0040660CAP PINEDE          0040305001200001200          00000000000589      050567                                                                                                                                 110505131         100625701         090803401         080553111    7    070429001    0    044762   043433   042533   049753   050426   054431   051935   048912   050076   050991   048760   048493                                      
130635600310012 00550 1110231CAP JANET           0040660MIRABEAU            0050620CAP JANET           0050000000960000960          00000000000589      063227                                                                                                                                 110633561         100659101         090687361         080671491    0    070581311    0    000000   000000   000000   000000   000000   000000   000000   000000   000000   000000   000000   000000                                      
130635900310012 00550 1110231GD LITTORAL         0070150JONCTION A7 SUD     0120880GD LITTORAL         0070279007244007244          00000000000191      066704                                                                                                                                 110666791         100611271         090636181         080638831         070484101    0    058849   064151   066314   065934   070179   070755   068801   065706   070755   067970   065303   065378                                      
130635800310012 00550 1110231MIRABEAU            0050620GD LITTORAL         0070150VERDURON            0070279007244007244          00000000000191      057414                                                                                                                                 110574701         100617951         090673341         080630861         070631911    0    000000   000000   000000   000000   000000   000000   000000   000000   000000   000000   000000   000000                                      
130635901310012 00550 1110231JONCTION A7 SUD     0120880JONCTION A7 NORD    0140000JONCTION A7 SUD NORD0140000001115001115          00000000000589      019172                                                                                                                                 110191781         100181191         090000001         080174421    0    070187961    0    000000   000000   000000   000000   000000   000000   000000   000000   000000   000000   000000   000000                                      
130636000310012 00550 1810241JONCTION A7 NORD    0140000LES PIELETTES       0200495GIGNAC              0150500006078006078130635800300000000000589      068723                                                                                                                                 110686018         100739188         090802298         080736348    0    070737578    7    000000   000000   000000   000000   000000   000000   000000   000000   000000   000000   000000   000000                                      
130636001310012 00550 1810241JONCTION A7 NORD    0140000LES PIELETTES       0200495REBUTY PMV          0160474006078006078130635800300000000000589      070952                                                                                                                                 110710638         100760288         090802298         080770008    0    070769308    0    000000   000000   000000   000000   000000   000000   000000   000000   000000   000000   000000   000000                                      
130636100310012 00550 1810241LES PIELETTES       0200495CARRY               0240130LES PIELETTES       0220000003421003421000000000000000000000589      058337                                                                                                                                 110583178         100588148         090000008         080591458         070592448    0    000000   000000   000000   000000   000000   000000   000000   000000   000000   000000   000000   000000                                      
130636200310012 00550 1810241CARRY               0240130LA MEDE EST         0290400CARRY               0250000005274005274000000000000000000000589      050382                                                                                                                                 110503058         100507448         090000008         080510298         070511158    0    000000   000000   000000   000000   000000   000000   000000   000000   000000   000000   000000   000000                                      
130636300310012 00550 1810241LA MEDE EST         0290400LA MEDE OUEST       0310650LA MEDE EST         0300000002251002251000000000000000000000589      062881                                                                                                                                 110630218         100635748         090000008         080639368         070640438    0    000000   000000   000000   000000   000000   000000   000000   000000   000000   000000   000000   000000                                      
130636400310012 00550 1810241LA MEDE OUEST       0310650MARTIGUES CENTRE    0330190LA MEDE OUEST       0320000001471001471000000000000000000000589      068852                                                                                                                                 110688048         100694038         090000008         080697938         070699108    0    000000   000000   000000   000000   000000   000000   000000   000000   000000   000000   000000   000000                                      
130636500310012 00550 1810241MARTIGUES CENTRE    0330190MARTIGUES SUD       0360400MARTIGUES CENTRE    0350100003280003280000000000000000000000589      055621                                                                                                                                 110554898         100559658         090000008         080562838         070563788    0    000000   000000   000000   000000   000000   000000   000000   000000   000000   000000   000000   000000                                      
130636600310012 00550 1810241MARTIGUES SUD       0360400MARTIGUES NORD      0370980MARTIGUES SUD       0370500001584001584130007000300000000000589      078031                                                                                                                                 110778808         100781668         090000008         080783418         070792808         000000   000000   000000   000000   000000   000000   000000   000000   000000   000000   000000   000000                                      
130636700310012 00550 1810241MARTIGUES NORD      0370980RN 568.             0381061MARTIGUES NORD      0380500001080001080130007000300000000000589      074091                                                                                                                                 110742608         100745378         090000008         080746968         070755928         000000   000000   000000   000000   000000   000000   000000   000000   000000   000000   000000   000000                                      
130004201310012 01130 4810201RN 1453             0600000RD 24               0620440RD 24 EST           0600000002823002823130004300300000000000394      000000                                                                                                                                 110000008         100000008         090000008         080000008         070000008                                                                                                                                                        
130004202310012 01130 4810201RD 24               0620440RN 1453             0640800DEV ST MARTIN       0620500002346002346130004300300000000000394      032749                                                                                                                                 110330248         100333708         090000008         080000008         070000008                                                                                                                                                        
130004300310012 01130 4113001RN 1453             0640800RN 568              0670630ARLES HIPPOLYTE     0660600003037003037130004300100000000000589      033863                                                                                                                                 110340441         100345661         090000001         080000001         070000001         000000   000000   000000   000000   000000   000000   000000   000000   000000   000000   000000   000000                                      
130004400310012 01130 4810201RN 568              0670630ARLES EST RN 570    0760100LES CANTARELLES     0690600008462008462130004300300000000000589      050147                                                                                                                                 110504128         100511838         090000008         080000008         070000008                                                                                                                                                        
130004500310012 01130 4810201ARLES EST RN 570    0760100RD 570              0781239PONT D'ARLES        0781000003376003376130004300300000000000589      061292                                                                                                                                 110617088         100626548         090000008         080000008         070000008                                                                                                                                                        
130004900310012 02960 4810201AX OUEST (A 51)     0000000RN 7                0020000ROCADE OUEST AIX    0000500002267001573130005000300000000000589      068760                                                                                                                                 110691358         100669538         090678498         080670318         070673598    0                                                                                                                                                   
130005000310012 02960 4110201RN 7                0020000RN 96               0051040AIX ROCADE NORD     0040000003186003117130007000100000000000294      060635                                                                                                                                 110614881         100599821         090601621    8    080594181         070597171    8    056905   060598   060613   061578   062044   063289   067249   063561   062615   061387   058071   059848                                      
130617100310012 05010 1150231AUBAGNE (A 50)      0000000AUBAGNE OUEST       0000840AUBAGNE OUEST       0000800000840000840130620500100000000000589      042877                                                                                                                                 110428151         100425701         090415841         080418791         070523271         041269   042269   043607   043161   044093   044029   042204   040323   043808   044243   042658   042132                                      
130617200310012 05010 1150231AUBAGNE OUEST       0000840AUBAGNE NORD        0020589AUBAGNE NORD        0020000001780001780130620500100000000000589      031107                                                                                                                                 110311061         100308241         090306991         080310871    0    070307901    0    030251   031421   030830   032227   031746   032795   030672   027091   031582   032209   030929   029805                                      
130618100310012 05020 1110231AUBAGNE SUD (A 50)  0000000AUBAGNE EST (D 559A)0010619AUBAGNE GEMENOS     0000500001601001601130620500100000000000589      027553                                                                                                                                 110275271         100278291         090268491         080264211    0    070331611    0    028708   028929   028554   030103   027874   029589   028524   025983   029508   030176   029170   029117                                      
130643000310012 05150 1110231A 51                0000000D6                  0010242LIAISON A51 D6      0000000001197001197300000700300000000000589      047972                                                                                                                                 110480921         100457221         090434971         080479481         070000001    0    000000   000000   000000   000000   000000   000000   000000   000000   000000   000000   000000   000000                                      
130644000310012 05160 1110231A 51                0000000A8                  0000915LIAISON A51 A8      0000000000915000915300000700300000000000589      000000                                                                                                                                 110000001         100000001         090000001         080000001         070000001    0    000000   000000   000000   000000   000000   000000   000000   000000   000000   000000   000000   000000                                      
130645000310012 05170 1110231A 51                0000000A7                  0001160LIAISON A51 A7BN    0000000001160001160300000700300000000000589      041501                                                                                                                                 110415411         100405001         090395131         080454871         070000001    0    000000   000000   000000   000000   000000   000000   000000   000000   000000   000000   000000   000000                                      
130006399310012 05470 4152001MARSEILLE           0050000N1547               0050957MARSEILLE 547       0050500000957000957130007000100000000000600      030133                                                                                                                                 110302341         100298841         090295481         080298361    7    070304151    7    000000   000000   000000   000000   000000   000000   000000   000000   000000   000000   000000   000000                                      
130641000310012 05510 1110231A 55                0000000A7                  0001177LIAISON A7N A55L    0000000001177001177300000700300000000000589      000000                                                                                                                                 110000001         100000001         090000001         080000001         070000001    0    000000   000000   000000   000000   000000   000000   000000   000000   000000   000000   000000   000000                                      
130642000310012 05520 1110231A 55                0000000A7                  0001620LIAISON A7BN A55    0000000001620001620300000700300000000000589      035239                                                                                                                                 110352711         100337301         090323421         080355171         070000001    0    000000   000000   000000   000000   000000   000000   000000   000000   000000   000000   000000   000000                                      
130640000510012 05570 1153031A 55                0000000ARENC               0010500LIAISON A7 A55      0000000001500001500300000700300000000000589      015792                                                                                                                                 110157891         100147731         090138221         080157131    0    070179631    0    000000   000000   000000   000000   000000   000000   000000   000000   000000   000000   000000   000000                                      
130006600310012 05680 4110201RN 113              0000000RN 268              0200950ARLES THIBERT       0040500020558020558130007000100000000000589      017133                                                                                                                                 110172821         100179531         090000001         080184131 1260    070000001    0    000000   000000   000000   000000   000000   000000   000000   000000   000000   000000   000000   000000                                      
130006700310012 05680 4810201RN 268              0200950RN 569              0240865LA FEUILLANE        0220900004119004119130007000300000000000589      027667                                                                                                                                 110278498         100267008         090000008         080259098         070262238         000000   000000   000000   000000   000000   000000   000000   000000   000000   000000   000000   000000                                      
130006800310012 05680 4810201RN 569              0240865RN 569              0260673VALIN ARLES         0260000001780001780130007000300000000000589      026714                                                                                                                                 110270198         100268208         090000008         080266918         070270148         000000   000000   000000   000000   000000   000000   000000   000000   000000   000000   000000   000000                                      
130006900310012 05680 4817001RN 569              0260673RN 545              0280867GENDARMERIE DE FOS  0270000002158002158130007000300000000000589      032474                                                                                                                                 110325758         100323398         090000008         080321878         070325728         000000   000000   000000   000000   000000   000000   000000   000000   000000   000000   000000   000000                                      
130007000310012 05680 4110201RN 545              0280867RD 50B PORT DE BOUC 0320026FOS EST             0300500003258003050130007000100000000000595      044884                                                                                                                                 110449681         100436671         090424731 137     080437321 1217    070442561 1187    000000   000000   000000   000000   000000   000000   000000   000000   000000   000000   000000   000000                                      
130007100310012 05680 4810201RD 50B PORT DE BOUC 0320026EB10  MARTIGUES     0340700CROIX SAINTE        0330500002647000000130007000300000000000589      050873                                                                                                                                 110512828         100511838         090000008         080511178         070515148         000000   000000   000000   000000   000000   000000   000000   000000   000000   000000   000000   000000                                      
130007101310012 05680 4852001EB10  MARTIGUES     0340700A55 FIN BDR RN      0351263MARTIGUES           0340000001628001628130007000300000000000589      075546                                                                                                                                 110758208         100751448         090000008         080746968         070755928    0    000000   000000   000000   000000   000000   000000   000000   000000   000000   000000   000000   000000                                      
130007600310012 05690 4812001RN 113              0000000EB10  MIRAMAS       0040000LE MERLE SUD        0010000004104004104130007000300000000000589      009464                                                                                                                                 110095818         100097878         090000008         080099268         070100458    0    000000   000000   000000   000000   000000   000000   000000   000000   000000   000000   000000   000000                                      
130007700310012 05690 4852001EB10  MIRAMAS       0040000EB20  MIRAMAS       0050750MIRAMAS             0040500001206000000000000000000000000000589      000000                                                                                                                                 110000008         100000008         090000008         080000008         070000008         000000   000000   000000   000000   000000   000000   000000   000000   000000   000000   000000   000000                                      
130008600310012 05690 4812001EB20  ISTRES        0190000RN 568              0230939ECOLE DE POLICE     0200000004805004805130007000300000000001295      010677                                                                                                                                 110106948         100104798         090000008         080103378         070104618    0    000000   000000   000000   000000   000000   000000   000000   000000   000000   000000   000000   000000                                      
130009600310012 05720 4115001A 54  VC 114        0090000LE VITTIER          0121380ARLES OUEST 572     0100000005108005108          00000000000589      037805                                                                                                                                 110379621         100381771         090000001         080000001         070000001         000000   000000   000000   000000   000000   000000   000000   000000   000000   000000   000000   000000                                      
130010200310012 15470 4853001RN547               0060000FIN RESEAU ETAT     0080920MARSEILLE 1547      0060000002847000000          00000000000600      000000                                                                                                                                 110000008         100000008         090000008         080000008    0    070000008    0    000000   000000   000000   000000   000000   000000   000000   000000   000000   000000   000000   000000                                      
130016000310012 15690 4813001RN 569              0000000GIRATOIRE DU TUBE   0030868TUBE SUD            0020100003569003569130007000300000000000193      019239                                                                                                                                 110195378         100191428         090000008         080188828         070191098    0    000000   000000   000000   000000   000000   000000   000000   000000   000000   000000   000000   000000                                      
130016100310012 15690 4813001GIRATOIRE DU TUBE   0030868RD 5                0080600TRANSHUMANCE        0050200004733004733130007000300000000000193      016351                                                                                                                                 110163988         100160678         090000008         080158498         070160398    0    000000   000000   000000   000000   000000   000000   000000   000000   000000   000000   000000   000000                                      
130016200310012 15690 4813001RD 5                0080600MIRAMAS             0120994DEV MIRAMAS         0110400004393004393130007000300000000000193      011364                                                                                                                                 110115168         100112848         090000008         080111318         070112658    0    000000   000000   000000   000000   000000   000000   000000   000000   000000   000000   000000   000000                                      
300107050310012 00860 4113001RN 086              0040000RD 994              0050000PT_ST_ESPRIT_DEV    0040000001352001352340003300300000000000197      009734         008986   009138   009559   009920   009624   010457   010846   010629   009637   009936   009163   008878               110100631 8158    100098051         090096601    8    080088051 1218    070090071    8    008627   009242   009587   010291   010109   010676   011912   011704   010523   009781   008984   009250                                      
300000700310012 00860 4142001EB 20 PONT ST ESPRIT0050000RD 980              0120860BAGNOLS NORD        0120857007907006709300000700300000000000589      017260         015731   016050   016977   017491   017827   018021   018786   019165   017644   017266   016388   015716               110148191         100172961         090173031    8    080170941    8    070173361    8    014372   016261   016609   018280   018014   018037   019162   019453   017970   016847   016430   015970                                      
300000701310012 00860 4842001RD 980              0120860RD 43               0130786AGGLO BAGNOLS RN 86 0130200002503000000300000700300000000000192      032403                                                                                                                                 110278218         100278338         090278458    0    080256038    0    070000008    0                                                                                                                                                   
300002500310012 01000 4112001A 9 RD 192          0020000RD 976              0070653ESTEZARGUES         0060800005056005056300003000300000000000589      018882         015973   015875   017953   018929   019448   020853   023529   021989   019685   018313   017347   016539               110193511         100193751         090191921 124     080184441 1000    070188311    0    016163   016995   018407   020268   020064   021349   023746   022228   020063   018965   017072   016711                                      
300002600310012 01000 4112001RD 976              0070653RN 580              0150900ROCHEFORT           0140500008238008238300003000300000000000589      020254         017592   017462   019345   020279   020564   021958   024605   023177   020696   020010   018958   018251               110206241         100205091         090204161         080200041    0    070202401    7    017899   018977   019159   021479   021229   022438   024442   023063   021362   020372   018453   018502                                      
300002700310012 01000 4110201RN 580              0150900LIMITE VAUCLUSE     0190640LES ANGLES          0190500003732003732300003000300000000000290      046579                                                                                                                                 110466411         100477291         090000001         080485311         070000001                  000000   000000   000000   000000   000000   000000   000000   000000   000000   000000   000000                                      
300002899310012 01060 4857001RN 113              0000000EB20 NIMES          0020812PERIPHERIQUE W NIMES0020000003674000000300003000300000000000589      032879                                                                                                                                 110326328         100327098         090330048    0    080371718    0    070238408    0                                                                                                                                                   
300002900310012 01060 4812001EB20 NIMES          0020812RD 907              0050300GUIRAUDON           0040000003810003810300003000300000000000589      025309                                                                                                                                 110251198         100251788         090254058    0    080279568    0    070282998    0                                                                                                                                                   
300003000310012 01060 4112001RD 907              0050300RD 22 LA CALMETTE   0140500NIMES NORD          0050370008022008022300003400300000000000589      027682         026005   025557   027468   027919   027143   028280   029858   028393   028459   028831   028167   026030               110274741         100275381         090277861         080268741    0    070272031    7    025165   026756   026210   028215   027976   028263   028898   027976   028334   028210   027192   026495                                      
300003200310012 01060 4110201RD 982 MOUSSAC      0140500RD 8 BRIGNON        0220000SAINT GENIES        0170750007338007338300003400300000000000589      015799         015424   014991   016481   015930   015741   015921   016697   016878   015729   016066   015390   014285               110164401         100159601         090148601    0    080058361    8    070200031    7    014415   015306   015240   016758   016623   016562   018191   017815   017127   017011   016236   015915                                      
300003201310012 01060 4110101RD 8 BRIGNON        0220000RD 982 PONT DE NERS 0270300BOUCOIRAN           0270000006332004632300003400300000000000301      015492                                                                                                                                 110155091         100151281         090145531         080137811    0    070147131    7    014297   015166   015016   016051   015816   015655   016458   015478   016084   016532   014913   014629                                      
300003300310012 01060 4112001RD 982 PONT DE NERS 0270300EB10 ALES           0390707SAINT HILAIRE       0380700012257010167300003400300000000000589      018554         017808   017243   018946   019020   019087   020069   020470   019360   018553   018298   017261   016465               110182221         100181741         090181311    8    080177461    8    070172281         016396   017356   018117   018140   018133   018946   018413   018561   019112   018871   000000   000000                                      
300003399310012 01060 4852001EB10 ALES           0390707EB20 ALES           0470000ALES                0450000005617000000300003400300000000000589      013418                                                                                                                                 110134738         100132758         090131948    0    080120558    0    070000008    0                                                                                                                                                   
300003400310012 01060 4112001EB20 ALES           0470000LA GRAND COMBE      0570400ST_MARTIN_VALG      0490800010324008844300004601300000000000290      010556  348    009763   009520   010333   010419   010631   011158   011219   011313   011070   011052   010255   009897               110105991    8    100104431         090103791         080101181    8    070103541         009821   010053   009989   010790   010840   010935   011154   011221   011141   010969   010067   010178                                      
300003500310012 01060 4112001LA GRAND COMBE      0570400LIMITE LOZERE       0660828SAINTE CECILE       0650200009457006617300004601300000220030290      003017         002177   002123   002501   002864   003117   003225   004135   004597   003376   003244   002555   002230               110030171         100029891         090030511         080029411    7    070029371    7    002109   002317   002309   003038   003016   003325   004281   004452   003225   003191   002501   002371                                      
300004599310012 01130 4857001A9 N106             0290820EB 20 NIMES         0320195NIMES PERIPH SUD OUE0310000002408000000300004601300000000000301      023939                                                                                                                                 110244068         100243878         090250428    0    080240038    0    070358858    0                                                                                                                                                   
300004600310012 01130 4812001EB20 NIMES          0320195RD 14 BERNIS        0360391DEVIATION DE MILHAUD0330000005034005034300004601300000000000589      018871                                                                                                                                 110192398         100192248         090197408    0    080185688    0    070232438    0                                                                                                                                                   
300004601310012 01130 4113001RD 14 BERNIS        0360391RD 139 VERGEZE      0420395BERNIS              0360480006662006662300004700300000000000589      017339         016112   016159   017285   017396   017895   018814   018930   019107   017596   016865   016246   015618               110176771         100176631         090181371         080180191         070183841         015743   017022   017152   018509   018455   018756   019291   018874   018202   017278   016470   016348                                      
300004700310012 01130 4112001RD 139 VERGEZE      0420395A.9 RN 313          0470480CODOGNAN            0430540005085004465300004700300000000000589      010957         009718   009767   010712   011018   011245   012021   012548   012722   011314   010598   010212   009552               110108371         100107841         090112551         080110681         070112351         009299   010095   010202   011177   011256   011670   012379   012262   011071   010431   010286   009877                                      
300004800310012 01130 4812001A9 RN 313           0470480RN 572              0490420GALLARGUES          0490000001931001931300004700300000010030589      018689                                                                                                                                 110184858         100183958         090191998    0    080214548    0    070165708    0                                                                                                                                                   
300004801310012 01130 4812001RN 572              0490420LIMITE HERAULT      0490798PONT / VIDOURLE     0490798000378000378340003300300000000000189      024144                                                                                                                                 110238658         100236578         090248738         080232058    0    070158088    0                                                                                                                                                   
300006100310012 05800 4842001RN86 BAGNOLS / CEZE 0000000EB 20 BAGNOLS/CEZE  0020980AGGLO BAGNOLS RN 5800000500003748000000300006500300000000000589      010010                                                                                                                                 110100948         100103048         090103508    0    080096188    0    070000008    0                                                                                                                                                   
300006500310012 05800 4112001EB 20 BAGNOLS/CEZE  0020980RD 765A ORSAN       0050834BAGNOLS EST         0020980002844002844300006500300000000000589      013977         013325   013129   014101   013802   013958   014994   015312   014076   014048   014268   013685   012994               110140931         100143851         090144491         080143261    7    070146051         012376                     014645   015090   014880   014537                     014604   013985   013277                                      
300006501310012 05800 4812001RD 765A ORSAN       0050834RD 980 PONT DE NIZON0120606L'ARDOISE           0090903006732005703300006500300000000000589      012211                                                                                                                                 110123138         100125698         090126258    0    080128308    0    070118588    0                                                                                                                                                   
300006600310012 05800 4812001RD 980 PONT DE NIZON0120606A9 ROQUEMAURE       0190085ST LAURENT DES ARBRE0180844006081006081300006500300000000000589      011226                                                                                                                                 110113208         100115558         090116078    0    080129078    0    070120298    0                                                                                                                                                   
340003300310012 01130 4113001LIMITE GARD         0000000EB10 LUNEL          0010670LUNEL               0010200001754001754340003300330000480030490      024144         021180   021223   023468   024186   025135   026589   027860   028230   024774   023527   021747   021650               110238651    8    100236571         090248731         080232051         070234371    8    020269   022189   022606   025144   024891   025707   027484   027388   024203   023056   021385   021934                                      
340003399310012 01130 4813001EB 10 LUNEL         0010670EB 20 LUNEL         0040630LUNEL AGGLOMERATION 0030000002969000000340003300300000000000500      000000                                                                                                                                 110000008         100000008         090000008         080000008         070000008                                                                                                                                                        
340003600310012 01130 4113001EB 20 LUNEL         0040630BAILLARGUES         0140750VALERGUES           0090000010811008088340003600300000000000490      014368         013907   013984   014343   014371   014641   015041   014963   014591   014738   014633   014000   013203               110155541    7    100159041         090141421         080142331         070144241    7    019709   020481   020699   014049   013699   013923   014119   014100   014266   014057   014295   013536                                      
340003701310012 01130 4813001VENDARGUES A9       0150450VENDARGUES D65      0160150VENDARGUES A9 D65   0160000002797002197340003600300000000000180      044826                                                                                                                                 110485278         100496198         090441228    0    080387648    0    070000008    0                                                                                                                                                   
340003702310012 01130 4813001VENDARGUES D65      0160150VENDARGUES LIMITE   0160912VENDARGUES LIMITE   0160700002797002197340003600300000000000180      023927                                                                                                                                 110259038         100264868         090235528    0    080227618    0    070000008    0                                                                                                                                                   
380003800310012 00850 4113001VIZILLE             0560310LIMITE HAUTES-ALPES 1030997LAMURE              0730600050574050574050000900305000090010907      009675                                                                                                                                 110096841         100097561         090098281    7    080095261    7    070095571    7    007458   008742   009153   009764   009570   010512   012109   011781   010100   009819   008671   008443                                      
380003900310012 00850 4813001LA_MURE             0790000LIMITE HAUTES-ALPES 1030994SUD_ISERE           1000000025000024000050000900300000000000409      003291                                                                                                                                 110034648         100034798         090034998         080034508    0    070000008    0                                                                                                                                                   
480002200310012 01060 4812001LIMITE GARD         0000000INTER.D984-JALCRESTE0221003LE COLLET DE DEZE   0100800022038020321300003500300000000001287      002516                                                                                                                                 110025168         100024938         090025458    0    080024478    0    070031248    0                                                                                                                                                   
830616500310012 00500 1110421LA BEAUCAIRE        0660067PONT DES GAUX       0670634LA BEAUCAIRE        0660750001567001567840000202300000000001287      096275                                                                                                                                 110963581         100851131         090752051         080862791    0    070852451    0    000000   000000   000000   000000   000000   000000   000000   000000   000000   000000   000000   000000                                      
830616502310012 00500 1110441PONT DES GAUX       0000000BON RENCONTRE       0680700TOULON OUEST        0670776001085001085840000202300000000000290      102730                                                                                                                                 111028011         100974511         090925231         080951241    0    070977381    0    100876   104405   000000   000000   000000   000000   000000   000000   000000   000000   003274   054793                                      
830616600310012 00500 1150441BON RENCONTRE       0680700VILLEVIEILLE TOULON 0690449BON RENCONTRE       0680765000639000639840000202300061660031287      000000                                                                                                                                 110622521         100759341         091042221         080689831         070730051         000000   000000   000000   000000   000000   000000   000000   000000   000000   000000   000000   000000                                      
830645100310012 00570 1110431TOULON              0000000TOMBADOU            0020565LA PALASSE          0000793002569002569840000202300000000001287      103972                                                                                                                                 111042621         101033721         091024931         080000001    0    070000001    0    092804   102043   101822   106848   103886   110157   109748   108177   107633   106565   101907   099584                                      
830645200310012 00570 1110431TOMBADOU            0020565LES FOURCHES        0030785LA COUPIANE         0030125001217001217840000202300064530031287      115106                                                                                                                                 111150521         101062741         090984321         081098321         071108211    7    000000   000000   000000   000000   000000   000000   000000   000000   000000   000000   000000   000000                                      
830645400310012 00570 1110431LES FOURCHES        0030785LA BIGUE            0040865LES FOURCHES        0040140001079001079840000202300000000001287      093251                                                                                                                                 110931581         100911781         090892391         080000001         070000001         000000   000000   000000   000000   000000   000000   000000   000000   000000   000000   000000   000000                                      
830645490310012 00570 1110441LA BIGUE            0040865PIERRE RONDE        0060655LA GARDE            0050966001773001773840000202300000000000189      085793                                                                                                                                 110858891         100850901         090846241         080894621         070903891    0    000000   000000   000000   000000   000000   000000   000000   000000   000000   000000   000000   000000                                      
830645500310012 00570 1110421PIERRE RONDE        0060655LA FARLEDE          0080700LA FARLEDE          0070875002170002170840000202300000000001287      070719                                                                                                                                 110707751         100708301         090708831         080718871         070714551    0    067173   068592   068240   071573   069711   074507   074413   072707   072280   072428   069904   067745                                      
830002799310012 00980 4856001A 570 HYERES        0000000EB10 HYERES         0100701HYERES OUEST        0100000001100001100830650200300000000000295      035948                                                                                                                                 110359958         100443918         090547458         080576648         070577798    0                                                                                                                                                   
830650100310012 05700 111 131LA GARDE            0000000LA CRAU             0030000LA BASTIDE          00009400030000030008400002023          0290      057538                                                                                                                                 110574861         100573581         090572301         080584081         070585341         051351   053229   047960   058904   059133   062739   067462   069493   059678   056668   052422   050509                                      
830650200310012 05700 111 431LA CRAU             0030000HYERES              0070160LA CRAU             00604550041600041608400002023          0193      058686                                                                                                                                 110586501         100566531         090547451         080576641         070577791         054615   055811   056433   061448   061493   066174   070692   072226   062650   054759   046521   040499                                      
840000100310012 00070 4115001LIMITE DROME        0000000D 994               0050740LAPALUD             0010500005786005786840000202326000250030390      009184         008057   008147   008958   008115   009313   009995   010213   011099   009841   009624   008732   008053               110098461 1937    100094991         090095971 195     080094181 1827    070085681         007957   008643   009031   009879   009742   010610   012515   012297   010438   009677   008856   008393                                      
840000201310012 00070 4112001D 994               0050740A7 PIOLENC          0190200MONDRAGON SUD       0110088013449010468840000202300000000001191      011685  558    010271   010087   011078   011564   011652   012155   013866   013872   012321   011834   011007   010421               110119341    8    100116431         090122931    8    080133791    8    070121501         010218   010816   011073   012076   012210   012876   014330   014060   012257   011707   010823   010669                                      
840000202310012 00070 4112001A7 PIOLENC          0190200D 976               0220000ORANGE NORD         0190800002793002793840000202300000000001291      012314         011115   011071   011892   012270   012368   013021   013735   013898   012836   012441   011789   011273               110134911         100131681         090128511         080129221         070132001         012257   012600   012869   013684   014099   014187   014863   015152   013801   013461   012629   012233                                      
840000300310012 00070 4813001D 976               0220000EB 10 ORANGE        0240000ENTREE NORD ORANGE  0220000002005002005840000202300000000000490      017600                                                                                                                                 110192838         100193178         090193518    0    080211788    0    070181348    0                                                                                                                                                   
840000399310012 00070 4855001EB 10 ORANGE        0240000EB 20 ORANGE        0270485TRAVERSEE ORANGE    0250000003219000000840000202300000000000401      018050                                                                                                                                 110197768         100207588         090217888    0    080184908    0    070146748    0                                                                                                                                                   
840000400310012 00070 4815001EB 20 ORANGE        0270485D 977               0290060COURTHEZON NORD     0290000006372006372840000202300000000000490      015734                                                                                                                                 110172388         100177138         090182018    0    080221388    0    070166288    0                                                                                                                                                   
840001400310012 00070 4117001Charles de Gaulle   0540000D 973               0611156CAUMONT_N7          0600176006996006996840001400100000000000493      038290         037132   035572   038953   039838   035048   040249   042968   037271   040189   039908   036821   035488               110404441         100408711         090413041         080411411    7    070397061    0    035755   038768   040545   042137   040972   042415   044280   039759   041089   039894   039470   040163                                      
840149800310012 00860 4812001N 7 LA CROISIERE    0000000D63 A MOTTE DU RHONE0010929LA CROISIERE        0010132001977001977300107050300000000001090      009683                                                                                                                                 110100118         100097558         090096118    0    080097268    0    070156608    0                                                                                                                                                   
840149700310012 00860 4813001D63 A MOTTE DU RHONE0010929D994                0030200LA MOTTE DU RHONE   0020213001578001578300107050300000000000898      018985                                                                                                                                 110196278         100191248         090188428    0    080161668    0    070104758    0                                                                                                                                                   
840107050310012 00860 4813001RD 994              0030200LIM DEP             0040000PT_ST_ESPRIT_DEV    0040000001008001008300107050300000000000197      009734                                                                                                                                 110100638         100098058         090096608         080088058         070090078    0                                                                                                                                                   
840003800310012 01290 4813001N 7                 0000000N 7                 0000775AUTOROUTE AVI SUD   0000690000775000775840001400100000000000500      018933                                                                                                                                 110196558         100200148         090203798    0    080164078    0    070148708    0                                                                                                                                                   