560002902310012 01660 4810101ECH.DU COUDRAY      0290655ECH.DU CREVY        0350383SAINT ABRAHAM       0320000005728005728560002900300000000000698      015647                                                                                                                                 110165768         100161708 0706    090176498    0    080169798    0    070173618    0                                                                                                                                                   
560002901310012 01660 4817001ECH.DU ROFO         0240735ECH.DU COUDRAY      0290655SAINT MARCEL        0280000004920004920560002900300000000000698      015474                                                                                                                                 110163938         100159918         090159758         080153698         070157158                                                                                                                                                        
560002900310012 01660 4117001ECH.KERCHOUX        0170144ECH.DU ROFO         0240735HOTEL NEUF          0230500007591007591560002900300000000000698      016430 0797    013994   014192   014288   016659   017427   017512   019843   018852   017547   016074   016007   014693               110174051 0688    100169781 0678    090169611 0688    080163171 0728    070166841    8    013590   014893   014920   019152   017154   019623   021694   021505   018278   017258   015460   015191                                      
560002700310012 01660 4117001ECH.DU LIZIEC       0000000ECH.DE KERBOULARD   0170144KERBOULARD          0070600017144017144560002900300000000000698      028992 0727    025670   025647   027690   029986   029890   031067   033026   032423   029995   027998   027925   026471               110289971 0737    100292241 1288    090290881 0598    080277331 0648    070278631    8    025826   027166   026902   031498   029615   031951   033313   032527   028549   027350   026078   027075                                      
560002604310012 01650 4110101ECH. DU MOURILLON   1010650LIM FINISTERE       1090062RN165 QUEVEN PR103  1030000007376007376560002900300000000000806      041320 0857    036774   037605   039255   042233   041655   043123   047157   047816   042852   040128   039500   037585               110419311 0867    100411781 0877    090412231 0867    080384561         070406471    0    036306   039051   039192   043272   041606   044528   047538   048574   043241   041394   039359   038925                                      
560002603310012 01650 4117001ECH.DE KERDUAL      0980398ECH.DU MOURILLON    1010650QUEVEN              1010000003248003248560002900329000000000698      046694 0837    046032   047617   049723   052643   050708   051355   045326   043592   032905   043619   049184   047665               110484431 0937    100507301    0    090507401    0    080501001 0900    070650001    0    045719   049219   049038   053286   042601   046054   049669   049809   047018   050023   050449   048599                                      
560002602310012 01650 4117001LE TOULDOUAR        0920598ECH.DE KERDUAL      0980398DEVIATION LORIENT   0970500005814005814560002900300000000000698      058941 0687    071754   074412   077710   079769   078555   083480   042862   042278   030142   039490   045319   042607               110801501 0827    100726361 0747    090782591    0    080774791 0800    070823001    0    072711   077909   077577   082797   079148   084099   085934   086025   082981   080252   077969   074411                                      
560002500310012 01650 4117001ECH.PRE AUX ETANGS  0870480LE TOULDOUAR        0920598LOCOYARN            0890000005124005124560002900300000000000698      050154 1037    044651   044854   046824   051024   050200   052711   057634   058499   052043   049276   048524   045390               110503731 1037    100497961 1027    090486411         080483371         070506711    0    044946   046609   046921   052422   050012   053304   057207   058580   052004   049807   046592   045797                                      
560002400310012 01650 4117001ECH.OUEST AURAY     0661035ECH.PRE AUX ETANGS  0870480LE CRANIC           0710000021242021242560002900300000000000698      031666 0957    028165   029011   030254   032851   031998   032213   034772   033886   032763   032371   031941   029698               110316841 0947    100323731 0917    090311461    0    080304101    0    070307921    0    028465   029879   030293   033452   032090   033913   035073   034280   031007   032157   030119   029366                                      
560002300310012 01650 4117001ECH.KERBOIS         0650383ECH.OUEST AURAY     0661035TOULCHIGNANET       0650000002387002387560002900300000000000698      035865 0897    030989   031944   033740   036428   036136   037868   042368   042873   036610   035090   034226   031904               110359331 0887    100337901    0    090342941    0    080334841    0    070339041    0    030421   032943   033607   037279   035961   038664   041971   042745   036832   035199   033026   032329                                      
560002200310012 01650 4117001ECH.POULBEN         0630350ECH.KERBOIS         0650383KERFOURCHA          0640000002033002033560002900300000000000698      045365 0797    037953   038940   041920   046825   046834   047540   057168   057493   044643   043321   042168   039161               110452621 0807    100439351 1006    090449161    0    080438541    0    070444041    0             037468   037328   044338   044054                     058032   045409   043954   040589   040148                                      
560002100310012 01650 4117001ECH.EST AURAY       0600678ECH.POULBEN         0630350KERPLOUZ            0620000002714002714560002900300000000000698      046696 0787    041427   041327   043330   048892   048970   045263   054104   060829   047233   044386   043433   040745               110475671 0757    100491891    0    090485181    0    080465121    0    070476201    0    038276   041924   042334   051425   047543   051269   059576   061382   047182   045841   042177   041379                                      
560002000310012 01650 4117001ECH.DU FOURCHENE    0480348ECH.EST AURAY       0600678PLOEREN             0510050012358012358560002900300000000000698      054004 0768    046267   047313   050509   055396   055019   057038   063477   064924   056558   052331   051014   047901               110541581 0658    100545921 0848    090538491 0908    080516601 0768    070528671    8    046085   049992   050501   057956   055191   058910   062657   064609   053406   051180   049831   049280                                      
560001900310012 01650 4117001ECH.DE MENIMUR      0460275ECH.DU FOURCHENE    0480348N165-KERLANN        0470575002085002085560002900300000000000698      063599 0767    055875   056677   060118   065253   064650   067262   072890   073882   066251   061935   060287   057805               110634331 0767    100624721 0847    090623761 0608    080606891 0568    070623381    8    054472   058687   055375   061561   064600   069357   074024   074531   067031   064233   057174   059736                                      
560001800310012 01650 4117001ECH.DU LIZIEC       0420900ECH.DE MENIMUR      0460275DEVIATION VANNES    0450300003392003392560002900300000000000698      060889 0817    052500   054154   055941   059170   061945   064761   071699   072324   064268   059866   058226   055471               110607931 0797    100595891 0807    090604771 0778    080590471 0728    070597871    8    051795   055801   056204   063568   059623   064848   069514   070369   063121   060967   056589   056788                                      
560001700310012 01650 4117001ECH.ST LEONARD      0390000ECH.DU LIZIEC       0420000LE PRAT             04100000029870029875600029003          0698      045025 0857    037523   038359   038976   040334   046587   047745   055978   058324   048036   045215   042805   039944               110457501 0867    100427971         090434101         080423951         070429151         036241   039529   040953   046842   045512   049429   055916   057737   047919   045879   042202   040347                                      
560001600310012 01650 4117001ECH.RD 780          0380140ECH.ST LEONARD      0390916LE POTEAU ROUGE     0390000001780001780560002900300000000000698      050707 0807    044461   045472   047665   052786   051972   049474   059336   062132   049510   048886   049666   046749               110000001         100000001         090531701 0498    080460001 0900    070485441    8                                                                                                                                                   
560001500310012 01650 4817001LA CROIX DE LA LANDE0310880ECH.RD 780          0380140THEIX               0380000006375006375560001800300000000000698      039617                                                                                                                                 110395668         100387648         090393568         080384218         070389108                                                                                                                                                        
560001400310012 01650 4117001ECH.BEL AIR         0060450CROIX DE LA LANDE   0310880LA CORNE DU CERF    0130000024218024218560001800100000000000698      027201 1127    020511   021923   022927   028385   026792   028398   035607   039617   029759   024626   024249   023349               110273951 0958    100269021 0958    090265341 0958    080259081 1177    070260971    8    020127   022144   023645   028837   027275   030659   035353   038128   028998   026750   022975   023402                                      
560001300310012 01650 4117001RD 34               0020000ECH.BEL AIR         0060450PONT DU MORBIHAN    0050000004500004500560001800100000000000698      024636 1267    018565   019988   020645   025585   025372   025483   031838   035061   026481   022989   022192   021168               110247311 1118    100237291 1128    090228561 1128    080226961 1188    070227201 1128    018041   019830   020938   025677   024392   027652   032888   034351   026082   024242   020893   021352                                      
560001200310012 01650 4817001LOIRE ATLANTIQUE    0000000RD 34               0020000LE RODOIR           0010000001000001000440002600300000000000698      024715                                                                                                                                 110249078         100244278         090239098         080230918         070231828                                                                                                                                                        
560001000310012 00240 4817001ECH.KERBLAYO        0900240ECH.PRE AUX ETANGS  0930938ST GILLES           0930000003724003724560000900300000000000698      022511                                                                                                                                 110226578         100222298         090217488         080210138         070212648                                                                                                                                                        
560000900310012 00240 4117001ECH.LANGUIDIC       0840935ECH.KERBLAYO        0900240PONT ER PACH        0890000005182005182560000900300000000000698      023405 1047    020805   021074   022308   024182   023784   024492   025988   026134   024021   023228   022936   021831               110235561 1148    100231101 1148    090226091 1148    080218441 1148    070221041 1158    020420   022011   021881   024979   023283   024803   026356   026483   024063   023822   022406   022092                                      
560000700310012 00240 4817001ECH.RD 768          0710064ECH.LANGUIDIC       0840935BAUD / OUEST        0800000013519013519560000900300000000000698      019069                                                                                                                                 110191938         100188308 1200    090186478    0    080180178    0    070182328    0                                                                                                                                                   
560000601310012 00240 4817001ECH.RD 767          0560126ECH.RD 768          0710064BAUD / EST          0680000013435013435560000400300000000000299      014126                                                                                                                                 110143868         100144508 1200    090138708    0    080134348    0    070136928    0                                                                                                                                                   
560000600310012 00240 4117001LA POINTE           0390150ECH.RD 767          0560126MOREAC              0550000017081017081560000400300000000000698      015144 1497    013270   013291   013885   015954   015505   015730   017652   018085   015566   014565   014425   013711               110153021 1517    100000001         090147141 1507    080142851 1617    070146391 1617    012306   013638   013446   016035   014793   016559   018106   018270   015450   015405   014593   014902                                      
560000500310012 00240 4817001ECH RD 764          0340445LA POINTE           0390150JOSSELIN OUEST      0350000004831004831560000400300000000000698      016701                                                                                                                                 110170088         100170838         090166008         080160788         070163878                                                                                                                                                        
560000400310012 00240 4117001ECH.OUEST PLOERMEL  0220600ECH RD 764          0340445LE NINIAN PLOERMEL  0260100012486012486560000400300000000000498      018515 1317    015879   016202   017136   019553   018995   019202   021115   021463   019081   018031   018263   017182               110188551 1327    100189381 1337    090184021 1317    080178231 1357    070181651 1347    016346   017860   017255   020201   018482   020130   021741   021701   019106   018581   017204   017593                                      
560000300310012 00240 4817001ECH.RN 166          0200640ECH.OUEST PLOERMEL  0220600ROCADE PLOERMEL     0200800001960001960560000400300000000000498      013393                                                                                                                                 110136398         100137008         090133138         080128958         070131438                                                                                                                                                        
560000200310012 00240 4817001RD 766 E            0191293ECH. RN 166         0200640ROCADE PLOERMEL     0200300001253001253560000100300000000000498      029231                                                                                                                                 110300798         100295268         090291648         080282178         070276338                                                                                                                                                        
560000100310012 00240 4117001ILE ET VILAINE      0000000RD 766 E            0191293PORCARO             0050000023493023493560000100335000140010498      022359 1127    017648   018299   019637   024950   024073   023264   027747   028865   023493   020534   020760   018870               110230071 1137    100225841 1107    090223071 1077    080215821 1147    070211351 1027    017330   019357   019317   025828   022528   025921   029566   028730   024267   022535   019973   020496                                      
530016266310012 01620 4843001Ent.Mayenne         0650240N12 x D35 Malécot   0670898Agglo Mayenne       0660000002659000000530016258300000000000190      018094    0                                                                                                                            110181688 1006    100211768    0    090206638    0    080198008    0    070201158    0                                                                                                                                                   
530016265310012 01620 4813001D 24 Moulay         0630620Entrée de Mayenne   0650240Moulay              0650000001620000244530016258300000000000190      018857                                                                                                                                 110189348         100186228         090181718         080174128 1500    070181328    0                                                                                                                                                   
530016258310012 01620 4110101D 131 Louverné      0450110D  24 Moulay        0630620Le Berry            0570812018510018510530016258300000000000494      013231 1418    012707   012352   013634   013406   013173   014227   013375   011785   013865   013931   013542   012788               110132851 1328    100130661 1248    090127491 1268    080122161 1458    070124101 1418    012558   013252   013181   013717   013663   013828   012983   011656   014122   013721   013456   013341                                      
530016242310012 01620 4813001N 162 Gir.Besnier   0410000D 131 Gir.Louverné  0450110Niafles             0410500004110004110530016258300000000000190      022194                                                                                                                                 110222858         100219188         090213878         080204938 0800    070261698    0                                                                                                                                                   
530016239310012 01620 4110201N 157 Ménard        0380812N 162 Gir.Besnier   0410000Roc.Est 3.s         0390500002731002731530016258300000000000191      018640 1517    017927   017890   019212   018646   018101   020177   019252   016307   019490   019872   018966   017880               110185391 1517    100180151 1517    090176881 1457    080179561 1367    070181871 1327    017609   018511   018573   019009   019188   019511   018310   016208   019755   018967   018489   018410                                      
530016238310012 01620 4813001Car.des Bozées      0370438N 157 X D 32        0380812Laval Roc. Bozées 2 0380000001374001374530016239300000000000195      016155                                                                                                                                 110160688         100156148         090153318 0800    080119698    0    070121238    0                                                                                                                                                   
530016237310012 01620 4813001D 21 Gir.La Rouzine 0360064Car. des Bozées     0370438Laval Roc Bozées 1  0370000001258001258530016228300000000000185      008663                                                                                                                                 110088278         100087778         090085608         080084698 1700    070119328    0                                                                                                                                                   
530016236310012 01620 4813001Gir.Thévalles       0350146D21G.La Rouzine     0360064Laval Roc Est 1s    0350500000794000794530016239300000000000189      007895                                                                                                                                 110078538         100076328         090074948 1300    080118558    0    070120088    0                                                                                                                                                   
530016235310012 01620 4813001D103 Entrammes      0290680Gir.Thévalles       0350146La Croix Bataille   0340000005466005466530016228300000000000190      011112                                                                                                                                 110113238         100112598         090109818 0800    080106578    0    070106688    0                                                                                                                                                   
530016228310012 01620 4113001Gir.de Laval        0110420D 103 Entrammes     0290680Entrammes           0280000018260018260530016228300000000000190      008255 1217    007774   007563   008476   008219   008316   008807   008486   007544   008775   008700   008366   008022               110084111 1237    100083631 1217    090081561 1197    080080691 1237    070080771 1217    007835   008351   008277   008720   008787   009188   008236   007532   008941   008521   008372   008217                                      
530016216310012 01620 4813001Gir. de Laval       0110111Pot. de Villiers    0200200L' Aire de la Roche 0160000009907009907530016228300000000000198      008164                                                                                                                                 110083198         100082728         090080688         080079828 1300    070086818    0                                                                                                                                                   
530016208310012 01620 4813001Ent.Chat.Gon.       0070800Gir. de Laval       0110111Ag Château Gontier  0080000003924003924530016228300000000000190      010171    0                                                                                                                            110103648 0706    100088098    0    090085918    0    080085008    0    070065308    0                                                                                                                                                   
530016207310012 01620 4813001Dept.49             0000000Ent.Chat.Gon.       0070800Le Préssoir         0070000007800007800530016228300000000000190      006079                                                                                                                                 110061948         100061598         090060078         080059438 1400    070065308    0                                                                                                                                                   
530001274310012 00120 4813001Sortie d'Ernée      0660600Dpt. 35             0740973La Pellerine        0740000008373008373350000100335000000030194      006929                                                                                                                                 110069758         100068348 1400    090068588    0    080068708    0    070070588    0                                                                                                                                                   
530001266310012 00120 4843001D31 Landivy         0650430Sort.Ernée          0660600Agglo Ernée         0660000001170000000350000100300000000000190      009513    0                                                                                                                            110095768 1006    100082058    0    090082338    0    080082478    0    070084728    0                                                                                                                                                   
530001265310012 00120 4843001D 31 Laval          0640990D31 Landivy         0650430Agglo Ernée         0650000000440000000350000100300000000000190      013567    0                                                                                                                            110136568 0906    100129348    0    090129798    0    080130008    0    070168068    0                                                                                                                                                   
530001264310012 00120 4843001Ent.Ernée           0630956D 31 Laval          0640990Agglo Ernée         0640500001034000000350000100300000000000190      007243    0                                                                                                                            110072918 1406    100113468    0    090113858    0    080114048    0    070117158    0                                                                                                                                                   
530001260310012 00120 4113001D 304 Mayenne       0420894Ent.Ernée           0630956Ernée               0600400021062019799350000100300000000000190      005019 1677    004406   004358   004910   005201   005258   005200   005474   005318   005396   005106   004968   004612               110051501 1667    100050051 1627    090050481 1617    080052001 1300    070058101    0    004458   004822   004849   005571   005288   005510   005547   005443   005449   005189   004930   004741                                      
530001243310012 00120 4843001N12 x D23           0420170N12 x D304          0420894Agglo Mayenne       0420500000724000000530000300300000000000190      008566    0                                                                                                                            110088168 1106    100087228    0    090088178    0    080086618    0    070088768    0                                                                                                                                                   
530001242310012 00120 4843001N12 x N162 x D35    0410050N12 x D23           0420170Agglo Mayenne       0420000001120000000530000300300000000000190      012079    0                                                                                                                            110124328 0606    100122388    0    090123718    0    080121528    0    070124538    0                                                                                                                                                   
530001241310012 00120 4843001Entrée Nord Mayenne 0400208N162xD35            0410050Agglo Mayenne       0400600000842000000530000300300000000000190      012430    0                                                                                                                            110127938 0606    100119408    0    090120698    0    080118558    0    070121498    0                                                                                                                                                   
530001237310012 00120 4813001D 34 X D 7 Coulonge 0360835Ent.Nord Mayenne    0400208Coulonge            0370600003373003373530000300300000000000190      008237                                                                                                                                 110084788         100082538         090083438 0906    080088678    0    070090878    0                                                                                                                                                   
530001212310012 00120 4813001N176 Pré - Pail     0040550D 33 Javron         0160830Javron              0120000012151009665530000300300000000000190      005507                                                                                                                                 110056688         100055188         090055788         080054798 2200    070059228    0                                                                                                                                                   
530001203310012 00120 4813001Dépt.61             0000000N176 Pré - Pail     0040550Margalais           0030000004550003589530000300361000060030190      008592                                                                                                                                 110088438         100086098         090087038 1806    080095918    0    070098298    0                                                                                                                                                   
530000300310012 00120 4113001D 33 Javron         0160829D 34 X D 7          0360853Le Ribay            0280000020024019294530000300300000000000190      005451 1578    004798   004834   005318   005853   005640   005758   005985   005716   005666   005493   005351   004991               110056101 1768    100054611 2248    090055201 2208    080054221 2268    070055561 2500    004784   005283   005373   005993   005808   005984   006099   005872   005844   005655   005388   005230                                      
490003200310012 02490 4813001rd753               0260530autre               0290078N249_32             0280000002550002550490003100300000000000309      016894                                                                                                                                 110166548         100161548         090155428         080149288 1300    070000008    0                                                                                                                                                   
490003100310012 02490 4113001Département Loire/A 0000000RD 753              0260530La Batardière VCA   0200380026565026565490003100344000460030187      023416 1407    021835   021707   023306   023734   023252   025323   025227   023462   024568   023633   023175   021773               110230831 1138    100223891 1208    090215401 1198    080206881 1258    070203971 1268    021347   022162   022315   023456   023513   024280   024201   022557   024268   023825   022679   022382                                      
490002600310012 01620 4113001RD 770 Lion d'Anger 0220000Département Mayenne 0330940N162SOLEIL RNL      0250455013378012253490003100300000000000187      006571 1167    006144   006092   006666   006889   006859   006740   006863   006414   006139   006843   006697   006477               110066041 1237    100065051 0008    090063911 0008    080059941 1297    070059871    8    006087   006385   006429   006895   006860   006995   006783   005934   007035   006862   006544   006450                                      
440537600310012 08440 4150201non renseigné       0240115non renseigné       0270526N844_JANVRAIE(1+2)  0270300003050000000490003100300000000000608      091738 0817    085232   086455   091232   092669   090302   096934   098374   093760   094738   094016   091213   085866               110920681 0807    100904901 0787    090886521 0757    080897861 0807    070926631         083569   089116   090072   094884   094420   095590   098361   093776   095174   092045   090537   087248                                      
440537500310012 08440 4150201non renseigné       0270526non renseigné       0280406N844_D17            0280200000900000000490003100300000000000608      100088 0867    094927   095884   101199   101727   098898   106389   105970   101144   099407   103268   098769   093399               110000001    0    100000001    0    090000001    0    080776001    0    070800481    0                                                                                                                                                   
440537400310012 08440 4150201non renseigné       0280406non renseigné       0290551N844HERBLAIN_M      0280900001000000000490003100300000000000608      089782 0817    084371   085552   088608   090171   088236   094469   095756   092703   092505   091086   089009   084878               110907071 0827    100900121 0797    090000001         080866001    0    070893181    0    082972   088574   089498   094515   092638   093262   095261   092584   093539   091047   088373   086241                                      
440537320310012 08440 4150201non renseigné       0290551non renseigné       0300354N844_ALLENDE_M      0290600000800000000490003100300000000000608      090109 0837    084415   085942   089540   089961   088394   094468   095468   093497   093190   091634   089398   085345               110908241 0837    100908841 0817    090000001         080864001    0    070889961    0    083237   088812   089742   094820   093459   090645   096812   093341   093936   091128   087435   086441                                      
440537200310012 08440 4150201non renseigné       0300354non renseigné       0310490N844_MOULIN_M       0300700001000000000490003100300000000000608      061677 0737    058856   059541   062753   062556   060885   065206   063940   060328   063024   063090   061605   058388               110624171 0747    100615691 0737    090000001         080621001    0    070640001    0    057877   062066   062526   065058   064058   063361   064349   060748   064350   063236   061173   060303                                      
440537101310012 08440 4150201VC 203              0310490VC 109              0310700VC 203              0310600000200000200490003100300000000000695      057821 0787    052685   053579   055955   055887   058779   057490   061708   058548   060979   061225   059992   056855               110563991 0827    100563091 0797    090555711 0787    080567831 0807    070579551    7    052205   056219   056675   058216   057503   057042   058579   055932   058010   057162   055092   054218                                      
440537100310012 08440 4150201Prte de Chézine     0310700Porte de Sautron    0330157VC 109              0320750001874000000490003100300000000000495      064404 0757    061337   062217   065329   064568   062913   068082   066409   061705   065765   066400   065060   063105               110648801 0757    100640921 0737    090629661 0727    080633211 0757    070635471    7    060184   064602   065206   067175   066364   066411   066992   062081   066813   065849   064211   062817                                      
440537000310012 08440 4150201Porte de Sautron    0330157Prte d'Orvault      0340207LE FORUM            0330700001050000000490003100300000000000495      059390 0757    056658   057314   059990   059932   057862   062647   061840   057580   060611   061130   060087   057073               110597521 0777    100589571 0757    090578811 0757    080590671 0807    070606071    0    055616   059311   059882   061225   061377   060818   061730   057206   061554   060734   059366   058288                                      
440536900310012 08440 4850201Porte D'orvault     0340207A844                0341017BOIS CESBRON        0340400000810000000440536805300000000000595      054563                                                                                                                                 110549278         100543998         090498738         080529008    0    070544638    0                                                                                                                                                   
440536805310012 08440 1150241BOIS CESBRON N844   0350000LA CLARTE A11       0360944LA CLARTE           0360500001944000000440536805100000000000193      093779 0967    087985   089065   093779   095542   092788   098705   100070   094899   096825   094085   093441   088168               110944131 0977    100935081 0957    090853941 0957    080924921 0977    070935741    7    086786   092552   093908   098442   097027   096929   098286   092586   097903   095472   092126   091004                                      
440500701310012 00830 1810241D178                0040384Péage A83           0050475La Cour Neuve       0050000001091000000440500700300000000001002      035871                                                                                                                                 110357418         100353028         090345798         080336898         070337148                                                                                                                                                        
440500700310012 00830 1110241RD844 L'EBAUPIN     0000000RD178 LA COUR NEUVE 0040384A801 LES SORINIERES 0040000003864000000440500700100000000000187      062811 1037    056254   056886   060381   064710   062394   066853   070622   069014   065737   062244   061035   057457               110625791 1047    100618091 1047    090605421 1027    080589821 1037    070590211 1047    054874   058757   059121   064438   063310   065730   069195   068719   065695   062306   059379   059210                                      
440500300310012 08110 1150241RD 68 Le Linot      0040878C844 Bellevue       0060757LE LINOT            0050000001879000000440500700100000000000187      036931 0987    035816   035360   037790   037338   036405   040266   037696   032452   038236   039408   037756   034744               110369001 1037    100364121 1037    090338831 1037    080323751 1077    070311091 1077    034161   036512   036357   037959   037973   038165   041580   032441   036401   038023   037277   035982                                      
440500201310012 08110 1815041A11/ RD37 CARQUEFOU 0000000N23 LA MADELEINE    0020948Carquefou           0010000002900000000440500300300000000000298      026915                                                                                                                                 110268938         100265388         090246958         080235968 0900    070159368    0                                                                                                                                                   
440500200310012 08110 1110241RN23 LA MADELEINE   0020948RD68 LE LINOT       0040878LA MADELAINE        0040000001930000000440500300300000000000298      032928 1157    031800   031324   033767   033081   032436   035955   034055   029012   034257   035010   033683   030822               110345251 1207    100332031 1087    090307251 1037    080291461 1087    070281051 1037             032753   032468   033933   033938   036087   042466   033258   035443   033909   033368   032005                                      
440500102310012 00820 1850241A844                0000000N165                0011145La Bugalliere       0010500001685000000440002101300000000000298      025329                                                                                                                                 110254518         100261118         090259128         080252008    0    070258418    0                                                                                                                                                   
440261700310012 08440 4150201non renseigné       0220590non renseigné       0240115N844_LA_BOUVRE      0230400001525000000440002101100000000000608      078789 0907    071513   073611   078264   079520   077553   083828   085376   081260   082091   080461   078223   073710               110786511 0947    100778441 0937    090755661 0947    080750141 1017    070775091         071566   075137   076618   080870   080711   082626   084683   079969   081747   078463   076261   075043                                      
440261500310012 08440 4850201non renseigné       0180402non renseigné       0220590N844_2615           0200000004172000000440261400300000000000608      072770                                                                                                                                 110731468         100715978         090691118         080679178 1206    070650008    0                                                                                                                                                   
440261400310012 08440 4150201non renseigné       0150700non renseigné       0180402N844_REZE           0170900002700000000440261400300000000000608      067457 1137    061880   062927   067354   068314   066348   071875   072335   068870   070274   068676   066987   063598               110678051 1137    100663691 1137    090640641 1147    080629571 1227    070647821         060641   064445   065990   069010   069298   071216   072672   069058   071252   068455   066148   065360                                      
440261300310012 08440 4150201non renseigné       0140473non renseigné       0150700N844VERTONNE        0140740001230000000440261400300000000000608      069350 0837    067422   066652   070723   069704   067878   074326   070878   062402   071786   072442   071208   066921               110689461 0837    100668001 0787    090648461 0767    080633661 0777    070621091         064818   068345   068608   070178   071065   071861   067956   061766   072428   071101   070370   069097                                      
440261100310012 08440 4850201non renseigné       0100425non renseigné       0140473N844_2611           0110000004018000000440261300300000000000608      053594                                                                                                                                 110532828         100516248         090501148         080489718         070480008                                                                                                                                                        
440261003310012 08440 4150201non renseigné       0080323non renseigné       0100425N844_ROUCHES        0090750002100000000440261300300000000000608      060948 0937    060751   059159   063011   062726   061513   066971   061345   048876   063073   064070   062562   057578               110616391 0957    100581441 0947    090565911 0917    080528501 0977    070473181         057750   061037   060064   063810   063429   064055   059367   056091   065448   063919   062678   062262                                      
440213700310012 04440 4150201non renseigné       0020585non renseigné       0060719N444_COUERON        0050010003720000000440261300300000000000608      047169 0977    042065   040620   046235   047899   047078   050775   051446   048779   049663   048739   047476   045064               110474851 0967    100477991 0907    090451801 0887    080452481 0907    070476351         043466   046037   046786   048523   048921   050731   051295   049010   050124   043726   045549   045676                                      
440213500310012 04440 4150201non renseigné       0000000non renseigné       0020585N444_ATLANTIS       0020100002585000000440261300300000000000608      046921 0907    043868   044587   046888   047040   046246   049808   050046   048614   048305   047869   046025   043732               110470271 0897    100465481 0867    090000001         080410001    0    070428001    0    043057   045975   046653   048701   048557   048834   048982   047280   049071   047912   045316   044009                                      
440100300310012 08440 4850201non renseigné       0030080Porte d'Anjou       0070061N844_1003           0030500004325000000440100200300000000000309      068389                                                                                                                                 110672408         100660658         090669808         080667008    0    070657818    0                                                                                                                                                   
440100200310012 08440 4150201non renseigné       0000900non renseigné       0030080N844_BEAUJOIRE      0010500002463000000440100200300000000000608      067543 0927    068101   066961   070456   067441   066868   070990   067176   060131   069550   070686   068467   063863               110664081 0937    100652471 0897    090661501 0867    080658731 0827    070657811         066060   069503   069501   069742   070367   067699   054066   055176   069556   069954   068778   067118                                      
440100100310012 08440 4850201non renseigné       0000000non renseigné       0000900N844_1001           0000500000900000000440100200300000000000309      054826                                                                                                                                 110539058         100529638         090536968         080534728 0806    070657818    0                                                                                                                                                   
440026150310012 08440 4850201non renseigné       0180402non renseigné       0220590N844_2615           0200000004172000000440261400300000000000608      067680                                                                                                                                 110680308         100665908         090642788         080631688         070650008                                                                                                                                                        
440004600310012 02490 4813001RD 763 Vallet       0190689Département 49      0250666Le Clairay          0200000005977005977490003100349000310030187      019962    0                                                                                                                            110196788 1206    100198328    0    090190818    0    080183278    0    070180708    0                                                                                                                                                   
440004500310012 02490 4110201RN 149 Tournebride  0080512RD 763 Vallet       0190689VALLET              0140400011177011177490003100100000000000187      028742 1437    026899   026543   028668   028927   028531   031494   030359   027727   030352   029580   028773   027053               110284601 1417    100275761 1387    090266231 1357    080255211 1397    070257131 1377    026234   027755   027755   029283   029132   030472   029030   026891   030052   029252   028218   027516                                      
440004403310012 02490 4140201RD 844 Bellevue Sud 0000024RD 115 Basse Goulain0040929BELLEVUE-SUD        0010560003590000000490003100100000000000187      045479 1117    043819   043387   046145   045940   044754   049616   046844   041651   047410   047097   046010   043176               110451561 1107    100438451 1037    090000001         080370001    0    070368661    0    042660   045147   045088   046875   046716   047312   043634   040419   047566   046608   045572   044495                                      
440004401310012 02490 4810201RD 115 Basse Goulain0040929RN 149 Tournebride  0080512Haute Goulaine      0070000003583003583440004500300000000000187      035301                                                                                                                                 110349558         100338708    0    090327008    0    080313528 1400    070311978    0                                                                                                                                                   
440004300310012 08440 4150101Porte d'Anjou       0070061Porte du Vignoble   0080323PONT DE BELLEVUE    0070600001262000000440004500300000000000187      079617 0897    077024   075474   080438   079612   076976   084734   081907   072105   083953   084687   082352   076278               110791431 0887    100767241 0897    090769511         080702481 0906    070688351    7    077321   079874   079856   082868   082343   082202   071937   067821   084231   082227   081122   078424                                      
440003802310012 01710 4810201ECHAN TRIGNAC       0860794N 171 CERTE         0880425Certe               0870600001631001631440003700300000000001299      056543                                                                                                                                 110564698         100556018         090550888 0500    080578528    0    070580628    0                                                                                                                                                   
440003801310012 01710 4810201D50 MONTOIR         0840765ECHAN TRIGNAC VC    0860794Trignac E           0860100002029002029440003700300000000001299      051789                                                                                                                                 110517218         100509268         090504568 0700    080556718    0    070558688    0                                                                                                                                                   
440003700310012 01710 4110201RD 4 Les Six Croix  0790118RD 50-RD 971 Montoir0840765MONTOIR             0830530005647005647440003700300000000000187      050731 0707    044753   045212   051048   052407   051218   054175   058137   057011   053145   049411   047446   044589               110506641 0568    100498851 0558    090494241 1258    080471181 0687    070472871    8    043785   046906   047861   054286   052259   055018   056553   055377   052540   050226   047304   045689                                      
440003600310012 01710 4810201RD 100 Prinquiau    0710820RD 4 Les Six Croix  0790118Prinquiau           0750400007298007298440003500300000000000187      035078                                                                                                                                 110361718         100357308         090351978 0706    080354478    0    070352248    0                                                                                                                                                   
440003500310012 01710 4110201RD 217-RD 93 Sablièr0680080RD 100 Prinquiau    0710820N171/D100           0710600003740003740440003500300000000000187      037174 1017    032852   033398   036167   035772   039776   038422   041956   042953   039011   036803   035542   033191               110383321 1007    100378641 1007    090372991 0967    080364051 1037    070361731 1000    032821   035136   035362   041538   039630   042254   043914   042659   039421   038001   035287   033822                                      
440003400310012 01710 4810201RN 165 La Moëre     0650660RD 217-RD 93 Sablièr0680080Savenay             0680000002420002420440003500300000000000187      033485                                                                                                                                 110345298         100341088    0    090336008    0    080327878 0900    070276448    0                                                                                                                                                   
440003300310012 01710 4113001RD 164 Blain        0490302RN 165 La Moëre     0650660BLAIN               0500000016358016358440003500300000000000187      007938 1248    006829   006887   007547   007908   008354   008490   009072   009314   008510   007838   007420   007033               110078581 1248    100076151 1238    090076871 1178    080076831 1348    070077101 1158    006668   006138   007219   008302   008209   008794   009123   009120   008348   007990   007182   007072                                      
440003200310012 01710 4843001ROUTE DE NOZAY D164 0480035LE GRAVIER D15      0490302Blain Agglomeration 0480500001461000000440003300300000000000298      012654                                                                                                                                 110125278         100121408 0706    090119128    0    080119078    0    070119508    0                                                                                                                                                   
440003100310012 01710 4812001RN137 NOZAY         0360000RD164 BLAIN         0480035La Grigonnais       0430000012035012035440003300300000000000298      006194                                                                                                                                 110061338         100059458         090060018         080061668 1103    070060228    0                                                                                                                                                   
440002600310012 01650 4110201RD16 Nord           0520137DEPARTEMENT 56      0651000HERBIGNAC           0610800012667012667440003300100000000000193      025187 1357    018813   020306   021110   026277   026180   026200   033115   036559   027341   022795   022388   020889               110253821 1347    100248921 1347    090243641 1367    080235301 1467    070236221 1417    018527   020376   021719   026638   024974   028277   033634   035694   026522   024717   021225   021840                                      
440002500310012 01650 4810201RD 16 La Sapinière  0450535RD16 Nord           0520137Pontchateau         0490000006602006602440002600300000000000187      028862                                                                                                                                 110290868         100285258    0    090279208 1006    080234478    0    070235408    0                                                                                                                                                   
440002400310012 01650 4110201RN 171 La Moëre     0330440RD 16 La Sapinière  0450535PRINQUIAU           0400400012095012095440002600300000000000187      028133 1097    022491   023705   024735   029423   028628   029754   034580   036638   029932   026384   025946   025182               110280641 1117    100277141 1107    090269391 1097    080258821 1107    070261351    7    022130   023938   025364   027848   027806   030581   034974   035968   029509   028024   024760   025483                                      
440002301310012 01650 4110201RD 93               0150020MALVILLE D965       0230044LE TEMPLE           0220530008050008050440002600300000000000696      054260 0968    047024   048523   050700   055979   054482   056455   062770   062642   056532   052151   054555   049138               110540251 0988    100534091 0998    090497311 0888    080501031 1208    070516011    8    046284   049492   050568   056878   054644   057004   062063   061287   056058   053931   049968   049805                                      
440002300310012 01650 4110201RD49                0210204RN 171 La Moëre     0330440MALVILLE            0300500012236012236440002600300000000000187      054234 1007    046085   047453   050335   055342   054609   056523   063893   065345   056922   054400   050474   049059               110550261 0967    100550401 0967    090555241         080478001    0    070495001 1000    045673   049511   051064   057111   056071   059292   064581   063798   057396   055771   050053   049586                                      
440002201310012 01650 4810201D201                0100543D93                 0150020Deviation Sautron   0120000004477004477440002301300000000001002      069442                                                                                                                                 110691428         100683548         090636478         080641248 0800    070589008    0                                                                                                                                                   
440002101310012 01650 4110201L 'ESPERANCE (A821) 0080000GUILLOCHERIE (D201) 0100543SAUTRON             0080560003305003305440002301300000000000187      030053 1087    026315   026791   028951   031847   031446   032464   035911   032139   030263   029546   028960   025905               110301811 1067    100309791 1047    090307471 1087    080300711 1157    070306531 1117    023981   027916   028783   034528   031991   032987   030703   032716   031705   031034   028195   027629                                      
440002001310012 01650 4843001D75                 0070126A82                 0070902L'esperence         0070500000776000000440002101300000000001002      025087                                                                                                                                 110252198         100258648         090256648         080251198         070258008                                                                                                                                                        
440001302310012 01370 4110201RD 537 Les Pavillons0730646Département 35      0810736DERVAL              0730900008090008090440002101100000000000190      024466 1407    019934   020811   022051   025372   024823   026209   029222   030186   026450   023818   023074   021521               110243701 1447    100240151 1487    090241121 1447    080233641 1487    070236211 1517    019463   021414   022121   025352   024263   026924   029462   029375   025743   024136   021966   022009                                      
440001301310012 01370 4810201RN171 NORD GRANDJOUA0650105RD537 LES PAVILLONS 0730646Tournebride-Gd Jouan0690000008541008541440001302300000000000298      026752                                                                                                                                 110266488         100262608 1206    090249748    0    080230428 1500    070244818    0                                                                                                                                                   
440001201310012 01370 4110201RN 171 Sud Créviac  0610120RN 171 Nord Grandjou0650105NOZAY               0620000003985003985440001302300000000000187      034200 1407    029203   030454   031952   034872   034567   036533   039175   039304   036801   033942   032889   030601               110340191 1417    100333611 1407    090327971 1387    080318561 1427    070321941 1447    028488   030892   031545   035289   034358   036754   039134   038335   036299   034072   031672   031223                                      
440001100310012 01370 4810201RD237 BOSSE LANDES  0450174RN171 SUD CREVIAC   0610120Saffre              0540000015941015941440001000300000000000298      029239                                                                                                                                 110289328         100284268         090272558 1206    080245788    0    070248498    0                                                                                                                                                   
440001000310012 01370 4110201D75                 0290682D237                0450174ORVAULT             0330260015487015487440001000100000000000187      038335 1028    034588   034866   037015   038751   037875   041339   041983   039912   040407   039431   038300   035500               110379331 1167    100372661 1038    090357631 1068    080354341 1178    070358231 1058    033634   036104   036306   038823   038652   040214   040822   038771   040340   038533   036650   036304                                      
440000900310012 01370 4850201A844                0280536D75                 0290682Ragon               0290000001577000000440001000300000000000499      049414                                                                                                                                 110488968         100480378    0    090461008    0    080464248 1200    070437778    0                                                                                                                                                   
350711700310012 01760 4810201RN 137              0290618limite 22           0330575La ville es Nonais  0300500003764003764220003900322000390030309      018856                                                                                                                                 110173288         100186368         090183528 1200    080198458    0    070202008 1100                                                                                                                                                   
350071000310012 00840 1110241RD 92               1000750Echangeur RD 92     1080245A84_LIFFRE          1070180007333000733220003900300000000000309      034047 1307    030687   030459   033095   035058   034484   036363   037300   035126   036160   034595   033700   031478               110344821 1327    100331641 1297    090325751 1297    080324381 1307    070341891 1100    030049   032114   032423   036155   035487   037123   037488   035759   036769   034897   033069   032386                                      
350070000310012 00840 1110241Echangeur RD 92     1080245Echangeur RD 794    1160550GOSNE               1110200008305000000220003900300000000000101      029816 1387    026599   026413   028547   030906   030407   031734   033039   031641   031760   029846   029395   027440               110303961 1377    100292141 1347    090287241 1287    080277401 1237    070278221 1200    026726   028594   028242   031818   031037   032713   033455   032236   032198   030557   028780   028347                                      
350069500310012 00840 1110241Echangeur RD 155    1350525Limite Dép Manche   1460400LA JUTAIS (Montours)1420020010875000000220003900350000000000199      018852 1647    015120   015637   016788   020248   019916   019892   022555   023638   020706   016944   017955   016732               110193461 1687    100184021 1687    090182161 1697    080172431 1757    070167941 1700    014790   016222   016842   020441   019472   021588   023909   024323   020187   018976   018133   017071                                      
350069000310012 00840 111 241Echangeur RD 18     1290390Echangeur RD 155    1350525ESSART (St Etienne e13409350061350000002200039003          0199      019187 1647    015361   015828   017014   020333   020109   020123   023066   023911   020598   019259   017836   016655               110195001 1657    100187661 1637    090185071 1647    080176031 1767    070179511 1847    015087   016581   017281   020777   019885   021219   024058   024378   020476   019215   017478   017342                                      
350068500310012 00840 111 241Echangeur RD 794    1160550Echangeur RD 18     1290390LA MEULE (St Jean/C)11803320128400000002200039003          0199      027243 0948    023840   023744   026001   028889   028063   029004   030698   029967   029126   026323   026478   024697               110276721 1148    100264721 1138    090260381 1138    080254401 1607    070255681 1188    023296   025047   025398   029101   028238   029922   031231   030552   029392   027744   026275   025749                                      
350067500310012 00840 1110241Echangeur RN 136    0970000RD 92               1000750THORIGNE (A84 EX-16)0980705011670000000220003900300000000000100      036408 1127    033329   033019   035628   037281   036599   038784   039135   036486   038678   037436   036361   034115               110368331 1147    100354551 1137    090346961 1137    080339101 1177    070341891 1100    032746   034794   034842   038385   037746   039466   039237   037108   039170   037472   035906   035107                                      
350067000310012 01360 4110301RD 97               0230490A 84                0260450CALENDROU (RN136 15-0240335002960000000220003900300000000000199      054159 0987    049362   049410   052100   055660   054473   056447   057907   052619   057391   056877   055037   052575               110535761 0957    100523751 0977    090504401 0937    080490361 0997    070496051 1000    047880   051815   050736   056375   054191   057033   056986   052394   056188   054475   052073   052835                                      
350066000310012 01360 4110301Echangeur A 84      0260450Echangeur RD86/RD 290270990LA GRAVELLE (RN136 10260981001945000000220003900300000000000199      041115 1187    037336   037861   039832   043848   042857   044556   046546   042856   039841   037679   040035   040037               110423681 1147    100420941 1157    090400091 1177    080400331 1207    070403961 1200    038361   041316   040281   045226   040700   043873   046247   043744   042816   041769   041417   042688                                      
350065000310012 01360 4110201Echangeur RD 86/RD 20270990Echangeur RN 157    0300260LE VAU MARTIN (RN1360290084002270000000220003900300000000000199      045511 1167    041124   041456   043648   047063   045505   048410   050101   045723   047043   046739   045741   043520               110446761 1147    100434421 1157    090429001 1147    080415831 1217    070422051 1200    038657   042636   042217   047043   044479   047541   048455   045014   046750   045562   043255   044499                                      
350061000310012 01360 4110201Echangeur RD 175    0210410RD 97               0230490LES BOIS (RN136 14-10220569002085000000220003900300000000000195      060220 1037    055894   055967   059706   061654   060274   063439   063910   057931   063138   062566   061033   057120               110594591 1017    100582231 0987    090569271 0897    080545081 0977    070544701 1000    053719   057996   057108   062450   060537   062584   062114   057208   062627   060473   058201   058600                                      
350060000310012 01360 4110201Echangeur RN 137    0180527Echangeur RD 175    0210410ST GREGOIRE (RN136 10190390002883000000220003900300000000000195      066676 0977    062987   062751   066961   067839   066661   070205   069800   063063   069735   069231   067695   063215               110658401 0967    100643421 0947    090631481 0927    080609241 0937    070625381    0    060227   064760   063749   068816   067161   068791   067877   062212   069532   067058   065110   064966                                      
350022210310012 01360 4110301Echangeur RN 24     0140152Echangeur RN 12     0150571BARRE-THOMAS (RN136 0140779001396000000220003900300000000000197      098683 0707    096912   096237   102716   097418   098818   103862   097914   087448   103686   103918   100566   094894               111008341 0817    100997561 0827    090995561 0817    080989531 0847    071005101    0    095688   101664   100896   103959   103372   103672   099454   090614   106863   104185   101649   098483                                      
350005400310012 01760 4110201RD 155 Ouest de Dol 0170555RN 137              0290618ROZ - LANDRIEUX     0240000011992000000220003900300000000000187      017205 1387    012961   013521   014809   018553   018588   017913   022296   023561   018307   015791   015580   014395               110176171 1397    100178621 1387    090177091 1327    080171851 1387    070164371 1100    013619   015406   015578   019851   014321   019040   023651   024730   018222   017065   015008   014755                                      
350005300310012 01760 481 251RD 80               0140747RD 155              0170555                    01602000027860000003500050003          0187      015899                                                                                                                                 110161628         100158458         090158398         080152718         070154348                                                                                                                                                        
350005000310012 01760 411 251Département Manche  0000000RD 80 Est de Dol    0140747BAGUER PICAN        0120000014630000000350005000350000450030187      013181 1407    008636   009372   010450   014882   014895   013479   018180   020327   014184   011722   011564   010287               110133991 1168    100131361 1178    090131311 1168    080126601 1427    070127951 1208    008664   010301   010588   015432   011718   015194   019398   021130   013822   012960   010753   010578                                      
350004301310012 01640 4813 51RD 166              0110458Limite Dép 22       0131020St Meen le Grand    01308000022870000003500009003220      30187      009730                                                                                                                                 110098028         100095598         090095248         080092838         070094138                                                                                                                                                        
350004300310012 01640 4813 51RN 12               0000000RD 166              0110458Montauban           00300000107490000003500009003          0187      010469                                                                                                                                 110105468         100102858         090102488         080099898         070101298                                                                                                                                                        
350004100310012 01570 4110201RD 292 Noyal/Vilaine0380420RN 136              0410815NOYAL/VILAINE (RN1570400000002803000000350000900300000000000187      060744 1327    055920   056447   059505   063479   061260   063409   065555   059736   062533   061767   060912   058368               110611631 1327    100600611 1307    090590531 1297    080578091 1367    070590541 1300    054379   058824   058345   065300   061242   064723   065053   060080   063778   062301   059461   060524                                      
350004001310012 01570 4110201Echangeur RD 101    0330225RD 286              0380420Brécé N157_EX2      0340025005190000000350000900300000000000187      049704 1367    044637   045675   047833   052854   050699   051451   055083   051212   051004   049647   049248   047028               110500391 1397    100497261 1367    090489611 1357    080487131 1407    070450171    0    043591   047661   047451   054759   050397   053362   051581   054056   051463   049164   047819   049171                                      
350004000310012 01570 411 251Echangeur RD 857    0280853RD 292 Noyal/Vilaine0330225BRECE (Servon/Vilain03202000034260000003500009003          0187      045643 1308    040469   041630   043549   048964   046705   046699   051022   048083   047156   045228   045046   043080               110463511 1318    100457531 1417    090451271 1308    080444551 1447    070454741 1398    039626   042873   043263   050383   045946   049638   051781   048773   047925   046812   044017   045055                                      
350003900310012 01570 4810201Echangeur RD 777    0170198Echangeur RD 857    0280853St-Didier           0200000011661000000350003700300000000000187      032698                                                                                                                                 110330408         100322508 1506    090321478    0    080310068    0    070320458    0                                                                                                                                                   
350003800310012 01570 4810201Echangeur RD 178    0120000Echangeur RD 777    0170198Torcé               0150188005190000000350003700300000000000187      028865                                                                                                                                 110291678         100284708 1606    090280798    0    080270828    0    070279908    0                                                                                                                                                   
350003700310012 01570 4110201Département Mayenne 0000000Echangeur RD 178    0120000VITRE (Mondevert)   0050800012009000000350003700353000170130187      028477 1937    022639   025392   025023   030901   029169   028439   034401   034609   028922   025997   028665   027460               110287741 1917    100280861 1907    090284431 1837    080274331 1977    070283521 1900    021650   024600   024977   031592   027076   031945   035897   035026   029348   028972   026151   027779                                      
350003000310012 01370 4110201RD 34 Chartres      0380750Entrée Rennes Alma  0430391LE HILL (RN137 OC-060410060004641000000350003700300000000000187      048624 0937    045393   045475   047811   048824   048634   052211   051407   047956   051193   049580   048849   046159               110487381 0947    100473721 0937    090461071 0937    080450621 0987    070456771 1000    044217   047330   047079   050647   049449   051466   051042   047543   051812   049393   047684   047276                                      
350002900310012 01370 4110201RD 41               0310355RD 34 Chartres      0380750PONT PEAN (RN137 EX-0370190007394000000350003700300000000000187      047889 1097    044569   044520   047192   049528   049501   050073   050148   047024   050603   049007   047761   044727               110480841 1107    100000001    0    090000001    0    080000001    0    070000001    0    043343   046482   046513   049886   049110   051078   050641   046576   051327   048873   046989   046262                                      
350002700310012 01370 481 251Echangeur RD 777    0160636RD 41               0310355Bourg des Comptes   02500480143780000003500025003          0187      033530                                                                                                                                 110335878         100323528         090314108         080307368         070315508                                                                                                                                                        
350002500310012 01370 411 251DEP 44              0000000Echangeur RD 777    0160636BAIN de Bretagne    01200520163830000003500025003440       0187      027701 1417    023347   024006   025593   028737   028030   029758   032433   032737   029889   027422   026502   023857               110277481 0868    100267271 0818    090259481 0828    080253911 1537    070260631 1288    022807   024750   025351   028836   028005   030234   032678   032020   029526   027652   025526   025409                                      
350002300310012 01360 4110201Echangeur RN 12     0150571Echangeur RN 137    0180527QUINCE (RN136 12-13)0170900002956000000350002500300000000000195      073881 0807    073607   075675   079843   079980   070444   070617   070398   064070   069868   075611   080773   075984               110755971 0857    100745051 0847    090715091 0817    080728111 0800    070748371    0    070093   074715   073973   077308   076983   077086   076684   075154   080017   075505   075661   074141                                      
350002200310012 01360 4110301Echangeur RD 177    0120063Echangeur RN 24     0140152CLEUNAY (RN136 08-090130146002108000000350002500300000000000187      099654 0907    098103   096915   103186   100455   099008   103786   099681   090025   102966   103719   101707   096448               111015191 0867    101012941 0847    091007611 0837    080997731 0867    071018581    0    097780   103269   102394   105771   103464   103892   099273   090445   105979   104070   102289   100151                                      
350002100310012 01360 4110201Echangeur RD 837    0100536Echangeur RD 177    0120063ST JACQUES (RN136 070110495001478000000350002500300000000000196      086239 0907    084032   083442   088407   087156   085895   088998   087954   079483   088978   089315   088115   083171               110870171 0937    100852531 0927    090842151 0907    080847371 0937    070863591    0    082172   086837   087490   090571   088764   088566   085888   079736   090875   089435   087798   086360                                      
350002000310012 01360 4110201Echangeur RN137 Alma0090084Echangeur RD 837    0100536ALMA (RN136 06-07)  0100000001448000000350002500300000000000187      087522 0877    085633   084808   089859   088555   087089   090996   089073   080157   090425   090367   088973   084439               110891171 0917    100885591 0897    090895521 0877    080886761 0917    070903591    0    085112   089608   089052   092652   090489   091747   088495   080707   092893   091139   088993   088877                                      
350001901310012 01360 4110201Echangeur RD 463    0050162Echangeur RD 163    0060631N136_04.05          0050976001471000000350002500300000000000309      069122 1147    067390   066357   070756   070179   068242   072698   070978   062965   071830   071928   070269   065971               110704171 1177    100693001 1177    090687461 1167    080675741 1237    070687251 1200    066448   070169   069671   073160   071374   073149   070509   063989   074820   072432   070714   068873                                      
350001900310012 01360 4110201Echangeur RD 163    0060631Echangeur RN137 Alma0090084CHAUFFERIE (RN136 050080000002451000000350002500300000000000187      081317 1057    079822   078450   083448   082566   080740   085293   083241   074336   083931   083862   082453   077759               110828091 1097    100814121 1077    090809471 1067    080797151 1137    070814561 1100    078603   082866   082192   086061   083945   085312   082604   075435   087290   085074   082802   081852                                      
350001722310012 01360 4110201autre               0010483D386 Bd Urbain      0030555N136_02.03          0020172002000000000350002500300000000000309      058045 1217    055441   054584   058086   059398   057520   061487   060786   054283   060578   059779   058754   055889               110591221 1267    100580051 1257    090571191 1257    080559391 1327    070568881 1200    054554   057619   057458   062075   059841   061769   060495   055362   062596   060542   058775   058518                                      
350001720310012 01360 4110201D386 Bd Urbain      0030555Echangeur RD 463    0050162CHANTEPIE (RN136 03-0030738001577000000350002500300000000000187      061815 1117    059830   059026   062554   062779   060735   065298   064093   058424   064057   063461   063021   058577               110629501 1207    100618051 1157    090611601 1137    080599621 1197    070611781 1200    058682   061733   061851   065630   063913   065735   063841   058192   066766   064579   062839   061810                                      
350001711310012 01360 4110201Intersection N157   0000000autre               0010483N136_01.02          0010084001483000000350002500300000000000309      049589 1297    046731   046216   049347   051081   049368   052567   052638   047324   052076   050891   049951   046907               110506091 1367    100492791 1367    090483401 1357    080472921 1447    070480501 1200    045903   048911   048860   053406   051166   053349   052614   048348   053681   051771   050253   049155                                      
350001600310012 00240 4810201RD 61 Plélan        0320520Département 56      0390565Coetquidan/Breil du 0360409007045000000560000100356000010030187      021196                                                                                                                                 110218118         100214108 1006    090206568    0    080199858    0    070195728    0                                                                                                                                                   
350001500310012 00240 411 251RD 69 St Thurial    0190377RD 61 Plélan        0320520TREFFENDEL          02403500129500000005600001003          0187      026463 1037    021866   022380   023941   026985   027787   027730   032075   032251   028189   025134   025175   023853               110271761 0358    100267611 0358    090264021 0348    080257701 1047    070263841    8    021587   023705   023600   030036   026554   030202   033549   032600   028102   026885   024375   024711                                      
350001401310012 00240 4110201RD 288 2ème ceinture0080587RD 34               0110142N24_OG.OH           0090623002555000000560000100300000000000187      030675 0947    026401   027261   028598   032783   031871   032121   035011   034397   031953   029714   029662   028227               110310381 0947    100304711 0937    090300541 0917    080294231 0957    070298201 1100    025951   028374   027863   033285   030257   033839   036348   034909   032139   031131   028908   029322                                      
350001400310012 00240 4810201RD 34               0110142RD 69               0190377Bréal/Montfort      0150488008484000000350001500300000000000187      031622                                                                                                                                 110324758         100319808 0806    090297168    0    080290058    0    070296978    0                                                                                                                                                   
350001300310012 00240 4110201RD 224 Est D'Apigné 0050061RD 288 2ème ceinture0080587LE RHEU (RN24 OH-10_0060075003526000000350001500300000000000187      028194 1157    024629   025024   026533   030176   029221   029424   032031   031448   029369   027271   027122   025977               110289881 1187    100286741 1167    090266381 1107    080272631 1087    070273341 1100    024373   026658   026249   031310   028611   031453   033638   032457   030100   028916   026802   027175                                      
350001200310012 00240 4110201Sortie Rennes Lim Co0020000RD 224 Est D'Apigné 0050061Les 3 Marches (RN24 0030900002760000000350001500300000000000187      033071 1047    029680   030617   031526   034488   034440   034750   035539   034421   034896   032833   031961   031672               110342711 1067    100343341 1037    090341571 1017    080343461 1037    070350321 1000    029761   032284   032441   035688   034031   036300   038461   036022   036316   034670   032437   032767                                      
350001100310012 00120 4110201RN 164 Ech.St Meen  0930007Département 22      1001040QUEDILLAC           1000608007978000000350001500322000010030187      023189 1357    019429   020311   021244   024177   024101   023179   027182   026951   024640   022542   022675   021709               110236401 1357    100231791 1327    090231091 1417    080224581 1457    070229481 1400    019227   021171   021363   025456   023924   026068   027553   026936   024437   024102   021665   021639                                      
350001000310012 00120 4810201RD 71 Montauban     0900903RN 164 Ech.St Meen  0930007Montauban           0910375002083000000350000900300000000000187      027504                                                                                                                                 110277078         100270208 1400    090292888    0    080285468    0    070289468    0                                                                                                                                                   
350000900310012 00120 411 251RD 72 Bédée - Bignon0820266RD 71 Montauban     0900903COUCAL (Montauban)  08700000085790000003500009003          0187      034992 1377    030924   031601   033327   036094   035380   036397   038596   037083   036865   035278   034713   033556               110352491 1228    100343741 1218    090342481 1218    080333801 1318    070338471 1248    030243   032813   032832   037415   035767   037830   038422   036906   036627   036121   033851   034082                                      
350000800310012 00120 4810201RD 21 St Gilles     0730268RD 72 Bédée - Bignon0820266St Gilles Ouest     0760000008905000000350000900300000000000187      043569                                                                                                                                 110438898         100428008 1206    090391458    0    080381538    0    070386878    0                                                                                                                                                   
350000701310012 00120 4810201RD287 Pont de Pacé  0700144RD 21 St Gilles     0730268St Gilles Est       0720250003014003014350000900300000000000187      041441                                                                                                                                 110417468         100407108         090405618         080395338         070400878    0                                                                                                                                                   
350000700310012 00120 4110201RD288/RD29 Pacé     0670795RD287 Pont de Pacé  0700144N12_EX.OI           0680595002320000000350000900300000000000187      052306 1087    048698   048722   051620   053093   052388   055046   055169   049970   054658   053991   052993   051305               110518311 1087    100509471 1067    090506331 1057    080493611 1107    070502121 1000    047144   050419   050043   054822   053384   054671   053013   049272   053648   053173   050658   051799                                      
350000600310012 00120 4110201Sortie Rennes Lim Co0630000RD288/RD29 Pacé     0670795PACE  (RN12 OI-11_1)0650300004463000000350000900300000000000187      000000    0                                                                                                                            110546991 1027    100555561 1017    090557881 1017    080530001 1077    070538541 1000    051994   055143   054371   058480   057257   058233   055833   052187   056837   057234   055981   043238                                      
350000201310012 00120 4113001RD 706              0140000RD 18/A84           0190680Romagné (barreau Fou0160200006085000000350000900300000000000187      013925 1087    013321   012852   014277   014117   014054   014723   013889   012392   014846   014439   014129   014059               110139251 1077    100135461 1057    090132901 1057    080128441 1107    070122091    0    013044   013830   013778   014507   014250   014478   013579   012525   015031   014435   014110   013597                                      
350000101310012 00120 4813 51RD 124              0050947RD 706              0090317Beaucé              00807000033690000003500001003          0187      010305                                                                                                                                 110103738         100101638         090101988         080102158         070104948                                                                                                                                                        
350000100310012 00120 4113001Département Mayenne 0000000RD124               0050947FLEURIGNE           0040440005893000000350000100353000120030187      006258 1967    005325   005578   006079   006400   006535   006505   006898   006906   006670   006187   006185   005811               110062991 1807    100061711 1777    090061921 1747    080062021 1727    070063711 1500    005313   005743   005879   006497   006241   006738   006980   006993   006715   006512   006026   005924                                      
290003602310012 02650 4110201Keradrien           0040200Kervao              0060210Keradrien           0040920002038002038350000100300000000000187      024270 0817    023464   023937   024073   024848   023849   025380   026000   023176   024407   024749   023990   023401               110244961 0797    100227231 0807    090193161 0867    080182911 0917    070172811    0    022644   023786   024177   025221   024847   024372   024534   024697   025945   025232   024042   024447                                      
290003601310012 02650 4810201poul ar feunteun    0020370Keradrien           0040200Brest               0030500001830001830290003602300000000000187      032623                                                                                                                                 110329278         100305448         090259658         080245888         070232318                                                                                                                                                        
290003600310012 02650 4110201Kergleux            0000000poul ar feunteun    0020370Le relecq Kéruon    0010400001577001577290003602300000000000187      027800 0867    026198   026570   028199   027845   027468   029384   030373   026800   028246   028635   027702   026169               110284311 0857    100275031 0857    090267221 0857    080256301 0907    070250391    7    025927   027464   027918   028936   028979   030190   029800   028263   030150   028898   027615   027041                                      
290003500310012 01650 4110201RD 33A Plougastel   1110000RN 265 Entree Brest 1140540PONT DE L'IROISE    1130300003540003540290003602300000000000187      046500 2608    044453   044018   047508   046347   046698   049048   049587   044448   047830   047861   046120   044032               110468281 2648    100462751 2678    090457711 1898    080448851 0408    070482781    8    044087   046400   046137   048847   047706   048486   047017   045247   049197   047449   046376   045130                                      
290003400310012 01650 4810201RD 29 Echang Plougas1090350RD 33A Plougastel   1110000Le Fresq            1100000001620001620290003200300000000000187      033940                                                                                                                                 110336428         100339008    6    090355068    0    080344838    0    070348928    0                                                                                                                                                   
290003300310012 01650 4110201RD 770 Echang Daoula1010560RD 29 Echang Plougas1090350Ty Ar Menez         1080000007815007815290003200300000000000187      030661 0487    028736   028699   030675   030487   030598   032139   034131   030996   031588   031118   030074   028614               110294451 0507    100319601    0    090315771    0    080306671    0    070310291    0    026357   027742   027391   028373   028775   029775   030483   031385   032338   031147   030276   029230                                      
290003200310012 01650 4110201RD 18 Echang de Hanv0920600RD 770 Echang Daoula1010560Run Bleizy          1000700008936008936290003200300000000000187      027143 0777    024715   024924   026705   027003   027084   028087   031529   029227   028053   027129   026464   024688               110269041 0787    100271101 0817    090267841 0807    080260111 0837    070263161    7    024733   025327   022974   027696   027643   026830   029912   029790   028626   027505   026336   025375                                      
290003100310012 01650 4810201RD 42 Echang du Faou0900900RD 18 Echang de Hanv0920600Le Faou             0920000001705001705290003200300000000000187      026195                                                                                                                                 110234978         100236668         090233838         080227098         070229748                                                                                                                                                        
290003000310012 01650 4110201RD 770 Echang Pont-B0780950RD 42 Echang du Faou0900900La Douffine         0820500011890011890290003200100000000000187      023581 0877    021436   021698   023019   023488   023595   024572   027118   025159   024491   023706   023127   021483               110238951 0877    100237591 0847    090231041 0767    080226951 0908    070225651    8    021449   022748   022628   024894   024050   025457   026043   025576   024887   023925   022933   022120                                      
290002900310012 01650 4810201RN 164 Echang Chatea0760800RD 770 Echang Pont-B0780950Rozlann Vihan       0770200002140002140290003000300000000000187      021429                                                                                                                                 110230078         100228778         090222478         080218448         070217288                                                                                                                                                        
290002800310012 01650 4810201Inter RD 41         0700160RN 164 Echang Chatea0760800Kervetous           0720500006571006571290002700300000000000187      023098                                                                                                                                 110244018         100246108         090240208         080231778         070229588                                                                                                                                                        
290002700310012 01650 4110201RD 61 Echang Briec  0630200Inter RD 41         0700160Kerhoantien         0690286006980006980290002700100000000000187      024675 0897    022536   022409   023864   024216   024773   025992   028094   026344   025383   024866   024694   022824               110246821 0888    100248901 0808    090242931 0778    080234391 0877    070232181    8    022558   023922   023776   024759   024271   025388   026692   026320   026172   024899   024243   023170                                      
290002600310012 01650 4110201RD 139 Echang Gourvi0520900RD 61 Echang Briec  0630200Rupeleter           0620000010225010225290002700100000000000187      029660 0767    027517   027583   029316   029506   029329   031232   033081   031081   030379   029964   029254   027610               110300691 0757    100299061 0707    090289381         080283941 0708    070279871    0    027431   028209   028889   030885   030217   031687   032204   031516   031296   030296   029200   028910                                      
290002500310012 01650 4810201Inter RD 15         0490250RD 139 Echang Gourvi0520900Tréorel             0490600003327003327290002700300000000000187      024827                                                                                                                                 110247098         100249258         090243258         080234728         070232498                                                                                                                                                        
290002400310012 01650 4110201RN 2165-RD 765 Troya0440800Inter RD 15         0490250Keraud              0460800004034004034290002700100000000000187      025686 1017    022787   023609   024924   025912   024969   026508   029931   028968   026679   025690   025078   023088               110259231 1007    100257851 1007    090247881 1017    080223351 1097    070211311 1087    022625   024359   024764   026628   025778   027581   029183   029420   026798   025524   024270   024053                                      
290002300310012 01650 4810201RD 70 Echang Coat Co0340000RN 2165-RD 765 Troya0440800Keréonnec           0360000010546010546290002200300000000000187      027949                                                                                                                                 110279738         100276008 0800    090276458    0    080267458    0    070255758    0                                                                                                                                                   
290002200310012 01650 4110201RD 24 Echang Kérampa0250850RD 70 Echang Coat Co0340000Trouec              0300260008358008358290002200300000000000187      026042 1137    021295   022320   023511   026608   025675   026822   031557   032798   030703   024321   023924   022859               110260641 1137    100257161 1137    090254041 1147    080245761 1207    070235011 1187    021149   023047   023596   027234   025747   028274   031796   033212   026802   025162   023381   023111                                      
290002100310012 01650 4810201RD 4 Echang Kérandré0180150RD 24 Echang Kérampa0250850Miniou              0220900007665007665290002200300000000000187      025763                                                                                                                                 110252738         100249378         090246358         080238338         070227878                                                                                                                                                        
290002000310012 01650 4810201RD 783 Echang Kervid0090150RD 4 Echang Kerandré0180150La Croix de Kerdute 0150550009071009071290002200300000000000187      026835                                                                                                                                 110268588         100265008 1006    090268588    0    080259838    0    070248498    0                                                                                                                                                   
290001900310012 01650 4110201RD 765 Echang Kerfle0020950RD 783 Echang Kervid0090150Kerjouanno          0070200006209006209290002200300000000000187      028504 1147    023305   024417   025545   029209   028652   029226   034183   035825   030065   029444   027433   024545               110284861 1167    100275341 0998    090274871 1078    080265861 1148    070268131 1118    023355   024948   025583   029780   027853   030632   034130   036145   029184   027685   026636   025636                                      
290001800310012 01650 4110201Departement 56      0000000RD 765 Echang Kerfle0020950L'Ille              0000800002963002963290002200356000260430187      034341 0927    029941   030759   032134   035473   034869   035947   040113   041322   035616   032829   032131   030786               110000001         100000001         090354991         080336251 0828    070348641    0                                                                                                                                                   
290001700310012 01640 4110201RN 2164 Pleyben     0380290Inter RN 165        0460337Coatiborn           0420200007363007363290002200300000000000187      009859 1067    008936   008827   009526   009579   009781   010191   011376   010723   010257   009948   009826   009291               110098421 1077    100097031 1077    090096461 1057    080093091 1037    070094251    7    008891   009321   008760   009948   009709   010305   011363   010725   010368   009890   009572   009233                                      
290001601310012 01640 4110201RD 21 Kerannou      0280030RN 2164 Pleyben     0380290La Garenne          0320000009627009627290002200300000000000187      007067 1327    006354   006307   006787   006861   006964   007222   008372   007506   007271   007161   007135   006822               110070201 1228    100068191 1198    090066251 1198    080064051 1317    070064161 1138    006200   006599   006564   007203   006895   007271   008278   007556   007258   006984   006813   006590                                      
