160000100310012 00100 411 251DEPARTEMENT 79      0000000ECH NORD.RUFFEC     0050000RUFFEC              0020930005279005279170000200386000090030187      016233 3707    013896   013962   015209   016757   016195   016596   018644   019659   017092   016037   015684   014956               110162771 3957    100157651 4047    090155131 4047    080152421 4397    070153581 4117    013786   015178   015390   017162   015955   016802   018972   019086   016849   016122   015163   014927                                      
160000102310012 00100 411 251ECH NORD.RUFFEC     0050000ECH NORD ANGOULEME  0450000AUSSAC              0270080040619039586170000200300000000000187      018307 3397    016190   015984   017573   019030   018530   018911   020102   021279   018690   017934   018218   016777               110162751 3637    100178851 3677    090116301 3737    080175051 3877    070169311 3697    016178   017399   017751   019336   018325   019271   021040   014668   015094   009558   009921   017118                                      
160000401310012 00100 415 251ECH NORD ANGOULEME  0450000RN 141 LES PLANES   0500950L EPINEUIL          0470300006347006347170000200300000000000187      036803 2587    033550   031955   036180   037341   036174   038875   040981   039319   038677   036512   036823   035083               110358981 2687    100348861 2627    090035911         08      1         070213051 1567    032344   032577   032446   037833   037070   038240   039901   036979   036589   036389   035055   035074                                      
160000402310012 00100 411 251RN 141 LES PLANES   0500950RD 699 ST. MICHEL   0530900GIRAC               0530650002969002969170000200300000000000187      029975 2937    027547   026343   029426   030312   029273   031405   033197   032043   031183   029564   030306   028971               110297641 3067    100287081 3057    090232211         080101121         070236131 1717    027033   029032   029782   030935   030074   031071   032417   030421   029588   029621   028202   028939                                      
160000800310012 00100 411 201BARBEZIEUX NORD     0800000BARBEZIEUX SUD      0880750BARBEZIEUX          0820500008823008823170000200300000000000599      019874 4567    018954   018139   018928   019960   018971   019624   022016   022614   020026   019873                                 110202731 4517    100186931 4707    090172771 4697    080172651 4897    070173711 4817    018957   020293   020366   021244   019808   020954   022630   022262   020571   019769   018457   017964                                      
160000902310012 00100 411 201BARBEZIEUX SUD      0880750DEPARTEMENT 17      1011148REIGNAC             0900000013161013161170000200317000010030187      020946 4327    018192   019113   020220   021927   020507   021740   023583   023984   021557   020379                                 110207501 4507    100218011 4487    090197411 4227    080197981 4647    070197431 4427    017791   019791   019845   021841   021043   021583   024429   022966   021128   020487   019159   018888                                      
160001502310012 01410 4110201RD 13 LA ROCHEFOU.  0430000RN 10 ANGOULEME NORD0700000RUELLE              0580500019284018513170000200300000000000187      021152 2007    018818   017858   020328   021217   021025   022571   023966   023580   022502   021455   020829   019542               110205411 2017    100198521 1977    090192111 1887    080184881 1967    070171301 2087    018237   019281   019648   020882   020249   021100   023044   022473   021697   020847   020100   019138                                      
160001601310012 01410 4113 51RN 10 RTE COGNAC    0680000RD 736 JARNAC       0940160BOURRAS             0860170025948025113170000200300000000000187      013706  847    012056   011364   013011   013776   013830   014743   015897   015373   014869   013521   013182   012763               110137021  857    100131451  837    090130431  817    080122481  867    070124351  877    011911   012475   013016   014212   014088   014889   015594   015036   014646   013583   012861   012049                                      
160001700310012 01410 4113001RD 736 JARNAC       0940160RD 736 MONTAGAN     0960400JARNAC              0950023002255002255170000200300000000000193      011668  947    010314   009818   011083   011880   011975   012738   013820   013849   012946   011610   010667   010643               110117391  977    100109451  917    090110151  877    080101601  857    070103651         010106   010828   011219   011911   011528   012544   013702   013632   012794   011845   011232   010136                                      
160001802310012 01410 411 201RD 736 MONTAGAN     0960400GIR. CHA BERNARD    1050130GENSAC              1030059008587008560170000200300000000000187      018352  867    016324   015509   017393   018151   018353   019799   021001   019979   019641   018501                                 110179661 1177    100174511 1117    090175931  967    080168471  927    070169241         015974   016557   017368   015972   018832   019470   020325   019583   019310   018218   017333   016516                                      
160001901310012 01410 4153 51GIR. CHA. BERNARD   1050130GIR. CROIN          1100000COGNAC              1080960005137005137170000200300000000000187      017206  827    014435   014705   016781   017262   017653   018742   019827   019451   018460   016611   016383   016065               110174601  747    10      1         09      1         08      1         07      1                  015181   016678   018222   017686   018381   018950   018965   018899   017339   016400   015879                                      
170000300310012 00110 411 251DEPARTEMENT 79      0000000RD 116              0090272BENON               0080000009375009375170000300379000080230187      012687 1107    010414   010387   011830   013216   012554   013663   015370   015767   013943   012054   011932   010971               110128431 1077    100124781 1187    090122061 1127    080117391 1147    070119501         010428   011420   011591   014180   012899   014491   015440   015241   013598   012883   011707   010942                                      
170000601310012 00110 411 251RN 137              0270000RN 137 RN 237       0350150DOMPIERRE SUR MER   02808500081460081461700012003000       0187      035225  827    030791   030921   033112   035810   035716   037813   040459   040708   037760   034397   033570   031498               110348121  867    100340801  887    090334811  887    080322211  917    070331891         028553   032297   032868   036899   035892   038244   039284   038715   008813   007231   032290   031806                                      
170001701310012 01370 411 251RD 937              1120000RN 11               1170000PERIGNY             11700000050310050310000000000          0187      063999  677    058499   058295   061809   064705   063607   068317   070196   068912   067365   065400   062539   058282               110636411  677    100601301  667    090577341  617    080600971  707    070616151  707    056421   060920   062249   064900   065039   067331   068412   067936   066851   063606   061146   058793                                      
170002100310012 01410 4813001DEPARTEMENT 16      0000000RN 150 SAINTES      0160700CHERAC              0130900016846016846000000000016000200030187      014636  927    012424   012146   013755   014509   014817   015755   017490   018418   016018   014295   013658   012685               110145418  937    100142078  897    090140328  887    080124998  967    070122438         012299   013049   013632   015547   015046   016119   017619   016848   015577   014549   013503   012619                                      
170002101310012 01410 4113001RN 150 SAINTES      0160700SAINTES RN 137      0210225SAINTES ROCADE S-E  01802000044700044701700029003000       0187      019516  977    016867   016547   018564   019384   019908   020957   022679   023292   020913   019347   018378   017127               110195981  967    100190001  937    090187441  947    080170261 1017    070172061  977    016677   017698   018560   020496   020218   021064   022384   022999   020558   019373   018143   016889                                      
170002700310012 01500 4113001N 137 SAINTES       0470000RD 728              0500000GATERAT             0490670002959002959170002900300000000000187      011811  457    010039   009790   010910   011852   011845   012508   014182   015064   012658   011355   011004   010417               110121061  457    100119271  447    090121071  447    080179191  547    070204421         010585   010919   010938   012603   012051   013327   014538   015307   012806   011822   010880   010588                                      
170002900310012 01500 4113 51RD 117              0710058ROYAN EB 10         0770470MEDIS               0760000006412004816170002900300000000000187      016126  487    013004   013108   014654   016186   016793   017403   020611   022046   016983   014867   014187   013485               110162101  507    100164641  517    090161311  507    080151011  547    070152971  537    013379   014255   014809   017842   016468   016545   020774   021561   016457   015294   013522   013692                                      
170003001310012 02370 411 251RN 137              0000000FIN RN 137          0090230LA DESCENDERIE      0020000009267009267170003001300000000000187      063681  697    058747   057147   061268   064807   063742   068447   069755   066732   066960   064280   062077   057505               110625931  707    100620181  687    090618621         080603681         070554221  847    055721   059970   061755   064225   061225   066726   068108   062662   067509   064615   061101   056127                                      
330500501310012 00620 111 241A 630               0000000ECHANGEUR LA PRADE  0090992CADAUJAC(S73)       0030000011083011083000000000000000000000194      066375 1087    061724   063633   066051   063745   067830   069462   070356   069343   067787   066152   065343   063745               110664341 1097    100629981 1067    090639941 1037    080623661 1137    070589791         060804   064815   066589   066761   067243   069030   071094   068746   068718   066650   063588   062723                                      
330500600310012 00630 181 241A 630               0000000ECHANGEUR CESTAS    0060000CESTAS(S62)         00600000061770061770000000000000       0187      064364 1627    055481   056514   060310   064953   063481   063908   072315   080027   066502   058253   058372   055971               110668828 1707    100669198 1707    090652598 1637    080650338 1737    070638418 1707    057846   060852   062407   069411   066505   070740   080494   081145   068629   064894   060514   058097                                      
330550601310012 00630 181 241ECHANGEUR CESTAS    0060000RD 211              0110830CESTAS(S64)         00706000058080058080000000000000       0187      060681 1667    052475   053336   056749   060712   054925   065936   081520   078489   060579   055766   054197   053014               110628488 2657    100640008 2197    090624498         080629558         070581548         054199   055743   056658   064550   063065   067049   077844   078663   063322   060557   056587   054697                                      
330522100310012 06300 181 241A 10                0000000ECHANGEUR LA BARDE  0050000ECHANGEUR LABARDE   00200000049540049540000000000000       0188      106125  647    102249   099246   106311   104269   105061   112562   111646   104629   107816   110450   107518   101735               111065368  637    101035798  637    091022628  627    081018268  657    070984448  627    098777   103304   108186   107078   110469   107599   110042   103000   111524   107313   106648   104244                                      
330502102310012 06300 111 241ECHANGEUR LA BARDE  0050000RD 1                0100600CANTINOLLE(S08déport00808000059320059320000000000000       0187      078196  887    074632   074738   076602   076718   077361   083285   083996   081725   080172   081345   077648   070123               110785561  86     100773401         090760771         080778851         070000001         072108   075390   078719   079264   081356   079774   082637   080718   082322   078074   076817   075305                                      
330502201310012 06300 181 241RD 1                0100600ROCADE SORTIE 9     0140000EYSINES(S11)        01103000036660036660000000000000       0187      083355  747    080595   079820   084345   082117   082744   088051   087662   085926   085075   083649   083723   076513               110839928  777    100847008 1017    090835178  997    080830798 1027    07      8         078714   078270   083984   085549   087868   086605   086988   082360   087914   083691   082519   080181                                      
330502202310012 06300 111 241ROCADE SORTIE 9     0140000ROCADE SORTIE 11 B  0170330LE CHUT(S16)        01500000030970030970000000000000       0187      085548  647    083372   083534   086633   083982   085116   090826   088691   085854   086820   086777   085693   079354               110865071  667    100867861  857    090852791  837    080853411  847    070345721         081964   083595   087853   087674   090037   088860   087595   082780   090695   086676   085896   083122                                      
330502300310012 06300 181 241ECH. 11             0170330ECH. 15             0250000PESSAC(S19)         01703300074240074240000000000000       0187      086989  567    087194   088159   086993   084894   084393   092834   088610   082823   089067   089009   088477   081786               110884918  557    100879738  537    090867548  527    080872058  557    070929268  517    083713   088916   092320   089374   093009   092958   088160   080707   093090   087082   089251   083388                                      
330503100310012 06300 181 241ECH.16              0260600ECH.19              0310000CHANTELOISEAU(S28)  02702000039170039170000000000000       0187      115443 1147    109195   109203   116016   114626   110775   110837   122714   116708   110831   125205   122102   114974               110518428         100515658         090518658         080517298         070531498         048263   049846   052210   052627   053428   055021   052499   053851   055132   051480   050121   047382                                      
330523402310012 06300 181 241ECH.19              0310000ECH.21              0331224LA HOURCADE(S32)    03103450039240039240000000000000       0187      131529 1297    122850   123800   130619   131558   129305   137568   142715   140303   135366   130452   128542   124952               111334328 1307    101309698 1307    091323088 1267    081198568 1307    071254608         130459   127455   131636   135031   133145   139055   143667   139980   134746   131640   125897   126140                                      
330513400310012 06310 111 241A630                0000000BEGLES              0021290BEGLES-A631(S50)    00100000027250027250000000000          0187      070477  387    069056   069230   071083   070306   070009   075094   070172   060979   072227   074075   072937   070816               110710841  397    100703611  377    090702371  397    080684221  437    07      1         068308   070515   074055   072239   074514   074322   068622   061662   073394   072000   072468   071076                                      
330505000310012 06600 1110241A 63                0000000FIN 2X2 VOIES       0060664MIOS SIREDO         00300000060070060073305050003000       0187      023135  677    018689   019336   021740   022080   023189   024752   026896   027968   025085   002132   000990   000306               110227631  777    100234821  737    090204301  707    080009351         070224101         020048   021468   022724   026463   023295   025237   026354   026327   023798   022235   020261   019198                                      
330505100310012 06600 1113041FIN 2X2 VOIES       0060664RD 3                0100400Facture             0090000003758003758330505000300000000000187      019954  587    015594   015014   018485   019457   020983   021997   024334   027037   022204   018328   017827   016196               110182331  587    100204361  587    090190991  537    080182591  547    07      1         016535   017756   018177   021268                              023067   019884   019033   017065   016356                                      
330000102310012 00100 411 251RD 18               0100137RN 137              0200120PEUJARD             01700770093980093983300003013000       0187      036994 2527    034694   033832   037225   037378   036949   036040   039595   038344   038375   037836   037565   035934               110364241 2647    100352051 2637    090327141 2597    080328801 2877    070320841 2807    033347   035616   035872   037703   037115   038289   039058   036777   037957   037257   034056   033044                                      
330001202310012 00890 4113 51RD 121 GENISSAC     0310790RN 2089 Ech 8       0341380SENAU               03405000053970053973300016003000       0994      035272  927    031862   031081   034300   035538   035123   037626   040290   040262   036967   034379   033416   031856               110338251  937    100344601  907    090333951  997    080325971 1057    070310371 1057    031083   032530   033268                                                037414   035905   033904   033041                                      
330001600310012 00890 411 251RD 13 BEYCHAC       0420223RD 115 POTEAU YVRAC 0470300MONTUSSAN           04301000050570050570000000000000       0187      053457  827    050030   048626   053006   053153   053199   056922   057760   055538   055000   054818   053174   050087               110535331  817    100534261  807    090159391         080504151  807    070502401  787    049082   051310   053262   054193   054806   055422   056301   055123   056197   054459   052318   049840                                      
330001700310012 00890 481 251RD 115              0470300RN 230              0500260LE POTEAU D YVRAC   04705000029830029830000000000000       0187      058595  937    054779   053938   057921   057860   057880   061534   062791   060501   061047   000000                                 110586718  907    100571478  907    090544568  877    08      8         07      8         052417            060369   058871   059467   060675   061590   060331   060815   059609   056782   055784                                      
330504000310012 02300 411 451ECH.21              0340000ECH.22              0350247PT F.MITTERAND      03500000012420012423305050003000       0194      111256 1307    103411   103515   109620   111629   109177   115804   120117   121832   114960   110179   108969   105517               111129241 1347    101081111         091038461         080991921         071009471         039388   041483   044049   044476   039980   120876   124670   122446   114789   110128   106296   105754                                      
330524200310012 02300 411 451ECH.22              0350247ECH.23              0360643S38 SENS 1+SENS 2   03600000013960013960000000000000       0194      105615 1487    097133   097924   103506   105657   103894   110394   117587   118089   108848   103371   102223   098083               111076831 1547    101065141 1557    091061461 1517    081052501 1597    070424441         039143   040445   043096   044376   043705   112516   119115   118149   110676   105199   100314   096092                                      
330504300310012 02300 4110401ECH.24              0390541ECH.25              0400703S46                 0400258001207001207330505000333000000000290      117275 1497    102389   103944   114049   115766   114520   121093   128560   128264   119435   113295   108606                        111161061 1647    101160641 1637    091156091 1607    081145221 1687    071020171 1587    104778   111498   115401   117217   116310   120618   127278   126056   119658   115132   109943   108305                                      
330504601310012 02300 411 601ECH.25              0400703A 10                0440507S47 EXTER ET INTER  04400130038000038003305050003000       0290      118950 1437    109641   110754   116852   118013   116624   123193   130420   128957   121517   121643   047643   044539               111201571 1457    101165151 1487    091162441 1447    081159401 1527    070468901         045693   047940   117596   120591   119906   123918   129993   128360   123340   118363   112788   109580                                      
640002200310012 01340 4113 51PAU                 0370418RD 934              0440600JURANCON            04001000073010056466400024003          0187      017538  557    017059   017221   018110   016708   016882   018122   017718   017708   018024   018234   017245   017402               110178731  547    100179001  537    090177411  537    080181591  537    070183881  507    017158   018142   018458   017553   017963   017992   017834   017860   018299   018219   017382   017640                                      
640002400310012 01340 4112 51RD 920              0610579OLORON EB 10        0660852OLORON              06508000052970050466400024003          0187      010888  547    010499   010204   011174   010181   010805   011488   011029   011178   011423   011479   010771   010393               110111341  537    100111401  537    090111711  517    080114231  567    070115411  517    010549   011183   011324   011032   011375   011341   011209   011351   011519   010726            010835                                      
640002801310012 01340 4112 51RD 918              0760615RD 918              0780376ASASP               07801860017510012006400028013          0187      003861 1197    003161   002776            003545   003760   004069   004641   005271   004126   003601   003265   003213               110039251 1177    100039571 1187    090040931 1157    080042051 1107    070041011 1017    003212   003523   003554   003943   003850   004150   004710   005393   004132   003832   003415   003349                                      
640002900310012 01340 4113 51RD 918              0780376RD 237              0920475SARRANCE            08607000139220132976400028013          0187      003134 1217    002511   002475   002828   002926   003061   003351   004032   004709   003460   002956   002678   002582               110032231  967    100033761 1097    09      1         08      1         07      1         002546   002638   002835   003239   003130   003422   004078   004809   003395   003167   002691   002651                                      
640003003310012 01340 4113 51URDOS EB 20         1090270ESPAGNE SOMPORT     1230278COL DU SOMPORT      12300000138910138910000000000          0194      000373  587    000402   000634   000517   000225   000171   000264   000375   000620   000268   000180   000102   000574               110003411  627    100004071  567    090004131  597    080003551  547    070004141  537    000341   000548   000494   000237   000169   000286   000388   000650   000278   000232   000116   000350                                      
640003100310012 11340 4113 51RN 134 PR 115       1160000ESPAGNE             1190000FORGES D'ABEL-TUNNE 11602000037980037980000000000          0106      001073 2487    000766   000805   000862   001080   001008   001063   001547   002054   001166   000864   000806   000829               110011021 2377    100010831 2127    090010851 2147    080011951 1947    070010791 1907    000751   000876   000856   001129   000942   001141   001676   002058   001116   001010   000774   000856                                      
790000806310012 00110 411 251RN 248              0540000DEPARTEMENT 17      0650681EPANNES             0560700012045012045860000900317000030030187      018965 1087    015438   015480   017981   020027   020388   020406   022628   023329   020422   017796   017450   016087               110190941 1067    100185291 1097    090184131 1077    080175801 1137    070181521 1087    015253   016666   017243   020913   019262   021376   022668   022789   020117   019053   017280   016371                                      
790002301310012 02480 4113 51A 10                0000000RN 11               0080758LES GRELLES         00409500089670089678600009003          0187      007744 1257    005560   006337   006373   007957   007900   007891   009459   009732   008074   006579                                 110073401 1237    100062551 1387    09      1         08      1         07      1         005189   006097   006256                     008240   009567   009607   007953   007489   006372   006269                                      
860000501310012 00100 411 251EX RN 10            0580890RN 11               0620334CROUTELLE           06007850034540026498600009003          0187      032222 2067    029371   029292   031266   033084   032109   033230   035009   034379   033740   032075   031755   031271               110320121 2137    100317321 2097    090295581 1967    080306391 1987    070311661 2067    029329   030330   031464   033512   032341   032857   032854   033378   033404   032324   031622   030662                                      
860000600310012 00100 411 251RN 11               0620334RD 742              0740535RUFFIGNY            06603500121400121408600009003          0187      022363 2487    020231   019984   021538   022903   022109   023209   024368   024127   022955   022921            021575               110225331 2597    100220721 2527    090216861 2667    080211411 2557    070212301 2937    020298   021601   021905   023388   022660   023513   024422   023603   023169   022420   021644   021736                                      
860000701310012 00100 411 251RD 742              0740535COUHE EX RN 10      0870550LES MINIERES        07701800130210130218600009003          0187      017982 3087    007786   007953   008518   018604   017998   018530   020336   020607   018741   017233   017702   016952               110181841 3297    100175881 3187    090174981 3077    080171611 3387    070173781 3137    016215   017096   016694   019211   018164   018981   020396   019501   018194   018228   017323                                               
860000900310012 00100 411 251CHAUNAY EX RN 10    1000110DEPARTEMENT 79      1070118CHAUNAY             1060430006881006881          79000010030187      014003 3557    012157   012244   013289   014777   014192   014470   016357   017171   013084   013222   013726   013232               110143581 3757    100135401 3567    090110451 2997    080127961 4457    070140611 3937    012264   013465   013520   015358   014065   015131   016440   016750   014652   014087   013262   013244                                      