800003400310012 00250 4113001RN 1 Amiens         0090745RD 49 Doullens      0330965RAMPONNEAU          0120796025003025003800003400300000000000187      012457 1138    012257   012783   012644   012586   012515   013121   012042   011779   013017   012684   012275   011832               110126411 1108    100133541 1028    090000001    0    080125891 1108    070128471 1088    012083   012435   012801   012795   013133   013043   012498   011762   013238   012816   012652   012454                                      
800003301310012 00250 4110201RN 29 Longueau      0000300RN 1 Amiens         0090745J VERNE             0020700015395015395800003400300000000000188      037868  910                                                                                                                            110000001    0    100375371  888    090000001    0    080000001    0    070000001    0                                                                                                                                                   
800000600310012 00010 4810201RN 25               0280000RD 97               0320780Longpre Amiens      0300039004967004967800003301300000000000187      000000    0                                                                                                                            110000008    0    100000008    0    090000008    0    080000008    0    070000008    0                                                                                                                                                   
620521200310012 00160 1110241A 26                0870150Limite Nord         1030900CALAIS-MARCK        0880080016750016750800003301300000000000192      043265 2247    038731   036826   036062   042463   044038   046211   048475   047605   047219   045671   043948   041729               110413031 2177    100404811 2107    090000001    0    080000001    0    070000001    0    038497   040100   041105   043396   038763   040590   041519   042778   041914   043593   042587   040780                                      
620521100310012 00160 1810241Riviere Neuve       0820100A 26                0870150Les Fontinettes     0840400005050005050620520800300000000000192      000000    0                                                                                                                            110000008    0    100000008    0    090000008    0    080000008    0    070000008    0                                                                                                                                                   
620520800310012 00160 1110241Coquelles           0780455Riviere neuve       0820100CALAIS-LPA          0810950003645003645620520800300000000000194      042084 1620                                                                                                                            110000001    0    100000001    0    090000001    0    080000001    0    070000001    0                                                                                                                                                   
620520300310012 00160 1110241Echang 35           0620000Coquelles           0780455LEUBRINGHEN         0680500016555016555620520800300000000000194      026614 1298    022875   022690   024330   027311   026809   029349   030978   031452   028737   026137   025210   023374               110266941 1208    100257911 1228    090000001         080255661 1168    070000001         022642   023593   024687   028181   026957   029057   030371   030821   027528   026837   025082   024381                                      
620510000310012 02160 1110141A 16                0000000RN 216              0010900DORET               0010800001900001900620520800300000000000792      023318 2807    020342   021274   022551   023349   022675   024933   025369   025200   025374   023596   023072   022068               110245371 2857    100249631 2787    090000001    0    080255101    0    070000001    0    021864   023386   024171   025347   025293   026065   026220   027197   026175   024347   023441   020912                                      
620502000310012 00210 1110231A 211               0120300Noyelles            0130700NOYELLES            0130100001409001409620520800300000000000187      078860  687    077394   077849   081390   081102   079326   083618   076995   069089   081094   082949   079307   076453               110635701    0    100660691    0    090000001    0    080000001    0    070000001    0                                                                                                                                                   
620501900310012 00210 1110231Dourges A 1         0210999Limite Nord         0260207COURCELLES LES LENS 0250800008337008337620520800300000000000187      056434 1027    059235   057888   057361   056638   056666   061635   053057   049439   060116   059255   055047   051212               110599841 1047    100533181  877    090000001    0    080467741  637    070505151  587    057372   060189   062187   061197   064035   063506   057207   049090   063640   061104   061529   059098                                      
620501500310012 00210 1110231Noyelles/Lens       0130700Dourges A 1         0210999DOURGES             0200700008337008337620520800300000000000187      074296  977    073192   073568   077381   076633   075081   077073   072023   064759   076638   078072   073813   073500               110732271 1007    100635211  857    090000001    0    080719661  887    070701791  877    069522   073890   075922   075130   078018   077719   067916   062025   076900   072528   075103   074503                                      
620501100310012 00210 1810231RN 17               0101004A 211               0120300Lens                0110500001315001315620500700300000000000187      057654    0                                                                                                                            110898228    0    100933928    0    090000008    0    080000008    0    070000008    0                                                                                                                                                   
620501000310012 00210 1810231RN 47               0090800RN 17               0101004Lens                0100500001207001207620500700300000000000187      054509    0                                                                                                                            110849218    0    100882738    0    090000008    0    080000008    0    070000008    0                                                                                                                                                   
620500900310012 00210 1810231RN 43 Loos en Gohell0060900RN 47               0090800Lens                0090300002904002904620500700300000000000187      046094    0                                                                                                                            110718128    0    100746418    0    090000008    0    080000008    0    070000008    0                                                                                                                                                   
620500700310012 00210 1110231Echang Lievin       0030500RN 43 Loos en Gohell0060900LOOS EN GOHELLE     0060000003406003406620500700300000000000187      050968  777    040746   040676   034914   026067   025857   031145   031004   031823   029218   031799   035223   031875               110506451  787    100526441  797    090000001    0    080000001    0    070480131  877    046162   046609   051270   054708   055162   054724   046687   048088   053673   052044   049990   048573                                      
620500500310012 00210 1810231RD 937              0000000Echang Lievin       0030500Bully les Mines     0030000003498003498620500700100000000000187      019270    0                                                                                                                            110194268    0    100202508    0    090000008    0    080000008    0    070000008    0                                                                                                                                                   
620500400310012 00160 1110241Inter RN 42         0500000Echang 35           0620000WIMILLE             0540540011036011036620500700100000000000194      032254 1047    028701   028607   030265   032752   032089   035256   035897   036146   034376   032380   031261   029223               110000001         100000001         090000001         080000001         070000001                                                                                                                                                        
620500300310012 00010 1110441Dourges A 21        1870000Limite Nord         1930393SEADOURGES          1870500006438006438620500700100000000000187      107812 1727    101262   103926   108415   110974   112193   115891   114989   091096   112214   111393   108204   103455               111091901 1787    101098731 1787    090000001    0    080000001    0    070000001    0    103590   109784   111944   115104   115910   117394   115414   086898   113446   109854   105727   105751                                      
620500000310012 02110 1110231Avion               0000000A 21                0020810LENS-GARE           0010550002813002813620500700100000000000187      037900  567    036822   037499   039271   038212   037472   041420   036990   034384   041189   037967   037366   036398               110373041    0    100363371  557    090000001    0    080000001    0    070350171  577    035865   038051   039834   038369   039337   038206   033648   033214   039050   037902   037500   036872                                      
620406000310012 02160 4813001A 216               0020000Zone Portuaire Calai0030744Calais              0030000001900001900620510000300000000000793      023242    0                                                                                                                            110244588    0    100248838    0    090000008    0    080254298    0    070000008    0                                                                                                                                                   
620006100310012 04250 4813001RN 25               0000000RD 264              0001233St Catherine Les Arr0000500001233001233620001400300000000000104      000000    0                                                                                                                            110000008    0    100000008    0    090000008    0    080000008    0    070000008    0                                                                                                                                                   
620005700310012 00470 4813001Echang 3            0070200Limite Nord         0081278Douvrin             0080000002098002098          00000000000613      000000    0                                                                                                                            110000008    0    100000008    0    090000008    0    080000008    0    070000008    0                                                                                                                                                   
620005400310012 00470 4110101Inter A21           0000000Echang3             0070200VENDIN              0010140006935006935          00000000000901      046874  717    046877   046868   048332   047455   044800   044454   045981   046552   049547   049158   047792   044730               110474021  757    100000001    0    090000001    0    080000001    0    070000001    0    043583   045736   048508   048273   048411   049527   045456   044230   052068   048634   048680   045839                                      
620004301310012 00420 4110101RN 43               0140000Inter A 16          0541121ALINCTHUN           0430850039904039904          00000000000187      012109 1428    011130   010606   012006   012174   012369   012396   012602   012919   012815   012762   012187   011280               110124191 1538    100126291 1558    090000001    0    080000001    0    070115411 1598    011377   011993   012248   013094   012510   013025   012822   012757   012729   012740   012024   011699                                      
620002001310012 00250 4113001Inter RN 17         0271283Inter RN 39         0321093ANZIN               0281000006963006963          00000000000901      018068 1657    016704   016971   017682   018303   018573   019259   018858   017970   018931   018817   017837   016910               110186851 1857    100180731 1827    090000001    0    080172621 1837    070172881 1827    016793   017400   018231   020303   019287   019006   018735   018924   019455   019039   018309                                               
620002000310012 00250 4114001Inter RD 265        0240280Inter RN 39         0271283WAGNONLIEU          0260545004813004813          00000000000901      009265 1777    008429   008568   008721   008889   009189   010485   009564   009182   010145   010385   009210   008425               110000001    0    100094131 1817    090000001    0    080085721 1757    070085321 1827                                                                                                                                                   
620001900310012 00250 4113001Limite Dep 80       0000000RD 265              0240280GOUY                0150400024315019380          00000000000187      008090 1930                                                                                                                            110000001    0    100069031 1937    090000001    0    080068481 1897    070069941 1947                                                                                                                                                   
620001400310012 00170 4113001Acces A 26          0360100A 211               0441082VIMY                0360500009635009635          00000000000187      015919  987    015654   015919   016755   016283   014927   014598   015346   014858   016977   017407   016602   015724               110160331  967    100000001    0    090000001    0    080000001    0    070000001    0    014744   015415   016050   015917   016552   015852   014474   014656   016967   017844   018215   015748                                      
620001302310012 00170 4810101Int RN 50           0330000Int A 26            0360100Roclincourt         0350900002960002960620001400300000000000698      020281    0                                                                                                                            110204278    0    100000008    0    090000008    0    080000008    0    070000008    0                                                                                                                                                   
620000100310012 00010 4810101inter CD 940 st Leon0460000limite A 16         0500800St Leonard          0480833004048004048          00000000000613      000000    0                                                                                                                            110000008    0    100000008    0    090000008    0    080000008    0    070000008    0                                                                                                                                                   
600010000310012 00310 4113001début dev Beauvais  0170000Fin dev Beauvais    0290465BEAUVAIS            0180742012465012465          00000000000513      000000                                                                                                                                 110000001         100000001         090000001         080000001         070000001                                                                                                                                                        
600009000310012 00310 4113001Clermont RD 916 A   0530839déb dév Clermont    0550000CLERMONT            0540594001839001839          00000000000513      000000                                                                                                                                 110000001         100000001         090000001         080000001         070000001                                                                                                                                                        
600008301310012 03240 4815001Senlis RN 17        0010000Senlis RN 330       0020284Chamant             0020000001194001194600000800300000000001287      017254    0                                                                                                                            110000008    0    100197898    0    090000008    0    080000008    0    070000008    0                                                                                                                                                   
600008200310012 03300 4813001fin dev Ermenonville0100000Senlis RN 324       0191107Fontaine Chaalis    0110000010184010184600008100300000000001287      010143    0                                                                                                                            110108598    0    100100198    0    090000008    0    080000008    0    070096498    0                                                                                                                                                   
600008100310012 03300 4113001Belleville RN 2     0040239fin dév Ermenonville0100001ERMENONVILLE        0050800007149007149600008100300000000001287      008162 2097    007529   007565   008119   008075   008291   009045   008285   007975   008806   008761   008094   007401               110087381 2267    100080621 2137    090000001    0    080000001    0    070077641 1927    007288   007697   008539   009338   009667   010001   009127   008421   009544   008888   008375   007950                                      
600007000310012 00310 4113001Compiegne RN 1031   0790420Aisne               1040134COMPIEGNE           0850406025714025714600008100302000250031287      000000    0                                                                                                                            110000001    0    100000001    0    090000001    0    080000001    0    070000001    0                                                                                                                                                   
600006001310012 10310 4110101RN 31               0000000RN 32 Clairoix      0070279VENETTE             0010500006840006840600008100300000000000194      032480  807    032746   032445   033641   032106   031858   033513   028672   029180   033166   033640   035304   033626               110332801  807    100000001    0    090000001    0    080000001    0    070305501  897                      031771   033644   034883   034414   031863   029240   034688   034238   034348   033837                                      
600005300310012 00310 4814001A 1                 0731041Compiegne RN 131    0790420Arsy                0750000005404005404600005100300000000001287      022931    0                                                                                                                            110232128    0    100226548    0    090000008    0    080233658    0    070236168    0                                                                                                                                                   
600005100310012 00310 4113001début dev Clermont  0550000A 1                 0731041CATENOY             0580600018036018036600005100300000000001287      012271 1278    011764   011892   012143   012586   012739   013437   011295   011401   013114   013137   012351   011448               110124211 1298    100121221 1288    090000001    0    080125021 1398    070126361 1408    011679   012173   012750   012816   013373   013275   011908   010734   013354   012852   012603   011589                                      
600004500310012 00310 4110201Beauvais sortie     0300000Clermont RD 916A    0530839LA RUE St PIERRE    0420000024386024386600005100300000000001287      020492 1227    019844   020183   020379   020777   021397   022652   018897   019023   021920   021662   020776   018505               110213001 1257    100000001    0    090000001    0    080000001    0    070000001    0                      021777   021670   022791   022704   019841   018099   022134   021653   021154   021263                                      
600000900310012 00020 4113001RN 330              0020700Dév Nanteuil        0110200NANTEUIL            0080650008884008884600005100300000000001287      000000                                                                                                                                 110000001         100000001         090000001         080000001         070000001                                                                                                                                                        
600000800310012 00020 4113001Dév Nanteuil        0110200Limite Aisne        0291114GONDREVILLE         0250300018911018911600005100300000000001287      015115 1677    015622   015866   014353   015959   017211   016851   013911   013958   014912   014932   014660   013254               110000001    0    100173351 1357    090000001    0    080000001    0    070000001    0                                                                                                                                                   
590506000310012 00230 1110231Orchies             0160417Petite Foret        0370278BEUVRY              0210900021018021018600005100300000000000187      040670  897    040271   039671   041289   041753   041305   043604   039727   034904   042628   043213   041863   037983               110409831  907    100412291  927    090000001    0    080000001    0    070411531    0    040321   041041   042815   042782   043403   042770   036086   035305   044006   042770   041416   039316                                      
590505300310012 00160 1110241Coudekerque (RN 335)1251000Ghyvelde (RD 947)   1370656GHYVELDE OUEST      1330500011656011656600005100300000000000693      027142 2468    022315   022462   024602   027487   027964   027840   032456   034002   028718   027039   025565   024982               110272281 2488    100267681 2428    090000001    0    080271761 2658    070272531 2758    022573   023476   024548   029455   027297   028926   032817   033636   028214   026522   024702   024279                                      
590505200310012 00160 1150441Grande Synthe (RN2551190625Coudekerque (RN335) 1251000COUDEKERQUE         1240400006375006375600005100300000000000693      061031 1467    056226   056308   059457   060923   061784   062328   064871   064566   064133   063044   060547   057997               110607811  827    100591391  497    090000001    0    080621101    0    070623901 1467    055680   057383   060368   064801   062712   061832   060703   064008   063797   061447   059019   057496                                      
590505000310012 00160 1110241Grande Synthe(RD131)1170000Grande Synthe(RN225)1190625ZAC DU MOULIN       1170820002625002625600005100300000000000693      060333 1987    054307   054153   057715   060289   061479   063455   066109   065094   062758   061106   059653   057627               110000001    0    100000001    0    090000001    0    080000001    0    070000001    0                                                                                                                                                   
590504900310012 00160 1110241Craywick (RN 316)   1100800Grande Synthe(RD131)1170000CRAYWICK            1130000006200006200600005100300000000000693      051579 2147    046049   046155   049194   052388   052708   055422   057379   056432   054451   052791   049947   045873               110520331 2047    100489091 2097    090000001    0    080501601 2387    070506841 2337    045441   047389   049857   055850   053637   054852   057463   057452   052859   052355   049052   047895                                      
590504800310012 00160 1110241Limite Pas de Calais1030900Craywick (RN 316)   1100800ST GEORGES SUR L'AA 1050800006900006900600005100300000000000693      036548 2278    030906   031072   033950   037195   037367   038904   041641   041043   039563   037456   035740   033550               110361601 2238    100319871 2398    090000001    0    080000001    0    070000001    0    031064   032656   034147   038746   036511   038535   040683   039923   037391   036832   034507   032735                                      
590504700310012 00230 1810231Valenciennes Nord   0391001A 2                 0420539La Sentinelle       0410500002562002562590503902100000000000187      021041    0                                                                                                                            110213838    0    100212508    0    090000008    0    080000008    0    070211138    0                                                                                                                                                   
590504500310012 00230 1810231Petite Foret        0370278Valenciennes Nord   0391004Petite-Foret        0390073002739002739590503902300000000000187      061547    0                                                                                                                            110625758    0    100622968    0    090000008    0    080000008    0    070620098    0                                                                                                                                                   
590503902310012 00230 1110231Centre d'activites  0020000Orchies             0160417GENECH              0080700014440014440590503902300000000000187      050544  588    050526   049771   051270   050532   048998   053906   048978   044144   052766   054510   052267   049047               110513881  598    100511531  628    090000001    0    080000001    0    070509121  648    050690   051393   052606   051192   053046   052838   047935   048702   054094   052962   051579   049747                                      
590503901310012 00230 11102314 Cantons           0000000Centre D'activités  0020000CRT-LESQUIN         0000800001885001885590503902300000000000187      000000    0                                                                                                                            110000001    0    100000001    0    090000001    0    080000001    0    070608511  987                                                                                                                                                   
590503700310012 00270 11102414 Cantons           0000000Frontière Belge     0121287ANSTAING            0070974010965010965590503902300000000000187      036185 1538    034203   034458   036667   037302   036577   038205   037197   033774   038047   037473   036416   033958               110000001    0    100000001    0    090000001    0    080333641    0    070333611 1918                                                                                                                                                   
590503600310012 00220 1110641Ronchin             00000004 Cantons           0020811LESQUIN             0020340002402002402590503902300000000000996      127040    0                                                                                                                            110000001    0    100000001    0    090000001    0    080000001    0    070000001    0                                                                                                                                                   
590503502310012 00250 1110241Hazebrouck          0320216Bergues             0621068QUAEDYPRE           0590110030892030892590503902300000000000187      029006    8    025695   025771   027726   028587   030363   030705   032954   031140   031162   029519   028476   025867               110000001    0    100000001    0    090000001    0    080288351 1448    070296911 1448                                                                                                                                                   
590503000310012 00250 1110241Armentières Ouest   0200394Hazebrouck          0320216STEENWERCK          0240190011831011831590503902300000000000187      052408 1237    048324   047585   051528   052826   054014   055449   055669   053255   055415   053833   052273   048625               110000001    0    100000001    0    090000001    0    080518751 1287    070522311 1267                                                                                                                                                   
590502900310012 00250 1110231La Chapelle         0150680Armentieres Ouest   0200394LA_CHAPELLE         0160700004719004719590503902300000000000187      065202 1167    061277   060257   063796   065632   066439   069285   068413   064371   068466   067217   065651   061563               110659371 1127    100610611  947    090000001    0    080648291 1097    070653181 1157    060189   063601   065681   068984   068287   069626   066743   063173   069347   068171   064327   063173                                      
590502800310012 00250 1110231Sequedin            0090098La Chapelle         0150680ENNETIERES          0110420006589006589590503902300000000000187      082492 1217    079253   078239   082369   083237   083222   087080   085163   079409   085898   084623   082783   078648               110838501 1197    100789681 1027    090000001    0    080829701 1227    070826151 1187    077177   081300   083865   086807   086586   087686   083852   078951   088208   086469   083148   082237                                      
590502600310012 00250 1110431Porte Ouest         0040488Sequedin            0090098LOOS                0050450004602004602590503902300000000000996      103990    0                                                                                                                            110000001    0    100000001    0    090000001    0    081036071  907    071079041  937                                                                                                                                                   
590502500310012 00250 1810431Porte de Bethune    0030890Porte Ouest         0040488Pt.Bethune/Ouest    0040150000595000595590502400300000000000187      000000    0                                                                                                                            110000008    0    100000008    0    090000008    0    080000008    0    070000008    0                                                                                                                                                   
590502400310012 00250 1110631Porte Des Postes    0020835Porte De Bethune    0030890PORTE DES POSTES    0030000001056001056590502400300000000000187      000000    0                                                                                                                            110000001    0    100000001    0    090000001    0    080000001    0    070000001    0                                                                                                                                                   
590502300310012 00250 1110431Porte D'Arras       0010792Porte Des Postes    0020835Pte ARRAS/POSTES    0020320001044001044590502400300000000000187      114787    0                                                                                                                            110000001    0    100000001    0    090000001    0    080000001    0    070000001    0                                                                                                                                                   
590502200310012 00250 1110631Porte Sud           0000000Porte D'Arras       0010792PORTE SUD           0010000001512001512590502400300000000000187      206206    0                                                                                                                            110000001    0    100000001    0    090000001    0    080000001    0    071517681    0                                                                                                                                                   
590502000310012 00020 1110241Marly               0640030Frontière Belge     0780456ONNAING             0720210014451014451590502400300000000000293      037132  978    033409   033431   035891   038678   037326   039443   043309   039273   038629   037654   035374   033042               110375361 1008    100363601 1018    090000001    0    080364321 1688    070357531 1848    032601   034129   036112   039201   037555   040009   043493   039112   039183   037895   035921   035028                                      
590501901310012 00210 1813001Limite Nord         0260207Echang 19           0270557Courcelles          0270000001347001347          00000000000613      000000    0                                                                                                                            110000008    0    100000008    0    090000008    0    080000008    0    070000008    0                                                                                                                                                   
590501800310012 00020 1810241Valenciennes Sud    0600973Marly               0640030Aulnoy              0620210003061003061590502000300000000000187      090321    0                                                                                                                            110913048    0    100884368    0    090000008    0    080886128    0    070869688    0                                                                                                                                                   
590501700310012 00020 1110441Rocade Ouest        0590025Valenciennes Sud    0600973TRITH-SAINT-LEGER   0590400001948001948590502000300000000000187      000000    0                                                                                                                            110000001    0    100000001    0    090000001    0    080991701 1347    070999501 1367                                                                                                                                                   
590501600310012 00020 1810241Denain              0520775Rocade Ouest        0590025La Sentinelle       0580585006258006258590501300300000000000187      058481    0                                                                                                                            110601218    0    100585248    0    090000008    0    080576788    0    070588418    0                                                                                                                                                   
590501400310012 00020 1810241Neuville/Escaut     0471001Denain              0520775Neuville/Escaut     0500600004777004777590501300100000000000187      029331    0                                                                                                                            110301438    0    100292688    0    090000008    0    080292518    0    070294558    0                                                                                                                                                   
590501300310012 00020 1110241Hordain             0430000Neuville/Escaut     0471001LIEU SAINT AMAND    0450510005006005006590501300100000000000187      043478 1887    038985   039598   041759   044151   043150   046036   050199   045288   046095   044741   042422   039225               110446971 1907    100435111 1887    090000001    0    080428711 2227    070437451 2047    039339   040929   043486   047007   045087   048485   051835   044987   045711   044738   043335   041249                                      
590501210310012 00220 1110241Tourcoing Nord      0220440Belgique            0240983NEUVILLE/FERRAIN    0240564002543002543590501300100000000000187      000000    0                                                                                                                            110000001    0    100341221 2548    090361021 2200    080000001    0    070345701 2608                                                                                                                                                   
590501200310012 00220 1110241Tourcoing Nord      0220440Belgique            0240983NEUVILLE/FERRAIN    0240564002543002543590501300100000000000187      000000    0                                                                                                                            110000001    0    100000001    0    090000001    0    080000001    0    070345701 2608                                                                                                                                                   
590500800310012 00220 1110441Echang RN 350       0140055Tourcoing Nord      0220440MOUVAUX             0160050008382008382590501300100000000000187      092682 1427    088927   089451   092451   094493   093561   097820   096853   084120   095694   097662   093741   087561               110941841 1447    100938571 1447    090000001    0    080935061 1507    070931591 1507    090033   093485   097521   097355   099478   097627   091523   085277   096548   097168   093359   091032                                      
590500600310012 00220 1110431Wasquehal           0100054Echang RN 350       0140055PETIT WASQUEHAL     0100655003427003427590501300100000000000187      101209    0                                                                                                                            110000001    0    100000001    0    090000001    0    080000001    0    070000001    0                                                                                                                                                   
590500500310012 00220 1810431Babylone            0090000Wasquehal           0100054Echang.Babylone     0090215001046001046590500600100000000000187      000000    0                                                                                                                            110000008    0    100000008    0    090000008    0    080000008    0    070513748    0                                                                                                                                                   
590500400310012 00010 1110731Ronchin             2080350Lille               2101325RONCHIN             2090300002989002989590500600100000000000297      176079    0                                                                                                                            110000001    0    100000001    0    090000001    0    080000001    0    071783121    0                                                                                                                                                   
590500301310012 00010A1810231A 1                 0000000A 22                0001179Petit Ronchin       0000500001179001179          00000000001203      000000    0                                                                                                                            110000008    0    100000008    0    090000008    0    080000008    0    070000008    0                                                                                                                                                   
590500300310012 00010 1110631Seclin              2010315Ronchin             2080350FACHES              2070050007043007043          00000000000187      139636    0                                                                                                                            110000001    0    100000001    0    090000001    0    080000001    0    071416701    0                                                                                                                                                   
590500100310012 00010 1110431Carvin (limite 62)  0000000Seclin              2010315MARTINSART          2000400007890007890          62050040030187      099706    0                                                                                                                            110000001    0    100000001    0    090000001    0    081075381 1797    071090321 1478                                                                                                                                                   
590415000310012 0002004110201Echang 3            0210000Louvroil (RN 2002)  0270000BEAUFORT            0220000006000006000          00000000000605      000000    0                                                                                                                            110000001    0    100000001    0    090000001    0    080000001    0    070000001    0                                                                                                                                                   
590412100310012 00020 4810101HAUTMONT ( RD 195 ) 0290080FEIGNIES ( RN 49 )  0291606HAUTMONT            0290715001526001526590412000300000000000605      011223                                                                                                                                 110109918         100000008         090000008         080000008         070000008                                                                                                                                                        
590412000310012 0002004110201Echang 4            0270000Feignies RN 49      0291606HAUTMONT            0280303003606003606590412000100000000000605      013847  977    013481   013474   014261   014172   013880   014782   012712   012776   014393   014795   014225   013256               110135691 1057    100000001    0    090000001    0    080000001    0    070000001    0    012968   013402   013598   013769   015029   014119   012699   012748   013704   013690   013434   013681                                      
590411900310012 0002004810201LOUVROIL ( RN 2 )   0260000HAUTMONT SUD (RD121)0270755LOUVROIL            0260638001755001755590412000300000000000605      000000                                                                                                                                 110000008         100000008         090000008         080000008         070000008                                                                                                                                                        
590410900310012 03160 4810201A 16                0000000Loon-Plage          0020890Loon-Plage          0000500002977002977590504900300000000000194      005064    0                                                                                                                            110000008    0    100000008    0    090000008    0    080000008    0    070000008    0                                                                                                                                                   
590410300310012 03560 4813001Wasquehal A 22      0031000Wascquehal RN 352   0060324Wasquehal           0050390001714001714          00000000000613      000000    0                                                                                                                            110000008    0    100000008    0    090000008    0    080000008    0    070000008    0                                                                                                                                                   
590410200310012 00210 1110201Escaudain (RD 81)   0530800A 2                 0570500LOURCHES            0560700004263004263          00000000000190      025131    0    027209   027516   028585   028098   026092   028826   024775   020065   024046   024082   023618   018943               110278481    0    100263061    0    090000001    0    080254321    0    070253031    0    026435   027504   028925   028535   029556   029232   026399   023755   029548   029076   028359   026953                                      
590409900310012 03350 4810201Coudekerque (RN 336)0000000Rosendael (RN 1)    0000870Coudekerque         0000500000870000870590505200100000000000190      012110    0                                                                                                                            110120508    0    100117598    0    090000008    0    080122048    0    070122468    0                                                                                                                                                   
590409700310012 03560 4810401Lille (RD14)        0011003Wasquehal (A 22)    0031000RD14 - RD48         0020500001986001986590409500100000000000189      000000    0                                                                                                                            110000008    0    100000008    0    090000008    0    080000008    0    070512328    0                                                                                                                                                   
590409600310012 03560 4810401Lille (Rue de Flers)0010400Lille (RD 14)       0011003Rue de Fers-RD14    0010800000603000603590409500100000000000189      000000    0                                                                                                                            110000008    0    100000008    0    090000008    0    080000008    0    070563498    0                                                                                                                                                   
590409500310012 03560 4110401Lille (Pont Fives)  0001089Lille (Rue de Flers)0010400DARWIN              0010000000955000955590409500100000000000189      000000    0                                                                                                                            110000001    0    100000001    0    090000001    0    080000001    0    070885081    0                                                                                                                                                   
590408900310012 03560 4110601Hellemmes (R.Perrin)0000000Lille (RN 351)      0001089LOUIS_XIV_1         0000500001089001089590409500100000000000101      157197    0                                                                                                                            110000001    0    100000001    0    090000001    0    080000001    0    070000001    0                                                                                                                                                   
590408799310012 03490 4850201Tourcoing(Bd.Forest)0010000A22 (ech.Tourc.Nord)0010232Tourcoing Oouest    0010232000232000232590501200100000000000187      000000    0                                                                                                                            110000008    0    100000008    0    090000008    0    080000008    0    070128748    0                                                                                                                                                   
590408400310012 00210 1110201Flers/Esc (RN 421)  0270557Waziers (RD 500)    0350000DOUAI-DORIGNIES     0310875007952007952590501200100000000000187      039648  907    038189   039153   040208   040065   039285   041782   039869   035008   041159   042224   040726   038245               110395621  947    100000001    0    090000001    0    080000001    0    070000001    0    037996   039139   040875   040409   042056   041331   037421   033414   042055   041167   039638   039371                                      
590406900310012 02270 4110401Pont de Bois        0030500Babylone            0051136LE CHATEAU          0040000002629002629590501200100000000000187      000000    0                                                                                                                            110000001    0    100000001    0    090000001    0    080000001    0    070941761    0                                                                                                                                                   
590406800310012 02270 4110201Centre Ville        0011012Pont de Bois        0030500CITE SCIENTIFIQUE   0030000001558001558590501200100000000000187      000000    0                                                                                                                            110000001    0    100000001    0    090000001    0    080000001    0    071150781    0                                                                                                                                                   
590406700310012 02270 41104014Cantons            0000000Centre Ville        0011012QUATRE-CANTONS      0010165001854001854590501200100000000000187      000000    0                                                                                                                            110000001    0    100000001    0    090000001    0    080000001    0    070977631  827                                                                                                                                                   
590406500310012 02250 4810201Bergues (RD 916)    0000000Petite-Synthe(RD940)0100679Bierne              0030750010664010664590503502300000000000187      015916    0                                                                                                                            110000008    0    100000008    0    090000008    0    080158238    0    070162948    0                                                                                                                                                   
590406199310012 00490 4850101Bavay (sortie devia)0950000Maubeuge (RN 2)     0980966Maubeuge            0980210003712003712          00000000000187      000000    0                                                                                                                            110000008    0    100000008    0    090000008    0    080000008    0    070000008    0                                                                                                                                                   
590405700310012 00490 4810201Echang.de Marly(A2) 0660000Echang.de Curgies   0660840Saultain            0660200000840000840590001800300000000000187      032461    0                                                                                                                            110000008    0    100000008    0    090000008    0    080000008    0    070000008    0                                                                                                                                                   
590403400310012 00410 4815001Echang 1            0120094Englos (A 25)       0161213Hallennes           0160515001963001963590403300100000000000501      000000    0                                                                                                                            110000008    0    100000008    0    090000008    0    080000008    0    070000008    0                                                                                                                                                   
590403300310012 00410 4115001La Bassee (RN 47)   0030000Echang 1            0120094FOURNES             0100515009094009094590403300100000000000187      033658  728    032884   032196   033335   033183   032284   035563   033280   033836   035324   035708   034412   031923               110336851  738    100326311  728    090000001    0    080000001    0    070304261  778    032145   032584   033771   033279   034830   033983   031521   034132   036192   035296   034009   032457                                      
590403000310012 00474N4112001Douvrin (Lim 62)    0000000Illies              0020602LA_BASSEE           0010000002534002534590403300100000000000309      024982 1177    024419   023896   024231   024893   023600   026159   024907   025553   026195   026960   025624   023370               110248651 1177    100000001    0    090000001    0    080000001    0    070000001    0    023067   023403   024425   023996   025262   024635   024883   026840   026878   026036   025269   023592                                      
590010800310012 00210 1813001Waziers RD 500      0350000Escaudain           0530800Abscon              0480000018719018719          00000000000613      000000    0                                                                                                                            110000008    0    100000008    0    090000008    0    080000008    0    070000008    0                                                                                                                                                   
590009100310012 03550 4815001Lesquin (C.R.T.)    0040000Lesquin (A23)       0050755Lesquin             0040160001355001355590503902300000000000187      016089    0                                                                                                                            110163588    0    100162848    0    090000008    0    080000008    0    070162088    0                                                                                                                                                   
590001800310012 00020 4115001Maubeuge (RN 49)    0300000Frontiere Belge     0361173BETTIGNIES          0350894006704006704590503902300000000000187      008983 1147    008567   009218   009103   009042   009101   009292   009123   008705   008992   009123   008934   008619               110091901 1167    100000001    0    090000001    0    080098051    0    070093181  968    009069   009362   009269   009316   009320   009304   009338   008774   009237   009220   009114   008980                                      
590001700310012 00020 4113001Avesnes (RD 104)    0120101Echang 3            0210000ECLAIBES            0190950009899009899590503902300000000000187      012818 1297    012263   012367   012975   013075   012939   013613   012200   012235   013338   013537   013170   012138               110126121 1247    100000001    0    090000001    0    080000001    0    070122321 1028             011832   012363   012535   012344   012802   012255   012534   013383   013257   012958   012434                                      
590001200310012 00020 4844001Avesnes (RD 951)    0100485Avesnes (RD 104)    0120101Avesnes Nord        0120744002371002371          00000000000187      000000    0                                                                                                                            110000008    0    100000008    0    090000008    0    080000008    0    070000008    0                                                                                                                                                   
590001100310012 00020 4813001Larouillies (Lim 02)0000000Avesnes (RD951)     0100485Etroeugt            0060500010476010476590001700300000000000187      007127    0                                                                                                                            110070138    0    100000008    0    090000008    0    080000008    0    070068028    0                                                                                                                                                   
510511200310012 00340 1113041RN 51               1000000RD 944              1100550MACECLIERS          1100300010529010529590001700300000000000799      021058  980                                                                                                                            110221071    0    100000001    0    090000001    0    080000001    0    070000001    0    020957   021425   022963   022671   022268   022534   020798   020632   023863   023000   022364   021842                                      
510002900310012 00510 4117001Limite Ardennes     0000000Echang 24           0091020ISLES SUR SUIPPE    0030310010295010295590001700308000360030176      019758 1490                                                                                                                            110200991 1327    100000001    0    090000001    0    080185931 1327    070181381 1297    018121   018728   019800   020443   021003   021326   020899   019077   021460   020615   020210   019478                                      
510001700310012 00310 4113001Rond point Fismes   0010653A 34                0250313MUIZON              0160750024164024164590001700300000000000176      019094 1297    018359   018626   019518   019384   019312   020847   017764   017151   020265   020347   019288   018340               110193501 1337    100190111 1307    090000001    0    080000001    0    070200521 1487    017848   019032   019821   019665   020308   020348   019066   017302   020298   020139   019498   018928                                      
510001500310012 00310 4813001Limite Marne        0000000 Rond point Fismes  0010653Fismes Ouest        0010000001653001653510001700302000270030795      012945    0                                                                                                                            110131198    0    100128908    0    090000008    0    080000008    0    070135968    0                                                                                                                                                   
080500900310012 00430 4110201Moulin Leblan       0410000Av De Gaulle        0441175LA CROISETTE        0420775004030004030510001700300000000000104      048884  447    047839   048260   050219   049255   048924   052632   044891   043830   050954   052477   049809   047703               110497771  437    100492601  387    090000001    0    080508541  447    070523951  537    046757   048440   050054   050567   051968   051539   048108   045611   052722   051618   050348   049664                                      
080500200310012 00340 1110241Ech Frénois         0170000Moulin Blanc        0320463VIVIER AU COURT     0250000015349015349510001700300000000000187      025035 1077    023020   025101   024695   026722   026787   027766   023062   023496   027124   026463   024264   022119               110245371 1077    100264911    0    090000001    0    080000001    0    070000001    0    024222   024228   024970   025005   025458   025240   024049   021938   026201   025748   024276   023156                                      
080500110310012 10430 4810201RN 43               0110000Ech Frénois         0161083Bazeilles à Frenois 0130000006061006061080500200300000000000203      012054    0                                                                                                                            110118158    0    100127568    0    090000008    0    080000008    0    070000008    0                                                                                                                                                   
080003800310012 00580 4110201Frontière belge     0000000RN 43               0101436LA CHAPELLE         0020000011696011696080500200300000000000104      005816 2077    004699   004799   005493   005929   006214   006158   006638   007028   006306   005769   005699   005017               110059221 2147    100056371 2007    090000001    0    080000001    0    070050861 2077    004880   005181   005512   006321   005983   006392   007255   006828   006140   005930   005539   005054                                      
080003600310012 00510 4110201RN 2051             0680000Limite Marne        0890423TAGNON              0840135023801023801080500200300000000000104      017572 1078    015901   016159   017429   017740   017509   019206   017458   017421   018913   018435   017989   016727               110177791  898    100174881 1108    090000001    0    080000001    0    070163441 1138    015836   016484   017655   018289   018266   018654   018588   017258   019405   018275   017812   016795                                      
080002900310012 00340 1110241Poix Terron         0450514Bertoncourt         0670380FAISSAULT           0600000021866021866080500200300000000000305      010544 1397    009492   009943   010306   010622   010665   011343   010915   010598   011224   011156   010581   009696               110108491 1327    100000001    0    090000001    0    080109651    0    070000001    0    009882   009891   010968   011159   011531   011555   011224   010813   011387   010910   010591   010230                                      
080002800310012 00340 1110241Moulin Blanc        0320463Poix-Terron         0450514YVERNAUMONT         0450100012980012980080500200300000000000104      016297 1277    015024   015284   016273   016772   016584   017872   016245   016029   017766   017549   016552   013672               110167761 1267    100164811 1237    090000001    0    080158191 1237    070158811 1267    015254   015811   016699   017135   017332   017870   017374   015956   018311   017311   016477   015787                                      
080002600310012 00510 4110201RD 98 Fumay         0410000RN 43 Piquet        0520164ROCROI              0420000010779010779080500200300000000000187      000000    0                                                                                                                            110039481    0    100000001    0    090000001    0    080000001    0    070029781 2847    004294   003160   003258   003120   003255   003983   003979   003665   006123   004887   003991   003633                                      
080001200310012 00430 4113001Sortie Rocade       0460000RD 877 Mon Idee     0620831TOURNES             0500350017769017769080500200300000000000187      017769  907    016947   017910   017954   017770   017526   018841   017383   017122   018934   018574   017752   016600               110180191  897    100185881  867    090000001    0    080000001    0    070198931  917    017264   017725   018465   018548   018843   018452   017624   016326   018989   018364   018198   017463                                      
080000600310012 00430 4810201RD 4 Douzy          0290000A 34 Bazeilles      0300639Bazeilles           0290419001290001290          00000000000613      000000    0                                                                                                                            110000008    0    100000008    0    090000008    0    080000008    0    070000008    0                                                                                                                                                   
020002700310012 00310 4113001Deviation de Braine 0390508Limite de la Marne  0440985BAZOCHES            0430750005015005015          51000150030187      010651 1778    009845   010302   010744   010901   010978   011422   010519   010693   011186   010830   010370   010043               110108341 1748    100105961 1858    090000001    0    080109741 1838    070112131 1978    009851   010559   011057   011167   011188   011295   010977   010147   011366   011126   010660   010625                                      
020002610310012 00310 4110201Ciry Salsogne RD 5310290120Deviation de Braine 0390508BRAINE              0340628010779010779          00000000000996      008173 2457    007601   007863   008313   008341   008265   008627   008137   008022   008596   008507   008169   007647               110083831 2427    100000001    0    090000001    0    080083821    0    070000001    0    007596   008158   008420   008559   008525   008736   008544   007926   008772   008664   008367   008346                                      
020002600310012 00310 4813001RD 94 Mercin        0200000Ciry Salsogne RD 5310290120Venizel             0260326008763008763020002700300000000000187      014926    0                                                                                                                            110151838    0    100148508    0    090000008    0    080153808    0    070157158    0                                                                                                                                                   
020002500310012 00310 4113001limite de l'Oise    0000000RN 2 Vauxbuin       0190270AMBLENY             0070500016839016839020002700360000570030187      008825 1607    008231   008480   008741   008897   009112   009349   008796   008922   009115   009102   008851   008309               110090011 1627    100000001    0    090000001    0    080000001    0    070000001    0    008207   008466   008945   009335   009533   009490   009167   008643   009680   009144   008660   008731                                      
020001200310012 00020 4113001La Capelle RN 43    1160217limite du Nord      1220070LA FLAMENGRIE       1170970005900005900020002700359000100030187      004615 2867    004197   004306   004627   004730   004723   005033   005157   004834   004809   004648   004448   003873               110048571 3007    100047641 2917    090000001    0    080000001    0    070000001    0    004171   004443   004731   005008   005060   005300   005358   005151   005206   004944   004641   004252                                      
020000900310012 00020 4113001Marle RD 946        0850924La Capelle RN 43    1160217LES BARAQUES        0930550029796029796020002700300000000000187      005138 2397    004640   004772   005156   005257   005113   005544   005411   005490   005351   005336   005074   004501               110052891 2447    100000001    0    090000001    0    080000001    0    070000001    0    004693   005039   005187   005385   005429   005469   005603   005313   005551   005479   005368   004943                                      
020000800310012 00020 4113001Chambry RD 517      0660608Marle RD 946        0850924FROIDMONT           0780245019550019550020002700300000000000187      007002    0                                                                                                                            110000001    0    100000001    0    090000001    0    080067111 1908    070069511 1908                                                                                                                                                   
020000700310012 00020 4813001carref. de l'escarg 0620732Chambry RD 517      0660608Chambry             0650200003537003537020000900300000000000187      009471    0                                                                                                                            110097508    0    100000008    0    090000008    0    080000008    0    070000008    0                                                                                                                                                   
020000600310012 00020 4815001Carrefour Semilly   0570310carref. de l'escarg 0620732Ardon               0600600004943004943020000800300000000000187      000000    0                                                                                                                            110000008    0    100000008    0    090000008    0    080000008    0    070000008    0                                                                                                                                                   
020000400310012 00020 4113001Crouy               0311019carrefour Semilly   0570310LAFFAUX             0400030025497025497020000800300000000000187      013095 1300                                                                                                                            110000001    0    100000001    0    090000001    0    080000001    0    070000001    0                                                                                                                                                   
020000303310012 00020 4813001RN 31               0281144Crouy               0311019Soissons            0291041003775003775020000302300000000000187      018371    0                                                                                                                            110185018    0    100186128    0    090000008    0    080000008    0    070186058    0                                                                                                                                                   
020000302310012 00020 4110201Giratoire de Paris  0250832RN 31               0281144SOISSONS            0280040004212004212020000302300000000000187      022863 2187    021148   021968   022512   022997   023496   024465   022054   022384   024175   024431   023352   021438               110230241 2197    100231611 2247    090000001    0    080000001    0    070231521 2237    021115   021893   022957   023925   023915   023973   022478   021098   024710   024114   023368   022757                                      
020000300310012 00020 4110201Echang 2            0040464Giratoire de Paris  0250832VAUXBUIN            0240070021445021445020000302300000000000187      017194 1677    015953   016726   017821   016805   017568   017566   016593   016244   018290   018534   017818   016431               110000001    0    100000001    0    090000001    0    080000001    0    070000001    0                                                                                                                                                   
020000200310012 00020 4815001villers cot. rd 231 0020874villers cot. rd 231 0080104Villers Cotterêts   0060300005305005305020000300300000000000187      014782                                                                                                                                 110000008         100000008         090000008         080000008         070000008                                                                                                                                                        
020000100310012 00020 4810201Vauciennes          0000000Echang 2            0040464Villers Cotterets   0010280004472004472020000300360000090030187      017806    0                                                                                                                            110000008    0    100000008    0    090000008    0    080000008    0    070000008    0                                                                                                                                                   