090000300310014 00200 4813 51RD 624              0150000PAMIERS A 66        0180000LE VERNET D'AR.     01500000022890022890900004023000       0187      000000                                                                                                                                 130000001         120000001         110000001         100000001         090117651                                                                                                                                                        
090000402310014 00200 411 251PAMIERS A 66        0180000RD 119              0210444PAMIERS             01902900034440034440900004023000       0187      022517  597    020579   022292   023475   022251   021617   022661   023427   023586   022833   023531   021812   022104               130219121  607    120218921    7    110219211    7    100213651    7    090208981    7    019701   020745   022983   021499   021047   022233   023265   023467   022471   023010   020298   022069                                      
090000402210014 00200 411 251PAMIERS A 66        0180000RD 119              0210444PAMIERS             01902900034440034440900004023000       0187      011079  607    010245   010850   011749   010975   010514   011251   011379   011784   011265   011497   010760   010660               130107481  627    120107421    7    110107581    7    100104811    7    090101791    7    009850   010048   011341   010622   010360   010927   011175   011510   011145   011257   010004   010660                                      
090000402110014 00200 411 251PAMIERS A 66        0180000RD 119              0210444PAMIERS             01902900034440034440900004023000       0187      011438  587    010334   011442   011726   011276   011103   011410   012048   011802   011568   012034   011052   011444               130111641  587    120111501    7    110111631    7    100108841    7    090107191    7    009851   010697   011642   010877   010687   011306   012090   011957   011326   011753   010294   011409                                      
090000501310014 00200 481 251RD 119              0210444RD 12               0241071ENTRE D12 ET D119   02309000036290036290900004023000       0187      000000                                                                                                                                 130223058         120000008         110000008         100000008         090212748                                                                                                                                                        
090000501210014 00200 481 251RD 119              0210444RD 12               0241071ENTRE D12 ET D119   02309000036290036290900004023000       0187      000000                                                                                                                                 130109758         120000008         110000008         100000008         090104688                                                                                                                                                        
090000501110014 00200 481 251RD 119              0210444RD 12               0241071ENTRE D12 ET D119   02309000036290036290900004023000       0187      000000                                                                                                                                 130113308         120000008         110000008         100000008         090108068                                                                                                                                                        
090000601310014 00200 481 251RD 12               0241071RD 13               0290000VARILHES DEV NORD   02602000044630044630900004023000       0187      000000                                                                                                                                 130230538         120000008         110000008         100000008         090219878                                                                                                                                                        
090000601210014 00200 481 251RD 12               0241071RD 13               0290000VARILHES DEV NORD   02602000044630044630900004023000       0187      000000                                                                                                                                 130115988         120000008         110000008         100000008         090110628                                                                                                                                                        
090000601110014 00200 481 251RD 12               0241071RD 13               0290000VARILHES DEV NORD   02602000044630044630900004023000       0187      000000                                                                                                                                 130114558         120000008         110000008         100000008         090109258                                                                                                                                                        
090000604310014 00200 481 251RD 13               0290000FOIX NORD           0350000GARRIGOU            02908000057790057790900004023000       0190      000000                                                                                                                                 130242758         120000008         110000008         100000008         090231528                                                                                                                                                        
090000604210014 00200 481 251RD 13               0290000FOIX NORD           0350000GARRIGOU            02908000057790057790900004023000       0190      000000                                                                                                                                 130121478         120000008         110000008         100000008         090115858                                                                                                                                                        
090000604110014 00200 481 251RD 13               0290000FOIX NORD           0350000GARRIGOU            02908000057790057790900004023000       0190      000000                                                                                                                                 130121288         120000008         110000008         100000008         090115678                                                                                                                                                        
090000801310014 00200 4113251FOIX NORD           0350000FOIX SUD            0400000FOIX                03903400047820047820900010013000       0102      015957  587    013615   015504   016481   014992   015294   017142   017318   019000   015781   016516   014829   014931               130152151  527    120154871    7    110157751    7    100150941    7    090151031    7    013218   013711   016244   014246   014469   015325   017062   018667   015419   015760   012923   015291                                      
090000801210014 00200 4113251FOIX NORD           0350000FOIX SUD            0400000FOIX                03903400047820047820900010013000       0102      007949  637    006814   007639   008251   007430   007572   008676   008493   009586   007905   008247   007457   007273               130075761  547    120077121    7    110078861    7    100075221    7    090075441    7    006759   006669   008076   007129   007219   007666   008350   009408   007771   007835   006488   007410                                      
090000801110014 00200 4113251FOIX NORD           0350000FOIX SUD            0400000FOIX                03903400047820047820900010013000       0102      008008  547    006801   007865   008230   007562   007722   008466   008825   009414   007876   008269   007372   007658               130076391  487    120077751    7    110078891    7    100075721    7    090075591    7    006459   007042   008168   007117   007250   007659   008712   009259   007648   007925   006435   007881                                      
090000901310014 00200 411 251FOIX SUD            0400000RD 117              0430500MONTGAILLARD        04106240035000035000900010013000       0102      019518  618    016782   018758   019642   018758   019112   019326   021849   024109   020045   020115   017947   017647               130188741  438    120192371    8    110193801    8    100189851    8    090190331    7    015864   016479   019617   017943   018285   019280   021637   023495   019585   019526   016000   018467                                      
090000901210014 00200 411 251FOIX SUD            0400000RD 117              0430500MONTGAILLARD        04106240035000035000900010013000       0102      009794  618    008569   009327   010054   009381   009547   009772   010800   012203   010065   010013   009046   008682               130094571  368    120096271    8    110096911    8    100095431    8    090095901    7    008139   008103   009897   009036   009167   009630   010666   011893   009866   009739   008096   009086                                      
090000901110014 00200 411 251FOIX SUD            0400000RD 117              0430500MONTGAILLARD        04106240035000035000900010013000       0102      009724  608    008213   009431   009588   009377   009565   009554   011049   011906   009980   010102   008901   008965               130094171  568    120096101    8    110096891    8    100094421    8    090000001         007725   008376   009720   008907   009118   009650   010971   011602   009719   009787   007904   009381                                      
090001001310014 00200 411 251RD 117              0430500RD 8                0540498ARIGNAC             05107460110780110780900010013000       0187      014685  608    012057   013646   014541   013675   014298   014973   017246   019450   015037   015128   013196   012820               130141651  438    120145841    8    110147121    8    100143811    8    090145281    7    011582   011903   014696   013214   013556   014501   017670   018510   014899   014434   011407   013304                                      
090001001210014 00200 411 251RD 117              0430500RD 8                0540498ARIGNAC             05107460110780110780900010013000       0187      007338  568    006134   006833   007442   006814   007096   007375   008438   009906   007513   007532   006661   006237               130070641  438    120072801    8    110073891    8    100071541    8    090072451    7    005874   005884   007596   006628   006845   007100   008607   009224   007346   007144   005805   006561                                      
090001001110014 00200 411 251RD 117              0430500RD 8                0540498ARIGNAC             05107460110780110780900010013000       0187      007347  638    005923   006813   007099   006861   007202   007598   008808   009544   007524   007596   006535   006583               130071011  438    120073041    8    110073231    8    100072271    8    090072831    7    005708   006019   007100   006586   006711   007401   009063   009286   007553   007290   005602   006743                                      
090001100310014 00200 4113 51RD 8                0540498RD 102              0710104LES CABANNES        06204200169260169260900010013000       0187      009198  567    007069   008647   009661   008379   008966   008998   011368   013798   009432   008252   008057   007634               130089241  637    120091251    7    110092781    7    100090961    7    090092831    7    007203   007355   008619   008286   008409   009109   010992   013743   009375   008933   006431   008404                                      
090001100210014 00200 4113 51RD 8                0540498RD 102              0710104LES CABANNES        06204200169260169260900010013000       0187      004637  567    003617   004205   004852   004187   004443   004523   005631   007001   004729   004674   004042   003666               130044511  637    120045451    7    110046231    7    100045351    7    090046161    7    003706   003579   004309   004183   004235   004545   005390   006939   004724   004442   003229   004015                                      
090001100110014 00200 4113 51RD 8                0540498RD 102              0710104LES CABANNES        06204200169260169260900010013000       0187      004561  557    003452   004442   004809   004192   004523   004475   005737   006797   004703   003578   004015   003968               130044731  627    120045801    7    110046551    7    100045611    7    090046671    7    003497   003776   004310   004103   004174   004564   005602   006804   004651   004491   003202   004389                                      
090001200310014 00200 4113 51RD 102              0710104RD 613              0790614PERLES CASTELET     07309000086570086570900010013000       0187      009676  407    007639   009374   010212   008602   009164   009211   011581   014350   009780   009672   008359   008053               130092781  407    120094231    7    110095441    7    100093071    7    090095811    7    007122   007908   010164   008197   008582   009099   011345   014172   009671   009140   006719   008983                                      
090001200210014 00200 4113 51RD 102              0710104RD 613              0790614PERLES CASTELET     07309000086570086570900010013000       0187      004838  407    003921   004629   005193   004271   004552   004614   005679   007301   004905   004827   004202   003902               130046311  407    120047071    7    110047561    7    100046431    7    090047781    7    003674   003808   005167   004134   004298   004529   005570   007183   004864   004523   003371   004323                                      
090001200110014 00200 4113 51RD 102              0710104RD 613              0790614PERLES CASTELET     07309000086570086570900010013000       0187      004838  407    003718   004745   005019   004331   004612   004597   005902   007049   004875   004845   004157   004151               130046471  417    120047161    7    110047881    7    100046641    7    090048031    7    003448   004100   004997   004063   004284   004570   005775   006989   004807   004617   003348   004660                                      
090001300310014 00200 4813 51RD 613              0790614RD 322              0880240MERENS NORD         08609400085320085320900010013000       0187      000000                                                                                                                                 130077258         120000008         110000008         100000008         090079248                                                                                                                                                        
090001300210014 00200 4813 51RD 613              0790614RD 322              0880240MERENS NORD         08609400085320085320900010013000       0187      000000                                                                                                                                 130038418         120000008         110000008         100000008         090039408                                                                                                                                                        
090001300110014 00200 4813 51RD 613              0790614RD 322              0880240MERENS NORD         08609400085320085320900010013000       0187      000000                                                                                                                                 130038848         120000008         110000008         100000008         090039848                                                                                                                                                        
090001400310014 00200 4113 51RD 322              0880240RN 22               0970737MERENS              08904330094920094920900014003000       0187      006925  498    004584   005618   006479   006306   007186   006891   008859   011467   007295   007109   005971   005169               130065601  458    120070901    8    110072141    8    100067631    8    090069341    7    003962   004171   006724   005868   006531   006897   008397   011399   007344   006669   004874   005623                                      
090001400210014 00200 4113 51RD 322              0880240RN 22               0970737MERENS              08904330094920094920900014003000       0187      003477  528    002370   002751   003215   003186   003662   003495   004420   005812   003719   003598   002927   002485               130032851  388    120035501    8    110036011    8    100033841    8    090034341    7    002080   002007   003398   002944   003296   003462   004140   005801   003715   003334   002404   002701                                      
090001400110014 00200 4113 51RD 322              0880240RN 22               0970737MERENS              08904330094920094920900014003000       0187      003448  478    002214   002867   003264   003120   003524   003396   004439   005655   003576   003511   003044   002684               130032751  598    120035401    8    110036131    8    100033791    8    090035001    7    001882   002164   003326   002924   003235   003435   004257   005598   003629   003335   002470   002922                                      
090001800310014 00200 4813 01RN 22               0970737RN 320              0980688LHOSPITALET EST     0980100000951000951120001300300000000000187      000000                                                                                                                                 130000001         120000001         110000001         100000001         090000001                                                                                                                                                        
090001500310014 00220 4813 51RN 20               0000000RN 320              0040015N 22 VERS ANDORRE   00305000040150040150900014003000       0187      000000                                                                                                                                 130074598         120000008         110000008         100000008         090078858                                                                                                                                                        
090001600310014 03200 4813 51RN 20               0000000DEPARTEMENT 66      0020132R.N 320 AUX P.O     0010800002249002249090001400366000100030187      000000                                                                                                                                 130067008         120000008         110000008         100000008         090070838                                                                                                                                                        
120000600310014 00880 4113 51RN 9                0020800RD 28               0240290VARES               01201000221070221071200013003000       0187      000000                                                                                                                                 130000001         120066041         110067531 1807    100064971 1887    090067001                                                                                                                                                        
120000600210014 00880 4113 51RN 9                0020800RD 28               0240290VARES               01201000221070221071200013003000       0187      000000                                                                                                                                 130000001         120033131         110033761 1787    100032501 1867    090000001                                                                                                                                                        
120000600110014 00880 4113 51RN 9                0020800RD 28               0240290VARES               01201000221070221071200013003000       0187      000000                                                                                                                                 130000001         120032911         110033771 1857    100032471 1917    090000001                                                                                                                                                        
120000700310014 00880 4113 51RD 28               0240290RD 224              0420390GAGES               03604000181510181511200013003000       0187      009026 1228    008570   006864   005739   006397   009224   009205   012004   010165   010875   010186   009352   009509               130100171 1178    120000001         110102301 1317    100100641 1258    090100141 1257    008160   008488   009159   009979   010335   010406   012366   012407   009934   010334   009248   009223                                      
120000700210014 00880 4113 51RD 28               0240290RD 224              0420390GAGES               03604000181510181511200013003000       0187      005158 1218    004261   004450   004601   005079   005152   005366   005920   007030   005370   005236   004638   004715               130050291 1168    120051711         110050811 1307    100049951 1238    090049801 1257    004059   004226   004538   004952   005149   005186   006410   006232   005210   005123   004600   004580                                      
120000700110014 00880 4113 51RD 28               0240290RD 224              0420390GAGES               03604000181510181511200013003000       0187      003868 1238    004309   002414   001138   001318   004072   003839   006084   003135   005505   004950   004714   004794               130049881 1188    120000001         110051491 1327    100050691 1298    090050341 1267    004101   004262   004621   005027   005186   005220   005956   006175   004724   005211   004648   004643                                      
120000801310014 00880 4113 51RD 224              0420390RD 988              0470000LA ROQUETTE OUEST   04305000047800047801200013003000       0187      014635         012314   013034   013486   014862   014626   015647   016554   016235   014958   000000   000000   000000               130138181         120000001         110142541         100140291         090145721         011850   012400   013391   013754   013928   015237   015863   013496   014380   015125   013227   013074                                      
120000801210014 00880 4113 51RD 224              0420390RD 988              0470000LA ROQUETTE OUEST   04305000047800047801200013003000       0187      007428    7    006294   006547   006778   007467   007347   007885   008430   008578   007530   000000   000000   000000               130072511 1157    120000001         110073481 1167    100073991 1177    090073071         005942   006251   006752   007258   007412   007684   008463   008678   007602   007611   006696   006576                                      
120000801110014 00880 4113 51RD 224              0420390RD 988              0470000LA ROQUETTE OUEST   04305000047800047801200013003000       0187      007206         006020   006487   006708   007395   007279   007762   008124   007657   007428   000000   000000   000000               130065671         120000001         110069061         100066301 117     090072651         005908   006149   006639   006496   006516   007553   007400   004818   006778   007514   006531   006498                                      
120001002310014 00880 4113 51RD 901              0480095RN 140              0480660LES MOUTIERS OUEST  04801500005650005651200013003000       0187      034182         014394   014929   015008   016107   015297   016089   016292   015843   016256   015769   013700   012936               130347691         120000001         110000001         100332371         090330661         013532   014447   015306   016281   015765   016265   016586   015876   016199   015824   014500   014913                                      
120001001310014 00880 4113 51RD 988              0470000RD 901              0480095LES MOUTIERS EST    04800500011750011751200013003000       0187      026346                                                                                                                                 130260651         120000001         110000001         100000001         090257001                           000000   000000   000000   000000   000000   000000   000000   000000            000000                                      
120001003310014 00880 4113 51RN 140              0480660RD 84 RD 67         0500000SAINT-CLOUD         05000000015620015621200013003000000000 0187      022591         020887   021734   021916   023433   022110   023181   023236   022537   023370   023942   022381   022343               130221281  837    120000001         110000001         100000001         090215931    7    019959   020936   022185   022850   022458   023152   023788   022451   023178   022067   021010   021438                                      
120001003210014 00880 4113 51RN 140              0480660RD 84 RD 67         0500000SAINT-CLOUD         05000000015620015621200013003000       0187      011795         010934   011361   011412   012195   011479   012108   012146   011754   012246   012560   011668   011665               130115421  877    120000001         110000001         100000001         090112101    7    010360   010899   011504   011791   011623   011974   012284   011639   012076   011827   011290   011207                                      
120001003110014 00880 4113 51RN 140              0480660RD 84 RD 67         0500000SAINT-CLOUD         05000000015620015621200013003000       0187      010796         009953   010373   010504   011238   010631   011073   011090   010783   011124   011382   010713   010678               130105861  737    120000001         110000001         100000001         090103831    7    009599   010037   010681   011059   010835   011178   011504   010812   011102   010240   009720   010231                                      
120001004310014 00880 4113 51RD 84 RD 67         0500000PONT V.C. OLEMPS    0520200SAINT-CLOUD         05000000023230023231200013003000       0187      025323         023571   024469   024312   026084   024860   026108   025387   024942   026440   027283   025404   025035               130240311  777    120000001         110000001         100000001         090207921         022372   023543   025018   025685   025190   026154   026955   025320   026103   018450   019718   023867                                      
120001004210014 00880 4113 51RD 84 RD 67         0500000PONT V.C. OLEMPS    0520200SAINT-CLOUD         05000000023230023231200013003000       0187      012757         011769   012204   012312   013099   012563   013139   013131   012713   013254   013699   012684   012508               130120051  837    120000001         110000001         100000001         090121201         011138   011709   012449   012800   012534   013016   013502   012725   013035   009382   009873   011895                                      
120001004110014 00880 4113 51RD 84 RD 67         0500000PONT V.C. OLEMPS    0520200SAINT-CLOUD         05000000023230023231200013003000       0187      012566         011802   012265   012000   012985   012297   012969   012256   012229   013186   013584   012720   012527               130120261  657    120000001         110000001         100000001         090086721    7    011234   011834   012569   012885   012656   013138   013453   012595   013068   009068   009845   011972                                      
120001005310014 00880 4813 51PONT V.C.OLEMPS     0520200RD 66 RD 212        0530386LE LACHETversST-CLOU05303000012630012631200013003000       0187      000000                                                                                                                                 130000001         120000001         110000001         100000001         090200001                                                                                                                                                        
120001006310014 00880 4813 51RD66 RD212          0530386RD 911              0560800LA PRIMAUBE         05407100034140034141200013003000       0187      000000                                                                                                                                 130000001         120000001         110000001         100000001         090162261    7                                                                                                                                                   
120001006210014 00880 4813 51RD66 RD212          0530386RD 911              0560800LA PRIMAUBE         05407100034140034141200013003000       0187      000000                                                                                                                                 130000001         120000001         110000001         100000001         090081291    7                                                                                                                                                   
120001006110014 00880 4813 51RD66 RD212          0530386RD 911              0560800LA PRIMAUBE         05407100034140034141200013003000       0187      000000                                                                                                                                 130000001         120000001         110000001         100000001         090080971    7                                                                                                                                                   
120001100310014 00880 4113 51LA PRIMAUBE RD 911  0560800BARAQUEVILLE RD 911 0680015LE LAC              06207300090910090911200013003000       0187      015614  978    014080   014545   015027   016678   016022   016725   015702   016979   016883   017159   014809   012746               130154741  878    120154821         110155801    7    100153431    8    090152411    8    012921   013778   015084   015614   015840   016171   017028   016671   016605   016399   014724   014732                                      
120001100210014 00880 4113 51LA PRIMAUBE RD 911  0560800BARAQUEVILLE RD 911 0680015LE LAC              06207300090910090911200013003000       0187      007885  958    007024   007248   007498   008309   008017   008342   007422   008518   008438   008578   007729   007477               130077201  918    120077271         110077751    7    100076631    8    090076181    8    006447   006870   007525   007767   007914   008078   008465   008363   008290   008196   007331   007334                                      
120001100110014 00880 4113 51LA PRIMAUBE RD 911  0560800BARAQUEVILLE RD 911 0680015LE LAC              06207300090910090911200013003000       0187      007729  988    007056   007297   007529   008369   008005   008383   008280   008461   008445   008581   007080   005269               130077541  808    120077551         110078051 1007    100076801    8    090076231    8    006474   006908   007559   007847   007926   008093   008563   008308   008315   008203   007393   007398                                      
120001200310014 00880 4813 51RD 911              0680015RD 997              0810695BARAQUEVILLE        06902340136870136871200013003000       0187      000000                                                                                                                                 130103508         120000008         110000008         100000008         090000008                                                                                                                                                        
120001300310014 00880 4113 51RD 997              0810695DEPARTEMENT 81      0910192NAUCELLE            0840550009447009447310003300381000010030187      000000                                                                                                                                 130080691 1427    120081421         110080131         100071471         090079001         006374   006970   007852   008176   008313   008396   009014   009174   008742   008636   007591   007515                                      
120001300210014 00880 4113 51RD 997              0810695DEPARTEMENT 81      0910192NAUCELLE            0840550009447009447310003300381000010030187      000000                                                                                                                                 130040361 1417    120040701         110040061         100035741         090000001         003169   003477   003939   004058   004161   004213   004501   004627   004367   004351   003773   003753                                      
120001300110014 00880 4113 51RD 997              0810695DEPARTEMENT 81      0910192NAUCELLE            0840550009447009447310003300381000010030187      000000                                                                                                                                 130040331 1437    120040721         110040071         100035731         090000001         003205   003493   003913   004118   004152   004183   004513   004547   004375   004285   003818   003762                                      
310506100310014 00640 111 241ECH 22 ASF          2340270ECH 23              2390200                    2340000004930004930320000500300000000000199      000000                                                                                                                                 130000001         120000001         110000001         100000001         090000001                                                                                                                                                        
310506200310014 00640 111 241ECH 23              2390200ECH 24              2430000LAVELANET de COMMIN.2420000003800003800320000500300000000000199      033433 113                                                                                                                             130000001         120000001         110345751 105     100344951         090342961                                                                                                                                                        
310506300310014 00640 111 241ECH 24              2430000ECH 25              2460000                    2440000003000003000320000500300000000000199      000000                                                                                                                                 130000001         120000001         110000001         100373951         090000001                                                                                                                                                        
310506500310014 00640 111 241ECH 26              2460000ECH 27              2540000LACRA               2530800008000008000320000500300000000000199      000000                                                                                                                                 130000001         120000001         110446831 101     100443051         090000001                                                                                                                                                        
310506600310014 00640 111 241ECH 27              2540000ECH 28              2580000                    2550000004000004000320000500300000000000199      000000                                                                                                                                 130000001         120000001         110000001         100443051         090000001                                                                                                                                                        
310506700310014 00640 111 241ECH 28              2580000ECH 29              2590500                    2590000001500001500320000500300000000000199      000000                                                                                                                                 130000001         120000001         110000001         100443051         090000001                                                                                                                                                        
310506800310014 00640 111 241ECH 29              2590500ECH 30              2610200                    2600000001700001700320000500300000000000199      000000                                                                                                                                 130000001         120000001         110000001         100000001         090000001                                                                                                                                                        
310506900310014 00640 111 241ECH 30              2610200ECH 31              2630000                    2620000001800001800320000500300000000000199      000000                                                                                                                                 130000001         120000001         110000001         100000001         090000001                                                                                                                                                        
310507000310014 00640 111 241ECH 31              2630000ECH 32              2640800                    2640000001800001800320000500300000000000199      000000                                                                                                                                 130000001         120000001         110000001         100000001         090000001                                                                                                                                                        
310507100310014 00640 111 241ECH 32              2640800ECH 33              2690000MURET SUD           2670800004200004200320000500300000000000199      052881  93                                                                                                                             130000001         120000001         110495261         100000001         090518851                                                                                                                                                        
310507200310014 00640 111 241ECH 33              2690000ECH 34              2720000PODIO               2690673003000003000320000500300000000000199      049682  997    055321   057546   057100   053679   055979   059857   063573   060528   058958   053600   054660   058790               130585971 1057    120498791    7    110371461 1067    100385161    7    090000001                  052947   056399   057562   057067   059787   064821   061755   059157   060985   056084   057394                                      
310507201310014 00640 111 241ECH 34              2720000ECH 35 ASF          2740089MURET NORD          2720800002032002032320000500300000000000199      057472  977    043777   051793   052121   054130   051207   055927   058405   057335   053965   052841   050576   052492               130265181  747    120000001         110000001         100000001         090470001         024838   024668   026372   026471   026175   027095   028450   028965   026917   027426   025267   025389                                      
310505200310014 00680 181 241GEMIL FIN CONCEDEE  0170105DPT81               0220110A68 ETAT GESTION 81 0180000005005005005320000500381050010030187      000000                                                                                                                                 130000001         120000001         110000001         100000001         090000001                                                                                                                                                        
310003202310014 01240 481 251DEBUT 2X2 VOIES     0060000Fin 2x2 voies       0090317COLOMIERS           00900000029200029203100033003000       0187      000000                                                                                                                                 130000008         120000008         110000008         100000008         090000008                                                                                                                                                        
310003300310014 01240 481 251FIN 2X2 VOIES       0090317RD 24               0130192COLOMIERS siredo    01107000039190039193100033003000       0187      000000                                                                                                                                 130000001         120000001         110000001         100000001         090000001                                                                                                                                                        
310003400310014 01240 481 251RD 24               0130192DEPARTEMENT 32      0191064LEGUEVIN            0150800007216007216310003300332000090030187      000000                                                                                                                                 130000008         120000008         110000008         100000008         090000008                                                                                                                                                        
310003600310014 01250 4113 51A 645               0030000RD 33 LABROQUERE    0050196LABROQUERE          00408000019010019013200005003000       0187      000000                                                                                                                                 130000001         120000001         110144291    7    100134071    7    090137001                                                                                                                                                        
310003600210014 01250 4113 51A 645               0030000RD 33 LABROQUERE    0050196LABROQUERE          00408000019010019013200005003000       0187      000000                                                                                                                                 130000001         120000001         110058581    7    100066461    7    090068421                                                                                                                                                        
310003600110014 01250 4113 51A 645               0030000RD 33 LABROQUERE    0050196LABROQUERE          00408000019010019013200005003000       0187      000000                                                                                                                                 130000001         120000001         110085711    7    100067611    7    090000001                                                                                                                                                        
310338500310014 01250 4113 51LABROQUERE          0050196RD 33 CHAUM         0181637GALIE               01403000137270137273200005003000       0211      000000                                                                                                                                 130000001         120000001         110000001    7    100000001         090000001                                                                                                                                                        
310338500210014 01250 4113 51LABROQUERE          0050196RD 33 CHAUM         0181637GALIE               01403000137270137273200005003000       0211      000000                                                                                                                                 130000001         120000001         110000001    7    100000001         090000001                                                                                                                                                        
310338500110014 01250 4113 51LABROQUERE          0050196RD 33 CHAUM         0181637GALIE               01403000137270137273200005003000       0211      000000                                                                                                                                 130000001         120000001         110000001    7    100000001         090000001                                                                                                                                                        
310003800310014 01250 4112 51RD 33 CHAUM         0181637RD 44               0230442CHAUM               01907000048780048783200005003000       0187      003666  677    003342   003732   003430   003130   003622   003531   004354   005003   003596   003525   003186   003505               130036061  627    120039441    7    110043891    7    100047561    7    090050451         003257   003767   004502   003685   002197   002861   003809   005170   003697   003477   003050   003785                                      
310003900310014 01250 4112001RD 44               0230442ESPAGNE             0340110FOS                 03100000106990106993200005003000       0187      003768 100                                                                                                                             130000001         120000001         110000001         100000001         090052421    7                                                                                                                                                   
310000200310014 02240 4113001RD 17 MONTAIGUT     0070000CORNEBARRIEU        0310876MONDONVILLE         0250850026105026105310003300300000000000187      000000                                                                                                                                 130102341  357    120101681    7    110103451         100041331         090000001         010110   010456   010609   010812   010156   010905   009856   008148   010589   010778                                                        
310508003310014 06200 1110231SESQUIERES          0000724LES MINIMES 31      0030626GINESTOUS           0020130002857002857320000500300000000000187      126307  58                                                                                                                             130000001         121257861         111253631         101245281         091222271                                                                                                                                                        
310508003210014 06200 1110231SESQUIERES          0000580LES MINIMES 31      0030626GINESTOUS           0020130002857002857320000500300000000000187      063083  55                                                                                                                             130000001         120628801         110627771         100619031         090611381                                                                                                                                                        
310508003110014 06200 1110231SESQUIERES          0000724LES MINIMES 31      0030626GINESTOUS           0020130002857002857320000500300000000000187      063224  62                                                                                                                             130000001         120629061         110625861         100626251         090610891                                                                                                                                                        
310508106310014 06200 1110231ES MINIMES 31       0030626PONT JUMEAUX 30     0050106PONT JUMEAUX        0040432001464001464320000500300000000000187      100418  57                                                                                                                             130000001         121003161         111017501         101015421         091007461                                                                                                                                                        
310508106210014 06200 1110231ES MINIMES 31       0030626PONT JUMEAUX 30     0050106PONT JUMEAUX        0040432001464001464320000500300000000000187      050883  59                                                                                                                             130000001         120505321         110509311         100508241         090510591                                                                                                                                                        
310508106110014 06200 1110231ES MINIMES 31       0030626PONT JUMEAUX 30     0050106PONT JUMEAUX        0040432001464001464320000500300000000000187      049535  557    046918   049407   049338   050199   047018   052572   051185   043503   050928   051815   049906   051792               130489081  557    120497841         110508191         100507181         090496871         045853   047867   047962   049229   047384   049982   051909   044549   052260   054427   048238   047271                                      
310508204110014 06200 1110231PONT JUMEAUX 30     0050106PURPAN 29           0060074PONT GARONNE        0050354000966000966320000500300000000000187      060782  40                                                                                                                             130000001         120601661         110628021         100612141         090621151                                                                                                                                                        
310508200310014 06200 1110231PONT JUMEAUX 30     0050106PURPAN 29           0060074PONT GARONNE        0050354000966000966320000500300000000000187      123522  48                                                                                                                             130000001         121227911         111224401         101223951         091231011                                                                                                                                                        
310508200210014 06200 1110231PONT JUMEAUX 30     0050106PURPAN 29           0060074PONT GARONNE        0050354000966000966320000500300000000000187      062740  557    061366   063696   063371   065116   059982   064834   063716   057063   064510   066586   062038   060872               130625321  557    120626251    7    110596381    7    100611811         090609861         059618   062440   063149   063983   060011   064904   065695   057840   065206   065211   061422   061071                                      
310508304110014 06200 1110231PURPAN 29           0060074CEPIERE 27          0080497STATION A620        0070789002433002433320000500300000000000187      066596  61                                                                                                                             130657031  61     120653801         110656701         100655741         090653771                                                                                                                                                        
310508303210014 06200 1110231PURPAN 29           0060074CEPIERE 27          0080497STATION A620        0070789002433002433320000500300000000000187      069852  51                                                                                                                             130700031  51     120699711         110699311         100688061         090684831                                                                                                                                                        
310508300310014 06200 1110231PURPAN 29           0060074CEPIERE 27          0080497STATION A620        0070789002433002433320000500300000000000187      136448  56                                                                                                                             131357061         121353511         111356011         101343801         091338601                                                                                                                                                        
310508402210014 06200 1110231CEPIERE 27          0080497LA FAOURETTE        0090542FAOURETTE           0090100001056001056320000500300000000000187      071014  52                                                                                                                             130000001         120705751         110696911         100682991         090675681                                                                                                                                                        
310508402110014 06200 1110231CEPIERE 27          0080497LA FAOURETTE        0090542FAOURETTE           0090100001056001056320000500300000000000187      062906  57                                                                                                                             130000001         120641571         110637651         100626521         090634621                                                                                                                                                        
310508400310014 06200 1110231CEPIERE 27          0080497LA FAOURETTE        0090542FAOURETTE           0090100001056001056320000500300000000000187      133920  54                                                                                                                             130000001         121347321         111334561         101309511         091310301                                                                                                                                                        
310508502110014 06200 1110231LA FAOURETTE        0090542BORDELONGUE         0110801PT DE SEYSSES       0100604002247002247320000500300000000000187      063145  59                                                                                                                             130000001         120631121         110630221         100655141         090625201                                                                                                                                                        
310508500310014 06200 1110231LA FAOURETTE        0090542BORDELONGUE         0110801PT DE SEYSSES       0100604002247002247320000500300000000000187      131177  55                                                                                                                             130000001         121307171         111303761         101287231         091284741                                                                                                                                                        
310508500210014 06200 1110231LA FAOURETTE        0090542BORDELONGUE         0110801PT DE SEYSSES       0100604002247002247320000500300000000000187      068032  527    066502   069371   068567   070152   065218   070037   068307   060537   071093   072753   067238   066941               130678061  537    120676051    7    110673541    7    100662091         090659541         065021   067739   068076   069076   066397   070407   071890   062706   069845   071221   065883   065538                                      
310508700310014 06200 1110231LANGLADE 25         0110801EMPALOT 24          0130601EMPALOT             0120660001836001836320000500300000000000187      135708  347    133417   139987   135464   140175   129854   137714   136852   121628   142073   143502   134714   133913               130000001         121220791    7    111331041    7    101236771    7    091282971                                                                                                                                                        
310508700210014 06200 1110231LANGLADE 25         0110801EMPALOT 24          0130601EMPALOT             0120660001836001836320000500300000000000187      065857  307    064490   067848   065821   068188   062904   066158   066698   058714   069409   070004   065329   065102               130000001         120566361    7    110666061    7    100523301    7    090632281                                                                                                                                                        
310508700110014 06200 1110231LANGLADE 25         0110801EMPALOT 24          0130601EMPALOT             0120660001836001836320000500300000000000187      069851  377    068927   072139   069643   071987   066950   071556   070154   062914   072664   073498   069385   068811               130000001         120654431    7    110664981    7    100713471    7    090650691                                                                                                                                                        
310508800310014 06200 1110231EMPALOT 24          0130601RANGUEIL 23         0140000RANGUEIL            0130888000363000363320000500300000000000187      089096  467    085785   090343   088065   091242   085551   090852   092141   083858   093034   093639   087316   087649               130894501  467    120881161    7    111164581    7    100865361    7    091134711         085482   088527   089590   092192   087392   092814   095698   085018   090877   093631   087435   084841                                      
310508800210014 06200 1110231EMPALOT 24          0130601RANGUEIL 23         0140000RANGUEIL            0130888000363000363320000500300000000000187      043606  447    042126   044198   043231   044881   041735   044109   044816   040874   045843   045789   042824   043010               130438421  457    120432941    7    110584301    7    100425701    7    090567721         041773   043488   043915   045157   042863   045295   047565   041612   044578   045660   042526   041713                                      
310508800110014 06200 1110231EMPALOT 24          0130601RANGUEIL 23         0140000RANGUEIL            0130888000363000363320000500300000000000187      045490  477    043659   046145   044834   046361   043816   046743   047325   042984   047191   047850   044492   044639               130456081  487    120448221    7    110580281    7    100439661    7    090566991         043709   045039   045675   047035   044529   047519   048133   043406   046299   047971   044909   043128                                      
310508900310014 06200 1110231RANGUEIL 23         0140000DEMOISELLES 21      0150880RANGUEIL-DEMOIS     0140536001873001873320000500300000000000187      100171  49                                                                                                                             130000001         120992471         110987201         100973401         090962871                                                                                                                                                        
310508900210014 06200 1110231RANGUEIL 23         0140000DEMOISELLES 21      0150880RANGUEIL-DEMOIS     0140536001873001873320000500300000000000187      048199  49                                                                                                                             130000001         120481871         110481091         100474711         090469651                                                                                                                                                        
310508900110014 06200 1110231RANGUEIL 23         0140000DEMOISELLES 21      0150880RANGUEIL-DEMOIS     0140536001873001873320000500300000000000187      051972  49                                                                                                                             130000001         120510601         110506111         100498691         090493221                                                                                                                                                        
310509000310014 06200 1110231DEMOISELLES 21      0150880LESPINET 20         0160048DEMOISELLES         0160000000172000172320000500300000000000187      104867  517    102482   107151   104323   107854   100789   103921   107054   096925   110086   110713   103757   103776               131054531  517    121040321    7    111033591    7    101094161    7    090000001         101130   104781   106060   107553   103566   109496   111976   098504   107877   110500   103648   100491                                      
310509000210014 06200 1110231DEMOISELLES 21      0150880LESPINET 20         0160048DEMOISELLES         0160000000172000172320000500300000000000187      053001  487    051734   054267   053072   054845   050882   050578   053749   049010   056234   056165   052784   052896               130535441  487    120531141    7    110527951    7    100561141    7    090000001         051183   053304   054004   054868   052615   055393   057459   049906   054778   055729   052189   051172                                      
310509000110014 06200 1110231DEMOISELLES 21      0150880LESPINET 20         0160048DEMOISELLES         0160000000172000172320000500300000000000187      051866  557    050748   052884   051251   053009   049907   053343   053305   047915   053852   054548   050973   050880               130519091  567    120509181    7    110505641    7    100533021    7    090000001         049947   051477   052056   052685   050951   054103   054517   048598   053099   054771   051459   049319                                      
310509100310014 06200 1110231LESPINET 20         0160048PALAYS A61          0170777LESPINET            0160285001730001730320000500300000000000187      079683         093753   098037   088731   089508   080371   082615   074572   056646   065820   056009   074167   097534               130932291  557    120950501    7    110955801    7    100957821    7    090952471         092541   095891   097207   100064   095366   098968   094160   073288   083795   099851   095345   092699                                      
310509100210014 06200 1110231LESPINET 20         0160048PALAYS A61          0170777LESPINET            0160285001730001730320000500300000000000187      029951  487    045046   047170   040762   039253   033187   032836   023003   010028   013614   003329   024710   047843               130443521  567    120458321    7    110466961    7    100466421    7    090464801         044636   046409   047016   048442   045933   046590   044260   032761   038182   047853   045521   044868                                      
310509100110014 06200 1110231LESPINET 20         0160048PALAYS A61          0170777LESPINET            0160285001730001730320000500300000000000187      049732         048707   050867   047969   050255   047184   049779   051569   046618   052206   052680   049457   049691               130488771  537    120492181    7    110488841    7    100491401    7    090487671         047905   049482   050191   051622   049433   052378   049900   040527   045613   051998   049824   047831                                      
310509600310014 06210 1110231ST MICHEL DU TOUCH  0000000LE RITOURET         0030992RITOURET            0020485003990003990320000500300000000000998      000000    7    068964   070862   067780   071627   064971   071055   068720   055650   070588   074273   069241   069737               130000001  417    120912271    7    110980821         100972381    7    090972781         067244   069265   069459   071019   066120   073105   070701   056064   069924   072945   069585   067384                                      
310509600210014 06210 1110231ST MICHEL DU TOUCH  0000000LE RITOURET         0030992RITOURET            0020485003990003990320000500300000000000998      000000    7    018421   019169   017427   019288   016701   019090   018503   013210   019028   020156   018426   018524               130000001  467    120409651    7    110495911         100476711    7    090476591         017801   018376   018224   018733   016876   019875   019318   013628   018758   019975   018825   017795                                      
310509600110014 06210 1110231ST MICHEL DU TOUCH  0000000LE RITOURET         0030992RITOURET            0020485003990003990320000500300000000000998      050437  367    050543   051693   050353   052339   048270   051965   050217   042440   051560   054117   050815   051213               130503661  377    120502621    7    110484911    7    100495671    7    090496191         049443   050889   051235   052286   049244   053230   051383   042436   051166   052970   050760   049589                                      
310509200310014 06230 1114031PALAYS              0000000CNES                0000415A623                0000250000415000415320000500300000000000187      027906  407    028927   030394   028123   028959   025099   028081   025829   021150   029526   029462   030189   029531               130000001         120000001         110407261         100410201         090404691                                                                                                                                                        
310502002210014 06240 111 231PURPAN              0000000BAYLAC 1            0000520PURPAN A624         0000351000520000520320000500300000000000194      057382  43                                                                                                                             130000001         120568871    7    110568071    7    100566301         090575891                                                                                                                                                        
310502002110014 06240 111 231PURPAN              0000000BAYLAC 1            0000520PURPAN A624         0000351000520000520320000500300000000000194      049031  46                                                                                                                             130000001         120485041         110498261         100495081         090485121                                                                                                                                                        
310502000310014 06240 111 231PURPAN              0000000BAYLAC 1            0000520PURPAN A624         0000351000520000520320000500300000000000194      106413  44                                                                                                                             130000001         121053911         111066331         101061381         091061011                                                                                                                                                        
310502103210014 06240 111 231BAYLAC 1            0000520ST MARTIN DU TOUCH  0010500BAYLAC              0001184001163001163320000500300000000000194      055036  53                                                                                                                             130000001         120545811         110548551         100536461         090534301                                                                                                                                                        
310502103110014 06240 111 231BAYLAC 1            0000520ST MARTIN DU TOUCH  0010500BAYLAC              0001184001163001163320000500300000000000194      049945  52                                                                                                                             130000001         120450321         110518111         100523891         090534761                                                                                                                                                        
310502100310014 06240 111 231BAYLAC 1            0000520ST MARTIN DU TOUCH  0010500BAYLAC              0001184001163001163320000500300000000000194      104981  53                                                                                                                             130000001         120996131         111066661         101060351         091069061                                                                                                                                                        
310502203210014 06240 111 231ST MARTIN DU TOUCH  0010500LA CRABE            0030900CRABE EST           0020252002400002400320000500300000000000194      063170  54                                                                                                                             130000001         120615641         110611641         100598431         090597221                                                                                                                                                        
310502203110014 06240 111 231ST MARTIN DU TOUCH  0010500LA CRABE            0030900CRABE EST           0020252002400002400320000500300000000000194      064672  54                                                                                                                             130000001         120634731         110627701         100623241         090572891                                                                                                                                                        
310502200310014 06240 111 231ST MARTIN DU TOUCH  0010500LA CRABE            0030900CRABE EST           0020252002400002400320000500300000000000194      127842  54                                                                                                                             130000001         121250371         111239341         101221671         091170111                                                                                                                                                        
320000200310014 00210 4113 51LECTOURE NORD       0100760FLEURANCE EB 10     0220960SAINT GENY          01708500114410114413200005003000       0187      006275 1188    005641   005988   005999   006394   006036   006472   006920   006870   006545   006658   005909   005844               130062461  718    120068241    8    110064321 1248    100064601    8    090064481    8    005452   005654   006075   006235   006259   006467   006899   006957   006520   006617   005896   005870                                      
320000200210014 00210 4113 51LECTOURE NORD       0100760FLEURANCE EB 10     0220960SAINT GENY          01708500114410114413200005003000       0187      003125 1398    002827   002986   003000   003192   002998   003228   003439   003453   003271   003274   002935   002886               130031141  768    120031541    8    110031981    8    100032061    8    090031581    8    002723   002799   003009   003096   003127   003237   003433   003503   003248   003317   002929   002916                                      
320000200110014 00210 4113 51LECTOURE NORD       0100760FLEURANCE EB 10     0220960SAINT GENY          01708500114410114413200005003000       0187      003150  988    002814   003002   002999   003202   003038   003244   003481   003417   003274   003384   002974   002958               130031321  628    120036701 1118    110032341    8    100032541    8    090032901    8    002729   002855   003066   003139   003132   003230   003466   003454   003272   003300   002967   002954                                      
320000300310014 00210 4843 51FLEURANCE EB 10     0220960FLEURANCE EB 20     0260856FLEURANCE AGGLO     02500000043080043083200005003000       0187      000000                                                                                                                                 130074778         120075098         110000008         100000008         090072638                                                                                                                                                        
320000400310014 00210 4813 51FLEURANCE EB 20     0260856RD 172              0360397FLEURANCE AN SUD    02608700096010096013200005003000       0187      000000                                                                                                                                 130078138         120000008         110000008         100000008         090082828                                                                                                                                                        
320000500310014 00210 4113 51RD 172              0360397AUCH EB 10          0460900ROUTE D'AGEN        04504500105290105293200016013000       0187      010086         009704   010141   009959   010428   009800   010295   010180   009820   010436   010708   009775   009809               130097831         120098241         110103221         100103791         090103691         009410   009541   009889   009813   008778   009633   010049   009966   010298   010548   009803   009657                                      
320000500210014 00210 4113 51RD 172              0360397AUCH EB 10          0460900ROUTE D'AGEN        04504500105290105293200016013000       0187      005014         004843   005044   004971   005184   004864   005131   005019   004873   005209   005338   004860   004845               130048681         120048291         110051531         100051771         090052001         004705   004725   004897   004878   004382   004777   004977   004975   005134   005281   004892   004788                                      
320000500110014 00210 4113 51RD 172              0360397AUCH EB 10          0460900ROUTE D'AGEN        04504500105290105293200016013000       0187      005072         004861   005097   004988   005244   004936   005164   005161   004947   005227   005370   004915   004964               130049151         120049951         110051691         100052021         090051691         004705   004816   004992   004935   004396   004856   005072   004991   005164   005267   004911   004869                                      
320000599310014 00210 4853 51AUCH EB 10          0460900AUCH EB 20          0520026AUCH                05200000054200054203200016013000       0187      000000                                                                                                                                 130207688         120000008         110209018         100000008         090195228                                                                                                                                                        
320000601310014 00210 4113 51AUCH EB 20          0520026DEBUT 3 VOIES       0630209DEPOT FERRE         05309000111850111853200006013000       0187      000000                                                                                                                                 130078471         120077721         110079591         100080411         090080801         007098   007407   007800   007795   007793   008259   008363   008098   008092   008244   007585   007602                                      
320000601210014 00210 4113 51AUCH EB 20          0520026DEBUT 3 VOIES       0630209DEPOT FERRE         05309000111850111853200006013000       0187      000000                                                                                                                                 130038951         120038371         110039311         100039661         090039791         003530   003670   003873   003876   003908   004129   004094   004021   004024   004081   003761   003761                                      
320000601110014 00210 4113 51AUCH EB 20          0520026DEBUT 3 VOIES       0630209DEPOT FERRE         05309000111850111853200006013000       0187      000000                                                                                                                                 130039521         120039351         110040281         100040751         090041011         003568   003737   003927   003919   003885   004130   004269   004077   004068   004163   003824   003841                                      
320000602310014 00210 4815 51DEBUT 3 VOIES       0630209FIN 3 VOIES         0650264COMPTAGE 0006 01    06500000019810019813200006013000       0187      000000                                                                                                                                 130082478         120000008         110000008         100000008         090084928                                                                                                                                                        
320000603310014 00210 4813 51FIN 3 VOIES         0650264DEBUT 3 VOIES       0690175COMPTAGE 0006 02    06600000037400037403200006011000       0187      005902 100 uci                                                                                                                         130061578         120000008         110000008         100000008         090063908                                                                                                                                                        
320000604310014 00210 4815 51DEBUT 3 VOIES       0690175FIN 3 VOIES         0700499COMPTAGE 0006 03    07000000013300013303200006012000       0187      000000                                                                                                                                 130081248         120000008         110000008         100000008         090083008                                                                                                                                                        
320000605310014 00210 4813 51FIN 3 VOIES         0700499RD 104              0720812COMPTAGE 0006 04    07100000022820022823200006013000       0187      000000                                                                                                                                 130075088         120000008         110000008         100000008         090077318                                                                                                                                                        
320000700310014 00210 4813 51RD 104              0720812RD 3                0890612MIRANDE             07505000167280167283200008003000       0187      004934 131 uci                                                                                                                         130056428         120000008         110000008         100000008         090058418                                                                                                                                                        
320000800310014 00210 4113 51RD 3                0890612DEPARTEMENT 65      1000408LAGUIAN             08909000102290102293200010003000       0187      004619 1137    004124   004331   004441   004613   004511   004788   004991   005079   004956   004891   004416   004264               130046431 1127    120046751 1137    110047361 1117    100047571 1157    090048061 1247    004073   004176   004539   004577   004535   004688   005289   005215   004958   004847   004388   004383                                      
320000800210014 00210 4113 51RD 3                0890612DEPARTEMENT 65      1000408LAGUIAN             08909000102290102293200010003000       0187      002286 1157    002062   002139   002211   002297   002247   002357   002475   002501   002412   002425   002196   002096               130022961 1147    120023051 1137    110023561 1107    100023741 1147    090024001 1227    002028   002076   002256   002296   002267   002330   002532   002557   002453   002403   002178   002153                                      
320000800110014 00210 4113 51RD 3                0890612DEPARTEMENT 65      1000408LAGUIAN             08909000102290102293200010003000       0187      002333 1107    002062   002192   002230   002316   002264   002431   002516   002578   002544   002466   002220   002168               130023471 1107    120023701 1127    110023801 1147    100023831 1187    090024061 1287    002045   002100   002283   002281   002268   002358   002757   002658   002505   002444   002210   002230                                      
320000901310014 01240 4813 51DEPARTEMENT 31      0000000DEBUT DEV PUJAUDRAN 0020700COMPTAGES 0009.03   0010000002690002690320001000331000340030191      000000                                                                                                                                 130000008         120000008         110000008         100000008         090145338                                                                                                                                                        
320000902310014 01240 481 251DEBUT DEV.PUJAUDRAN 0020700FIN DEV.            0050800DEV.PUJAUDRAN       0040000002982002982320001000300000000000191      000000                                                                                                                                 130000008         120000008         110000008         100000008         090144098                                                                                                                                                        
320000902210014 01240 481 251DEBUT DEV.PUJAUDRAN 0020700FIN DEV.            0050800DEV.PUJAUDRAN       0040000002982002982320001000200000000000191      000000                                                                                                                                 130000008         120000008         110000008         100000008         090066598                                                                                                                                                        
320000902110014 01240 481 251DEBUT DEV.PUJAUDRAN 0020700FIN DEV.            0050800DEV.PUJAUDRAN       0040000002982002982320001000100000000000191      000000                                                                                                                                 130000008         120000008         110000008         100000008         090077508                                                                                                                                                        
320000903310014 01240 411 251FIN DEV .PUJAUDRAN  0050800RD 654              0130143PUJAUDRAN           0060165006290006290320001000300000000000191      022750  688    022351   023039   021997   023079   021861   022950   022462   022168   023618   023823   022555   023166               130229831  548    120222671    8    110220551    8    100213601    8    090188661    8    023398   022816   022091   022383   022036   023333   023806   022101   022378   023488   024005   023947                                      
320000903210014 01240 411 251FIN DEV .PUJAUDRAN  0050800RD 654              0130143PUJAUDRAN           0060165006290006290320001000300000000000191      011537  628    011861   012015   011176   011493   010936   011616   011278   011123   011852   011833   011310   012008               130118801  488    120114641    8    110114931    8    100111791    8    090095991    8    013499   012385   011131   011274   011070   011654   011667   011098   011049   011738   012979   013045                                      
320000903110014 01240 411 251FIN DEV .PUJAUDRAN  0050800RD 654              0130143PUJAUDRAN           0060165006290006290320001000300000000000191      011213  758    010490   011024   010821   011586   010925   011334   011184   011045   011766   011990   011245   011158               130111031  668    120108031    8    110105621    8    100101811    8    090092671    8    009899   010431   010960   011109   010966   011679   012139   011003   011329   011750   011026   010902                                      
320001000310014 01240 4113 51RD 654              0130143DEBUT 3 VOIES       0320587ISLE JOURDAIN       0170800019015019015320001000300000000000187      000000                                                                                                                                 130000001         120000001         110116461 1038    100113721    8    090107991    8                                                                                                                                                   
320001000210014 01240 4113 51RD 654              0130143DEBUT 3 VOIES       0320587ISLE JOURDAIN       0170800019015019015320001000300000000000187      000000                                                                                                                                 130000001         120000001         110058191    8    100056811    8    090054011    8                                                                                                                                                   
320001000110014 01240 4113 51RD 654              0130143DEBUT 3 VOIES       0320587ISLE JOURDAIN       0170800019015019015320001000300000000000187      000000                                                                                                                                 130000001         120000001         110058271    8    100056911    8    090053981    8                                                                                                                                                   
320001100310014 01240 4815 51DEBUT 3 VOIES       0320587GIR. AUBIET EST     0350180CAHUZAC             0330500002610002610320001000300000000000187      000000                                                                                                                                 130000008         120000008         110000008         100000008         090108458                                                                                                                                                        
320001200310014 01240 481 251GIR. AUBIET EST     0350180RD 928              0380970DEV AUBIET EST      0360000003877003877320001000300000000000187      000000                                                                                                                                 130000008         120000008         110000008         100000008         090098918                                                                                                                                                        
320001300310014 01240 481 251RD 928              0380970GIR. AUBIET OUEST   0421029DEV AUBIET OUEST    0390300004175004175320001000300000000000187      000000                                                                                                                                 130000008         120000008         110000008         100000008         090127018                                                                                                                                                        
320001400310014 01240 4815 51GIR. AUBIET OUEST   0421029FIN 3 VOIES         0490332MARSAN              0470000006295006295320001000300000000000187      000000                                                                                                                                 130000008         120000008         110000008         100000008         090116338                                                                                                                                                        
320001501310014 01240 4113 51FIN 3 VOIES         0490332GIR ST.CRICQ        0510490ST.CRICQ            0420900002010002010320001601300000000000189      012626  727    011068   011645   011863   012652   012478   013204   013572   013815   013225   013303   012357   012269               130124681  697    120000001         110000001         100143531         090141891                  011124   011845   012199   012365   012685   013383   013319   013298   012952   012120   011749                                      
320001501210014 01240 4113 51FIN 3 VOIES         0490332GIR ST.CRICQ        0510490ST.CRICQ            0420900002010002010320001601300000000000189      006274  657    005514   005787   005896   006242   006187   006567   006709   006956   006603   006583   006164   006046               130061871  657    120000001         110000001         100071521         090070131                  005521   005835   006063   006157   006306   006577   006653   006655   006406   006018   005816                                      
320001501110014 01240 4113 51FIN 3 VOIES         0490332GIR ST.CRICQ        0510490ST.CRICQ            0420900002010002010320001601300000000000189      006352  787    005554   005858   005967   006410   006291   006637   006863   006859   006622   006720   006193   006223               130062811  797    120000001         110000001         100072011         090071761                  005603   006010   006136   006208   006379   006806   006666   006643   006546   006102   005933                                      
320001502310014 01240 4113 01GIR ST.CRICQ        0510490GIR . ENDOUMINGUE   0560100ENGACHIES           0530020003766003766320001601300000000000187      009139 1278    007910   008366   008434   009168   008832   009785   009905   010088   009674   009635   008933   008896               130090441 1028    120085091 1418    110088371 1238    100082821 1267    090080371    8    007633   008141   008649   009162   009570   009412   010250   009858   009320   009270   008638   008541                                      
320001502210014 01240 4113 01GIR ST.CRICQ        0510490GIR . ENDOUMINGUE   0560100ENGACHIES           0530020003766003766320001601300000000000289      004619 1238    004006   004208   004281   004615   004463   004969   004969   005179   004913   004834   004513   004451               130045591  988    120042551 1378    110046951    8    100041991 1247    090040581    8    003872   004084   004318   004635   004774   004732   005144   005038   004774   004656   004368   004269                                      
320001502110014 01240 4113 01GIR ST.CRICQ        0510490GIR . ENDOUMINGUE   0560100ENGACHIES           0530020003766003766320001601300000000000289      004520 1318    003904   004158   004153   004553   004369   004816   004936   004909   004761   004801   004420   004445               130044851 1098    120042541 1508    110041421    8    100040831 1317    090039791    8    003761   004057   004331   004527   004796   004680   005106   004820   004546   004614   004270   004272                                      
320001601310014 01240 4113 01GIR . ENDOUMINGUE   0560100GIR. RD 930         0620500DURAN               0610450005388005388320001601300000000000287      010912  967    009672   010210   010103   010982   010593   011738   011983   011844   011487   011343   010500   010450               130106781 1007    120104021 1027    110107461 1007    100107791    7    090100371    7    009219   009662   010190   010600   010807   010897   012048   011759   011152   011103   010382   010231                                      
320001601210014 01240 4113 01GIR . ENDOUMINGUE   0560100GIR. RD 930         0620500DURAN               0610450005388005388320001601300000000000287      005498  957    004867   005109   005084   005503   005324   005937   006005   006102   005832   005683   005298   005210               130053671  957    120052811    7    110054351    7    100056441    7    090050401    7    004660   004825   005060   005342   005453   005455   006011   005994   005662   005561   005220   005119                                      
320001601110014 01240 4113 01GIR . ENDOUMINGUE   0560100GIR. RD 930         0620500DURAN               0610450005388005388320001601300000000000287      005414  987    004805   005101   005019   005479   005269   005801   005978   005742   005655   005660   005202   005240               130053111 1117    120051211 1137    110053111 1137    100051351 1047    090049971    7    004559   004837   005130   005258   005354   005442   006037   005765   005490   005542   005162   005112                                      
320001701310014 01240 4813 51GIR. RD 930         0620500DEBUT 3 VOIES       0730700NAHES               0650000011046011046320001601300000000000187      000000                                                                                                                                 130085698         120000008         110000008         100000008         090080558                                                                                                                                                        
320001702310014 01240 4815 51DEBUT 3 VOIES       0730700FIN 3 VOIES         0760330ST JEAN POUTGE      0750000002653002653320001601300000000000187      000000                                                                                                                                 130085858         120000008         110000008         100000008         090080708                                                                                                                                                        
320001703310014 01240 4813 51FIN 3 VOIES         0760330RD 626              0850735ST JEAN POUTGE      0780000009453009453320001601300000000000187      000000                                                                                                                                 130067848         120066098         110000008         100000008         090066648                                                                                                                                                        
320001800310014 01240 4813 51RD 626              0850735RN 524              1030378CARGET              0870000017578017578320001601300000000000187      006216 162 uci                                                                                                                         130051508         120000008         110000008         100000008         090048418                                                                                                                                                        
320004000310014 02240 4812 51R N 124             0000000RD 654              0030000L'ISLE JOURDAIN     0010500003058003058320001000300000000001290      000000                                                                                                                                 130000008         120000008         110000008         100021848         090021808                                                                                                                                                        
320004001310014 02240 4812 51RD 654              0030000HAUTE GARONNE       0060654L'ISLE JOURDAIN     0040000003698003698320001000300000000000106      000000                                                                                                                                 130000008         120000008         110000008         100010628         090009238                                                                                                                                                        
320003000310014 05240 4812 51DPT LANDES          0780311RD 626 CAZAUBON     0840000BARBOTAN            0840000005823005823320001601300000000000189      000000                                                                                                                                 130016798         120000008         110000008         100000008         090000008                                                                                                                                                        
320003100310014 05240 4812 51RD 626 CAZAUBON     0840000RD 931 EAUZE        1030000MANCIET             1020000019207019207320001601300000000000189      000000                                                                                                                                 130048858         120000008         110000008         100000008         090000008                                                                                                                                                        
320003300310014 05240 4812 51RD 931 EAUZE        1030000R.N 124             1070373LA JALOUSIE         10500000044970044973200016013          0189      000000                                                                                                                                 130015218         120000008         110000008         100000008         090014308                                                                                                                                                        
330093200310014 05240 4843 51PORT LANGON         0000000RD 3  BAZAS         0120790MAZERES             00707640135340135340000000000000       0397      009234  63 uci                                                                                                                         130000008         120000008         110000008         100167768         090000008                                                                                                                                                        
330093201310014 05240 4843 51RD 3  BAZAS         0120790RD 932 CAPTIEUX     0320000CAPTIEUX NORD       03002000188190188190000000000000       0397      003461  89 uci                                                                                                                         130000008         120000008         110000008         100067488 184     090070508                                                                                                                                                        
330093202310014 05240 4843 51RD 932 CAPTIEUX     0320000DPT 40              0360403CAPTIEUX  vers DPT4003600000043890043890000000000400       0397      000000                                                                                                                                 130000008         120000008         110000008         100000008         090000008                                                                                                                                                        
