160000100110015 00100 411 251DEPARTEMENT 79      0000000ECH NORD.RUFFEC     0050000RUFFEC              0020930005279005279170000200386000090030187      008465 3587    006997   007811   007719   008786   008629   008655   010309   010057   008294   008383   007698   008167               140083121 3607    130081641 3657    120080361 3727    110079501 3987    100080001         006963   007652   007726   008784   008158   008645   009960   010163   007893   008242   007533   007942                                      
160000100210015 00100 411 251DEPARTEMENT 79      0000000ECH NORD.RUFFEC     0050000RUFFEC              0020930005279005279170000200386000090031187      008594 3557    007141   007806   007927   008678   008869   008740   009263   011374   008705   008516   008083   007939               140083541 3607    130082661 3667    120081851 3697    110079651 4117    100077511         007182   007606   007844   008668   008274   008881   009151   010201   008419   008324   007844   007795                                      
160000100310015 00100 411 251DEPARTEMENT 79      0000000ECH NORD.RUFFEC     0050000RUFFEC              0020930005279005279170000200386000090030187      017059 3567    014138   015617   015646   017464   017498   017395   019572   021431   016999   016899   015781   016106               140166661 3607    130164301 3667    120162211 3707    110159151 4077    100157511         014145   015258   015570   017452   016432   017526   019111   020364   016312   016566   015377   015737                                      
160000102110015 00100 411 251ECH NORD.RUFFEC     0050000ECH NORD ANGOULEME  0450000AUSSAC              0270080040619039586170000200300000000000187      011129 2977    009346   010245   010267   011252   010829   011266   012741   014667                     010039   010638               140103861 3027    130106671 3107    120101441 2007    110079931 2897    100093991         009368   010089   010043   011190   010453   011095   012305   012005   009262   010815   010008   007970                                      
160000102210015 00100 411 251ECH NORD.RUFFEC     0050000ECH NORD ANGOULEME  0450000AUSSAC              0270080040619039586170000200300000000000187      010443 3007    009131   009854   010024   010709   010516   010880   011305   012105                     009904   010006               140104821 2967    130101401 3087    120105451 3027    110104611 3247    100097571         009324   009811   009950   010692   010249   010904   011090   012753   010678   010510   009939   009826                                      
160000102310015 00100 411 251ECH NORD.RUFFEC     0050000ECH NORD ANGOULEME  0450000AUSSAC              0270080040619039586170000200300000000000187      021572 2987    018477   020099   020291   021961   021345   022146   024046   026772                     019943   020644               140208681 2987    130208071 3097    120206891 2697    110184541 3147    100191561         018692   019900   019993   021882   020702   021999   023395   024758   019940   021325   019947   017796                                      
160000401110015 00100 415 251ECH NORD ANGOULEME  0450000RN 141 LES PLANES   0500950L EPINEUIL          0470300006347006347170000200300000000000187      023327 2297    020295   021842   021977   024098   022973   024527   026595   024674   023934   023771   022330   022811               140225711 2327    130221161 2327    120217031 2347    110209681 2427    100188581         020184   021193   021623   023193   021812   023270   025485   024062   022954   023229   021749   021989                                      
160000401210015 00100 415 251ECH NORD ANGOULEME  0450000RN 141 LES PLANES   0500950L EPINEUIL          0470300006347006347170000200300000000000187      023445 2327    020609   021852   022178   023927   023459   024758   024999   026446   024703   023316   022552   022457               140228701 2357    130223601 2377    120218961 2387    110216081 2457    100191071         020605   021201   021900   023336   022292   023950   024330   025516   023718   023478   022150   021856                                      
160000401310015 00100 415 251ECH NORD ANGOULEME  0450000RN 141 LES PLANES   0500950L EPINEUIL          0470300006347006347170000200300000000000187      046772 2317    040904   043694   044155   048025   046432   049285   051594   051120   048637   047087   044882   045268               140454411 2347    130444761 2357    120435991 2377    110425761 2447    100379651         040789   042394   043523   046529   044104   047220   049815   049578   046672   046707   043899   043845                                      
160000402110015 00100 411 251RN 141 LES PLANES   0500950RD 699 ST. MICHEL   0530900GIRAC               0530650002969002969170000200300000000000187      016158 2847    014124   015227   015184   016552   015918   016834   018522   016879   016419   016421   015473   016271               140156291 2867    130145491 2957    120148681 2927    110148171 3077    100138551         013987   014935   014955   016245   015154   015850   017623   016520   015634   016033   015121   015441                                      
160000402210015 00100 411 251RN 141 LES PLANES   0500950RD 699 ST. MICHEL   0530900GIRAC               0530650002969002969170000200300000000000187      016276 2867    014521   015165   015488   016535   016217   017086   017199   017945   016786   016573   015744   015977               140158931 2887    130150401 3067    120150931 2937    110150041 3067    100139061         014538   015025   015384   016272   015439   016359   016826   017425   016243   016308   015447   015387                                      
160000402310015 00100 411 251RN 141 LES PLANES   0500950RD 699 ST. MICHEL   0530900GIRAC               0530650002969002969170000200300000000000187      032434 2857    028645   030392   030672   033087   032135   033920   035721   034824   033205   032994   031217   032248               140315221 2877    130295891 3017    120299611 2937    110298211 3077    100277611         028525   029960   030339   032517   030593   032209   034449   033945   031877   032341   030568   030828                                      
160000800110015 00100 411 201BARBEZIEUX NORD     0800000BARBEZIEUX SUD      0880750BARBEZIEUX          0820500008823008823170000200300000000000599      010476 4187    008651   009704   009568   010647   010637   010735   012589   011958   010579   010572   009806   010182               140100351 4207    130098021 4257    120093061 4607    110094061 4767    100085991         008519   009351   009390   010400   009765   010315   011929   011744   009861   010135   009382   009559                                      
160000800210015 00100 411 201BARBEZIEUX NORD     0800000BARBEZIEUX SUD      0880750BARBEZIEUX          0820500008823008823170000200300000000000599      010721 4147    009009   009645   009997   010628   010996   011009   011622   013446   011203   010866   010217   009918               140102691 4137    130100651 4257    120102731 4247    110108431 4227    100086481         008946   009339   009779   010433   010056   010640   011076   012845   010512   010396   009690   009437                                      
160000800310015 00100 411 201BARBEZIEUX NORD     0800000BARBEZIEUX SUD      0880750BARBEZIEUX          0820500008823008823170000200300000000000599      021197 4157    017660   019349   019565   021275   021633   021744   024211   025404   021782   021438   020023   020100               140203041 4157    130198671 4257    120195791 4357    110202491 4387    100172471         017465   018690   019169   020833   019821   020955   023005   024589   020373   020531   019072   018996                                      
160000902110015 00100 411 201BARBEZIEUX SUD      0880750DEPARTEMENT 17      1011148REIGNAC             0900000013161013161170000200317000010030187      011011 3957    009150   010267   010122   011200   011223   011245   013223   012574   011030   011128   010168   010716               140105111 3917    130102751 4017    120102671 4267    110097741 4757    100118441         008978   009869   009893   010776   010248   010670   012337   012257   010257   010674   009935   010157                                      
160000902210015 00100 411 201BARBEZIEUX SUD      0880750DEPARTEMENT 17      1011148REIGNAC             0900000013161013161170000200317000010030187      011090 4087    009400   010087   010430   011024   011390   011351   011968   013849   011464   011295   010377   010344               140106161 4067    130103541 4187    120103121 4337    110104621 4297    100099181         009280   009711   010146   010633                     011450   013267   010819   010780   010085   009890                                      
160000902310015 00100 411 201BARBEZIEUX SUD      0880750DEPARTEMENT 17      1011148REIGNAC             0900000013161013161170000200317000010030187      022101 4047    018550   020354   020552   022224   022613   022596   025191   026423   022494   022423   020545   021060               140211271 4017    130206291 4137    120205791 4307    110202361 4447    100217621         018258   019580   020039   021409                     023787   025524   021076   021454   020020   020047                                      
160001502110015 01410 4110201RD 13 LA ROCHEFOU.  0430000RN 10 ANGOULEME NORD0700000RUELLE              0580500019284018513170000200300000000000187      011624 2087    009921   010570   010839   011870   011616   012237   013360   012834   012054   011873   011059   011171               140113051 2117    130106581 2127    120104591 2037    110093771 2227    100084201         009854   010291   010612   011578   011066   011888   012866   012512   011780   011652   010778   010715                                      
160001502210015 01410 4110201RD 13 LA ROCHEFOU.  0430000RN 10 ANGOULEME NORD0700000RUELLE              0580500019284018513170000200300000000000187      011746 2027    010089   010698   010975   011899   011770   012363   012814   013462   012411   012089   011197   011106               140114421 2057    130111211 2077    120106881 1987    110094771 2157    100085151         010056   010443   010781   011576   011232   012135   012468   013003   012171   011745   010913   010719                                      
160001502310015 01410 4110201RD 13 LA ROCHEFOU.  0430000RN 10 ANGOULEME NORD0700000RUELLE              0580500019284018513170000200300000000000187      023370 2047    020010   021268   021814   023769   023386   024600   026174   026296   024465   023962   022256   022277               140227471 2077    130217791 2097    120211471 2007    110188541 2177    100169351         019910   020734   021393   023154   022298   024023   025334   025515   023951   023397   021691   021434                                      
160001601110015 01410 4113 51RN 10 RTE COGNAC    0680000RD 736 JARNAC       0940160BOURRAS             0860170025948025113170000200300000000000187      007154  887    006053   006511   006796   007485   007172   007787   008392   007856   007513   007098   006698   006457               140069331  827    130068351    7    120067891    7    110067701    7    100064791         005988   006268   006590   007164   006716   007236   008035   007640   007424   007175   006609   006304                                      
160001601210015 01410 4113 51RN 10 RTE COGNAC    0680000RD 736 JARNAC       0940160BOURRAS             0860170025948025113170000200300000000000187      007280  877    006152   006582   006881   007462   007380   007881   008329   008305   007769   007234   006834   006508               140070451  797    130069581    7    120069091    7    110067851    7    100066191         006111   006359   006640   007139   006794   007336   007936   008030   007736   007274   006805   006346                                      
160001601310015 01410 4113 51RN 10 RTE COGNAC    0680000RD 736 JARNAC       0940160BOURRAS             0860170025948025113170000200300000000000187      014434  887    012205   013093   013677   014947   014552   015668   016721   016161   015282   014332   013532   012965               140139781  807    130137931    7    120136981    7    110135551    7    100130981         012099   012627   013230   014303   013510   014572   015971   015670   015160   014449   013414   012650                                      
160001700110015 01410 4113001RD 736 JARNAC       0940160RD 736 MONTAGAN     0960400JARNAC              0950023002255002255170000200300000000000193      006160  947    005150   005592   005867   006539   006328   006665            007120   006660   006192   006081   005551               140061781  937    130059911    7    120000001         110000001    0    100000001    0    005203   005465   005771   006361   006108   006744   007257   006988   006580   006319   005799   005500                                      
160001700210015 01410 4113001RD 736 JARNAC       0940160RD 736 MONTAGAN     0960400JARNAC              0950023002255002255170000200300000000000193      006273  887    005166   005656   005807   006505   006529   006727            007577   006899   006289   006242   005592               140062361  877    130060931    7    120000001         110000001    0    100000001    0    005126   005525   005597   006101   006275   006910   007180   007404   006861   006384   005995   005439                                      
160001700310015 01410 4113001RD 736 JARNAC       0940160RD 736 MONTAGAN     0960400JARNAC              0950023002255002255170000200300000000000193      012433  907    010316   011248   011674   013044   012857   013392            014697   013559   012481   012323   011143               140124141  897    130120841    7    120000001         110000001    0    100000001    0    010329   010990   011368   012462   012383   013654   014437   014392   013441   012703   011794   010939                                      
160001802110015 01410 411 201RD 736 MONTAGAN     0960400GIR. CHA BERNARD    1050130GENSAC              1030059008587008560170000200300000000000187      009254  937    008658   009102   009312   010069   009570   010457   010471   009200   009218   008673   008231   008102               140096021  897    130092331    7    120090861    7    110089241    7    100080011         008278   008701   009304   009985   009517   010229   010733   010426   009920   009867   009067   009142                                      
160001802210015 01410 411 201RD 736 MONTAGAN     0960400GIR. CHA BERNARD    1050130GENSAC              1030059008587008560170000200300000000000187      009856  777    008782   009173   009406   010040   009732   010495   010991   010638   010400   009854   009545   009184               140096541  777    130093171    7    120091961 1597    110090431         100080521         008395   008726   009260   009839   009490   010337   010636   010425   010350   009939   009223   009172                                      
160001802310015 01410 411 201RD 736 MONTAGAN     0960400GIR. CHA BERNARD    1050130GENSAC              1030059008587008560170000200300000000000187      019110  827    017440   018275   018718   020109   019302   020952   021462   019838   019618   018527   017776   017286               140192561  817    130185501    7    120182821 1377    110179671         100160531         016673   017427   018564   019824   019007   020566   021369   020851   020270   019806   018290   018314                                      
160001901110015 01410 4153 51GIR. CHA. BERNARD   1050130GIR. CROIN          1100000COGNAC              1080960005137005137170000200300000000000187      009665  787    008286   008763   009051   009889   009510   010187   010936   010416   010216   009911   009255   009502               140093961  777    130092001    7    120000001         110089491    7    100000001         008471   008759   009131   009641   009278   009780   010555   010089   009810   009580   008728   008881                                      
160001901210015 01410 4153 51GIR. CHA. BERNARD   1050130GIR. CROIN          1100000COGNAC              1080960005137005137170000200300000000000187      009492  747    008066   008473   008885   009420   009531   009933   010586   010660   010099   009713   009196   009271               140092351  757    130091711    7    120000001         110086851    7    100000001         008306   008518   008881   009282   009004   009629   010214   010395   009818   009353   008661   008703                                      
160001901310015 01410 4153 51GIR. CHA. BERNARD   1050130GIR. CROIN          1100000COGNAC              1080960005137005137170000200300000000000187      019157  767    016352   017236   017936   019309   019041   020120   021522   021076   020315   019624   018451   018773               140186311  767    130183711    7    120000001         110176341    7    100000001         016777   017277   018012   018923   018282   019409   020769   020484   019628   018933   017389   017584                                      
160002000110015 01410 4113 51GIR. CROIN          1100000DEPARTEMENT 17      1160367MOULIN ST LAURENT   1130660006657006657170000200317000210030187      006536  797    005151   005600   005935   006600   006750   006794   007980   008254   006920   006416   006021   005929               140066811  797    130000001         120000001         110000001         100000001                           005992   006419   006546   007104   007910   008070   006920   006454   005757   005618                                      
160002000210015 01410 4113 51GIR. CROIN          1100000DEPARTEMENT 17      1160367MOULIN ST LAURENT   1130660006657006657170000200317000210030187      006538  857    005146   005517   005864   006418   006795   006749   007843   008660   007148   006392   006018   005811               140066171         130000001         120000001         110000001         100000001                           005845   006266   006413   007080   007629   008276   007023   006353   005770   005503                                      
160002000310015 01410 4113 51GIR. CROIN          1100000DEPARTEMENT 17      1160367MOULIN ST LAURENT   1130660006657006657170000200317000210030187      013074  837    010297   011117   011799   013018   013545   013543   015823   016914   014068   012808   012039   011740               140132981         130000001         120000001         110000001         100000001                           011837   012685   012959   014184   015539   016346   013943   012807   011527   011121                                      
170000100110015 00100 481 251DEPARTEMENT 16      0000000RD 730              0090915CHEVANCEAUX         0010000009935008904170000200316000090130187      010586 4177    008725   009813   009701   010772   010838   010812   012809   012213   010610   010697   009749   010294               140097738         130098708 4537    120000008         110000008         100000008                                                                                                                                                        
170000100210015 00100 481 251DEPARTEMENT 16      0000000RD 730              0090915CHEVANCEAUX         0010000009935008904170000200316000090130187      010771 4237    009070   009741   010117   010549   011167   011041   011694   013556   011199   011001   010076   010037               140100088         130101078 4317    120000008         110000008         100000008                                                                                                                                                        
170000100310015 00100 481 251DEPARTEMENT 16      0000000RD 730              0090915CHEVANCEAUX         0010000009935008904170000200316000090130187      021357 4207    017795   019554   019818   021321   022005   021853   024503   025769   021809   021698   019825   020331               140197818         130199778 4417    120000008         110000008         100000008                                                                                                                                                        
170000200110015 00100 411 251RD 730              0090915DEPARTEMENT 33      0190783MONTLIEU LA GARDE   0110300009672009672170000300300000000030187      011408 3997    009429   010580   010447   011575   011641   011742   013697   013115   011379   011460   010578   011163               140109211 3967    130106471 4027    120000001         110000001         100000001         009304   010211   010322   011384   010687   011216   012758   012724                     010070   010463                                      
170000200210015 00100 411 251RD 730              0090915DEPARTEMENT 33      0190783MONTLIEU LA GARDE   0110300009672009672170000300300000000030187      011516 4037    009699   010433   010781   011441   011852   011907   012472   014323   011857   011676   010807   010835               140103331         130108171 4067    120000001         110000001         100000001         009627   010072   010587   011266   004673   011463   011608   013653                     010192   010229                                      
170000200310015 00100 411 251RD 730              0090915DEPARTEMENT 33      0190783MONTLIEU LA GARDE   0110300009672009672170000300300000000030187      022924 4017    019128   021013   021228   023016   023493   023649   026169   027438   023236   023136   021385   021998               140212541         130214641 4057    120000001         110000001         100000001         018931   020283   020909   022650   015360   022679   024366   026377                     020262   020692                                      
170000300110015 00110 411 251DEPARTEMENT 79      0000000RD 116              0090272BENON               0080000009375009375170000300379000080230187      006841 1067    005278   005913   006241   007520   007268   007357   008417   008079            006732   006151   006218               140066571 1067    130064831 1147    120063281 1107    110060681 1137    100060651         005480   005631   006121   006985   006813   007255   007927   007931   007149   006773   005880   005859                                      
170000300210015 00110 411 251DEPARTEMENT 79      0000000RD 116              0090272BENON               0080000009375009375170000300379000080230187      006888 1077    005428   005930   006290   007240   007607   007295   008029   008605            006850   006313   006095               140066981 1067    130065421 1137    120063481 1107    110061141 1127    100061381         005552   005622   006121   006827   006777   007468   007543   008441   007419   006743   006014   005780                                      
170000300310015 00110 411 251DEPARTEMENT 79      0000000RD 116              0090272BENON               0080000009375009375170000300379000080230187      013729 1077    010706   011843   012531   014760   014875   014652   016446   016684            013582   012464   012313               140133551 1067    130130251 1137    120126761 1107    110121821 1137    100122031         011032   011253   012242   013812   013590   014723   015470   016372   014568   013516   011894   011639                                      
170000601110015 00110 411 251RN 137              0270000RN 137 RN 237       0350150DOMPIERRE SUR MER   02808500081460081461700012003000       0187      018612  837    015804   016884   017290   019739   018878   019646   021369   020660   019493   018278   017539   017657               140182961  857    130179881    7    120177651    7    110141901         100155981         015704   016427   017291   018766   018615   019474   020677   020342   019532   018987   016797   016803                                      
170000601210015 00110 411 251RN 137              0270000RN 137 RN 237       0350150DOMPIERRE SUR MER   02808500081460081461700012003000       0187      018147  727    015772   016619   017095   019050   018714   018015   020139   020696   019114   017916   017334   017180               140179561  727    130176751    7    120174591    7    110174391    7    100154081         015671   016155   016910   018104   018068   019293   019650   020448   019452   018467   016726   016412                                      
170000601310015 00110 411 251RN 137              0270000RN 137 RN 237       0350150DOMPIERRE SUR MER   02808500081460081461700012003000       0187      036759  767    031576   033503   034385   038789   037592   037661   041508   041356   038607   036194   034873   034837               140362521  767    130356631    7    120352241    7    110316291         100310061         031375   032582   034201   036870   036683   038767   040327   040790   038984   037454   033523   033215                                      
170001701110015 01370 411 251RD 937              1120000RN 11               1170000PERIGNY             11700000050310050310000000000          0187      032876  697    029046   030484   031115   034170   032201   035056   036910                     034316   032970   032377               140322051  707    130315711    7    120315281    7    110311251    7    100267191         028959   029476   030804   032921   032182   034135   035523   034750   034356   032955   030189   030039                                      
170001701210015 01370 411 251RD 937              1120000RN 11               1170000PERIGNY             11700000050310050310000000000          0187      033251  687    030018   031471   032033   034262   032850   035919   037014                     033756   032729   032387               140330911  697    130326901    7    120326071    7    110322801    7    100287161         030082   030669   031807   034050   032997   035014   036317   034773   035084   033874   031067   031212                                      
170001701310015 01370 411 251RD 937              1120000RN 11               1170000PERIGNY             11700000050310050310000000000          0187      066127  687    059064   061955   063148   068432   065051   070975   073924                     068072   065699   064764               140652961  697    130642611    7    120641351    7    110634051    7    100554351         059041   060145   062611   066971   065179   069149   071840   069523   069440   066829   061256   061251                                      
170002100110015 01410 4813001DEPARTEMENT 16      0000000RN 150 SAINTES      0160700CHERAC              0130900016846016846000000000016000200030190      005153  807    003861   004237   004615   005280   005394   005350   007380   006651   005267   004813   004592   004400               140000008         130048968    7    120000008         110000008    0    100000008    0                                                                                                                                                   
170002100210015 01410 4813001DEPARTEMENT 16      0000000RN 150 SAINTES      0160700CHERAC              0130900016846016846000000000016000200030190      004913  867    003713   003975   003933   004329   005244   005063   006810   006900   005322   004777   004596   004299               140000008         130045138    7    120000008         110000008    0    100000008    0                                                                                                                                                   
170002100310015 01410 4813001DEPARTEMENT 16      0000000RN 150 SAINTES      0160700CHERAC              0130900016846016846000000000016000200030187      010066  837    007574   008212   008548   009609   010638   010413   014190   013551   010589   009590   009188   008699               140000008         130094098    7    120000008         110000008    0    100000008    0                                                                                                                                                   
170002101110015 01410 4113001RN 150 SAINTES      0160700SAINTES RN 137      0210225SAINTES ROCADE S-E  01802000044700044700000000000000       0187      010243  967    008483   009087   009638   010563   010365   010957   012093   011819   010626   010085   009646   009467               140101551  967    130099061    7    120096441    7    110096851    7    100086541         009063   009341   009672   010400   010342   010927   011616   011679   010564   009995   009171   009028                                      
170002101210015 01410 4113001RN 150 SAINTES      0160700SAINTES RN 137      0210225SAINTES ROCADE S-E  01802000044700044700000000000000       0187      010499  947    008728   009239   009837   010664   010721   011184   012026   012705   011051   010306   009849   009578               140103431  957    130101061    7    120099611    7    110099541    7    100088281         009003   009451   009817   010422   010516   011309   011644   011867   011087   010264   009484   009194                                      
170002101310015 01410 4113001RN 150 SAINTES      0160700SAINTES RN 137      0210225SAINTES ROCADE S-E  01802000044700044700000000000000       0187      020742  957    017211   018326   019475   021227   021086   022141   024119   024524   021677   020391   019495   019045               140204981  957    130200121    7    120196051    7    110196391    7    100174821         018066   018792   019489   020822   020858   022236   023260   023546   021651   020259   018655   018222                                      
170002700110015 01500 4113001N 137 SAINTES       0470000RD 728              0500000GATERAT             0490670002959002959000000000000000000000187      006316  487    005202   005538   005740   006516   006281   006696   007597   007620   006540   006234   005802   005954               140062191  467    130061721    7    120061371    7    110058721    7    100060831         005261   005436   005678   006367   006205   006625   007515   007647   006494   006120   005539   005669                                      
170002700210015 01500 4113001N 137 SAINTES       0470000RD 728              0500000GATERAT             0490670002959002959000000000000000000000187      005870  457    004958   005177   005354   005893   005924   006145   006665   007215   006227   005815   005491   005518               140057891  447    130057011    7    120056731    7    110054471    7    100054491         004993   005092   005293   005796   005755   006178   006567   007304   006233   005657   005259   005281                                      
170002700310015 01500 4113001N 137 SAINTES       0470000RD 728              0500000GATERAT             0490670002959002959000000000000000000000187      012186  467    010160   010715   011094   012409   012205   012841   014262   014835   012767   012049   011293   011472               140120081  457    130118731    7    120118101    7    110113191    7    100115321         010254   010528   010971   012163   011960   012803   014082   014951   012727   011777   010798   010950                                      
170002800110015 01500 4110201ST ROMAIN           0620700ST ROMAIN           0620700ST ROMAIN DE BENET  0620700000000000000000000000000000000000316      007905  527    005646   006123   006415   007968   007963   008304   011277   011419   007825   007356   006658                        140000001    0    130000001    0    120000001    0    110000001    0    100000001    0                                                                                                                                                   
170002800210015 01500 4110201ST ROMAIN           0620700ST ROMAIN           0620700ST ROMAIN DE BENET  0620700000000000000000000000000000000000316      007861  627    005588   006024   006365   007494   008228   008088   010402   011902   008166   007406   006804                        140000001         130000001         120000001         110000001         100000001                                                                                                                                                        
170002800310015 01500 4810201ST ROMAIN           0620700ST ROMAIN           0620700ST ROMAIN DE BENET  0620700000000000000000000000000000000000316      015766  577    011234   012147   012780   015462   016191   016392   021679   023321   015991   014762   013462                        140000008    0    130000008    0    120000008    0    110000008    0    100000008    0                                                                                                                                                   
170002900110015 01500 4113 51RD 117              0710058ROYAN EB 10         0770470MEDIS               0760000006412004816170002900300000000000190      008289  487    006592   007099   007435   008766   008446   008961   010877   010662   008337   007768   007124   007289               140082521  467    130080861    7    120080841    7    110075111    7    100082511         006592   007126   007512   008583   008336   009027   010617   010642   008438   007988   007044   007012                                      
170002900210015 01500 4113 51RD 117              0710058ROYAN EB 10         0770470MEDIS               0760000006412004816170002900300000000000190      008232  437    006643   007030   007348   008389   008492   008781   010343   011238   008543   007708   007055   007093               140082041  467    130080621    7    120080361    7    110073421    7    100082141         006639   007054   007443   008293   008192   008957   010020   011117   008712   007903   007114   006902                                      
170002900310015 01500 4113 51RD 117              0710058ROYAN EB 10         0770470MEDIS               0760000006412004816170002900300000000000187      016521  447    013235   014129   014783   017155   016938   017742   021220   021900   016880   015476   014179   014382               140164561  467    130161481    7    120161201    7    110148531    7    100164651         013231   014180   014955   016876   016528   017984   020637   021759   017150   015891   014158   013914                                      
170003001110015 02370 411 251RN 137              0000000FIN RN 137          0090230LA DESCENDERIE      0020000009267009267160000100200000000000187      032423  657    028319   029616   030280   033507   031250   034011   035261   033504   034941   033448   032414                        140312561  677    130309191    7    120310671    7    110287011    7    100000001         028224   029135   030153   032297   031401   032968   034141   031697   033334   032294   029885   029443                                      
170003001210015 02370 411 251RN 137              0000000FIN RN 137          0090230LA DESCENDERIE      0020000009267009267160000100200000000000187      033667  707    030367   031593   032250   035039   033166   035780   036246   034039   035386   033612   032797                        140331381  717    130329141    7    120330351    7    110309941    7    100000001         030247   030946   031958   034085   033261   035137   035588   033904   035462   034146   031759   031083                                      
170003001310015 02370 411 251RN 137              0000000FIN RN 137          0090230LA DESCENDERIE      0020000009267009267160000100200000000000187      066090  697    058686   061209   062530   068546   064416   069791   071507   067543   070327   067060   065211                        140643941  707    130638331    7    120641021    7    110596951    7    100000001         058471   060081   062111   066382   064662   068105   069729   065601   068796   066440   061644   060526                                      
170003101110015 02370 4110201MIREUIL             0050945MIREUIL             0050945MIREUIL             0050945000000000000160000100200000000000316      011180  897             008791   009319   011729   011327   012163   014102   013680   011901            009553   009021               140000001    0    130000001    0    120000001    0    110000001    0    100000001    0                                                                                                                                                   
170003101210015 02370 4110201MIREUIL             0050945MIREUIL             0050945MIREUIL             0050945000000000000160000100200000000000316      010870  917             008680   009237   010695   011467   011826   013339   013887   011651            009215   008484               140000001         130000001         120000001         110000001         100000001                                                                                                                                                        
170003101310015 02370 4810201MIREUIL             0050945MIREUIL             0050945MIREUIL             0050945000000000000160000100200000000000316      022050  907             017471   018556   022424   022794   023989   027441   027567   023552            018768   017505               140000008    0    130000008    0    120000008    0    110000008    0    100000008    0                                                                                                                                                   
330500501110015 00620 111 241A 630               0000000ECHANGEUR LA PRADE  0090992CADAUJAC(S73)       0030000011083011083000000000000000000000187      035056 1107    031536   034122   034319   036008   034586   037129   038342   035737   034210   035629   033562   035419               140320311 1137    130337811 1097    120335151 1097    110335841 1117    100227561         031372   032772   034578   034765   024569   015792   037246   035100   035433   035481   032509   034519                                      
330500501210015 00620 111 241A 630               0000000ECHANGEUR LA PRADE  0090992CADAUJAC(S73)       0030000011083011083000000000000000000000187      035112 1027    031789   033926   034323   035895   034821   036756   037520   036891   035705   035914   033108   034611               140318831 1067    130332431 1077    120329671 1087    110330081 1097    100224991         031045   032020   034107   034362   025089   015891   036538   036276   035309   035424   032500   033739                                      
330500501310015 00620 111 241A 630               0000000ECHANGEUR LA PRADE  0090992CADAUJAC(S73)       0030000011083011083000000000000000000000194      070168 1057    063325   068048   068642   071903   069407   073885   075862   072628   069915   071543   066670   070030               140639141 1087    130670241 1087    120664821 1087    110665921 1107    100452551         062417   064792   068685   069127   049658   031683   073784   071376   070742   070905   065009   068258                                      
330500600110015 00630 181 241A 630               0000000ECHANGEUR CESTAS    0060000CESTAS(S62)         00600000061770061770000000000000       0187      031788 1787    024841   027351   028132   032203   032057   034221   042262   039225   031905   030951   028085   030223               140000008         130000008         120000008         110000008         100000008                                                                                                                                                        
330500600210015 00630 181 241A 630               0000000ECHANGEUR CESTAS    0060000CESTAS(S62)         00600000061770061770000000000000       0187      037555 1527    032302   033027   034660   037751   037541   039589   042088   049230   039568   036744   034065   034093               140000008         130000008         120000008         110000008         100000008                                                                                                                                                        
330500600310015 00630 181 241A 630               0000000ECHANGEUR CESTAS    0060000CESTAS(S62)         00600000061770061770000000000000       0187      069343 1657    057143   060378   062792   069954   069598   073810   084350   088455   071473   067695   062150   064316               140000008         130000008         120000008         110000008         100000008                                                                                                                                                        
330550601110015 00630 181 241ECHANGEUR CESTAS    0060000RD 211              0110830CESTAS(S64)         00706000058080058080000000000000       0187      033905 1707    026622   029204   030476   034796   034072   036511   044087   041447   034264   033091   030116   032176               140000008         130000008         120000008         110000008         100000008                                                                                                                                                        
330550601210015 00630 181 241ECHANGEUR CESTAS    0060000RD 211              0110830CESTAS(S64)         00706000058080058080000000000000       0187      030250 1977    026345   026204   028092   030613   030269   029813   034307   040062   030192   029848   028884   028447               140000008         130000008         120000008         110000008         100000008                                                                                                                                                        
330550601310015 00630 181 241ECHANGEUR CESTAS    0060000RD 211              0110830CESTAS(S64)         00706000058080058080000000000000       0187      064155 1837    052967   055408   058568   065409   064341   066324   078394   081509   064456   062939   059000   060623               140000008         130000008         120000008         110000008         100000008                                                                                                                                                        
330500801110015 00630 1110241RD 211              0110830A 66                0240670PIERROTON(A63ech24) 0210300012859012859000000000000000000000187      030076 1857    023247   025388   026422   029467   030460   032575   041088   038294   030319   029513   026259   028243               140000001         130000001         120000001         110000001    0    100000001    0                                                                                                                                                   
330500801210015 00630 1110241RD 211              0110830A 66                0240670PIERROTON(A63ech24) 0210300012859012859000000000000000000000187      029564 1867    024257   024882   026202   028034   030167   031473   034968   043504   031412   028466   025888   025512               140000001         130000001         120000001         110000001    0    100000001    0                                                                                                                                                   
330500801310015 00630 1110241RD 211              0110830A 66                0240670PIERROTON(A63ech24) 0210300012859012859000000000000000000000187      059640 1857    047504   050270   052624   057501   060627   064048   076056   081798   061731   057979   052147   053755               140000001         130000001         120000001         110000001    0    100000001    0                                                                                                                                                   
330500900110015 00630 111 241A 66                0240670RN 10               0460850LUGOS(S67)          04000000222370222370000000000000       0187      016316 3087    011799   013320   013521   016124   015850   016183   025399   023832   015864   015444   013146   015312               140000001         130000001         120000001         110000001         100000001                                                                                                                                                        
330500900210015 00630 111 241A 66                0240670RN 10               0460850LUGOS(S67)          04000000222370222370000000000000       0187      017300 2947    014261   014065   014784   016611   017386   017171   019916   029906   018294   016379   014576   014254               140000001         130000001         120000001         110000001         100000001                                                                                                                                                        
330500900310015 00630 111 241A 66                0240670RN 10               0460850LUGOS(S67)          04000000222370222370000000000000       0187      033616 3017    026060   027385   028305   032735   033236   033354   045315   053738   034158   031823   027722   029566               140000001         130000001         120000001         110000001         100000001                                                                                                                                                        
330522100110015 06300 181 241A 10                0000000ECHANGEUR LA BARDE  0050000ROCADE EXTER(Ech4)  00200000049540049540000000000000       0188      053753  597                               052941   051877   056181   057054   051352   055230   054330   052065   052748               140000008         130000008         120000008         110000008         100000008                                                                                                                                                        
330522100210015 06300 181 241A 10                0000000ECHANGEUR LA BARDE  0050000ROCADE INTER(Ech4)  00200000049540049540000000000000       0188      053819  647    049448   051179   053830   053924   052723   057343   055196   052754   056729   056083   053346   053277               140000008         130000008         120000008         110000008         100000008                                                                                                                                                        
330522100310015 06300 181 241A 10                0000000ECHANGEUR LA BARDE  0050000ECHANGEUR LABARDE   00200000049540049540000000000000       0188      107572  627                               106865   104600   113524   112250   104106   111959   110413   105411   106025               140000008         130000008         120000008         110000008         100000008                                                                                                                                                        
330502102110015 06300 111 241ECHANGEUR LA BARDE  0050000RD 1                0100600ROCADE EXTER(S08dépo00808000059320059320000000000000       0187      037756  787    032559   034109   037637   038439   037469   040610   042901   039521   039373   038085   035966   036160               140000001         130362431    7    120360461    7    110360031    7    100355321                                                                                                                                                        
330502102210015 06300 111 241ECHANGEUR LA BARDE  0050000RD 1                0100600ROCADE INTER(S08dépo00808000059320059320000000000000       0187      044262  807    040880   042543   043722   044962   043871   046478   045663   044412   046167   045386   043678   043356               140000001         130420681    7    120419701    7    110425531    7    100418081                                                                                                                                                        
330502102310015 06300 111 241ECHANGEUR LA BARDE  0050000RD 1                0100600CANTINOLLE(S08déport00808000059320059320000000000000       0187      082018  807    073439   076652   081359   083401   081340   087088   088564   083933   085540   083471   079644   079516               140000001         130783111    7    120780161    7    110785561    7    100773401                                                                                                                                                        
330502201110015 06300 181 241RD 1                0100600ROCADE SORTIE 9     0140000ROCADE EXTER(S11)   01103000036660036660000000000000       0187      043117  727    039161   041316   042572   044290   042990   046153   047732   043910   044234   042949   040871   041230               140000008         130000008         120000008         110000008         100000008                                                                                                                                                        
330502201210015 06300 181 241RD 1                0100600ROCADE SORTIE 9     0140000ROCADE INTER(S11)   01103000036660036660000000000000       0187      041519  717    038685   040504   040840   042705   041253   043065   043312   041886   043209   042156   040423   040184               140000008         130000008         120000008         110000008         100000008                                                                                                                                                        
330502201310015 06300 181 241RD 1                0100600ROCADE SORTIE 9     0140000EYSINES(S11)        01103000036660036660000000000000       0187      084636  727    077846   081820   083412   086995   084243   089218   091044   085796   087443   085105   081294   081414               140000008         130000008         120000008         110000008         100000008                                                                                                                                                        
330502202110015 06300 111 241ROCADE SORTIE 9     0140000ROCADE SORTIE 11 B  0170330ROCADE EXTER(S16)   01500000030970030970000000000000       0187      044972  557    041074   043055   044939   045516   044110   047990   048119                                                            140428711  547    130434111    7    120443191    7    110448921    7    100441391         041089   042037   042859   043877   042218   043560   044648   040933   044586   044821   041623   042191                                      
330502202210015 06300 111 241ROCADE SORTIE 9     0140000ROCADE SORTIE 11 B  0170330ROCADE INTER(S16)   01500000030970030970000000000000       0187      044087  587    041670   043161   044465   045360   042873   045786   045206                                                            140429781  577    130440681    7    120445921    7    110451741    7    100450481         042303   042865   042928   044065   042835   044113   043424   039363   045249   045064   041951   041683                                      
330502202310015 06300 111 241ROCADE SORTIE 9     0140000ROCADE SORTIE 11 B  0170330LE CHUT(S16)        01500000030970030970000000000000       0187      089059  567    082744   086216   089404   090876   086983   093776   093325                                                            140858491  567    130874791    7    120889111    7    110900661    7    100891871         083392   084902   085787   087942   085053   087673   088072   080296   089835   089885   083574   083874                                      
330502300110015 06300 181 241ECH.11              0170330ECH.15              0250000ROCADE EXTER(S19)   01703300074240074240000000000000       0187      000000                                             000000   000000   000000   000000   000000   000000                                 140000008         130000008         120000008         110000008         100000008                                                                                                                                                        
330502300210015 06300 181 241ECH. 11             0170330ECH. 15             0250000ROCADE INTER(S19)   01703300074240074240000000000000       0187      000000                                             000000   000000   000000   000000   000000   000000                                 140000008         130000008         120000008         110000008         100000008                                                                                                                                                        
330502300310015 06300 181 241ECH. 11             0170330ECH. 15             0250000PESSAC(S19)         01703300074240074240000000000000       0187      000000                                                                                                                                 140000008         130000008         120000008         110000008         100000008                                                                                                                                                        
330502500110015 06300 111 231ECH.15              0250000ECH.16              0260000TALENCE(S26)        02600000014390014390000000000          0193      063640 1177    058026   059530   062738   063659   063147   067356   067079   068348   066828   064136   061548   061042               140624001 1157    130625471 1127    120000001         110588131 1067    100594591         059247   059899   062120   063413   062107   065263   064972   066113   066121   063479   057643   058279                                      
330502500210015 06300 111 231ECH.15              0250000ECH.16              0260000TALENCE(S26)        02600000014390014390000000000          0193      064127 1177    056612   060089   060750   066402   064001   069516   071420   063116   066247   065544   062071   063610               140620081 1187    130614201 1167    120000001         110601351 1057    100608011         056840   059212   060023   064344   061441   065275   068615   060950   065256   064201   057815   060004                                      
330502500310015 06300 111 231ECH.15              0250000ECH.16              0260000TALENCE(S26)        02600000014390014390000000000          0193      127767 1177    114638   119619   123488   130061   127148   136872   138499   131464   133075   129680   123619   124652               141244081 1177    131239671 1157    120000001         111189481 1057    101202601         116087   119111   122143   127757   123548   130538   133587   127063   131377   127680   115458   118283                                      
330503100110015 06300 181 241ECH.16              0260600ECH.19              0310000ROCADE EXTER(S28)   02702000039170039170000000000000       0187      063117  937    058205   059582   063361   064318   062693   066978   065539   065534   065861   063464   060972   060892               140000008         130000008         120000008         110000008         100000008                                                                                                                                                        
330503100210015 06300 181 241ECH.16              0260600ECH.19              0310000ROCADE INTER(S28)   02702000039170039170000000000000       0187      065430 1157    058837   061682   064216   067879   064335   070684   072269   063788   067449   066354   063124   064539               140000008         130000008         120000008         110000008         100000008                                                                                                                                                        
330503100310015 06300 181 241ECH.16              0260600ECH.19              0310000CHANTELOISEAU(S28)  02702000039170039170000000000000       0187      128547 1047    117042   121264   127577   132197   127028   137662   137808   129322   133310   129818   124096   125431               140000008         130000008         120000008         110000008         100000008                                                                                                                                                        
330523402110015 06300 181 241ECH.19              0310000ECH.21              0331224ROCADE EXTER(S32)   03103450039240039240000000000000       0187      068857 1297    062783   064920   068023   070133   068305   072323   072615   075096   071038   069280   064922   066850               140000008         130000008         120000008         110000008         100000008                                                                                                                                                        
330523402210015 06300 181 241ECH.19              0310000ECH.21              0331224ROCADE INTER(S32)   03103450039240039240000000000000       0187      069762 1337    062444   066076   067820   072286   068328   074626   078722   070956   070350   070003   065758   069779               140000008         130000008         120000008         110000008         100000008                                                                                                                                                        
330523402310015 06300 181 241ECH.19              0310000ECH.21              0331224LA HOURCADE(S32)    03103450039240039240000000000000       0187      138619 1317    125227   130996   135843   142419   136633   146949   151337   146052   141388   139283   130680   136629               140000008         130000008         120000008         110000008         100000008                                                                                                                                                        
330513400110015 06310 111 241A630                0000000BEGLES              0021290EXTERIEUR(S50)      00100000027250027250000000000          0187      034532  357    033332   034079   035400   035159   033745   036937   034105   029334   036096   036193   034614   035386               140000001         130000001         120000001         110338041    7    100000001                                                                                                                                                        
330513400210015 06310 111 241A630                0000000BEGLES              0021290INTERIEUR(S50)      00100000027250027250000000000          0187      038378  397    036462   037582   038794   039190   037477   041574   038953   033915   041429   039466   037408   038291               140000001         130000001         120000001         110365271    7    100000001                                                                                                                                                        
330513400310015 06310 111 241A630                0000000BEGLES              0021290BEGLES-A631(S50)    00100000027250027250000000000          0187      072910  377    069794   071661   074194   074349   071222   078511   073058   063249   077525   075659   072022   073677               140000001         130000001         120000001         110703311    7    100000001                                                                                                                                                        
330505000110015 06600 1110241A 63                0000000FIN 2X2 VOIES       0060664MIOS                00300000060070060073305050003000       0187      013109  637    010295   011339   011981   014019   013897   015017   015955   015235   013138   011877   012311   012140               140126741  637    130122991    7    120112661    7    110098511         100116741         010103   010706   011895   013048   013028   014157   014708   014984   014005   013030   011096   011189                                      
330505000210015 06600 1110241A 63                0000000FIN 2X2 VOIES       0060664MIOS                00300000060070060073305050003000       0187      013451  617    010220   011095   011764   013644   013731   014716   016133   016195   013821   013019                                 140125861  387    130122771         120114631    7    110099151         100116791         010105   010522   011694   012715   012766   014174   014803   015468   013920   012781   011028   010907                                      
330505000310015 06600 1110241A 63                0000000FIN 2X2 VOIES       0060664MIOS SIREDO         00300000060070060073305050003000       0187      026560  627    020515   022434   023745   027663   027628   029733   032088   031430   026959   024896                                 140252601  467    130245761         120227291    7    110197661         100233531         020208   021228   023589   025763   025794   028331   029511   030452   027925   025811   022124   022096                                      
330505100110015 06600 1113041FIN2x2 VOIES        0060664RD 3                0100400FACTURE             0090000003758003758330505000300000000000212      000000                           000000   000000   000000   000000   000000   000000                                                   140000001         130000001         120000001         110048801    0    100000001    0                                                                                                                                                   
330505100210015 06600 1113041FIN2x2 VOIES        0060664RD 3                0100400FACTURE             0090000003758003758330505000300000000000212      000000                           000000   000000   000000   000000   000000   000000                                                   140000001         130000001         120000001         110047761         100000001                                                                                                                                                        
330505100310015 06600 1113041FIN 2X2 VOIES       0060664RD 3                0100400Facture             0090000003758003758330505000300000000000187      000000                                                                                                                                 140000001         130000001         120000001         110096561    0    100284641    0                                                                                                                                                   
330000102110015 00100 411 251RD 18               0100137RN 137              0200120PEUJARD             01700770093980093983300003013000       0187      020293 2397    018029   019349   019427   020600   020201   021201   022214   020505   020878   020852   019798   020413               140195901 2387    130190411 2387    120185051 2457    110175631 2677    100177011         017828   018685   019086   020001   019261   020182   021149   020103   019838   020307   019160   019422                                      
330000102210015 00100 411 251RD 18               0100137RN 137              0200120PEUJARD             01700770093980093983300003013000       0187      020402 2517    018334   019215   019743   020456   020448   021334   021103   021764   021315   021045   019927   020074               140197311 2517    130192411 2537    120184871 2597    110176021 2837    100177321         018148   018572   019397   019959   019467   020443   020323   021087   020380   020332   019369   019226                                      
330000102310015 00100 411 251RD 18               0100137RN 137              0200120PEUJARD             01700770093980093983300003013000       0187      040695 2477    036363   038564   039170   041056   040649   042535   043317   042269   042193   041897   039725   040487               140393211 2477    130382821 2487    120369921 2547    110351651 2787    100354331         035976   037257   038483   039960   038728   040625   041472   041190   040218   040639   038529   038648                                      
330501001110015 00630 4130201S66                 0210739S66                 0210739S66 ECH23           0210739000000000000000000000000000000000316      031341 1847    023232   025866   026707   031841   031286   033515   043705   043124   031752   029389   026421   028665               140000001    0    130000001    0    120000001    0    110000001    0    100000001    0                                                                                                                                                   
330501001210015 00630 4130201S66                 0210739S66                 0210739S66 ECH23           0210739000000000000000000000000000000000316      030571 1797    024600   025244   026645   030500   031516   032540   036507   044424   032629   029188   026593   025954               140000001         130000001         120000001         110000001         100000001                                                                                                                                                        
330501001310015 00630 4830201S66                 0210739S66                 0210739S66 ECH23           0210739000000000000000000000000000000000316      061912 1827    047832   051110   053352   062341   062802   066055   080212   087548   064381   058577   053014   054619               140000008    0    130000008    0    120000008    0    110000008    0    100000008    0                                                                                                                                                   
330001202110015 00890 4113 51RD 121 GENISSAC     0310790RN 2089 Ech 8       0341380SENAU (LIBOURNE-BX) 03405000053970053973300016003000       0994      000000                                                                                                                                 140000001         130177451 1027    120175141    7    110095751         100153001                                                                                                                                                        
330001202210015 00890 4113 51RD 121 GENISSAC     0310790RN 2089 Ech 8       0341380SENAU (BX-LIBOURNE) 03405000053970053973300016003000       0994      000000                                                                                                                                 140000001         130179591    7    120178821    7    110096781         100153571                                                                                                                                                        
330001202310015 00890 4113 51RD 121 GENISSAC     0310790RN 2089 Ech 8       0341380SENAU               03405000053970053973300016003000       0994      000000                                                                                                                                 140000001         130357041    7    120353961    7    110192531         100306571                                                                                                                                                        
330001600110015 00890 411 251RD 13 BEYCHAC       0420223RD 115 POTEAU YVRAC 0470300MONTUSSAN (LIB-BX)  04301000050570050570000000000000       0187      028888  897    025916   027017   028310   028216   025135            031600   029643   030240   029799                                 140280041  877    130270671    7    120270201    7    110271321    7    100239091         025605   026003   027255   028568   027913   029672   030855                     029395   027150   027473                                      
330001600210015 00890 411 251RD 13 BEYCHAC       0420223RD 115 POTEAU YVRAC 0470300MONTUSSAN (BX-LIB)  04301000050570050570000000000000       0187      028325  907    025701   026432   027576   028752   027698            029502   029728   030012   029359                                 140272881  897    130269371    7    120264341    7    110262461    7    100162111         025274   025527   026675   027740   027821   029000   028980                     028554   026606   026577                                      
330001600310015 00890 411 251RD 13 BEYCHAC       0420223RD 115 POTEAU YVRAC 0470300MONTUSSAN           04301000050570050570000000000000       0187      057213  907    051617   053449   055886   056968   052833            061102   059371   060252   059158                                 140552921  887    130540041    7    120534541    7    110533781    7    100401201         050879   051530   053930   056308   055734   058672   059835                     057949   053756   054050                                      
330001700110015 00890 481 251RD 115              0470300RN 230              0500260LE POTEAU D YVRAC   04705000029830029830000000000000       0187      000000                                             000000   000000   000000   000000   000000   000000                                 140000008         130000008         120000008         110000008         100000008                                                                                                                                                        
330001700210015 00890 481 251RD 115              0470300RN 230              0500260LE POTEAU D YVRAC   04705000029830029830000000000000       0187      000000                                             000000   000000   000000   000000   000000   000000                                 140000008         130000008         120000008         110000008         100000008                                                                                                                                                        
330001700310015 00890 481 251RD 115              0470300RN 230              0500260LE POTEAU D YVRAC   04705000029830029830000000000000       0187      000000                                                                                                                                 140000008         130000008         120000008         110000008         100000008                                                                                                                                                        
330504000110015 02300 411 451ECH.21              0340000ECH.22              0350247ROCADE-EXT          03500000012420012423305050003000       0194      056607 1267    051084   053082   055029   057878   055532   058556   060026   064209   058875   056945   053102   054691               140546301 1267    130546491 1307    120535301 1317    110534951 1367    100520611         051231   051037   053922   055585   055100   055508   056000   061702   053166   056403   052087   053400                                      
330504000210015 02300 411 451ECH.21              0340000ECH.22              0350247ROCADE-INT          03500000012420012423305050003000       0194      061400 1337    054414   058145   058804   063291   059994   065061   070457   064137   062214   061531   057504   061008               140600291 1317    130590801 1327    120578051         110565221         100556791         054228   056252   057462   061123   059198   062453   068258   063193   061230   061053   056397   059174                                      
330504000310015 02300 411 451ECH.21              0340000ECH.22              0350247PT F.MITTERAND      03500000012420012423305050003000       0194      118007 1307    105498   111227   113833   121169   115526   123617   130483   128346   121089   118476   110606   115699               141146591 1307    131137291 1327    121113351         111100171         101077401         105459   107289   111384   116708   114298   117961   124258   124895   114396   117456   108484   112574                                      
330524200110015 02300 411 451ECH.22              0350247ECH.23              0360643ROCADE-EXT(S38)     03600000013960013960000000000000       0194      055714 1437    049474   051812   053660   056367   055379   058650   059426   064622   057565   055987   051966   053332               140544551 1457    130536851 1467    120531321 1477    110535111 1577    100536151         049576   049597   052822   054438   053749   056470   057829   064245   056827   055059   050683   051718                                      
330524200210015 02300 411 451ECH.22              0350247ECH.23              0360643ROCADE-INT(S38)     03600000013960013960000000000000       0194      055485 1517    048709   052380   052892   057201   054446   058813   064484   059268   055999   055297   051358   054720               140544501 1507    130534001 1507    120525351 1497    110519851 1577    100531301         048527   050575   051757   055409   053671   056515   062745   058678   055661   055077   051232   053217                                      
330524200310015 02300 411 451ECH.22              0350247ECH.23              0360643S38 SENS 1+SENS 2   03600000013960013960000000000000       0194      111199 1487    098183   104192   106552   113568   109825   117463   123910   123890   113564   111284   103324   108052               141089051 1487    131070851 1497    121056671 1497    111054961 1577    101067451         098103   100172   104579   109847   107420   112985   120574   122923   112488   110136   101915   104935                                      
330554200110015 02300 411 401ECH.23              0360643ECH.24              0390541S42 ROCADE-EXT      03703090028970028970000000000000       0194      056913 1407    050707   052823   054737   057505   056654   060031   060372   065760   059358   057032   053100   054555               140554261 1397    130545241 1417    120525371 1487    110528941         100458621         050355   050462   053351   055416   054809   057450   058797   065118   057786   056134   051939   053049                                      
330564200210015 02300 411 401ECH.23              0360643ECH.24              0390541S42 ROCADE-INT      03703090028970028970000000000000       0194      056597 1557    049740   053298   053783   058129   055397   059866   065723   060332   058121   056438   052199   055881               140554061 1537    130545461 1537    120532441 1567    110491241         100438591         049322   051481   052704   056603   054643   057721   063912   059364   056426   056091   051734   054518                                      
330000000310015 02300 411 401ECH.23              0360643ECH.24              0390541S42 SENS 1+SENS 2   03703090028970028973300001023000       0194      113510 1487    100447   106121   108520   115634   112051   119897   126095   126092   117479   113470   105299   110436               140000001         130000001         120000001         110000001         100000001                                                                                                                                                        
330524300110015 02300 411 441ECH.24              0390541ECH.25              0400703ECENON (ROC-EXT)(S4504002580012070012070000000000000       0290      059358 1477    052911   055483   057527   060099   059214   062275   062744   067904   061026   059918   055696   057174               140580051 1467    130570731 1487    120564691 1487    110571151 1517    100000001         052712   053133   056603   058232   057603   060178   061368   067300   060454   058690   054229   055126                                      
330514300210015 02300 411 441ECH.24              0390541ECH.25              0400703ICENON (ROC-INT)(S4404002580012070012070000000000000       0290      059950 1527    052748   056635   057434   061528   059048   063167   068936   063126   060859   060347   055773   059523               140585971 1537    130578981 1527    120574291 1507    110582051 1547    100000001         052290   054434   055896   060053   058030   060990   067180   062236   059823   059485   054964   057432                                      
330504300110015 02300 4110401ECH.24              0390541ECH.25              0400703S46                 0400258001207001207330505000333000000000212      057527 1487    052720   055209   056402   057701   055693   059049   059052   063920   059108   059222   055208   057041               140000001         130000001         120000001         110000001    0    100000001    0                                                                                                                                                   
330504300210015 02300 4110401ECH.24              0390541ECH.25              0400703S46                 0400258001207001207330505000333000000000212      061153 1477    053919   057888   058715   062727   060296   064429   070269   064180   062115   061673   056927   060698               140000001         130000001         120000001         110000001         100000001                                                                                                                                                        
330504300310015 02300 4110401ECH.24              0390541ECH.25              0400703S46                 0400258001207001207330505000333000000000290      118680 1477    106639   113097   115117   120428   115989   123478   129321   128100   121223   120895   112135   117739               140000001         130000001         120000001         110000001    0    100000001    0                                                                                                                                                   
330504601110015 02300 411 601ECH.25              0400703A 10                0440507S47 EXTER           04400130038000038003305050003000       0290      060873 1477    054281   057364   059629   061514   060868   063739   064988   068076   062533   061414   057266   058801               140000001         130000001         120000001         110592961 1537    100000001                                                                                                                                                        
330504601210015 02300 411 601ECH.25              0400703A 10                0440507S47 INTER           04400130038000038003305050003000       0290      059564 1277    052760   056658   057821   060695   058878   062666   067042   061627   060809   060571   056513   059084               140000001         130000001         120000001         110583681 1437    100000001                                                                                                                                                        
330504601310015 02300 411 601ECH.25              0400703A 10                0440507S47 EXTER ET INTER  04400130038000038003305050003000       0290      120437 1377    107041   114022   117450   122209   119746   126405   132030   129703   123342   121985   113779   117885               140000001         130000001         120000001         111176641 1467    100000001                                                                                                                                                        
330503401110015 06300 4140401S31                 0310968S31                 0310968S31                 0310968000000000000000000000000000000000316      068663 1237    062650   064719   067183   069922   068110   072235   072441   075047   070871   069027   064743   066722               140000001    0    130000001    0    120000001    0    110000001    0    100000001    0                                                                                                                                                   
330503401210015 06300 4140401S31                 0310968S31                 0310968S31                 0310968000000000000000000000000000000000316      069330 1417    062317   065916   066879   071954   067789   073668   078164   070395   069756   069775   065525   069608               140000001         130000001         120000001         110000001         100000001                                                                                                                                                        
330503401310015 06300 4840401S31                 0310968S31                 0310968S31                 0310968000000000000000000000000000000000316      137993 1327    124967   130635   134062   141876   135899   145903   150605   145442   140627   138802   130268   136330               140000008    0    130000008    0    120000008    0    110000008    0    100000008    0                                                                                                                                                   
640002200110015 01340 4113 51PAU                 0370418RD 934              0440600JURANCON            04001000073010056466400024003          0187      009129  557    008668   008714   009151   009160   008696   009360   009457   009154   009503   009423   008963   009273               140089621  557    130087601    7    120087961    7    110089681         100065951         008430   008665   009028   008718   008594   008905   009235   009053   009439   009688   008723   009040                                      
640002200210015 01340 4113 51PAU                 0370418RD 934              0440600JURANCON            04001000073010056466400024003          0187      009164  567    008767   008747   009180   009141   008773   009424   009425   009314   009550   009475   008973   009178               140089501  557    130087141    7    120087401    7    110089001    7    100065431         008292   008751   008972   008667   008528   008702   009214   009235   009531   009726   008822   008942                                      
640002200310015 01340 4113 51PAU                 0370418RD 934              0440600JURANCON            04001000073010056466400024003          0187      018293  557    017435   017461   018331   018301   017469   018784   018882   018468   019053   018898   017936   018451               140179121  557    130174741    7    120175361    7    110178681         100131381         016722   017416   018000   017385   017122   017607   018449   018288   018970   019414   017545   017982                                      
640003200110015 01340 4113001OGEU                0580450OGEU                0580450OGEU                0580450000000000000000000000000000000000316      003986  757    003590   003719   003957   004025   003843   004228   004244   004003   004180   004110   003994   003930               140000001    0    130000001    0    120000001    0    110000001    0    100000001    0                                                                                                                                                   
640003200210015 01340 4113001OGEU                0580450OGEU                0580450OGEU                0580450000000000000000000000000000000000316      003968  707    003601   003709   003978   003963   003851   004219   004147   004006   004167   004090   004014   003858               140000001         130000001         120000001         110000001         100000001                                                                                                                                                        
640003200310015 01340 4813001OGEU                0580450OGEU                0580450OGEU                0580450000000000000000000000000000000000316      007954  737    007191   007128   007935   007988   007694   008447   008391   008009   008347   008200   008008   007788               140000008    0    130000008    0    120000008    0    110000008    0    100000008    0                                                                                                                                                   
640002400110015 01340 4112 51RD 920              0610579OLORON EB 10        0660852OLORON              06508000052970050460000000000          0187      005662  607    005178   005308   005659   005597   005426   005988   005976   005768   005972   005865   005617   005569               140055481  527    130054621    7    120054631    7    110050501    7    100055741         005129   005297   005524   005505   005414   005588   005664   005663   005881   005941   005499   005460                                      
640002400210015 01340 4112 51RD 920              0610579OLORON EB 10        0660852OLORON              06508000052970050460000000000          0187      005625  577    005165   005267   005659   005484   005414   005980   005868   005731   005942   005834   005627   005505               140055171  507    130054291    7    120054241    7    110050391    7    100055481         005147   005266   005522   005455   005380   005569   005543   005630   005862   005908   005513   005401                                      
640002400310015 01340 4112 51RD 920              0610579OLORON EB 10        0660852OLORON              06508000052970050460000000000          0187      011287  587    010343   010575   011318   011081   010840   011968   011844   011499   011914   011699   011244   011074               140110651  517    130108911    7    120108871    7    110100891    7    100111221         010276   010563   011046   010960   010794   011157   011207   011293   011743   011849   011012   010861                                      
640002801110015 01340 4112 51RD 918              0760615RD 918              0780376ASASP               07801860017510012006400028013          1292      002029 1267    001555   001528   001787   002042   002031   002167   002387   002660            002280   001890   001950               140018521  907    130019081 1227    120000001         110019721 1207    100018001         001465   001612   001690   001808   001831   001878   002159   002663                     001664   001722                                      
640002801210015 01340 4112 51RD 918              0760615RD 918              0780376ASASP               07801860017510012006400028013          1292      002025 1217    001614   001510   001827   002002   002054   002175   002325   002654            002299   001905   001866               140018281  867    130019091 1207    120000001         110019521 1167    100017911         001499   001575   001695   001750   001770   001891   002046   002700                     001664   001659                                      
640002801310015 01340 4112 51RD 918              0760615RD 918              0780376ASASP               07801860017510012006400028013          0187      004054 1237    003169   003038   003614   004044   004085   004342   004712   005314            004579   003795   003816               140036801  887    130038171 121     120000001         110039241 1177    100035911         002964   003187   003385   003558   003601   003769   004205   005363                     003328   003381                                      
640002900110015 01340 4113001918                 0780376937                 0920475SARRANCE            0860700013922013297640002801300000000000212      001701 1287    001228   001211   001469   001679   001647   001773   002231   002510   001849   001705   001541   001529               140000001         130015741 1187    120000001         110016071 1147    100000001    0                                                                                                                                                   
640002900210015 01340 4113001918                 0780376937                 0920475SARRANCE            0860700013922013297640002801300000000000212      001691 1497    001273   001195   001486   001622   001671   001778   002074   002569   001837   001708   001575   001462               140000001         130015821 1287    120000001         110016241    7    100000001                                                                                                                                                        
640002900310015 01340 4113 51RD 918              0780376RD 237              0920475SARRANCE            08607000139220132976400028013          0187      003392 1427    002501   002406   002955   003301   003318   003551   004305   005079   003686   003413   003116   002991               140000001         130031561 1257    120000001         110032311    7    100000001                                                                                                                                                        
640002500110015 01340 4113001ESTANGUET           0980270ESTANGUET           0980270ESTANGUET           0980270000000000000000000000000000000000316      001011 1517    000764   000753   000878   001118   001143   001129                     001266   001116   000952   000978               140000001    0    130000001    0    120000001    0    110000001    0    100000001    0                                                                                                                                                   
640002500210015 01340 4113001ESTANGUET           0980270ESTANGUET           0980270ESTANGUET           0980270000000000000000000000000000000000316      001016 1537    000811   000750   000918   001077   001173   001133                     001255   001124   000982   000924               140000001         130000001         120000001         110000001         100000001                                                                                                                                                        
640002500310015 01340 4813001ESTANGUET           0980270ESTANGUET           0980270ESTANGUET           0980270000000000000000000000000000000000316      002027 1527    001575   001503   001796   002195   002316   002262                     002521   002240   001934   001902               140000008    0    130000008    0    120000008    0    110000008    0    100000008    0                                                                                                                                                   
640003003110015 01340 4113 51URDOS EB 20         1090270ESPAGNE SOMPORT     1230278COL DU SOMPORT      12300000138910138910000000000          0194      000187  727    000332   000227   000292   000177   000068   000065            000288                                                   140002581  437    130002071         120001791    7    110001571    7    100000001         000234   000427   000302   000189                     000724   000260   000117   000085   000061   000180                                      
640003003210015 01340 4113 51URDOS EB 20         1090270ESPAGNE SOMPORT     1230278COL DU SOMPORT      12300000138910138910000000000          0194      000203  707    000352   000189   000309   000200   000092   000084            000342                                                   140002471  497    130002221    7    120001871    7    110001841    7    100000001         000241   000232   000348   000190                     000653   000313   000135   000101   000069   000181                                      
640003003310015 01340 4113 51URDOS EB 20         1090270ESPAGNE SOMPORT     1230278COL DU SOMPORT      12300000138910138910000000000          0194      000390  717    000684   000416   000601   000377   000160   000149            000630                                                   140005051  477    130004291         120003661    7    110003411    7    100000001         000475   000659   000650   000379                     001377   000573   000252   000186   000130   000361                                      
640003100110015 11340 4113 51RN 134 PR 115       1160000ESPAGNE             1190000FORGES D'ABEL-TUNNE 11602000037980037980000000000          0106      000485 2477    000363   000396   000469   000617   000610   000554                                       000384   000483               140004991 1707    130005661 2357    120005461 2407    110005621 2267    100003861         000359   000412   000461   000530   000470   000407   000162   001217   000625   000504   000383   000445                                      
640003100210015 11340 4113 51RN 134 PR 115       1160000ESPAGNE             1190000FORGES D'ABEL-TUNNE 11602000037980037980000000000          0106      000463 2707    000370   000387   000467   000544   000594   000527                                       000392   000420               140003831 1937    130005261 2457    120005261 2557    110005401 2467    100004711         000372   000393   000467   000479   000425   000410   000005   000486   000270   000489   000396   000404                                      
640003100310015 11340 4113 51RN 134 PR 115       1160000ESPAGNE             1190000FORGES D'ABEL-TUNNE 11602000037980037980000000000          0106      000948 2587    000733   000783   000936   001161   001204   001081                                       000776   000903               140008821 1847    130010921 2427    120010721 2507    110011021 2397    100008571         000731   000805   000928   001009   000895   000817   000167   001703   000895   000993   000779   000849                                      
790000806110015 00110 411 251RN 248              0540000DEPARTEMENT 17      0650681EPANNES             0560700012045012045860000900317000030030187      009872  977    007671   008529   008962   010825   010441   010660   012125   011746   010038   009664   008768   008927               140096811  977    130095031 1037    120094811 1067    110095241 1037    100084601         007713   008257   008919   010072   009876   010503   011460   011567   010751   009824   008576   008552                                      
790000806210015 00110 411 251RN 248              0540000DEPARTEMENT 17      0650681EPANNES             0560700012045012045860000900317000030030187      009954 1147    007884   008525   009045   010406   010926   010588   011438   012509   010419   009788   009031   008767               140097241 1137    130095511 1187    120094831 1107    110095301 1087    100085171         007898   008212   008922   009807   009807   010822   010811   012308   011011   009788   008777   008427                                      
790000806310015 00110 411 251RN 248              0540000DEPARTEMENT 17      0650681EPANNES             0560700012045012045860000900317000030030187      019826 1087    015555   017054   018007   021231   021367   021248   023563   024255   020457   019452   017799   017694               140194051 1077    130190541 1137    120189641 1087    110190541 1077    100169771         015611   016469   017841   019879   019683   021325   022271   023875   021762   019612   017353   016979                                      
790002301110015 02480 4113 51A 10                0000000RN 11               0080758LES GRELLES         00409500089670089678600009003          0187      003924 1117    002717   003193   003239   004469   004347   004252   005244   004902   003986   003858   003276   003543               140038231 1157    130000001         120000001         110026071         100000001         002742   003045   003278   004251   003931   004280   004951   004909   003963   003877   003230   003359                                      
790002301210015 02480 4113 51A 10                0000000RN 11               0080758LES GRELLES         00409500089670089678600009003          0187      003970 1217    002914   003204   003367   003968   004655   004196   004773   005445   004214   003902   003493   003429               140038291 1217    130000001         120000001         110026611         100000001         002931   003023   003296   004008   003863   004410   004421   005351   004215   003773   003369   003235                                      
790002301310015 02480 4113 51A 10                0000000RN 11               0080758LES GRELLES         00409500089670089678600009003          0187      007894 1177    005631   006397   006606   008437   009002   008448   010017   010347   008200   007760   006769   006972               140076521 1197    130000001         120000001         110052681         100000001         005673   006068   006574   008259   007794   008690   009372   010260   008178   007650   006599   006594                                      
860000501110015 00100 411 251EX RN 10            0580890RN 11               0620334CROUTELLE           06007850034540026498600009003          0187      016546 2037    014805   015868   015781   017800   016826   017538   018024   016935   016678   016691   015773   015820               140164801 2017    130163301 2037    120160191 2117    110156211 2227    100000001         014932   015813   015842   017214   016250   017142   018192   017279   016464   016828   015594   016164                                      
860000501210015 00100 411 251EX RN 10            0580890RN 11               0620334CROUTELLE           06007850034540026498600009003          0187      016707 1957    015092   015895   016037   017477   017050   017574   016974   018593   017369   016317   016345   015749               140167661 1947    130166081 1967    120155371 2027    110160301 2117    100141781         015328   015872   016116   017128   016378   017561   017382   018745   017008   017186   016312   016126                                      
860000501310015 00100 411 251EX RN 10            0580890RN 11               0620334CROUTELLE           06007850034540026498600009003          0187      033253 1987    029897   031763   031818   035277   033876   035112   034998   035528   034047   033008   032118   031569               140332461 1967    130329381 1987    120315561 2057    110316511 2157    100000001         030260   031685   031958   034342   032628   034703   035574   036024   033472   034014   031906   032290                                      
860000600110015 00100 411 251RN 11               0620334RD 742              0740535RUFFIGNY            06603500121400121408600009003          0187      011725 2467    010377   011124   011047   012308   011552            013147   012408   011803   011958   011289   011909               140115681 2417    130113981 2457    120000001         110112181 2587    100101811         010357   010973   010939   012028   011258   011930   013068   012388   011406   011900   011071   011447                                      
860000600210015 00100 411 251RN 11               0620334RD 742              0740535RUFFIGNY            06603500121400121408600009003          0187      011783 2567    010488   011050   011198   011812   011774   012190   012079   013225   012220   011998   011633   011677               140116251 2507    130113951 2567    120000001         110112701 2607    100102161         010471   010865   011023   011777   011274   012103   012191   013447   011872   011869   011343   011211                                      
860000600310015 00100 411 251RN 11               0620334RD 742              0740535RUFFIGNY            06603500121400121408600009003          0187      023508 2537    020865   022174   022245   024120   023326            025226   025633   024023   023956   022922   023586               140231931 2477    130227931 2527    120000001         110224881 2597    100203971         020828   021838   021962   023805   022532   024033   025259   025835   023278   023769   022414   022658                                      
