490003100210015 02490 4113001Département Loire/A 0000000RD 753              0260530N249_49 BATARDIE    0200380026565000000490003100344000460030187      000000                                                                                                                                 140093871    0    130117711 1397    120116681 1387    110114821 1078    100111781 1198    010953   011413   011527   012309   012021   012108   012865   011914   011868                     005863                                      
440537600310015 08440 4150201non renseigné       0270180non renseigné       0270750N844_30_1(2)ESTUAIRE0270300000570000000490003100300000000000608      000000                                                                                                                                 140943421  737    130000001    0    120000001    0    110000001    0    100000001    0    087399   091307   091592   097430   094538   100413   100786   094245                     091559   094399                                      
440537600210015 08440 4150201non renseigné       0270300non renseigné       0270750N844_30_2 ESTUAIRE  0270500000450000000490003100300000000000608      000000                                                                                                                                 140471921  687    130000001    0    120000001    0    110000001    0    100000001    0    043717   045759   045821   048723   047427   049806   050622   046570                     046287   047155                                      
440537600110015 08440 4150201non renseigné       0270180non renseigné       0270700N844_30_1 ESTUAIRE  0270300000520000000490003100300000000000608      000000                                                                                                                                 140471501  847    130932101  777    120917381  817    110920681  807    100904901  787    043682   045548   045771   048707   047111   050607   050164   047675   045352   048554   045272   047244                                      
440537400310015 08440 4150201non renseigné       0280280non renseigné       0290060N844_31 PTE HERBLAIN0280900000780000000490003100300000000000608      000000                                                                                                                                 140909281  837    130000001    0    120000001    0    110000001    0    100000001    0    085172   088325   089573   094437   093077   097144   097046   092333   087225   091281   086892   088442                                      
440537400210015 08440 4150201non renseigné       0280390non renseigné       0290030N844_31 PTE HERBLAIN0280900000640000000490003100300000000000608      000000                                                                                                                                 140451121  867    130000001         120000001         110000001         100000001         042112   043533   044642   046850   045980   048124   049078   046071   041931   045694   043089   044073                                      
440537400110015 08440 4150201non renseigné       0280280non renseigné       0290060N844_31 PTE HERBLAIN0280900000780000000490003100300000000000608      000000                                                                                                                                 140458161  787    130903811  837    120897821  817    110907071  827    100900121  797    043060   044792   044931   047587   047097   049020   047968   046262   045294   045587   043803   044369                                      
440537320310015 08440 4150201non renseigné       0290060non renseigné       0290940N844_32 PTE ATLANTIS0290600000880000000490003100300000000000608      000000                                                                                                                                 140912161  837    130000001         120000001         110000001         100000001         085252   088597   089815   094545   092121   096460   097660   092658   087610   093440   086755   089446                                      
440537320210015 08440 4150201non renseigné       0290850non renseigné       0290410N844_32 PTE ATLANTIS0290600000440000000490003100300000000000608      000000                                                                                                                                 140449881  897    130000001    0    120000001    0    110000001    0    100000001    0    041951   043535   044557   046766   045865   047532   048921   045992   041831   045592   043065   044086                                      
440537320110015 08440 4150201non renseigné       0290060non renseigné       0290940N844_32 PTE ATLANTIS0290600000880000000490003100300000000000608      000000                                                                                                                                 140462281  707    130000001    0    120000001    0    110000001    0    100000001    0    043301   045062   045258   047779   046256   048928   048739   046666   045779   047848   043690   045360                                      
440261601310015 08440 4150201non renseigné       0220300non renseigné       0230000N844_51-PTE GD LIEU 0220670000700000000440002101100000000000315      000000                                                                                                                                 140816341  867    130000001    0    120000001    0    110000001    0    100000001    0    075203   078531   078822   084198   081266   087833   087396   081571   078558   082854                                                        
440261601210015 N8440 4150201non renseigné       0220300non renseigné       0220900N844_51-PTE GD LIEU 0220670000600000000440002101100000000000315      000000                                                                                                                                 140411371  877    130000001    0    120000001    0    110000001    0    100000001    0    037954   039624   039910   042698   041055   044559   044050   040619   038619   042220                                                        
440261601110015 08440 4150201non renseigné       0220300non renseigné       0230000N844_51-PTE GD LIEU 0220670000700000000440002101100000000000315      000000                                                                                                                                 140404971  837    130000001    0    120000001    0    110000001    0    100000001    0    037249   038907   038912   041500   040211   043274   043346   040952   039939   040634                                                        
440261600310015 08440 4150201non renseigné       0220300non renseigné       0230000N844_51-PTE GD LIEU 0220670000700000000440002101100000000000315      000000                                                                                                                                 140740421  947    130000001    0    120000001    0    110000001    0    100000001    0    068342   071483   071956   076529   073754   079155   078837   073607   072054   074636                                                        
440261600210015 08440 4150201non renseigné       0220300non renseigné       0220900N844_51-PTE GD LIEU 0220670000600000000440002101100000000000315      000000                                                                                                                                 140375551  967    130000001    0    120000001    0    110000001    0    100000001    0    034835   036432   036669   039046   037416   040460   039631   036389   035488   039147                                                        
440261600110015 08440 4150201non renseigné       0220300non renseigné       0230000N844_51-PTE GD LIEU 0220670000700000000440002101100000000000315      000000                                                                                                                                 140364871  927    130000001    0    120000001    0    110000001    0    100000001    0    033507   035051   035287   037483   036338   038695   039206   037218   036566   035489                                                        
440100700310015 08440 4150201non renseigné       0040600non renseigné       0050300N844_42_1           0050130000700000000440002101100000000000315      000000                                                                                                                                 140537011  827    130000001    0    120000001    0    110000001    0    100000001    0    052548   051483   054273   057220   052002   053195   051581   047400   056271   057380   055298   055774                                      
440100700110015 08440 4150201non renseigné       0050070non renseigné       0050300N844_42_1           0050130000230000000440002101100000000000315      000000                                                                                                                                 140252941  877    130000001    0    120000001    0    110000001    0    100000001    0    025548   025331   026248   027506   024775   023433   023486   021829   025184   026765   026621   026857                                      
440100500310015 08440 4150201non renseigné       0030300non renseigné       0030950N844_40-41_2        0030700000650000000440002101100000000000315      000000                                                                                                                                 140611341  947    130000001    0    120000001    0    110000001    0    100000001    0    058863   058788   060469   063945   058210   063592   060780   054284   067385   064378   061154   061904                                      
440100500210015 08440 4150201non renseigné       0030300non renseigné       0030900N844_40-41_2        0030700000600000000440002101100000000000315      000000                                                                                                                                 140307181  937    130000001    0    120000001    0    110000001    0    100000001    0    029472   030081   030475   031995   029174   032113   030408   027600   033153   032641   030573   031033                                      
440100401310015 08440 4150201non renseigné       0020740non renseigné       0030300N844_40-41_1        0030210000560000000440002101100000000000315      000000                                                                                                                                 140601651  887    130000001    0    120000001    0    110000001    0    100000001    0    056913   059104   059367   062819   057403   062535   059718   053490   066110   063559   060272   060946                                      
440100401210015 N8440 4150201non renseigné       0020740non renseigné       0030300N844_40-41_1        0030210000560000000440002101100000000000315      000000                                                                                                                                 140298471  877    130000001    0    120000001    0    110000001    0    100000001    0    027651   029048   029603   031154   028521   031306   029635   026981   032294   031920   029867   030280                                      
440100400310015 08440 4150201non renseigné       0020740non renseigné       0030300N844_40-41_1        0030210000560000000440002101100000000000315      000000                                                                                                                                 140677071  837    130000001    0    120000001    0    110000001    0    100000001    0    064962   067040   066780   070511   064465   070101   067237   059829   073813   071334   067980   068738                                      
440100400210015 08440 4150201non renseigné       0020740non renseigné       0030300N844_40-41_1        0030210000560000000440002101100000000000315      000000                                                                                                                                 140337431  807    130000001    0    120000001    0    110000001    0    100000001    0    032181   033243   033504   035050   032302   035009   033224   030119   036134   035860   033935   034473                                      
440100400110015 08440 4150201non renseigné       0020800non renseigné       0030300N844_40-41_1        0030210000500000000440002101100000000000315      000000                                                                                                                                 140339641  877    130000001    0    120000001    0    110000001    0    100000001    0    032781   033797   033276   035461   032163   035092   034013   029710   037679   035474   034045   034265                                      
440100300310015 08440 4150201non renseigné       0020000Porte d'Anjou       0020800N844_39-40_2        0020567000800000000440002101100000000000309      000000                                                                                                                                 140679521  867    130000001    0    120000001    0    110000001    0    100000001    0    064910   067235   067152   070874   064610   070507   067618   060016   074333   071567   068045   068879                                      
440100300210015 08440 4150201non renseigné       0020000Porte d'Anjou       0020740N844_39-40_2        0020567000740000000440002101100000000000309      000000                                                                                                                                 140331831  887    130000001    0    120000001    0    110000001    0    100000001    0    031417   032594   033061   034561   031757   034554   032825   029731   035661   035255   033150   033745                                      
440100300110015 08440 4150201non renseigné       0020000Porte d'Anjou       0020800N844_39-40_2        0020567000800000000440002101100000000000309      000000                                                                                                                                 140347691  827    130686011    0    120683891    0    110672401    0    100660651    0    033493   034641   034091   036313   032853   035953   034793   030285   038672   036312   034895   035134                                      
440004600310015 02490 4813001RD 763 Vallet       0190667Département 49      0250666Le Clairay          0200000005999000000490003100349000310030187      000000                                                                                                                                 140080288    0    130199288    0    120199628    0    110196788 1206    100198328    0                                                                                                                                                   
440004600210015 02490 4810201D763 VALLET         0190667DEP 49              0250666Le Clairay          0200000005999000000490003100200000000000497      000000                                                                                                                                 140080288    0    130100678    0    120099798    0    110098208 1306    100099868    0                                                                                                                                                   
350002300310015 01360 4110201Echangeur RN 12     0150571Echangeur RN 137    0180527N136_12-13          0170900002956000000350003700300000000000195      000000                                                                                                                                 140823901    0    130810031    0    120738811  807    110755971  857    100745051  847    077682   079953   080286   086034   080787   086345   085462   077327   086396   086502   080348   081626                                      
350002300210015 01360 4110201Echangeur RN 12     0150571Echangeur RN 137    0180527N136_12-13          0170900002956000000350003700300000000000195      000000                                                                                                                                 140398041  827    130392951  977    120379531  807    110369501  887    100368511  877    037153   038769   038847   041683   039360   041706   041973   037261   041417   041711   038506   039292                                      
350002300110015 01360 4110201Echangeur RN 12     0150571Echangeur RN 137    0180527N136_12-13          0170900002956000000350003700300000000000195      000000                                                                                                                                 140425861    0    130417081    0    120359281  797    110386471  807    100376541  787    040529   041184   041439   044351   041427   044639   043489   040066   044979   044791   041842   042334                                      
350001400310015 00240 4810201RD 34               0110142RD 69               0190377Bréal/Montfort      0150488008484000000350001500300000000000187      000000                                                                                                                                 140311158 1700    130000008    0    120000008    0    110000008    0    100000008    0                                                                                                                                                   
350001400210015 00240 4810201RD 34               0110142RD 69               0190377Bréal/Montfort      0150488008484000000350001500200000000000187      000000                                                                                                                                 140159908  800    130000008    0    120316228    0    110324758    0    100319808  806                                                                                                                                                   
560000400110015 00240 4117001ECH.OUEST PLOERMEL  0240542ECH RD 764          0340450N24_56 PLOERMEL     0260100012486000000560000400300000000000498      008870 1277    008049   008149   008368   009644   009614   009729   011225   010424   004281   009564   008150   009053               140095291 1337    130094161 1337    120093481 1357    110095251 1367    100095991 1377    007950   008450   008661   010273   009727   010055   011205   011054   009695   009917   008623   008646                                      
440002400110015 01650 4110201RN 171 La Moëre     0330442RD 16 La Sapinière  0450535N165_44 PRINQUIAU   0400400012052000000440002600300000000000187      014013 1237    012088   013796   013906   017257   014670   013271   015244   016312   013297   012979   011273                        140149991 1047    130146801 1057    120146181 1087    110146521 1097    100144301 1077    011515   012516   012908   014125   015517   016191   016982   020509   015969   015317   014089   014126                                      
220000600110015 00120 4110201Jules Verne         0570475RD786_Les Rampes    0590002N12_22 VIADUCGOUET  0580050002527000000220001400100000000000187      032535  767    029919   031551   032423   018139   031481   036332   037747   035598   035265   035019   032458   034138               140333321  757    130329571  757    120327061  777    110332851  777    100328141  777    029810   031223   031498   033505   033305   035257   036878   034951   034569   034844   031479   032515                                      
530016238110015 01620 4813001Car.des Bozées      0370438N 157 X D 32        0380873Laval Roc. Bozées 2 0380000001435000000530016239100000000000195      007908                                                                                                                                 140081018    0    130080988    0    120000008    0    110000008    0    100000008    0                                                                                                                                                   
530016239110015 01620 4110201N 157 Ménard        0380873N 162 Gir.Besnier   0410030N162_53 LAVAL ROC   0390500002157000000530016258100000000000190      009643 1487    009244   009525   009677   009607   009227   010495   009714   008076   010458   010238   009748   009749               140098781 1497    130098741 1487    120094261 1567    110093951 1557    100092711 1517    009628   010006   009866   010470   009580   010530   010189   008310   010418   010452   009451   009687                                      
530016238310015 01620 4813001Car.des Bozées      0370438N 157 X D 32        0380873Laval Roc. Bozées 2 0380000001435000000530016239300000000000195      015719                                                                                                                                 140160198    0    130160268    0    120161558    0    110160688    0    100156148    0                                                                                                                                                   
530016239310015 01620 4110201N 157 Ménard        0380873N 162 Gir.Besnier   0410030N162_53 LAVAL ROC   0390500002157000000530016258100000000000191      019091 1457    018259   018817   019326   019118   018187   020760   019214   015927   020716   020288   019316   019252               140194551 1477    130194631 1467    120186401 1517    110185391 1517    100180151 1517    018974   019708   019459   020567   018855   020669   020053   016412   020586   020565   018670   019042                                      
220000400110015 00120 4110201RD768_Ville es Lan  0400490RD81_St-René        0470985N12_22 COETMIEUX    0420480007582000000220001400100000000000194      021493 1337    019546   020629   021071   024804   023844   024575   022014   024701   023856   016666   018071   018228               140218991 1257    130221121 1227    120221001 1267    110224671 1257    100216071 1217    019379   020757   021084   023994   022797   023746   025400   024497   023290   023015   013652   020968                                      
440261003210015 08440 4150201non renseigné       0090400non renseigné       0100000N844_45-44_2 ROUCHES0090750000600000000440002101100000000000608      032951  937    031622   032682   033449   034975   033282   036927   026557   027768   035660   035558   033966   033250               140334301  927    130000001         120000001         110000001         100000001         031274   032618   032469   034624   032273   035370   033814   030655   036085   035745   032884   033443                                      
440260900210015 08440 4150201non renseigné       0080700non renseigné       0090400N844_44-45_1        0090200000700000000440002101100000000000315      032772  987    031650   032610   033057   034715   033292   036740   026142   027370   035529   035444   033869   033146               140332361  977    130000001    0    120000001    0    110000001    0    100000001    0    031215   032592   032245   034492   032023   035132   033520   030329   035902   035474   032702   033313                                      
530016238210015 01620 4813001Car.des Bozées      0370438N 157 X D 32        0380873Laval Roc. Bozées 2 0380000001435000000530016239200000000000195      007811                                                                                                                                 140079188    0    130079288    0    120000008    0    110000008    0    100000008    0                                                                                                                                                   
530016239210015 01620 4110201N 157 Ménard        0380873N 162 Gir.Besnier   0410030N162_53 LAVAL ROC   0390500002157000000530016258100000000000191      009448 1447    009015   009292   009649   009511   008960   010265   009500   007851   010258   010050   009568   009503               140095771 1457    130095891 1457    120092141 1497    110091441 1497    100087441 1507    009346   009702   009593   010097   009275   010139   009864   008102   010168   010113   009219   009355                                      
440261100210015 08440 4150201non renseigné       0100000non renseigné       0100800N844_45-PTE GOULAINE0100550000800000000440002101100000000000608      033625  927    032455   033414   033877   035565   034117   037651   027220   028161   036369   036315   034684   033961               140340651  917    130000001    0    120000001    0    110000001    0    100000001    0    031950   033348   033082   035315   032822   036008   034379   031097   036764   036334   033593   034193                                      
530016242110015 01620 4813001N 162 Gir.Besnier   0410030D 131 Gir.Louverné  0430754Niafles             0410500002724000000530016258100000000000190      012732                                                                                                                                 140128898    0    130131008    0    120000008    0    110000008    0    100000008    0                                                                                                                                                   
530016265110015 01620 4813001D 24 Moulay         0630540Entrée de Mayenne   0650240Moulay              0650000001700000000530016258100000000000190      008963                                                                                                                                 140090738    0    130092228    0    120000008    0    110000008    0    100000008    0                                                                                                                                                   
530016266110015 01620 4843001Ent.Mayenne         0650240N12 x D35 Malécot   0670898Agglo Mayenne       0660000002659000000530016258100000000000190      017040 1103                                                                                                                            140172498    0    130175318    0    120180948    0    110181688 1006    100211768    0                                                                                                                                                   
530016258110015 01620 4110101D 131 Louverné      0430754D  24 Moulay        0630540N162_53 BERRY       0570812019866000000530016258100000000000494      006116 1558    005624   005571   005651   005963   006033   006391   006171   005288   006810   006914   006334   006621               140061911 1528    130062921 1558    120066381 1508    110066781 1458    100065581 1468    006261   006219   005750   006020   005901   006362   006348   005735   006807   006583   006192   006137                                      
560000600110015 00240 4117001LA POINTE           0390410ECH.RD 767          0560130N24_56 MOREAC       0550000017082000000560000400300000000000698      007664 1347    006031   006799   006836   008273   007818   007967   009604   009033   007548   007825   006726   007426               140077451    0    130076781 1537    120075751 1557    110076161 1587    100000001    0    006264   006717   006955   008422   007831   008123   009362   009293   007769   007972   006907   007229                                      
350067500110015 00840 1110241Echangeur RN 136    0960000RD 92               1000750A84_EX-16 THORIGNE  0980705004175000000220003900300000000000100      017829 1107    015709   016545   017202   018249   018005   018788   018592   018462   018873   018710   017297   017458               140179881 1137    130184871 1077    120182281 1147    110184581 1157    100177691 1147    016944   017831   017650   019520   018703   018775   018112   018294   018506   018086   016690   016783                                      
560000300310015 00240 4817001ECH.RN 166          0200640ECH.OUEST PLOERMEL  0220600ROCADE PLOERMEL     0200800001960001960560000400300000000000498      013633                                                                                                                                 140137518         130135088         120133938         110136398         100137008                                                                                                                                                        
560000500310015 00240 4817001ECH RD 764          0340445LA POINTE           0390150JOSSELIN OUEST      0350000004831004831560000400300000000000698      017001                                                                                                                                 140171488         130168458         120167018         110170088         100170838                                                                                                                                                        
560000601310015 00240 4817001ECH.RD 767          0560126ECH.RD 768          0710064BAUD / EST          0680000013435013435560000400300000000000299      014381                                                                                                                                 140145058         130142488         120141268         110143868         100144508 1200                                                                                                                                                   
560000400310015 00240 4117001ECH.OUEST PLOERMEL  0240542ECH RD 764          0340450N24_56 PLOERMEL     0260100012486000000560000400300000000000498      018850 1257    016654   016766   017339   019604   020390   020248   022492   022559   014596   019580   017220   018426               140190121 1297    130186751 1297    120185151 1317    110188551 1327    100189381 1337    016032   016753   017298   020052   019193   020196   021331   022622   019610   019458   017737   017694                                      
440261101210015 08440 4150201non renseigné       0100000non renseigné       0100800N844_45-PTE GOULAINE0100550000800000000440002101100000000000315      030161 1037    028655   029666   029857   031638   030530   033437   025908   026259   032382   032425   031025   030351               140304121 1027    130000001    0    120000001    0    110000001    0    100000001    0    028463   029792   029675   031440   029409   032098   030906   028295   032648   032245   029681   030364                                      
560001701110015 01650 4117001non renseigné       0380140non renseigné       0420900N165_56 LEONARDSOL  0400777002987000000560002900300000000000415      023324         018336   019624   020243   023337   023326   024729   028117   029057   025328   024110   022462   020950               140235141  887    130000001    0    120000001    0    110000001    0    100000001    0    018695   019756   021117   023787   023929   025107   028146   029527   027556            020534   020234                                      
220000500210015 00120 4110201RD81_St-René        0470985RD10_Le Perray      0510290N12_22 YFFINIAC     0480720003305000000220001400100000000000187      025784 1077    022925   024040   019726   022656   026868   027965   029272   030086   027865   027498   024670   025670               140259571 1147    130253871 1157    120261321 1157    110260931 1157    100258071 1157    022873   023838   024294   026728   025455   027809   028151   029177   027161   026603   024501   024767                                      
560000600310015 00240 4117001LA POINTE           0390410ECH.RD 767          0560130N24_56 MOREAC       0550000017082000000560000400300000000000698      015565 1397    012886   014030   014276   016218   016112   015905   018355   018845   015892   015669   013808   014621               140156691    0    130153491 1487    120151441 1497    110153021 1517    100000001    0    012910   013526   014138   016628   015690   016639   017984   019385   016105   015920   014203   014722                                      
440003100210015 01710 4812001RN137 NOZAY         0360004RD164 BLAIN         0480035La Grigonnais       0430000012031000000440003300200000000000298      003006                                                                                                                                 140030208    0    130030118    0    120030798    0    110030448    0    100029058    0                                                                                                                                                   
440003300210015 01710 4113001RD 164 Blain        0490302RN 165 La Moëre     0640900N171_44 BLAIN       0500000016363000000440003500300000000000187      003881 1417    003359   003573   003795   004131   004241   004465   004566   004546   004023   003527   002753   003555               140038981 1288    130038861 1328    120039731 1298    110039271 1288    100037471 1268    003394   003580   003750   004000   004035   004434   004392   004531   004080   003721   003352   003481                                      
350022210110015 01360 4110301Echangeur RN 24     0140152Echangeur RN 12     0150571N136_11-10          0140779001396000000220003900300000000000197      051169  737    047810   050071   052131   052898   050544   055167   052379   047427   054138   052604   048873   050087               140513921  737    130505161  727    120495921  677    110504101  747    100498541  727    049372   050863   050343   053368   050226   053783   052849   046631   054251   054266   050459   050442                                      
350002200110015 01360 4110301Echangeur RD 177    0120063Echangeur RN 24     0140152N136_09-08_1        0130146002108000000350003700300000000000187      052105  787    048752   051358   053058   054425   051167   056162   054145   047646   054346   053324   049396   051596               140523161  787    130514401  797    120506881  807    110512591  817    100512391  797    050283   052131   051490   054790   051401   054612   053784   046331   054284   055423   051325   052105                                      
290003602210015 02650 4110201Keradrien           0040205Kervao              0060218N265_29 KERADRIEN   0040925002038000000350000100300000000000187      012252  817    011134   011281   012497   011179   010606   011339   013412   012593   013476   013602   012657   013144               140122981  767    130000001         120000001         110000001         100000001         011696   011751   012028   012746   012200   012937   013124   011539   011486   013105   012241   012672                                      
560000600210015 00240 4117001LA POINTE           0390410ECH.RD 767          0560130N24_56 MOREAC       0550000017082000000560000400300000000000698      007901 1427    006855   007231   007440   007945   008294   007938   008751   009812   008344   007844   007082   007195               140079241 1417    130076711 1467    120075691 1477    110076861 1487    100000001    0    006646   006809   007183   008206   007859   008516   008622   010092   008336   007948   007296   007493                                      
560001701310015 01650 4117001non renseigné       0380140non renseigné       0420900N165_56 LEONARDSOL  0400777002987000000560002900300000000000415      047626         037584   040192   041575   047629   047621   050377   057498   059329   051593   049080   045866   042611               140477191  887    130000001    0    120000001    0    110000001    0    100000001    0    038054   040089   042780   047980   048265   050988   057155   060076   055947            041711   041318                                      
350022210310015 01360 4110301Echangeur RN 24     0140152Echangeur RN 12     0150571N136_11-10          0140779001396000000220003900300000000000197      102812  777    095431   100443   104871   106842   101723   111700   105450   094644   108371   105794   098378   100322               141028121  777    131007871  777    120986831  707    111008341  817    100997561  827    098441   101639   100924   107200   101014   108108   105626   092400   108326   108550   101169   100672                                      
440100401110015 08440 4150201non renseigné       0020800non renseigné       0030300N844_40-41_1        0030210000500000000440002101100000000000315      030319  897    029401   030305   030555   031539   029262   032255   028771   026096   032954   031890   030634   030363               140303181  907    130000001    0    120000001    0    110000001    0    100000001    0    029262   030056   029764   031665   028882   031229   030083   026509   033816   031639   030405   030666                                      
440500102110015 00820 1850241A844                0000000N165                0011146La Bugalliere       0010500001685000000440002101100000000000298      013604                                                                                                                                 140136028         130133348         120129678         110123918         100133438                                                                                                                                                        
440002001110015 01650 4843001D75                 0070126A82                 0070460L'esperence         0070500000334000000440002101100000000001002      013364                                                                                                                                 140133628    0    130130998    0    120127388    0    110121728    0    100131088    0                                                                                                                                                   
440002101110015 01650 4110201L 'ESPERANCE (A82)  0070460GUILLOCHERIE (D201) 0110000N165_EX-36 SAUTRON  0080560003540000000440002301300000000000187      016309         013755   014897   015481   018019   017149   018083   017923   017643                     014514   015546               140163061 1057    130159841 1077    120155431 1087    110148521 1117    100159931 1057    013563   014289   015232   017237   016715   017323   019131   018231   017538   016756   014476   015034                                      
220000400310015 00120 4110201RD768_Ville es Lan  0400490RD81_St-René        0470985N12_22 COETMIEUX    0420480007582000000220001400100000000000194      043674 1237    038713   040760   041957   047920   047300   047853   044636   049836   047023   039874   038392   039749               140436591 1217    130433521 1217    120432721 1237    110439931 1237    100421141 1187    038296   040439   041381   046535   044477   047069   048747   049153   046078   045354   034251   041785                                      
440261003310015 08440 4150201non renseigné       0090400non renseigné       0100000N844_45-44_2 ROUCHES0090750000600000000440002101100000000000608      065007  917    061371   063672   064745   068160   064369   071417   060767   057171   069679   068830   065491   064749               140649541  917    130000001    0    120000001    0    110000001    0    100000001    0    060626   063347   062812   067579   062817   068411   066365   058752   071162   068934   063825   065031                                      
440261100310015 08440 4150201non renseigné       0100000non renseigné       0110000N844_45-PTE GOULAINE0100550001000000000440002101100000000000608      066208  927    062893   065030   065594   069299   065898   072725   061526   057734   071009   070263   066807   066077               140661301  917    130000001    0    120000001    0    110000001    0    100000001    0    061874   064674   063965   068891   063877   069540   067319   059642   072465   069981   065147   066418                                      
440003700110015 01710 4110201RD 4 Les Six Croix  0790118RD 50-RD 971 Montoir0840765N171_44 MONTOIR     0830530005656000000440003700300000000000187      025876  518    022708   023759   024534   026986   026612   029252   029104   027616   026392   025630   023822   023986               140258451  558    130253421  707    120258341  707    110254771  588    100250781  588    022232   023979   024404   026751   026052   028216   029486   027634   027743   026085   023554   023919                                      
440260900310015 08440 4150201non renseigné       0080700non renseigné       0090400N844_44-45_1        0090200000700000000440002101100000000000315      065442  987    062136   064275   064816   068489   065110   071899   060753   057238   070210   069410   066036   065298               140653531  987    130000001    0    120000001    0    110000001    0    100000001    0    061173   063955   063108   068103   063110   068767   066681   058905   071656   069161   064267   065581                                      
440004300110015 08440 4150101Porte d'Anjou       0070380Porte du Vignoble   0080050N844_43-44 PONT BEL 0070600000670000000440004500300000000000187      041520  907    039438   040908   041849   043661   040726   043571   042309   035935   043464   042059   042985                        140414461  887    130401581  907    120393211  907    110385301  887    100373281  897    038976   040389   039856   043179   040801   043353   041832   036674   045950   043780   040969   041737                                      
220000800210015 00120 4110201non renseigné       0640620non renseigné       0660441N12_22 PORDICSOL    0640950001821000000220001400100000000000415      014915 1137    013183   013871   014239   015594   015729   015848                     015614   015648   014448   014938               140148851 1107    130000001         120000001         110000001         100000001         013089   013522   013901   015268   014790   015551   016388   016805   015523   015369   014093   014222                                      
440100500110015 08440 4150201non renseigné       0030300non renseigné       0030950N844_40-41_2        0030700000650000000440002101100000000000315      030484  987    029556   030509   030748   031681   029468   032533   028964   026310   033165   031976   030664   030439               140304161  967    130000001    0    120000001    0    110000001    0    100000001    0    029391   028707   029994   031950   029036   031479   030372   026684   034232   031737   030581   030871                                      
290002000210015 01650 4810201RD 783 Echang Kervid0090150RD 4 Echang Kerandré0180150Le Trevoux          0150550009071000000290002200200000000000187      012469                                                                                                                                 140124368 1000    130000008    0    120000008    0    110000008    0    100000008    0                                                                                                                                                   
290002100210015 01650 4810201RD 4 Echang Kérandré0180150RD 24 Echang Kérampa0250535Miniou              0220900007385000000290002200200000000000187      013157                                                                                                                                 140131228 1100    130127128    0    120128988    0    110129328    0    100127718    0                                                                                                                                                   
290002300210015 01650 4810201RD 70 Echang Coat Co0330890RN 2165-RD 765 Troya0440592Kergonnec           0360610010546000000290002200200000000000187      013076                                                                                                                                 140130418 1000    130000008    0    120000008    0    110000008    0    100000008    0                                                                                                                                                   
220000800310015 00120 4110201non renseigné       0640620non renseigné       0660441N12_22 PORDICSOL    0640950001821000000220001400100000000000415      029608 1137    025921   027733   028227   031280   030923   031326                     030850   031230   028470   030057               140295281 1107    130000001    0    120000001    0    110000001    0    100000001    0    025759   027018   027564   030714   029296   030749   033293   032899   030575   030415   027280   028575                                      
290002200210015 01650 4110201RD 24 Echang Kérampa0250535RD 70 Echang Coat Co0330890N165_29 MELGVEN     0300260008342000000290002200100000000000187      013240 1027    010721   011496   011876   013275   013663   013770   014501   017864   013976   013351   011965   012249               140132041 1157    130127911 1217    120129781 1187    110130121 1177    100128501 1187    010719   011149   011810   013350   013222   014044   015370   017728   013832   013261   011887   011891                                      
440101000110015 08440 4150201non renseigné       0050900non renseigné       0070100N844_42-43_1        0060535001200000000440002101100000000000315      026733  907    025783   025848   026319   027422   025550   028539   026951   024084   028880   027966   026719   026803               140266511  887    130000001    0    120000001    0    110000001    0    100000001    0    025308   025521   025990   027624   025606   027599   026773   023992   030165   027838   026547   026912                                      
350002100110015 01360 4110201Echangeur RD 837    0100536Echangeur RD 177    0120063N136_08-07          0110495001478000000350003700300000000000196      045926  827    042476   044949   046224   047872   045398   049439   048252   042433   047752   047226   043799   045358               140457771  827    130000001    0    120451061  867    110455431  867    100447951  857    043379   044807   044536   047816   044591   047476   047599   043589   046997   048126   044624   045813                                      
350001901110015 01360 4110201Echangeur RD 463    0050160Echangeur RD 163    0060630N136_05-04          0050976001470000000350003700300000000000309      034990 1057    032879   034380   035312   036596   033758   037326   037198   031560   036727   036201   033506   034508               140348731 1067    130348091 1077    120346011 1107    110348281 1087    100343351 1117    033324   034651   033793   036955   033829   036625   036452   030848   036300   037028   034044   034742                                      
220000800110015 00120 4110201non renseigné       0640620non renseigné       0660441N12_22 PORDICSOL    0640950001821000000220001400100000000000415      014693 1137    012738   013862   013988   015686   015194   015478                     015236   015582   014022   015119               140146431 1117    130000001    0    120000001    0    110000001    0    100000001    0    012670   013496   013663   015446   014506   015198   016905   016094   015052   015046   013187   014353                                      
350002200310015 01360 4110301Echangeur RD 177    0120063Echangeur RN 24     0140152N136_09-08_1        0130146002108000000350003700300000000000187      102617  797    096202   101086   104593   106936   101632   110643   105762   093833   107137   104993   097841   100980               141022551  887    131011131  947    120996541  907    111015191  867    101012941  847    098928   101940   100999   106745   097238   107532   104232   091512   106793   108376   101539   101632                                      
350002100310015 01360 4110201Echangeur RD 837    0100536Echangeur RD 177    0120063N136_08-07          0110495001478000000350003700300000000000196      088391  877    077547   086798   089869   092673   088461   095720   093115   083017   092459   090294   083710   087222               140880761  867    130000001    0    120862391  907    110870171  937    100852531  927    084107   086510   086287   092034   086854   092605   091458   084399   091214   092509   086719   082401                                      
220001200210015 00120 4110201RD767_Kernilien     0940150Département 29      1230872N12_22 PLOUNERIN    1200040029249000000220001400100000000000294      007455 1477    006091   006560   006084   007520   008133   007873   008390   008694   007893   007934   007018   007203               140074271 1457    130073221 1507    120074131 1537    110073951 1567    100073301 1557    006221   006171   006817   007696   007415   008012   007866   009248   007922   007885   006884   006888                                      
290002100310015 01650 4810201RD 4 Echang Kérandré0180150RD 24 Echang Kérampa0250535Miniou              0220900007385000000290002200300000000000187      026468                                                                                                                                 140263668 2000    130243088    0    120257638    0    110252738    0    100249378    0                                                                                                                                                   
350002100210015 01360 4110201Echangeur RD 837    0100536Echangeur RD 177    0120063N136_08-07          0110495001478000000350003700300000000000196      042465  897    035071   041849   043645   044801   043063   046281   044863   040584   044707   043068   039911   041864               140422991  897    130000001    0    120411331  927    110414741  977    100404581  967    040728   041703   041751   044218   042263   045129   043859   040810   044217   044383   042095   036588                                      
290002200310015 01650 4110201RD 24 Echang Kérampa0250535RD 70 Echang Coat Co0330890N165_29 MELGVEN     0300260008342000000290002200100000000000187      026759 1027    021385   023240   023880   026927   027364   027950   031025   035383   027838   026904   023977   024883               140266541 1107    130245671 1187    120260421 1137    110260641 1137    100257161 1137    021591   022715   023922   027423   027084   028172   031214   035063   027403   026544   023981   024367                                      
560001701210015 01650 4117001non renseigné       0380140non renseigné       0420900N165_56 LEONARDSOL  0400777002987000000560002900300000000000415      024302         019248   020568   021332   024292   024295   025648   029381   030272   026265   024970   023404   021661               140242051  887    130000001         120000001         110000001         100000001         019359   020333   021663   024193   024336   025881   029009   030549   028391            021177   021084                                      
530016242310015 01620 4813001N 162 Gir.Besnier   0410030D 131 Gir.Louverné  0430754Niafles             0410500002724000000530016258300000000000190      025545                                                                                                                                 140254428    0    130257118    0    120221948    0    110222858    0    100219188    0                                                                                                                                                   
440003100310015 01710 4812001RN137 NOZAY         0360004RD164 BLAIN         0480035La Grigonnais       0430000012031000000440003300300000000000298      006093                                                                                                                                 140060688    0    130060338    0    120061948    0    110061338    0    100059458    0                                                                                                                                                   
440003200310015 01710 4843001ROUTE DE NOZAY D164 0480035LE GRAVIER D15      0490302Blain Agglomeration 0480500001461000000440003300300000000000298      012452                                                                                                                                 140124008    0    130123278    0    120126548    0    110125278    0    100121408  706                                                                                                                                                   
440003300310015 01710 4113001RD 164 Blain        0490302RN 165 La Moëre     0640900N171_44 BLAIN       0500000016363000000440003500300000000000187      007812 1357    006627   007109   007555   008329   008496   008987   009327   009298   008034   007143   005608   007147               140077791 1248    130077331 1288    120079381 1248    110078581 1248    100076151 1238    006719   007126   007492   008103   008139   008832   008983   009088   007996   007272   006589   006956                                      
350022210210015 01360 4110301Echangeur RN 24     0140152Echangeur RN 12     0150571N136_11-10          0140779001396000000220003900300000000000197      051643  797    047621   050372   052740   053944   051179   056533   053071   047217   054233   053190   049505   050235               140514201  797    130502711  807    120490911  727    110504241  857    100499021  867    049069   050776   050581   053832   050788   054325   052777   045769   054075   054284   050710   050230                                      
290002000310015 01650 4810201RD 783 Echang Kervid0090150RD 4 Echang Kerandré0180150Le Trevoux          0150550009071000000290002200300000000000187      041530                                                                                                                                 140413498 2100    130000008    0    120000008    0    110000008    0    100000008    0                                                                                                                                                   
290002300310015 01650 4810201RD 70 Echang Coat Co0330890RN 2165-RD 765 Troya0440592Kergonnec           0360610010546000000290002200300000000000187      043342                                                                                                                                 140431538 1800    130000008    0    120000008    0    110000008    0    100000008    0                                                                                                                                                   
530016258310015 01620 4110101D 131 Louverné      0430754D  24 Moulay        0630540N162_53 BERRY       0570812019866000000530016258100000000000494      012749 1398    011786   011949   012373   012815   012497   013530   012757   011048   013855   013838   013041   013496               140126891 1408    130128201 1428    120132311 1418    110132851 1328    100130661 1248    012494   012707   012179   012913   012439   013134   012760   011330   013621   013409   012674   012666                                      
290002100110015 01650 4810201RD 4 Echang Kérandré0180150RD 24 Echang Kérampa0250535Miniou              0220900007385000000290002200100000000000187      013311                                                                                                                                 140132448 1000    130115968    0    120128658    0    110123418    0    100121668    0                                                                                                                                                   
290002300110015 01650 4810201RD 70 Echang Coat Co0330890RN 2165-RD 765 Troya0440592Kergonnec           0360610010546000000290002200100000000000187      030266                                                                                                                                 140301128  900    130263658    0    120279498    0    110279738    0    100276008  800                                                                                                                                                   
290002000110015 01650 4810201RD 783 Echang Kervid0090150RD 4 Echang Kerandré0180150Le Trevoux          0150550009071000000290002200100000000000187      029061                                                                                                                                 140289138 1100    130253158    0    120268358    0    110268588    0    100265008 1006                                                                                                                                                   
290002200110015 01650 4110201RD 24 Echang Kérampa0250535RD 70 Echang Coat Co0330890N165_29 MELGVEN     0300260008342000000290002200100000000000187      013519 1017    010664   011744   012004   013652   013701   014180   016524   017519   013862   013553   012012   012634               140134501 1017    130117761 1127    120130641 1037    110130521 1037    100128661 1037    010872   011566   012112   014073   013862   014128   015844   017335   013571   013283   012094   012476                                      
440002101310015 01650 4110201L 'ESPERANCE (A821) 0070000GUILLOCHERIE (D201) 0110000N165_EX-36 SAUTRON  0080560004000000000440002301300000000000187      032303         027484   029327   030625   034896   034155   035375   036176   035999                     028529   030241               140321301 1017    130295321 1107    120300531 1087    110301811 1067    100309791 1047    026920   028140   029975   033458   032675   034155   036595   037076   035391   032598   028970   029341                                      
440500102310015 00820 1850241A844                0000000N165                0011145La Bugalliere       0010500001685000000440002101300000000000298      027229                                                                                                                                 140270838         130248768         120253298         110254518         100261118                                                                                                                                                        
440002001310015 01650 4843001D75                 0070126A82                 0070460L'esperence         0070500000334000000440002101300000000001002      026974                                                                                                                                 140268288    0    130246298    0    120250878    0    110252198    0    100258648    0                                                                                                                                                   
440004403110015 02490 4140201RD 844 Bellevue Sud 0000000RD 115 Basse Goulain0040929N249_EX-44 VIGNOBLE 0010560004929000000490003100100000000000187      024435 1057    023180   023843   024192   025321   024106   025904   025749   022896   024245   024422   024951                        140242991 1037    130237941 1007    120233161 1007    110230701 1007    100222571  967    023071   024015   024006   025301   023526   025818   024574   021814   025575   025421   023985   024569                                      
440261101310015 08440 4150201non renseigné       0100000non renseigné       0110000N844_45-PTE GOULAINE0100550001000000000440002101100000000000315      059198 1037    055914   058015   058174   061380   058037   063607   057124   053076   063098   062952   059850   059384               140588481 1027    130000001    0    120000001    0    110000001    0    100000001    0    055397   058058   057356   061126   056735   061355   059959   053414   063465   062074   058035   059398                                      
220000600310015 00120 4110201Jules Verne         0570475RD786_Les Rampes    0590002N12_22 VIADUCGOUET  0580050002527000000220001400100000000000187      065787  807    060415   062976   064502   042653   064665   072489   074694   072372   070968   069912   065261   067892               140653951  817    130658561  797    120654731  817    110664901  827    100651731  897    060202   062441   063212   067952   066034   070467   073195   070621   069503   061658   061478   057954                                      
440263600210015 A8440 4150201non renseigné       0350810non renseigné       0360450A844_37-36_1        0360010000640000000440002101100000000000315      047851  997    043708   047017   046911   050977   047892   051490   047725   045811   049548   050112   046060   047096               140475421  997    130000001         120000001         110000001         100000001         043453   045148   046682   049920   047491   050133   051238   046838   048080   049302   045365   046726                                      
530016265310015 01620 4813001D 24 Moulay         0630540Entrée de Mayenne   0650240Moulay              0650000001700000000530016258300000000000190      021776                                                                                                                                 140216268    0    130218338    0    120188578    0    110189348    0    100186228    0                                                                                                                                                   
440002300110015 01650 4110201RD49                0230044RN 171 La Moëre     0330442N165_44 MALVILLE    0300500010435000000440002600300000000000187      028025 1067    023304   026113   025352   027174   028430   029533   032527   033366   028801   029323   025894   026273               140278241 1037    130267591 1067    120267151 1097    110274151 1097    100274141 1077    023004   024094   025516   028384   028118   028971   032742   032202   029331   028491   026455   026282                                      
350001901310015 01360 4110201Echangeur RD 463    0050160Echangeur RD 163    0060630N136_05-04          0050976001470000000350003700300000000000309      070455 1097    065279   068393   070662   073283   069263   075419   074180   065119   074339   072863   067673   069070               140699491 1107    130695621 1117    120691221 1147    110704171 1177    100693001 1177    066370   068696   067329   073680   067950   073800   072542   064054   073311   074088   068434   069310                                      
440263400210015 08440 4150201non renseigné       0340700non renseigné       0350200A844_37-36_3        0340960000500000000440002101100000000000315      047997  997    044167   047100   046239   050532   047975   051562   048411   045875   049632   050194   046573   047815               140476281  997    130000001    0    120000001    0    110000001    0    100000001    0    043528   045222   046735   050003   047647   050223   051223   046927   048156   049496   045443   046806                                      
440261400210015 08440 4150201non renseigné       0160185non renseigné       0180000N844_48-49_2 REZE   0170900001815000000440002101100000000000608      034819 1247    029416   032572   034737   036426   035287   038233   034257   033924   036085   036977   034752   035143               140345511 1247    130000001         120000001         110000001         100000001         032334   033793   034049   036118   034492   037554   036878   033565   033980   036324   033565   031982                                      
440263500210015 08440 4150201non renseigné       0350200non renseigné       0350700A844_37-36_2        0350310000500000000440002101100000000000315      047837 1037    044029   046958   046094   050350   047810   051351   048219   045710   049466   050044   046444   047691               140474471 1037    130000001    0    120000001    0    110000001    0    100000001    0    043403   045093   046620   049812   047501   050052   051068   046797   048030   048940   045307   046625                                      
440263500310015 08440 4150201non renseigné       0350200non renseigné       0350810A844_37-36_2        0350310000610000000440002101100000000000315      095779 1007    088452   093546   092326   099570   095286   101653   099094   094206   097998   099419   093084   094803               140949831 1007    130000001    0    120000001    0    110000001    0    100000001    0    087683   090637   093067   098708   094644   100021   100240   094603   098037   097471   091314   093210                                      
440263500110015 08440 4150201non renseigné       0350310non renseigné       0350810A844_37-36_2        0350310000500000000440002101100000000000315      047942  957    044423   046588   046232   049220   047476   050302   050875   048496   048532   049375   046640   047112               140475361  937    130000001    0    120000001    0    110000001    0    100000001    0    044280   045544   046447   048896   047143   049969   049172   047806   050007   048531   046007   046585                                      
440260700110015 08440 4150201non renseigné       0080050non renseigné       0080775N844_44-PTE VIGNOBLE0080370000725000000440002101100000000000315      042265  517    040058   041404   041792   043869   041257   045765   041915   037128   045441   044313   042231   042186               140419031  517    130000001    0    120000001    0    110000001    0    100000001    0    039517   040943   040531   043803   040349   043959   042365   037168   046508   044098   041488   042280                                      
220001200310015 00120 4110201RD767_Kernilien     0940150Département 29      1230872N12_22 PLOUNERIN    1200040029249000000220001400100000000000294      014787 1497    011827   013068   012498   015343   015753   015541   017056   017336   015196   015601   013691   014388               140146561 1487    130144101 1527    120145821 1567    110145201 1587    100144531 1557    012082   012410   013391   015311   014633   015674   016205   017910   015481   015435   013433   013731                                      
350067500310015 00840 1110241Echangeur RN 136    0960000RD 92               1000750A84_EX-16 THORIGNE  0980705004175000000220003900300000000000100      037173 1047    032624   034379   035798   038358   037295   039520   039824   037889   039212   038843   035883   036326               140368431 1087    130369411 1057    120364081 1127    110368331 1147    100354551 1137    033940   035714   035396   039373   037281   038308   038757   037278   038344   037777   034819   035137                                      
350003700210015 01570 4110201Département Mayenne 0000000Echangeur RD 178    0120000N157_35 VITRE       0050800012009000000350003700353000170120187      014784 1867    011635   012870   012730   015207   017170   014773   016857   018202   015281   016159   013090   013221               140146501 1847    130000001    0    120143701 1937    110144781 1917    100140391 1887    011775   011997   013160   015390   014696   016280   016352   019154   014835   015113   013299   013529                                      
350003800310015 01570 4810201Echangeur RD 178    0120000Echangeur RD 777    0170198Torcé               0150188005190000000350003700300000000000187      029825                                                                                                                                 140295488         130000008         120288658         110291678         100284708 1606                                                                                                                                                   
350003900310015 01570 4810201Echangeur RD 777    0170198Echangeur RD 857    0280853St-Didier           0200000011661000000350003700300000000000187      033785                                                                                                                                 140334718         130000008         120326988         110330408         100322508 1506                                                                                                                                                   
350003700310015 01570 4110201Département Mayenne 0000000Echangeur RD 178    0120000N157_35 VITRE       0050800012009000000350003700353000170130187      029425 1877    022487   026103   025370   031910   032925   029485   035855   035573   029650   031655   025529   026204               140291511 1847    130000001    0    120284771 1937    110287741 1917    100280861 1907    022796   024284   026013   031330   029691   031807   034366   036699   028784   030141   025636   027826                                      
440263600310015 A8440 4150201non renseigné       0350810non renseigné       0360450A844_37-36_1        0360010000640000000440002101100000000000315      095877  977    087687   093435   093956   100494   095504   101636   098531   094747   099752   099480   091907   093489               140949621  977    130000001    0    120000001    0    110000001    0    100000001    0    087566   090489   092938   098711   094439   099993   100690   094416   098043   097610   091298   093174                                      
350003700110015 01570 4110201Département Mayenne 0000000Echangeur RD 178    0120000N157_35 VITRE       0050800012009000000350003700353000170110187      014641 1887    010852   013233   012640   016703   015755   014712   018998   017371   014369   015496   012439   012983               140145011 1847    130000001    0    120141071 1927    110142961 1927    100140471 1937    011021   012287   012853   015940   014995   015527   018014   017545   013949   015028   012337   014297                                      
220000900210015 00120 4110201RD6_Le Sépulcre     0660441RD5_Bellevue        0870210N12_22 PLELO        0700900020465000000220001400100000000000187      015572 1048    013541   014110   014518   015892   016038   016022   016658   016912   016446   016297   015024   015307               140154231 1008    130151551 1317    120151001 1347    110154571 1158    100152191 1148    013630   014140   014423   016113   015321   016427   016392   017237   016221   015983   014594   014520                                      
220000500310015 00120 4110201RD81_St René        0470985RD10_Le Perray      0510290N12_22 YFFINIAC     0480720003305000000220001400100000000000187      053878 1097    046513   049436   045902   051785   055175   057588   061288   060715   056722   057052   050664   053308               140533491 1147    130521051 1157    120534911 1157    110532341 1157    100526441 1157    046584   049241   049591   055424   052669   056728   059055   059363   055680   054901   049430   051247                                      
440537101110015 08440 4150201VC 203              0310200VC 109              0310910N844_34 PTE CHEZINE 0310600000710000000490003100300000000000695      032883  667    030653   032362   032264   034087   032350   034789   035464   032453   034618   034499   031854   029280               140325581  677    130324551  677    120305621  697    110290301  717    100291351  717    031214   032137   032375   033840   032318   034039   033123   030667   032949   033561   031865   032644                                      
440004403310015 02490 4140201RD 844 Bellevue Sud 0000000RD 115 Basse Goulain0040929N249_EX-44 VIGNOBLE 0010560004929000000490003100100000000000187      047760 1067    044917   046596   047152   049787   047253   050596   050371   045094   047537   047732   048381                        140472751 1057    130463601 1087    120454791 1117    110451561 1107    100438451 1037    044267   046011   046653   049362   046166   050436   048032   042716   049827   049676   046558   047709                                      
440101100110015 08440 4150201non renseigné       0070100non renseigné       0070385N844_42-43_2        0070000000285000000440002101100000000000315      026836  937    025736   026482   026498   027755   026129   028448   026888   024159   028762   027835   026710   026740               140265611  927    130000001    0    120000001    0    110000001    0    100000001    0    025250   025467   025941   027592   025544   027477   026718   024121   029924   027631   026365   026759                                      
560002000210015 01650 4117001ECH.DU FOURCHENE    0480400ECH.EST AURAY       0600750N165_56 PLOEREN     0510000012358000000560002900300000000000698      028151  727    023751   024839   026146   029111   029254   030223   031133   031891   030208   028391   026103   026545               140278601  717    130274801  647    120271371  568    110268471  578    100272081  568    023444   024405   025327   028326   028210   029976   032115   034218   029595   027555   025459   025416                                      
440500102210015 00820 1850241A844                0000000N165                0011146La Bugalliere       0010500001685000000440002101200000000000298      013625                                                                                                                                 140134818         130115428         120123628         110130608         100127688                                                                                                                                                        
440002001210015 01650 4843001D75                 0070126A82                 0070460L'esperence         0070500000334000000440002101200000000001002      013610                                                                                                                                 140134668    0    130115308    0    120123498    0    110130478    0    100127568    0                                                                                                                                                   
440002101210015 01650 4110201L 'ESPERANCE (A821) 0070000GUILLOCHERIE (D201) 0100040N165_EX-36 SAUTRON  0080560003400000000440002301300000000000187      015994         013729   014430   015144   016877   017006   017292   018253   018356                     014015   014695               140158241  997    130135481 1127    120145101 1077    110153291 1047    100149861 1047    013357   013851   014743   016221   015960   016832   017464   018845   017853   015842   014494   014307                                      
350001901210015 01360 4110201Echangeur RD 463    0050160Echangeur RD 163    0060630N136_05-04          0050976001470000000350003700300000000000309      035465 1117    032400   034013   035350   036687   035505   038093   036982   033559   037612   036662   034167   034562               140350761 1127    130347531 1147    120345211 1167    110355891 1217    100349651 1207    033046   034045   033536   036725   034121   037175   036090   033206   037011   037060   034390   034568                                      
440263400310015 08440 4150201non renseigné       0340700non renseigné       0350310A844_37-36_3        0340960000610000000440002101100000000000315      096770  987    089155   094265   093022   100268   096230   102538   100176   095610   100451   100338   093763   095501               140957081  977    130000001    0    120000001    0    110000001    0    100000001    0    088339   091285   093644   099375   095333   100683   100987   095241   098821   098500   092157   093963                                      
290003601310015 02650 4810201poul ar feunteun    0020376Keradrien           0040205Brest               0030500001829000000290003602300000000000187      033293                                                                                                                                 140329258    0    130317748    0    120326238    0    110329278    0    100305448    0                                                                                                                                                   
290003602310015 02650 4110201Keradrien           0040205Kervao              0060218N265_29 KERADRIEN   0040925002038000000350000100300000000000187      024770  827    022635   023094   024713   024116   023000   024807   026440   024934   026364   026532   024682   025788               140244961  777    130000001    0    120000001    0    110000001    0    100000001    0    023196   023465   023769   025284   024170   025657   025976   023498   024247   025771   023963   024885                                      
350000100110015 00120 4113001Département Mayenne 0000000RD124               0050947N12_35 FLEURIGNE    0040440005893000000350000100353000120030187      003252 1727    002725   002966   003089   003468   003279   003352   003690   003583   003481   003304   002974   003097               140032161 1747    130031661 1897    120031781 1947    110031941 1747    100031201 1727    002714   002881   003060   003319   003281   003431   003557   003552   003375   003366   002965   003063                                      
350002200210015 01360 4110301Echangeur RD 177    0120063Echangeur RN 24     0140152N136_09-08_1        0130146002108000000350003700300000000000187      050512  807    047450   049728   051535   052511   050465   054481   051617   046187   052791   051669   048445   049384               140499391  937    130496731 1027    120489661  957    110502601  887    100500551  867    048645   049809   049509   051955   045837   052920   050448   045181   052509   052953   050214   049527                                      
350001722110015 01360 4110201autre               0010483D386 Bd Urbain      0030483N136_03-02 BELLANGER0020172002000000000350003700300000000000309      029614 1107    027153   028460   029098   031042   029025   031643   031627   027353   030908   030695   028439   029924               140292771 1107    130291851 1117    120289631 1167    110292411 1187    100286381 1177    027433   028476   027874   031307   028975   031220   030946   026796   030152   030321   028317   029555                                      
440261402210015 08440 4150201non renseigné       0180000non renseigné       0190000N844_49-PTE REZE    0180500001000000000440002101100000000000315      035555         032606   034214   034350   036738   035680   038398   036314   034253   036513   037417   035155   035046               140351371    0    130000001    0    120000001    0    110000001    0    100000001    0    032743   034103   034160   035243   035606   037904   037073   033942   034264   036778   033873   035880                                      
220000501110015 00120 4110201RD10_Le Perray      0510290Jules Verne         0540640N12_22 TREGUEUX     0530500003369000000220001400100000000000187      027388  927    023228   024820   025529   029709   027458   028634   030520   029834   029687   028038   024607   026446               140270661  887    130270961  897    120268091  897    110274661  907    100271421  887    023339   024808   024891   029115   029458   028179   029820   028670   027484   027769   024895   026195                                      
440536900210015 08440 4150201Porte d'orvault     0340170A844                0340700N844_36-PTE ORVAULT 0340400000530000000490003100300000000000595      031004  807    029004   030865   030435   032534   030545   032865   030772   028728   031705   032604   030714   031389               140306371  807    130264001    0    120261471    0    110263861    0    100261591    0    029030   029828   030542   032065   030589   032103   032133   028972   029782   031814   029882   030867                                      
440002300310015 01650 4110201RD49                0230044RN 171 La Moëre     0330442N165_44 MALVILLE    0300500010435000000440002600300000000000187      057167  987    047378   052053   051046   055014   058617   060535   066922   069432   059497   058813   052524   053636               140564751  967    130546331  987    120542341 1007    110550261  967    100550401  967    047237   048881   051828   057126   056718   059319   065715   067640   059422   056811   053970   052426                                      
350067000210015 01360 4110301RD 97               0230680A 84                0260450N136_16-15_2        0240335002960000000220003900300000000000199      029649  907    025763   027940   028840   031007   029346   031540   032669   029081   030651   031046   028192   029632               140292901 1027    130284491 1017    120277681 1017    110274471  997    100270041 1007    025645   027410   027252   031376   029315   031191   032314   028986   030538   030931   027554   028905                                      
530016207210015 01620 4813001Dept.49             0000000Ent.Chat.Gon.       0070896Le Préssoir         0070000007777000000530016228200000000000190      003395 1703                                                                                                                            140033538    0    130032708    0    120000008    0    110000008    0    100000008    0                                                                                                                                                   
290003600110015 02650 4110201Kergleux            0000000poul ar feunteun    0020376N265_29 BREST       0010400001577000000290003602300000000000187      014177  907    013217   013560   014161   014784   013807   015425   014374   013892   015026   014322   013607   013954               140140011  867    130138421  897    120139421  917    110142921  897    100138161  907    013144   013112   013825   014623   013709   014873   014539   013456   014683   014693   013556   013767                                      
440537200110015 08440 4150201non renseigné       0300400non renseigné       0300740N844_33_1 PTE ARMOR 0300596000340000000490003100300000000000608      062429  687    030382   031986   032042   033879   031924   034366   035165   032156   034104   034117   030658   032483               140613421  697    130612271  737    120616771  737    110624171  747    100615691  737    030967   031910   032351   033854   032315   033630   033042   030587   032803   032944   031615   032408                                      
530016237210015 01620 4813001D 21 Gir.La Rouzine 0360640Car. des Bozées     0370438Laval Roc Bozées 1  0370000000798000000530016228200000000000185      004887                                                                                                                                 140048268    0    130047068    0    120000008    0    110000008    0    100000008    0                                                                                                                                                   
350000101310015 00120 4813 51RD 124              0050947RD 706              0090317Beaucé              00807000033690000003500001003          0187      010608                                                                                                                                 140104758         130102888         120103058         110103738         100101638                                                                                                                                                        
530016235210015 01620 4813001D103 Entrammes      0300067Gir.Thévalles       0350146La Croix Bataille   0340000005079000000530016228200000000000190      005981                                                                                                                                 140059068    0    130057598    0    120000008    0    110000008    0    100000008    0                                                                                                                                                   
530016216210015 01620 4813001Gir. de Laval       0110111Pot. de Villiers    0200265L' Aire de la Roche 0160000009907000000530016228200000000000198      004944                                                                                                                                 140048828    0    130047608    0    120000008    0    110000008    0    100000008    0                                                                                                                                                   
530016208210015 01620 4813001Ent.Chat.Gon.       0070896Gir. de Laval       0080721Ag Château Gontier  0080000001050000000530016228200000000000190      010598 1403                                                                                                                            140104658    0    130102048    0    120101718    0    110103648  706    100088098    0                                                                                                                                                   
350001711110015 01360 4110201Intersection N157   0000000autre               0010483N136_01-02          0010084001483000000350003700300000000000309      025478 1217    023016   024353   024890   026881   025024   027230   027678   023925   026613   026403   024268   025442               140251581 1227    130247201 1257    120246381 1297    110248811 1317    100241761 1327    023014   024122   023676   026960   024885   026962   027036   023431   025986   026583   024128   025124                                      
530016236210015 01620 4813001Gir.Thévalles       0350146D21G.La Rouzine     0360640Laval Roc Est 1s    0350500001494000000530016228200000000000189      004218                                                                                                                                 140041658    0    130040618    0    120000008    0    110000008    0    100000008    0                                                                                                                                                   
350000100310015 00120 4113001Département Mayenne 0000000RD124               0050947N12_35 FLEURIGNE    0040440005893000000350000100353000120030187      006443 1757    005450   005874   006151   006760   006579   006630   007148   007136   006981   006498   005967   006106               140063621 1767    130062481 1917    120062581 1967    110062991 1807    100061711 1777    005400   005695   006053   006509   006441   006862   006952   007068   006727   006600   005948   006041                                      
530016228210015 01620 4113001Gir.de Laval        0200265D 103 Entrammes     0300067N162_53 ENTRAMMES   0270979009802000000530016228100000000000190      004293 1207    003949   004064   004208   004365   004258   004707   004260   003776   004634   004487   004433   004384               140042391 1247    130041331 1227    120041291 1207    110041951 1217    100041741 1207    003920   004141   004116   004453   004138   004520   004360   003715   004567   004468   004265   004224                                      
440500701110015 00830 1810241D178                0040384Péage A83           0050475La Cour Neuve       0050000001091000000440500700100000000001002      017767                                                                                                                                 140175438         130171558         120169928         110170948         100167868                                                                                                                                                        
440263600110015 A8440 4150201non renseigné       0350810non renseigné       0360450A844_37-36_1        0360010000640000000440002101100000000000315      048026  937    043979   046418   047045   049517   047612   050146   050806   048936   050204   049368   045847   046393               140474201  937    130000001    0    120000001    0    110000001    0    100000001    0    044113   045341   046256   048791   046948   049860   049452   047578   049963   048308   045933   046448                                      
440500700110015 00830 1110241RD844 L'EBAUPIN     0020600RD178 LA COUR NEUVE 0050460A83_48-EX-2         0030600002860000000440500700100000000000187      030970 1127    027200   028988   029412   032266   030836   032860   034894   033215   031921   031459   028819   029639               140305791 1127    130299021 1147    120296171 1167    110297941 1247    100292561 1237    026928   028402   028883   031611   030273   032614   034771   033063   031895   030852   028428   029093                                      
440003100110015 01710 4813001N137                0360004RD164 BLAIN         0480035La Grigonnais       0430000012031000000440003300100000000000298      003087                                                                                                                                 140030488    0    130030228    0    120031158    0    110030898    0    100030408    0                                                                                                                                                   
350001900210015 01360 4110201Echangeur RD 163    0060630Echangeur RN137 Alma0090084N136_05-06_2        0080000002434000000350003700300000000000187      042223 1037    039048   040815   042165   043545   042151   045222   043819   040401   044437   043103   040580   041412               140416881 1037    130000001         120000001         110000001         100000001         039420   040444   040185   043211   041007   044015   042560   039273   043854   043954   041139   041246                                      
440003300110015 01710 4113001RD 164 Blain        0490302RN 165 La Moëre     0640900N171_44 BLAIN       0500000016363000000440003500300000000000187      003931 1247    003268   003536   003760   004198   004255   004522   004761   004752   004011   003616   002855   003592               140038811 1158    130038471 1198    120039651 1158    110039311 1168    100038681 1178    003325   003546   003742   004103   004104   004398   004591   004557   003916   003551   003237   003475                                      
440261300210015 08440 4150201non renseigné       0140080non renseigné       0140750N844_47 PTE VERTOU  0140740000670000000440002101100000000000608      037592  857    035564   036834   037522   039176   037380   041018   034726   032688   039814   040218   038327   038016               140370991  857    130000001    0    120000001    0    110000001    0    100000001    0    035159   036463   036204   038628   036260   039565   037162   033159   039260   039818   036867   036768                                      
440537000210015 08440 4150201Prte de Sautron     0330400Porte d'orvault     0330800N844_35_1 SAUTRON   0330700000400000000490003100300000000000495      031334  767    029678   031035   030681   032796   030815   033328   031159   029039   032077   032832   030964   031695               140309161 1007    130310031  737    120308741  747    110311331  777    100305951  747    029145   029991   030799   032362   030958   032413   032429   029381   030197   032169   030124   030979                                      
350001711310015 01360 4110201Intersection N157   0000000autre               0010483N136_01-02          0010084001483000000350003700300000000000309      051419 1217    046098   048543   049908   053739   051441   054866   054896   049954   054307   053265   049123   050805               140507221 1227    130498321 1267    120495891 1297    110506091 1367    100492791 1367    046328   048147   047613   053820   050222   054582   053558   049083   053051   053313   048795   050145                                      
350004100110015 01570 4110201RD 292 Noyal/Vilaine0380420RN 136              0410815N157_EX-01 NOYAL    0390100003359000000350000900100000000000187      031791 1177    027626   029547   030552   034076   031455   033513   034992   030977   032579   033530   029985   032535               140313581 3137    130308031 1237    120303311 1247    110305251 1267    100299461 1257    029662   029953   029732   032757   031823   032913   034395   029879   031576   032869   029226   031409                                      
440003802310015 01710 4810201ECHAN TRIGNAC       0860794N 171 CERTE         0880425Certe               0870600001631000000440003700300000000001299      058017                                                                                                                                 140572148    0    130562148    0    120565438    0    110564698    0    100556018    0                                                                                                                                                   
440003801310015 01710 4810201D50 MONTOIR         0840765ECHAN TRIGNAC VC    0860794Trignac E           0860100002029000000440003700300000000001299      053139                                                                                                                                 140524038    0    130514878    0    120517898    0    110517218    0    100509268    0                                                                                                                                                   
440003700310015 01710 4110201RD 4 Les Six Croix  0790118RD 50-RD 971 Montoir0840765N171_44 MONTOIR     0830530005656000000440003700300000000000187      052055  508    045171   047321   049444   054057   053357   058030   058330   056627   053610   051830   048400   048215               140513341  538    130504361  697    120507311  707    110506641  568    100498851  558    044509   047638   048427   052816   051449   056318   057747   055734   055187   051673   047101   047257                                      
350001900310015 01360 4110201Echangeur RD 163    0060630Echangeur RN137 Alma0090084N136_05-06_2        0080000002434000000350003700300000000000187      084240 1017    077999   081849   084632   087504   083294   090401   088439   078797   088401   086103   080655   082895               140830711 1017    130000001    0    120000001    0    110000001    0    100000001    0    078766   081185   080263   086838   081634   087385   085704   076226   086789   087894   081656   082660                                      
440500701310015 00830 1810241D178                0040384Péage A83           0050475La Cour Neuve       0050000001091000000440500700300000000001002      037512                                                                                                                                 140369888         130362178         120358718         110357418         100353028                                                                                                                                                        
440500700310015 00830 1110241RD844 L'EBAUPIN     0020600RD178 LA COUR NEUVE 0050460A83_48-EX-2         0030600002860000000440500700100000000000187      065690 1007    057378   061179   061876   068386   065647   070011   072871   071495   068063   066921   061203   062971               140647701 1017    130634191 1037    120628111 1037    110625791 1047    100618091 1047    056902   059375   061065   066259   064167   069146   072564   071665   067713   065948   060528   061533                                      
220001200110015 00120 4110201RD767_Kernilien     0940150Département 29      1230872N12_22 PLOUNERIN    1200040029249000000220001400100000000000294      007332 1547    005736   006508   006414   007823   007620   007668   008666   008642   007303   007667   006673   007185               140072291 1537    130070881 1577    120071691 1617    110071251 1637    100071231 1567    005861   006239   006574   007615   007218   007662   008339   008662   007559   007550   006549   006843                                      
440536900310015 08440 4150201Porte D'orvault     0330800A844                0340700N844_36-PTE ORVAULT 0340400000900000000490003100300000000000595      059759  817    055814   059147   058447   061908   058628   062612   061266   057040   061436   062226   058817   059900               140589181  817    130550521    0    120545631    0    110549271    0    100543991    0    056068   057671   058636   061207   058670   061404   060917   056060   058594   060670   057725   059378                                      
350000100210015 00120 4113001Département Mayenne 0000000RD124               0050947N12_35 FLEURIGNE    0040440005893000000350000100353000120030187      003191 1777    002725   002908   003062   003292   003300   003278   003458   003553   003500   003194   002993   003009               140031461 1787    130030821 1927    120030801 1967    110031051 1837    100030511 1807    002686   002814   002993   003190   003160   003431   003395   003516   003352   003234   002983   002978                                      
440263300210015 08440 4150201non renseigné       0320900non renseigné       0330400N844_35_2           0330250000500000000440002101100000000000315      031580  697    029554   031504   030830   033191   031189   033442   031724   029207   031884   033381   031487   031680               140311341  707    130000001    0    120000001    0    110000001    0    100000001    0    029556   030586   031065   032657   031178   032752   032537   029428   029991   032192   030263   031387                                      
440537000310015 08440 4150201Porte de Sautron    0330400Prte d'Orvault      0330800N844_35_1 SAUTRON   0330700000400000000490003100300000000000495      060220  777    056593   059423   058453   062331   059158   063412   062006   057620   062073   062528   058711   060438               140593661  937    130595971  747    120593901  757    110597521  777    100589571  757    056289   057961   058886   061707   059330   061967   061472   056700   059267   061141   058134   059517                                      
440263400110015 08440 4150201non renseigné       0340960non renseigné       0350310A844_37-36_3        0340960000350000000440002101100000000000315      048773  957    044988   047165   046783   049736   048255   050976   051765   049735   050819   050144   047190   047686               140480801  937    130000001    0    120000001    0    110000001    0    100000001    0    044811   046063   046909   049372   047686   050460   049764   048314   050665   049004   046714   047157                                      
350001711210015 01360 4110201Intersection N157   0000000autre               0010483N136_01-02          0010084001483000000350003700300000000000309      025941 1217    023082   024190   025018   026858   026417   027636   027218   026029   027694   026862   024855   025363               140255641 1227    130251121 1267    120249511 1307    110257281 1397    100251031 1387    023314   024025   023937   026860   025337   027620   026522   025652   027065   026730   024667   025021                                      
440537101310015 08440 4150201VC 203              0310120VC 109              0310935N844_34 PTE CHEZINE 0310600000815000000490003100300000000000695      060627  747    056481   059562   059120   063101   059970   063957   064771   058991   062350   063393   058882   057028               140597431  767    130598461  767    120578211  787    110563991  827    100563091  797    056639   058557   059543   062319   060036   062731   061963   057494   058849   061290   058066   059412                                      
