120000801310015 00880 4113 51RD 224              0420390RD 988              0470000LA ROQUETTE OUEST   04304500047800047801200013003000       0187      000000         003478   001307   000156   010667   002562   008504   009130   003277   003301   000384   001719   003030               140146351         130138181         120000001         110142541         100140291         012314   013034   013486   014862   014626   015647   016554   016235   014958   000000   000000   000000                                      
120000801210015 00880 4113 51RD 224              0420390RD 988              0470000LA ROQUETTE OUEST   04304500047800047801200013003000       0187      000000    7    001502   000645   000154   005421   001310   007091   008460   002074   001693   000212   000888   001517               140074281    7    130072511 1157    120000001         110073481 1167    100073991 1177    006294   006547   006778   007467   007347   007885   008430   008578   007530   000000   000000   000000                                      
120000801110015 00880 4113 51RD 224              0420390RD 988              0470000LA ROQUETTE OUEST   04304500047800047801200013003000       0187      000000         001976   000662   000002   005246   001252   001413   000670   001203   001608   000172   000831   001513               140072061         130065671         120000001         110069061         100066301 117     006020   006487   006708   007395   007279   007762   008124   007657   007428   000000   000000   000000                                      
310508204110015 06200 1110231PONT JUMEAUX 30     0050106PURPAN 29           0060074PONT GARONNE        0050354000966000966320000500300000000000187      000000                                                                                                                                 140607821         130000001         120601661         110628021         100612141                                                                                                                                                        
320000603310015 00210 4813 51FIN 3 VOIES         0650264DEBUT 3 VOIES       0690175COMPTAGE 0006 02    06600000037400037403200006011000       0187      000000                                                                                                                                 140059028 100     130061578         120000008         110000008         100000008                                                                                                                                                        
320000700310015 00210 4813 51RD 104              0720812RD 3                0890612MIRANDE             07505000167280167283200008003000       0187      000000                                                                                                                                 140049348 131     130056428         120000008         110000008         100000008                                                                                                                                                        
320001800310015 01240 4813 51RD 626              0850735RN 524              1030378CARGET              0870000017578017578320001601300000000000187      000000                                                                                                                                 140062168 162     130051508         120000008         110000008         100000008                                                                                                                                                        
400052403310015 05240 4813 51GABARRET            0750000DPT 32              0780311GABARRET SUD        07800000033610033610000000000000000000 0104      000000                                                                                                                                 140027818         130000008         120000008         110000008         100000008                                                                                                                                                        
650000502310015 00210 4813001RD 93               0330100LOURDES             0390152TOULICOU            0330260005985005985650000395300000000000195      000000                                                                                                                                 140199078         130158158         120158698         110173178         100000008                                                                                                                                                        
650000502210015 00210 4813001RD 93               0330100LOURDES             0390152TOULICOU            0330260005985005985650000395300000000000195      000000                                                                                                                                 140095618         130082708         120082988         110000008         100000008                                                                                                                                                        
650000502110015 00210 4813001RD 93               0330100LOURDES             0390152TOULICOU            0330260005985005985650000395300000000000195      000000                                                                                                                                 140103468         130075458         120075718         110000008         100000008                                                                                                                                                        
660090042310015 00200 4822001N116                0290670ESPAGNE             0310918FUTURE BOURG-MADAME 0310650002273002273810000502300000000001287      000000                                                                                                                                 140081581    8    130081021    8    120081541    8    110080821    8    100082141         007651   007802   008104   007841   007358   007716   009277   011984   007733   007130   006881   008303                                      
660090042210015 00200 4822001N116                0290670ESPAGNE             0310918FUTURE BOURG-MADAME 0310650002273002273810000502300000000001287      000000                                                                                                                                 140041171    8    130040781    8    120040761    8    110040411    8    100041311         003869   003938   004057   003960   003695   003888   004657   006050   003832   003608   003408   004383                                      
660090042110015 00200 4822001N116                0290670ESPAGNE             0310918FUTURE BOURG-MADAME 0310650002273002273810000502300000000001287      000000                                                                                                                                 140040411    8    130040241    8    120040781    8    110040411    8    100040831         003782   003864   004047   003881   003663   003828   004620   005934   003901   003522   003473   003920                                      
660003100310015 01160 4113001D 118               0780535D10                 0810060MONT-LOUIS / N116   0790100002491002491810000502300000000001287      000000                                                                                                                                 140042911    7    130041881    7    120042601    7    110042961    7    100043431         003569   003848   004243   003545   003574   004220   005581   007605   004573   003909   003174   003552                                      
660003100210015 01160 4113001D 118               0780535D 10                0810060MONT LOUIS          0790100002491002491810000502300000000000399      000000                                                                                                                                 140021561    7    130020951    7    120021421    7    110021591    7    100021801         001813   001924   002143   001781   001799   002134   002780   003825   002297   001957   001605   001762                                      
660003100110015 01160 4113001D 118               0780535D 10                0810060MONT LOUIS          0790100002491002491810000502300000000000399      000000                                                                                                                                 140021351    7    130020931    7    120021181    7    110021371    7    100021631         001756   001924   002100   001764   001775   002086   002801   003780   002276   001952   001569   001790                                      
310508200310015 06200 1110231PONT JUMEAUX 30     0050106PURPAN 29           0060074PONT GARONNE        0050354000966000966320000500300000000000187      062772                                                                                                                                 141235221         130000001         121227911         111224401         101223951                                                                                                                                                        
310509600110015 06210 1110231ST MICHEL DU TOUCH  0000000LE RITOURET         0030992RITOURET            0020485003990003990320000500300000000000998      042108         038925   050669   052326   042433   035756   039202   038007   031413   040325   039048   046689   051336               140504371    7    130503661    7    120502621    7    110484911    7    100495671    7    050543   051693   050353   052339   048270   051965   050217   042440   051560   054117   050815   051213                                      
310003900310015 01250 4112001RD 44               0230442ESPAGNE             0340110FOS                 03100000106990106993200005003000       0187      003218 1007    002445   003222   003294   003291   003326   003049   003850   004801   003084   002970   002363   002886               140037681 100     130000001         120000001         110000001         100000001                                                                                                                                                        
120001004210015 00880 4113 51RD 84 RD 67         0500000PONT V.C. OLEMPS    0520200SAINT-CLOUD         05000500023230023231200013003000       0187      011100         011906   012144   012797   013305   012736   007191   003881   005965   013652   013736   013033   013048               140127571         130120051    7    120000001         110000001         100000001         011769   012204   012312   013099   012563   013139   013131   012713   013254   013699   012684   012508                                      
660001300110015 01160 4113001RD618 UR            0990150RN116 BOURG MADAME  1000552BOURG-MADAME-NORD   0990657001479001479660002800300000000001291      002047  507    001831   002020   001919   001885   001842   001937   002353   003102   002114   001859   001668   002017               140023511    7    130025591    7    120026401    7    110026371    7    100026331         002188   002342   002376   002361   002246   002428   002834   003513   002243   001928   001778   001954                                      
660001300310015 01160 4113001RD618 UR            0990150RN116 BOURG MADAME  1000552BOURG-MADAME-NORD   0990657001479001479660002800300000000001291      004028  517    003743   003931   003745   003715   003630   003863   004613   005927   004178   003713   003335   003899               140046001    7    130049091    7    120050801    7    110051361    7    100052301         004263   004561   004625   004570   004353   004723   005550   006943   004274   003805   003519   003964                                      
660001300210015 01160 4113001RN116 BOURG MADAME  0990150RD618 UR            1000552BOURG-MADAME-NORD   0990657001479001479660002800300000000001291      001981  517    001912   001911   001826   001830   001788   001926   002260   002825   002064   001854   001667   001882               140022491    7    130023501    7    120024401    7    110024991    7    100025971         002075   002219   002249   002209   002107   002295   002716   003430   002031   001877   001741   002010                                      
650000201110015 00210 4113001RD 934              0020352RD 2                0140940ESCONDEAUX          0100150012603012603650000201300000000000187      003228  658    002987   002947   003223   003392   003336   003421   003234   003354   003289   003253   003094   003188               140034241    8    130033611    8    120034461    8    110039351    8    100036431    8    003176   003320   003485   003453   003417   003450   003795   003608   003447   003551   003238   003130                                      
310507201310015 00640 111 241ECH 34              2720000ECH 35 ASF          2740089MURET NORD          2720800002032002032320000500300000000000199      054734  937    049497   051279   052643   054507   053200   056424   058925   057878   056506   056210   052381   054188               140574721    7    130265181    7    120000001         110000001         100000001         043777   051793   052121   054130   051207   055927   058405   057335   053965   052841   050576   052492                                      
120001004310015 00880 4113 51RD 84 RD 67         0500000PONT V.C. OLEMPS    0520200SAINT-CLOUD         05000500023230023231200013003000       0187      024133  59     023794   024255   025584   026550   025483   020816   017676   018803   027272   027250   026080   026185               140253231         130240311    7    120000001         110000001         100000001         023571   024469   024312   026084   024860   026108   025387   024942   026440   027283   025404   025035                                      
650000390110015 00210 4843001AUREILHAN EB 10     0170815GIRATOIRE SEMEAC    0200160AUREILHAN VILLE     0180100002494002494650000392300000000000187      005440  63                                                                                                                             140056608         130055828         120058558         110000008         100000008                                                                                                                                                        
660090362210015 00220 4112001PAS DE LA CASE      0050050GIRATOIRE/EASE      0050734PAS_MERE            0050200000684000684810000502300000000000205      003639  29                                                                                                                             140037811         130000001         120037591         110000001         100035361                                                                                                                                                        
120000700210015 00880 4113 51RD 28               0240290RD 224              0420390GAGES               03604000181510181511200013003000       0187      004985  608    004141   004259   004469   005058   005148   005123   005672   006033   005199   005211   004636   004802               140051581 1218    130050291 1168    120051711         110050811 1307    100049951 1238    004261   004450   004601   005079   005152   005366   005920   007030   005370   005236   004638   004715                                      
660001100210015 03200 4113001RN 22               0030124RN 20 TUNNEL PUYM-660131066PORTE PUYMORENS     0030160010807010807660002800300000000001191      001263  637    000857   000636   001203   001108   001240   001134   001836   002597   001483   001233   000742   001005               140013021    7    130011991    7    120009571    7    110009361    7    100008391         000779   000878   000948   000989   001417   001360   001795   002665   001802   001236   000850   000860                                      
650000390310015 00210 4843001AUREILHAN EB 10     0170815GIRATOIRE SEMEAC    0200160AUREILHAN VILLE     0180100002494002494650000392300000000000187      010444  67                                                                                                                             140106978         130108458         120113758         110000008         100000008                                                                                                                                                        
320000200210015 00210 4113 51LECTOURE NORD       0100760FLEURANCE EB 10     0220960SAINT GENY          01708500114410114413200005003000       0187      003056  898    002748   002770   003009   003101   002978   003271   003254   003305   003244   003107   002963   002906               140031251 1398    130031141    8    120031541    8    110031981    8    100032061    8    002827   002986   003000   003192   002998   003228   003439   003453   003271   003274   002935   002886                                      
320000200310015 00210 4113 51LECTOURE NORD       0100760FLEURANCE EB 10     0220960SAINT GENY          01708500114410114413200005003000       0187      006146  918    005513   005599   006053   006244   005982   006565   006564   006596   006507   006247   005973   005884               140062751 1188    130062461    8    120068241    8    110064321 1248    100064601    8    005641   005988   005999   006394   006036   006472   006920   006870   006545   006658   005909   005844                                      
320000200110015 00210 4113 51LECTOURE NORD       0100760FLEURANCE EB 10     0220960SAINT GENY          01708500114410114413200005003000       0187      003090  928    002765   002829   003044   003143   003004   003294   003310   003291   003263   003140   003010   002978               140031501    8    130031321    8    120036701 1118    110032341    8    100032541    8    002814   003002   002999   003202   003038   003244   003481   003417   003274   003384   002974   002958                                      
660090362310015 00220 4112001GIRATOIRE/ENVALIRA  0050050PAS DE LA CASE      0050734PAS_MERE            0050200000684000684810000502300000000000205      007325  287    002990   003019   003218   003368   003682   003525   005360   005385   003613   003773   002634   003553               140074661    7    130034741    7    120075521    7    110000001    7    100071271         002940   002990   003287   003355   003602   003640   005352   005390   003605   003761   003295   002907                                      
660001000110015 03200 4113001DPT 09              0000000RN 22               0030124PORTE PUYMORENS     0030080003090003090660002800300000000001191      003155  397    001967   001968   001853   003158   003522   003224   004322   005417   003517   003539   002397   002857               140032141    7    130029771    7    120031051    7    110031981    7    100029291         001750   002387   002767   002910   003502   003226   004314   005508   003439   003433   002894   002351                                      
090001001110015 00200 411 251RD 117              0430500RD 8                0540498ARIGNAC             05107460110780110780900010013000       0187      007219  618    006043   006742   006562   007267   007138   007550   008613   008932   007377   007307   006180   006853               140073471    8    130071011    8    120073041    8    110073231    8    100072271    8    005923   006813   007099   006861   007202   007598   008808   009544   007524   007596   006535   006583                                      
090001400110015 00200 4113 51RD 322              0880240RN 22               0970737MERENS              08904330094920094920900014003000       0187      003388  448    002231   002684   002712   003357   003420   003233   004392   005484   003570   003535   002582   003366               140034481    8    130032751    8    120035401    8    110036131    8    100033791    8    002214   002867   003264   003120   003524   003396   004439   005655   003576   003511   003044   002684                                      
090001400310015 00200 4113 51RD 322              0880240RN 22               0970737MERENS              08904330094920094920900014003000       0187      006805  468    004589   005239   005501   006731   006904   006475   008725   011131   007218   007164   005269   006523               140069251    8    130065601    8    120070901    8    110072141    8    100067631    8    004584   005618   006479   006306   007186   006891   008859   011467   007295   007109   005971   005169                                      
090001400210015 00200 4113 51RD 322              0880240RN 22               0970737MERENS              08904330094920094920900014003000       0187      003417  478    002358   002555   002789   003374   003484   003242   004333   005647   003648   003629   002687   003157               140034771    8    130032851    8    120035501    8    110036011    8    100033841    8    002370   002751   003215   003186   003662   003495   004420   005812   003719   003598   002927   002485                                      
660001000310015 03200 4113001DPT 09              0000000RN 22               0030124PORTE PUYMORENS     0030080003090003090660002800300000000001191      006357  367    003959   003857   003735   006336   007092   006459   008587   011124   007203   007141   004872   005658               140064681    7    130059761    7    120062171    7    110064021    7    100058851         003549   004711   005579   005821   006978   006529   008586   011321   006939   006941   005844   004627                                      
660001000210015 03200 4113001DPT 09              0000000RN 22               0030124PORTE PUYMORENS     0030080003090003090660002800300000000001191      003202  357    001992   001889   001882   003178   003570   003235   004265   005707   003686   003602   002475   002801               140032541    7    130029991    7    120031121    7    110032041    7    100029561         001799   002324   002812   002911   003476   003303   004272   005813   003500   003508   002950   002276                                      
090001001310015 00200 411 251RD 117              0430500RD 8                0540498ARIGNAC             05107460110780110780900010013000       0187      014465  588    012359   013721   013413   014492   014565   015062   016912   017864   014683   014568   012388   013436               140146851    8    130141651    8    120145841    8    110147121    8    100143811    8    012057   013646   014541   013675   014298   014973   017246   019450   015037   015128   013196   012820                                      
660090261210015 00220 4112001GIRATOIRE/ENVALIRA  0000000CROISADE            0050050PAS_MERE            0040750005011005011810000502300000000000205      003650  177    002605   002315   002946   003666   003888   003545   004727   006262   003909   003809   002454   003513               140037051    7    130034501    7    120037351    7    110038051    7    100035351         002349   002848   003371   003435   003797   003637   004754   006385   003972   003794   003241   002778                                      
660090261310015 00220 4112001CROISADE            0000000GIRATOIRE / ENVALIRA0050050PAS_MERE            0040750005011005011810000502300000000000205      007318  197    005178   004726   005870   007311   007753   007078   009487   012535   007833   007619   004909   007195               140074271    7    130069161    7    120074671    7    110076151    7    100070501         004651   005763   006735   006876   007595   007246   009562   012793   007945   007588   006487   005687                                      
660090261110015 00220 4112001CROISADE            0000000GIRATOIRE / ENVALIRA0050050PAS_MERE            0040750005011005011810000502300000000000205      003668  237    002573   002411   002924   003645   003865   003533   004760   006273   003924   003810   002455   003682               140037221    7    130034661    7    120037321    7    110038101    7    100035151         002302   002915   003364   003441   003798   003609   004808   006408   003973   003794   003246   002909                                      
650000201310015 00210 4113001RD 934              0020352RD 2                0140940ESCONDEAUX          0100150012603012603650000201300000000000187      006201  718    005775   005674   006148   006258   006140   006465   006390   006239   006552   006480   006130   006133               140062821    8    130062561    8    120063291    8    110065471    8    100057221    8    005825   006075   006166   006306   006185   006460   006617   006384   006482   006658   006103   006104                                      
090001001210015 00200 411 251RD 117              0430500RD 8                0540498ARIGNAC             05107460110780110780900010013000       0187      007246  548    006316   006979   006851   007225   007427   007512   008299   008932   007306   007261   006208   006583               140073381    8    130070641    8    120072801    8    110073891    8    100071541    8    006134   006833   007442   006814   007096   007375   008438   009906   007513   007532   006661   006237                                      
310508003110015 06200 1110231SESQUIERES          0000724LES MINIMES 31      0030626GINESTOUS           0020130002857002857320000500300000000000187      0624809 70                                                                                                                             140632241         130000001         120629061         110625861         100626251                                                                                                                                                        
650000392210015 00210 4150201GIRATOIRE ST FRAI   0210000GIRATOIRE ALSTHOM   0210671CITE MOUYSSET       0210610000671000671650000392300000000000195      007767  477    007772   007540   008199   008038   007515   008257   007417   006789   008092   008051   008040   007514               140078401    7    130079241    7    120083391    7    110085801    7    100085161         007895   008020   008042   008181   007580   008065   007525   006838   007977   008246   008121   007635                                      
310508200210015 06200 1110231PONT JUMEAUX 30     0050106PURPAN 29           0060074PONT GARONNE        0050354000966000966320000500300000000000187      062245t 557    060785   061638   064718   058174   061173   064225   060813   058083   066471   065801   062787   062301               140627401    7    130625321    7    120626251    7    110596381    7    100611811         061366   063696   063371   065116   059982   064834   063716   057063   064510   066586   062038   060872                                      
660002700110015 01160 4113001Echangeur Ille/Têt  0220000D35 PRADES          0420441BOULETERNERE        0270500019996019996660002800300000000001287      007498  498    006460   006956   006857   007164   007299   007779   008911   009102   008061   007461   006733   007136               140075561    8    130074461    8    120073401    8    110074051    8    100074211         006483   006993   007197   007114   007302   007884   008925   009773   008008   007535   006632   006755                                      
650000392310015 00210 4150201GIRATOIRE ST FRAI   0210000GIRATOIRE ALSTHOM   0210671CITE MOUYSSET       0210610000671000671650000392300000000000195      016025  487    015897   015479   016903   016498   015438   017014   015419   014175   016767   016777   016455   015510               140161471    7    130162561    7    120170481    7    110174221    7    100173511    1    016177   016484   016523   016850   015656   016683   015566   014169   016505   016995   016545   015700                                      
310508003310015 06200 1110231SESQUIERES          0000724LES MINIMES 31      0030626GINESTOUS           0020130002857002857320000500300000000000187      125447  63                                                                                                                             141263071         130000001         121257861         111253631         101245281                                                                                                                                                        
650000390210015 00210 4843001AUREILHAN EB 10     0170815GIRATOIRE SEMEAC    0200160AUREILHAN VILLE     0180100002494002494650000392300000000000187      005004  71                                                                                                                             140050378         130052638         120055208         110000008         100000008                                                                                                                                                        
320000500110015 00210 4113 51RD 172              0360397AUCH EB 10          0460900ROUTE D'AGEN        04504500105290105293200016013000       0187      005040         004725   004819   005111   005147   004878   005268   005049   004850   005329   005270   004973   005060               140050721         130049151         120049951         110051691         100052021         004861   005097   004988   005244   004936   005164   005161   004947   005227   005370   004915   004964                                      
320000800110015 00210 4113 51RD 3                0890612DEPARTEMENT 65      1000408LAGUIAN             08909000102290102293200010003000       0187      002319 1107    002043   002038   002218   002296   002311   002480   002625   002658   002426   002352   002200   002159               140023331 1107    130023471 1107    120023701 1127    110023801 1147    100023831 1187    002062   002192   002230   002316   002264   002431   002516   002578   002544   002466   002220   002168                                      
650000392110015 00210 4150201GIRATOIRE ST FRAI   0210000GIRATOIRE ALSTHOM   0210671CITE MOUYSSET       0210610000671000671650000392300000000000195      008258  507    008125   007939   008704   008460   007923   008757   008002   007386   008675   008726   008415   007996               140083071    7    130083321    7    120087091    7    110088421    7    100088351         008282   008464   008481   008669   008076   008618   008041   007331   008528   008749   008424   008065                                      
650000395210015 00210 4150201GIRATOIRE BAGNERES  0221105GITATOIRE HOSPITAL  0230635DEBUSSY             0221500001104001104650000395300000000000195      012693  547    012606   012249   013479   013021   012050   013189   012209   011313   013224   013100   012828   013053               140127651    7    130129961    7    120129311    7    110131401    7    100128681         012837   013164   013179   013273   012245   013135   012685   011387   012842   013171   012604   012717                                      
660002700310015 01160 4113001Echangeur Ille/Têt  0220000D35 PRADES          0420441BOULETERNERE        0270500019996019996660002800300000000001287      015006  498    013148   014005   013831   014367   014624   015531   017751   018277   016119   014898   013460   013950               140150881    8    130148711    8    120146571    8    110147971    8    100148251         013170   013929   014490   014165   014569   015741   017722   019664   015973   014961   013279   013248                                      
320000800310015 00210 4113 51RD 3                0890612DEPARTEMENT 65      1000408LAGUIAN             08909000102290102293200010003000       0187      004594 1127    004067   004041   004424   004583   004609   004846   005067   005164   004851   004729   004415   004293               140046191 1137    130046431 1127    120046751 1137    110047361 1117    100047571 1157    004124   004331   004441   004613   004511   004788   004991   005079   004956   004891   004416   004264                                      
320000800210015 00210 4113 51RD 3                0890612DEPARTEMENT 65      1000408LAGUIAN             08909000102290102293200010003000       0187      002275 1127    002024   002003   002206   002287   002298   002366   002442   002506   002425   002377   002215   002134               140022861 1157    130022961 1147    120023051 1137    110023561 1107    100023741 1147    002062   002139   002211   002297   002247   002357   002475   002501   002412   002425   002196   002096                                      
320000500310015 00210 4113 51RD 172              0360397AUCH EB 10          0460900ROUTE D'AGEN        04504500105290105293200016013000       0187      010038         009457   009589   010174   010236   009713   010496   010025   009694   010628   010510   009910   010016               140100861         130097831         120098241         110103221         100103791         009704   010141   009959   010428   009800   010295   010180   009820   010436   010708   009775   009809                                      
320000500210015 00210 4113 51RD 172              0360397AUCH EB 10          0460900ROUTE D'AGEN        04504500105290105293200016013000       0187      004998         004732   004770   005063   005089   004835   005228   004976   004844   005299   005240   004937   004956               140050141         130048681         120048291         110051531         100051771         004843   005044   004971   005184   004864   005131   005019   004873   005209   005338   004860   004845                                      
660002700210015 01160 4113001Echangeur Ille/Têt  0220000D35 PRADES          0420441BOULETERNERE        0270500019996019996660002800300000000001287      007508  498    006688   007049   006974   007203   007325   007752   008840   009175   008058   007437   006727   006814               140075321    8    130074251    8    120073171    8    110073921    8    100074041         006687   006936   007293   007051   007267   007857   008797   009891   007965   007426   006647   006493                                      
310508003210015 06200 1110231SESQUIERES          0000580LES MINIMES 31      0030626GINESTOUS           0020130002857002857320000500300000000000187      0629675 56                                                                                                                             140630831         130000001         120628801         110627771         100619031                                                                                                                                                        
310509200310015 06230 1114031PALAYS              0000000CNES                0000415A623                0000250000415000415320000500300000000000187      027896  387    029654   028973   030153   028175   026209   028645   025273   020902   028698   029886   029404   028996               140279061    7    130000001         120000001         110407261         100410201         028927   030394   028123   028959   025099   028081   025829   021150   029526   029462   030189   029531                                      
650000395310015 00210 4150201GIRATOIRE BAGNERES  0221105GITATOIRE HOSPITAL  0230635DEBUSSY             0221500001104001104650000395300000000000195      025113  607    024861   024224   026372   025633   023834   026046   024279   022604   026232   026026   025357   025896               140251141    7    130254021    7    120254881    7    110259381    7    100259101         025041   025863   025967   026116   024145   025610   024933   022694   025340   025983   024744   025041                                      
660090362110015 00220 4112001GIRATOIRE/ENVALIRA  0050050PAS DE LA CASE      0050734PAS_MERE            0050200000684000684810000502300000000000205      003686  28                                                                                                                             140036851         130000001         120037931         110000001         100035911                                                                                                                                                        
660002800110015 01160 4113001D 35(N9116)         0420441D116 VILLEFRANCHE   0480311RIA                 0450250006469006469660002800300000000000390      005034         004118   004796   004348   004591   004749   005071   006321   007282   005445   004928   004081   004627               140050231         130049351         120049151         110049291         100049641         004085   004475   004799   004463   004656   005117   006325   007456   005451   004990   004032   004336                                      
090001100210015 00200 4113 51RD 8                0540498RD 102              0710104LES CABANNES        06204200169260169260900010013000       0187      004649  557    003773   004321   004153   004359   004645   004402   005548   006844   004823   004805   003778   004272               140046371    7    130044511    7    120045451    7    110046231    7    100045351    7    003617   004205   004852   004187   004443   004523   005631   007001   004729   004674   004042   003666                                      
660002800310015 01160 4113001D 35(N9116)         0420441D116 VILLEFRANCHE   0480311RIA                 0450250006469006469660002800300000000000390      010097         008457   009650   008828   009201   009529   010134   012561   014737   010958   009867   008205   008934               140100701         130099021         120098681         110098871         100099941         008396   008967   009721   008930   009313   010272   012589   015076   010954   009962   008112   008370                                      
310508106110015 06200 1110231ES MINIMES 31       0030626PONT JUMEAUX 30     0050106PONT JUMEAUX        0040432001464001464320000500300000000000187      049682  557    049277   048401   049878   050388   047526   052503   049885   046038   052228   052030   049475   048619               140495351    7    130489081    7    120497841         110508191         100507181         046918   049407   049338   050199   047018   052572   051185   043503   050928   051815   049906   051792                                      
660002800210015 01160 4113001D 35(N9116)         0420441D116 VILLEFRANCHE   0480311RIA                 0450250006469006469660002800300000000000390      005063         004339   004854   004480   004610   004780   005063   006240   007455   005513   004939   004124   004307               140050471         130049671         120049531         110049581         100050301         004311   004492   004922   004467   004657   005155   006264   007620   005503   004972   004080   004034                                      
310508502110015 06200 1110231LA FAOURETTE        0090542BORDELONGUE         0110801PT DE SEYSSES       0100604002247002247320000500300000000000187      063358  59                                                                                                                             140631451         130000001         120631121         110630221         100655141                                                                                                                                                        
090001100310015 00200 4113 51RD 8                0540498RD 102              0710104LES CABANNES        06204200169260169260900010013000       0187      009236  547    007378   008815   008253   008771   009274   008879   011339   013555   009611   008410   007495   008951               140091981    7    130089241    7    120091251    7    110092781    7    100090961    7    007069   008647   009661   008379   008966   008998   011368   013798   009432   008252   008057   007634                                      
310508304110015 06200 1110231PURPAN 29           0060074CEPIERE 27          0080497STATION A620        0070789002433002433320000500300000000000187      066947  60                                                                                                                             140665961         130657031         120653801         110656701         100655741                                                                                                                                                        
660002601110015 01160 4110101Echangeur Millas    0141200Echangeur Ille/Têt  0220000MILLAS              0170250007575007575660002800300000000001287      007584  417    006655   007233   006997   007298   007306   007763   008943   009377   007741   007401   006837   007397               140075421    7    130073451    7    120072891    7    110073331    7    100073901         006601   007117   007253   007186   007219   007815   008865   009577   007737   007421   006670   006978                                      
810001600110015 01120 4113051MAZAMET             0250000RD 621              0330300ST PIERRE           0290340009027009027810001600300000000000105      006576 1057    005943   005944   006439   006714   006574   006978   006981   006550   006990   006916   006507   006349               140065391 1047    130065021 1057    120000001         110066601    7    100000001         006049   006294   006330   006700   006395   006950   006839   006574   006924   006874   006329   006206                                      
090001100110015 00200 4113 51RD 8                0540498RD 102              0710104LES CABANNES        06204200169260169260900010013000       0187      004587  547    003605   004494   004100   004412   004629   004477   005791   006711   004788   003605   003717   004679               140045611    7    130044731    7    120045801    7    110046551    7    100045611    7    003452   004442   004809   004192   004523   004475   005737   006797   004703   003578   004015   003968                                      
650000395110015 00210 4150201GIRATOIRE BAGNERES  0221105GITATOIRE HOSPITAL  0230635DEBUSSY             0221500001104001104650000395300000000000195      012420  717    012255   011975   012893   012612   011784   012857   012070   011291   013008   012926   012529   012843               140123491    7    130124061    7    120125571    7    110127981    7    100130421         012204   012699   012788   012843   011900   012475   012248   011307   012498   012812   012140   012324                                      
810001600310015 01120 4113 51MAZAMET             0250000RD 621              0330300ST PIERRE           02903400090270090278100016003          0105      013110  967    011815   011831   012810   013411   013104   013929   014005   013054   013898   013805   012930   012665               140130201    7    130129341    7    120000001         110132431    7    100000001         012013   012518   012596   013374   012807   013797   013675   013125   013741   013713   012521   012351                                      
310508106310015 06200 1110231ES MINIMES 31       0030626PONT JUMEAUX 30     0050106PONT JUMEAUX        0040432001464001464320000500300000000000187      101137  57                                                                                                                             141004181         130000001         121003161         111017501         101015421                                                                                                                                                        
660003200210015 01160 4113001D 10                0810060BOURG-MADAME        0990150HIX                 0980300017935017935810000502300000000001287      002105  498    001901   002017   001811   001886   001846   002132   002528   003638   002103   001864   001474   002034               140020901    8    130020711    8    120021141    8    110021781    8    100021721         001789   001879   001935   001857   001742   001973   002516   003717   002125   001839   001617   002042                                      
090000801110015 00200 4113251FOIX NORD           0350000FOIX SUD            0400000FOIX                03903400047820047820900010013000       0102      008067  557    006891   007808   007609   007914   007906   008104   009155   009551   008094   008155   007217   008351               140080081    7    130076391    7    120077751    7    110078891    7    100075721    7    006801   007865   008230   007562   007722   008466   008825   009414   007876   008269   007372   007658                                      
660002601310015 01160 4110101Echangeur Millas    0141200Echangeur Ille/Têt  0220000MILLAS              0170250007575007575660002800300000000001287      015291  417    013578   014569   014164   014662   014696   015524   017833   019164   015811   014986   013841   014548               140151791    7    130146011    7    120144711    7    110143361    7    100148641         013481   014250   014685   014431   014516   015721   017666   019419   015674   014972   013448   013744                                      
660001100310015 03200 4113001RN 22               0030124RN 20 TUNNEL PUYM-660131066PORTE PUYMORENS     0030160010807010807660002800300000000001193      002586  617    001767   001288   002437   002270   002483   002404   003795   005344   003003   002483   001501   002095               140025661    7    130024381    7    120019721    7    110019351    7    100017321         001590   001772   001928   001999   002560   002620   003731   005508   003067   002473   001709   001737                                      
660001101110015 00200 4113001RN 320 TUNNEL PUYMOR0140000UR RD 618           0290670PORTA               0170550015686015686660002800300000000001093      001767  738    001716   001942   001761   001487   001390   001470   002162   003018   001644   001386   001235   001975               140017531    8    130016721    8    120017841    8    110017341    8    100017391         001496   001794   001957   001489   001414   001593   002313   003040   001668   001418   001160   001657                                      
810001600210015 01120 4113051MAZAMET             0250000RD 621              0330300ST PIERRE           0290340009027009027810001600300000000000105      006534  917    005872   005887   006371   006697   006530   006951   007024   006504   006908   006889   006423   006316               140064811    7    130064321    7    120000001         110065831    7    100000001         005964   006224   006266   006674   006412   006847   006836   006551   006817   006839   006192   006145                                      
090000801310015 00200 4113251FOIX NORD           0350000FOIX SUD            0400000FOIX                03903400047820047820900010013000       0102      016088  627    014039   015626   015220   015710   015819   016123   018021   019306   016199   016194   014545   016155               140159571    7    130152151    7    120154871    7    110157751    7    100150941    7    013615   015504   016481   014992   015294   017142   017318   019000   015781   016516   014829   014931                                      
090001200210015 00200 4113 51RD 102              0710104RD 613              0790614PERLES CASTELET     07309000086570086570900010013000       0187      004879  397    004058   004743   004470   004530   004714   004577   005748   007314   005001   004890   003870   004571               140048381    7    130046311    7    120047071    7    110047561    7    100046431    7    003921   004629   005193   004271   004552   004614   005679   007301   004905   004827   004202   003902                                      
660001101310015 00200 4113001RN 320 TUNNEL PUYMOR0140000UR RD 618           0290670PORTA               0170550015686015686660002800300000000001093      003511  758    003510   003827   003547   002901   002758   002901   004226   006073   003295   002761   002438   003848               140034811    8    130033151    8    120035101    8    110034511    8    100034351         003069   003519   003929   002920   002799   003166   004494   006126   003341   002854   002277   003208                                      
320000903210015 01240 411 251FIN DEV .PUJAUDRAN  0050800RD 654              0130143PUJAUDRAN           0060165006290006290320001000300000000000191      011640  608    011403   011386   011431   011542   011324   012261   012095   011386   012071   012196   011411   011176               140115371    8    130118801    8    120114641    8    110114931    8    100111791    8    011861   012015   011176   011493   010936   011616   011278   011123   011852   011833   011310   012008                                      
090000801210015 00200 4113251FOIX NORD           0350000FOIX SUD            0400000FOIX                03903400047820047820900010013000       0102      008021  667    007148   007818   007611   007796   007913   008019   008866   009755   008105   008039   007328   007804               140079491    7    130075761    7    120077121    7    110078861    7    100075221    7    006814   007639   008251   007430   007572   008676   008493   009586   007905   008247   007457   007273                                      
660002601210015 01160 4110101Echangeur Millas    0141200Echangeur Ille/Têt  0220000MILLAS              0170250007575007575660002800300000000001287      007707  407    006923   007336   007167   007364   007390   007761   008890   009787   008070   007585   007004   007151               140076371    7    130072561    7    120071821    7    110070031    7    100074741         006880   007133   007432   007245   007297   007906   008801   009842   007937   007551   006778   006766                                      
660001101210015 00200 4113001UR RD 618           0140000RN 320 TUNNEL PUYMOR0290670PORTA               0170550015686015686660002800300000000001093      001744  778    001794   001885   001786   001414   001368   001431   002064   003055   001651   001375   001203   001873               140017281    8    130016431    8    120017261    8    110017171    8    100016961         001573   001725   001972   001431   001385   001573   002181   003086   001673   001436   001117   001551                                      
120001002310015 00880 4113 51RD 901              0480095RN 140              0480660LES MOUTIERS OUEST  04801490005650005651200013003000       0187      034503         014178   014546   015275   015853   015242   016367   016128   015667   016298   016091   015197   015615               140341821         130347691         120000001         110000001         100332371         014394   014929   015008   016107   015297   016089   016292   015843   016256   015769   013700   012936                                      
090001200310015 00200 4113 51RD 102              0710104RD 613              0790614PERLES CASTELET     07309000086570086570900010013000       0187      009768  397    007906   009438   008838   009083   009431   009206   011715   014383   009986   009832   007732   009533               140096761    7    130092781    7    120094231    7    110095441    7    100093071    7    007639   009374   010212   008602   009164   009211   011581   014350   009780   009672   008359   008053                                      
310502103210015 06240 111 231BAYLAC 1            0000520ST MARTIN DU TOUCH  0010500BAYLAC              0001184001163001163320000500300000000000194      055577  51                                                                                                                             140550361         130000001         120545811         110548551         100536461                                                                                                                                                        
310508500310015 06200 1110231LA FAOURETTE        0090542BORDELONGUE         0110801PT DE SEYSSES       0100604002247002247320000500300000000000187      132487  54                                                                                                                             141311771         130000001         121307171         111303761         101287231                                                                                                                                                        
090001200110015 00200 4113 51RD 102              0710104RD 613              0790614PERLES CASTELET     07309000086570086570900010013000       0187      004889  397    003848   004695   004368   004553   004717   004629   005967   007069   004985   004942   003862   004962               140048381    7    130046471    7    120047161    7    110047881    7    100046641    7    003718   004745   005019   004331   004612   004597   005902   007049   004875   004845   004157   004151                                      
310508700110015 06200 1110231LANGLADE 25         0110801EMPALOT 24          0130601EMPALOT             0120660001836001836320000500300000000000187      070607  367    068710   068757   072695   072087   068292   074440   069348   064892   073077   073920   071382   069775               140698511    7    130000001         120654431    7    110664981    7    100713471    7    068927   072139   069643   071987   066950   071556   070154   062914   072664   073498   069385   068811                                      
310508300310015 06200 1110231PURPAN 29           0060074CEPIERE 27          0080497STATION A620        0070789002433002433320000500300000000000187      137966  55                                                                                                                             141364481         131357061         121353511         111356011         101343801                                                                                                                                                        
310508106210015 06200 1110231ES MINIMES 31       0030626PONT JUMEAUX 30     0050106PONT JUMEAUX        0040432001464001464320000500300000000000187      051455  59                                                                                                                             140508831         130000001         120505321         110509311         100508241                                                                                                                                                        
310508700310015 06200 1110231LANGLADE 25         0110801EMPALOT 24          0130601EMPALOT             0120660001836001836320000500300000000000187      137376  317    132988   133718   141313   140393   132721   145034   135555   125336   142961   144006   138863   135841               141357081    7    130000001         121220791    7    111331041    7    101236771    7    133417   139987   135464   140175   129854   137714   136852   121628   142073   143502   134714   133913                                      
310502002110015 06240 111 231PURPAN              0000000BAYLAC 1            0000520PURPAN A624         0000351000520000520320000500300000000000194      049642  46                                                                                                                             140490311         130000001         120485041         110498261         100495081                                                                                                                                                        
120001003210015 00880 4113 51RN 140              0480660RD 84 RD 67         0500000SAINT-CLOUD         04909500015620015621200013003000       0187      011949  777    010994   011099   011737   012135   011829   012520   012310   011798   012493   012437   011897   012096               140117951         130115421    7    120000001         110000001         100000001         010934   011361   011412   012195   011479   012108   012146   011754   012246   012560   011668   011665                                      
310502203210015 06240 111 231ST MARTIN DU TOUCH  0010500LA CRABE            0030900CRABE EST           0020252002400002400320000500300000000000194      064012  55                                                                                                                             140631701         130000001         120615641         110611641         100598431                                                                                                                                                        
310508900110015 06200 1110231RANGUEIL 23         0140000DEMOISELLES 21      0150880RANGUEIL-DEMOIS     0140536001873001873320000500300000000000187      052672  48                                                                                                                             140519721         130000001         120510601         110506111         100498691                                                                                                                                                        
310502000310015 06240 111 231PURPAN              0000000BAYLAC 1            0000520PURPAN A624         0000351000520000520320000500300000000000194      107870  43                                                                                                                             141064131         130000001         121053911         111066331         101061381                                                                                                                                                        
310509100110015 06200 1110231LESPINET 20         0160048PALAYS A61          0170777LESPINET            0160285001730001730320000500300000000000187      050415  507    049007   049131   051569   052001   049815   052968   052651   046878   048719   050373   051226   050619               140497321         130488771    7    120492181    7    110488841    7    100491401    7    048707   050867   047969   050255   047184   049779   051569   046618   052206   052680   049457   049691                                      
310508700210015 06200 1110231LANGLADE 25         0110801EMPALOT 24          0130601EMPALOT             0120660001836001836320000500300000000000187      066769  297    064278   064961   068618   068306   064429   070594   066207   060444   069884   070086   067481   066066               140658571    7    130000001         120566361    7    110666061    7    100523301    7    064490   067848   065821   068188   062904   066158   066698   058714   069409   070004   065329   065102                                      
310502200310015 06240 111 231ST MARTIN DU TOUCH  0010500LA CRABE            0030900CRABE EST           0020252002400002400320000500300000000000194      129689  54                                                                                                                             141278421         130000001         121250371         111239341         101221671                                                                                                                                                        
310502002210015 06240 111 231PURPAN              0000000BAYLAC 1            0000520PURPAN A624         0000351000520000520320000500300000000000194      058228  42                                                                                                                             140573821         130000001         120568871    7    110568071    7    100566301                                                                                                                                                        
310509000110015 06200 1110231DEMOISELLES 21      0150880LESPINET 20         0160048DEMOISELLES         0160000000172000172320000500300000000000187      052660  547    050267   050854   053195   053738   051191   054722   053975   049803   054856   055499   052934   050889               140518661    7    130519091    7    120509181    7    110505641    7    100533021    7    050748   052884   051251   053009   049907   053343   053305   047915   053852   054548   050973   050880                                      
400052402310015 05240 4113 51RD 933              0650000GABARRET            0750000LAPEYRADE           06408000101810101810000000000000000000 0104      000987 139                                                                                                                             140009721 131     130000001         120009691 139     110010171         100010511 144                                                                                                                                                    
660002500110015 01160 4110101Echangeur RD 16     0110650Echangeur Millas    0141200SAINT FELIU         0130540003451003451660002800300000000000101      010311  427    009197   009794   009733   010010   009917   010645   011716   012090   010797   010241   009597   009934               140101541    7    130098951    7    120097391    7    110098201    7    100096371         009084   009687   009793   009824   009776   010475   011544   011946   010584   010258   009228   009585                                      
310502203110015 06240 111 231ST MARTIN DU TOUCH  0010500LA CRABE            0030900CRABE EST           0020252002400002400320000500300000000000194      065677  54                                                                                                                             140646721         130000001         120634731         110627701         100623241                                                                                                                                                        
660002500310015 01160 4110101Echangeur RD 16     0110650Echangeur Millas    0141200SAINT FELIU         0130540003451003451660002800300000000000101      020652  397    018645   019660   019589   020054   019876   021279   023322   024285   021632   020509   019232   019630               140203351    7    130198021    7    120195141    7    110196321    7    100192981         018396   019375   019732   019665   019577   021006   023004   024043   021207   020483   018513   018890                                      
120001003310015 00880 4113 51RN 140              0480660RD 84 RD 67         0500000SAINT-CLOUD         04909500015620015621200013003000000000 0187      022946  727    021055   021366   022632   023358   022611   023966   023940   022712   023899   023756   022801   023180               140225911         130221281    7    120000001         110000001         100000001         020887   021734   021916   023433   022110   023181   023236   022537   023370   023942   022381   022343                                      
660002500210015 01160 4110101Echangeur RD 16     0110650Echangeur Millas    0141200SAINT FELIU         0130540003451003451660002800300000000000101      010341  377    009448   009866   009856   010044   009959   010634   011606   012195   010835   010268   009635   009696               140101811    7    130099071    7    120097751    7    110098121    7    100096611         009312   009688   009939   009841   009801   010531   011460   012097   010623   010225   009285   009305                                      
330093201310015 05240 4843 51RD 3  BAZAS         0120790RD 932 CAPTIEUX     0320000CAPTIEUX NORD       03002000188190188190000000000000       0397      003516  90                                                                                                                             140034618         130000008         120000008         110000008         100067488 184                                                                                                                                                    
310508500210015 06200 1110231LA FAOURETTE        0090542BORDELONGUE         0110801PT DE SEYSSES       0100604002247002247320000500300000000000187      069129  517    066488   067470   070254   069740   067109   073361   068134   063334   072941   073163   069053   068622               140680321    7    130678061    7    120676051    7    110673541    7    100662091         066502   069371   068567   070152   065218   070037   068307   060537   071093   072753   067238   066941                                      
660003200310015 01160 4113001D 10                0810060BOURG-MADAME        0990150HIX                 0980300017935017935810000502300000000001287      004218  488    003812   004045   003629   003768   003688   004213   005085   007325   004217   003748   002986   004036               140041491    8    130040991    8    120041811    8    110044301    8    100043021         003599   003750   003874   003673   003461   003904   004974   007367   004226   003670   003197   004004                                      
310508303210015 06200 1110231PURPAN 29           0060074CEPIERE 27          0080497STATION A620        0070789002433002433320000500300000000000187      071019  51                                                                                                                             140698521         130700031         120699711         110699311         100688061                                                                                                                                                        
320000903310015 01240 411 251FIN DEV .PUJAUDRAN  0050800RD 654              0130143PUJAUDRAN           0060165006290006290320001000300000000000191      023132  658    021864   022045   022788   023243   022825   024617   024430   022619   024130   024405   022392   022189               140227501    8    130229831    8    120222671    8    110220551    8    100213601    8    022351   023039   021997   023079   021861   022950   022462   022168   023618   023823   022555   023166                                      
120001003110015 00880 4113 51RN 140              0480660RD 84 RD 67         0500000SAINT-CLOUD         04909500015620015621200013003000       0187      010997  677    010061   010267   010895   011223   010782   011446   011630   010914   011406   011319   010904   011084               140107961         130105861    7    120000001         110000001         100000001         009953   010373   010504   011238   010631   011073   011090   010783   011124   011382   010713   010678                                      
090000901110015 00200 411 251FOIX SUD            0400000RD 117              0430500MONTGAILLARD        04106240035000035000900010013000       0102      009911  558    008513   009459   009160   009792   009609   010034   011321   011977   010150   010093   008842   009907               140097241    8    130094171    8    120096101    8    110096891    8    100094421    8    008213   009431   009588   009377   009565   009554   011049   011906   009980   010102   008901   008965                                      
310508402210015 06200 1110231CEPIERE 27          0080497LA FAOURETTE        0090542FAOURETTE           0090100001056001056320000500300000000000187      072397  51                                                                                                                             140710141         130000001         120705751         110696911         100682991                                                                                                                                                        
090000901310015 00200 411 251FOIX SUD            0400000RD 117              0430500MONTGAILLARD        04106240035000035000900010013000       0102      019911  598    017251   018774   018478   019591   019525   020153   022573   024422   020479   020247   017839   019429               140195181    8    130188741    8    120192371    8    110193801    8    100189851    8    016782   018758   019642   018758   019112   019326   021849   024109   020045   020115   017947   017647                                      
310508900310015 06200 1110231RANGUEIL 23         0140000DEMOISELLES 21      0150880RANGUEIL-DEMOIS     0140536001873001873320000500300000000000187      102205  48                                                                                                                             141001711         130000001         120992471         110987201         100973401                                                                                                                                                        
090000901210015 00200 411 251FOIX SUD            0400000RD 117              0430500MONTGAILLARD        04106240035000035000900010013000       0102      010000  628    008738   009315   009318   009799   009916   010119   011252   012445   010329   010154   008997   009522               140097941    8    130094571    8    120096271    8    110096911    8    100095431    8    008569   009327   010054   009381   009547   009772   010800   012203   010065   010013   009046   008682                                      
310508800110015 06200 1110231EMPALOT 24          0130601RANGUEIL 23         0140000RANGUEIL            0130888000363000363320000500300000000000187      046454  467    044111   044547   046426   046991   044822   049449   047869   044678   047928   048720   046239   045637               140454901    7    130456081    7    120448221    7    110580281    7    100439661    7    043659   046145   044834   046361   043816   046743   047325   042984   047191   047850   044492   044639                                      
310508400310015 06200 1110231CEPIERE 27          0080497LA FAOURETTE        0090542FAOURETTE           0090100001056001056320000500300000000000187      136759  53                                                                                                                             141339201         130000001         121347321         111334561         101309511                                                                                                                                                        
310506200310015 00640 111 241ECH 23              2390200ECH 24              2430000LAVELANET de COMMIN.2420000003800003800320000500300000000000199      034158 109                                                                                                                             140334331 113     130000001         120000001         110345751 105     100344951                                                                                                                                                        
310508402110015 06200 1110231CEPIERE 27          0080497LA FAOURETTE        0090542FAOURETTE           0090100001056001056320000500300000000000187      064362  56                                                                                                                             140629061         130000001         120641571         110637651         100626521                                                                                                                                                        
310509000310015 06200 1110231DEMOISELLES 21      0150880LESPINET 20         0160048DEMOISELLES         0160000000172000172320000500300000000000187      107340  497    101916   103441   108633   109632   104465   110968   110124   101168   111979   113071   108175   104501               141048671    7    131054531    7    121040321    7    111033591    7    101094161    7    102482   107151   104323   107854   100789   103921   107054   096925   110086   110713   103757   103776                                      
310508800310015 06200 1110231EMPALOT 24          0130601RANGUEIL 23         0140000RANGUEIL            0130888000363000363320000500300000000000187      091298  447    086231   087407   091344   092406   088039   096748   094364   087312   094497   095747   091168   090244               140890961    7    130894501    7    120881161    7    111164581    7    100865361    7    085785   090343   088065   091242   085551   090852   092141   083858   093034   093639   087316   087649                                      
320000903110015 01240 411 251FIN DEV .PUJAUDRAN  0050800RD 654              0130143PUJAUDRAN           0060165006290006290320001000300000000000191      011492  718    010461   010659   011357   011701   011501   012356   012335   011233   012059   012209   010981   011013               140112131    8    130111031    8    120108031    8    110105621    8    100101811    8    010490   011024   010821   011586   010925   011334   011184   011045   011766   011990   011245   011158                                      
810002500210015 01260 4113 51RD 84               0330385RD 621              0430090DEV PUYLAURENS      03500100092970092970000000000          0187      004055  917    003726   003763   004062   004133   004000   004260   004086   003729   004267   004369   004160   004097               140039541    7    130038521    7    120000001         110000001         100000001         003650   003860   003848   004033   003866   004095   003969   003771   004132   004248   004030   003952                                      
660003200110015 01160 4113001D 10                0810060BOURG-MADAME        0990150HIX                 0980300017935017935810000502300000000001287      002113  478    001911   002028   001818   001882   001842   002081   002557   003687   002114   001884   001512   002002               140020591    8    130020281    8    120020671    8    110022521    8    100021301         001810   001871   001939   001816   001719   001931   002458   003650   002101   001831   001580   001962                                      
310003800310015 01250 4112 51RD 33 CHAUM         0181637RD 44               0230442CHAUM               01907000048780048783200005003000       0187      003764  657             004052   003864   003768   003709   003438   004185   004741   003538   003477   003083   003665               140036661    7    130036061    7    120039441    7    110043891    7    100047561    7    003342   003732   003430   003130   003622   003531   004354   005003   003596   003525   003186   003505                                      
320001601210015 01240 4113 01GIR . ENDOUMINGUE   0560100GIR. RD 930         0620500DURAN               0610450005388005388320001601300000000000287      005648  967    004911   004967   005297   005664   005909   005905   006206   006261   005919   005821   005420   005438               140054981    7    130053671    7    120052811    7    110054351    7    100056441    7    004867   005109   005084   005503   005324   005937   006005   006102   005832   005683   005298   005210                                      
810002500310015 01260 4113 51RD 84               0330385RD 621              0430090DEV PUYLAURENS      03500100092970092970000000000          0187      008085  917    007429   007468   008064   008261   007947   008496   008198   007502   008483   008734   008223   008194               140078701         130000001         120000001         110000001         100000001         000000   000000   000000   000000   000000   000000   000000   000000   000000   000000   000000   000000                                      
310508900210015 06200 1110231RANGUEIL 23         0140000DEMOISELLES 21      0150880RANGUEIL-DEMOIS     0140536001873001873320000500300000000000187      049533  47                                                                                                                             140481991         130000001         120481871         110481091         100474711                                                                                                                                                        
310508800210015 06200 1110231EMPALOT 24          0130601RANGUEIL 23         0140000RANGUEIL            0130888000363000363320000500300000000000187      044844  437    042120   042860   044918   045415   043217   047299   046495   042634   046569   047027   044929   044607               140436061    7    130438421    7    120432941    7    110584301    7    100425701    7    042126   044198   043231   044881   041735   044109   044816   040874   045843   045789   042824   043010                                      
320001601310015 01240 4113 01GIR . ENDOUMINGUE   0560100GIR. RD 930         0620500DURAN               0610450005388005388320001601300000000000287      011228  967    009754   009895   010547   011301   011680   011779   012491   012243   011689   011608   010733   010902               140109121    7    130106781 1007    120104021 1027    110107461 1007    100107791    7    009672   010210   010103   010982   010593   011738   011983   011844   011487   011343   010500   010450                                      
090000402210015 00200 411 251PAMIERS A 66        0180000RD 119              0210444PAMIERS             01902900034440034440900004023000       0187      011400  567    010429   010985   011173   011281   011159   011632   011934   012186   011728   011841   010961   011451               140110791    7    130107481    7    120107421    7    110107581    7    100104811    7    010245   010850   011749   010975   010514   011251   011379   011784   011265   011497   010760   010660                                      
810002500110015 01260 4113 51RD 84               0330385RD 621              0430090DEV PUYLAURENS      03500100092970092970000000000          0187      004030  927    003703   003705   004002   004128   003947   004236   004112   003773   004216   004365   004063   004097               140039161    7    130038201    7    120000001         110000001         100000001         003620   003831   003788   004001   003876   004029   003944   003668   004060   004265   003966   003948                                      
660002400110015 01160 4110201GIRATOIRE ST CHARLES0000000Echangeur du Soler  0060400PERPIGNAN RN116     0040360003407003407660002800300000000000390      014906  397    013591   014110   014063   014540   014205   015679   017716   016714   015537   014673   013919   014045               140144841    7    130139701    7    120131161    7    110130071    7    100129991         013338   014087   014040   014412   014093   014763   015796   016059   014970   014559   013738   013918                                      
810500200110015 00680 111 231ECH. ST SULPICE     0270190ECH. COUFOULEUX     0330000RIEU D'EN COSTE     0290150005810005810810500300300000000000898      012855  837    011510   011863   012532   013175   012692   013556   013352   012447   013648   013908   012968   012576               140124891    8    130121271    8    120000001         110119511    7    100116971         011329   012020   012063   012778   012196   013130   012652   012142   013054   013595   012553   012364                                      
310507100310015 00640 111 241ECH 32              2640800ECH 33              2690000MURET SUD           2670800004200004200320000500300000000000199      054491  92                                                                                                                             140528811         130000001         120000001         110495261         100000001                                                                                                                                                        
320001601110015 01240 4113 01GIR . ENDOUMINGUE   0560100GIR. RD 930         0620500DURAN               0610450005388005388320001601300000000000287      005580  957    004843   004928   005250   005637   005771   005874   006285   005982   005770   005787   005313   005464               140054141    7    130053111 1117    120051211 1137    110053111 1137    100051351 1047    004805   005101   005019   005479   005269   005801   005978   005742   005655   005660   005202   005240                                      
090000402310015 00200 411 251PAMIERS A 66        0180000RD 119              0210444PAMIERS             01902900034440034440900004023000       0187      023225  547    021010   022548   022634   023109   022630   023736   024520   024412   023815   024204   022247   023768               140225171    7    130219121    7    120218921    7    110219211    7    100213651    7    020579   022292   023475   022251   021617   022661   023427   023586   022833   023531   021812   022104                                      
310509000210015 06200 1110231DEMOISELLES 21      0150880LESPINET 20         0160048DEMOISELLES         0160000000172000172320000500300000000000187      054680  477    051649   052587   055438   055894   053274   056246   056149   051365   057123   057572   055241   053612               140530011    7    130535441    7    120531141    7    110527951    7    100561141    7    051734   054267   053072   054845   050882   050578   053749   049010   056234   056165   052784   052896                                      
330093200310015 05240 4843 51PORT LANGON         0000000RD 3  BAZAS         0120790MAZERES             00707640135540135540000000000000       0397      009532  63                                                                                                                             140092348         130000008         120000008         110000008         100167768                                                                                                                                                        
090000402110015 00200 411 251PAMIERS A 66        0180000RD 119              0210444PAMIERS             01902900034440034440900004023000       0187      011825  517    010581   011563   011461   011828   011471   012104   012586   012226   012087   012363   011286   012317               140114381    7    130111641    7    120111501    7    110111631    7    100108841    7    010334   011442   011726   011276   011103   011410   012048   011802   011568   012034   011052   011444                                      
810000400110015 00880 411 251FIN DEV CARMAUX     0260000RD 903              0290513LA TETE             0260184003505003505810000502300000000000187      010177  747    009001   009334   009885   010248   010041   010599   010633   010133   010761   010857   010302   010287               140098291    7    130095881    7    120096441         110097081    7    100096401         009033   009350   009534   010001   009635   010250   010371   009809   010245   010402   009817   009491                                      
810000400310015 00880 411 251FIN DEV CARMAUX     0260000RD 903              0290513LA TETE             0260184003505003505810000502300000000000187      020332  747    017947   018602   019699   020470   020011   021199   021283   020276   021504   021794   020525   020579               140196251    7    130191651 1077    120192881         110194451    7    100192541         018043   018699   019031   019963   019296   020448   020633   019590   020476   020810   019524   018962                                      
120001100210015 00880 4113 51LA PRIMAUBE RD 911  0560800BARAQUEVILLE RD 911 0680015LE LAC              06207300090910090911200013003000       0187      008170  958    006994   007216   007746   008202   008189   008539   008876   008722   008715   008701   008039   008034               140078851    8    130077201    8    120077271         110077751    7    100076631    8    007024   007248   007498   008309   008017   008342   007422   008518   008438   008578   007729   007477                                      
810000400210015 00880 411 251FIN DEV CARMAUX     0260000RD 903              0290513LA TETE             0260184003505003505810000502300000000000187      010155  737    008946   009268   009814   010222   009970   010600   010650   010143   010743   010937   010223   010292               140097961    7    130095771 1227    120096441         110097371    7    100096141         009010   009349   009497   009962   009661   010198   010262   009781   010231   010408   009707   009471                                      
120001004110015 00880 4113 51RD 84 RD 67         0500000PONT V.C. OLEMPS    0520200SAINT-CLOUD         05000500023230023231200013003000       0187      013033  577    011888   012111   012787   013245   012747   013625   013795   012838   013620   013514   013047   013137               140125661         130120261    7    120000001         110000001         100000001         011802   012265   012000   012985   012297   012969   012256   012229   013186   013584   012720   012527                                      
810000600210015 00880 411 251FIN ROCADE          0380080A 68                0430354LE SEQUESTRE        0410800005528005528810001600300000000000187      018456  757    016909   017186   018262   018226   017925   019471   019010   017634   019569   019722   018736   018769               140177831    7    130172501    7    120000001         110166291    7    100161051         016546   017304   017216   018448   017361   018450   017776   016921   018537   019099   017905   017859                                      
810500200310015 00680 111 231ECH. ST SULPICE     0270190ECH. COUFOULEUX     0330000RIEU D'EN COSTE     0290150005810005810810500300300000000000193      026059  837    022998   023779   025137   026472   027100   028017   028330   025307   027201   027576   025586   025084               140251041    8    130244361    8    120000001         110238941    7    100234391         022711   023974   024225   025559   024504   026547   025983   024514   026123   027210   025148   024738                                      
810500300210015 00680 111 231ECH. COUFOULEUX     0330000ECH. LISLE MONTANS  0410740LISLE SUR TARN      03703650087400087408105003003          0193      011537  767    010086   010494   011205   011720   011450   012181   012110   011388   012284   012306   011737   011443               140111101    7    130108601    7    120107621         110106261    7    100103201         010085   010617   010884   011454   010597   011635   011270   011055   011735   011847   011091   011055                                      
810000600310015 00880 411 251FIN ROCADE          0380080A 68                0430354LE SEQUESTRE        0410800005528005528810001600300000000000187      036660  757    033583   034107   036276   036236   035732   038639   037686   035137   038900   039051   037295   037172               140352961    7    130342501    7    120000001         110330771    7    100321101         032837   034335   034266   036574   034382   036571   035345   033604   036718   037813   035680   035473                                      
810500300310015 00680 111 231ECH. COUFOULEUX     0330000ECH. LISLE MONTANS  0410740LISLE SUR TARN      03703650087400087408105003003          0193      022983  757    020159   020923   022220   023368   022774   024273   024179   022523   024466   024684   023272   022875               140221271    7    130216391    7    120214331         110211811    7    100204941         020094   021196   021645   022811   021229   023118   022423   021964   023348   023735   021929   022036                                      
810500300110015 00680 111 231ECH. COUFOULEUX     0330000ECH. LISLE MONTANS  0410740LISLE SUR TARN      03703650087400087408105003003          0193      011446  737    010073   010429   011015   011648   011324   012092   012069   011135   012182   012378   011535   011432               140110171    7    130107791    7    120106711         110105551    7    100101741         010009   010579   010761   011357   010632   011483   011153   010909   011613   011888   010838   010981                                      
810000600110015 00880 411 251FIN ROCADE          0380080A 68                0430354LE SEQUESTRE        0410800005528005528810001600300000000000187      018204  777    016674   016921   018014   018010   017807   019168   018676   017503   019331   019329   018559   018403               140175131    7    130170001    7    120000001         110164481    7    100160051         016291   017031   017050   018126   017021   018121   017569   016683   018181   018714   017775   017614                                      
650000201210015 00210 4113001RD 934              0020352RD 2                0140940ESCONDEAUX          0100150012603012603650000201300000000000187      002973  798    002788   002727   002925   002866   002804   003044   003156   002885   003263   003227   003036   002945               140028581    8    130028951    8    120028831 1068    110026121    8    100020791         002649   002755   002681   002853   002768   003010   002822   002776   003035   003107   002865   002974                                      
320001502110015 01240 4113 01GIR ST.CRICQ        0510490GIR . ENDOUMINGUE   0560100ENGACHIES           0530020003766003766320001601300000000000289      004704 1258    004004   004164   004424   004791   004834   004970   005293   005062   004885   004942   004407   004628               140045201 1318    130044851 1098    120042541 1508    110041421    8    100040831 1317    003904   004158   004153   004553   004369   004816   004936   004909   004761   004801   004420   004445                                      
320001502310015 01240 4113 01GIR ST.CRICQ        0510490GIR . ENDOUMINGUE   0560100ENGACHIES           0530020003766003766320001601300000000000187      009520 1228    008116   008377   008903   009631   009807   010043   010578   010393   009937   009933   008979   009448               140091391 1278    130090441 1028    120085091 1418    110088371 1238    100082821 1267    007910   008366   008434   009168   008832   009785   009905   010088   009674   009635   008933   008896                                      
320001502210015 01240 4113 01GIR ST.CRICQ        0510490GIR . ENDOUMINGUE   0560100ENGACHIES           0530020003766003766320001601300000000000289      004816 1198    004112   004213   004479   004840   004973   005073   005285   005331   005052   004991   004572   004820               140046191 1238    130045591    8    120042551 1378    110046951    8    100041991 1247    004006   004208   004281   004615   004463   004969   004969   005179   004913   004834   004513   004451                                      
660001100110015 03200 4113001RN 22               0030124RN 20 TUNNEL PUYM-660131066PORTE PUYMORENS     0030160010807010807660002800300000000001191      001323  577    000910   000652   001234   001162   001243   001270   001959   002747   001520   001250   000759   001090               140012641    7    130012391    7    120010151    7    110009991    7    100008931         000811   000894   000980   001010   001143   001260   001936   002843   001265   001237   000859   000877                                      
810500200210015 00680 111 231ECH. ST SULPICE     0270190ECH. COUFOULEUX     0330000RIEU D'EN COSTE     0290150005810005810810500300300000000000898      013204  837    011488   011916   012605   013297   014408   014461   014978   012860   013553   013668   012618   012508               140126151    8    130123091    8    120000001         110119431    7    100117421         011382   011954   012162   012781   012308   013417   013331   012372   013069   013615   012595   012374                                      
310502100310015 06240 111 231BAYLAC 1            0000520ST MARTIN DU TOUCH  0010500BAYLAC              0001184001163001163320000500300000000000194      109961  50                                                                                                                             141049811         130000001         120996131         111066661         101060351                                                                                                                                                        
120001100310015 00880 4113 51LA PRIMAUBE RD 911  0560800BARAQUEVILLE RD 911 0680015LE LAC              06207300090910090911200013003000       0187      016361  978    014028   014464   015531   016452   016398   017099   017758   017406   017432   017368   016151   016114               140156141    8    130154741    8    120154821         110155801    7    100153431    8    014080   014545   015027   016678   016022   016725   015702   016979   016883   017159   014809   012746                                      
660002400310015 01160 4110201GIRATOIRE ST CHARLES0000000Echangeur du Soler  0060400PERPIGNAN RN116     0040360003407003407660002800300000000000390      025708  437    023161   023941   024177   024701   024192   026218   030148   028487   026213   027979   023589   025450               140244941    7    130259441    7    120257271    7    110262431    7    100261401         022617   023851   023758   024284   023861   024998   026925   027353   025244   024580   023149   023237                                      
810500500110015 00680 111 231ECH.GAILLAC         0480500RN 88 PR 43         0610997FLORENTIN           0580660013487013487          00000000000898      012090  867    010663   010975   011738   012190   011832   012700   012714   011842   012921   013019   012222   012212               140114681    7    130112791    7    120000001         110111711    7    100000001         010498   011121   011202   011689   011257   011967   011208   011198   012061   012519   011505   011405                                      
810000200310015 00880 411 251DEV CARMAUX         0110000FIN DEV CARMAUX     0260000DEV CARMAUX         01303920108320108328100005023          0187      008758 1287    006972   007516   007857   008790   008801   008876   009716   009983   009546   009560   008680   008707               140083031 1297    130000001         120000001         110000001         100073651 135     006954   007348   007836   008357   008336   008700   009106   009363   008817   009004   008032   007705                                      
120001100110015 00880 4113 51LA PRIMAUBE RD 911  0560800BARAQUEVILLE RD 911 0680015LE LAC              06207300090910090911200013003000       0187      008191  998    007034   007248   007785   008250   008209   008560   008882   008684   008717   008667   008112   008080               140077291    8    130077541    8    120077551         110078051 1007    100076801    8    007056   007297   007529   008369   008005   008383   008280   008461   008445   008581   007080   005269                                      
310507200310015 00640 111 241ECH 33              2690000ECH 34              2720000PODIO               2690673003000003000320000500300000000000199      052781  947    054394   053889   052106   057650   057132   054314   043668   054638   053769   061150   058461   055728               140496821    7    130585971 1057    120498791    7    110371461 1067    100385161    7    055321   057546   057100   053679   055979   059857   063573   060528   058958   053600   054660   058790                                      
660002400210015 01160 4110201GIR.ST CHARLES      0000000Echangeur du Soler  0060400PERPIGNAN RN 116    0040360003407003407660002800300000000000390      010802  467    009570   009831   010114   010161   009987   010539   012432   011773   010676   013306   009670   011405               140100101    7    130119741    7    120126111    7    110132361    7    100131411         009279   009764   009718   009872   009768   010235   011129   011294   010274   010021   009411   009319                                      
310502103110015 06240 111 231BAYLAC 1            0000520ST MARTIN DU TOUCH  0010500BAYLAC              0001184001163001163320000500300000000000194      054384  49                                                                                                                             140499451         130000001         120450321         110518111         100523891                                                                                                                                                        
810500500310015 00680 111 231ECH.GAILLAC         0480500RN 88 PR 43         0610997FLORENTIN           0580660013487013487          00000000000898      024369  857    021412   022045   023719   024574   023932   025600   025542   023981   026033   026114   024780   024584               140220941    7    130215441    7    120000001         110225771    7    100000001         019129   020175   020792   021651   020770   022106   022049   022607   024309   025196   023267   022993                                      
810000502110015 00880 411 251CARREFOUR CANTEPAU  0320979RD 100              0330914ROCADE D'ALBI       03301500014190014198100005023          0187      019845  547    017942   018758   020479   020965   020123   020750   019541   018442   020889   020348   019736   020162               140176311    7    130178121    7    120000001         110175351    7    100182201         017536   017998   018032   018588   016827   016746   017183   015997   017962   018830   017959   017973                                      
810000502310015 00880 411 251CARREFOUR CANTEPAU  0320979RD 100              0330914ROCADE D'ALBI       03301500014190014198100005023          0187      038284  547    033737   035852   039088   040266   038629   040159   038140   035698   040389   040085   038274   039052               140339221    7    130345691    7    120000001         110345461    7    100357011         033954   034776   034783   035829   032428   032750   033028   030527   034197   036583   034458   033882                                      
810000502210015 00880 411 251CARREFOUR CANTEPAU  0320979RD 100              0330914ROCADE D'ALBI       03301500014190014198100005023          0187      018439  547    015795   017094   018609   019301   018506   019409   018599   017256   019500   019737   018538   018890               140162911    7    130167571    7    120000001         110170111    7    100174811         016418   016778   016751   017241   015601   016004   015845   014530   016235   017753   016499   015909                                      
120000700310015 00880 4113 51RD 28               0240290RD 224              0420390GAGES               03604000181510181511200013003000       0187      010405  598    008650   009233   009611   010841   010795   010736   012218   011864   010698   010729   009499   009880               140090261 1228    130100171 1178    120000001         110102301 1317    100100641 1258    008570   006864   005739   006397   009224   009205   012004   010165   010875   010186   009352   009509                                      
810500500210015 00680 111 231ECH.GAILLAC         0480500RN 88 PR 43         0610997FLORENTIN           0580660013487013487          00000000000898      012279  857    010749   011070   011981   012384   012100   012900   012828   012139   013112   013095   012558   012372               140106261    7    130102651    7    120000001         110114061    7    100000001         008631   009054   009590   009962   009513   010139   010841   011409   012248   012677   011762   011588                                      
