600008100310014 03300 4113001BELLEVILLE N.2      0030423ERMENONVILLE D.922  0040104ERMENONVILLE        0030737000627000627000000000000000000000106      008700         000000   000000   000000   000000   000000   000000   000000   000000   000000   000000   000000   000000               130087001         120087001         110087381         100080621    0    090077521    0    000000   000000   000000   000000   000000   000000   000000   000000   000000   000000   000000   000000                                      
770000300310014 00030 4110201N3-D212             0040725N3-D404SUD          0090120RD212-RD404SUD      0080800004496004496000000000000000000001276      032735  68     032735   033534   033409   033778   033414   034912   030265   027935   034506   033532   031767   033027               130325971  667    120322981  727    110318901         100313741  777    090349001    0    030335   032484   031842   034550   032499   033549   031434   028437   034238   034874   033847   033253                                      
770001000310014 00040 4110101ECHANGEUR N104      0010000N4-D351             0050235RN104-RD351         0030700003931003931          00000000001276      049200  95     000000   000000   000000   000000   000000   000000   000000   000000   000000   000000   000000   000000               130492001  957    120491741  957    110482631 1017    100463321 1117    090461961  227    000000   000000   000000   000000   000000   000000   000000   000000   000000   000000   000000   000000                                      
770001300310014 00040 4110201N4-D350             0140490N4-N36              0210216RD350-RN36          0200550006910006910          00000000001276      031687 113     030077   030575   031969   032268   031835   034651   031014   026493   033672   033897   032015   031775               130308651 1007    120309271 1227    110310811         100302321 1227    090301261    0    027915   030264   029943   032554   031385   033106   030760   026838   032585   032872   031575   030723                                      
770001400310014 00040 4113001N4-N36              0210216N4-D231             0410500RN36-RD231          0340000020175020175          00000000001276      016729 226     016242   016860   017655   018303   017894   018804   016947   016293   017067   013184   016005   015492               130173571 2337    120176361 2337    110177561 2367    100172721 2357    090150241    0    015372   016564   017183   018307   017668   018196   017807   016273   018067   018403   017350   017108                                      
770001500310014 00040 4113001N4-D231             0410500N4-DPT51            0680927RD231-DPT51         0430200027336027336          51000090031276      011169 327     009982   010440   010859   011573   011173   012106   011543   010790   011450   011915   011077   011115               130110141 2927    120111461 3357    110115081         100111171 3227    090110861    0    009398   010038   010612   011416   011358   011692   011616   010901   011500   011821   010992   010776                                      
770005301310014 00370 4150101N37-A6              0000000VOIRIE DEPARTEMENTAL0020700A6-RD64             0020650003039003039000000000000000000000106      019700         000000   000000   000000   000000   000000   000000   000000   000000   000000   000000   000000   000000               130197001         120197001         110197001         100197001    0    090197001    0    000000   000000   000000   000000   000000   000000   000000   000000   000000   000000   000000   000000                                      
770005501310014 01050 4110201N105-A5b            0140000N105-N6             0150665A5b-RN6             0150000001872001872000000000000000000000106      038600         000000   000000   000000   000000   000000   000000   000000   000000   000000   000000   000000   000000               130386001         120386001         110386001         100386001    0    090386001    0    000000   000000   000000   000000   000000   000000   000000   000000   000000   000000   000000   000000                                      
770006300310014 03300 4113001N330-N3             0000000N330-D401           0100555RN3-RD401           0050300011344011344          60000800030197      011847 142     011349   011429   012136   011512   011932   013087   011704   009625   012914   012612   012020   000000               130117901 1397    120118881 1397    110119181 1447    100117491 1607    090089901 1397    010730   011637   011470   012574   011898   012854   011712   010151   012478   012525   012009   011518                                      
770010001310014 01040 4110601N104-N6             0270345N104-A5a            0281074RN6-A5a             0280100001770002276          00000000000197      095800         000000   000000   000000   000000   000000   000000   000000   000000   000000   000000   000000   000000               130958001         120958001         110958051         100924001    0    090743001    0    000000   000000   000000   000000   000000   000000   000000   000000   000000   000000   000000   000000                                      
770010002310014 01040 4110201N104-D50            0260228N104-N6             0270345RD50-RN6            0260900001113001113          00000000000197      061200         000000   000000   000000   000000   000000   000000   000000   000000   000000   000000   000000   000000               130612001         120611741         110609581         100611311    0    090490001    0    000000   000000   000000   000000   000000   000000   000000   000000   000000   000000   000000   000000                                      
770010101310014 01040 4110201N104-M4             0240955N104-D50            0260228M4-RD50             0250820001272001272          00000000000197      055300         000000   000000   000000   000000   000000   000000   000000   000000   000000   000000   000000   000000               130553001         120552571         110551321         100555731    0    090532001    0    000000   000000   000000   000000   000000   000000   000000   000000   000000   000000   000000   000000                                      
770010102310014 01040 4110201N104-A5b            0190250N104-M4             0240955A5b-M4              0220400005253005253          00000000000197      054400         000000   000000   000000   000000   000000   000000   000000   000000   000000   000000   000000   000000               130543681         120526681         110525521         100525701    0    090484001    0    000000   000000   051970   055865   053348   059371   058956   046111   056131   057891   000000   054184                                      
770010201310014 01040 4110401N104-BRET.BRIE      0171488N104-A5b            0190250BRET.BRIE-A5b       0190130001348001348          00000000000197      081675         076091   078568   081279   083107   080895   088960   083595   072220   084643   086930   081939   081961               130830001         120830001         110830001         100359001    0    090359001    0    000000   000000   000000   000000   000000   000000   000000   000000   000000   000000   000000   000000                                      
770010202310014 01040 4110201N104-N19            0160001N104-BRTE.BRIE      0171488RN19-BRET.BRIE      0170400003165003165          00000000000197      075200         000000   000000   000000   000000   000000   000000   000000   000000   000000   000000   000000   000000               130752001         120752001         110752311         100787091    0    090711001    0    000000   000000   000000   000000   000000   000000   000000   000000   000000   000000   000000   000000                                      
770010301310014 01040 4110201N104-FEROLLES       0131095N104-N19            0160001FEROLLES-RN19       0140650001613001613          00000000000197      077925         000000   000000   000000   000000   079002   083233   078630   068288   079117   081432   077120   076580               130690001         120690001         110682221         100732001    0    090732001    0    000000   000000   000000   000000   000000   000000   000000   000000   000000   000000   000000   000000                                      
770010302310014 01040 4110201N104-D51            0120670N104-FEROLLES       0131095RD51-FEROLLES       0131000001407001407          00000000000197      074922         069773   072238   074678   076197   074771   080451   077183   066812   077131   079395   075176   075262               130716001         120716001         110716421         100712351    0    090710001    0    000000   000000   000000   000000   000000   000000   000000   000000   000000   000000   000000   000000                                      
770010303310014 01040 4110201N104-D51E1          0100000N104-D51            0120670RD51E1-RD51         0100900002660002660          00000000000197      076930         071624   074125   076322   078041   076616   082686   079274   068797   079145   081622   077242   077661               130720001         120720001         110720041         100721001    0    090721001    0    000000   000000   000000   000000   000000   000000   000000   000000   000000   000000   000000   000000                                      
770010400310014 01040 4110201N104-N4             0060978N104-D51E1          0090930RN4-RD51E1          0080000002852002852          00000000001276      078149 143     073878   076166   078350   080323   079001   081869   072195   071134   082178   083516   079578   079601               130767771 1218    120764921 1208    110765141 1507    100753711 1527    090742001 1537    069745   074181   075548   080597   076924   079628   079187   071665   079091   081115   076679   077004                                      
770010501310014 01040 4110201N104-D21            0060240N104-N4             0060978RD21-RN4            0060560000738000738          00000000000197      103592         097712   100930   103570   104518   104323   110092   104177   092151   106977   109780   105136   103740               130917001         120917001         110917001         100917001    0    090917001    0    000000   000000   000000   000000   000000   000000   000000   000000   000000   000000   000000   000000                                      
770010502310014 01040 4110201N104-BERC.          0040500N104-D21            0060240BERCHERES-RD21      0050410001649001649          00000000000197      100108         094291   097714   099746   101011   100707   106101   101303   089738   103244   106184   101494   099767               131155001         121155001         111155001         101155001    0    091154841    0    000000   000000   000000   000000   000000   000000   000000   000000   000000   000000   000000   000000                                      
770010503310014 01040 4110201N104-D361           0030570N104-BERC.          0040500RD361-BERCHERES     0040170001064001064          00000000000197      102943         097372   100578   102675   104102   103814   109170   104056   091131   105876   109343   104462   102733               130983001         120983001         110982551         100986081    0    090990701    0    000000   000000   000000   000000   000000   000000   000000   000000   000000   000000   000000   000000                                      
770010504310014 01040 4110201N104-D406           0000800N104-D361           0030570RD406-RD361         0020150002746002746          00000000000197      101600 101     000000   000000   000000   000000   000000   000000   000000   000000   000000   000000   000000   000000               131016001 1017    121015581 1017    111032361         100980771 1237    091039001 1137    000000   000000   000000   000000   000000   000000   000000   000000   000000   000000   000000   000000                                      
770010505310014 01040 4110201N104-A4             0000000N104-D406           0000800A4-RD406            0000700000800000800          00000000000197      100400         000000   000000   000000   000000   000000   000000   000000   000000   000000   000000   000000   000000               131004001         121004001         111004001         101004001    0    091004001    0    000000   000000   000000   000000   000000   000000   000000   000000   000000   000000   000000   000000                                      
770500199310014 00060 1110441LIMITE ESSONNE      0380385RN37 / DEBUT A6     0440440A6_NAINVILLE        0400500006638006638000000000091050120031276      066500  91     000000   000000   000000   000000   000000   000000   000000   000000   000000   000000   000000   000000               130665051  917    120683951  948    110722261 1097    100730341 1097    090736591 1237    000000   000000   000000   000000   000000   000000   000000   000000   000000   000000   000000   000000                                      
770500400310014 00020 4110201N2-D404             0100858N2-D401             0130232RD404-RD401         0110700002358002358          00000000001276      045600 131     000000   000000   000000   000000   000000   000000   000000   000000   000000   000000   000000   000000               130456111 1317    120455071 1317    110464001         100464241 1377    090418311 1267    000000   000000   000000   000000   000000   000000   000000   000000   000000   000000   000000   000000                                      
770500800310014 01040 1110231DPT93               0080000A104-N2             0080500DPT93-RN2           0080300000500000501          00000000001276      080246         000000   000000   000000   000000   000000   000000   000000   071537   083186   085100   080892   080514               130769001         120769001         110769001         100769001    0    090769001    0    000000   000000   000000   000000   000000   000000   000000   000000   000000   000000   000000   000000                                      
770500900310014 01040 1110231A104-N2             0080500A104-D84NORD        0110100RN2-RD84NORD        0100770002290002290          00000000000197      079929         074703   077034   079249   080971   079584   085613   082367   071368   082320   084959   080574   080407               130918001         120918001         110918001         100918251    0    090798791    0    000000   000000   000000   000000   000000   000000   000000   000000   000000   000000   000000   000000                                      
770500901310014 01040 1110231A104-D84NORD        0110100A104-D84SUD         0110700RD84NORD-RD84SUD    0110500000600000600          00000000000197      079700  69     000000   000000   000000   000000   000000   000000   000000   000000   000000   000000   000000   000000               130797001  697    120797251  697    110848001         100847651    0    090606001 1457    000000   000000   000000   000000   000000   000000   000000   000000   000000   000000   000000   000000                                      
770501000310014 01040 1110231A104-D84SUD         0110700A104-N3             0140950RD84SUD-RN3         0120100003223003223          00000000001276      077601         071826   074821   077195   078461   077043   083428   080543   069153   079837   082580   077689   078639               130962001         120962001         110962021         100931171    0    090934851    0    000000   000000   000000   000000   000000   000000   000000   000000   000000   000000   000000   000000                                      
770501101310014 01040 1110231A104-N3             0140950A104-D34            0180500RN3-RD34            0170000003516003516          00000000000197      077273         071833   074341   076812   078744   076556   084226   079073   068897   079876   082194   077334   077393               130696481         120883061         110810111         100792121    0    090747001    0    061600   066641   065159   071046   067452   075861   076384   000000   000000   074192   000000   000000                                      
770501102310014 01040 1110231A104-D34            0180500A104-D404           0200900RD34-RD404          0190850002377002377          00000000000197      046948         000000   000000   046134   000000   000000   050465   047074   039733   048053   049375   046756   047993               130546001         120546001         110546001         100545511    0    090699001    0    000000   000000   000000   000000   000000   000000   000000   000000   000000   000000   000000   000000                                      
770501200310014 01040 1110431A104-D404           0200900A104-N34            0230100RD404-RN34          0210200002148002148          00000000001276      065900         000000   000000   000000   000000   000000   000000   000000   000000   000000   000000   000000   000000               130659001         120659001         110659001         100659401    0    090753001    0    000000   000000   000000   000000   000000   000000   000000   000000   000000   000000   000000   000000                                      
770501300310014 01040 1110631A104-N34N           0230100A104-N34S           0240500RN34N-RN34S         0240250001388001388          00000000001276      055192         052501   052865   054944   056418   054405   059838   056682   046598   057528   059348   055353   055829               130980001         120980001         110979741         100967191    0    091059001    0    000000   000000   000000   000000   000000   000000   000000   000000   000000   000000   000000   000000                                      
770501401310014 01040 1110331A104-N34S           0240500A104-D10P           0250150RN34S-RD10P         0240950000634000634          00000000000197      103400         000000   000000   000000   000000   000000   000000   000000   000000   000000   000000   000000   000000               131034001         121034201         111010451         100956621    0    091083001    0    000000   000000   000000   000000   000000   000000   000000   000000   000000   000000   000000   000000                                      
770501402310014 01040 1110431A104-D10P           0250150A104-X 18           0270400RD10P-X18           0260060002253002253          00000000000197      103700         000000   000000   000000   000000   000000   000000   000000   000000   000000   000000   000000   000000               131037451         121117921         111114091         101105651    0    091079001    0    094629   101192   098935   108517   101364   113373   111943   089519   108537   110783   000000   000000                                      
770501403310014 01040 1110431A104-X18            0270400A104-A4             0280500X18-A4              0280000001108001108          00000000000197      107800         000000   000000   000000   000000   000000   000000   000000   000000   000000   000000   000000   000000               131078001         121078081         111033001         101033461    0    091061001    0    000000   000000   000000   000000   000000   000000   000000   000000   000000   000000   000000   000000                                      
770504800310014 01400 1110241LIMITE A140         0050850A140-N36            0070572RD228E-RN36         0070000001722001722          00000000000197      012900  47     000000   000000   000000   000000   000000   000000   000000   000000   000000   000000   000000   000000               130129001  477    120129221  477    110197801         100199361  467    090183451  447    000000   000000   000000   000000   000000   000000   000000   000000   000000   000000   000000   000000                                      
780100500310014 00100 4110401RN 10 X A 12        0120000RN 10 X RD 912      0130730OUEST A 12 MONTIGNY 0130200001864001864          00000000001276      065652  76     064050   064494   066460   067002   066311   070010   065080   055380   068380   069058   066119   065482               130651481  767    120665361  767    110675971  807    100670731  787    090674231  757    060519   064420   063694   067917   065416   069813   067154   056636   067118   068965   065505   064861                                      
780100600310014 00100 4110201RN 10 X Panneau Aggl0150120RN 10 X RD 13       0190362NORD EST RD 58      0160900004195004195          00000000000188      051271  76     000000   000000   000000   000000   053736   054613   050121   047494   049649   048673   053260   052623               130530271  777    120545261  797    110552231         100552521  607    090554451  757    049102   052212   052240   054712   054020   056186   053876   047691   054492   055835   053065   000000                                      
780100700310014 00100 4110201RN 10 X RD 13       0190362RN 10 X RD 33       0220725SUD RD 13 COIGNIERES0190800003367003367          00000000001276      047010  79     047576   048747   000000   000000   042249   038144   047145   044630   049200   052797   050003   049607               130492671  787    120495861  777    110512941         100511861  817    090516161    0    045029   047968   048618   051533   050069   051797   050661   044587   050889   052205   049393   048543                                      
780100800310014 00100 4110201RN 10 X RD 33       0220725RN 10 X RD 191      0260692SUD RD 33           0250170003980003980          00000000000188      041740  79     039185   040423   042009   043308   041813   045074   042881   035387   043476   044417   041386   041516               130413841  767    120419031  787    110430131  797    100429081  727    090429911  697    036776   039175   040228   042707   042377   044460   043347   038511   043263   044011   040963   040768                                      
780100900310014 00100 4110201RN 10 X RD 191      0260692RN 10 X RD 910 SUD  0300644NORD RD 910 SUD PERR0300230004320004320          00000000000188      039032  76     036097   036908   038372   040250   038940   042372   038643   036742   040697   041673   038705   038980               130381991  687    120383981  777    110392201  767    100389171  787    090385881  757    033634   036053   037058   039699   039322   040451   040137   035480   039768   040839   037957   037944                                      
780101000310014 00100 4110201RN 10 X RD 910 SUD  0300644RN 10 X RD 937      0320425NORD RD 937         0310500001783001783          00000000000188      042700  76     000000   000000   000000   000000   000000   000000   000000   000000   000000   000000   000000   000000               130427001  767    120427001  767    110427001  767    100427001  767    090427001  767    000000   000000   000000   000000   000000   000000   000000   000000   000000   000000   000000   000000                                      
780101200310014 00100 4115001RN 10 X RD 936 EST  0370620BRETELLE A 11       0470555SUD VO DES GREFFIERS0380877009954009954          00000000000188      022774  93     000000   000000   019845   019955   016038   018271   018709   027321   027167   028121   025546   026768               130259001         120259001         110258601         100258531    0    090258531    0    000000   000000   000000   000000   000000   000000   000000   000000   000000   000000   000000   000000                                      
780101400310014 00120 4110301RN 12 X RN 286      0290000RN 12 X R12         0310050EST  AV COUTURIER   0310050002011002011          00000000001276      083303  55     077827   079493   085384   084269   084072   091599   085530   066871   088173   086371   082748   087303               130853161  577    120843951  577    110869561  557    100853131  547    090861591  547    080617   085853   083945   091497   085777   091987   087364   073604   091468   090859   081096   080257                                      
780101500310014 00120 4114001RN 12 X RD 134      0350915RN 12 X RD 76       0440875OUEST PONTCHARTRAIN 0390000008820008820          00000000000680      047080  73     044093   045574   047892   048625   047802   051683   048050   040191   049858   050124   044893   046179               130459541  737    120472001  707    110471661  707    100455861  677    090454031  727    041113   044479   044384   048492   047042   049113   044818   041374   049270   049798   046452   045272                                      
780101700310014 00120 4110201RN 12 X RD 76       0440875MILLEMONT           0510295SOUS PS VO GALLUIS  0460295006287006287          00000000000789      037309  73     035721   038958   033646   027297   028405   040152   039297   032134   043116   044939   042457   041585               130347011  937    120350211  977    110384741  827    100399961  607    090339001    0    027019   029396   034305   039356   037279   037208   033793   032020   037875   038049   033851   036056                                      
780101800310014 00120 4110201MILLEMONT           0510295RN 12 X RD 112      0550705EST RD 112 BAZAINVIL0550080004397004397          00000000000394      040134  93     032774   039528   041504   040541   037832   045166   042536   035794   041910   041908   040698   041416               130393931 1497    120379281 1017    110373321  757    100381501  807    090392721  807    036376   039299   037695   036057   036183   035083   043708   037424   045150   046005   041524   038204                                      
780101900310014 00120 4110201RN 12 X RD 112BAZAIN0550705RN12 X RD983 MAULETT0580750SOUS PS RD983MAULETT0580700003040003000          00000000000393      033639  89     031128   032270   033185   034705   033738   036848   033722   029906   034597   035950   034077   033543               130328601         120323631         110314731 1017    100314781  967    090310501  977    028569   030820   032527   033707   033773   034758   034443   030561   034750   035285   032796   032279                                      
780102010310014 00130 4130301RN 13 x RN 186      0200000RN 13 X RD 284      0210476Ouest RD 186 Sud    0200600001224001224          00000000000599      068000         000000   000000   000000   000000   000000   000000   000000   000000   000000   000000   000000   000000               130680001         120680001         110680001         100680001    0    090680001    0    000000   000000   000000   000000   000000   000000   000000   000000   000000   000000   000000   000000                                      
780102100310014 00130 4140201RN 13 X RD 284      0210476RN 13 X RN 184      0240180SOUS RD 99          0220600002588002588          00000000001276      035648  41     043749   041872   044643   038693   029360   031688   034711   032032   037995   031061   025157   036816               130430061         120428961  407    110429391  417    100421321  407    090418101  387    040909   044255   041307   045938   042707   046489   041602   034754   045206   045477   045011   042877                                      
780102200310014 00130 4155001RN 13 X RN 184      0240180FIN AGG ST-GERMAIN  0250514EST RD 160          0240306000854000854          00000000001276      022123  40     021840   021392   022252   021543   022126   024027   021810   019059   023962   023359   021311   022799               130212001         120205161  387    110195461  407    100179661  367    090160431  517    020257   021605   020344   023495   020811   022496   020253   017100   022218   022259   022160   021619                                      
780102800310014 01180 4110301LIMI HAUTS DE SEINE 0050000LIMI ESSONNE        0070057NORD A 86           0050575001891001891          00000000000188      049300         000000   000000   000000   000000   000000   000000   000000   000000   000000   000000   000000   000000               130493001         120492791         110494991         100475771    0    090478031    0    000000   000000   000000   000000   000000   000000   000000   000000   000000   000000   000000   000000                                      
780103390310014 01840 4115001RN 184 x RD 190     0120700RN 184 x RD 308     0160585sud RD 308 St-Germai0160500003862003862          00000000000198      024765  67     025476   024856   025334   025401   000000   027205   023354   021220   026207   026169   022764   024433               130249001         120249101  697    110258921  637    100256731  597    090258221  567    000000   000000   000000   000000   000000   000000   000000   000000   000000   000000   000000   000000                                      
780103400310014 01840 4115001RN 184 X RD 308     0160585RN 184 X RD 30      0210640SUD RD 31 ST-GERMAIN0210500005042005042          00000000000789      032800  66     000000   000000   000000   000000   000000   000000   000000   000000   000000   000000   000000   000000               130327841  667    120332381  647    110335331  657    100329731  637    090243811  637    031116   032773   031313   035364   033352   000000   000000   000000   000000   000000   000000   000000                                      
780104000310014 01860 4110101RN 186 X RD 386     0230140RN 186 X RD 386     0250585NORD RD 386 SUD     0250500002390002390          00000000000188      021772  83     021825   021353   022419   022173   021730   024021   021944   016959   022720   023303   021171   021651               130231391  847    120241901         110239601  766    100242671  796    090199801  596    022127   024373   022310   024803   023526   025094   023566   019585   023670   024026   022807   022022                                      
780105000310014 01910 4113001ECHANGEUR A10       0550000RN 191 X RD 116     0610027OUEST RD 4 ALLAINVIL0560300005500005500          00000000000188      009964 162     007640   008473   008751   010681   009938   010363   012009   012637   010234   010463   008846   009536               130097751         120097681 1627    110097801         100097681 1617    090096651  167    007085   007595   009063   009547   010750   010396   011911   012433   010195   010076   008838   009196                                      
780106010310014 00120 4110201INTER A86 PONT COLBE0190000PONT COLBERT        0630640LIM EURE-ET-LOIR S.O0200717043850043850000000000000000000000076      040900         000000   000000   000000   000000   000000   000000   000000   000000   000000   000000   000000   000000               130409001         120409101         110424391         100432901    0    090420931    0    000000   000000   000000   000000   000000   000000   000000   000000   000000   000000   000000   000000                                      
780550799310014 00120 1110531A 12 X A 13         0000000A 12 X RD 129       0060325SUD A13 ROCQUENCOURT0010550006717006717          00000000000200      129075  77     125761   128184   133279   000000   000000   000000   000000   000000   000000   000000   000000   000000               131220811  657    121268521  647    111293021  817    101290771  707    091236841  757    119189   127845   125766   113827   109238   122603   128092   111240   133760   127799   120313   125926                                      
780550800310014 00120 1110231A 12 X RD 129       0060325A 12 X RN 286 EX G120071301SUD RD 129 B.D'ARCY 0060500001976001976          00000000001276      057728         055205   055588   057612   058251   056268   060613   056790   059850   000000   060314   057033   057488               130556811         120509831         110577401         100562051    0    090558361    0    051886   055469   054516   058191   054932   059809   057946   046492   057584   059534   056402   055690                                      
780551000310014 00130 1110441LIMITE DEPT. 92     0090000A 13 X A 12         0120600OUEST RD 182 VAUCRES0090000003793003793          92050220011276      131223         132595   000000   000000   132637   000000   000000   000000   000000   128437   000000   000000   000000               131321001         121321131         111203001         101203001    0    091203001    0    000000   000000   000000   000000   000000   000000   000000   000000   000000   000000   000000   000000                                      
780551100310014 00130 1110241A 13 X A 12         0120600A 13 X RD 153       0250515OUEST TRI ROCQUENCOU0220590013427013427          00000000001276      085732  91     080072   077909   087011   088709   087054   091876   089066   080964   088885   090224   083646   083363               130852191         120865751  967    110886621 1007    100877541  957    090885161  927    075845   082797   082120   087870   085821   090788   090515   086318   087379   087881   082710   082609                                      
780551300310013 00130 1110201LES MUREAUX         0320800BOUAFLE             0370200FLINS               0340260004400004400000000000000000000000076      090200  95     000000   000000   000000   000000   000000   000000   000000   000000   000000   000000   000000   000000               130902001         120902001         110902001         100902001    0    090902001  957    000000   000000   000000   000000   000000   000000   000000   000000   000000   000000   000000   000000                                      
780552200310013 00860 1110441A 86 X RN 286       0000000A 86 X RD 53        0040078EST RD 446 J.E.JOSAS0020700001871001871          00000000000188      093600  80     000000   000000   000000   000000   000000   000000   000000   000000   000000   000000   000000   000000               130936001         120936001         110935501         100940361  807    090912111  807    000000   000000   000000   000000   000000   000000   000000   000000   000000   000000   000000   000000                                      
780552300310013 00860 1110441A 86 X RD 53        0040078LIMITE DEPT. 92     0070843ENTRE RD 53 ET DEP920060000003769003769          00000000001276      088773  77     110906   100846   000000   000000   115507   120160   098525   074919   098779   069588   049311   050417               131143171  777    121059001         111059001         101059001    0    091059001    0    000000   000000   110942   117128   000000   115061   115854   098712   119309   121639   116446   113818                                      
910000100310014 00060 4110201RN6/LD94            0000000RN6/RD50            0060288N6_BRUNOY           0040772006276003000          94000280031276      035516  58     034831   035330   036254   036789   036280   037946   034759   029701   035759   036694   035880   035964               130352001  617    120343881  567    110348591         100346141 1987    090356471  597    033233   035050   034365   036395   035231   036912   036021   030528   036789   037015   035924   035098                                      
910000400310014 00070 4150201RN7/LD94            0020000ORLY                0040410N7_ORLY             0040410002339000000          94000580031276      058400  45     000000   000000   000000   000000   000000   000000   000000   000000   000000   000000   000000   000000               130584001  457    120583671  457    110612201  477    100572231  497    090560491  507    000000   000000   000000   000000   000000   000000   000000   000000   000000   000000   000000   000000                                      
910001400310014 01180 4150201RN118/LD78          0000000N118/N444           0020898N118_BIEVRES        0000527002844000000          78011216031276      089891  64     085692   088010   090672   092304   090879   095461   092593   081303   093793   094668   083264   090058               130883901  647    120889191  597    110888581         100857281  950    090794251  907    079697   085954   084323   091773   087440   095090   095173   079768   092114   093416   088480   087665                                      
910001500310014 01180 4110201N118/N444           0020898N118/PR 5.100       0050100ENTRE RN444/PR 5.1000030429002188000000          00000000001276      064486         059621   061473   000000   066766   063161   069796   000000   000000   066604   067188   062663   063105               130640431         120648631         110637201         100639031    0    090628991    0    056563   061268   061026   066735   060706   071813   070962   057673   066700   068267   063596   063352                                      
910001600310014 01180 4110201N118/PR5.100        0050100N118/N446           0070153N118_SACLAY         0070179001998001998          00000000001276      063700  57     000000   000000   000000   000000   000000   000000   000000   000000   000000   000000   000000   000000               130637161  577    120637161  577    110648051  597    100633371  587    090645651  547    059842   060160   060522   064172   063956   068129   070099   060045   066545   000000   000000   000000                                      
910001700310014 01180 4110201N118/RN446          0070153N118/RD128          0090473ENTRE RN446/RD128   0090315002265002265          00000000001276      062665         057121   000000   000000   063861   060040   067809   065460   000000   063396   065084   059819   061394               130684001         120684001         110683961         100684681    0    090682701    0    000000   000000   000000   000000   000000   000000   000000   000000   000000   000000   000000   000000                                      
910001800310014 01180 4140201N118/D128           0090473N118/PR11           0110000ENTRE RD128/PR11  A 0100097001608000000          00000000000194      067987         064635   000000   000000   000000   067031   076271   072846   056015   000000   073188   066432   067476               130740001         120739531         110739901         100718291    0    090709131    0    000000   000000   000000   000000   000000   000000   000000   000000   000000   000000   000000   000000                                      
910002000310014 01180 4150201N118/PR11           0110000N118/N188           0120521ENTRE PR11/RN188  A 0120000001502000000910001800300000000001276      074449         049580   000000   000000   077331   075013   085405   080602   060750   080797   082808   000000   077757               130749181         120677741         110687751         100688211    0    090677861    0    000000   000000   070198   077923   073764   081482   079866   000000   077980   079419   073203   072984                                      
910002100310014 01180 4150201RN118/RN188         0120521RN118/RD218         0130512ENTRE RN188/RD218  A0130000001067000000          00000000001276      063797         000000   000000   061381   066192   061416   069899   067270   052240   065458   066927   000000   063392               130574001         120574331         110580181         100562441    0    090660801    0    000000   000000   000000   000000   000000   000000   000000   000000   000000   000000   000000   000000                                      
910002200310014 01180 4150201RN118/D218          0130512RN118/D118          0140516ENTRE D218/D118 A   0140200000999000000910001800300000000001276      057700         000000   000000   000000   000000   000000   000000   000000   000000   000000   000000   000000   000000               130577001         120577101         110535981         100580791    0    090677001    0    000000   000000   000000   000000   000000   000000   000000   000000   000000   000000   000000   000000                                      
910002300310014 01180 4110201RN118/D118          0140516RN118/A10           0150370N118_ULIS           0140895000851000851          00000000001276      045867  47     037912   046128   043801   044586   043840   044748   044587   045795   049411   057620   043523   048458               130523431  508    120566511  568    110561531  628    100557771  748    090555791  738    046154   050503   052499   056527   055818   059321   062015   054367   056768   051795   041495   040833                                      
910002500310014 01880 4113001RN188/A10           0040000VILLEBON / YVETTE   0050270N188_VILLEBON / Y   0050270001125004186          00000000000194      010700         000000   000000   000000   000000   000000   000000   000000   000000   000000   000000   000000   000000               130107001         120107001         110107001  187    100106731  187    090123701    0    000000   000000   000000   000000   000000   000000   000000   000000   000000   000000   000000   000000                                      
910100200310014 01040 4110201RN104/PR29          0290000RN104/VILLEPECLE    0300459ENTREPR29/VILLEPECLE0290502001500001500          00000000000194      083900         000000   000000   000000   000000   000000   000000   000000   000000   000000   000000   000000   000000               130839001         120838631         110850001         100849791    0    090751751    0    000000   000000   000000   000000   000000   000000   000000   000000   000000   000000   000000   000000                                      
910100300310014 01040 4110201RN104/VILLEPECLE    0300459RN104/RD33          0310274N104_TIGERY         0300931000825000825          00000000000194      089333 142     089211   089454   000000   000000   000000   000000   000000   000000   000000   000000   000000   000000               130881931 1427    120917321 1427    111021861 1347    100905331 1517    090777181 1627    079135   083659   084120   090098   089111   092679   092123   080669   090507   094550   092311   089334                                      
910100400310014 01040 4140201RN104/RD33          0310274RN104/N448          0330150ENTRE RD33/RN448    0320500001779001779          00000000000194      117947         000000   000000   000000   000000   000000   000000   000000   102008   123938   125619   121238   116933               131094001         121094141         110988461         101070081    0    090980001    0    000000   000000   000000   000000   000000   000000   000000   000000   000000   000000   000000   000000                                      
910100500310014 01040 4150201RN104/N448          0330150RN104/RN7           0340908ENTRE RN448/RN7    A0330995001759000000          00000000000194      118900 115     000000   000000   000000   000000   000000   000000   000000   000000   000000   000000   000000   000000               131189241 1157    121128891 1167    111071591         101066171 1187    091069051 1130    110272   117155   115436   123534   118791   124271   122659   104233   124028   127616   121546   117948                                      
910100600310014 01040 4150201RN104/RN7           0340908RN104/A6            0360948ENTRE RN7/A6    A   0360000002033000000          00000000000194      106687         000000   000000   000000   000000   000000   000000   000000   094571   112963   114036   106214   105649               130979501         120954031         110972771         100776001    0    090776001    0    090371   096288   095793   100267   095944   104449   103363   087899   102333   103055   000000   000000                                      
910100700310014 01040 4150201N104/A6             0360948N104/RD93           0380829ENTRE A6/RD93       0380305001967000000          00000000000106      077799         075312   000000   078951   078839   076570   082939   078732   069589   080158   081508   076305   076881               130752901         120727071         110686781         100675581    0    090764001    0    070099   074514   074170   000000   073320   079934   078399   067322   076760   000000   000000   000000                                      
910100800310014 01040 4150201N104/RD93           0380829N104/N449           0400388N104_EVRY           0391097001726000000          00000000000106      053049  99     039856   050163   055345   059263   056828   061551   052982   039908   055943   056759   051374   056617               130425851 1527    120427221 1527    110472911         100486251 1017    090493861 1647    037948   039081   041360   042839   042962   046023   046940   047468   044548   039841   038102   043611                                      
910100900310014 01040 4140201RN104/N449          0400388RN104/RD31          0410700ENTRE RN449/RD31 A  0410535001917000000          00000000000194      080225         000000   000000   000000   000000   000000   000000   000000   000000   081991   082915   077985   078008               130860001         120860251         110844451         100781561    0    090840001    0    000000   000000   000000   000000   000000   000000   000000   000000   000000   000000   000000   000000                                      
910101000310014 01040 4140201RN104/RD31          0410700RN104/N445          0440471N104_FLEURY         0430860002656000000          00000000000194      083818 141     080425   081610   085308   086776   082976   089238   086182   075033   086620   087853   082656   081141               130836421 1407    120833131 1347    110828471         100777681 1357    090821011 1227    075832   081177   082243   086941   082251   088466   089051   076783   086634   089603   083072   081754                                      
910101100310014 01040 4150201RN104/N445          0440471RN104/D117          0450435ENTRE RN445/RD117  A0450000000948000000910101000300000000000194      077728         073847   000000   079399   000000   000000   082508   078890   068718   080106   082502   076737   076848               130721991         120777861         110755961         100611601    0    090613371    0    065411   070229   072054   073768   070201   077770   078146   065250   074577   076413   071263   071392                                      
910101200310014 01040 4150201RN104/D117          0450435RN104/D133          0480710ENTRE RD117/RD133  A0470000003261000000910101300300000000000194      073687         069598   072546   075449   076773   000000   078104   074357   065824   076029   077211   071823   072842               130735001         120735331         110743801         100733111    0    090742501    0    000000   000000   000000   000000   000000   000000   000000   000000   000000   000000   000000   000000                                      
910101300310014 01040 4110201RN104/D133          0480710RN104/N20           0500881N104_LINAS          0500047002739000000          00000000000194      066847         067129   067807   070346   071855   070213   074310   069791   064434   074149   072090   050449   049595               130700751 1267    120696481 1297    110705701         100524071 1267    090477251 1957    066902   067444   068577   072837   072240   075247   070653   066452   072870   072956   068011   066745                                      
910101400310014 01040 4110201RN104/N20           0500881RN104/A10           0590610N104_MARCOUSSIS     0560466008802008802          00000000000194      050644 163     047731   049384   051517   052928   049155   053265   053192   047605   051367   052873   049331   049384               130505751         120511231 1577    110513851         100517361 1587    090554481 1447    045385   049248   050242   052993   050613   052568   054214   048714   051822   053357   048781   048954                                      
910500100310014 00060 1150441A6/LD94             0000000A6/RD32             0090950ENTRE DEP94/RD32   A0000500001540000000          00000000001276      073287         069635   073284   073566   073381   073223   075259   075611   072299   074104   074729   072193   072159               130749001         120749051         110767991         100743941    0    090756001    0    000000   000000   000000   000000   000000   000000   000000   000000   000000   000000   000000   000000                                      
910500109310014 00060 1110441LIMITE ESSONNE      0380385RN37 / DEBUT A6     0440440A6_NAINVILLE        0400500006076006076000000000000000000000607      072200         000000   000000   000000   000000   000000   000000   000000   000000   000000   000000   000000   000000               130722001         120722001         110722261         100730341 1090    090736591    0    000000   000000   000000   000000   000000   000000   000000   000000   000000   000000   000000   000000                                      
910500201310014 00060 1150441A6/RD32             0090950A6/A126             0120686WISSOUS             0090950002731002731          00000000000599      129584  92     125973   130502   131906   129868   130245   133084   130298   125213   130910   130387   128231   128391               131300051 1077    121292341  717    111334501  737    101331751  717    091343631  697    121478   129721   131782   130589   131725   137414   132559   125846   130717   131818   126367   130176                                      
910500202310014 00060 1150441A6/A126             0130000A6/RD118            0131001ENTRE A126/RD 118   0130241001001001001          00000000000599      172508         000000   000000   000000   174205   000000   000000   000000   000000   000000   000000   000000   170811               131464001         121464001         111463991         101551561    0    091769001    0    000000   000000   000000   000000   000000   000000   000000   000000   000000   000000   000000   000000                                      
910500300310014 00060 1150441A6/RD118            0130990A6/RD25             0170207ENTRE RD118/RD25   A0160000003218000000          00000000001276      167936         161641   166524   170452   171367   167557   173649   170227   158035   172209   171783   167061   164731               131634941         121661221         111694411         101662381    0    091696161    0    152815   163684   164805   165780   162335   173880   168478   153559   166809   168582   158388   163176                                      
910500400310014 00060 1150441A6/RD25             0170207A6/RN445            0200505A6_VIRY             0190670003288000000          00000000001276      167744  81     158159   163970   165921   168375   168080   177572   178090   163993   179897   168262   160500   160110               131653761         121625431  927    111643631  957    101616901 1397    091633011 1247    150135   159440   162076   168941   167087   177029   172934   159545   169432   175812   161033   160949                                      
910500500310014 00060 1150441A6/RN445            0200505A6/RD310            0210772ENTRE RN445/RD310 A 0200610001267000000          00000000001276      133764         000000   000000   000000   000000   000000   000000   000000   000000   000000   000000   133752   133775               131300001         121300311         111345481         101366271    0    091353551    0    000000   000000   000000   000000   000000   000000   000000   000000   000000   000000   000000   000000                                      
910500600310014 00060 1150441A6/RD310            0210772A6/RN104            0240000ENTRE D310/RN104    0220800002233000000          00000000001276      116800         000000   000000   000000   000000   000000   000000   000000   000000   000000   000000   000000   000000               131167601         121123001         111122871         101100661    0    091122691    0    103928   114581   114069   115680   114013   000000   122035   000000   000000   125362   000000   000000                                      
910500700310014 00060 1150441A6/RN104            0240000A6/RD93             0250740ENTRE RN104/RD93   A0240450001741000000          00000000001276      094124  99     088091   092847   092066   093608   094225   095256   094544   092487   093395   095466   096901   100605               130932711 1027    121050481  957    111069151         101085641  847    091129521  817    086441   091041   092372   091990   095473   106227   097260   095266   092409   090057   086323   094297                                      
910500800310014 00060 1150441A6/RD93             0250740A6/RN104            0270686ENTRE RD93/RN104   A0260625001933000000910500700300000000001276      093867         085881   092194   093487   095164   094047   099298   097866   093268   096176   096465   090228   092332               130915821         120950941         111206651         101294001    0    091294001    0    083213   090108   094616   092633   091317   097177   098014   091412   093735   090790   085444   090462                                      
910500901310014 00060 1150441A6/RN104            0270686A6/RD26             0280761ENTRE RN104/RD26  A 0270943001072000000          00000000000198      094576         090488   000000   100203   000000   000000   000000   100253   087360   000000   000000   000000   000000               130952421         121241001         111240531         101025001    0    091276801    0    086342   092952   097808   095062   092902   000000   099018   095426   098884   097386   000000   096743                                      
910500902310014 00060 1150441A6/D26              0280761A6/N191             0320666ENTRE D26/N191      0300180004911000000          00000000000198      122900         000000   000000   000000   000000   000000   000000   000000   000000   000000   000000   000000   000000               131229001         121229001         111229001         101229001    0    091229001    0    000000   000000   000000   000000   000000   000000   000000   000000   000000   000000   000000   000000                                      
910501000310014 00060 1150441A6/RN191            0320666A6/RD948            0340156ENTRE RN191/RD948  A0330458001486000000          00000000001276      115100         000000   000000   000000   000000   000000   000000   000000   000000   000000   000000   000000   000000               131151001         121151001         111151001         101151001    0    091151001    0    000000   000000   000000   000000   000000   000000   000000   000000   000000   000000   000000   000000                                      
910501100310014 00060 1150441A6/RD948            0340156A6/RD337            0340903ENTRE RD948/RD337  A0340158000747000000          00000000000795      083364  97     076004   079917   083881   085471   082764   086426   087211   087920   085459   086950   080172   078187               130816071  987    120865071 1017    110895221         100883391 1017    090890731  677    073848   081160   087019   000000   000000   000000   000000   000000   083445   083876   078642   083261                                      
910501200310014 00060 1110441A6/RN337            0340903A6/LD77             0380385ENTRE RN337/DEP77   0380385002472002472          77050010031276      074200         000000   000000   000000   000000   000000   000000   000000   000000   000000   000000   000000   000000               130742001         120742001         110742001         100742001    0    090742001    0    000000   000000   000000   000000   000000   000000   000000   000000   000000   000000   000000   000000                                      
910501300310014 00100 1150241A10/A126            0060457A10/RN188           0090567ENTRE A126/RN188   A0070720003361000000          00000000001276      077650         068980   071029   073713   080930   077537   084002   089587   000000   079235   081113   072626   075402               130733191         120703771         110736941         100814821    0    090831001 1530    061283   065445   069163   075073   074595   076548   085540   084693   074422   073198   068982   070175                                      
910501400310014 00100 1140241A10/RN188           0090567A10/RD118           0110862ENTRE RN188/RD118  A0090013003298000000          00000000001276      064927 100     051787   057179   000000   062756   060006   061373   000000   082331   067201   072121   065909   068606               130690121         120714621 1477    110735061 1527    100736241 1487    090740761 1457    059698   064036   067606   073319   072813   073503   084913   081716   071757   064355   056475   057446                                      
910501500310014 00100 1110241A10/RD118           0110862A10/RN446           0131025ENTRE RD118/RN446   0131004001163001163          00000000000505      051800         000000   000000   000000   000000   000000   000000   000000   000000   000000   000000   000000   000000               130518001         120518351         110518141         100507671    0    090504001    0    000000   000000   000000   000000   000000   000000   000000   000000   000000   000000   000000   000000                                      
910501700310014 00100 1150241A10/RN188           0050740A10/A126            0060457ENTRE RN188/A126    0050580000715000000          00000000001276      066775         060406   062158   064626   072009   068859   074188   074805   000000   066138   067085   060722   063532               130776451         121100001         111127001         101127001    0    091127001    0    065696   070041   073065   079619   079320   081132   090131   088557   079147   077042   072782   074545                                      
910501800310014 00100 1150441A10/A126            0040700A10/RN188           0050740ENTRE A126/RN188  A 0040708001046000000          00000000001276      104600 114     000000   000000   000000   000000   000000   000000   000000   000000   000000   000000   000000   000000               131046001 1147    121046001 1147    111045771 1147    101088001 1147    091087901 1147    000000   000000   000000   000000   000000   000000   000000   000000   000000   000000   000000   000000                                      
910501900310014 01260 1153041A126/A6             0000000A126/A10            0020625ENTRE A6/A10    A   0010174002370000000          00000000000194      033769  67     033585   034303   035070   034249   033597   035121   033150   026905   034822   035901   034493   034029               130328911  697    120327401  737    110327071         100316351  700    090306331  640    030781   033343   032337   034301   032484   034521   033253   028277   034524   034764   033553   032761                                      
910502000310014 00100 1150341A10/A6              0000000A10/RN20            0020746ENTRE A6/RN20  A    0010600002693000000          00000000001276      142745         127135   138398   141632   147703   141610   149766   147391   000000   147013   149943   139366   140242               131422001         121422001         111421831         101371851    0    091424001    0    000000   000000   000000   000000   000000   000000   000000   000000   000000   000000   000000   000000                                      
910502100310014 00100 1150341A10/RN20            0020746A10/A126            0040700ENTRE RN20/A126     0030500001951000000          00000000001276      102610         000000   000000   000000   000000   100294   106278   109592   000000   102706   104274   096817   098306               131219001         121219001         111219501         101133981    0    091192001    0    000000   000000   000000   000000   000000   000000   000000   000000   000000   000000   000000   000000                                      
910502200310014 00200 4140201LIAISON A10         0030000LIAISONRN20         0031289LIAISON A10/RN20    0031228001289001289910501800300000000001276      109000         000000   000000   000000   000000   000000   000000   000000   000000   000000   000000   000000   000000               131090001         121090001         111090281         101067001    0    091066691    0    000000   000000   000000   000000   000000   000000   000000   000000   000000   000000   000000   000000                                      
910510100310014 00060B1150441A6/LD94             0000000A6/RD167            0010701ENTREDPT94/RD167  A 0010000001283000000          94050200030190      114359         110491   112573   112432   115497   112832   116675   116479   115690   115944   117041   113472   113185               131133271         121116001         111116201         101080091    0    091238001    0    000000   000000   111699   113884   111958   117484   116623   113629   116560   115463   109789   111786                                      
920004000310014 00130 4150401LIMITE DEP.75       0000000RD 1 NEUILLY        008040030 AV.CH DE GAULLE A0000100004750000000          00000000001276      115129  36     115054   116361   104110   112009   116676   119170   115258   099276   122311   123240   120402   117675               131121721         120746981         111126001         101126091  400    090741491    0    000000   118352   111092   115086   096471   113006   113246   095568   117375   120226   117647   115061                                      
920004200310014 00130 4150201BD CIRCULAIRE       0090000RD 05.PUTEAUX       0100450av PDT WILSON      A0100000001180000000          00000000001276      028600         000000   000000   000000   000000   000000   000000   000000   000000   000000   000000   000000   000000               130286001         120286001         110286001         100286001    0    090286001    0    000000   000000   000000   000000   000000   000000   000000   000000   000000   000000   000000   000000                                      
920005400310014 01920 4157001bd CIRCULAIRE       0000000RD908               0100980MISSION MARCHAND   A0090700001380000000          00000000001276      020500         000000   000000   000000   000000   000000   000000   000000   000000   000000   000000   000000   000000               130205001         120205001         110205001         100205001    0    090205001    0    000000   000000   000000   000000   000000   000000   000000   000000   000000   000000   000000   000000                                      
920500200310014 10130 4140201N1014               0000000BC                  0000600N1013               0000300000600000000          00000000000504      000000         000000   000000   000000   000000   000000   000000   000000   000000   000000   000000   000000   000000               130000001         120000001         110000001         100000001    0    090000001    0    000000   000000   000000   000000   000000   000000   000000   000000   000000   000000   000000   000000                                      
920500300310014 00860 1150241LIMITE DEP 93       0000000RD 986              0010450A 86               A0000250001450000000          00000000001276      116459         000000   000000   000000   117411   115768   122632   117329   096935   120753   122533   116573   118193               131508001         121508001         111508001         101508001    0    091508001    0    000000   000000   000000   000000   000000   000000   000000   000000   000000   000000   000000   000000                                      
920500500310014 00860 1150241ECHANGEUR A 15-A 86 0030300RD 19               0040620Sous A 15          A0030850001320000000          00000000001276      106944         105543   107875   108548   108406   107700   110327   106864   092812   110374   110892   108635   105355               130910451         121180001         111180001         101180001    0    091180001    0    082436   092556   090654   094848   091199   098105   096594   079864   094108   093371   089751   089607                                      
920500800310014 00860 1150241RD 106              0070370RN 192              0090500A86          A      0080600002130000000          00000000001276      100949 106     102498   103498   000000   106083   100877   089958   096615   094098   102301   107202   103848   103075               131039241 1117    121035341 1067    111039091         101027851 1057    091043411 1047    098698   104430   102680   107834   103536   106326   107334   095563   106771   105736   104595   103953                                      
920500900310014 00860 1150241RN 192              0090500PONT DE ROUEN       0100940A86            A    0100000001440000000          00000000001276      156879         153408   157587   158323   159948   157004   161858   156075   140011   162687   164102   157382   154168               131565471         121457161         111181001         101181001    0    091181001    0    146037   157729   157501   163366   156200   168514   166290   139524   160092   158601   150738   154624                                      
920501100310014 00860 1150441A14                 0120180RN190               0140780A86                 0130000002600000000          00000000000202      098200  62     000000   000000   000000   000000   000000   000000   000000   000000   000000   000000   000000   000000               130982001         120982001         110981521         100000001    0    090520541  627    000000   000000   000000   000000   000000   000000   000000   000000   000000   000000   000000   000000                                      
920501200310014 00860 1150441RN190               0140780INTER N13 PR16      0160980A86                 0150000002400000000          00000000000202      096553  32     096693   096022   097442   098359   094989   103686   094139   078437   103158   102290   098133   095290               130964291         120965221  317    110903481         100835031  277    090000001    0    096118   097065   097457   098572   096577   101157   098952   088535   092694   000000   000000   097330                                      
920501701310014 03140 4150201RN 13 BVD CIRCULAIRE0000000INTER N186 NANTERRE 0021000RN 314             A0010250003000000000          00000000001276      031900         000000   000000   000000   000000   000000   000000   000000   000000   000000   000000   000000   000000               130319001         120319081         110386001         100386001    0    090386001    0    000000   000000   000000   000000   000000   000000   000000   000000   000000   000000   000000   000000                                      
920501800310014 01180 4150501RN 10 Pont de Svres0000000RD 181/LES BRUYERES 0020155RN10/RD 181         0020116002155000000          00000000001276      096849         095726   096307   098279   100189   093342   105925   098159   075532   101195   103642   098186   095705               130976701         120955661         110982441         100979981    0    090988001    0    090649   098051   094809   101262   094320   107380   104652   077830   101810   104378   099393   098164                                      
920501900310014 01180 4150501RD 181 LES BRUYERES 0020155LIMITE DEP 78       0041124LIMITE YVELINES MEUD0040123003008000000          00000000001276      106345         105055   105592   108770   109158   102619   113431   108909   085437   111143   113143   107112   105766               131015001         121015331         111034961         101047621    0    091057521    0    000000   000000   000000   000000   000000   000000   000000   000000   000000   000000   000000   000000                                      
920511000310014 00150 1150641a86                 0000000dept78              0050900A15                 0000450002915000000          00000000000202      155600         000000   000000   000000   000000   000000   000000   000000   000000   000000   000000   000000   000000               131556001         121556001         111556001         101556001    0    091556001    0    000000   000000   000000   000000   000000   000000   000000   000000   000000   000000   000000   000000                                      
920514000310014 10140 4140401Pt neuilly          0000000rn192/n1013         0000550Pt de Neuilly - N1920000300000550000000          00000000000504      116000         000000   000000   000000   000000   000000   000000   000000   000000   000000   000000   000000   000000               131160001         121160001         111160001         101160001    0    091160001    0    000000   000000   000000   000000   000000   000000   000000   000000   000000   000000   000000   000000                                      
920514100310014 10140 4150601N192/N1013          0000550A14 BLD CIRCULAIRE  0010360N 1014              0010500000810000000          00000000000699      080800         000000   000000   000000   000000   000000   000000   000000   000000   000000   000000   000000   000000               130808001         120808001         110808001         100808001    0    090808001    0    000000   000000   000000   000000   000000   000000   000000   000000   000000   000000   000000   000000                                      
920514200310014 00140 1150641N314                0020050A86                 0040000A14                 0030000001950000000          00000000000699      090672         000000   090720   091720   090708   000000   096043   090088   069157   094680   097149   093113   093343               130990001         120990001         110990001         100990001    0    090990001    0    000000   000000   000000   000000   000000   000000   000000   000000   000000   000000   000000   000000                                      
920514300310014 00140 1150641A86                 0040000LIMITE CONCESSION   0040550A14                 0040500001128000000          00000000000699      034700         000000   000000   000000   000000   000000   000000   000000   000000   000000   000000   000000   000000               130347001         120347001         110347001         100347001    0    090347001    0    000000   000000   000000   000000   000000   000000   000000   000000   000000   000000   000000   000000                                      
920516000310014 03150 4150601INTER D19           0010000A15 PR0             0030950RN315               0020000002680000000          00000000000699      052635         048822   063192   072639   053098   051542   053530   051485   035903   047451   053175   050722   050065               130512591         120514991         110504121         100454001    0    090454001    0    047989   051464   050366   053378   050472   054264   052990   044017   053059   054262   052067   051050                                      
920551000310014 00130 1150201ECH BP PTE MAILLOT  0000000SAINT CLOUD         0091403BRET STIE BD CIRC LA0040300004576004576000000000000000000000009      134063  47     137899   138336   069411   141565   142418   144201   130703   124081   147203   150959   142603   139381               131423591  447    121458971         111486331         101509391  430    091454271    0    135763   142237   139556   149803   145107   150393   140633   126586   146585   147440   144004   140870                                      
920999900310014 00140 1110201INTER N1014         0000000NANTERRE            0040550LIMITE CONCESSION   0040200003190003190000000000000000000000010      082767         081687   082576   083406   083695   083041   087745   083027   064679   085841   087784   084878   084849               130000001         120000001         110000001         100000001    0    090000001    0    000000   000000   000000   000000   000000   000000   000000   000000   000000   000000   000000   000000                                      
930500100310014 00010 1150641A1                  0000000RN410               0020400DEPT75-RN410        0000200002380002380          00000000001276      182791         000000   176030   180416   185896   184625   192542   185120   174348   188035   187525   180374   175793               131951001         121951001         111951001         101951001    0    091950731    0    000000   000000   000000   000000   000000   000000   000000   000000   000000   000000   000000   000000                                      
930500200310014 00010 1150441RN410               0020400RN1                 0040100RN410-RN1           0030000001707001707          00000000001276      134000         000000   000000   000000   000000   000000   000000   000000   000000   000000   000000   000000   000000               131340001         121340001         111340001         101340001    0    091340001    0    000000   000000   000000   000000   000000   000000   000000   000000   000000   000000   000000   000000                                      
930500300310014 00010 1150441RN1                 0040100RN301               0040900RN1-RN301           0040200000800000800          00000000001276      134000         000000   000000   000000   000000   000000   000000   000000   000000   000000   000000   000000   000000               131340001         121340001         111340001         101340001 1330    091340001 1890    000000   000000   000000   000000   000000   000000   000000   000000   000000   000000   000000   000000                                      
930500401310014 00010 1150441RN301               0040900A86                 0060900RN301-A86           0060400002018002018          00000000001276      123200         000000   000000   000000   000000   000000   000000   000000   000000   000000   000000   000000   000000               131232001         121232001         111232001         101232001    0    091232341    0    000000   000000   000000   000000   000000   000000   000000   000000   000000   000000   000000   000000                                      
930500402310014 00010 1150441A86                 0060900RN2                 0080700A86-RN2             0070500001802001802          00000000000599      172939         000000   000000   000000   000000   173201   184973   174803   154869   179090   180751   170199   165623               131703001         121703051         111685721         101810341    0    091705841    0    000000   000000   000000   000000   000000   000000   000000   000000   000000   000000   000000   000000                                      
930500500310014 00010 1150441RN2                 0080700A3                  0110300RN2-A3              0100000002605002605          00000000001276      177500         000000   000000   000000   000000   000000   000000   000000   000000   000000   000000   000000   000000               131775001         121775211         111768101         101789541 1630    091777041    0    000000   000000   000000   000000   000000   000000   000000   000000   000000   000000   000000   000000                                      
930500601310014 00010 1150441A3                  0110300A104                0120600A3-A104             0120000001291001291          00000000001276      122500         000000   000000   000000   000000   000000   000000   000000   000000   000000   000000   000000   000000               131225001         121225371         111213211         101340001    0    091340001    0    000000   000000   000000   000000   000000   000000   000000   000000   000000   000000   000000   000000                                      
930500602310014 00010 1150441A104                0120600DEPT95              0130401A104-DEPT95         0130100000802000802          00000000000599      092700         000000   000000   000000   000000   000000   000000   000000   000000   000000   000000   000000   000000               130927001         120927301         110946001         100946211    0    090988001    0    000000   000000   000000   000000   000000   000000   000000   000000   000000   000000   000000   000000                                      
930500700310014 01040 1150331A1                  0000000RD40                0010400A1-RD40             0000800001400001400          00000000001276      119800         000000   000000   000000   000000   000000   000000   000000   000000   000000   000000   000000   000000               131198001         121198001         111198001         101198001    0    091198001    0    000000   000000   000000   000000   000000   000000   000000   000000   000000   000000   000000   000000                                      
930500801310014 01040 1150331RD40                0010400PARC EXPO           0020500RD40-PARC EXPO      0010900001250001250          00000000000794      103200         000000   000000   000000   000000   000000   000000   000000   000000   000000   000000   000000   000000               131032001         121032001         111032001         101032001    0    091032001    0    000000   000000   000000   000000   000000   000000   000000   000000   000000   000000   000000   000000                                      
930500802310014 01040 1150331PARC EXPO           0020500RN2                 0030790PARC EXPO-RN2       0030700001290001290          00000000000599      108900         000000   000000   000000   000000   000000   000000   000000   000000   000000   000000   000000   000000               131089001         121089001         111089001         101089001    0    091089001    0    000000   000000   000000   000000   000000   000000   000000   000000   000000   000000   000000   000000                                      
930500900310014 00030 1150531DEPT75              0000000A186                0020200DEPT75-A186         0000500002257002257          00000000001276      160048         158165   161317   161079   163505   160302   160631   159191   153427   165656   000000   000000   157207               131633001         121633301         111678521         101636231    0    091737451    0    000000   000000   000000   000000   000000   000000   000000   000000   000000   000000   000000   000000                                      
930501000310014 00030 1150531A186                0020200A86                 0050200A186-A86            0040000002626002626          00000000001276      164783         162096   164866   164644   168985   166067   166634   164255   153900   171604   000000   000000   000000               131638001         121638421         111687041         101641211    0    091649001    0    000000   000000   000000   000000   000000   000000   000000   000000   000000   000000   000000   000000                                      
930501100310014 00030 1150531A86                 0050200RN3                 0080100A86-RN3             0060500002850002850          00000000001276      118500         000000   000000   000000   000000   000000   000000   000000   000000   000000   000000   000000   000000               131185001         121184941         110992001         100992001    0    090992001    0    000000   000000   000000   000000   000000   000000   000000   000000   000000   000000   000000   000000                                      
930501200310014 00030 1150531RN3                 0080100RD115               0100900RN3-RD115           0090000002800002800          00000000001276      083934         000000   000000   000000   000000   169635   000000   167556   163773   170508   000000   000000   000000               131599001         121598661         111490001         101490001    0    091490001    0    000000   000000   000000   000000   000000   000000   000000   000000   000000   000000   000000   000000                                      
930501300310014 00030 1150431RD115               0110000RN2                 0121000RD115-RN2           0120600002240002240          00000000001276      146400         000000   000000   000000   000000   000000   000000   000000   000000   000000   000000   000000   000000               131464001         121464001         111464001         101464001    0    091464001    0    000000   000000   000000   000000   000000   000000   000000   000000   000000   000000   000000   000000                                      
930501400310014 00030 1150531RN2                 0130000A1                  0150225RN2-A1              0140000002277002277          00000000001276      154900         000000   000000   000000   000000   000000   000000   000000   000000   000000   000000   000000   000000               131549001         121549061         111176001         101176001    0    091176001    0    000000   000000   000000   000000   000000   000000   000000   000000   000000   000000   000000   000000                                      
930501500310014 01030 1150231A3                  0000000RN302               0011246A3-RN302            0000400002025002025          00000000001276      047600         000000   000000   000000   000000   000000   000000   000000   000000   000000   000000   000000   000000               130476001         120476001         110461001         100461001    0    090461001    0    000000   000000   000000   000000   000000   000000   000000   000000   000000   000000   000000   000000                                      
930501601310014 00860 1150231A3                  0120000TC A3/A86           0140300A3 / TC A3/A86      0140000001425001425          00000000001276      118700         000000   000000   000000   000000   000000   000000   000000   000000   000000   000000   000000   000000               131187001         121187001         111187001         101187001    0    091187001    0    000000   000000   000000   000000   000000   000000   000000   000000   000000   000000   000000   000000                                      
930501602310014 00860 1150231TC A3/A86           0140300RN302               0140752TC A3/A86 / RN302   0140752000452000452          00000000001276      136600         000000   000000   000000   000000   000000   000000   000000   000000   000000   000000   000000   000000               131366001         121366001         111366001         101366001    0    091366001    0    000000   000000   000000   000000   000000   000000   000000   000000   000000   000000   000000   000000                                      
930501700310014 00860 1150231RN302               0150000RD37                0150500RN302-RD37          0150400000500000500          00000000000903      134500         000000   000000   000000   000000   000000   000000   000000   000000   000000   000000   000000   000000               131345001         121344661         111247001         101247001    0    091247001    0    000000   000000   000000   000000   000000   000000   000000   000000   000000   000000   000000   000000                                      
930501801310014 00860 1150441RD37                0150500RD43                0161000RD37-RD43           0150900001270001270          00000000000903      160600         000000   000000   000000   000000   000000   000000   000000   000000   000000   000000   000000   000000               131606001         121606301         111612241         100930971 1517    090944551 1877    000000   000000   000000   000000   000000   000000   000000   000000   000000   000000   000000   000000                                      
930501802310014 00860 1150441RD43                0170000DEPT94              0171153RD43-DEPT94         0170500001153001153          00000000000903      139600 151     000000   000000   000000   000000   000000   000000   000000   000000   000000   000000   000000   000000               131396001 1517    121396001 1517    111396001 1517    101396001 1517    091396001 1517    000000   000000   000000   000000   000000   000000   000000   000000   000000   000000   000000   000000                                      
930504800310014 01040 1150131RN2                 0040000RD40                0050600RN2-RD40            0040600001600001600          00000000000794      111200         000000   000000   000000   000000   000000   000000   000000   000000   000000   000000   000000   000000               131112001         121112001         111112001         101111551    0    091276001    0    000000   000000   000000   000000   000000   000000   000000   000000   000000   000000   000000   000000                                      
930504900310014 01040 1150231RD40                0050600DEPT77              0070108RD40-DEPT77         0060000001677001677          00000000031276      106700         000000   000000   000000   000000   000000   000000   000000   000000   000000   000000   000000   000000               131067001         121067001         111067001         101066881    0    091031001    0    000000   000000   000000   000000   000000   000000   000000   000000   000000   000000   000000   000000                                      
940002500310014 00060 4150201RN 6 / RN186        0130195RN 6 / CD 94        0150385ENTRE RN 186 / CD 940140285002190002190          00000000001287      050700  71     000000   000000   000000   000000   000000   000000   000000   000000   000000   000000   000000   000000               130507001  717    120507381  717    110524611  747    100536791  707    090537411  887    000000   000000   000000   000000   000000   000000   000000   000000   000000   000000   000000   000000                                      
940002600310014 00060 4156001RN 6 / CD 94        0150385RN 6 / CD 38        0170610ENTRE CD 94 ET CD 380160200002225002225          00000000001287      053300         000000   000000   000000   000000   000000   000000   000000   000000   000000   000000   000000   000000               130533008         120533008         110533008         100533008    0    090533008    0    000000   000000   000000   000000   000000   000000   000000   000000   000000   000000   000000   000000                                      
940002800310014 00060 4156001RN 6 / CD 32        0180530ESSONE              0190379ENTRE CD 32 / ESSONE0190000000849000849          91000100031287      037739  47     036482   036858   037654   042163   039200   044989   032354   032819   042537   040925   033593   033291               130344791  517    120349271  517    110360531  517    100415421  517    090425771  537    034142   034978   034182   035723   034684   036693   036648   032685   036169   033354   028850   035673                                      
940004200310014 00190 4150201RN 19 / CD 136      0180000RN 19 / CD 94E      0190620ENTRE CD 136 /CD 94E0190600001620001620          00000000001287      035732  64     035610   035757   036746   034733   036241   037624   034479   027858   036985   037890   037632   037227               130350071  647    120328101  647    110362001         100362001    0    090362001    0    033711   036091   035787   038083   034382   034263   033392   027915   036637   037561   036738   035823                                      
940007600310014 01860 4150201RN 186 / CD 65      0170654RN 186 / RN 7       0190140ENTRE CD 65 ET RN 7 0180000001486001486          00000000001287      065445  53     062777   064278   064750   066911   066658   067690   064558   059038   067477   069038   066089   066071               130636261         120637871  537    110634091  537    100621671  537    090589171  547    062313   062222   063308   065201   063241   065956   064146   059003   065604   066161   063268   063133                                      
940073300310014 04060 4140301RN406/A86           0000000RN406 / RD60D       0030200Val POMPADOUR       0020000003226003226000000000000000000000200      080400         000000   000000   000000   000000   000000   000000   000000   000000   000000   000000   000000   000000               130804001         120804421         110817741         100785731    0    090783351    0    000000   000000   000000   000000   000000   000000   000000   000000   000000   000000   000000   000000                                      
940073400310014 04060 4140301RN406 / RD60D       0030200RN406 / RN19        0051002ENTRE RN406 ET RD60D0050500002812002812          00000000000195      034800  76     000000   000000   000000   000000   000000   000000   000000   000000   000000   000000   000000   000000               130348001         120348001         110348001         100347961  767    090381261  767    000000   000000   000000   000000   000000   000000   000000   000000   000000   000000   000000   000000                                      
940500100310014 00040 1150641A.4 / C.D.50        0000000A.4 / PARIS         0000700ENTRE C.D.50 / R.N6 0000250000700000701          00000000001287      205500         000000   000000   000000   000000   000000   000000   000000   000000   000000   000000   000000   000000               132055001         122055001         112055031         101974731    0    092073771    0    000000   000000   000000   000000   000000   000000   000000   000000   000000   000000   000000   000000                                      
940500200310014 00040 1150641A.4 / C.D.50        0000700A.4 / R.N.6         0020250ENTRE C.D.50 / R.N 60010100001568001568          00000000001287      225300         000000   000000   000000   000000   000000   000000   000000   000000   000000   000000   000000   000000               132253001         122253001         112253501         102120471    0    092369381    0    000000   000000   000000   000000   000000   000000   000000   000000   000000   000000   000000   000000                                      
940500309310014 00040 1150641A.4 / R.N.6         0020250A.4 / A.86          0030660ENTRE R.N.6 / A.86  0020700001414001414          00000000001287      228200         000000   000000   000000   000000   000000   000000   000000   000000   000000   000000   000000   000000               132282001         122282001         112282421         101399821    0    092369001    0    000000   000000   000000   000000   000000   000000   000000   000000   000000   000000   000000   000000                                      
940500400310014 00040 1150641A.4 / A.86          0030660A.4 / R.N.186       0060100ENTRE A.86 / R.N.1860040600002466002466          00000000001287      215775  81     215775   000000   000000   000000   000000   000000   000000   000000   000000   000000   000000   000000               132202071  817    122199541  817    112246361  817    102586001    0    091421001    0    212171   217857   218019   225033   220876   225098   223249   207368   224630   228328   219938   220132                                      
940500501310014 00040 1150641A.4 / R.N.186       0060100A.4 / C.D.45        0080250ENTRE A.86 / C.D.45 0070350002153002153          00000000001287      148936         148089   151599   149421   150560   148585   152691   147123   130666   152002   155771   151875   148855               131457021         121441541         111443601         102410001    0    092410001    0    135809   143947   141531   151115   144324   155748   148268   130641   150401   153029   147257   146892                                      
940500600310014 00040 1150641A.4 / C.D.45        0080250A.4 / R.N.303       0090450ENTRE CD.45 / RN.3030080800001199001199          00000000001287      178718         000000   180277   000000   000000   000000   000000   000000   000000   000000   000000   000000   177158               131788001         121788001         111788001         101788001    0    091788001    0    000000   000000   000000   000000   000000   000000   000000   000000   000000   000000   000000   000000                                      
940500709310014 00040 1150641A4 / RN303          0090450A4 / Limite 93      0120700Champigny           0100450003700003700          00000000000200      152200         000000   000000   000000   000000   000000   000000   000000   000000   000000   000000   000000   000000               131522001         121522001         111521641         100000001    0    090770611 1487    000000   000000   000000   000000   000000   000000   000000   000000   000000   000000   000000   000000                                      
940501209310013 00860 1150341A86 / RD1           0260000A86 / RN6           0271007CRETEIL             0270000002017002017          00000000000200      154200 112     000000   000000   000000   000000   000000   000000   000000   000000   000000   000000   000000   000000               131542001 1127    121542001 1127    111542001 1127    101542001 1127    091542001 1127    000000   000000   000000   000000   000000   000000   000000   000000   000000   000000   000000   000000                                      
940501309310014 00060A1150441A6A / PTE ORLEANS   0000000A6A / VOIE LENTE    0020150ARCUEIL A6a         0020000002179002179          00000000000200      121000  44     000000   000000   000000   000000   000000   000000   000000   000000   000000   000000   000000   000000               131209651  447    121244361  447    111301841  447    101474701  447    091175081  377    113390   116279   116967   120631   124823   131034   123629   000000   000000   000000   000000   000000                                      
940501400310014 00060A1150441A.6A / A.6B         0020150A.6A / A.106        0051000ENTRE A.6B / A.106  0050000003865003865          00000000000193      122579         115197   118436   120154   000000   121321   131029   132358   117836   126374   126254   119865   119543               131213431         121232241         111225081         101381851    0    091226721    0    109393   115436   117288   000000   122017   000000   133240   118490   123700   124773   119326   120769                                      
940501500310014 00060A1150441A.6A / A106         0060000A.6A / DEPT 91      0080414ENTRE RN186 / DEP 910070500002424002424          00000000000193      120500         000000   000000   000000   000000   000000   000000   000000   000000   000000   000000   000000   000000               131205001         121204511         111222531         101210181    0    091220131    0    000000   000000   000000   000000   000000   000000   000000   000000   000000   000000   000000   000000                                      
940501701310014 00060B1150241A.6B / LIMITE PARIS 0000000A.6B / A.6A         0021007ARCUEIL A6b         0010240003007003007          00000000000193      112900  37     000000   000000   000000   000000   000000   000000   000000   000000   000000   000000   000000   000000               131129001  377    121129001  377    111128801  377    100673061  997    091144921  977    000000   000000   000000   000000   000000   000000   000000   000000   000000   000000   000000   000000                                      
940501800310014 00060B1150241A.6B / A.6A         0030000A.6B / A.106        0041000ENTRE A.6A / A.106  0040000002005002005          00000000001287      143194         138590   142131   142885   146208   141407   145744   152396   136187   000000   000000   000000   000000               131402531         121165261         111128131         100819021    0    091406101    0    130547   139873   137629   000000   139982   146499   145324   134509   146304   144815   137783   139552                                      
940502100310014 00060B1150441A.6B / A.106        0050000A.6B / RN 186       0070250ENTRE A.106 / RN.1860050025002248002248          00000000001287      077259         074295   074651   075301   078423   076312   080541   082431   075377   078911   080576   075102   075186               130537291         120533731         110835241         100740661    0    090853851    0    049474   052732   053005   056530   053234   059087   056793   051450   054880   054608   051684   051411                                      
940502200310014 00060B1150441A.6B / RN.186       0070250A.6B / LIMITE 91    0080414ENTRE RN.186 / DEP910080000001170001170          00000000001287      152612         000000   000000   000000   000000   000000   155553   000000   000000   000000   000000   000000   149671               131578001         121578001         111578481         101463001    0    091463001    0    000000   000000   000000   000000   000000   000000   000000   000000   000000   000000   000000   000000                                      
940502300310014 00860 1150441A86 / RN6           0280000A86 / RN305         0310400ENTRE RN305 ET RN6  0290000003396000000          00000000001287      139300 103     000000   000000   000000   000000   000000   000000   000000   000000   000000   000000   000000   000000               131393001 1037    121393001 1827    111393001 1827    101393471 1827    091393471 1827    000000   000000   000000   000000   000000   000000   000000   000000   000000   000000   000000   000000                                      
940502400310014 00860 1140441A86 / RN305         0310400A86 / RN186         0340991ENTRE RD124 / RN186 0340500003632000000          00000000000990      126600 110     000000   000000   000000   000000   000000   000000   000000   000000   000000   000000   000000   000000               131265951 1107    121283441 1107    111271651 1137    101288361 1017    091251981 1047    125063   125346   125862   127341   125164   129465   127924   000000   000000   000000   000000   000000                                      
940502500310014 00860 1150241A86 / RN186         0350000A86 / RN7           0350999ENTRE RN186 ET RD65 0350100000999000000          00000000000194      089142 110     087228   087312   090377   091157   090807   088967   089445   086826   087649   092584   089554   087649               130900891 1127    120911321 1107    110924651         100915811 1177    090828691 1157    087671   088664   090646   093161   091074   092851   091063   088769   091095   091258   087153   087654                                      
940502600310014 00860 1150241A86 / RN7           0360000A86/RD65            0361002RN7 - RD65          0360100001002000000          00000000000194      091000         000000   000000   000000   000000   000000   000000   000000   000000   000000   000000   000000   000000               130910001         120910001         110910001         100910001    0    090910001    0    000000   000000   000000   000000   000000   000000   000000   000000   000000   000000   000000   000000                                      
940502700310014 00860 1150241A86/RD65            0370000A86/A6b             0380400RD65 - A6b          0370100001400000000          00000000000194      186681         000000   184607   190076   192020   000000   193753   185441   168286   185477   192294   187836   187017               131660811         121754001         111754001         101753691    0    091803301    0    155353   163457   164245   170692   165462   172933   171127   157797   000000   170530   165765   168233                                      
940502800310014 00860 1150241A86/A6b             0380400A86/dpt92           0391009A6b - DEPT92        0390000001617000000          00000000000194      079329  68     092225   088857   000000   082099   093892   098279   031745   000000   000000   000000   000000   068205               130959731  687    120964441  657    110966831         100941841  647    090857241    0    093825   096522   096839   099102   097339   100020   094346   084297   099261   100030   095181   095276                                      
950000400310014 00010 4127001D104                0100000A16                 0130370N1 MAFFLIERS        0120100003131003131000000000000000000000796      031377  63     024848   000000   030725   034185   033635   035018   027285   023883   034871   034880   033343   032477               130326011         120325091  517    110320491         100307721  647    090336891  927    000000   000000   000000   000000   000000   000000   000000   000000   000000   034346   032922   030535                                      
